{
  "address": "0x8fcCE3A5984760570994A62da11B0BDF91043c51",
  "abi": [
    {
      "inputs": [
        {
          "internalType": "address",
          "name": "_endpoint",
          "type": "address"
        },
        {
          "internalType": "address",
          "name": "_oApp",
          "type": "address"
        }
      ],
      "stateMutability": "nonpayable",
      "type": "constructor"
    },
    {
      "anonymous": false,
      "inputs": [
        {
          "indexed": false,
          "internalType": "uint32",
          "name": "sourceEid",
          "type": "uint32"
        },
        {
          "indexed": false,
          "internalType": "string",
          "name": "message",
          "type": "string"
        }
      ],
      "name": "MessageReceived",
      "type": "event"
    },
    {
      "inputs": [],
      "name": "endpoint",
      "outputs": [
        {
          "internalType": "address",
          "name": "",
          "type": "address"
        }
      ],
      "stateMutability": "view",
      "type": "function"
    },
    {
      "inputs": [
        {
          "internalType": "address",
          "name": "_oApp",
          "type": "address"
        },
        {
          "internalType": "bytes32",
          "name": "",
          "type": "bytes32"
        },
        {
          "internalType": "bytes",
          "name": "_message",
          "type": "bytes"
        },
        {
          "internalType": "address",
          "name": "",
          "type": "address"
        },
        {
          "internalType": "bytes",
          "name": "",
          "type": "bytes"
        }
      ],
      "name": "lzCompose",
      "outputs": [],
      "stateMutability": "payable",
      "type": "function"
    },
    {
      "inputs": [],
      "name": "oApp",
      "outputs": [
        {
          "internalType": "address",
          "name": "",
          "type": "address"
        }
      ],
      "stateMutability": "view",
      "type": "function"
    }
  ],
  "transactionHash": "0x56a99bf9d3bbd0227a99468c2e5b5c3ce694f9b83bf27f1b00caa321b6f73234",
  "args": [
    "0x6EDCE65403992e310A62460808c4b910D972f10f",
    "0xa7d4ED3787d9961bC91AF0063b68F0Cb66141fAA"
  ],
  "numDeployments": 6,
  "solcInputHash": "91936605df3b115679b48be6497bb4b0",
  "bytecode": "0x60c060405234801561001057600080fd5b5060405161060438038061060483398101604081905261002f91610062565b6001600160a01b039182166080521660a052610095565b80516001600160a01b038116811461005d57600080fd5b919050565b6000806040838503121561007557600080fd5b61007e83610046565b915061008c60208401610046565b90509250929050565b60805160a05161053f6100c560003960008181604b015260d4015260008181609b015261014b015261053f6000f3fe6080604052600436106100345760003560e01c806352ae2879146100395780635e280f1114610089578063d0a10260146100bd575b600080fd5b34801561004557600080fd5b5061006d7f000000000000000000000000000000000000000000000000000000000000000081565b6040516001600160a01b03909116815260200160405180910390f35b34801561009557600080fd5b5061006d7f000000000000000000000000000000000000000000000000000000000000000081565b6100d06100cb3660046102ea565b6100d2565b005b7f00000000000000000000000000000000000000000000000000000000000000006001600160a01b0316876001600160a01b0316146101405760405162461bcd60e51b81526020600482015260056024820152640216f4170760dc1b60448201526064015b60405180910390fd5b336001600160a01b037f000000000000000000000000000000000000000000000000000000000000000016146101a45760405162461bcd60e51b815260206004820152600960248201526808595b991c1bda5b9d60ba1b6044820152606401610137565b60006101b08686610217565b905060006101be878761023a565b8060200190518101906101d191906103c2565b90507f52e077b83a211c3a33441984a94e941ceb396316d99d58314bf018f40ecefabd828260405161020492919061046f565b60405180910390a1505050505050505050565b6000610227600c600884866104af565b610230916104d9565b60e01c9392505050565b606061024982604c81866104af565b8080601f016020809104026020016040519081016040528093929190818152602001838380828437600092019190915250929695505050505050565b80356001600160a01b038116811461029c57600080fd5b919050565b60008083601f8401126102b357600080fd5b50813567ffffffffffffffff8111156102cb57600080fd5b6020830191508360208285010111156102e357600080fd5b9250929050565b600080600080600080600060a0888a03121561030557600080fd5b61030e88610285565b965060208801359550604088013567ffffffffffffffff8082111561033257600080fd5b61033e8b838c016102a1565b909750955085915061035260608b01610285565b945060808a013591508082111561036857600080fd5b506103758a828b016102a1565b989b979a50959850939692959293505050565b634e487b7160e01b600052604160045260246000fd5b60005b838110156103b95781810151838201526020016103a1565b50506000910152565b6000602082840312156103d457600080fd5b815167ffffffffffffffff808211156103ec57600080fd5b818401915084601f83011261040057600080fd5b81518181111561041257610412610388565b604051601f8201601f19908116603f0116810190838211818310171561043a5761043a610388565b8160405282815287602084870101111561045357600080fd5b61046483602083016020880161039e565b979650505050505050565b63ffffffff83168152604060208201526000825180604084015261049a81606085016020870161039e565b601f01601f1916919091016060019392505050565b600080858511156104bf57600080fd5b838611156104cc57600080fd5b5050820193919092039150565b6001600160e01b031981358181169160048510156105015780818660040360031b1b83161692505b50509291505056fea26469706673582212202066ea1daf468436e01dc778c53d41a76df1d5b899e85a3d82aede57dedce00d64736f6c63430008160033",
  "devdoc": {
    "events": {
      "MessageReceived(uint32,string)": {
        "params": {
          "message": "The amount of tokens swapped.",
          "sourceEid": "The endpoint id of source chain."
        }
      }
    },
    "kind": "dev",
    "methods": {
      "constructor": {
        "details": "Initializes the contract.",
        "params": {
          "_endpoint": "LayerZero Endpoint address",
          "_oApp": "The address of the OApp that is sending the composed message."
        }
      },
      "lzCompose(address,bytes32,bytes,address,bytes)": {
        "details": "Decodes the message payload to perform a token swap.      This method expects the encoded compose message to contain the swap amount and recipient address.",
        "params": {
          "": "/*Executor Data*/ Additional data for checking for a specific executor (unused in this mock).",
          "_message": "The encoded message content in the format of the OFTComposeMsgCodec.",
          "_oApp": "The address of the originating OApp."
        }
      }
    },
    "version": 1
  },
  "userdoc": {
    "events": {
      "MessageReceived(uint32,string)": {
        "notice": "Emitted when a message received."
      }
    },
    "kind": "user",
    "methods": {
      "constructor": {
        "notice": "Constructs the SwapMock contract."
      },
      "lzCompose(address,bytes32,bytes,address,bytes)": {
        "notice": "Handles incoming composed messages from LayerZero."
      }
    },
    "version": 1
  },
  "storageLayout": {
    "storage": [],
    "types": null
  }
}