{
  "address": "0x3459Cf96fd0cbD870Bd001305E28f98e4fb8aEfB",
  "abi": [
    {
      "inputs": [],
      "stateMutability": "nonpayable",
      "type": "constructor"
    },
    {
      "anonymous": false,
      "inputs": [
        {
          "indexed": false,
          "internalType": "bytes",
          "name": "_payload",
          "type": "bytes"
        }
      ],
      "name": "AvailableJob",
      "type": "event"
    },
    {
      "inputs": [],
      "name": "admin",
      "outputs": [
        {
          "internalType": "address",
          "name": "",
          "type": "address"
        }
      ],
      "stateMutability": "view",
      "type": "function"
    },
    {
      "inputs": [
        {
          "internalType": "address",
          "name": "target",
          "type": "address"
        },
        {
          "internalType": "bytes",
          "name": "data",
          "type": "bytes"
        }
      ],
      "name": "adminCall",
      "outputs": [],
      "stateMutability": "payable",
      "type": "function"
    },
    {
      "inputs": [
        {
          "internalType": "bytes",
          "name": "_payload",
          "type": "bytes"
        }
      ],
      "name": "executeJob",
      "outputs": [],
      "stateMutability": "payable",
      "type": "function"
    },
    {
      "inputs": [],
      "name": "getAdmin",
      "outputs": [
        {
          "internalType": "address",
          "name": "adminAddress",
          "type": "address"
        }
      ],
      "stateMutability": "view",
      "type": "function"
    },
    {
      "inputs": [],
      "name": "getBridge",
      "outputs": [
        {
          "internalType": "address",
          "name": "bridge",
          "type": "address"
        }
      ],
      "stateMutability": "view",
      "type": "function"
    },
    {
      "inputs": [],
      "name": "getHolograph",
      "outputs": [
        {
          "internalType": "address",
          "name": "holograph",
          "type": "address"
        }
      ],
      "stateMutability": "view",
      "type": "function"
    },
    {
      "inputs": [],
      "name": "getInterfaces",
      "outputs": [
        {
          "internalType": "address",
          "name": "interfaces",
          "type": "address"
        }
      ],
      "stateMutability": "view",
      "type": "function"
    },
    {
      "inputs": [],
      "name": "getLZEndpoint",
      "outputs": [
        {
          "internalType": "address",
          "name": "lZEndpoint",
          "type": "address"
        }
      ],
      "stateMutability": "view",
      "type": "function"
    },
    {
      "inputs": [],
      "name": "getRegistry",
      "outputs": [
        {
          "internalType": "address",
          "name": "registry",
          "type": "address"
        }
      ],
      "stateMutability": "view",
      "type": "function"
    },
    {
      "inputs": [
        {
          "internalType": "bytes",
          "name": "data",
          "type": "bytes"
        }
      ],
      "name": "init",
      "outputs": [
        {
          "internalType": "bytes4",
          "name": "",
          "type": "bytes4"
        }
      ],
      "stateMutability": "nonpayable",
      "type": "function"
    },
    {
      "inputs": [
        {
          "internalType": "uint16",
          "name": "_srcChainId",
          "type": "uint16"
        },
        {
          "internalType": "bytes",
          "name": "_srcAddress",
          "type": "bytes"
        },
        {
          "internalType": "uint64",
          "name": "_nonce",
          "type": "uint64"
        },
        {
          "internalType": "bytes",
          "name": "_payload",
          "type": "bytes"
        }
      ],
      "name": "jobEstimator",
      "outputs": [],
      "stateMutability": "payable",
      "type": "function"
    },
    {
      "inputs": [
        {
          "internalType": "uint16",
          "name": "",
          "type": "uint16"
        },
        {
          "internalType": "bytes",
          "name": "_srcAddress",
          "type": "bytes"
        },
        {
          "internalType": "uint64",
          "name": "",
          "type": "uint64"
        },
        {
          "internalType": "bytes",
          "name": "_payload",
          "type": "bytes"
        }
      ],
      "name": "lzReceive",
      "outputs": [],
      "stateMutability": "payable",
      "type": "function"
    },
    {
      "inputs": [
        {
          "internalType": "uint32",
          "name": "toChain",
          "type": "uint32"
        },
        {
          "internalType": "address",
          "name": "msgSender",
          "type": "address"
        },
        {
          "internalType": "bytes",
          "name": "_payload",
          "type": "bytes"
        }
      ],
      "name": "send",
      "outputs": [],
      "stateMutability": "payable",
      "type": "function"
    },
    {
      "inputs": [
        {
          "internalType": "address",
          "name": "adminAddress",
          "type": "address"
        }
      ],
      "name": "setAdmin",
      "outputs": [],
      "stateMutability": "nonpayable",
      "type": "function"
    },
    {
      "inputs": [
        {
          "internalType": "address",
          "name": "bridge",
          "type": "address"
        }
      ],
      "name": "setBridge",
      "outputs": [],
      "stateMutability": "nonpayable",
      "type": "function"
    },
    {
      "inputs": [
        {
          "internalType": "address",
          "name": "holograph",
          "type": "address"
        }
      ],
      "name": "setHolograph",
      "outputs": [],
      "stateMutability": "nonpayable",
      "type": "function"
    },
    {
      "inputs": [
        {
          "internalType": "address",
          "name": "interfaces",
          "type": "address"
        }
      ],
      "name": "setInterfaces",
      "outputs": [],
      "stateMutability": "nonpayable",
      "type": "function"
    },
    {
      "inputs": [
        {
          "internalType": "address",
          "name": "lZEndpoint",
          "type": "address"
        }
      ],
      "name": "setLZEndpoint",
      "outputs": [],
      "stateMutability": "nonpayable",
      "type": "function"
    },
    {
      "inputs": [
        {
          "internalType": "address",
          "name": "registry",
          "type": "address"
        }
      ],
      "name": "setRegistry",
      "outputs": [],
      "stateMutability": "nonpayable",
      "type": "function"
    }
  ],
  "transactionHash": "0x0d9dcf57e67f63884bdb3e9efea6587109a55c5cb2113bed431901b3e90790a4",
  "args": [],
  "numDeployments": 3,
  "solcInputHash": "767311d424ba67117a9aa62b57af877e",
  "bytecode": "0x608060405234801561001057600080fd5b50611934806100206000396000f3fe6080604052600436106101435760003560e01c80636e9960c3116100c0578063a91ee0dc11610074578063da8292d911610059578063da8292d9146103c4578063ebac15f9146103e4578063f851a4401461041857600080fd5b8063a91ee0dc14610391578063bf64a82d146103b157600080fd5b8063778fd1d1116100a5578063778fd1d11461034b5780637a143a1b1461035e5780638dd148021461037157600080fd5b80636e9960c3146102f7578063704b6c021461032b57600080fd5b80634827ae0c116101175780634ddf47d4116100fc5780634ddf47d41461025f5780635ab1bd53146102b057806368346a92146102e457600080fd5b80634827ae0c1461020b5780634b40f1bf1461023f57600080fd5b80621d3567146101485780630fffbaf31461015d57806325d5cac8146101b757806336c5ab40146101d7575b600080fd5b61015b61015636600461133c565b61042d565b005b34801561016957600080fd5b507f03be85923973d3197c19b1ad1f9b28c331dd9229cd80cbf84926b2286fc4563f545b60405173ffffffffffffffffffffffffffffffffffffffff90911681526020015b60405180910390f35b3480156101c357600080fd5b5061015b6101d2366004611404565b6105f5565b3480156101e357600080fd5b507f2944abfef32f38db0df81ab8a585718b1584ffa240274312f8a85cb682b6b6885461018d565b34801561021757600080fd5b507f1eee493315beeac80829afd0aaa340f3821cabe68571a2743478e81638a3d94d5461018d565b34801561024b57600080fd5b5061015b61025a366004611404565b6106d4565b34801561026b57600080fd5b5061027f61027a366004611457565b6107ae565b6040517fffffffff0000000000000000000000000000000000000000000000000000000090911681526020016101ae565b3480156102bc57600080fd5b507f460c4059d72b144253e5fc4e2aacbae2bcd6362c67862cd58ecbab0e7b10c3495461018d565b61015b6102f2366004611526565b610966565b34801561030357600080fd5b507f5705f5753aa4f617eef2cae1dada3d3355e9387b04d19191f09b545e684ca50d5461018d565b34801561033757600080fd5b5061015b610346366004611404565b610c2d565b61015b610359366004611594565b610d07565b61015b61036c36600461133c565b610e13565b34801561037d57600080fd5b5061015b61038c366004611404565b610f5b565b34801561039d57600080fd5b5061015b6103ac366004611404565b611035565b61015b6103bf3660046115d6565b61110f565b3480156103d057600080fd5b5061015b6103df366004611404565b6111ea565b3480156103f057600080fd5b507f23e584d4fb363739321c1e56c9bcdc29517a4c57065f8502226c995fd15b24725461018d565b34801561042457600080fd5b5061018d6112c4565b337f2944abfef32f38db0df81ab8a585718b1584ffa240274312f8a85cb682b6b68854146104cd573330146104cd577f08c379a0000000000000000000000000000000000000000000000000000000006080527c200000000000000000000000000000000000000000000000000000000060a0527c1b484f4c4f47524150483a204c5a206f6e6c7920656e64706f696e740060c052600060e05260c46080fd5b6040518486600c8301378051301480610570577f08c379a0000000000000000000000000000000000000000000000000000000006080527c200000000000000000000000000000000000000000000000000000000060a0527c1e484f4c4f47524150483a20756e617574686f72697a65642073656e6460c0527f657200000000000000000000000000000000000000000000000000000000000060e05260c46080fd5b50506001600080848460405161058792919061162b565b6040518091039020815260200190815260200160002060006101000a81548160ff0219169083151502179055507f6114b34f1f941c01691c47744b4fbc0dd9d542be34241ba84fc4c0bd9bef9b1182826040516105e5929190611684565b60405180910390a1505050505050565b7f5705f5753aa4f617eef2cae1dada3d3355e9387b04d19191f09b545e684ca50d5473ffffffffffffffffffffffffffffffffffffffff163373ffffffffffffffffffffffffffffffffffffffff16146106b0576040517f08c379a000000000000000000000000000000000000000000000000000000000815260206004820152601e60248201527f484f4c4f47524150483a2061646d696e206f6e6c792066756e6374696f6e000060448201526064015b60405180910390fd5b7f1eee493315beeac80829afd0aaa340f3821cabe68571a2743478e81638a3d94d55565b7f5705f5753aa4f617eef2cae1dada3d3355e9387b04d19191f09b545e684ca50d5473ffffffffffffffffffffffffffffffffffffffff163373ffffffffffffffffffffffffffffffffffffffff161461078a576040517f08c379a000000000000000000000000000000000000000000000000000000000815260206004820152601e60248201527f484f4c4f47524150483a2061646d696e206f6e6c792066756e6374696f6e000060448201526064016106a7565b7f2944abfef32f38db0df81ab8a585718b1584ffa240274312f8a85cb682b6b68855565b60006107da7f4e5f991bca30eca2d4643aaefa807e88f96a4a97398933d572a3c0d973004a0154151590565b15610841576040517f08c379a000000000000000000000000000000000000000000000000000000000815260206004820152601e60248201527f484f4c4f47524150483a20616c726561647920696e697469616c697a6564000060448201526064016106a7565b6000806000808580602001905181019061085b91906116a0565b9350935093509350327f5705f5753aa4f617eef2cae1dada3d3355e9387b04d19191f09b545e684ca50d55837f03be85923973d3197c19b1ad1f9b28c331dd9229cd80cbf84926b2286fc4563f55827f1eee493315beeac80829afd0aaa340f3821cabe68571a2743478e81638a3d94d55817f23e584d4fb363739321c1e56c9bcdc29517a4c57065f8502226c995fd15b247255807f460c4059d72b144253e5fc4e2aacbae2bcd6362c67862cd58ecbab0e7b10c3495561093b60017f4e5f991bca30eca2d4643aaefa807e88f96a4a97398933d572a3c0d973004a0155565b507f4ddf47d40000000000000000000000000000000000000000000000000000000095945050505050565b7f03be85923973d3197c19b1ad1f9b28c331dd9229cd80cbf84926b2286fc4563f5473ffffffffffffffffffffffffffffffffffffffff163373ffffffffffffffffffffffffffffffffffffffff1614610a1c576040517f08c379a000000000000000000000000000000000000000000000000000000000815260206004820152601b60248201527f484f4c4f47524150483a20627269646765206f6e6c792063616c6c000000000060448201526064016106a7565b7f2944abfef32f38db0df81ab8a585718b1584ffa240274312f8a85cb682b6b6885473ffffffffffffffffffffffffffffffffffffffff811663c580310034610a837f23e584d4fb363739321c1e56c9bcdc29517a4c57065f8502226c995fd15b24725490565b73ffffffffffffffffffffffffffffffffffffffff166320fc06ea60028a63ffffffff1660036040518463ffffffff1660e01b8152600401610ac79392919061173a565b602060405180830381865afa158015610ae4573d6000803e3d6000fd5b505050506040513d601f19601f82011682018060405250810190610b08919061175b565b6040517fffffffffffffffffffffffffffffffffffffffff0000000000000000000000003060601b16602082018190526034820152604801604080517fffffffffffffffffffffffffffffffffffffffffffffffffffffffffffffffe081840301815291905287878a306001610b7f8460196117a3565b610b8b9061cb206117e0565b60405160f09290921b7fffff00000000000000000000000000000000000000000000000000000000000016602083015260228201526042016040516020818303038152906040526040518963ffffffff1660e01b8152600401610bf49796959493929190611863565b6000604051808303818588803b158015610c0d57600080fd5b505af1158015610c21573d6000803e3d6000fd5b50505050505050505050565b7f5705f5753aa4f617eef2cae1dada3d3355e9387b04d19191f09b545e684ca50d5473ffffffffffffffffffffffffffffffffffffffff163373ffffffffffffffffffffffffffffffffffffffff1614610ce3576040517f08c379a000000000000000000000000000000000000000000000000000000000815260206004820152601e60248201527f484f4c4f47524150483a2061646d696e206f6e6c792066756e6374696f6e000060448201526064016106a7565b7f5705f5753aa4f617eef2cae1dada3d3355e9387b04d19191f09b545e684ca50d55565b60008282604051610d1992919061162b565b604080519182900390912060008181526020819052919091205490915060ff16610d9f576040517f08c379a000000000000000000000000000000000000000000000000000000000815260206004820152601660248201527f484f4c4f47524150483a20696e76616c6964206a6f620000000000000000000060448201526064016106a7565b60003681823780813683347f03be85923973d3197c19b1ad1f9b28c331dd9229cd80cbf84926b2286fc4563f545af1610dda573d81823e3d81fd5b50600090815260208190526040902080547fffffffffffffffffffffffffffffffffffffffffffffffffffffffffffffff001690555050565b3360605114610e8d577f08c379a0000000000000000000000000000000000000000000000000000000006080527c200000000000000000000000000000000000000000000000000000000060a0527c18484f4c4f47524150483a206f70657261746f72206f6e6c790000000060c052600060e05260c46080fd5b6040517e1d35670000000000000000000000000000000000000000000000000000000081523090621d356790610ed1908990899089908990899089906004016118d9565b600060405180830381600087803b158015610eeb57600080fd5b505af1158015610eff573d6000803e3d6000fd5b50506040517f778fd1d100000000000000000000000000000000000000000000000000000000815230925063778fd1d19150610f419085908590600401611684565b600060405180830381600087803b158015610c0d57600080fd5b7f5705f5753aa4f617eef2cae1dada3d3355e9387b04d19191f09b545e684ca50d5473ffffffffffffffffffffffffffffffffffffffff163373ffffffffffffffffffffffffffffffffffffffff1614611011576040517f08c379a000000000000000000000000000000000000000000000000000000000815260206004820152601e60248201527f484f4c4f47524150483a2061646d696e206f6e6c792066756e6374696f6e000060448201526064016106a7565b7f03be85923973d3197c19b1ad1f9b28c331dd9229cd80cbf84926b2286fc4563f55565b7f5705f5753aa4f617eef2cae1dada3d3355e9387b04d19191f09b545e684ca50d5473ffffffffffffffffffffffffffffffffffffffff163373ffffffffffffffffffffffffffffffffffffffff16146110eb576040517f08c379a000000000000000000000000000000000000000000000000000000000815260206004820152601e60248201527f484f4c4f47524150483a2061646d696e206f6e6c792066756e6374696f6e000060448201526064016106a7565b7f460c4059d72b144253e5fc4e2aacbae2bcd6362c67862cd58ecbab0e7b10c34955565b7f5705f5753aa4f617eef2cae1dada3d3355e9387b04d19191f09b545e684ca50d5473ffffffffffffffffffffffffffffffffffffffff163373ffffffffffffffffffffffffffffffffffffffff16146111c5576040517f08c379a000000000000000000000000000000000000000000000000000000000815260206004820152601e60248201527f484f4c4f47524150483a2061646d696e206f6e6c792066756e6374696f6e000060448201526064016106a7565b808260003760008082600034875af13d6000803e8080156111e5573d6000f35b3d6000fd5b7f5705f5753aa4f617eef2cae1dada3d3355e9387b04d19191f09b545e684ca50d5473ffffffffffffffffffffffffffffffffffffffff163373ffffffffffffffffffffffffffffffffffffffff16146112a0576040517f08c379a000000000000000000000000000000000000000000000000000000000815260206004820152601e60248201527f484f4c4f47524150483a2061646d696e206f6e6c792066756e6374696f6e000060448201526064016106a7565b7f23e584d4fb363739321c1e56c9bcdc29517a4c57065f8502226c995fd15b247255565b60006112ee7f5705f5753aa4f617eef2cae1dada3d3355e9387b04d19191f09b545e684ca50d5490565b905090565b60008083601f84011261130557600080fd5b50813567ffffffffffffffff81111561131d57600080fd5b60208301915083602082850101111561133557600080fd5b9250929050565b6000806000806000806080878903121561135557600080fd5b863561ffff8116811461136757600080fd5b9550602087013567ffffffffffffffff8082111561138457600080fd5b6113908a838b016112f3565b90975095506040890135915080821682146113aa57600080fd5b909350606088013590808211156113c057600080fd5b506113cd89828a016112f3565b979a9699509497509295939492505050565b73ffffffffffffffffffffffffffffffffffffffff8116811461140157600080fd5b50565b60006020828403121561141657600080fd5b8135611421816113df565b9392505050565b7f4e487b7100000000000000000000000000000000000000000000000000000000600052604160045260246000fd5b60006020828403121561146957600080fd5b813567ffffffffffffffff8082111561148157600080fd5b818401915084601f83011261149557600080fd5b8135818111156114a7576114a7611428565b604051601f82017fffffffffffffffffffffffffffffffffffffffffffffffffffffffffffffffe0908116603f011681019083821181831017156114ed576114ed611428565b8160405282815287602084870101111561150657600080fd5b826020860160208301376000928101602001929092525095945050505050565b6000806000806060858703121561153c57600080fd5b843563ffffffff8116811461155057600080fd5b93506020850135611560816113df565b9250604085013567ffffffffffffffff81111561157c57600080fd5b611588878288016112f3565b95989497509550505050565b600080602083850312156115a757600080fd5b823567ffffffffffffffff8111156115be57600080fd5b6115ca858286016112f3565b90969095509350505050565b6000806000604084860312156115eb57600080fd5b83356115f6816113df565b9250602084013567ffffffffffffffff81111561161257600080fd5b61161e868287016112f3565b9497909650939450505050565b8183823760009101908152919050565b8183528181602085013750600060208284010152600060207fffffffffffffffffffffffffffffffffffffffffffffffffffffffffffffffe0601f840116840101905092915050565b60208152600061169860208301848661163b565b949350505050565b600080600080608085870312156116b657600080fd5b84516116c1816113df565b60208601519094506116d2816113df565b60408601519093506116e3816113df565b60608601519092506116f4816113df565b939692955090935050565b60078110611736577f4e487b7100000000000000000000000000000000000000000000000000000000600052602160045260246000fd5b9052565b6060810161174882866116ff565b83602083015261169860408301846116ff565b60006020828403121561176d57600080fd5b5051919050565b7f4e487b7100000000000000000000000000000000000000000000000000000000600052601160045260246000fd5b6000817fffffffffffffffffffffffffffffffffffffffffffffffffffffffffffffffff04831182151516156117db576117db611774565b500290565b600082198211156117f3576117f3611774565b500190565b6000815180845260005b8181101561181e57602081850181015186830182015201611802565b81811115611830576000602083870101525b50601f017fffffffffffffffffffffffffffffffffffffffffffffffffffffffffffffffe0169290920160200192915050565b61ffff8816815260c06020820152600061188060c08301896117f8565b828103604084015261189381888a61163b565b73ffffffffffffffffffffffffffffffffffffffff87811660608601528616608085015283810360a085015290506118cb81856117f8565b9a9950505050505050505050565b61ffff871681526080602082015260006118f760808301878961163b565b67ffffffffffffffff86166040840152828103606084015261191a81858761163b565b999850505050505050505056fea164736f6c634300080d000a",
  "devdoc": {
    "details": "This smart contract contains the actual core operator logic.",
    "events": {
      "AvailableJob(bytes)": {
        "details": "Event is emitted for every time that a valid job is available."
      }
    },
    "kind": "dev",
    "methods": {
      "constructor": {
        "details": "Constructor is left empty and only the admin address is set."
      }
    },
    "stateVariables": {
      "_availableJobs": {
        "details": "Internal mapping of hashes for valid operator jobs."
      }
    },
    "version": 1
  },
  "userdoc": {
    "kind": "user",
    "methods": {},
    "version": 1
  },
  "storageLayout": {
    "storage": [
      {
        "astId": 5670,
        "contract": "contracts/HolographOperator.sol:HolographOperator",
        "label": "_availableJobs",
        "offset": 0,
        "slot": "0",
        "type": "t_mapping(t_bytes32,t_bool)"
      }
    ],
    "types": {
      "t_bool": {
        "encoding": "inplace",
        "label": "bool",
        "numberOfBytes": "1"
      },
      "t_bytes32": {
        "encoding": "inplace",
        "label": "bytes32",
        "numberOfBytes": "32"
      },
      "t_mapping(t_bytes32,t_bool)": {
        "encoding": "mapping",
        "key": "t_bytes32",
        "label": "mapping(bytes32 => bool)",
        "numberOfBytes": "32",
        "value": "t_bool"
      }
    }
  }
}