{
  "address": "0x771da73F5b4DA79c3f3CD0ea9238837bBa266485",
  "abi": [
    {
      "inputs": [],
      "stateMutability": "nonpayable",
      "type": "constructor"
    },
    {
      "stateMutability": "payable",
      "type": "fallback"
    },
    {
      "inputs": [],
      "name": "admin",
      "outputs": [
        {
          "internalType": "address",
          "name": "",
          "type": "address"
        }
      ],
      "stateMutability": "view",
      "type": "function"
    },
    {
      "inputs": [
        {
          "internalType": "address",
          "name": "target",
          "type": "address"
        },
        {
          "internalType": "bytes",
          "name": "data",
          "type": "bytes"
        }
      ],
      "name": "adminCall",
      "outputs": [],
      "stateMutability": "payable",
      "type": "function"
    },
    {
      "inputs": [
        {
          "internalType": "string",
          "name": "name",
          "type": "string"
        },
        {
          "internalType": "string",
          "name": "imageURL",
          "type": "string"
        },
        {
          "internalType": "string",
          "name": "externalLink",
          "type": "string"
        },
        {
          "internalType": "uint16",
          "name": "bps",
          "type": "uint16"
        },
        {
          "internalType": "address",
          "name": "contractAddress",
          "type": "address"
        }
      ],
      "name": "contractURI",
      "outputs": [
        {
          "internalType": "string",
          "name": "",
          "type": "string"
        }
      ],
      "stateMutability": "pure",
      "type": "function"
    },
    {
      "inputs": [],
      "name": "getAdmin",
      "outputs": [
        {
          "internalType": "address",
          "name": "adminAddress",
          "type": "address"
        }
      ],
      "stateMutability": "view",
      "type": "function"
    },
    {
      "inputs": [
        {
          "internalType": "enum ChainIdType",
          "name": "fromChainType",
          "type": "uint8"
        },
        {
          "internalType": "uint256",
          "name": "fromChainId",
          "type": "uint256"
        },
        {
          "internalType": "enum ChainIdType",
          "name": "toChainType",
          "type": "uint8"
        }
      ],
      "name": "getChainId",
      "outputs": [
        {
          "internalType": "uint256",
          "name": "toChainId",
          "type": "uint256"
        }
      ],
      "stateMutability": "view",
      "type": "function"
    },
    {
      "inputs": [
        {
          "internalType": "enum TokenUriType",
          "name": "uriType",
          "type": "uint8"
        }
      ],
      "name": "getUriPrepend",
      "outputs": [
        {
          "internalType": "string",
          "name": "prepend",
          "type": "string"
        }
      ],
      "stateMutability": "view",
      "type": "function"
    },
    {
      "inputs": [
        {
          "internalType": "bytes",
          "name": "data",
          "type": "bytes"
        }
      ],
      "name": "init",
      "outputs": [
        {
          "internalType": "bytes4",
          "name": "",
          "type": "bytes4"
        }
      ],
      "stateMutability": "nonpayable",
      "type": "function"
    },
    {
      "inputs": [
        {
          "internalType": "address",
          "name": "adminAddress",
          "type": "address"
        }
      ],
      "name": "setAdmin",
      "outputs": [],
      "stateMutability": "nonpayable",
      "type": "function"
    },
    {
      "inputs": [
        {
          "internalType": "enum InterfaceType",
          "name": "interfaceType",
          "type": "uint8"
        },
        {
          "internalType": "bytes4",
          "name": "interfaceId",
          "type": "bytes4"
        }
      ],
      "name": "supportsInterface",
      "outputs": [
        {
          "internalType": "bool",
          "name": "",
          "type": "bool"
        }
      ],
      "stateMutability": "view",
      "type": "function"
    },
    {
      "inputs": [
        {
          "internalType": "enum ChainIdType",
          "name": "fromChainType",
          "type": "uint8"
        },
        {
          "internalType": "uint256",
          "name": "fromChainId",
          "type": "uint256"
        },
        {
          "internalType": "enum ChainIdType",
          "name": "toChainType",
          "type": "uint8"
        },
        {
          "internalType": "uint256",
          "name": "toChainId",
          "type": "uint256"
        }
      ],
      "name": "updateChainIdMap",
      "outputs": [],
      "stateMutability": "nonpayable",
      "type": "function"
    },
    {
      "inputs": [
        {
          "internalType": "enum ChainIdType[]",
          "name": "fromChainType",
          "type": "uint8[]"
        },
        {
          "internalType": "uint256[]",
          "name": "fromChainId",
          "type": "uint256[]"
        },
        {
          "internalType": "enum ChainIdType[]",
          "name": "toChainType",
          "type": "uint8[]"
        },
        {
          "internalType": "uint256[]",
          "name": "toChainId",
          "type": "uint256[]"
        }
      ],
      "name": "updateChainIdMaps",
      "outputs": [],
      "stateMutability": "nonpayable",
      "type": "function"
    },
    {
      "inputs": [
        {
          "internalType": "enum InterfaceType",
          "name": "interfaceType",
          "type": "uint8"
        },
        {
          "internalType": "bytes4",
          "name": "interfaceId",
          "type": "bytes4"
        },
        {
          "internalType": "bool",
          "name": "supported",
          "type": "bool"
        }
      ],
      "name": "updateInterface",
      "outputs": [],
      "stateMutability": "nonpayable",
      "type": "function"
    },
    {
      "inputs": [
        {
          "internalType": "enum InterfaceType",
          "name": "interfaceType",
          "type": "uint8"
        },
        {
          "internalType": "bytes4[]",
          "name": "interfaceIds",
          "type": "bytes4[]"
        },
        {
          "internalType": "bool",
          "name": "supported",
          "type": "bool"
        }
      ],
      "name": "updateInterfaceBatch",
      "outputs": [],
      "stateMutability": "nonpayable",
      "type": "function"
    },
    {
      "inputs": [
        {
          "internalType": "enum TokenUriType",
          "name": "uriType",
          "type": "uint8"
        },
        {
          "internalType": "string",
          "name": "prepend",
          "type": "string"
        }
      ],
      "name": "updateUriPrepend",
      "outputs": [],
      "stateMutability": "nonpayable",
      "type": "function"
    },
    {
      "stateMutability": "payable",
      "type": "receive"
    }
  ],
  "transactionHash": "0x89c1ceb0e22e312af23700c53f98baba7e3f98727496289a75fc98b53f117efc",
  "args": [],
  "numDeployments": 3,
  "solcInputHash": "767311d424ba67117a9aa62b57af877e",
  "bytecode": "0x60806040523480156200001157600080fd5b50604080518082019091526007815266697066733a2f2f60c81b602080830191825260016000526002905290516200006b917fe90b7bceb6e7df5418fb78d8ee546e97c83a08bbccc01a0644d599ccd2a7c2e09162000f26565b5060408051808201909152600881526768747470733a2f2f60c01b60208083019182526002600081905290529051620000c6917f679795a0195a1b76cdebb7c51d74e058aee92919b8c3389af86ef24535e8a28c9162000f26565b5060408051808201909152600581526461723a2f2f60d81b602080830191825260036000526002905290516200011e917f88601476d11616a71c5be67555bd1dff4b1cbf21533d2669b768b61518cfe1c39162000f26565b50600260008181527fedb38a93e6e2e82dbb40826a878df1d817a37ef13fcaa25248649a90fa47497b60205260017f8d0b4dbc03517bee2b0e62f12f10eb4afbbde3f9caaf55f788c86c1f0599e40b8190559081815260208082019290925260409081016000908120603882528352818120600282529092528120919091556003906001908181526020808201929092526040908101600090812061a86a825283528181206002825290925281209190915560049060019081815260208082019290925260409081016000908120608982528352818120600282529092528120919091556006906001908181526020808201929092526040908101600090812061a4b1825283528181206002825290925281209190915560079060019081815260208082019290925260409081016000908120600a82528352818120600282529092528120919091556005906001908181526020808201929092526040908101600090812060fa825283528181206002825290925281209190915563ee6b280190600190818152602080820192909252604090810160009081206004825283528181206002825290925281209190915563ee6b280b90600190818152602080820192909252604090810160009081206005825283528181206002825290925281209190915563ee6b280290600190818152602080820192909252604090810160009081206061825283528181206002825290925281209190915563ee6b2803906001908181526020808201929092526040908101600090812061a869825283528181206002825290925281209190915563ee6b2804906001908181526020808201929092526040908101600090812062013881825283528181206002825290925281209190915563ee6b2806906001908181526020808201929092526040908101600090812062066eeb825283528181206002825290925281209190915563ee6b280790600190818152602080820192909252604090810160009081206045825283528181206002825290925281209190915563ee6b28059060019081815260208082019290925260409081016000908120610fa2825283528181206002825290925281209190915563fffffffe906001908181526020808201929092526040908101600090812061053a825283528181206002825290925281209190915563ffffffff906001908181526020808201929092526040908101600090812061053b825283528181206002808352935290812092909255600191829181526020808201929092526040908101600090812060018083529084528282209093529081209290925560389160028152602080820192909252604090810160009081206002808352908452828220600180845294529181209390935561a86a929081526020808201929092526040908101600090812060038252835281812060018083529352908120929092556089916002815260208082019290925260409081016000908120600482528352818120600180835293529081209290925561a4b19160028152602080820192909252604090810160009081206006825283528181206001808352935290812092909255600a916002815260208082019290925260409081016000908120600782528352818120600180835293529081209290925560fa9160028152602080820192909252604090810160009081206005825283528181206001808352935290812092909255600491600281526020808201929092526040908101600090812063ee6b2801825283528181206001808352935290812092909255600591600281526020808201929092526040908101600090812063ee6b280b825283528181206001808352935290812092909255606191600281526020808201929092526040908101600090812063ee6b280282528352818120600180835293529081209290925561a86991600281526020808201929092526040908101600090812063ee6b28038252835281812060018083529352908120929092556201388191600281526020808201929092526040908101600090812063ee6b280482528352818120600180835293529081209290925562066eeb91600281526020808201929092526040908101600090812063ee6b2806825283528181206001808352935290812092909255604591600281526020808201929092526040908101600090812063ee6b2807825283528181206001808352935290812092909255610fa291600281526020808201929092526040908101600090812063ee6b280582528352818120600180835293529081209290925561053a91600281526020808201929092526040908101600090812063fffffffe82528352818120600180835293529081209290925561053b91600281526020808201929092526040908101600090812063ffffffff8252835281812060018083529352908120929092559081906003815260208082019290925260409081016000908120600180835290845282822060028084529452918120939093559091600381526020808201929092526040908101600090812060028252835281812090925281209190915560039060019082815260208082019290925260409081016000908120600682528352818120600282529092528120919091556004906001906003815260208082019290925260409081016000908120600982528352818120600282529092528120919091556006906001906003815260208082019290925260409081016000908120600a82528352818120600282529092528120919091556007906001906003815260208082019290925260409081016000908120600b82528352818120600282529092528120919091556005906001906003815260208082019290925260409081016000908120600c825283528181206002825290925281209190915563ee6b2801906001906003815260208082019290925260409081016000908120612711825283528181206002825290925281209190915563ee6b280b906001906003815260208082019290925260409081016000908120612725825283528181206002825290925281209190915563ee6b2802906001906003815260208082019290925260409081016000908120612712825283528181206002825290925281209190915563ee6b2803906001906003815260208082019290925260409081016000908120612716825283528181206002825290925281209190915563ee6b2804906001906003815260208082019290925260409081016000908120612719825283528181206002825290925281209190915563ee6b280690600190600381526020808201929092526040908101600090812061271a825283528181206002825290925281209190915563ee6b280790600190600381526020808201929092526040908101600090812061271b825283528181206002825290925281209190915563ee6b280590600190600381526020808201929092526040908101600090812061271c825283528181206002825290925281209190915563fffffffe90600190600381526020808201929092526040908101600090812061fffe825283528181206002825290925281209190915563ffffffff90600190600381526020808201929092526040908101600090812061ffff8252835281812060028083529352908120929092556001918291815260208082019290925260409081016000908120600180835290845282822060038352909352908120929092556002918281526020808201929092526040908101600090812060028083529084528282206003835290935290812092909255600691600191815260208082019290925260409081016000908120600382528352818120909252812091909155600990600190600281526020808201929092526040908101600090812060048252835281812060038252909252812091909155600c90600190600281526020808201929092526040908101600090812060058252835281812060038252909252812091909155600a90600190600281526020808201929092526040908101600090812060068252835281812060038252909252812091909155600b9060019060028152602080820192909252604090810160009081206007825283528181206003825290925281209190915561271190600190600281526020808201929092526040908101600090812063ee6b2801825283528181206003825290925281209190915561272590600190600281526020808201929092526040908101600090812063ee6b280b825283528181206003825290925281209190915561271290600190600281526020808201929092526040908101600090812063ee6b2802825283528181206003825290925281209190915561271690600190600281526020808201929092526040908101600090812063ee6b2803825283528181206003825290925281209190915561271990600190600281526020808201929092526040908101600090812063ee6b2804825283528181206003825290925281209190915561271c90600190600281526020808201929092526040908101600090812063ee6b2805825283528181206003825290925281209190915561271a90600190600281526020808201929092526040908101600090812063ee6b2806825283528181206003825290925281209190915561271b90600190600281526020808201929092526040908101600090812063ee6b2807825283528181206003825290925281209190915561fffe90600190600281526020808201929092526040908101600090812063fffffffe825283528181206003825290925281209190915561ffff90600190600281526020808201929092526040908101600090812063ffffffff825283528181206003825290925290205562001008565b82805462000f349062000fcc565b90600052602060002090601f01602090048101928262000f58576000855562000fa3565b82601f1062000f7357805160ff191683800117855562000fa3565b8280016001018555821562000fa3579182015b8281111562000fa357825182559160200191906001019062000f86565b5062000fb192915062000fb5565b5090565b5b8082111562000fb1576000815560010162000fb6565b600181811c9082168062000fe157607f821691505b6020821081036200100257634e487b7160e01b600052602260045260246000fd5b50919050565b612f7880620010186000396000f3fe6080604052600436106100e15760003560e01c806384dd6f871161007f5780639fe7303f116100595780639fe7303f146102bc578063a1a0d960146102ec578063bf64a82d1461030c578063f851a4401461031f57600080fd5b806384dd6f871461025c5780638ca3abf61461027c5780639cf149da1461029c57600080fd5b80636d7db627116100bb5780636d7db627146101a55780636d97233f146101c75780636e9960c3146101e7578063704b6c021461023c57600080fd5b80630a2bb379146100f057806320fc06ea146101265780634ddf47d41461015457600080fd5b366100eb57600080fd5b600080fd5b3480156100fc57600080fd5b5061011061010b366004612369565b610334565b60405161011d91906123b7565b60405180910390f35b34801561013257600080fd5b50610146610141366004612417565b6103fb565b60405190815260200161011d565b34801561016057600080fd5b5061017461016f366004612482565b610480565b6040517fffffffff00000000000000000000000000000000000000000000000000000000909116815260200161011d565b3480156101b157600080fd5b506101c56101c036600461259d565b6110c2565b005b3480156101d357600080fd5b506101c56101e23660046126b0565b61129b565b3480156101f357600080fd5b507f5705f5753aa4f617eef2cae1dada3d3355e9387b04d19191f09b545e684ca50d545b60405173ffffffffffffffffffffffffffffffffffffffff909116815260200161011d565b34801561024857600080fd5b506101c561025736600461270f565b6113ed565b34801561026857600080fd5b506101c561027736600461272c565b6114c7565b34801561028857600080fd5b506101c56102973660046127d3565b61165e565b3480156102a857600080fd5b506101106102b7366004612826565b61175e565b3480156102c857600080fd5b506102dc6102d73660046128ed565b6117db565b604051901515815260200161011d565b3480156102f857600080fd5b506101c5610307366004612920565b61184f565b6101c561031a366004612964565b611988565b34801561032b57600080fd5b50610217611a63565b60606002600083600381111561034c5761034c612984565b600381111561035d5761035d612984565b81526020019081526020016000208054610376906129b3565b80601f01602080910402602001604051908101604052809291908181526020018280546103a2906129b3565b80156103ef5780601f106103c4576101008083540402835291602001916103ef565b820191906000526020600020905b8154815290600101906020018083116103d257829003601f168201915b50505050509050919050565b60006001600085600681111561041357610413612984565b600681111561042457610424612984565b81526020019081526020016000206000848152602001908152602001600020600083600681111561045757610457612984565b600681111561046857610468612984565b81526020019081526020016000205490509392505050565b60006104ac7f4e5f991bca30eca2d4643aaefa807e88f96a4a97398933d572a3c0d973004a0154151590565b15610518576040517f08c379a000000000000000000000000000000000000000000000000000000000815260206004820152601e60248201527f484f4c4f47524150483a20616c726561647920696e697469616c697a6564000060448201526064015b60405180910390fd5b60008280602001905181019061052e9190612a06565b7f5705f5753aa4f617eef2cae1dada3d3355e9387b04d19191f09b545e684ca50d5550507f304d9160b7aa71190a7a35ee0f4bb758d16660f4df8c0a6b46a70a12102e0e89805460017fffffffffffffffffffffffffffffffffffffffffffffffffffffffffffffff0091821681179092557f1efacb8a092a47b9f6a95f931821439a01340dd0ce0706e390a0ca1e6144633380548216831790557fff45fc2a5b5687eeecbe1d4a7fb75e48c603c81db9e8b8bdcb7b1529f58397d580548216831790557f01f418530287530c5a6a30257ddc85333d5071425af340b8531c2e39d431650f80548216831790557ff8443408b8cce52d80c881074c8aeca0b6265b29daf6a8e9ad578f1a97b079d580548216831790557f1d0ef4c8842da18db0964be8feed659f61256e276b6cf2576db595c98f16eb5a80548216831790557fbf529132fe76c160103ecad2a1aa8d204f23adbe6521cd4d08def0da7b9debaf80548216831790557f9529eec341d5845634564364ee05dbc06d43bb20edab6cc61355d50792ac353580548216831790557faf59abb7b2a24403410d53c702f8f332c0441e4d26fce10d27791c9ab972753780548216831790557f2678e1153e25a9671d8bfec4aa22c5d95343376bd40b5bb5ab6a5df41cf97be180548216831790557fe15e0de8729d2a8aa9560602b72b11574048369b3d1fb58fa6759ad6d643200c80548216831790557fba5de9a550def308ede39fee42252cf1ec6a126e067a25a2ad492dae2b9bbc5b80548216831790557fea5618df0b93eead63d6696b5383bd1f27af3d665b8296cafb992ddf860b714580548216831790557f3ea754feac8b7b07cd8610781c97a73f633dd2cc9678c2040999e162f0ee39ec80548216831790557f1304cc6fb011d471fa8cc132cdbb10d6255d5a88f6530464dbcc50058a5738ea80548216831790557f7e235e94c21e5e523130515cea7690e8d77c449759be4674489e00b2d674a87f80548216831790557fcb433a027f3d1f5fffd40da45fd4131db08557781676c319e4a0ff7495f16c7880548216831790557f1543d29a2731af52c17611f9ede02eef67aab8325c2ccc6ee2ebd8a6635527f580548216831790557f63d535570a611f53d44a8b9cac8f7ef870f43453580a0aaa654a02479799a57680548216831790557f493fd81170f86ac022daffab29f1196b2a2b741b8cefad7e953fe68b4e81f30280548216831790557f117cc19ba5e0d8dd9135415f29a7a333318e87adc32518498fd3c67cedf78a4180548216831790557f4f5970548608026b812b39875253022db022011965cfa9ad72fdb412a09b607480548216831790557f3ce125520a955f0ad66bb8962ddd881da092e833a9abdef8582197f6c4a1df7a80548216831790557f235a2c0c5a8503bd645af16048a548a21e3fd2cb43dabdacf5ddc484aaecde7c80548216831790557f424d3144fc46304e64ff978f8fa21923227fe899fddc72e79b36a23361a3a10a80548216831790557f3fb62005d8eafcd4e81ec5dc1c7a8711bbd93806e750129f4f4b52968ddbf4ef80548216831790557fb30560924c2ea9ec2af6eb58187b4e85667095b930325f68c448d367daf94cff80548216831790557f15ded3b5cbf9bc3414fa10141c121a1f62afe5ac5d7cfd39c81c3c0831e0a6a680548216831790557f304c58f5ecd2cb57dcf0fbfdd8917e7641bb83561518d17ecadae0196e71f55d80548216831790557f1379c7a0863c24d601320a36ac8ccd54c81adc9a31e894484ae36c14c6ea37de80548216831790557fc2f7ca32670436879ff8ad728d31dc9e9070a53f5564ab4882dc3852f4aab67b80548216831790557fb209ab0c64f0b4fef2a697cd2ddf5b06e30fdca22c21781d3a226f4eb13e07f180548216831790557f71693e09eb9890e7bc4f16c8a0a6e8c53e47c7c560a3f4690699010aac80130980548216831790557faf70ae9e9795039d3fc800ce6947f1fbcd6b51f7a3165175a3f82987f4c7c17c80548216831790557f538ef243dda8e40c24ea7837541ec8a893cddb7b06a458e9226715a9bb89cd7f80548216831790557f3dda6030bf74f7190d36141f2eaaf5175c9503ba74c3e086a5fe2fe68c20f84a80548216831790557f5c5f317bea528d6c0aef74fd2ed0807b45259df4a8125a860f259d04c669d52b80548216831790557feeaa29641ccd3410d732bd7796ae648951de6c0bbf8bc2c8d7be06c564dd85a280548216831790557f605d893d3679e77518593b3012d7e085bb9e546ec55bda78f76771fb1e7c2bba80548216831790557fa2bc2110a5fb84ab024f432ae7955aac30e6cf6e8a7de816d5262d54414dee2280548216831790557f9e13a9f23ce17321fb92e9d3cc9b49c28fa022698d496615c981b3627cc9ee1580548216831790557f0d172dbe9e38e91ea7fae59b3d9b0109d870d92c7402c10b18e043ef08b7135880548216831790557fb261a17c533a7094161fedd7a91aad2f03642dfa56f352a6d5dee2d52e123a0280548216831790557fd11557ee1483c54937c95981565129125075b24c9420b42f04e8459385d9855580548216831790557f2a899c81b1110d15f03b9004478f29f9d3a6ff53b4d62e3059146164167cdbd480548216831790557fe31a80c81377fc5254a702a7b682576de4208c62a8bff2d68444d8d2abb59d8e80548216831790557f98006e52b1990d5dd523123b3b5a4afcbdc5822003678a9ff5eee6d4500f671780548216831790557f5324f463251804916ae8572517a83601a4d1b9f78f27abf055a46f01bf8b291480548216831790557f2ef84dbed7764b3726bab727168fdfea40573d541aac2f9b27637af94e56251e80548216831790557f19237756e4135d95091007d127eeaafb97b41c2f8ae717f47f2ace9c434d4ef780548216831790557f79ac0875414cb6fbf4dfac02d13e61b9f89b58d2e958e6371d836f1505cb024e80548216831790557fd4e7c9a1a228afb8b1fe5ceaf4a4dee6f86bfc602d704c774c4bd4a055da066580548216831790557fa184562f66e2f41dbe8edec92461dbce1cf12d32e4e099e67d5b9068d5fe238980548216831790557ff207aa1d711806c6c99538c9d6559d34b23c749143f1011bbb86b153ed1d336a80548216831790557f55869231cb8c92fd0a053f98461a02098b91ddbd71574687022baffa6edc579c80548216831790557fadc3b472c9fd2d66e2db53a5e538dcdf5132be2c432a55241bc890be9ced56b080548216831790557fc1307a698d6fcdc81b9a8b35c90ca976a7c81e64f4717e3e0d97a94f0f9ec28d80548216831790557f85e93ba8a10bb57c519010ee51214ecb10193aab564281e4b3d3b75a5ae075bf80548216831790557f0a5e6f26d29b21b1aa1e216fc2f204f4d85ab43132c9a727218d421c0d19afe280548216831790557f570d8d74e58517d8bc52933ea70ee203515c8f4d6d92310b5dae7a7d1ddc94da80548216831790557f5cf83a8b2665231e6e76592d670e11c07eb805425ec90de5863bba85300a6d7880548216831790557f0f2ad8ec2575aaa613cf46a8d5b95ec2b107e11194acaa3db82c41e59de0879880548216831790557f7b8d826317d9a99b312988dfe2f349654f2623500cb33780ded06fa5c818453380548216831790557f3c4f6778fa355628e461c5d5b7b1d4dbe2a8df77ab28982085660bed4e3d8a8c80548216831790557fb05577f594ce6252c0e639ee513d08128ecedb87fe84c3b78d0baf65631f9c4780548216831790557f5b27edb7fc063936dde3be87543458c72a4d4a48c919d4734bcffa6749d42c8e80548216831790557fc4091236000000000000000000000000000000000000000000000000000000006000527f52d75039926638d3c558b2bdefb945d5be8dae29dedd1c313212a4d472d9fde56020527f0a51a38126d1e58b7941483303bee7498f577272552a4b6387dcb481217e85318054909116821790557f4e5f991bca30eca2d4643aaefa807e88f96a4a97398933d572a3c0d973004a0155507f4ddf47d40000000000000000000000000000000000000000000000000000000090565b7f5705f5753aa4f617eef2cae1dada3d3355e9387b04d19191f09b545e684ca50d5473ffffffffffffffffffffffffffffffffffffffff163373ffffffffffffffffffffffffffffffffffffffff1614611178576040517f08c379a000000000000000000000000000000000000000000000000000000000815260206004820152601e60248201527f484f4c4f47524150483a2061646d696e206f6e6c792066756e6374696f6e0000604482015260640161050f565b8660005b8181101561128f5783838281811061119657611196612a23565b90506020020135600160008c8c858181106111b3576111b3612a23565b90506020020160208101906111c89190612a52565b60068111156111d9576111d9612984565b60068111156111ea576111ea612984565b815260200190815260200160002060008a8a8581811061120c5761120c612a23565b905060200201358152602001908152602001600020600088888581811061123557611235612a23565b905060200201602081019061124a9190612a52565b600681111561125b5761125b612984565b600681111561126c5761126c612984565b81526020810191909152604001600020558061128781612a9c565b91505061117c565b50505050505050505050565b7f5705f5753aa4f617eef2cae1dada3d3355e9387b04d19191f09b545e684ca50d5473ffffffffffffffffffffffffffffffffffffffff163373ffffffffffffffffffffffffffffffffffffffff1614611351576040517f08c379a000000000000000000000000000000000000000000000000000000000815260206004820152601e60248201527f484f4c4f47524150483a2061646d696e206f6e6c792066756e6374696f6e0000604482015260640161050f565b8060008085600481111561136757611367612984565b600481111561137857611378612984565b8152602080820192909252604090810160009081207fffffffff000000000000000000000000000000000000000000000000000000009690961681529490915290922080547fffffffffffffffffffffffffffffffffffffffffffffffffffffffffffffff0016921515929092179091555050565b7f5705f5753aa4f617eef2cae1dada3d3355e9387b04d19191f09b545e684ca50d5473ffffffffffffffffffffffffffffffffffffffff163373ffffffffffffffffffffffffffffffffffffffff16146114a3576040517f08c379a000000000000000000000000000000000000000000000000000000000815260206004820152601e60248201527f484f4c4f47524150483a2061646d696e206f6e6c792066756e6374696f6e0000604482015260640161050f565b7f5705f5753aa4f617eef2cae1dada3d3355e9387b04d19191f09b545e684ca50d55565b7f5705f5753aa4f617eef2cae1dada3d3355e9387b04d19191f09b545e684ca50d5473ffffffffffffffffffffffffffffffffffffffff163373ffffffffffffffffffffffffffffffffffffffff161461157d576040517f08c379a000000000000000000000000000000000000000000000000000000000815260206004820152601e60248201527f484f4c4f47524150483a2061646d696e206f6e6c792066756e6374696f6e0000604482015260640161050f565b60005b82811015611657578160008087600481111561159e5761159e612984565b60048111156115af576115af612984565b815260200190815260200160002060008686858181106115d1576115d1612a23565b90506020020160208101906115e69190612ad4565b7fffffffff00000000000000000000000000000000000000000000000000000000168152602081019190915260400160002080547fffffffffffffffffffffffffffffffffffffffffffffffffffffffffffffff00169115159190911790558061164f81612a9c565b915050611580565b5050505050565b7f5705f5753aa4f617eef2cae1dada3d3355e9387b04d19191f09b545e684ca50d5473ffffffffffffffffffffffffffffffffffffffff163373ffffffffffffffffffffffffffffffffffffffff1614611714576040517f08c379a000000000000000000000000000000000000000000000000000000000815260206004820152601e60248201527f484f4c4f47524150483a2061646d696e206f6e6c792066756e6374696f6e0000604482015260640161050f565b81816002600086600381111561172c5761172c612984565b600381111561173d5761173d612984565b815260200190815260200160002091906117589291906122a3565b50505050565b60606117ae89898b8b8b8b8b8b6117788c61ffff16611a92565b6117818c611bf2565b60405160200161179a9a99989796959493929190612aef565b604051602081830303815290604052611d76565b6040516020016117be9190612c6c565b604051602081830303815290604052905098975050505050505050565b60008060008460048111156117f2576117f2612984565b600481111561180357611803612984565b8152602080820192909252604090810160009081207fffffffff000000000000000000000000000000000000000000000000000000008616825290925290205460ff1690505b92915050565b7f5705f5753aa4f617eef2cae1dada3d3355e9387b04d19191f09b545e684ca50d5473ffffffffffffffffffffffffffffffffffffffff163373ffffffffffffffffffffffffffffffffffffffff1614611905576040517f08c379a000000000000000000000000000000000000000000000000000000000815260206004820152601e60248201527f484f4c4f47524150483a2061646d696e206f6e6c792066756e6374696f6e0000604482015260640161050f565b806001600086600681111561191c5761191c612984565b600681111561192d5761192d612984565b81526020019081526020016000206000858152602001908152602001600020600084600681111561196057611960612984565b600681111561197157611971612984565b815260208101919091526040016000205550505050565b7f5705f5753aa4f617eef2cae1dada3d3355e9387b04d19191f09b545e684ca50d5473ffffffffffffffffffffffffffffffffffffffff163373ffffffffffffffffffffffffffffffffffffffff1614611a3e576040517f08c379a000000000000000000000000000000000000000000000000000000000815260206004820152601e60248201527f484f4c4f47524150483a2061646d696e206f6e6c792066756e6374696f6e0000604482015260640161050f565b808260003760008082600034875af13d6000803e808015611a5e573d6000f35b3d6000fd5b6000611a8d7f5705f5753aa4f617eef2cae1dada3d3355e9387b04d19191f09b545e684ca50d5490565b905090565b606081600003611ad557505060408051808201909152600181527f3000000000000000000000000000000000000000000000000000000000000000602082015290565b8160005b8115611aff5780611ae981612a9c565b9150611af89050600a83612ce0565b9150611ad9565b60008167ffffffffffffffff811115611b1a57611b1a612453565b6040519080825280601f01601f191660200182016040528015611b44576020820181803683370190505b509050815b8515611be957611b5a600182612cf4565b90506000611b69600a88612ce0565b611b7490600a612d0b565b611b7e9088612cf4565b611b89906030612d48565b905060008160f81b905080848481518110611ba657611ba6612a23565b60200101907effffffffffffffffffffffffffffffffffffffffffffffffffffffffffffff1916908160001a905350611be0600a89612ce0565b97505050611b49565b50949350505050565b60408051602880825260608281019093526000919060208201818036833701905050905060005b6014811015611d6f576000611c2f826013612cf4565b611c3a906008612d0b565b611c45906002612e8d565b611c659073ffffffffffffffffffffffffffffffffffffffff8716612ce0565b60f81b9050600060108260f81c611c7c9190612e99565b60f81b905060008160f81c6010611c939190612ebb565b8360f81c611ca19190612edc565b60f81b9050611caf8261214d565b85611cbb866002612d0b565b81518110611ccb57611ccb612a23565b60200101907effffffffffffffffffffffffffffffffffffffffffffffffffffffffffffff1916908160001a905350611d038161214d565b85611d0f866002612d0b565b611d1a906001612eff565b81518110611d2a57611d2a612a23565b60200101907effffffffffffffffffffffffffffffffffffffffffffffffffffffffffffff1916908160001a9053505050508080611d6790612a9c565b915050611c19565b5092915050565b6060600060038351611d889190612f17565b905060006003611d988382612cf4565b611da29190612f17565b600385516002611db29190612eff565b611dbc9190612ce0565b611dc7906004612d0b565b611dd19190612cf4565b905060008167ffffffffffffffff811115611dee57611dee612453565b6040519080825280601f01601f191660200182016040528015611e18576020820181803683370190505b5090506000805b8651611e2c836003612eff565b11611fd657611e9b878381518110611e4657611e46612a23565b016020015160f81c88611e5a856001612eff565b81518110611e6a57611e6a612a23565b016020015160f81c89611e7e866002612eff565b81518110611e8e57611e8e612a23565b016020015160f81c612188565b868581518110611ead57611ead612a23565b0160200187611ebd876001612eff565b81518110611ecd57611ecd612a23565b0160200188611edd886002612eff565b81518110611eed57611eed612a23565b0160200189611efd896003612eff565b81518110611f0d57611f0d612a23565b7fff00000000000000000000000000000000000000000000000000000000000000861660001a9101602001537fff00000000000000000000000000000000000000000000000000000000000000851660001a90537fff00000000000000000000000000000000000000000000000000000000000000851660001a90537fff00000000000000000000000000000000000000000000000000000000000000851660001a905350505050600481611fc29190612eff565b9050611fcf600383612eff565b9150611e1f565b841561214257600087868951611fec9190612cf4565b81518110611ffc57611ffc612a23565b016020015160f81c90506000600287900361203b578860018a516120209190612cf4565b8151811061203057612030612a23565b016020015160f81c90505b60008060006120528560ff168560ff166000612188565b509250925092508288878151811061206c5761206c612a23565b60200101907effffffffffffffffffffffffffffffffffffffffffffffffffffffffffffff1916908160001a90535081886120a8886001612eff565b815181106120b8576120b8612a23565b60200101907effffffffffffffffffffffffffffffffffffffffffffffffffffffffffffff1916908160001a9053508960020361213c5780886120fc886002612eff565b8151811061210c5761210c612a23565b60200101907effffffffffffffffffffffffffffffffffffffffffffffffffffffffffffff1916908160001a9053505b50505050505b509095945050505050565b6000600a60f883901c10156121745761216b60f883901c6030612d48565b60f81b92915050565b61216b60f883901c6057612d48565b919050565b60408051606081018252818152600091829182918291601089901b600889901b17871791603f601284901c811692600c85901c821692600686901c83169286169190612f2c602083013984815181106121e3576121e3612a23565b602001015160f81c60f81b9850604051806060016040528060408152602001612f2c60409139838151811061221a5761221a612a23565b602001015160f81c60f81b9750604051806060016040528060408152602001612f2c60409139828151811061225157612251612a23565b602001015160f81c60f81b9650604051806060016040528060408152602001612f2c60409139818151811061228857612288612a23565b602001015160f81c60f81b9550505050505093509350935093565b8280546122af906129b3565b90600052602060002090601f0160209004810192826122d15760008555612335565b82601f10612308578280017fffffffffffffffffffffffffffffffffffffffffffffffffffffffffffffff00823516178555612335565b82800160010185558215612335579182015b8281111561233557823582559160200191906001019061231a565b50612341929150612345565b5090565b5b808211156123415760008155600101612346565b80356004811061218357600080fd5b60006020828403121561237b57600080fd5b6123848261235a565b9392505050565b60005b838110156123a657818101518382015260200161238e565b838111156117585750506000910152565b60208152600082518060208401526123d681604085016020870161238b565b601f017fffffffffffffffffffffffffffffffffffffffffffffffffffffffffffffffe0169190910160400192915050565b80356007811061218357600080fd5b60008060006060848603121561242c57600080fd5b61243584612408565b92506020840135915061244a60408501612408565b90509250925092565b7f4e487b7100000000000000000000000000000000000000000000000000000000600052604160045260246000fd5b60006020828403121561249457600080fd5b813567ffffffffffffffff808211156124ac57600080fd5b818401915084601f8301126124c057600080fd5b8135818111156124d2576124d2612453565b604051601f82017fffffffffffffffffffffffffffffffffffffffffffffffffffffffffffffffe0908116603f0116810190838211818310171561251857612518612453565b8160405282815287602084870101111561253157600080fd5b826020860160208301376000928101602001929092525095945050505050565b60008083601f84011261256357600080fd5b50813567ffffffffffffffff81111561257b57600080fd5b6020830191508360208260051b850101111561259657600080fd5b9250929050565b6000806000806000806000806080898b0312156125b957600080fd5b883567ffffffffffffffff808211156125d157600080fd5b6125dd8c838d01612551565b909a50985060208b01359150808211156125f657600080fd5b6126028c838d01612551565b909850965060408b013591508082111561261b57600080fd5b6126278c838d01612551565b909650945060608b013591508082111561264057600080fd5b5061264d8b828c01612551565b999c989b5096995094979396929594505050565b80356005811061218357600080fd5b80357fffffffff000000000000000000000000000000000000000000000000000000008116811461218357600080fd5b8035801515811461218357600080fd5b6000806000606084860312156126c557600080fd5b6126ce84612661565b92506126dc60208501612670565b915061244a604085016126a0565b73ffffffffffffffffffffffffffffffffffffffff8116811461270c57600080fd5b50565b60006020828403121561272157600080fd5b8135612384816126ea565b6000806000806060858703121561274257600080fd5b61274b85612661565b9350602085013567ffffffffffffffff81111561276757600080fd5b61277387828801612551565b90945092506127869050604086016126a0565b905092959194509250565b60008083601f8401126127a357600080fd5b50813567ffffffffffffffff8111156127bb57600080fd5b60208301915083602082850101111561259657600080fd5b6000806000604084860312156127e857600080fd5b6127f18461235a565b9250602084013567ffffffffffffffff81111561280d57600080fd5b61281986828701612791565b9497909650939450505050565b60008060008060008060008060a0898b03121561284257600080fd5b883567ffffffffffffffff8082111561285a57600080fd5b6128668c838d01612791565b909a50985060208b013591508082111561287f57600080fd5b61288b8c838d01612791565b909850965060408b01359150808211156128a457600080fd5b506128b18b828c01612791565b909550935050606089013561ffff811681146128cc57600080fd5b915060808901356128dc816126ea565b809150509295985092959890939650565b6000806040838503121561290057600080fd5b61290983612661565b915061291760208401612670565b90509250929050565b6000806000806080858703121561293657600080fd5b61293f85612408565b93506020850135925061295460408601612408565b9396929550929360600135925050565b60008060006040848603121561297957600080fd5b83356127f1816126ea565b7f4e487b7100000000000000000000000000000000000000000000000000000000600052602160045260246000fd5b600181811c908216806129c757607f821691505b602082108103612a00577f4e487b7100000000000000000000000000000000000000000000000000000000600052602260045260246000fd5b50919050565b600060208284031215612a1857600080fd5b8151612384816126ea565b7f4e487b7100000000000000000000000000000000000000000000000000000000600052603260045260246000fd5b600060208284031215612a6457600080fd5b61238482612408565b7f4e487b7100000000000000000000000000000000000000000000000000000000600052601160045260246000fd5b60007fffffffffffffffffffffffffffffffffffffffffffffffffffffffffffffffff8203612acd57612acd612a6d565b5060010190565b600060208284031215612ae657600080fd5b61238482612670565b7f7b226e616d65223a2200000000000000000000000000000000000000000000008152898b600983013760008a82017f222c226465736372697074696f6e223a220000000000000000000000000000006009820152898b601a8301377f222c22696d616765223a22000000000000000000000000000000000000000000601a918b0191820152878960258301377f222c2265787465726e616c5f6c696e6b223a2200000000000000000000000000602591890191820152858760388301377f222c2273656c6c65725f6665655f62617369735f706f696e7473223a000000006038918701918201528451612bea81605484016020890161238b565b7f2c226665655f726563697069656e74223a223078000000000000000000000000605492909101918201528351612c2881606884016020880161238b565b612c5a6068828401017f227d000000000000000000000000000000000000000000000000000000000000815260020190565b9e9d5050505050505050505050505050565b7f646174613a6170706c69636174696f6e2f6a736f6e3b6261736536342c000000815260008251612ca481601d85016020870161238b565b91909101601d0192915050565b7f4e487b7100000000000000000000000000000000000000000000000000000000600052601260045260246000fd5b600082612cef57612cef612cb1565b500490565b600082821015612d0657612d06612a6d565b500390565b6000817fffffffffffffffffffffffffffffffffffffffffffffffffffffffffffffffff0483118215151615612d4357612d43612a6d565b500290565b600060ff821660ff84168060ff03821115612d6557612d65612a6d565b019392505050565b600181815b80851115612dc657817fffffffffffffffffffffffffffffffffffffffffffffffffffffffffffffffff04821115612dac57612dac612a6d565b80851615612db957918102915b93841c9390800290612d72565b509250929050565b600082612ddd57506001611849565b81612dea57506000611849565b8160018114612e005760028114612e0a57612e26565b6001915050611849565b60ff841115612e1b57612e1b612a6d565b50506001821b611849565b5060208310610133831016604e8410600b8410161715612e49575081810a611849565b612e538383612d6d565b807fffffffffffffffffffffffffffffffffffffffffffffffffffffffffffffffff04821115612e8557612e85612a6d565b029392505050565b60006123848383612dce565b600060ff831680612eac57612eac612cb1565b8060ff84160491505092915050565b600060ff821660ff84168160ff0481118215151615612e8557612e85612a6d565b600060ff821660ff841680821015612ef657612ef6612a6d565b90039392505050565b60008219821115612f1257612f12612a6d565b500190565b600082612f2657612f26612cb1565b50069056fe4142434445464748494a4b4c4d4e4f505152535455565758595a6162636465666768696a6b6c6d6e6f707172737475767778797a303132333435363738392d5fa164736f6c634300080d000a",
  "devdoc": {
    "kind": "dev",
    "methods": {},
    "version": 1
  },
  "userdoc": {
    "kind": "user",
    "methods": {},
    "version": 1
  },
  "storageLayout": {
    "storage": [
      {
        "astId": 6759,
        "contract": "contracts/Interfaces.sol:Interfaces",
        "label": "_supportedInterfaces",
        "offset": 0,
        "slot": "0",
        "type": "t_mapping(t_enum(InterfaceType)12424,t_mapping(t_bytes4,t_bool))"
      },
      {
        "astId": 6769,
        "contract": "contracts/Interfaces.sol:Interfaces",
        "label": "_chainIdMap",
        "offset": 0,
        "slot": "1",
        "type": "t_mapping(t_enum(ChainIdType)12378,t_mapping(t_uint256,t_mapping(t_enum(ChainIdType)12378,t_uint256)))"
      },
      {
        "astId": 6774,
        "contract": "contracts/Interfaces.sol:Interfaces",
        "label": "_prependURI",
        "offset": 0,
        "slot": "2",
        "type": "t_mapping(t_enum(TokenUriType)12431,t_string_storage)"
      }
    ],
    "types": {
      "t_bool": {
        "encoding": "inplace",
        "label": "bool",
        "numberOfBytes": "1"
      },
      "t_bytes4": {
        "encoding": "inplace",
        "label": "bytes4",
        "numberOfBytes": "4"
      },
      "t_enum(ChainIdType)12378": {
        "encoding": "inplace",
        "label": "enum ChainIdType",
        "numberOfBytes": "1"
      },
      "t_enum(InterfaceType)12424": {
        "encoding": "inplace",
        "label": "enum InterfaceType",
        "numberOfBytes": "1"
      },
      "t_enum(TokenUriType)12431": {
        "encoding": "inplace",
        "label": "enum TokenUriType",
        "numberOfBytes": "1"
      },
      "t_mapping(t_bytes4,t_bool)": {
        "encoding": "mapping",
        "key": "t_bytes4",
        "label": "mapping(bytes4 => bool)",
        "numberOfBytes": "32",
        "value": "t_bool"
      },
      "t_mapping(t_enum(ChainIdType)12378,t_mapping(t_uint256,t_mapping(t_enum(ChainIdType)12378,t_uint256)))": {
        "encoding": "mapping",
        "key": "t_enum(ChainIdType)12378",
        "label": "mapping(enum ChainIdType => mapping(uint256 => mapping(enum ChainIdType => uint256)))",
        "numberOfBytes": "32",
        "value": "t_mapping(t_uint256,t_mapping(t_enum(ChainIdType)12378,t_uint256))"
      },
      "t_mapping(t_enum(ChainIdType)12378,t_uint256)": {
        "encoding": "mapping",
        "key": "t_enum(ChainIdType)12378",
        "label": "mapping(enum ChainIdType => uint256)",
        "numberOfBytes": "32",
        "value": "t_uint256"
      },
      "t_mapping(t_enum(InterfaceType)12424,t_mapping(t_bytes4,t_bool))": {
        "encoding": "mapping",
        "key": "t_enum(InterfaceType)12424",
        "label": "mapping(enum InterfaceType => mapping(bytes4 => bool))",
        "numberOfBytes": "32",
        "value": "t_mapping(t_bytes4,t_bool)"
      },
      "t_mapping(t_enum(TokenUriType)12431,t_string_storage)": {
        "encoding": "mapping",
        "key": "t_enum(TokenUriType)12431",
        "label": "mapping(enum TokenUriType => string)",
        "numberOfBytes": "32",
        "value": "t_string_storage"
      },
      "t_mapping(t_uint256,t_mapping(t_enum(ChainIdType)12378,t_uint256))": {
        "encoding": "mapping",
        "key": "t_uint256",
        "label": "mapping(uint256 => mapping(enum ChainIdType => uint256))",
        "numberOfBytes": "32",
        "value": "t_mapping(t_enum(ChainIdType)12378,t_uint256)"
      },
      "t_string_storage": {
        "encoding": "bytes",
        "label": "string",
        "numberOfBytes": "32"
      },
      "t_uint256": {
        "encoding": "inplace",
        "label": "uint256",
        "numberOfBytes": "32"
      }
    }
  }
}