{
  "address": "0x5616F862dFE4b09E7a04Ed003A0D1bb79dFA684C",
  "abi": [
    {
      "inputs": [],
      "stateMutability": "nonpayable",
      "type": "constructor"
    },
    {
      "anonymous": false,
      "inputs": [
        {
          "indexed": true,
          "internalType": "address",
          "name": "source",
          "type": "address"
        },
        {
          "indexed": false,
          "internalType": "uint256",
          "name": "amount",
          "type": "uint256"
        }
      ],
      "name": "FundsReceived",
      "type": "event"
    },
    {
      "stateMutability": "payable",
      "type": "fallback"
    },
    {
      "inputs": [
        {
          "internalType": "address",
          "name": "",
          "type": "address"
        },
        {
          "internalType": "uint256",
          "name": "_tokenId",
          "type": "uint256"
        }
      ],
      "name": "afterBurn",
      "outputs": [
        {
          "internalType": "bool",
          "name": "",
          "type": "bool"
        }
      ],
      "stateMutability": "nonpayable",
      "type": "function"
    },
    {
      "inputs": [
        {
          "internalType": "uint32",
          "name": "",
          "type": "uint32"
        },
        {
          "internalType": "address",
          "name": "",
          "type": "address"
        },
        {
          "internalType": "address",
          "name": "",
          "type": "address"
        },
        {
          "internalType": "uint256",
          "name": "_tokenId",
          "type": "uint256"
        },
        {
          "internalType": "bytes",
          "name": "_data",
          "type": "bytes"
        }
      ],
      "name": "bridgeIn",
      "outputs": [
        {
          "internalType": "bool",
          "name": "",
          "type": "bool"
        }
      ],
      "stateMutability": "nonpayable",
      "type": "function"
    },
    {
      "inputs": [
        {
          "internalType": "uint32",
          "name": "",
          "type": "uint32"
        },
        {
          "internalType": "address",
          "name": "",
          "type": "address"
        },
        {
          "internalType": "address",
          "name": "",
          "type": "address"
        },
        {
          "internalType": "uint256",
          "name": "_tokenId",
          "type": "uint256"
        }
      ],
      "name": "bridgeOut",
      "outputs": [
        {
          "internalType": "bytes",
          "name": "_data",
          "type": "bytes"
        }
      ],
      "stateMutability": "view",
      "type": "function"
    },
    {
      "inputs": [
        {
          "internalType": "uint224",
          "name": "tokenId",
          "type": "uint224"
        },
        {
          "internalType": "enum TokenUriType",
          "name": "uriType",
          "type": "uint8"
        },
        {
          "internalType": "string",
          "name": "tokenUri",
          "type": "string"
        }
      ],
      "name": "cxipMint",
      "outputs": [],
      "stateMutability": "nonpayable",
      "type": "function"
    },
    {
      "inputs": [
        {
          "internalType": "bytes",
          "name": "initPayload",
          "type": "bytes"
        }
      ],
      "name": "init",
      "outputs": [
        {
          "internalType": "bytes4",
          "name": "",
          "type": "bytes4"
        }
      ],
      "stateMutability": "nonpayable",
      "type": "function"
    },
    {
      "inputs": [
        {
          "internalType": "address",
          "name": "wallet",
          "type": "address"
        }
      ],
      "name": "isOwner",
      "outputs": [
        {
          "internalType": "bool",
          "name": "",
          "type": "bool"
        }
      ],
      "stateMutability": "view",
      "type": "function"
    },
    {
      "inputs": [],
      "name": "isOwner",
      "outputs": [
        {
          "internalType": "bool",
          "name": "",
          "type": "bool"
        }
      ],
      "stateMutability": "view",
      "type": "function"
    },
    {
      "inputs": [],
      "name": "owner",
      "outputs": [
        {
          "internalType": "address",
          "name": "",
          "type": "address"
        }
      ],
      "stateMutability": "view",
      "type": "function"
    },
    {
      "inputs": [
        {
          "internalType": "bytes4",
          "name": "",
          "type": "bytes4"
        }
      ],
      "name": "supportsInterface",
      "outputs": [
        {
          "internalType": "bool",
          "name": "",
          "type": "bool"
        }
      ],
      "stateMutability": "pure",
      "type": "function"
    },
    {
      "inputs": [
        {
          "internalType": "uint256",
          "name": "_tokenId",
          "type": "uint256"
        }
      ],
      "name": "tokenURI",
      "outputs": [
        {
          "internalType": "string",
          "name": "",
          "type": "string"
        }
      ],
      "stateMutability": "view",
      "type": "function"
    },
    {
      "inputs": [],
      "name": "withdraw",
      "outputs": [],
      "stateMutability": "nonpayable",
      "type": "function"
    },
    {
      "stateMutability": "payable",
      "type": "receive"
    }
  ],
  "transactionHash": "0x717e7b35e9d4cdcb1e80f9cc2b76f9f61d7a9bff9efde55c69a223d70384caa3",
  "args": [],
  "numDeployments": 1,
  "solcInputHash": "eaccabe53e7de4a0dd89d9180b8a1c06",
  "bytecode": "0x608060405234801561001057600080fd5b50611f9d806100206000396000f3fe6080604052600436106100c05760003560e01c80638da5cb5b11610074578063c87b56dd1161004e578063c87b56dd146102b4578063e003ba45146102d4578063f0f54073146102f45761011e565b80638da5cb5b146102455780638f32d59b1461027f578063971c34b4146102945761011e565b80633ccfd60b116100a55780633ccfd60b146101b25780634ddf47d4146101c75780638b1465c6146102185761011e565b806301ffc9a71461015c5780632f54bf6e146101925761011e565b3661011e576100cd610314565b73ffffffffffffffffffffffffffffffffffffffff167f8e47b87b0ef542cdfa1659c551d88bad38aa7f452d2bbb349ab7530dfec8be8f3460405161011491815260200190565b60405180910390a2005b337fe9fcff60011c1a99f7b7244d1f2d9da93d79ea8ef3654ce590d775575255b2bd54146001811461014f57600080fd5b600160805260206080f35b005b34801561016857600080fd5b5061017d61017736600461174c565b50600090565b60405190151581526020015b60405180910390f35b34801561019e57600080fd5b5061017d6101ad3660046117b0565b610373565b3480156101be57600080fd5b5061015a6103d2565b3480156101d357600080fd5b506101e76101e23660046118cf565b6104fc565b6040517fffffffff000000000000000000000000000000000000000000000000000000009091168152602001610189565b34801561022457600080fd5b50610238610233366004611934565b610594565b60405161018991906119fd565b34801561025157600080fd5b5061025a610710565b60405173ffffffffffffffffffffffffffffffffffffffff9091168152602001610189565b34801561028b57600080fd5b5061017d61073f565b3480156102a057600080fd5b5061017d6102af366004611a10565b6107a3565b3480156102c057600080fd5b506102386102cf366004611a3c565b61090b565b3480156102e057600080fd5b5061015a6102ef366004611aad565b610c1d565b34801561030057600080fd5b5061017d61030f366004611b31565b6112be565b60007fe9fcff60011c1a99f7b7244d1f2d9da93d79ea8ef3654ce590d775575255b2bd5433146000811461036b5750507fffffffffffffffffffffffffffffffffffffffffffffffffffffffffffffffe036013590565b3391505b5090565b600061039d7fb56711ba6bd3ded7639fc335ee7524fe668a79d7558c85992e3f8494cf7727775490565b73ffffffffffffffffffffffffffffffffffffffff168273ffffffffffffffffffffffffffffffffffffffff16149050919050565b7fb56711ba6bd3ded7639fc335ee7524fe668a79d7558c85992e3f8494cf7727775473ffffffffffffffffffffffffffffffffffffffff16610412610314565b73ffffffffffffffffffffffffffffffffffffffff1614610494576040517f08c379a000000000000000000000000000000000000000000000000000000000815260206004820152601b60248201527f4552433732313a206f776e6572206f6e6c792066756e6374696f6e000000000060448201526064015b60405180910390fd5b7fb56711ba6bd3ded7639fc335ee7524fe668a79d7558c85992e3f8494cf7727775460405173ffffffffffffffffffffffffffffffffffffffff909116904780156108fc02916000818181858888f193505050501580156104f9573d6000803e3d6000fd5b50565b600080547fffffff00ffffffffffffffffffffffffffffffffffffffffffffffffffffffff167c01000000000000000000000000000000000000000000000000000000001781558151819061055a9060209085018101908501611be3565b9050610584817fb56711ba6bd3ded7639fc335ee7524fe668a79d7558c85992e3f8494cf77277755565b61058d83611444565b9392505050565b60606105be7fe9fcff60011c1a99f7b7244d1f2d9da93d79ea8ef3654ce590d775575255b2bd5490565b73ffffffffffffffffffffffffffffffffffffffff163373ffffffffffffffffffffffffffffffffffffffff1614610652576040517f08c379a000000000000000000000000000000000000000000000000000000000815260206004820152601860248201527f4552433732313a20686f6c6f67726170686572206f6e6c790000000000000000604482015260640161048b565b60008281526001602052604081205460ff169081600381111561067757610677611bb4565b036106a457506000547c0100000000000000000000000000000000000000000000000000000000900460ff165b600083815260026020526040812082918260038111156106c6576106c6611bb4565b60038111156106d7576106d7611bb4565b81526020019081526020016000206040516020016106f6929190611c8e565b604051602081830303815290604052915050949350505050565b600061073a7fb56711ba6bd3ded7639fc335ee7524fe668a79d7558c85992e3f8494cf7727775490565b905090565b60006107697fb56711ba6bd3ded7639fc335ee7524fe668a79d7558c85992e3f8494cf7727775490565b73ffffffffffffffffffffffffffffffffffffffff16610787610314565b73ffffffffffffffffffffffffffffffffffffffff1614905090565b60006107cd7fe9fcff60011c1a99f7b7244d1f2d9da93d79ea8ef3654ce590d775575255b2bd5490565b73ffffffffffffffffffffffffffffffffffffffff163373ffffffffffffffffffffffffffffffffffffffff1614610861576040517f08c379a000000000000000000000000000000000000000000000000000000000815260206004820152601860248201527f4552433732313a20686f6c6f67726170686572206f6e6c790000000000000000604482015260640161048b565b60008281526001602052604081205460ff169081600381111561088657610886611bb4565b036108b357506000547c0100000000000000000000000000000000000000000000000000000000900460ff165b6000838152600260205260408120908260038111156108d4576108d4611bb4565b60038111156108e5576108e5611bb4565b815260200190815260200160002060006108ff91906115eb565b60019150505b92915050565b60606109357fe9fcff60011c1a99f7b7244d1f2d9da93d79ea8ef3654ce590d775575255b2bd5490565b73ffffffffffffffffffffffffffffffffffffffff163373ffffffffffffffffffffffffffffffffffffffff16146109c9576040517f08c379a000000000000000000000000000000000000000000000000000000000815260206004820152601860248201527f4552433732313a20686f6c6f67726170686572206f6e6c790000000000000000604482015260640161048b565b60008281526001602052604081205460ff16908160038111156109ee576109ee611bb4565b03610a1b57506000547c0100000000000000000000000000000000000000000000000000000000900460ff165b7fe9fcff60011c1a99f7b7244d1f2d9da93d79ea8ef3654ce590d775575255b2bd5473ffffffffffffffffffffffffffffffffffffffff16634827ae0c6040518163ffffffff1660e01b8152600401602060405180830381865afa158015610a87573d6000803e3d6000fd5b505050506040513d601f19601f82011682018060405250810190610aab9190611be3565b73ffffffffffffffffffffffffffffffffffffffff1663ebac15f96040518163ffffffff1660e01b8152600401602060405180830381865afa158015610af5573d6000803e3d6000fd5b505050506040513d601f19601f82011682018060405250810190610b199190611be3565b73ffffffffffffffffffffffffffffffffffffffff16630a2bb379826040518263ffffffff1660e01b8152600401610b519190611d40565b600060405180830381865afa158015610b6e573d6000803e3d6000fd5b505050506040513d6000823e601f3d9081017fffffffffffffffffffffffffffffffffffffffffffffffffffffffffffffffe0168201604052610bb49190810190611d4e565b600084815260026020526040812090836003811115610bd557610bd5611bb4565b6003811115610be657610be6611bb4565b8152602001908152602001600020604051602001610c05929190611dc5565b6040516020818303038152906040529150505b919050565b7fe9fcff60011c1a99f7b7244d1f2d9da93d79ea8ef3654ce590d775575255b2bd5473ffffffffffffffffffffffffffffffffffffffff163373ffffffffffffffffffffffffffffffffffffffff1614610cd3576040517f08c379a000000000000000000000000000000000000000000000000000000000815260206004820152601860248201527f4552433732313a20686f6c6f67726170686572206f6e6c790000000000000000604482015260640161048b565b7fb56711ba6bd3ded7639fc335ee7524fe668a79d7558c85992e3f8494cf7727775473ffffffffffffffffffffffffffffffffffffffff16610d13610314565b73ffffffffffffffffffffffffffffffffffffffff1614610d90576040517f08c379a000000000000000000000000000000000000000000000000000000000815260206004820152601b60248201527f4552433732313a206f776e6572206f6e6c792066756e6374696f6e0000000000604482015260640161048b565b6000610dba7fe9fcff60011c1a99f7b7244d1f2d9da93d79ea8ef3654ce590d775575255b2bd5490565b905060008173ffffffffffffffffffffffffffffffffffffffff166377dbd8636040518163ffffffff1660e01b8152600401602060405180830381865afa158015610e09573d6000803e3d6000fd5b505050506040513d601f19601f82011682018060405250810190610e2d9190611e6c565b9050857bffffffffffffffffffffffffffffffffffffffffffffffffffffffff166000036110dc5760008054600191908190610e889084907bffffffffffffffffffffffffffffffffffffffffffffffffffffffff16611eb4565b92506101000a8154817bffffffffffffffffffffffffffffffffffffffffffffffffffffffff02191690837bffffffffffffffffffffffffffffffffffffffffffffffffffffffff1602179055505b60005473ffffffffffffffffffffffffffffffffffffffff831690634f558e7990610f20907bffffffffffffffffffffffffffffffffffffffffffffffffffffffff1684611ef4565b6040518263ffffffff1660e01b8152600401610f3e91815260200190565b602060405180830381865afa158015610f5b573d6000803e3d6000fd5b505050506040513d601f19601f82011682018060405250810190610f7f9190611f0c565b8061102d575060005473ffffffffffffffffffffffffffffffffffffffff8316906323250cae90610fce907bffffffffffffffffffffffffffffffffffffffffffffffffffffffff1684611ef4565b6040518263ffffffff1660e01b8152600401610fec91815260200190565b602060405180830381865afa158015611009573d6000803e3d6000fd5b505050506040513d601f19601f8201168201806040525081019061102d9190611f0c565b156110b857600080546001919081906110659084907bffffffffffffffffffffffffffffffffffffffffffffffffffffffff16611eb4565b92506101000a8154817bffffffffffffffffffffffffffffffffffffffffffffffffffffffff02191690837bffffffffffffffffffffffffffffffffffffffffffffffffffffffff160217905550610ed7565b6000547bffffffffffffffffffffffffffffffffffffffffffffffffffffffff1695505b8173ffffffffffffffffffffffffffffffffffffffff16633b4f1b26611100610314565b6040517fffffffff0000000000000000000000000000000000000000000000000000000060e084901b16815273ffffffffffffffffffffffffffffffffffffffff90911660048201527bffffffffffffffffffffffffffffffffffffffffffffffffffffffff89166024820152604401600060405180830381600087803b15801561118a57600080fd5b505af115801561119e573d6000803e3d6000fd5b505050506000867bffffffffffffffffffffffffffffffffffffffffffffffffffffffff16826111ce9190611ef4565b905060008660038111156111e4576111e4611bb4565b03611212576000547c0100000000000000000000000000000000000000000000000000000000900460ff1695505b6000818152600160208190526040909120805488927fffffffffffffffffffffffffffffffffffffffffffffffffffffffffffffff009091169083600381111561125e5761125e611bb4565b02179055506000818152600260205260408120869186919089600381111561128857611288611bb4565b600381111561129957611299611bb4565b815260200190815260200160002091906112b4929190611625565b5050505050505050565b60006112e87fe9fcff60011c1a99f7b7244d1f2d9da93d79ea8ef3654ce590d775575255b2bd5490565b73ffffffffffffffffffffffffffffffffffffffff163373ffffffffffffffffffffffffffffffffffffffff161461137c576040517f08c379a000000000000000000000000000000000000000000000000000000000815260206004820152601860248201527f4552433732313a20686f6c6f67726170686572206f6e6c790000000000000000604482015260640161048b565b60008061138b84860186611f2e565b6000888152600160208190526040909120805493955091935084927fffffffffffffffffffffffffffffffffffffffffffffffffffffffffffffff0016908360038111156113db576113db611bb4565b02179055506000868152600260205260408120829184600381111561140257611402611bb4565b600381111561141357611413611bb4565b815260200190815260200160002090805190602001906114349291906116c3565b5060019998505050505050505050565b600061146e7f4e5f991bca30eca2d4643aaefa807e88f96a4a97398933d572a3c0d973004a015490565b156114d5576040517f08c379a000000000000000000000000000000000000000000000000000000000815260206004820152601b60248201527f4552433732313a20616c726561647920696e697469616c697a65640000000000604482015260640161048b565b337fe9fcff60011c1a99f7b7244d1f2d9da93d79ea8ef3654ce590d775575255b2bd8190557fb56711ba6bd3ded7639fc335ee7524fe668a79d7558c85992e3f8494cf7727775473ffffffffffffffffffffffffffffffffffffffff8116611599576040517f08c379a000000000000000000000000000000000000000000000000000000000815260206004820152601860248201527f484f4c4f47524150483a206f776e6572206e6f74207365740000000000000000604482015260640161048b565b6115c260017f4e5f991bca30eca2d4643aaefa807e88f96a4a97398933d572a3c0d973004a0155565b507f4ddf47d4000000000000000000000000000000000000000000000000000000009392505050565b5080546115f790611c3b565b6000825580601f10611607575050565b601f0160209004906000526020600020908101906104f99190611737565b82805461163190611c3b565b90600052602060002090601f01602090048101928261165357600085556116b7565b82601f1061168a578280017fffffffffffffffffffffffffffffffffffffffffffffffffffffffffffffff008235161785556116b7565b828001600101855582156116b7579182015b828111156116b757823582559160200191906001019061169c565b5061036f929150611737565b8280546116cf90611c3b565b90600052602060002090601f0160209004810192826116f157600085556116b7565b82601f1061170a57805160ff19168380011785556116b7565b828001600101855582156116b7579182015b828111156116b757825182559160200191906001019061171c565b5b8082111561036f5760008155600101611738565b60006020828403121561175e57600080fd5b81357fffffffff000000000000000000000000000000000000000000000000000000008116811461058d57600080fd5b73ffffffffffffffffffffffffffffffffffffffff811681146104f957600080fd5b6000602082840312156117c257600080fd5b813561058d8161178e565b7f4e487b7100000000000000000000000000000000000000000000000000000000600052604160045260246000fd5b604051601f82017fffffffffffffffffffffffffffffffffffffffffffffffffffffffffffffffe016810167ffffffffffffffff81118282101715611843576118436117cd565b604052919050565b600067ffffffffffffffff821115611865576118656117cd565b50601f017fffffffffffffffffffffffffffffffffffffffffffffffffffffffffffffffe01660200190565b60006118a461189f8461184b565b6117fc565b90508281528383830111156118b857600080fd5b828260208301376000602084830101529392505050565b6000602082840312156118e157600080fd5b813567ffffffffffffffff8111156118f857600080fd5b8201601f8101841361190957600080fd5b61191884823560208401611891565b949350505050565b803563ffffffff81168114610c1857600080fd5b6000806000806080858703121561194a57600080fd5b61195385611920565b935060208501356119638161178e565b925060408501356119738161178e565b9396929550929360600135925050565b60005b8381101561199e578181015183820152602001611986565b838111156119ad576000848401525b50505050565b600081518084526119cb816020860160208601611983565b601f017fffffffffffffffffffffffffffffffffffffffffffffffffffffffffffffffe0169290920160200192915050565b60208152600061058d60208301846119b3565b60008060408385031215611a2357600080fd5b8235611a2e8161178e565b946020939093013593505050565b600060208284031215611a4e57600080fd5b5035919050565b803560048110610c1857600080fd5b60008083601f840112611a7657600080fd5b50813567ffffffffffffffff811115611a8e57600080fd5b602083019150836020828501011115611aa657600080fd5b9250929050565b60008060008060608587031215611ac357600080fd5b84357bffffffffffffffffffffffffffffffffffffffffffffffffffffffff81168114611aef57600080fd5b9350611afd60208601611a55565b9250604085013567ffffffffffffffff811115611b1957600080fd5b611b2587828801611a64565b95989497509550505050565b60008060008060008060a08789031215611b4a57600080fd5b611b5387611920565b95506020870135611b638161178e565b94506040870135611b738161178e565b935060608701359250608087013567ffffffffffffffff811115611b9657600080fd5b611ba289828a01611a64565b979a9699509497509295939492505050565b7f4e487b7100000000000000000000000000000000000000000000000000000000600052602160045260246000fd5b600060208284031215611bf557600080fd5b815161058d8161178e565b60048110611c37577f4e487b7100000000000000000000000000000000000000000000000000000000600052602160045260246000fd5b9052565b600181811c90821680611c4f57607f821691505b602082108103611c88577f4e487b7100000000000000000000000000000000000000000000000000000000600052602260045260246000fd5b50919050565b611c988184611c00565b6000602060408184015260008454611caf81611c3b565b8060408701526060600180841660008114611cd15760018114611d0357611d31565b7fffffffffffffffffffffffffffffffffffffffffffffffffffffffffffffff008516838a0152608089019550611d31565b896000528660002060005b85811015611d295781548b8201860152908301908801611d0e565b8a0184019650505b50939998505050505050505050565b602081016109058284611c00565b600060208284031215611d6057600080fd5b815167ffffffffffffffff811115611d7757600080fd5b8201601f81018413611d8857600080fd5b8051611d9661189f8261184b565b818152856020838501011115611dab57600080fd5b611dbc826020830160208601611983565b95945050505050565b600083516020611dd88285838901611983565b818401915060008554611dea81611c3b565b60018281168015611e025760018114611e3157611e5d565b7fffffffffffffffffffffffffffffffffffffffffffffffffffffffffffffff00841687528287019450611e5d565b896000528560002060005b84811015611e5557815489820152908301908701611e3c565b505082870194505b50929998505050505050505050565b600060208284031215611e7e57600080fd5b5051919050565b7f4e487b7100000000000000000000000000000000000000000000000000000000600052601160045260246000fd5b60007bffffffffffffffffffffffffffffffffffffffffffffffffffffffff808316818516808303821115611eeb57611eeb611e85565b01949350505050565b60008219821115611f0757611f07611e85565b500190565b600060208284031215611f1e57600080fd5b8151801515811461058d57600080fd5b60008060408385031215611f4157600080fd5b611f4a83611a55565b9150602083013567ffffffffffffffff811115611f6657600080fd5b8301601f81018513611f7757600080fd5b611f8685823560208401611891565b915050925092905056fea164736f6c634300080d000a",
  "devdoc": {
    "author": "Holograph Foundation",
    "details": "The entire logic and functionality of the smart contract is self-contained.",
    "kind": "dev",
    "methods": {
      "constructor": {
        "details": "Constructor is left empty and init is used instead"
      },
      "init(bytes)": {
        "details": "This function is called by the deployer/factory when creating a contract",
        "params": {
          "initPayload": "abi encoded payload to use for contract initilaization"
        }
      },
      "owner()": {
        "details": "Address of initial creator/owner of the collection."
      },
      "tokenURI(uint256)": {
        "returns": {
          "_0": "string The URI."
        }
      }
    },
    "stateVariables": {
      "_currentTokenId": {
        "details": "Internal reference used for minting incremental token ids."
      },
      "_tokenURIs": {
        "details": "Mapping of IPFS URIs for tokenIds."
      },
      "_tokenUriType": {
        "details": "Enum mapping of type of token URI to use for specific tokenId."
      },
      "_uriType": {
        "details": "Enum of type of token URI to use globally for the entire contract."
      }
    },
    "title": "CXIP ERC-721 Collection that is bridgeable via Holograph",
    "version": 1
  },
  "userdoc": {
    "kind": "user",
    "methods": {
      "init(bytes)": {
        "notice": "Used internally to initialize the contract instead of through a constructor"
      },
      "tokenURI(uint256)": {
        "notice": "Get's the URI of the token."
      }
    },
    "notice": "A smart contract for minting and managing Holograph Bridgeable ERC721 NFTs.",
    "version": 1
  },
  "storageLayout": {
    "storage": [
      {
        "astId": 34143,
        "contract": "contracts/token/CxipERC721.sol:CxipERC721",
        "label": "_currentTokenId",
        "offset": 0,
        "slot": "0",
        "type": "t_uint224"
      },
      {
        "astId": 34147,
        "contract": "contracts/token/CxipERC721.sol:CxipERC721",
        "label": "_uriType",
        "offset": 28,
        "slot": "0",
        "type": "t_enum(TokenUriType)24634"
      },
      {
        "astId": 34153,
        "contract": "contracts/token/CxipERC721.sol:CxipERC721",
        "label": "_tokenUriType",
        "offset": 0,
        "slot": "1",
        "type": "t_mapping(t_uint256,t_enum(TokenUriType)24634)"
      },
      {
        "astId": 34161,
        "contract": "contracts/token/CxipERC721.sol:CxipERC721",
        "label": "_tokenURIs",
        "offset": 0,
        "slot": "2",
        "type": "t_mapping(t_uint256,t_mapping(t_enum(TokenUriType)24634,t_string_storage))"
      }
    ],
    "types": {
      "t_enum(TokenUriType)24634": {
        "encoding": "inplace",
        "label": "enum TokenUriType",
        "numberOfBytes": "1"
      },
      "t_mapping(t_enum(TokenUriType)24634,t_string_storage)": {
        "encoding": "mapping",
        "key": "t_enum(TokenUriType)24634",
        "label": "mapping(enum TokenUriType => string)",
        "numberOfBytes": "32",
        "value": "t_string_storage"
      },
      "t_mapping(t_uint256,t_enum(TokenUriType)24634)": {
        "encoding": "mapping",
        "key": "t_uint256",
        "label": "mapping(uint256 => enum TokenUriType)",
        "numberOfBytes": "32",
        "value": "t_enum(TokenUriType)24634"
      },
      "t_mapping(t_uint256,t_mapping(t_enum(TokenUriType)24634,t_string_storage))": {
        "encoding": "mapping",
        "key": "t_uint256",
        "label": "mapping(uint256 => mapping(enum TokenUriType => string))",
        "numberOfBytes": "32",
        "value": "t_mapping(t_enum(TokenUriType)24634,t_string_storage)"
      },
      "t_string_storage": {
        "encoding": "bytes",
        "label": "string",
        "numberOfBytes": "32"
      },
      "t_uint224": {
        "encoding": "inplace",
        "label": "uint224",
        "numberOfBytes": "28"
      },
      "t_uint256": {
        "encoding": "inplace",
        "label": "uint256",
        "numberOfBytes": "32"
      }
    }
  }
}