{
  "address": "0x669A42033E9bAC8e7B80f27519146F21F20f3211",
  "abi": [
    {
      "inputs": [],
      "stateMutability": "nonpayable",
      "type": "constructor"
    },
    {
      "stateMutability": "payable",
      "type": "fallback"
    },
    {
      "inputs": [
        {
          "internalType": "address",
          "name": "",
          "type": "address"
        },
        {
          "internalType": "uint256",
          "name": "_tokenId",
          "type": "uint256"
        }
      ],
      "name": "afterBurn",
      "outputs": [
        {
          "internalType": "bool",
          "name": "",
          "type": "bool"
        }
      ],
      "stateMutability": "nonpayable",
      "type": "function"
    },
    {
      "inputs": [
        {
          "internalType": "uint32",
          "name": "",
          "type": "uint32"
        },
        {
          "internalType": "address",
          "name": "",
          "type": "address"
        },
        {
          "internalType": "address",
          "name": "",
          "type": "address"
        },
        {
          "internalType": "uint256",
          "name": "_tokenId",
          "type": "uint256"
        },
        {
          "internalType": "bytes",
          "name": "_data",
          "type": "bytes"
        }
      ],
      "name": "bridgeIn",
      "outputs": [
        {
          "internalType": "bool",
          "name": "",
          "type": "bool"
        }
      ],
      "stateMutability": "nonpayable",
      "type": "function"
    },
    {
      "inputs": [
        {
          "internalType": "uint32",
          "name": "",
          "type": "uint32"
        },
        {
          "internalType": "address",
          "name": "",
          "type": "address"
        },
        {
          "internalType": "address",
          "name": "",
          "type": "address"
        },
        {
          "internalType": "uint256",
          "name": "_tokenId",
          "type": "uint256"
        }
      ],
      "name": "bridgeOut",
      "outputs": [
        {
          "internalType": "bytes",
          "name": "_data",
          "type": "bytes"
        }
      ],
      "stateMutability": "view",
      "type": "function"
    },
    {
      "inputs": [
        {
          "internalType": "uint224",
          "name": "tokenId",
          "type": "uint224"
        },
        {
          "internalType": "enum TokenUriType",
          "name": "uriType",
          "type": "uint8"
        },
        {
          "internalType": "string",
          "name": "tokenUri",
          "type": "string"
        }
      ],
      "name": "cxipMint",
      "outputs": [],
      "stateMutability": "nonpayable",
      "type": "function"
    },
    {
      "inputs": [
        {
          "internalType": "bytes",
          "name": "data",
          "type": "bytes"
        }
      ],
      "name": "init",
      "outputs": [
        {
          "internalType": "bytes4",
          "name": "",
          "type": "bytes4"
        }
      ],
      "stateMutability": "nonpayable",
      "type": "function"
    },
    {
      "inputs": [
        {
          "internalType": "address",
          "name": "wallet",
          "type": "address"
        }
      ],
      "name": "isOwner",
      "outputs": [
        {
          "internalType": "bool",
          "name": "",
          "type": "bool"
        }
      ],
      "stateMutability": "view",
      "type": "function"
    },
    {
      "inputs": [],
      "name": "isOwner",
      "outputs": [
        {
          "internalType": "bool",
          "name": "",
          "type": "bool"
        }
      ],
      "stateMutability": "view",
      "type": "function"
    },
    {
      "inputs": [],
      "name": "owner",
      "outputs": [
        {
          "internalType": "address",
          "name": "",
          "type": "address"
        }
      ],
      "stateMutability": "view",
      "type": "function"
    },
    {
      "inputs": [
        {
          "internalType": "bytes4",
          "name": "",
          "type": "bytes4"
        }
      ],
      "name": "supportsInterface",
      "outputs": [
        {
          "internalType": "bool",
          "name": "",
          "type": "bool"
        }
      ],
      "stateMutability": "pure",
      "type": "function"
    },
    {
      "inputs": [
        {
          "internalType": "uint256",
          "name": "_tokenId",
          "type": "uint256"
        }
      ],
      "name": "tokenURI",
      "outputs": [
        {
          "internalType": "string",
          "name": "",
          "type": "string"
        }
      ],
      "stateMutability": "view",
      "type": "function"
    },
    {
      "stateMutability": "payable",
      "type": "receive"
    }
  ],
  "transactionHash": "0x2b027b19039a111cfc4098f4df6fceafe191d849e661dbc3c93f843777a0725b",
  "args": [],
  "numDeployments": 1,
  "solcInputHash": "0b5e3a4fef7397ea053a407f08962d01",
  "bytecode": "0x608060405234801561001057600080fd5b50611ed2806100206000396000f3fe6080604052600436106100b55760003560e01c80638f32d59b11610069578063c87b56dd1161004e578063c87b56dd1461023d578063e003ba451461025d578063f0f540731461027d576100bc565b80638f32d59b14610208578063971c34b41461021d576100bc565b80634ddf47d41161009a5780634ddf47d4146101505780638b1465c6146101a15780638da5cb5b146101ce576100bc565b806301ffc9a7146100fa5780632f54bf6e14610130576100bc565b366100bc57005b337fe9fcff60011c1a99f7b7244d1f2d9da93d79ea8ef3654ce590d775575255b2bd5414600181146100ed57600080fd5b600160805260206080f35b005b34801561010657600080fd5b5061011b610115366004611681565b50600090565b60405190151581526020015b60405180910390f35b34801561013c57600080fd5b5061011b61014b3660046116e5565b61029d565b34801561015c57600080fd5b5061017061016b366004611804565b6102fc565b6040517fffffffff000000000000000000000000000000000000000000000000000000009091168152602001610127565b3480156101ad57600080fd5b506101c16101bc366004611869565b610394565b6040516101279190611932565b3480156101da57600080fd5b506101e3610515565b60405173ffffffffffffffffffffffffffffffffffffffff9091168152602001610127565b34801561021457600080fd5b5061011b610544565b34801561022957600080fd5b5061011b610238366004611945565b610640565b34801561024957600080fd5b506101c1610258366004611971565b6107a8565b34801561026957600080fd5b506100f86102783660046119e2565b610aba565b34801561028957600080fd5b5061011b610298366004611a66565b61128c565b60006102c77fb56711ba6bd3ded7639fc335ee7524fe668a79d7558c85992e3f8494cf7727775490565b73ffffffffffffffffffffffffffffffffffffffff168273ffffffffffffffffffffffffffffffffffffffff16149050919050565b600080547fffffff00ffffffffffffffffffffffffffffffffffffffffffffffffffffffff167c01000000000000000000000000000000000000000000000000000000001781558151819061035a9060209085018101908501611b18565b9050610384817fb56711ba6bd3ded7639fc335ee7524fe668a79d7558c85992e3f8494cf77277755565b61038d83611412565b9392505050565b60606103be7fe9fcff60011c1a99f7b7244d1f2d9da93d79ea8ef3654ce590d775575255b2bd5490565b73ffffffffffffffffffffffffffffffffffffffff163373ffffffffffffffffffffffffffffffffffffffff1614610457576040517f08c379a000000000000000000000000000000000000000000000000000000000815260206004820152601860248201527f4552433732313a20686f6c6f67726170686572206f6e6c79000000000000000060448201526064015b60405180910390fd5b60008281526001602052604081205460ff169081600381111561047c5761047c611ae9565b036104a957506000547c0100000000000000000000000000000000000000000000000000000000900460ff165b600083815260026020526040812082918260038111156104cb576104cb611ae9565b60038111156104dc576104dc611ae9565b81526020019081526020016000206040516020016104fb929190611bc3565b604051602081830303815290604052915050949350505050565b600061053f7fb56711ba6bd3ded7639fc335ee7524fe668a79d7558c85992e3f8494cf7727775490565b905090565b600061056e7fe9fcff60011c1a99f7b7244d1f2d9da93d79ea8ef3654ce590d775575255b2bd5490565b73ffffffffffffffffffffffffffffffffffffffff163303610602577fb56711ba6bd3ded7639fc335ee7524fe668a79d7558c85992e3f8494cf7727775473ffffffffffffffffffffffffffffffffffffffff16367fffffffffffffffffffffffffffffffffffffffffffffffffffffffffffffffe0013573ffffffffffffffffffffffffffffffffffffffff1614905090565b507fb56711ba6bd3ded7639fc335ee7524fe668a79d7558c85992e3f8494cf7727775473ffffffffffffffffffffffffffffffffffffffff16331490565b600061066a7fe9fcff60011c1a99f7b7244d1f2d9da93d79ea8ef3654ce590d775575255b2bd5490565b73ffffffffffffffffffffffffffffffffffffffff163373ffffffffffffffffffffffffffffffffffffffff16146106fe576040517f08c379a000000000000000000000000000000000000000000000000000000000815260206004820152601860248201527f4552433732313a20686f6c6f67726170686572206f6e6c790000000000000000604482015260640161044e565b60008281526001602052604081205460ff169081600381111561072357610723611ae9565b0361075057506000547c0100000000000000000000000000000000000000000000000000000000900460ff165b60008381526002602052604081209082600381111561077157610771611ae9565b600381111561078257610782611ae9565b8152602001908152602001600020600061079c9190611519565b60019150505b92915050565b60606107d27fe9fcff60011c1a99f7b7244d1f2d9da93d79ea8ef3654ce590d775575255b2bd5490565b73ffffffffffffffffffffffffffffffffffffffff163373ffffffffffffffffffffffffffffffffffffffff1614610866576040517f08c379a000000000000000000000000000000000000000000000000000000000815260206004820152601860248201527f4552433732313a20686f6c6f67726170686572206f6e6c790000000000000000604482015260640161044e565b60008281526001602052604081205460ff169081600381111561088b5761088b611ae9565b036108b857506000547c0100000000000000000000000000000000000000000000000000000000900460ff165b7fe9fcff60011c1a99f7b7244d1f2d9da93d79ea8ef3654ce590d775575255b2bd5473ffffffffffffffffffffffffffffffffffffffff16634827ae0c6040518163ffffffff1660e01b8152600401602060405180830381865afa158015610924573d6000803e3d6000fd5b505050506040513d601f19601f820116820180604052508101906109489190611b18565b73ffffffffffffffffffffffffffffffffffffffff1663ebac15f96040518163ffffffff1660e01b8152600401602060405180830381865afa158015610992573d6000803e3d6000fd5b505050506040513d601f19601f820116820180604052508101906109b69190611b18565b73ffffffffffffffffffffffffffffffffffffffff16630a2bb379826040518263ffffffff1660e01b81526004016109ee9190611c75565b600060405180830381865afa158015610a0b573d6000803e3d6000fd5b505050506040513d6000823e601f3d9081017fffffffffffffffffffffffffffffffffffffffffffffffffffffffffffffffe0168201604052610a519190810190611c83565b600084815260026020526040812090836003811115610a7257610a72611ae9565b6003811115610a8357610a83611ae9565b8152602001908152602001600020604051602001610aa2929190611cfa565b6040516020818303038152906040529150505b919050565b7fe9fcff60011c1a99f7b7244d1f2d9da93d79ea8ef3654ce590d775575255b2bd5473ffffffffffffffffffffffffffffffffffffffff163373ffffffffffffffffffffffffffffffffffffffff1614610b70576040517f08c379a000000000000000000000000000000000000000000000000000000000815260206004820152601860248201527f4552433732313a20686f6c6f67726170686572206f6e6c790000000000000000604482015260640161044e565b7fe9fcff60011c1a99f7b7244d1f2d9da93d79ea8ef3654ce590d775575255b2bd5473ffffffffffffffffffffffffffffffffffffffff163303610c8c577fb56711ba6bd3ded7639fc335ee7524fe668a79d7558c85992e3f8494cf7727775473ffffffffffffffffffffffffffffffffffffffff16367fffffffffffffffffffffffffffffffffffffffffffffffffffffffffffffffe0013573ffffffffffffffffffffffffffffffffffffffff1614610c87576040517f08c379a000000000000000000000000000000000000000000000000000000000815260206004820152601b60248201527f4552433732313a206f776e6572206f6e6c792066756e6374696f6e0000000000604482015260640161044e565b610d42565b7fb56711ba6bd3ded7639fc335ee7524fe668a79d7558c85992e3f8494cf7727775473ffffffffffffffffffffffffffffffffffffffff163373ffffffffffffffffffffffffffffffffffffffff1614610d42576040517f08c379a000000000000000000000000000000000000000000000000000000000815260206004820152601b60248201527f4552433732313a206f776e6572206f6e6c792066756e6374696f6e0000000000604482015260640161044e565b6000610d6c7fe9fcff60011c1a99f7b7244d1f2d9da93d79ea8ef3654ce590d775575255b2bd5490565b905060008173ffffffffffffffffffffffffffffffffffffffff166377dbd8636040518163ffffffff1660e01b8152600401602060405180830381865afa158015610dbb573d6000803e3d6000fd5b505050506040513d601f19601f82011682018060405250810190610ddf9190611da1565b9050857bffffffffffffffffffffffffffffffffffffffffffffffffffffffff1660000361108e5760008054600191908190610e3a9084907bffffffffffffffffffffffffffffffffffffffffffffffffffffffff16611de9565b92506101000a8154817bffffffffffffffffffffffffffffffffffffffffffffffffffffffff02191690837bffffffffffffffffffffffffffffffffffffffffffffffffffffffff1602179055505b60005473ffffffffffffffffffffffffffffffffffffffff831690634f558e7990610ed2907bffffffffffffffffffffffffffffffffffffffffffffffffffffffff1684611e29565b6040518263ffffffff1660e01b8152600401610ef091815260200190565b602060405180830381865afa158015610f0d573d6000803e3d6000fd5b505050506040513d601f19601f82011682018060405250810190610f319190611e41565b80610fdf575060005473ffffffffffffffffffffffffffffffffffffffff8316906323250cae90610f80907bffffffffffffffffffffffffffffffffffffffffffffffffffffffff1684611e29565b6040518263ffffffff1660e01b8152600401610f9e91815260200190565b602060405180830381865afa158015610fbb573d6000803e3d6000fd5b505050506040513d601f19601f82011682018060405250810190610fdf9190611e41565b1561106a57600080546001919081906110179084907bffffffffffffffffffffffffffffffffffffffffffffffffffffffff16611de9565b92506101000a8154817bffffffffffffffffffffffffffffffffffffffffffffffffffffffff02191690837bffffffffffffffffffffffffffffffffffffffffffffffffffffffff160217905550610e89565b6000547bffffffffffffffffffffffffffffffffffffffffffffffffffffffff1695505b73ffffffffffffffffffffffffffffffffffffffff8216633b4f1b26367fffffffffffffffffffffffffffffffffffffffffffffffffffffffffffffffe001356040517fffffffff0000000000000000000000000000000000000000000000000000000060e084901b16815273ffffffffffffffffffffffffffffffffffffffff90911660048201527bffffffffffffffffffffffffffffffffffffffffffffffffffffffff89166024820152604401600060405180830381600087803b15801561115857600080fd5b505af115801561116c573d6000803e3d6000fd5b505050506000867bffffffffffffffffffffffffffffffffffffffffffffffffffffffff168261119c9190611e29565b905060008660038111156111b2576111b2611ae9565b036111e0576000547c0100000000000000000000000000000000000000000000000000000000900460ff1695505b6000818152600160208190526040909120805488927fffffffffffffffffffffffffffffffffffffffffffffffffffffffffffffff009091169083600381111561122c5761122c611ae9565b02179055506000818152600260205260408120869186919089600381111561125657611256611ae9565b600381111561126757611267611ae9565b81526020019081526020016000209190611282929190611556565b5050505050505050565b60006112b67fe9fcff60011c1a99f7b7244d1f2d9da93d79ea8ef3654ce590d775575255b2bd5490565b73ffffffffffffffffffffffffffffffffffffffff163373ffffffffffffffffffffffffffffffffffffffff161461134a576040517f08c379a000000000000000000000000000000000000000000000000000000000815260206004820152601860248201527f4552433732313a20686f6c6f67726170686572206f6e6c790000000000000000604482015260640161044e565b60008061135984860186611e63565b6000888152600160208190526040909120805493955091935084927fffffffffffffffffffffffffffffffffffffffffffffffffffffffffffffff0016908360038111156113a9576113a9611ae9565b0217905550600086815260026020526040812082918460038111156113d0576113d0611ae9565b60038111156113e1576113e1611ae9565b815260200190815260200160002090805190602001906114029291906115f8565b5060019998505050505050505050565b600061143c7f4e5f991bca30eca2d4643aaefa807e88f96a4a97398933d572a3c0d973004a015490565b156114a3576040517f08c379a000000000000000000000000000000000000000000000000000000000815260206004820152601b60248201527f4552433732313a20616c726561647920696e697469616c697a65640000000000604482015260640161044e565b337fe9fcff60011c1a99f7b7244d1f2d9da93d79ea8ef3654ce590d775575255b2bd8190556114f160017f4e5f991bca30eca2d4643aaefa807e88f96a4a97398933d572a3c0d973004a0155565b507f4ddf47d40000000000000000000000000000000000000000000000000000000092915050565b50805461152590611b70565b6000825580601f10611535575050565b601f016020900490600052602060002090810190611553919061166c565b50565b82805461156290611b70565b90600052602060002090601f01602090048101928261158457600085556115e8565b82601f106115bb578280017fffffffffffffffffffffffffffffffffffffffffffffffffffffffffffffff008235161785556115e8565b828001600101855582156115e8579182015b828111156115e85782358255916020019190600101906115cd565b506115f492915061166c565b5090565b82805461160490611b70565b90600052602060002090601f01602090048101928261162657600085556115e8565b82601f1061163f57805160ff19168380011785556115e8565b828001600101855582156115e8579182015b828111156115e8578251825591602001919060010190611651565b5b808211156115f4576000815560010161166d565b60006020828403121561169357600080fd5b81357fffffffff000000000000000000000000000000000000000000000000000000008116811461038d57600080fd5b73ffffffffffffffffffffffffffffffffffffffff8116811461155357600080fd5b6000602082840312156116f757600080fd5b813561038d816116c3565b7f4e487b7100000000000000000000000000000000000000000000000000000000600052604160045260246000fd5b604051601f82017fffffffffffffffffffffffffffffffffffffffffffffffffffffffffffffffe016810167ffffffffffffffff8111828210171561177857611778611702565b604052919050565b600067ffffffffffffffff82111561179a5761179a611702565b50601f017fffffffffffffffffffffffffffffffffffffffffffffffffffffffffffffffe01660200190565b60006117d96117d484611780565b611731565b90508281528383830111156117ed57600080fd5b828260208301376000602084830101529392505050565b60006020828403121561181657600080fd5b813567ffffffffffffffff81111561182d57600080fd5b8201601f8101841361183e57600080fd5b61184d848235602084016117c6565b949350505050565b803563ffffffff81168114610ab557600080fd5b6000806000806080858703121561187f57600080fd5b61188885611855565b93506020850135611898816116c3565b925060408501356118a8816116c3565b9396929550929360600135925050565b60005b838110156118d35781810151838201526020016118bb565b838111156118e2576000848401525b50505050565b600081518084526119008160208601602086016118b8565b601f017fffffffffffffffffffffffffffffffffffffffffffffffffffffffffffffffe0169290920160200192915050565b60208152600061038d60208301846118e8565b6000806040838503121561195857600080fd5b8235611963816116c3565b946020939093013593505050565b60006020828403121561198357600080fd5b5035919050565b803560048110610ab557600080fd5b60008083601f8401126119ab57600080fd5b50813567ffffffffffffffff8111156119c357600080fd5b6020830191508360208285010111156119db57600080fd5b9250929050565b600080600080606085870312156119f857600080fd5b84357bffffffffffffffffffffffffffffffffffffffffffffffffffffffff81168114611a2457600080fd5b9350611a326020860161198a565b9250604085013567ffffffffffffffff811115611a4e57600080fd5b611a5a87828801611999565b95989497509550505050565b60008060008060008060a08789031215611a7f57600080fd5b611a8887611855565b95506020870135611a98816116c3565b94506040870135611aa8816116c3565b935060608701359250608087013567ffffffffffffffff811115611acb57600080fd5b611ad789828a01611999565b979a9699509497509295939492505050565b7f4e487b7100000000000000000000000000000000000000000000000000000000600052602160045260246000fd5b600060208284031215611b2a57600080fd5b815161038d816116c3565b60048110611b6c577f4e487b7100000000000000000000000000000000000000000000000000000000600052602160045260246000fd5b9052565b600181811c90821680611b8457607f821691505b602082108103611bbd577f4e487b7100000000000000000000000000000000000000000000000000000000600052602260045260246000fd5b50919050565b611bcd8184611b35565b6000602060408184015260008454611be481611b70565b8060408701526060600180841660008114611c065760018114611c3857611c66565b7fffffffffffffffffffffffffffffffffffffffffffffffffffffffffffffff008516838a0152608089019550611c66565b896000528660002060005b85811015611c5e5781548b8201860152908301908801611c43565b8a0184019650505b50939998505050505050505050565b602081016107a28284611b35565b600060208284031215611c9557600080fd5b815167ffffffffffffffff811115611cac57600080fd5b8201601f81018413611cbd57600080fd5b8051611ccb6117d482611780565b818152856020838501011115611ce057600080fd5b611cf18260208301602086016118b8565b95945050505050565b600083516020611d0d82858389016118b8565b818401915060008554611d1f81611b70565b60018281168015611d375760018114611d6657611d92565b7fffffffffffffffffffffffffffffffffffffffffffffffffffffffffffffff00841687528287019450611d92565b896000528560002060005b84811015611d8a57815489820152908301908701611d71565b505082870194505b50929998505050505050505050565b600060208284031215611db357600080fd5b5051919050565b7f4e487b7100000000000000000000000000000000000000000000000000000000600052601160045260246000fd5b60007bffffffffffffffffffffffffffffffffffffffffffffffffffffffff808316818516808303821115611e2057611e20611dba565b01949350505050565b60008219821115611e3c57611e3c611dba565b500190565b600060208284031215611e5357600080fd5b8151801515811461038d57600080fd5b60008060408385031215611e7657600080fd5b611e7f8361198a565b9150602083013567ffffffffffffffff811115611e9b57600080fd5b8301601f81018513611eac57600080fd5b611ebb858235602084016117c6565b915050925092905056fea164736f6c634300080d000a",
  "devdoc": {
    "author": "CXIP-Labs",
    "details": "The entire logic and functionality of the smart contract is self-contained.",
    "kind": "dev",
    "methods": {
      "constructor": {
        "details": "To make exact CREATE2 deployment possible, constructor is left empty. We utilize the \"init\" function instead."
      },
      "init(bytes)": {
        "details": "Special function to allow a one time initialisation on deployment. Also configures and deploys royalties."
      },
      "owner()": {
        "details": "Address of initial creator/owner of the collection."
      },
      "tokenURI(uint256)": {
        "returns": {
          "_0": "string The URI."
        }
      }
    },
    "stateVariables": {
      "_currentTokenId": {
        "details": "Internal reference used for minting incremental token ids."
      },
      "_tokenURIs": {
        "details": "Mapping of IPFS URIs for tokenIds."
      },
      "_tokenUriType": {
        "details": "Enum mapping of type of token URI to use for specific tokenId."
      },
      "_uriType": {
        "details": "Enum of type of token URI to use globally for the entire contract."
      }
    },
    "title": "CXIP ERC-721 Collection that is bridgeable via Holograph",
    "version": 1
  },
  "userdoc": {
    "kind": "user",
    "methods": {
      "constructor": {
        "notice": "Constructor is empty and not utilised."
      },
      "init(bytes)": {
        "notice": "Initializes the collection."
      },
      "tokenURI(uint256)": {
        "notice": "Get's the URI of the token."
      }
    },
    "notice": "A smart contract for minting and managing Holograph Bridgeable ERC721 NFTs.",
    "version": 1
  },
  "storageLayout": {
    "storage": [
      {
        "astId": 20269,
        "contract": "contracts/token/CxipERC721.sol:CxipERC721",
        "label": "_currentTokenId",
        "offset": 0,
        "slot": "0",
        "type": "t_uint224"
      },
      {
        "astId": 20273,
        "contract": "contracts/token/CxipERC721.sol:CxipERC721",
        "label": "_uriType",
        "offset": 28,
        "slot": "0",
        "type": "t_enum(TokenUriType)13390"
      },
      {
        "astId": 20279,
        "contract": "contracts/token/CxipERC721.sol:CxipERC721",
        "label": "_tokenUriType",
        "offset": 0,
        "slot": "1",
        "type": "t_mapping(t_uint256,t_enum(TokenUriType)13390)"
      },
      {
        "astId": 20287,
        "contract": "contracts/token/CxipERC721.sol:CxipERC721",
        "label": "_tokenURIs",
        "offset": 0,
        "slot": "2",
        "type": "t_mapping(t_uint256,t_mapping(t_enum(TokenUriType)13390,t_string_storage))"
      }
    ],
    "types": {
      "t_enum(TokenUriType)13390": {
        "encoding": "inplace",
        "label": "enum TokenUriType",
        "numberOfBytes": "1"
      },
      "t_mapping(t_enum(TokenUriType)13390,t_string_storage)": {
        "encoding": "mapping",
        "key": "t_enum(TokenUriType)13390",
        "label": "mapping(enum TokenUriType => string)",
        "numberOfBytes": "32",
        "value": "t_string_storage"
      },
      "t_mapping(t_uint256,t_enum(TokenUriType)13390)": {
        "encoding": "mapping",
        "key": "t_uint256",
        "label": "mapping(uint256 => enum TokenUriType)",
        "numberOfBytes": "32",
        "value": "t_enum(TokenUriType)13390"
      },
      "t_mapping(t_uint256,t_mapping(t_enum(TokenUriType)13390,t_string_storage))": {
        "encoding": "mapping",
        "key": "t_uint256",
        "label": "mapping(uint256 => mapping(enum TokenUriType => string))",
        "numberOfBytes": "32",
        "value": "t_mapping(t_enum(TokenUriType)13390,t_string_storage)"
      },
      "t_string_storage": {
        "encoding": "bytes",
        "label": "string",
        "numberOfBytes": "32"
      },
      "t_uint224": {
        "encoding": "inplace",
        "label": "uint224",
        "numberOfBytes": "28"
      },
      "t_uint256": {
        "encoding": "inplace",
        "label": "uint256",
        "numberOfBytes": "32"
      }
    }
  }
}