{
  "address": "0xAeF45EE49c36d179c24b90F09A62EAcA42A3a0bD",
  "abi": [
    {
      "inputs": [],
      "stateMutability": "nonpayable",
      "type": "constructor"
    },
    {
      "inputs": [],
      "name": "admin",
      "outputs": [
        {
          "internalType": "address",
          "name": "",
          "type": "address"
        }
      ],
      "stateMutability": "view",
      "type": "function"
    },
    {
      "inputs": [
        {
          "internalType": "address",
          "name": "target",
          "type": "address"
        },
        {
          "internalType": "bytes",
          "name": "data",
          "type": "bytes"
        }
      ],
      "name": "adminCall",
      "outputs": [],
      "stateMutability": "payable",
      "type": "function"
    },
    {
      "inputs": [
        {
          "internalType": "bytes32",
          "name": "hash",
          "type": "bytes32"
        },
        {
          "internalType": "address",
          "name": "contractAddress",
          "type": "address"
        }
      ],
      "name": "factoryDeployedHash",
      "outputs": [],
      "stateMutability": "nonpayable",
      "type": "function"
    },
    {
      "inputs": [],
      "name": "getAdmin",
      "outputs": [
        {
          "internalType": "address",
          "name": "adminAddress",
          "type": "address"
        }
      ],
      "stateMutability": "view",
      "type": "function"
    },
    {
      "inputs": [
        {
          "internalType": "bytes32",
          "name": "contractType",
          "type": "bytes32"
        }
      ],
      "name": "getContractTypeAddress",
      "outputs": [
        {
          "internalType": "address",
          "name": "",
          "type": "address"
        }
      ],
      "stateMutability": "view",
      "type": "function"
    },
    {
      "inputs": [
        {
          "internalType": "uint32",
          "name": "chainId",
          "type": "uint32"
        }
      ],
      "name": "getHToken",
      "outputs": [
        {
          "internalType": "address",
          "name": "",
          "type": "address"
        }
      ],
      "stateMutability": "view",
      "type": "function"
    },
    {
      "inputs": [],
      "name": "getHolograph",
      "outputs": [
        {
          "internalType": "address",
          "name": "holograph",
          "type": "address"
        }
      ],
      "stateMutability": "view",
      "type": "function"
    },
    {
      "inputs": [
        {
          "internalType": "uint256",
          "name": "index",
          "type": "uint256"
        },
        {
          "internalType": "uint256",
          "name": "length",
          "type": "uint256"
        }
      ],
      "name": "getHolographableContracts",
      "outputs": [
        {
          "internalType": "address[]",
          "name": "contracts",
          "type": "address[]"
        }
      ],
      "stateMutability": "view",
      "type": "function"
    },
    {
      "inputs": [],
      "name": "getHolographableContractsLength",
      "outputs": [
        {
          "internalType": "uint256",
          "name": "",
          "type": "uint256"
        }
      ],
      "stateMutability": "view",
      "type": "function"
    },
    {
      "inputs": [
        {
          "internalType": "bytes32",
          "name": "hash",
          "type": "bytes32"
        }
      ],
      "name": "getHolographedHashAddress",
      "outputs": [
        {
          "internalType": "address",
          "name": "",
          "type": "address"
        }
      ],
      "stateMutability": "view",
      "type": "function"
    },
    {
      "inputs": [],
      "name": "getUtilityToken",
      "outputs": [
        {
          "internalType": "address",
          "name": "tokenContract",
          "type": "address"
        }
      ],
      "stateMutability": "view",
      "type": "function"
    },
    {
      "inputs": [
        {
          "internalType": "bytes",
          "name": "data",
          "type": "bytes"
        }
      ],
      "name": "init",
      "outputs": [
        {
          "internalType": "bytes4",
          "name": "",
          "type": "bytes4"
        }
      ],
      "stateMutability": "nonpayable",
      "type": "function"
    },
    {
      "inputs": [
        {
          "internalType": "address",
          "name": "smartContract",
          "type": "address"
        }
      ],
      "name": "isHolographedContract",
      "outputs": [
        {
          "internalType": "bool",
          "name": "",
          "type": "bool"
        }
      ],
      "stateMutability": "view",
      "type": "function"
    },
    {
      "inputs": [
        {
          "internalType": "bytes32",
          "name": "hash",
          "type": "bytes32"
        }
      ],
      "name": "isHolographedHashDeployed",
      "outputs": [
        {
          "internalType": "bool",
          "name": "",
          "type": "bool"
        }
      ],
      "stateMutability": "view",
      "type": "function"
    },
    {
      "inputs": [
        {
          "internalType": "address",
          "name": "contractAddress",
          "type": "address"
        }
      ],
      "name": "referenceContractTypeAddress",
      "outputs": [
        {
          "internalType": "bytes32",
          "name": "",
          "type": "bytes32"
        }
      ],
      "stateMutability": "nonpayable",
      "type": "function"
    },
    {
      "inputs": [
        {
          "internalType": "address",
          "name": "adminAddress",
          "type": "address"
        }
      ],
      "name": "setAdmin",
      "outputs": [],
      "stateMutability": "nonpayable",
      "type": "function"
    },
    {
      "inputs": [
        {
          "internalType": "bytes32",
          "name": "contractType",
          "type": "bytes32"
        },
        {
          "internalType": "address",
          "name": "contractAddress",
          "type": "address"
        }
      ],
      "name": "setContractTypeAddress",
      "outputs": [],
      "stateMutability": "nonpayable",
      "type": "function"
    },
    {
      "inputs": [
        {
          "internalType": "uint32",
          "name": "chainId",
          "type": "uint32"
        },
        {
          "internalType": "address",
          "name": "hToken",
          "type": "address"
        }
      ],
      "name": "setHToken",
      "outputs": [],
      "stateMutability": "nonpayable",
      "type": "function"
    },
    {
      "inputs": [
        {
          "internalType": "address",
          "name": "holograph",
          "type": "address"
        }
      ],
      "name": "setHolograph",
      "outputs": [],
      "stateMutability": "nonpayable",
      "type": "function"
    },
    {
      "inputs": [
        {
          "internalType": "address",
          "name": "tokenContract",
          "type": "address"
        }
      ],
      "name": "setUtilityToken",
      "outputs": [],
      "stateMutability": "nonpayable",
      "type": "function"
    },
    {
      "inputs": [
        {
          "internalType": "bytes32[]",
          "name": "hashes",
          "type": "bytes32[]"
        },
        {
          "internalType": "bool[]",
          "name": "reserved",
          "type": "bool[]"
        }
      ],
      "name": "updateReservedContractTypes",
      "outputs": [],
      "stateMutability": "nonpayable",
      "type": "function"
    }
  ],
  "transactionHash": "0x83a656257da2740802ec42b9dcf36dc2e894066bc029741983a2f000722a4358",
  "args": [],
  "numDeployments": 2,
  "solcInputHash": "b5e67cf3d377a96ccbe804fbc6a54ade",
  "bytecode": "0x608060405234801561001057600080fd5b5061190f806100206000396000f3fe6080604052600436106101695760003560e01c80636e9960c3116100cb578063bf64a82d1161007f578063d9aa2a7c11610059578063d9aa2a7c1461050c578063ede4a5191461052c578063f851a4401461054c57600080fd5b8063bf64a82d14610473578063cc2913f914610486578063d1636782146104c957600080fd5b8063768797c3116100b0578063768797c3146103ea5780639013ae081461040a578063949d53a71461042a57600080fd5b80636e9960c314610396578063704b6c02146103ca57600080fd5b806340ad4fa9116101225780634827ae0c116101075780634827ae0c146102f15780634ddf47d41461032557806356116d541461037657600080fd5b806340ad4fa91461028c57806344b25fff146102ab57600080fd5b806324299c6e1161015357806324299c6e146101f557806325d5cac81461024a57806335ee77cf1461026c57600080fd5b80626266791461016e57806321ad2353146101c8575b600080fd5b34801561017a57600080fd5b507fbf76518d46db472b71aa7677a0908b8016f3dee568415ffa24055f9a670f9c37545b60405173ffffffffffffffffffffffffffffffffffffffff90911681526020015b60405180910390f35b3480156101d457600080fd5b506101e86101e3366004611365565b610561565b6040516101bf9190611387565b34801561020157600080fd5b5061023a6102103660046113e1565b60009081526001602052604090205473ffffffffffffffffffffffffffffffffffffffff16151590565b60405190151581526020016101bf565b34801561025657600080fd5b5061026a61026536600461141f565b61066d565b005b34801561027857600080fd5b5061026a61028736600461145c565b61074c565b34801561029857600080fd5b506000545b6040519081526020016101bf565b3480156102b757600080fd5b5061023a6102c636600461141f565b73ffffffffffffffffffffffffffffffffffffffff1660009081526004602052604090205460ff1690565b3480156102fd57600080fd5b507fb4107f746e9496e8452accc7de63d1c5e14c19f510932daa04077cd49e8bd77a5461019e565b34801561033157600080fd5b50610345610340366004611511565b61085d565b6040517fffffffff0000000000000000000000000000000000000000000000000000000090911681526020016101bf565b34801561038257600080fd5b5061026a6103913660046115c4565b610a06565b3480156103a257600080fd5b507f3f106594dc74eeef980dae234cde8324dc2497b13d27a0c59e55bd2ca10a07c95461019e565b3480156103d657600080fd5b5061026a6103e536600461141f565b610b87565b3480156103f657600080fd5b5061029d61040536600461141f565b610c61565b34801561041657600080fd5b5061026a61042536600461141f565b610e55565b34801561043657600080fd5b5061019e6104453660046115e9565b63ffffffff1660009081526005602052604090205473ffffffffffffffffffffffffffffffffffffffff1690565b61026a610481366004611604565b610f2f565b34801561049257600080fd5b5061019e6104a13660046113e1565b60009081526002602052604090205473ffffffffffffffffffffffffffffffffffffffff1690565b3480156104d557600080fd5b5061019e6104e43660046113e1565b60009081526001602052604090205473ffffffffffffffffffffffffffffffffffffffff1690565b34801561051857600080fd5b5061026a6105273660046115c4565b611011565b34801561053857600080fd5b5061026a6105473660046116d5565b6111f9565b34801561055857600080fd5b5061019e611336565b600054606090806105728486611770565b1115610585576105828482611788565b92505b8267ffffffffffffffff81111561059e5761059e611493565b6040519080825280602002602001820160405280156105c7578160200160208202803683370190505b50915060005b838110156106655760006105e18287611770565b815481106105f1576105f161179f565b9060005260206000200160009054906101000a900473ffffffffffffffffffffffffffffffffffffffff1683828151811061062e5761062e61179f565b73ffffffffffffffffffffffffffffffffffffffff909216602092830291909101909101528061065d816117ce565b9150506105cd565b505092915050565b7f3f106594dc74eeef980dae234cde8324dc2497b13d27a0c59e55bd2ca10a07c95473ffffffffffffffffffffffffffffffffffffffff163373ffffffffffffffffffffffffffffffffffffffff1614610728576040517f08c379a000000000000000000000000000000000000000000000000000000000815260206004820152601e60248201527f484f4c4f47524150483a2061646d696e206f6e6c792066756e6374696f6e000060448201526064015b60405180910390fd5b7fb4107f746e9496e8452accc7de63d1c5e14c19f510932daa04077cd49e8bd77a55565b7f3f106594dc74eeef980dae234cde8324dc2497b13d27a0c59e55bd2ca10a07c95473ffffffffffffffffffffffffffffffffffffffff163373ffffffffffffffffffffffffffffffffffffffff1614610802576040517f08c379a000000000000000000000000000000000000000000000000000000000815260206004820152601e60248201527f484f4c4f47524150483a2061646d696e206f6e6c792066756e6374696f6e0000604482015260640161071f565b63ffffffff91909116600090815260056020526040902080547fffffffffffffffffffffffff00000000000000000000000000000000000000001673ffffffffffffffffffffffffffffffffffffffff909216919091179055565b60006108877f4e5f991bca30eca2d4643aaefa807e88f96a4a97398933d572a3c0d973004a015490565b156108ee576040517f08c379a000000000000000000000000000000000000000000000000000000000815260206004820152601e60248201527f484f4c4f47524150483a20616c726561647920696e697469616c697a65640000604482015260640161071f565b600080838060200190518101906109059190611806565b91509150327f3f106594dc74eeef980dae234cde8324dc2497b13d27a0c59e55bd2ca10a07c955817fb4107f746e9496e8452accc7de63d1c5e14c19f510932daa04077cd49e8bd77a5560005b81518110156109b3576001600360008484815181106109735761097361179f565b6020026020010151815260200190815260200160002060006101000a81548160ff02191690831515021790555080806109ab906117ce565b915050610952565b506109dd60017f4e5f991bca30eca2d4643aaefa807e88f96a4a97398933d572a3c0d973004a0155565b507f4ddf47d4000000000000000000000000000000000000000000000000000000009392505050565b7f3f106594dc74eeef980dae234cde8324dc2497b13d27a0c59e55bd2ca10a07c95473ffffffffffffffffffffffffffffffffffffffff163373ffffffffffffffffffffffffffffffffffffffff1614610abc576040517f08c379a000000000000000000000000000000000000000000000000000000000815260206004820152601e60248201527f484f4c4f47524150483a2061646d696e206f6e6c792066756e6374696f6e0000604482015260640161071f565b60008281526003602052604090205460ff16610b34576040517f08c379a000000000000000000000000000000000000000000000000000000000815260206004820152601c60248201527f484f4c4f47524150483a206e6f74207265736572766564207479706500000000604482015260640161071f565b60009182526002602052604090912080547fffffffffffffffffffffffff00000000000000000000000000000000000000001673ffffffffffffffffffffffffffffffffffffffff909216919091179055565b7f3f106594dc74eeef980dae234cde8324dc2497b13d27a0c59e55bd2ca10a07c95473ffffffffffffffffffffffffffffffffffffffff163373ffffffffffffffffffffffffffffffffffffffff1614610c3d576040517f08c379a000000000000000000000000000000000000000000000000000000000815260206004820152601e60248201527f484f4c4f47524150483a2061646d696e206f6e6c792066756e6374696f6e0000604482015260640161071f565b7f3f106594dc74eeef980dae234cde8324dc2497b13d27a0c59e55bd2ca10a07c955565b6000813f8015801590610c9457507fc5d2460186f7233c927e7db2dcc703c0e500b653ca82273b7bfad8045d85a4708114155b610cfa576040517f08c379a000000000000000000000000000000000000000000000000000000000815260206004820152601960248201527f484f4c4f47524150483a20656d70747920636f6e747261637400000000000000604482015260640161071f565b60008181526002602052604090205473ffffffffffffffffffffffffffffffffffffffff1615610d86576040517f08c379a000000000000000000000000000000000000000000000000000000000815260206004820152601f60248201527f484f4c4f47524150483a20636f6e747261637420616c72656164792073657400604482015260640161071f565b60008181526003602052604090205460ff1615610dff576040517f08c379a000000000000000000000000000000000000000000000000000000000815260206004820181905260248201527f484f4c4f47524150483a20726573657276656420616464726573732074797065604482015260640161071f565b600081815260026020526040902080547fffffffffffffffffffffffff00000000000000000000000000000000000000001673ffffffffffffffffffffffffffffffffffffffff94909416939093179092555090565b7f3f106594dc74eeef980dae234cde8324dc2497b13d27a0c59e55bd2ca10a07c95473ffffffffffffffffffffffffffffffffffffffff163373ffffffffffffffffffffffffffffffffffffffff1614610f0b576040517f08c379a000000000000000000000000000000000000000000000000000000000815260206004820152601e60248201527f484f4c4f47524150483a2061646d696e206f6e6c792066756e6374696f6e0000604482015260640161071f565b7fbf76518d46db472b71aa7677a0908b8016f3dee568415ffa24055f9a670f9c3755565b7f3f106594dc74eeef980dae234cde8324dc2497b13d27a0c59e55bd2ca10a07c95473ffffffffffffffffffffffffffffffffffffffff163373ffffffffffffffffffffffffffffffffffffffff1614610fe5576040517f08c379a000000000000000000000000000000000000000000000000000000000815260206004820152601e60248201527f484f4c4f47524150483a2061646d696e206f6e6c792066756e6374696f6e0000604482015260640161071f565b808260003760008082600034875af13d6000803e808015611005573d6000f35b3d6000fd5b5050505050565b60007fb4107f746e9496e8452accc7de63d1c5e14c19f510932daa04077cd49e8bd77a5490508073ffffffffffffffffffffffffffffffffffffffff166388cc58e46040518163ffffffff1660e01b8152600401602060405180830381865afa158015611082573d6000803e3d6000fd5b505050506040513d601f19601f820116820180604052508101906110a691906118c3565b73ffffffffffffffffffffffffffffffffffffffff163373ffffffffffffffffffffffffffffffffffffffff161461113a576040517f08c379a000000000000000000000000000000000000000000000000000000000815260206004820181905260248201527f484f4c4f47524150483a20666163746f7279206f6e6c792066756e6374696f6e604482015260640161071f565b506000918252600160208181526040808520805473ffffffffffffffffffffffffffffffffffffffff9095167fffffffffffffffffffffffff000000000000000000000000000000000000000095861681179091558086526004909252842080547fffffffffffffffffffffffffffffffffffffffffffffffffffffffffffffff001683179055835491820184559280527f290decd9548b62a8d60345a988386fc84ba6bc95484008f6362f93160ef3e5630180549091169091179055565b7f3f106594dc74eeef980dae234cde8324dc2497b13d27a0c59e55bd2ca10a07c95473ffffffffffffffffffffffffffffffffffffffff163373ffffffffffffffffffffffffffffffffffffffff16146112af576040517f08c379a000000000000000000000000000000000000000000000000000000000815260206004820152601e60248201527f484f4c4f47524150483a2061646d696e206f6e6c792066756e6374696f6e0000604482015260640161071f565b60005b8381101561100a578282828181106112cc576112cc61179f565b90506020020160208101906112e191906118e0565b600360008787858181106112f7576112f761179f565b90506020020135815260200190815260200160002060006101000a81548160ff021916908315150217905550808061132e906117ce565b9150506112b2565b60006113607f3f106594dc74eeef980dae234cde8324dc2497b13d27a0c59e55bd2ca10a07c95490565b905090565b6000806040838503121561137857600080fd5b50508035926020909101359150565b6020808252825182820181905260009190848201906040850190845b818110156113d557835173ffffffffffffffffffffffffffffffffffffffff16835292840192918401916001016113a3565b50909695505050505050565b6000602082840312156113f357600080fd5b5035919050565b73ffffffffffffffffffffffffffffffffffffffff8116811461141c57600080fd5b50565b60006020828403121561143157600080fd5b813561143c816113fa565b9392505050565b803563ffffffff8116811461145757600080fd5b919050565b6000806040838503121561146f57600080fd5b61147883611443565b91506020830135611488816113fa565b809150509250929050565b7f4e487b7100000000000000000000000000000000000000000000000000000000600052604160045260246000fd5b604051601f82017fffffffffffffffffffffffffffffffffffffffffffffffffffffffffffffffe016810167ffffffffffffffff8111828210171561150957611509611493565b604052919050565b6000602080838503121561152457600080fd5b823567ffffffffffffffff8082111561153c57600080fd5b818501915085601f83011261155057600080fd5b81358181111561156257611562611493565b611592847fffffffffffffffffffffffffffffffffffffffffffffffffffffffffffffffe0601f840116016114c2565b915080825286848285010111156115a857600080fd5b8084840185840137600090820190930192909252509392505050565b600080604083850312156115d757600080fd5b823591506020830135611488816113fa565b6000602082840312156115fb57600080fd5b61143c82611443565b60008060006040848603121561161957600080fd5b8335611624816113fa565b9250602084013567ffffffffffffffff8082111561164157600080fd5b818601915086601f83011261165557600080fd5b81358181111561166457600080fd5b87602082850101111561167657600080fd5b6020830194508093505050509250925092565b60008083601f84011261169b57600080fd5b50813567ffffffffffffffff8111156116b357600080fd5b6020830191508360208260051b85010111156116ce57600080fd5b9250929050565b600080600080604085870312156116eb57600080fd5b843567ffffffffffffffff8082111561170357600080fd5b61170f88838901611689565b9096509450602087013591508082111561172857600080fd5b5061173587828801611689565b95989497509550505050565b7f4e487b7100000000000000000000000000000000000000000000000000000000600052601160045260246000fd5b6000821982111561178357611783611741565b500190565b60008282101561179a5761179a611741565b500390565b7f4e487b7100000000000000000000000000000000000000000000000000000000600052603260045260246000fd5b60007fffffffffffffffffffffffffffffffffffffffffffffffffffffffffffffffff82036117ff576117ff611741565b5060010190565b6000806040838503121561181957600080fd5b8251611824816113fa565b8092505060208084015167ffffffffffffffff8082111561184457600080fd5b818601915086601f83011261185857600080fd5b81518181111561186a5761186a611493565b8060051b915061187b8483016114c2565b818152918301840191848101908984111561189557600080fd5b938501935b838510156118b35784518252938501939085019061189a565b8096505050505050509250929050565b6000602082840312156118d557600080fd5b815161143c816113fa565b6000602082840312156118f257600080fd5b8135801515811461143c57600080fdfea164736f6c634300080d000a",
  "devdoc": {
    "details": "This smart contract stores the different source codes that have been prepared and can be used for bridging.We will store here the layer 1 for ERC721 and ERC1155 smart contracts.This way it can be super easy to upgrade/update the source code once, and have all smart contracts automatically updated.",
    "kind": "dev",
    "methods": {
      "constructor": {
        "details": "Constructor is left empty and init is used instead."
      },
      "factoryDeployedHash(bytes32,address)": {
        "details": "Allows Holograph Factory to register a deployed contract, referenced with deployment hash."
      },
      "getContractTypeAddress(bytes32)": {
        "details": "Returns the contract address for a contract type."
      },
      "getHToken(uint32)": {
        "details": "Returns the hToken address for a given chain id."
      },
      "getHolographableContracts(uint256,uint256)": {
        "params": {
          "index": "The index to start enumeration from.",
          "length": "The length of returned results."
        },
        "returns": {
          "contracts": "address[] Returns a set length array of holographable contracts deployed."
        }
      },
      "getHolographedHashAddress(bytes32)": {
        "details": "Returns the address for a holographed hash"
      },
      "init(bytes)": {
        "details": "This function is called by the deployer/factory when creating a contract."
      },
      "referenceContractTypeAddress(address)": {
        "details": "Allows to reference a deployed smart contract, and use it's code as reference inside of Holographers."
      },
      "setContractTypeAddress(bytes32,address)": {
        "details": "Sets the contract address for a contract type."
      },
      "setHToken(uint32,address)": {
        "details": "Sets the hToken address for a specific chain id."
      },
      "updateReservedContractTypes(bytes32[],bool[])": {
        "details": "Allows admin to update or toggle reserved types."
      }
    },
    "stateVariables": {
      "_contractTypeAddresses": {
        "details": "Storage slot for saving contract type to contract address references."
      },
      "_hTokens": {
        "details": "Mapping of all hTokens available for the different EVM chains"
      },
      "_holographableContracts": {
        "details": "Array of all Holographable contracts that were ever deployed on this EVM chain"
      },
      "_holographedContracts": {
        "details": "A list of smart contracts that are guaranteed secure and holographable."
      },
      "_holographedContractsHashMap": {
        "details": "A list of hashes and the mapped out contract addresses."
      },
      "_reservedTypes": {
        "details": "Reserved type addresses for Admin.  Note: this is used for defining default contracts."
      }
    },
    "version": 1
  },
  "userdoc": {
    "kind": "user",
    "methods": {
      "getHolographableContracts(uint256,uint256)": {
        "notice": "Get set length list, starting from index, for all holographable contracts."
      },
      "getHolographableContractsLength()": {
        "notice": "Get total number of deployed holographable contracts."
      },
      "init(bytes)": {
        "notice": "Used internally to initialize the contract instead of through a constructor"
      }
    },
    "version": 1
  },
  "storageLayout": {
    "storage": [
      {
        "astId": 4176,
        "contract": "contracts/HolographRegistry.sol:HolographRegistry",
        "label": "_holographableContracts",
        "offset": 0,
        "slot": "0",
        "type": "t_array(t_address)dyn_storage"
      },
      {
        "astId": 4181,
        "contract": "contracts/HolographRegistry.sol:HolographRegistry",
        "label": "_holographedContractsHashMap",
        "offset": 0,
        "slot": "1",
        "type": "t_mapping(t_bytes32,t_address)"
      },
      {
        "astId": 4186,
        "contract": "contracts/HolographRegistry.sol:HolographRegistry",
        "label": "_contractTypeAddresses",
        "offset": 0,
        "slot": "2",
        "type": "t_mapping(t_bytes32,t_address)"
      },
      {
        "astId": 4191,
        "contract": "contracts/HolographRegistry.sol:HolographRegistry",
        "label": "_reservedTypes",
        "offset": 0,
        "slot": "3",
        "type": "t_mapping(t_bytes32,t_bool)"
      },
      {
        "astId": 4196,
        "contract": "contracts/HolographRegistry.sol:HolographRegistry",
        "label": "_holographedContracts",
        "offset": 0,
        "slot": "4",
        "type": "t_mapping(t_address,t_bool)"
      },
      {
        "astId": 4201,
        "contract": "contracts/HolographRegistry.sol:HolographRegistry",
        "label": "_hTokens",
        "offset": 0,
        "slot": "5",
        "type": "t_mapping(t_uint32,t_address)"
      }
    ],
    "types": {
      "t_address": {
        "encoding": "inplace",
        "label": "address",
        "numberOfBytes": "20"
      },
      "t_array(t_address)dyn_storage": {
        "base": "t_address",
        "encoding": "dynamic_array",
        "label": "address[]",
        "numberOfBytes": "32"
      },
      "t_bool": {
        "encoding": "inplace",
        "label": "bool",
        "numberOfBytes": "1"
      },
      "t_bytes32": {
        "encoding": "inplace",
        "label": "bytes32",
        "numberOfBytes": "32"
      },
      "t_mapping(t_address,t_bool)": {
        "encoding": "mapping",
        "key": "t_address",
        "label": "mapping(address => bool)",
        "numberOfBytes": "32",
        "value": "t_bool"
      },
      "t_mapping(t_bytes32,t_address)": {
        "encoding": "mapping",
        "key": "t_bytes32",
        "label": "mapping(bytes32 => address)",
        "numberOfBytes": "32",
        "value": "t_address"
      },
      "t_mapping(t_bytes32,t_bool)": {
        "encoding": "mapping",
        "key": "t_bytes32",
        "label": "mapping(bytes32 => bool)",
        "numberOfBytes": "32",
        "value": "t_bool"
      },
      "t_mapping(t_uint32,t_address)": {
        "encoding": "mapping",
        "key": "t_uint32",
        "label": "mapping(uint32 => address)",
        "numberOfBytes": "32",
        "value": "t_address"
      },
      "t_uint32": {
        "encoding": "inplace",
        "label": "uint32",
        "numberOfBytes": "4"
      }
    }
  }
}