{
  "address": "0x36a6c7044Aea0CCa3E299C59c9b1CE7348CE737D",
  "abi": [
    {
      "inputs": [],
      "stateMutability": "nonpayable",
      "type": "constructor"
    },
    {
      "anonymous": false,
      "inputs": [
        {
          "indexed": true,
          "internalType": "address",
          "name": "_owner",
          "type": "address"
        },
        {
          "indexed": true,
          "internalType": "address",
          "name": "_approved",
          "type": "address"
        },
        {
          "indexed": true,
          "internalType": "uint256",
          "name": "_tokenId",
          "type": "uint256"
        }
      ],
      "name": "Approval",
      "type": "event"
    },
    {
      "anonymous": false,
      "inputs": [
        {
          "indexed": true,
          "internalType": "address",
          "name": "_owner",
          "type": "address"
        },
        {
          "indexed": true,
          "internalType": "address",
          "name": "_operator",
          "type": "address"
        },
        {
          "indexed": false,
          "internalType": "bool",
          "name": "_approved",
          "type": "bool"
        }
      ],
      "name": "ApprovalForAll",
      "type": "event"
    },
    {
      "anonymous": false,
      "inputs": [
        {
          "indexed": true,
          "internalType": "address",
          "name": "previousOwner",
          "type": "address"
        },
        {
          "indexed": true,
          "internalType": "address",
          "name": "newOwner",
          "type": "address"
        }
      ],
      "name": "OwnershipTransferred",
      "type": "event"
    },
    {
      "anonymous": false,
      "inputs": [
        {
          "indexed": true,
          "internalType": "address",
          "name": "_from",
          "type": "address"
        },
        {
          "indexed": true,
          "internalType": "address",
          "name": "_to",
          "type": "address"
        },
        {
          "indexed": true,
          "internalType": "uint256",
          "name": "_tokenId",
          "type": "uint256"
        }
      ],
      "name": "Transfer",
      "type": "event"
    },
    {
      "stateMutability": "payable",
      "type": "fallback"
    },
    {
      "inputs": [],
      "name": "admin",
      "outputs": [
        {
          "internalType": "address",
          "name": "",
          "type": "address"
        }
      ],
      "stateMutability": "view",
      "type": "function"
    },
    {
      "inputs": [
        {
          "internalType": "address",
          "name": "target",
          "type": "address"
        },
        {
          "internalType": "bytes",
          "name": "data",
          "type": "bytes"
        }
      ],
      "name": "adminCall",
      "outputs": [],
      "stateMutability": "payable",
      "type": "function"
    },
    {
      "inputs": [
        {
          "internalType": "address",
          "name": "to",
          "type": "address"
        },
        {
          "internalType": "uint256",
          "name": "tokenId",
          "type": "uint256"
        }
      ],
      "name": "approve",
      "outputs": [],
      "stateMutability": "payable",
      "type": "function"
    },
    {
      "inputs": [
        {
          "internalType": "address",
          "name": "wallet",
          "type": "address"
        }
      ],
      "name": "balanceOf",
      "outputs": [
        {
          "internalType": "uint256",
          "name": "",
          "type": "uint256"
        }
      ],
      "stateMutability": "view",
      "type": "function"
    },
    {
      "inputs": [
        {
          "internalType": "uint32",
          "name": "fromChain",
          "type": "uint32"
        },
        {
          "internalType": "bytes",
          "name": "payload",
          "type": "bytes"
        }
      ],
      "name": "bridgeIn",
      "outputs": [
        {
          "internalType": "bytes4",
          "name": "",
          "type": "bytes4"
        }
      ],
      "stateMutability": "nonpayable",
      "type": "function"
    },
    {
      "inputs": [
        {
          "internalType": "uint32",
          "name": "toChain",
          "type": "uint32"
        },
        {
          "internalType": "address",
          "name": "sender",
          "type": "address"
        },
        {
          "internalType": "bytes",
          "name": "payload",
          "type": "bytes"
        }
      ],
      "name": "bridgeOut",
      "outputs": [
        {
          "internalType": "bytes4",
          "name": "selector",
          "type": "bytes4"
        },
        {
          "internalType": "bytes",
          "name": "data",
          "type": "bytes"
        }
      ],
      "stateMutability": "nonpayable",
      "type": "function"
    },
    {
      "inputs": [
        {
          "internalType": "uint256",
          "name": "tokenId",
          "type": "uint256"
        }
      ],
      "name": "burn",
      "outputs": [],
      "stateMutability": "nonpayable",
      "type": "function"
    },
    {
      "inputs": [
        {
          "internalType": "uint256",
          "name": "tokenId",
          "type": "uint256"
        }
      ],
      "name": "burned",
      "outputs": [
        {
          "internalType": "bool",
          "name": "",
          "type": "bool"
        }
      ],
      "stateMutability": "view",
      "type": "function"
    },
    {
      "inputs": [],
      "name": "contractURI",
      "outputs": [
        {
          "internalType": "string",
          "name": "",
          "type": "string"
        }
      ],
      "stateMutability": "view",
      "type": "function"
    },
    {
      "inputs": [],
      "name": "decimals",
      "outputs": [
        {
          "internalType": "uint256",
          "name": "",
          "type": "uint256"
        }
      ],
      "stateMutability": "pure",
      "type": "function"
    },
    {
      "inputs": [
        {
          "internalType": "uint256",
          "name": "tokenId",
          "type": "uint256"
        }
      ],
      "name": "exists",
      "outputs": [
        {
          "internalType": "bool",
          "name": "",
          "type": "bool"
        }
      ],
      "stateMutability": "view",
      "type": "function"
    },
    {
      "inputs": [],
      "name": "getAdmin",
      "outputs": [
        {
          "internalType": "address",
          "name": "adminAddress",
          "type": "address"
        }
      ],
      "stateMutability": "view",
      "type": "function"
    },
    {
      "inputs": [
        {
          "internalType": "uint256",
          "name": "tokenId",
          "type": "uint256"
        }
      ],
      "name": "getApproved",
      "outputs": [
        {
          "internalType": "address",
          "name": "",
          "type": "address"
        }
      ],
      "stateMutability": "view",
      "type": "function"
    },
    {
      "inputs": [],
      "name": "getOwner",
      "outputs": [
        {
          "internalType": "address",
          "name": "ownerAddress",
          "type": "address"
        }
      ],
      "stateMutability": "view",
      "type": "function"
    },
    {
      "inputs": [
        {
          "internalType": "bytes",
          "name": "data",
          "type": "bytes"
        }
      ],
      "name": "init",
      "outputs": [
        {
          "internalType": "bytes4",
          "name": "",
          "type": "bytes4"
        }
      ],
      "stateMutability": "nonpayable",
      "type": "function"
    },
    {
      "inputs": [
        {
          "internalType": "address",
          "name": "wallet",
          "type": "address"
        },
        {
          "internalType": "address",
          "name": "operator",
          "type": "address"
        }
      ],
      "name": "isApprovedForAll",
      "outputs": [
        {
          "internalType": "bool",
          "name": "",
          "type": "bool"
        }
      ],
      "stateMutability": "view",
      "type": "function"
    },
    {
      "inputs": [],
      "name": "name",
      "outputs": [
        {
          "internalType": "string",
          "name": "",
          "type": "string"
        }
      ],
      "stateMutability": "view",
      "type": "function"
    },
    {
      "inputs": [
        {
          "internalType": "address",
          "name": "_operator",
          "type": "address"
        },
        {
          "internalType": "address",
          "name": "_from",
          "type": "address"
        },
        {
          "internalType": "uint256",
          "name": "_tokenId",
          "type": "uint256"
        },
        {
          "internalType": "bytes",
          "name": "_data",
          "type": "bytes"
        }
      ],
      "name": "onERC721Received",
      "outputs": [
        {
          "internalType": "bytes4",
          "name": "",
          "type": "bytes4"
        }
      ],
      "stateMutability": "nonpayable",
      "type": "function"
    },
    {
      "inputs": [],
      "name": "owner",
      "outputs": [
        {
          "internalType": "address",
          "name": "",
          "type": "address"
        }
      ],
      "stateMutability": "view",
      "type": "function"
    },
    {
      "inputs": [
        {
          "internalType": "address",
          "name": "target",
          "type": "address"
        },
        {
          "internalType": "bytes",
          "name": "data",
          "type": "bytes"
        }
      ],
      "name": "ownerCall",
      "outputs": [],
      "stateMutability": "payable",
      "type": "function"
    },
    {
      "inputs": [
        {
          "internalType": "uint256",
          "name": "tokenId",
          "type": "uint256"
        }
      ],
      "name": "ownerOf",
      "outputs": [
        {
          "internalType": "address",
          "name": "",
          "type": "address"
        }
      ],
      "stateMutability": "view",
      "type": "function"
    },
    {
      "inputs": [
        {
          "internalType": "address",
          "name": "from",
          "type": "address"
        },
        {
          "internalType": "address",
          "name": "to",
          "type": "address"
        },
        {
          "internalType": "uint256",
          "name": "tokenId",
          "type": "uint256"
        }
      ],
      "name": "safeTransferFrom",
      "outputs": [],
      "stateMutability": "payable",
      "type": "function"
    },
    {
      "inputs": [
        {
          "internalType": "address",
          "name": "from",
          "type": "address"
        },
        {
          "internalType": "address",
          "name": "to",
          "type": "address"
        },
        {
          "internalType": "uint256",
          "name": "tokenId",
          "type": "uint256"
        },
        {
          "internalType": "bytes",
          "name": "data",
          "type": "bytes"
        }
      ],
      "name": "safeTransferFrom",
      "outputs": [],
      "stateMutability": "payable",
      "type": "function"
    },
    {
      "inputs": [
        {
          "internalType": "address",
          "name": "adminAddress",
          "type": "address"
        }
      ],
      "name": "setAdmin",
      "outputs": [],
      "stateMutability": "nonpayable",
      "type": "function"
    },
    {
      "inputs": [
        {
          "internalType": "address",
          "name": "to",
          "type": "address"
        },
        {
          "internalType": "bool",
          "name": "approved",
          "type": "bool"
        }
      ],
      "name": "setApprovalForAll",
      "outputs": [],
      "stateMutability": "nonpayable",
      "type": "function"
    },
    {
      "inputs": [
        {
          "internalType": "address",
          "name": "ownerAddress",
          "type": "address"
        }
      ],
      "name": "setOwner",
      "outputs": [],
      "stateMutability": "nonpayable",
      "type": "function"
    },
    {
      "inputs": [
        {
          "internalType": "uint256",
          "name": "tokenId",
          "type": "uint256"
        }
      ],
      "name": "sourceBurn",
      "outputs": [],
      "stateMutability": "nonpayable",
      "type": "function"
    },
    {
      "inputs": [],
      "name": "sourceGetChainPrepend",
      "outputs": [
        {
          "internalType": "uint256",
          "name": "",
          "type": "uint256"
        }
      ],
      "stateMutability": "view",
      "type": "function"
    },
    {
      "inputs": [
        {
          "internalType": "address",
          "name": "to",
          "type": "address"
        },
        {
          "internalType": "uint224",
          "name": "tokenId",
          "type": "uint224"
        }
      ],
      "name": "sourceMint",
      "outputs": [],
      "stateMutability": "nonpayable",
      "type": "function"
    },
    {
      "inputs": [
        {
          "internalType": "address",
          "name": "to",
          "type": "address"
        },
        {
          "internalType": "uint256",
          "name": "tokenId",
          "type": "uint256"
        }
      ],
      "name": "sourceTransfer",
      "outputs": [],
      "stateMutability": "nonpayable",
      "type": "function"
    },
    {
      "inputs": [
        {
          "internalType": "bytes4",
          "name": "interfaceId",
          "type": "bytes4"
        }
      ],
      "name": "supportsInterface",
      "outputs": [
        {
          "internalType": "bool",
          "name": "",
          "type": "bool"
        }
      ],
      "stateMutability": "view",
      "type": "function"
    },
    {
      "inputs": [],
      "name": "symbol",
      "outputs": [
        {
          "internalType": "string",
          "name": "",
          "type": "string"
        }
      ],
      "stateMutability": "view",
      "type": "function"
    },
    {
      "inputs": [
        {
          "internalType": "uint256",
          "name": "index",
          "type": "uint256"
        }
      ],
      "name": "tokenByIndex",
      "outputs": [
        {
          "internalType": "uint256",
          "name": "",
          "type": "uint256"
        }
      ],
      "stateMutability": "view",
      "type": "function"
    },
    {
      "inputs": [
        {
          "internalType": "address",
          "name": "wallet",
          "type": "address"
        },
        {
          "internalType": "uint256",
          "name": "index",
          "type": "uint256"
        }
      ],
      "name": "tokenOfOwnerByIndex",
      "outputs": [
        {
          "internalType": "uint256",
          "name": "",
          "type": "uint256"
        }
      ],
      "stateMutability": "view",
      "type": "function"
    },
    {
      "inputs": [
        {
          "internalType": "uint256",
          "name": "tokenId",
          "type": "uint256"
        }
      ],
      "name": "tokenURI",
      "outputs": [
        {
          "internalType": "string",
          "name": "",
          "type": "string"
        }
      ],
      "stateMutability": "view",
      "type": "function"
    },
    {
      "inputs": [
        {
          "internalType": "uint256",
          "name": "index",
          "type": "uint256"
        },
        {
          "internalType": "uint256",
          "name": "length",
          "type": "uint256"
        }
      ],
      "name": "tokens",
      "outputs": [
        {
          "internalType": "uint256[]",
          "name": "tokenIds",
          "type": "uint256[]"
        }
      ],
      "stateMutability": "view",
      "type": "function"
    },
    {
      "inputs": [
        {
          "internalType": "address",
          "name": "wallet",
          "type": "address"
        }
      ],
      "name": "tokensOfOwner",
      "outputs": [
        {
          "internalType": "uint256[]",
          "name": "",
          "type": "uint256[]"
        }
      ],
      "stateMutability": "view",
      "type": "function"
    },
    {
      "inputs": [
        {
          "internalType": "address",
          "name": "wallet",
          "type": "address"
        },
        {
          "internalType": "uint256",
          "name": "index",
          "type": "uint256"
        },
        {
          "internalType": "uint256",
          "name": "length",
          "type": "uint256"
        }
      ],
      "name": "tokensOfOwner",
      "outputs": [
        {
          "internalType": "uint256[]",
          "name": "tokenIds",
          "type": "uint256[]"
        }
      ],
      "stateMutability": "view",
      "type": "function"
    },
    {
      "inputs": [],
      "name": "totalSupply",
      "outputs": [
        {
          "internalType": "uint256",
          "name": "",
          "type": "uint256"
        }
      ],
      "stateMutability": "view",
      "type": "function"
    },
    {
      "inputs": [
        {
          "internalType": "address",
          "name": "to",
          "type": "address"
        },
        {
          "internalType": "uint256",
          "name": "tokenId",
          "type": "uint256"
        }
      ],
      "name": "transfer",
      "outputs": [],
      "stateMutability": "payable",
      "type": "function"
    },
    {
      "inputs": [
        {
          "internalType": "address",
          "name": "from",
          "type": "address"
        },
        {
          "internalType": "address",
          "name": "to",
          "type": "address"
        },
        {
          "internalType": "uint256",
          "name": "tokenId",
          "type": "uint256"
        }
      ],
      "name": "transferFrom",
      "outputs": [],
      "stateMutability": "payable",
      "type": "function"
    },
    {
      "inputs": [
        {
          "internalType": "address",
          "name": "from",
          "type": "address"
        },
        {
          "internalType": "address",
          "name": "to",
          "type": "address"
        },
        {
          "internalType": "uint256",
          "name": "tokenId",
          "type": "uint256"
        },
        {
          "internalType": "bytes",
          "name": "data",
          "type": "bytes"
        }
      ],
      "name": "transferFrom",
      "outputs": [],
      "stateMutability": "payable",
      "type": "function"
    },
    {
      "inputs": [
        {
          "internalType": "address",
          "name": "newOwner",
          "type": "address"
        }
      ],
      "name": "transferOwnership",
      "outputs": [],
      "stateMutability": "nonpayable",
      "type": "function"
    },
    {
      "stateMutability": "payable",
      "type": "receive"
    }
  ],
  "transactionHash": "0x57134fb8db5aa2a729395aef275ff60d524a9f28167ae7bf4bf1d106c313b447",
  "args": [],
  "numDeployments": 2,
  "solcInputHash": "b5e67cf3d377a96ccbe804fbc6a54ade",
  "bytecode": "0x608060405234801561001057600080fd5b506157b580620000216000396000f3fe6080604052600436106102e05760003560e01c806370a0823111610184578063b88d4fde116100d6578063e8a3d4851161008a578063f2fde38b11610064578063f2fde38b146109aa578063f851a440146109ca578063fadcd091146109df576102e7565b8063e8a3d4851461092c578063e985e9c514610941578063eb66dbcf14610997576102e7565b8063c5655fce116100bb578063c5655fce146108cc578063c839fe94146108ec578063c87b56dd1461090c576102e7565b8063b88d4fde146108a6578063bf64a82d146108b9576102e7565b80638da5cb5b11610138578063a9059cbb11610112578063a9059cbb14610852578063ab67aa5814610865578063b7e0366114610878576102e7565b80638da5cb5b1461080857806395d89b411461081d578063a22cb46514610832576102e7565b80638462151c116101695780638462151c14610787578063893d20e8146107b45780638b4864d6146107e8576102e7565b806370a082311461075257806377dbd86314610772576102e7565b80632f745c591161023d5780634ddf47d4116101f15780636352211e116101cb5780636352211e146106de5780636e9960c3146106fe578063704b6c0214610732576102e7565b80634ddf47d4146106595780634f558e79146106795780634f6ccce7146106be576102e7565b80633b4f1b26116102225780633b4f1b261461060657806342842e0e1461062657806342966c6814610639576102e7565b80632f745c59146105d2578063313ce567146105f2576102e7565b806313af40351161029457806318160ddd1161027957806318160ddd1461057057806323250cae1461058f57806323b872dd146105bf576102e7565b806313af403514610530578063150b7a0214610550576102e7565b8063081812fc116102c5578063081812fc1461046457806308a1eb20146104cc578063095ea7b31461051d576102e7565b806301ffc9a71461040d57806306fdde0314610442576102e7565b366102e757005b60006102f16109ff565b73ffffffffffffffffffffffffffffffffffffffff16639fe7303f60046000357fffffffff00000000000000000000000000000000000000000000000000000000166040518363ffffffff1660e01b8152600401610350929190614abd565b602060405180830381865afa15801561036d573d6000803e3d6000fd5b505050506040513d601f19601f820116820180604052508101906103919190614b47565b156103c45761039e610a9c565b90503660008037600080366000845af43d6000803e8080156103bf573d6000f35b3d6000fd5b3660008037333652600080602036016000347f27d542086d1e831d40b749e7f5509a626c3047a36d160781c40d5acc83e5b074545af13d6000803e8080156103bf573d6000f35b005b34801561041957600080fd5b5061042d610428366004614b92565b610ba4565b60405190151581526020015b60405180910390f35b34801561044e57600080fd5b50610457610dd5565b6040516104399190614c25565b34801561047057600080fd5b506104a761047f366004614c38565b60009081526007602052604090205473ffffffffffffffffffffffffffffffffffffffff1690565b60405173ffffffffffffffffffffffffffffffffffffffff9091168152602001610439565b3480156104d857600080fd5b506104ec6104e7366004614cac565b610e67565b6040517fffffffff000000000000000000000000000000000000000000000000000000009091168152602001610439565b61040b61052b366004614d23565b6111cb565b34801561053c57600080fd5b5061040b61054b366004614d4f565b611509565b34801561055c57600080fd5b506104ec61056b366004614d6c565b61166c565b34801561057c57600080fd5b506004545b604051908152602001610439565b34801561059b57600080fd5b5061042d6105aa366004614c38565b6000908152600c602052604090205460ff1690565b61040b6105cd366004614ddf565b611a11565b3480156105de57600080fd5b506105816105ed366004614d23565b611a2c565b3480156105fe57600080fd5b506000610581565b34801561061257600080fd5b5061040b610621366004614e20565b611ae9565b61040b610634366004614ddf565b611c9f565b34801561064557600080fd5b5061040b610654366004614c38565b611cba565b34801561066557600080fd5b506104ec610674366004614f94565b611f07565b34801561068557600080fd5b5061042d610694366004614c38565b60009081526006602052604090205473ffffffffffffffffffffffffffffffffffffffff16151590565b3480156106ca57600080fd5b506105816106d9366004614c38565b6123cf565b3480156106ea57600080fd5b506104a76106f9366004614c38565b612462565b34801561070a57600080fd5b507f3f106594dc74eeef980dae234cde8324dc2497b13d27a0c59e55bd2ca10a07c9546104a7565b34801561073e57600080fd5b5061040b61074d366004614d4f565b6124f4565b34801561075e57600080fd5b5061058161076d366004614d4f565b6125ce565b34801561077e57600080fd5b50610581612676565b34801561079357600080fd5b506107a76107a2366004614d4f565b61277a565b6040516104399190614fc9565b3480156107c057600080fd5b507fb56711ba6bd3ded7639fc335ee7524fe668a79d7558c85992e3f8494cf772777546104a7565b3480156107f457600080fd5b506107a761080336600461500d565b6127f3565b34801561081457600080fd5b506104a76128c5565b34801561082957600080fd5b5061045761295b565b34801561083e57600080fd5b5061040b61084d36600461502f565b61296a565b61040b610860366004614d23565b612be0565b61040b61087336600461505d565b612bf7565b34801561088457600080fd5b506108986108933660046150c9565b612de8565b60405161043992919061512e565b61040b6108b436600461505d565b613211565b61040b6108c7366004615169565b613635565b3480156108d857600080fd5b5061040b6108e7366004614d23565b61370b565b3480156108f857600080fd5b506107a7610907366004615189565b6137dc565b34801561091857600080fd5b50610457610927366004614c38565b6138f5565b34801561093857600080fd5b50610457613a5d565b34801561094d57600080fd5b5061042d61095c3660046151be565b73ffffffffffffffffffffffffffffffffffffffff9182166000908152600a6020908152604080832093909416825291909152205460ff1690565b61040b6109a5366004615169565b613b29565b3480156109b657600080fd5b5061040b6109c5366004614d4f565b613bdf565b3480156109d657600080fd5b506104a7613d36565b3480156109eb57600080fd5b5061040b6109fa366004614c38565b613d60565b6000610a297fb4107f746e9496e8452accc7de63d1c5e14c19f510932daa04077cd49e8bd77a5490565b73ffffffffffffffffffffffffffffffffffffffff1663ebac15f96040518163ffffffff1660e01b8152600401602060405180830381865afa158015610a73573d6000803e3d6000fd5b505050506040513d601f19601f82011682018060405250810190610a9791906151ec565b905090565b6000610ac67fb4107f746e9496e8452accc7de63d1c5e14c19f510932daa04077cd49e8bd77a5490565b73ffffffffffffffffffffffffffffffffffffffff16635ab1bd536040518163ffffffff1660e01b8152600401602060405180830381865afa158015610b10573d6000803e3d6000fd5b505050506040513d601f19601f82011682018060405250810190610b3491906151ec565b6040517fcc2913f90000000000000000000000000000000000000000000000000000000081526350413144600482015273ffffffffffffffffffffffffffffffffffffffff919091169063cc2913f990602401602060405180830381865afa158015610a73573d6000803e3d6000fd5b600080610baf6109ff565b7f27d542086d1e831d40b749e7f5509a626c3047a36d160781c40d5acc83e5b074546040517f9fe7303f0000000000000000000000000000000000000000000000000000000081529192509073ffffffffffffffffffffffffffffffffffffffff831690639fe7303f90610c2a906002908890600401614abd565b602060405180830381865afa158015610c47573d6000803e3d6000fd5b505050506040513d601f19601f82011682018060405250810190610c6b9190614b47565b80610d0657506040517f9fe7303f00000000000000000000000000000000000000000000000000000000815273ffffffffffffffffffffffffffffffffffffffff831690639fe7303f90610cc59060049088908201614abd565b602060405180830381865afa158015610ce2573d6000803e3d6000fd5b505050506040513d601f19601f82011682018060405250810190610d069190614b47565b80610dbc57506040517f01ffc9a70000000000000000000000000000000000000000000000000000000081527fffffffff000000000000000000000000000000000000000000000000000000008516600482015273ffffffffffffffffffffffffffffffffffffffff8216906301ffc9a790602401602060405180830381865afa158015610d98573d6000803e3d6000fd5b505050506040513d601f19601f82011682018060405250810190610dbc9190614b47565b15610dcb575060019392505050565b5060009392505050565b606060018054610de490615209565b80601f0160208091040260200160405190810160405280929190818152602001828054610e1090615209565b8015610e5d5780601f10610e3257610100808354040283529160200191610e5d565b820191906000526020600020905b815481529060010190602001808311610e4057829003601f168201915b5050505050905090565b6000610e917fb4107f746e9496e8452accc7de63d1c5e14c19f510932daa04077cd49e8bd77a5490565b73ffffffffffffffffffffffffffffffffffffffff16630fffbaf36040518163ffffffff1660e01b8152600401602060405180830381865afa158015610edb573d6000803e3d6000fd5b505050506040513d601f19601f82011682018060405250810190610eff91906151ec565b73ffffffffffffffffffffffffffffffffffffffff163373ffffffffffffffffffffffffffffffffffffffff1614610f98576040517f08c379a000000000000000000000000000000000000000000000000000000000815260206004820152601860248201527f4552433732313a20627269646765206f6e6c792063616c6c000000000000000060448201526064015b60405180910390fd5b6000808080610fa98688018861505d565b9350935093509350610fdf8260009081526006602052604090205473ffffffffffffffffffffffffffffffffffffffff16151590565b15611046576040517f08c379a000000000000000000000000000000000000000000000000000000000815260206004820152601c60248201527f4552433732313a20746f6b656e20616c726561647920657869737473000000006044820152606401610f8f565b6000828152600c6020526040902080547fffffffffffffffffffffffffffffffffffffffffffffffffffffffffffffff001690556110848383613e30565b61108e60016140a0565b1561119e577f27d542086d1e831d40b749e7f5509a626c3047a36d160781c40d5acc83e5b0745473ffffffffffffffffffffffffffffffffffffffff1663f0f5407389868686866040518663ffffffff1660e01b81526004016110f595949392919061525c565b6020604051808303816000875af1158015611114573d6000803e3d6000fd5b505050506040513d601f19601f820116820180604052508101906111389190614b47565b61119e576040517f08c379a000000000000000000000000000000000000000000000000000000000815260206004820152601b60248201527f484f4c4f47524150483a2062726964676520696e206661696c656400000000006044820152606401610f8f565b507f08a1eb2000000000000000000000000000000000000000000000000000000000979650505050505050565b60008181526006602052604090205473ffffffffffffffffffffffffffffffffffffffff90811690831681900361125e576040517f08c379a000000000000000000000000000000000000000000000000000000000815260206004820152601b60248201527f4552433732313a2063616e6e6f7420617070726f76652073656c6600000000006044820152606401610f8f565b61126833836140d2565b6112ce576040517f08c379a000000000000000000000000000000000000000000000000000000000815260206004820152601b60248201527f4552433732313a206e6f7420617070726f7665642073656e64657200000000006044820152606401610f8f565b6112d860046140a0565b156113ab577f27d542086d1e831d40b749e7f5509a626c3047a36d160781c40d5acc83e5b074546040517f47abf3be00000000000000000000000000000000000000000000000000000000815273ffffffffffffffffffffffffffffffffffffffff838116600483015285811660248301526044820185905291909116906347abf3be906064016020604051808303816000875af115801561137e573d6000803e3d6000fd5b505050506040513d601f19601f820116820180604052508101906113a29190614b47565b6113ab57600080fd5b60008281526007602052604080822080547fffffffffffffffffffffffff00000000000000000000000000000000000000001673ffffffffffffffffffffffffffffffffffffffff87811691821790925591518593918516917f8c5be1e5ebec7d5bd14f71427d1e84f3dd0314c0f7b2291e5b200ac8c7c3b92591a461143160036140a0565b15611504577f27d542086d1e831d40b749e7f5509a626c3047a36d160781c40d5acc83e5b074546040517f900f66ef00000000000000000000000000000000000000000000000000000000815273ffffffffffffffffffffffffffffffffffffffff8381166004830152858116602483015260448201859052919091169063900f66ef906064016020604051808303816000875af11580156114d7573d6000803e3d6000fd5b505050506040513d601f19601f820116820180604052508101906114fb9190614b47565b61150457600080fd5b505050565b7fb56711ba6bd3ded7639fc335ee7524fe668a79d7558c85992e3f8494cf7727775473ffffffffffffffffffffffffffffffffffffffff163373ffffffffffffffffffffffffffffffffffffffff16146115bf576040517f08c379a000000000000000000000000000000000000000000000000000000000815260206004820152601e60248201527f484f4c4f47524150483a206f776e6572206f6e6c792066756e6374696f6e00006044820152606401610f8f565b60006115e97fb56711ba6bd3ded7639fc335ee7524fe668a79d7558c85992e3f8494cf7727775490565b9050817fb56711ba6bd3ded7639fc335ee7524fe668a79d7558c85992e3f8494cf772777558173ffffffffffffffffffffffffffffffffffffffff168173ffffffffffffffffffffffffffffffffffffffff167f8be0079c531659141344cd1fd0a4f28419497f9722a3daafe3b4186f6b6457e060405160405180910390a35050565b6000611677866141ff565b6116dd576040517f08c379a000000000000000000000000000000000000000000000000000000000815260206004820152601d60248201527f4552433732313a206f70657261746f72206e6f7420636f6e74726163740000006044820152606401610f8f565b6116e7600f6140a0565b1561179c577f27d542086d1e831d40b749e7f5509a626c3047a36d160781c40d5acc83e5b0745473ffffffffffffffffffffffffffffffffffffffff166368fd76b28787308888886040518763ffffffff1660e01b8152600401611750969594939291906152b2565b6020604051808303816000875af115801561176f573d6000803e3d6000fd5b505050506040513d601f19601f820116820180604052508101906117939190614b47565b61179c57600080fd5b6040517f6352211e0000000000000000000000000000000000000000000000000000000081526004810185905273ffffffffffffffffffffffffffffffffffffffff871690636352211e90602401602060405180830381865afa925050508015611841575060408051601f3d9081017fffffffffffffffffffffffffffffffffffffffffffffffffffffffffffffffe016820190925261183e918101906151ec565b60015b6118a7576040517f08c379a000000000000000000000000000000000000000000000000000000000815260206004820152601c60248201527f4552433732313a20746f6b656e20646f6573206e6f74206578697374000000006044820152606401610f8f565b73ffffffffffffffffffffffffffffffffffffffff81163014611926576040517f08c379a000000000000000000000000000000000000000000000000000000000815260206004820181905260248201527f4552433732313a20636f6e7472616374206e6f7420746f6b656e206f776e65726044820152606401610f8f565b5061193160106140a0565b156119e6577f27d542086d1e831d40b749e7f5509a626c3047a36d160781c40d5acc83e5b0745473ffffffffffffffffffffffffffffffffffffffff1663462b401a8787308888886040518763ffffffff1660e01b815260040161199a969594939291906152b2565b6020604051808303816000875af11580156119b9573d6000803e3d6000fd5b505050506040513d601f19601f820116820180604052508101906119dd9190614b47565b6119e657600080fd5b507f150b7a020000000000000000000000000000000000000000000000000000000095945050505050565b61150483838360405180602001604052806000815250612bf7565b6000611a37836125ce565b8210611a9f576040517f08c379a000000000000000000000000000000000000000000000000000000000815260206004820152601b60248201527f4552433732313a20696e646578206f7574206f6620626f756e647300000000006044820152606401610f8f565b73ffffffffffffffffffffffffffffffffffffffff83166000908152600960205260409020805483908110611ad657611ad661533a565b9060005260206000200154905092915050565b7f27d542086d1e831d40b749e7f5509a626c3047a36d160781c40d5acc83e5b074543373ffffffffffffffffffffffffffffffffffffffff821614611b8a576040517f08c379a000000000000000000000000000000000000000000000000000000000815260206004820152601860248201527f4552433732313a20736f75726365206f6e6c792063616c6c00000000000000006044820152606401610f8f565b6000611b94614236565b83604051602001611bfb92919060e09290921b7fffffffff00000000000000000000000000000000000000000000000000000000168252602090811b7fffffffffffffffffffffffffffffffffffffffffffffffffffffffff000000001660048301520190565b604051602081830303815290604052611c1390615369565b6000818152600c602052604090205490915060ff1615611c8f576040517f08c379a000000000000000000000000000000000000000000000000000000000815260206004820152601f60248201527f4552433732313a2063616e2774206d696e74206275726e656420746f6b656e006044820152606401610f8f565b611c998482613e30565b50505050565b61150483838360405180602001604052806000815250613211565b611cc433826140d2565b611d2a576040517f08c379a000000000000000000000000000000000000000000000000000000000815260206004820152601b60248201527f4552433732313a206e6f7420617070726f7665642073656e64657200000000006044820152606401610f8f565b60008181526006602052604090205473ffffffffffffffffffffffffffffffffffffffff16611d5960086140a0565b15611e24577f27d542086d1e831d40b749e7f5509a626c3047a36d160781c40d5acc83e5b074546040517f4a1fefbd00000000000000000000000000000000000000000000000000000000815273ffffffffffffffffffffffffffffffffffffffff8381166004830152602482018590529190911690634a1fefbd906044016020604051808303816000875af1158015611df7573d6000803e3d6000fd5b505050506040513d601f19601f82011682018060405250810190611e1b9190614b47565b611e2457600080fd5b611e2e81836143a6565b611e3860076140a0565b15611f03577f27d542086d1e831d40b749e7f5509a626c3047a36d160781c40d5acc83e5b074546040517f971c34b400000000000000000000000000000000000000000000000000000000815273ffffffffffffffffffffffffffffffffffffffff8381166004830152602482018590529091169063971c34b4906044015b6020604051808303816000875af1158015611ed6573d6000803e3d6000fd5b505050506040513d601f19601f82011682018060405250810190611efa9190614b47565b611f0357600080fd5b5050565b6000611f317f4e5f991bca30eca2d4643aaefa807e88f96a4a97398933d572a3c0d973004a015490565b15611f98576040517f08c379a000000000000000000000000000000000000000000000000000000000815260206004820152601b60248201527f4552433732313a20616c726561647920696e697469616c697a656400000000006044820152606401610f8f565b6000337fb56711ba6bd3ded7639fc335ee7524fe668a79d7558c85992e3f8494cf772777557f27d542086d1e831d40b749e7f5509a626c3047a36d160781c40d5acc83e5b07454905060008060008060008088806020019051810190611ffe91906153f0565b95509550955095509550955085600190805190602001906120209291906149d8565b5084516120349060029060208801906149d8565b50600380547fffffffffffffffffffffffffffffffffffffffffffffffffffffffffffff00001661ffff8616179055600083905581612378576040517f4ddf47d4000000000000000000000000000000000000000000000000000000008082529073ffffffffffffffffffffffffffffffffffffffff891690634ddf47d4906120c1908590600401614c25565b6020604051808303816000875af11580156120e0573d6000803e3d6000fd5b505050506040513d601f19601f8201168201806040525081019061210491906154ae565b7fffffffff00000000000000000000000000000000000000000000000000000000161461218d576040517f08c379a000000000000000000000000000000000000000000000000000000000815260206004820152601d60248201527f4552433732313a20636f756c64206e6f7420696e697420736f757263650000006044820152606401610f8f565b600080612198610a9c565b6040805130602082015261ffff8916818301528151808203830181526060820190925273ffffffffffffffffffffffffffffffffffffffff92909216916121e29190608401614c25565b604080517fffffffffffffffffffffffffffffffffffffffffffffffffffffffffffffffe08184030181529181526020820180517bffffffffffffffffffffffffffffffffffffffffffffffffffffffff167f65b85eb5000000000000000000000000000000000000000000000000000000001790525161226391906154cb565b600060405180830381855af49150503d806000811461229e576040519150601f19603f3d011682016040523d82523d6000602084013e6122a3565b606091505b50915091506000818060200190518101906122be91906154ae565b905082801561230e57507fffffffff0000000000000000000000000000000000000000000000000000000081167f4ddf47d400000000000000000000000000000000000000000000000000000000145b612374576040517f08c379a000000000000000000000000000000000000000000000000000000000815260206004820152601a60248201527f4552433732313a20636f7564206e6f7420696e697420504131440000000000006044820152606401610f8f565b5050505b6123a160017f4e5f991bca30eca2d4643aaefa807e88f96a4a97398933d572a3c0d973004a0155565b507f4ddf47d40000000000000000000000000000000000000000000000000000000098975050505050505050565b600454600090821061243d576040517f08c379a000000000000000000000000000000000000000000000000000000000815260206004820152601b60248201527f4552433732313a20696e646578206f7574206f6620626f756e647300000000006044820152606401610f8f565b600482815481106124505761245061533a565b90600052602060002001549050919050565b60008181526006602052604081205473ffffffffffffffffffffffffffffffffffffffff16806124ee576040517f08c379a000000000000000000000000000000000000000000000000000000000815260206004820152601c60248201527f4552433732313a20746f6b656e20646f6573206e6f74206578697374000000006044820152606401610f8f565b92915050565b7f3f106594dc74eeef980dae234cde8324dc2497b13d27a0c59e55bd2ca10a07c95473ffffffffffffffffffffffffffffffffffffffff163373ffffffffffffffffffffffffffffffffffffffff16146125aa576040517f08c379a000000000000000000000000000000000000000000000000000000000815260206004820152601e60248201527f484f4c4f47524150483a2061646d696e206f6e6c792066756e6374696f6e00006044820152606401610f8f565b7f3f106594dc74eeef980dae234cde8324dc2497b13d27a0c59e55bd2ca10a07c955565b600073ffffffffffffffffffffffffffffffffffffffff821661264d576040517f08c379a000000000000000000000000000000000000000000000000000000000815260206004820152601460248201527f4552433732313a207a65726f20616464726573730000000000000000000000006044820152606401610f8f565b5073ffffffffffffffffffffffffffffffffffffffff1660009081526008602052604090205490565b7f27d542086d1e831d40b749e7f5509a626c3047a36d160781c40d5acc83e5b074546000903373ffffffffffffffffffffffffffffffffffffffff82161461271a576040517f08c379a000000000000000000000000000000000000000000000000000000000815260206004820152601860248201527f4552433732313a20736f75726365206f6e6c792063616c6c00000000000000006044820152606401610f8f565b612722614236565b6040805160e09290921b7fffffffff00000000000000000000000000000000000000000000000000000000166020830152600060248301520160405160208183030381529060405261277390615369565b91505b5090565b73ffffffffffffffffffffffffffffffffffffffff81166000908152600960209081526040918290208054835181840281018401909452808452606093928301828280156127e757602002820191906000526020600020905b8154815260200190600101908083116127d3575b50505050509050919050565b600454606090806128048486615516565b111561281757612814848261552e565b92505b8267ffffffffffffffff81111561283057612830614e7a565b604051908082528060200260200182016040528015612859578160200160208202803683370190505b50915060005b838110156128bd5760046128738287615516565b815481106128835761288361533a565b90600052602060002001548382815181106128a0576128a061533a565b6020908102919091010152806128b581615545565b91505061285f565b505092915050565b6000807f27d542086d1e831d40b749e7f5509a626c3047a36d160781c40d5acc83e5b0745490508073ffffffffffffffffffffffffffffffffffffffff16638da5cb5b6040518163ffffffff1660e01b8152600401602060405180830381865afa158015612937573d6000803e3d6000fd5b505050506040513d601f19601f8201168201806040525081019061277391906151ec565b606060028054610de490615209565b3373ffffffffffffffffffffffffffffffffffffffff8316036129e9576040517f08c379a000000000000000000000000000000000000000000000000000000000815260206004820152601b60248201527f4552433732313a2063616e6e6f7420617070726f76652073656c6600000000006044820152606401610f8f565b6129f360066140a0565b15612abf577f27d542086d1e831d40b749e7f5509a626c3047a36d160781c40d5acc83e5b074546040517fa730629100000000000000000000000000000000000000000000000000000000815273ffffffffffffffffffffffffffffffffffffffff84811660048301528315156024830152919091169063a7306291906044016020604051808303816000875af1158015612a92573d6000803e3d6000fd5b505050506040513d601f19601f82011682018060405250810190612ab69190614b47565b612abf57600080fd5b336000818152600a6020908152604080832073ffffffffffffffffffffffffffffffffffffffff87168085529083529281902080547fffffffffffffffffffffffffffffffffffffffffffffffffffffffffffffff001686151590811790915590519081529192917f17307eab39ab6107e8899845ad3d59bd9653f200f220920489ca2b5937696c31910160405180910390a3612b5c60056140a0565b15611f03577f27d542086d1e831d40b749e7f5509a626c3047a36d160781c40d5acc83e5b074546040517f4ce71c2300000000000000000000000000000000000000000000000000000000815273ffffffffffffffffffffffffffffffffffffffff8481166004830152831515602483015290911690634ce71c2390604401611eb7565b611f03338383604051806020016040528060008152505b612c0133836140d2565b612c67576040517f08c379a000000000000000000000000000000000000000000000000000000000815260206004820152601b60248201527f4552433732313a206e6f7420617070726f7665642073656e64657200000000006044820152606401610f8f565b612c71600e6140a0565b15612d22577f27d542086d1e831d40b749e7f5509a626c3047a36d160781c40d5acc83e5b0745473ffffffffffffffffffffffffffffffffffffffff1663343b278f858585856040518563ffffffff1660e01b8152600401612cd6949392919061557d565b6020604051808303816000875af1158015612cf5573d6000803e3d6000fd5b505050506040513d601f19601f82011682018060405250810190612d199190614b47565b612d2257600080fd5b612d2d848484614494565b612d37600d6140a0565b15611c99577f27d542086d1e831d40b749e7f5509a626c3047a36d160781c40d5acc83e5b0745473ffffffffffffffffffffffffffffffffffffffff16630668af80858585856040518563ffffffff1660e01b8152600401612d9c949392919061557d565b6020604051808303816000875af1158015612dbb573d6000803e3d6000fd5b505050506040513d601f19601f82011682018060405250810190612ddf9190614b47565b611c9957600080fd5b60006060612e147fb4107f746e9496e8452accc7de63d1c5e14c19f510932daa04077cd49e8bd77a5490565b73ffffffffffffffffffffffffffffffffffffffff16630fffbaf36040518163ffffffff1660e01b8152600401602060405180830381865afa158015612e5e573d6000803e3d6000fd5b505050506040513d601f19601f82011682018060405250810190612e8291906151ec565b73ffffffffffffffffffffffffffffffffffffffff163373ffffffffffffffffffffffffffffffffffffffff1614612f16576040517f08c379a000000000000000000000000000000000000000000000000000000000815260206004820152601860248201527f4552433732313a20627269646765206f6e6c792063616c6c00000000000000006044820152606401610f8f565b60008080612f2686880188614ddf565b9194509250905073ffffffffffffffffffffffffffffffffffffffff8216612faa576040517f08c379a000000000000000000000000000000000000000000000000000000000815260206004820152601460248201527f4552433732313a207a65726f20616464726573730000000000000000000000006044820152606401610f8f565b612fb488826140d2565b61301a576040517f08c379a000000000000000000000000000000000000000000000000000000000815260206004820152601b60248201527f4552433732313a2073656e646572206e6f7420617070726f76656400000000006044820152606401610f8f565b60008181526006602052604090205473ffffffffffffffffffffffffffffffffffffffff8481169116146130aa576040517f08c379a000000000000000000000000000000000000000000000000000000000815260206004820152601960248201527f4552433732313a2066726f6d206973206e6f74206f776e6572000000000000006044820152606401610f8f565b6130b460026140a0565b156131af577f27d542086d1e831d40b749e7f5509a626c3047a36d160781c40d5acc83e5b074546040517f8b1465c600000000000000000000000000000000000000000000000000000000815263ffffffff8b16600482015273ffffffffffffffffffffffffffffffffffffffff85811660248301528481166044830152606482018490529190911690638b1465c6906084016000604051808303816000875af1158015613166573d6000803e3d6000fd5b505050506040513d6000823e601f3d9081017fffffffffffffffffffffffffffffffffffffffffffffffffffffffffffffffe01682016040526131ac91908101906155c6565b93505b6131b983826143a6565b6040517fb7e0366100000000000000000000000000000000000000000000000000000000906131f290859085908590899060200161557d565b6040516020818303038152906040529450945050505094509492505050565b61321b33836140d2565b613281576040517f08c379a000000000000000000000000000000000000000000000000000000000815260206004820152601b60248201527f4552433732313a206e6f7420617070726f7665642073656e64657200000000006044820152606401610f8f565b61328b600c6140a0565b1561333c577f27d542086d1e831d40b749e7f5509a626c3047a36d160781c40d5acc83e5b0745473ffffffffffffffffffffffffffffffffffffffff16632ca16676858585856040518563ffffffff1660e01b81526004016132f0949392919061557d565b6020604051808303816000875af115801561330f573d6000803e3d6000fd5b505050506040513d601f19601f820116820180604052508101906133339190614b47565b61333c57600080fd5b613347848484614494565b613350836141ff565b156135c6576040517f01ffc9a700000000000000000000000000000000000000000000000000000000808252600482015273ffffffffffffffffffffffffffffffffffffffff8416906301ffc9a790602401602060405180830381865afa1580156133bf573d6000803e3d6000fd5b505050506040513d601f19601f820116820180604052508101906133e39190614b47565b801561349857506040517f01ffc9a70000000000000000000000000000000000000000000000000000000081527f150b7a0200000000000000000000000000000000000000000000000000000000600482015273ffffffffffffffffffffffffffffffffffffffff8416906301ffc9a790602401602060405180830381865afa158015613474573d6000803e3d6000fd5b505050506040513d601f19601f820116820180604052508101906134989190614b47565b801561356057506040517f150b7a02000000000000000000000000000000000000000000000000000000008082529073ffffffffffffffffffffffffffffffffffffffff85169063150b7a02906134f990309089908890889060040161557d565b6020604051808303816000875af1158015613518573d6000803e3d6000fd5b505050506040513d601f19601f8201168201806040525081019061353c91906154ae565b7fffffffff0000000000000000000000000000000000000000000000000000000016145b6135c6576040517f08c379a000000000000000000000000000000000000000000000000000000000815260206004820152601d60248201527f4552433732313a206f6e4552433732315265636569766564206661696c0000006044820152606401610f8f565b6135d0600b6140a0565b15611c99577f27d542086d1e831d40b749e7f5509a626c3047a36d160781c40d5acc83e5b0745473ffffffffffffffffffffffffffffffffffffffff166336fff062858585856040518563ffffffff1660e01b8152600401612d9c949392919061557d565b7f3f106594dc74eeef980dae234cde8324dc2497b13d27a0c59e55bd2ca10a07c95473ffffffffffffffffffffffffffffffffffffffff163373ffffffffffffffffffffffffffffffffffffffff16146136eb576040517f08c379a000000000000000000000000000000000000000000000000000000000815260206004820152601e60248201527f484f4c4f47524150483a2061646d696e206f6e6c792066756e6374696f6e00006044820152606401610f8f565b808260003760008082600034875af13d6000803e8080156103bf573d6000f35b7f27d542086d1e831d40b749e7f5509a626c3047a36d160781c40d5acc83e5b074543373ffffffffffffffffffffffffffffffffffffffff8216146137ac576040517f08c379a000000000000000000000000000000000000000000000000000000000815260206004820152601860248201527f4552433732313a20736f75726365206f6e6c792063616c6c00000000000000006044820152606401610f8f565b60008281526006602052604090205473ffffffffffffffffffffffffffffffffffffffff16611c99818585614494565b73ffffffffffffffffffffffffffffffffffffffff8316600090815260086020526040902054606090806138108486615516565b111561382357613820848261552e565b92505b8267ffffffffffffffff81111561383c5761383c614e7a565b604051908082528060200260200182016040528015613865578160200160208202803683370190505b50915060005b838110156138ec5773ffffffffffffffffffffffffffffffffffffffff861660009081526009602052604090206138a28287615516565b815481106138b2576138b261533a565b90600052602060002001548382815181106138cf576138cf61533a565b6020908102919091010152806138e481615545565b91505061386b565b50509392505050565b60008181526006602052604090205460609073ffffffffffffffffffffffffffffffffffffffff16613983576040517f08c379a000000000000000000000000000000000000000000000000000000000815260206004820152601c60248201527f4552433732313a20746f6b656e20646f6573206e6f74206578697374000000006044820152606401610f8f565b7f27d542086d1e831d40b749e7f5509a626c3047a36d160781c40d5acc83e5b074546040517fc87b56dd0000000000000000000000000000000000000000000000000000000081526004810184905273ffffffffffffffffffffffffffffffffffffffff82169063c87b56dd90602401600060405180830381865afa158015613a10573d6000803e3d6000fd5b505050506040513d6000823e601f3d9081017fffffffffffffffffffffffffffffffffffffffffffffffffffffffffffffffe0168201604052613a5691908101906155c6565b9392505050565b6060613a676109ff565b6003546040517f9cf149da00000000000000000000000000000000000000000000000000000000815273ffffffffffffffffffffffffffffffffffffffff9290921691639cf149da91613ac69160019161ffff169030906004016155fb565b600060405180830381865afa158015613ae3573d6000803e3d6000fd5b505050506040513d6000823e601f3d9081017fffffffffffffffffffffffffffffffffffffffffffffffffffffffffffffffe0168201604052610a9791908101906155c6565b7fb56711ba6bd3ded7639fc335ee7524fe668a79d7558c85992e3f8494cf7727775473ffffffffffffffffffffffffffffffffffffffff163373ffffffffffffffffffffffffffffffffffffffff16146136eb576040517f08c379a000000000000000000000000000000000000000000000000000000000815260206004820152601e60248201527f484f4c4f47524150483a206f776e6572206f6e6c792066756e6374696f6e00006044820152606401610f8f565b7fb56711ba6bd3ded7639fc335ee7524fe668a79d7558c85992e3f8494cf7727775473ffffffffffffffffffffffffffffffffffffffff163373ffffffffffffffffffffffffffffffffffffffff1614613c95576040517f08c379a000000000000000000000000000000000000000000000000000000000815260206004820152601e60248201527f484f4c4f47524150483a206f776e6572206f6e6c792066756e6374696f6e00006044820152606401610f8f565b73ffffffffffffffffffffffffffffffffffffffff8116613d12576040517f08c379a000000000000000000000000000000000000000000000000000000000815260206004820152601760248201527f484f4c4f47524150483a207a65726f20616464726573730000000000000000006044820152606401610f8f565b7fb56711ba6bd3ded7639fc335ee7524fe668a79d7558c85992e3f8494cf77277755565b6000610a977f3f106594dc74eeef980dae234cde8324dc2497b13d27a0c59e55bd2ca10a07c95490565b7f27d542086d1e831d40b749e7f5509a626c3047a36d160781c40d5acc83e5b074543373ffffffffffffffffffffffffffffffffffffffff821614613e01576040517f08c379a000000000000000000000000000000000000000000000000000000000815260206004820152601860248201527f4552433732313a20736f75726365206f6e6c792063616c6c00000000000000006044820152606401610f8f565b60008281526006602052604090205473ffffffffffffffffffffffffffffffffffffffff1661150481846143a6565b60008111613e9a576040517f08c379a000000000000000000000000000000000000000000000000000000000815260206004820152601f60248201527f4552433732313a20746f6b656e2069642063616e6e6f74206265207a65726f006044820152606401610f8f565b73ffffffffffffffffffffffffffffffffffffffff8216613f17576040517f08c379a000000000000000000000000000000000000000000000000000000000815260206004820152601f60248201527f4552433732313a206d696e74696e6720746f206275726e2061646472657373006044820152606401610f8f565b60008181526006602052604090205473ffffffffffffffffffffffffffffffffffffffff1615613fa3576040517f08c379a000000000000000000000000000000000000000000000000000000000815260206004820152601c60248201527f4552433732313a20746f6b656e20616c726561647920657869737473000000006044820152606401610f8f565b6000818152600c602052604090205460ff161561401c576040517f08c379a000000000000000000000000000000000000000000000000000000000815260206004820152601d60248201527f4552433732313a20746f6b656e20686173206265656e206275726e65640000006044820152606401610f8f565b60008181526006602052604080822080547fffffffffffffffffffffffff00000000000000000000000000000000000000001673ffffffffffffffffffffffffffffffffffffffff861690811790915590518392907fddf252ad1be2c89b69c2b068fc378daa952ba7f163c4a11628f55a4df523b3ef908290a4611f038282614661565b600060018260108111156140b6576140b6614a8e565b600054901c166001146140ca5760006124ee565b600192915050565b60008181526006602052604081205473ffffffffffffffffffffffffffffffffffffffff1661415d576040517f08c379a000000000000000000000000000000000000000000000000000000000815260206004820152601c60248201527f4552433732313a20746f6b656e20646f6573206e6f74206578697374000000006044820152606401610f8f565b60008281526006602052604090205473ffffffffffffffffffffffffffffffffffffffff9081169084168114806141ba575060008381526007602052604090205473ffffffffffffffffffffffffffffffffffffffff8581169116145b806141f7575073ffffffffffffffffffffffffffffffffffffffff8082166000908152600a602090815260408083209388168352929052205460ff165b949350505050565b6000813f8015801590613a5657507fc5d2460186f7233c927e7db2dcc703c0e500b653ca82273b7bfad8045d85a470141592915050565b6000803073ffffffffffffffffffffffffffffffffffffffff16634827ae0c6040518163ffffffff1660e01b8152600401602060405180830381865afa158015614284573d6000803e3d6000fd5b505050506040513d601f19601f820116820180604052508101906142a891906151ec565b73ffffffffffffffffffffffffffffffffffffffff1663381b5f466040518163ffffffff1660e01b8152600401602060405180830381865afa1580156142f2573d6000803e3d6000fd5b505050506040513d601f19601f820116820180604052508101906143169190615727565b90503073ffffffffffffffffffffffffffffffffffffffff1663913a0ef26040518163ffffffff1660e01b8152600401602060405180830381865afa158015614363573d6000803e3d6000fd5b505050506040513d601f19601f820116820180604052508101906143879190615727565b63ffffffff168163ffffffff161461439e57919050565b600091505090565b600081815260076020526040902080547fffffffffffffffffffffffff000000000000000000000000000000000000000016905560008181526006602052604080822080547fffffffffffffffffffffffff00000000000000000000000000000000000000001690555182919073ffffffffffffffffffffffffffffffffffffffff8516907fddf252ad1be2c89b69c2b068fc378daa952ba7f163c4a11628f55a4df523b3ef908390a461445a8282614728565b6000908152600c6020526040902080547fffffffffffffffffffffffffffffffffffffffffffffffffffffffffffffff0016600117905550565b60008181526006602052604090205473ffffffffffffffffffffffffffffffffffffffff848116911614614524576040517f08c379a000000000000000000000000000000000000000000000000000000000815260206004820152601760248201527f4552433732313a20746f6b656e206e6f74206f776e65640000000000000000006044820152606401610f8f565b73ffffffffffffffffffffffffffffffffffffffff82166145a1576040517f08c379a000000000000000000000000000000000000000000000000000000000815260206004820152601860248201527f4552433732313a20757365206275726e20696e737465616400000000000000006044820152606401610f8f565b600081815260076020526040902080547fffffffffffffffffffffffff000000000000000000000000000000000000000016905560008181526006602052604080822080547fffffffffffffffffffffffff00000000000000000000000000000000000000001673ffffffffffffffffffffffffffffffffffffffff86811691821790925591518493918716917fddf252ad1be2c89b69c2b068fc378daa952ba7f163c4a11628f55a4df523b3ef91a461465b8382614728565b61150482825b73ffffffffffffffffffffffffffffffffffffffff8216600081815260086020818152604080842080548786526005845291852082905594845291905291906146a983615545565b909155505073ffffffffffffffffffffffffffffffffffffffff90911660009081526009602090815260408083208054600181810183559185528385200185905560048054868652600b909452918420839055820181559091527f8a35acfbc15ff81a39ae7d344fd709f28e8600b4aa8c65c6b64bfe7fe36bd19b0155565b61473181614926565b73ffffffffffffffffffffffffffffffffffffffff8216600090815260086020526040812080549161476283615744565b909155505073ffffffffffffffffffffffffffffffffffffffff82166000908152600860209081526040808320548484526005909252909120548082146148585773ffffffffffffffffffffffffffffffffffffffff841660009081526009602052604081208054849081106147da576147da61533a565b9060005260206000200154905080600960008773ffffffffffffffffffffffffffffffffffffffff1673ffffffffffffffffffffffffffffffffffffffff16815260200190815260200160002083815481106148385761483861533a565b600091825260208083209091019290925591825260059052604090208190555b816000036148935773ffffffffffffffffffffffffffffffffffffffff8416600090815260096020526040812061488e91614a58565b611c99565b73ffffffffffffffffffffffffffffffffffffffff841660009081526009602052604090208054839081106148ca576148ca61533a565b6000918252602080832090910182905573ffffffffffffffffffffffffffffffffffffffff86168252600990526040902080548061490a5761490a615779565b6001900381819060005260206000200160009055905550505050565b6004546000906149389060019061552e565b6000838152600b6020526040812054600480549394509092849081106149605761496061533a565b9060005260206000200154905080600483815481106149815761498161533a565b6000918252602080832090910192909255828152600b909152604080822084905585825281205560048054849081106149bc576149bc61533a565b6000918252602082200155600480548061490a5761490a615779565b8280546149e490615209565b90600052602060002090601f016020900481019282614a065760008555614a4c565b82601f10614a1f57805160ff1916838001178555614a4c565b82800160010185558215614a4c579182015b82811115614a4c578251825591602001919060010190614a31565b50612776929150614a79565b5080546000825590600052602060002090810190614a769190614a79565b50565b5b808211156127765760008155600101614a7a565b7f4e487b7100000000000000000000000000000000000000000000000000000000600052602160045260246000fd5b6040810160058410614af8577f4e487b7100000000000000000000000000000000000000000000000000000000600052602160045260246000fd5b9281527fffffffff000000000000000000000000000000000000000000000000000000009190911660209091015290565b8015158114614a7657600080fd5b8051614b4281614b29565b919050565b600060208284031215614b5957600080fd5b8151613a5681614b29565b7fffffffff0000000000000000000000000000000000000000000000000000000081168114614a7657600080fd5b600060208284031215614ba457600080fd5b8135613a5681614b64565b60005b83811015614bca578181015183820152602001614bb2565b83811115611c995750506000910152565b60008151808452614bf3816020860160208601614baf565b601f017fffffffffffffffffffffffffffffffffffffffffffffffffffffffffffffffe0169290920160200192915050565b602081526000613a566020830184614bdb565b600060208284031215614c4a57600080fd5b5035919050565b63ffffffff81168114614a7657600080fd5b60008083601f840112614c7557600080fd5b50813567ffffffffffffffff811115614c8d57600080fd5b602083019150836020828501011115614ca557600080fd5b9250929050565b600080600060408486031215614cc157600080fd5b8335614ccc81614c51565b9250602084013567ffffffffffffffff811115614ce857600080fd5b614cf486828701614c63565b9497909650939450505050565b73ffffffffffffffffffffffffffffffffffffffff81168114614a7657600080fd5b60008060408385031215614d3657600080fd5b8235614d4181614d01565b946020939093013593505050565b600060208284031215614d6157600080fd5b8135613a5681614d01565b600080600080600060808688031215614d8457600080fd5b8535614d8f81614d01565b94506020860135614d9f81614d01565b935060408601359250606086013567ffffffffffffffff811115614dc257600080fd5b614dce88828901614c63565b969995985093965092949392505050565b600080600060608486031215614df457600080fd5b8335614dff81614d01565b92506020840135614e0f81614d01565b929592945050506040919091013590565b60008060408385031215614e3357600080fd5b8235614e3e81614d01565b915060208301357bffffffffffffffffffffffffffffffffffffffffffffffffffffffff81168114614e6f57600080fd5b809150509250929050565b7f4e487b7100000000000000000000000000000000000000000000000000000000600052604160045260246000fd5b604051601f82017fffffffffffffffffffffffffffffffffffffffffffffffffffffffffffffffe016810167ffffffffffffffff81118282101715614ef057614ef0614e7a565b604052919050565b600067ffffffffffffffff821115614f1257614f12614e7a565b50601f017fffffffffffffffffffffffffffffffffffffffffffffffffffffffffffffffe01660200190565b600082601f830112614f4f57600080fd5b8135614f62614f5d82614ef8565b614ea9565b818152846020838601011115614f7757600080fd5b816020850160208301376000918101602001919091529392505050565b600060208284031215614fa657600080fd5b813567ffffffffffffffff811115614fbd57600080fd5b6141f784828501614f3e565b6020808252825182820181905260009190848201906040850190845b8181101561500157835183529284019291840191600101614fe5565b50909695505050505050565b6000806040838503121561502057600080fd5b50508035926020909101359150565b6000806040838503121561504257600080fd5b823561504d81614d01565b91506020830135614e6f81614b29565b6000806000806080858703121561507357600080fd5b843561507e81614d01565b9350602085013561508e81614d01565b925060408501359150606085013567ffffffffffffffff8111156150b157600080fd5b6150bd87828801614f3e565b91505092959194509250565b600080600080606085870312156150df57600080fd5b84356150ea81614c51565b935060208501356150fa81614d01565b9250604085013567ffffffffffffffff81111561511657600080fd5b61512287828801614c63565b95989497509550505050565b7fffffffff00000000000000000000000000000000000000000000000000000000831681526040602082015260006141f76040830184614bdb565b60008060006040848603121561517e57600080fd5b8335614ccc81614d01565b60008060006060848603121561519e57600080fd5b83356151a981614d01565b95602085013595506040909401359392505050565b600080604083850312156151d157600080fd5b82356151dc81614d01565b91506020830135614e6f81614d01565b6000602082840312156151fe57600080fd5b8151613a5681614d01565b600181811c9082168061521d57607f821691505b602082108103615256577f4e487b7100000000000000000000000000000000000000000000000000000000600052602260045260246000fd5b50919050565b63ffffffff86168152600073ffffffffffffffffffffffffffffffffffffffff808716602084015280861660408401525083606083015260a060808301526152a760a0830184614bdb565b979650505050505050565b600073ffffffffffffffffffffffffffffffffffffffff8089168352808816602084015280871660408401525084606083015260a060808301528260a0830152828460c0840137600060c0848401015260c07fffffffffffffffffffffffffffffffffffffffffffffffffffffffffffffffe0601f8501168301019050979650505050505050565b7f4e487b7100000000000000000000000000000000000000000000000000000000600052603260045260246000fd5b80516020808301519190811015615256577fffffffffffffffffffffffffffffffffffffffffffffffffffffffffffffffff60209190910360031b1b16919050565b600082601f8301126153bc57600080fd5b81516153ca614f5d82614ef8565b8181528460208386010111156153df57600080fd5b6141f7826020830160208701614baf565b60008060008060008060c0878903121561540957600080fd5b865167ffffffffffffffff8082111561542157600080fd5b61542d8a838b016153ab565b9750602089015191508082111561544357600080fd5b61544f8a838b016153ab565b96506040890151915061ffff8216821461546857600080fd5b8195506060890151945061547e60808a01614b37565b935060a089015191508082111561549457600080fd5b506154a189828a016153ab565b9150509295509295509295565b6000602082840312156154c057600080fd5b8151613a5681614b64565b600082516154dd818460208701614baf565b9190910192915050565b7f4e487b7100000000000000000000000000000000000000000000000000000000600052601160045260246000fd5b60008219821115615529576155296154e7565b500190565b600082821015615540576155406154e7565b500390565b60007fffffffffffffffffffffffffffffffffffffffffffffffffffffffffffffffff8203615576576155766154e7565b5060010190565b600073ffffffffffffffffffffffffffffffffffffffff8087168352808616602084015250836040830152608060608301526155bc6080830184614bdb565b9695505050505050565b6000602082840312156155d857600080fd5b815167ffffffffffffffff8111156155ef57600080fd5b6141f7848285016153ab565b60a08152600080855481600182811c91508083168061561b57607f831692505b60208084108203615653577f4e487b710000000000000000000000000000000000000000000000000000000086526022600452602486fd5b60a0880184905260c0880182801561567257600181146156a1576156cc565b7fffffffffffffffffffffffffffffffffffffffffffffffffffffffffffffff008716825282820197506156cc565b60008d81526020902060005b878110156156c6578154848201529086019084016156ad565b83019850505b505087860390880152505060008352505060208101838103604085015260008152905060208101915050615706606083018561ffff169052565b73ffffffffffffffffffffffffffffffffffffffff831660808301526141f7565b60006020828403121561573957600080fd5b8151613a5681614c51565b600081615753576157536154e7565b507fffffffffffffffffffffffffffffffffffffffffffffffffffffffffffffffff0190565b7f4e487b7100000000000000000000000000000000000000000000000000000000600052603160045260246000fdfea164736f6c634300080d000a",
  "devdoc": {
    "author": "CXIP-Labs",
    "details": "The entire logic and functionality of the smart contract is self-contained.",
    "kind": "dev",
    "methods": {
      "approve(address,uint256)": {
        "details": "Requires the sender to be in the approved addresses.",
        "params": {
          "to": "The address to approve.",
          "tokenId": "The affected token."
        }
      },
      "balanceOf(address)": {
        "details": "Used to see total amount of tokens owned by a specific wallet.",
        "params": {
          "wallet": "Address for which to get token balance."
        },
        "returns": {
          "_0": "uint256 Returns an integer, representing total amount of tokens held by address."
        }
      },
      "burn(uint256)": {
        "details": "The sender must be the owner or approved.",
        "params": {
          "tokenId": "The token to burn."
        }
      },
      "constructor": {
        "details": "To make exact CREATE2 deployment possible, constructor is left empty. We utilize the \"init\" function instead."
      },
      "contractURI()": {
        "returns": {
          "_0": "string The URI."
        }
      },
      "decimals()": {
        "details": "Since ERC721s are single, we use 0 as the decimal places to make sure a round number for totalSupply.",
        "returns": {
          "_0": "uint256 Returns the number of decimal places to have for totalSupply."
        }
      },
      "getApproved(uint256)": {
        "details": "Single operator set for a specific token. Usually used for one-time very specific authorisations.",
        "params": {
          "tokenId": "Token id to get approved operator for."
        },
        "returns": {
          "_0": "address Approved address for token."
        }
      },
      "init(bytes)": {
        "details": "Special function to allow a one time initialisation on deployment. Also configures and deploys royalties."
      },
      "isApprovedForAll(address,address)": {
        "details": "Includes references to OpenSea and Rarible marketplace proxies.",
        "params": {
          "operator": "Address of the marketplace operator.",
          "wallet": "Address of the wallet."
        },
        "returns": {
          "_0": "bool True if approved."
        }
      },
      "name()": {
        "returns": {
          "_0": "string The collection name."
        }
      },
      "onERC721Received(address,address,uint256,bytes)": {
        "details": "We have this blank function in place to make sure that external contract sending in NFTs don't error out.Since it's not being used, the _operator variable is commented out to avoid compiler warnings.Since it's not being used, the _from variable is commented out to avoid compiler warnings.Since it's not being used, the _tokenId variable is commented out to avoid compiler warnings.Since it's not being used, the _data variable is commented out to avoid compiler warnings.",
        "returns": {
          "_0": "bytes4 Returns the interfaceId of onERC721Received."
        }
      },
      "ownerOf(uint256)": {
        "details": "The token must exist.",
        "params": {
          "tokenId": "The token to look up."
        },
        "returns": {
          "_0": "address Owner of the token."
        }
      },
      "safeTransferFrom(address,address,uint256)": {
        "details": "Safely transfers `tokenId` token from `from` to `to`, checking first that contract recipients are aware of the ERC721 protocol to prevent tokens from being forever locked.",
        "params": {
          "from": "cannot be the zero address.",
          "to": "cannot be the zero address.",
          "tokenId": "token must exist and be owned by `from`."
        }
      },
      "safeTransferFrom(address,address,uint256,bytes)": {
        "details": "Since it's not being used, the _data variable is commented out to avoid compiler warnings. are aware of the ERC721 protocol to prevent tokens from being forever locked.",
        "params": {
          "from": "cannot be the zero address.",
          "to": "cannot be the zero address.",
          "tokenId": "token must exist and be owned by `from`."
        }
      },
      "setApprovalForAll(address,bool)": {
        "details": "Allows platforms to sell/transfer all your NFTs. Used with proxy contracts like OpenSea/Rarible.",
        "params": {
          "approved": "Turn on or off approval status.",
          "to": "The address to approve."
        }
      },
      "sourceBurn(uint256)": {
        "details": "Allows for source smart contract to burn a token.  Note: this is put in place to make sure that custom logic could be implemented for merging, gamification, etc.  Note: token cannot be burned if it's locked by bridge."
      },
      "sourceGetChainPrepend()": {
        "details": "Allows source to get the prepend for their tokenIds."
      },
      "sourceMint(address,uint224)": {
        "details": "Allows for source smart contract to mint a token."
      },
      "sourceTransfer(address,uint256)": {
        "details": "Allows for source smart contract to transfer a token.  Note: this is put in place to make sure that custom logic could be implemented for merging, gamification, etc.  Note: token cannot be transfered if it's locked by bridge."
      },
      "supportsInterface(bytes4)": {
        "details": "Must add new 4 byte interface Ids here to acknowledge support",
        "params": {
          "interfaceId": "ERC165 style 4 byte interfaceId."
        },
        "returns": {
          "_0": "bool True if supported."
        }
      },
      "symbol()": {
        "returns": {
          "_0": "string The symbol."
        }
      },
      "tokenByIndex(uint256)": {
        "details": "Used in conjunction with totalSupply function to iterate over all tokens in collection.",
        "params": {
          "index": "Index of token in array."
        },
        "returns": {
          "_0": "uint256 Returns the token id of token located at that index."
        }
      },
      "tokenOfOwnerByIndex(address,uint256)": {
        "details": "Helpful for wallet token enumeration where token id info is not yet available. Use in conjunction with balanceOf function.",
        "params": {
          "index": "Index of token in array.",
          "wallet": "Specific address for which to get token for."
        },
        "returns": {
          "_0": "uint256 Returns the token id of token located at that index in specified wallet."
        }
      },
      "tokenURI(uint256)": {
        "details": "Defaults the the Arweave URI",
        "returns": {
          "_0": "string The URI."
        }
      },
      "tokens(uint256,uint256)": {
        "params": {
          "index": "The index to start enumeration from.",
          "length": "The length of returned results."
        },
        "returns": {
          "tokenIds": "uint256[] Returns a set length array of token ids minted."
        }
      },
      "tokensOfOwner(address)": {
        "params": {
          "wallet": "The wallet address to get tokens for."
        },
        "returns": {
          "_0": "uint256[] Returns an array of token ids owned by wallet."
        }
      },
      "tokensOfOwner(address,uint256,uint256)": {
        "params": {
          "index": "The index to start enumeration from.",
          "length": "The length of returned results.",
          "wallet": "The wallet address to get tokens for."
        },
        "returns": {
          "tokenIds": "uint256[] Returns a set length array of token ids owned by wallet."
        }
      },
      "totalSupply()": {
        "details": "Ignores burned tokens.",
        "returns": {
          "_0": "uint256 Returns the total number of active (not burned) tokens."
        }
      },
      "transfer(address,uint256)": {
        "details": "WARNING: Usage of this method is discouraged, use {safeTransferFrom} whenever possible.",
        "params": {
          "to": "cannot be the zero address.",
          "tokenId": "token must be owned by `from`."
        }
      },
      "transferFrom(address,address,uint256)": {
        "details": "WARNING: Usage of this method is discouraged, use {safeTransferFrom} whenever possible.",
        "params": {
          "from": "cannot be the zero address.",
          "to": "cannot be the zero address.",
          "tokenId": "token must be owned by `from`."
        }
      },
      "transferFrom(address,address,uint256,bytes)": {
        "details": "WARNING: Usage of this method is discouraged, use {safeTransferFrom} whenever possible.Since it's not being used, the _data variable is commented out to avoid compiler warnings.",
        "params": {
          "data": "additional data to pass.",
          "from": "cannot be the zero address.",
          "to": "cannot be the zero address.",
          "tokenId": "token must be owned by `from`."
        }
      }
    },
    "stateVariables": {
      "_allTokens": {
        "details": "Array of all token ids in collection."
      },
      "_allTokensIndex": {
        "details": "Mapping from token id to position in the allTokens array."
      },
      "_bps": {
        "details": "Collection royalty base points."
      },
      "_burnedTokens": {
        "details": "Mapping of all token ids that have been burned. This is to prevent re-minting of same token ids."
      },
      "_eventConfig": {
        "details": "Configuration for events to trigger for source smart contract."
      },
      "_name": {
        "details": "Collection name."
      },
      "_operatorApprovals": {
        "details": "Usually utilised for supporting marketplace proxy wallets."
      },
      "_ownedTokens": {
        "details": "Map of array of token ids owned by a specific address."
      },
      "_ownedTokensCount": {
        "details": "Map of total tokens owner by a specific address."
      },
      "_ownedTokensIndex": {
        "details": "Map of token id to array index of _ownedTokens."
      },
      "_symbol": {
        "details": "Collection symbol."
      },
      "_tokenApprovals": {
        "details": "1-to-1 map of token id that was assigned an approved operator address."
      },
      "_tokenOwner": {
        "details": "Token id to wallet (owner) address map."
      }
    },
    "title": "Holograph Bridgeable ERC-721 Collection",
    "version": 1
  },
  "userdoc": {
    "kind": "user",
    "methods": {
      "approve(address,uint256)": {
        "notice": "Adds a new address to the token's approval list."
      },
      "balanceOf(address)": {
        "notice": "Get total number of tokens owned by wallet."
      },
      "burn(uint256)": {
        "notice": "Burns the token."
      },
      "constructor": {
        "notice": "Constructor is empty and not utilised."
      },
      "contractURI()": {
        "notice": "Gets a base64 encoded contract JSON file."
      },
      "decimals()": {
        "notice": "Decimal places to have for totalSupply."
      },
      "getApproved(uint256)": {
        "notice": "Gets the approved address for the token."
      },
      "init(bytes)": {
        "notice": "Initializes the collection."
      },
      "isApprovedForAll(address,address)": {
        "notice": "Checks if the address is approved."
      },
      "name()": {
        "notice": "Gets the name of the collection."
      },
      "onERC721Received(address,address,uint256,bytes)": {
        "notice": "Empty function that is triggered by external contract on NFT transfer."
      },
      "ownerOf(uint256)": {
        "notice": "Checks who the owner of a token is."
      },
      "safeTransferFrom(address,address,uint256,bytes)": {
        "notice": "Safely transfers `tokenId` token from `from` to `to`, checking first that contract recipients"
      },
      "setApprovalForAll(address,bool)": {
        "notice": "Adds a new approved operator."
      },
      "supportsInterface(bytes4)": {
        "notice": "Shows the interfaces the contracts support"
      },
      "symbol()": {
        "notice": "Gets the collection's symbol."
      },
      "tokenByIndex(uint256)": {
        "notice": "Get token by index."
      },
      "tokenOfOwnerByIndex(address,uint256)": {
        "notice": "Get token from wallet by index instead of token id."
      },
      "tokenURI(uint256)": {
        "notice": "Get's the URI of the token."
      },
      "tokens(uint256,uint256)": {
        "notice": "Get set length list, starting from index, for all tokens."
      },
      "tokensOfOwner(address)": {
        "notice": "Get list of tokens owned by wallet."
      },
      "tokensOfOwner(address,uint256,uint256)": {
        "notice": "Get set length list, starting from index, for tokens owned by wallet."
      },
      "totalSupply()": {
        "notice": "Total amount of tokens in the collection."
      },
      "transfer(address,uint256)": {
        "notice": "Transfers `tokenId` token from `msg.sender` to `to`."
      },
      "transferFrom(address,address,uint256)": {
        "notice": "Transfers `tokenId` token from `from` to `to`."
      },
      "transferFrom(address,address,uint256,bytes)": {
        "notice": "Transfers `tokenId` token from `from` to `to`."
      }
    },
    "notice": "A smart contract for minting and managing Holograph Bridgeable ERC721 NFTs.",
    "version": 1
  },
  "storageLayout": {
    "storage": [
      {
        "astId": 8787,
        "contract": "contracts/enforcers/HolographERC721.sol:HolographERC721",
        "label": "_eventConfig",
        "offset": 0,
        "slot": "0",
        "type": "t_uint256"
      },
      {
        "astId": 8790,
        "contract": "contracts/enforcers/HolographERC721.sol:HolographERC721",
        "label": "_name",
        "offset": 0,
        "slot": "1",
        "type": "t_string_storage"
      },
      {
        "astId": 8793,
        "contract": "contracts/enforcers/HolographERC721.sol:HolographERC721",
        "label": "_symbol",
        "offset": 0,
        "slot": "2",
        "type": "t_string_storage"
      },
      {
        "astId": 8796,
        "contract": "contracts/enforcers/HolographERC721.sol:HolographERC721",
        "label": "_bps",
        "offset": 0,
        "slot": "3",
        "type": "t_uint16"
      },
      {
        "astId": 8800,
        "contract": "contracts/enforcers/HolographERC721.sol:HolographERC721",
        "label": "_allTokens",
        "offset": 0,
        "slot": "4",
        "type": "t_array(t_uint256)dyn_storage"
      },
      {
        "astId": 8805,
        "contract": "contracts/enforcers/HolographERC721.sol:HolographERC721",
        "label": "_ownedTokensIndex",
        "offset": 0,
        "slot": "5",
        "type": "t_mapping(t_uint256,t_uint256)"
      },
      {
        "astId": 8810,
        "contract": "contracts/enforcers/HolographERC721.sol:HolographERC721",
        "label": "_tokenOwner",
        "offset": 0,
        "slot": "6",
        "type": "t_mapping(t_uint256,t_address)"
      },
      {
        "astId": 8815,
        "contract": "contracts/enforcers/HolographERC721.sol:HolographERC721",
        "label": "_tokenApprovals",
        "offset": 0,
        "slot": "7",
        "type": "t_mapping(t_uint256,t_address)"
      },
      {
        "astId": 8820,
        "contract": "contracts/enforcers/HolographERC721.sol:HolographERC721",
        "label": "_ownedTokensCount",
        "offset": 0,
        "slot": "8",
        "type": "t_mapping(t_address,t_uint256)"
      },
      {
        "astId": 8826,
        "contract": "contracts/enforcers/HolographERC721.sol:HolographERC721",
        "label": "_ownedTokens",
        "offset": 0,
        "slot": "9",
        "type": "t_mapping(t_address,t_array(t_uint256)dyn_storage)"
      },
      {
        "astId": 8833,
        "contract": "contracts/enforcers/HolographERC721.sol:HolographERC721",
        "label": "_operatorApprovals",
        "offset": 0,
        "slot": "10",
        "type": "t_mapping(t_address,t_mapping(t_address,t_bool))"
      },
      {
        "astId": 8838,
        "contract": "contracts/enforcers/HolographERC721.sol:HolographERC721",
        "label": "_allTokensIndex",
        "offset": 0,
        "slot": "11",
        "type": "t_mapping(t_uint256,t_uint256)"
      },
      {
        "astId": 8843,
        "contract": "contracts/enforcers/HolographERC721.sol:HolographERC721",
        "label": "_burnedTokens",
        "offset": 0,
        "slot": "12",
        "type": "t_mapping(t_uint256,t_bool)"
      }
    ],
    "types": {
      "t_address": {
        "encoding": "inplace",
        "label": "address",
        "numberOfBytes": "20"
      },
      "t_array(t_uint256)dyn_storage": {
        "base": "t_uint256",
        "encoding": "dynamic_array",
        "label": "uint256[]",
        "numberOfBytes": "32"
      },
      "t_bool": {
        "encoding": "inplace",
        "label": "bool",
        "numberOfBytes": "1"
      },
      "t_mapping(t_address,t_array(t_uint256)dyn_storage)": {
        "encoding": "mapping",
        "key": "t_address",
        "label": "mapping(address => uint256[])",
        "numberOfBytes": "32",
        "value": "t_array(t_uint256)dyn_storage"
      },
      "t_mapping(t_address,t_bool)": {
        "encoding": "mapping",
        "key": "t_address",
        "label": "mapping(address => bool)",
        "numberOfBytes": "32",
        "value": "t_bool"
      },
      "t_mapping(t_address,t_mapping(t_address,t_bool))": {
        "encoding": "mapping",
        "key": "t_address",
        "label": "mapping(address => mapping(address => bool))",
        "numberOfBytes": "32",
        "value": "t_mapping(t_address,t_bool)"
      },
      "t_mapping(t_address,t_uint256)": {
        "encoding": "mapping",
        "key": "t_address",
        "label": "mapping(address => uint256)",
        "numberOfBytes": "32",
        "value": "t_uint256"
      },
      "t_mapping(t_uint256,t_address)": {
        "encoding": "mapping",
        "key": "t_uint256",
        "label": "mapping(uint256 => address)",
        "numberOfBytes": "32",
        "value": "t_address"
      },
      "t_mapping(t_uint256,t_bool)": {
        "encoding": "mapping",
        "key": "t_uint256",
        "label": "mapping(uint256 => bool)",
        "numberOfBytes": "32",
        "value": "t_bool"
      },
      "t_mapping(t_uint256,t_uint256)": {
        "encoding": "mapping",
        "key": "t_uint256",
        "label": "mapping(uint256 => uint256)",
        "numberOfBytes": "32",
        "value": "t_uint256"
      },
      "t_string_storage": {
        "encoding": "bytes",
        "label": "string",
        "numberOfBytes": "32"
      },
      "t_uint16": {
        "encoding": "inplace",
        "label": "uint16",
        "numberOfBytes": "2"
      },
      "t_uint256": {
        "encoding": "inplace",
        "label": "uint256",
        "numberOfBytes": "32"
      }
    }
  }
}