{
  "address": "0x1Ec1485ffa2F953f74CFd17c042FE9AE7Fa6740b",
  "abi": [
    {
      "inputs": [],
      "stateMutability": "nonpayable",
      "type": "constructor"
    },
    {
      "inputs": [],
      "name": "admin",
      "outputs": [
        {
          "internalType": "address",
          "name": "",
          "type": "address"
        }
      ],
      "stateMutability": "view",
      "type": "function"
    },
    {
      "inputs": [
        {
          "internalType": "address",
          "name": "target",
          "type": "address"
        },
        {
          "internalType": "bytes",
          "name": "data",
          "type": "bytes"
        }
      ],
      "name": "adminCall",
      "outputs": [],
      "stateMutability": "payable",
      "type": "function"
    },
    {
      "inputs": [
        {
          "internalType": "uint256",
          "name": "",
          "type": "uint256"
        },
        {
          "internalType": "uint32",
          "name": "fromChain",
          "type": "uint32"
        },
        {
          "internalType": "address",
          "name": "holographableContract",
          "type": "address"
        },
        {
          "internalType": "address",
          "name": "hToken",
          "type": "address"
        },
        {
          "internalType": "address",
          "name": "hTokenRecipient",
          "type": "address"
        },
        {
          "internalType": "uint256",
          "name": "hTokenValue",
          "type": "uint256"
        },
        {
          "internalType": "bool",
          "name": "doNotRevert",
          "type": "bool"
        },
        {
          "internalType": "bytes",
          "name": "data",
          "type": "bytes"
        }
      ],
      "name": "bridgeInRequest",
      "outputs": [],
      "stateMutability": "payable",
      "type": "function"
    },
    {
      "inputs": [
        {
          "internalType": "uint32",
          "name": "toChain",
          "type": "uint32"
        },
        {
          "internalType": "address",
          "name": "holographableContract",
          "type": "address"
        },
        {
          "internalType": "uint256",
          "name": "gasLimit",
          "type": "uint256"
        },
        {
          "internalType": "uint256",
          "name": "gasPrice",
          "type": "uint256"
        },
        {
          "internalType": "bytes",
          "name": "data",
          "type": "bytes"
        }
      ],
      "name": "bridgeOutRequest",
      "outputs": [],
      "stateMutability": "payable",
      "type": "function"
    },
    {
      "inputs": [],
      "name": "getAdmin",
      "outputs": [
        {
          "internalType": "address",
          "name": "adminAddress",
          "type": "address"
        }
      ],
      "stateMutability": "view",
      "type": "function"
    },
    {
      "inputs": [
        {
          "internalType": "uint32",
          "name": "toChain",
          "type": "uint32"
        },
        {
          "internalType": "address",
          "name": "holographableContract",
          "type": "address"
        },
        {
          "internalType": "bytes",
          "name": "data",
          "type": "bytes"
        }
      ],
      "name": "getBridgeOutRequestPayload",
      "outputs": [
        {
          "internalType": "bytes",
          "name": "samplePayload",
          "type": "bytes"
        }
      ],
      "stateMutability": "nonpayable",
      "type": "function"
    },
    {
      "inputs": [],
      "name": "getFactory",
      "outputs": [
        {
          "internalType": "address",
          "name": "factory",
          "type": "address"
        }
      ],
      "stateMutability": "view",
      "type": "function"
    },
    {
      "inputs": [],
      "name": "getHolograph",
      "outputs": [
        {
          "internalType": "address",
          "name": "holograph",
          "type": "address"
        }
      ],
      "stateMutability": "view",
      "type": "function"
    },
    {
      "inputs": [],
      "name": "getJobNonce",
      "outputs": [
        {
          "internalType": "uint256",
          "name": "jobNonce",
          "type": "uint256"
        }
      ],
      "stateMutability": "view",
      "type": "function"
    },
    {
      "inputs": [],
      "name": "getOperator",
      "outputs": [
        {
          "internalType": "address",
          "name": "operator",
          "type": "address"
        }
      ],
      "stateMutability": "view",
      "type": "function"
    },
    {
      "inputs": [],
      "name": "getRegistry",
      "outputs": [
        {
          "internalType": "address",
          "name": "registry",
          "type": "address"
        }
      ],
      "stateMutability": "view",
      "type": "function"
    },
    {
      "inputs": [
        {
          "internalType": "bytes",
          "name": "data",
          "type": "bytes"
        }
      ],
      "name": "init",
      "outputs": [
        {
          "internalType": "bytes4",
          "name": "",
          "type": "bytes4"
        }
      ],
      "stateMutability": "nonpayable",
      "type": "function"
    },
    {
      "inputs": [
        {
          "internalType": "address",
          "name": "sender",
          "type": "address"
        },
        {
          "internalType": "uint32",
          "name": "toChain",
          "type": "uint32"
        },
        {
          "internalType": "address",
          "name": "holographableContract",
          "type": "address"
        },
        {
          "internalType": "bytes",
          "name": "data",
          "type": "bytes"
        }
      ],
      "name": "revertedBridgeOutRequest",
      "outputs": [
        {
          "internalType": "string",
          "name": "revertReason",
          "type": "string"
        }
      ],
      "stateMutability": "nonpayable",
      "type": "function"
    },
    {
      "inputs": [
        {
          "internalType": "address",
          "name": "adminAddress",
          "type": "address"
        }
      ],
      "name": "setAdmin",
      "outputs": [],
      "stateMutability": "nonpayable",
      "type": "function"
    },
    {
      "inputs": [
        {
          "internalType": "address",
          "name": "factory",
          "type": "address"
        }
      ],
      "name": "setFactory",
      "outputs": [],
      "stateMutability": "nonpayable",
      "type": "function"
    },
    {
      "inputs": [
        {
          "internalType": "address",
          "name": "holograph",
          "type": "address"
        }
      ],
      "name": "setHolograph",
      "outputs": [],
      "stateMutability": "nonpayable",
      "type": "function"
    },
    {
      "inputs": [
        {
          "internalType": "address",
          "name": "operator",
          "type": "address"
        }
      ],
      "name": "setOperator",
      "outputs": [],
      "stateMutability": "nonpayable",
      "type": "function"
    },
    {
      "inputs": [
        {
          "internalType": "address",
          "name": "registry",
          "type": "address"
        }
      ],
      "name": "setRegistry",
      "outputs": [],
      "stateMutability": "nonpayable",
      "type": "function"
    }
  ],
  "transactionHash": "0xce62f5d87cc46c276bc0a40ecda383d8060b5b3c6d901dda2921cdd06b42358e",
  "args": [],
  "numDeployments": 2,
  "solcInputHash": "b5e67cf3d377a96ccbe804fbc6a54ade",
  "bytecode": "0x608060405234801561001057600080fd5b506127d8806100206000396000f3fe6080604052600436106101295760003560e01c8063704b6c02116100a5578063bf64a82d11610074578063e558566611610059578063e5585666146103c7578063e7f43c68146103da578063f851a4401461040e57600080fd5b8063bf64a82d14610394578063ceacdd87146103a757600080fd5b8063704b6c021461030057806388cc58e414610320578063a91ee0dc14610354578063b3ab15fb1461037457600080fd5b8063565ff49e116100fc5780635bb47808116100e15780635bb478081461026f5780636200d9fc1461028f5780636e9960c3146102cc57600080fd5b8063565ff49e1461020e5780635ab1bd531461023b57600080fd5b806316f1be701461012e57806325d5cac8146101435780634827ae0c146101635780634ddf47d4146101bd575b600080fd5b61014161013c366004611e89565b610423565b005b34801561014f57600080fd5b5061014161015e366004611f40565b61093d565b34801561016f57600080fd5b507fb4107f746e9496e8452accc7de63d1c5e14c19f510932daa04077cd49e8bd77a545b60405173ffffffffffffffffffffffffffffffffffffffff90911681526020015b60405180910390f35b3480156101c957600080fd5b506101dd6101d8366004612024565b610a17565b6040517fffffffff0000000000000000000000000000000000000000000000000000000090911681526020016101b4565b34801561021a57600080fd5b5061022e6102293660046120aa565b610bcd565b6040516101b491906121a0565b34801561024757600080fd5b507fce8e75d5c5227ce29a4ee170160bb296e5dea6934b80a9bd723f7ef1e7c850e754610193565b34801561027b57600080fd5b5061014161028a366004611f40565b610db9565b34801561029b57600080fd5b507f1cda64803f3b43503042e00863791e8d996666552d5855a78d53ee1dd4b3286d546040519081526020016101b4565b3480156102d857600080fd5b507f3f106594dc74eeef980dae234cde8324dc2497b13d27a0c59e55bd2ca10a07c954610193565b34801561030c57600080fd5b5061014161031b366004611f40565b610e93565b34801561032c57600080fd5b507fa49f20855ba576e09d13c8041c8039fa655356ea27f6c40f1ec46a4301cd5b2354610193565b34801561036057600080fd5b5061014161036f366004611f40565b610f6d565b34801561038057600080fd5b5061014161038f366004611f40565b611047565b6101416103a23660046121b3565b611121565b3480156103b357600080fd5b5061022e6103c2366004612208565b6111fc565b6101416103d536600461226d565b611781565b3480156103e657600080fd5b507f7caba557ad34138fa3b7e43fb574e0e6cc10481c3073e0dffbc560db81b5c60f54610193565b34801561041a57600080fd5b50610193611dcc565b7f7caba557ad34138fa3b7e43fb574e0e6cc10481c3073e0dffbc560db81b5c60f5473ffffffffffffffffffffffffffffffffffffffff163373ffffffffffffffffffffffffffffffffffffffff16146104de576040517f08c379a000000000000000000000000000000000000000000000000000000000815260206004820152601d60248201527f484f4c4f47524150483a206f70657261746f72206f6e6c792063616c6c00000060448201526064015b60405180910390fd5b7fce8e75d5c5227ce29a4ee170160bb296e5dea6934b80a9bd723f7ef1e7c850e7546040517f44b25fff00000000000000000000000000000000000000000000000000000000815273ffffffffffffffffffffffffffffffffffffffff898116600483015291909116906344b25fff90602401602060405180830381865afa15801561056e573d6000803e3d6000fd5b505050506040513d601f19601f8201168201806040525081019061059291906122e9565b806105ef57508673ffffffffffffffffffffffffffffffffffffffff166105d77fa49f20855ba576e09d13c8041c8039fa655356ea27f6c40f1ec46a4301cd5b235490565b73ffffffffffffffffffffffffffffffffffffffff16145b610655576040517f08c379a000000000000000000000000000000000000000000000000000000000815260206004820152601a60248201527f484f4c4f47524150483a206e6f7420686f6c6f6772617068656400000000000060448201526064016104d5565b6040517f08a1eb2000000000000000000000000000000000000000000000000000000000815260009073ffffffffffffffffffffffffffffffffffffffff8916906308a1eb20906106ae908c908790879060040161234f565b6020604051808303816000875af11580156106cd573d6000803e3d6000fd5b505050506040513d601f19601f820116820180604052508101906106f191906123a4565b90507fffffffff0000000000000000000000000000000000000000000000000000000081167f08a1eb20000000000000000000000000000000000000000000000000000000001461079e576040517f08c379a000000000000000000000000000000000000000000000000000000000815260206004820152601b60248201527f484f4c4f47524150483a2062726964676520696e206661696c6564000000000060448201526064016104d5565b84156108ca576040517ffad66f920000000000000000000000000000000000000000000000000000000080825273ffffffffffffffffffffffffffffffffffffffff88811660048401526024830188905290919089169063fad66f92906044016020604051808303816000875af115801561081d573d6000803e3d6000fd5b505050506040513d601f19601f8201168201806040525081019061084191906123a4565b7fffffffff0000000000000000000000000000000000000000000000000000000016146108ca576040517f08c379a000000000000000000000000000000000000000000000000000000000815260206004820152601d60248201527f484f4c4f47524150483a2068546f6b656e206d696e74206661696c656400000060448201526064016104d5565b83610931576040517f08c379a000000000000000000000000000000000000000000000000000000000815260206004820152601360248201527f484f4c4f47524150483a2072657665727465640000000000000000000000000060448201526064016104d5565b50505050505050505050565b7f3f106594dc74eeef980dae234cde8324dc2497b13d27a0c59e55bd2ca10a07c95473ffffffffffffffffffffffffffffffffffffffff163373ffffffffffffffffffffffffffffffffffffffff16146109f3576040517f08c379a000000000000000000000000000000000000000000000000000000000815260206004820152601e60248201527f484f4c4f47524150483a2061646d696e206f6e6c792066756e6374696f6e000060448201526064016104d5565b7fb4107f746e9496e8452accc7de63d1c5e14c19f510932daa04077cd49e8bd77a55565b6000610a417f4e5f991bca30eca2d4643aaefa807e88f96a4a97398933d572a3c0d973004a015490565b15610aa8576040517f08c379a000000000000000000000000000000000000000000000000000000000815260206004820152601e60248201527f484f4c4f47524150483a20616c726561647920696e697469616c697a6564000060448201526064016104d5565b60008060008085806020019051810190610ac291906123bf565b9350935093509350327f3f106594dc74eeef980dae234cde8324dc2497b13d27a0c59e55bd2ca10a07c955837fa49f20855ba576e09d13c8041c8039fa655356ea27f6c40f1ec46a4301cd5b2355827fb4107f746e9496e8452accc7de63d1c5e14c19f510932daa04077cd49e8bd77a55817f7caba557ad34138fa3b7e43fb574e0e6cc10481c3073e0dffbc560db81b5c60f55807fce8e75d5c5227ce29a4ee170160bb296e5dea6934b80a9bd723f7ef1e7c850e755610ba260017f4e5f991bca30eca2d4643aaefa807e88f96a4a97398933d572a3c0d973004a0155565b507f4ddf47d40000000000000000000000000000000000000000000000000000000095945050505050565b6040517fb7e0366100000000000000000000000000000000000000000000000000000000815260609073ffffffffffffffffffffffffffffffffffffffff85169063b7e0366190610c289088908a908890889060040161241e565b6000604051808303816000875af1925050508015610c8657506040513d6000823e601f3d9081017fffffffffffffffffffffffffffffffffffffffffffffffffffffffffffffffe0168201604052610c8391908101906124a8565b60015b610cf457610c9261250a565b806308c379a003610cb85750610ca6612526565b80610cb15750610cba565b9050610db0565b505b5060408051808201909152601881527f484f4c4f47524150483a20756e6b6e6f776e206572726f7200000000000000006020820152610db0565b7fffffffff0000000000000000000000000000000000000000000000000000000082167fb7e036610000000000000000000000000000000000000000000000000000000014610d7c576040518060400160405280601c81526020017f484f4c4f47524150483a20627269646765206f7574206661696c65640000000081525092505050610db0565b806040517f08c379a00000000000000000000000000000000000000000000000000000000081526004016104d591906121a0565b95945050505050565b7f3f106594dc74eeef980dae234cde8324dc2497b13d27a0c59e55bd2ca10a07c95473ffffffffffffffffffffffffffffffffffffffff163373ffffffffffffffffffffffffffffffffffffffff1614610e6f576040517f08c379a000000000000000000000000000000000000000000000000000000000815260206004820152601e60248201527f484f4c4f47524150483a2061646d696e206f6e6c792066756e6374696f6e000060448201526064016104d5565b7fa49f20855ba576e09d13c8041c8039fa655356ea27f6c40f1ec46a4301cd5b2355565b7f3f106594dc74eeef980dae234cde8324dc2497b13d27a0c59e55bd2ca10a07c95473ffffffffffffffffffffffffffffffffffffffff163373ffffffffffffffffffffffffffffffffffffffff1614610f49576040517f08c379a000000000000000000000000000000000000000000000000000000000815260206004820152601e60248201527f484f4c4f47524150483a2061646d696e206f6e6c792066756e6374696f6e000060448201526064016104d5565b7f3f106594dc74eeef980dae234cde8324dc2497b13d27a0c59e55bd2ca10a07c955565b7f3f106594dc74eeef980dae234cde8324dc2497b13d27a0c59e55bd2ca10a07c95473ffffffffffffffffffffffffffffffffffffffff163373ffffffffffffffffffffffffffffffffffffffff1614611023576040517f08c379a000000000000000000000000000000000000000000000000000000000815260206004820152601e60248201527f484f4c4f47524150483a2061646d696e206f6e6c792066756e6374696f6e000060448201526064016104d5565b7fce8e75d5c5227ce29a4ee170160bb296e5dea6934b80a9bd723f7ef1e7c850e755565b7f3f106594dc74eeef980dae234cde8324dc2497b13d27a0c59e55bd2ca10a07c95473ffffffffffffffffffffffffffffffffffffffff163373ffffffffffffffffffffffffffffffffffffffff16146110fd576040517f08c379a000000000000000000000000000000000000000000000000000000000815260206004820152601e60248201527f484f4c4f47524150483a2061646d696e206f6e6c792066756e6374696f6e000060448201526064016104d5565b7f7caba557ad34138fa3b7e43fb574e0e6cc10481c3073e0dffbc560db81b5c60f55565b7f3f106594dc74eeef980dae234cde8324dc2497b13d27a0c59e55bd2ca10a07c95473ffffffffffffffffffffffffffffffffffffffff163373ffffffffffffffffffffffffffffffffffffffff16146111d7576040517f08c379a000000000000000000000000000000000000000000000000000000000815260206004820152601e60248201527f484f4c4f47524150483a2061646d696e206f6e6c792066756e6374696f6e000060448201526064016104d5565b808260003760008082600034875af13d6000803e8080156111f7573d6000f35b3d6000fd5b60606112267fce8e75d5c5227ce29a4ee170160bb296e5dea6934b80a9bd723f7ef1e7c850e75490565b6040517f44b25fff00000000000000000000000000000000000000000000000000000000815273ffffffffffffffffffffffffffffffffffffffff868116600483015291909116906344b25fff90602401602060405180830381865afa158015611294573d6000803e3d6000fd5b505050506040513d601f19601f820116820180604052508101906112b891906122e9565b8061131557508373ffffffffffffffffffffffffffffffffffffffff166112fd7fa49f20855ba576e09d13c8041c8039fa655356ea27f6c40f1ec46a4301cd5b235490565b73ffffffffffffffffffffffffffffffffffffffff16145b61137b576040517f08c379a000000000000000000000000000000000000000000000000000000000815260206004820152601a60248201527f484f4c4f47524150483a206e6f7420686f6c6f6772617068656400000000000060448201526064016104d5565b6040517f565ff49e000000000000000000000000000000000000000000000000000000008152606090309063565ff49e906113c29033908a908a908a908a906004016125ce565b6000604051808303816000875af192505050801561142057506040513d6000823e601f3d9081017fffffffffffffffffffffffffffffffffffffffffffffffffffffffffffffffe016820160405261141d919081019061261f565b60015b610d7c5761142c61250a565b806308c379a0036114525750611440612526565b8061144b5750611454565b905061145e565b505b3d6000803e3d6000fd5b7f1cda64803f3b43503042e00863791e8d996666552d5855a78d53ee1dd4b3286d5460007f16f1be70000000000000000000000000000000000000000000000000000000006114ae836001612670565b7fb4107f746e9496e8452accc7de63d1c5e14c19f510932daa04077cd49e8bd77a5473ffffffffffffffffffffffffffffffffffffffff1663381b5f466040518163ffffffff1660e01b8152600401602060405180830381865afa15801561151a573d6000803e3d6000fd5b505050506040513d601f19601f8201168201806040525081019061153e91906126af565b896115677fce8e75d5c5227ce29a4ee170160bb296e5dea6934b80a9bd723f7ef1e7c850e75490565b73ffffffffffffffffffffffffffffffffffffffff1663949d53a76115aa7fb4107f746e9496e8452accc7de63d1c5e14c19f510932daa04077cd49e8bd77a5490565b73ffffffffffffffffffffffffffffffffffffffff1663381b5f466040518163ffffffff1660e01b8152600401602060405180830381865afa1580156115f4573d6000803e3d6000fd5b505050506040513d601f19601f8201168201806040525081019061161891906126af565b6040517fffffffff0000000000000000000000000000000000000000000000000000000060e084901b16815263ffffffff919091166004820152602401602060405180830381865afa158015611672573d6000803e3d6000fd5b505050506040513d601f19601f8201168201806040525081019061169691906126cc565b60008060018a6040516024016116b39897969594939291906126e9565b604080517fffffffffffffffffffffffffffffffffffffffffffffffffffffffffffffffe0818403018152918152602080830180517bffffffffffffffffffffffffffffffffffffffffffffffffffffffff167fffffffff0000000000000000000000000000000000000000000000000000000090951694909417909352519092506117659183917fffffffffffffffffffffffffffffffffffffffffffffffffffffffffffffffff9182910161275d565b6040516020818303038152906040529350505050949350505050565b7fce8e75d5c5227ce29a4ee170160bb296e5dea6934b80a9bd723f7ef1e7c850e7546040517f44b25fff00000000000000000000000000000000000000000000000000000000815273ffffffffffffffffffffffffffffffffffffffff878116600483015291909116906344b25fff90602401602060405180830381865afa158015611811573d6000803e3d6000fd5b505050506040513d601f19601f8201168201806040525081019061183591906122e9565b8061189257508473ffffffffffffffffffffffffffffffffffffffff1661187a7fa49f20855ba576e09d13c8041c8039fa655356ea27f6c40f1ec46a4301cd5b235490565b73ffffffffffffffffffffffffffffffffffffffff16145b6118f8576040517f08c379a000000000000000000000000000000000000000000000000000000000815260206004820152601a60248201527f484f4c4f47524150483a206e6f7420686f6c6f6772617068656400000000000060448201526064016104d5565b6000808673ffffffffffffffffffffffffffffffffffffffff1663b7e03661893387876040518563ffffffff1660e01b815260040161193a949392919061241e565b6000604051808303816000875af1158015611959573d6000803e3d6000fd5b505050506040513d6000823e601f3d9081017fffffffffffffffffffffffffffffffffffffffffffffffffffffffffffffffe016820160405261199f91908101906124a8565b90925090507fffffffff0000000000000000000000000000000000000000000000000000000082167fb7e036610000000000000000000000000000000000000000000000000000000014611a4f576040517f08c379a000000000000000000000000000000000000000000000000000000000815260206004820152601c60248201527f484f4c4f47524150483a20627269646765206f7574206661696c65640000000060448201526064016104d5565b60007f16f1be7000000000000000000000000000000000000000000000000000000000611aa27f1cda64803f3b43503042e00863791e8d996666552d5855a78d53ee1dd4b3286d80546001019081905590565b7fb4107f746e9496e8452accc7de63d1c5e14c19f510932daa04077cd49e8bd77a5473ffffffffffffffffffffffffffffffffffffffff1663381b5f466040518163ffffffff1660e01b8152600401602060405180830381865afa158015611b0e573d6000803e3d6000fd5b505050506040513d601f19601f82011682018060405250810190611b3291906126af565b8a611b5b7fce8e75d5c5227ce29a4ee170160bb296e5dea6934b80a9bd723f7ef1e7c850e75490565b73ffffffffffffffffffffffffffffffffffffffff1663949d53a7611b9e7fb4107f746e9496e8452accc7de63d1c5e14c19f510932daa04077cd49e8bd77a5490565b73ffffffffffffffffffffffffffffffffffffffff1663381b5f466040518163ffffffff1660e01b8152600401602060405180830381865afa158015611be8573d6000803e3d6000fd5b505050506040513d601f19601f82011682018060405250810190611c0c91906126af565b6040517fffffffff0000000000000000000000000000000000000000000000000000000060e084901b16815263ffffffff919091166004820152602401602060405180830381865afa158015611c66573d6000803e3d6000fd5b505050506040513d601f19601f82011682018060405250810190611c8a91906126cc565b600080600189604051602401611ca79897969594939291906126e9565b604080517fffffffffffffffffffffffffffffffffffffffffffffffffffffffffffffffe08184030181529190526020810180517bffffffffffffffffffffffffffffffffffffffffffffffffffffffff167fffffffff00000000000000000000000000000000000000000000000000000000909316929092179091529050611d4e7f7caba557ad34138fa3b7e43fb574e0e6cc10481c3073e0dffbc560db81b5c60f5490565b73ffffffffffffffffffffffffffffffffffffffff1663da9b26e63489898d33876040518763ffffffff1660e01b8152600401611d8f959493929190612784565b6000604051808303818588803b158015611da857600080fd5b505af1158015611dbc573d6000803e3d6000fd5b5050505050505050505050505050565b6000611df67f3f106594dc74eeef980dae234cde8324dc2497b13d27a0c59e55bd2ca10a07c95490565b905090565b63ffffffff81168114611e0d57600080fd5b50565b73ffffffffffffffffffffffffffffffffffffffff81168114611e0d57600080fd5b8015158114611e0d57600080fd5b60008083601f840112611e5257600080fd5b50813567ffffffffffffffff811115611e6a57600080fd5b602083019150836020828501011115611e8257600080fd5b9250929050565b60008060008060008060008060006101008a8c031215611ea857600080fd5b8935985060208a0135611eba81611dfb565b975060408a0135611eca81611e10565b965060608a0135611eda81611e10565b955060808a0135611eea81611e10565b945060a08a0135935060c08a0135611f0181611e32565b925060e08a013567ffffffffffffffff811115611f1d57600080fd5b611f298c828d01611e40565b915080935050809150509295985092959850929598565b600060208284031215611f5257600080fd5b8135611f5d81611e10565b9392505050565b7f4e487b7100000000000000000000000000000000000000000000000000000000600052604160045260246000fd5b7fffffffffffffffffffffffffffffffffffffffffffffffffffffffffffffffe0601f830116810181811067ffffffffffffffff82111715611fd757611fd7611f64565b6040525050565b600067ffffffffffffffff821115611ff857611ff8611f64565b50601f017fffffffffffffffffffffffffffffffffffffffffffffffffffffffffffffffe01660200190565b60006020828403121561203657600080fd5b813567ffffffffffffffff81111561204d57600080fd5b8201601f8101841361205e57600080fd5b803561206981611fde565b6040516120768282611f93565b82815286602084860101111561208b57600080fd5b8260208501602083013760009281016020019290925250949350505050565b6000806000806000608086880312156120c257600080fd5b85356120cd81611e10565b945060208601356120dd81611dfb565b935060408601356120ed81611e10565b9250606086013567ffffffffffffffff81111561210957600080fd5b61211588828901611e40565b969995985093965092949392505050565b60005b83811015612141578181015183820152602001612129565b83811115612150576000848401525b50505050565b6000815180845261216e816020860160208601612126565b601f017fffffffffffffffffffffffffffffffffffffffffffffffffffffffffffffffe0169290920160200192915050565b602081526000611f5d6020830184612156565b6000806000604084860312156121c857600080fd5b83356121d381611e10565b9250602084013567ffffffffffffffff8111156121ef57600080fd5b6121fb86828701611e40565b9497909650939450505050565b6000806000806060858703121561221e57600080fd5b843561222981611dfb565b9350602085013561223981611e10565b9250604085013567ffffffffffffffff81111561225557600080fd5b61226187828801611e40565b95989497509550505050565b60008060008060008060a0878903121561228657600080fd5b863561229181611dfb565b955060208701356122a181611e10565b94506040870135935060608701359250608087013567ffffffffffffffff8111156122cb57600080fd5b6122d789828a01611e40565b979a9699509497509295939492505050565b6000602082840312156122fb57600080fd5b8151611f5d81611e32565b8183528181602085013750600060208284010152600060207fffffffffffffffffffffffffffffffffffffffffffffffffffffffffffffffe0601f840116840101905092915050565b63ffffffff84168152604060208201526000610db0604083018486612306565b80517fffffffff000000000000000000000000000000000000000000000000000000008116811461239f57600080fd5b919050565b6000602082840312156123b657600080fd5b611f5d8261236f565b600080600080608085870312156123d557600080fd5b84516123e081611e10565b60208601519094506123f181611e10565b604086015190935061240281611e10565b606086015190925061241381611e10565b939692955090935050565b63ffffffff8516815273ffffffffffffffffffffffffffffffffffffffff8416602082015260606040820152600061245a606083018486612306565b9695505050505050565b600061246f83611fde565b60405161247c8282611f93565b80925084815285858501111561249157600080fd5b61249f856020830186612126565b50509392505050565b600080604083850312156124bb57600080fd5b6124c48361236f565b9150602083015167ffffffffffffffff8111156124e057600080fd5b8301601f810185136124f157600080fd5b61250085825160208401612464565b9150509250929050565b600060033d11156125235760046000803e5060005160e01c5b90565b600060443d10156125345790565b6040517ffffffffffffffffffffffffffffffffffffffffffffffffffffffffffffffffc803d016004833e81513d67ffffffffffffffff816024840111818411171561258257505050505090565b828501915081518181111561259a5750505050505090565b843d87010160208285010111156125b45750505050505090565b6125c360208286010187611f93565b509095945050505050565b600073ffffffffffffffffffffffffffffffffffffffff808816835263ffffffff8716602084015280861660408401525060806060830152612614608083018486612306565b979650505050505050565b60006020828403121561263157600080fd5b815167ffffffffffffffff81111561264857600080fd5b8201601f8101841361265957600080fd5b61266884825160208401612464565b949350505050565b600082198211156126aa577f4e487b7100000000000000000000000000000000000000000000000000000000600052601160045260246000fd5b500190565b6000602082840312156126c157600080fd5b8151611f5d81611dfb565b6000602082840312156126de57600080fd5b8151611f5d81611e10565b60006101008a835263ffffffff8a16602084015273ffffffffffffffffffffffffffffffffffffffff808a166040850152808916606085015280881660808501525060ff861660a084015284151560c08401528060e084015261274e81840185612156565b9b9a5050505050505050505050565b6000845161276f818460208901612126565b91909101928352506020820152604001919050565b85815284602082015263ffffffff8416604082015273ffffffffffffffffffffffffffffffffffffffff8316606082015260a06080820152600061261460a083018461215656fea164736f6c634300080d000a",
  "devdoc": {
    "author": "https://github.com/holographxyz",
    "details": "The contract abstracts all the complexities of making bridge requests and uses a universal interface to bridge any type of holographable assets.",
    "kind": "dev",
    "methods": {
      "constructor": {
        "details": "Constructor is left empty and init is used instead."
      },
      "init(bytes)": {
        "details": "This function is called by the deployer/factory when creating a contract."
      }
    },
    "title": "Holograph Bridge",
    "version": 1
  },
  "userdoc": {
    "kind": "user",
    "methods": {
      "init(bytes)": {
        "notice": "Used internally to initialize the contract instead of through a constructor"
      }
    },
    "notice": "Beam your holographable assets through this contract.",
    "version": 1
  },
  "storageLayout": {
    "storage": [],
    "types": null
  }
}