{
  "address": "0xb0b7cAc7931193b5f887BF83454e5dbD9Ed1c1A7",
  "abi": [
    {
      "inputs": [],
      "stateMutability": "nonpayable",
      "type": "constructor"
    },
    {
      "anonymous": false,
      "inputs": [
        {
          "indexed": false,
          "internalType": "bytes32",
          "name": "jobHash",
          "type": "bytes32"
        },
        {
          "indexed": false,
          "internalType": "bytes",
          "name": "payload",
          "type": "bytes"
        }
      ],
      "name": "AvailableOperatorJob",
      "type": "event"
    },
    {
      "anonymous": false,
      "inputs": [
        {
          "indexed": false,
          "internalType": "bytes32",
          "name": "messageHash",
          "type": "bytes32"
        }
      ],
      "name": "CrossChainMessageSent",
      "type": "event"
    },
    {
      "anonymous": false,
      "inputs": [
        {
          "indexed": false,
          "internalType": "bytes32",
          "name": "jobHash",
          "type": "bytes32"
        }
      ],
      "name": "FailedOperatorJob",
      "type": "event"
    },
    {
      "stateMutability": "payable",
      "type": "fallback"
    },
    {
      "inputs": [],
      "name": "admin",
      "outputs": [
        {
          "internalType": "address",
          "name": "",
          "type": "address"
        }
      ],
      "stateMutability": "view",
      "type": "function"
    },
    {
      "inputs": [
        {
          "internalType": "address",
          "name": "target",
          "type": "address"
        },
        {
          "internalType": "bytes",
          "name": "data",
          "type": "bytes"
        }
      ],
      "name": "adminCall",
      "outputs": [],
      "stateMutability": "payable",
      "type": "function"
    },
    {
      "inputs": [
        {
          "internalType": "address",
          "name": "operator",
          "type": "address"
        },
        {
          "internalType": "uint256",
          "name": "amount",
          "type": "uint256"
        },
        {
          "internalType": "uint256",
          "name": "pod",
          "type": "uint256"
        }
      ],
      "name": "bondUtilityToken",
      "outputs": [],
      "stateMutability": "nonpayable",
      "type": "function"
    },
    {
      "inputs": [
        {
          "internalType": "bytes",
          "name": "bridgeInRequestPayload",
          "type": "bytes"
        }
      ],
      "name": "crossChainMessage",
      "outputs": [],
      "stateMutability": "payable",
      "type": "function"
    },
    {
      "inputs": [
        {
          "internalType": "bytes",
          "name": "bridgeInRequestPayload",
          "type": "bytes"
        }
      ],
      "name": "executeJob",
      "outputs": [],
      "stateMutability": "payable",
      "type": "function"
    },
    {
      "inputs": [],
      "name": "getAdmin",
      "outputs": [
        {
          "internalType": "address",
          "name": "adminAddress",
          "type": "address"
        }
      ],
      "stateMutability": "view",
      "type": "function"
    },
    {
      "inputs": [
        {
          "internalType": "address",
          "name": "operator",
          "type": "address"
        }
      ],
      "name": "getBondedAmount",
      "outputs": [
        {
          "internalType": "uint256",
          "name": "amount",
          "type": "uint256"
        }
      ],
      "stateMutability": "view",
      "type": "function"
    },
    {
      "inputs": [
        {
          "internalType": "address",
          "name": "operator",
          "type": "address"
        }
      ],
      "name": "getBondedPod",
      "outputs": [
        {
          "internalType": "uint256",
          "name": "pod",
          "type": "uint256"
        }
      ],
      "stateMutability": "view",
      "type": "function"
    },
    {
      "inputs": [],
      "name": "getBridge",
      "outputs": [
        {
          "internalType": "address",
          "name": "bridge",
          "type": "address"
        }
      ],
      "stateMutability": "view",
      "type": "function"
    },
    {
      "inputs": [],
      "name": "getHolograph",
      "outputs": [
        {
          "internalType": "address",
          "name": "holograph",
          "type": "address"
        }
      ],
      "stateMutability": "view",
      "type": "function"
    },
    {
      "inputs": [],
      "name": "getInterfaces",
      "outputs": [
        {
          "internalType": "address",
          "name": "interfaces",
          "type": "address"
        }
      ],
      "stateMutability": "view",
      "type": "function"
    },
    {
      "inputs": [
        {
          "internalType": "bytes32",
          "name": "jobHash",
          "type": "bytes32"
        }
      ],
      "name": "getJobDetails",
      "outputs": [
        {
          "components": [
            {
              "internalType": "uint8",
              "name": "pod",
              "type": "uint8"
            },
            {
              "internalType": "uint16",
              "name": "blockTimes",
              "type": "uint16"
            },
            {
              "internalType": "address",
              "name": "operator",
              "type": "address"
            },
            {
              "internalType": "uint40",
              "name": "startBlock",
              "type": "uint40"
            },
            {
              "internalType": "uint64",
              "name": "startTimestamp",
              "type": "uint64"
            },
            {
              "internalType": "uint16[5]",
              "name": "fallbackOperators",
              "type": "uint16[5]"
            }
          ],
          "internalType": "struct OperatorJob",
          "name": "",
          "type": "tuple"
        }
      ],
      "stateMutability": "view",
      "type": "function"
    },
    {
      "inputs": [
        {
          "internalType": "uint32",
          "name": "",
          "type": "uint32"
        },
        {
          "internalType": "uint256",
          "name": "",
          "type": "uint256"
        },
        {
          "internalType": "uint256",
          "name": "",
          "type": "uint256"
        },
        {
          "internalType": "bytes",
          "name": "",
          "type": "bytes"
        }
      ],
      "name": "getMessageFee",
      "outputs": [
        {
          "internalType": "uint256",
          "name": "",
          "type": "uint256"
        },
        {
          "internalType": "uint256",
          "name": "",
          "type": "uint256"
        }
      ],
      "stateMutability": "view",
      "type": "function"
    },
    {
      "inputs": [],
      "name": "getMessagingModule",
      "outputs": [
        {
          "internalType": "address",
          "name": "messagingModule",
          "type": "address"
        }
      ],
      "stateMutability": "view",
      "type": "function"
    },
    {
      "inputs": [
        {
          "internalType": "uint256",
          "name": "pod",
          "type": "uint256"
        }
      ],
      "name": "getPodBondAmounts",
      "outputs": [
        {
          "internalType": "uint256",
          "name": "base",
          "type": "uint256"
        },
        {
          "internalType": "uint256",
          "name": "current",
          "type": "uint256"
        }
      ],
      "stateMutability": "view",
      "type": "function"
    },
    {
      "inputs": [
        {
          "internalType": "uint256",
          "name": "pod",
          "type": "uint256"
        },
        {
          "internalType": "uint256",
          "name": "index",
          "type": "uint256"
        },
        {
          "internalType": "uint256",
          "name": "length",
          "type": "uint256"
        }
      ],
      "name": "getPodOperators",
      "outputs": [
        {
          "internalType": "address[]",
          "name": "operators",
          "type": "address[]"
        }
      ],
      "stateMutability": "view",
      "type": "function"
    },
    {
      "inputs": [
        {
          "internalType": "uint256",
          "name": "pod",
          "type": "uint256"
        }
      ],
      "name": "getPodOperators",
      "outputs": [
        {
          "internalType": "address[]",
          "name": "operators",
          "type": "address[]"
        }
      ],
      "stateMutability": "view",
      "type": "function"
    },
    {
      "inputs": [
        {
          "internalType": "uint256",
          "name": "pod",
          "type": "uint256"
        }
      ],
      "name": "getPodOperatorsLength",
      "outputs": [
        {
          "internalType": "uint256",
          "name": "",
          "type": "uint256"
        }
      ],
      "stateMutability": "view",
      "type": "function"
    },
    {
      "inputs": [],
      "name": "getRegistry",
      "outputs": [
        {
          "internalType": "address",
          "name": "registry",
          "type": "address"
        }
      ],
      "stateMutability": "view",
      "type": "function"
    },
    {
      "inputs": [],
      "name": "getTotalPods",
      "outputs": [
        {
          "internalType": "uint256",
          "name": "totalPods",
          "type": "uint256"
        }
      ],
      "stateMutability": "view",
      "type": "function"
    },
    {
      "inputs": [],
      "name": "getUtilityToken",
      "outputs": [
        {
          "internalType": "address",
          "name": "utilityToken",
          "type": "address"
        }
      ],
      "stateMutability": "view",
      "type": "function"
    },
    {
      "inputs": [
        {
          "internalType": "bytes",
          "name": "initPayload",
          "type": "bytes"
        }
      ],
      "name": "init",
      "outputs": [
        {
          "internalType": "bytes4",
          "name": "",
          "type": "bytes4"
        }
      ],
      "stateMutability": "nonpayable",
      "type": "function"
    },
    {
      "inputs": [
        {
          "internalType": "bytes",
          "name": "bridgeInRequestPayload",
          "type": "bytes"
        }
      ],
      "name": "jobEstimator",
      "outputs": [
        {
          "internalType": "uint256",
          "name": "",
          "type": "uint256"
        }
      ],
      "stateMutability": "payable",
      "type": "function"
    },
    {
      "inputs": [
        {
          "internalType": "address",
          "name": "msgSender",
          "type": "address"
        },
        {
          "internalType": "bytes",
          "name": "payload",
          "type": "bytes"
        }
      ],
      "name": "nonRevertingBridgeCall",
      "outputs": [],
      "stateMutability": "payable",
      "type": "function"
    },
    {
      "inputs": [
        {
          "internalType": "uint256",
          "name": "blockTime",
          "type": "uint256"
        },
        {
          "internalType": "uint256",
          "name": "baseBondAmount",
          "type": "uint256"
        },
        {
          "internalType": "uint256",
          "name": "podMultiplier",
          "type": "uint256"
        },
        {
          "internalType": "uint256",
          "name": "operatorThreshold",
          "type": "uint256"
        },
        {
          "internalType": "uint256",
          "name": "operatorThresholdStep",
          "type": "uint256"
        },
        {
          "internalType": "uint256",
          "name": "operatorThresholdDivisor",
          "type": "uint256"
        }
      ],
      "name": "resetOperator",
      "outputs": [],
      "stateMutability": "nonpayable",
      "type": "function"
    },
    {
      "inputs": [
        {
          "internalType": "uint256",
          "name": "gasLimit",
          "type": "uint256"
        },
        {
          "internalType": "uint256",
          "name": "gasPrice",
          "type": "uint256"
        },
        {
          "internalType": "uint32",
          "name": "toChain",
          "type": "uint32"
        },
        {
          "internalType": "address",
          "name": "msgSender",
          "type": "address"
        },
        {
          "internalType": "uint256",
          "name": "nonce",
          "type": "uint256"
        },
        {
          "internalType": "address",
          "name": "holographableContract",
          "type": "address"
        },
        {
          "internalType": "bytes",
          "name": "bridgeOutPayload",
          "type": "bytes"
        }
      ],
      "name": "send",
      "outputs": [],
      "stateMutability": "payable",
      "type": "function"
    },
    {
      "inputs": [
        {
          "internalType": "address",
          "name": "adminAddress",
          "type": "address"
        }
      ],
      "name": "setAdmin",
      "outputs": [],
      "stateMutability": "nonpayable",
      "type": "function"
    },
    {
      "inputs": [
        {
          "internalType": "address",
          "name": "bridge",
          "type": "address"
        }
      ],
      "name": "setBridge",
      "outputs": [],
      "stateMutability": "nonpayable",
      "type": "function"
    },
    {
      "inputs": [
        {
          "internalType": "address",
          "name": "holograph",
          "type": "address"
        }
      ],
      "name": "setHolograph",
      "outputs": [],
      "stateMutability": "nonpayable",
      "type": "function"
    },
    {
      "inputs": [
        {
          "internalType": "address",
          "name": "interfaces",
          "type": "address"
        }
      ],
      "name": "setInterfaces",
      "outputs": [],
      "stateMutability": "nonpayable",
      "type": "function"
    },
    {
      "inputs": [
        {
          "internalType": "address",
          "name": "messagingModule",
          "type": "address"
        }
      ],
      "name": "setMessagingModule",
      "outputs": [],
      "stateMutability": "nonpayable",
      "type": "function"
    },
    {
      "inputs": [
        {
          "internalType": "address",
          "name": "registry",
          "type": "address"
        }
      ],
      "name": "setRegistry",
      "outputs": [],
      "stateMutability": "nonpayable",
      "type": "function"
    },
    {
      "inputs": [
        {
          "internalType": "address",
          "name": "utilityToken",
          "type": "address"
        }
      ],
      "name": "setUtilityToken",
      "outputs": [],
      "stateMutability": "nonpayable",
      "type": "function"
    },
    {
      "inputs": [
        {
          "internalType": "address",
          "name": "operator",
          "type": "address"
        },
        {
          "internalType": "uint256",
          "name": "amount",
          "type": "uint256"
        }
      ],
      "name": "topupUtilityToken",
      "outputs": [],
      "stateMutability": "nonpayable",
      "type": "function"
    },
    {
      "inputs": [
        {
          "internalType": "address",
          "name": "operator",
          "type": "address"
        },
        {
          "internalType": "address",
          "name": "recipient",
          "type": "address"
        }
      ],
      "name": "unbondUtilityToken",
      "outputs": [],
      "stateMutability": "nonpayable",
      "type": "function"
    },
    {
      "stateMutability": "payable",
      "type": "receive"
    }
  ],
  "transactionHash": "0x10d11eea423d650496d6851e153ec0b2b3b1a28ed272630df3bd1de86170d852",
  "args": [],
  "numDeployments": 7,
  "solcInputHash": "3f83f01da3885aaf5c76ffc12d139be6",
  "bytecode": "0x608060405234801561001057600080fd5b506144ea806100206000396000f3fe6080604052600436106102375760003560e01c80636e9960c311610138578063a91ee0dc116100b0578063da8292d91161007f578063ebac15f911610064578063ebac15f91461073e578063f851a44014610772578063ff1370d91461078757600080fd5b8063da8292d9146106fe578063e7e2ce741461071e57600080fd5b8063a91ee0dc146106a3578063b24b2afc146106c3578063bf64a82d146106d6578063d2197bd3146106e957600080fd5b80637868674d116101075780638dd14802116100ec5780638dd14802146106205780639013ae081461064057806391e0d46b1461066057600080fd5b80637868674d146105e05780638b432e4e1461060057600080fd5b80636e9960c314610536578063704b6c021461056a578063761b48ec1461058a578063778fd1d1146105cd57600080fd5b80632b4a75b4116101cb578063493b07ef1161019a5780635ab1bd531161017f5780635ab1bd53146104cf578063612a337214610503578063696af2bf1461052357600080fd5b8063493b07ef146104495780634ddf47d41461047e57600080fd5b80632b4a75b4146103ae578063409aad69146103ce5780634827ae0c146103e157806348dfc8b71461041557600080fd5b806321cb8f371161020757806321cb8f371461032c578063254e10621461034e57806325d5cac81461036157806327aa01f51461038157600080fd5b8062626679146102435780630b239c4e1461029d5780630fffbaf3146102cb57806311a33bda146102ff57600080fd5b3661023e57005b600080fd5b34801561024f57600080fd5b507fbf76518d46db472b71aa7677a0908b8016f3dee568415ffa24055f9a670f9c37545b60405173ffffffffffffffffffffffffffffffffffffffff90911681526020015b60405180910390f35b3480156102a957600080fd5b506102bd6102b8366004613988565b6107a7565b604051908152602001610294565b3480156102d757600080fd5b507feb87cbb21687feb327e3d58c6c16d552231d12c7a0e8115042a4165fac8a77f954610273565b34801561030b57600080fd5b5061031f61031a366004613988565b61084a565b60405161029491906139a1565b34801561033857600080fd5b5061034c610347366004613a60565b610923565b005b61034c61035c366004613ad5565b610b07565b34801561036d57600080fd5b5061034c61037c366004613b17565b610e96565b34801561038d57600080fd5b506103a161039c366004613b34565b610f70565b6040516102949190613b60565b3480156103ba57600080fd5b5061034c6103c9366004613b17565b611133565b61034c6103dc366004613bcc565b61120d565b3480156103ed57600080fd5b507fb4107f746e9496e8452accc7de63d1c5e14c19f510932daa04077cd49e8bd77a54610273565b34801561042157600080fd5b507f54176250282e65985d205704ffce44a59efe61f7afd99e29fda50f55b48c061a54610273565b34801561045557600080fd5b50610469610464366004613988565b611812565b60408051928352602083019190915201610294565b34801561048a57600080fd5b5061049e610499366004613c93565b611844565b6040517fffffffff000000000000000000000000000000000000000000000000000000009091168152602001610294565b3480156104db57600080fd5b507fce8e75d5c5227ce29a4ee170160bb296e5dea6934b80a9bd723f7ef1e7c850e754610273565b34801561050f57600080fd5b5061034c61051e366004613d62565b611aa3565b61034c610531366004613d9b565b611e4b565b34801561054257600080fd5b507f3f106594dc74eeef980dae234cde8324dc2497b13d27a0c59e55bd2ca10a07c954610273565b34801561057657600080fd5b5061034c610585366004613b17565b611efc565b34801561059657600080fd5b506102bd6105a5366004613b17565b73ffffffffffffffffffffffffffffffffffffffff166000908152600e602052604090205490565b61034c6105db366004613ad5565b611fd6565b3480156105ec57600080fd5b506103a16105fb366004613988565b612872565b34801561060c57600080fd5b5061034c61061b366004613df0565b612975565b34801561062c57600080fd5b5061034c61063b366004613b17565b612dcc565b34801561064c57600080fd5b5061034c61065b366004613b17565b612ea6565b34801561066c57600080fd5b506102bd61067b366004613b17565b73ffffffffffffffffffffffffffffffffffffffff166000908152600c602052604090205490565b3480156106af57600080fd5b5061034c6106be366004613b17565b612f80565b6102bd6106d1366004613ad5565b61305a565b61034c6106e4366004613d9b565b6130b4565b3480156106f557600080fd5b50600b546102bd565b34801561070a57600080fd5b5061034c610719366004613b17565b61318f565b34801561072a57600080fd5b5061034c610739366004613e25565b613269565b34801561074a57600080fd5b507fbd3084b8c09da87ad159c247a60e209784196be2530cecbbd8f337fdd184882754610273565b34801561077e57600080fd5b50610273613393565b34801561079357600080fd5b506104696107a2366004613e68565b6133c2565b600b5460009082111561081b576040517f08c379a000000000000000000000000000000000000000000000000000000000815260206004820152601d60248201527f484f4c4f47524150483a20706f6420646f6573206e6f7420657869737400000060448201526064015b60405180910390fd5b600b610828600184613f01565b8154811061083857610838613f18565b60009182526020909120015492915050565b6108526137fe565b50600090815260076020908152604080832054815160c08101835260f882901c8152845461ffff9081168286015263ffffffff60d884901c16865260098552948390205473ffffffffffffffffffffffffffffffffffffffff168184015264ffffffffff60b083901c1660608083019190915267ffffffffffffffff601084901c16608080840191909152845160a0818101875285811c89168252609086901c89169782019790975284821c881695810195909552607084901c87168583015292901c909416908201529082015290565b73ffffffffffffffffffffffffffffffffffffffff82166000908152600c602052604081205490036109b1576040517f08c379a000000000000000000000000000000000000000000000000000000000815260206004820152601e60248201527f484f4c4f47524150483a206f70657261746f72206e6f7420626f6e64656400006044820152606401610812565b73ffffffffffffffffffffffffffffffffffffffff82166000908152600e602052604090208054820190557fbf76518d46db472b71aa7677a0908b8016f3dee568415ffa24055f9a670f9c37546040517f23b872dd0000000000000000000000000000000000000000000000000000000081523360048201523060248201526044810183905273ffffffffffffffffffffffffffffffffffffffff91909116906323b872dd906064016020604051808303816000875af1158015610a79573d6000803e3d6000fd5b505050506040513d601f19601f82011682018060405250810190610a9d9190613f47565b610b03576040517f08c379a000000000000000000000000000000000000000000000000000000000815260206004820181905260248201527f484f4c4f47524150483a20746f6b656e207472616e73666572206661696c65646044820152606401610812565b5050565b7f54176250282e65985d205704ffce44a59efe61f7afd99e29fda50f55b48c061a5473ffffffffffffffffffffffffffffffffffffffff163373ffffffffffffffffffffffffffffffffffffffff1614610bbd576040517f08c379a000000000000000000000000000000000000000000000000000000000815260206004820152601e60248201527f484f4c4f47524150483a206d6573736167696e67206f6e6c792063616c6c00006044820152606401610812565b60008282604051610bcf929190613f69565b604051908190039020600a805463ffffffff808216600101167fffffffffffffffffffffffffffffffffffffffffffffffffffffffff000000009091161790559050600081610c447f1cda64803f3b43503042e00863791e8d996666552d5855a78d53ee1dd4b3286d80546001019081905590565b60408051602081019390935282015243606082015242608082015260a001604080517fffffffffffffffffffffffffffffffffffffffffffffffffffffffffffffffe08184030181529190528051602090910120600b549091506000908281610caf57610caf613f79565b0690506000600b8281548110610cc757610cc7613f18565b60009182526020822001549150818481610ce357610ce3613f79565b069050600b8381548110610cf957610cf9613f18565b906000526020600020018181548110610d1457610d14613f18565b6000918252602080832090910154600a5463ffffffff1683526009909152604090912080547fffffffffffffffffffffffff00000000000000000000000000000000000000001673ffffffffffffffffffffffffffffffffffffffff909216919091179055610d838382613405565b6001821115610db2577fffffffffffffffffffffffffffffffffffffffffffffffffffffffffffffffff909101905b4260101b6060610dc4868560056136c3565b901b6070610dd4878660046136c3565b901b6080610de4888760036136c3565b901b6090610df4898860026136c3565b901b60a0610e048a8960016136c3565b901b60b043901b60d8600a60009054906101000a900463ffffffff1663ffffffff16901b60f88b600101901b171717171717171760001760076000878152602001908152602001600020819055507f4422a85db963f113e500bc4ada8f9e9f1a7bcd57cbec6907fbb2bf6aaf5878ff858888604051610e8593929190613ff1565b60405180910390a150505050505050565b7f3f106594dc74eeef980dae234cde8324dc2497b13d27a0c59e55bd2ca10a07c95473ffffffffffffffffffffffffffffffffffffffff163373ffffffffffffffffffffffffffffffffffffffff1614610f4c576040517f08c379a000000000000000000000000000000000000000000000000000000000815260206004820152601e60248201527f484f4c4f47524150483a2061646d696e206f6e6c792066756e6374696f6e00006044820152606401610812565b7fb4107f746e9496e8452accc7de63d1c5e14c19f510932daa04077cd49e8bd77a55565b600b54606090841115610fdf576040517f08c379a000000000000000000000000000000000000000000000000000000000815260206004820152601d60248201527f484f4c4f47524150483a20706f6420646f6573206e6f742065786973740000006044820152606401610812565b83610fe981614014565b9450506000600b858154811061100157611001613f18565b60009182526020909120015490508061101a8486614049565b111561102d5761102a8482613f01565b92505b8267ffffffffffffffff81111561104657611046613c64565b60405190808252806020026020018201604052801561106f578160200160208202803683370190505b50915060005b8381101561112a57600b868154811061109057611090613f18565b9060005260206000200181866110a69190614049565b815481106110b6576110b6613f18565b9060005260206000200160009054906101000a900473ffffffffffffffffffffffffffffffffffffffff168382815181106110f3576110f3613f18565b73ffffffffffffffffffffffffffffffffffffffff909216602092830291909101909101528061112281614061565b915050611075565b50509392505050565b7f3f106594dc74eeef980dae234cde8324dc2497b13d27a0c59e55bd2ca10a07c95473ffffffffffffffffffffffffffffffffffffffff163373ffffffffffffffffffffffffffffffffffffffff16146111e9576040517f08c379a000000000000000000000000000000000000000000000000000000000815260206004820152601e60248201527f484f4c4f47524150483a2061646d696e206f6e6c792066756e6374696f6e00006044820152606401610812565b7f54176250282e65985d205704ffce44a59efe61f7afd99e29fda50f55b48c061a55565b7feb87cbb21687feb327e3d58c6c16d552231d12c7a0e8115042a4165fac8a77f95473ffffffffffffffffffffffffffffffffffffffff163373ffffffffffffffffffffffffffffffffffffffff16146112c3576040517f08c379a000000000000000000000000000000000000000000000000000000000815260206004820152601b60248201527f484f4c4f47524150483a20627269646765206f6e6c792063616c6c00000000006044820152606401610812565b60006112ed7f54176250282e65985d205704ffce44a59efe61f7afd99e29fda50f55b48c061a5490565b6040517f9aa8f2d600000000000000000000000000000000000000000000000000000000815263ffffffff89166004820152602481018b9052604481018a905290915060009073ffffffffffffffffffffffffffffffffffffffff831690639aa8f2d690606401602060405180830381865afa158015611371573d6000803e3d6000fd5b505050506040513d601f19601f820116820180604052508101906113959190614099565b905060006113c17fce8e75d5c5227ce29a4ee170160bb296e5dea6934b80a9bd723f7ef1e7c850e75490565b73ffffffffffffffffffffffffffffffffffffffff1663949d53a76114047fb4107f746e9496e8452accc7de63d1c5e14c19f510932daa04077cd49e8bd77a5490565b73ffffffffffffffffffffffffffffffffffffffff1663381b5f466040518163ffffffff1660e01b8152600401602060405180830381865afa15801561144e573d6000803e3d6000fd5b505050506040513d601f19601f8201168201806040525081019061147291906140b2565b6040517fffffffff0000000000000000000000000000000000000000000000000000000060e084901b16815263ffffffff919091166004820152602401602060405180830381865afa1580156114cc573d6000803e3d6000fd5b505050506040513d601f19601f820116820180604052508101906114f091906140cf565b905034821061155b576040517f08c379a000000000000000000000000000000000000000000000000000000000815260206004820152601b60248201527f484f4c4f47524150483a206e6f7420656e6f7567682076616c756500000000006044820152606401610812565b60405173ffffffffffffffffffffffffffffffffffffffff82169083156108fc029084906000818181858888f1935050505015801561159e573d6000803e3d6000fd5b5060007f16f1be7000000000000000000000000000000000000000000000000000000000886115eb7fb4107f746e9496e8452accc7de63d1c5e14c19f510932daa04077cd49e8bd77a5490565b73ffffffffffffffffffffffffffffffffffffffff1663381b5f466040518163ffffffff1660e01b8152600401602060405180830381865afa158015611635573d6000803e3d6000fd5b505050506040513d601f19601f8201168201806040525081019061165991906140b2565b898560008860018d8d60405160240161167a999897969594939291906140ec565b604080517fffffffffffffffffffffffffffffffffffffffffffffffffffffffffffffffe0818403018152918152602080830180517bffffffffffffffffffffffffffffffffffffffffffffffffffffffff167fffffffff00000000000000000000000000000000000000000000000000000000909516949094179093525190925061170c9183918f918f910161418b565b604080517fffffffffffffffffffffffffffffffffffffffffffffffffffffffffffffffe0818403018152919052905073ffffffffffffffffffffffffffffffffffffffff8416630a0542ef6117628534613f01565b8e8e8e8e6117708a34613f01565b886040518863ffffffff1660e01b8152600401611792969594939291906141b2565b6000604051808303818588803b1580156117ab57600080fd5b505af11580156117bf573d6000803e3d6000fd5b50505050507f0f5759b4182507dcfc771071166f98d7ca331262e5134eaa74b676adce2138b781805190602001206040516117fc91815260200190565b60405180910390a1505050505050505050505050565b600080611828611823600185613f01565b6136e3565b915061183d611838600185613f01565b613706565b9050915091565b600061186e7f4e5f991bca30eca2d4643aaefa807e88f96a4a97398933d572a3c0d973004a015490565b156118d5576040517f08c379a000000000000000000000000000000000000000000000000000000000815260206004820152601e60248201527f484f4c4f47524150483a20616c726561647920696e697469616c697a656400006044820152606401610812565b6000806000806000868060200190518101906118f19190614242565b327f3f106594dc74eeef980dae234cde8324dc2497b13d27a0c59e55bd2ca10a07c9557feb87cbb21687feb327e3d58c6c16d552231d12c7a0e8115042a4165fac8a77f98590557fb4107f746e9496e8452accc7de63d1c5e14c19f510932daa04077cd49e8bd77a8490557fbd3084b8c09da87ad159c247a60e209784196be2530cecbbd8f337fdd18488278390557fce8e75d5c5227ce29a4ee170160bb296e5dea6934b80a9bd723f7ef1e7c850e78290557fbf76518d46db472b71aa7677a0908b8016f3dee568415ffa24055f9a670f9c37819055603c600090815568056bc75e2d631000006001908155600280556103e8600355600a60045560646005556040805180820190915260208101928352918252959a5093985091965094509250611a2091600b919061383a565b5060008052600c60205260017f13649b2456f1b42fef0f0040b3aaeabcd21a76a0f3f5defd4f583839455116e855611a7760017f4e5f991bca30eca2d4643aaefa807e88f96a4a97398933d572a3c0d973004a0155565b507f4ddf47d4000000000000000000000000000000000000000000000000000000009695505050505050565b73ffffffffffffffffffffffffffffffffffffffff82166000908152600c60205260408120549003611b31576040517f08c379a000000000000000000000000000000000000000000000000000000000815260206004820152601e60248201527f484f4c4f47524150483a206f70657261746f72206e6f7420626f6e64656400006044820152606401610812565b3373ffffffffffffffffffffffffffffffffffffffff831614611cb157611b57826137c4565b611bbd576040517f08c379a000000000000000000000000000000000000000000000000000000000815260206004820181905260248201527f484f4c4f47524150483a206f70657261746f72206e6f7420636f6e74726163746044820152606401610812565b6040517f2f54bf6e00000000000000000000000000000000000000000000000000000000815233600482015273ffffffffffffffffffffffffffffffffffffffff831690632f54bf6e90602401602060405180830381865afa158015611c27573d6000803e3d6000fd5b505050506040513d601f19601f82011682018060405250810190611c4b9190613f47565b611cb1576040517f08c379a000000000000000000000000000000000000000000000000000000000815260206004820152601b60248201527f484f4c4f47524150483a2073656e646572206e6f74206f776e657200000000006044820152606401610812565b73ffffffffffffffffffffffffffffffffffffffff82166000908152600e60209081526040808320805490849055600c90925290912054611d2390611cf890600190613f01565b73ffffffffffffffffffffffffffffffffffffffff85166000908152600d6020526040902054613405565b7fbf76518d46db472b71aa7677a0908b8016f3dee568415ffa24055f9a670f9c37546040517fa9059cbb00000000000000000000000000000000000000000000000000000000815273ffffffffffffffffffffffffffffffffffffffff848116600483015260248201849052919091169063a9059cbb906044016020604051808303816000875af1158015611dbc573d6000803e3d6000fd5b505050506040513d601f19601f82011682018060405250810190611de09190613f47565b611e46576040517f08c379a000000000000000000000000000000000000000000000000000000000815260206004820181905260248201527f484f4c4f47524150483a20746f6b656e207472616e73666572206661696c65646044820152606401610812565b505050565b333014611eb4576040517f08c379a000000000000000000000000000000000000000000000000000000000815260206004820152601d60248201527f484f4c4f47524150483a206f70657261746f72206f6e6c792063616c6c0000006044820152606401610812565b602081038260003782608452600080604083036000347feb87cbb21687feb327e3d58c6c16d552231d12c7a0e8115042a4165fac8a77f9546040870351f18061034c57600080fd5b7f3f106594dc74eeef980dae234cde8324dc2497b13d27a0c59e55bd2ca10a07c95473ffffffffffffffffffffffffffffffffffffffff163373ffffffffffffffffffffffffffffffffffffffff1614611fb2576040517f08c379a000000000000000000000000000000000000000000000000000000000815260206004820152601e60248201527f484f4c4f47524150483a2061646d696e206f6e6c792066756e6374696f6e00006044820152606401610812565b7f3f106594dc74eeef980dae234cde8324dc2497b13d27a0c59e55bd2ca10a07c955565b60008282604051611fe8929190613f69565b60405180910390209050600060076000838152602001908152602001600020541161206f576040517f08c379a000000000000000000000000000000000000000000000000000000000815260206004820152601660248201527f484f4c4f47524150483a20696e76616c6964206a6f62000000000000000000006044820152606401610812565b8183017fffffffffffffffffffffffffffffffffffffffffffffffffffffffffffffffc0810135907fffffffffffffffffffffffffffffffffffffffffffffffffffffffffffffffe0013560006120c58461084a565b6000858152600760205260408082209190915581015190915073ffffffffffffffffffffffffffffffffffffffff161561270b57805160009061210a906001906142b7565b60ff1690503373ffffffffffffffffffffffffffffffffffffffff16826040015173ffffffffffffffffffffffffffffffffffffffff1614612644576000826080015167ffffffffffffffff16426121629190613f01565b90506000836020015161ffff168261217a91906142da565b9050600081116121e6576040517f08c379a000000000000000000000000000000000000000000000000000000000815260206004820152601c60248201527f484f4c4f47524150483a206f70657261746f72206861732074696d65000000006044820152606401610812565b3a851015612250576040517f08c379a000000000000000000000000000000000000000000000000000000000815260206004820152601d60248201527f484f4c4f47524150483a20676173207370696b652064657465637465640000006044820152606401610812565b600681101561237a5760a084015160009061226c600184613f01565b6005811061227c5761227c613f18565b602002015161ffff1690506000811180156122b45750600b84815481106122a5576122a5613f18565b60009182526020909120015481105b15612378576000600b85815481106122ce576122ce613f18565b9060005260206000200182815481106122e9576122e9613f18565b60009182526020909120015473ffffffffffffffffffffffffffffffffffffffff169050338114612376576040517f08c379a000000000000000000000000000000000000000000000000000000000815260206004820152601b60248201527f484f4c4f47524150483a20696e76616c69642066616c6c6261636b00000000006044820152606401610812565b505b505b6000612385846136e3565b905080600e6000876040015173ffffffffffffffffffffffffffffffffffffffff1673ffffffffffffffffffffffffffffffffffffffff16815260200190815260200160002060008282546123da9190613f01565b9091555050336000908152600e6020526040812080548392906123fe908490614049565b909155505060408086015173ffffffffffffffffffffffffffffffffffffffff166000908152600e6020522054811161252057600b848154811061244457612444613f18565b6000918252602080832060408901519201805460018082018355918552919093200180547fffffffffffffffffffffffff00000000000000000000000000000000000000001673ffffffffffffffffffffffffffffffffffffffff909216919091179055600b8054869081106124bc576124bc613f18565b6000918252602090912001546124d29190613f01565b6040808701805173ffffffffffffffffffffffffffffffffffffffff9081166000908152600d602090815284822095909555895192519091168152600c909352912060ff909116905561263c565b60408086015173ffffffffffffffffffffffffffffffffffffffff166000908152600e6020522054801561263a5760408681015173ffffffffffffffffffffffffffffffffffffffff166000908152600e602052908120557fbf76518d46db472b71aa7677a0908b8016f3dee568415ffa24055f9a670f9c375460408088015190517fa9059cbb00000000000000000000000000000000000000000000000000000000815273ffffffffffffffffffffffffffffffffffffffff91821660048201526024810184905291169063a9059cbb906044016020604051808303816000875af1158015612614573d6000803e3d6000fd5b505050506040513d601f19601f820116820180604052508101906126389190613f47565b505b505b505050612709565b600b818154811061265757612657613f18565b60009182526020808320909101805460018181018355918452919092200180547fffffffffffffffffffffffff00000000000000000000000000000000000000001633179055600b8054839081106126b1576126b1613f18565b6000918252602090912001546126c79190613f01565b60408084015173ffffffffffffffffffffffffffffffffffffffff166000908152600d6020908152828220939093558451338252600c9093522060ff90911690555b505b825a11612774576040517f08c379a000000000000000000000000000000000000000000000000000000000815260206004820152601e60248201527f484f4c4f47524150483a206e6f7420656e6f75676820676173206c65667400006044820152606401610812565b6040517f696af2bf000000000000000000000000000000000000000000000000000000008152309063696af2bf9034906127b69033908b908b90600401614315565b6000604051808303818588803b1580156127cf57600080fd5b505af1935050505080156127e1575060015b612857576000848152600860205260409081902080547fffffffffffffffffffffffffffffffffffffffffffffffffffffffffffffff00166001179055517f26dc03e6c4feb5e9d33804dc1646860c976c3aeabb458f4719c53dcbadbf44b59061284e9086815260200190565b60405180910390a15b60066000815461286690614061565b90915550505050505050565b600b546060908211156128e1576040517f08c379a000000000000000000000000000000000000000000000000000000000815260206004820152601d60248201527f484f4c4f47524150483a20706f6420646f6573206e6f742065786973740000006044820152606401610812565b600b6128ee600184613f01565b815481106128fe576128fe613f18565b9060005260206000200180548060200260200160405190810160405280929190818152602001828054801561296957602002820191906000526020600020905b815473ffffffffffffffffffffffffffffffffffffffff16815260019091019060200180831161293e575b50505050509050919050565b73ffffffffffffffffffffffffffffffffffffffff83166000908152600c60205260409020541580156129cb575073ffffffffffffffffffffffffffffffffffffffff83166000908152600e6020526040902054155b612a31576040517f08c379a000000000000000000000000000000000000000000000000000000000815260206004820152601d60248201527f484f4c4f47524150483a206f70657261746f7220697320626f6e6465640000006044820152606401610812565b6000612a3f60018303613706565b905082811115612aab576040517f08c379a000000000000000000000000000000000000000000000000000000000815260206004820181905260248201527f484f4c4f47524150483a20626f6e6420616d6f756e7420746f6f20736d616c6c6044820152606401610812565b600b54821115612b1957600b545b828111612b175760408051602081019091526000808252600b80546001818101835591909252612b0e927f0175b7a638427703f0dbe7bb9bbf987a2551717b34e79f33b5b1008d1fa01db99092019190613891565b50600101612ab9565b505b61ffff8016600b6001840381548110612b3457612b34613f18565b60009182526020909120015410612ba7576040517f08c379a000000000000000000000000000000000000000000000000000000000815260206004820152601d60248201527f484f4c4f47524150483a20746f6f206d616e79206f70657261746f72730000006044820152606401610812565b600b6001830381548110612bbd57612bbd613f18565b6000918252602080832091909101805460018082018355918452919092200180547fffffffffffffffffffffffff00000000000000000000000000000000000000001673ffffffffffffffffffffffffffffffffffffffff8716179055600b80547fffffffffffffffffffffffffffffffffffffffffffffffffffffffffffffffff8501908110612c5057612c50613f18565b600091825260208083209091015473ffffffffffffffffffffffffffffffffffffffff88168352600d8252604080842094909103909355600c8152828220859055600e905220839055612cc17fbf76518d46db472b71aa7677a0908b8016f3dee568415ffa24055f9a670f9c375490565b6040517f23b872dd0000000000000000000000000000000000000000000000000000000081523360048201523060248201526044810185905273ffffffffffffffffffffffffffffffffffffffff91909116906323b872dd906064016020604051808303816000875af1158015612d3c573d6000803e3d6000fd5b505050506040513d601f19601f82011682018060405250810190612d609190613f47565b612dc6576040517f08c379a000000000000000000000000000000000000000000000000000000000815260206004820181905260248201527f484f4c4f47524150483a20746f6b656e207472616e73666572206661696c65646044820152606401610812565b50505050565b7f3f106594dc74eeef980dae234cde8324dc2497b13d27a0c59e55bd2ca10a07c95473ffffffffffffffffffffffffffffffffffffffff163373ffffffffffffffffffffffffffffffffffffffff1614612e82576040517f08c379a000000000000000000000000000000000000000000000000000000000815260206004820152601e60248201527f484f4c4f47524150483a2061646d696e206f6e6c792066756e6374696f6e00006044820152606401610812565b7feb87cbb21687feb327e3d58c6c16d552231d12c7a0e8115042a4165fac8a77f955565b7f3f106594dc74eeef980dae234cde8324dc2497b13d27a0c59e55bd2ca10a07c95473ffffffffffffffffffffffffffffffffffffffff163373ffffffffffffffffffffffffffffffffffffffff1614612f5c576040517f08c379a000000000000000000000000000000000000000000000000000000000815260206004820152601e60248201527f484f4c4f47524150483a2061646d696e206f6e6c792066756e6374696f6e00006044820152606401610812565b7fbf76518d46db472b71aa7677a0908b8016f3dee568415ffa24055f9a670f9c3755565b7f3f106594dc74eeef980dae234cde8324dc2497b13d27a0c59e55bd2ca10a07c95473ffffffffffffffffffffffffffffffffffffffff163373ffffffffffffffffffffffffffffffffffffffff1614613036576040517f08c379a000000000000000000000000000000000000000000000000000000000815260206004820152601e60248201527f484f4c4f47524150483a2061646d696e206f6e6c792066756e6374696f6e00006044820152606401610812565b7fce8e75d5c5227ce29a4ee170160bb296e5dea6934b80a9bd723f7ef1e7c850e755565b60006040820383600037600060e353600080604084036000347feb87cbb21687feb327e3d58c6c16d552231d12c7a0e8115042a4165fac8a77f9545af1600181036130a9573d6000803e3d6000fd5b505a60005260206000f35b7f3f106594dc74eeef980dae234cde8324dc2497b13d27a0c59e55bd2ca10a07c95473ffffffffffffffffffffffffffffffffffffffff163373ffffffffffffffffffffffffffffffffffffffff161461316a576040517f08c379a000000000000000000000000000000000000000000000000000000000815260206004820152601e60248201527f484f4c4f47524150483a2061646d696e206f6e6c792066756e6374696f6e00006044820152606401610812565b808260003760008082600034875af13d6000803e80801561318a573d6000f35b3d6000fd5b7f3f106594dc74eeef980dae234cde8324dc2497b13d27a0c59e55bd2ca10a07c95473ffffffffffffffffffffffffffffffffffffffff163373ffffffffffffffffffffffffffffffffffffffff1614613245576040517f08c379a000000000000000000000000000000000000000000000000000000000815260206004820152601e60248201527f484f4c4f47524150483a2061646d696e206f6e6c792066756e6374696f6e00006044820152606401610812565b7fbd3084b8c09da87ad159c247a60e209784196be2530cecbbd8f337fdd184882755565b7f3f106594dc74eeef980dae234cde8324dc2497b13d27a0c59e55bd2ca10a07c95473ffffffffffffffffffffffffffffffffffffffff163373ffffffffffffffffffffffffffffffffffffffff161461331f576040517f08c379a000000000000000000000000000000000000000000000000000000000815260206004820152601e60248201527f484f4c4f47524150483a2061646d696e206f6e6c792066756e6374696f6e00006044820152606401610812565b600086815560018681556002869055600385905560048490556005839055604080518082019091526020810192835291825261335d91600b9161383a565b5050600080525050600c602052505060017f13649b2456f1b42fef0f0040b3aaeabcd21a76a0f3f5defd4f583839455116e85550565b60006133bd7f3f106594dc74eeef980dae234cde8324dc2497b13d27a0c59e55bd2ca10a07c95490565b905090565b60008036600080376000803660007f54176250282e65985d205704ffce44a59efe61f7afd99e29fda50f55b48c061a545afa3d6000803e80801561318a573d6000f35b8015610b03576000600b838154811061342057613420613f18565b90600052602060002001828154811061343b5761343b613f18565b600091825260208083209091015473ffffffffffffffffffffffffffffffffffffffff16808352600c82526040808420849055600d909252908220829055600b80549193506001918690811061349357613493613f18565b6000918252602090912001540390508281146135d957600b84815481106134bc576134bc613f18565b9060005260206000200181815481106134d7576134d7613f18565b600091825260209091200154600b805473ffffffffffffffffffffffffffffffffffffffff909216918690811061351057613510613f18565b90600052602060002001848154811061352b5761352b613f18565b9060005260206000200160006101000a81548173ffffffffffffffffffffffffffffffffffffffff021916908373ffffffffffffffffffffffffffffffffffffffff16021790555082600d6000600b878154811061358b5761358b613f18565b9060005260206000200186815481106135a6576135a6613f18565b600091825260208083209091015473ffffffffffffffffffffffffffffffffffffffff1683528201929092526040019020555b600b84815481106135ec576135ec613f18565b90600052602060002001818154811061360757613607613f18565b600091825260209091200180547fffffffffffffffffffffffff0000000000000000000000000000000000000000169055600b80548590811061364c5761364c613f18565b9060005260206000200180548061366557613665614345565b60008281526020902081017fffffffffffffffffffffffffffffffffffffffffffffffffffffffffffffffff90810180547fffffffffffffffffffffffff000000000000000000000000000000000000000016905501905550505050565b60008243839003408501816136da576136da613f79565b06949350505050565b6000600154826002546136f69190614494565b61370091906144a0565b92915050565b6000806001548360025461371a9190614494565b61372491906144a0565b600b5490915083106137365792915050565b6000613743846002614494565b60035461375091906142da565b90506000600b858154811061376757613767613f18565b6000918252602090912001549050818111156137bb576137878282613f01565b90506004548161379791906142da565b6005546137a490856142da565b6137ae91906144a0565b6137b89084614049565b92505b50909392505050565b6000813f80158015906137f757507fc5d2460186f7233c927e7db2dcc703c0e500b653ca82273b7bfad8045d85a4708114155b9392505050565b6040805160c08101825260008082526020820181905291810182905260608101829052608081019190915260a08101613835613917565b905290565b828054828255906000526020600020908101928215613881579160200282015b828111156138815782516138719083906001613891565b509160200191906001019061385a565b5061388d929150613935565b5090565b82805482825590600052602060002090810192821561390b579160200282015b8281111561390b57825182547fffffffffffffffffffffffff00000000000000000000000000000000000000001673ffffffffffffffffffffffffffffffffffffffff9091161782556020909201916001909101906138b1565b5061388d929150613952565b6040518060a001604052806005906020820280368337509192915050565b8082111561388d5760006139498282613967565b50600101613935565b5b8082111561388d5760008155600101613953565b50805460008255906000526020600020908101906139859190613952565b50565b60006020828403121561399a57600080fd5b5035919050565b60006101408201905060ff835116825260208084015161ffff8082168386015273ffffffffffffffffffffffffffffffffffffffff604087015116604086015264ffffffffff606087015116606086015267ffffffffffffffff608087015116608086015260a0860151915060a0850160005b6005811015613a33578351831682529284019290840190600101613a14565b505050505092915050565b73ffffffffffffffffffffffffffffffffffffffff8116811461398557600080fd5b60008060408385031215613a7357600080fd5b8235613a7e81613a3e565b946020939093013593505050565b60008083601f840112613a9e57600080fd5b50813567ffffffffffffffff811115613ab657600080fd5b602083019150836020828501011115613ace57600080fd5b9250929050565b60008060208385031215613ae857600080fd5b823567ffffffffffffffff811115613aff57600080fd5b613b0b85828601613a8c565b90969095509350505050565b600060208284031215613b2957600080fd5b81356137f781613a3e565b600080600060608486031215613b4957600080fd5b505081359360208301359350604090920135919050565b6020808252825182820181905260009190848201906040850190845b81811015613bae57835173ffffffffffffffffffffffffffffffffffffffff1683529284019291840191600101613b7c565b50909695505050505050565b63ffffffff8116811461398557600080fd5b60008060008060008060008060e0898b031215613be857600080fd5b88359750602089013596506040890135613c0181613bba565b95506060890135613c1181613a3e565b94506080890135935060a0890135613c2881613a3e565b925060c089013567ffffffffffffffff811115613c4457600080fd5b613c508b828c01613a8c565b999c989b5096995094979396929594505050565b7f4e487b7100000000000000000000000000000000000000000000000000000000600052604160045260246000fd5b600060208284031215613ca557600080fd5b813567ffffffffffffffff80821115613cbd57600080fd5b818401915084601f830112613cd157600080fd5b813581811115613ce357613ce3613c64565b604051601f82017fffffffffffffffffffffffffffffffffffffffffffffffffffffffffffffffe0908116603f01168101908382118183101715613d2957613d29613c64565b81604052828152876020848701011115613d4257600080fd5b826020860160208301376000928101602001929092525095945050505050565b60008060408385031215613d7557600080fd5b8235613d8081613a3e565b91506020830135613d9081613a3e565b809150509250929050565b600080600060408486031215613db057600080fd5b8335613dbb81613a3e565b9250602084013567ffffffffffffffff811115613dd757600080fd5b613de386828701613a8c565b9497909650939450505050565b600080600060608486031215613e0557600080fd5b8335613e1081613a3e565b95602085013595506040909401359392505050565b60008060008060008060c08789031215613e3e57600080fd5b505084359660208601359650604086013595606081013595506080810135945060a0013592509050565b600080600080600060808688031215613e8057600080fd5b8535613e8b81613bba565b94506020860135935060408601359250606086013567ffffffffffffffff811115613eb557600080fd5b613ec188828901613a8c565b969995985093965092949392505050565b7f4e487b7100000000000000000000000000000000000000000000000000000000600052601160045260246000fd5b600082821015613f1357613f13613ed2565b500390565b7f4e487b7100000000000000000000000000000000000000000000000000000000600052603260045260246000fd5b600060208284031215613f5957600080fd5b815180151581146137f757600080fd5b8183823760009101908152919050565b7f4e487b7100000000000000000000000000000000000000000000000000000000600052601260045260246000fd5b8183528181602085013750600060208284010152600060207fffffffffffffffffffffffffffffffffffffffffffffffffffffffffffffffe0601f840116840101905092915050565b83815260406020820152600061400b604083018486613fa8565b95945050505050565b60008161402357614023613ed2565b507fffffffffffffffffffffffffffffffffffffffffffffffffffffffffffffffff0190565b6000821982111561405c5761405c613ed2565b500190565b60007fffffffffffffffffffffffffffffffffffffffffffffffffffffffffffffffff820361409257614092613ed2565b5060010190565b6000602082840312156140ab57600080fd5b5051919050565b6000602082840312156140c457600080fd5b81516137f781613bba565b6000602082840312156140e157600080fd5b81516137f781613a3e565b60006101008b835263ffffffff8b16602084015273ffffffffffffffffffffffffffffffffffffffff808b166040850152808a1660608501528089166080850152508660a084015285151560c08401528060e084015261414f8184018587613fa8565b9c9b505050505050505050505050565b60005b8381101561417a578181015183820152602001614162565b83811115612dc65750506000910152565b6000845161419d81846020890161415f565b91909101928352506020820152604001919050565b86815285602082015263ffffffff8516604082015273ffffffffffffffffffffffffffffffffffffffff8416606082015282608082015260c060a0820152600082518060c084015261420b8160e085016020870161415f565b601f017fffffffffffffffffffffffffffffffffffffffffffffffffffffffffffffffe0169190910160e001979650505050505050565b600080600080600060a0868803121561425a57600080fd5b855161426581613a3e565b602087015190955061427681613a3e565b604087015190945061428781613a3e565b606087015190935061429881613a3e565b60808701519092506142a981613a3e565b809150509295509295909350565b600060ff821660ff8416808210156142d1576142d1613ed2565b90039392505050565b600082614310577f4e487b7100000000000000000000000000000000000000000000000000000000600052601260045260246000fd5b500490565b73ffffffffffffffffffffffffffffffffffffffff8416815260406020820152600061400b604083018486613fa8565b7f4e487b7100000000000000000000000000000000000000000000000000000000600052603160045260246000fd5b600181815b808511156143cd57817fffffffffffffffffffffffffffffffffffffffffffffffffffffffffffffffff048211156143b3576143b3613ed2565b808516156143c057918102915b93841c9390800290614379565b509250929050565b6000826143e457506001613700565b816143f157506000613700565b816001811461440757600281146144115761442d565b6001915050613700565b60ff84111561442257614422613ed2565b50506001821b613700565b5060208310610133831016604e8410600b8410161715614450575081810a613700565b61445a8383614374565b807fffffffffffffffffffffffffffffffffffffffffffffffffffffffffffffffff0482111561448c5761448c613ed2565b029392505050565b60006137f783836143d5565b6000817fffffffffffffffffffffffffffffffffffffffffffffffffffffffffffffffff04831182151516156144d8576144d8613ed2565b50029056fea164736f6c634300080d000a",
  "devdoc": {
    "author": "https://github.com/holographxyz",
    "details": "This contract allows operators to bond utility tokens and help execute operator jobs",
    "kind": "dev",
    "methods": {
      "bondUtilityToken(address,uint256,uint256)": {
        "details": "An operator can only bond to one pod at a time, per network",
        "params": {
          "amount": "utility token amount to bond (can be greater than minimum)",
          "operator": "address of operator to bond (can be an ownable smart contract)",
          "pod": "number of pod to bond to (can be for one that does not exist yet)"
        }
      },
      "constructor": {
        "details": "Constructor is left empty and init is used instead"
      },
      "crossChainMessage(bytes)": {
        "details": "This function is restricted for use by Holograph Messaging Module only"
      },
      "executeJob(bytes)": {
        "details": "When making this call, if operating criteria is not met, the call will revert",
        "params": {
          "bridgeInRequestPayload": "the entire cross chain message payload"
        }
      },
      "getBondedAmount(address)": {
        "details": "Useful for checking how much an operator has bonded",
        "params": {
          "operator": "address of operator to check"
        },
        "returns": {
          "amount": "total number of utility token bonded"
        }
      },
      "getBondedPod(address)": {
        "details": "Useful for checking if an operator is currently bonded",
        "params": {
          "operator": "address of operator to check"
        },
        "returns": {
          "pod": "number that operator is bonded on, returns zero if not bonded or selected for job"
        }
      },
      "getBridge()": {
        "details": "Used for beaming holographable assets cross-chain"
      },
      "getHolograph()": {
        "details": "Used for storing a reference to all the primary modules and variables of the protocol"
      },
      "getInterfaces()": {
        "details": "Holograph uses this contract to store data that needs to be accessed by a large portion of the modules"
      },
      "getJobDetails(bytes32)": {
        "details": "The job hash is a keccak256 hash of the entire job payload",
        "params": {
          "jobHash": "keccak256 hash of the job"
        },
        "returns": {
          "_0": "an OperatorJob struct with details about a specific job"
        }
      },
      "getMessageFee(uint32,uint256,uint256,bytes)": {
        "details": "Will provide exact costs on protocol and message side, combine the two to get total@param toChain holograph chain id of destination chain for payload@param gasLimit amount of gas to provide for executing payload on destination chain@param gasPrice maximum amount to pay for gas price, can be set to 0 and will be chose automatically@param crossChainPayload the entire packet being sent cross-chain",
        "returns": {
          "_0": "hlgFee the amount (in wei) of native gas token that will cost for finalizing job on destiantion chain",
          "_1": "msgFee the amount (in wei) of native gas token that will cost for sending message to destiantion chain"
        }
      },
      "getMessagingModule()": {
        "details": "All cross-chain message requests will get forwarded to this adress"
      },
      "getPodBondAmounts(uint256)": {
        "details": "Useful for understanding what is required for bonding to a pod",
        "params": {
          "pod": "the pod to get bonding amounts for"
        },
        "returns": {
          "base": "the base bond amount required for a pod",
          "current": "the current bond amount required for a pod"
        }
      },
      "getPodOperators(uint256)": {
        "details": "Use paginated getPodOperators function instead if list gets too long",
        "params": {
          "pod": "the pod to query"
        },
        "returns": {
          "operators": "array list of operators in a pod"
        }
      },
      "getPodOperators(uint256,uint256,uint256)": {
        "details": "Use in conjunction with getPodOperatorsLength to know the total length of results",
        "params": {
          "index": "the array index to start from",
          "length": "the length of result set to be (will be shorter if reached end of array)",
          "pod": "the pod to query"
        },
        "returns": {
          "operators": "a paginated array of operators"
        }
      },
      "getPodOperatorsLength(uint256)": {
        "details": "Use in conjunction with paginated getPodOperators function",
        "params": {
          "pod": "the pod to query"
        },
        "returns": {
          "_0": "total operators in a pod"
        }
      },
      "getRegistry()": {
        "details": "This module stores a reference for all deployed holographable smart contracts"
      },
      "getTotalPods()": {
        "details": "This returns number of pods that have been opened via bonding"
      },
      "getUtilityToken()": {
        "details": "This is the official utility token of the Holograph Protocol"
      },
      "init(bytes)": {
        "details": "This function is called by the deployer/factory when creating a contract",
        "params": {
          "initPayload": "abi encoded payload to use for contract initilaization"
        }
      },
      "jobEstimator(bytes)": {
        "details": "Use this function to estimate the amount of gas that will be used by the bridgeInRequest function      Set a specific gas limit when making this call, subtract return value, to get total gas used      Only use this with a static call",
        "params": {
          "bridgeInRequestPayload": "abi encoded bytes making up the bridgeInRequest payload"
        },
        "returns": {
          "_0": "the gas amount remaining after the static call is returned"
        }
      },
      "resetOperator(uint256,uint256,uint256,uint256,uint256,uint256)": {
        "details": "temp function, used for quicker updates/resets during development      NOT PART OF FINAL CODE !!!"
      },
      "send(uint256,uint256,uint32,address,uint256,address,bytes)": {
        "details": "This function is restricted to only be callable by Holograph Bridge",
        "params": {
          "bridgeOutPayload": "bytes made up of the bridgeOutRequest payload",
          "gasLimit": "maximum amount of gas to spend for executing the beam on destination chain",
          "gasPrice": "maximum amount of gas price (in destination chain native gas token) to pay on destination chain",
          "holographableContract": "address of the contract for which the bridge request is being made",
          "nonce": "incremented number used to ensure job hashes are unique",
          "toChain": "Holograph Chain ID where the beam is being sent to"
        }
      },
      "setBridge(address)": {
        "params": {
          "bridge": "address of the Holograph Bridge smart contract to use"
        }
      },
      "setHolograph(address)": {
        "params": {
          "holograph": "address of the Holograph Protocol smart contract to use"
        }
      },
      "setInterfaces(address)": {
        "params": {
          "interfaces": "address of the Holograph Interfaces smart contract to use"
        }
      },
      "setMessagingModule(address)": {
        "params": {
          "messagingModule": "address of the LayerZero Endpoint to use"
        }
      },
      "setRegistry(address)": {
        "params": {
          "registry": "address of the Holograph Registry smart contract to use"
        }
      },
      "setUtilityToken(address)": {
        "params": {
          "utilityToken": "address of the Holograph Utility Token smart contract to use"
        }
      },
      "topupUtilityToken(address,uint256)": {
        "details": "Useful function if an operator got slashed and wants to add a safety buffer to not get unbonded      This function will not work if operator has currently been selected for a job",
        "params": {
          "amount": "utility token amount to add",
          "operator": "address of operator to topup"
        }
      },
      "unbondUtilityToken(address,address)": {
        "details": "A bonded operator selected for a job cannot unbond until they complete the job, or are slashed",
        "params": {
          "operator": "address of operator to unbond",
          "recipient": "address where to send the bonded tokens"
        }
      }
    },
    "stateVariables": {
      "_baseBondAmount": {
        "details": "Minimum amount of tokens needed for bonding"
      },
      "_blockTime": {
        "details": "Internal number (in seconds), used for defining a window for operator to execute the job"
      },
      "_bondedAmounts": {
        "details": "Internal mapping of bonded operator amounts"
      },
      "_bondedOperators": {
        "details": "Internal mapping of bonded operators, to prevent double bonding"
      },
      "_bridgeSlot": {
        "details": "bytes32(uint256(keccak256('eip1967.Holograph.bridge')) - 1)"
      },
      "_failedJobs": {
        "details": "Internal mapping of operator job details for a specific job hash"
      },
      "_holographSlot": {
        "details": "bytes32(uint256(keccak256('eip1967.Holograph.holograph')) - 1)"
      },
      "_inboundMessageCounter": {
        "details": "Internal counter of all cross-chain messages received"
      },
      "_interfacesSlot": {
        "details": "bytes32(uint256(keccak256('eip1967.Holograph.interfaces')) - 1)"
      },
      "_jobNonceSlot": {
        "details": "bytes32(uint256(keccak256('eip1967.Holograph.jobNonce')) - 1)"
      },
      "_messagingModuleSlot": {
        "details": "bytes32(uint256(keccak256('eip1967.Holograph.messagingModule')) - 1)"
      },
      "_operatorJobs": {
        "details": "Internal mapping of operator job details for a specific job hash"
      },
      "_operatorPodIndex": {
        "details": "Internal mapping of bonded operators, to prevent double bonding"
      },
      "_operatorPods": {
        "details": "Multi-dimensional array of available operators"
      },
      "_operatorTempStorage": {
        "details": "Internal mapping of operator addresses, used for temp storage when defining an operator job"
      },
      "_operatorTempStorageCounter": {
        "details": "Internal index used for storing/referencing operator temp storage"
      },
      "_operatorThreshold": {
        "details": "The threshold used for limiting number of operators in a pod"
      },
      "_operatorThresholdDivisor": {
        "details": "The threshold divisor used for increasing bond amount once threshold is reached"
      },
      "_operatorThresholdStep": {
        "details": "The threshold step used for increasing bond amount once threshold is reached"
      },
      "_podMultiplier": {
        "details": "The multiplier used for calculating bonding amount for pods"
      },
      "_registrySlot": {
        "details": "bytes32(uint256(keccak256('eip1967.Holograph.registry')) - 1)"
      },
      "_utilityTokenSlot": {
        "details": "bytes32(uint256(keccak256('eip1967.Holograph.utilityToken')) - 1)"
      }
    },
    "title": "Holograph Operator",
    "version": 1
  },
  "userdoc": {
    "kind": "user",
    "methods": {
      "bondUtilityToken(address,uint256,uint256)": {
        "notice": "Bond utility tokens and become an operator"
      },
      "crossChainMessage(bytes)": {
        "notice": "Receive a cross-chain message"
      },
      "executeJob(bytes)": {
        "notice": "Execute an available operator job"
      },
      "getBondedAmount(address)": {
        "notice": "Get an operator's currently bonded amount"
      },
      "getBondedPod(address)": {
        "notice": "Get an operator's currently bonded pod"
      },
      "getBridge()": {
        "notice": "Get the address of the Holograph Bridge module"
      },
      "getHolograph()": {
        "notice": "Get the Holograph Protocol contract"
      },
      "getInterfaces()": {
        "notice": "Get the address of the Holograph Interfaces module"
      },
      "getJobDetails(bytes32)": {
        "notice": "Get the details for an available operator job"
      },
      "getMessageFee(uint32,uint256,uint256,bytes)": {
        "notice": "Get the fees associated with sending specific payload"
      },
      "getMessagingModule()": {
        "notice": "Get the address of the Holograph Messaging Module"
      },
      "getPodBondAmounts(uint256)": {
        "notice": "Check the base and current price for bonding to a particular pod"
      },
      "getPodOperators(uint256)": {
        "notice": "Get list of operators in a pod"
      },
      "getPodOperators(uint256,uint256,uint256)": {
        "notice": "Get paginated list of operators in a pod"
      },
      "getPodOperatorsLength(uint256)": {
        "notice": "Get total number of operators in a pod"
      },
      "getRegistry()": {
        "notice": "Get the Holograph Registry module"
      },
      "getTotalPods()": {
        "notice": "Get number of pods available"
      },
      "getUtilityToken()": {
        "notice": "Get the Holograph Utility Token address"
      },
      "init(bytes)": {
        "notice": "Used internally to initialize the contract instead of through a constructor"
      },
      "jobEstimator(bytes)": {
        "notice": "Calculate the amount of gas needed to execute a bridgeInRequest"
      },
      "send(uint256,uint256,uint32,address,uint256,address,bytes)": {
        "notice": "Send cross chain bridge request message"
      },
      "setBridge(address)": {
        "notice": "Update the Holograph Bridge module address"
      },
      "setHolograph(address)": {
        "notice": "Update the Holograph Protocol contract address"
      },
      "setInterfaces(address)": {
        "notice": "Update the Holograph Interfaces module address"
      },
      "setMessagingModule(address)": {
        "notice": "Update the Holograph Messaging Module address"
      },
      "setRegistry(address)": {
        "notice": "Update the Holograph Registry module address"
      },
      "setUtilityToken(address)": {
        "notice": "Update the Holograph Utility Token address"
      },
      "topupUtilityToken(address,uint256)": {
        "notice": "Topup a bonded operator with more utility tokens"
      },
      "unbondUtilityToken(address,address)": {
        "notice": "Unbond HLG utility tokens and stop being an operator"
      }
    },
    "notice": "Participate in the Holograph Protocol by becoming an Operator",
    "version": 1
  },
  "storageLayout": {
    "storage": [
      {
        "astId": 1985,
        "contract": "contracts/HolographOperator.sol:HolographOperator",
        "label": "_blockTime",
        "offset": 0,
        "slot": "0",
        "type": "t_uint256"
      },
      {
        "astId": 1988,
        "contract": "contracts/HolographOperator.sol:HolographOperator",
        "label": "_baseBondAmount",
        "offset": 0,
        "slot": "1",
        "type": "t_uint256"
      },
      {
        "astId": 1991,
        "contract": "contracts/HolographOperator.sol:HolographOperator",
        "label": "_podMultiplier",
        "offset": 0,
        "slot": "2",
        "type": "t_uint256"
      },
      {
        "astId": 1994,
        "contract": "contracts/HolographOperator.sol:HolographOperator",
        "label": "_operatorThreshold",
        "offset": 0,
        "slot": "3",
        "type": "t_uint256"
      },
      {
        "astId": 1997,
        "contract": "contracts/HolographOperator.sol:HolographOperator",
        "label": "_operatorThresholdStep",
        "offset": 0,
        "slot": "4",
        "type": "t_uint256"
      },
      {
        "astId": 2000,
        "contract": "contracts/HolographOperator.sol:HolographOperator",
        "label": "_operatorThresholdDivisor",
        "offset": 0,
        "slot": "5",
        "type": "t_uint256"
      },
      {
        "astId": 2003,
        "contract": "contracts/HolographOperator.sol:HolographOperator",
        "label": "_inboundMessageCounter",
        "offset": 0,
        "slot": "6",
        "type": "t_uint256"
      },
      {
        "astId": 2008,
        "contract": "contracts/HolographOperator.sol:HolographOperator",
        "label": "_operatorJobs",
        "offset": 0,
        "slot": "7",
        "type": "t_mapping(t_bytes32,t_uint256)"
      },
      {
        "astId": 2013,
        "contract": "contracts/HolographOperator.sol:HolographOperator",
        "label": "_failedJobs",
        "offset": 0,
        "slot": "8",
        "type": "t_mapping(t_bytes32,t_bool)"
      },
      {
        "astId": 2018,
        "contract": "contracts/HolographOperator.sol:HolographOperator",
        "label": "_operatorTempStorage",
        "offset": 0,
        "slot": "9",
        "type": "t_mapping(t_uint256,t_address)"
      },
      {
        "astId": 2021,
        "contract": "contracts/HolographOperator.sol:HolographOperator",
        "label": "_operatorTempStorageCounter",
        "offset": 0,
        "slot": "10",
        "type": "t_uint32"
      },
      {
        "astId": 2026,
        "contract": "contracts/HolographOperator.sol:HolographOperator",
        "label": "_operatorPods",
        "offset": 0,
        "slot": "11",
        "type": "t_array(t_array(t_address)dyn_storage)dyn_storage"
      },
      {
        "astId": 2031,
        "contract": "contracts/HolographOperator.sol:HolographOperator",
        "label": "_bondedOperators",
        "offset": 0,
        "slot": "12",
        "type": "t_mapping(t_address,t_uint256)"
      },
      {
        "astId": 2036,
        "contract": "contracts/HolographOperator.sol:HolographOperator",
        "label": "_operatorPodIndex",
        "offset": 0,
        "slot": "13",
        "type": "t_mapping(t_address,t_uint256)"
      },
      {
        "astId": 2041,
        "contract": "contracts/HolographOperator.sol:HolographOperator",
        "label": "_bondedAmounts",
        "offset": 0,
        "slot": "14",
        "type": "t_mapping(t_address,t_uint256)"
      }
    ],
    "types": {
      "t_address": {
        "encoding": "inplace",
        "label": "address",
        "numberOfBytes": "20"
      },
      "t_array(t_address)dyn_storage": {
        "base": "t_address",
        "encoding": "dynamic_array",
        "label": "address[]",
        "numberOfBytes": "32"
      },
      "t_array(t_array(t_address)dyn_storage)dyn_storage": {
        "base": "t_array(t_address)dyn_storage",
        "encoding": "dynamic_array",
        "label": "address[][]",
        "numberOfBytes": "32"
      },
      "t_bool": {
        "encoding": "inplace",
        "label": "bool",
        "numberOfBytes": "1"
      },
      "t_bytes32": {
        "encoding": "inplace",
        "label": "bytes32",
        "numberOfBytes": "32"
      },
      "t_mapping(t_address,t_uint256)": {
        "encoding": "mapping",
        "key": "t_address",
        "label": "mapping(address => uint256)",
        "numberOfBytes": "32",
        "value": "t_uint256"
      },
      "t_mapping(t_bytes32,t_bool)": {
        "encoding": "mapping",
        "key": "t_bytes32",
        "label": "mapping(bytes32 => bool)",
        "numberOfBytes": "32",
        "value": "t_bool"
      },
      "t_mapping(t_bytes32,t_uint256)": {
        "encoding": "mapping",
        "key": "t_bytes32",
        "label": "mapping(bytes32 => uint256)",
        "numberOfBytes": "32",
        "value": "t_uint256"
      },
      "t_mapping(t_uint256,t_address)": {
        "encoding": "mapping",
        "key": "t_uint256",
        "label": "mapping(uint256 => address)",
        "numberOfBytes": "32",
        "value": "t_address"
      },
      "t_uint256": {
        "encoding": "inplace",
        "label": "uint256",
        "numberOfBytes": "32"
      },
      "t_uint32": {
        "encoding": "inplace",
        "label": "uint32",
        "numberOfBytes": "4"
      }
    }
  }
}