{
  "address": "0xb485FA02Dc214c881Ca9ba95bE797E14F33e9631",
  "abi": [
    {
      "inputs": [],
      "stateMutability": "nonpayable",
      "type": "constructor"
    },
    {
      "anonymous": false,
      "inputs": [
        {
          "indexed": false,
          "internalType": "bytes32",
          "name": "jobHash",
          "type": "bytes32"
        },
        {
          "indexed": false,
          "internalType": "bytes",
          "name": "payload",
          "type": "bytes"
        }
      ],
      "name": "AvailableOperatorJob",
      "type": "event"
    },
    {
      "inputs": [],
      "name": "admin",
      "outputs": [
        {
          "internalType": "address",
          "name": "",
          "type": "address"
        }
      ],
      "stateMutability": "view",
      "type": "function"
    },
    {
      "inputs": [
        {
          "internalType": "address",
          "name": "target",
          "type": "address"
        },
        {
          "internalType": "bytes",
          "name": "data",
          "type": "bytes"
        }
      ],
      "name": "adminCall",
      "outputs": [],
      "stateMutability": "payable",
      "type": "function"
    },
    {
      "inputs": [
        {
          "internalType": "address",
          "name": "operator",
          "type": "address"
        },
        {
          "internalType": "uint256",
          "name": "amount",
          "type": "uint256"
        },
        {
          "internalType": "uint256",
          "name": "pod",
          "type": "uint256"
        }
      ],
      "name": "bondUtilityToken",
      "outputs": [],
      "stateMutability": "nonpayable",
      "type": "function"
    },
    {
      "inputs": [
        {
          "internalType": "bytes",
          "name": "_payload",
          "type": "bytes"
        }
      ],
      "name": "executeJob",
      "outputs": [],
      "stateMutability": "payable",
      "type": "function"
    },
    {
      "inputs": [],
      "name": "getAdmin",
      "outputs": [
        {
          "internalType": "address",
          "name": "adminAddress",
          "type": "address"
        }
      ],
      "stateMutability": "view",
      "type": "function"
    },
    {
      "inputs": [
        {
          "internalType": "address",
          "name": "operator",
          "type": "address"
        }
      ],
      "name": "getBondedPod",
      "outputs": [
        {
          "internalType": "uint256",
          "name": "pod",
          "type": "uint256"
        }
      ],
      "stateMutability": "view",
      "type": "function"
    },
    {
      "inputs": [],
      "name": "getBridge",
      "outputs": [
        {
          "internalType": "address",
          "name": "bridge",
          "type": "address"
        }
      ],
      "stateMutability": "view",
      "type": "function"
    },
    {
      "inputs": [],
      "name": "getInterfaces",
      "outputs": [
        {
          "internalType": "address",
          "name": "interfaces",
          "type": "address"
        }
      ],
      "stateMutability": "view",
      "type": "function"
    },
    {
      "inputs": [
        {
          "internalType": "bytes32",
          "name": "jobHash",
          "type": "bytes32"
        }
      ],
      "name": "getJobDetails",
      "outputs": [
        {
          "components": [
            {
              "internalType": "uint8",
              "name": "pod",
              "type": "uint8"
            },
            {
              "internalType": "uint16",
              "name": "blockTimes",
              "type": "uint16"
            },
            {
              "internalType": "address",
              "name": "operator",
              "type": "address"
            },
            {
              "internalType": "uint40",
              "name": "startBlock",
              "type": "uint40"
            },
            {
              "internalType": "uint64",
              "name": "startTimestamp",
              "type": "uint64"
            },
            {
              "internalType": "uint16[5]",
              "name": "fallbackOperators",
              "type": "uint16[5]"
            }
          ],
          "internalType": "struct OperatorJob",
          "name": "",
          "type": "tuple"
        }
      ],
      "stateMutability": "view",
      "type": "function"
    },
    {
      "inputs": [],
      "name": "getLZEndpoint",
      "outputs": [
        {
          "internalType": "address",
          "name": "lZEndpoint",
          "type": "address"
        }
      ],
      "stateMutability": "view",
      "type": "function"
    },
    {
      "inputs": [
        {
          "internalType": "uint256",
          "name": "pod",
          "type": "uint256"
        }
      ],
      "name": "getPodBondAmount",
      "outputs": [
        {
          "internalType": "uint256",
          "name": "base",
          "type": "uint256"
        },
        {
          "internalType": "uint256",
          "name": "current",
          "type": "uint256"
        }
      ],
      "stateMutability": "view",
      "type": "function"
    },
    {
      "inputs": [
        {
          "internalType": "uint256",
          "name": "pod",
          "type": "uint256"
        },
        {
          "internalType": "uint256",
          "name": "index",
          "type": "uint256"
        },
        {
          "internalType": "uint256",
          "name": "length",
          "type": "uint256"
        }
      ],
      "name": "getPodOperators",
      "outputs": [
        {
          "internalType": "address[]",
          "name": "operators",
          "type": "address[]"
        }
      ],
      "stateMutability": "view",
      "type": "function"
    },
    {
      "inputs": [
        {
          "internalType": "uint256",
          "name": "pod",
          "type": "uint256"
        }
      ],
      "name": "getPodOperators",
      "outputs": [
        {
          "internalType": "address[]",
          "name": "operators",
          "type": "address[]"
        }
      ],
      "stateMutability": "view",
      "type": "function"
    },
    {
      "inputs": [],
      "name": "getRegistry",
      "outputs": [
        {
          "internalType": "address",
          "name": "registry",
          "type": "address"
        }
      ],
      "stateMutability": "view",
      "type": "function"
    },
    {
      "inputs": [],
      "name": "getUtilityToken",
      "outputs": [
        {
          "internalType": "address",
          "name": "utilityToken",
          "type": "address"
        }
      ],
      "stateMutability": "view",
      "type": "function"
    },
    {
      "inputs": [
        {
          "internalType": "bytes",
          "name": "data",
          "type": "bytes"
        }
      ],
      "name": "init",
      "outputs": [
        {
          "internalType": "bytes4",
          "name": "",
          "type": "bytes4"
        }
      ],
      "stateMutability": "nonpayable",
      "type": "function"
    },
    {
      "inputs": [
        {
          "internalType": "bytes",
          "name": "_payload",
          "type": "bytes"
        }
      ],
      "name": "jobEstimator",
      "outputs": [
        {
          "internalType": "uint256",
          "name": "",
          "type": "uint256"
        }
      ],
      "stateMutability": "payable",
      "type": "function"
    },
    {
      "inputs": [
        {
          "internalType": "uint16",
          "name": "",
          "type": "uint16"
        },
        {
          "internalType": "bytes",
          "name": "_srcAddress",
          "type": "bytes"
        },
        {
          "internalType": "uint64",
          "name": "",
          "type": "uint64"
        },
        {
          "internalType": "bytes",
          "name": "_payload",
          "type": "bytes"
        }
      ],
      "name": "lzReceive",
      "outputs": [],
      "stateMutability": "payable",
      "type": "function"
    },
    {
      "inputs": [
        {
          "internalType": "uint256",
          "name": "gasLimit",
          "type": "uint256"
        },
        {
          "internalType": "uint256",
          "name": "gasPrice",
          "type": "uint256"
        },
        {
          "internalType": "uint32",
          "name": "toChain",
          "type": "uint32"
        },
        {
          "internalType": "address",
          "name": "msgSender",
          "type": "address"
        },
        {
          "internalType": "bytes",
          "name": "_payload",
          "type": "bytes"
        }
      ],
      "name": "send",
      "outputs": [],
      "stateMutability": "payable",
      "type": "function"
    },
    {
      "inputs": [
        {
          "internalType": "address",
          "name": "adminAddress",
          "type": "address"
        }
      ],
      "name": "setAdmin",
      "outputs": [],
      "stateMutability": "nonpayable",
      "type": "function"
    },
    {
      "inputs": [
        {
          "internalType": "address",
          "name": "bridge",
          "type": "address"
        }
      ],
      "name": "setBridge",
      "outputs": [],
      "stateMutability": "nonpayable",
      "type": "function"
    },
    {
      "inputs": [
        {
          "internalType": "address",
          "name": "interfaces",
          "type": "address"
        }
      ],
      "name": "setInterfaces",
      "outputs": [],
      "stateMutability": "nonpayable",
      "type": "function"
    },
    {
      "inputs": [
        {
          "internalType": "address",
          "name": "lZEndpoint",
          "type": "address"
        }
      ],
      "name": "setLZEndpoint",
      "outputs": [],
      "stateMutability": "nonpayable",
      "type": "function"
    },
    {
      "inputs": [
        {
          "internalType": "address",
          "name": "registry",
          "type": "address"
        }
      ],
      "name": "setRegistry",
      "outputs": [],
      "stateMutability": "nonpayable",
      "type": "function"
    },
    {
      "inputs": [
        {
          "internalType": "address",
          "name": "utilityToken",
          "type": "address"
        }
      ],
      "name": "setUtilityToken",
      "outputs": [],
      "stateMutability": "nonpayable",
      "type": "function"
    },
    {
      "inputs": [
        {
          "internalType": "address",
          "name": "operator",
          "type": "address"
        },
        {
          "internalType": "address",
          "name": "recipient",
          "type": "address"
        }
      ],
      "name": "unbondUtilityToken",
      "outputs": [],
      "stateMutability": "nonpayable",
      "type": "function"
    }
  ],
  "transactionHash": "0x2321fdb8b6ac3ebc3a1f7c364bb1dbffd741f9fc5fb5ad1ecbe3f166f65513c0",
  "args": [],
  "numDeployments": 2,
  "solcInputHash": "b5e67cf3d377a96ccbe804fbc6a54ade",
  "bytecode": "0x608060405234801561001057600080fd5b50613817806100206000396000f3fe60806040526004361061019f5760003560e01c8063778fd1d1116100e1578063a91ee0dc1161008a578063da8292d911610064578063da8292d91461054d578063da9b26e61461056d578063ebac15f914610580578063f851a440146105b457600080fd5b8063a91ee0dc14610507578063b24b2afc14610527578063bf64a82d1461053a57600080fd5b80638dd14802116100bb5780638dd14802146104765780639013ae081461049657806391e0d46b146104b657600080fd5b8063778fd1d1146104235780637868674d146104365780638b432e4e1461045657600080fd5b80634b40f1bf1161014e5780635ab1bd53116101285780635ab1bd531461037b578063612a3372146103af5780636e9960c3146103cf578063704b6c021461040357600080fd5b80634b40f1bf146102d55780634ddf47d4146102f557806354d9f2fe1461034657600080fd5b806311a33bda1161017f57806311a33bda1461024757806327aa01f51461027457806336c5ab40146102a157600080fd5b80621d3567146101a4578062626679146101b95780630fffbaf314610213575b600080fd5b6101b76101b2366004612dfc565b6105c9565b005b3480156101c557600080fd5b507fbf76518d46db472b71aa7677a0908b8016f3dee568415ffa24055f9a670f9c37545b60405173ffffffffffffffffffffffffffffffffffffffff90911681526020015b60405180910390f35b34801561021f57600080fd5b507feb87cbb21687feb327e3d58c6c16d552231d12c7a0e8115042a4165fac8a77f9546101e9565b34801561025357600080fd5b50610267610262366004612e9f565b6109f0565b60405161020a9190612eb8565b34801561028057600080fd5b5061029461028f366004612f55565b610ac9565b60405161020a9190612f81565b3480156102ad57600080fd5b507f56825e447adf54cdde5f04815fcf9b1dd26ef9d5c053625147c18b7c13091686546101e9565b3480156102e157600080fd5b506101b76102f0366004612ffd565b610c91565b34801561030157600080fd5b50610315610310366004613049565b610d6b565b6040517fffffffff00000000000000000000000000000000000000000000000000000000909116815260200161020a565b34801561035257600080fd5b50610366610361366004612e9f565b610fa1565b6040805192835260208301919091520161020a565b34801561038757600080fd5b507fce8e75d5c5227ce29a4ee170160bb296e5dea6934b80a9bd723f7ef1e7c850e7546101e9565b3480156103bb57600080fd5b506101b76103ca366004613118565b610fd3565b3480156103db57600080fd5b507f3f106594dc74eeef980dae234cde8324dc2497b13d27a0c59e55bd2ca10a07c9546101e9565b34801561040f57600080fd5b506101b761041e366004612ffd565b6113c1565b6101b7610431366004613151565b61149b565b34801561044257600080fd5b50610294610451366004612e9f565b611bb6565b34801561046257600080fd5b506101b7610471366004613193565b611cb9565b34801561048257600080fd5b506101b7610491366004612ffd565b6120db565b3480156104a257600080fd5b506101b76104b1366004612ffd565b6121b5565b3480156104c257600080fd5b506104f96104d1366004612ffd565b73ffffffffffffffffffffffffffffffffffffffff166000908152600a602052604090205490565b60405190815260200161020a565b34801561051357600080fd5b506101b7610522366004612ffd565b61228f565b6104f9610535366004613151565b612369565b6101b76105483660046131c8565b6123c3565b34801561055957600080fd5b506101b7610568366004612ffd565b61249e565b6101b761057b36600461321d565b612578565b34801561058c57600080fd5b507fbd3084b8c09da87ad159c247a60e209784196be2530cecbbd8f337fdd1848827546101e9565b3480156105c057600080fd5b506101e9612864565b7f56825e447adf54cdde5f04815fcf9b1dd26ef9d5c053625147c18b7c130916865433148061066d573033148061066b577f08c379a0000000000000000000000000000000000000000000000000000000006080527c200000000000000000000000000000000000000000000000000000000060a0527c1b484f4c4f47524150483a204c5a206f6e6c7920656e64706f696e740060c052600060e05260c46080fd5b505b506040518486600c8301378051301480610711577f08c379a0000000000000000000000000000000000000000000000000000000006080527c200000000000000000000000000000000000000000000000000000000060a0527c1e484f4c4f47524150483a20756e617574686f72697a65642073656e6460c0527f657200000000000000000000000000000000000000000000000000000000000060e05260c46080fd5b505060008282604051610725929190613290565b6040519081900390206008805463ffffffff808216600101167fffffffffffffffffffffffffffffffffffffffffffffffffffffffff00000000909116179055905060008161079a7f1cda64803f3b43503042e00863791e8d996666552d5855a78d53ee1dd4b3286d80546001019081905590565b60408051602081019390935282015243606082015242608082015260a001604080517fffffffffffffffffffffffffffffffffffffffffffffffffffffffffffffffe081840301815291905280516020909101206009549091506000908281610805576108056132a0565b06905060006009828154811061081d5761081d6132cf565b60009182526020822001549150818481610839576108396132a0565b0690506009838154811061084f5761084f6132cf565b90600052602060002001818154811061086a5761086a6132cf565b600091825260208083209091015460085463ffffffff1683526007909152604090912080547fffffffffffffffffffffffff00000000000000000000000000000000000000001673ffffffffffffffffffffffffffffffffffffffff9092169190911790556108d98382612893565b6001821115610908577fffffffffffffffffffffffffffffffffffffffffffffffffffffffffffffffff909101905b4260101b606061091a86856005612aed565b901b607061092a87866004612aed565b901b608061093a88876003612aed565b901b609061094a89886002612aed565b901b60a061095a8a896001612aed565b901b60b043901b60d8600860009054906101000a900463ffffffff1663ffffffff16901b60f88b600101901b171717171717171760001760066000878152602001908152602001600020819055507f4422a85db963f113e500bc4ada8f9e9f1a7bcd57cbec6907fbb2bf6aaf5878ff8588886040516109db939291906132fe565b60405180910390a15050505050505050505050565b6109f8612c29565b50600090815260066020908152604080832054815160c08101835260f882901c8152845461ffff9081168286015263ffffffff60d884901c16865260078552948390205473ffffffffffffffffffffffffffffffffffffffff168184015264ffffffffff60b083901c1660608083019190915267ffffffffffffffff601084901c16608080840191909152845160a0818101875285811c89168252609086901c89169782019790975284821c881695810195909552607084901c87168583015292901c909416908201529082015290565b600954606090841115610b3d576040517f08c379a000000000000000000000000000000000000000000000000000000000815260206004820152601d60248201527f484f4c4f47524150483a20706f6420646f6573206e6f7420657869737400000060448201526064015b60405180910390fd5b83610b4781613381565b945050600060098581548110610b5f57610b5f6132cf565b600091825260209091200154905080610b7884866133b6565b1115610b8b57610b8884826133ce565b92505b8267ffffffffffffffff811115610ba457610ba461301a565b604051908082528060200260200182016040528015610bcd578160200160208202803683370190505b50915060005b83811015610c885760098681548110610bee57610bee6132cf565b906000526020600020018186610c0491906133b6565b81548110610c1457610c146132cf565b9060005260206000200160009054906101000a900473ffffffffffffffffffffffffffffffffffffffff16838281518110610c5157610c516132cf565b73ffffffffffffffffffffffffffffffffffffffff9092166020928302919091019091015280610c80816133e5565b915050610bd3565b50509392505050565b7f3f106594dc74eeef980dae234cde8324dc2497b13d27a0c59e55bd2ca10a07c95473ffffffffffffffffffffffffffffffffffffffff163373ffffffffffffffffffffffffffffffffffffffff1614610d47576040517f08c379a000000000000000000000000000000000000000000000000000000000815260206004820152601e60248201527f484f4c4f47524150483a2061646d696e206f6e6c792066756e6374696f6e00006044820152606401610b34565b7f56825e447adf54cdde5f04815fcf9b1dd26ef9d5c053625147c18b7c1309168655565b6000610d957f4e5f991bca30eca2d4643aaefa807e88f96a4a97398933d572a3c0d973004a015490565b15610dfc576040517f08c379a000000000000000000000000000000000000000000000000000000000815260206004820152601e60248201527f484f4c4f47524150483a20616c726561647920696e697469616c697a656400006044820152606401610b34565b60008060008085806020019051810190610e16919061341d565b327f3f106594dc74eeef980dae234cde8324dc2497b13d27a0c59e55bd2ca10a07c9557feb87cbb21687feb327e3d58c6c16d552231d12c7a0e8115042a4165fac8a77f98490557fbd3084b8c09da87ad159c247a60e209784196be2530cecbbd8f337fdd18488278390557fce8e75d5c5227ce29a4ee170160bb296e5dea6934b80a9bd723f7ef1e7c850e78290557fbf76518d46db472b71aa7677a0908b8016f3dee568415ffa24055f9a670f9c37819055600a600081815568056bc75e2d631000006001908155600280556103e8600355600492909255606460055560408051808201909152602081019182529081529498509296509094509250610f1f91600991612c65565b5060008052600a60205260017f13da86008ba1c6922daee3e07db95305ef49ebced9f5467a0b8613fcc6b343e355610f7660017f4e5f991bca30eca2d4643aaefa807e88f96a4a97398933d572a3c0d973004a0155565b507f4ddf47d40000000000000000000000000000000000000000000000000000000095945050505050565b600080610fb7610fb26001856133ce565b612b0d565b9150610fcc610fc76001856133ce565b612b30565b9050915091565b73ffffffffffffffffffffffffffffffffffffffff82166000908152600a60205260408120549003611061576040517f08c379a000000000000000000000000000000000000000000000000000000000815260206004820152601e60248201527f484f4c4f47524150483a206f70657261746f72206e6f7420626f6e64656400006044820152606401610b34565b3373ffffffffffffffffffffffffffffffffffffffff8316146111e15761108782612bef565b6110ed576040517f08c379a000000000000000000000000000000000000000000000000000000000815260206004820181905260248201527f484f4c4f47524150483a206f70657261746f72206e6f7420636f6e74726163746044820152606401610b34565b6040517f2f54bf6e00000000000000000000000000000000000000000000000000000000815233600482015273ffffffffffffffffffffffffffffffffffffffff831690632f54bf6e90602401602060405180830381865afa158015611157573d6000803e3d6000fd5b505050506040513d601f19601f8201168201806040525081019061117b919061347c565b6111e1576040517f08c379a000000000000000000000000000000000000000000000000000000000815260206004820152601b60248201527f484f4c4f47524150483a2073656e646572206e6f74206f776e657200000000006044820152606401610b34565b73ffffffffffffffffffffffffffffffffffffffff82166000908152600c60205260409020547fbf76518d46db472b71aa7677a0908b8016f3dee568415ffa24055f9a670f9c37546040517fa9059cbb00000000000000000000000000000000000000000000000000000000815273ffffffffffffffffffffffffffffffffffffffff848116600483015260248201849052919091169063a9059cbb906044016020604051808303816000875af11580156112a0573d6000803e3d6000fd5b505050506040513d601f19601f820116820180604052508101906112c4919061347c565b61132a576040517f08c379a000000000000000000000000000000000000000000000000000000000815260206004820181905260248201527f484f4c4f47524150483a20746f6b656e207472616e73666572206661696c65646044820152606401610b34565b73ffffffffffffffffffffffffffffffffffffffff83166000908152600a602052604090205461138b90611360906001906133ce565b73ffffffffffffffffffffffffffffffffffffffff85166000908152600b6020526040902054612893565b505073ffffffffffffffffffffffffffffffffffffffff166000908152600a60209081526040808320839055600c909152812055565b7f3f106594dc74eeef980dae234cde8324dc2497b13d27a0c59e55bd2ca10a07c95473ffffffffffffffffffffffffffffffffffffffff163373ffffffffffffffffffffffffffffffffffffffff1614611477576040517f08c379a000000000000000000000000000000000000000000000000000000000815260206004820152601e60248201527f484f4c4f47524150483a2061646d696e206f6e6c792066756e6374696f6e00006044820152606401610b34565b7f3f106594dc74eeef980dae234cde8324dc2497b13d27a0c59e55bd2ca10a07c955565b600082826040516114ad929190613290565b604051809103902090506000600660008381526020019081526020016000205411611534576040517f08c379a000000000000000000000000000000000000000000000000000000000815260206004820152601660248201527f484f4c4f47524150483a20696e76616c6964206a6f62000000000000000000006044820152606401610b34565b8183017fffffffffffffffffffffffffffffffffffffffffffffffffffffffffffffffc0810135907fffffffffffffffffffffffffffffffffffffffffffffffffffffffffffffffe00135600061158a846109f0565b604081015190915073ffffffffffffffffffffffffffffffffffffffff1615611af15780516000906115be9060019061349e565b60ff1690503373ffffffffffffffffffffffffffffffffffffffff16826040015173ffffffffffffffffffffffffffffffffffffffff1614611a2a576000826080015167ffffffffffffffff164261161691906133ce565b90506000836020015161ffff168261162e91906134c1565b90506000811161169a576040517f08c379a000000000000000000000000000000000000000000000000000000000815260206004820152601c60248201527f484f4c4f47524150483a206f70657261746f72206861732074696d65000000006044820152606401610b34565b3a851015611704576040517f08c379a000000000000000000000000000000000000000000000000000000000815260206004820152601d60248201527f484f4c4f47524150483a20676173207370696b652064657465637465640000006044820152606401610b34565b60068110156118415760a08401516000906117206001846133ce565b60058110611730576117306132cf565b602002015161ffff1690506009848154811061174e5761174e6132cf565b60009182526020909120015481101561183f57600060098581548110611776576117766132cf565b906000526020600020018281548110611791576117916132cf565b60009182526020909120015473ffffffffffffffffffffffffffffffffffffffff169050338114806117d7575073ffffffffffffffffffffffffffffffffffffffff8116155b61183d576040517f08c379a000000000000000000000000000000000000000000000000000000000815260206004820152601b60248201527f484f4c4f47524150483a20696e76616c69642066616c6c6261636b00000000006044820152606401610b34565b505b505b600061184c84612b0d565b905080600c6000876040015173ffffffffffffffffffffffffffffffffffffffff1673ffffffffffffffffffffffffffffffffffffffff16815260200190815260200160002060008282546118a191906133ce565b9091555050336000908152600c6020526040812080548392906118c59084906133b6565b90915550600090506118d685612b30565b60408088015173ffffffffffffffffffffffffffffffffffffffff166000908152600c602052205490915081106119f6576009858154811061191a5761191a6132cf565b6000918252602080832060408a01519201805460018082018355918552919093200180547fffffffffffffffffffffffff00000000000000000000000000000000000000001673ffffffffffffffffffffffffffffffffffffffff9092169190911790556009805487908110611992576119926132cf565b6000918252602090912001546119a891906133ce565b6040808801805173ffffffffffffffffffffffffffffffffffffffff9081166000908152600b6020908152848220959095558a5192519091168152600a909352912060ff9091169055611a21565b60408087015173ffffffffffffffffffffffffffffffffffffffff166000908152600c602052908120555b50505050611aef565b60098181548110611a3d57611a3d6132cf565b60009182526020808320909101805460018181018355918452919092200180547fffffffffffffffffffffffff000000000000000000000000000000000000000016331790556009805483908110611a9757611a976132cf565b600091825260209091200154611aad91906133ce565b60408084015173ffffffffffffffffffffffffffffffffffffffff166000908152600b6020908152828220939093558451338252600a9093522060ff90911690555b505b825a11611b5a576040517f08c379a000000000000000000000000000000000000000000000000000000000815260206004820152601e60248201527f484f4c4f47524150483a206e6f7420656e6f75676820676173206c65667400006044820152606401610b34565b6040850386600037600080604087036000347feb87cbb21687feb327e3d58c6c16d552231d12c7a0e8115042a4165fac8a77f95488f180611b9f573d6000803e3d6000fd5b505050600091825250600660205260408120555050565b600954606090821115611c25576040517f08c379a000000000000000000000000000000000000000000000000000000000815260206004820152601d60248201527f484f4c4f47524150483a20706f6420646f6573206e6f742065786973740000006044820152606401610b34565b6009611c326001846133ce565b81548110611c4257611c426132cf565b90600052602060002001805480602002602001604051908101604052809291908181526020018280548015611cad57602002820191906000526020600020905b815473ffffffffffffffffffffffffffffffffffffffff168152600190910190602001808311611c82575b50505050509050919050565b73ffffffffffffffffffffffffffffffffffffffff83166000908152600a602052604090205415611d46576040517f08c379a000000000000000000000000000000000000000000000000000000000815260206004820152601d60248201527f484f4c4f47524150483a206f70657261746f7220697320626f6e6465640000006044820152606401610b34565b6000611d5460018303612b30565b905082811115611dc0576040517f08c379a000000000000000000000000000000000000000000000000000000000815260206004820181905260248201527f484f4c4f47524150483a20626f6e6420616d6f756e7420746f6f20736d616c6c6044820152606401610b34565b600954821115611e2e576009545b828111611e2c5760408051602081019091526000808252600980546001818101835591909252611e23927f6e1540171b6c0c960b71a7020d9f60077f6af931a8bbf590da0223dacf75c7af9092019190612cbc565b50600101611dce565b505b61ffff801660096001840381548110611e4957611e496132cf565b60009182526020909120015410611ebc576040517f08c379a000000000000000000000000000000000000000000000000000000000815260206004820152601d60248201527f484f4c4f47524150483a20746f6f206d616e79206f70657261746f72730000006044820152606401610b34565b7fbf76518d46db472b71aa7677a0908b8016f3dee568415ffa24055f9a670f9c37546040517f23b872dd0000000000000000000000000000000000000000000000000000000081523360048201523060248201526044810185905273ffffffffffffffffffffffffffffffffffffffff91909116906323b872dd906064016020604051808303816000875af1158015611f59573d6000803e3d6000fd5b505050506040513d601f19601f82011682018060405250810190611f7d919061347c565b611fe3576040517f08c379a000000000000000000000000000000000000000000000000000000000815260206004820181905260248201527f484f4c4f47524150483a20746f6b656e207472616e73666572206661696c65646044820152606401610b34565b60096001830381548110611ff957611ff96132cf565b6000918252602080832091909101805460018082018355918452919092200180547fffffffffffffffffffffffff00000000000000000000000000000000000000001673ffffffffffffffffffffffffffffffffffffffff8716179055600980547fffffffffffffffffffffffffffffffffffffffffffffffffffffffffffffffff850190811061208c5761208c6132cf565b600091825260208083209091015473ffffffffffffffffffffffffffffffffffffffff9097168252600b8152604080832093909703909255600a825285812093909355600c9052509190912055565b7f3f106594dc74eeef980dae234cde8324dc2497b13d27a0c59e55bd2ca10a07c95473ffffffffffffffffffffffffffffffffffffffff163373ffffffffffffffffffffffffffffffffffffffff1614612191576040517f08c379a000000000000000000000000000000000000000000000000000000000815260206004820152601e60248201527f484f4c4f47524150483a2061646d696e206f6e6c792066756e6374696f6e00006044820152606401610b34565b7feb87cbb21687feb327e3d58c6c16d552231d12c7a0e8115042a4165fac8a77f955565b7f3f106594dc74eeef980dae234cde8324dc2497b13d27a0c59e55bd2ca10a07c95473ffffffffffffffffffffffffffffffffffffffff163373ffffffffffffffffffffffffffffffffffffffff161461226b576040517f08c379a000000000000000000000000000000000000000000000000000000000815260206004820152601e60248201527f484f4c4f47524150483a2061646d696e206f6e6c792066756e6374696f6e00006044820152606401610b34565b7fbf76518d46db472b71aa7677a0908b8016f3dee568415ffa24055f9a670f9c3755565b7f3f106594dc74eeef980dae234cde8324dc2497b13d27a0c59e55bd2ca10a07c95473ffffffffffffffffffffffffffffffffffffffff163373ffffffffffffffffffffffffffffffffffffffff1614612345576040517f08c379a000000000000000000000000000000000000000000000000000000000815260206004820152601e60248201527f484f4c4f47524150483a2061646d696e206f6e6c792066756e6374696f6e00006044820152606401610b34565b7fce8e75d5c5227ce29a4ee170160bb296e5dea6934b80a9bd723f7ef1e7c850e755565b60006040820383600037600060e353600080604084036000347feb87cbb21687feb327e3d58c6c16d552231d12c7a0e8115042a4165fac8a77f9545af1600181036123b8573d6000803e3d6000fd5b505a60005260206000f35b7f3f106594dc74eeef980dae234cde8324dc2497b13d27a0c59e55bd2ca10a07c95473ffffffffffffffffffffffffffffffffffffffff163373ffffffffffffffffffffffffffffffffffffffff1614612479576040517f08c379a000000000000000000000000000000000000000000000000000000000815260206004820152601e60248201527f484f4c4f47524150483a2061646d696e206f6e6c792066756e6374696f6e00006044820152606401610b34565b808260003760008082600034875af13d6000803e808015612499573d6000f35b3d6000fd5b7f3f106594dc74eeef980dae234cde8324dc2497b13d27a0c59e55bd2ca10a07c95473ffffffffffffffffffffffffffffffffffffffff163373ffffffffffffffffffffffffffffffffffffffff1614612554576040517f08c379a000000000000000000000000000000000000000000000000000000000815260206004820152601e60248201527f484f4c4f47524150483a2061646d696e206f6e6c792066756e6374696f6e00006044820152606401610b34565b7fbd3084b8c09da87ad159c247a60e209784196be2530cecbbd8f337fdd184882755565b7feb87cbb21687feb327e3d58c6c16d552231d12c7a0e8115042a4165fac8a77f95473ffffffffffffffffffffffffffffffffffffffff163373ffffffffffffffffffffffffffffffffffffffff161461262e576040517f08c379a000000000000000000000000000000000000000000000000000000000815260206004820152601b60248201527f484f4c4f47524150483a20627269646765206f6e6c792063616c6c00000000006044820152606401610b34565b7f56825e447adf54cdde5f04815fcf9b1dd26ef9d5c053625147c18b7c130916865473ffffffffffffffffffffffffffffffffffffffff811663c5803100346126957fbd3084b8c09da87ad159c247a60e209784196be2530cecbbd8f337fdd18488275490565b73ffffffffffffffffffffffffffffffffffffffff166320fc06ea60028a63ffffffff1660036040518463ffffffff1660e01b81526004016126d993929190613537565b602060405180830381865afa1580156126f6573d6000803e3d6000fd5b505050506040513d601f19601f8201168201806040525081019061271a9190613560565b6040517fffffffffffffffffffffffffffffffffffffffff0000000000000000000000003060601b1660208201819052603482015260480160405160208183030381529060405287878d8d6040516020016127789493929190613579565b604080517fffffffffffffffffffffffffffffffffffffffffffffffffffffffffffffffe0818403018152919052893060016127b58b6019613593565b6127c19061cb206133b6565b60405160f09290921b7fffff00000000000000000000000000000000000000000000000000000000000016602083015260228201526042016040516020818303038152906040526040518863ffffffff1660e01b81526004016128299695949392919061363b565b6000604051808303818588803b15801561284257600080fd5b505af1158015612856573d6000803e3d6000fd5b505050505050505050505050565b600061288e7f3f106594dc74eeef980dae234cde8324dc2497b13d27a0c59e55bd2ca10a07c95490565b905090565b8015612ae9576000600983815481106128ae576128ae6132cf565b9060005260206000200182815481106128c9576128c96132cf565b600091825260208083209091015473ffffffffffffffffffffffffffffffffffffffff16808352600a82526040808420849055600b9092529082208290556009805491935060019186908110612921576129216132cf565b600091825260209091200154039050828114612a02576009848154811061294a5761294a6132cf565b906000526020600020018181548110612965576129656132cf565b6000918252602090912001546009805473ffffffffffffffffffffffffffffffffffffffff909216918690811061299e5761299e6132cf565b9060005260206000200184815481106129b9576129b96132cf565b9060005260206000200160006101000a81548173ffffffffffffffffffffffffffffffffffffffff021916908373ffffffffffffffffffffffffffffffffffffffff1602179055505b60098481548110612a1557612a156132cf565b906000526020600020018181548110612a3057612a306132cf565b600091825260209091200180547fffffffffffffffffffffffff00000000000000000000000000000000000000001690556009805485908110612a7557612a756132cf565b90600052602060002001805480612a8e57612a8e6136af565b60008281526020902081017fffffffffffffffffffffffffffffffffffffffffffffffffffffffffffffffff90810180547fffffffffffffffffffffffff000000000000000000000000000000000000000016905501905550505b5050565b6000824383900340850181612b0457612b046132a0565b06949350505050565b600060015482600254612b2091906137fe565b612b2a9190613593565b92915050565b60008060015483600254612b4491906137fe565b612b4e9190613593565b600954909150831115612b615792915050565b6000612b6e8460026137fe565b600354612b7b91906134c1565b9050600060098581548110612b9257612b926132cf565b600091825260209091200154905081811115612be657612bb282826133ce565b905060045481612bc291906134c1565b600554612bcf90856134c1565b612bd99190613593565b612be390846133b6565b92505b50909392505050565b6000813f8015801590612c2257507fc5d2460186f7233c927e7db2dcc703c0e500b653ca82273b7bfad8045d85a4708114155b9392505050565b6040805160c08101825260008082526020820181905291810182905260608101829052608081019190915260a08101612c60612d42565b905290565b828054828255906000526020600020908101928215612cac579160200282015b82811115612cac578251612c9c9083906001612cbc565b5091602001919060010190612c85565b50612cb8929150612d60565b5090565b828054828255906000526020600020908101928215612d36579160200282015b82811115612d3657825182547fffffffffffffffffffffffff00000000000000000000000000000000000000001673ffffffffffffffffffffffffffffffffffffffff909116178255602090920191600190910190612cdc565b50612cb8929150612d7d565b6040518060a001604052806005906020820280368337509192915050565b80821115612cb8576000612d748282612d92565b50600101612d60565b5b80821115612cb85760008155600101612d7e565b5080546000825590600052602060002090810190612db09190612d7d565b50565b60008083601f840112612dc557600080fd5b50813567ffffffffffffffff811115612ddd57600080fd5b602083019150836020828501011115612df557600080fd5b9250929050565b60008060008060008060808789031215612e1557600080fd5b863561ffff81168114612e2757600080fd5b9550602087013567ffffffffffffffff80821115612e4457600080fd5b612e508a838b01612db3565b9097509550604089013591508082168214612e6a57600080fd5b90935060608801359080821115612e8057600080fd5b50612e8d89828a01612db3565b979a9699509497509295939492505050565b600060208284031215612eb157600080fd5b5035919050565b60006101408201905060ff835116825260208084015161ffff8082168386015273ffffffffffffffffffffffffffffffffffffffff604087015116604086015264ffffffffff606087015116606086015267ffffffffffffffff608087015116608086015260a0860151915060a0850160005b6005811015612f4a578351831682529284019290840190600101612f2b565b505050505092915050565b600080600060608486031215612f6a57600080fd5b505081359360208301359350604090920135919050565b6020808252825182820181905260009190848201906040850190845b81811015612fcf57835173ffffffffffffffffffffffffffffffffffffffff1683529284019291840191600101612f9d565b50909695505050505050565b73ffffffffffffffffffffffffffffffffffffffff81168114612db057600080fd5b60006020828403121561300f57600080fd5b8135612c2281612fdb565b7f4e487b7100000000000000000000000000000000000000000000000000000000600052604160045260246000fd5b60006020828403121561305b57600080fd5b813567ffffffffffffffff8082111561307357600080fd5b818401915084601f83011261308757600080fd5b8135818111156130995761309961301a565b604051601f82017fffffffffffffffffffffffffffffffffffffffffffffffffffffffffffffffe0908116603f011681019083821181831017156130df576130df61301a565b816040528281528760208487010111156130f857600080fd5b826020860160208301376000928101602001929092525095945050505050565b6000806040838503121561312b57600080fd5b823561313681612fdb565b9150602083013561314681612fdb565b809150509250929050565b6000806020838503121561316457600080fd5b823567ffffffffffffffff81111561317b57600080fd5b61318785828601612db3565b90969095509350505050565b6000806000606084860312156131a857600080fd5b83356131b381612fdb565b95602085013595506040909401359392505050565b6000806000604084860312156131dd57600080fd5b83356131e881612fdb565b9250602084013567ffffffffffffffff81111561320457600080fd5b61321086828701612db3565b9497909650939450505050565b60008060008060008060a0878903121561323657600080fd5b8635955060208701359450604087013563ffffffff8116811461325857600080fd5b9350606087013561326881612fdb565b9250608087013567ffffffffffffffff81111561328457600080fd5b612e8d89828a01612db3565b8183823760009101908152919050565b7f4e487b7100000000000000000000000000000000000000000000000000000000600052601260045260246000fd5b7f4e487b7100000000000000000000000000000000000000000000000000000000600052603260045260246000fd5b83815260406020820152816040820152818360608301376000818301606090810191909152601f9092017fffffffffffffffffffffffffffffffffffffffffffffffffffffffffffffffe016010192915050565b7f4e487b7100000000000000000000000000000000000000000000000000000000600052601160045260246000fd5b60008161339057613390613352565b507fffffffffffffffffffffffffffffffffffffffffffffffffffffffffffffffff0190565b600082198211156133c9576133c9613352565b500190565b6000828210156133e0576133e0613352565b500390565b60007fffffffffffffffffffffffffffffffffffffffffffffffffffffffffffffffff820361341657613416613352565b5060010190565b6000806000806080858703121561343357600080fd5b845161343e81612fdb565b602086015190945061344f81612fdb565b604086015190935061346081612fdb565b606086015190925061347181612fdb565b939692955090935050565b60006020828403121561348e57600080fd5b81518015158114612c2257600080fd5b600060ff821660ff8416808210156134b8576134b8613352565b90039392505050565b6000826134f7577f4e487b7100000000000000000000000000000000000000000000000000000000600052601260045260246000fd5b500490565b60058110613533577f4e487b7100000000000000000000000000000000000000000000000000000000600052602160045260246000fd5b9052565b6060810161354582866134fc565b83602083015261355860408301846134fc565b949350505050565b60006020828403121561357257600080fd5b5051919050565b838582379092019081526020810191909152604001919050565b6000817fffffffffffffffffffffffffffffffffffffffffffffffffffffffffffffffff04831182151516156135cb576135cb613352565b500290565b6000815180845260005b818110156135f6576020818501810151868301820152016135da565b81811115613608576000602083870101525b50601f017fffffffffffffffffffffffffffffffffffffffffffffffffffffffffffffffe0169290920160200192915050565b61ffff8716815260c06020820152600061365860c08301886135d0565b828103604084015261366a81886135d0565b73ffffffffffffffffffffffffffffffffffffffff87811660608601528616608085015283810360a085015290506136a281856135d0565b9998505050505050505050565b7f4e487b7100000000000000000000000000000000000000000000000000000000600052603160045260246000fd5b600181815b8085111561373757817fffffffffffffffffffffffffffffffffffffffffffffffffffffffffffffffff0482111561371d5761371d613352565b8085161561372a57918102915b93841c93908002906136e3565b509250929050565b60008261374e57506001612b2a565b8161375b57506000612b2a565b8160018114613771576002811461377b57613797565b6001915050612b2a565b60ff84111561378c5761378c613352565b50506001821b612b2a565b5060208310610133831016604e8410600b84101617156137ba575081810a612b2a565b6137c483836136de565b807fffffffffffffffffffffffffffffffffffffffffffffffffffffffffffffffff048211156137f6576137f6613352565b029392505050565b6000612c22838361373f56fea164736f6c634300080d000a",
  "devdoc": {
    "details": "This smart contract contains the actual core operator logic.",
    "kind": "dev",
    "methods": {
      "constructor": {
        "details": "This function is called by the deployer/factory when creating a contract."
      },
      "init(bytes)": {
        "details": "This function is called by the deployer/factory when creating a contract."
      }
    },
    "stateVariables": {
      "_baseBondAmount": {
        "details": "Minimum amount of tokens needed for bonding."
      },
      "_blockTime": {
        "details": "Internal number (in seconds), used for defining a window for operator to execute the job."
      },
      "_bondedAmounts": {
        "details": "Internal mapping of bonded operator amounts."
      },
      "_bondedOperators": {
        "details": "Internal mapping of bonded operators, to prevent double bonding."
      },
      "_operatorJobs": {
        "details": "Internal mapping of operator job details for a specific job hash."
      },
      "_operatorPodIndex": {
        "details": "Internal mapping of bonded operators, to prevent double bonding."
      },
      "_operatorPods": {
        "details": "Multi-dimensional array of available operators."
      },
      "_operatorTempStorage": {
        "details": "Internal mapping of operator addresses, used for temp storage when defining an operator job."
      },
      "_operatorTempStorageCounter": {
        "details": "Internal index used for storing/referencing operator temp storage."
      },
      "_operatorThreshold": {
        "details": "The threshold used for limiting number of operators in a pod."
      },
      "_operatorThresholdDivisor": {
        "details": "The threshold divisor used for increasing bond amount once threshold is reached."
      },
      "_operatorThresholdStep": {
        "details": "The threshold step used for increasing bond amount once threshold is reached."
      },
      "_podMultiplier": {
        "details": "The multiplier used for calculating bonding amount for pods."
      }
    },
    "version": 1
  },
  "userdoc": {
    "kind": "user",
    "methods": {
      "constructor": {
        "notice": "Used internally to initialize the contract instead of through a constructor"
      },
      "init(bytes)": {
        "notice": "Used internally to initialize the contract instead of through a constructor"
      }
    },
    "version": 1
  },
  "storageLayout": {
    "storage": [
      {
        "astId": 2716,
        "contract": "contracts/HolographOperator.sol:HolographOperator",
        "label": "_blockTime",
        "offset": 0,
        "slot": "0",
        "type": "t_uint256"
      },
      {
        "astId": 2719,
        "contract": "contracts/HolographOperator.sol:HolographOperator",
        "label": "_baseBondAmount",
        "offset": 0,
        "slot": "1",
        "type": "t_uint256"
      },
      {
        "astId": 2722,
        "contract": "contracts/HolographOperator.sol:HolographOperator",
        "label": "_podMultiplier",
        "offset": 0,
        "slot": "2",
        "type": "t_uint256"
      },
      {
        "astId": 2725,
        "contract": "contracts/HolographOperator.sol:HolographOperator",
        "label": "_operatorThreshold",
        "offset": 0,
        "slot": "3",
        "type": "t_uint256"
      },
      {
        "astId": 2728,
        "contract": "contracts/HolographOperator.sol:HolographOperator",
        "label": "_operatorThresholdStep",
        "offset": 0,
        "slot": "4",
        "type": "t_uint256"
      },
      {
        "astId": 2731,
        "contract": "contracts/HolographOperator.sol:HolographOperator",
        "label": "_operatorThresholdDivisor",
        "offset": 0,
        "slot": "5",
        "type": "t_uint256"
      },
      {
        "astId": 2736,
        "contract": "contracts/HolographOperator.sol:HolographOperator",
        "label": "_operatorJobs",
        "offset": 0,
        "slot": "6",
        "type": "t_mapping(t_bytes32,t_uint256)"
      },
      {
        "astId": 2741,
        "contract": "contracts/HolographOperator.sol:HolographOperator",
        "label": "_operatorTempStorage",
        "offset": 0,
        "slot": "7",
        "type": "t_mapping(t_uint256,t_address)"
      },
      {
        "astId": 2744,
        "contract": "contracts/HolographOperator.sol:HolographOperator",
        "label": "_operatorTempStorageCounter",
        "offset": 0,
        "slot": "8",
        "type": "t_uint32"
      },
      {
        "astId": 2749,
        "contract": "contracts/HolographOperator.sol:HolographOperator",
        "label": "_operatorPods",
        "offset": 0,
        "slot": "9",
        "type": "t_array(t_array(t_address)dyn_storage)dyn_storage"
      },
      {
        "astId": 2754,
        "contract": "contracts/HolographOperator.sol:HolographOperator",
        "label": "_bondedOperators",
        "offset": 0,
        "slot": "10",
        "type": "t_mapping(t_address,t_uint256)"
      },
      {
        "astId": 2759,
        "contract": "contracts/HolographOperator.sol:HolographOperator",
        "label": "_operatorPodIndex",
        "offset": 0,
        "slot": "11",
        "type": "t_mapping(t_address,t_uint256)"
      },
      {
        "astId": 2764,
        "contract": "contracts/HolographOperator.sol:HolographOperator",
        "label": "_bondedAmounts",
        "offset": 0,
        "slot": "12",
        "type": "t_mapping(t_address,t_uint256)"
      }
    ],
    "types": {
      "t_address": {
        "encoding": "inplace",
        "label": "address",
        "numberOfBytes": "20"
      },
      "t_array(t_address)dyn_storage": {
        "base": "t_address",
        "encoding": "dynamic_array",
        "label": "address[]",
        "numberOfBytes": "32"
      },
      "t_array(t_array(t_address)dyn_storage)dyn_storage": {
        "base": "t_array(t_address)dyn_storage",
        "encoding": "dynamic_array",
        "label": "address[][]",
        "numberOfBytes": "32"
      },
      "t_bytes32": {
        "encoding": "inplace",
        "label": "bytes32",
        "numberOfBytes": "32"
      },
      "t_mapping(t_address,t_uint256)": {
        "encoding": "mapping",
        "key": "t_address",
        "label": "mapping(address => uint256)",
        "numberOfBytes": "32",
        "value": "t_uint256"
      },
      "t_mapping(t_bytes32,t_uint256)": {
        "encoding": "mapping",
        "key": "t_bytes32",
        "label": "mapping(bytes32 => uint256)",
        "numberOfBytes": "32",
        "value": "t_uint256"
      },
      "t_mapping(t_uint256,t_address)": {
        "encoding": "mapping",
        "key": "t_uint256",
        "label": "mapping(uint256 => address)",
        "numberOfBytes": "32",
        "value": "t_address"
      },
      "t_uint256": {
        "encoding": "inplace",
        "label": "uint256",
        "numberOfBytes": "32"
      },
      "t_uint32": {
        "encoding": "inplace",
        "label": "uint32",
        "numberOfBytes": "4"
      }
    }
  }
}