{
  "address": "0x8962AF58f738425d7C4A331a6E9A7607aF84A557",
  "abi": [
    {
      "inputs": [],
      "stateMutability": "nonpayable",
      "type": "constructor"
    },
    {
      "stateMutability": "payable",
      "type": "fallback"
    },
    {
      "inputs": [
        {
          "internalType": "address",
          "name": "",
          "type": "address"
        },
        {
          "internalType": "uint256",
          "name": "_tokenId",
          "type": "uint256"
        }
      ],
      "name": "afterBurn",
      "outputs": [
        {
          "internalType": "bool",
          "name": "",
          "type": "bool"
        }
      ],
      "stateMutability": "nonpayable",
      "type": "function"
    },
    {
      "inputs": [
        {
          "internalType": "uint32",
          "name": "",
          "type": "uint32"
        },
        {
          "internalType": "address",
          "name": "",
          "type": "address"
        },
        {
          "internalType": "address",
          "name": "",
          "type": "address"
        },
        {
          "internalType": "uint256",
          "name": "_tokenId",
          "type": "uint256"
        },
        {
          "internalType": "bytes",
          "name": "_data",
          "type": "bytes"
        }
      ],
      "name": "bridgeIn",
      "outputs": [
        {
          "internalType": "bool",
          "name": "",
          "type": "bool"
        }
      ],
      "stateMutability": "nonpayable",
      "type": "function"
    },
    {
      "inputs": [
        {
          "internalType": "uint32",
          "name": "",
          "type": "uint32"
        },
        {
          "internalType": "address",
          "name": "",
          "type": "address"
        },
        {
          "internalType": "address",
          "name": "",
          "type": "address"
        },
        {
          "internalType": "uint256",
          "name": "_tokenId",
          "type": "uint256"
        }
      ],
      "name": "bridgeOut",
      "outputs": [
        {
          "internalType": "bytes",
          "name": "_data",
          "type": "bytes"
        }
      ],
      "stateMutability": "view",
      "type": "function"
    },
    {
      "inputs": [
        {
          "internalType": "uint224",
          "name": "tokenId",
          "type": "uint224"
        },
        {
          "internalType": "enum TokenUriType",
          "name": "uriType",
          "type": "uint8"
        },
        {
          "internalType": "string",
          "name": "tokenUri",
          "type": "string"
        }
      ],
      "name": "cxipMint",
      "outputs": [],
      "stateMutability": "nonpayable",
      "type": "function"
    },
    {
      "inputs": [
        {
          "internalType": "bytes",
          "name": "data",
          "type": "bytes"
        }
      ],
      "name": "init",
      "outputs": [
        {
          "internalType": "bytes4",
          "name": "",
          "type": "bytes4"
        }
      ],
      "stateMutability": "nonpayable",
      "type": "function"
    },
    {
      "inputs": [
        {
          "internalType": "address",
          "name": "wallet",
          "type": "address"
        }
      ],
      "name": "isOwner",
      "outputs": [
        {
          "internalType": "bool",
          "name": "",
          "type": "bool"
        }
      ],
      "stateMutability": "view",
      "type": "function"
    },
    {
      "inputs": [],
      "name": "isOwner",
      "outputs": [
        {
          "internalType": "bool",
          "name": "",
          "type": "bool"
        }
      ],
      "stateMutability": "view",
      "type": "function"
    },
    {
      "inputs": [],
      "name": "owner",
      "outputs": [
        {
          "internalType": "address",
          "name": "",
          "type": "address"
        }
      ],
      "stateMutability": "view",
      "type": "function"
    },
    {
      "inputs": [
        {
          "internalType": "bytes4",
          "name": "",
          "type": "bytes4"
        }
      ],
      "name": "supportsInterface",
      "outputs": [
        {
          "internalType": "bool",
          "name": "",
          "type": "bool"
        }
      ],
      "stateMutability": "pure",
      "type": "function"
    },
    {
      "inputs": [
        {
          "internalType": "uint256",
          "name": "_tokenId",
          "type": "uint256"
        }
      ],
      "name": "tokenURI",
      "outputs": [
        {
          "internalType": "string",
          "name": "",
          "type": "string"
        }
      ],
      "stateMutability": "view",
      "type": "function"
    },
    {
      "stateMutability": "payable",
      "type": "receive"
    }
  ],
  "transactionHash": "0xff5c62a3700a08b128e33e8699172f96850aa06991f4515e21d741f5c9c15d28",
  "args": [],
  "numDeployments": 1,
  "solcInputHash": "2e8eb468b91034c11ebd8b1a633d193a",
  "bytecode": "0x608060405234801561001057600080fd5b50611def806100206000396000f3fe6080604052600436106100b55760003560e01c80638f32d59b11610069578063c87b56dd1161004e578063c87b56dd14610254578063e003ba4514610274578063f0f5407314610294576100bc565b80638f32d59b1461021f578063971c34b414610234576100bc565b80634ddf47d41161009a5780634ddf47d41461016c5780638b1465c6146101bd5780638da5cb5b146101ea576100bc565b806301ffc9a7146100fa5780632f54bf6e14610130576100bc565b366100bc57005b337fe860eb97addcc8d7a4df2e57474b879e6fae678a490e3807075a99030ddd92505414600181146100ed57600080fd5b600160805260206080f35b005b34801561010657600080fd5b5061011b61011536600461159e565b50600090565b60405190151581526020015b60405180910390f35b34801561013c57600080fd5b5061011b61014b366004611602565b60005473ffffffffffffffffffffffffffffffffffffffff91821691161490565b34801561017857600080fd5b5061018c610187366004611721565b6102b4565b6040517fffffffff000000000000000000000000000000000000000000000000000000009091168152602001610127565b3480156101c957600080fd5b506101dd6101d8366004611786565b610367565b604051610127919061184f565b3480156101f657600080fd5b5060005460405173ffffffffffffffffffffffffffffffffffffffff9091168152602001610127565b34801561022b57600080fd5b5061011b6104ee565b34801561024057600080fd5b5061011b61024f366004611862565b6105ac565b34801561026057600080fd5b506101dd61026f36600461188e565b610716565b34801561028057600080fd5b506100f861028f3660046118ff565b610a2a565b3480156102a057600080fd5b5061011b6102af366004611983565b6111a3565b600180547fffffff00ffffffffffffffffffffffffffffffffffffffffffffffffffffffff167c0100000000000000000000000000000000000000000000000000000000179055805160009081906103159060209085018101908501611a35565b600080547fffffffffffffffffffffffff00000000000000000000000000000000000000001673ffffffffffffffffffffffffffffffffffffffff831617905590506103608361132d565b9392505050565b60606103917fe860eb97addcc8d7a4df2e57474b879e6fae678a490e3807075a99030ddd92505490565b73ffffffffffffffffffffffffffffffffffffffff163373ffffffffffffffffffffffffffffffffffffffff161461042a576040517f08c379a000000000000000000000000000000000000000000000000000000000815260206004820152601860248201527f4552433732313a20686f6c6f67726170686572206f6e6c79000000000000000060448201526064015b60405180910390fd5b60008281526002602052604081205460ff169081600381111561044f5761044f611a06565b0361047c57506001547c0100000000000000000000000000000000000000000000000000000000900460ff165b806003600085815260200190815260200160002060008360038111156104a4576104a4611a06565b60038111156104b5576104b5611a06565b81526020019081526020016000206040516020016104d4929190611ae0565b604051602081830303815290604052915050949350505050565b60006105187fe860eb97addcc8d7a4df2e57474b879e6fae678a490e3807075a99030ddd92505490565b73ffffffffffffffffffffffffffffffffffffffff16330361058d5760005473ffffffffffffffffffffffffffffffffffffffff16367fffffffffffffffffffffffffffffffffffffffffffffffffffffffffffffffe0013573ffffffffffffffffffffffffffffffffffffffff1614905090565b5060005473ffffffffffffffffffffffffffffffffffffffff16331490565b60006105d67fe860eb97addcc8d7a4df2e57474b879e6fae678a490e3807075a99030ddd92505490565b73ffffffffffffffffffffffffffffffffffffffff163373ffffffffffffffffffffffffffffffffffffffff161461066a576040517f08c379a000000000000000000000000000000000000000000000000000000000815260206004820152601860248201527f4552433732313a20686f6c6f67726170686572206f6e6c7900000000000000006044820152606401610421565b60008281526002602052604081205460ff169081600381111561068f5761068f611a06565b036106bc57506001547c0100000000000000000000000000000000000000000000000000000000900460ff165b60008381526003602081905260408220919083908111156106df576106df611a06565b60038111156106f0576106f0611a06565b8152602001908152602001600020600061070a9190611436565b60019150505b92915050565b60606107407fe860eb97addcc8d7a4df2e57474b879e6fae678a490e3807075a99030ddd92505490565b73ffffffffffffffffffffffffffffffffffffffff163373ffffffffffffffffffffffffffffffffffffffff16146107d4576040517f08c379a000000000000000000000000000000000000000000000000000000000815260206004820152601860248201527f4552433732313a20686f6c6f67726170686572206f6e6c7900000000000000006044820152606401610421565b60008281526002602052604081205460ff16908160038111156107f9576107f9611a06565b0361082657506001547c0100000000000000000000000000000000000000000000000000000000900460ff165b7fe860eb97addcc8d7a4df2e57474b879e6fae678a490e3807075a99030ddd92505473ffffffffffffffffffffffffffffffffffffffff16634827ae0c6040518163ffffffff1660e01b8152600401602060405180830381865afa158015610892573d6000803e3d6000fd5b505050506040513d601f19601f820116820180604052508101906108b69190611a35565b73ffffffffffffffffffffffffffffffffffffffff1663ebac15f96040518163ffffffff1660e01b8152600401602060405180830381865afa158015610900573d6000803e3d6000fd5b505050506040513d601f19601f820116820180604052508101906109249190611a35565b73ffffffffffffffffffffffffffffffffffffffff16630a2bb379826040518263ffffffff1660e01b815260040161095c9190611b92565b600060405180830381865afa158015610979573d6000803e3d6000fd5b505050506040513d6000823e601f3d9081017fffffffffffffffffffffffffffffffffffffffffffffffffffffffffffffffe01682016040526109bf9190810190611ba0565b60008481526003602081905260408220919084908111156109e2576109e2611a06565b60038111156109f3576109f3611a06565b8152602001908152602001600020604051602001610a12929190611c17565b6040516020818303038152906040529150505b919050565b7fe860eb97addcc8d7a4df2e57474b879e6fae678a490e3807075a99030ddd92505473ffffffffffffffffffffffffffffffffffffffff163373ffffffffffffffffffffffffffffffffffffffff1614610ae0576040517f08c379a000000000000000000000000000000000000000000000000000000000815260206004820152601860248201527f4552433732313a20686f6c6f67726170686572206f6e6c7900000000000000006044820152606401610421565b7fe860eb97addcc8d7a4df2e57474b879e6fae678a490e3807075a99030ddd92505473ffffffffffffffffffffffffffffffffffffffff163303610bdd5760005473ffffffffffffffffffffffffffffffffffffffff16367fffffffffffffffffffffffffffffffffffffffffffffffffffffffffffffffe0013573ffffffffffffffffffffffffffffffffffffffff1614610bd8576040517f08c379a000000000000000000000000000000000000000000000000000000000815260206004820152601b60248201527f4552433732313a206f776e6572206f6e6c792066756e6374696f6e00000000006044820152606401610421565b610c5e565b60005473ffffffffffffffffffffffffffffffffffffffff163314610c5e576040517f08c379a000000000000000000000000000000000000000000000000000000000815260206004820152601b60248201527f4552433732313a206f776e6572206f6e6c792066756e6374696f6e00000000006044820152606401610421565b6000610c887fe860eb97addcc8d7a4df2e57474b879e6fae678a490e3807075a99030ddd92505490565b905060008173ffffffffffffffffffffffffffffffffffffffff166377dbd8636040518163ffffffff1660e01b8152600401602060405180830381865afa158015610cd7573d6000803e3d6000fd5b505050506040513d601f19601f82011682018060405250810190610cfb9190611cbe565b9050857bffffffffffffffffffffffffffffffffffffffffffffffffffffffff16600003610fa857600180548190600090610d559083907bffffffffffffffffffffffffffffffffffffffffffffffffffffffff16611d06565b92506101000a8154817bffffffffffffffffffffffffffffffffffffffffffffffffffffffff02191690837bffffffffffffffffffffffffffffffffffffffffffffffffffffffff1602179055505b60015473ffffffffffffffffffffffffffffffffffffffff831690634f558e7990610ded907bffffffffffffffffffffffffffffffffffffffffffffffffffffffff1684611d46565b6040518263ffffffff1660e01b8152600401610e0b91815260200190565b602060405180830381865afa158015610e28573d6000803e3d6000fd5b505050506040513d601f19601f82011682018060405250810190610e4c9190611d5e565b80610efa575060015473ffffffffffffffffffffffffffffffffffffffff8316906323250cae90610e9b907bffffffffffffffffffffffffffffffffffffffffffffffffffffffff1684611d46565b6040518263ffffffff1660e01b8152600401610eb991815260200190565b602060405180830381865afa158015610ed6573d6000803e3d6000fd5b505050506040513d601f19601f82011682018060405250810190610efa9190611d5e565b15610f8457600180548190600090610f319083907bffffffffffffffffffffffffffffffffffffffffffffffffffffffff16611d06565b92506101000a8154817bffffffffffffffffffffffffffffffffffffffffffffffffffffffff02191690837bffffffffffffffffffffffffffffffffffffffffffffffffffffffff160217905550610da4565b6001547bffffffffffffffffffffffffffffffffffffffffffffffffffffffff1695505b73ffffffffffffffffffffffffffffffffffffffff8216633b4f1b26367fffffffffffffffffffffffffffffffffffffffffffffffffffffffffffffffe001356040517fffffffff0000000000000000000000000000000000000000000000000000000060e084901b16815273ffffffffffffffffffffffffffffffffffffffff90911660048201527bffffffffffffffffffffffffffffffffffffffffffffffffffffffff89166024820152604401600060405180830381600087803b15801561107257600080fd5b505af1158015611086573d6000803e3d6000fd5b505050506000867bffffffffffffffffffffffffffffffffffffffffffffffffffffffff16826110b69190611d46565b905060008660038111156110cc576110cc611a06565b036110fa576001547c0100000000000000000000000000000000000000000000000000000000900460ff1695505b600081815260026020526040902080548791907fffffffffffffffffffffffffffffffffffffffffffffffffffffffffffffff0016600183600381111561114357611143611a06565b021790555060008181526003602081905260408220879287928a9081111561116d5761116d611a06565b600381111561117e5761117e611a06565b81526020019081526020016000209190611199929190611473565b5050505050505050565b60006111cd7fe860eb97addcc8d7a4df2e57474b879e6fae678a490e3807075a99030ddd92505490565b73ffffffffffffffffffffffffffffffffffffffff163373ffffffffffffffffffffffffffffffffffffffff1614611261576040517f08c379a000000000000000000000000000000000000000000000000000000000815260206004820152601860248201527f4552433732313a20686f6c6f67726170686572206f6e6c7900000000000000006044820152606401610421565b60008061127084860186611d80565b6000888152600260205260409020805492945090925083917fffffffffffffffffffffffffffffffffffffffffffffffffffffffffffffff001660018360038111156112be576112be611a06565b0217905550806003600088815260200190815260200160002060008460038111156112eb576112eb611a06565b60038111156112fc576112fc611a06565b8152602001908152602001600020908051906020019061131d929190611515565b5060019998505050505050505050565b60006113597f4e5f991bca30eca2d4643aaefa807e88f96a4a97398933d572a3c0d973004a0154151590565b156113c0576040517f08c379a000000000000000000000000000000000000000000000000000000000815260206004820152601b60248201527f4552433732313a20616c726561647920696e697469616c697a656400000000006044820152606401610421565b337fe860eb97addcc8d7a4df2e57474b879e6fae678a490e3807075a99030ddd925081905561140e60017f4e5f991bca30eca2d4643aaefa807e88f96a4a97398933d572a3c0d973004a0155565b507f4ddf47d40000000000000000000000000000000000000000000000000000000092915050565b50805461144290611a8d565b6000825580601f10611452575050565b601f0160209004906000526020600020908101906114709190611589565b50565b82805461147f90611a8d565b90600052602060002090601f0160209004810192826114a15760008555611505565b82601f106114d8578280017fffffffffffffffffffffffffffffffffffffffffffffffffffffffffffffff00823516178555611505565b82800160010185558215611505579182015b828111156115055782358255916020019190600101906114ea565b50611511929150611589565b5090565b82805461152190611a8d565b90600052602060002090601f0160209004810192826115435760008555611505565b82601f1061155c57805160ff1916838001178555611505565b82800160010185558215611505579182015b8281111561150557825182559160200191906001019061156e565b5b80821115611511576000815560010161158a565b6000602082840312156115b057600080fd5b81357fffffffff000000000000000000000000000000000000000000000000000000008116811461036057600080fd5b73ffffffffffffffffffffffffffffffffffffffff8116811461147057600080fd5b60006020828403121561161457600080fd5b8135610360816115e0565b7f4e487b7100000000000000000000000000000000000000000000000000000000600052604160045260246000fd5b604051601f82017fffffffffffffffffffffffffffffffffffffffffffffffffffffffffffffffe016810167ffffffffffffffff811182821017156116955761169561161f565b604052919050565b600067ffffffffffffffff8211156116b7576116b761161f565b50601f017fffffffffffffffffffffffffffffffffffffffffffffffffffffffffffffffe01660200190565b60006116f66116f18461169d565b61164e565b905082815283838301111561170a57600080fd5b828260208301376000602084830101529392505050565b60006020828403121561173357600080fd5b813567ffffffffffffffff81111561174a57600080fd5b8201601f8101841361175b57600080fd5b61176a848235602084016116e3565b949350505050565b803563ffffffff81168114610a2557600080fd5b6000806000806080858703121561179c57600080fd5b6117a585611772565b935060208501356117b5816115e0565b925060408501356117c5816115e0565b9396929550929360600135925050565b60005b838110156117f05781810151838201526020016117d8565b838111156117ff576000848401525b50505050565b6000815180845261181d8160208601602086016117d5565b601f017fffffffffffffffffffffffffffffffffffffffffffffffffffffffffffffffe0169290920160200192915050565b6020815260006103606020830184611805565b6000806040838503121561187557600080fd5b8235611880816115e0565b946020939093013593505050565b6000602082840312156118a057600080fd5b5035919050565b803560048110610a2557600080fd5b60008083601f8401126118c857600080fd5b50813567ffffffffffffffff8111156118e057600080fd5b6020830191508360208285010111156118f857600080fd5b9250929050565b6000806000806060858703121561191557600080fd5b84357bffffffffffffffffffffffffffffffffffffffffffffffffffffffff8116811461194157600080fd5b935061194f602086016118a7565b9250604085013567ffffffffffffffff81111561196b57600080fd5b611977878288016118b6565b95989497509550505050565b60008060008060008060a0878903121561199c57600080fd5b6119a587611772565b955060208701356119b5816115e0565b945060408701356119c5816115e0565b935060608701359250608087013567ffffffffffffffff8111156119e857600080fd5b6119f489828a016118b6565b979a9699509497509295939492505050565b7f4e487b7100000000000000000000000000000000000000000000000000000000600052602160045260246000fd5b600060208284031215611a4757600080fd5b8151610360816115e0565b60048110611a89577f4e487b7100000000000000000000000000000000000000000000000000000000600052602160045260246000fd5b9052565b600181811c90821680611aa157607f821691505b602082108103611ada577f4e487b7100000000000000000000000000000000000000000000000000000000600052602260045260246000fd5b50919050565b611aea8184611a52565b6000602060408184015260008454611b0181611a8d565b8060408701526060600180841660008114611b235760018114611b5557611b83565b7fffffffffffffffffffffffffffffffffffffffffffffffffffffffffffffff008516838a0152608089019550611b83565b896000528660002060005b85811015611b7b5781548b8201860152908301908801611b60565b8a0184019650505b50939998505050505050505050565b602081016107108284611a52565b600060208284031215611bb257600080fd5b815167ffffffffffffffff811115611bc957600080fd5b8201601f81018413611bda57600080fd5b8051611be86116f18261169d565b818152856020838501011115611bfd57600080fd5b611c0e8260208301602086016117d5565b95945050505050565b600083516020611c2a82858389016117d5565b818401915060008554611c3c81611a8d565b60018281168015611c545760018114611c8357611caf565b7fffffffffffffffffffffffffffffffffffffffffffffffffffffffffffffff00841687528287019450611caf565b896000528560002060005b84811015611ca757815489820152908301908701611c8e565b505082870194505b50929998505050505050505050565b600060208284031215611cd057600080fd5b5051919050565b7f4e487b7100000000000000000000000000000000000000000000000000000000600052601160045260246000fd5b60007bffffffffffffffffffffffffffffffffffffffffffffffffffffffff808316818516808303821115611d3d57611d3d611cd7565b01949350505050565b60008219821115611d5957611d59611cd7565b500190565b600060208284031215611d7057600080fd5b8151801515811461036057600080fd5b60008060408385031215611d9357600080fd5b611d9c836118a7565b9150602083013567ffffffffffffffff811115611db857600080fd5b8301601f81018513611dc957600080fd5b611dd8858235602084016116e3565b915050925092905056fea164736f6c634300080d000a",
  "devdoc": {
    "author": "CXIP-Labs",
    "details": "The entire logic and functionality of the smart contract is self-contained.",
    "kind": "dev",
    "methods": {
      "constructor": {
        "details": "To make exact CREATE2 deployment possible, constructor is left empty. We utilize the \"init\" function instead."
      },
      "init(bytes)": {
        "details": "Special function to allow a one time initialisation on deployment. Also configures and deploys royalties."
      },
      "tokenURI(uint256)": {
        "returns": {
          "_0": "string The URI."
        }
      }
    },
    "stateVariables": {
      "_currentTokenId": {
        "details": "Internal reference used for minting incremental token ids."
      },
      "_tokenURIs": {
        "details": "Mapping of IPFS URIs for tokenIds."
      },
      "_tokenUriType": {
        "details": "Enum mapping of type of token URI to use for specific tokenId."
      },
      "_uriType": {
        "details": "Enum of type of token URI to use globally for the entire contract."
      }
    },
    "title": "CXIP ERC-721 Collection that is bridgeable via Holograph",
    "version": 1
  },
  "userdoc": {
    "kind": "user",
    "methods": {
      "constructor": {
        "notice": "Constructor is empty and not utilised."
      },
      "init(bytes)": {
        "notice": "Initializes the collection."
      },
      "tokenURI(uint256)": {
        "notice": "Get's the URI of the token."
      }
    },
    "notice": "A smart contract for minting and managing Holograph Bridgeable ERC721 NFTs.",
    "version": 1
  },
  "storageLayout": {
    "storage": [
      {
        "astId": 10992,
        "contract": "contracts/token/CxipERC721.sol:CxipERC721",
        "label": "_owner",
        "offset": 0,
        "slot": "0",
        "type": "t_address"
      },
      {
        "astId": 19273,
        "contract": "contracts/token/CxipERC721.sol:CxipERC721",
        "label": "_currentTokenId",
        "offset": 0,
        "slot": "1",
        "type": "t_uint224"
      },
      {
        "astId": 19277,
        "contract": "contracts/token/CxipERC721.sol:CxipERC721",
        "label": "_uriType",
        "offset": 28,
        "slot": "1",
        "type": "t_enum(TokenUriType)12427"
      },
      {
        "astId": 19283,
        "contract": "contracts/token/CxipERC721.sol:CxipERC721",
        "label": "_tokenUriType",
        "offset": 0,
        "slot": "2",
        "type": "t_mapping(t_uint256,t_enum(TokenUriType)12427)"
      },
      {
        "astId": 19291,
        "contract": "contracts/token/CxipERC721.sol:CxipERC721",
        "label": "_tokenURIs",
        "offset": 0,
        "slot": "3",
        "type": "t_mapping(t_uint256,t_mapping(t_enum(TokenUriType)12427,t_string_storage))"
      }
    ],
    "types": {
      "t_address": {
        "encoding": "inplace",
        "label": "address",
        "numberOfBytes": "20"
      },
      "t_enum(TokenUriType)12427": {
        "encoding": "inplace",
        "label": "enum TokenUriType",
        "numberOfBytes": "1"
      },
      "t_mapping(t_enum(TokenUriType)12427,t_string_storage)": {
        "encoding": "mapping",
        "key": "t_enum(TokenUriType)12427",
        "label": "mapping(enum TokenUriType => string)",
        "numberOfBytes": "32",
        "value": "t_string_storage"
      },
      "t_mapping(t_uint256,t_enum(TokenUriType)12427)": {
        "encoding": "mapping",
        "key": "t_uint256",
        "label": "mapping(uint256 => enum TokenUriType)",
        "numberOfBytes": "32",
        "value": "t_enum(TokenUriType)12427"
      },
      "t_mapping(t_uint256,t_mapping(t_enum(TokenUriType)12427,t_string_storage))": {
        "encoding": "mapping",
        "key": "t_uint256",
        "label": "mapping(uint256 => mapping(enum TokenUriType => string))",
        "numberOfBytes": "32",
        "value": "t_mapping(t_enum(TokenUriType)12427,t_string_storage)"
      },
      "t_string_storage": {
        "encoding": "bytes",
        "label": "string",
        "numberOfBytes": "32"
      },
      "t_uint224": {
        "encoding": "inplace",
        "label": "uint224",
        "numberOfBytes": "28"
      },
      "t_uint256": {
        "encoding": "inplace",
        "label": "uint256",
        "numberOfBytes": "32"
      }
    }
  }
}