{
  "address": "0x4b02422DC46bb21D657A701D02794cD3Caeb17d0",
  "abi": [
    {
      "inputs": [
        {
          "internalType": "string",
          "name": "contractName",
          "type": "string"
        },
        {
          "internalType": "string",
          "name": "contractSymbol",
          "type": "string"
        },
        {
          "internalType": "uint8",
          "name": "contractDecimals",
          "type": "uint8"
        },
        {
          "internalType": "string",
          "name": "domainSeperator",
          "type": "string"
        },
        {
          "internalType": "string",
          "name": "domainVersion",
          "type": "string"
        }
      ],
      "stateMutability": "nonpayable",
      "type": "constructor"
    },
    {
      "anonymous": false,
      "inputs": [
        {
          "indexed": true,
          "internalType": "address",
          "name": "_owner",
          "type": "address"
        },
        {
          "indexed": true,
          "internalType": "address",
          "name": "_spender",
          "type": "address"
        },
        {
          "indexed": false,
          "internalType": "uint256",
          "name": "_value",
          "type": "uint256"
        }
      ],
      "name": "Approval",
      "type": "event"
    },
    {
      "anonymous": false,
      "inputs": [
        {
          "indexed": true,
          "internalType": "address",
          "name": "_from",
          "type": "address"
        },
        {
          "indexed": true,
          "internalType": "address",
          "name": "_to",
          "type": "address"
        },
        {
          "indexed": false,
          "internalType": "uint256",
          "name": "_value",
          "type": "uint256"
        }
      ],
      "name": "Transfer",
      "type": "event"
    },
    {
      "inputs": [],
      "name": "DOMAIN_SEPARATOR",
      "outputs": [
        {
          "internalType": "bytes32",
          "name": "",
          "type": "bytes32"
        }
      ],
      "stateMutability": "view",
      "type": "function"
    },
    {
      "inputs": [
        {
          "internalType": "address",
          "name": "account",
          "type": "address"
        },
        {
          "internalType": "address",
          "name": "spender",
          "type": "address"
        }
      ],
      "name": "allowance",
      "outputs": [
        {
          "internalType": "uint256",
          "name": "",
          "type": "uint256"
        }
      ],
      "stateMutability": "view",
      "type": "function"
    },
    {
      "inputs": [
        {
          "internalType": "address",
          "name": "spender",
          "type": "address"
        },
        {
          "internalType": "uint256",
          "name": "amount",
          "type": "uint256"
        }
      ],
      "name": "approve",
      "outputs": [
        {
          "internalType": "bool",
          "name": "",
          "type": "bool"
        }
      ],
      "stateMutability": "nonpayable",
      "type": "function"
    },
    {
      "inputs": [
        {
          "internalType": "address",
          "name": "account",
          "type": "address"
        }
      ],
      "name": "balanceOf",
      "outputs": [
        {
          "internalType": "uint256",
          "name": "",
          "type": "uint256"
        }
      ],
      "stateMutability": "view",
      "type": "function"
    },
    {
      "inputs": [
        {
          "internalType": "uint256",
          "name": "amount",
          "type": "uint256"
        }
      ],
      "name": "burn",
      "outputs": [],
      "stateMutability": "nonpayable",
      "type": "function"
    },
    {
      "inputs": [
        {
          "internalType": "address",
          "name": "account",
          "type": "address"
        },
        {
          "internalType": "uint256",
          "name": "amount",
          "type": "uint256"
        }
      ],
      "name": "burnFrom",
      "outputs": [
        {
          "internalType": "bool",
          "name": "",
          "type": "bool"
        }
      ],
      "stateMutability": "nonpayable",
      "type": "function"
    },
    {
      "inputs": [],
      "name": "decimals",
      "outputs": [
        {
          "internalType": "uint8",
          "name": "",
          "type": "uint8"
        }
      ],
      "stateMutability": "view",
      "type": "function"
    },
    {
      "inputs": [
        {
          "internalType": "address",
          "name": "spender",
          "type": "address"
        },
        {
          "internalType": "uint256",
          "name": "subtractedValue",
          "type": "uint256"
        }
      ],
      "name": "decreaseAllowance",
      "outputs": [
        {
          "internalType": "bool",
          "name": "",
          "type": "bool"
        }
      ],
      "stateMutability": "nonpayable",
      "type": "function"
    },
    {
      "inputs": [
        {
          "internalType": "address",
          "name": "spender",
          "type": "address"
        },
        {
          "internalType": "uint256",
          "name": "addedValue",
          "type": "uint256"
        }
      ],
      "name": "increaseAllowance",
      "outputs": [
        {
          "internalType": "bool",
          "name": "",
          "type": "bool"
        }
      ],
      "stateMutability": "nonpayable",
      "type": "function"
    },
    {
      "inputs": [
        {
          "internalType": "address",
          "name": "account",
          "type": "address"
        },
        {
          "internalType": "uint256",
          "name": "amount",
          "type": "uint256"
        }
      ],
      "name": "mint",
      "outputs": [],
      "stateMutability": "nonpayable",
      "type": "function"
    },
    {
      "inputs": [],
      "name": "name",
      "outputs": [
        {
          "internalType": "string",
          "name": "",
          "type": "string"
        }
      ],
      "stateMutability": "view",
      "type": "function"
    },
    {
      "inputs": [
        {
          "internalType": "address",
          "name": "account",
          "type": "address"
        }
      ],
      "name": "nonces",
      "outputs": [
        {
          "internalType": "uint256",
          "name": "",
          "type": "uint256"
        }
      ],
      "stateMutability": "view",
      "type": "function"
    },
    {
      "inputs": [
        {
          "internalType": "address",
          "name": "account",
          "type": "address"
        },
        {
          "internalType": "address",
          "name": "",
          "type": "address"
        },
        {
          "internalType": "uint256",
          "name": "amount",
          "type": "uint256"
        },
        {
          "internalType": "bytes",
          "name": "",
          "type": "bytes"
        }
      ],
      "name": "onERC20Received",
      "outputs": [
        {
          "internalType": "bytes4",
          "name": "",
          "type": "bytes4"
        }
      ],
      "stateMutability": "nonpayable",
      "type": "function"
    },
    {
      "inputs": [
        {
          "internalType": "address",
          "name": "account",
          "type": "address"
        },
        {
          "internalType": "address",
          "name": "spender",
          "type": "address"
        },
        {
          "internalType": "uint256",
          "name": "amount",
          "type": "uint256"
        },
        {
          "internalType": "uint256",
          "name": "deadline",
          "type": "uint256"
        },
        {
          "internalType": "uint8",
          "name": "v",
          "type": "uint8"
        },
        {
          "internalType": "bytes32",
          "name": "r",
          "type": "bytes32"
        },
        {
          "internalType": "bytes32",
          "name": "s",
          "type": "bytes32"
        }
      ],
      "name": "permit",
      "outputs": [],
      "stateMutability": "nonpayable",
      "type": "function"
    },
    {
      "inputs": [
        {
          "internalType": "address",
          "name": "recipient",
          "type": "address"
        },
        {
          "internalType": "uint256",
          "name": "amount",
          "type": "uint256"
        }
      ],
      "name": "safeTransfer",
      "outputs": [
        {
          "internalType": "bool",
          "name": "",
          "type": "bool"
        }
      ],
      "stateMutability": "nonpayable",
      "type": "function"
    },
    {
      "inputs": [
        {
          "internalType": "address",
          "name": "recipient",
          "type": "address"
        },
        {
          "internalType": "uint256",
          "name": "amount",
          "type": "uint256"
        },
        {
          "internalType": "bytes",
          "name": "data",
          "type": "bytes"
        }
      ],
      "name": "safeTransfer",
      "outputs": [
        {
          "internalType": "bool",
          "name": "",
          "type": "bool"
        }
      ],
      "stateMutability": "nonpayable",
      "type": "function"
    },
    {
      "inputs": [
        {
          "internalType": "address",
          "name": "account",
          "type": "address"
        },
        {
          "internalType": "address",
          "name": "recipient",
          "type": "address"
        },
        {
          "internalType": "uint256",
          "name": "amount",
          "type": "uint256"
        }
      ],
      "name": "safeTransferFrom",
      "outputs": [
        {
          "internalType": "bool",
          "name": "",
          "type": "bool"
        }
      ],
      "stateMutability": "nonpayable",
      "type": "function"
    },
    {
      "inputs": [
        {
          "internalType": "address",
          "name": "account",
          "type": "address"
        },
        {
          "internalType": "address",
          "name": "recipient",
          "type": "address"
        },
        {
          "internalType": "uint256",
          "name": "amount",
          "type": "uint256"
        },
        {
          "internalType": "bytes",
          "name": "data",
          "type": "bytes"
        }
      ],
      "name": "safeTransferFrom",
      "outputs": [
        {
          "internalType": "bool",
          "name": "",
          "type": "bool"
        }
      ],
      "stateMutability": "nonpayable",
      "type": "function"
    },
    {
      "inputs": [
        {
          "internalType": "bytes4",
          "name": "interfaceId",
          "type": "bytes4"
        }
      ],
      "name": "supportsInterface",
      "outputs": [
        {
          "internalType": "bool",
          "name": "",
          "type": "bool"
        }
      ],
      "stateMutability": "view",
      "type": "function"
    },
    {
      "inputs": [],
      "name": "symbol",
      "outputs": [
        {
          "internalType": "string",
          "name": "",
          "type": "string"
        }
      ],
      "stateMutability": "view",
      "type": "function"
    },
    {
      "inputs": [
        {
          "internalType": "bool",
          "name": "active",
          "type": "bool"
        }
      ],
      "name": "toggleWorks",
      "outputs": [],
      "stateMutability": "nonpayable",
      "type": "function"
    },
    {
      "inputs": [],
      "name": "totalSupply",
      "outputs": [
        {
          "internalType": "uint256",
          "name": "",
          "type": "uint256"
        }
      ],
      "stateMutability": "view",
      "type": "function"
    },
    {
      "inputs": [
        {
          "internalType": "address",
          "name": "recipient",
          "type": "address"
        },
        {
          "internalType": "uint256",
          "name": "amount",
          "type": "uint256"
        }
      ],
      "name": "transfer",
      "outputs": [
        {
          "internalType": "bool",
          "name": "",
          "type": "bool"
        }
      ],
      "stateMutability": "nonpayable",
      "type": "function"
    },
    {
      "inputs": [
        {
          "internalType": "address",
          "name": "account",
          "type": "address"
        },
        {
          "internalType": "address",
          "name": "recipient",
          "type": "address"
        },
        {
          "internalType": "uint256",
          "name": "amount",
          "type": "uint256"
        }
      ],
      "name": "transferFrom",
      "outputs": [
        {
          "internalType": "bool",
          "name": "",
          "type": "bool"
        }
      ],
      "stateMutability": "nonpayable",
      "type": "function"
    },
    {
      "inputs": [
        {
          "internalType": "address payable",
          "name": "token",
          "type": "address"
        },
        {
          "internalType": "address",
          "name": "to",
          "type": "address"
        },
        {
          "internalType": "uint256",
          "name": "amount",
          "type": "uint256"
        }
      ],
      "name": "transferTokens",
      "outputs": [],
      "stateMutability": "nonpayable",
      "type": "function"
    },
    {
      "stateMutability": "payable",
      "type": "receive"
    }
  ],
  "transactionHash": "0x906f24611d0e9b915b040417b8c307c1a7aab5b5043e238cbfaefb7b822d4e8e",
  "args": [
    "Wrapped ETH (MOCK)",
    "WETHmock",
    18,
    "ERC20Mock",
    "1"
  ],
  "numDeployments": 1,
  "solcInputHash": "2e8eb468b91034c11ebd8b1a633d193a",
  "bytecode": "0x60806040523480156200001157600080fd5b5060405162002fb638038062002fb68339810160408190526200003491620006cf565b6006805460ff1916600117905584516200005690600a9060208801906200055c565b5083516200006c90600b9060208701906200055c565b50600c805460ff851660ff1991821617909155600d6020527f49c01d976ca1c616ed1de1469e98d664903a805642011c315785aa325a483c718054821660019081179091557f273def14ebe51c95be6e5eb68c380da078a212b332f586f85529a002719120ce80548316821790557fc45ee30d72adbc2b271e6fa7c52f8cef39ff45732707bf839c6eba6b0d99ed4980548316821790557f47dd55c4361e6c3bd452d8f4946476dd8dba261477e81627915de589330f637d80548316821790557ff1f33ea6d1fa9042572efc17eec85bd2526bd138d60dd437215766b485d0370f80548316821790557f4afc0bdd31f74cb4593a3b74803414b9a0a8ffdd73934ed0fd9f2d14cfe33eda80548316821790557f4901eac3cc78ba1330c3aee2d377059a392a439b9aefefa74fe3c8836817101580548316821790557fe303c4aa1db94ef980fa351946ce97908633c81b88c327d245b1cab8b8278aaf80548316821790557fcdc88f1af7c63ac88e80479ac8d208a365d87b061043d0ac270c18543902031280548316821790557fb8bf5db131788561267be1c6bb6555a788fdeba621d0f83cfe734242e902fc0980548316821790557f76885e4d3b0601335dbb5f4d5822ae9db4094001cec2513fac57f07e4343d62c80548316821790557f403579b6f748068968494166b55b5f0ff2e12cccb6a3aa268ce045c733c12d3380548316821790557f1e95be9337e5d79982213f6693d7afe0f9bae0788f7fd2877ab8ed3a57a4f9f480548316821790557f36cd4fb36aaf108e373ba2b7720771a4921079f9deda1ed5bafdf31453fb784980548316821790557f9929f308fa5057773a869f4ccaeba66d6929f166bd019a4be53a24bd1887b88980548316821790557fb8530efd47fa97a275c9e4510f2608e4bef926463ec19131287c791b83cc873680548316821790557fdd18ff8d320a429b94b675d1930f64af4aec08433a3f7c1ed6f269f8d03e44e580548316821790557f2feca2d6bc57f2d1df05a4e357c8e51fe51178e7edfb66578d1f8aecc55e8f3380548316821790557fff849e7b01f229715889a534eba3d46ad7b9bde4975e60f164afe0b7b20a60d180548316821790557f5a6725444ed61a6b121eeb17756f6edf2a681c37df7e2cce832b409cb9cdf48380548316821790557f6d91f01a3849634f9743eb9553116a9a0b34d47b88b7e67e13b79fc473fd900980548316821790557f07e426a349c4ced6eed45111f519ee5d8e0943a95e951c8656776453e3bdf26780548316821790557fe9a2b0b5637c02d375c2b6f1f874c538ea5ea1c99ad8acd2b1c57fcac679239b80548316821790557f0716a24081a8c354e1d10a0b491fe7076269531738ce4912e49a26adae9314838054831682179055634ec7fbed60e11b6000527fbbbd979e99847457ce20135e6b0dc4bb71aa26506f9a55b933ad60d7e534d2848054909216179055620004a08282620004ab565b5050505050620007df565b815160208084019190912082519183019190912060038290556004819055466001557f8b73c3c69bb8fe3d512ecc4cf759cc79239f7b179b0ffacaa9a75d522b39400f6200053e8184846040805160208101859052908101839052606081018290524660808201523060a082015260009060c0016040516020818303038152906040528051906020012090509392505050565b600055600280546001600160a01b0319163017905560055550505050565b8280546200056a90620007a3565b90600052602060002090601f0160209004810192826200058e5760008555620005d9565b82601f10620005a957805160ff1916838001178555620005d9565b82800160010185558215620005d9579182015b82811115620005d9578251825591602001919060010190620005bc565b50620005e7929150620005eb565b5090565b5b80821115620005e75760008155600101620005ec565b634e487b7160e01b600052604160045260246000fd5b600082601f8301126200062a57600080fd5b81516001600160401b038082111562000647576200064762000602565b604051601f8301601f19908116603f0116810190828211818310171562000672576200067262000602565b816040528381526020925086838588010111156200068f57600080fd5b600091505b83821015620006b3578582018301518183018401529082019062000694565b83821115620006c55760008385830101525b9695505050505050565b600080600080600060a08688031215620006e857600080fd5b85516001600160401b03808211156200070057600080fd5b6200070e89838a0162000618565b965060208801519150808211156200072557600080fd5b6200073389838a0162000618565b95506040880151915060ff821682146200074c57600080fd5b6060880151919450808211156200076257600080fd5b6200077089838a0162000618565b935060808801519150808211156200078757600080fd5b50620007968882890162000618565b9150509295509295909350565b600181811c90821680620007b857607f821691505b602082108103620007d957634e487b7160e01b600052602260045260246000fd5b50919050565b6127c780620007ef6000396000f3fe60806040526004361061019a5760003560e01c80634fc35859116100e1578063a457c2d71161008a578063b88d4fde11610064578063b88d4fde146104fc578063d505accf1461051c578063dd62ed3e1461053c578063eb7955491461058f57600080fd5b8063a457c2d71461049c578063a64b6e5f146104bc578063a9059cbb146104dc57600080fd5b80637ecebe00116100bb5780637ecebe001461041b57806392ed8e1c1461043b57806395d89b411461048757600080fd5b80634fc358591461036757806370a08231146103b857806379cc6790146103fb57600080fd5b80633644e51511610143578063423f6cef1161011d578063423f6cef1461030757806342842e0e1461032757806342966c681461034757600080fd5b80633644e515146102b057806339509351146102c557806340c10f19146102e557600080fd5b806318160ddd1161017457806318160ddd1461024f57806323b872dd1461026e578063313ce5671461028e57600080fd5b806301ffc9a7146101a657806306fdde031461020d578063095ea7b31461022f57600080fd5b366101a157005b600080fd5b3480156101b257600080fd5b506101f86101c13660046121cb565b7fffffffff00000000000000000000000000000000000000000000000000000000166000908152600d602052604090205460ff1690565b60405190151581526020015b60405180910390f35b34801561021957600080fd5b506102226105af565b6040516102049190612253565b34801561023b57600080fd5b506101f861024a366004612288565b610641565b34801561025b57600080fd5b506009545b604051908152602001610204565b34801561027a57600080fd5b506101f86102893660046122b4565b610657565b34801561029a57600080fd5b50600c5460405160ff9091168152602001610204565b3480156102bc57600080fd5b50610260610762565b3480156102d157600080fd5b506101f86102e0366004612288565b610771565b3480156102f157600080fd5b50610305610300366004612288565b610825565b005b34801561031357600080fd5b506101f8610322366004612288565b610833565b34801561033357600080fd5b506101f86103423660046122b4565b610856565b34801561035357600080fd5b506103056103623660046122f5565b61087b565b34801561037357600080fd5b5061038761038236600461230e565b610888565b6040517fffffffff000000000000000000000000000000000000000000000000000000009091168152602001610204565b3480156103c457600080fd5b506102606103d33660046123ad565b73ffffffffffffffffffffffffffffffffffffffff1660009081526007602052604090205490565b34801561040757600080fd5b506101f8610416366004612288565b610ad2565b34801561042757600080fd5b506102606104363660046123ad565b610bac565b34801561044757600080fd5b506103056104563660046123d8565b600680547fffffffffffffffffffffffffffffffffffffffffffffffffffffffffffffff0016911515919091179055565b34801561049357600080fd5b50610222610bd9565b3480156104a857600080fd5b506101f86104b7366004612288565b610be8565b3480156104c857600080fd5b506103056104d73660046122b4565b610c91565b3480156104e857600080fd5b506101f86104f7366004612288565b610d30565b34801561050857600080fd5b506101f86105173660046124cf565b610d3d565b34801561052857600080fd5b5061030561053736600461253b565b610eab565b34801561054857600080fd5b506102606105573660046125b2565b73ffffffffffffffffffffffffffffffffffffffff918216600090815260086020908152604080832093909416825291909152205490565b34801561059b57600080fd5b506101f86105aa3660046125eb565b61106a565b6060600a80546105be90612644565b80601f01602080910402602001604051908101604052809291908181526020018280546105ea90612644565b80156106375780601f1061060c57610100808354040283529160200191610637565b820191906000526020600020905b81548152906001019060200180831161061a57829003601f168201915b5050505050905090565b600061064e3384846110e9565b50600192915050565b600073ffffffffffffffffffffffffffffffffffffffff8416331461074d5773ffffffffffffffffffffffffffffffffffffffff8416600090815260086020908152604080832033845290915290205482811015610716576040517f08c379a000000000000000000000000000000000000000000000000000000000815260206004820152601f60248201527f45524332303a20616d6f756e74206578636565647320616c6c6f77616e63650060448201526064015b60405180910390fd5b73ffffffffffffffffffffffffffffffffffffffff8516600090815260086020908152604080832033845290915290209083900390555b610758848484611252565b5060019392505050565b600061076c611494565b905090565b33600090815260086020908152604080832073ffffffffffffffffffffffffffffffffffffffff861684529091528120548281018181101561080f576040517f08c379a000000000000000000000000000000000000000000000000000000000815260206004820181905260248201527f45524332303a20696e637265617365642061626f7665206d61782076616c7565604482015260640161070d565b61081a3386836110e9565b506001949350505050565b61082f8282611520565b5050565b600061084f83836040518060200160405280600081525061106a565b9392505050565b600061087384848460405180602001604052806000815250610d3d565b949350505050565b6108853382611640565b50565b7f17fb676f92438402d8ef92193dd096c59ee1f4ba1bb57f67f3e6d2eef8aeed5e83905560065460009060ff1615610ac5576108c3866117d9565b610929576040517f08c379a000000000000000000000000000000000000000000000000000000000815260206004820152601c60248201527f45524332303a206f70657261746f72206e6f7420636f6e747261637400000000604482015260640161070d565b6040517f70a0823100000000000000000000000000000000000000000000000000000000815230600482015273ffffffffffffffffffffffffffffffffffffffff8716906370a0823190602401602060405180830381865afa9250505080156109cd575060408051601f3d9081017fffffffffffffffffffffffffffffffffffffffffffffffffffffffffffffffe01682019092526109ca91810190612691565b60015b610a33576040517f08c379a000000000000000000000000000000000000000000000000000000000815260206004820152601d60248201527f45524332303a206661696c65642067657474696e672062616c616e6365000000604482015260640161070d565b84811015610a9d576040517f08c379a000000000000000000000000000000000000000000000000000000000815260206004820152601b60248201527f45524332303a2062616c616e636520636865636b206661696c65640000000000604482015260640161070d565b50507f4fc3585900000000000000000000000000000000000000000000000000000000610ac9565b5060005b95945050505050565b73ffffffffffffffffffffffffffffffffffffffff8216600090815260086020908152604080832033845290915281205482811015610b6d576040517f08c379a000000000000000000000000000000000000000000000000000000000815260206004820152601f60248201527f45524332303a20616d6f756e74206578636565647320616c6c6f77616e636500604482015260640161070d565b73ffffffffffffffffffffffffffffffffffffffff84166000908152600860209081526040808320338452909152902083820390556107588484611640565b73ffffffffffffffffffffffffffffffffffffffff81166000908152600e60205260408120545b92915050565b6060600b80546105be90612644565b33600090815260086020908152604080832073ffffffffffffffffffffffffffffffffffffffff8616845290915281205482811015610c83576040517f08c379a000000000000000000000000000000000000000000000000000000000815260206004820152601b60248201527f45524332303a206465637265617365642062656c6f77207a65726f0000000000604482015260640161070d565b82810361081a3386836110e9565b6040517fa9059cbb00000000000000000000000000000000000000000000000000000000815273ffffffffffffffffffffffffffffffffffffffff83811660048301526024820183905284169063a9059cbb906044016020604051808303816000875af1158015610d06573d6000803e3d6000fd5b505050506040513d601f19601f82011682018060405250810190610d2a91906126aa565b50505050565b600061064e338484611252565b600073ffffffffffffffffffffffffffffffffffffffff85163314610e2e5773ffffffffffffffffffffffffffffffffffffffff8516600090815260086020908152604080832033845290915290205483811015610df7576040517f08c379a000000000000000000000000000000000000000000000000000000000815260206004820152601f60248201527f45524332303a20616d6f756e74206578636565647320616c6c6f77616e636500604482015260640161070d565b73ffffffffffffffffffffffffffffffffffffffff8616600090815260086020908152604080832033845290915290209084900390555b610e39858585611252565b610e4585858585611810565b61081a576040517f08c379a000000000000000000000000000000000000000000000000000000000815260206004820152601860248201527f45524332303a206e6f6e20455243323052656365697665720000000000000000604482015260640161070d565b83421115610f15576040517f08c379a000000000000000000000000000000000000000000000000000000000815260206004820152601760248201527f45524332303a206578706972656420646561646c696e65000000000000000000604482015260640161070d565b60007f6e71edae12b1b97f4d1f60370fef10105fa2faae0126114a169c64845d6126c9888888610f448c611d6b565b60408051602081019690965273ffffffffffffffffffffffffffffffffffffffff94851690860152929091166060840152608083015260a082015260c0810186905260e0016040516020818303038152906040528051906020012090506000610fac82611da0565b90506000610fbc82878787611e09565b90508973ffffffffffffffffffffffffffffffffffffffff168173ffffffffffffffffffffffffffffffffffffffff1614611053576040517f08c379a000000000000000000000000000000000000000000000000000000000815260206004820152601860248201527f45524332303a20696e76616c6964207369676e61747572650000000000000000604482015260640161070d565b61105e8a8a8a6110e9565b50505050505050505050565b6000611077338585611252565b61108333858585611810565b610758576040517f08c379a000000000000000000000000000000000000000000000000000000000815260206004820152601860248201527f45524332303a206e6f6e20455243323052656365697665720000000000000000604482015260640161070d565b73ffffffffffffffffffffffffffffffffffffffff8316611166576040517f08c379a000000000000000000000000000000000000000000000000000000000815260206004820152601e60248201527f45524332303a206163636f756e74206973207a65726f20616464726573730000604482015260640161070d565b73ffffffffffffffffffffffffffffffffffffffff82166111e3576040517f08c379a000000000000000000000000000000000000000000000000000000000815260206004820152601e60248201527f45524332303a207370656e646572206973207a65726f20616464726573730000604482015260640161070d565b73ffffffffffffffffffffffffffffffffffffffff83811660008181526008602090815260408083209487168084529482529182902085905590518481527f8c5be1e5ebec7d5bd14f71427d1e84f3dd0314c0f7b2291e5b200ac8c7c3b92591015b60405180910390a3505050565b73ffffffffffffffffffffffffffffffffffffffff83166112cf576040517f08c379a000000000000000000000000000000000000000000000000000000000815260206004820152601e60248201527f45524332303a206163636f756e74206973207a65726f20616464726573730000604482015260640161070d565b73ffffffffffffffffffffffffffffffffffffffff821661134c576040517f08c379a000000000000000000000000000000000000000000000000000000000815260206004820181905260248201527f45524332303a20726563697069656e74206973207a65726f2061646472657373604482015260640161070d565b73ffffffffffffffffffffffffffffffffffffffff8316600090815260076020526040902054818110156113dc576040517f08c379a000000000000000000000000000000000000000000000000000000000815260206004820152601d60248201527f45524332303a20616d6f756e7420657863656564732062616c616e6365000000604482015260640161070d565b73ffffffffffffffffffffffffffffffffffffffff8085166000908152600760205260408082208585039055918516815290812080548492906114209084906126f6565b925050819055508273ffffffffffffffffffffffffffffffffffffffff168473ffffffffffffffffffffffffffffffffffffffff167fddf252ad1be2c89b69c2b068fc378daa952ba7f163c4a11628f55a4df523b3ef8460405161148691815260200190565b60405180910390a350505050565b60025460009073ffffffffffffffffffffffffffffffffffffffff16301480156114bf575060015446145b156114cb575060005490565b61076c6005546003546004546040805160208101859052908101839052606081018290524660808201523060a082015260009060c0016040516020818303038152906040528051906020012090509392505050565b73ffffffffffffffffffffffffffffffffffffffff821661159d576040517f08c379a000000000000000000000000000000000000000000000000000000000815260206004820152601e60248201527f45524332303a206d696e74696e6720746f206275726e20616464726573730000604482015260640161070d565b80600960008282546115af91906126f6565b909155505073ffffffffffffffffffffffffffffffffffffffff8216600090815260076020526040812080548392906115e99084906126f6565b909155505060405181815273ffffffffffffffffffffffffffffffffffffffff8316906000907fddf252ad1be2c89b69c2b068fc378daa952ba7f163c4a11628f55a4df523b3ef9060200160405180910390a35050565b73ffffffffffffffffffffffffffffffffffffffff82166116bd576040517f08c379a000000000000000000000000000000000000000000000000000000000815260206004820152601e60248201527f45524332303a206163636f756e74206973207a65726f20616464726573730000604482015260640161070d565b73ffffffffffffffffffffffffffffffffffffffff82166000908152600760205260409020548181101561174d576040517f08c379a000000000000000000000000000000000000000000000000000000000815260206004820152601d60248201527f45524332303a20616d6f756e7420657863656564732062616c616e6365000000604482015260640161070d565b73ffffffffffffffffffffffffffffffffffffffff8316600090815260076020526040812083830390556009805484929061178990849061270e565b909155505060405182815260009073ffffffffffffffffffffffffffffffffffffffff8516907fddf252ad1be2c89b69c2b068fc378daa952ba7f163c4a11628f55a4df523b3ef90602001611245565b6000813f801580159061084f57507fc5d2460186f7233c927e7db2dcc703c0e500b653ca82273b7bfad8045d85a470141592915050565b600061183a7f5bf044ad06f1ee9ee2fcd7caf4e944279b877408c76c4515cca6b4e937b013345490565b6002036118a3576040517f08c379a000000000000000000000000000000000000000000000000000000000815260206004820152601560248201527f45524332303a207265656e7472616e742063616c6c0000000000000000000000604482015260640161070d565b6118cc60027f5bf044ad06f1ee9ee2fcd7caf4e944279b877408c76c4515cca6b4e937b0133455565b6118d5846117d9565b15611d3e576040517f01ffc9a700000000000000000000000000000000000000000000000000000000808252600482015273ffffffffffffffffffffffffffffffffffffffff8516906301ffc9a790602401602060405180830381865afa92505050801561197e575060408051601f3d9081017fffffffffffffffffffffffffffffffffffffffffffffffffffffffffffffffe016820190925261197b918101906126aa565b60015b611a25573d8080156119ac576040519150601f19603f3d011682016040523d82523d6000602084013e6119b1565b606091505b508051600003611a1d576040517f08c379a000000000000000000000000000000000000000000000000000000000815260206004820152601860248201527f45524332303a206e6f2045524331363520737570706f72740000000000000000604482015260640161070d565b805181602001fd5b80611a8c576040517f08c379a000000000000000000000000000000000000000000000000000000000815260206004820152601860248201527f45524332303a206e6f2045524331363520737570706f72740000000000000000604482015260640161070d565b6040517f01ffc9a70000000000000000000000000000000000000000000000000000000081527f534f587600000000000000000000000000000000000000000000000000000000600482015273ffffffffffffffffffffffffffffffffffffffff8616906301ffc9a790602401602060405180830381865afa158015611b16573d6000803e3d6000fd5b505050506040513d601f19601f82011682018060405250810190611b3a91906126aa565b15611cdc576040517f4fc3585900000000000000000000000000000000000000000000000000000000815273ffffffffffffffffffffffffffffffffffffffff861690634fc3585990611b979033908a9089908990600401612725565b6020604051808303816000875af1925050508015611bf0575060408051601f3d9081017fffffffffffffffffffffffffffffffffffffffffffffffffffffffffffffffe0168201909252611bed9181019061276e565b60015b611c8f573d808015611c1e576040519150601f19603f3d011682016040523d82523d6000602084013e611c23565b606091505b508051600003611a1d576040517f08c379a000000000000000000000000000000000000000000000000000000000815260206004820152601860248201527f45524332303a206e6f6e20455243323052656365697665720000000000000000604482015260640161070d565b7fffffffff00000000000000000000000000000000000000000000000000000000167f4fc3585900000000000000000000000000000000000000000000000000000000149150611d429050565b6040517f08c379a000000000000000000000000000000000000000000000000000000000815260206004820152601d60248201527f45524332303a206569702d34353234206e6f7420737570706f72746564000000604482015260640161070d565b5060015b61087360017f5bf044ad06f1ee9ee2fcd7caf4e944279b877408c76c4515cca6b4e937b0133455565b73ffffffffffffffffffffffffffffffffffffffff81166000908152600e602052604090208054600181018255905b50919050565b6000610bd3611dad611494565b836040517f19010000000000000000000000000000000000000000000000000000000000006020820152602281018390526042810182905260009060620160405160208183030381529060405280519060200120905092915050565b6000806000611e1a87878787611e31565b91509150611e2781611f49565b5095945050505050565b6000807f7fffffffffffffffffffffffffffffff5d576e7357a4501ddfe92f46681b20a0831115611e685750600090506003611f40565b8460ff16601b14158015611e8057508460ff16601c14155b15611e915750600090506004611f40565b6040805160008082526020820180845289905260ff881692820192909252606081018690526080810185905260019060a0016020604051602081039080840390855afa158015611ee5573d6000803e3d6000fd5b50506040517fffffffffffffffffffffffffffffffffffffffffffffffffffffffffffffffe0015191505073ffffffffffffffffffffffffffffffffffffffff8116611f3957600060019250925050611f40565b9150600090505b94509492505050565b6000816004811115611f5d57611f5d61278b565b03611f655750565b6001816004811115611f7957611f7961278b565b03611fe0576040517f08c379a000000000000000000000000000000000000000000000000000000000815260206004820152601860248201527f45434453413a20696e76616c6964207369676e61747572650000000000000000604482015260640161070d565b6002816004811115611ff457611ff461278b565b0361205b576040517f08c379a000000000000000000000000000000000000000000000000000000000815260206004820152601f60248201527f45434453413a20696e76616c6964207369676e6174757265206c656e67746800604482015260640161070d565b600381600481111561206f5761206f61278b565b036120fc576040517f08c379a000000000000000000000000000000000000000000000000000000000815260206004820152602260248201527f45434453413a20696e76616c6964207369676e6174757265202773272076616c60448201527f7565000000000000000000000000000000000000000000000000000000000000606482015260840161070d565b60048160048111156121105761211061278b565b03610885576040517f08c379a000000000000000000000000000000000000000000000000000000000815260206004820152602260248201527f45434453413a20696e76616c6964207369676e6174757265202776272076616c60448201527f7565000000000000000000000000000000000000000000000000000000000000606482015260840161070d565b7fffffffff000000000000000000000000000000000000000000000000000000008116811461088557600080fd5b6000602082840312156121dd57600080fd5b813561084f8161219d565b6000815180845260005b8181101561220e576020818501810151868301820152016121f2565b81811115612220576000602083870101525b50601f017fffffffffffffffffffffffffffffffffffffffffffffffffffffffffffffffe0169290920160200192915050565b60208152600061084f60208301846121e8565b73ffffffffffffffffffffffffffffffffffffffff8116811461088557600080fd5b6000806040838503121561229b57600080fd5b82356122a681612266565b946020939093013593505050565b6000806000606084860312156122c957600080fd5b83356122d481612266565b925060208401356122e481612266565b929592945050506040919091013590565b60006020828403121561230757600080fd5b5035919050565b60008060008060006080868803121561232657600080fd5b853561233181612266565b9450602086013561234181612266565b935060408601359250606086013567ffffffffffffffff8082111561236557600080fd5b818801915088601f83011261237957600080fd5b81358181111561238857600080fd5b89602082850101111561239a57600080fd5b9699959850939650602001949392505050565b6000602082840312156123bf57600080fd5b813561084f81612266565b801515811461088557600080fd5b6000602082840312156123ea57600080fd5b813561084f816123ca565b7f4e487b7100000000000000000000000000000000000000000000000000000000600052604160045260246000fd5b600082601f83011261243557600080fd5b813567ffffffffffffffff80821115612450576124506123f5565b604051601f83017fffffffffffffffffffffffffffffffffffffffffffffffffffffffffffffffe0908116603f01168101908282118183101715612496576124966123f5565b816040528381528660208588010111156124af57600080fd5b836020870160208301376000602085830101528094505050505092915050565b600080600080608085870312156124e557600080fd5b84356124f081612266565b9350602085013561250081612266565b925060408501359150606085013567ffffffffffffffff81111561252357600080fd5b61252f87828801612424565b91505092959194509250565b600080600080600080600060e0888a03121561255657600080fd5b873561256181612266565b9650602088013561257181612266565b95506040880135945060608801359350608088013560ff8116811461259557600080fd5b9699959850939692959460a0840135945060c09093013592915050565b600080604083850312156125c557600080fd5b82356125d081612266565b915060208301356125e081612266565b809150509250929050565b60008060006060848603121561260057600080fd5b833561260b81612266565b925060208401359150604084013567ffffffffffffffff81111561262e57600080fd5b61263a86828701612424565b9150509250925092565b600181811c9082168061265857607f821691505b602082108103611d9a577f4e487b7100000000000000000000000000000000000000000000000000000000600052602260045260246000fd5b6000602082840312156126a357600080fd5b5051919050565b6000602082840312156126bc57600080fd5b815161084f816123ca565b7f4e487b7100000000000000000000000000000000000000000000000000000000600052601160045260246000fd5b60008219821115612709576127096126c7565b500190565b600082821015612720576127206126c7565b500390565b600073ffffffffffffffffffffffffffffffffffffffff80871683528086166020840152508360408301526080606083015261276460808301846121e8565b9695505050505050565b60006020828403121561278057600080fd5b815161084f8161219d565b7f4e487b7100000000000000000000000000000000000000000000000000000000600052602160045260246000fdfea164736f6c634300080d000a",
  "devdoc": {
    "author": "CXIP-Labs",
    "details": "The entire logic and functionality of the smart contract is self-contained.",
    "kind": "dev",
    "methods": {
      "DOMAIN_SEPARATOR()": {
        "details": "Returns the domain separator used in the encoding of the signature for {permit}, as defined by {EIP712}."
      },
      "constructor": {
        "details": "Constructor does not accept any parameters."
      },
      "nonces(address)": {
        "details": "Returns the current nonce for `account`. This value must be included whenever a signature is generated for {permit}. Every successful call to {permit} increases ``account``'s nonce by one. This prevents a signature from being used multiple times."
      },
      "supportsInterface(bytes4)": {
        "details": "Although EIP-165 is not required for ERC20 contracts, we still decided to implement it. This makes it easier for external smart contracts to easily identify a valid ERC20 token contract."
      }
    },
    "stateVariables": {
      "_allowances": {
        "details": "Mapping of all authorized operators, and capped amounts."
      },
      "_balances": {
        "details": "Mapping of all the addresse's balances."
      },
      "_decimals": {
        "details": "Token number of decimal places."
      },
      "_name": {
        "details": "Token name."
      },
      "_nonces": {
        "details": "List of used up nonces. Used in the ERC20Permit interface functionality."
      },
      "_supportedInterfaces": {
        "details": "List of all supported ERC165 interfaces."
      },
      "_symbol": {
        "details": "Token ticker symbol."
      },
      "_totalSupply": {
        "details": "Total number of token in circulation."
      }
    },
    "title": "Mock ERC20 Token",
    "version": 1
  },
  "userdoc": {
    "kind": "user",
    "methods": {},
    "notice": "Used for imitating the likes of WETH and WMATIC tokens.",
    "version": 1
  },
  "storageLayout": {
    "storage": [
      {
        "astId": 10476,
        "contract": "contracts/mock/ERC20Mock.sol:ERC20Mock",
        "label": "_CACHED_DOMAIN_SEPARATOR",
        "offset": 0,
        "slot": "0",
        "type": "t_bytes32"
      },
      {
        "astId": 10478,
        "contract": "contracts/mock/ERC20Mock.sol:ERC20Mock",
        "label": "_CACHED_CHAIN_ID",
        "offset": 0,
        "slot": "1",
        "type": "t_uint256"
      },
      {
        "astId": 10480,
        "contract": "contracts/mock/ERC20Mock.sol:ERC20Mock",
        "label": "_CACHED_THIS",
        "offset": 0,
        "slot": "2",
        "type": "t_address"
      },
      {
        "astId": 10482,
        "contract": "contracts/mock/ERC20Mock.sol:ERC20Mock",
        "label": "_HASHED_NAME",
        "offset": 0,
        "slot": "3",
        "type": "t_bytes32"
      },
      {
        "astId": 10484,
        "contract": "contracts/mock/ERC20Mock.sol:ERC20Mock",
        "label": "_HASHED_VERSION",
        "offset": 0,
        "slot": "4",
        "type": "t_bytes32"
      },
      {
        "astId": 10486,
        "contract": "contracts/mock/ERC20Mock.sol:ERC20Mock",
        "label": "_TYPE_HASH",
        "offset": 0,
        "slot": "5",
        "type": "t_bytes32"
      },
      {
        "astId": 16186,
        "contract": "contracts/mock/ERC20Mock.sol:ERC20Mock",
        "label": "_works",
        "offset": 0,
        "slot": "6",
        "type": "t_bool"
      },
      {
        "astId": 16191,
        "contract": "contracts/mock/ERC20Mock.sol:ERC20Mock",
        "label": "_balances",
        "offset": 0,
        "slot": "7",
        "type": "t_mapping(t_address,t_uint256)"
      },
      {
        "astId": 16198,
        "contract": "contracts/mock/ERC20Mock.sol:ERC20Mock",
        "label": "_allowances",
        "offset": 0,
        "slot": "8",
        "type": "t_mapping(t_address,t_mapping(t_address,t_uint256))"
      },
      {
        "astId": 16201,
        "contract": "contracts/mock/ERC20Mock.sol:ERC20Mock",
        "label": "_totalSupply",
        "offset": 0,
        "slot": "9",
        "type": "t_uint256"
      },
      {
        "astId": 16204,
        "contract": "contracts/mock/ERC20Mock.sol:ERC20Mock",
        "label": "_name",
        "offset": 0,
        "slot": "10",
        "type": "t_string_storage"
      },
      {
        "astId": 16207,
        "contract": "contracts/mock/ERC20Mock.sol:ERC20Mock",
        "label": "_symbol",
        "offset": 0,
        "slot": "11",
        "type": "t_string_storage"
      },
      {
        "astId": 16210,
        "contract": "contracts/mock/ERC20Mock.sol:ERC20Mock",
        "label": "_decimals",
        "offset": 0,
        "slot": "12",
        "type": "t_uint8"
      },
      {
        "astId": 16215,
        "contract": "contracts/mock/ERC20Mock.sol:ERC20Mock",
        "label": "_supportedInterfaces",
        "offset": 0,
        "slot": "13",
        "type": "t_mapping(t_bytes4,t_bool)"
      },
      {
        "astId": 16221,
        "contract": "contracts/mock/ERC20Mock.sol:ERC20Mock",
        "label": "_nonces",
        "offset": 0,
        "slot": "14",
        "type": "t_mapping(t_address,t_struct(Counter)14968_storage)"
      }
    ],
    "types": {
      "t_address": {
        "encoding": "inplace",
        "label": "address",
        "numberOfBytes": "20"
      },
      "t_bool": {
        "encoding": "inplace",
        "label": "bool",
        "numberOfBytes": "1"
      },
      "t_bytes32": {
        "encoding": "inplace",
        "label": "bytes32",
        "numberOfBytes": "32"
      },
      "t_bytes4": {
        "encoding": "inplace",
        "label": "bytes4",
        "numberOfBytes": "4"
      },
      "t_mapping(t_address,t_mapping(t_address,t_uint256))": {
        "encoding": "mapping",
        "key": "t_address",
        "label": "mapping(address => mapping(address => uint256))",
        "numberOfBytes": "32",
        "value": "t_mapping(t_address,t_uint256)"
      },
      "t_mapping(t_address,t_struct(Counter)14968_storage)": {
        "encoding": "mapping",
        "key": "t_address",
        "label": "mapping(address => struct Counters.Counter)",
        "numberOfBytes": "32",
        "value": "t_struct(Counter)14968_storage"
      },
      "t_mapping(t_address,t_uint256)": {
        "encoding": "mapping",
        "key": "t_address",
        "label": "mapping(address => uint256)",
        "numberOfBytes": "32",
        "value": "t_uint256"
      },
      "t_mapping(t_bytes4,t_bool)": {
        "encoding": "mapping",
        "key": "t_bytes4",
        "label": "mapping(bytes4 => bool)",
        "numberOfBytes": "32",
        "value": "t_bool"
      },
      "t_string_storage": {
        "encoding": "bytes",
        "label": "string",
        "numberOfBytes": "32"
      },
      "t_struct(Counter)14968_storage": {
        "encoding": "inplace",
        "label": "struct Counters.Counter",
        "members": [
          {
            "astId": 14967,
            "contract": "contracts/mock/ERC20Mock.sol:ERC20Mock",
            "label": "_value",
            "offset": 0,
            "slot": "0",
            "type": "t_uint256"
          }
        ],
        "numberOfBytes": "32"
      },
      "t_uint256": {
        "encoding": "inplace",
        "label": "uint256",
        "numberOfBytes": "32"
      },
      "t_uint8": {
        "encoding": "inplace",
        "label": "uint8",
        "numberOfBytes": "1"
      }
    }
  }
}