{
  "address": "0x1Ce073E0A6912dBEAc4A1bE1C46186828fc8e0DD",
  "abi": [
    {
      "inputs": [],
      "stateMutability": "nonpayable",
      "type": "constructor"
    },
    {
      "anonymous": false,
      "inputs": [
        {
          "indexed": true,
          "internalType": "address",
          "name": "contractAddress",
          "type": "address"
        },
        {
          "indexed": true,
          "internalType": "bytes32",
          "name": "hash",
          "type": "bytes32"
        }
      ],
      "name": "BridgeableContractDeployed",
      "type": "event"
    },
    {
      "inputs": [],
      "name": "admin",
      "outputs": [
        {
          "internalType": "address",
          "name": "",
          "type": "address"
        }
      ],
      "stateMutability": "view",
      "type": "function"
    },
    {
      "inputs": [
        {
          "internalType": "address",
          "name": "target",
          "type": "address"
        },
        {
          "internalType": "bytes",
          "name": "data",
          "type": "bytes"
        }
      ],
      "name": "adminCall",
      "outputs": [],
      "stateMutability": "payable",
      "type": "function"
    },
    {
      "inputs": [
        {
          "components": [
            {
              "internalType": "bytes32",
              "name": "contractType",
              "type": "bytes32"
            },
            {
              "internalType": "uint32",
              "name": "chainType",
              "type": "uint32"
            },
            {
              "internalType": "bytes32",
              "name": "salt",
              "type": "bytes32"
            },
            {
              "internalType": "bytes",
              "name": "byteCode",
              "type": "bytes"
            },
            {
              "internalType": "bytes",
              "name": "initCode",
              "type": "bytes"
            }
          ],
          "internalType": "struct DeploymentConfig",
          "name": "config",
          "type": "tuple"
        },
        {
          "components": [
            {
              "internalType": "bytes32",
              "name": "r",
              "type": "bytes32"
            },
            {
              "internalType": "bytes32",
              "name": "s",
              "type": "bytes32"
            },
            {
              "internalType": "uint8",
              "name": "v",
              "type": "uint8"
            }
          ],
          "internalType": "struct Verification",
          "name": "signature",
          "type": "tuple"
        },
        {
          "internalType": "address",
          "name": "signer",
          "type": "address"
        }
      ],
      "name": "deployHolographableContract",
      "outputs": [],
      "stateMutability": "nonpayable",
      "type": "function"
    },
    {
      "inputs": [],
      "name": "getAdmin",
      "outputs": [
        {
          "internalType": "address",
          "name": "adminAddress",
          "type": "address"
        }
      ],
      "stateMutability": "view",
      "type": "function"
    },
    {
      "inputs": [],
      "name": "getHolograph",
      "outputs": [
        {
          "internalType": "address",
          "name": "holograph",
          "type": "address"
        }
      ],
      "stateMutability": "view",
      "type": "function"
    },
    {
      "inputs": [],
      "name": "getRegistry",
      "outputs": [
        {
          "internalType": "address",
          "name": "registry",
          "type": "address"
        }
      ],
      "stateMutability": "view",
      "type": "function"
    },
    {
      "inputs": [
        {
          "internalType": "bytes",
          "name": "data",
          "type": "bytes"
        }
      ],
      "name": "init",
      "outputs": [
        {
          "internalType": "bytes4",
          "name": "",
          "type": "bytes4"
        }
      ],
      "stateMutability": "nonpayable",
      "type": "function"
    },
    {
      "inputs": [
        {
          "internalType": "address",
          "name": "adminAddress",
          "type": "address"
        }
      ],
      "name": "setAdmin",
      "outputs": [],
      "stateMutability": "nonpayable",
      "type": "function"
    },
    {
      "inputs": [
        {
          "internalType": "address",
          "name": "holograph",
          "type": "address"
        }
      ],
      "name": "setHolograph",
      "outputs": [],
      "stateMutability": "nonpayable",
      "type": "function"
    },
    {
      "inputs": [
        {
          "internalType": "address",
          "name": "registry",
          "type": "address"
        }
      ],
      "name": "setRegistry",
      "outputs": [],
      "stateMutability": "nonpayable",
      "type": "function"
    }
  ],
  "transactionHash": "0x603614ddd662d624329a3cbe7ad7e0b1966802ad7d5219ec60debfb226c260e4",
  "args": [],
  "numDeployments": 1,
  "solcInputHash": "2e8eb468b91034c11ebd8b1a633d193a",
  "bytecode": "0x608060405234801561001057600080fd5b506121cd806100206000396000f3fe6080604052600436106100b15760003560e01c8063704b6c0211610069578063bf64a82d1161004e578063bf64a82d1461022b578063df6516bd1461023e578063f851a4401461025e57600080fd5b8063704b6c02146101eb578063a91ee0dc1461020b57600080fd5b80634ddf47d41161009a5780634ddf47d4146101325780635ab1bd53146101835780636e9960c3146101b757600080fd5b806325d5cac8146100b65780634827ae0c146100d8575b600080fd5b3480156100c257600080fd5b506100d66100d1366004610f68565b610273565b005b3480156100e457600080fd5b507f1eee493315beeac80829afd0aaa340f3821cabe68571a2743478e81638a3d94d545b60405173ffffffffffffffffffffffffffffffffffffffff90911681526020015b60405180910390f35b34801561013e57600080fd5b5061015261014d366004610fbb565b610352565b6040517fffffffff000000000000000000000000000000000000000000000000000000009091168152602001610129565b34801561018f57600080fd5b507f460c4059d72b144253e5fc4e2aacbae2bcd6362c67862cd58ecbab0e7b10c34954610108565b3480156101c357600080fd5b507f5705f5753aa4f617eef2cae1dada3d3355e9387b04d19191f09b545e684ca50d54610108565b3480156101f757600080fd5b506100d6610206366004610f68565b6104bb565b34801561021757600080fd5b506100d6610226366004610f68565b610595565b6100d661023936600461108a565b61066f565b34801561024a57600080fd5b506100d661025936600461110f565b61074a565b34801561026a57600080fd5b50610108610d63565b7f5705f5753aa4f617eef2cae1dada3d3355e9387b04d19191f09b545e684ca50d5473ffffffffffffffffffffffffffffffffffffffff163373ffffffffffffffffffffffffffffffffffffffff161461032e576040517f08c379a000000000000000000000000000000000000000000000000000000000815260206004820152601e60248201527f484f4c4f47524150483a2061646d696e206f6e6c792066756e6374696f6e000060448201526064015b60405180910390fd5b7f1eee493315beeac80829afd0aaa340f3821cabe68571a2743478e81638a3d94d55565b600061037e7f4e5f991bca30eca2d4643aaefa807e88f96a4a97398933d572a3c0d973004a0154151590565b156103e5576040517f08c379a000000000000000000000000000000000000000000000000000000000815260206004820152601e60248201527f484f4c4f47524150483a20616c726561647920696e697469616c697a656400006044820152606401610325565b600080838060200190518101906103fc91906111a0565b91509150327f5705f5753aa4f617eef2cae1dada3d3355e9387b04d19191f09b545e684ca50d55817f1eee493315beeac80829afd0aaa340f3821cabe68571a2743478e81638a3d94d55807f460c4059d72b144253e5fc4e2aacbae2bcd6362c67862cd58ecbab0e7b10c3495561049260017f4e5f991bca30eca2d4643aaefa807e88f96a4a97398933d572a3c0d973004a0155565b507f4ddf47d4000000000000000000000000000000000000000000000000000000009392505050565b7f5705f5753aa4f617eef2cae1dada3d3355e9387b04d19191f09b545e684ca50d5473ffffffffffffffffffffffffffffffffffffffff163373ffffffffffffffffffffffffffffffffffffffff1614610571576040517f08c379a000000000000000000000000000000000000000000000000000000000815260206004820152601e60248201527f484f4c4f47524150483a2061646d696e206f6e6c792066756e6374696f6e00006044820152606401610325565b7f5705f5753aa4f617eef2cae1dada3d3355e9387b04d19191f09b545e684ca50d55565b7f5705f5753aa4f617eef2cae1dada3d3355e9387b04d19191f09b545e684ca50d5473ffffffffffffffffffffffffffffffffffffffff163373ffffffffffffffffffffffffffffffffffffffff161461064b576040517f08c379a000000000000000000000000000000000000000000000000000000000815260206004820152601e60248201527f484f4c4f47524150483a2061646d696e206f6e6c792066756e6374696f6e00006044820152606401610325565b7f460c4059d72b144253e5fc4e2aacbae2bcd6362c67862cd58ecbab0e7b10c34955565b7f5705f5753aa4f617eef2cae1dada3d3355e9387b04d19191f09b545e684ca50d5473ffffffffffffffffffffffffffffffffffffffff163373ffffffffffffffffffffffffffffffffffffffff1614610725576040517f08c379a000000000000000000000000000000000000000000000000000000000815260206004820152601e60248201527f484f4c4f47524150483a2061646d696e206f6e6c792066756e6374696f6e00006044820152606401610325565b808260003760008082600034875af13d6000803e808015610745573d6000f35b3d6000fd5b6000833561075e60408601602087016111da565b60408601356107706060880188611200565b60405161077e92919061126c565b6040519081900390206107946080890189611200565b6040516107a292919061126c565b60405190819003812061082a9594939291889060200195865260e09490941b7fffffffff0000000000000000000000000000000000000000000000000000000016602086015260248501929092526044840152606483015260601b7fffffffffffffffffffffffffffffffffffffffff00000000000000000000000016608482015260980190565b60405160208183030381529060405280519060200120905061086983600001358460200135856040016020810190610862919061127c565b8486610d92565b6108cf576040517f08c379a000000000000000000000000000000000000000000000000000000000815260206004820152601c60248201527f484f4c4f47524150483a20696e76616c6964207369676e6174757265000000006044820152606401610325565b7f460c4059d72b144253e5fc4e2aacbae2bcd6362c67862cd58ecbab0e7b10c349546040517f24299c6e0000000000000000000000000000000000000000000000000000000081526004810183905273ffffffffffffffffffffffffffffffffffffffff909116906324299c6e90602401602060405180830381865afa15801561095d573d6000803e3d6000fd5b505050506040513d601f19601f82011682018060405250810190610981919061129f565b156109e8576040517f08c379a000000000000000000000000000000000000000000000000000000000815260206004820152601b60248201527f484f4c4f47524150483a20616c7265616479206465706c6f79656400000000006044820152606401610325565b806000806109f96060880188611200565b8080601f01602080910402602001604051908101604052809392919081815260200183838082843760009201829052508451949550879493506020860192509050f59150600060405180602001610a4f90610f36565b6020820181038252601f19601f8201166040525090506000848251602084016000f57f1eee493315beeac80829afd0aaa340f3821cabe68571a2743478e81638a3d94d549091507f4ddf47d40000000000000000000000000000000000000000000000000000000073ffffffffffffffffffffffffffffffffffffffff8316634ddf47d4610ae360408e0160208f016111da565b6040805163ffffffff909216602083015273ffffffffffffffffffffffffffffffffffffffff808716918301919091528e3560608301528916608082015260a001604080517fffffffffffffffffffffffffffffffffffffffffffffffffffffffffffffffe0818403018152919052610b5f60808f018f611200565b604051602001610b719392919061132c565b6040516020818303038152906040526040518263ffffffff1660e01b8152600401610b9c9190611390565b6020604051808303816000875af1158015610bbb573d6000803e3d6000fd5b505050506040513d601f19601f82011682018060405250810190610bdf91906113a3565b7fffffffff000000000000000000000000000000000000000000000000000000001614610c68576040517f08c379a000000000000000000000000000000000000000000000000000000000815260206004820152601560248201527f696e697469616c697a6174696f6e206661696c656400000000000000000000006044820152606401610325565b7f460c4059d72b144253e5fc4e2aacbae2bcd6362c67862cd58ecbab0e7b10c349546040517fd9aa2a7c0000000000000000000000000000000000000000000000000000000081526004810189905273ffffffffffffffffffffffffffffffffffffffff8481166024830152919091169063d9aa2a7c90604401600060405180830381600087803b158015610cfc57600080fd5b505af1158015610d10573d6000803e3d6000fd5b505060405189925073ffffffffffffffffffffffffffffffffffffffff851691507fa802207d4c618b40db3b25b7b90e6f483e16b2c1f8d3610b15b345a718c6b41b90600090a350505050505050505050565b6000610d8d7f5705f5753aa4f617eef2cae1dada3d3355e9387b04d19191f09b545e684ca50d5490565b905090565b6000601b8460ff161015610dae57610dab601b856113e5565b93505b60408051600081526020810180835285905260ff861691810191909152606081018790526080810186905273ffffffffffffffffffffffffffffffffffffffff83169060019060a0016020604051602081039080840390855afa158015610e19573d6000803e3d6000fd5b5050506020604051035173ffffffffffffffffffffffffffffffffffffffff161480610f2c57506040517f19457468657265756d205369676e6564204d6573736167653a0a3332000000006020820152603c810184905273ffffffffffffffffffffffffffffffffffffffff831690600190605c01604080517fffffffffffffffffffffffffffffffffffffffffffffffffffffffffffffffe08184030181528282528051602091820120600084529083018083525260ff881690820152606081018990526080810188905260a0016020604051602081039080840390855afa158015610f0a573d6000803e3d6000fd5b5050506020604051035173ffffffffffffffffffffffffffffffffffffffff16145b9695505050505050565b610d8f8061143283390190565b73ffffffffffffffffffffffffffffffffffffffff81168114610f6557600080fd5b50565b600060208284031215610f7a57600080fd5b8135610f8581610f43565b9392505050565b7f4e487b7100000000000000000000000000000000000000000000000000000000600052604160045260246000fd5b600060208284031215610fcd57600080fd5b813567ffffffffffffffff80821115610fe557600080fd5b818401915084601f830112610ff957600080fd5b81358181111561100b5761100b610f8c565b604051601f82017fffffffffffffffffffffffffffffffffffffffffffffffffffffffffffffffe0908116603f0116810190838211818310171561105157611051610f8c565b8160405282815287602084870101111561106a57600080fd5b826020860160208301376000928101602001929092525095945050505050565b60008060006040848603121561109f57600080fd5b83356110aa81610f43565b9250602084013567ffffffffffffffff808211156110c757600080fd5b818601915086601f8301126110db57600080fd5b8135818111156110ea57600080fd5b8760208285010111156110fc57600080fd5b6020830194508093505050509250925092565b600080600083850360a081121561112557600080fd5b843567ffffffffffffffff81111561113c57600080fd5b850160a0818803121561114e57600080fd5b935060607fffffffffffffffffffffffffffffffffffffffffffffffffffffffffffffffe08201121561118057600080fd5b50602084019150608084013561119581610f43565b809150509250925092565b600080604083850312156111b357600080fd5b82516111be81610f43565b60208401519092506111cf81610f43565b809150509250929050565b6000602082840312156111ec57600080fd5b813563ffffffff81168114610f8557600080fd5b60008083357fffffffffffffffffffffffffffffffffffffffffffffffffffffffffffffffe184360301811261123557600080fd5b83018035915067ffffffffffffffff82111561125057600080fd5b60200191503681900382131561126557600080fd5b9250929050565b8183823760009101908152919050565b60006020828403121561128e57600080fd5b813560ff81168114610f8557600080fd5b6000602082840312156112b157600080fd5b81518015158114610f8557600080fd5b6000815180845260005b818110156112e7576020818501810151868301820152016112cb565b818111156112f9576000602083870101525b50601f017fffffffffffffffffffffffffffffffffffffffffffffffffffffffffffffffe0169290920160200192915050565b60408152600061133f60408301866112c1565b82810360208401528381528385602083013760006020858301015260207fffffffffffffffffffffffffffffffffffffffffffffffffffffffffffffffe0601f860116820101915050949350505050565b602081526000610f8560208301846112c1565b6000602082840312156113b557600080fd5b81517fffffffff0000000000000000000000000000000000000000000000000000000081168114610f8557600080fd5b600060ff821660ff84168060ff03821115611429577f4e487b7100000000000000000000000000000000000000000000000000000000600052601160045260246000fd5b01939250505056fe608060405234801561001057600080fd5b50610d6f806100206000396000f3fe60806040526004361061009a5760003560e01c8063704b6c0211610069578063bf64a82d1161004e578063bf64a82d1461024a578063c8a4c3d51461025d578063f851a44014610272576100a1565b8063704b6c02146101e6578063913a0ef214610206576100a1565b80634827ae0c146100d35780634ddf47d41461012d5780636e9960c31461017e5780636faf275b146101b2576100a1565b366100a157005b60006100ab610287565b90503660008037600080366000845af43d6000803e8080156100cc573d6000f35b3d6000fd5b005b3480156100df57600080fd5b507f1eee493315beeac80829afd0aaa340f3821cabe68571a2743478e81638a3d94d545b60405173ffffffffffffffffffffffffffffffffffffffff90911681526020015b60405180910390f35b34801561013957600080fd5b5061014d610148366004610a09565b6103c5565b6040517fffffffff000000000000000000000000000000000000000000000000000000009091168152602001610124565b34801561018a57600080fd5b507f5705f5753aa4f617eef2cae1dada3d3355e9387b04d19191f09b545e684ca50d54610103565b3480156101be57600080fd5b507fee63e41dd03b4d304382a6596ec5f4a6eb601d3640835d27fca1d0be62955bb554610103565b3480156101f257600080fd5b506100d1610201366004610aae565b610766565b34801561021257600080fd5b507f2378c1f8aa4ffd1a2b352b1ec4b9fe37cee7d2bb3fa1a7e6aeaeb422f15defdb5460405163ffffffff9091168152602001610124565b6100d1610258366004610ad2565b610840565b34801561026957600080fd5b50610103610287565b34801561027e57600080fd5b50610103610916565b60008060007f1eee493315beeac80829afd0aaa340f3821cabe68571a2743478e81638a3d94d5491507f927d33f74b40d20ebbbc7fbed0f01deacf3e0b589b248a5cc2fc82aa949289135490508173ffffffffffffffffffffffffffffffffffffffff16635ab1bd536040518163ffffffff1660e01b8152600401602060405180830381865afa15801561031f573d6000803e3d6000fd5b505050506040513d601f19601f820116820180604052508101906103439190610b57565b73ffffffffffffffffffffffffffffffffffffffff1663cc2913f9826040518263ffffffff1660e01b815260040161037d91815260200190565b602060405180830381865afa15801561039a573d6000803e3d6000fd5b505050506040513d601f19601f820116820180604052508101906103be9190610b57565b9250505090565b60006103f17f4e5f991bca30eca2d4643aaefa807e88f96a4a97398933d572a3c0d973004a0154151590565b1561045d576040517f08c379a000000000000000000000000000000000000000000000000000000000815260206004820181905260248201527f484f4c4f475241504845523a20616c726561647920696e697469616c697a656460448201526064015b60405180910390fd5b600080838060200190518101906104749190610bf1565b91509150600080600080858060200190518101906104929190610c55565b9350935093509350337f5705f5753aa4f617eef2cae1dada3d3355e9387b04d19191f09b545e684ca50d55837f2378c1f8aa4ffd1a2b352b1ec4b9fe37cee7d2bb3fa1a7e6aeaeb422f15defdb55827f1eee493315beeac80829afd0aaa340f3821cabe68571a2743478e81638a3d94d55817f927d33f74b40d20ebbbc7fbed0f01deacf3e0b589b248a5cc2fc82aa9492891355807fee63e41dd03b4d304382a6596ec5f4a6eb601d3640835d27fca1d0be62955bb555600080610554610287565b73ffffffffffffffffffffffffffffffffffffffff168760405160240161057b9190610cb3565b604080517fffffffffffffffffffffffffffffffffffffffffffffffffffffffffffffffe08184030181529181526020820180517bffffffffffffffffffffffffffffffffffffffffffffffffffffffff167f4ddf47d400000000000000000000000000000000000000000000000000000000179052516105fc9190610d04565b600060405180830381855af49150503d8060008114610637576040519150601f19603f3d011682016040523d82523d6000602084013e61063c565b606091505b50915091506000818060200190518101906106579190610d20565b90508280156106a757507fffffffff0000000000000000000000000000000000000000000000000000000081167f4ddf47d400000000000000000000000000000000000000000000000000000000145b61070d576040517f08c379a000000000000000000000000000000000000000000000000000000000815260206004820152601560248201527f696e697469616c697a6174696f6e206661696c656400000000000000000000006044820152606401610454565b61073660017f4e5f991bca30eca2d4643aaefa807e88f96a4a97398933d572a3c0d973004a0155565b507f4ddf47d4000000000000000000000000000000000000000000000000000000009a9950505050505050505050565b7f5705f5753aa4f617eef2cae1dada3d3355e9387b04d19191f09b545e684ca50d5473ffffffffffffffffffffffffffffffffffffffff163373ffffffffffffffffffffffffffffffffffffffff161461081c576040517f08c379a000000000000000000000000000000000000000000000000000000000815260206004820152601e60248201527f484f4c4f47524150483a2061646d696e206f6e6c792066756e6374696f6e00006044820152606401610454565b7f5705f5753aa4f617eef2cae1dada3d3355e9387b04d19191f09b545e684ca50d55565b7f5705f5753aa4f617eef2cae1dada3d3355e9387b04d19191f09b545e684ca50d5473ffffffffffffffffffffffffffffffffffffffff163373ffffffffffffffffffffffffffffffffffffffff16146108f6576040517f08c379a000000000000000000000000000000000000000000000000000000000815260206004820152601e60248201527f484f4c4f47524150483a2061646d696e206f6e6c792066756e6374696f6e00006044820152606401610454565b808260003760008082600034875af13d6000803e8080156100cc573d6000f35b60006109407f5705f5753aa4f617eef2cae1dada3d3355e9387b04d19191f09b545e684ca50d5490565b905090565b7f4e487b7100000000000000000000000000000000000000000000000000000000600052604160045260246000fd5b604051601f82017fffffffffffffffffffffffffffffffffffffffffffffffffffffffffffffffe016810167ffffffffffffffff811182821017156109bb576109bb610945565b604052919050565b600067ffffffffffffffff8211156109dd576109dd610945565b50601f017fffffffffffffffffffffffffffffffffffffffffffffffffffffffffffffffe01660200190565b600060208284031215610a1b57600080fd5b813567ffffffffffffffff811115610a3257600080fd5b8201601f81018413610a4357600080fd5b8035610a56610a51826109c3565b610974565b818152856020838501011115610a6b57600080fd5b81602084016020830137600091810160200191909152949350505050565b73ffffffffffffffffffffffffffffffffffffffff81168114610aab57600080fd5b50565b600060208284031215610ac057600080fd5b8135610acb81610a89565b9392505050565b600080600060408486031215610ae757600080fd5b8335610af281610a89565b9250602084013567ffffffffffffffff80821115610b0f57600080fd5b818601915086601f830112610b2357600080fd5b813581811115610b3257600080fd5b876020828501011115610b4457600080fd5b6020830194508093505050509250925092565b600060208284031215610b6957600080fd5b8151610acb81610a89565b60005b83811015610b8f578181015183820152602001610b77565b83811115610b9e576000848401525b50505050565b600082601f830112610bb557600080fd5b8151610bc3610a51826109c3565b818152846020838601011115610bd857600080fd5b610be9826020830160208701610b74565b949350505050565b60008060408385031215610c0457600080fd5b825167ffffffffffffffff80821115610c1c57600080fd5b610c2886838701610ba4565b93506020850151915080821115610c3e57600080fd5b50610c4b85828601610ba4565b9150509250929050565b60008060008060808587031215610c6b57600080fd5b845163ffffffff81168114610c7f57600080fd5b6020860151909450610c9081610a89565b604086015160608701519194509250610ca881610a89565b939692955090935050565b6020815260008251806020840152610cd2816040850160208701610b74565b601f017fffffffffffffffffffffffffffffffffffffffffffffffffffffffffffffffe0169190910160400192915050565b60008251610d16818460208701610b74565b9190910192915050565b600060208284031215610d3257600080fd5b81517fffffffff0000000000000000000000000000000000000000000000000000000081168114610acb57600080fdfea164736f6c634300080d000aa164736f6c634300080d000a",
  "devdoc": {
    "details": "This smart contract demonstrates a clear and concise way that we plan to deploy smart contracts.With the goal of deploying replicate-able non-fungible token smart contracts through this process.This is just the first step. But it is fundamental for achieving cross-chain non-fungible tokens.",
    "events": {
      "BridgeableContractDeployed(address,bytes32)": {
        "details": "This event is fired every time that a bridgeable contract is deployed."
      }
    },
    "kind": "dev",
    "methods": {
      "constructor": {
        "details": "Constructor is left empty and only the admin address is set."
      },
      "deployHolographableContract((bytes32,uint32,bytes32,bytes,bytes),(bytes32,bytes32,uint8),address)": {
        "details": "A sample function of the deployment of bridgeable smart contracts.The used variables and formatting is not the final or decisive version, but the general idea is directly portrayed."
      }
    },
    "version": 1
  },
  "userdoc": {
    "kind": "user",
    "methods": {
      "deployHolographableContract((bytes32,uint32,bytes32,bytes,bytes),(bytes32,bytes32,uint8),address)": {
        "notice": "In this function we have incorporated a secure storage function/extension. Keep in mind that this is not required or needed for bridgeable deployments to work. It is just a personal development choice."
      }
    },
    "version": 1
  },
  "storageLayout": {
    "storage": [],
    "types": null
  }
}