{
  "address": "0xa762b81272cE3545422D1Fc4b9D6d08f24247dc7",
  "abi": [
    {
      "inputs": [],
      "stateMutability": "nonpayable",
      "type": "constructor"
    },
    {
      "anonymous": false,
      "inputs": [
        {
          "indexed": true,
          "internalType": "address",
          "name": "previousOwner",
          "type": "address"
        },
        {
          "indexed": true,
          "internalType": "address",
          "name": "newOwner",
          "type": "address"
        }
      ],
      "name": "OwnershipTransferred",
      "type": "event"
    },
    {
      "anonymous": false,
      "inputs": [
        {
          "indexed": false,
          "internalType": "uint256",
          "name": "tokenId",
          "type": "uint256"
        },
        {
          "indexed": false,
          "internalType": "address[]",
          "name": "recipients",
          "type": "address[]"
        },
        {
          "indexed": false,
          "internalType": "uint256[]",
          "name": "bps",
          "type": "uint256[]"
        }
      ],
      "name": "SecondarySaleFees",
      "type": "event"
    },
    {
      "inputs": [],
      "name": "admin",
      "outputs": [
        {
          "internalType": "address",
          "name": "",
          "type": "address"
        }
      ],
      "stateMutability": "view",
      "type": "function"
    },
    {
      "inputs": [
        {
          "internalType": "address",
          "name": "target",
          "type": "address"
        },
        {
          "internalType": "bytes",
          "name": "data",
          "type": "bytes"
        }
      ],
      "name": "adminCall",
      "outputs": [],
      "stateMutability": "payable",
      "type": "function"
    },
    {
      "inputs": [
        {
          "internalType": "uint256",
          "name": "tokenId",
          "type": "uint256"
        }
      ],
      "name": "bidSharesForToken",
      "outputs": [
        {
          "components": [
            {
              "components": [
                {
                  "internalType": "uint256",
                  "name": "value",
                  "type": "uint256"
                }
              ],
              "internalType": "struct ZoraDecimal",
              "name": "prevOwner",
              "type": "tuple"
            },
            {
              "components": [
                {
                  "internalType": "uint256",
                  "name": "value",
                  "type": "uint256"
                }
              ],
              "internalType": "struct ZoraDecimal",
              "name": "creator",
              "type": "tuple"
            },
            {
              "components": [
                {
                  "internalType": "uint256",
                  "name": "value",
                  "type": "uint256"
                }
              ],
              "internalType": "struct ZoraDecimal",
              "name": "owner",
              "type": "tuple"
            }
          ],
          "internalType": "struct ZoraBidShares",
          "name": "bidShares",
          "type": "tuple"
        }
      ],
      "stateMutability": "view",
      "type": "function"
    },
    {
      "inputs": [
        {
          "internalType": "address",
          "name": "",
          "type": "address"
        },
        {
          "internalType": "uint256",
          "name": "tokenId",
          "type": "uint256"
        },
        {
          "internalType": "uint256",
          "name": "amount",
          "type": "uint256"
        }
      ],
      "name": "calculateRoyaltyFee",
      "outputs": [
        {
          "internalType": "uint256",
          "name": "",
          "type": "uint256"
        }
      ],
      "stateMutability": "view",
      "type": "function"
    },
    {
      "inputs": [
        {
          "internalType": "address payable[]",
          "name": "addresses",
          "type": "address[]"
        },
        {
          "internalType": "uint256[]",
          "name": "bps",
          "type": "uint256[]"
        }
      ],
      "name": "configurePayouts",
      "outputs": [],
      "stateMutability": "nonpayable",
      "type": "function"
    },
    {
      "inputs": [],
      "name": "getAdmin",
      "outputs": [
        {
          "internalType": "address",
          "name": "adminAddress",
          "type": "address"
        }
      ],
      "stateMutability": "view",
      "type": "function"
    },
    {
      "inputs": [],
      "name": "getEthPayout",
      "outputs": [],
      "stateMutability": "nonpayable",
      "type": "function"
    },
    {
      "inputs": [
        {
          "internalType": "uint256",
          "name": "tokenId",
          "type": "uint256"
        }
      ],
      "name": "getFeeBps",
      "outputs": [
        {
          "internalType": "uint256[]",
          "name": "",
          "type": "uint256[]"
        }
      ],
      "stateMutability": "view",
      "type": "function"
    },
    {
      "inputs": [
        {
          "internalType": "uint256",
          "name": "tokenId",
          "type": "uint256"
        }
      ],
      "name": "getFeeRecipients",
      "outputs": [
        {
          "internalType": "address payable[]",
          "name": "",
          "type": "address[]"
        }
      ],
      "stateMutability": "view",
      "type": "function"
    },
    {
      "inputs": [
        {
          "internalType": "uint256",
          "name": "tokenId",
          "type": "uint256"
        }
      ],
      "name": "getFees",
      "outputs": [
        {
          "internalType": "address payable[]",
          "name": "",
          "type": "address[]"
        },
        {
          "internalType": "uint256[]",
          "name": "",
          "type": "uint256[]"
        }
      ],
      "stateMutability": "view",
      "type": "function"
    },
    {
      "inputs": [],
      "name": "getOwner",
      "outputs": [
        {
          "internalType": "address",
          "name": "ownerAddress",
          "type": "address"
        }
      ],
      "stateMutability": "view",
      "type": "function"
    },
    {
      "inputs": [],
      "name": "getPayoutInfo",
      "outputs": [
        {
          "internalType": "address payable[]",
          "name": "addresses",
          "type": "address[]"
        },
        {
          "internalType": "uint256[]",
          "name": "bps",
          "type": "uint256[]"
        }
      ],
      "stateMutability": "view",
      "type": "function"
    },
    {
      "inputs": [
        {
          "internalType": "uint256",
          "name": "tokenId",
          "type": "uint256"
        }
      ],
      "name": "getRoyalties",
      "outputs": [
        {
          "internalType": "address payable[]",
          "name": "",
          "type": "address[]"
        },
        {
          "internalType": "uint256[]",
          "name": "",
          "type": "uint256[]"
        }
      ],
      "stateMutability": "view",
      "type": "function"
    },
    {
      "inputs": [],
      "name": "getSourceContract",
      "outputs": [
        {
          "internalType": "address",
          "name": "sourceContract",
          "type": "address"
        }
      ],
      "stateMutability": "view",
      "type": "function"
    },
    {
      "inputs": [
        {
          "internalType": "string",
          "name": "tokenName",
          "type": "string"
        }
      ],
      "name": "getTokenAddress",
      "outputs": [
        {
          "internalType": "address",
          "name": "",
          "type": "address"
        }
      ],
      "stateMutability": "view",
      "type": "function"
    },
    {
      "inputs": [
        {
          "internalType": "address",
          "name": "tokenAddress",
          "type": "address"
        }
      ],
      "name": "getTokenPayout",
      "outputs": [],
      "stateMutability": "nonpayable",
      "type": "function"
    },
    {
      "inputs": [
        {
          "internalType": "address[]",
          "name": "tokenAddresses",
          "type": "address[]"
        }
      ],
      "name": "getTokensPayout",
      "outputs": [],
      "stateMutability": "nonpayable",
      "type": "function"
    },
    {
      "inputs": [
        {
          "internalType": "bytes",
          "name": "initPayload",
          "type": "bytes"
        }
      ],
      "name": "init",
      "outputs": [
        {
          "internalType": "bytes4",
          "name": "",
          "type": "bytes4"
        }
      ],
      "stateMutability": "nonpayable",
      "type": "function"
    },
    {
      "inputs": [
        {
          "internalType": "bytes",
          "name": "initPayload",
          "type": "bytes"
        }
      ],
      "name": "initHolographRoyalties",
      "outputs": [
        {
          "internalType": "bytes4",
          "name": "",
          "type": "bytes4"
        }
      ],
      "stateMutability": "nonpayable",
      "type": "function"
    },
    {
      "inputs": [
        {
          "internalType": "bytes",
          "name": "initPayload",
          "type": "bytes"
        }
      ],
      "name": "initPA1D",
      "outputs": [
        {
          "internalType": "bytes4",
          "name": "",
          "type": "bytes4"
        }
      ],
      "stateMutability": "nonpayable",
      "type": "function"
    },
    {
      "inputs": [],
      "name": "marketContract",
      "outputs": [
        {
          "internalType": "address",
          "name": "",
          "type": "address"
        }
      ],
      "stateMutability": "view",
      "type": "function"
    },
    {
      "inputs": [],
      "name": "owner",
      "outputs": [
        {
          "internalType": "address",
          "name": "",
          "type": "address"
        }
      ],
      "stateMutability": "view",
      "type": "function"
    },
    {
      "inputs": [
        {
          "internalType": "address",
          "name": "target",
          "type": "address"
        },
        {
          "internalType": "bytes",
          "name": "data",
          "type": "bytes"
        }
      ],
      "name": "ownerCall",
      "outputs": [],
      "stateMutability": "payable",
      "type": "function"
    },
    {
      "inputs": [
        {
          "internalType": "uint256",
          "name": "tokenId",
          "type": "uint256"
        },
        {
          "internalType": "uint256",
          "name": "value",
          "type": "uint256"
        }
      ],
      "name": "royaltyInfo",
      "outputs": [
        {
          "internalType": "address",
          "name": "",
          "type": "address"
        },
        {
          "internalType": "uint256",
          "name": "",
          "type": "uint256"
        }
      ],
      "stateMutability": "view",
      "type": "function"
    },
    {
      "inputs": [
        {
          "internalType": "address",
          "name": "adminAddress",
          "type": "address"
        }
      ],
      "name": "setAdmin",
      "outputs": [],
      "stateMutability": "nonpayable",
      "type": "function"
    },
    {
      "inputs": [
        {
          "internalType": "address",
          "name": "ownerAddress",
          "type": "address"
        }
      ],
      "name": "setOwner",
      "outputs": [],
      "stateMutability": "nonpayable",
      "type": "function"
    },
    {
      "inputs": [
        {
          "internalType": "uint256",
          "name": "tokenId",
          "type": "uint256"
        },
        {
          "internalType": "address payable",
          "name": "receiver",
          "type": "address"
        },
        {
          "internalType": "uint256",
          "name": "bp",
          "type": "uint256"
        }
      ],
      "name": "setRoyalties",
      "outputs": [],
      "stateMutability": "nonpayable",
      "type": "function"
    },
    {
      "inputs": [
        {
          "internalType": "address",
          "name": "",
          "type": "address"
        },
        {
          "internalType": "uint256",
          "name": "tokenId",
          "type": "uint256"
        }
      ],
      "name": "tokenCreator",
      "outputs": [
        {
          "internalType": "address",
          "name": "",
          "type": "address"
        }
      ],
      "stateMutability": "view",
      "type": "function"
    },
    {
      "inputs": [
        {
          "internalType": "uint256",
          "name": "tokenId",
          "type": "uint256"
        }
      ],
      "name": "tokenCreators",
      "outputs": [
        {
          "internalType": "address",
          "name": "",
          "type": "address"
        }
      ],
      "stateMutability": "view",
      "type": "function"
    },
    {
      "inputs": [
        {
          "internalType": "address",
          "name": "newOwner",
          "type": "address"
        }
      ],
      "name": "transferOwnership",
      "outputs": [],
      "stateMutability": "nonpayable",
      "type": "function"
    }
  ],
  "transactionHash": "0x8a09fc3017650cb11b285067ace372bcf6f4efc6200d23a9a26bb9fa02742f6a",
  "args": [],
  "numDeployments": 3,
  "solcInputHash": "e64ae97b09f39ed33cd0bfd5720f7842",
  "bytecode": "0x608060405234801561001057600080fd5b5061316a806100206000396000f3fe6080604052600436106101cd5760003560e01c80638da5cb5b116100f7578063c409123611610095578063eb66dbcf11610064578063eb66dbcf1461057e578063f2fde38b14610591578063f851a440146105b1578063f9ce0582146105c657600080fd5b8063c40912361461051e578063d5a06d4c146104eb578063e0fd045f1461053e578063e2c7f3381461055e57600080fd5b8063b85ed7e4116100d1578063b85ed7e41461049e578063b9c4d9fb146104be578063bb3bafd6146104eb578063bf64a82d1461050b57600080fd5b80638da5cb5b14610466578063990803c31461047b578063a1794bcd146103d157600080fd5b80633328d2191161016f5780636faf275b1161013e5780636faf275b146103d1578063704b6c02146103e4578063860110f514610404578063893d20e81461043257600080fd5b80633328d2191461031c5780634ddf47d41461033c57806365b85eb51461035c5780636e9960c31461037c57600080fd5b80631949ddf3116101ab5780631949ddf31461023f5780631aff10771461025f57806320c60d2a146102b05780632a55205a146102d057600080fd5b80630ebd4c7f146101d257806312cb47381461020857806313af40351461021f575b600080fd5b3480156101de57600080fd5b506101f26101ed3660046128d1565b61060b565b6040516101ff9190612925565b60405180910390f35b34801561021457600080fd5b5061021d6106cc565b005b34801561022b57600080fd5b5061021d61023a36600461295a565b6106de565b34801561024b57600080fd5b5061021d61025a36600461295a565b6107fe565b34801561026b57600080fd5b5061027f61027a366004612a6b565b610812565b6040517fffffffff0000000000000000000000000000000000000000000000000000000090911681526020016101ff565b3480156102bc57600080fd5b5061021d6102cb366004612ae0565b610aa2565b3480156102dc57600080fd5b506102f06102eb366004612b7f565b610ab3565b6040805173ffffffffffffffffffffffffffffffffffffffff90931683526020830191909152016101ff565b34801561032857600080fd5b5061021d610337366004612c07565b610b62565b34801561034857600080fd5b5061027f610357366004612a6b565b610d04565b34801561036857600080fd5b5061027f610377366004612a6b565b610e50565b34801561038857600080fd5b507f3f106594dc74eeef980dae234cde8324dc2497b13d27a0c59e55bd2ca10a07c9545b60405173ffffffffffffffffffffffffffffffffffffffff90911681526020016101ff565b3480156103dd57600080fd5b50306103ac565b3480156103f057600080fd5b5061021d6103ff36600461295a565b6110e4565b34801561041057600080fd5b5061042461041f366004612cc9565b6111be565b6040519081526020016101ff565b34801561043e57600080fd5b507fb56711ba6bd3ded7639fc335ee7524fe668a79d7558c85992e3f8494cf772777546103ac565b34801561047257600080fd5b506103ac611240565b34801561048757600080fd5b5061049061126f565b6040516101ff929190612d44565b3480156104aa57600080fd5b506103ac6104b9366004612d72565b61128a565b3480156104ca57600080fd5b506104de6104d93660046128d1565b6112db565b6040516101ff9190612d9e565b3480156104f757600080fd5b506104906105063660046128d1565b6113f6565b61021d610519366004612db1565b61158e565b34801561052a57600080fd5b506103ac610539366004612a6b565b611670565b34801561054a57600080fd5b506103ac6105593660046128d1565b61167b565b34801561056a57600080fd5b5061021d610579366004612e36565b6116ca565b61021d61058c366004612db1565b61188a565b34801561059d57600080fd5b5061021d6105ac36600461295a565b6118f8565b3480156105bd57600080fd5b506103ac611a07565b3480156105d257600080fd5b506105e66105e13660046128d1565b611a31565b60408051825151815260208084015151908201529181015151908201526060016101ff565b6040805160018082528183019092526060916000919060208083019080368337019050509050600061063c84611ad9565b73ffffffffffffffffffffffffffffffffffffffff160361069d577fff29fcf645501423fd56e0287670f6813a1e5db5cf706428bc8516381e7ffe81548160008151811061068c5761068c612e6e565b6020026020010181815250506106c6565b6106a683611b34565b816000815181106106b9576106b9612e6e565b6020026020010181815250505b92915050565b6106d4611b81565b6106dc611c76565b565b6106e6611de8565b610751576040517f08c379a000000000000000000000000000000000000000000000000000000000815260206004820152601e60248201527f524f59414c544945533a2063616c6c6572206e6f7420616e206f776e6572000060448201526064015b60405180910390fd5b600061077b7fb56711ba6bd3ded7639fc335ee7524fe668a79d7558c85992e3f8494cf7727775490565b9050817fb56711ba6bd3ded7639fc335ee7524fe668a79d7558c85992e3f8494cf772777558173ffffffffffffffffffffffffffffffffffffffff168173ffffffffffffffffffffffffffffffffffffffff167f8be0079c531659141344cd1fd0a4f28419497f9722a3daafe3b4186f6b6457e060405160405180910390a35050565b610806611b81565b61080f81611fad565b50565b7f91428d26cb4818e4e627ebb64c06b5a67b82f313516b5c903cf07a00681c95f654600090801561089f576040517f08c379a000000000000000000000000000000000000000000000000000000000815260206004820152601e60248201527f524f59414c544945533a20616c726561647920696e697469616c697a656400006044820152606401610748565b6000838060200190518101906108b59190612e9d565b90506108c3600030836116ca565b604080516001808252818301909252600091602080830190803683370190505090503073ffffffffffffffffffffffffffffffffffffffff16636faf275b6040518163ffffffff1660e01b8152600401602060405180830381865afa158015610930573d6000803e3d6000fd5b505050506040513d601f19601f820116820180604052508101906109549190612eb6565b73ffffffffffffffffffffffffffffffffffffffff16638da5cb5b6040518163ffffffff1660e01b8152600401602060405180830381865afa15801561099e573d6000803e3d6000fd5b505050506040513d601f19601f820116820180604052508101906109c29190612eb6565b816000815181106109d5576109d5612e6e565b73ffffffffffffffffffffffffffffffffffffffff929092166020928302919091019091015260408051600180825281830190925260009181602001602082028036833701905050905061271081600081518110610a3557610a35612e6e565b602002602001018181525050610a4a82612243565b610a53816122d4565b505060017f91428d26cb4818e4e627ebb64c06b5a67b82f313516b5c903cf07a00681c95f655507f4ddf47d4000000000000000000000000000000000000000000000000000000009392505050565b610aaa611b81565b61080f81612365565b60008080610ac085611ad9565b73ffffffffffffffffffffffffffffffffffffffff1603610b45577eb381815b89a20a37ee91e8a0119be5e16f6d1668377e7ae457213a74a415bb5461271084610b287fff29fcf645501423fd56e0287670f6813a1e5db5cf706428bc8516381e7ffe815490565b610b329190612f02565b610b3c9190612f3f565b91509150610b5b565b610b4e84611ad9565b61271084610b2887611b34565b9250929050565b610b6a611de8565b610bd0576040517f08c379a000000000000000000000000000000000000000000000000000000000815260206004820152601e60248201527f524f59414c544945533a2063616c6c6572206e6f7420616e206f776e657200006044820152606401610748565b8051825114610c3b576040517f08c379a000000000000000000000000000000000000000000000000000000000815260206004820152601e60248201527f524f59414c544945533a206d6973736d617463686564206c656e6768747300006044820152606401610748565b6000805b8351811015610c8157828181518110610c5a57610c5a612e6e565b602002602001015182610c6d9190612f7a565b915080610c7981612f92565b915050610c3f565b508061271014610ced576040517f08c379a000000000000000000000000000000000000000000000000000000000815260206004820152601f60248201527f524f59414c544945533a20627073206d75737420657175616c203130303030006044820152606401610748565b610cf683612243565b610cff826122d4565b505050565b6000610d2e7f4e5f991bca30eca2d4643aaefa807e88f96a4a97398933d572a3c0d973004a015490565b15610d95576040517f08c379a000000000000000000000000000000000000000000000000000000000815260206004820152601e60248201527f524f59414c544945533a20616c726561647920696e697469616c697a656400006044820152606401610748565b337f3f106594dc74eeef980dae234cde8324dc2497b13d27a0c59e55bd2ca10a07c955337fb56711ba6bd3ded7639fc335ee7524fe668a79d7558c85992e3f8494cf77277755600082806020019051810190610df19190612e9d565b9050610dff600030836116ca565b610e2860017f4e5f991bca30eca2d4643aaefa807e88f96a4a97398933d572a3c0d973004a0155565b507f4ddf47d40000000000000000000000000000000000000000000000000000000092915050565b7f91428d26cb4818e4e627ebb64c06b5a67b82f313516b5c903cf07a00681c95f6546000908015610edd576040517f08c379a000000000000000000000000000000000000000000000000000000000815260206004820152601e60248201527f524f59414c544945533a20616c726561647920696e697469616c697a656400006044820152606401610748565b60008084806020019051810190610ef49190612fca565b91509150610f04600083836116ca565b604080516001808252818301909252600091602080830190803683370190505090503073ffffffffffffffffffffffffffffffffffffffff16636faf275b6040518163ffffffff1660e01b8152600401602060405180830381865afa158015610f71573d6000803e3d6000fd5b505050506040513d601f19601f82011682018060405250810190610f959190612eb6565b73ffffffffffffffffffffffffffffffffffffffff16638da5cb5b6040518163ffffffff1660e01b8152600401602060405180830381865afa158015610fdf573d6000803e3d6000fd5b505050506040513d601f19601f820116820180604052508101906110039190612eb6565b8160008151811061101657611016612e6e565b73ffffffffffffffffffffffffffffffffffffffff92909216602092830291909101909101526040805160018082528183019092526000918160200160208202803683370190505090506127108160008151811061107657611076612e6e565b60200260200101818152505061108b82612243565b611094816122d4565b505060017f91428d26cb4818e4e627ebb64c06b5a67b82f313516b5c903cf07a00681c95f655507f4ddf47d400000000000000000000000000000000000000000000000000000000949350505050565b7f3f106594dc74eeef980dae234cde8324dc2497b13d27a0c59e55bd2ca10a07c95473ffffffffffffffffffffffffffffffffffffffff163373ffffffffffffffffffffffffffffffffffffffff161461119a576040517f08c379a000000000000000000000000000000000000000000000000000000000815260206004820152601e60248201527f484f4c4f47524150483a2061646d696e206f6e6c792066756e6374696f6e00006044820152606401610748565b7f3f106594dc74eeef980dae234cde8324dc2497b13d27a0c59e55bd2ca10a07c955565b6000806111ca84611ad9565b73ffffffffffffffffffffffffffffffffffffffff160361122c57612710826112117fff29fcf645501423fd56e0287670f6813a1e5db5cf706428bc8516381e7ffe815490565b61121b9190612f02565b6112259190612f3f565b9050611239565b6127108261121185611b34565b9392505050565b600061126a7fb56711ba6bd3ded7639fc335ee7524fe668a79d7558c85992e3f8494cf7727775490565b905090565b60608061127a61262a565b9150611284612723565b90509091565b60008061129683611ad9565b905073ffffffffffffffffffffffffffffffffffffffff81166112395750507eb381815b89a20a37ee91e8a0119be5e16f6d1668377e7ae457213a74a415bb546106c6565b6040805160018082528183019092526060916000919060208083019080368337019050509050600061130c84611ad9565b73ffffffffffffffffffffffffffffffffffffffff160361139a577eb381815b89a20a37ee91e8a0119be5e16f6d1668377e7ae457213a74a415bb548160008151811061135b5761135b612e6e565b602002602001019073ffffffffffffffffffffffffffffffffffffffff16908173ffffffffffffffffffffffffffffffffffffffff16815250506106c6565b6113a383611ad9565b816000815181106113b6576113b6612e6e565b602002602001019073ffffffffffffffffffffffffffffffffffffffff16908173ffffffffffffffffffffffffffffffffffffffff168152505092915050565b6040805160018082528183019092526060918291600091602080830190803683375050604080516001808252818301909252929350600092915060208083019080368337019050509050600061144b86611ad9565b73ffffffffffffffffffffffffffffffffffffffff1603611505577eb381815b89a20a37ee91e8a0119be5e16f6d1668377e7ae457213a74a415bb548260008151811061149a5761149a612e6e565b73ffffffffffffffffffffffffffffffffffffffff909216602092830291909101909101527fff29fcf645501423fd56e0287670f6813a1e5db5cf706428bc8516381e7ffe8154816000815181106114f4576114f4612e6e565b602002602001018181525050611584565b61150e85611ad9565b8260008151811061152157611521612e6e565b602002602001019073ffffffffffffffffffffffffffffffffffffffff16908173ffffffffffffffffffffffffffffffffffffffff168152505061156485611b34565b8160008151811061157757611577612e6e565b6020026020010181815250505b9094909350915050565b7f3f106594dc74eeef980dae234cde8324dc2497b13d27a0c59e55bd2ca10a07c95473ffffffffffffffffffffffffffffffffffffffff163373ffffffffffffffffffffffffffffffffffffffff1614611644576040517f08c379a000000000000000000000000000000000000000000000000000000000815260206004820152601e60248201527f484f4c4f47524150483a2061646d696e206f6e6c792066756e6374696f6e00006044820152606401610748565b808260003760008082600034875af13d6000803e808015611664573d6000f35b3d6000fd5b5050505050565b60006106c6826127fb565b60008061168783611ad9565b905073ffffffffffffffffffffffffffffffffffffffff81166106c6577eb381815b89a20a37ee91e8a0119be5e16f6d1668377e7ae457213a74a415bb54611239565b6116d2611de8565b611738576040517f08c379a000000000000000000000000000000000000000000000000000000000815260206004820152601e60248201527f524f59414c544945533a2063616c6c6572206e6f7420616e206f776e657200006044820152606401610748565b8260000361179457611767827eb381815b89a20a37ee91e8a0119be5e16f6d1668377e7ae457213a74a415bb55565b61178f817fff29fcf645501423fd56e0287670f6813a1e5db5cf706428bc8516381e7ffe8155565b6117a8565b61179e838361282b565b6117a88382612885565b6040805160018082528183019092526000916020808301908036833701905050905082816000815181106117de576117de612e6e565b73ffffffffffffffffffffffffffffffffffffffff9290921660209283029190910190910152604080516001808252818301909252600091816020016020820280368337019050509050828160008151811061183c5761183c612e6e565b6020026020010181815250507f99aba1d63749cfd5ad1afda7c4663840924d54eb5f005bbbeadedc6ec13674b285838360405161187b93929190612ff8565b60405180910390a15050505050565b611892611de8565b611644576040517f08c379a000000000000000000000000000000000000000000000000000000000815260206004820152601e60248201527f524f59414c544945533a2063616c6c6572206e6f7420616e206f776e657200006044820152606401610748565b611900611de8565b611966576040517f08c379a000000000000000000000000000000000000000000000000000000000815260206004820152601e60248201527f524f59414c544945533a2063616c6c6572206e6f7420616e206f776e657200006044820152606401610748565b73ffffffffffffffffffffffffffffffffffffffff81166119e3576040517f08c379a000000000000000000000000000000000000000000000000000000000815260206004820152601760248201527f484f4c4f47524150483a207a65726f20616464726573730000000000000000006044820152606401610748565b7fb56711ba6bd3ded7639fc335ee7524fe668a79d7558c85992e3f8494cf77277755565b600061126a7f3f106594dc74eeef980dae234cde8324dc2497b13d27a0c59e55bd2ca10a07c95490565b611a6e6040805160808101825260006060820181815282528251602080820185528282528084019190915283519081018452908152909182015290565b80516000908190526040820151819052611a8783611ad9565b73ffffffffffffffffffffffffffffffffffffffff1603611ad0577fff29fcf645501423fd56e0287670f6813a1e5db5cf706428bc8516381e7ffe81545b602082015152919050565b611ac582611b34565b600080600160405180606001604052806024815260200161313a6024913984604051602001611b099291906130aa565b6040516020818303038152906040528051906020012060001c611b2c91906130c3565b549392505050565b60008060016040518060400160405280601e81526020017f656970313936372e486f6c6f67726170682e524f59414c544945532e6270000081525084604051602001611b099291906130aa565b611b89611de8565b6106dc57600080611b9861262a565b90503360005b8251811015611c0e578173ffffffffffffffffffffffffffffffffffffffff16838281518110611bd057611bd0612e6e565b602002602001015173ffffffffffffffffffffffffffffffffffffffff1603611bfc5760019350611c0e565b80611c0681612f92565b915050611b9e565b5082610cff576040517f08c379a000000000000000000000000000000000000000000000000000000000815260206004820181905260248201527f524f59414c544945533a2073656e646572206e6f7420617574686f72697a65646044820152606401610748565b6000611c8061262a565b90506000611c8c612723565b8251909150600081611ca081615b04612f02565b611caa9190612f7a565b905047612710611cba83836130c3565b11611d21576040517f08c379a000000000000000000000000000000000000000000000000000000000815260206004820152601960248201527f524f59414c544945533a204e6f7420656e6f75676820455448000000000000006044820152606401610748565b611d2b82826130c3565b90506000805b84811015611ddf5761271083878381518110611d4f57611d4f612e6e565b6020026020010151611d619190612f02565b611d6b9190612f3f565b9150868181518110611d7f57611d7f612e6e565b602002602001015173ffffffffffffffffffffffffffffffffffffffff166108fc839081150290604051600060405180830381858888f19350505050158015611dcc573d6000803e3d6000fd5b5080611dd781612f92565b915050611d31565b50505050505050565b6000611e127fb56711ba6bd3ded7639fc335ee7524fe668a79d7558c85992e3f8494cf7727775490565b73ffffffffffffffffffffffffffffffffffffffff163373ffffffffffffffffffffffffffffffffffffffff161480611e9757507f3f106594dc74eeef980dae234cde8324dc2497b13d27a0c59e55bd2ca10a07c95473ffffffffffffffffffffffffffffffffffffffff163373ffffffffffffffffffffffffffffffffffffffff16145b8061126a57503073ffffffffffffffffffffffffffffffffffffffff16636faf275b6040518163ffffffff1660e01b8152600401602060405180830381865afa158015611ee8573d6000803e3d6000fd5b505050506040513d601f19601f82011682018060405250810190611f0c9190612eb6565b73ffffffffffffffffffffffffffffffffffffffff16638da5cb5b6040518163ffffffff1660e01b8152600401602060405180830381865afa158015611f56573d6000803e3d6000fd5b505050506040513d601f19601f82011682018060405250810190611f7a9190612eb6565b73ffffffffffffffffffffffffffffffffffffffff163373ffffffffffffffffffffffffffffffffffffffff1614905090565b6000611fb761262a565b90506000611fc3612723565b82516040517f70a0823100000000000000000000000000000000000000000000000000000000815230600482015291925090849060009073ffffffffffffffffffffffffffffffffffffffff8316906370a0823190602401602060405180830381865afa158015612038573d6000803e3d6000fd5b505050506040513d601f19601f8201168201806040525081019061205c9190612e9d565b905061271081116120c9576040517f08c379a000000000000000000000000000000000000000000000000000000000815260206004820152601c60248201527f524f59414c544945533a204e6f7420656e6f75676820746f6b656e73000000006044820152606401610748565b6000805b8481101561223957612710838783815181106120eb576120eb612e6e565b60200260200101516120fd9190612f02565b6121079190612f3f565b91508373ffffffffffffffffffffffffffffffffffffffff1663a9059cbb88838151811061213757612137612e6e565b6020026020010151846040518363ffffffff1660e01b815260040161217e92919073ffffffffffffffffffffffffffffffffffffffff929092168252602082015260400190565b6020604051808303816000875af115801561219d573d6000803e3d6000fd5b505050506040513d601f19601f820116820180604052508101906121c191906130da565b612227576040517f08c379a000000000000000000000000000000000000000000000000000000000815260206004820181905260248201527f524f59414c544945533a204552433230207472616e73666572206661696c65646044820152606401610748565b8061223181612f92565b9150506120cd565b5050505050505050565b80517ff31f2a3a453a7aa2f3054423a8c5474ac9817ea457b458152967bbcb12ed6a43818155906000805b828110156116695760408051602081018390529081018590526060016040516020818303038152906040528051906020012093508481815181106122b4576122b4612e6e565b6020026020010151915081845580806122cc90612f92565b91505061226e565b80517fa4023567d5b5f01c63e00d90785d7cd4ff057a237ad185c5ecade8f4059fb61a818155906000805b8281101561166957604080516020810183905290810185905260600160405160208183030381529060405280519060200120935084818151811061234557612345612e6e565b60200260200101519150818455808061235d90612f92565b9150506122ff565b600061236f61262a565b9050600061237b612723565b905060008080805b8651811015611ddf5786818151811061239e5761239e612e6e565b60209081029190910101516040517f70a0823100000000000000000000000000000000000000000000000000000000815230600482015290945073ffffffffffffffffffffffffffffffffffffffff8516906370a0823190602401602060405180830381865afa158015612416573d6000803e3d6000fd5b505050506040513d601f19601f8201168201806040525081019061243a9190612e9d565b925061271083116124a7576040517f08c379a000000000000000000000000000000000000000000000000000000000815260206004820152601c60248201527f524f59414c544945533a204e6f7420656e6f75676820746f6b656e73000000006044820152606401610748565b60005b865181101561261757612710848783815181106124c9576124c9612e6e565b60200260200101516124db9190612f02565b6124e59190612f3f565b92508473ffffffffffffffffffffffffffffffffffffffff1663a9059cbb88838151811061251557612515612e6e565b6020026020010151856040518363ffffffff1660e01b815260040161255c92919073ffffffffffffffffffffffffffffffffffffffff929092168252602082015260400190565b6020604051808303816000875af115801561257b573d6000803e3d6000fd5b505050506040513d601f19601f8201168201806040525081019061259f91906130da565b612605576040517f08c379a000000000000000000000000000000000000000000000000000000000815260206004820181905260248201527f524f59414c544945533a204552433230207472616e73666572206661696c65646044820152606401610748565b8061260f81612f92565b9150506124aa565b508061262281612f92565b915050612383565b7ff31f2a3a453a7aa2f3054423a8c5474ac9817ea457b458152967bbcb12ed6a438054606091908067ffffffffffffffff81111561266a5761266a612977565b604051908082528060200260200182016040528015612693578160200160208202803683370190505b5092506000805b8281101561271c57604080516020810183905290810185905260600160405160208183030381529060405280519060200120935083549150818582815181106126e5576126e5612e6e565b73ffffffffffffffffffffffffffffffffffffffff909216602092830291909101909101528061271481612f92565b91505061269a565b5050505090565b7fa4023567d5b5f01c63e00d90785d7cd4ff057a237ad185c5ecade8f4059fb61a8054606091908067ffffffffffffffff81111561276357612763612977565b60405190808252806020026020018201604052801561278c578160200160208202803683370190505b5092506000805b8281101561271c57604080516020810183905290810185905260600160405160208183030381529060405280519060200120935083549150818582815181106127de576127de612e6e565b6020908102919091010152806127f381612f92565b915050612793565b60008060016040518060600160405280602881526020016131126028913984604051602001611b099291906130fc565b6000600160405180606001604052806024815260200161313a602491398460405160200161285a9291906130aa565b6040516020818303038152906040528051906020012060001c61287d91906130c3565b919091555050565b600060016040518060400160405280601e81526020017f656970313936372e486f6c6f67726170682e524f59414c544945532e627000008152508460405160200161285a9291906130aa565b6000602082840312156128e357600080fd5b5035919050565b600081518084526020808501945080840160005b8381101561291a578151875295820195908201906001016128fe565b509495945050505050565b60208152600061123960208301846128ea565b73ffffffffffffffffffffffffffffffffffffffff8116811461080f57600080fd5b60006020828403121561296c57600080fd5b813561123981612938565b7f4e487b7100000000000000000000000000000000000000000000000000000000600052604160045260246000fd5b604051601f82017fffffffffffffffffffffffffffffffffffffffffffffffffffffffffffffffe016810167ffffffffffffffff811182821017156129ed576129ed612977565b604052919050565b600067ffffffffffffffff831115612a0f57612a0f612977565b612a4060207fffffffffffffffffffffffffffffffffffffffffffffffffffffffffffffffe0601f860116016129a6565b9050828152838383011115612a5457600080fd5b828260208301376000602084830101529392505050565b600060208284031215612a7d57600080fd5b813567ffffffffffffffff811115612a9457600080fd5b8201601f81018413612aa557600080fd5b612ab4848235602084016129f5565b949350505050565b600067ffffffffffffffff821115612ad657612ad6612977565b5060051b60200190565b60006020808385031215612af357600080fd5b823567ffffffffffffffff811115612b0a57600080fd5b8301601f81018513612b1b57600080fd5b8035612b2e612b2982612abc565b6129a6565b81815260059190911b82018301908381019087831115612b4d57600080fd5b928401925b82841015612b74578335612b6581612938565b82529284019290840190612b52565b979650505050505050565b60008060408385031215612b9257600080fd5b50508035926020909101359150565b600082601f830112612bb257600080fd5b81356020612bc2612b2983612abc565b82815260059290921b84018101918181019086841115612be157600080fd5b8286015b84811015612bfc5780358352918301918301612be5565b509695505050505050565b60008060408385031215612c1a57600080fd5b823567ffffffffffffffff80821115612c3257600080fd5b818501915085601f830112612c4657600080fd5b81356020612c56612b2983612abc565b82815260059290921b84018101918181019089841115612c7557600080fd5b948201945b83861015612c9c578535612c8d81612938565b82529482019490820190612c7a565b96505086013592505080821115612cb257600080fd5b50612cbf85828601612ba1565b9150509250929050565b600080600060608486031215612cde57600080fd5b8335612ce981612938565b95602085013595506040909401359392505050565b600081518084526020808501945080840160005b8381101561291a57815173ffffffffffffffffffffffffffffffffffffffff1687529582019590820190600101612d12565b604081526000612d576040830185612cfe565b8281036020840152612d6981856128ea565b95945050505050565b60008060408385031215612d8557600080fd5b8235612d9081612938565b946020939093013593505050565b6020815260006112396020830184612cfe565b600080600060408486031215612dc657600080fd5b8335612dd181612938565b9250602084013567ffffffffffffffff80821115612dee57600080fd5b818601915086601f830112612e0257600080fd5b813581811115612e1157600080fd5b876020828501011115612e2357600080fd5b6020830194508093505050509250925092565b600080600060608486031215612e4b57600080fd5b833592506020840135612e5d81612938565b929592945050506040919091013590565b7f4e487b7100000000000000000000000000000000000000000000000000000000600052603260045260246000fd5b600060208284031215612eaf57600080fd5b5051919050565b600060208284031215612ec857600080fd5b815161123981612938565b7f4e487b7100000000000000000000000000000000000000000000000000000000600052601160045260246000fd5b6000817fffffffffffffffffffffffffffffffffffffffffffffffffffffffffffffffff0483118215151615612f3a57612f3a612ed3565b500290565b600082612f75577f4e487b7100000000000000000000000000000000000000000000000000000000600052601260045260246000fd5b500490565b60008219821115612f8d57612f8d612ed3565b500190565b60007fffffffffffffffffffffffffffffffffffffffffffffffffffffffffffffffff8203612fc357612fc3612ed3565b5060010190565b60008060408385031215612fdd57600080fd5b8251612fe881612938565b6020939093015192949293505050565b6000606082018583526020606081850152818651808452608086019150828801935060005b8181101561304f57845173ffffffffffffffffffffffffffffffffffffffff168352938301939183019160010161301d565b5050848103604086015261306381876128ea565b98975050505050505050565b6000815160005b818110156130905760208185018101518683015201613076565b8181111561309f576000828601525b509290920192915050565b60006130b6828561306f565b9283525050602001919050565b6000828210156130d5576130d5612ed3565b500390565b6000602082840312156130ec57600080fd5b8151801515811461123957600080fd5b6000612ab461310b838661306f565b8461306f56fe656970313936372e486f6c6f67726170682e524f59414c544945532e746f6b656e41646472657373656970313936372e486f6c6f67726170682e524f59414c544945532e7265636569766572a164736f6c634300080d000a",
  "devdoc": {
    "author": "CXIP-Labs",
    "details": "This smart contract is not intended to be used directly. Apply it to any of your ERC721 or ERC1155 smart contracts through a delegatecall fallback.",
    "events": {
      "SecondarySaleFees(uint256,address[],uint256[])": {
        "details": "Emits event in order to comply with Rarible V1 royalty spec.",
        "params": {
          "bps": "Uint256 array of base points(percentages) that each wallet(specified in recipients) will receive from the royalty payouts. Make sure that all the base points add up to a total of 10000.",
          "recipients": "Address array of wallets that will receive tha royalties.",
          "tokenId": "Specific token id for which royalty info is being set, set as 0 for all tokens inside of the smart contract."
        }
      }
    },
    "kind": "dev",
    "methods": {
      "configurePayouts(address[],uint256[])": {
        "details": "Function can only we called by owner, admin, or identity wallet.Addresses and bps arrays must be equal length. Bps values added together must equal 10000 exactly.",
        "params": {
          "addresses": "An array of all the addresses that will be receiving royalty payouts.",
          "bps": "An array of the percentages that each address will receive from the royalty payouts."
        }
      },
      "constructor": {
        "details": "Constructor is left empty and init is used instead"
      },
      "getEthPayout()": {
        "details": "Distribute all the ETH(minus gas fees) to payout recipients."
      },
      "getPayoutInfo()": {
        "details": "These are the recipients that will be getting royalty payouts.",
        "returns": {
          "addresses": "An array of all the addresses that will be receiving royalty payouts.",
          "bps": "An array of the percentages that each address will receive from the royalty payouts."
        }
      },
      "getSourceContract()": {
        "details": "This is here in place to prevent reverts in case contract is used outside of the protocol."
      },
      "getTokenAddress(string)": {
        "details": "Used only to identify really major/common tokens. Avoid using due to gas usages.",
        "params": {
          "tokenName": "The ticker symbol of the token. For example \"USDC\" or \"DAI\"."
        },
        "returns": {
          "_0": "The smart contract address of the token ticker symbol. Or zero address if not found."
        }
      },
      "getTokenPayout(address)": {
        "details": "Contract owner, admin, identity wallet, and payout recipients can call this function.",
        "params": {
          "tokenAddress": "An address of the token for which to issue payouts for."
        }
      },
      "getTokensPayout(address[])": {
        "details": "Each token balance must be equal or greater than 10000. Otherwise calculating BP is difficult.",
        "params": {
          "tokenAddresses": "An address array of tokens to issue payouts for."
        }
      },
      "init(bytes)": {
        "details": "This function is called by the deployer/factory when creating a contract",
        "params": {
          "initPayload": "abi encoded payload to use for contract initilaization"
        }
      },
      "setRoyalties(uint256,address,uint256)": {
        "details": "Take great care to not make this function accessible by other public functions in your overlying smart contract.",
        "params": {
          "bp": "Uint256 of royalty percentage, provided in base points format.",
          "receiver": "Wallet or smart contract that will receive the royalty payouts.",
          "tokenId": "Set a specific token id, or leave at 0 to set as default parameters."
        }
      }
    },
    "stateVariables": {
      "_defaultBpSlot": {
        "details": "bytes32(uint256(keccak256('eip1967.Holograph.ROYALTIES.defaultBp')) - 1)"
      },
      "_defaultReceiverSlot": {
        "details": "bytes32(uint256(keccak256('eip1967.Holograph.ROYALTIES.defaultReceiver')) - 1)"
      },
      "_initializedPaidSlot": {
        "details": "bytes32(uint256(keccak256('eip1967.Holograph.ROYALTIES.initialized')) - 1)"
      },
      "_payoutAddressesSlot": {
        "details": "bytes32(uint256(keccak256('eip1967.Holograph.ROYALTIES.payout.addresses')) - 1)"
      },
      "_payoutBpsSlot": {
        "details": "bytes32(uint256(keccak256('eip1967.Holograph.ROYALTIES.payout.bps')) - 1)"
      }
    },
    "title": "HolographRoyalties (previously PA1D)",
    "version": 1
  },
  "userdoc": {
    "events": {
      "SecondarySaleFees(uint256,address[],uint256[])": {
        "notice": "Event emitted when setting/updating royalty info/fees. This is used by Rarible V1."
      }
    },
    "kind": "user",
    "methods": {
      "configurePayouts(address[],uint256[])": {
        "notice": "Set the wallets and percentages for royalty payouts."
      },
      "getEthPayout()": {
        "notice": "Get payout of all ETH in smart contract."
      },
      "getPayoutInfo()": {
        "notice": "Show the wallets and percentages of payout recipients."
      },
      "getTokenAddress(string)": {
        "notice": "Get the smart contract address of a token by common name."
      },
      "getTokenPayout(address)": {
        "notice": "Get payout for a specific token address. Token must have a positive balance!"
      },
      "getTokensPayout(address[])": {
        "notice": "Get payouts for tokens listed by address. Tokens must have a positive balance!"
      },
      "init(bytes)": {
        "notice": "Used internally to initialize the contract instead of through a constructor"
      },
      "setRoyalties(uint256,address,uint256)": {
        "notice": "Set the royalty information for entire contract, or a specific token."
      }
    },
    "notice": "A smart contract for providing royalty info, collecting royalties, and distributing it to configured payout wallets.",
    "version": 1
  },
  "storageLayout": {
    "storage": [],
    "types": null
  }
}