{
  "address": "0xECC271f37EBaaDB103d735ae63C92B37D3DaB82C",
  "abi": [
    {
      "inputs": [],
      "stateMutability": "nonpayable",
      "type": "constructor"
    },
    {
      "anonymous": false,
      "inputs": [
        {
          "indexed": true,
          "internalType": "address",
          "name": "_owner",
          "type": "address"
        },
        {
          "indexed": true,
          "internalType": "address",
          "name": "_approved",
          "type": "address"
        },
        {
          "indexed": true,
          "internalType": "uint256",
          "name": "_tokenId",
          "type": "uint256"
        }
      ],
      "name": "Approval",
      "type": "event"
    },
    {
      "anonymous": false,
      "inputs": [
        {
          "indexed": true,
          "internalType": "address",
          "name": "_owner",
          "type": "address"
        },
        {
          "indexed": true,
          "internalType": "address",
          "name": "_operator",
          "type": "address"
        },
        {
          "indexed": false,
          "internalType": "bool",
          "name": "_approved",
          "type": "bool"
        }
      ],
      "name": "ApprovalForAll",
      "type": "event"
    },
    {
      "anonymous": false,
      "inputs": [
        {
          "indexed": true,
          "internalType": "address",
          "name": "previousOwner",
          "type": "address"
        },
        {
          "indexed": true,
          "internalType": "address",
          "name": "newOwner",
          "type": "address"
        }
      ],
      "name": "OwnershipTransferred",
      "type": "event"
    },
    {
      "anonymous": false,
      "inputs": [
        {
          "indexed": true,
          "internalType": "address",
          "name": "_from",
          "type": "address"
        },
        {
          "indexed": true,
          "internalType": "address",
          "name": "_to",
          "type": "address"
        },
        {
          "indexed": true,
          "internalType": "uint256",
          "name": "_tokenId",
          "type": "uint256"
        }
      ],
      "name": "Transfer",
      "type": "event"
    },
    {
      "stateMutability": "payable",
      "type": "fallback"
    },
    {
      "inputs": [],
      "name": "admin",
      "outputs": [
        {
          "internalType": "address",
          "name": "",
          "type": "address"
        }
      ],
      "stateMutability": "view",
      "type": "function"
    },
    {
      "inputs": [
        {
          "internalType": "address",
          "name": "target",
          "type": "address"
        },
        {
          "internalType": "bytes",
          "name": "data",
          "type": "bytes"
        }
      ],
      "name": "adminCall",
      "outputs": [],
      "stateMutability": "payable",
      "type": "function"
    },
    {
      "inputs": [
        {
          "internalType": "address",
          "name": "to",
          "type": "address"
        },
        {
          "internalType": "uint256",
          "name": "tokenId",
          "type": "uint256"
        }
      ],
      "name": "approve",
      "outputs": [],
      "stateMutability": "payable",
      "type": "function"
    },
    {
      "inputs": [
        {
          "internalType": "address",
          "name": "wallet",
          "type": "address"
        }
      ],
      "name": "balanceOf",
      "outputs": [
        {
          "internalType": "uint256",
          "name": "",
          "type": "uint256"
        }
      ],
      "stateMutability": "view",
      "type": "function"
    },
    {
      "inputs": [
        {
          "internalType": "uint32",
          "name": "fromChain",
          "type": "uint32"
        },
        {
          "internalType": "bytes",
          "name": "payload",
          "type": "bytes"
        }
      ],
      "name": "bridgeIn",
      "outputs": [
        {
          "internalType": "bytes4",
          "name": "",
          "type": "bytes4"
        }
      ],
      "stateMutability": "nonpayable",
      "type": "function"
    },
    {
      "inputs": [
        {
          "internalType": "uint32",
          "name": "toChain",
          "type": "uint32"
        },
        {
          "internalType": "address",
          "name": "sender",
          "type": "address"
        },
        {
          "internalType": "bytes",
          "name": "payload",
          "type": "bytes"
        }
      ],
      "name": "bridgeOut",
      "outputs": [
        {
          "internalType": "bytes4",
          "name": "selector",
          "type": "bytes4"
        },
        {
          "internalType": "bytes",
          "name": "data",
          "type": "bytes"
        }
      ],
      "stateMutability": "nonpayable",
      "type": "function"
    },
    {
      "inputs": [
        {
          "internalType": "uint256",
          "name": "tokenId",
          "type": "uint256"
        }
      ],
      "name": "burn",
      "outputs": [],
      "stateMutability": "nonpayable",
      "type": "function"
    },
    {
      "inputs": [
        {
          "internalType": "uint256",
          "name": "tokenId",
          "type": "uint256"
        }
      ],
      "name": "burned",
      "outputs": [
        {
          "internalType": "bool",
          "name": "",
          "type": "bool"
        }
      ],
      "stateMutability": "view",
      "type": "function"
    },
    {
      "inputs": [],
      "name": "contractURI",
      "outputs": [
        {
          "internalType": "string",
          "name": "",
          "type": "string"
        }
      ],
      "stateMutability": "view",
      "type": "function"
    },
    {
      "inputs": [],
      "name": "decimals",
      "outputs": [
        {
          "internalType": "uint256",
          "name": "",
          "type": "uint256"
        }
      ],
      "stateMutability": "pure",
      "type": "function"
    },
    {
      "inputs": [
        {
          "internalType": "uint256",
          "name": "tokenId",
          "type": "uint256"
        }
      ],
      "name": "exists",
      "outputs": [
        {
          "internalType": "bool",
          "name": "",
          "type": "bool"
        }
      ],
      "stateMutability": "view",
      "type": "function"
    },
    {
      "inputs": [],
      "name": "getAdmin",
      "outputs": [
        {
          "internalType": "address",
          "name": "adminAddress",
          "type": "address"
        }
      ],
      "stateMutability": "view",
      "type": "function"
    },
    {
      "inputs": [
        {
          "internalType": "uint256",
          "name": "tokenId",
          "type": "uint256"
        }
      ],
      "name": "getApproved",
      "outputs": [
        {
          "internalType": "address",
          "name": "",
          "type": "address"
        }
      ],
      "stateMutability": "view",
      "type": "function"
    },
    {
      "inputs": [],
      "name": "getContractType",
      "outputs": [
        {
          "internalType": "bytes32",
          "name": "contractType",
          "type": "bytes32"
        }
      ],
      "stateMutability": "view",
      "type": "function"
    },
    {
      "inputs": [],
      "name": "getOwner",
      "outputs": [
        {
          "internalType": "address",
          "name": "ownerAddress",
          "type": "address"
        }
      ],
      "stateMutability": "view",
      "type": "function"
    },
    {
      "inputs": [
        {
          "internalType": "bytes",
          "name": "initPayload",
          "type": "bytes"
        }
      ],
      "name": "init",
      "outputs": [
        {
          "internalType": "bytes4",
          "name": "",
          "type": "bytes4"
        }
      ],
      "stateMutability": "nonpayable",
      "type": "function"
    },
    {
      "inputs": [
        {
          "internalType": "address",
          "name": "wallet",
          "type": "address"
        },
        {
          "internalType": "address",
          "name": "operator",
          "type": "address"
        }
      ],
      "name": "isApprovedForAll",
      "outputs": [
        {
          "internalType": "bool",
          "name": "",
          "type": "bool"
        }
      ],
      "stateMutability": "view",
      "type": "function"
    },
    {
      "inputs": [],
      "name": "name",
      "outputs": [
        {
          "internalType": "string",
          "name": "",
          "type": "string"
        }
      ],
      "stateMutability": "view",
      "type": "function"
    },
    {
      "inputs": [
        {
          "internalType": "address",
          "name": "_operator",
          "type": "address"
        },
        {
          "internalType": "address",
          "name": "_from",
          "type": "address"
        },
        {
          "internalType": "uint256",
          "name": "_tokenId",
          "type": "uint256"
        },
        {
          "internalType": "bytes",
          "name": "_data",
          "type": "bytes"
        }
      ],
      "name": "onERC721Received",
      "outputs": [
        {
          "internalType": "bytes4",
          "name": "",
          "type": "bytes4"
        }
      ],
      "stateMutability": "nonpayable",
      "type": "function"
    },
    {
      "inputs": [],
      "name": "owner",
      "outputs": [
        {
          "internalType": "address",
          "name": "",
          "type": "address"
        }
      ],
      "stateMutability": "view",
      "type": "function"
    },
    {
      "inputs": [
        {
          "internalType": "address",
          "name": "target",
          "type": "address"
        },
        {
          "internalType": "bytes",
          "name": "data",
          "type": "bytes"
        }
      ],
      "name": "ownerCall",
      "outputs": [],
      "stateMutability": "payable",
      "type": "function"
    },
    {
      "inputs": [
        {
          "internalType": "uint256",
          "name": "tokenId",
          "type": "uint256"
        }
      ],
      "name": "ownerOf",
      "outputs": [
        {
          "internalType": "address",
          "name": "",
          "type": "address"
        }
      ],
      "stateMutability": "view",
      "type": "function"
    },
    {
      "inputs": [
        {
          "internalType": "address",
          "name": "from",
          "type": "address"
        },
        {
          "internalType": "address",
          "name": "to",
          "type": "address"
        },
        {
          "internalType": "uint256",
          "name": "tokenId",
          "type": "uint256"
        }
      ],
      "name": "safeTransferFrom",
      "outputs": [],
      "stateMutability": "payable",
      "type": "function"
    },
    {
      "inputs": [
        {
          "internalType": "address",
          "name": "from",
          "type": "address"
        },
        {
          "internalType": "address",
          "name": "to",
          "type": "address"
        },
        {
          "internalType": "uint256",
          "name": "tokenId",
          "type": "uint256"
        },
        {
          "internalType": "bytes",
          "name": "data",
          "type": "bytes"
        }
      ],
      "name": "safeTransferFrom",
      "outputs": [],
      "stateMutability": "payable",
      "type": "function"
    },
    {
      "inputs": [
        {
          "internalType": "address",
          "name": "adminAddress",
          "type": "address"
        }
      ],
      "name": "setAdmin",
      "outputs": [],
      "stateMutability": "nonpayable",
      "type": "function"
    },
    {
      "inputs": [
        {
          "internalType": "address",
          "name": "to",
          "type": "address"
        },
        {
          "internalType": "bool",
          "name": "approved",
          "type": "bool"
        }
      ],
      "name": "setApprovalForAll",
      "outputs": [],
      "stateMutability": "nonpayable",
      "type": "function"
    },
    {
      "inputs": [
        {
          "internalType": "address",
          "name": "ownerAddress",
          "type": "address"
        }
      ],
      "name": "setOwner",
      "outputs": [],
      "stateMutability": "nonpayable",
      "type": "function"
    },
    {
      "inputs": [
        {
          "internalType": "uint256",
          "name": "tokenId",
          "type": "uint256"
        }
      ],
      "name": "sourceBurn",
      "outputs": [],
      "stateMutability": "nonpayable",
      "type": "function"
    },
    {
      "inputs": [],
      "name": "sourceGetChainPrepend",
      "outputs": [
        {
          "internalType": "uint256",
          "name": "",
          "type": "uint256"
        }
      ],
      "stateMutability": "view",
      "type": "function"
    },
    {
      "inputs": [
        {
          "internalType": "address",
          "name": "to",
          "type": "address"
        },
        {
          "internalType": "uint224",
          "name": "tokenId",
          "type": "uint224"
        }
      ],
      "name": "sourceMint",
      "outputs": [],
      "stateMutability": "nonpayable",
      "type": "function"
    },
    {
      "inputs": [
        {
          "internalType": "address",
          "name": "to",
          "type": "address"
        },
        {
          "internalType": "uint256",
          "name": "tokenId",
          "type": "uint256"
        }
      ],
      "name": "sourceTransfer",
      "outputs": [],
      "stateMutability": "nonpayable",
      "type": "function"
    },
    {
      "inputs": [
        {
          "internalType": "bytes4",
          "name": "interfaceId",
          "type": "bytes4"
        }
      ],
      "name": "supportsInterface",
      "outputs": [
        {
          "internalType": "bool",
          "name": "",
          "type": "bool"
        }
      ],
      "stateMutability": "view",
      "type": "function"
    },
    {
      "inputs": [],
      "name": "symbol",
      "outputs": [
        {
          "internalType": "string",
          "name": "",
          "type": "string"
        }
      ],
      "stateMutability": "view",
      "type": "function"
    },
    {
      "inputs": [
        {
          "internalType": "uint256",
          "name": "index",
          "type": "uint256"
        }
      ],
      "name": "tokenByIndex",
      "outputs": [
        {
          "internalType": "uint256",
          "name": "",
          "type": "uint256"
        }
      ],
      "stateMutability": "view",
      "type": "function"
    },
    {
      "inputs": [
        {
          "internalType": "address",
          "name": "wallet",
          "type": "address"
        },
        {
          "internalType": "uint256",
          "name": "index",
          "type": "uint256"
        }
      ],
      "name": "tokenOfOwnerByIndex",
      "outputs": [
        {
          "internalType": "uint256",
          "name": "",
          "type": "uint256"
        }
      ],
      "stateMutability": "view",
      "type": "function"
    },
    {
      "inputs": [
        {
          "internalType": "uint256",
          "name": "tokenId",
          "type": "uint256"
        }
      ],
      "name": "tokenURI",
      "outputs": [
        {
          "internalType": "string",
          "name": "",
          "type": "string"
        }
      ],
      "stateMutability": "view",
      "type": "function"
    },
    {
      "inputs": [
        {
          "internalType": "uint256",
          "name": "index",
          "type": "uint256"
        },
        {
          "internalType": "uint256",
          "name": "length",
          "type": "uint256"
        }
      ],
      "name": "tokens",
      "outputs": [
        {
          "internalType": "uint256[]",
          "name": "tokenIds",
          "type": "uint256[]"
        }
      ],
      "stateMutability": "view",
      "type": "function"
    },
    {
      "inputs": [
        {
          "internalType": "address",
          "name": "wallet",
          "type": "address"
        }
      ],
      "name": "tokensOfOwner",
      "outputs": [
        {
          "internalType": "uint256[]",
          "name": "",
          "type": "uint256[]"
        }
      ],
      "stateMutability": "view",
      "type": "function"
    },
    {
      "inputs": [
        {
          "internalType": "address",
          "name": "wallet",
          "type": "address"
        },
        {
          "internalType": "uint256",
          "name": "index",
          "type": "uint256"
        },
        {
          "internalType": "uint256",
          "name": "length",
          "type": "uint256"
        }
      ],
      "name": "tokensOfOwner",
      "outputs": [
        {
          "internalType": "uint256[]",
          "name": "tokenIds",
          "type": "uint256[]"
        }
      ],
      "stateMutability": "view",
      "type": "function"
    },
    {
      "inputs": [],
      "name": "totalSupply",
      "outputs": [
        {
          "internalType": "uint256",
          "name": "",
          "type": "uint256"
        }
      ],
      "stateMutability": "view",
      "type": "function"
    },
    {
      "inputs": [
        {
          "internalType": "address",
          "name": "to",
          "type": "address"
        },
        {
          "internalType": "uint256",
          "name": "tokenId",
          "type": "uint256"
        }
      ],
      "name": "transfer",
      "outputs": [],
      "stateMutability": "payable",
      "type": "function"
    },
    {
      "inputs": [
        {
          "internalType": "address",
          "name": "from",
          "type": "address"
        },
        {
          "internalType": "address",
          "name": "to",
          "type": "address"
        },
        {
          "internalType": "uint256",
          "name": "tokenId",
          "type": "uint256"
        }
      ],
      "name": "transferFrom",
      "outputs": [],
      "stateMutability": "payable",
      "type": "function"
    },
    {
      "inputs": [
        {
          "internalType": "address",
          "name": "from",
          "type": "address"
        },
        {
          "internalType": "address",
          "name": "to",
          "type": "address"
        },
        {
          "internalType": "uint256",
          "name": "tokenId",
          "type": "uint256"
        },
        {
          "internalType": "bytes",
          "name": "data",
          "type": "bytes"
        }
      ],
      "name": "transferFrom",
      "outputs": [],
      "stateMutability": "payable",
      "type": "function"
    },
    {
      "inputs": [
        {
          "internalType": "address",
          "name": "newOwner",
          "type": "address"
        }
      ],
      "name": "transferOwnership",
      "outputs": [],
      "stateMutability": "nonpayable",
      "type": "function"
    },
    {
      "stateMutability": "payable",
      "type": "receive"
    }
  ],
  "transactionHash": "0xdbbbb3752a80ef15f05b9aac57a213a4307786ba4cbeb38eb754ffcfa914aa83",
  "args": [],
  "numDeployments": 1,
  "solcInputHash": "5375722a045c119fc4a4b1ba3404bea1",
  "bytecode": "0x608060405234801561001057600080fd5b506153bd806100206000396000f3fe6080604052600436106102eb5760003560e01c806377dbd86311610184578063bf64a82d116100d6578063e8a3d4851161008a578063f2fde38b11610064578063f2fde38b146109e9578063f851a44014610a09578063fadcd09114610a1e576102f2565b8063e8a3d4851461096b578063e985e9c514610980578063eb66dbcf146109d6576102f2565b8063c5655fce116100bb578063c5655fce1461090b578063c839fe941461092b578063c87b56dd1461094b576102f2565b8063bf64a82d146108c4578063c51a29e0146108d7576102f2565b806395d89b4111610138578063ab67aa5811610112578063ab67aa5814610870578063b7e0366114610883578063b88d4fde146108b1576102f2565b806395d89b4114610828578063a22cb4651461083d578063a9059cbb1461085d576102f2565b8063893d20e811610169578063893d20e8146107bf5780638b4864d6146107f35780638da5cb5b14610813576102f2565b806377dbd8631461077d5780638462151c14610792576102f2565b8063313ce5671161023d5780634f558e79116101f15780636e9960c3116101cb5780636e9960c314610709578063704b6c021461073d57806370a082311461075d576102f2565b80634f558e79146106845780634f6ccce7146106c95780636352211e146106e9576102f2565b806342842e0e1161022257806342842e0e1461063157806342966c68146106445780634ddf47d414610664576102f2565b8063313ce567146105fd5780633b4f1b2614610611576102f2565b806313af40351161029f57806323250cae1161027957806323250cae1461059a57806323b872dd146105ca5780632f745c59146105dd576102f2565b806313af40351461053b578063150b7a021461055b57806318160ddd1461057b576102f2565b8063081812fc116102d0578063081812fc1461046f57806308a1eb20146104d7578063095ea7b314610528576102f2565b806301ffc9a71461041857806306fdde031461044d576102f2565b366102f257005b60006102fc610a3e565b73ffffffffffffffffffffffffffffffffffffffff16639fe7303f60046000357fffffffff00000000000000000000000000000000000000000000000000000000166040518363ffffffff1660e01b815260040161035b9291906146c5565b602060405180830381865afa158015610378573d6000803e3d6000fd5b505050506040513d601f19601f8201168201806040525081019061039c919061474f565b156103cf576103a9610adb565b90503660008037600080366000845af43d6000803e8080156103ca573d6000f35b3d6000fd5b3660008037333652600080602036016000347f27d542086d1e831d40b749e7f5509a626c3047a36d160781c40d5acc83e5b074545af13d6000803e8080156103ca573d6000f35b005b34801561042457600080fd5b5061043861043336600461479a565b610bf1565b60405190151581526020015b60405180910390f35b34801561045957600080fd5b50610462610e22565b604051610444919061482d565b34801561047b57600080fd5b506104b261048a366004614840565b60009081526007602052604090205473ffffffffffffffffffffffffffffffffffffffff1690565b60405173ffffffffffffffffffffffffffffffffffffffff9091168152602001610444565b3480156104e357600080fd5b506104f76104f23660046148b4565b610eb4565b6040517fffffffff000000000000000000000000000000000000000000000000000000009091168152602001610444565b61041661053636600461492b565b611219565b34801561054757600080fd5b50610416610556366004614957565b611485565b34801561056757600080fd5b506104f7610576366004614974565b6115e8565b34801561058757600080fd5b506004545b604051908152602001610444565b3480156105a657600080fd5b506104386105b5366004614840565b6000908152600c602052604090205460ff1690565b6104166105d83660046149e7565b61188b565b3480156105e957600080fd5b5061058c6105f836600461492b565b6118a6565b34801561060957600080fd5b50600061058c565b34801561061d57600080fd5b5061041661062c366004614a28565b611963565b61041661063f3660046149e7565b611b19565b34801561065057600080fd5b5061041661065f366004614840565b611b34565b34801561067057600080fd5b506104f761067f366004614b9c565b611caf565b34801561069057600080fd5b5061043861069f366004614840565b60009081526006602052604090205473ffffffffffffffffffffffffffffffffffffffff16151590565b3480156106d557600080fd5b5061058c6106e4366004614840565b6121af565b3480156106f557600080fd5b506104b2610704366004614840565b612242565b34801561071557600080fd5b507f3f106594dc74eeef980dae234cde8324dc2497b13d27a0c59e55bd2ca10a07c9546104b2565b34801561074957600080fd5b50610416610758366004614957565b6122d4565b34801561076957600080fd5b5061058c610778366004614957565b6123ae565b34801561078957600080fd5b5061058c612456565b34801561079e57600080fd5b506107b26107ad366004614957565b61255a565b6040516104449190614bd1565b3480156107cb57600080fd5b507fb56711ba6bd3ded7639fc335ee7524fe668a79d7558c85992e3f8494cf772777546104b2565b3480156107ff57600080fd5b506107b261080e366004614c15565b6125d3565b34801561081f57600080fd5b506104b26126a5565b34801561083457600080fd5b5061046261273b565b34801561084957600080fd5b50610416610858366004614c37565b61274a565b61041661086b36600461492b565b612939565b61041661087e366004614c65565b612950565b34801561088f57600080fd5b506108a361089e366004614cd1565b612a3f565b604051610444929190614d36565b6104166108bf366004614c65565b612e55565b6104166108d2366004614d71565b61306f565b3480156108e357600080fd5b507f0b671eb65810897366dd82c4cbb7d9dff8beda8484194956e81e89b8a361d9c75461058c565b34801561091757600080fd5b5061041661092636600461492b565b613145565b34801561093757600080fd5b506107b2610946366004614d91565b61328f565b34801561095757600080fd5b50610462610966366004614840565b6133a8565b34801561097757600080fd5b50610462613510565b34801561098c57600080fd5b5061043861099b366004614dc6565b73ffffffffffffffffffffffffffffffffffffffff9182166000908152600a6020908152604080832093909416825291909152205460ff1690565b6104166109e4366004614d71565b6135dc565b3480156109f557600080fd5b50610416610a04366004614957565b613692565b348015610a1557600080fd5b506104b26137e9565b348015610a2a57600080fd5b50610416610a39366004614840565b613813565b6000610a687fb4107f746e9496e8452accc7de63d1c5e14c19f510932daa04077cd49e8bd77a5490565b73ffffffffffffffffffffffffffffffffffffffff1663ebac15f96040518163ffffffff1660e01b8152600401602060405180830381865afa158015610ab2573d6000803e3d6000fd5b505050506040513d601f19601f82011682018060405250810190610ad69190614df4565b905090565b6000610b057fb4107f746e9496e8452accc7de63d1c5e14c19f510932daa04077cd49e8bd77a5490565b73ffffffffffffffffffffffffffffffffffffffff16635ab1bd536040518163ffffffff1660e01b8152600401602060405180830381865afa158015610b4f573d6000803e3d6000fd5b505050506040513d601f19601f82011682018060405250810190610b739190614df4565b6040517fcc2913f900000000000000000000000000000000000000000000000000000000815271486f6c6f6772617068526f79616c74696573600482015273ffffffffffffffffffffffffffffffffffffffff919091169063cc2913f990602401602060405180830381865afa158015610ab2573d6000803e3d6000fd5b600080610bfc610a3e565b7f27d542086d1e831d40b749e7f5509a626c3047a36d160781c40d5acc83e5b074546040517f9fe7303f0000000000000000000000000000000000000000000000000000000081529192509073ffffffffffffffffffffffffffffffffffffffff831690639fe7303f90610c779060029088906004016146c5565b602060405180830381865afa158015610c94573d6000803e3d6000fd5b505050506040513d601f19601f82011682018060405250810190610cb8919061474f565b80610d5357506040517f9fe7303f00000000000000000000000000000000000000000000000000000000815273ffffffffffffffffffffffffffffffffffffffff831690639fe7303f90610d1290600490889082016146c5565b602060405180830381865afa158015610d2f573d6000803e3d6000fd5b505050506040513d601f19601f82011682018060405250810190610d53919061474f565b80610e0957506040517f01ffc9a70000000000000000000000000000000000000000000000000000000081527fffffffff000000000000000000000000000000000000000000000000000000008516600482015273ffffffffffffffffffffffffffffffffffffffff8216906301ffc9a790602401602060405180830381865afa158015610de5573d6000803e3d6000fd5b505050506040513d601f19601f82011682018060405250810190610e09919061474f565b15610e18575060019392505050565b5060009392505050565b606060018054610e3190614e11565b80601f0160208091040260200160405190810160405280929190818152602001828054610e5d90614e11565b8015610eaa5780601f10610e7f57610100808354040283529160200191610eaa565b820191906000526020600020905b815481529060010190602001808311610e8d57829003601f168201915b5050505050905090565b6000610ede7fb4107f746e9496e8452accc7de63d1c5e14c19f510932daa04077cd49e8bd77a5490565b73ffffffffffffffffffffffffffffffffffffffff16630fffbaf36040518163ffffffff1660e01b8152600401602060405180830381865afa158015610f28573d6000803e3d6000fd5b505050506040513d601f19601f82011682018060405250810190610f4c9190614df4565b73ffffffffffffffffffffffffffffffffffffffff163373ffffffffffffffffffffffffffffffffffffffff1614610fe5576040517f08c379a000000000000000000000000000000000000000000000000000000000815260206004820152601860248201527f4552433732313a20627269646765206f6e6c792063616c6c000000000000000060448201526064015b60405180910390fd5b6000808080610ff686880188614c65565b935093509350935061102c8260009081526006602052604090205473ffffffffffffffffffffffffffffffffffffffff16151590565b15611093576040517f08c379a000000000000000000000000000000000000000000000000000000000815260206004820152601c60248201527f4552433732313a20746f6b656e20616c726561647920657869737473000000006044820152606401610fdc565b6000828152600c6020526040902080547fffffffffffffffffffffffffffffffffffffffffffffffffffffffffffffff001690556110d183836138e3565b6110db6001613b53565b156111ec5761118663f0f5407360e01b8986868686604051602401611104959493929190614e64565b604080517fffffffffffffffffffffffffffffffffffffffffffffffffffffffffffffffe08184030181529190526020810180517bffffffffffffffffffffffffffffffffffffffffffffffffffffffff167fffffffff0000000000000000000000000000000000000000000000000000000090931692909217909152613b85565b6111ec576040517f08c379a000000000000000000000000000000000000000000000000000000000815260206004820152601b60248201527f484f4c4f47524150483a2062726964676520696e206661696c656400000000006044820152606401610fdc565b507f08a1eb2000000000000000000000000000000000000000000000000000000000979650505050505050565b60008181526006602052604090205473ffffffffffffffffffffffffffffffffffffffff9081169083168190036112ac576040517f08c379a000000000000000000000000000000000000000000000000000000000815260206004820152601b60248201527f4552433732313a2063616e6e6f7420617070726f76652073656c6600000000006044820152606401610fdc565b6112b63383613bde565b61131c576040517f08c379a000000000000000000000000000000000000000000000000000000000815260206004820152601b60248201527f4552433732313a206e6f7420617070726f7665642073656e64657200000000006044820152606401610fdc565b6113266004613b53565b156113905760405173ffffffffffffffffffffffffffffffffffffffff80831660248301528416604482015260648101839052611387907f47abf3be0000000000000000000000000000000000000000000000000000000090608401611104565b61139057600080fd5b60008281526007602052604080822080547fffffffffffffffffffffffff00000000000000000000000000000000000000001673ffffffffffffffffffffffffffffffffffffffff87811691821790925591518593918516917f8c5be1e5ebec7d5bd14f71427d1e84f3dd0314c0f7b2291e5b200ac8c7c3b92591a46114166003613b53565b156114805760405173ffffffffffffffffffffffffffffffffffffffff80831660248301528416604482015260648101839052611477907f900f66ef0000000000000000000000000000000000000000000000000000000090608401611104565b61148057600080fd5b505050565b7fb56711ba6bd3ded7639fc335ee7524fe668a79d7558c85992e3f8494cf7727775473ffffffffffffffffffffffffffffffffffffffff163373ffffffffffffffffffffffffffffffffffffffff161461153b576040517f08c379a000000000000000000000000000000000000000000000000000000000815260206004820152601e60248201527f484f4c4f47524150483a206f776e6572206f6e6c792066756e6374696f6e00006044820152606401610fdc565b60006115657fb56711ba6bd3ded7639fc335ee7524fe668a79d7558c85992e3f8494cf7727775490565b9050817fb56711ba6bd3ded7639fc335ee7524fe668a79d7558c85992e3f8494cf772777558173ffffffffffffffffffffffffffffffffffffffff168173ffffffffffffffffffffffffffffffffffffffff167f8be0079c531659141344cd1fd0a4f28419497f9722a3daafe3b4186f6b6457e060405160405180910390a35050565b60006115f386613cda565b611659576040517f08c379a000000000000000000000000000000000000000000000000000000000815260206004820152601d60248201527f4552433732313a206f70657261746f72206e6f7420636f6e74726163740000006044820152606401610fdc565b611663600f613b53565b156116975761168e6368fd76b260e01b87873088888860405160240161110496959493929190614eba565b61169757600080fd5b6040517f6352211e0000000000000000000000000000000000000000000000000000000081526004810185905273ffffffffffffffffffffffffffffffffffffffff871690636352211e90602401602060405180830381865afa92505050801561173c575060408051601f3d9081017fffffffffffffffffffffffffffffffffffffffffffffffffffffffffffffffe016820190925261173991810190614df4565b60015b6117a2576040517f08c379a000000000000000000000000000000000000000000000000000000000815260206004820152601c60248201527f4552433732313a20746f6b656e20646f6573206e6f74206578697374000000006044820152606401610fdc565b73ffffffffffffffffffffffffffffffffffffffff81163014611821576040517f08c379a000000000000000000000000000000000000000000000000000000000815260206004820181905260248201527f4552433732313a20636f6e7472616374206e6f7420746f6b656e206f776e65726044820152606401610fdc565b5061182c6010613b53565b156118605761185763462b401a60e01b87873088888860405160240161110496959493929190614eba565b61186057600080fd5b507f150b7a020000000000000000000000000000000000000000000000000000000095945050505050565b61148083838360405180602001604052806000815250612950565b60006118b1836123ae565b8210611919576040517f08c379a000000000000000000000000000000000000000000000000000000000815260206004820152601b60248201527f4552433732313a20696e646578206f7574206f6620626f756e647300000000006044820152606401610fdc565b73ffffffffffffffffffffffffffffffffffffffff8316600090815260096020526040902080548390811061195057611950614f42565b9060005260206000200154905092915050565b7f27d542086d1e831d40b749e7f5509a626c3047a36d160781c40d5acc83e5b074543373ffffffffffffffffffffffffffffffffffffffff821614611a04576040517f08c379a000000000000000000000000000000000000000000000000000000000815260206004820152601860248201527f4552433732313a20736f75726365206f6e6c792063616c6c00000000000000006044820152606401610fdc565b6000611a0e613d11565b83604051602001611a7592919060e09290921b7fffffffff00000000000000000000000000000000000000000000000000000000168252602090811b7fffffffffffffffffffffffffffffffffffffffffffffffffffffffff000000001660048301520190565b604051602081830303815290604052611a8d90614f71565b6000818152600c602052604090205490915060ff1615611b09576040517f08c379a000000000000000000000000000000000000000000000000000000000815260206004820152601f60248201527f4552433732313a2063616e2774206d696e74206275726e656420746f6b656e006044820152606401610fdc565b611b1384826138e3565b50505050565b61148083838360405180602001604052806000815250612e55565b611b3e3382613e81565b611ba4576040517f08c379a000000000000000000000000000000000000000000000000000000000815260206004820152601b60248201527f4552433732313a206e6f7420617070726f7665642073656e64657200000000006044820152606401610fdc565b60008181526006602052604090205473ffffffffffffffffffffffffffffffffffffffff16611bd36008613b53565b15611c355760405173ffffffffffffffffffffffffffffffffffffffff8216602482015260448101839052611c2c907f4a1fefbd0000000000000000000000000000000000000000000000000000000090606401611104565b611c3557600080fd5b611c3f8183613fae565b611c496007613b53565b15611cab5760405173ffffffffffffffffffffffffffffffffffffffff8216602482015260448101839052611ca2907f971c34b40000000000000000000000000000000000000000000000000000000090606401611104565b611cab57600080fd5b5050565b6000611cd97f4e5f991bca30eca2d4643aaefa807e88f96a4a97398933d572a3c0d973004a015490565b15611d40576040517f08c379a000000000000000000000000000000000000000000000000000000000815260206004820152601b60248201527f4552433732313a20616c726561647920696e697469616c697a656400000000006044820152606401610fdc565b6000337fb56711ba6bd3ded7639fc335ee7524fe668a79d7558c85992e3f8494cf772777557f27d542086d1e831d40b749e7f5509a626c3047a36d160781c40d5acc83e5b07454905060008060008060008088806020019051810190611da69190614ff8565b9550955095509550955095508560019080519060200190611dc89291906145e0565b508451611ddc9060029060208801906145e0565b50600380547fffffffffffffffffffffffffffffffffffffffffffffffffffffffffffff00001661ffff8616179055600083905581612158576040517f4ddf47d4000000000000000000000000000000000000000000000000000000008082529073ffffffffffffffffffffffffffffffffffffffff891690634ddf47d490611e6990859060040161482d565b6020604051808303816000875af1158015611e88573d6000803e3d6000fd5b505050506040513d601f19601f82011682018060405250810190611eac91906150b6565b7fffffffff000000000000000000000000000000000000000000000000000000001614611f35576040517f08c379a000000000000000000000000000000000000000000000000000000000815260206004820152601d60248201527f4552433732313a20636f756c64206e6f7420696e697420736f757263650000006044820152606401610fdc565b600080611f40610adb565b73ffffffffffffffffffffffffffffffffffffffff16631aff107760e01b8761ffff166000604051602001611f7f929190918252602082015260400190565b604080517fffffffffffffffffffffffffffffffffffffffffffffffffffffffffffffffe081840301815290829052611fba9160240161482d565b604080517fffffffffffffffffffffffffffffffffffffffffffffffffffffffffffffffe08184030181529181526020820180517bffffffffffffffffffffffffffffffffffffffffffffffffffffffff167fffffffff0000000000000000000000000000000000000000000000000000000090941693909317909252905161204391906150d3565b600060405180830381855af49150503d806000811461207e576040519150601f19603f3d011682016040523d82523d6000602084013e612083565b606091505b509150915060008180602001905181019061209e91906150b6565b90508280156120ee57507fffffffff0000000000000000000000000000000000000000000000000000000081167f4ddf47d400000000000000000000000000000000000000000000000000000000145b612154576040517f08c379a000000000000000000000000000000000000000000000000000000000815260206004820181905260248201527f4552433732313a20636f756c64206e6f7420696e697420726f79616c746965736044820152606401610fdc565b5050505b61218160017f4e5f991bca30eca2d4643aaefa807e88f96a4a97398933d572a3c0d973004a0155565b507f4ddf47d40000000000000000000000000000000000000000000000000000000098975050505050505050565b600454600090821061221d576040517f08c379a000000000000000000000000000000000000000000000000000000000815260206004820152601b60248201527f4552433732313a20696e646578206f7574206f6620626f756e647300000000006044820152606401610fdc565b6004828154811061223057612230614f42565b90600052602060002001549050919050565b60008181526006602052604081205473ffffffffffffffffffffffffffffffffffffffff16806122ce576040517f08c379a000000000000000000000000000000000000000000000000000000000815260206004820152601c60248201527f4552433732313a20746f6b656e20646f6573206e6f74206578697374000000006044820152606401610fdc565b92915050565b7f3f106594dc74eeef980dae234cde8324dc2497b13d27a0c59e55bd2ca10a07c95473ffffffffffffffffffffffffffffffffffffffff163373ffffffffffffffffffffffffffffffffffffffff161461238a576040517f08c379a000000000000000000000000000000000000000000000000000000000815260206004820152601e60248201527f484f4c4f47524150483a2061646d696e206f6e6c792066756e6374696f6e00006044820152606401610fdc565b7f3f106594dc74eeef980dae234cde8324dc2497b13d27a0c59e55bd2ca10a07c955565b600073ffffffffffffffffffffffffffffffffffffffff821661242d576040517f08c379a000000000000000000000000000000000000000000000000000000000815260206004820152601460248201527f4552433732313a207a65726f20616464726573730000000000000000000000006044820152606401610fdc565b5073ffffffffffffffffffffffffffffffffffffffff1660009081526008602052604090205490565b7f27d542086d1e831d40b749e7f5509a626c3047a36d160781c40d5acc83e5b074546000903373ffffffffffffffffffffffffffffffffffffffff8216146124fa576040517f08c379a000000000000000000000000000000000000000000000000000000000815260206004820152601860248201527f4552433732313a20736f75726365206f6e6c792063616c6c00000000000000006044820152606401610fdc565b612502613d11565b6040805160e09290921b7fffffffff00000000000000000000000000000000000000000000000000000000166020830152600060248301520160405160208183030381529060405261255390614f71565b91505b5090565b73ffffffffffffffffffffffffffffffffffffffff81166000908152600960209081526040918290208054835181840281018401909452808452606093928301828280156125c757602002820191906000526020600020905b8154815260200190600101908083116125b3575b50505050509050919050565b600454606090806125e4848661511e565b11156125f7576125f48482615136565b92505b8267ffffffffffffffff81111561261057612610614a82565b604051908082528060200260200182016040528015612639578160200160208202803683370190505b50915060005b8381101561269d576004612653828761511e565b8154811061266357612663614f42565b906000526020600020015483828151811061268057612680614f42565b6020908102919091010152806126958161514d565b91505061263f565b505092915050565b6000807f27d542086d1e831d40b749e7f5509a626c3047a36d160781c40d5acc83e5b0745490508073ffffffffffffffffffffffffffffffffffffffff16638da5cb5b6040518163ffffffff1660e01b8152600401602060405180830381865afa158015612717573d6000803e3d6000fd5b505050506040513d601f19601f820116820180604052508101906125539190614df4565b606060028054610e3190614e11565b3373ffffffffffffffffffffffffffffffffffffffff8316036127c9576040517f08c379a000000000000000000000000000000000000000000000000000000000815260206004820152601b60248201527f4552433732313a2063616e6e6f7420617070726f76652073656c6600000000006044820152606401610fdc565b6127d36006613b53565b1561283c5760405133602482015273ffffffffffffffffffffffffffffffffffffffff831660448201528115156064820152612833907f0d3919150000000000000000000000000000000000000000000000000000000090608401611104565b61283c57600080fd5b336000818152600a6020908152604080832073ffffffffffffffffffffffffffffffffffffffff87168085529083529281902080547fffffffffffffffffffffffffffffffffffffffffffffffffffffffffffffff001686151590811790915590519081529192917f17307eab39ab6107e8899845ad3d59bd9653f200f220920489ca2b5937696c31910160405180910390a36128d96005613b53565b15611cab5760405133602482015273ffffffffffffffffffffffffffffffffffffffff831660448201528115156064820152611ca2907fb6d3d5b70000000000000000000000000000000000000000000000000000000090608401611104565b611cab338383604051806020016040528060008152505b61295a3383613e81565b6129c0576040517f08c379a000000000000000000000000000000000000000000000000000000000815260206004820152601b60248201527f4552433732313a206e6f7420617070726f7665642073656e64657200000000006044820152606401610fdc565b6129ca600e613b53565b156129fa576129f163343b278f60e01b858585856040516024016111049493929190615185565b6129fa57600080fd5b612a0584848461409c565b612a0f600d613b53565b15611b1357612a36630668af8060e01b858585856040516024016111049493929190615185565b611b1357600080fd5b60006060612a6b7fb4107f746e9496e8452accc7de63d1c5e14c19f510932daa04077cd49e8bd77a5490565b73ffffffffffffffffffffffffffffffffffffffff16630fffbaf36040518163ffffffff1660e01b8152600401602060405180830381865afa158015612ab5573d6000803e3d6000fd5b505050506040513d601f19601f82011682018060405250810190612ad99190614df4565b73ffffffffffffffffffffffffffffffffffffffff163373ffffffffffffffffffffffffffffffffffffffff1614612b6d576040517f08c379a000000000000000000000000000000000000000000000000000000000815260206004820152601860248201527f4552433732313a20627269646765206f6e6c792063616c6c00000000000000006044820152606401610fdc565b60008080612b7d868801886149e7565b9194509250905073ffffffffffffffffffffffffffffffffffffffff8216612c01576040517f08c379a000000000000000000000000000000000000000000000000000000000815260206004820152601460248201527f4552433732313a207a65726f20616464726573730000000000000000000000006044820152606401610fdc565b612c0b8882613e81565b612c71576040517f08c379a000000000000000000000000000000000000000000000000000000000815260206004820152601b60248201527f4552433732313a2073656e646572206e6f7420617070726f76656400000000006044820152606401610fdc565b60008181526006602052604090205473ffffffffffffffffffffffffffffffffffffffff848116911614612d01576040517f08c379a000000000000000000000000000000000000000000000000000000000815260206004820152601960248201527f4552433732313a2066726f6d206973206e6f74206f776e6572000000000000006044820152606401610fdc565b612d0b6002613b53565b15612df3576040805163ffffffff8b16602482015273ffffffffffffffffffffffffffffffffffffffff85811660448301528416606482015260848082018490528251808303909101815260a4909101909152602080820180517bffffffffffffffffffffffffffffffffffffffffffffffffffffffff167f8b1465c6000000000000000000000000000000000000000000000000000000001790528151339083015281517f27d542086d1e831d40b749e7f5509a626c3047a36d160781c40d5acc83e5b0745460009283920190849034905af13d6000873e8080612def573d6000fd5b5050505b612dfd8382613fae565b6040517fb7e036610000000000000000000000000000000000000000000000000000000090612e36908590859085908990602001615185565b6040516020818303038152906040529450945050505094509492505050565b612e5f3383613e81565b612ec5576040517f08c379a000000000000000000000000000000000000000000000000000000000815260206004820152601b60248201527f4552433732313a206e6f7420617070726f7665642073656e64657200000000006044820152606401610fdc565b612ecf600c613b53565b15612eff57612ef6632ca1667660e01b858585856040516024016111049493929190615185565b612eff57600080fd5b612f0a84848461409c565b612f1383613cda565b1561303e576040517f150b7a02000000000000000000000000000000000000000000000000000000008082529073ffffffffffffffffffffffffffffffffffffffff85169063150b7a0290612f72903390899088908890600401615185565b6020604051808303816000875af1158015612f91573d6000803e3d6000fd5b505050506040513d601f19601f82011682018060405250810190612fb591906150b6565b7fffffffff00000000000000000000000000000000000000000000000000000000161461303e576040517f08c379a000000000000000000000000000000000000000000000000000000000815260206004820152601d60248201527f4552433732313a206f6e4552433732315265636569766564206661696c0000006044820152606401610fdc565b613048600b613b53565b15611b1357612a366336fff06260e01b858585856040516024016111049493929190615185565b7f3f106594dc74eeef980dae234cde8324dc2497b13d27a0c59e55bd2ca10a07c95473ffffffffffffffffffffffffffffffffffffffff163373ffffffffffffffffffffffffffffffffffffffff1614613125576040517f08c379a000000000000000000000000000000000000000000000000000000000815260206004820152601e60248201527f484f4c4f47524150483a2061646d696e206f6e6c792066756e6374696f6e00006044820152606401610fdc565b808260003760008082600034875af13d6000803e8080156103ca573d6000f35b7f27d542086d1e831d40b749e7f5509a626c3047a36d160781c40d5acc83e5b074543373ffffffffffffffffffffffffffffffffffffffff8216146131e6576040517f08c379a000000000000000000000000000000000000000000000000000000000815260206004820152601860248201527f4552433732313a20736f75726365206f6e6c792063616c6c00000000000000006044820152606401610fdc565b6000828152600c602052604090205460ff161561325f576040517f08c379a000000000000000000000000000000000000000000000000000000000815260206004820152601d60248201527f4552433732313a20746f6b656e20686173206265656e206275726e65640000006044820152606401610fdc565b60008281526006602052604090205473ffffffffffffffffffffffffffffffffffffffff16611b1381858561409c565b73ffffffffffffffffffffffffffffffffffffffff8316600090815260086020526040902054606090806132c3848661511e565b11156132d6576132d38482615136565b92505b8267ffffffffffffffff8111156132ef576132ef614a82565b604051908082528060200260200182016040528015613318578160200160208202803683370190505b50915060005b8381101561339f5773ffffffffffffffffffffffffffffffffffffffff86166000908152600960205260409020613355828761511e565b8154811061336557613365614f42565b906000526020600020015483828151811061338257613382614f42565b6020908102919091010152806133978161514d565b91505061331e565b50509392505050565b60008181526006602052604090205460609073ffffffffffffffffffffffffffffffffffffffff16613436576040517f08c379a000000000000000000000000000000000000000000000000000000000815260206004820152601c60248201527f4552433732313a20746f6b656e20646f6573206e6f74206578697374000000006044820152606401610fdc565b7f27d542086d1e831d40b749e7f5509a626c3047a36d160781c40d5acc83e5b074546040517fc87b56dd0000000000000000000000000000000000000000000000000000000081526004810184905273ffffffffffffffffffffffffffffffffffffffff82169063c87b56dd90602401600060405180830381865afa1580156134c3573d6000803e3d6000fd5b505050506040513d6000823e601f3d9081017fffffffffffffffffffffffffffffffffffffffffffffffffffffffffffffffe016820160405261350991908101906151ce565b9392505050565b606061351a610a3e565b6003546040517f9cf149da00000000000000000000000000000000000000000000000000000000815273ffffffffffffffffffffffffffffffffffffffff9290921691639cf149da916135799160019161ffff16903090600401615203565b600060405180830381865afa158015613596573d6000803e3d6000fd5b505050506040513d6000823e601f3d9081017fffffffffffffffffffffffffffffffffffffffffffffffffffffffffffffffe0168201604052610ad691908101906151ce565b7fb56711ba6bd3ded7639fc335ee7524fe668a79d7558c85992e3f8494cf7727775473ffffffffffffffffffffffffffffffffffffffff163373ffffffffffffffffffffffffffffffffffffffff1614613125576040517f08c379a000000000000000000000000000000000000000000000000000000000815260206004820152601e60248201527f484f4c4f47524150483a206f776e6572206f6e6c792066756e6374696f6e00006044820152606401610fdc565b7fb56711ba6bd3ded7639fc335ee7524fe668a79d7558c85992e3f8494cf7727775473ffffffffffffffffffffffffffffffffffffffff163373ffffffffffffffffffffffffffffffffffffffff1614613748576040517f08c379a000000000000000000000000000000000000000000000000000000000815260206004820152601e60248201527f484f4c4f47524150483a206f776e6572206f6e6c792066756e6374696f6e00006044820152606401610fdc565b73ffffffffffffffffffffffffffffffffffffffff81166137c5576040517f08c379a000000000000000000000000000000000000000000000000000000000815260206004820152601760248201527f484f4c4f47524150483a207a65726f20616464726573730000000000000000006044820152606401610fdc565b7fb56711ba6bd3ded7639fc335ee7524fe668a79d7558c85992e3f8494cf77277755565b6000610ad67f3f106594dc74eeef980dae234cde8324dc2497b13d27a0c59e55bd2ca10a07c95490565b7f27d542086d1e831d40b749e7f5509a626c3047a36d160781c40d5acc83e5b074543373ffffffffffffffffffffffffffffffffffffffff8216146138b4576040517f08c379a000000000000000000000000000000000000000000000000000000000815260206004820152601860248201527f4552433732313a20736f75726365206f6e6c792063616c6c00000000000000006044820152606401610fdc565b60008281526006602052604090205473ffffffffffffffffffffffffffffffffffffffff166114808184613fae565b6000811161394d576040517f08c379a000000000000000000000000000000000000000000000000000000000815260206004820152601f60248201527f4552433732313a20746f6b656e2069642063616e6e6f74206265207a65726f006044820152606401610fdc565b73ffffffffffffffffffffffffffffffffffffffff82166139ca576040517f08c379a000000000000000000000000000000000000000000000000000000000815260206004820152601f60248201527f4552433732313a206d696e74696e6720746f206275726e2061646472657373006044820152606401610fdc565b60008181526006602052604090205473ffffffffffffffffffffffffffffffffffffffff1615613a56576040517f08c379a000000000000000000000000000000000000000000000000000000000815260206004820152601c60248201527f4552433732313a20746f6b656e20616c726561647920657869737473000000006044820152606401610fdc565b6000818152600c602052604090205460ff1615613acf576040517f08c379a000000000000000000000000000000000000000000000000000000000815260206004820152601d60248201527f4552433732313a20746f6b656e20686173206265656e206275726e65640000006044820152606401610fdc565b60008181526006602052604080822080547fffffffffffffffffffffffff00000000000000000000000000000000000000001673ffffffffffffffffffffffffffffffffffffffff861690811790915590518392907fddf252ad1be2c89b69c2b068fc378daa952ba7f163c4a11628f55a4df523b3ef908290a4611cab8282614269565b60006001826010811115613b6957613b69614696565b600054901c16600114613b7d5760006122ce565b600192915050565b600060405160208101604052338351840152600080602085510185347f27d542086d1e831d40b749e7f5509a626c3047a36d160781c40d5acc83e5b074545af13d6000833e8080613bd5573d6000fd5b50505192915050565b60008181526006602052604081205473ffffffffffffffffffffffffffffffffffffffff16613c69576040517f08c379a000000000000000000000000000000000000000000000000000000000815260206004820152601c60248201527f4552433732313a20746f6b656e20646f6573206e6f74206578697374000000006044820152606401610fdc565b60008281526006602052604090205473ffffffffffffffffffffffffffffffffffffffff908116908416811480613cd2575073ffffffffffffffffffffffffffffffffffffffff8082166000908152600a602090815260408083209388168352929052205460ff165b949350505050565b6000813f801580159061350957507fc5d2460186f7233c927e7db2dcc703c0e500b653ca82273b7bfad8045d85a470141592915050565b6000803073ffffffffffffffffffffffffffffffffffffffff16634827ae0c6040518163ffffffff1660e01b8152600401602060405180830381865afa158015613d5f573d6000803e3d6000fd5b505050506040513d601f19601f82011682018060405250810190613d839190614df4565b73ffffffffffffffffffffffffffffffffffffffff1663381b5f466040518163ffffffff1660e01b8152600401602060405180830381865afa158015613dcd573d6000803e3d6000fd5b505050506040513d601f19601f82011682018060405250810190613df1919061532f565b90503073ffffffffffffffffffffffffffffffffffffffff1663913a0ef26040518163ffffffff1660e01b8152600401602060405180830381865afa158015613e3e573d6000803e3d6000fd5b505050506040513d601f19601f82011682018060405250810190613e62919061532f565b63ffffffff168163ffffffff1614613e7957919050565b600091505090565b60008181526006602052604081205473ffffffffffffffffffffffffffffffffffffffff16613f0c576040517f08c379a000000000000000000000000000000000000000000000000000000000815260206004820152601c60248201527f4552433732313a20746f6b656e20646f6573206e6f74206578697374000000006044820152606401610fdc565b60008281526006602052604090205473ffffffffffffffffffffffffffffffffffffffff908116908416811480613f69575060008381526007602052604090205473ffffffffffffffffffffffffffffffffffffffff8581169116145b80613cd2575073ffffffffffffffffffffffffffffffffffffffff8082166000908152600a602090815260408083209388168352929052205460ff1691505092915050565b600081815260076020526040902080547fffffffffffffffffffffffff000000000000000000000000000000000000000016905560008181526006602052604080822080547fffffffffffffffffffffffff00000000000000000000000000000000000000001690555182919073ffffffffffffffffffffffffffffffffffffffff8516907fddf252ad1be2c89b69c2b068fc378daa952ba7f163c4a11628f55a4df523b3ef908390a46140628282614330565b6000908152600c6020526040902080547fffffffffffffffffffffffffffffffffffffffffffffffffffffffffffffff0016600117905550565b60008181526006602052604090205473ffffffffffffffffffffffffffffffffffffffff84811691161461412c576040517f08c379a000000000000000000000000000000000000000000000000000000000815260206004820152601760248201527f4552433732313a20746f6b656e206e6f74206f776e65640000000000000000006044820152606401610fdc565b73ffffffffffffffffffffffffffffffffffffffff82166141a9576040517f08c379a000000000000000000000000000000000000000000000000000000000815260206004820152601860248201527f4552433732313a20757365206275726e20696e737465616400000000000000006044820152606401610fdc565b600081815260076020526040902080547fffffffffffffffffffffffff000000000000000000000000000000000000000016905560008181526006602052604080822080547fffffffffffffffffffffffff00000000000000000000000000000000000000001673ffffffffffffffffffffffffffffffffffffffff86811691821790925591518493918716917fddf252ad1be2c89b69c2b068fc378daa952ba7f163c4a11628f55a4df523b3ef91a46142638382614330565b61148082825b73ffffffffffffffffffffffffffffffffffffffff8216600081815260086020818152604080842080548786526005845291852082905594845291905291906142b18361514d565b909155505073ffffffffffffffffffffffffffffffffffffffff90911660009081526009602090815260408083208054600181810183559185528385200185905560048054868652600b909452918420839055820181559091527f8a35acfbc15ff81a39ae7d344fd709f28e8600b4aa8c65c6b64bfe7fe36bd19b0155565b6143398161452e565b73ffffffffffffffffffffffffffffffffffffffff8216600090815260086020526040812080549161436a8361534c565b909155505073ffffffffffffffffffffffffffffffffffffffff82166000908152600860209081526040808320548484526005909252909120548082146144605773ffffffffffffffffffffffffffffffffffffffff841660009081526009602052604081208054849081106143e2576143e2614f42565b9060005260206000200154905080600960008773ffffffffffffffffffffffffffffffffffffffff1673ffffffffffffffffffffffffffffffffffffffff168152602001908152602001600020838154811061444057614440614f42565b600091825260208083209091019290925591825260059052604090208190555b8160000361449b5773ffffffffffffffffffffffffffffffffffffffff8416600090815260096020526040812061449691614660565b611b13565b73ffffffffffffffffffffffffffffffffffffffff841660009081526009602052604090208054839081106144d2576144d2614f42565b6000918252602080832090910182905573ffffffffffffffffffffffffffffffffffffffff86168252600990526040902080548061451257614512615381565b6001900381819060005260206000200160009055905550505050565b60045460009061454090600190615136565b6000838152600b60205260408120546004805493945090928490811061456857614568614f42565b90600052602060002001549050806004838154811061458957614589614f42565b6000918252602080832090910192909255828152600b909152604080822084905585825281205560048054849081106145c4576145c4614f42565b6000918252602082200155600480548061451257614512615381565b8280546145ec90614e11565b90600052602060002090601f01602090048101928261460e5760008555614654565b82601f1061462757805160ff1916838001178555614654565b82800160010185558215614654579182015b82811115614654578251825591602001919060010190614639565b50612556929150614681565b508054600082559060005260206000209081019061467e9190614681565b50565b5b808211156125565760008155600101614682565b7f4e487b7100000000000000000000000000000000000000000000000000000000600052602160045260246000fd5b6040810160068410614700577f4e487b7100000000000000000000000000000000000000000000000000000000600052602160045260246000fd5b9281527fffffffff000000000000000000000000000000000000000000000000000000009190911660209091015290565b801515811461467e57600080fd5b805161474a81614731565b919050565b60006020828403121561476157600080fd5b815161350981614731565b7fffffffff000000000000000000000000000000000000000000000000000000008116811461467e57600080fd5b6000602082840312156147ac57600080fd5b81356135098161476c565b60005b838110156147d25781810151838201526020016147ba565b83811115611b135750506000910152565b600081518084526147fb8160208601602086016147b7565b601f017fffffffffffffffffffffffffffffffffffffffffffffffffffffffffffffffe0169290920160200192915050565b60208152600061350960208301846147e3565b60006020828403121561485257600080fd5b5035919050565b63ffffffff8116811461467e57600080fd5b60008083601f84011261487d57600080fd5b50813567ffffffffffffffff81111561489557600080fd5b6020830191508360208285010111156148ad57600080fd5b9250929050565b6000806000604084860312156148c957600080fd5b83356148d481614859565b9250602084013567ffffffffffffffff8111156148f057600080fd5b6148fc8682870161486b565b9497909650939450505050565b73ffffffffffffffffffffffffffffffffffffffff8116811461467e57600080fd5b6000806040838503121561493e57600080fd5b823561494981614909565b946020939093013593505050565b60006020828403121561496957600080fd5b813561350981614909565b60008060008060006080868803121561498c57600080fd5b853561499781614909565b945060208601356149a781614909565b935060408601359250606086013567ffffffffffffffff8111156149ca57600080fd5b6149d68882890161486b565b969995985093965092949392505050565b6000806000606084860312156149fc57600080fd5b8335614a0781614909565b92506020840135614a1781614909565b929592945050506040919091013590565b60008060408385031215614a3b57600080fd5b8235614a4681614909565b915060208301357bffffffffffffffffffffffffffffffffffffffffffffffffffffffff81168114614a7757600080fd5b809150509250929050565b7f4e487b7100000000000000000000000000000000000000000000000000000000600052604160045260246000fd5b604051601f82017fffffffffffffffffffffffffffffffffffffffffffffffffffffffffffffffe016810167ffffffffffffffff81118282101715614af857614af8614a82565b604052919050565b600067ffffffffffffffff821115614b1a57614b1a614a82565b50601f017fffffffffffffffffffffffffffffffffffffffffffffffffffffffffffffffe01660200190565b600082601f830112614b5757600080fd5b8135614b6a614b6582614b00565b614ab1565b818152846020838601011115614b7f57600080fd5b816020850160208301376000918101602001919091529392505050565b600060208284031215614bae57600080fd5b813567ffffffffffffffff811115614bc557600080fd5b613cd284828501614b46565b6020808252825182820181905260009190848201906040850190845b81811015614c0957835183529284019291840191600101614bed565b50909695505050505050565b60008060408385031215614c2857600080fd5b50508035926020909101359150565b60008060408385031215614c4a57600080fd5b8235614c5581614909565b91506020830135614a7781614731565b60008060008060808587031215614c7b57600080fd5b8435614c8681614909565b93506020850135614c9681614909565b925060408501359150606085013567ffffffffffffffff811115614cb957600080fd5b614cc587828801614b46565b91505092959194509250565b60008060008060608587031215614ce757600080fd5b8435614cf281614859565b93506020850135614d0281614909565b9250604085013567ffffffffffffffff811115614d1e57600080fd5b614d2a8782880161486b565b95989497509550505050565b7fffffffff0000000000000000000000000000000000000000000000000000000083168152604060208201526000613cd260408301846147e3565b600080600060408486031215614d8657600080fd5b83356148d481614909565b600080600060608486031215614da657600080fd5b8335614db181614909565b95602085013595506040909401359392505050565b60008060408385031215614dd957600080fd5b8235614de481614909565b91506020830135614a7781614909565b600060208284031215614e0657600080fd5b815161350981614909565b600181811c90821680614e2557607f821691505b602082108103614e5e577f4e487b7100000000000000000000000000000000000000000000000000000000600052602260045260246000fd5b50919050565b63ffffffff86168152600073ffffffffffffffffffffffffffffffffffffffff808716602084015280861660408401525083606083015260a06080830152614eaf60a08301846147e3565b979650505050505050565b600073ffffffffffffffffffffffffffffffffffffffff8089168352808816602084015280871660408401525084606083015260a060808301528260a0830152828460c0840137600060c0848401015260c07fffffffffffffffffffffffffffffffffffffffffffffffffffffffffffffffe0601f8501168301019050979650505050505050565b7f4e487b7100000000000000000000000000000000000000000000000000000000600052603260045260246000fd5b80516020808301519190811015614e5e577fffffffffffffffffffffffffffffffffffffffffffffffffffffffffffffffff60209190910360031b1b16919050565b600082601f830112614fc457600080fd5b8151614fd2614b6582614b00565b818152846020838601011115614fe757600080fd5b613cd28260208301602087016147b7565b60008060008060008060c0878903121561501157600080fd5b865167ffffffffffffffff8082111561502957600080fd5b6150358a838b01614fb3565b9750602089015191508082111561504b57600080fd5b6150578a838b01614fb3565b96506040890151915061ffff8216821461507057600080fd5b8195506060890151945061508660808a0161473f565b935060a089015191508082111561509c57600080fd5b506150a989828a01614fb3565b9150509295509295509295565b6000602082840312156150c857600080fd5b81516135098161476c565b600082516150e58184602087016147b7565b9190910192915050565b7f4e487b7100000000000000000000000000000000000000000000000000000000600052601160045260246000fd5b60008219821115615131576151316150ef565b500190565b600082821015615148576151486150ef565b500390565b60007fffffffffffffffffffffffffffffffffffffffffffffffffffffffffffffffff820361517e5761517e6150ef565b5060010190565b600073ffffffffffffffffffffffffffffffffffffffff8087168352808616602084015250836040830152608060608301526151c460808301846147e3565b9695505050505050565b6000602082840312156151e057600080fd5b815167ffffffffffffffff8111156151f757600080fd5b613cd284828501614fb3565b60a08152600080855481600182811c91508083168061522357607f831692505b6020808410820361525b577f4e487b710000000000000000000000000000000000000000000000000000000086526022600452602486fd5b60a0880184905260c0880182801561527a57600181146152a9576152d4565b7fffffffffffffffffffffffffffffffffffffffffffffffffffffffffffffff008716825282820197506152d4565b60008d81526020902060005b878110156152ce578154848201529086019084016152b5565b83019850505b50508786039088015250506000835250506020810183810360408501526000815290506020810191505061530e606083018561ffff169052565b73ffffffffffffffffffffffffffffffffffffffff83166080830152613cd2565b60006020828403121561534157600080fd5b815161350981614859565b60008161535b5761535b6150ef565b507fffffffffffffffffffffffffffffffffffffffffffffffffffffffffffffffff0190565b7f4e487b7100000000000000000000000000000000000000000000000000000000600052603160045260246000fdfea164736f6c634300080d000a",
  "devdoc": {
    "author": "CXIP-Labs",
    "details": "The entire logic and functionality of the smart contract is self-contained.",
    "kind": "dev",
    "methods": {
      "approve(address,uint256)": {
        "details": "Requires the sender to be in the approved addresses.",
        "params": {
          "to": "The address to approve.",
          "tokenId": "The affected token."
        }
      },
      "balanceOf(address)": {
        "details": "Used to see total amount of tokens owned by a specific wallet.",
        "params": {
          "wallet": "Address for which to get token balance."
        },
        "returns": {
          "_0": "uint256 Returns an integer, representing total amount of tokens held by address."
        }
      },
      "burn(uint256)": {
        "details": "The sender must be the owner or approved.",
        "params": {
          "tokenId": "The token to burn."
        }
      },
      "constructor": {
        "details": "Constructor is left empty and init is used instead"
      },
      "contractURI()": {
        "returns": {
          "_0": "string The URI."
        }
      },
      "decimals()": {
        "details": "Since ERC721s are single, we use 0 as the decimal places to make sure a round number for totalSupply.",
        "returns": {
          "_0": "uint256 Returns the number of decimal places to have for totalSupply."
        }
      },
      "getApproved(uint256)": {
        "details": "Single operator set for a specific token. Usually used for one-time very specific authorisations.",
        "params": {
          "tokenId": "Token id to get approved operator for."
        },
        "returns": {
          "_0": "address Approved address for token."
        }
      },
      "getContractType()": {
        "details": "Returns the contract type that is used for loading the Enforcer"
      },
      "init(bytes)": {
        "details": "This function is called by the deployer/factory when creating a contract",
        "params": {
          "initPayload": "abi encoded payload to use for contract initilaization"
        }
      },
      "isApprovedForAll(address,address)": {
        "details": "Includes references to OpenSea and Rarible marketplace proxies.",
        "params": {
          "operator": "Address of the marketplace operator.",
          "wallet": "Address of the wallet."
        },
        "returns": {
          "_0": "bool True if approved."
        }
      },
      "name()": {
        "returns": {
          "_0": "string The collection name."
        }
      },
      "onERC721Received(address,address,uint256,bytes)": {
        "details": "We have this blank function in place to make sure that external contract sending in NFTs don't error out.Since it's not being used, the _operator variable is commented out to avoid compiler warnings.Since it's not being used, the _from variable is commented out to avoid compiler warnings.Since it's not being used, the _tokenId variable is commented out to avoid compiler warnings.Since it's not being used, the _data variable is commented out to avoid compiler warnings.",
        "returns": {
          "_0": "bytes4 Returns the interfaceId of onERC721Received."
        }
      },
      "ownerOf(uint256)": {
        "details": "The token must exist.",
        "params": {
          "tokenId": "The token to look up."
        },
        "returns": {
          "_0": "address Owner of the token."
        }
      },
      "safeTransferFrom(address,address,uint256)": {
        "details": "Safely transfers `tokenId` token from `from` to `to`, checking first that contract recipients are aware of the ERC721 protocol to prevent tokens from being forever locked.",
        "params": {
          "from": "cannot be the zero address.",
          "to": "cannot be the zero address.",
          "tokenId": "token must exist and be owned by `from`."
        }
      },
      "safeTransferFrom(address,address,uint256,bytes)": {
        "details": "Since it's not being used, the _data variable is commented out to avoid compiler warnings. are aware of the ERC721 protocol to prevent tokens from being forever locked.",
        "params": {
          "from": "cannot be the zero address.",
          "to": "cannot be the zero address.",
          "tokenId": "token must exist and be owned by `from`."
        }
      },
      "setApprovalForAll(address,bool)": {
        "details": "Allows platforms to sell/transfer all your NFTs. Used with proxy contracts like OpenSea/Rarible.",
        "params": {
          "approved": "Turn on or off approval status.",
          "to": "The address to approve."
        }
      },
      "sourceBurn(uint256)": {
        "details": "Allows for source smart contract to burn a token.  Note: this is put in place to make sure that custom logic could be implemented for merging, gamification, etc.  Note: token cannot be burned if it's locked by bridge."
      },
      "sourceGetChainPrepend()": {
        "details": "Allows source to get the prepend for their tokenIds."
      },
      "sourceMint(address,uint224)": {
        "details": "Allows for source smart contract to mint a token."
      },
      "sourceTransfer(address,uint256)": {
        "details": "Allows for source smart contract to transfer a token.  Note: this is put in place to make sure that custom logic could be implemented for merging, gamification, etc.  Note: token cannot be transfered if it's locked by bridge."
      },
      "supportsInterface(bytes4)": {
        "details": "Must add new 4 byte interface Ids here to acknowledge support",
        "params": {
          "interfaceId": "ERC165 style 4 byte interfaceId."
        },
        "returns": {
          "_0": "bool True if supported."
        }
      },
      "symbol()": {
        "returns": {
          "_0": "string The symbol."
        }
      },
      "tokenByIndex(uint256)": {
        "details": "Used in conjunction with totalSupply function to iterate over all tokens in collection.",
        "params": {
          "index": "Index of token in array."
        },
        "returns": {
          "_0": "uint256 Returns the token id of token located at that index."
        }
      },
      "tokenOfOwnerByIndex(address,uint256)": {
        "details": "Helpful for wallet token enumeration where token id info is not yet available. Use in conjunction with balanceOf function.",
        "params": {
          "index": "Index of token in array.",
          "wallet": "Specific address for which to get token for."
        },
        "returns": {
          "_0": "uint256 Returns the token id of token located at that index in specified wallet."
        }
      },
      "tokenURI(uint256)": {
        "details": "Defaults the the Arweave URI",
        "returns": {
          "_0": "string The URI."
        }
      },
      "tokens(uint256,uint256)": {
        "params": {
          "index": "The index to start enumeration from.",
          "length": "The length of returned results."
        },
        "returns": {
          "tokenIds": "uint256[] Returns a set length array of token ids minted."
        }
      },
      "tokensOfOwner(address)": {
        "params": {
          "wallet": "The wallet address to get tokens for."
        },
        "returns": {
          "_0": "uint256[] Returns an array of token ids owned by wallet."
        }
      },
      "tokensOfOwner(address,uint256,uint256)": {
        "params": {
          "index": "The index to start enumeration from.",
          "length": "The length of returned results.",
          "wallet": "The wallet address to get tokens for."
        },
        "returns": {
          "tokenIds": "uint256[] Returns a set length array of token ids owned by wallet."
        }
      },
      "totalSupply()": {
        "details": "Ignores burned tokens.",
        "returns": {
          "_0": "uint256 Returns the total number of active (not burned) tokens."
        }
      },
      "transfer(address,uint256)": {
        "details": "WARNING: Usage of this method is discouraged, use {safeTransferFrom} whenever possible.",
        "params": {
          "to": "cannot be the zero address.",
          "tokenId": "token must be owned by `from`."
        }
      },
      "transferFrom(address,address,uint256)": {
        "details": "WARNING: Usage of this method is discouraged, use {safeTransferFrom} whenever possible.",
        "params": {
          "from": "cannot be the zero address.",
          "to": "cannot be the zero address.",
          "tokenId": "token must be owned by `from`."
        }
      },
      "transferFrom(address,address,uint256,bytes)": {
        "details": "WARNING: Usage of this method is discouraged, use {safeTransferFrom} whenever possible.Since it's not being used, the _data variable is commented out to avoid compiler warnings.",
        "params": {
          "data": "additional data to pass.",
          "from": "cannot be the zero address.",
          "to": "cannot be the zero address.",
          "tokenId": "token must be owned by `from`."
        }
      }
    },
    "stateVariables": {
      "_allTokens": {
        "details": "Array of all token ids in collection."
      },
      "_allTokensIndex": {
        "details": "Mapping from token id to position in the allTokens array."
      },
      "_bps": {
        "details": "Collection royalty base points."
      },
      "_burnedTokens": {
        "details": "Mapping of all token ids that have been burned. This is to prevent re-minting of same token ids."
      },
      "_contractTypeSlot": {
        "details": "bytes32(uint256(keccak256('eip1967.Holograph.contractType')) - 1)"
      },
      "_eventConfig": {
        "details": "Configuration for events to trigger for source smart contract."
      },
      "_holographSlot": {
        "details": "bytes32(uint256(keccak256('eip1967.Holograph.holograph')) - 1)"
      },
      "_name": {
        "details": "Collection name."
      },
      "_operatorApprovals": {
        "details": "Usually utilised for supporting marketplace proxy wallets."
      },
      "_ownedTokens": {
        "details": "Map of array of token ids owned by a specific address."
      },
      "_ownedTokensCount": {
        "details": "Map of total tokens owner by a specific address."
      },
      "_ownedTokensIndex": {
        "details": "Map of token id to array index of _ownedTokens."
      },
      "_sourceContractSlot": {
        "details": "bytes32(uint256(keccak256('eip1967.Holograph.sourceContract')) - 1)"
      },
      "_symbol": {
        "details": "Collection symbol."
      },
      "_tokenApprovals": {
        "details": "1-to-1 map of token id that was assigned an approved operator address."
      },
      "_tokenOwner": {
        "details": "Token id to wallet (owner) address map."
      }
    },
    "title": "Holograph Bridgeable ERC-721 Collection",
    "version": 1
  },
  "userdoc": {
    "kind": "user",
    "methods": {
      "approve(address,uint256)": {
        "notice": "Adds a new address to the token's approval list."
      },
      "balanceOf(address)": {
        "notice": "Get total number of tokens owned by wallet."
      },
      "burn(uint256)": {
        "notice": "Burns the token."
      },
      "contractURI()": {
        "notice": "Gets a base64 encoded contract JSON file."
      },
      "decimals()": {
        "notice": "Decimal places to have for totalSupply."
      },
      "getApproved(uint256)": {
        "notice": "Gets the approved address for the token."
      },
      "init(bytes)": {
        "notice": "Used internally to initialize the contract instead of through a constructor"
      },
      "isApprovedForAll(address,address)": {
        "notice": "Checks if the address is approved."
      },
      "name()": {
        "notice": "Gets the name of the collection."
      },
      "onERC721Received(address,address,uint256,bytes)": {
        "notice": "Empty function that is triggered by external contract on NFT transfer."
      },
      "ownerOf(uint256)": {
        "notice": "Checks who the owner of a token is."
      },
      "safeTransferFrom(address,address,uint256,bytes)": {
        "notice": "Safely transfers `tokenId` token from `from` to `to`, checking first that contract recipients"
      },
      "setApprovalForAll(address,bool)": {
        "notice": "Adds a new approved operator."
      },
      "supportsInterface(bytes4)": {
        "notice": "Shows the interfaces the contracts support"
      },
      "symbol()": {
        "notice": "Gets the collection's symbol."
      },
      "tokenByIndex(uint256)": {
        "notice": "Get token by index."
      },
      "tokenOfOwnerByIndex(address,uint256)": {
        "notice": "Get token from wallet by index instead of token id."
      },
      "tokenURI(uint256)": {
        "notice": "Get's the URI of the token."
      },
      "tokens(uint256,uint256)": {
        "notice": "Get set length list, starting from index, for all tokens."
      },
      "tokensOfOwner(address)": {
        "notice": "Get list of tokens owned by wallet."
      },
      "tokensOfOwner(address,uint256,uint256)": {
        "notice": "Get set length list, starting from index, for tokens owned by wallet."
      },
      "totalSupply()": {
        "notice": "Total amount of tokens in the collection."
      },
      "transfer(address,uint256)": {
        "notice": "Transfers `tokenId` token from `msg.sender` to `to`."
      },
      "transferFrom(address,address,uint256)": {
        "notice": "Transfers `tokenId` token from `from` to `to`."
      },
      "transferFrom(address,address,uint256,bytes)": {
        "notice": "Transfers `tokenId` token from `from` to `to`."
      }
    },
    "notice": "A smart contract for minting and managing Holograph Bridgeable ERC721 NFTs.",
    "version": 1
  },
  "storageLayout": {
    "storage": [
      {
        "astId": 9116,
        "contract": "contracts/enforcer/HolographERC721.sol:HolographERC721",
        "label": "_eventConfig",
        "offset": 0,
        "slot": "0",
        "type": "t_uint256"
      },
      {
        "astId": 9119,
        "contract": "contracts/enforcer/HolographERC721.sol:HolographERC721",
        "label": "_name",
        "offset": 0,
        "slot": "1",
        "type": "t_string_storage"
      },
      {
        "astId": 9122,
        "contract": "contracts/enforcer/HolographERC721.sol:HolographERC721",
        "label": "_symbol",
        "offset": 0,
        "slot": "2",
        "type": "t_string_storage"
      },
      {
        "astId": 9125,
        "contract": "contracts/enforcer/HolographERC721.sol:HolographERC721",
        "label": "_bps",
        "offset": 0,
        "slot": "3",
        "type": "t_uint16"
      },
      {
        "astId": 9129,
        "contract": "contracts/enforcer/HolographERC721.sol:HolographERC721",
        "label": "_allTokens",
        "offset": 0,
        "slot": "4",
        "type": "t_array(t_uint256)dyn_storage"
      },
      {
        "astId": 9134,
        "contract": "contracts/enforcer/HolographERC721.sol:HolographERC721",
        "label": "_ownedTokensIndex",
        "offset": 0,
        "slot": "5",
        "type": "t_mapping(t_uint256,t_uint256)"
      },
      {
        "astId": 9139,
        "contract": "contracts/enforcer/HolographERC721.sol:HolographERC721",
        "label": "_tokenOwner",
        "offset": 0,
        "slot": "6",
        "type": "t_mapping(t_uint256,t_address)"
      },
      {
        "astId": 9144,
        "contract": "contracts/enforcer/HolographERC721.sol:HolographERC721",
        "label": "_tokenApprovals",
        "offset": 0,
        "slot": "7",
        "type": "t_mapping(t_uint256,t_address)"
      },
      {
        "astId": 9149,
        "contract": "contracts/enforcer/HolographERC721.sol:HolographERC721",
        "label": "_ownedTokensCount",
        "offset": 0,
        "slot": "8",
        "type": "t_mapping(t_address,t_uint256)"
      },
      {
        "astId": 9155,
        "contract": "contracts/enforcer/HolographERC721.sol:HolographERC721",
        "label": "_ownedTokens",
        "offset": 0,
        "slot": "9",
        "type": "t_mapping(t_address,t_array(t_uint256)dyn_storage)"
      },
      {
        "astId": 9162,
        "contract": "contracts/enforcer/HolographERC721.sol:HolographERC721",
        "label": "_operatorApprovals",
        "offset": 0,
        "slot": "10",
        "type": "t_mapping(t_address,t_mapping(t_address,t_bool))"
      },
      {
        "astId": 9167,
        "contract": "contracts/enforcer/HolographERC721.sol:HolographERC721",
        "label": "_allTokensIndex",
        "offset": 0,
        "slot": "11",
        "type": "t_mapping(t_uint256,t_uint256)"
      },
      {
        "astId": 9172,
        "contract": "contracts/enforcer/HolographERC721.sol:HolographERC721",
        "label": "_burnedTokens",
        "offset": 0,
        "slot": "12",
        "type": "t_mapping(t_uint256,t_bool)"
      }
    ],
    "types": {
      "t_address": {
        "encoding": "inplace",
        "label": "address",
        "numberOfBytes": "20"
      },
      "t_array(t_uint256)dyn_storage": {
        "base": "t_uint256",
        "encoding": "dynamic_array",
        "label": "uint256[]",
        "numberOfBytes": "32"
      },
      "t_bool": {
        "encoding": "inplace",
        "label": "bool",
        "numberOfBytes": "1"
      },
      "t_mapping(t_address,t_array(t_uint256)dyn_storage)": {
        "encoding": "mapping",
        "key": "t_address",
        "label": "mapping(address => uint256[])",
        "numberOfBytes": "32",
        "value": "t_array(t_uint256)dyn_storage"
      },
      "t_mapping(t_address,t_bool)": {
        "encoding": "mapping",
        "key": "t_address",
        "label": "mapping(address => bool)",
        "numberOfBytes": "32",
        "value": "t_bool"
      },
      "t_mapping(t_address,t_mapping(t_address,t_bool))": {
        "encoding": "mapping",
        "key": "t_address",
        "label": "mapping(address => mapping(address => bool))",
        "numberOfBytes": "32",
        "value": "t_mapping(t_address,t_bool)"
      },
      "t_mapping(t_address,t_uint256)": {
        "encoding": "mapping",
        "key": "t_address",
        "label": "mapping(address => uint256)",
        "numberOfBytes": "32",
        "value": "t_uint256"
      },
      "t_mapping(t_uint256,t_address)": {
        "encoding": "mapping",
        "key": "t_uint256",
        "label": "mapping(uint256 => address)",
        "numberOfBytes": "32",
        "value": "t_address"
      },
      "t_mapping(t_uint256,t_bool)": {
        "encoding": "mapping",
        "key": "t_uint256",
        "label": "mapping(uint256 => bool)",
        "numberOfBytes": "32",
        "value": "t_bool"
      },
      "t_mapping(t_uint256,t_uint256)": {
        "encoding": "mapping",
        "key": "t_uint256",
        "label": "mapping(uint256 => uint256)",
        "numberOfBytes": "32",
        "value": "t_uint256"
      },
      "t_string_storage": {
        "encoding": "bytes",
        "label": "string",
        "numberOfBytes": "32"
      },
      "t_uint16": {
        "encoding": "inplace",
        "label": "uint16",
        "numberOfBytes": "2"
      },
      "t_uint256": {
        "encoding": "inplace",
        "label": "uint256",
        "numberOfBytes": "32"
      }
    }
  }
}