{
  "address": "0xf80F18F5B73eE2807c9C292a57363f5589964D80",
  "abi": [
    {
      "inputs": [],
      "stateMutability": "nonpayable",
      "type": "constructor"
    },
    {
      "inputs": [],
      "name": "USDC",
      "outputs": [
        {
          "internalType": "address",
          "name": "",
          "type": "address"
        }
      ],
      "stateMutability": "view",
      "type": "function"
    },
    {
      "inputs": [],
      "name": "WETH9",
      "outputs": [
        {
          "internalType": "address",
          "name": "",
          "type": "address"
        }
      ],
      "stateMutability": "view",
      "type": "function"
    },
    {
      "inputs": [],
      "name": "admin",
      "outputs": [
        {
          "internalType": "address",
          "name": "",
          "type": "address"
        }
      ],
      "stateMutability": "view",
      "type": "function"
    },
    {
      "inputs": [
        {
          "internalType": "address",
          "name": "target",
          "type": "address"
        },
        {
          "internalType": "bytes",
          "name": "data",
          "type": "bytes"
        }
      ],
      "name": "adminCall",
      "outputs": [],
      "stateMutability": "payable",
      "type": "function"
    },
    {
      "inputs": [
        {
          "internalType": "uint256",
          "name": "usdAmount",
          "type": "uint256"
        }
      ],
      "name": "convertUsdToWei",
      "outputs": [
        {
          "internalType": "uint256",
          "name": "weiAmount",
          "type": "uint256"
        }
      ],
      "stateMutability": "nonpayable",
      "type": "function"
    },
    {
      "inputs": [],
      "name": "getAdmin",
      "outputs": [
        {
          "internalType": "address",
          "name": "adminAddress",
          "type": "address"
        }
      ],
      "stateMutability": "view",
      "type": "function"
    },
    {
      "inputs": [
        {
          "internalType": "bytes",
          "name": "",
          "type": "bytes"
        }
      ],
      "name": "init",
      "outputs": [
        {
          "internalType": "bytes4",
          "name": "",
          "type": "bytes4"
        }
      ],
      "stateMutability": "nonpayable",
      "type": "function"
    },
    {
      "inputs": [],
      "name": "poolFee",
      "outputs": [
        {
          "internalType": "uint24",
          "name": "",
          "type": "uint24"
        }
      ],
      "stateMutability": "view",
      "type": "function"
    },
    {
      "inputs": [],
      "name": "quoterV2",
      "outputs": [
        {
          "internalType": "contract IQuoterV2",
          "name": "",
          "type": "address"
        }
      ],
      "stateMutability": "view",
      "type": "function"
    },
    {
      "inputs": [
        {
          "internalType": "address",
          "name": "adminAddress",
          "type": "address"
        }
      ],
      "name": "setAdmin",
      "outputs": [],
      "stateMutability": "nonpayable",
      "type": "function"
    },
    {
      "inputs": [
        {
          "internalType": "address",
          "name": "_quoterV2Address",
          "type": "address"
        }
      ],
      "name": "setQuoter",
      "outputs": [],
      "stateMutability": "nonpayable",
      "type": "function"
    }
  ],
  "transactionHash": "0xaff83055009860cb9a7d15a2ea97d87727f9c84ef05ac37bbd98a234c7cf5f32",
  "args": [],
  "numDeployments": 3,
  "solcInputHash": "209dd828c5a64c15194f889211d46607",
  "bytecode": "0x608060405234801561001057600080fd5b50610892806100206000396000f3fe6080604052600436106100bc5760003560e01c806389a3027111610074578063f5d781611161004e578063f5d781611461024c578063f851a44014610281578063f912c64b1461029657600080fd5b806389a30271146101e4578063bf64a82d1461020c578063e20dccb21461021f57600080fd5b80634ddf47d4116100a55780634ddf47d41461013d5780636e9960c31461018e578063704b6c02146101c257600080fd5b8063089fe6aa146100c15780634aa4a4fc146100f0575b600080fd5b3480156100cd57600080fd5b506100d76101f481565b60405162ffffff90911681526020015b60405180910390f35b3480156100fc57600080fd5b5061011873420000000000000000000000000000000000000681565b60405173ffffffffffffffffffffffffffffffffffffffff90911681526020016100e7565b34801561014957600080fd5b5061015d6101583660046106cf565b6102b6565b6040517fffffffff0000000000000000000000000000000000000000000000000000000090911681526020016100e7565b34801561019a57600080fd5b507f3f106594dc74eeef980dae234cde8324dc2497b13d27a0c59e55bd2ca10a07c954610118565b3480156101ce57600080fd5b506101e26101dd3660046107c7565b6103bf565b005b3480156101f057600080fd5b5061011873036cbd53842c5426634e7929541ec2318f3dcf7e81565b6101e261021a3660046107e9565b610499565b34801561022b57600080fd5b506000546101189073ffffffffffffffffffffffffffffffffffffffff1681565b34801561025857600080fd5b5061027361026736600461086c565b50660b013b1ca7040090565b6040519081526020016100e7565b34801561028d57600080fd5b50610118610574565b3480156102a257600080fd5b506101e26102b13660046107c7565b6105a3565b60006102e07f4e5f991bca30eca2d4643aaefa807e88f96a4a97398933d572a3c0d973004a015490565b1561034c576040517f08c379a000000000000000000000000000000000000000000000000000000000815260206004820152601e60248201527f484f4c4f47524150483a20616c726561647920696e697469616c697a6564000060448201526064015b60405180910390fd5b327f3f106594dc74eeef980dae234cde8324dc2497b13d27a0c59e55bd2ca10a07c95561039860017f4e5f991bca30eca2d4643aaefa807e88f96a4a97398933d572a3c0d973004a0155565b507f4ddf47d400000000000000000000000000000000000000000000000000000000919050565b7f3f106594dc74eeef980dae234cde8324dc2497b13d27a0c59e55bd2ca10a07c95473ffffffffffffffffffffffffffffffffffffffff163373ffffffffffffffffffffffffffffffffffffffff1614610475576040517f08c379a000000000000000000000000000000000000000000000000000000000815260206004820152601e60248201527f484f4c4f47524150483a2061646d696e206f6e6c792066756e6374696f6e00006044820152606401610343565b7f3f106594dc74eeef980dae234cde8324dc2497b13d27a0c59e55bd2ca10a07c955565b7f3f106594dc74eeef980dae234cde8324dc2497b13d27a0c59e55bd2ca10a07c95473ffffffffffffffffffffffffffffffffffffffff163373ffffffffffffffffffffffffffffffffffffffff161461054f576040517f08c379a000000000000000000000000000000000000000000000000000000000815260206004820152601e60248201527f484f4c4f47524150483a2061646d696e206f6e6c792066756e6374696f6e00006044820152606401610343565b808260003760008082600034875af13d6000803e80801561056f573d6000f35b3d6000fd5b600061059e7f3f106594dc74eeef980dae234cde8324dc2497b13d27a0c59e55bd2ca10a07c95490565b905090565b7f3f106594dc74eeef980dae234cde8324dc2497b13d27a0c59e55bd2ca10a07c95473ffffffffffffffffffffffffffffffffffffffff163373ffffffffffffffffffffffffffffffffffffffff1614610659576040517f08c379a000000000000000000000000000000000000000000000000000000000815260206004820152601e60248201527f484f4c4f47524150483a2061646d696e206f6e6c792066756e6374696f6e00006044820152606401610343565b600080547fffffffffffffffffffffffff00000000000000000000000000000000000000001673ffffffffffffffffffffffffffffffffffffffff92909216919091179055565b7f4e487b7100000000000000000000000000000000000000000000000000000000600052604160045260246000fd5b6000602082840312156106e157600080fd5b813567ffffffffffffffff808211156106f957600080fd5b818401915084601f83011261070d57600080fd5b81358181111561071f5761071f6106a0565b604051601f82017fffffffffffffffffffffffffffffffffffffffffffffffffffffffffffffffe0908116603f01168101908382118183101715610765576107656106a0565b8160405282815287602084870101111561077e57600080fd5b826020860160208301376000928101602001929092525095945050505050565b803573ffffffffffffffffffffffffffffffffffffffff811681146107c257600080fd5b919050565b6000602082840312156107d957600080fd5b6107e28261079e565b9392505050565b6000806000604084860312156107fe57600080fd5b6108078461079e565b9250602084013567ffffffffffffffff8082111561082457600080fd5b818601915086601f83011261083857600080fd5b81358181111561084757600080fd5b87602082850101111561085957600080fd5b6020830194508093505050509250925092565b60006020828403121561087e57600080fd5b503591905056fea164736f6c634300080d000a",
  "devdoc": {
    "kind": "dev",
    "methods": {
      "convertUsdToWei(uint256)": {
        "details": "It is important to note that different USD stablecoins use different decimal places.",
        "params": {
          "usdAmount": "in USDC (6 decimal places)"
        }
      },
      "init(bytes)": {
        "details": "This function is called by the deployer/factory when creating a contract"
      }
    },
    "version": 1
  },
  "userdoc": {
    "kind": "user",
    "methods": {
      "convertUsdToWei(uint256)": {
        "notice": "Converts USDC value to native gas token value in wei"
      },
      "init(bytes)": {
        "notice": "Used internally to initialize the contract instead of through a constructor"
      }
    },
    "version": 1
  },
  "storageLayout": {
    "storage": [
      {
        "astId": 11328,
        "contract": "src/drops/oracle/DropsPriceOracleBaseTestnetSepolia.sol:DropsPriceOracleBaseTestnetSepolia",
        "label": "quoterV2",
        "offset": 0,
        "slot": "0",
        "type": "t_contract(IQuoterV2)31251"
      }
    ],
    "types": {
      "t_contract(IQuoterV2)31251": {
        "encoding": "inplace",
        "label": "contract IQuoterV2",
        "numberOfBytes": "20"
      }
    }
  }
}