{
  "address": "0x1A7195Ef0b564c4c512ee9be35cD9eB03c4EA4C8",
  "abi": [
    {
      "type": "constructor",
      "inputs": [],
      "stateMutability": "nonpayable"
    },
    {
      "type": "fallback",
      "stateMutability": "payable"
    },
    {
      "type": "receive",
      "stateMutability": "payable"
    },
    {
      "type": "function",
      "name": "admin",
      "inputs": [],
      "outputs": [
        {
          "name": "",
          "type": "address",
          "internalType": "address"
        }
      ],
      "stateMutability": "view"
    },
    {
      "type": "function",
      "name": "adminCall",
      "inputs": [
        {
          "name": "target",
          "type": "address",
          "internalType": "address"
        },
        {
          "name": "data",
          "type": "bytes",
          "internalType": "bytes"
        }
      ],
      "outputs": [],
      "stateMutability": "payable"
    },
    {
      "type": "function",
      "name": "getAdmin",
      "inputs": [],
      "outputs": [
        {
          "name": "adminAddress",
          "type": "address",
          "internalType": "address"
        }
      ],
      "stateMutability": "view"
    },
    {
      "type": "function",
      "name": "getBridge",
      "inputs": [],
      "outputs": [
        {
          "name": "bridge",
          "type": "address",
          "internalType": "address"
        }
      ],
      "stateMutability": "view"
    },
    {
      "type": "function",
      "name": "getGasParameters",
      "inputs": [
        {
          "name": "chainId",
          "type": "uint32",
          "internalType": "uint32"
        }
      ],
      "outputs": [
        {
          "name": "gasParameters",
          "type": "tuple",
          "internalType": "struct GasParameters",
          "components": [
            {
              "name": "msgBaseGas",
              "type": "uint256",
              "internalType": "uint256"
            },
            {
              "name": "msgGasPerByte",
              "type": "uint256",
              "internalType": "uint256"
            },
            {
              "name": "jobBaseGas",
              "type": "uint256",
              "internalType": "uint256"
            },
            {
              "name": "jobGasPerByte",
              "type": "uint256",
              "internalType": "uint256"
            },
            {
              "name": "minGasPrice",
              "type": "uint256",
              "internalType": "uint256"
            },
            {
              "name": "maxGasLimit",
              "type": "uint256",
              "internalType": "uint256"
            }
          ]
        }
      ],
      "stateMutability": "view"
    },
    {
      "type": "function",
      "name": "getHlgFee",
      "inputs": [
        {
          "name": "toChain",
          "type": "uint32",
          "internalType": "uint32"
        },
        {
          "name": "gasLimit",
          "type": "uint256",
          "internalType": "uint256"
        },
        {
          "name": "gasPrice",
          "type": "uint256",
          "internalType": "uint256"
        },
        {
          "name": "crossChainPayload",
          "type": "bytes",
          "internalType": "bytes"
        }
      ],
      "outputs": [
        {
          "name": "hlgFee",
          "type": "uint256",
          "internalType": "uint256"
        }
      ],
      "stateMutability": "view"
    },
    {
      "type": "function",
      "name": "getInterfaces",
      "inputs": [],
      "outputs": [
        {
          "name": "interfaces",
          "type": "address",
          "internalType": "address"
        }
      ],
      "stateMutability": "view"
    },
    {
      "type": "function",
      "name": "getLZEndpoint",
      "inputs": [],
      "outputs": [
        {
          "name": "lZEndpoint",
          "type": "address",
          "internalType": "address"
        }
      ],
      "stateMutability": "view"
    },
    {
      "type": "function",
      "name": "getLZExecutor",
      "inputs": [],
      "outputs": [
        {
          "name": "lzExecutor",
          "type": "address",
          "internalType": "address"
        }
      ],
      "stateMutability": "view"
    },
    {
      "type": "function",
      "name": "getMessageFee",
      "inputs": [
        {
          "name": "toChain",
          "type": "uint32",
          "internalType": "uint32"
        },
        {
          "name": "gasLimit",
          "type": "uint256",
          "internalType": "uint256"
        },
        {
          "name": "gasPrice",
          "type": "uint256",
          "internalType": "uint256"
        },
        {
          "name": "crossChainPayload",
          "type": "bytes",
          "internalType": "bytes"
        }
      ],
      "outputs": [
        {
          "name": "hlgFee",
          "type": "uint256",
          "internalType": "uint256"
        },
        {
          "name": "msgFee",
          "type": "uint256",
          "internalType": "uint256"
        },
        {
          "name": "dstGasPrice",
          "type": "uint256",
          "internalType": "uint256"
        }
      ],
      "stateMutability": "view"
    },
    {
      "type": "function",
      "name": "getOperator",
      "inputs": [],
      "outputs": [
        {
          "name": "operator",
          "type": "address",
          "internalType": "address"
        }
      ],
      "stateMutability": "view"
    },
    {
      "type": "function",
      "name": "getOptimismGasPriceOracle",
      "inputs": [],
      "outputs": [
        {
          "name": "optimismGasPriceOracle",
          "type": "address",
          "internalType": "address"
        }
      ],
      "stateMutability": "view"
    },
    {
      "type": "function",
      "name": "init",
      "inputs": [
        {
          "name": "initPayload",
          "type": "bytes",
          "internalType": "bytes"
        }
      ],
      "outputs": [
        {
          "name": "",
          "type": "bytes4",
          "internalType": "bytes4"
        }
      ],
      "stateMutability": "nonpayable"
    },
    {
      "type": "function",
      "name": "lzReceive",
      "inputs": [
        {
          "name": "",
          "type": "uint16",
          "internalType": "uint16"
        },
        {
          "name": "_srcAddress",
          "type": "bytes",
          "internalType": "bytes"
        },
        {
          "name": "",
          "type": "uint64",
          "internalType": "uint64"
        },
        {
          "name": "_payload",
          "type": "bytes",
          "internalType": "bytes"
        }
      ],
      "outputs": [],
      "stateMutability": "payable"
    },
    {
      "type": "function",
      "name": "send",
      "inputs": [
        {
          "name": "",
          "type": "uint256",
          "internalType": "uint256"
        },
        {
          "name": "",
          "type": "uint256",
          "internalType": "uint256"
        },
        {
          "name": "toChain",
          "type": "uint32",
          "internalType": "uint32"
        },
        {
          "name": "msgSender",
          "type": "address",
          "internalType": "address"
        },
        {
          "name": "msgValue",
          "type": "uint256",
          "internalType": "uint256"
        },
        {
          "name": "crossChainPayload",
          "type": "bytes",
          "internalType": "bytes"
        }
      ],
      "outputs": [],
      "stateMutability": "payable"
    },
    {
      "type": "function",
      "name": "setAdmin",
      "inputs": [
        {
          "name": "adminAddress",
          "type": "address",
          "internalType": "address"
        }
      ],
      "outputs": [],
      "stateMutability": "nonpayable"
    },
    {
      "type": "function",
      "name": "setBridge",
      "inputs": [
        {
          "name": "bridge",
          "type": "address",
          "internalType": "address"
        }
      ],
      "outputs": [],
      "stateMutability": "nonpayable"
    },
    {
      "type": "function",
      "name": "setGasParameters",
      "inputs": [
        {
          "name": "chainIds",
          "type": "uint32[]",
          "internalType": "uint32[]"
        },
        {
          "name": "gasParameters",
          "type": "tuple[]",
          "internalType": "struct GasParameters[]",
          "components": [
            {
              "name": "msgBaseGas",
              "type": "uint256",
              "internalType": "uint256"
            },
            {
              "name": "msgGasPerByte",
              "type": "uint256",
              "internalType": "uint256"
            },
            {
              "name": "jobBaseGas",
              "type": "uint256",
              "internalType": "uint256"
            },
            {
              "name": "jobGasPerByte",
              "type": "uint256",
              "internalType": "uint256"
            },
            {
              "name": "minGasPrice",
              "type": "uint256",
              "internalType": "uint256"
            },
            {
              "name": "maxGasLimit",
              "type": "uint256",
              "internalType": "uint256"
            }
          ]
        }
      ],
      "outputs": [],
      "stateMutability": "nonpayable"
    },
    {
      "type": "function",
      "name": "setGasParameters",
      "inputs": [
        {
          "name": "chainId",
          "type": "uint32",
          "internalType": "uint32"
        },
        {
          "name": "gasParameters",
          "type": "tuple",
          "internalType": "struct GasParameters",
          "components": [
            {
              "name": "msgBaseGas",
              "type": "uint256",
              "internalType": "uint256"
            },
            {
              "name": "msgGasPerByte",
              "type": "uint256",
              "internalType": "uint256"
            },
            {
              "name": "jobBaseGas",
              "type": "uint256",
              "internalType": "uint256"
            },
            {
              "name": "jobGasPerByte",
              "type": "uint256",
              "internalType": "uint256"
            },
            {
              "name": "minGasPrice",
              "type": "uint256",
              "internalType": "uint256"
            },
            {
              "name": "maxGasLimit",
              "type": "uint256",
              "internalType": "uint256"
            }
          ]
        }
      ],
      "outputs": [],
      "stateMutability": "nonpayable"
    },
    {
      "type": "function",
      "name": "setInterfaces",
      "inputs": [
        {
          "name": "interfaces",
          "type": "address",
          "internalType": "address"
        }
      ],
      "outputs": [],
      "stateMutability": "nonpayable"
    },
    {
      "type": "function",
      "name": "setLZEndpoint",
      "inputs": [
        {
          "name": "lZEndpoint",
          "type": "address",
          "internalType": "address"
        }
      ],
      "outputs": [],
      "stateMutability": "nonpayable"
    },
    {
      "type": "function",
      "name": "setLZExecutor",
      "inputs": [
        {
          "name": "lzExecutor",
          "type": "address",
          "internalType": "address"
        }
      ],
      "outputs": [],
      "stateMutability": "nonpayable"
    },
    {
      "type": "function",
      "name": "setOperator",
      "inputs": [
        {
          "name": "operator",
          "type": "address",
          "internalType": "address"
        }
      ],
      "outputs": [],
      "stateMutability": "nonpayable"
    },
    {
      "type": "function",
      "name": "setOptimismGasPriceOracle",
      "inputs": [
        {
          "name": "optimismGasPriceOracle",
          "type": "address",
          "internalType": "address"
        }
      ],
      "outputs": [],
      "stateMutability": "nonpayable"
    },
    {
      "type": "function",
      "name": "setReceiveVersion",
      "inputs": [
        {
          "name": "_version",
          "type": "uint16",
          "internalType": "uint16"
        }
      ],
      "outputs": [],
      "stateMutability": "nonpayable"
    },
    {
      "type": "function",
      "name": "setSendVersion",
      "inputs": [
        {
          "name": "_version",
          "type": "uint16",
          "internalType": "uint16"
        }
      ],
      "outputs": [],
      "stateMutability": "nonpayable"
    }
  ],
  "transactionHash": "0x11eb9853a68628d4a994abfc7918d8f570ae26398bd9061c242d17305130c09a",
  "args": [],
  "numDeployments": 6,
  "bytecode": {
    "object": "0x608060405234801561001057600080fd5b50612fdd806100206000396000f3fe6080604052600436106101a45760003560e01c80638dd14802116100e1578063da8292d91161008a578063f0478d2011610064578063f0478d2014610577578063f851a440146105ab578063fdb80b71146105c0578063ff1370d9146105e057600080fd5b8063da8292d9146104ef578063e7f43c681461050f578063ebac15f91461054357600080fd5b8063aa33b3a4116100bb578063aa33b3a414610488578063b3ab15fb146104bc578063bf64a82d146104dc57600080fd5b80638dd1480214610428578063960a4270146104485780639ce827921461046857600080fd5b806336c5ab401161014e5780636e9960c3116101285780636e9960c31461033a5780636ec7fad71461036e578063704b6c02146103da5780638c19a89f146103fa57600080fd5b806336c5ab40146102955780634b40f1bf146102c95780634ddf47d4146102e957600080fd5b80630e95b6501161017f5780630e95b650146101fb5780630fffbaf31461021b57806310ddb1371461027557600080fd5b80621d3567146101b357806307e0db17146101c85780630a0542ef146101e857600080fd5b366101ae57600080fd5b600080fd5b6101c66101c13660046123d6565b61061b565b005b3480156101d457600080fd5b506101c66101e336600461246b565b6107f1565b6101c66101f63660046124ba565b61089b565b34801561020757600080fd5b506101c66102163660046126d8565b610b61565b34801561022757600080fd5b507feb87cbb21687feb327e3d58c6c16d552231d12c7a0e8115042a4165fac8a77f9545b60405173ffffffffffffffffffffffffffffffffffffffff90911681526020015b60405180910390f35b34801561028157600080fd5b506101c661029036600461246b565b610ce1565b3480156102a157600080fd5b507f56825e447adf54cdde5f04815fcf9b1dd26ef9d5c053625147c18b7c130916865461024b565b3480156102d557600080fd5b506101c66102e436600461279a565b610d59565b3480156102f557600080fd5b506103096103043660046127b7565b610e33565b6040517fffffffff00000000000000000000000000000000000000000000000000000000909116815260200161026c565b34801561034657600080fd5b507f3f106594dc74eeef980dae234cde8324dc2497b13d27a0c59e55bd2ca10a07c95461024b565b34801561037a57600080fd5b5061038e61038936600461286a565b611091565b60405161026c9190600060c082019050825182526020830151602083015260408301516040830152606083015160608301526080830151608083015260a083015160a083015292915050565b3480156103e657600080fd5b506101c66103f536600461279a565b6110d9565b34801561040657600080fd5b5061041a610415366004612887565b6111b3565b60405190815260200161026c565b34801561043457600080fd5b506101c661044336600461279a565b61150a565b34801561045457600080fd5b506101c66104633660046128f1565b6115e4565b34801561047457600080fd5b506101c661048336600461279a565b6116a8565b34801561049457600080fd5b507f5418c0677489e4391269fdb0d577e7ea7ccb07075c2c66748ef879ea504777e05461024b565b3480156104c857600080fd5b506101c66104d736600461279a565b611782565b6101c66104ea366004612927565b61185c565b3480156104fb57600080fd5b506101c661050a36600461279a565b61193e565b34801561051b57600080fd5b507f7caba557ad34138fa3b7e43fb574e0e6cc10481c3073e0dffbc560db81b5c60f5461024b565b34801561054f57600080fd5b507fbd3084b8c09da87ad159c247a60e209784196be2530cecbbd8f337fdd18488275461024b565b34801561058357600080fd5b507f46043c284a96474ab4a54c741ea0d0fce54e98eea878b99d4b85808fa6f71a5f5461024b565b3480156105b757600080fd5b5061024b611a18565b3480156105cc57600080fd5b506101c66105db36600461279a565b611a47565b3480156105ec57600080fd5b506106006105fb366004612887565b611b21565b6040805193845260208401929092529082015260600161026c565b7f56825e447adf54cdde5f04815fcf9b1dd26ef9d5c053625147c18b7c13091686543314806106b5577f08c379a0000000000000000000000000000000000000000000000000000000006080527c200000000000000000000000000000000000000000000000000000000060a0527c1b484f4c4f47524150483a204c5a206f6e6c7920656e64706f696e740060c052600060e05260c46080fd5b506040518486600c8301378051301480610759577f08c379a0000000000000000000000000000000000000000000000000000000006080527c200000000000000000000000000000000000000000000000000000000060a0527c1e484f4c4f47524150483a20756e617574686f72697a65642073656e6460c0527f657200000000000000000000000000000000000000000000000000000000000060e05260c46080fd5b50507f7caba557ad34138fa3b7e43fb574e0e6cc10481c3073e0dffbc560db81b5c60f5473ffffffffffffffffffffffffffffffffffffffff1663254e106283836040518363ffffffff1660e01b81526004016107b79291906129c5565b600060405180830381600087803b1580156107d157600080fd5b505af11580156107e5573d6000803e3d6000fd5b50505050505050505050565b7f56825e447adf54cdde5f04815fcf9b1dd26ef9d5c053625147c18b7c13091686546040517f07e0db1700000000000000000000000000000000000000000000000000000000815261ffff8316600482015273ffffffffffffffffffffffffffffffffffffffff8216906307e0db17906024015b600060405180830381600087803b15801561087f57600080fd5b505af1158015610893573d6000803e3d6000fd5b505050505050565b7f7caba557ad34138fa3b7e43fb574e0e6cc10481c3073e0dffbc560db81b5c60f5473ffffffffffffffffffffffffffffffffffffffff163373ffffffffffffffffffffffffffffffffffffffff1614610956576040517f08c379a000000000000000000000000000000000000000000000000000000000815260206004820152601d60248201527f484f4c4f47524150483a206f70657261746f72206f6e6c792063616c6c00000060448201526064015b60405180910390fd5b7f56825e447adf54cdde5f04815fcf9b1dd26ef9d5c053625147c18b7c1309168654600061098387611efc565b90508173ffffffffffffffffffffffffffffffffffffffff1663c5803100866109ca7fbd3084b8c09da87ad159c247a60e209784196be2530cecbbd8f337fdd18488275490565b73ffffffffffffffffffffffffffffffffffffffff166320fc06ea60028c63ffffffff1660036040518463ffffffff1660e01b8152600401610a0e93929190612a1c565b602060405180830381865afa158015610a2b573d6000803e3d6000fd5b505050506040513d601f19601f82011682018060405250810190610a4f9190612a3d565b6040517fffffffffffffffffffffffffffffffffffffffff0000000000000000000000003060601b1660208201819052603482015260480160405160208183030381529060405288888c3060018a602001518e8e9050610aaf9190612a85565b8b51610abb9190612ac2565b60405160f09290921b7fffff00000000000000000000000000000000000000000000000000000000000016602083015260228201526042016040516020818303038152906040526040518963ffffffff1660e01b8152600401610b249796959493929190612b45565b6000604051808303818588803b158015610b3d57600080fd5b505af1158015610b51573d6000803e3d6000fd5b5050505050505050505050505050565b7f3f106594dc74eeef980dae234cde8324dc2497b13d27a0c59e55bd2ca10a07c95473ffffffffffffffffffffffffffffffffffffffff163373ffffffffffffffffffffffffffffffffffffffff1614610c17576040517f08c379a000000000000000000000000000000000000000000000000000000000815260206004820152601e60248201527f484f4c4f47524150483a2061646d696e206f6e6c792066756e6374696f6e0000604482015260640161094d565b8051825114610c82576040517f08c379a000000000000000000000000000000000000000000000000000000000815260206004820152601e60248201527f484f4c4f47524150483a2077726f6e67206172726179206c656e677468730000604482015260640161094d565b60005b8251811015610cdc57610cca838281518110610ca357610ca3612bbb565b6020026020010151838381518110610cbd57610cbd612bbb565b6020026020010151611fe6565b80610cd481612bea565b915050610c85565b505050565b7f56825e447adf54cdde5f04815fcf9b1dd26ef9d5c053625147c18b7c13091686546040517f10ddb13700000000000000000000000000000000000000000000000000000000815261ffff8316600482015273ffffffffffffffffffffffffffffffffffffffff8216906310ddb13790602401610865565b7f3f106594dc74eeef980dae234cde8324dc2497b13d27a0c59e55bd2ca10a07c95473ffffffffffffffffffffffffffffffffffffffff163373ffffffffffffffffffffffffffffffffffffffff1614610e0f576040517f08c379a000000000000000000000000000000000000000000000000000000000815260206004820152601e60248201527f484f4c4f47524150483a2061646d696e206f6e6c792066756e6374696f6e0000604482015260640161094d565b7f56825e447adf54cdde5f04815fcf9b1dd26ef9d5c053625147c18b7c1309168655565b6000610e5d7f4e5f991bca30eca2d4643aaefa807e88f96a4a97398933d572a3c0d973004a015490565b15610ec4576040517f08c379a000000000000000000000000000000000000000000000000000000000815260206004820152601e60248201527f484f4c4f47524150483a20616c726561647920696e697469616c697a65640000604482015260640161094d565b60008060008060008087806020019051810190610ee19190612cc7565b955095509550955095509550327f3f106594dc74eeef980dae234cde8324dc2497b13d27a0c59e55bd2ca10a07c955857feb87cbb21687feb327e3d58c6c16d552231d12c7a0e8115042a4165fac8a77f955847fbd3084b8c09da87ad159c247a60e209784196be2530cecbbd8f337fdd184882755837f7caba557ad34138fa3b7e43fb574e0e6cc10481c3073e0dffbc560db81b5c60f55827f46043c284a96474ab4a54c741ea0d0fce54e98eea878b99d4b85808fa6f71a5f558051825114611007576040517f08c379a000000000000000000000000000000000000000000000000000000000815260206004820152601e60248201527f484f4c4f47524150483a2077726f6e67206172726179206c656e677468730000604482015260640161094d565b60005b825181101561103a57611028838281518110610ca357610ca3612bbb565b8061103281612bea565b91505061100a565b5061106460017f4e5f991bca30eca2d4643aaefa807e88f96a4a97398933d572a3c0d973004a0155565b507f4ddf47d400000000000000000000000000000000000000000000000000000000979650505050505050565b6110ca6040518060c001604052806000815260200160008152602001600081526020016000815260200160008152602001600081525090565b6110d382611efc565b92915050565b7f3f106594dc74eeef980dae234cde8324dc2497b13d27a0c59e55bd2ca10a07c95473ffffffffffffffffffffffffffffffffffffffff163373ffffffffffffffffffffffffffffffffffffffff161461118f576040517f08c379a000000000000000000000000000000000000000000000000000000000815260206004820152601e60248201527f484f4c4f47524150483a2061646d696e206f6e6c792066756e6374696f6e0000604482015260640161094d565b7f3f106594dc74eeef980dae234cde8324dc2497b13d27a0c59e55bd2ca10a07c955565b6000806111de7fbd3084b8c09da87ad159c247a60e209784196be2530cecbbd8f337fdd18488275490565b73ffffffffffffffffffffffffffffffffffffffff166320fc06ea60028963ffffffff1660036040518463ffffffff1660e01b815260040161122293929190612a1c565b602060405180830381865afa15801561123f573d6000803e3d6000fd5b505050506040513d601f19601f820116820180604052508101906112639190612a3d565b905060006112708261208f565b9150508560000361128d57806020015167ffffffffffffffff1695505b600061129889611efc565b905080608001518711611307576040517f08c379a000000000000000000000000000000000000000000000000000000000815260206004820152601c60248201527f484f4c4f47524150483a2067617320707269636520746f6f206c6f7700000000604482015260640161094d565b60608101516000906113199087612a85565b6040830151611328908b612ac2565b6113329190612ac2565b905061133f600a82612e09565b6113499082612ac2565b90508160a0015181106113b8576040517f08c379a000000000000000000000000000000000000000000000000000000000815260206004820152601d60248201527f484f4c4f47524150483a20676173206c696d6974206f766572206d6178000000604482015260640161094d565b825168056bc75e2d63100000906fffffffffffffffffffffffffffffffff166113e1838b612a85565b6113eb9190612a85565b6113f59190612e09565b945063ffffffff8a1660071480611415575063ffffffff8a1663ee6b284a145b156114fd57825168056bc75e2d63100000906fffffffffffffffffffffffffffffffff166114617f46043c284a96474ab4a54c741ea0d0fce54e98eea878b99d4b85808fa6f71a5f5490565b73ffffffffffffffffffffffffffffffffffffffff166349948e0e8a8a6040518363ffffffff1660e01b815260040161149b9291906129c5565b602060405180830381865afa1580156114b8573d6000803e3d6000fd5b505050506040513d601f19601f820116820180604052508101906114dc9190612a3d565b6114e69190612a85565b6114f09190612e09565b6114fa9086612ac2565b94505b5050505095945050505050565b7f3f106594dc74eeef980dae234cde8324dc2497b13d27a0c59e55bd2ca10a07c95473ffffffffffffffffffffffffffffffffffffffff163373ffffffffffffffffffffffffffffffffffffffff16146115c0576040517f08c379a000000000000000000000000000000000000000000000000000000000815260206004820152601e60248201527f484f4c4f47524150483a2061646d696e206f6e6c792066756e6374696f6e0000604482015260640161094d565b7feb87cbb21687feb327e3d58c6c16d552231d12c7a0e8115042a4165fac8a77f955565b7f3f106594dc74eeef980dae234cde8324dc2497b13d27a0c59e55bd2ca10a07c95473ffffffffffffffffffffffffffffffffffffffff163373ffffffffffffffffffffffffffffffffffffffff161461169a576040517f08c379a000000000000000000000000000000000000000000000000000000000815260206004820152601e60248201527f484f4c4f47524150483a2061646d696e206f6e6c792066756e6374696f6e0000604482015260640161094d565b6116a48282611fe6565b5050565b7f3f106594dc74eeef980dae234cde8324dc2497b13d27a0c59e55bd2ca10a07c95473ffffffffffffffffffffffffffffffffffffffff163373ffffffffffffffffffffffffffffffffffffffff161461175e576040517f08c379a000000000000000000000000000000000000000000000000000000000815260206004820152601e60248201527f484f4c4f47524150483a2061646d696e206f6e6c792066756e6374696f6e0000604482015260640161094d565b7f46043c284a96474ab4a54c741ea0d0fce54e98eea878b99d4b85808fa6f71a5f55565b7f3f106594dc74eeef980dae234cde8324dc2497b13d27a0c59e55bd2ca10a07c95473ffffffffffffffffffffffffffffffffffffffff163373ffffffffffffffffffffffffffffffffffffffff1614611838576040517f08c379a000000000000000000000000000000000000000000000000000000000815260206004820152601e60248201527f484f4c4f47524150483a2061646d696e206f6e6c792066756e6374696f6e0000604482015260640161094d565b7f7caba557ad34138fa3b7e43fb574e0e6cc10481c3073e0dffbc560db81b5c60f55565b7f3f106594dc74eeef980dae234cde8324dc2497b13d27a0c59e55bd2ca10a07c95473ffffffffffffffffffffffffffffffffffffffff163373ffffffffffffffffffffffffffffffffffffffff1614611912576040517f08c379a000000000000000000000000000000000000000000000000000000000815260206004820152601e60248201527f484f4c4f47524150483a2061646d696e206f6e6c792066756e6374696f6e0000604482015260640161094d565b808260003760008082600034875af13d6000803e808015611932573d6000f35b3d6000fd5b5050505050565b7f3f106594dc74eeef980dae234cde8324dc2497b13d27a0c59e55bd2ca10a07c95473ffffffffffffffffffffffffffffffffffffffff163373ffffffffffffffffffffffffffffffffffffffff16146119f4576040517f08c379a000000000000000000000000000000000000000000000000000000000815260206004820152601e60248201527f484f4c4f47524150483a2061646d696e206f6e6c792066756e6374696f6e0000604482015260640161094d565b7fbd3084b8c09da87ad159c247a60e209784196be2530cecbbd8f337fdd184882755565b6000611a427f3f106594dc74eeef980dae234cde8324dc2497b13d27a0c59e55bd2ca10a07c95490565b905090565b7f3f106594dc74eeef980dae234cde8324dc2497b13d27a0c59e55bd2ca10a07c95473ffffffffffffffffffffffffffffffffffffffff163373ffffffffffffffffffffffffffffffffffffffff1614611afd576040517f08c379a000000000000000000000000000000000000000000000000000000000815260206004820152601e60248201527f484f4c4f47524150483a2061646d696e206f6e6c792066756e6374696f6e0000604482015260640161094d565b7f5418c0677489e4391269fdb0d577e7ea7ccb07075c2c66748ef879ea504777e055565b600080600080611b4f7fbd3084b8c09da87ad159c247a60e209784196be2530cecbbd8f337fdd18488275490565b73ffffffffffffffffffffffffffffffffffffffff166320fc06ea60028b63ffffffff1660036040518463ffffffff1660e01b8152600401611b9393929190612a1c565b602060405180830381865afa158015611bb0573d6000803e3d6000fd5b505050506040513d601f19601f82011682018060405250810190611bd49190612a3d565b90506000611be461753083612e1d565b90506000611bf1826121e4565b905088600003611c0d57806020015167ffffffffffffffff1698505b6000611c188c611091565b905080608001518a11611c87576040517f08c379a000000000000000000000000000000000000000000000000000000000815260206004820152601c60248201527f484f4c4f47524150483a2067617320707269636520746f6f206c6f7700000000604482015260640161094d565b6060810151600090611c99908a612a85565b6040830151611ca8908e612ac2565b611cb29190612ac2565b9050611cbf600a82612e09565b611cc99082612ac2565b90508160a001518110611d38576040517f08c379a000000000000000000000000000000000000000000000000000000000815260206004820152601d60248201527f484f4c4f47524150483a20676173206c696d6974206f766572206d6178000000604482015260640161094d565b6000611d45838c8c612211565b90506000611d55878d8d85612282565b50905068056bc75e2d6310000085600001516fffffffffffffffffffffffffffffffff16848f611d859190612a85565b611d8f9190612a85565b611d999190612e09565b995063ffffffff8f1660071480611db9575063ffffffff8f1663ee6b284a145b15611ea157845168056bc75e2d63100000906fffffffffffffffffffffffffffffffff16611e057f46043c284a96474ab4a54c741ea0d0fce54e98eea878b99d4b85808fa6f71a5f5490565b73ffffffffffffffffffffffffffffffffffffffff166349948e0e8f8f6040518363ffffffff1660e01b8152600401611e3f9291906129c5565b602060405180830381865afa158015611e5c573d6000803e3d6000fd5b505050506040513d601f19601f82011682018060405250810190611e809190612a3d565b611e8a9190612a85565b611e949190612e09565b611e9e908b612ac2565b99505b80985068056bc75e2d631000008560000151866020015167ffffffffffffffff16611ecc9190612e40565b611ed69190612e78565b6fffffffffffffffffffffffffffffffff16975050505050505050955095509592505050565b611f356040518060c001604052806000815260200160008152602001600081526020016000815260200160008152602001600081525090565b600063ffffffff831615611f99576040805163ffffffff851660208201527f15eee82a0af3c04e4b65c3842105c973a6b0fb2a68728bf035809e13b38ce8cf9181019190915260600160405160208183030381529060405280519060200120611fbb565b7f15eee82a0af3c04e4b65c3842105c973a6b0fb2a68728bf035809e13b38ce8cf5b90508160005b6006811015611fde57828101548252602090910190600101611fc1565b505050919050565b600063ffffffff83161561204a576040805163ffffffff851660208201527f15eee82a0af3c04e4b65c3842105c973a6b0fb2a68728bf035809e13b38ce8cf918101919091526060016040516020818303038152906040528051906020012061206c565b7f15eee82a0af3c04e4b65c3842105c973a6b0fb2a68728bf035809e13b38ce8cf5b90508160005b600681101561193757815183820155602090910190600101612072565b6040805160608101825260008082526020820181905291810182905260007f5418c0677489e4391269fdb0d577e7ea7ccb07075c2c66748ef879ea504777e054905060008173ffffffffffffffffffffffffffffffffffffffff1663741bef1a6040518163ffffffff1660e01b8152600401602060405180830381865afa15801561211e573d6000803e3d6000fd5b505050506040513d601f19601f820116820180604052508101906121429190612ea7565b6040517fda26663a00000000000000000000000000000000000000000000000000000000815261ffff87166004820152909150819073ffffffffffffffffffffffffffffffffffffffff82169063da26663a90602401606060405180830381865afa1580156121b5573d6000803e3d6000fd5b505050506040513d601f19601f820116820180604052508101906121d99190612ec4565b935093505050915091565b604080516060810182526000808252602082018190529181019190915261220a8261208f565b9392505050565b60208301516060906001906122269084612a85565b85516122329190612ac2565b60405160f09290921b7fffff000000000000000000000000000000000000000000000000000000000000166020830152602282015260420160405160208183030381529060405290509392505050565b60008060006122af7f56825e447adf54cdde5f04815fcf9b1dd26ef9d5c053625147c18b7c130916865490565b6040517f40a7bb1000000000000000000000000000000000000000000000000000000000815290915073ffffffffffffffffffffffffffffffffffffffff8216906340a7bb109061230f908a9030908b908b906000908c90600401612f4b565b6040805180830381865afa15801561232b573d6000803e3d6000fd5b505050506040513d601f19601f8201168201806040525081019061234f9190612fac565b925092505094509492505050565b803561ffff8116811461236f57600080fd5b919050565b60008083601f84011261238657600080fd5b50813567ffffffffffffffff81111561239e57600080fd5b6020830191508360208285010111156123b657600080fd5b9250929050565b67ffffffffffffffff811681146123d357600080fd5b50565b600080600080600080608087890312156123ef57600080fd5b6123f88761235d565b9550602087013567ffffffffffffffff8082111561241557600080fd5b6124218a838b01612374565b909750955060408901359150612436826123bd565b9093506060880135908082111561244c57600080fd5b5061245989828a01612374565b979a9699509497509295939492505050565b60006020828403121561247d57600080fd5b61220a8261235d565b63ffffffff811681146123d357600080fd5b73ffffffffffffffffffffffffffffffffffffffff811681146123d357600080fd5b600080600080600080600060c0888a0312156124d557600080fd5b873596506020880135955060408801356124ee81612486565b945060608801356124fe81612498565b93506080880135925060a088013567ffffffffffffffff81111561252157600080fd5b61252d8a828b01612374565b989b979a50959850939692959293505050565b7f4e487b7100000000000000000000000000000000000000000000000000000000600052604160045260246000fd5b60405160c0810167ffffffffffffffff8111828210171561259257612592612540565b60405290565b604051601f82017fffffffffffffffffffffffffffffffffffffffffffffffffffffffffffffffe016810167ffffffffffffffff811182821017156125df576125df612540565b604052919050565b600067ffffffffffffffff82111561260157612601612540565b5060051b60200190565b600060c0828403121561261d57600080fd5b61262561256f565b9050813581526020820135602082015260408201356040820152606082013560608201526080820135608082015260a082013560a082015292915050565b600082601f83011261267457600080fd5b81356020612689612684836125e7565b612598565b82815260c092830285018201928282019190878511156126a857600080fd5b8387015b858110156126cb576126be898261260b565b84529284019281016126ac565b5090979650505050505050565b600080604083850312156126eb57600080fd5b823567ffffffffffffffff8082111561270357600080fd5b818501915085601f83011261271757600080fd5b81356020612727612684836125e7565b82815260059290921b8401810191818101908984111561274657600080fd5b948201945b8386101561276d57853561275e81612486565b8252948201949082019061274b565b9650508601359250508082111561278357600080fd5b5061279085828601612663565b9150509250929050565b6000602082840312156127ac57600080fd5b813561220a81612498565b600060208083850312156127ca57600080fd5b823567ffffffffffffffff808211156127e257600080fd5b818501915085601f8301126127f657600080fd5b81358181111561280857612808612540565b612838847fffffffffffffffffffffffffffffffffffffffffffffffffffffffffffffffe0601f84011601612598565b9150808252868482850101111561284e57600080fd5b8084840185840137600090820190930192909252509392505050565b60006020828403121561287c57600080fd5b813561220a81612486565b60008060008060006080868803121561289f57600080fd5b85356128aa81612486565b94506020860135935060408601359250606086013567ffffffffffffffff8111156128d457600080fd5b6128e088828901612374565b969995985093965092949392505050565b60008060e0838503121561290457600080fd5b823561290f81612486565b915061291e846020850161260b565b90509250929050565b60008060006040848603121561293c57600080fd5b833561294781612498565b9250602084013567ffffffffffffffff81111561296357600080fd5b61296f86828701612374565b9497909650939450505050565b8183528181602085013750600060208284010152600060207fffffffffffffffffffffffffffffffffffffffffffffffffffffffffffffffe0601f840116840101905092915050565b6020815260006129d960208301848661297c565b949350505050565b60058110612a18577f4e487b7100000000000000000000000000000000000000000000000000000000600052602160045260246000fd5b9052565b60608101612a2a82866129e1565b8360208301526129d960408301846129e1565b600060208284031215612a4f57600080fd5b5051919050565b7f4e487b7100000000000000000000000000000000000000000000000000000000600052601160045260246000fd5b6000817fffffffffffffffffffffffffffffffffffffffffffffffffffffffffffffffff0483118215151615612abd57612abd612a56565b500290565b60008219821115612ad557612ad5612a56565b500190565b6000815180845260005b81811015612b0057602081850181015186830182015201612ae4565b81811115612b12576000602083870101525b50601f017fffffffffffffffffffffffffffffffffffffffffffffffffffffffffffffffe0169290920160200192915050565b61ffff8816815260c060208201526000612b6260c0830189612ada565b8281036040840152612b7581888a61297c565b73ffffffffffffffffffffffffffffffffffffffff87811660608601528616608085015283810360a08501529050612bad8185612ada565b9a9950505050505050505050565b7f4e487b7100000000000000000000000000000000000000000000000000000000600052603260045260246000fd5b60007fffffffffffffffffffffffffffffffffffffffffffffffffffffffffffffffff8203612c1b57612c1b612a56565b5060010190565b600082601f830112612c3357600080fd5b81516020612c43612684836125e7565b82815260c09283028501820192828201919087851115612c6257600080fd5b8387015b858110156126cb5781818a031215612c7e5760008081fd5b612c8661256f565b81518152858201518682015260408083015190820152606080830151908201526080808301519082015260a080830151908201528452928401928101612c66565b60008060008060008060c08789031215612ce057600080fd5b8651612ceb81612498565b80965050602080880151612cfe81612498565b6040890151909650612d0f81612498565b6060890151909550612d2081612498565b608089015190945067ffffffffffffffff80821115612d3e57600080fd5b818a0191508a601f830112612d5257600080fd5b8151612d60612684826125e7565b81815260059190911b8301840190848101908d831115612d7f57600080fd5b938501935b82851015612da6578451612d9781612486565b82529385019390850190612d84565b60a08d01519097509450505080831115612dbf57600080fd5b5050612dcd89828a01612c22565b9150509295509295509295565b7f4e487b7100000000000000000000000000000000000000000000000000000000600052601260045260246000fd5b600082612e1857612e18612dda565b500490565b600061ffff83811690831681811015612e3857612e38612a56565b039392505050565b60006fffffffffffffffffffffffffffffffff80831681851681830481118215151615612e6f57612e6f612a56565b02949350505050565b60006fffffffffffffffffffffffffffffffff80841680612e9b57612e9b612dda565b92169190910492915050565b600060208284031215612eb957600080fd5b815161220a81612498565b600060608284031215612ed657600080fd5b6040516060810181811067ffffffffffffffff82111715612ef957612ef9612540565b60405282516fffffffffffffffffffffffffffffffff81168114612f1c57600080fd5b81526020830151612f2c816123bd565b60208201526040830151612f3f81612486565b60408201529392505050565b61ffff8716815273ffffffffffffffffffffffffffffffffffffffff8616602082015260a060408201526000612f8560a08301868861297c565b84151560608401528281036080840152612f9f8185612ada565b9998505050505050505050565b60008060408385031215612fbf57600080fd5b50508051602090910151909290915056fea164736f6c634300080d000a",
    "linkReferences": {}
  },
  "methodIdentifiers": {
    "admin()": "f851a440",
    "adminCall(address,bytes)": "bf64a82d",
    "getAdmin()": "6e9960c3",
    "getBridge()": "0fffbaf3",
    "getGasParameters(uint32)": "6ec7fad7",
    "getHlgFee(uint32,uint256,uint256,bytes)": "8c19a89f",
    "getInterfaces()": "ebac15f9",
    "getLZEndpoint()": "36c5ab40",
    "getLZExecutor()": "aa33b3a4",
    "getMessageFee(uint32,uint256,uint256,bytes)": "ff1370d9",
    "getOperator()": "e7f43c68",
    "getOptimismGasPriceOracle()": "f0478d20",
    "init(bytes)": "4ddf47d4",
    "lzReceive(uint16,bytes,uint64,bytes)": "001d3567",
    "send(uint256,uint256,uint32,address,uint256,bytes)": "0a0542ef",
    "setAdmin(address)": "704b6c02",
    "setBridge(address)": "8dd14802",
    "setGasParameters(uint32,(uint256,uint256,uint256,uint256,uint256,uint256))": "960a4270",
    "setGasParameters(uint32[],(uint256,uint256,uint256,uint256,uint256,uint256)[])": "0e95b650",
    "setInterfaces(address)": "da8292d9",
    "setLZEndpoint(address)": "4b40f1bf",
    "setLZExecutor(address)": "fdb80b71",
    "setOperator(address)": "b3ab15fb",
    "setOptimismGasPriceOracle(address)": "9ce82792",
    "setReceiveVersion(uint16)": "10ddb137",
    "setSendVersion(uint16)": "07e0db17"
  }
}