{
  "address": "0x3CF19Da0716845d9FF0DD303a01DFAea6cD8b0ea",
  "abi": [
    {
      "inputs": [],
      "stateMutability": "nonpayable",
      "type": "constructor"
    },
    {
      "stateMutability": "payable",
      "type": "fallback"
    },
    {
      "inputs": [],
      "name": "admin",
      "outputs": [
        {
          "internalType": "address",
          "name": "",
          "type": "address"
        }
      ],
      "stateMutability": "view",
      "type": "function"
    },
    {
      "inputs": [
        {
          "internalType": "address",
          "name": "target",
          "type": "address"
        },
        {
          "internalType": "bytes",
          "name": "data",
          "type": "bytes"
        }
      ],
      "name": "adminCall",
      "outputs": [],
      "stateMutability": "payable",
      "type": "function"
    },
    {
      "inputs": [],
      "name": "getAdmin",
      "outputs": [
        {
          "internalType": "address",
          "name": "adminAddress",
          "type": "address"
        }
      ],
      "stateMutability": "view",
      "type": "function"
    },
    {
      "inputs": [],
      "name": "getBridge",
      "outputs": [
        {
          "internalType": "address",
          "name": "bridge",
          "type": "address"
        }
      ],
      "stateMutability": "view",
      "type": "function"
    },
    {
      "inputs": [
        {
          "internalType": "uint32",
          "name": "chainId",
          "type": "uint32"
        }
      ],
      "name": "getGasParameters",
      "outputs": [
        {
          "components": [
            {
              "internalType": "uint256",
              "name": "msgBaseGas",
              "type": "uint256"
            },
            {
              "internalType": "uint256",
              "name": "msgGasPerByte",
              "type": "uint256"
            },
            {
              "internalType": "uint256",
              "name": "jobBaseGas",
              "type": "uint256"
            },
            {
              "internalType": "uint256",
              "name": "jobGasPerByte",
              "type": "uint256"
            },
            {
              "internalType": "uint256",
              "name": "minGasPrice",
              "type": "uint256"
            },
            {
              "internalType": "uint256",
              "name": "maxGasLimit",
              "type": "uint256"
            }
          ],
          "internalType": "struct GasParameters",
          "name": "gasParameters",
          "type": "tuple"
        }
      ],
      "stateMutability": "view",
      "type": "function"
    },
    {
      "inputs": [
        {
          "internalType": "uint32",
          "name": "toChain",
          "type": "uint32"
        },
        {
          "internalType": "uint256",
          "name": "gasLimit",
          "type": "uint256"
        },
        {
          "internalType": "uint256",
          "name": "gasPrice",
          "type": "uint256"
        },
        {
          "internalType": "bytes",
          "name": "crossChainPayload",
          "type": "bytes"
        }
      ],
      "name": "getHlgFee",
      "outputs": [
        {
          "internalType": "uint256",
          "name": "hlgFee",
          "type": "uint256"
        }
      ],
      "stateMutability": "view",
      "type": "function"
    },
    {
      "inputs": [],
      "name": "getInterfaces",
      "outputs": [
        {
          "internalType": "address",
          "name": "interfaces",
          "type": "address"
        }
      ],
      "stateMutability": "view",
      "type": "function"
    },
    {
      "inputs": [],
      "name": "getLZEndpoint",
      "outputs": [
        {
          "internalType": "address",
          "name": "lZEndpoint",
          "type": "address"
        }
      ],
      "stateMutability": "view",
      "type": "function"
    },
    {
      "inputs": [],
      "name": "getLZExecutor",
      "outputs": [
        {
          "internalType": "address",
          "name": "lzExecutor",
          "type": "address"
        }
      ],
      "stateMutability": "view",
      "type": "function"
    },
    {
      "inputs": [
        {
          "internalType": "uint32",
          "name": "toChain",
          "type": "uint32"
        },
        {
          "internalType": "uint256",
          "name": "gasLimit",
          "type": "uint256"
        },
        {
          "internalType": "uint256",
          "name": "gasPrice",
          "type": "uint256"
        },
        {
          "internalType": "bytes",
          "name": "crossChainPayload",
          "type": "bytes"
        }
      ],
      "name": "getMessageFee",
      "outputs": [
        {
          "internalType": "uint256",
          "name": "hlgFee",
          "type": "uint256"
        },
        {
          "internalType": "uint256",
          "name": "msgFee",
          "type": "uint256"
        },
        {
          "internalType": "uint256",
          "name": "dstGasPrice",
          "type": "uint256"
        }
      ],
      "stateMutability": "view",
      "type": "function"
    },
    {
      "inputs": [],
      "name": "getOperator",
      "outputs": [
        {
          "internalType": "address",
          "name": "operator",
          "type": "address"
        }
      ],
      "stateMutability": "view",
      "type": "function"
    },
    {
      "inputs": [],
      "name": "getOptimismGasPriceOracle",
      "outputs": [
        {
          "internalType": "address",
          "name": "optimismGasPriceOracle",
          "type": "address"
        }
      ],
      "stateMutability": "view",
      "type": "function"
    },
    {
      "inputs": [
        {
          "internalType": "bytes",
          "name": "initPayload",
          "type": "bytes"
        }
      ],
      "name": "init",
      "outputs": [
        {
          "internalType": "bytes4",
          "name": "",
          "type": "bytes4"
        }
      ],
      "stateMutability": "nonpayable",
      "type": "function"
    },
    {
      "inputs": [
        {
          "internalType": "uint16",
          "name": "",
          "type": "uint16"
        },
        {
          "internalType": "bytes",
          "name": "_srcAddress",
          "type": "bytes"
        },
        {
          "internalType": "uint64",
          "name": "",
          "type": "uint64"
        },
        {
          "internalType": "bytes",
          "name": "_payload",
          "type": "bytes"
        }
      ],
      "name": "lzReceive",
      "outputs": [],
      "stateMutability": "payable",
      "type": "function"
    },
    {
      "inputs": [
        {
          "internalType": "uint256",
          "name": "",
          "type": "uint256"
        },
        {
          "internalType": "uint256",
          "name": "",
          "type": "uint256"
        },
        {
          "internalType": "uint32",
          "name": "toChain",
          "type": "uint32"
        },
        {
          "internalType": "address",
          "name": "msgSender",
          "type": "address"
        },
        {
          "internalType": "uint256",
          "name": "msgValue",
          "type": "uint256"
        },
        {
          "internalType": "bytes",
          "name": "crossChainPayload",
          "type": "bytes"
        }
      ],
      "name": "send",
      "outputs": [],
      "stateMutability": "payable",
      "type": "function"
    },
    {
      "inputs": [
        {
          "internalType": "address",
          "name": "adminAddress",
          "type": "address"
        }
      ],
      "name": "setAdmin",
      "outputs": [],
      "stateMutability": "nonpayable",
      "type": "function"
    },
    {
      "inputs": [
        {
          "internalType": "address",
          "name": "bridge",
          "type": "address"
        }
      ],
      "name": "setBridge",
      "outputs": [],
      "stateMutability": "nonpayable",
      "type": "function"
    },
    {
      "inputs": [
        {
          "internalType": "uint32[]",
          "name": "chainIds",
          "type": "uint32[]"
        },
        {
          "components": [
            {
              "internalType": "uint256",
              "name": "msgBaseGas",
              "type": "uint256"
            },
            {
              "internalType": "uint256",
              "name": "msgGasPerByte",
              "type": "uint256"
            },
            {
              "internalType": "uint256",
              "name": "jobBaseGas",
              "type": "uint256"
            },
            {
              "internalType": "uint256",
              "name": "jobGasPerByte",
              "type": "uint256"
            },
            {
              "internalType": "uint256",
              "name": "minGasPrice",
              "type": "uint256"
            },
            {
              "internalType": "uint256",
              "name": "maxGasLimit",
              "type": "uint256"
            }
          ],
          "internalType": "struct GasParameters[]",
          "name": "gasParameters",
          "type": "tuple[]"
        }
      ],
      "name": "setGasParameters",
      "outputs": [],
      "stateMutability": "nonpayable",
      "type": "function"
    },
    {
      "inputs": [
        {
          "internalType": "uint32",
          "name": "chainId",
          "type": "uint32"
        },
        {
          "components": [
            {
              "internalType": "uint256",
              "name": "msgBaseGas",
              "type": "uint256"
            },
            {
              "internalType": "uint256",
              "name": "msgGasPerByte",
              "type": "uint256"
            },
            {
              "internalType": "uint256",
              "name": "jobBaseGas",
              "type": "uint256"
            },
            {
              "internalType": "uint256",
              "name": "jobGasPerByte",
              "type": "uint256"
            },
            {
              "internalType": "uint256",
              "name": "minGasPrice",
              "type": "uint256"
            },
            {
              "internalType": "uint256",
              "name": "maxGasLimit",
              "type": "uint256"
            }
          ],
          "internalType": "struct GasParameters",
          "name": "gasParameters",
          "type": "tuple"
        }
      ],
      "name": "setGasParameters",
      "outputs": [],
      "stateMutability": "nonpayable",
      "type": "function"
    },
    {
      "inputs": [
        {
          "internalType": "address",
          "name": "interfaces",
          "type": "address"
        }
      ],
      "name": "setInterfaces",
      "outputs": [],
      "stateMutability": "nonpayable",
      "type": "function"
    },
    {
      "inputs": [
        {
          "internalType": "address",
          "name": "lZEndpoint",
          "type": "address"
        }
      ],
      "name": "setLZEndpoint",
      "outputs": [],
      "stateMutability": "nonpayable",
      "type": "function"
    },
    {
      "inputs": [
        {
          "internalType": "address",
          "name": "lzExecutor",
          "type": "address"
        }
      ],
      "name": "setLZExecutor",
      "outputs": [],
      "stateMutability": "nonpayable",
      "type": "function"
    },
    {
      "inputs": [
        {
          "internalType": "address",
          "name": "operator",
          "type": "address"
        }
      ],
      "name": "setOperator",
      "outputs": [],
      "stateMutability": "nonpayable",
      "type": "function"
    },
    {
      "inputs": [
        {
          "internalType": "address",
          "name": "optimismGasPriceOracle",
          "type": "address"
        }
      ],
      "name": "setOptimismGasPriceOracle",
      "outputs": [],
      "stateMutability": "nonpayable",
      "type": "function"
    },
    {
      "inputs": [
        {
          "internalType": "uint16",
          "name": "_version",
          "type": "uint16"
        }
      ],
      "name": "setReceiveVersion",
      "outputs": [],
      "stateMutability": "nonpayable",
      "type": "function"
    },
    {
      "inputs": [
        {
          "internalType": "uint16",
          "name": "_version",
          "type": "uint16"
        }
      ],
      "name": "setSendVersion",
      "outputs": [],
      "stateMutability": "nonpayable",
      "type": "function"
    },
    {
      "stateMutability": "payable",
      "type": "receive"
    }
  ],
  "transactionHash": "0xdd8d308677a7cad703f055dee72cd72c08aa377a662b78e14229570fc6d830bd",
  "args": [],
  "numDeployments": 4,
  "solcInputHash": "686888a911d54bc1031916e042aa0115",
  "bytecode": "0x608060405234801561001057600080fd5b50612f3b806100206000396000f3fe6080604052600436106101a45760003560e01c80638dd14802116100e1578063da8292d91161008a578063f0478d2011610064578063f0478d2014610577578063f851a440146105ab578063fdb80b71146105c0578063ff1370d9146105e057600080fd5b8063da8292d9146104ef578063e7f43c681461050f578063ebac15f91461054357600080fd5b8063aa33b3a4116100bb578063aa33b3a414610488578063b3ab15fb146104bc578063bf64a82d146104dc57600080fd5b80638dd1480214610428578063960a4270146104485780639ce827921461046857600080fd5b806336c5ab401161014e5780636e9960c3116101285780636e9960c31461033a5780636ec7fad71461036e578063704b6c02146103da5780638c19a89f146103fa57600080fd5b806336c5ab40146102955780634b40f1bf146102c95780634ddf47d4146102e957600080fd5b80630e95b6501161017f5780630e95b650146101fb5780630fffbaf31461021b57806310ddb1371461027557600080fd5b80621d3567146101b357806307e0db17146101c85780630a0542ef146101e857600080fd5b366101ae57600080fd5b600080fd5b6101c66101c1366004612331565b61061b565b005b3480156101d457600080fd5b506101c66101e33660046123c6565b6107f1565b6101c66101f6366004612415565b61089b565b34801561020757600080fd5b506101c6610216366004612633565b610abc565b34801561022757600080fd5b507feb87cbb21687feb327e3d58c6c16d552231d12c7a0e8115042a4165fac8a77f9545b60405173ffffffffffffffffffffffffffffffffffffffff90911681526020015b60405180910390f35b34801561028157600080fd5b506101c66102903660046123c6565b610c3c565b3480156102a157600080fd5b507f56825e447adf54cdde5f04815fcf9b1dd26ef9d5c053625147c18b7c130916865461024b565b3480156102d557600080fd5b506101c66102e43660046126f5565b610cb4565b3480156102f557600080fd5b50610309610304366004612712565b610d8e565b6040517fffffffff00000000000000000000000000000000000000000000000000000000909116815260200161026c565b34801561034657600080fd5b507f3f106594dc74eeef980dae234cde8324dc2497b13d27a0c59e55bd2ca10a07c95461024b565b34801561037a57600080fd5b5061038e6103893660046127c5565b610fec565b60405161026c9190600060c082019050825182526020830151602083015260408301516040830152606083015160608301526080830151608083015260a083015160a083015292915050565b3480156103e657600080fd5b506101c66103f53660046126f5565b611034565b34801561040657600080fd5b5061041a6104153660046127e2565b61110e565b60405190815260200161026c565b34801561043457600080fd5b506101c66104433660046126f5565b611465565b34801561045457600080fd5b506101c661046336600461284c565b61153f565b34801561047457600080fd5b506101c66104833660046126f5565b611603565b34801561049457600080fd5b507f5418c0677489e4391269fdb0d577e7ea7ccb07075c2c66748ef879ea504777e05461024b565b3480156104c857600080fd5b506101c66104d73660046126f5565b6116dd565b6101c66104ea366004612882565b6117b7565b3480156104fb57600080fd5b506101c661050a3660046126f5565b611899565b34801561051b57600080fd5b507f7caba557ad34138fa3b7e43fb574e0e6cc10481c3073e0dffbc560db81b5c60f5461024b565b34801561054f57600080fd5b507fbd3084b8c09da87ad159c247a60e209784196be2530cecbbd8f337fdd18488275461024b565b34801561058357600080fd5b507f46043c284a96474ab4a54c741ea0d0fce54e98eea878b99d4b85808fa6f71a5f5461024b565b3480156105b757600080fd5b5061024b611973565b3480156105cc57600080fd5b506101c66105db3660046126f5565b6119a2565b3480156105ec57600080fd5b506106006105fb3660046127e2565b611a7c565b6040805193845260208401929092529082015260600161026c565b7f56825e447adf54cdde5f04815fcf9b1dd26ef9d5c053625147c18b7c13091686543314806106b5577f08c379a0000000000000000000000000000000000000000000000000000000006080527c200000000000000000000000000000000000000000000000000000000060a0527c1b484f4c4f47524150483a204c5a206f6e6c7920656e64706f696e740060c052600060e05260c46080fd5b506040518486600c8301378051301480610759577f08c379a0000000000000000000000000000000000000000000000000000000006080527c200000000000000000000000000000000000000000000000000000000060a0527c1e484f4c4f47524150483a20756e617574686f72697a65642073656e6460c0527f657200000000000000000000000000000000000000000000000000000000000060e05260c46080fd5b50507f7caba557ad34138fa3b7e43fb574e0e6cc10481c3073e0dffbc560db81b5c60f5473ffffffffffffffffffffffffffffffffffffffff1663254e106283836040518363ffffffff1660e01b81526004016107b7929190612920565b600060405180830381600087803b1580156107d157600080fd5b505af11580156107e5573d6000803e3d6000fd5b50505050505050505050565b7f56825e447adf54cdde5f04815fcf9b1dd26ef9d5c053625147c18b7c13091686546040517f07e0db1700000000000000000000000000000000000000000000000000000000815261ffff8316600482015273ffffffffffffffffffffffffffffffffffffffff8216906307e0db17906024015b600060405180830381600087803b15801561087f57600080fd5b505af1158015610893573d6000803e3d6000fd5b505050505050565b7f7caba557ad34138fa3b7e43fb574e0e6cc10481c3073e0dffbc560db81b5c60f5473ffffffffffffffffffffffffffffffffffffffff163373ffffffffffffffffffffffffffffffffffffffff1614610956576040517f08c379a000000000000000000000000000000000000000000000000000000000815260206004820152601d60248201527f484f4c4f47524150483a206f70657261746f72206f6e6c792063616c6c00000060448201526064015b60405180910390fd5b7f56825e447adf54cdde5f04815fcf9b1dd26ef9d5c053625147c18b7c1309168654600061098387611e57565b6040517fffffffffffffffffffffffffffffffffffffffff0000000000000000000000003060601b1660208201819052603482015290915073ffffffffffffffffffffffffffffffffffffffff83169063c5803100908790619d359060480160405160208183030381529060405288888c3060018a602001518e8e9050610a0a919061296b565b8b51610a1691906129a8565b60405160f09290921b7fffff00000000000000000000000000000000000000000000000000000000000016602083015260228201526042016040516020818303038152906040526040518963ffffffff1660e01b8152600401610a7f9796959493929190612a2b565b6000604051808303818588803b158015610a9857600080fd5b505af1158015610aac573d6000803e3d6000fd5b5050505050505050505050505050565b7f3f106594dc74eeef980dae234cde8324dc2497b13d27a0c59e55bd2ca10a07c95473ffffffffffffffffffffffffffffffffffffffff163373ffffffffffffffffffffffffffffffffffffffff1614610b72576040517f08c379a000000000000000000000000000000000000000000000000000000000815260206004820152601e60248201527f484f4c4f47524150483a2061646d696e206f6e6c792066756e6374696f6e0000604482015260640161094d565b8051825114610bdd576040517f08c379a000000000000000000000000000000000000000000000000000000000815260206004820152601e60248201527f484f4c4f47524150483a2077726f6e67206172726179206c656e677468730000604482015260640161094d565b60005b8251811015610c3757610c25838281518110610bfe57610bfe612aa1565b6020026020010151838381518110610c1857610c18612aa1565b6020026020010151611f41565b80610c2f81612ad0565b915050610be0565b505050565b7f56825e447adf54cdde5f04815fcf9b1dd26ef9d5c053625147c18b7c13091686546040517f10ddb13700000000000000000000000000000000000000000000000000000000815261ffff8316600482015273ffffffffffffffffffffffffffffffffffffffff8216906310ddb13790602401610865565b7f3f106594dc74eeef980dae234cde8324dc2497b13d27a0c59e55bd2ca10a07c95473ffffffffffffffffffffffffffffffffffffffff163373ffffffffffffffffffffffffffffffffffffffff1614610d6a576040517f08c379a000000000000000000000000000000000000000000000000000000000815260206004820152601e60248201527f484f4c4f47524150483a2061646d696e206f6e6c792066756e6374696f6e0000604482015260640161094d565b7f56825e447adf54cdde5f04815fcf9b1dd26ef9d5c053625147c18b7c1309168655565b6000610db87f4e5f991bca30eca2d4643aaefa807e88f96a4a97398933d572a3c0d973004a015490565b15610e1f576040517f08c379a000000000000000000000000000000000000000000000000000000000815260206004820152601e60248201527f484f4c4f47524150483a20616c726561647920696e697469616c697a65640000604482015260640161094d565b60008060008060008087806020019051810190610e3c9190612bad565b955095509550955095509550327f3f106594dc74eeef980dae234cde8324dc2497b13d27a0c59e55bd2ca10a07c955857feb87cbb21687feb327e3d58c6c16d552231d12c7a0e8115042a4165fac8a77f955847fbd3084b8c09da87ad159c247a60e209784196be2530cecbbd8f337fdd184882755837f7caba557ad34138fa3b7e43fb574e0e6cc10481c3073e0dffbc560db81b5c60f55827f46043c284a96474ab4a54c741ea0d0fce54e98eea878b99d4b85808fa6f71a5f558051825114610f62576040517f08c379a000000000000000000000000000000000000000000000000000000000815260206004820152601e60248201527f484f4c4f47524150483a2077726f6e67206172726179206c656e677468730000604482015260640161094d565b60005b8251811015610f9557610f83838281518110610bfe57610bfe612aa1565b80610f8d81612ad0565b915050610f65565b50610fbf60017f4e5f991bca30eca2d4643aaefa807e88f96a4a97398933d572a3c0d973004a0155565b507f4ddf47d400000000000000000000000000000000000000000000000000000000979650505050505050565b6110256040518060c001604052806000815260200160008152602001600081526020016000815260200160008152602001600081525090565b61102e82611e57565b92915050565b7f3f106594dc74eeef980dae234cde8324dc2497b13d27a0c59e55bd2ca10a07c95473ffffffffffffffffffffffffffffffffffffffff163373ffffffffffffffffffffffffffffffffffffffff16146110ea576040517f08c379a000000000000000000000000000000000000000000000000000000000815260206004820152601e60248201527f484f4c4f47524150483a2061646d696e206f6e6c792066756e6374696f6e0000604482015260640161094d565b7f3f106594dc74eeef980dae234cde8324dc2497b13d27a0c59e55bd2ca10a07c955565b6000806111397fbd3084b8c09da87ad159c247a60e209784196be2530cecbbd8f337fdd18488275490565b73ffffffffffffffffffffffffffffffffffffffff166320fc06ea60028963ffffffff1660036040518463ffffffff1660e01b815260040161117d93929190612cfb565b602060405180830381865afa15801561119a573d6000803e3d6000fd5b505050506040513d601f19601f820116820180604052508101906111be9190612d1c565b905060006111cb82611fea565b915050856000036111e857806020015167ffffffffffffffff1695505b60006111f389611e57565b905080608001518711611262576040517f08c379a000000000000000000000000000000000000000000000000000000000815260206004820152601c60248201527f484f4c4f47524150483a2067617320707269636520746f6f206c6f7700000000604482015260640161094d565b6060810151600090611274908761296b565b6040830151611283908b6129a8565b61128d91906129a8565b905061129a600a82612d64565b6112a490826129a8565b90508160a001518110611313576040517f08c379a000000000000000000000000000000000000000000000000000000000815260206004820152601d60248201527f484f4c4f47524150483a20676173206c696d6974206f766572206d6178000000604482015260640161094d565b825168056bc75e2d63100000906fffffffffffffffffffffffffffffffff1661133c838b61296b565b611346919061296b565b6113509190612d64565b945063ffffffff8a1660071480611370575063ffffffff8a1663ee6b284a145b1561145857825168056bc75e2d63100000906fffffffffffffffffffffffffffffffff166113bc7f46043c284a96474ab4a54c741ea0d0fce54e98eea878b99d4b85808fa6f71a5f5490565b73ffffffffffffffffffffffffffffffffffffffff166349948e0e8a8a6040518363ffffffff1660e01b81526004016113f6929190612920565b602060405180830381865afa158015611413573d6000803e3d6000fd5b505050506040513d601f19601f820116820180604052508101906114379190612d1c565b611441919061296b565b61144b9190612d64565b61145590866129a8565b94505b5050505095945050505050565b7f3f106594dc74eeef980dae234cde8324dc2497b13d27a0c59e55bd2ca10a07c95473ffffffffffffffffffffffffffffffffffffffff163373ffffffffffffffffffffffffffffffffffffffff161461151b576040517f08c379a000000000000000000000000000000000000000000000000000000000815260206004820152601e60248201527f484f4c4f47524150483a2061646d696e206f6e6c792066756e6374696f6e0000604482015260640161094d565b7feb87cbb21687feb327e3d58c6c16d552231d12c7a0e8115042a4165fac8a77f955565b7f3f106594dc74eeef980dae234cde8324dc2497b13d27a0c59e55bd2ca10a07c95473ffffffffffffffffffffffffffffffffffffffff163373ffffffffffffffffffffffffffffffffffffffff16146115f5576040517f08c379a000000000000000000000000000000000000000000000000000000000815260206004820152601e60248201527f484f4c4f47524150483a2061646d696e206f6e6c792066756e6374696f6e0000604482015260640161094d565b6115ff8282611f41565b5050565b7f3f106594dc74eeef980dae234cde8324dc2497b13d27a0c59e55bd2ca10a07c95473ffffffffffffffffffffffffffffffffffffffff163373ffffffffffffffffffffffffffffffffffffffff16146116b9576040517f08c379a000000000000000000000000000000000000000000000000000000000815260206004820152601e60248201527f484f4c4f47524150483a2061646d696e206f6e6c792066756e6374696f6e0000604482015260640161094d565b7f46043c284a96474ab4a54c741ea0d0fce54e98eea878b99d4b85808fa6f71a5f55565b7f3f106594dc74eeef980dae234cde8324dc2497b13d27a0c59e55bd2ca10a07c95473ffffffffffffffffffffffffffffffffffffffff163373ffffffffffffffffffffffffffffffffffffffff1614611793576040517f08c379a000000000000000000000000000000000000000000000000000000000815260206004820152601e60248201527f484f4c4f47524150483a2061646d696e206f6e6c792066756e6374696f6e0000604482015260640161094d565b7f7caba557ad34138fa3b7e43fb574e0e6cc10481c3073e0dffbc560db81b5c60f55565b7f3f106594dc74eeef980dae234cde8324dc2497b13d27a0c59e55bd2ca10a07c95473ffffffffffffffffffffffffffffffffffffffff163373ffffffffffffffffffffffffffffffffffffffff161461186d576040517f08c379a000000000000000000000000000000000000000000000000000000000815260206004820152601e60248201527f484f4c4f47524150483a2061646d696e206f6e6c792066756e6374696f6e0000604482015260640161094d565b808260003760008082600034875af13d6000803e80801561188d573d6000f35b3d6000fd5b5050505050565b7f3f106594dc74eeef980dae234cde8324dc2497b13d27a0c59e55bd2ca10a07c95473ffffffffffffffffffffffffffffffffffffffff163373ffffffffffffffffffffffffffffffffffffffff161461194f576040517f08c379a000000000000000000000000000000000000000000000000000000000815260206004820152601e60248201527f484f4c4f47524150483a2061646d696e206f6e6c792066756e6374696f6e0000604482015260640161094d565b7fbd3084b8c09da87ad159c247a60e209784196be2530cecbbd8f337fdd184882755565b600061199d7f3f106594dc74eeef980dae234cde8324dc2497b13d27a0c59e55bd2ca10a07c95490565b905090565b7f3f106594dc74eeef980dae234cde8324dc2497b13d27a0c59e55bd2ca10a07c95473ffffffffffffffffffffffffffffffffffffffff163373ffffffffffffffffffffffffffffffffffffffff1614611a58576040517f08c379a000000000000000000000000000000000000000000000000000000000815260206004820152601e60248201527f484f4c4f47524150483a2061646d696e206f6e6c792066756e6374696f6e0000604482015260640161094d565b7f5418c0677489e4391269fdb0d577e7ea7ccb07075c2c66748ef879ea504777e055565b600080600080611aaa7fbd3084b8c09da87ad159c247a60e209784196be2530cecbbd8f337fdd18488275490565b73ffffffffffffffffffffffffffffffffffffffff166320fc06ea60028b63ffffffff1660036040518463ffffffff1660e01b8152600401611aee93929190612cfb565b602060405180830381865afa158015611b0b573d6000803e3d6000fd5b505050506040513d601f19601f82011682018060405250810190611b2f9190612d1c565b90506000611b3f82617530612d78565b90506000611b4c8361213f565b905088600003611b6857806020015167ffffffffffffffff1698505b6000611b738c610fec565b905080608001518a11611be2576040517f08c379a000000000000000000000000000000000000000000000000000000000815260206004820152601c60248201527f484f4c4f47524150483a2067617320707269636520746f6f206c6f7700000000604482015260640161094d565b6060810151600090611bf4908a61296b565b6040830151611c03908e6129a8565b611c0d91906129a8565b9050611c1a600a82612d64565b611c2490826129a8565b90508160a001518110611c93576040517f08c379a000000000000000000000000000000000000000000000000000000000815260206004820152601d60248201527f484f4c4f47524150483a20676173206c696d6974206f766572206d6178000000604482015260640161094d565b6000611ca0838c8c61216c565b90506000611cb0868d8d856121dd565b50905068056bc75e2d6310000085600001516fffffffffffffffffffffffffffffffff16848f611ce0919061296b565b611cea919061296b565b611cf49190612d64565b995063ffffffff8f1660071480611d14575063ffffffff8f1663ee6b284a145b15611dfc57845168056bc75e2d63100000906fffffffffffffffffffffffffffffffff16611d607f46043c284a96474ab4a54c741ea0d0fce54e98eea878b99d4b85808fa6f71a5f5490565b73ffffffffffffffffffffffffffffffffffffffff166349948e0e8f8f6040518363ffffffff1660e01b8152600401611d9a929190612920565b602060405180830381865afa158015611db7573d6000803e3d6000fd5b505050506040513d601f19601f82011682018060405250810190611ddb9190612d1c565b611de5919061296b565b611def9190612d64565b611df9908b6129a8565b99505b80985068056bc75e2d631000008560000151866020015167ffffffffffffffff16611e279190612d9e565b611e319190612dd6565b6fffffffffffffffffffffffffffffffff16975050505050505050955095509592505050565b611e906040518060c001604052806000815260200160008152602001600081526020016000815260200160008152602001600081525090565b600063ffffffff831615611ef4576040805163ffffffff851660208201527f15eee82a0af3c04e4b65c3842105c973a6b0fb2a68728bf035809e13b38ce8cf9181019190915260600160405160208183030381529060405280519060200120611f16565b7f15eee82a0af3c04e4b65c3842105c973a6b0fb2a68728bf035809e13b38ce8cf5b90508160005b6006811015611f3957828101548252602090910190600101611f1c565b505050919050565b600063ffffffff831615611fa5576040805163ffffffff851660208201527f15eee82a0af3c04e4b65c3842105c973a6b0fb2a68728bf035809e13b38ce8cf9181019190915260600160405160208183030381529060405280519060200120611fc7565b7f15eee82a0af3c04e4b65c3842105c973a6b0fb2a68728bf035809e13b38ce8cf5b90508160005b600681101561189257815183820155602090910190600101611fcd565b6040805160608101825260008082526020820181905291810182905260007f5418c0677489e4391269fdb0d577e7ea7ccb07075c2c66748ef879ea504777e054905060008173ffffffffffffffffffffffffffffffffffffffff1663741bef1a6040518163ffffffff1660e01b8152600401602060405180830381865afa158015612079573d6000803e3d6000fd5b505050506040513d601f19601f8201168201806040525081019061209d9190612e05565b6040517fda26663a00000000000000000000000000000000000000000000000000000000815261ffff87166004820152909150819073ffffffffffffffffffffffffffffffffffffffff82169063da26663a90602401606060405180830381865afa158015612110573d6000803e3d6000fd5b505050506040513d601f19601f820116820180604052508101906121349190612e22565b935093505050915091565b604080516060810182526000808252602082018190529181019190915261216582611fea565b9392505050565b6020830151606090600190612181908461296b565b855161218d91906129a8565b60405160f09290921b7fffff000000000000000000000000000000000000000000000000000000000000166020830152602282015260420160405160208183030381529060405290509392505050565b600080600061220a7f56825e447adf54cdde5f04815fcf9b1dd26ef9d5c053625147c18b7c130916865490565b6040517f40a7bb1000000000000000000000000000000000000000000000000000000000815290915073ffffffffffffffffffffffffffffffffffffffff8216906340a7bb109061226a908a9030908b908b906000908c90600401612ea9565b6040805180830381865afa158015612286573d6000803e3d6000fd5b505050506040513d601f19601f820116820180604052508101906122aa9190612f0a565b925092505094509492505050565b803561ffff811681146122ca57600080fd5b919050565b60008083601f8401126122e157600080fd5b50813567ffffffffffffffff8111156122f957600080fd5b60208301915083602082850101111561231157600080fd5b9250929050565b67ffffffffffffffff8116811461232e57600080fd5b50565b6000806000806000806080878903121561234a57600080fd5b612353876122b8565b9550602087013567ffffffffffffffff8082111561237057600080fd5b61237c8a838b016122cf565b90975095506040890135915061239182612318565b909350606088013590808211156123a757600080fd5b506123b489828a016122cf565b979a9699509497509295939492505050565b6000602082840312156123d857600080fd5b612165826122b8565b63ffffffff8116811461232e57600080fd5b73ffffffffffffffffffffffffffffffffffffffff8116811461232e57600080fd5b600080600080600080600060c0888a03121561243057600080fd5b87359650602088013595506040880135612449816123e1565b94506060880135612459816123f3565b93506080880135925060a088013567ffffffffffffffff81111561247c57600080fd5b6124888a828b016122cf565b989b979a50959850939692959293505050565b7f4e487b7100000000000000000000000000000000000000000000000000000000600052604160045260246000fd5b60405160c0810167ffffffffffffffff811182821017156124ed576124ed61249b565b60405290565b604051601f82017fffffffffffffffffffffffffffffffffffffffffffffffffffffffffffffffe016810167ffffffffffffffff8111828210171561253a5761253a61249b565b604052919050565b600067ffffffffffffffff82111561255c5761255c61249b565b5060051b60200190565b600060c0828403121561257857600080fd5b6125806124ca565b9050813581526020820135602082015260408201356040820152606082013560608201526080820135608082015260a082013560a082015292915050565b600082601f8301126125cf57600080fd5b813560206125e46125df83612542565b6124f3565b82815260c0928302850182019282820191908785111561260357600080fd5b8387015b85811015612626576126198982612566565b8452928401928101612607565b5090979650505050505050565b6000806040838503121561264657600080fd5b823567ffffffffffffffff8082111561265e57600080fd5b818501915085601f83011261267257600080fd5b813560206126826125df83612542565b82815260059290921b840181019181810190898411156126a157600080fd5b948201945b838610156126c85785356126b9816123e1565b825294820194908201906126a6565b965050860135925050808211156126de57600080fd5b506126eb858286016125be565b9150509250929050565b60006020828403121561270757600080fd5b8135612165816123f3565b6000602080838503121561272557600080fd5b823567ffffffffffffffff8082111561273d57600080fd5b818501915085601f83011261275157600080fd5b8135818111156127635761276361249b565b612793847fffffffffffffffffffffffffffffffffffffffffffffffffffffffffffffffe0601f840116016124f3565b915080825286848285010111156127a957600080fd5b8084840185840137600090820190930192909252509392505050565b6000602082840312156127d757600080fd5b8135612165816123e1565b6000806000806000608086880312156127fa57600080fd5b8535612805816123e1565b94506020860135935060408601359250606086013567ffffffffffffffff81111561282f57600080fd5b61283b888289016122cf565b969995985093965092949392505050565b60008060e0838503121561285f57600080fd5b823561286a816123e1565b91506128798460208501612566565b90509250929050565b60008060006040848603121561289757600080fd5b83356128a2816123f3565b9250602084013567ffffffffffffffff8111156128be57600080fd5b6128ca868287016122cf565b9497909650939450505050565b8183528181602085013750600060208284010152600060207fffffffffffffffffffffffffffffffffffffffffffffffffffffffffffffffe0601f840116840101905092915050565b6020815260006129346020830184866128d7565b949350505050565b7f4e487b7100000000000000000000000000000000000000000000000000000000600052601160045260246000fd5b6000817fffffffffffffffffffffffffffffffffffffffffffffffffffffffffffffffff04831182151516156129a3576129a361293c565b500290565b600082198211156129bb576129bb61293c565b500190565b6000815180845260005b818110156129e6576020818501810151868301820152016129ca565b818111156129f8576000602083870101525b50601f017fffffffffffffffffffffffffffffffffffffffffffffffffffffffffffffffe0169290920160200192915050565b61ffff8816815260c060208201526000612a4860c08301896129c0565b8281036040840152612a5b81888a6128d7565b73ffffffffffffffffffffffffffffffffffffffff87811660608601528616608085015283810360a08501529050612a9381856129c0565b9a9950505050505050505050565b7f4e487b7100000000000000000000000000000000000000000000000000000000600052603260045260246000fd5b60007fffffffffffffffffffffffffffffffffffffffffffffffffffffffffffffffff8203612b0157612b0161293c565b5060010190565b600082601f830112612b1957600080fd5b81516020612b296125df83612542565b82815260c09283028501820192828201919087851115612b4857600080fd5b8387015b858110156126265781818a031215612b645760008081fd5b612b6c6124ca565b81518152858201518682015260408083015190820152606080830151908201526080808301519082015260a080830151908201528452928401928101612b4c565b60008060008060008060c08789031215612bc657600080fd5b8651612bd1816123f3565b80965050602080880151612be4816123f3565b6040890151909650612bf5816123f3565b6060890151909550612c06816123f3565b608089015190945067ffffffffffffffff80821115612c2457600080fd5b818a0191508a601f830112612c3857600080fd5b8151612c466125df82612542565b81815260059190911b8301840190848101908d831115612c6557600080fd5b938501935b82851015612c8c578451612c7d816123e1565b82529385019390850190612c6a565b60a08d01519097509450505080831115612ca557600080fd5b5050612cb389828a01612b08565b9150509295509295509295565b60058110612cf7577f4e487b7100000000000000000000000000000000000000000000000000000000600052602160045260246000fd5b9052565b60608101612d098286612cc0565b8360208301526129346040830184612cc0565b600060208284031215612d2e57600080fd5b5051919050565b7f4e487b7100000000000000000000000000000000000000000000000000000000600052601260045260246000fd5b600082612d7357612d73612d35565b500490565b600061ffff808316818516808303821115612d9557612d9561293c565b01949350505050565b60006fffffffffffffffffffffffffffffffff80831681851681830481118215151615612dcd57612dcd61293c565b02949350505050565b60006fffffffffffffffffffffffffffffffff80841680612df957612df9612d35565b92169190910492915050565b600060208284031215612e1757600080fd5b8151612165816123f3565b600060608284031215612e3457600080fd5b6040516060810181811067ffffffffffffffff82111715612e5757612e5761249b565b60405282516fffffffffffffffffffffffffffffffff81168114612e7a57600080fd5b81526020830151612e8a81612318565b60208201526040830151612e9d816123e1565b60408201529392505050565b61ffff8716815273ffffffffffffffffffffffffffffffffffffffff8616602082015260a060408201526000612ee360a0830186886128d7565b84151560608401528281036080840152612efd81856129c0565b9998505050505050505050565b60008060408385031215612f1d57600080fd5b50508051602090910151909290915056fea164736f6c634300080d000a",
  "devdoc": {
    "author": "https://github.com/holographxyz",
    "details": "This contract abstracts all of the LayerZero specific logic into an isolated module",
    "kind": "dev",
    "methods": {
      "constructor": {
        "details": "Constructor is left empty and init is used instead"
      },
      "getBridge()": {
        "details": "Used for beaming holographable assets cross-chain"
      },
      "getGasParameters(uint32)": {
        "params": {
          "chainId": "the Holograph ChainId to get gas parameters for, set to 0 for default"
        }
      },
      "getInterfaces()": {
        "details": "Holograph uses this contract to store data that needs to be accessed by a large portion of the modules"
      },
      "getLZEndpoint()": {
        "details": "All lzReceive function calls allow only requests from this address"
      },
      "getOperator()": {
        "details": "All cross-chain Holograph Bridge beams are handled by the Holograph Operator module"
      },
      "getOptimismGasPriceOracle()": {
        "details": "Allows to properly calculate the L1 security fee for Optimism bridge transactions"
      },
      "init(bytes)": {
        "details": "This function is called by the deployer/factory when creating a contract",
        "params": {
          "initPayload": "abi encoded payload to use for contract initilaization"
        }
      },
      "lzReceive(uint16,bytes,uint64,bytes)": {
        "details": "This function only allows calls from the configured LayerZero endpoint address"
      },
      "send(uint256,uint256,uint32,address,uint256,bytes)": {
        "details": "Need to add an extra function to get LZ gas amount needed for their internal cross-chain message verification"
      },
      "setBridge(address)": {
        "params": {
          "bridge": "address of the Holograph Bridge smart contract to use"
        }
      },
      "setGasParameters(uint32,(uint256,uint256,uint256,uint256,uint256,uint256))": {
        "params": {
          "chainId": "the Holograph ChainId to set gas parameters for, set to 0 for default",
          "gasParameters": "struct of all the gas parameters to set"
        }
      },
      "setGasParameters(uint32[],(uint256,uint256,uint256,uint256,uint256,uint256)[])": {
        "params": {
          "chainIds": "array of Holograph ChainId to set gas parameters for",
          "gasParameters": "array of all the gas parameters to set"
        }
      },
      "setInterfaces(address)": {
        "params": {
          "interfaces": "address of the Holograph Interfaces smart contract to use"
        }
      },
      "setLZEndpoint(address)": {
        "params": {
          "lZEndpoint": "address of the LayerZero Endpoint to use"
        }
      },
      "setLZExecutor(address)": {
        "params": {
          "lzExecutor": "address of the LayerZero Executor to use"
        }
      },
      "setOperator(address)": {
        "params": {
          "operator": "address of the Holograph Operator smart contract to use"
        }
      },
      "setOptimismGasPriceOracle(address)": {
        "params": {
          "optimismGasPriceOracle": "address of the Optimism Gas Price Oracle smart contract to use"
        }
      },
      "setReceiveVersion(uint16)": {
        "details": "function to set the LayerZero receive MessageLib",
        "params": {
          "_version": "the version of the messaging library"
        }
      },
      "setSendVersion(uint16)": {
        "details": "function to set the LayerZero send MessageLib",
        "params": {
          "_version": "the version of the messaging library"
        }
      }
    },
    "stateVariables": {
      "_bridgeSlot": {
        "details": "bytes32(uint256(keccak256('eip1967.Holograph.bridge')) - 1)"
      },
      "_gasParametersSlot": {
        "details": "bytes32(uint256(keccak256('eip1967.Holograph.gasParameters')) - 1)"
      },
      "_interfacesSlot": {
        "details": "bytes32(uint256(keccak256('eip1967.Holograph.interfaces')) - 1)"
      },
      "_lZEndpointSlot": {
        "details": "bytes32(uint256(keccak256('eip1967.Holograph.lZEndpoint')) - 1)"
      },
      "_lzExecutorSlot": {
        "details": "bytes32(uint256(keccak256('eip1967.Holograph.lzExecutor')) - 1)"
      },
      "_operatorSlot": {
        "details": "bytes32(uint256(keccak256('eip1967.Holograph.operator')) - 1)"
      },
      "_optimismGasPriceOracleSlot": {
        "details": "bytes32(uint256(keccak256('eip1967.Holograph.gasParameters')) - 1)"
      }
    },
    "title": "Holograph LayerZero Module",
    "version": 1
  },
  "userdoc": {
    "kind": "user",
    "methods": {
      "getBridge()": {
        "notice": "Get the address of the Holograph Bridge module"
      },
      "getGasParameters(uint32)": {
        "notice": "Get the default or chain-specific GasParameters"
      },
      "getInterfaces()": {
        "notice": "Get the address of the Holograph Interfaces module"
      },
      "getLZEndpoint()": {
        "notice": "Get the address of the approved LayerZero Endpoint"
      },
      "getLZExecutor()": {
        "notice": "Get the address of the approved LayerZero Executor"
      },
      "getOperator()": {
        "notice": "Get the address of the Holograph Operator module"
      },
      "getOptimismGasPriceOracle()": {
        "notice": "Get the address of the Optimism Gas Price Oracle module"
      },
      "init(bytes)": {
        "notice": "Used internally to initialize the contract instead of through a constructor"
      },
      "lzReceive(uint16,bytes,uint64,bytes)": {
        "notice": "Receive cross-chain message from LayerZero"
      },
      "setBridge(address)": {
        "notice": "Update the Holograph Bridge module address"
      },
      "setGasParameters(uint32,(uint256,uint256,uint256,uint256,uint256,uint256))": {
        "notice": "Update the default or chain-specific GasParameters"
      },
      "setGasParameters(uint32[],(uint256,uint256,uint256,uint256,uint256,uint256)[])": {
        "notice": "Update the default or chain-specific GasParameters"
      },
      "setInterfaces(address)": {
        "notice": "Update the Holograph Interfaces module address"
      },
      "setLZEndpoint(address)": {
        "notice": "Update the approved LayerZero Endpoint address"
      },
      "setLZExecutor(address)": {
        "notice": "Update the approved LayerZero Executor address"
      },
      "setOperator(address)": {
        "notice": "Update the Holograph Operator module address"
      },
      "setOptimismGasPriceOracle(address)": {
        "notice": "Update the Optimism Gas Price Oracle module address"
      }
    },
    "notice": "Holograph module for enabling LayerZero cross-chain messaging",
    "version": 1
  },
  "storageLayout": {
    "storage": [],
    "types": null
  }
}