{
  "address": "0x04b4cA2114119f6aAA6cD4507E6fD543B8DdE24e",
  "abi": [
    {
      "inputs": [],
      "stateMutability": "nonpayable",
      "type": "constructor"
    },
    {
      "anonymous": false,
      "inputs": [
        {
          "indexed": false,
          "internalType": "address",
          "name": "deployedContract",
          "type": "address"
        }
      ],
      "name": "ContractDeployed",
      "type": "event"
    },
    {
      "anonymous": false,
      "inputs": [
        {
          "indexed": false,
          "internalType": "string",
          "name": "message",
          "type": "string"
        }
      ],
      "name": "Message",
      "type": "event"
    },
    {
      "inputs": [
        {
          "internalType": "uint256",
          "name": "nonce",
          "type": "uint256"
        },
        {
          "internalType": "address",
          "name": "newDeployer",
          "type": "address"
        },
        {
          "internalType": "bool",
          "name": "approve",
          "type": "bool"
        },
        {
          "internalType": "bytes",
          "name": "sig1",
          "type": "bytes"
        },
        {
          "internalType": "bytes",
          "name": "sig2",
          "type": "bytes"
        }
      ],
      "name": "approveDeployer",
      "outputs": [],
      "stateMutability": "nonpayable",
      "type": "function"
    },
    {
      "inputs": [
        {
          "internalType": "uint256",
          "name": "chainId",
          "type": "uint256"
        },
        {
          "internalType": "bytes12",
          "name": "saltHash",
          "type": "bytes12"
        },
        {
          "internalType": "bytes20",
          "name": "secret",
          "type": "bytes20"
        },
        {
          "internalType": "bytes",
          "name": "sourceCode",
          "type": "bytes"
        },
        {
          "internalType": "bytes",
          "name": "initCode",
          "type": "bytes"
        }
      ],
      "name": "deploy",
      "outputs": [],
      "stateMutability": "nonpayable",
      "type": "function"
    },
    {
      "inputs": [],
      "name": "getApproveDeployerNonce",
      "outputs": [
        {
          "internalType": "uint256",
          "name": "",
          "type": "uint256"
        }
      ],
      "stateMutability": "view",
      "type": "function"
    },
    {
      "inputs": [
        {
          "internalType": "bytes32",
          "name": "_messageHash",
          "type": "bytes32"
        }
      ],
      "name": "getEthSignedMessageHash",
      "outputs": [
        {
          "internalType": "bytes32",
          "name": "",
          "type": "bytes32"
        }
      ],
      "stateMutability": "pure",
      "type": "function"
    },
    {
      "inputs": [
        {
          "internalType": "uint256",
          "name": "nonce",
          "type": "uint256"
        },
        {
          "internalType": "address",
          "name": "newDeployer",
          "type": "address"
        },
        {
          "internalType": "bool",
          "name": "approve",
          "type": "bool"
        }
      ],
      "name": "getMessageHash",
      "outputs": [
        {
          "internalType": "bytes32",
          "name": "",
          "type": "bytes32"
        }
      ],
      "stateMutability": "pure",
      "type": "function"
    },
    {
      "inputs": [],
      "name": "getVersion",
      "outputs": [
        {
          "internalType": "uint32",
          "name": "",
          "type": "uint32"
        }
      ],
      "stateMutability": "view",
      "type": "function"
    },
    {
      "inputs": [
        {
          "internalType": "address",
          "name": "deployer",
          "type": "address"
        }
      ],
      "name": "isApprovedDeployer",
      "outputs": [
        {
          "internalType": "bool",
          "name": "",
          "type": "bool"
        }
      ],
      "stateMutability": "view",
      "type": "function"
    },
    {
      "inputs": [
        {
          "internalType": "uint256",
          "name": "nonce",
          "type": "uint256"
        },
        {
          "internalType": "address",
          "name": "newDeployer",
          "type": "address"
        },
        {
          "internalType": "bool",
          "name": "approve",
          "type": "bool"
        },
        {
          "internalType": "bytes",
          "name": "signature",
          "type": "bytes"
        }
      ],
      "name": "recoverSigner",
      "outputs": [
        {
          "internalType": "address",
          "name": "",
          "type": "address"
        }
      ],
      "stateMutability": "pure",
      "type": "function"
    }
  ],
  "transactionHash": "0xfb15d1616db33ed4a62f6d5758df9759468a6d1cda9e299c7499b0ea46f6b22d",
  "args": [],
  "numDeployments": 2,
  "solcInputHash": "637cf1e050474762e332a92c3dd8c3f6",
  "bytecode": "0x61016060405273bb566182f35b9e5ae04db02a5450cc156d2f89c160a0527322ed36947ddd1ae317f7816c410d3c0c58bb9b9060c05273ffca0d6986099fbdb3b6ad9b6aa5df5ed1d44f0c60e05273df9013a9af763b181ef8acfc0e3229494004e0016101005272ac9fd50c63f176b49f05ffeda324bd68c7cd696101205273983dd3402bf68da001dd08c955d33a824cf22cb0610140523480156100a357600080fd5b50600260805260a0516001600160a01b039081166000908152600160208190526040808320805460ff19908116841790915560c05185168452818420805482168417905560e051851684528184208054821684179055610100518516845281842080548216841790556101205185168452818420805482168417905561014051909416835291829020805490931617909155517f51a7f65c6325882f237d4aeb43228179cfad48b868511d508e24b4437a819137906101939060208082526019908201527f5468652066757475726520697320486f6c6f6772617068696300000000000000604082015260600190565b60405180910390a160805160a05160c05160e0516101005161012051610140516110fa6101e26000396000505060005050600050506000505060005050600050506000609701526110fa6000f3fe608060405234801561001057600080fd5b50600436106100885760003560e01c8063cb33fe541161005b578063cb33fe541461018c578063d288337d1461019f578063dc7faa07146101a7578063fa540801146101f057600080fd5b80630d8e6e2c1461008d57806349aa18fc146100c657806355da4cd0146100db5780636ae675ac14610113575b600080fd5b60405163ffffffff7f00000000000000000000000000000000000000000000000000000000000000001681526020015b60405180910390f35b6100d96100d4366004610dc4565b610251565b005b6100ee6100e9366004610eda565b61068c565b60405173ffffffffffffffffffffffffffffffffffffffff90911681526020016100bd565b61017e610121366004610f42565b6040805160208082019590955260609390931b7fffffffffffffffffffffffffffffffffffffffff000000000000000000000000168382015290151560f81b60548301528051603581840301815260559092019052805191012090565b6040519081526020016100bd565b6100d961019a366004610f7e565b6107cd565b61017e610ba2565b6101e06101b5366004610fb4565b73ffffffffffffffffffffffffffffffffffffffff1660009081526001602052604090205460ff1690565b60405190151581526020016100bd565b61017e6101fe366004610fcf565b6040517f19457468657265756d205369676e6564204d6573736167653a0a3332000000006020820152603c8101829052600090605c01604051602081830303815290604052805190602001209050919050565b3360009081526001602052604090205460ff166102cf576040517f08c379a000000000000000000000000000000000000000000000000000000000815260206004820181905260248201527f484f4c4f47524150483a206465706c6f796572206e6f7420617070726f76656460448201526064015b60405180910390fd5b468514610338576040517f08c379a000000000000000000000000000000000000000000000000000000000815260206004820152601d60248201527f484f4c4f47524150483a20696e636f727265637420636861696e20696400000060448201526064016102c6565b604080517fffffffffffffffffffffffffffffffffffffffff000000000000000000000000851660208201527fffffffffffffffffffffffff000000000000000000000000000000000000000086166034820152600091016040516020818303038152906040526103a890610fe8565b8351602080860191909120604080517fff00000000000000000000000000000000000000000000000000000000000000818501523060601b7fffffffffffffffffffffffffffffffffffffffff00000000000000000000000016602182015260358101859052605580820193909352815180820390930183526075019052805191012090915061043781610c22565b1561049e576040517f08c379a000000000000000000000000000000000000000000000000000000000815260206004820152601b60248201527f484f4c4f47524150483a20616c7265616479206465706c6f796564000000000060448201526064016102c6565b818451602086016000f590506104b381610c22565b610519576040517f08c379a000000000000000000000000000000000000000000000000000000000815260206004820152601c60248201527f484f4c4f47524150483a206465706c6f796d656e74206661696c65640000000060448201526064016102c6565b6040517f4ddf47d4000000000000000000000000000000000000000000000000000000008082529073ffffffffffffffffffffffffffffffffffffffff831690634ddf47d49061056d908790600401611098565b6020604051808303816000875af115801561058c573d6000803e3d6000fd5b505050506040513d601f19601f820116820180604052508101906105b091906110ab565b7fffffffff000000000000000000000000000000000000000000000000000000001614610639576040517f08c379a000000000000000000000000000000000000000000000000000000000815260206004820181905260248201527f484f4c4f47524150483a20696e697469616c697a6174696f6e206661696c656460448201526064016102c6565b60405173ffffffffffffffffffffffffffffffffffffffff821681527f8ffcdc15a283d706d38281f500270d8b5a656918f555de0913d7455e3e6bc1bf906020015b60405180910390a150505050505050565b604080516020808201879052606086901b7fffffffffffffffffffffffffffffffffffffffff000000000000000000000000168284015284151560f81b6054830152825160358184030181526055830184528051908201207f19457468657265756d205369676e6564204d6573736167653a0a333200000000607584015260918084018290528451808503909101815260b1909301909352815191012060009190600080600061073b87610c5c565b60408051600081526020810180835289905260ff8316918101919091526060810184905260808101839052929550909350915060019060a0016020604051602081039080840390855afa158015610796573d6000803e3d6000fd5b50506040517fffffffffffffffffffffffffffffffffffffffffffffffffffffffffffffffe001519b9a5050505050505050505050565b3360009081526001602052604090205460ff16610846576040517f08c379a000000000000000000000000000000000000000000000000000000000815260206004820181905260248201527f484f4c4f47524150483a206465706c6f796572206e6f7420617070726f76656460448201526064016102c6565b60005485116108b1576040517f08c379a000000000000000000000000000000000000000000000000000000000815260206004820152601860248201527f484f4c4f47524150483a20696e76616c6964206e6f6e6365000000000000000060448201526064016102c6565b60008581556108c28686868661068c565b905060006108d28787878661068c565b73ffffffffffffffffffffffffffffffffffffffff831660009081526001602052604090205490915060ff16610964576040517f08c379a000000000000000000000000000000000000000000000000000000000815260206004820181905260248201527f484f4c4f47524150483a207369676e65722031206e6f7420617070726f76656460448201526064016102c6565b73ffffffffffffffffffffffffffffffffffffffff811660009081526001602052604090205460ff166109f3576040517f08c379a000000000000000000000000000000000000000000000000000000000815260206004820181905260248201527f484f4c4f47524150483a207369676e65722032206e6f7420617070726f76656460448201526064016102c6565b8073ffffffffffffffffffffffffffffffffffffffff168273ffffffffffffffffffffffffffffffffffffffff1603610aae576040517f08c379a000000000000000000000000000000000000000000000000000000000815260206004820152603660248201527f484f4c4f47524150483a207369676e617475726573206d75737420626520667260448201527f6f6d20646966666572656e74206465706c6f796572730000000000000000000060648201526084016102c6565b73ffffffffffffffffffffffffffffffffffffffff8616600090815260016020526040902080547fffffffffffffffffffffffffffffffffffffffffffffffffffffffffffffff00168615151790557f51a7f65c6325882f237d4aeb43228179cfad48b868511d508e24b4437a81913785610b5e576040518060400160405280601f81526020017f484f4c4f47524150483a206465706c6f79657220646973617070726f76656400815250610b95565b6040518060400160405280601c81526020017f484f4c4f47524150483a206465706c6f79657220617070726f766564000000008152505b60405161067b9190611098565b3360009081526001602052604081205460ff16610c1b576040517f08c379a000000000000000000000000000000000000000000000000000000000815260206004820181905260248201527f484f4c4f47524150483a206465706c6f796572206e6f7420617070726f76656460448201526064016102c6565b5060005490565b6000813f8015801590610c5557507fc5d2460186f7233c927e7db2dcc703c0e500b653ca82273b7bfad8045d85a4708114155b9392505050565b60008060008351604114610ccc576040517f08c379a000000000000000000000000000000000000000000000000000000000815260206004820152601860248201527f496e76616c6964207369676e6174757265206c656e677468000000000000000060448201526064016102c6565b50505060208101516040820151606090920151909260009190911a90565b7f4e487b7100000000000000000000000000000000000000000000000000000000600052604160045260246000fd5b600082601f830112610d2a57600080fd5b813567ffffffffffffffff80821115610d4557610d45610cea565b604051601f83017fffffffffffffffffffffffffffffffffffffffffffffffffffffffffffffffe0908116603f01168101908282118183101715610d8b57610d8b610cea565b81604052838152866020858801011115610da457600080fd5b836020870160208301376000602085830101528094505050505092915050565b600080600080600060a08688031215610ddc57600080fd5b8535945060208601357fffffffffffffffffffffffff000000000000000000000000000000000000000081168114610e1357600080fd5b935060408601357fffffffffffffffffffffffffffffffffffffffff00000000000000000000000081168114610e4857600080fd5b9250606086013567ffffffffffffffff80821115610e6557600080fd5b610e7189838a01610d19565b93506080880135915080821115610e8757600080fd5b50610e9488828901610d19565b9150509295509295909350565b803573ffffffffffffffffffffffffffffffffffffffff81168114610ec557600080fd5b919050565b80358015158114610ec557600080fd5b60008060008060808587031215610ef057600080fd5b84359350610f0060208601610ea1565b9250610f0e60408601610eca565b9150606085013567ffffffffffffffff811115610f2a57600080fd5b610f3687828801610d19565b91505092959194509250565b600080600060608486031215610f5757600080fd5b83359250610f6760208501610ea1565b9150610f7560408501610eca565b90509250925092565b600080600080600060a08688031215610f9657600080fd5b85359450610fa660208701610ea1565b9350610e4860408701610eca565b600060208284031215610fc657600080fd5b610c5582610ea1565b600060208284031215610fe157600080fd5b5035919050565b80516020808301519190811015611027577fffffffffffffffffffffffffffffffffffffffffffffffffffffffffffffffff8160200360031b1b821691505b50919050565b6000815180845260005b8181101561105357602081850181015186830182015201611037565b81811115611065576000602083870101525b50601f017fffffffffffffffffffffffffffffffffffffffffffffffffffffffffffffffe0169290920160200192915050565b602081526000610c55602083018461102d565b6000602082840312156110bd57600080fd5b81517fffffffff0000000000000000000000000000000000000000000000000000000081168114610c5557600080fdfea164736f6c634300080d000a",
  "devdoc": {
    "details": "In the beginning there was a smart contract...",
    "kind": "dev",
    "methods": {
      "approveDeployer(uint256,address,bool,bytes,bytes)": {
        "details": "Approve or disapprove a deployer using multi-signature verification.",
        "params": {
          "approve": "Boolean representing the approval status",
          "newDeployer": "The address of the deployer to approve or disapprove",
          "nonce": "A unique nonce",
          "sig1": "The first signature for multisig",
          "sig2": "The second signature for multisig"
        }
      },
      "constructor": {
        "details": "Sets the initial deployers as approved upon contract creation."
      },
      "deploy(uint256,bytes12,bytes20,bytes,bytes)": {
        "details": "Deploy a contract using the EIP-1014 (create2) opcode for deterministic addresses.",
        "params": {
          "chainId": "The chain on which to deploy",
          "initCode": "The initialization code for the contract",
          "saltHash": "A unique salt for contract creation",
          "secret": "A secret part of the salt",
          "sourceCode": "The bytecode of the contract to deploy"
        }
      },
      "getApproveDeployerNonce()": {
        "details": "Returns the current nonce for deployer approvals.",
        "returns": {
          "_0": "uint256 representing the current nonce"
        }
      },
      "getEthSignedMessageHash(bytes32)": {
        "details": "Recreates the Ethereum signed message hash from the plain message hash.",
        "params": {
          "_messageHash": "The hash of the original message"
        },
        "returns": {
          "_0": "bytes32 Ethereum signed message hash"
        }
      },
      "getMessageHash(uint256,address,bool)": {
        "details": "Generates a hash of the message containing nonce, deployer address, and approval status.",
        "params": {
          "approve": "Approval status in the message",
          "newDeployer": "Address of the deployer in the message",
          "nonce": "Nonce used in the message"
        },
        "returns": {
          "_0": "bytes32 Ethereum signed message hash"
        }
      },
      "getVersion()": {
        "details": "Returns the version number of the Genesis contract",
        "returns": {
          "_0": "uint32 representing the version number"
        }
      },
      "isApprovedDeployer(address)": {
        "details": "Check if an address is an approved deployer.",
        "params": {
          "deployer": "Address to check"
        },
        "returns": {
          "_0": "bool representing approval status"
        }
      },
      "recoverSigner(uint256,address,bool,bytes)": {
        "details": "Recovers the signer from the signature.",
        "params": {
          "approve": "Approval status in the message",
          "newDeployer": "Address of the deployer in the message",
          "nonce": "Nonce used in the message",
          "signature": "The signature to recover"
        },
        "returns": {
          "_0": "address of the signer"
        }
      }
    },
    "title": "HOLOGRAPH GENESIS",
    "version": 1
  },
  "userdoc": {
    "kind": "user",
    "methods": {},
    "version": 1
  },
  "storageLayout": {
    "storage": [
      {
        "astId": 7,
        "contract": "src/HolographGenesis.sol:HolographGenesis",
        "label": "_approveDeployerNonce",
        "offset": 0,
        "slot": "0",
        "type": "t_uint256"
      },
      {
        "astId": 29,
        "contract": "src/HolographGenesis.sol:HolographGenesis",
        "label": "_approvedDeployers",
        "offset": 0,
        "slot": "1",
        "type": "t_mapping(t_address,t_bool)"
      }
    ],
    "types": {
      "t_address": {
        "encoding": "inplace",
        "label": "address",
        "numberOfBytes": "20"
      },
      "t_bool": {
        "encoding": "inplace",
        "label": "bool",
        "numberOfBytes": "1"
      },
      "t_mapping(t_address,t_bool)": {
        "encoding": "mapping",
        "key": "t_address",
        "label": "mapping(address => bool)",
        "numberOfBytes": "32",
        "value": "t_bool"
      },
      "t_uint256": {
        "encoding": "inplace",
        "label": "uint256",
        "numberOfBytes": "32"
      }
    }
  }
}