{
  "address": "0x5B51352c5627E221959D6e641A06a07A2665e417",
  "abi": [
    {
      "inputs": [],
      "stateMutability": "nonpayable",
      "type": "constructor"
    },
    {
      "stateMutability": "payable",
      "type": "fallback"
    },
    {
      "inputs": [],
      "name": "admin",
      "outputs": [
        {
          "internalType": "address",
          "name": "",
          "type": "address"
        }
      ],
      "stateMutability": "view",
      "type": "function"
    },
    {
      "inputs": [
        {
          "internalType": "address",
          "name": "target",
          "type": "address"
        },
        {
          "internalType": "bytes",
          "name": "data",
          "type": "bytes"
        }
      ],
      "name": "adminCall",
      "outputs": [],
      "stateMutability": "payable",
      "type": "function"
    },
    {
      "inputs": [],
      "name": "getAdmin",
      "outputs": [
        {
          "internalType": "address",
          "name": "adminAddress",
          "type": "address"
        }
      ],
      "stateMutability": "view",
      "type": "function"
    },
    {
      "inputs": [],
      "name": "getBridge",
      "outputs": [
        {
          "internalType": "address",
          "name": "bridge",
          "type": "address"
        }
      ],
      "stateMutability": "view",
      "type": "function"
    },
    {
      "inputs": [],
      "name": "getInterfaces",
      "outputs": [
        {
          "internalType": "address",
          "name": "interfaces",
          "type": "address"
        }
      ],
      "stateMutability": "view",
      "type": "function"
    },
    {
      "inputs": [],
      "name": "getLZEndpoint",
      "outputs": [
        {
          "internalType": "address",
          "name": "lZEndpoint",
          "type": "address"
        }
      ],
      "stateMutability": "view",
      "type": "function"
    },
    {
      "inputs": [],
      "name": "getOperator",
      "outputs": [
        {
          "internalType": "address",
          "name": "operator",
          "type": "address"
        }
      ],
      "stateMutability": "view",
      "type": "function"
    },
    {
      "inputs": [
        {
          "internalType": "bytes",
          "name": "initPayload",
          "type": "bytes"
        }
      ],
      "name": "init",
      "outputs": [
        {
          "internalType": "bytes4",
          "name": "",
          "type": "bytes4"
        }
      ],
      "stateMutability": "nonpayable",
      "type": "function"
    },
    {
      "inputs": [
        {
          "internalType": "uint16",
          "name": "",
          "type": "uint16"
        },
        {
          "internalType": "bytes",
          "name": "_srcAddress",
          "type": "bytes"
        },
        {
          "internalType": "uint64",
          "name": "",
          "type": "uint64"
        },
        {
          "internalType": "bytes",
          "name": "_payload",
          "type": "bytes"
        }
      ],
      "name": "lzReceive",
      "outputs": [],
      "stateMutability": "payable",
      "type": "function"
    },
    {
      "inputs": [
        {
          "internalType": "uint256",
          "name": "",
          "type": "uint256"
        },
        {
          "internalType": "uint256",
          "name": "",
          "type": "uint256"
        },
        {
          "internalType": "uint32",
          "name": "toChain",
          "type": "uint32"
        },
        {
          "internalType": "address",
          "name": "msgSender",
          "type": "address"
        },
        {
          "internalType": "uint256",
          "name": "msgValue",
          "type": "uint256"
        },
        {
          "internalType": "bytes",
          "name": "crossChainPayload",
          "type": "bytes"
        }
      ],
      "name": "send",
      "outputs": [],
      "stateMutability": "payable",
      "type": "function"
    },
    {
      "inputs": [
        {
          "internalType": "address",
          "name": "adminAddress",
          "type": "address"
        }
      ],
      "name": "setAdmin",
      "outputs": [],
      "stateMutability": "nonpayable",
      "type": "function"
    },
    {
      "inputs": [
        {
          "internalType": "address",
          "name": "bridge",
          "type": "address"
        }
      ],
      "name": "setBridge",
      "outputs": [],
      "stateMutability": "nonpayable",
      "type": "function"
    },
    {
      "inputs": [
        {
          "internalType": "address",
          "name": "interfaces",
          "type": "address"
        }
      ],
      "name": "setInterfaces",
      "outputs": [],
      "stateMutability": "nonpayable",
      "type": "function"
    },
    {
      "inputs": [
        {
          "internalType": "address",
          "name": "lZEndpoint",
          "type": "address"
        }
      ],
      "name": "setLZEndpoint",
      "outputs": [],
      "stateMutability": "nonpayable",
      "type": "function"
    },
    {
      "inputs": [
        {
          "internalType": "address",
          "name": "operator",
          "type": "address"
        }
      ],
      "name": "setOperator",
      "outputs": [],
      "stateMutability": "nonpayable",
      "type": "function"
    },
    {
      "stateMutability": "payable",
      "type": "receive"
    }
  ],
  "transactionHash": "0x7472c7389aabd9bb7fa86157efbb1ca87a66bfd5dd597a6799e397912e9fbe6d",
  "args": [],
  "numDeployments": 1,
  "solcInputHash": "2412a486e8cbd6b04169a2c5c23f6906",
  "bytecode": "0x608060405234801561001057600080fd5b50611495806100206000396000f3fe6080604052600436106100eb5760003560e01c8063704b6c021161008a578063da8292d911610059578063da8292d9146102c8578063e7f43c68146102e8578063ebac15f91461031c578063f851a4401461035057600080fd5b8063704b6c02146102555780638dd1480214610275578063b3ab15fb14610295578063bf64a82d146102b557600080fd5b806336c5ab40116100c657806336c5ab401461017c5780634b40f1bf146101b05780634ddf47d4146101d05780636e9960c31461022157600080fd5b80621d3567146100fa5780630a0542ef1461010f5780630fffbaf31461012257600080fd5b366100f557600080fd5b600080fd5b61010d610108366004610f2e565b610365565b005b61010d61011d366004610ff6565b61053b565b34801561012e57600080fd5b507feb87cbb21687feb327e3d58c6c16d552231d12c7a0e8115042a4165fac8a77f9545b60405173ffffffffffffffffffffffffffffffffffffffff90911681526020015b60405180910390f35b34801561018857600080fd5b507f56825e447adf54cdde5f04815fcf9b1dd26ef9d5c053625147c18b7c1309168654610152565b3480156101bc57600080fd5b5061010d6101cb366004611085565b61080a565b3480156101dc57600080fd5b506101f06101eb3660046110d8565b6108e4565b6040517fffffffff000000000000000000000000000000000000000000000000000000009091168152602001610173565b34801561022d57600080fd5b507f3f106594dc74eeef980dae234cde8324dc2497b13d27a0c59e55bd2ca10a07c954610152565b34801561026157600080fd5b5061010d610270366004611085565b610a73565b34801561028157600080fd5b5061010d610290366004611085565b610b4d565b3480156102a157600080fd5b5061010d6102b0366004611085565b610c27565b61010d6102c33660046111a7565b610d01565b3480156102d457600080fd5b5061010d6102e3366004611085565b610ddc565b3480156102f457600080fd5b507f7caba557ad34138fa3b7e43fb574e0e6cc10481c3073e0dffbc560db81b5c60f54610152565b34801561032857600080fd5b507fbd3084b8c09da87ad159c247a60e209784196be2530cecbbd8f337fdd184882754610152565b34801561035c57600080fd5b50610152610eb6565b7f56825e447adf54cdde5f04815fcf9b1dd26ef9d5c053625147c18b7c13091686543314806103ff577f08c379a0000000000000000000000000000000000000000000000000000000006080527c200000000000000000000000000000000000000000000000000000000060a0527c1b484f4c4f47524150483a204c5a206f6e6c7920656e64706f696e740060c052600060e05260c46080fd5b506040518486600c83013780513014806104a3577f08c379a0000000000000000000000000000000000000000000000000000000006080527c200000000000000000000000000000000000000000000000000000000060a0527c1e484f4c4f47524150483a20756e617574686f72697a65642073656e6460c0527f657200000000000000000000000000000000000000000000000000000000000060e05260c46080fd5b50507f7caba557ad34138fa3b7e43fb574e0e6cc10481c3073e0dffbc560db81b5c60f5473ffffffffffffffffffffffffffffffffffffffff1663254e106283836040518363ffffffff1660e01b8152600401610501929190611245565b600060405180830381600087803b15801561051b57600080fd5b505af115801561052f573d6000803e3d6000fd5b50505050505050505050565b7f7caba557ad34138fa3b7e43fb574e0e6cc10481c3073e0dffbc560db81b5c60f5473ffffffffffffffffffffffffffffffffffffffff163373ffffffffffffffffffffffffffffffffffffffff16146105f6576040517f08c379a000000000000000000000000000000000000000000000000000000000815260206004820152601d60248201527f484f4c4f47524150483a206f70657261746f72206f6e6c792063616c6c00000060448201526064015b60405180910390fd5b7f56825e447adf54cdde5f04815fcf9b1dd26ef9d5c053625147c18b7c130916865473ffffffffffffffffffffffffffffffffffffffff811663c58031008561065d7fbd3084b8c09da87ad159c247a60e209784196be2530cecbbd8f337fdd18488275490565b73ffffffffffffffffffffffffffffffffffffffff166320fc06ea60028b63ffffffff1660036040518463ffffffff1660e01b81526004016106a19392919061129c565b602060405180830381865afa1580156106be573d6000803e3d6000fd5b505050506040513d601f19601f820116820180604052508101906106e291906112bd565b6040517fffffffffffffffffffffffffffffffffffffffff0000000000000000000000003060601b16602082018190526034820152604801604080517fffffffffffffffffffffffffffffffffffffffffffffffffffffffffffffffe081840301815291905287878b306001610759846019611305565b6107659061cb20611342565b60405160f09290921b7fffff00000000000000000000000000000000000000000000000000000000000016602083015260228201526042016040516020818303038152906040526040518963ffffffff1660e01b81526004016107ce97969594939291906113c5565b6000604051808303818588803b1580156107e757600080fd5b505af11580156107fb573d6000803e3d6000fd5b50505050505050505050505050565b7f3f106594dc74eeef980dae234cde8324dc2497b13d27a0c59e55bd2ca10a07c95473ffffffffffffffffffffffffffffffffffffffff163373ffffffffffffffffffffffffffffffffffffffff16146108c0576040517f08c379a000000000000000000000000000000000000000000000000000000000815260206004820152601e60248201527f484f4c4f47524150483a2061646d696e206f6e6c792066756e6374696f6e000060448201526064016105ed565b7f56825e447adf54cdde5f04815fcf9b1dd26ef9d5c053625147c18b7c1309168655565b600061090e7f4e5f991bca30eca2d4643aaefa807e88f96a4a97398933d572a3c0d973004a015490565b15610975576040517f08c379a000000000000000000000000000000000000000000000000000000000815260206004820152601e60248201527f484f4c4f47524150483a20616c726561647920696e697469616c697a6564000060448201526064016105ed565b60008060008480602001905181019061098e919061143b565b925092509250327f3f106594dc74eeef980dae234cde8324dc2497b13d27a0c59e55bd2ca10a07c955827feb87cbb21687feb327e3d58c6c16d552231d12c7a0e8115042a4165fac8a77f955817fbd3084b8c09da87ad159c247a60e209784196be2530cecbbd8f337fdd184882755807f7caba557ad34138fa3b7e43fb574e0e6cc10481c3073e0dffbc560db81b5c60f55610a4960017f4e5f991bca30eca2d4643aaefa807e88f96a4a97398933d572a3c0d973004a0155565b507f4ddf47d400000000000000000000000000000000000000000000000000000000949350505050565b7f3f106594dc74eeef980dae234cde8324dc2497b13d27a0c59e55bd2ca10a07c95473ffffffffffffffffffffffffffffffffffffffff163373ffffffffffffffffffffffffffffffffffffffff1614610b29576040517f08c379a000000000000000000000000000000000000000000000000000000000815260206004820152601e60248201527f484f4c4f47524150483a2061646d696e206f6e6c792066756e6374696f6e000060448201526064016105ed565b7f3f106594dc74eeef980dae234cde8324dc2497b13d27a0c59e55bd2ca10a07c955565b7f3f106594dc74eeef980dae234cde8324dc2497b13d27a0c59e55bd2ca10a07c95473ffffffffffffffffffffffffffffffffffffffff163373ffffffffffffffffffffffffffffffffffffffff1614610c03576040517f08c379a000000000000000000000000000000000000000000000000000000000815260206004820152601e60248201527f484f4c4f47524150483a2061646d696e206f6e6c792066756e6374696f6e000060448201526064016105ed565b7feb87cbb21687feb327e3d58c6c16d552231d12c7a0e8115042a4165fac8a77f955565b7f3f106594dc74eeef980dae234cde8324dc2497b13d27a0c59e55bd2ca10a07c95473ffffffffffffffffffffffffffffffffffffffff163373ffffffffffffffffffffffffffffffffffffffff1614610cdd576040517f08c379a000000000000000000000000000000000000000000000000000000000815260206004820152601e60248201527f484f4c4f47524150483a2061646d696e206f6e6c792066756e6374696f6e000060448201526064016105ed565b7f7caba557ad34138fa3b7e43fb574e0e6cc10481c3073e0dffbc560db81b5c60f55565b7f3f106594dc74eeef980dae234cde8324dc2497b13d27a0c59e55bd2ca10a07c95473ffffffffffffffffffffffffffffffffffffffff163373ffffffffffffffffffffffffffffffffffffffff1614610db7576040517f08c379a000000000000000000000000000000000000000000000000000000000815260206004820152601e60248201527f484f4c4f47524150483a2061646d696e206f6e6c792066756e6374696f6e000060448201526064016105ed565b808260003760008082600034875af13d6000803e808015610dd7573d6000f35b3d6000fd5b7f3f106594dc74eeef980dae234cde8324dc2497b13d27a0c59e55bd2ca10a07c95473ffffffffffffffffffffffffffffffffffffffff163373ffffffffffffffffffffffffffffffffffffffff1614610e92576040517f08c379a000000000000000000000000000000000000000000000000000000000815260206004820152601e60248201527f484f4c4f47524150483a2061646d696e206f6e6c792066756e6374696f6e000060448201526064016105ed565b7fbd3084b8c09da87ad159c247a60e209784196be2530cecbbd8f337fdd184882755565b6000610ee07f3f106594dc74eeef980dae234cde8324dc2497b13d27a0c59e55bd2ca10a07c95490565b905090565b60008083601f840112610ef757600080fd5b50813567ffffffffffffffff811115610f0f57600080fd5b602083019150836020828501011115610f2757600080fd5b9250929050565b60008060008060008060808789031215610f4757600080fd5b863561ffff81168114610f5957600080fd5b9550602087013567ffffffffffffffff80821115610f7657600080fd5b610f828a838b01610ee5565b9097509550604089013591508082168214610f9c57600080fd5b90935060608801359080821115610fb257600080fd5b50610fbf89828a01610ee5565b979a9699509497509295939492505050565b73ffffffffffffffffffffffffffffffffffffffff81168114610ff357600080fd5b50565b600080600080600080600060c0888a03121561101157600080fd5b8735965060208801359550604088013563ffffffff8116811461103357600080fd5b9450606088013561104381610fd1565b93506080880135925060a088013567ffffffffffffffff81111561106657600080fd5b6110728a828b01610ee5565b989b979a50959850939692959293505050565b60006020828403121561109757600080fd5b81356110a281610fd1565b9392505050565b7f4e487b7100000000000000000000000000000000000000000000000000000000600052604160045260246000fd5b6000602082840312156110ea57600080fd5b813567ffffffffffffffff8082111561110257600080fd5b818401915084601f83011261111657600080fd5b813581811115611128576111286110a9565b604051601f82017fffffffffffffffffffffffffffffffffffffffffffffffffffffffffffffffe0908116603f0116810190838211818310171561116e5761116e6110a9565b8160405282815287602084870101111561118757600080fd5b826020860160208301376000928101602001929092525095945050505050565b6000806000604084860312156111bc57600080fd5b83356111c781610fd1565b9250602084013567ffffffffffffffff8111156111e357600080fd5b6111ef86828701610ee5565b9497909650939450505050565b8183528181602085013750600060208284010152600060207fffffffffffffffffffffffffffffffffffffffffffffffffffffffffffffffe0601f840116840101905092915050565b6020815260006112596020830184866111fc565b949350505050565b60058110611298577f4e487b7100000000000000000000000000000000000000000000000000000000600052602160045260246000fd5b9052565b606081016112aa8286611261565b8360208301526112596040830184611261565b6000602082840312156112cf57600080fd5b5051919050565b7f4e487b7100000000000000000000000000000000000000000000000000000000600052601160045260246000fd5b6000817fffffffffffffffffffffffffffffffffffffffffffffffffffffffffffffffff048311821515161561133d5761133d6112d6565b500290565b60008219821115611355576113556112d6565b500190565b6000815180845260005b8181101561138057602081850181015186830182015201611364565b81811115611392576000602083870101525b50601f017fffffffffffffffffffffffffffffffffffffffffffffffffffffffffffffffe0169290920160200192915050565b61ffff8816815260c0602082015260006113e260c083018961135a565b82810360408401526113f581888a6111fc565b73ffffffffffffffffffffffffffffffffffffffff87811660608601528616608085015283810360a0850152905061142d818561135a565b9a9950505050505050505050565b60008060006060848603121561145057600080fd5b835161145b81610fd1565b602085015190935061146c81610fd1565b604085015190925061147d81610fd1565b80915050925092509256fea164736f6c634300080d000a",
  "devdoc": {
    "author": "https://github.com/holographxyz",
    "details": "This contract abstracts all of the LayerZero specific logic into an isolated module",
    "kind": "dev",
    "methods": {
      "constructor": {
        "details": "Constructor is left empty and init is used instead"
      },
      "getBridge()": {
        "details": "Used for beaming holographable assets cross-chain"
      },
      "getInterfaces()": {
        "details": "Holograph uses this contract to store data that needs to be accessed by a large portion of the modules"
      },
      "getLZEndpoint()": {
        "details": "All lzReceive function calls allow only requests from this address"
      },
      "getOperator()": {
        "details": "All cross-chain Holograph Bridge beams are handled by the Holograph Operator module"
      },
      "init(bytes)": {
        "details": "This function is called by the deployer/factory when creating a contract",
        "params": {
          "initPayload": "abi encoded payload to use for contract initilaization"
        }
      },
      "lzReceive(uint16,bytes,uint64,bytes)": {
        "details": "This function only allows calls from the configured LayerZero endpoint address"
      },
      "send(uint256,uint256,uint32,address,uint256,bytes)": {
        "details": "Need to add an extra function to get LZ gas amount needed for their internal cross-chain message verification"
      },
      "setBridge(address)": {
        "params": {
          "bridge": "address of the Holograph Bridge smart contract to use"
        }
      },
      "setInterfaces(address)": {
        "params": {
          "interfaces": "address of the Holograph Interfaces smart contract to use"
        }
      },
      "setLZEndpoint(address)": {
        "params": {
          "lZEndpoint": "address of the LayerZero Endpoint to use"
        }
      },
      "setOperator(address)": {
        "params": {
          "operator": "address of the Holograph Operator smart contract to use"
        }
      }
    },
    "stateVariables": {
      "_bridgeSlot": {
        "details": "bytes32(uint256(keccak256('eip1967.Holograph.bridge')) - 1)"
      },
      "_interfacesSlot": {
        "details": "bytes32(uint256(keccak256('eip1967.Holograph.interfaces')) - 1)"
      },
      "_lZEndpointSlot": {
        "details": "bytes32(uint256(keccak256('eip1967.Holograph.lZEndpoint')) - 1)"
      },
      "_operatorSlot": {
        "details": "bytes32(uint256(keccak256('eip1967.Holograph.operator')) - 1)"
      }
    },
    "title": "Holograph LayerZero Module",
    "version": 1
  },
  "userdoc": {
    "kind": "user",
    "methods": {
      "getBridge()": {
        "notice": "Get the address of the Holograph Bridge module"
      },
      "getInterfaces()": {
        "notice": "Get the address of the Holograph Interfaces module"
      },
      "getLZEndpoint()": {
        "notice": "Get the address of the approved LayerZero Endpoint"
      },
      "getOperator()": {
        "notice": "Get the address of the Holograph Operator module"
      },
      "init(bytes)": {
        "notice": "Used internally to initialize the contract instead of through a constructor"
      },
      "lzReceive(uint16,bytes,uint64,bytes)": {
        "notice": "Receive cross-chain message from LayerZero"
      },
      "setBridge(address)": {
        "notice": "Update the Holograph Bridge module address"
      },
      "setInterfaces(address)": {
        "notice": "Update the Holograph Interfaces module address"
      },
      "setLZEndpoint(address)": {
        "notice": "Update the approved LayerZero Endpoint address"
      },
      "setOperator(address)": {
        "notice": "Update the Holograph Operator module address"
      }
    },
    "notice": "Holograph module for enabling LayerZero cross-chain messaging",
    "version": 1
  },
  "storageLayout": {
    "storage": [],
    "types": null
  }
}