{
  "address": "0xb7F0734Db588e69e66614cE017ddF6dB87E2b108",
  "abi": [
    {
      "type": "constructor",
      "inputs": [],
      "stateMutability": "nonpayable"
    },
    {
      "type": "fallback",
      "stateMutability": "payable"
    },
    {
      "type": "receive",
      "stateMutability": "payable"
    },
    {
      "type": "function",
      "name": "afterBurn",
      "inputs": [
        {
          "name": "",
          "type": "address",
          "internalType": "address"
        },
        {
          "name": "_tokenId",
          "type": "uint256",
          "internalType": "uint256"
        }
      ],
      "outputs": [
        {
          "name": "",
          "type": "bool",
          "internalType": "bool"
        }
      ],
      "stateMutability": "nonpayable"
    },
    {
      "type": "function",
      "name": "bridgeIn",
      "inputs": [
        {
          "name": "",
          "type": "uint32",
          "internalType": "uint32"
        },
        {
          "name": "",
          "type": "address",
          "internalType": "address"
        },
        {
          "name": "",
          "type": "address",
          "internalType": "address"
        },
        {
          "name": "_tokenId",
          "type": "uint256",
          "internalType": "uint256"
        },
        {
          "name": "_data",
          "type": "bytes",
          "internalType": "bytes"
        }
      ],
      "outputs": [
        {
          "name": "",
          "type": "bool",
          "internalType": "bool"
        }
      ],
      "stateMutability": "nonpayable"
    },
    {
      "type": "function",
      "name": "bridgeOut",
      "inputs": [
        {
          "name": "",
          "type": "uint32",
          "internalType": "uint32"
        },
        {
          "name": "",
          "type": "address",
          "internalType": "address"
        },
        {
          "name": "",
          "type": "address",
          "internalType": "address"
        },
        {
          "name": "_tokenId",
          "type": "uint256",
          "internalType": "uint256"
        }
      ],
      "outputs": [
        {
          "name": "_data",
          "type": "bytes",
          "internalType": "bytes"
        }
      ],
      "stateMutability": "view"
    },
    {
      "type": "function",
      "name": "init",
      "inputs": [
        {
          "name": "initPayload",
          "type": "bytes",
          "internalType": "bytes"
        }
      ],
      "outputs": [
        {
          "name": "",
          "type": "bytes4",
          "internalType": "bytes4"
        }
      ],
      "stateMutability": "nonpayable"
    },
    {
      "type": "function",
      "name": "isOwner",
      "inputs": [
        {
          "name": "wallet",
          "type": "address",
          "internalType": "address"
        }
      ],
      "outputs": [
        {
          "name": "",
          "type": "bool",
          "internalType": "bool"
        }
      ],
      "stateMutability": "view"
    },
    {
      "type": "function",
      "name": "isOwner",
      "inputs": [],
      "outputs": [
        {
          "name": "",
          "type": "bool",
          "internalType": "bool"
        }
      ],
      "stateMutability": "view"
    },
    {
      "type": "function",
      "name": "mint",
      "inputs": [
        {
          "name": "tokenId",
          "type": "uint224",
          "internalType": "uint224"
        },
        {
          "name": "uriType",
          "type": "uint8",
          "internalType": "enum TokenUriType"
        },
        {
          "name": "tokenUri",
          "type": "string",
          "internalType": "string"
        }
      ],
      "outputs": [],
      "stateMutability": "nonpayable"
    },
    {
      "type": "function",
      "name": "owner",
      "inputs": [],
      "outputs": [
        {
          "name": "",
          "type": "address",
          "internalType": "address"
        }
      ],
      "stateMutability": "view"
    },
    {
      "type": "function",
      "name": "supportsInterface",
      "inputs": [
        {
          "name": "",
          "type": "bytes4",
          "internalType": "bytes4"
        }
      ],
      "outputs": [
        {
          "name": "",
          "type": "bool",
          "internalType": "bool"
        }
      ],
      "stateMutability": "pure"
    },
    {
      "type": "function",
      "name": "tokenURI",
      "inputs": [
        {
          "name": "_tokenId",
          "type": "uint256",
          "internalType": "uint256"
        }
      ],
      "outputs": [
        {
          "name": "",
          "type": "string",
          "internalType": "string"
        }
      ],
      "stateMutability": "view"
    },
    {
      "type": "function",
      "name": "withdraw",
      "inputs": [],
      "outputs": [],
      "stateMutability": "nonpayable"
    },
    {
      "type": "event",
      "name": "FundsReceived",
      "inputs": [
        {
          "name": "source",
          "type": "address",
          "indexed": true,
          "internalType": "address"
        },
        {
          "name": "amount",
          "type": "uint256",
          "indexed": false,
          "internalType": "uint256"
        }
      ],
      "anonymous": false
    }
  ],
  "transactionHash": "0xa683a0be1321c5f86ac52288f2b8b106f2740fc2f4770df0e36f5d3e67dbbf54",
  "args": [],
  "numDeployments": 1,
  "bytecode": {
    "object": "0x608060405234801561001057600080fd5b50611f33806100206000396000f3fe6080604052600436106100c05760003560e01c80638b1465c611610074578063971c34b41161004e578063971c34b4146102b4578063c87b56dd146102d4578063f0f54073146102f45761011e565b80638b1465c6146102385780638da5cb5b146102655780638f32d59b1461029f5761011e565b80633ccfd60b116100a55780633ccfd60b146101b25780634ddf47d4146101c75780638a91df95146102185761011e565b806301ffc9a71461015c5780632f54bf6e146101925761011e565b3661011e576100cd610314565b73ffffffffffffffffffffffffffffffffffffffff167f8e47b87b0ef542cdfa1659c551d88bad38aa7f452d2bbb349ab7530dfec8be8f3460405161011491815260200190565b60405180910390a2005b337fe9fcff60011c1a99f7b7244d1f2d9da93d79ea8ef3654ce590d775575255b2bd54146001811461014f57600080fd5b600160805260206080f35b005b34801561016857600080fd5b5061017d6101773660046116e2565b50600090565b60405190151581526020015b60405180910390f35b34801561019e57600080fd5b5061017d6101ad366004611746565b610373565b3480156101be57600080fd5b5061015a6103d2565b3480156101d357600080fd5b506101e76101e2366004611865565b6104fc565b6040517fffffffff000000000000000000000000000000000000000000000000000000009091168152602001610189565b34801561022457600080fd5b5061015a61023336600461190e565b610594565b34801561024457600080fd5b506102586102533660046119a6565b610c35565b6040516101899190611a6f565b34801561027157600080fd5b5061027a610d6e565b60405173ffffffffffffffffffffffffffffffffffffffff9091168152602001610189565b3480156102ab57600080fd5b5061017d610d9d565b3480156102c057600080fd5b5061017d6102cf366004611a82565b610e01565b3480156102e057600080fd5b506102586102ef366004611aae565b610f24565b34801561030057600080fd5b5061017d61030f366004611ac7565b6111f7565b60007fe9fcff60011c1a99f7b7244d1f2d9da93d79ea8ef3654ce590d775575255b2bd5433146000811461036b5750507fffffffffffffffffffffffffffffffffffffffffffffffffffffffffffffffe036013590565b3391505b5090565b600061039d7fb56711ba6bd3ded7639fc335ee7524fe668a79d7558c85992e3f8494cf7727775490565b73ffffffffffffffffffffffffffffffffffffffff168273ffffffffffffffffffffffffffffffffffffffff16149050919050565b7fb56711ba6bd3ded7639fc335ee7524fe668a79d7558c85992e3f8494cf7727775473ffffffffffffffffffffffffffffffffffffffff16610412610314565b73ffffffffffffffffffffffffffffffffffffffff1614610494576040517f08c379a000000000000000000000000000000000000000000000000000000000815260206004820152601b60248201527f4552433732313a206f776e6572206f6e6c792066756e6374696f6e000000000060448201526064015b60405180910390fd5b7fb56711ba6bd3ded7639fc335ee7524fe668a79d7558c85992e3f8494cf7727775460405173ffffffffffffffffffffffffffffffffffffffff909116904780156108fc02916000818181858888f193505050501580156104f9573d6000803e3d6000fd5b50565b600080547fffffff00ffffffffffffffffffffffffffffffffffffffffffffffffffffffff167c01000000000000000000000000000000000000000000000000000000001781558151819061055a9060209085018101908501611b79565b9050610584817fb56711ba6bd3ded7639fc335ee7524fe668a79d7558c85992e3f8494cf77277755565b61058d8361137d565b9392505050565b7fe9fcff60011c1a99f7b7244d1f2d9da93d79ea8ef3654ce590d775575255b2bd5473ffffffffffffffffffffffffffffffffffffffff163373ffffffffffffffffffffffffffffffffffffffff161461064a576040517f08c379a000000000000000000000000000000000000000000000000000000000815260206004820152601860248201527f4552433732313a20686f6c6f67726170686572206f6e6c790000000000000000604482015260640161048b565b7fb56711ba6bd3ded7639fc335ee7524fe668a79d7558c85992e3f8494cf7727775473ffffffffffffffffffffffffffffffffffffffff1661068a610314565b73ffffffffffffffffffffffffffffffffffffffff1614610707576040517f08c379a000000000000000000000000000000000000000000000000000000000815260206004820152601b60248201527f4552433732313a206f776e6572206f6e6c792066756e6374696f6e0000000000604482015260640161048b565b60006107317fe9fcff60011c1a99f7b7244d1f2d9da93d79ea8ef3654ce590d775575255b2bd5490565b905060008173ffffffffffffffffffffffffffffffffffffffff166377dbd8636040518163ffffffff1660e01b8152600401602060405180830381865afa158015610780573d6000803e3d6000fd5b505050506040513d601f19601f820116820180604052508101906107a49190611b96565b9050857bffffffffffffffffffffffffffffffffffffffffffffffffffffffff16600003610a5357600080546001919081906107ff9084907bffffffffffffffffffffffffffffffffffffffffffffffffffffffff16611bde565b92506101000a8154817bffffffffffffffffffffffffffffffffffffffffffffffffffffffff02191690837bffffffffffffffffffffffffffffffffffffffffffffffffffffffff1602179055505b60005473ffffffffffffffffffffffffffffffffffffffff831690634f558e7990610897907bffffffffffffffffffffffffffffffffffffffffffffffffffffffff1684611c1e565b6040518263ffffffff1660e01b81526004016108b591815260200190565b602060405180830381865afa1580156108d2573d6000803e3d6000fd5b505050506040513d601f19601f820116820180604052508101906108f69190611c36565b806109a4575060005473ffffffffffffffffffffffffffffffffffffffff8316906323250cae90610945907bffffffffffffffffffffffffffffffffffffffffffffffffffffffff1684611c1e565b6040518263ffffffff1660e01b815260040161096391815260200190565b602060405180830381865afa158015610980573d6000803e3d6000fd5b505050506040513d601f19601f820116820180604052508101906109a49190611c36565b15610a2f57600080546001919081906109dc9084907bffffffffffffffffffffffffffffffffffffffffffffffffffffffff16611bde565b92506101000a8154817bffffffffffffffffffffffffffffffffffffffffffffffffffffffff02191690837bffffffffffffffffffffffffffffffffffffffffffffffffffffffff16021790555061084e565b6000547bffffffffffffffffffffffffffffffffffffffffffffffffffffffff1695505b8173ffffffffffffffffffffffffffffffffffffffff16633b4f1b26610a77610314565b6040517fffffffff0000000000000000000000000000000000000000000000000000000060e084901b16815273ffffffffffffffffffffffffffffffffffffffff90911660048201527bffffffffffffffffffffffffffffffffffffffffffffffffffffffff89166024820152604401600060405180830381600087803b158015610b0157600080fd5b505af1158015610b15573d6000803e3d6000fd5b505050506000867bffffffffffffffffffffffffffffffffffffffffffffffffffffffff1682610b459190611c1e565b90506000866003811115610b5b57610b5b611b4a565b03610b89576000547c0100000000000000000000000000000000000000000000000000000000900460ff1695505b6000818152600160208190526040909120805488927fffffffffffffffffffffffffffffffffffffffffffffffffffffffffffffff0090911690836003811115610bd557610bd5611b4a565b021790555060008181526002602052604081208691869190896003811115610bff57610bff611b4a565b6003811115610c1057610c10611b4a565b81526020019081526020016000209190610c2b929190611581565b5050505050505050565b6060610c5f7fe9fcff60011c1a99f7b7244d1f2d9da93d79ea8ef3654ce590d775575255b2bd5490565b73ffffffffffffffffffffffffffffffffffffffff163373ffffffffffffffffffffffffffffffffffffffff1614610cf3576040517f08c379a000000000000000000000000000000000000000000000000000000000815260206004820152601860248201527f4552433732313a20686f6c6f67726170686572206f6e6c790000000000000000604482015260640161048b565b6000610cfe83611524565b6000848152600260205260408120919250829190826003811115610d2457610d24611b4a565b6003811115610d3557610d35611b4a565b8152602001908152602001600020604051602001610d54929190611ce6565b604051602081830303815290604052915050949350505050565b6000610d987fb56711ba6bd3ded7639fc335ee7524fe668a79d7558c85992e3f8494cf7727775490565b905090565b6000610dc77fb56711ba6bd3ded7639fc335ee7524fe668a79d7558c85992e3f8494cf7727775490565b73ffffffffffffffffffffffffffffffffffffffff16610de5610314565b73ffffffffffffffffffffffffffffffffffffffff1614905090565b6000610e2b7fe9fcff60011c1a99f7b7244d1f2d9da93d79ea8ef3654ce590d775575255b2bd5490565b73ffffffffffffffffffffffffffffffffffffffff163373ffffffffffffffffffffffffffffffffffffffff1614610ebf576040517f08c379a000000000000000000000000000000000000000000000000000000000815260206004820152601860248201527f4552433732313a20686f6c6f67726170686572206f6e6c790000000000000000604482015260640161048b565b6000610eca83611524565b6000848152600260205260408120919250826003811115610eed57610eed611b4a565b6003811115610efe57610efe611b4a565b81526020019081526020016000206000610f18919061161f565b60019150505b92915050565b6060610f4e7fe9fcff60011c1a99f7b7244d1f2d9da93d79ea8ef3654ce590d775575255b2bd5490565b73ffffffffffffffffffffffffffffffffffffffff163373ffffffffffffffffffffffffffffffffffffffff1614610fe2576040517f08c379a000000000000000000000000000000000000000000000000000000000815260206004820152601860248201527f4552433732313a20686f6c6f67726170686572206f6e6c790000000000000000604482015260640161048b565b6000610fed83611524565b90506110177fe9fcff60011c1a99f7b7244d1f2d9da93d79ea8ef3654ce590d775575255b2bd5490565b73ffffffffffffffffffffffffffffffffffffffff16634827ae0c6040518163ffffffff1660e01b8152600401602060405180830381865afa158015611061573d6000803e3d6000fd5b505050506040513d601f19601f820116820180604052508101906110859190611b79565b73ffffffffffffffffffffffffffffffffffffffff1663ebac15f96040518163ffffffff1660e01b8152600401602060405180830381865afa1580156110cf573d6000803e3d6000fd5b505050506040513d601f19601f820116820180604052508101906110f39190611b79565b73ffffffffffffffffffffffffffffffffffffffff16630a2bb379826040518263ffffffff1660e01b815260040161112b9190611d98565b600060405180830381865afa158015611148573d6000803e3d6000fd5b505050506040513d6000823e601f3d9081017fffffffffffffffffffffffffffffffffffffffffffffffffffffffffffffffe016820160405261118e9190810190611da6565b6000848152600260205260408120908360038111156111af576111af611b4a565b60038111156111c0576111c0611b4a565b81526020019081526020016000206040516020016111df929190611e1d565b6040516020818303038152906040529150505b919050565b60006112217fe9fcff60011c1a99f7b7244d1f2d9da93d79ea8ef3654ce590d775575255b2bd5490565b73ffffffffffffffffffffffffffffffffffffffff163373ffffffffffffffffffffffffffffffffffffffff16146112b5576040517f08c379a000000000000000000000000000000000000000000000000000000000815260206004820152601860248201527f4552433732313a20686f6c6f67726170686572206f6e6c790000000000000000604482015260640161048b565b6000806112c484860186611ec4565b6000888152600160208190526040909120805493955091935084927fffffffffffffffffffffffffffffffffffffffffffffffffffffffffffffff00169083600381111561131457611314611b4a565b02179055506000868152600260205260408120829184600381111561133b5761133b611b4a565b600381111561134c5761134c611b4a565b8152602001908152602001600020908051906020019061136d929190611659565b5060019998505050505050505050565b60006113a77f4e5f991bca30eca2d4643aaefa807e88f96a4a97398933d572a3c0d973004a015490565b1561140e576040517f08c379a000000000000000000000000000000000000000000000000000000000815260206004820152601b60248201527f4552433732313a20616c726561647920696e697469616c697a65640000000000604482015260640161048b565b337fe9fcff60011c1a99f7b7244d1f2d9da93d79ea8ef3654ce590d775575255b2bd8190557fb56711ba6bd3ded7639fc335ee7524fe668a79d7558c85992e3f8494cf7727775473ffffffffffffffffffffffffffffffffffffffff81166114d2576040517f08c379a000000000000000000000000000000000000000000000000000000000815260206004820152601860248201527f484f4c4f47524150483a206f776e6572206e6f74207365740000000000000000604482015260640161048b565b6114fb60017f4e5f991bca30eca2d4643aaefa807e88f96a4a97398933d572a3c0d973004a0155565b507f4ddf47d4000000000000000000000000000000000000000000000000000000009392505050565b60008181526001602052604081205460ff168181600381111561154957611549611b4a565b14611554578061058d565b50506000547c0100000000000000000000000000000000000000000000000000000000900460ff16919050565b82805461158d90611c93565b90600052602060002090601f0160209004810192826115af5760008555611613565b82601f106115e6578280017fffffffffffffffffffffffffffffffffffffffffffffffffffffffffffffff00823516178555611613565b82800160010185558215611613579182015b828111156116135782358255916020019190600101906115f8565b5061036f9291506116cd565b50805461162b90611c93565b6000825580601f1061163b575050565b601f0160209004906000526020600020908101906104f991906116cd565b82805461166590611c93565b90600052602060002090601f0160209004810192826116875760008555611613565b82601f106116a057805160ff1916838001178555611613565b82800160010185558215611613579182015b828111156116135782518255916020019190600101906116b2565b5b8082111561036f57600081556001016116ce565b6000602082840312156116f457600080fd5b81357fffffffff000000000000000000000000000000000000000000000000000000008116811461058d57600080fd5b73ffffffffffffffffffffffffffffffffffffffff811681146104f957600080fd5b60006020828403121561175857600080fd5b813561058d81611724565b7f4e487b7100000000000000000000000000000000000000000000000000000000600052604160045260246000fd5b604051601f82017fffffffffffffffffffffffffffffffffffffffffffffffffffffffffffffffe016810167ffffffffffffffff811182821017156117d9576117d9611763565b604052919050565b600067ffffffffffffffff8211156117fb576117fb611763565b50601f017fffffffffffffffffffffffffffffffffffffffffffffffffffffffffffffffe01660200190565b600061183a611835846117e1565b611792565b905082815283838301111561184e57600080fd5b828260208301376000602084830101529392505050565b60006020828403121561187757600080fd5b813567ffffffffffffffff81111561188e57600080fd5b8201601f8101841361189f57600080fd5b6118ae84823560208401611827565b949350505050565b8035600481106111f257600080fd5b60008083601f8401126118d757600080fd5b50813567ffffffffffffffff8111156118ef57600080fd5b60208301915083602082850101111561190757600080fd5b9250929050565b6000806000806060858703121561192457600080fd5b84357bffffffffffffffffffffffffffffffffffffffffffffffffffffffff8116811461195057600080fd5b935061195e602086016118b6565b9250604085013567ffffffffffffffff81111561197a57600080fd5b611986878288016118c5565b95989497509550505050565b803563ffffffff811681146111f257600080fd5b600080600080608085870312156119bc57600080fd5b6119c585611992565b935060208501356119d581611724565b925060408501356119e581611724565b9396929550929360600135925050565b60005b83811015611a105781810151838201526020016119f8565b83811115611a1f576000848401525b50505050565b60008151808452611a3d8160208601602086016119f5565b601f017fffffffffffffffffffffffffffffffffffffffffffffffffffffffffffffffe0169290920160200192915050565b60208152600061058d6020830184611a25565b60008060408385031215611a9557600080fd5b8235611aa081611724565b946020939093013593505050565b600060208284031215611ac057600080fd5b5035919050565b60008060008060008060a08789031215611ae057600080fd5b611ae987611992565b95506020870135611af981611724565b94506040870135611b0981611724565b935060608701359250608087013567ffffffffffffffff811115611b2c57600080fd5b611b3889828a016118c5565b979a9699509497509295939492505050565b7f4e487b7100000000000000000000000000000000000000000000000000000000600052602160045260246000fd5b600060208284031215611b8b57600080fd5b815161058d81611724565b600060208284031215611ba857600080fd5b5051919050565b7f4e487b7100000000000000000000000000000000000000000000000000000000600052601160045260246000fd5b60007bffffffffffffffffffffffffffffffffffffffffffffffffffffffff808316818516808303821115611c1557611c15611baf565b01949350505050565b60008219821115611c3157611c31611baf565b500190565b600060208284031215611c4857600080fd5b8151801515811461058d57600080fd5b60048110611c8f577f4e487b7100000000000000000000000000000000000000000000000000000000600052602160045260246000fd5b9052565b600181811c90821680611ca757607f821691505b602082108103611ce0577f4e487b7100000000000000000000000000000000000000000000000000000000600052602260045260246000fd5b50919050565b611cf08184611c58565b6000602060408184015260008454611d0781611c93565b8060408701526060600180841660008114611d295760018114611d5b57611d89565b7fffffffffffffffffffffffffffffffffffffffffffffffffffffffffffffff008516838a0152608089019550611d89565b896000528660002060005b85811015611d815781548b8201860152908301908801611d66565b8a0184019650505b50939998505050505050505050565b60208101610f1e8284611c58565b600060208284031215611db857600080fd5b815167ffffffffffffffff811115611dcf57600080fd5b8201601f81018413611de057600080fd5b8051611dee611835826117e1565b818152856020838501011115611e0357600080fd5b611e148260208301602086016119f5565b95945050505050565b600083516020611e3082858389016119f5565b818401915060008554611e4281611c93565b60018281168015611e5a5760018114611e8957611eb5565b7fffffffffffffffffffffffffffffffffffffffffffffffffffffffffffffff00841687528287019450611eb5565b896000528560002060005b84811015611ead57815489820152908301908701611e94565b505082870194505b50929998505050505050505050565b60008060408385031215611ed757600080fd5b611ee0836118b6565b9150602083013567ffffffffffffffff811115611efc57600080fd5b8301601f81018513611f0d57600080fd5b611f1c85823560208401611827565b915050925092905056fea164736f6c634300080d000a",
    "linkReferences": {}
  },
  "methodIdentifiers": {
    "afterBurn(address,uint256)": "971c34b4",
    "bridgeIn(uint32,address,address,uint256,bytes)": "f0f54073",
    "bridgeOut(uint32,address,address,uint256)": "8b1465c6",
    "init(bytes)": "4ddf47d4",
    "isOwner()": "8f32d59b",
    "isOwner(address)": "2f54bf6e",
    "mint(uint224,uint8,string)": "8a91df95",
    "owner()": "8da5cb5b",
    "supportsInterface(bytes4)": "01ffc9a7",
    "tokenURI(uint256)": "c87b56dd",
    "withdraw()": "3ccfd60b"
  }
}