{
  "address": "0xA1f1070880f963EabdD28FaF001C77fd248FF51F",
  "abi": [
    {
      "type": "constructor",
      "inputs": [],
      "stateMutability": "nonpayable"
    },
    {
      "type": "fallback",
      "stateMutability": "payable"
    },
    {
      "type": "receive",
      "stateMutability": "payable"
    },
    {
      "type": "function",
      "name": "admin",
      "inputs": [],
      "outputs": [
        {
          "name": "",
          "type": "address",
          "internalType": "address"
        }
      ],
      "stateMutability": "view"
    },
    {
      "type": "function",
      "name": "adminCall",
      "inputs": [
        {
          "name": "target",
          "type": "address",
          "internalType": "address"
        },
        {
          "name": "data",
          "type": "bytes",
          "internalType": "bytes"
        }
      ],
      "outputs": [],
      "stateMutability": "payable"
    },
    {
      "type": "function",
      "name": "getAdmin",
      "inputs": [],
      "outputs": [
        {
          "name": "adminAddress",
          "type": "address",
          "internalType": "address"
        }
      ],
      "stateMutability": "view"
    },
    {
      "type": "function",
      "name": "getBridge",
      "inputs": [],
      "outputs": [
        {
          "name": "bridge",
          "type": "address",
          "internalType": "address"
        }
      ],
      "stateMutability": "view"
    },
    {
      "type": "function",
      "name": "getGasParameters",
      "inputs": [
        {
          "name": "chainId",
          "type": "uint32",
          "internalType": "uint32"
        }
      ],
      "outputs": [
        {
          "name": "gasParameters",
          "type": "tuple",
          "internalType": "struct GasParameters",
          "components": [
            {
              "name": "msgBaseGas",
              "type": "uint256",
              "internalType": "uint256"
            },
            {
              "name": "msgGasPerByte",
              "type": "uint256",
              "internalType": "uint256"
            },
            {
              "name": "jobBaseGas",
              "type": "uint256",
              "internalType": "uint256"
            },
            {
              "name": "jobGasPerByte",
              "type": "uint256",
              "internalType": "uint256"
            },
            {
              "name": "minGasPrice",
              "type": "uint256",
              "internalType": "uint256"
            },
            {
              "name": "maxGasLimit",
              "type": "uint256",
              "internalType": "uint256"
            }
          ]
        }
      ],
      "stateMutability": "view"
    },
    {
      "type": "function",
      "name": "getHlgFee",
      "inputs": [
        {
          "name": "toChain",
          "type": "uint32",
          "internalType": "uint32"
        },
        {
          "name": "gasLimit",
          "type": "uint256",
          "internalType": "uint256"
        },
        {
          "name": "gasPrice",
          "type": "uint256",
          "internalType": "uint256"
        },
        {
          "name": "crossChainPayload",
          "type": "bytes",
          "internalType": "bytes"
        }
      ],
      "outputs": [
        {
          "name": "hlgFee",
          "type": "uint256",
          "internalType": "uint256"
        }
      ],
      "stateMutability": "view"
    },
    {
      "type": "function",
      "name": "getInterfaces",
      "inputs": [],
      "outputs": [
        {
          "name": "interfaces",
          "type": "address",
          "internalType": "address"
        }
      ],
      "stateMutability": "view"
    },
    {
      "type": "function",
      "name": "getLZEndpoint",
      "inputs": [],
      "outputs": [
        {
          "name": "lZEndpoint",
          "type": "address",
          "internalType": "address"
        }
      ],
      "stateMutability": "view"
    },
    {
      "type": "function",
      "name": "getMessageFee",
      "inputs": [
        {
          "name": "toChain",
          "type": "uint32",
          "internalType": "uint32"
        },
        {
          "name": "gasLimit",
          "type": "uint256",
          "internalType": "uint256"
        },
        {
          "name": "gasPrice",
          "type": "uint256",
          "internalType": "uint256"
        },
        {
          "name": "crossChainPayload",
          "type": "bytes",
          "internalType": "bytes"
        }
      ],
      "outputs": [
        {
          "name": "hlgFee",
          "type": "uint256",
          "internalType": "uint256"
        },
        {
          "name": "msgFee",
          "type": "uint256",
          "internalType": "uint256"
        },
        {
          "name": "dstGasPrice",
          "type": "uint256",
          "internalType": "uint256"
        }
      ],
      "stateMutability": "view"
    },
    {
      "type": "function",
      "name": "getOperator",
      "inputs": [],
      "outputs": [
        {
          "name": "operator",
          "type": "address",
          "internalType": "address"
        }
      ],
      "stateMutability": "view"
    },
    {
      "type": "function",
      "name": "getOptimismGasPriceOracle",
      "inputs": [],
      "outputs": [
        {
          "name": "optimismGasPriceOracle",
          "type": "address",
          "internalType": "address"
        }
      ],
      "stateMutability": "view"
    },
    {
      "type": "function",
      "name": "init",
      "inputs": [
        {
          "name": "initPayload",
          "type": "bytes",
          "internalType": "bytes"
        }
      ],
      "outputs": [
        {
          "name": "",
          "type": "bytes4",
          "internalType": "bytes4"
        }
      ],
      "stateMutability": "nonpayable"
    },
    {
      "type": "function",
      "name": "lzReceive",
      "inputs": [
        {
          "name": "",
          "type": "uint16",
          "internalType": "uint16"
        },
        {
          "name": "_srcAddress",
          "type": "bytes",
          "internalType": "bytes"
        },
        {
          "name": "",
          "type": "uint64",
          "internalType": "uint64"
        },
        {
          "name": "_payload",
          "type": "bytes",
          "internalType": "bytes"
        }
      ],
      "outputs": [],
      "stateMutability": "payable"
    },
    {
      "type": "function",
      "name": "send",
      "inputs": [
        {
          "name": "",
          "type": "uint256",
          "internalType": "uint256"
        },
        {
          "name": "",
          "type": "uint256",
          "internalType": "uint256"
        },
        {
          "name": "toChain",
          "type": "uint32",
          "internalType": "uint32"
        },
        {
          "name": "msgSender",
          "type": "address",
          "internalType": "address"
        },
        {
          "name": "msgValue",
          "type": "uint256",
          "internalType": "uint256"
        },
        {
          "name": "crossChainPayload",
          "type": "bytes",
          "internalType": "bytes"
        }
      ],
      "outputs": [],
      "stateMutability": "payable"
    },
    {
      "type": "function",
      "name": "setAdmin",
      "inputs": [
        {
          "name": "adminAddress",
          "type": "address",
          "internalType": "address"
        }
      ],
      "outputs": [],
      "stateMutability": "nonpayable"
    },
    {
      "type": "function",
      "name": "setBridge",
      "inputs": [
        {
          "name": "bridge",
          "type": "address",
          "internalType": "address"
        }
      ],
      "outputs": [],
      "stateMutability": "nonpayable"
    },
    {
      "type": "function",
      "name": "setGasParameters",
      "inputs": [
        {
          "name": "chainIds",
          "type": "uint32[]",
          "internalType": "uint32[]"
        },
        {
          "name": "gasParameters",
          "type": "tuple[]",
          "internalType": "struct GasParameters[]",
          "components": [
            {
              "name": "msgBaseGas",
              "type": "uint256",
              "internalType": "uint256"
            },
            {
              "name": "msgGasPerByte",
              "type": "uint256",
              "internalType": "uint256"
            },
            {
              "name": "jobBaseGas",
              "type": "uint256",
              "internalType": "uint256"
            },
            {
              "name": "jobGasPerByte",
              "type": "uint256",
              "internalType": "uint256"
            },
            {
              "name": "minGasPrice",
              "type": "uint256",
              "internalType": "uint256"
            },
            {
              "name": "maxGasLimit",
              "type": "uint256",
              "internalType": "uint256"
            }
          ]
        }
      ],
      "outputs": [],
      "stateMutability": "nonpayable"
    },
    {
      "type": "function",
      "name": "setGasParameters",
      "inputs": [
        {
          "name": "chainId",
          "type": "uint32",
          "internalType": "uint32"
        },
        {
          "name": "gasParameters",
          "type": "tuple",
          "internalType": "struct GasParameters",
          "components": [
            {
              "name": "msgBaseGas",
              "type": "uint256",
              "internalType": "uint256"
            },
            {
              "name": "msgGasPerByte",
              "type": "uint256",
              "internalType": "uint256"
            },
            {
              "name": "jobBaseGas",
              "type": "uint256",
              "internalType": "uint256"
            },
            {
              "name": "jobGasPerByte",
              "type": "uint256",
              "internalType": "uint256"
            },
            {
              "name": "minGasPrice",
              "type": "uint256",
              "internalType": "uint256"
            },
            {
              "name": "maxGasLimit",
              "type": "uint256",
              "internalType": "uint256"
            }
          ]
        }
      ],
      "outputs": [],
      "stateMutability": "nonpayable"
    },
    {
      "type": "function",
      "name": "setInterfaces",
      "inputs": [
        {
          "name": "interfaces",
          "type": "address",
          "internalType": "address"
        }
      ],
      "outputs": [],
      "stateMutability": "nonpayable"
    },
    {
      "type": "function",
      "name": "setLZEndpoint",
      "inputs": [
        {
          "name": "lZEndpoint",
          "type": "address",
          "internalType": "address"
        }
      ],
      "outputs": [],
      "stateMutability": "nonpayable"
    },
    {
      "type": "function",
      "name": "setOperator",
      "inputs": [
        {
          "name": "operator",
          "type": "address",
          "internalType": "address"
        }
      ],
      "outputs": [],
      "stateMutability": "nonpayable"
    },
    {
      "type": "function",
      "name": "setOptimismGasPriceOracle",
      "inputs": [
        {
          "name": "optimismGasPriceOracle",
          "type": "address",
          "internalType": "address"
        }
      ],
      "outputs": [],
      "stateMutability": "nonpayable"
    }
  ],
  "transactionHash": "0x3ffd66dfde8e2969788b913c49a9554a12dc5859f218403cc1d114c66d743adc",
  "args": [],
  "numDeployments": 2,
  "bytecode": {
    "object": "0x608060405234801561001057600080fd5b50612a74806100206000396000f3fe6080604052600436106101785760003560e01c80638dd14802116100cb578063da8292d91161007f578063f0478d2011610059578063f0478d20146104d7578063f851a4401461050b578063ff1370d91461052057600080fd5b8063da8292d91461044f578063e7f43c681461046f578063ebac15f9146104a357600080fd5b80639ce82792116100b05780639ce82792146103fc578063b3ab15fb1461041c578063bf64a82d1461043c57600080fd5b80638dd14802146103bc578063960a4270146103dc57600080fd5b80634b40f1bf1161012d5780636ec7fad7116101075780636ec7fad714610302578063704b6c021461036e5780638c19a89f1461038e57600080fd5b80634b40f1bf1461025d5780634ddf47d41461027d5780636e9960c3146102ce57600080fd5b80630e95b6501161015e5780630e95b650146101af5780630fffbaf3146101cf57806336c5ab401461022957600080fd5b80621d3567146101875780630a0542ef1461019c57600080fd5b3661018257600080fd5b600080fd5b61019a610195366004611ee2565b61055b565b005b61019a6101aa366004611fb4565b610731565b3480156101bb57600080fd5b5061019a6101ca3660046121d2565b6109f7565b3480156101db57600080fd5b507feb87cbb21687feb327e3d58c6c16d552231d12c7a0e8115042a4165fac8a77f9545b60405173ffffffffffffffffffffffffffffffffffffffff90911681526020015b60405180910390f35b34801561023557600080fd5b507f56825e447adf54cdde5f04815fcf9b1dd26ef9d5c053625147c18b7c13091686546101ff565b34801561026957600080fd5b5061019a610278366004612294565b610b77565b34801561028957600080fd5b5061029d6102983660046122b8565b610c51565b6040517fffffffff000000000000000000000000000000000000000000000000000000009091168152602001610220565b3480156102da57600080fd5b507f3f106594dc74eeef980dae234cde8324dc2497b13d27a0c59e55bd2ca10a07c9546101ff565b34801561030e57600080fd5b5061032261031d36600461236b565b610eaf565b6040516102209190600060c082019050825182526020830151602083015260408301516040830152606083015160608301526080830151608083015260a083015160a083015292915050565b34801561037a57600080fd5b5061019a610389366004612294565b610ef7565b34801561039a57600080fd5b506103ae6103a9366004612388565b610fd1565b604051908152602001610220565b3480156103c857600080fd5b5061019a6103d7366004612294565b611357565b3480156103e857600080fd5b5061019a6103f73660046123f2565b611431565b34801561040857600080fd5b5061019a610417366004612294565b6114f5565b34801561042857600080fd5b5061019a610437366004612294565b6115cf565b61019a61044a366004612428565b6116a9565b34801561045b57600080fd5b5061019a61046a366004612294565b61178b565b34801561047b57600080fd5b507f7caba557ad34138fa3b7e43fb574e0e6cc10481c3073e0dffbc560db81b5c60f546101ff565b3480156104af57600080fd5b507fbd3084b8c09da87ad159c247a60e209784196be2530cecbbd8f337fdd1848827546101ff565b3480156104e357600080fd5b507f46043c284a96474ab4a54c741ea0d0fce54e98eea878b99d4b85808fa6f71a5f546101ff565b34801561051757600080fd5b506101ff611865565b34801561052c57600080fd5b5061054061053b366004612388565b611894565b60408051938452602084019290925290820152606001610220565b7f56825e447adf54cdde5f04815fcf9b1dd26ef9d5c053625147c18b7c13091686543314806105f5577f08c379a0000000000000000000000000000000000000000000000000000000006080527c200000000000000000000000000000000000000000000000000000000060a0527c1b484f4c4f47524150483a204c5a206f6e6c7920656e64706f696e740060c052600060e05260c46080fd5b506040518486600c8301378051301480610699577f08c379a0000000000000000000000000000000000000000000000000000000006080527c200000000000000000000000000000000000000000000000000000000060a0527c1e484f4c4f47524150483a20756e617574686f72697a65642073656e6460c0527f657200000000000000000000000000000000000000000000000000000000000060e05260c46080fd5b50507f7caba557ad34138fa3b7e43fb574e0e6cc10481c3073e0dffbc560db81b5c60f5473ffffffffffffffffffffffffffffffffffffffff1663254e106283836040518363ffffffff1660e01b81526004016106f79291906124c6565b600060405180830381600087803b15801561071157600080fd5b505af1158015610725573d6000803e3d6000fd5b50505050505050505050565b7f7caba557ad34138fa3b7e43fb574e0e6cc10481c3073e0dffbc560db81b5c60f5473ffffffffffffffffffffffffffffffffffffffff163373ffffffffffffffffffffffffffffffffffffffff16146107ec576040517f08c379a000000000000000000000000000000000000000000000000000000000815260206004820152601d60248201527f484f4c4f47524150483a206f70657261746f72206f6e6c792063616c6c00000060448201526064015b60405180910390fd5b7f56825e447adf54cdde5f04815fcf9b1dd26ef9d5c053625147c18b7c1309168654600061081987611c40565b90508173ffffffffffffffffffffffffffffffffffffffff1663c5803100866108607fbd3084b8c09da87ad159c247a60e209784196be2530cecbbd8f337fdd18488275490565b73ffffffffffffffffffffffffffffffffffffffff166320fc06ea60028c63ffffffff1660036040518463ffffffff1660e01b81526004016108a49392919061251d565b602060405180830381865afa1580156108c1573d6000803e3d6000fd5b505050506040513d601f19601f820116820180604052508101906108e5919061253e565b6040517fffffffffffffffffffffffffffffffffffffffff0000000000000000000000003060601b1660208201819052603482015260480160405160208183030381529060405288888c3060018a602001518e8e90506109459190612586565b8b5161095191906125c3565b60405160f09290921b7fffff00000000000000000000000000000000000000000000000000000000000016602083015260228201526042016040516020818303038152906040526040518963ffffffff1660e01b81526004016109ba9796959493929190612646565b6000604051808303818588803b1580156109d357600080fd5b505af11580156109e7573d6000803e3d6000fd5b5050505050505050505050505050565b7f3f106594dc74eeef980dae234cde8324dc2497b13d27a0c59e55bd2ca10a07c95473ffffffffffffffffffffffffffffffffffffffff163373ffffffffffffffffffffffffffffffffffffffff1614610aad576040517f08c379a000000000000000000000000000000000000000000000000000000000815260206004820152601e60248201527f484f4c4f47524150483a2061646d696e206f6e6c792066756e6374696f6e000060448201526064016107e3565b8051825114610b18576040517f08c379a000000000000000000000000000000000000000000000000000000000815260206004820152601e60248201527f484f4c4f47524150483a2077726f6e67206172726179206c656e67746873000060448201526064016107e3565b60005b8251811015610b7257610b60838281518110610b3957610b396126bc565b6020026020010151838381518110610b5357610b536126bc565b6020026020010151611d2a565b80610b6a816126eb565b915050610b1b565b505050565b7f3f106594dc74eeef980dae234cde8324dc2497b13d27a0c59e55bd2ca10a07c95473ffffffffffffffffffffffffffffffffffffffff163373ffffffffffffffffffffffffffffffffffffffff1614610c2d576040517f08c379a000000000000000000000000000000000000000000000000000000000815260206004820152601e60248201527f484f4c4f47524150483a2061646d696e206f6e6c792066756e6374696f6e000060448201526064016107e3565b7f56825e447adf54cdde5f04815fcf9b1dd26ef9d5c053625147c18b7c1309168655565b6000610c7b7f4e5f991bca30eca2d4643aaefa807e88f96a4a97398933d572a3c0d973004a015490565b15610ce2576040517f08c379a000000000000000000000000000000000000000000000000000000000815260206004820152601e60248201527f484f4c4f47524150483a20616c726561647920696e697469616c697a6564000060448201526064016107e3565b60008060008060008087806020019051810190610cff91906127c8565b955095509550955095509550327f3f106594dc74eeef980dae234cde8324dc2497b13d27a0c59e55bd2ca10a07c955857feb87cbb21687feb327e3d58c6c16d552231d12c7a0e8115042a4165fac8a77f955847fbd3084b8c09da87ad159c247a60e209784196be2530cecbbd8f337fdd184882755837f7caba557ad34138fa3b7e43fb574e0e6cc10481c3073e0dffbc560db81b5c60f55827f46043c284a96474ab4a54c741ea0d0fce54e98eea878b99d4b85808fa6f71a5f558051825114610e25576040517f08c379a000000000000000000000000000000000000000000000000000000000815260206004820152601e60248201527f484f4c4f47524150483a2077726f6e67206172726179206c656e67746873000060448201526064016107e3565b60005b8251811015610e5857610e46838281518110610b3957610b396126bc565b80610e50816126eb565b915050610e28565b50610e8260017f4e5f991bca30eca2d4643aaefa807e88f96a4a97398933d572a3c0d973004a0155565b507f4ddf47d400000000000000000000000000000000000000000000000000000000979650505050505050565b610ee86040518060c001604052806000815260200160008152602001600081526020016000815260200160008152602001600081525090565b610ef182611c40565b92915050565b7f3f106594dc74eeef980dae234cde8324dc2497b13d27a0c59e55bd2ca10a07c95473ffffffffffffffffffffffffffffffffffffffff163373ffffffffffffffffffffffffffffffffffffffff1614610fad576040517f08c379a000000000000000000000000000000000000000000000000000000000815260206004820152601e60248201527f484f4c4f47524150483a2061646d696e206f6e6c792066756e6374696f6e000060448201526064016107e3565b7f3f106594dc74eeef980dae234cde8324dc2497b13d27a0c59e55bd2ca10a07c955565b7f56825e447adf54cdde5f04815fcf9b1dd26ef9d5c053625147c18b7c13091686546000908161101f7fbd3084b8c09da87ad159c247a60e209784196be2530cecbbd8f337fdd18488275490565b73ffffffffffffffffffffffffffffffffffffffff166320fc06ea60028a63ffffffff1660036040518463ffffffff1660e01b81526004016110639392919061251d565b602060405180830381865afa158015611080573d6000803e3d6000fd5b505050506040513d601f19601f820116820180604052508101906110a4919061253e565b90506000806110b4612805611dd3565b67ffffffffffffffff1691509150876000036110e057806fffffffffffffffffffffffffffffffff1697505b60006110eb8b611c40565b90508060800151891161115a576040517f08c379a000000000000000000000000000000000000000000000000000000000815260206004820152601c60248201527f484f4c4f47524150483a2067617320707269636520746f6f206c6f770000000060448201526064016107e3565b60608101516111699088612586565b6040820151611178908c6125c3565b61118291906125c3565b995061118f600a8b61290a565b611199908b6125c3565b99508060a001518a10611208576040517f08c379a000000000000000000000000000000000000000000000000000000000815260206004820152601d60248201527f484f4c4f47524150483a20676173206c696d6974206f766572206d617800000060448201526064016107e3565b68056bc75e2d631000006fffffffffffffffffffffffffffffffff841661122f8c8c612586565b6112399190612586565b611243919061290a565b955063ffffffff8b1660071480611263575063ffffffff8b1663ee6b284a145b156113495768056bc75e2d63100000836fffffffffffffffffffffffffffffffff166112ad7f46043c284a96474ab4a54c741ea0d0fce54e98eea878b99d4b85808fa6f71a5f5490565b73ffffffffffffffffffffffffffffffffffffffff166349948e0e8b8b6040518363ffffffff1660e01b81526004016112e79291906124c6565b602060405180830381865afa158015611304573d6000803e3d6000fd5b505050506040513d601f19601f82011682018060405250810190611328919061253e565b6113329190612586565b61133c919061290a565b61134690876125c3565b95505b505050505095945050505050565b7f3f106594dc74eeef980dae234cde8324dc2497b13d27a0c59e55bd2ca10a07c95473ffffffffffffffffffffffffffffffffffffffff163373ffffffffffffffffffffffffffffffffffffffff161461140d576040517f08c379a000000000000000000000000000000000000000000000000000000000815260206004820152601e60248201527f484f4c4f47524150483a2061646d696e206f6e6c792066756e6374696f6e000060448201526064016107e3565b7feb87cbb21687feb327e3d58c6c16d552231d12c7a0e8115042a4165fac8a77f955565b7f3f106594dc74eeef980dae234cde8324dc2497b13d27a0c59e55bd2ca10a07c95473ffffffffffffffffffffffffffffffffffffffff163373ffffffffffffffffffffffffffffffffffffffff16146114e7576040517f08c379a000000000000000000000000000000000000000000000000000000000815260206004820152601e60248201527f484f4c4f47524150483a2061646d696e206f6e6c792066756e6374696f6e000060448201526064016107e3565b6114f18282611d2a565b5050565b7f3f106594dc74eeef980dae234cde8324dc2497b13d27a0c59e55bd2ca10a07c95473ffffffffffffffffffffffffffffffffffffffff163373ffffffffffffffffffffffffffffffffffffffff16146115ab576040517f08c379a000000000000000000000000000000000000000000000000000000000815260206004820152601e60248201527f484f4c4f47524150483a2061646d696e206f6e6c792066756e6374696f6e000060448201526064016107e3565b7f46043c284a96474ab4a54c741ea0d0fce54e98eea878b99d4b85808fa6f71a5f55565b7f3f106594dc74eeef980dae234cde8324dc2497b13d27a0c59e55bd2ca10a07c95473ffffffffffffffffffffffffffffffffffffffff163373ffffffffffffffffffffffffffffffffffffffff1614611685576040517f08c379a000000000000000000000000000000000000000000000000000000000815260206004820152601e60248201527f484f4c4f47524150483a2061646d696e206f6e6c792066756e6374696f6e000060448201526064016107e3565b7f7caba557ad34138fa3b7e43fb574e0e6cc10481c3073e0dffbc560db81b5c60f55565b7f3f106594dc74eeef980dae234cde8324dc2497b13d27a0c59e55bd2ca10a07c95473ffffffffffffffffffffffffffffffffffffffff163373ffffffffffffffffffffffffffffffffffffffff161461175f576040517f08c379a000000000000000000000000000000000000000000000000000000000815260206004820152601e60248201527f484f4c4f47524150483a2061646d696e206f6e6c792066756e6374696f6e000060448201526064016107e3565b808260003760008082600034875af13d6000803e80801561177f573d6000f35b3d6000fd5b5050505050565b7f3f106594dc74eeef980dae234cde8324dc2497b13d27a0c59e55bd2ca10a07c95473ffffffffffffffffffffffffffffffffffffffff163373ffffffffffffffffffffffffffffffffffffffff1614611841576040517f08c379a000000000000000000000000000000000000000000000000000000000815260206004820152601e60248201527f484f4c4f47524150483a2061646d696e206f6e6c792066756e6374696f6e000060448201526064016107e3565b7fbd3084b8c09da87ad159c247a60e209784196be2530cecbbd8f337fdd184882755565b600061188f7f3f106594dc74eeef980dae234cde8324dc2497b13d27a0c59e55bd2ca10a07c95490565b905090565b60008080736098e96a28e02f27b1e6bd381f870f1c8bd169d381806118ba612805611dd3565b67ffffffffffffffff1691509150886000036118e657806fffffffffffffffffffffffffffffffff1698505b60006118f18c611c40565b905080608001518a11611960576040517f08c379a000000000000000000000000000000000000000000000000000000000815260206004820152601c60248201527f484f4c4f47524150483a2067617320707269636520746f6f206c6f770000000060448201526064016107e3565b6060810151600090611972908a612586565b6040830151611981908e6125c3565b61198b91906125c3565b9050611998600a8261290a565b6119a290826125c3565b90508160a001518110611a11576040517f08c379a000000000000000000000000000000000000000000000000000000000815260206004820152601d60248201527f484f4c4f47524150483a20676173206c696d6974206f766572206d617800000060448201526064016107e3565b6040517f88a4124c0000000000000000000000000000000000000000000000000000000081526128056004820152602481018a90526044810182905260009073ffffffffffffffffffffffffffffffffffffffff8716906388a4124c90606401608060405180830381865afa158015611a8e573d6000803e3d6000fd5b505050506040513d601f19601f82011682018060405250810190611ab29190612943565b505050905068056bc75e2d63100000856fffffffffffffffffffffffffffffffff16838e611ae09190612586565b611aea9190612586565b611af4919061290a565b985063ffffffff8e1660071480611b14575063ffffffff8e1663ee6b284a145b15611bfa5768056bc75e2d63100000856fffffffffffffffffffffffffffffffff16611b5e7f46043c284a96474ab4a54c741ea0d0fce54e98eea878b99d4b85808fa6f71a5f5490565b73ffffffffffffffffffffffffffffffffffffffff166349948e0e8e8e6040518363ffffffff1660e01b8152600401611b989291906124c6565b602060405180830381865afa158015611bb5573d6000803e3d6000fd5b505050506040513d601f19601f82011682018060405250810190611bd9919061253e565b611be39190612586565b611bed919061290a565b611bf7908a6125c3565b98505b96508668056bc75e2d63100000611c118686612990565b611c1b91906129c8565b6fffffffffffffffffffffffffffffffff169650505050505050955095509592505050565b611c796040518060c001604052806000815260200160008152602001600081526020016000815260200160008152602001600081525090565b600063ffffffff831615611cdd576040805163ffffffff851660208201527f15eee82a0af3c04e4b65c3842105c973a6b0fb2a68728bf035809e13b38ce8cf9181019190915260600160405160208183030381529060405280519060200120611cff565b7f15eee82a0af3c04e4b65c3842105c973a6b0fb2a68728bf035809e13b38ce8cf5b90508160005b6006811015611d2257828101548252602090910190600101611d05565b505050919050565b600063ffffffff831615611d8e576040805163ffffffff851660208201527f15eee82a0af3c04e4b65c3842105c973a6b0fb2a68728bf035809e13b38ce8cf9181019190915260600160405160208183030381529060405280519060200120611db0565b7f15eee82a0af3c04e4b65c3842105c973a6b0fb2a68728bf035809e13b38ce8cf5b90508160005b600681101561178457815183820155602090910190600101611db6565b6040517fda26663a00000000000000000000000000000000000000000000000000000000815261ffff821660048201526000908190736098e96a28e02f27b1e6bd381f870f1c8bd169d3908290829063da26663a90602401606060405180830381865afa158015611e48573d6000803e3d6000fd5b505050506040513d601f19601f82011682018060405250810190611e6c91906129f7565b805160209091015190969095509350505050565b60008083601f840112611e9257600080fd5b50813567ffffffffffffffff811115611eaa57600080fd5b602083019150836020828501011115611ec257600080fd5b9250929050565b67ffffffffffffffff81168114611edf57600080fd5b50565b60008060008060008060808789031215611efb57600080fd5b863561ffff81168114611f0d57600080fd5b9550602087013567ffffffffffffffff80821115611f2a57600080fd5b611f368a838b01611e80565b909750955060408901359150611f4b82611ec9565b90935060608801359080821115611f6157600080fd5b50611f6e89828a01611e80565b979a9699509497509295939492505050565b63ffffffff81168114611edf57600080fd5b73ffffffffffffffffffffffffffffffffffffffff81168114611edf57600080fd5b600080600080600080600060c0888a031215611fcf57600080fd5b87359650602088013595506040880135611fe881611f80565b94506060880135611ff881611f92565b93506080880135925060a088013567ffffffffffffffff81111561201b57600080fd5b6120278a828b01611e80565b989b979a50959850939692959293505050565b7f4e487b7100000000000000000000000000000000000000000000000000000000600052604160045260246000fd5b60405160c0810167ffffffffffffffff8111828210171561208c5761208c61203a565b60405290565b604051601f82017fffffffffffffffffffffffffffffffffffffffffffffffffffffffffffffffe016810167ffffffffffffffff811182821017156120d9576120d961203a565b604052919050565b600067ffffffffffffffff8211156120fb576120fb61203a565b5060051b60200190565b600060c0828403121561211757600080fd5b61211f612069565b9050813581526020820135602082015260408201356040820152606082013560608201526080820135608082015260a082013560a082015292915050565b600082601f83011261216e57600080fd5b8135602061218361217e836120e1565b612092565b82815260c092830285018201928282019190878511156121a257600080fd5b8387015b858110156121c5576121b88982612105565b84529284019281016121a6565b5090979650505050505050565b600080604083850312156121e557600080fd5b823567ffffffffffffffff808211156121fd57600080fd5b818501915085601f83011261221157600080fd5b8135602061222161217e836120e1565b82815260059290921b8401810191818101908984111561224057600080fd5b948201945b8386101561226757853561225881611f80565b82529482019490820190612245565b9650508601359250508082111561227d57600080fd5b5061228a8582860161215d565b9150509250929050565b6000602082840312156122a657600080fd5b81356122b181611f92565b9392505050565b600060208083850312156122cb57600080fd5b823567ffffffffffffffff808211156122e357600080fd5b818501915085601f8301126122f757600080fd5b8135818111156123095761230961203a565b612339847fffffffffffffffffffffffffffffffffffffffffffffffffffffffffffffffe0601f84011601612092565b9150808252868482850101111561234f57600080fd5b8084840185840137600090820190930192909252509392505050565b60006020828403121561237d57600080fd5b81356122b181611f80565b6000806000806000608086880312156123a057600080fd5b85356123ab81611f80565b94506020860135935060408601359250606086013567ffffffffffffffff8111156123d557600080fd5b6123e188828901611e80565b969995985093965092949392505050565b60008060e0838503121561240557600080fd5b823561241081611f80565b915061241f8460208501612105565b90509250929050565b60008060006040848603121561243d57600080fd5b833561244881611f92565b9250602084013567ffffffffffffffff81111561246457600080fd5b61247086828701611e80565b9497909650939450505050565b8183528181602085013750600060208284010152600060207fffffffffffffffffffffffffffffffffffffffffffffffffffffffffffffffe0601f840116840101905092915050565b6020815260006124da60208301848661247d565b949350505050565b60058110612519577f4e487b7100000000000000000000000000000000000000000000000000000000600052602160045260246000fd5b9052565b6060810161252b82866124e2565b8360208301526124da60408301846124e2565b60006020828403121561255057600080fd5b5051919050565b7f4e487b7100000000000000000000000000000000000000000000000000000000600052601160045260246000fd5b6000817fffffffffffffffffffffffffffffffffffffffffffffffffffffffffffffffff04831182151516156125be576125be612557565b500290565b600082198211156125d6576125d6612557565b500190565b6000815180845260005b81811015612601576020818501810151868301820152016125e5565b81811115612613576000602083870101525b50601f017fffffffffffffffffffffffffffffffffffffffffffffffffffffffffffffffe0169290920160200192915050565b61ffff8816815260c06020820152600061266360c08301896125db565b828103604084015261267681888a61247d565b73ffffffffffffffffffffffffffffffffffffffff87811660608601528616608085015283810360a085015290506126ae81856125db565b9a9950505050505050505050565b7f4e487b7100000000000000000000000000000000000000000000000000000000600052603260045260246000fd5b60007fffffffffffffffffffffffffffffffffffffffffffffffffffffffffffffffff820361271c5761271c612557565b5060010190565b600082601f83011261273457600080fd5b8151602061274461217e836120e1565b82815260c0928302850182019282820191908785111561276357600080fd5b8387015b858110156121c55781818a03121561277f5760008081fd5b612787612069565b81518152858201518682015260408083015190820152606080830151908201526080808301519082015260a080830151908201528452928401928101612767565b60008060008060008060c087890312156127e157600080fd5b86516127ec81611f92565b809650506020808801516127ff81611f92565b604089015190965061281081611f92565b606089015190955061282181611f92565b608089015190945067ffffffffffffffff8082111561283f57600080fd5b818a0191508a601f83011261285357600080fd5b815161286161217e826120e1565b81815260059190911b8301840190848101908d83111561288057600080fd5b938501935b828510156128a757845161289881611f80565b82529385019390850190612885565b60a08d015190975094505050808311156128c057600080fd5b50506128ce89828a01612723565b9150509295509295509295565b7f4e487b7100000000000000000000000000000000000000000000000000000000600052601260045260246000fd5b600082612919576129196128db565b500490565b80516fffffffffffffffffffffffffffffffff8116811461293e57600080fd5b919050565b6000806000806080858703121561295957600080fd5b845193506129696020860161291e565b92506129776040860161291e565b91506129856060860161291e565b905092959194509250565b60006fffffffffffffffffffffffffffffffff808316818516818304811182151516156129bf576129bf612557565b02949350505050565b60006fffffffffffffffffffffffffffffffff808416806129eb576129eb6128db565b92169190910492915050565b600060608284031215612a0957600080fd5b6040516060810181811067ffffffffffffffff82111715612a2c57612a2c61203a565b604052612a388361291e565b81526020830151612a4881611ec9565b60208201526040830151612a5b81611f80565b6040820152939250505056fea164736f6c634300080d000a",
    "linkReferences": {}
  },
  "methodIdentifiers": {
    "admin()": "f851a440",
    "adminCall(address,bytes)": "bf64a82d",
    "getAdmin()": "6e9960c3",
    "getBridge()": "0fffbaf3",
    "getGasParameters(uint32)": "6ec7fad7",
    "getHlgFee(uint32,uint256,uint256,bytes)": "8c19a89f",
    "getInterfaces()": "ebac15f9",
    "getLZEndpoint()": "36c5ab40",
    "getMessageFee(uint32,uint256,uint256,bytes)": "ff1370d9",
    "getOperator()": "e7f43c68",
    "getOptimismGasPriceOracle()": "f0478d20",
    "init(bytes)": "4ddf47d4",
    "lzReceive(uint16,bytes,uint64,bytes)": "001d3567",
    "send(uint256,uint256,uint32,address,uint256,bytes)": "0a0542ef",
    "setAdmin(address)": "704b6c02",
    "setBridge(address)": "8dd14802",
    "setGasParameters(uint32,(uint256,uint256,uint256,uint256,uint256,uint256))": "960a4270",
    "setGasParameters(uint32[],(uint256,uint256,uint256,uint256,uint256,uint256)[])": "0e95b650",
    "setInterfaces(address)": "da8292d9",
    "setLZEndpoint(address)": "4b40f1bf",
    "setOperator(address)": "b3ab15fb",
    "setOptimismGasPriceOracle(address)": "9ce82792"
  }
}