{
  "address": "0x0490BdbAda38D6AF38EfF33e77d820513CbfA943",
  "abi": [
    {
      "type": "constructor",
      "inputs": [],
      "stateMutability": "nonpayable"
    },
    {
      "type": "fallback",
      "stateMutability": "payable"
    },
    {
      "type": "receive",
      "stateMutability": "payable"
    },
    {
      "type": "function",
      "name": "admin",
      "inputs": [],
      "outputs": [
        {
          "name": "",
          "type": "address",
          "internalType": "address"
        }
      ],
      "stateMutability": "view"
    },
    {
      "type": "function",
      "name": "adminCall",
      "inputs": [
        {
          "name": "target",
          "type": "address",
          "internalType": "address"
        },
        {
          "name": "data",
          "type": "bytes",
          "internalType": "bytes"
        }
      ],
      "outputs": [],
      "stateMutability": "payable"
    },
    {
      "type": "function",
      "name": "getAdmin",
      "inputs": [],
      "outputs": [
        {
          "name": "adminAddress",
          "type": "address",
          "internalType": "address"
        }
      ],
      "stateMutability": "view"
    },
    {
      "type": "function",
      "name": "getLayerZeroModule",
      "inputs": [],
      "outputs": [
        {
          "name": "layerZeroModule",
          "type": "address",
          "internalType": "address"
        }
      ],
      "stateMutability": "view"
    },
    {
      "type": "function",
      "name": "init",
      "inputs": [
        {
          "name": "data",
          "type": "bytes",
          "internalType": "bytes"
        }
      ],
      "outputs": [
        {
          "name": "",
          "type": "bytes4",
          "internalType": "bytes4"
        }
      ],
      "stateMutability": "nonpayable"
    },
    {
      "type": "function",
      "name": "setAdmin",
      "inputs": [
        {
          "name": "adminAddress",
          "type": "address",
          "internalType": "address"
        }
      ],
      "outputs": [],
      "stateMutability": "nonpayable"
    },
    {
      "type": "function",
      "name": "setLayerZeroModule",
      "inputs": [
        {
          "name": "layerZeroModule",
          "type": "address",
          "internalType": "address"
        }
      ],
      "outputs": [],
      "stateMutability": "nonpayable"
    }
  ],
  "transactionHash": "0x1ca075acd691dbec4406dfe78119f25b564c5f98bb5a32e3629737899bf5e4d6",
  "args": [],
  "numDeployments": 1,
  "bytecode": {
    "object": "0x608060405234801561001057600080fd5b50610b59806100206000396000f3fe6080604052600436106100745760003560e01c8063728b5ee11161004e578063728b5ee11461019057806385fb9f78146101b0578063bf64a82d146101e4578063f851a440146101f75761007b565b80634ddf47d4146100c55780636e9960c31461011b578063704b6c02146101705761007b565b3661007b57005b7f928de58955d10fd78410a0a6aa3c5832b103908613a6ceb2ee3933da510fb06c543660008037600080366000845af490503d6000803e8080156100be573d6000f35b3d6000fd5b005b3480156100d157600080fd5b506100e56100e0366004610892565b61020c565b6040517fffffffff0000000000000000000000000000000000000000000000000000000090911681526020015b60405180910390f35b34801561012757600080fd5b507f3f106594dc74eeef980dae234cde8324dc2497b13d27a0c59e55bd2ca10a07c9545b60405173ffffffffffffffffffffffffffffffffffffffff9091168152602001610112565b34801561017c57600080fd5b506100c361018b366004610937565b610515565b34801561019c57600080fd5b506100c36101ab366004610937565b6105ef565b3480156101bc57600080fd5b507f928de58955d10fd78410a0a6aa3c5832b103908613a6ceb2ee3933da510fb06c5461014b565b6100c36101f236600461095b565b6106c9565b34801561020357600080fd5b5061014b61079f565b60006102367f4e5f991bca30eca2d4643aaefa807e88f96a4a97398933d572a3c0d973004a015490565b156102a2576040517f08c379a000000000000000000000000000000000000000000000000000000000815260206004820152601e60248201527f484f4c4f47524150483a20616c726561647920696e697469616c697a6564000060448201526064015b60405180910390fd5b600080838060200190518101906102b99190610a10565b91509150327f3f106594dc74eeef980dae234cde8324dc2497b13d27a0c59e55bd2ca10a07c955817f928de58955d10fd78410a0a6aa3c5832b103908613a6ceb2ee3933da510fb06c556000808373ffffffffffffffffffffffffffffffffffffffff168360405160240161032e9190610a9d565b604080517fffffffffffffffffffffffffffffffffffffffffffffffffffffffffffffffe08184030181529181526020820180517bffffffffffffffffffffffffffffffffffffffffffffffffffffffff167f4ddf47d400000000000000000000000000000000000000000000000000000000179052516103af9190610aee565b600060405180830381855af49150503d80600081146103ea576040519150601f19603f3d011682016040523d82523d6000602084013e6103ef565b606091505b509150915060008180602001905181019061040a9190610b0a565b905082801561045a57507fffffffff0000000000000000000000000000000000000000000000000000000081167f4ddf47d400000000000000000000000000000000000000000000000000000000145b6104c0576040517f08c379a000000000000000000000000000000000000000000000000000000000815260206004820152601560248201527f696e697469616c697a6174696f6e206661696c656400000000000000000000006044820152606401610299565b6104e960017f4e5f991bca30eca2d4643aaefa807e88f96a4a97398933d572a3c0d973004a0155565b507f4ddf47d4000000000000000000000000000000000000000000000000000000009695505050505050565b7f3f106594dc74eeef980dae234cde8324dc2497b13d27a0c59e55bd2ca10a07c95473ffffffffffffffffffffffffffffffffffffffff163373ffffffffffffffffffffffffffffffffffffffff16146105cb576040517f08c379a000000000000000000000000000000000000000000000000000000000815260206004820152601e60248201527f484f4c4f47524150483a2061646d696e206f6e6c792066756e6374696f6e00006044820152606401610299565b7f3f106594dc74eeef980dae234cde8324dc2497b13d27a0c59e55bd2ca10a07c955565b7f3f106594dc74eeef980dae234cde8324dc2497b13d27a0c59e55bd2ca10a07c95473ffffffffffffffffffffffffffffffffffffffff163373ffffffffffffffffffffffffffffffffffffffff16146106a5576040517f08c379a000000000000000000000000000000000000000000000000000000000815260206004820152601e60248201527f484f4c4f47524150483a2061646d696e206f6e6c792066756e6374696f6e00006044820152606401610299565b7f928de58955d10fd78410a0a6aa3c5832b103908613a6ceb2ee3933da510fb06c55565b7f3f106594dc74eeef980dae234cde8324dc2497b13d27a0c59e55bd2ca10a07c95473ffffffffffffffffffffffffffffffffffffffff163373ffffffffffffffffffffffffffffffffffffffff161461077f576040517f08c379a000000000000000000000000000000000000000000000000000000000815260206004820152601e60248201527f484f4c4f47524150483a2061646d696e206f6e6c792066756e6374696f6e00006044820152606401610299565b808260003760008082600034875af13d6000803e8080156100be573d6000f35b60006107c97f3f106594dc74eeef980dae234cde8324dc2497b13d27a0c59e55bd2ca10a07c95490565b905090565b7f4e487b7100000000000000000000000000000000000000000000000000000000600052604160045260246000fd5b604051601f82017fffffffffffffffffffffffffffffffffffffffffffffffffffffffffffffffe016810167ffffffffffffffff81118282101715610844576108446107ce565b604052919050565b600067ffffffffffffffff821115610866576108666107ce565b50601f017fffffffffffffffffffffffffffffffffffffffffffffffffffffffffffffffe01660200190565b6000602082840312156108a457600080fd5b813567ffffffffffffffff8111156108bb57600080fd5b8201601f810184136108cc57600080fd5b80356108df6108da8261084c565b6107fd565b8181528560208385010111156108f457600080fd5b81602084016020830137600091810160200191909152949350505050565b73ffffffffffffffffffffffffffffffffffffffff8116811461093457600080fd5b50565b60006020828403121561094957600080fd5b813561095481610912565b9392505050565b60008060006040848603121561097057600080fd5b833561097b81610912565b9250602084013567ffffffffffffffff8082111561099857600080fd5b818601915086601f8301126109ac57600080fd5b8135818111156109bb57600080fd5b8760208285010111156109cd57600080fd5b6020830194508093505050509250925092565b60005b838110156109fb5781810151838201526020016109e3565b83811115610a0a576000848401525b50505050565b60008060408385031215610a2357600080fd5b8251610a2e81610912565b602084015190925067ffffffffffffffff811115610a4b57600080fd5b8301601f81018513610a5c57600080fd5b8051610a6a6108da8261084c565b818152866020838501011115610a7f57600080fd5b610a908260208301602086016109e0565b8093505050509250929050565b6020815260008251806020840152610abc8160408501602087016109e0565b601f017fffffffffffffffffffffffffffffffffffffffffffffffffffffffffffffffe0169190910160400192915050565b60008251610b008184602087016109e0565b9190910192915050565b600060208284031215610b1c57600080fd5b81517fffffffff000000000000000000000000000000000000000000000000000000008116811461095457600080fdfea164736f6c634300080d000a",
    "linkReferences": {}
  },
  "methodIdentifiers": {
    "admin()": "f851a440",
    "adminCall(address,bytes)": "bf64a82d",
    "getAdmin()": "6e9960c3",
    "getLayerZeroModule()": "85fb9f78",
    "init(bytes)": "4ddf47d4",
    "setAdmin(address)": "704b6c02",
    "setLayerZeroModule(address)": "728b5ee1"
  }
}