{
  "address": "0x8819Fd96F157d6c04C136c02e915B5B1fFb0333D",
  "abi": [
    {
      "type": "constructor",
      "inputs": [],
      "stateMutability": "nonpayable"
    },
    {
      "type": "fallback",
      "stateMutability": "payable"
    },
    {
      "type": "receive",
      "stateMutability": "payable"
    },
    {
      "type": "function",
      "name": "admin",
      "inputs": [],
      "outputs": [
        {
          "name": "",
          "type": "address",
          "internalType": "address"
        }
      ],
      "stateMutability": "view"
    },
    {
      "type": "function",
      "name": "adminCall",
      "inputs": [
        {
          "name": "target",
          "type": "address",
          "internalType": "address"
        },
        {
          "name": "data",
          "type": "bytes",
          "internalType": "bytes"
        }
      ],
      "outputs": [],
      "stateMutability": "payable"
    },
    {
      "type": "function",
      "name": "getAdmin",
      "inputs": [],
      "outputs": [
        {
          "name": "adminAddress",
          "type": "address",
          "internalType": "address"
        }
      ],
      "stateMutability": "view"
    },
    {
      "type": "function",
      "name": "getBridge",
      "inputs": [],
      "outputs": [
        {
          "name": "bridge",
          "type": "address",
          "internalType": "address"
        }
      ],
      "stateMutability": "view"
    },
    {
      "type": "function",
      "name": "getGasParameters",
      "inputs": [
        {
          "name": "chainId",
          "type": "uint32",
          "internalType": "uint32"
        }
      ],
      "outputs": [
        {
          "name": "gasParameters",
          "type": "tuple",
          "internalType": "struct GasParameters",
          "components": [
            {
              "name": "msgBaseGas",
              "type": "uint256",
              "internalType": "uint256"
            },
            {
              "name": "msgGasPerByte",
              "type": "uint256",
              "internalType": "uint256"
            },
            {
              "name": "jobBaseGas",
              "type": "uint256",
              "internalType": "uint256"
            },
            {
              "name": "jobGasPerByte",
              "type": "uint256",
              "internalType": "uint256"
            },
            {
              "name": "minGasPrice",
              "type": "uint256",
              "internalType": "uint256"
            },
            {
              "name": "maxGasLimit",
              "type": "uint256",
              "internalType": "uint256"
            }
          ]
        }
      ],
      "stateMutability": "view"
    },
    {
      "type": "function",
      "name": "getHlgFee",
      "inputs": [
        {
          "name": "toChain",
          "type": "uint32",
          "internalType": "uint32"
        },
        {
          "name": "gasLimit",
          "type": "uint256",
          "internalType": "uint256"
        },
        {
          "name": "gasPrice",
          "type": "uint256",
          "internalType": "uint256"
        },
        {
          "name": "crossChainPayload",
          "type": "bytes",
          "internalType": "bytes"
        }
      ],
      "outputs": [
        {
          "name": "hlgFee",
          "type": "uint256",
          "internalType": "uint256"
        }
      ],
      "stateMutability": "view"
    },
    {
      "type": "function",
      "name": "getInterfaces",
      "inputs": [],
      "outputs": [
        {
          "name": "interfaces",
          "type": "address",
          "internalType": "address"
        }
      ],
      "stateMutability": "view"
    },
    {
      "type": "function",
      "name": "getLZEndpoint",
      "inputs": [],
      "outputs": [
        {
          "name": "lZEndpoint",
          "type": "address",
          "internalType": "address"
        }
      ],
      "stateMutability": "view"
    },
    {
      "type": "function",
      "name": "getLZExecutor",
      "inputs": [],
      "outputs": [
        {
          "name": "lzExecutor",
          "type": "address",
          "internalType": "address"
        }
      ],
      "stateMutability": "view"
    },
    {
      "type": "function",
      "name": "getMessageFee",
      "inputs": [
        {
          "name": "toChain",
          "type": "uint32",
          "internalType": "uint32"
        },
        {
          "name": "gasLimit",
          "type": "uint256",
          "internalType": "uint256"
        },
        {
          "name": "gasPrice",
          "type": "uint256",
          "internalType": "uint256"
        },
        {
          "name": "crossChainPayload",
          "type": "bytes",
          "internalType": "bytes"
        }
      ],
      "outputs": [
        {
          "name": "hlgFee",
          "type": "uint256",
          "internalType": "uint256"
        },
        {
          "name": "msgFee",
          "type": "uint256",
          "internalType": "uint256"
        },
        {
          "name": "dstGasPrice",
          "type": "uint256",
          "internalType": "uint256"
        }
      ],
      "stateMutability": "view"
    },
    {
      "type": "function",
      "name": "getOperator",
      "inputs": [],
      "outputs": [
        {
          "name": "operator",
          "type": "address",
          "internalType": "address"
        }
      ],
      "stateMutability": "view"
    },
    {
      "type": "function",
      "name": "getOptimismGasPriceOracle",
      "inputs": [],
      "outputs": [
        {
          "name": "optimismGasPriceOracle",
          "type": "address",
          "internalType": "address"
        }
      ],
      "stateMutability": "view"
    },
    {
      "type": "function",
      "name": "init",
      "inputs": [
        {
          "name": "initPayload",
          "type": "bytes",
          "internalType": "bytes"
        }
      ],
      "outputs": [
        {
          "name": "",
          "type": "bytes4",
          "internalType": "bytes4"
        }
      ],
      "stateMutability": "nonpayable"
    },
    {
      "type": "function",
      "name": "lzReceive",
      "inputs": [
        {
          "name": "",
          "type": "uint16",
          "internalType": "uint16"
        },
        {
          "name": "_srcAddress",
          "type": "bytes",
          "internalType": "bytes"
        },
        {
          "name": "",
          "type": "uint64",
          "internalType": "uint64"
        },
        {
          "name": "_payload",
          "type": "bytes",
          "internalType": "bytes"
        }
      ],
      "outputs": [],
      "stateMutability": "payable"
    },
    {
      "type": "function",
      "name": "send",
      "inputs": [
        {
          "name": "",
          "type": "uint256",
          "internalType": "uint256"
        },
        {
          "name": "",
          "type": "uint256",
          "internalType": "uint256"
        },
        {
          "name": "toChain",
          "type": "uint32",
          "internalType": "uint32"
        },
        {
          "name": "msgSender",
          "type": "address",
          "internalType": "address"
        },
        {
          "name": "msgValue",
          "type": "uint256",
          "internalType": "uint256"
        },
        {
          "name": "crossChainPayload",
          "type": "bytes",
          "internalType": "bytes"
        }
      ],
      "outputs": [],
      "stateMutability": "payable"
    },
    {
      "type": "function",
      "name": "setAdmin",
      "inputs": [
        {
          "name": "adminAddress",
          "type": "address",
          "internalType": "address"
        }
      ],
      "outputs": [],
      "stateMutability": "nonpayable"
    },
    {
      "type": "function",
      "name": "setBridge",
      "inputs": [
        {
          "name": "bridge",
          "type": "address",
          "internalType": "address"
        }
      ],
      "outputs": [],
      "stateMutability": "nonpayable"
    },
    {
      "type": "function",
      "name": "setGasParameters",
      "inputs": [
        {
          "name": "chainIds",
          "type": "uint32[]",
          "internalType": "uint32[]"
        },
        {
          "name": "gasParameters",
          "type": "tuple[]",
          "internalType": "struct GasParameters[]",
          "components": [
            {
              "name": "msgBaseGas",
              "type": "uint256",
              "internalType": "uint256"
            },
            {
              "name": "msgGasPerByte",
              "type": "uint256",
              "internalType": "uint256"
            },
            {
              "name": "jobBaseGas",
              "type": "uint256",
              "internalType": "uint256"
            },
            {
              "name": "jobGasPerByte",
              "type": "uint256",
              "internalType": "uint256"
            },
            {
              "name": "minGasPrice",
              "type": "uint256",
              "internalType": "uint256"
            },
            {
              "name": "maxGasLimit",
              "type": "uint256",
              "internalType": "uint256"
            }
          ]
        }
      ],
      "outputs": [],
      "stateMutability": "nonpayable"
    },
    {
      "type": "function",
      "name": "setGasParameters",
      "inputs": [
        {
          "name": "chainId",
          "type": "uint32",
          "internalType": "uint32"
        },
        {
          "name": "gasParameters",
          "type": "tuple",
          "internalType": "struct GasParameters",
          "components": [
            {
              "name": "msgBaseGas",
              "type": "uint256",
              "internalType": "uint256"
            },
            {
              "name": "msgGasPerByte",
              "type": "uint256",
              "internalType": "uint256"
            },
            {
              "name": "jobBaseGas",
              "type": "uint256",
              "internalType": "uint256"
            },
            {
              "name": "jobGasPerByte",
              "type": "uint256",
              "internalType": "uint256"
            },
            {
              "name": "minGasPrice",
              "type": "uint256",
              "internalType": "uint256"
            },
            {
              "name": "maxGasLimit",
              "type": "uint256",
              "internalType": "uint256"
            }
          ]
        }
      ],
      "outputs": [],
      "stateMutability": "nonpayable"
    },
    {
      "type": "function",
      "name": "setInterfaces",
      "inputs": [
        {
          "name": "interfaces",
          "type": "address",
          "internalType": "address"
        }
      ],
      "outputs": [],
      "stateMutability": "nonpayable"
    },
    {
      "type": "function",
      "name": "setLZEndpoint",
      "inputs": [
        {
          "name": "lZEndpoint",
          "type": "address",
          "internalType": "address"
        }
      ],
      "outputs": [],
      "stateMutability": "nonpayable"
    },
    {
      "type": "function",
      "name": "setLZExecutor",
      "inputs": [
        {
          "name": "lzExecutor",
          "type": "address",
          "internalType": "address"
        }
      ],
      "outputs": [],
      "stateMutability": "nonpayable"
    },
    {
      "type": "function",
      "name": "setOperator",
      "inputs": [
        {
          "name": "operator",
          "type": "address",
          "internalType": "address"
        }
      ],
      "outputs": [],
      "stateMutability": "nonpayable"
    },
    {
      "type": "function",
      "name": "setOptimismGasPriceOracle",
      "inputs": [
        {
          "name": "optimismGasPriceOracle",
          "type": "address",
          "internalType": "address"
        }
      ],
      "outputs": [],
      "stateMutability": "nonpayable"
    }
  ],
  "transactionHash": "0x12cd1e5abd7df7f4bcf07ff95da856f377fb0bf5b8ce9ff2c9d14ff714d7cbc1",
  "args": [],
  "numDeployments": 2,
  "bytecode": {
    "object": "0x608060405234801561001057600080fd5b50612d2e806100206000396000f3fe60806040526004361061018e5760003560e01c8063960a4270116100d6578063e7f43c681161007f578063f851a44011610059578063f851a44014610555578063fdb80b711461056a578063ff1370d91461058a57600080fd5b8063e7f43c68146104b9578063ebac15f9146104ed578063f0478d201461052157600080fd5b8063b3ab15fb116100b0578063b3ab15fb14610466578063bf64a82d14610486578063da8292d91461049957600080fd5b8063960a4270146103f25780639ce8279214610412578063aa33b3a41461043257600080fd5b80634ddf47d411610138578063704b6c0211610112578063704b6c02146103845780638c19a89f146103a45780638dd14802146103d257600080fd5b80634ddf47d4146102935780636e9960c3146102e45780636ec7fad71461031857600080fd5b80630fffbaf3116101695780630fffbaf3146101e557806336c5ab401461023f5780634b40f1bf1461027357600080fd5b80621d35671461019d5780630a0542ef146101b25780630e95b650146101c557600080fd5b3661019857600080fd5b600080fd5b6101b06101ab366004612159565b6105c5565b005b6101b06101c036600461222b565b61079b565b3480156101d157600080fd5b506101b06101e0366004612449565b610a61565b3480156101f157600080fd5b507feb87cbb21687feb327e3d58c6c16d552231d12c7a0e8115042a4165fac8a77f9545b60405173ffffffffffffffffffffffffffffffffffffffff90911681526020015b60405180910390f35b34801561024b57600080fd5b507f56825e447adf54cdde5f04815fcf9b1dd26ef9d5c053625147c18b7c1309168654610215565b34801561027f57600080fd5b506101b061028e36600461250b565b610be1565b34801561029f57600080fd5b506102b36102ae36600461252f565b610cbb565b6040517fffffffff000000000000000000000000000000000000000000000000000000009091168152602001610236565b3480156102f057600080fd5b507f3f106594dc74eeef980dae234cde8324dc2497b13d27a0c59e55bd2ca10a07c954610215565b34801561032457600080fd5b506103386103333660046125e2565b610f19565b6040516102369190600060c082019050825182526020830151602083015260408301516040830152606083015160608301526080830151608083015260a083015160a083015292915050565b34801561039057600080fd5b506101b061039f36600461250b565b610f61565b3480156103b057600080fd5b506103c46103bf3660046125ff565b61103b565b604051908152602001610236565b3480156103de57600080fd5b506101b06103ed36600461250b565b611392565b3480156103fe57600080fd5b506101b061040d366004612669565b61146c565b34801561041e57600080fd5b506101b061042d36600461250b565b611530565b34801561043e57600080fd5b507f5418c0677489e4391269fdb0d577e7ea7ccb07075c2c66748ef879ea504777e054610215565b34801561047257600080fd5b506101b061048136600461250b565b61160a565b6101b061049436600461269f565b6116e4565b3480156104a557600080fd5b506101b06104b436600461250b565b6117c6565b3480156104c557600080fd5b507f7caba557ad34138fa3b7e43fb574e0e6cc10481c3073e0dffbc560db81b5c60f54610215565b3480156104f957600080fd5b507fbd3084b8c09da87ad159c247a60e209784196be2530cecbbd8f337fdd184882754610215565b34801561052d57600080fd5b507f46043c284a96474ab4a54c741ea0d0fce54e98eea878b99d4b85808fa6f71a5f54610215565b34801561056157600080fd5b506102156118a0565b34801561057657600080fd5b506101b061058536600461250b565b6118cf565b34801561059657600080fd5b506105aa6105a53660046125ff565b6119a9565b60408051938452602084019290925290820152606001610236565b7f56825e447adf54cdde5f04815fcf9b1dd26ef9d5c053625147c18b7c130916865433148061065f577f08c379a0000000000000000000000000000000000000000000000000000000006080527c200000000000000000000000000000000000000000000000000000000060a0527c1b484f4c4f47524150483a204c5a206f6e6c7920656e64706f696e740060c052600060e05260c46080fd5b506040518486600c8301378051301480610703577f08c379a0000000000000000000000000000000000000000000000000000000006080527c200000000000000000000000000000000000000000000000000000000060a0527c1e484f4c4f47524150483a20756e617574686f72697a65642073656e6460c0527f657200000000000000000000000000000000000000000000000000000000000060e05260c46080fd5b50507f7caba557ad34138fa3b7e43fb574e0e6cc10481c3073e0dffbc560db81b5c60f5473ffffffffffffffffffffffffffffffffffffffff1663254e106283836040518363ffffffff1660e01b815260040161076192919061273d565b600060405180830381600087803b15801561077b57600080fd5b505af115801561078f573d6000803e3d6000fd5b50505050505050505050565b7f7caba557ad34138fa3b7e43fb574e0e6cc10481c3073e0dffbc560db81b5c60f5473ffffffffffffffffffffffffffffffffffffffff163373ffffffffffffffffffffffffffffffffffffffff1614610856576040517f08c379a000000000000000000000000000000000000000000000000000000000815260206004820152601d60248201527f484f4c4f47524150483a206f70657261746f72206f6e6c792063616c6c00000060448201526064015b60405180910390fd5b7f56825e447adf54cdde5f04815fcf9b1dd26ef9d5c053625147c18b7c1309168654600061088387611e0f565b90508173ffffffffffffffffffffffffffffffffffffffff1663c5803100866108ca7fbd3084b8c09da87ad159c247a60e209784196be2530cecbbd8f337fdd18488275490565b73ffffffffffffffffffffffffffffffffffffffff166320fc06ea60028c63ffffffff1660036040518463ffffffff1660e01b815260040161090e93929190612794565b602060405180830381865afa15801561092b573d6000803e3d6000fd5b505050506040513d601f19601f8201168201806040525081019061094f91906127b5565b6040517fffffffffffffffffffffffffffffffffffffffff0000000000000000000000003060601b1660208201819052603482015260480160405160208183030381529060405288888c3060018a602001518e8e90506109af91906127fd565b8b516109bb919061283a565b60405160f09290921b7fffff00000000000000000000000000000000000000000000000000000000000016602083015260228201526042016040516020818303038152906040526040518963ffffffff1660e01b8152600401610a2497969594939291906128bd565b6000604051808303818588803b158015610a3d57600080fd5b505af1158015610a51573d6000803e3d6000fd5b5050505050505050505050505050565b7f3f106594dc74eeef980dae234cde8324dc2497b13d27a0c59e55bd2ca10a07c95473ffffffffffffffffffffffffffffffffffffffff163373ffffffffffffffffffffffffffffffffffffffff1614610b17576040517f08c379a000000000000000000000000000000000000000000000000000000000815260206004820152601e60248201527f484f4c4f47524150483a2061646d696e206f6e6c792066756e6374696f6e0000604482015260640161084d565b8051825114610b82576040517f08c379a000000000000000000000000000000000000000000000000000000000815260206004820152601e60248201527f484f4c4f47524150483a2077726f6e67206172726179206c656e677468730000604482015260640161084d565b60005b8251811015610bdc57610bca838281518110610ba357610ba3612933565b6020026020010151838381518110610bbd57610bbd612933565b6020026020010151611ef9565b80610bd481612962565b915050610b85565b505050565b7f3f106594dc74eeef980dae234cde8324dc2497b13d27a0c59e55bd2ca10a07c95473ffffffffffffffffffffffffffffffffffffffff163373ffffffffffffffffffffffffffffffffffffffff1614610c97576040517f08c379a000000000000000000000000000000000000000000000000000000000815260206004820152601e60248201527f484f4c4f47524150483a2061646d696e206f6e6c792066756e6374696f6e0000604482015260640161084d565b7f56825e447adf54cdde5f04815fcf9b1dd26ef9d5c053625147c18b7c1309168655565b6000610ce57f4e5f991bca30eca2d4643aaefa807e88f96a4a97398933d572a3c0d973004a015490565b15610d4c576040517f08c379a000000000000000000000000000000000000000000000000000000000815260206004820152601e60248201527f484f4c4f47524150483a20616c726561647920696e697469616c697a65640000604482015260640161084d565b60008060008060008087806020019051810190610d699190612a3f565b955095509550955095509550327f3f106594dc74eeef980dae234cde8324dc2497b13d27a0c59e55bd2ca10a07c955857feb87cbb21687feb327e3d58c6c16d552231d12c7a0e8115042a4165fac8a77f955847fbd3084b8c09da87ad159c247a60e209784196be2530cecbbd8f337fdd184882755837f7caba557ad34138fa3b7e43fb574e0e6cc10481c3073e0dffbc560db81b5c60f55827f46043c284a96474ab4a54c741ea0d0fce54e98eea878b99d4b85808fa6f71a5f558051825114610e8f576040517f08c379a000000000000000000000000000000000000000000000000000000000815260206004820152601e60248201527f484f4c4f47524150483a2077726f6e67206172726179206c656e677468730000604482015260640161084d565b60005b8251811015610ec257610eb0838281518110610ba357610ba3612933565b80610eba81612962565b915050610e92565b50610eec60017f4e5f991bca30eca2d4643aaefa807e88f96a4a97398933d572a3c0d973004a0155565b507f4ddf47d400000000000000000000000000000000000000000000000000000000979650505050505050565b610f526040518060c001604052806000815260200160008152602001600081526020016000815260200160008152602001600081525090565b610f5b82611e0f565b92915050565b7f3f106594dc74eeef980dae234cde8324dc2497b13d27a0c59e55bd2ca10a07c95473ffffffffffffffffffffffffffffffffffffffff163373ffffffffffffffffffffffffffffffffffffffff1614611017576040517f08c379a000000000000000000000000000000000000000000000000000000000815260206004820152601e60248201527f484f4c4f47524150483a2061646d696e206f6e6c792066756e6374696f6e0000604482015260640161084d565b7f3f106594dc74eeef980dae234cde8324dc2497b13d27a0c59e55bd2ca10a07c955565b6000806110667fbd3084b8c09da87ad159c247a60e209784196be2530cecbbd8f337fdd18488275490565b73ffffffffffffffffffffffffffffffffffffffff166320fc06ea60028963ffffffff1660036040518463ffffffff1660e01b81526004016110aa93929190612794565b602060405180830381865afa1580156110c7573d6000803e3d6000fd5b505050506040513d601f19601f820116820180604052508101906110eb91906127b5565b905060006110f882611fa2565b9150508560000361111557806020015167ffffffffffffffff1695505b600061112089611e0f565b90508060800151871161118f576040517f08c379a000000000000000000000000000000000000000000000000000000000815260206004820152601c60248201527f484f4c4f47524150483a2067617320707269636520746f6f206c6f7700000000604482015260640161084d565b60608101516000906111a190876127fd565b60408301516111b0908b61283a565b6111ba919061283a565b90506111c7600a82612b81565b6111d1908261283a565b90508160a001518110611240576040517f08c379a000000000000000000000000000000000000000000000000000000000815260206004820152601d60248201527f484f4c4f47524150483a20676173206c696d6974206f766572206d6178000000604482015260640161084d565b825168056bc75e2d63100000906fffffffffffffffffffffffffffffffff16611269838b6127fd565b61127391906127fd565b61127d9190612b81565b945063ffffffff8a166007148061129d575063ffffffff8a1663ee6b284a145b1561138557825168056bc75e2d63100000906fffffffffffffffffffffffffffffffff166112e97f46043c284a96474ab4a54c741ea0d0fce54e98eea878b99d4b85808fa6f71a5f5490565b73ffffffffffffffffffffffffffffffffffffffff166349948e0e8a8a6040518363ffffffff1660e01b815260040161132392919061273d565b602060405180830381865afa158015611340573d6000803e3d6000fd5b505050506040513d601f19601f8201168201806040525081019061136491906127b5565b61136e91906127fd565b6113789190612b81565b611382908661283a565b94505b5050505095945050505050565b7f3f106594dc74eeef980dae234cde8324dc2497b13d27a0c59e55bd2ca10a07c95473ffffffffffffffffffffffffffffffffffffffff163373ffffffffffffffffffffffffffffffffffffffff1614611448576040517f08c379a000000000000000000000000000000000000000000000000000000000815260206004820152601e60248201527f484f4c4f47524150483a2061646d696e206f6e6c792066756e6374696f6e0000604482015260640161084d565b7feb87cbb21687feb327e3d58c6c16d552231d12c7a0e8115042a4165fac8a77f955565b7f3f106594dc74eeef980dae234cde8324dc2497b13d27a0c59e55bd2ca10a07c95473ffffffffffffffffffffffffffffffffffffffff163373ffffffffffffffffffffffffffffffffffffffff1614611522576040517f08c379a000000000000000000000000000000000000000000000000000000000815260206004820152601e60248201527f484f4c4f47524150483a2061646d696e206f6e6c792066756e6374696f6e0000604482015260640161084d565b61152c8282611ef9565b5050565b7f3f106594dc74eeef980dae234cde8324dc2497b13d27a0c59e55bd2ca10a07c95473ffffffffffffffffffffffffffffffffffffffff163373ffffffffffffffffffffffffffffffffffffffff16146115e6576040517f08c379a000000000000000000000000000000000000000000000000000000000815260206004820152601e60248201527f484f4c4f47524150483a2061646d696e206f6e6c792066756e6374696f6e0000604482015260640161084d565b7f46043c284a96474ab4a54c741ea0d0fce54e98eea878b99d4b85808fa6f71a5f55565b7f3f106594dc74eeef980dae234cde8324dc2497b13d27a0c59e55bd2ca10a07c95473ffffffffffffffffffffffffffffffffffffffff163373ffffffffffffffffffffffffffffffffffffffff16146116c0576040517f08c379a000000000000000000000000000000000000000000000000000000000815260206004820152601e60248201527f484f4c4f47524150483a2061646d696e206f6e6c792066756e6374696f6e0000604482015260640161084d565b7f7caba557ad34138fa3b7e43fb574e0e6cc10481c3073e0dffbc560db81b5c60f55565b7f3f106594dc74eeef980dae234cde8324dc2497b13d27a0c59e55bd2ca10a07c95473ffffffffffffffffffffffffffffffffffffffff163373ffffffffffffffffffffffffffffffffffffffff161461179a576040517f08c379a000000000000000000000000000000000000000000000000000000000815260206004820152601e60248201527f484f4c4f47524150483a2061646d696e206f6e6c792066756e6374696f6e0000604482015260640161084d565b808260003760008082600034875af13d6000803e8080156117ba573d6000f35b3d6000fd5b5050505050565b7f3f106594dc74eeef980dae234cde8324dc2497b13d27a0c59e55bd2ca10a07c95473ffffffffffffffffffffffffffffffffffffffff163373ffffffffffffffffffffffffffffffffffffffff161461187c576040517f08c379a000000000000000000000000000000000000000000000000000000000815260206004820152601e60248201527f484f4c4f47524150483a2061646d696e206f6e6c792066756e6374696f6e0000604482015260640161084d565b7fbd3084b8c09da87ad159c247a60e209784196be2530cecbbd8f337fdd184882755565b60006118ca7f3f106594dc74eeef980dae234cde8324dc2497b13d27a0c59e55bd2ca10a07c95490565b905090565b7f3f106594dc74eeef980dae234cde8324dc2497b13d27a0c59e55bd2ca10a07c95473ffffffffffffffffffffffffffffffffffffffff163373ffffffffffffffffffffffffffffffffffffffff1614611985576040517f08c379a000000000000000000000000000000000000000000000000000000000815260206004820152601e60248201527f484f4c4f47524150483a2061646d696e206f6e6c792066756e6374696f6e0000604482015260640161084d565b7f5418c0677489e4391269fdb0d577e7ea7ccb07075c2c66748ef879ea504777e055565b6000806000806119d77fbd3084b8c09da87ad159c247a60e209784196be2530cecbbd8f337fdd18488275490565b73ffffffffffffffffffffffffffffffffffffffff166320fc06ea60028b63ffffffff1660036040518463ffffffff1660e01b8152600401611a1b93929190612794565b602060405180830381865afa158015611a38573d6000803e3d6000fd5b505050506040513d601f19601f82011682018060405250810190611a5c91906127b5565b90506000611a6c82617530612b95565b9050600080611a7a84611fa2565b9150915089600003611a9857806020015167ffffffffffffffff1699505b6000611aa38d611e0f565b905080608001518b11611b12576040517f08c379a000000000000000000000000000000000000000000000000000000000815260206004820152601c60248201527f484f4c4f47524150483a2067617320707269636520746f6f206c6f7700000000604482015260640161084d565b6060810151600090611b24908b6127fd565b6040830151611b33908f61283a565b611b3d919061283a565b9050611b4a600a82612b81565b611b54908261283a565b90508160a001518110611bc3576040517f08c379a000000000000000000000000000000000000000000000000000000000815260206004820152601d60248201527f484f4c4f47524150483a20676173206c696d6974206f766572206d6178000000604482015260640161084d565b6040517f88a4124c00000000000000000000000000000000000000000000000000000000815261ffff87166004820152602481018b90526044810182905260009073ffffffffffffffffffffffffffffffffffffffff8616906388a4124c90606401608060405180830381865afa158015611c42573d6000803e3d6000fd5b505050506040513d601f19601f82011682018060405250810190611c669190612be0565b505050905068056bc75e2d6310000084600001516fffffffffffffffffffffffffffffffff16838f611c9891906127fd565b611ca291906127fd565b611cac9190612b81565b995063ffffffff8f1660071480611ccc575063ffffffff8f1663ee6b284a145b15611db457835168056bc75e2d63100000906fffffffffffffffffffffffffffffffff16611d187f46043c284a96474ab4a54c741ea0d0fce54e98eea878b99d4b85808fa6f71a5f5490565b73ffffffffffffffffffffffffffffffffffffffff166349948e0e8f8f6040518363ffffffff1660e01b8152600401611d5292919061273d565b602060405180830381865afa158015611d6f573d6000803e3d6000fd5b505050506040513d601f19601f82011682018060405250810190611d9391906127b5565b611d9d91906127fd565b611da79190612b81565b611db1908b61283a565b99505b80985068056bc75e2d631000008460000151856020015167ffffffffffffffff16611ddf9190612c2d565b611de99190612c65565b6fffffffffffffffffffffffffffffffff16975050505050505050955095509592505050565b611e486040518060c001604052806000815260200160008152602001600081526020016000815260200160008152602001600081525090565b600063ffffffff831615611eac576040805163ffffffff851660208201527f15eee82a0af3c04e4b65c3842105c973a6b0fb2a68728bf035809e13b38ce8cf9181019190915260600160405160208183030381529060405280519060200120611ece565b7f15eee82a0af3c04e4b65c3842105c973a6b0fb2a68728bf035809e13b38ce8cf5b90508160005b6006811015611ef157828101548252602090910190600101611ed4565b505050919050565b600063ffffffff831615611f5d576040805163ffffffff851660208201527f15eee82a0af3c04e4b65c3842105c973a6b0fb2a68728bf035809e13b38ce8cf9181019190915260600160405160208183030381529060405280519060200120611f7f565b7f15eee82a0af3c04e4b65c3842105c973a6b0fb2a68728bf035809e13b38ce8cf5b90508160005b60068110156117bf57815183820155602090910190600101611f85565b6040805160608101825260008082526020820181905291810182905260007f5418c0677489e4391269fdb0d577e7ea7ccb07075c2c66748ef879ea504777e054905060008173ffffffffffffffffffffffffffffffffffffffff1663741bef1a6040518163ffffffff1660e01b8152600401602060405180830381865afa158015612031573d6000803e3d6000fd5b505050506040513d601f19601f820116820180604052508101906120559190612c94565b6040517fda26663a00000000000000000000000000000000000000000000000000000000815261ffff87166004820152909150819073ffffffffffffffffffffffffffffffffffffffff82169063da26663a90602401606060405180830381865afa1580156120c8573d6000803e3d6000fd5b505050506040513d601f19601f820116820180604052508101906120ec9190612cb1565b935093505050915091565b60008083601f84011261210957600080fd5b50813567ffffffffffffffff81111561212157600080fd5b60208301915083602082850101111561213957600080fd5b9250929050565b67ffffffffffffffff8116811461215657600080fd5b50565b6000806000806000806080878903121561217257600080fd5b863561ffff8116811461218457600080fd5b9550602087013567ffffffffffffffff808211156121a157600080fd5b6121ad8a838b016120f7565b9097509550604089013591506121c282612140565b909350606088013590808211156121d857600080fd5b506121e589828a016120f7565b979a9699509497509295939492505050565b63ffffffff8116811461215657600080fd5b73ffffffffffffffffffffffffffffffffffffffff8116811461215657600080fd5b600080600080600080600060c0888a03121561224657600080fd5b8735965060208801359550604088013561225f816121f7565b9450606088013561226f81612209565b93506080880135925060a088013567ffffffffffffffff81111561229257600080fd5b61229e8a828b016120f7565b989b979a50959850939692959293505050565b7f4e487b7100000000000000000000000000000000000000000000000000000000600052604160045260246000fd5b60405160c0810167ffffffffffffffff81118282101715612303576123036122b1565b60405290565b604051601f82017fffffffffffffffffffffffffffffffffffffffffffffffffffffffffffffffe016810167ffffffffffffffff81118282101715612350576123506122b1565b604052919050565b600067ffffffffffffffff821115612372576123726122b1565b5060051b60200190565b600060c0828403121561238e57600080fd5b6123966122e0565b9050813581526020820135602082015260408201356040820152606082013560608201526080820135608082015260a082013560a082015292915050565b600082601f8301126123e557600080fd5b813560206123fa6123f583612358565b612309565b82815260c0928302850182019282820191908785111561241957600080fd5b8387015b8581101561243c5761242f898261237c565b845292840192810161241d565b5090979650505050505050565b6000806040838503121561245c57600080fd5b823567ffffffffffffffff8082111561247457600080fd5b818501915085601f83011261248857600080fd5b813560206124986123f583612358565b82815260059290921b840181019181810190898411156124b757600080fd5b948201945b838610156124de5785356124cf816121f7565b825294820194908201906124bc565b965050860135925050808211156124f457600080fd5b50612501858286016123d4565b9150509250929050565b60006020828403121561251d57600080fd5b813561252881612209565b9392505050565b6000602080838503121561254257600080fd5b823567ffffffffffffffff8082111561255a57600080fd5b818501915085601f83011261256e57600080fd5b813581811115612580576125806122b1565b6125b0847fffffffffffffffffffffffffffffffffffffffffffffffffffffffffffffffe0601f84011601612309565b915080825286848285010111156125c657600080fd5b8084840185840137600090820190930192909252509392505050565b6000602082840312156125f457600080fd5b8135612528816121f7565b60008060008060006080868803121561261757600080fd5b8535612622816121f7565b94506020860135935060408601359250606086013567ffffffffffffffff81111561264c57600080fd5b612658888289016120f7565b969995985093965092949392505050565b60008060e0838503121561267c57600080fd5b8235612687816121f7565b9150612696846020850161237c565b90509250929050565b6000806000604084860312156126b457600080fd5b83356126bf81612209565b9250602084013567ffffffffffffffff8111156126db57600080fd5b6126e7868287016120f7565b9497909650939450505050565b8183528181602085013750600060208284010152600060207fffffffffffffffffffffffffffffffffffffffffffffffffffffffffffffffe0601f840116840101905092915050565b6020815260006127516020830184866126f4565b949350505050565b60058110612790577f4e487b7100000000000000000000000000000000000000000000000000000000600052602160045260246000fd5b9052565b606081016127a28286612759565b8360208301526127516040830184612759565b6000602082840312156127c757600080fd5b5051919050565b7f4e487b7100000000000000000000000000000000000000000000000000000000600052601160045260246000fd5b6000817fffffffffffffffffffffffffffffffffffffffffffffffffffffffffffffffff0483118215151615612835576128356127ce565b500290565b6000821982111561284d5761284d6127ce565b500190565b6000815180845260005b818110156128785760208185018101518683018201520161285c565b8181111561288a576000602083870101525b50601f017fffffffffffffffffffffffffffffffffffffffffffffffffffffffffffffffe0169290920160200192915050565b61ffff8816815260c0602082015260006128da60c0830189612852565b82810360408401526128ed81888a6126f4565b73ffffffffffffffffffffffffffffffffffffffff87811660608601528616608085015283810360a085015290506129258185612852565b9a9950505050505050505050565b7f4e487b7100000000000000000000000000000000000000000000000000000000600052603260045260246000fd5b60007fffffffffffffffffffffffffffffffffffffffffffffffffffffffffffffffff8203612993576129936127ce565b5060010190565b600082601f8301126129ab57600080fd5b815160206129bb6123f583612358565b82815260c092830285018201928282019190878511156129da57600080fd5b8387015b8581101561243c5781818a0312156129f65760008081fd5b6129fe6122e0565b81518152858201518682015260408083015190820152606080830151908201526080808301519082015260a0808301519082015284529284019281016129de565b60008060008060008060c08789031215612a5857600080fd5b8651612a6381612209565b80965050602080880151612a7681612209565b6040890151909650612a8781612209565b6060890151909550612a9881612209565b608089015190945067ffffffffffffffff80821115612ab657600080fd5b818a0191508a601f830112612aca57600080fd5b8151612ad86123f582612358565b81815260059190911b8301840190848101908d831115612af757600080fd5b938501935b82851015612b1e578451612b0f816121f7565b82529385019390850190612afc565b60a08d01519097509450505080831115612b3757600080fd5b5050612b4589828a0161299a565b9150509295509295509295565b7f4e487b7100000000000000000000000000000000000000000000000000000000600052601260045260246000fd5b600082612b9057612b90612b52565b500490565b600061ffff808316818516808303821115612bb257612bb26127ce565b01949350505050565b80516fffffffffffffffffffffffffffffffff81168114612bdb57600080fd5b919050565b60008060008060808587031215612bf657600080fd5b84519350612c0660208601612bbb565b9250612c1460408601612bbb565b9150612c2260608601612bbb565b905092959194509250565b60006fffffffffffffffffffffffffffffffff80831681851681830481118215151615612c5c57612c5c6127ce565b02949350505050565b60006fffffffffffffffffffffffffffffffff80841680612c8857612c88612b52565b92169190910492915050565b600060208284031215612ca657600080fd5b815161252881612209565b600060608284031215612cc357600080fd5b6040516060810181811067ffffffffffffffff82111715612ce657612ce66122b1565b604052612cf283612bbb565b81526020830151612d0281612140565b60208201526040830151612d15816121f7565b6040820152939250505056fea164736f6c634300080d000a",
    "linkReferences": {}
  },
  "methodIdentifiers": {
    "admin()": "f851a440",
    "adminCall(address,bytes)": "bf64a82d",
    "getAdmin()": "6e9960c3",
    "getBridge()": "0fffbaf3",
    "getGasParameters(uint32)": "6ec7fad7",
    "getHlgFee(uint32,uint256,uint256,bytes)": "8c19a89f",
    "getInterfaces()": "ebac15f9",
    "getLZEndpoint()": "36c5ab40",
    "getLZExecutor()": "aa33b3a4",
    "getMessageFee(uint32,uint256,uint256,bytes)": "ff1370d9",
    "getOperator()": "e7f43c68",
    "getOptimismGasPriceOracle()": "f0478d20",
    "init(bytes)": "4ddf47d4",
    "lzReceive(uint16,bytes,uint64,bytes)": "001d3567",
    "send(uint256,uint256,uint32,address,uint256,bytes)": "0a0542ef",
    "setAdmin(address)": "704b6c02",
    "setBridge(address)": "8dd14802",
    "setGasParameters(uint32,(uint256,uint256,uint256,uint256,uint256,uint256))": "960a4270",
    "setGasParameters(uint32[],(uint256,uint256,uint256,uint256,uint256,uint256)[])": "0e95b650",
    "setInterfaces(address)": "da8292d9",
    "setLZEndpoint(address)": "4b40f1bf",
    "setLZExecutor(address)": "fdb80b71",
    "setOperator(address)": "b3ab15fb",
    "setOptimismGasPriceOracle(address)": "9ce82792"
  }
}