{
  "address": "0x6EE8D5A2302438D80beC7C1Dc69a7e6e14199a56",
  "abi": [
    {
      "inputs": [],
      "name": "Access_OnlyAdmin",
      "type": "error"
    },
    {
      "anonymous": false,
      "inputs": [
        {
          "indexed": true,
          "internalType": "address",
          "name": "target",
          "type": "address"
        },
        {
          "indexed": false,
          "internalType": "address",
          "name": "sender",
          "type": "address"
        },
        {
          "indexed": false,
          "internalType": "string",
          "name": "newDescription",
          "type": "string"
        }
      ],
      "name": "DescriptionUpdated",
      "type": "event"
    },
    {
      "anonymous": false,
      "inputs": [
        {
          "indexed": true,
          "internalType": "address",
          "name": "target",
          "type": "address"
        },
        {
          "indexed": false,
          "internalType": "string",
          "name": "description",
          "type": "string"
        },
        {
          "indexed": false,
          "internalType": "string",
          "name": "imageURI",
          "type": "string"
        },
        {
          "indexed": false,
          "internalType": "string",
          "name": "animationURI",
          "type": "string"
        }
      ],
      "name": "EditionInitialized",
      "type": "event"
    },
    {
      "anonymous": false,
      "inputs": [
        {
          "indexed": true,
          "internalType": "address",
          "name": "target",
          "type": "address"
        },
        {
          "indexed": false,
          "internalType": "address",
          "name": "sender",
          "type": "address"
        },
        {
          "indexed": false,
          "internalType": "string",
          "name": "imageURI",
          "type": "string"
        },
        {
          "indexed": false,
          "internalType": "string",
          "name": "animationURI",
          "type": "string"
        }
      ],
      "name": "MediaURIsUpdated",
      "type": "event"
    },
    {
      "inputs": [],
      "name": "contractURI",
      "outputs": [
        {
          "internalType": "string",
          "name": "",
          "type": "string"
        }
      ],
      "stateMutability": "view",
      "type": "function"
    },
    {
      "inputs": [
        {
          "internalType": "bytes",
          "name": "",
          "type": "bytes"
        }
      ],
      "name": "init",
      "outputs": [
        {
          "internalType": "bytes4",
          "name": "",
          "type": "bytes4"
        }
      ],
      "stateMutability": "pure",
      "type": "function"
    },
    {
      "inputs": [
        {
          "internalType": "bytes",
          "name": "data",
          "type": "bytes"
        }
      ],
      "name": "initializeWithData",
      "outputs": [],
      "stateMutability": "nonpayable",
      "type": "function"
    },
    {
      "inputs": [
        {
          "internalType": "address",
          "name": "",
          "type": "address"
        }
      ],
      "name": "tokenInfos",
      "outputs": [
        {
          "internalType": "string",
          "name": "description",
          "type": "string"
        },
        {
          "internalType": "string",
          "name": "imageURI",
          "type": "string"
        },
        {
          "internalType": "string",
          "name": "animationURI",
          "type": "string"
        }
      ],
      "stateMutability": "view",
      "type": "function"
    },
    {
      "inputs": [
        {
          "internalType": "uint256",
          "name": "tokenId",
          "type": "uint256"
        }
      ],
      "name": "tokenURI",
      "outputs": [
        {
          "internalType": "string",
          "name": "",
          "type": "string"
        }
      ],
      "stateMutability": "view",
      "type": "function"
    },
    {
      "inputs": [
        {
          "internalType": "address",
          "name": "target",
          "type": "address"
        },
        {
          "internalType": "string",
          "name": "newDescription",
          "type": "string"
        }
      ],
      "name": "updateDescription",
      "outputs": [],
      "stateMutability": "nonpayable",
      "type": "function"
    },
    {
      "inputs": [
        {
          "internalType": "address",
          "name": "target",
          "type": "address"
        },
        {
          "internalType": "string",
          "name": "imageURI",
          "type": "string"
        },
        {
          "internalType": "string",
          "name": "animationURI",
          "type": "string"
        }
      ],
      "name": "updateMediaURIs",
      "outputs": [],
      "stateMutability": "nonpayable",
      "type": "function"
    }
  ],
  "transactionHash": "0xb913754982ebc6cd95268f9ee8e5f426b691a3e59e6ee3bd62aa26284386e652",
  "args": [],
  "numDeployments": 1,
  "solcInputHash": "eaccabe53e7de4a0dd89d9180b8a1c06",
  "bytecode": "0x608060405234801561001057600080fd5b50612348806100206000396000f3fe608060405234801561001057600080fd5b506004361061007d5760003560e01c80638bbb2cf21161005b5780638bbb2cf214610113578063ba46ae7214610126578063c87b56dd14610148578063e8a3d4851461016857600080fd5b80632f17b8f0146100825780634ddf47d414610097578063856a7ffa14610100575b600080fd5b6100956100903660046116c8565b610170565b005b6100ca6100a536600461173e565b507f4ddf47d40000000000000000000000000000000000000000000000000000000090565b6040517fffffffff0000000000000000000000000000000000000000000000000000000090911681526020015b60405180910390f35b61009561010e36600461173e565b610327565b61009561012136600461178f565b6103f6565b6101396101343660046117df565b610569565b6040516100f793929190611876565b61015b6101563660046118af565b610723565b6040516100f791906118c8565b61015b610a55565b8273ffffffffffffffffffffffffffffffffffffffff8116331480159061022257506040517f24d7806c00000000000000000000000000000000000000000000000000000000815233600482015273ffffffffffffffffffffffffffffffffffffffff8216906324d7806c90602401602060405180830381865afa1580156101fc573d6000803e3d6000fd5b505050506040513d601f19601f8201168201806040525081019061022091906118f0565b155b15610259576040517f02bd6bd100000000000000000000000000000000000000000000000000000000815260040160405180910390fd5b73ffffffffffffffffffffffffffffffffffffffff84166000908152602081815260409091208451610293926001909201918601906114be565b5073ffffffffffffffffffffffffffffffffffffffff841660009081526020818152604090912083516102ce926002909201918501906114be565b508373ffffffffffffffffffffffffffffffffffffffff167fc4c1b9223fcebe5f35b9030d3df655018c40e88d70b8a3c63ed851c5d972210f3385856040516103199392919061190b565b60405180910390a250505050565b6000806000838060200190518101906103409190611991565b604080516060810182528481526020808201859052818301849052336000908152808252929092208151805196995094975092955093919261038892849291909101906114be565b5060208281015180516103a192600185019201906114be565b50604082015180516103bd9160028401916020909101906114be565b50506040513391507ff889a5cdc62274389379cbfade0f225b1d30b7395177fd6aeaab61662b1c6edf9061031990869086908690611876565b8173ffffffffffffffffffffffffffffffffffffffff811633148015906104a857506040517f24d7806c00000000000000000000000000000000000000000000000000000000815233600482015273ffffffffffffffffffffffffffffffffffffffff8216906324d7806c90602401602060405180830381865afa158015610482573d6000803e3d6000fd5b505050506040513d601f19601f820116820180604052508101906104a691906118f0565b155b156104df576040517f02bd6bd100000000000000000000000000000000000000000000000000000000815260040160405180910390fd5b73ffffffffffffffffffffffffffffffffffffffff83166000908152602081815260409091208351610513928501906114be565b508273ffffffffffffffffffffffffffffffffffffffff167f36195b44a3184513e02477929207751ea9d67026b917ed74d374a7f9e8c5e4d1338460405161055c929190611a0f565b60405180910390a2505050565b60006020819052908152604090208054819061058490611a3e565b80601f01602080910402602001604051908101604052809291908181526020018280546105b090611a3e565b80156105fd5780601f106105d2576101008083540402835291602001916105fd565b820191906000526020600020905b8154815290600101906020018083116105e057829003601f168201915b50505050509080600101805461061290611a3e565b80601f016020809104026020016040519081016040528092919081815260200182805461063e90611a3e565b801561068b5780601f106106605761010080835404028352916020019161068b565b820191906000526020600020905b81548152906001019060200180831161066e57829003601f168201915b5050505050908060020180546106a090611a3e565b80601f01602080910402602001604051908101604052809291908181526020018280546106cc90611a3e565b80156107195780601f106106ee57610100808354040283529160200191610719565b820191906000526020600020905b8154815290600101906020018083116106fc57829003601f168201915b5050505050905083565b33600081815260208190526040808220815160608181019093528154929493929091908290829061075390611a3e565b80601f016020809104026020016040519081016040528092919081815260200182805461077f90611a3e565b80156107cc5780601f106107a1576101008083540402835291602001916107cc565b820191906000526020600020905b8154815290600101906020018083116107af57829003601f168201915b505050505081526020016001820180546107e590611a3e565b80601f016020809104026020016040519081016040528092919081815260200182805461081190611a3e565b801561085e5780601f106108335761010080835404028352916020019161085e565b820191906000526020600020905b81548152906001019060200180831161084157829003601f168201915b5050505050815260200160028201805461087790611a3e565b80601f01602080910402602001604051908101604052809291908181526020018280546108a390611a3e565b80156108f05780601f106108c5576101008083540402835291602001916108f0565b820191906000526020600020905b8154815290600101906020018083116108d357829003601f168201915b5050505050815250509050600082905060008173ffffffffffffffffffffffffffffffffffffffff16633474a4a66040518163ffffffff1660e01b815260040161016060405180830381865afa15801561094e573d6000803e3d6000fd5b505050506040513d601f19601f820116820180604052508101906109729190611aa9565b610140015190507fffffffffffffffffffffffffffffffffffffffffffffffff000000000000000181016109a4575060005b610a4b8473ffffffffffffffffffffffffffffffffffffffff166306fdde036040518163ffffffff1660e01b8152600401600060405180830381865afa1580156109f2573d6000803e3d6000fd5b505050506040513d6000823e601f3d9081017fffffffffffffffffffffffffffffffffffffffffffffffffffffffffffffffe0168201604052610a389190810190611b62565b8451602086015160408701518a86610d39565b9695505050505050565b3360008181526020819052604080822081517f79502c55000000000000000000000000000000000000000000000000000000008152915160609493919284916379502c55916004808201926080929091908290030181865afa158015610abf573d6000803e3d6000fd5b505050506040513d601f19601f82011682018060405250810190610ae39190611b97565b9050610d318373ffffffffffffffffffffffffffffffffffffffff166306fdde036040518163ffffffff1660e01b8152600401600060405180830381865afa158015610b33573d6000803e3d6000fd5b505050506040513d6000823e601f3d9081017fffffffffffffffffffffffffffffffffffffffffffffffffffffffffffffffe0168201604052610b799190810190611b62565b83548490610b8690611a3e565b80601f0160208091040260200160405190810160405280929190818152602001828054610bb290611a3e565b8015610bff5780601f10610bd457610100808354040283529160200191610bff565b820191906000526020600020905b815481529060010190602001808311610be257829003601f168201915b5050505050846001018054610c1390611a3e565b80601f0160208091040260200160405190810160405280929190818152602001828054610c3f90611a3e565b8015610c8c5780601f10610c6157610100808354040283529160200191610c8c565b820191906000526020600020905b815481529060010190602001808311610c6f57829003601f168201915b5050505050856002018054610ca090611a3e565b80601f0160208091040260200160405190810160405280929190818152602001828054610ccc90611a3e565b8015610d195780601f10610cee57610100808354040283529160200191610d19565b820191906000526020600020905b815481529060010190602001808311610cfc57829003601f168201915b5050505050856040015161ffff168660600151610d70565b935050505090565b60606000610d478686610e40565b90506000610d588989848888610ed0565b9050610d6381610f4c565b9998505050505050505050565b60408051602081019091526000815284516060919015610dad5785604051602001610d9b9190611c3d565b60405160208183030381529060405290505b604080516020810190915260008152855115610de65785604051602001610dd49190611c82565b60405160208183030381529060405290505b610d638989610df488610f7d565b610e158873ffffffffffffffffffffffffffffffffffffffff16601461103b565b8686604051602001610e2c96959493929190611cc7565b604051602081830303815290604052610f4c565b81518151606091158015911515908290610e575750805b15610e87578484604051602001610e6f929190611e21565b60405160208183030381529060405292505050610eca565b8115610e9e5784604051602001610e6f9190611ecc565b8015610eb55783604051602001610e6f9190611f38565b60405180602001604052806000815250925050505b92915050565b6060808215610f0457610ee283610f7d565b604051602001610ef29190611fa4565b60405160208183030381529060405290505b86610f0e85610f7d565b828888610f1a89610f7d565b8c604051602001610f319796959493929190611fe9565b60405160208183030381529060405291505095945050505050565b6060610f5782611289565b604051602001610f679190612193565b6040516020818303038152906040529050919050565b60606000610f8a836113dc565b600101905060008167ffffffffffffffff811115610faa57610faa61157c565b6040519080825280601f01601f191660200182016040528015610fd4576020820181803683370190505b5090508181016020015b7fffffffffffffffffffffffffffffffffffffffffffffffffffffffffffffffff017f3031323334353637383961626364656600000000000000000000000000000000600a86061a8153600a8504945084610fde57509392505050565b6060600061104a836002612207565b611055906002612244565b67ffffffffffffffff81111561106d5761106d61157c565b6040519080825280601f01601f191660200182016040528015611097576020820181803683370190505b5090507f3000000000000000000000000000000000000000000000000000000000000000816000815181106110ce576110ce61225c565b60200101907effffffffffffffffffffffffffffffffffffffffffffffffffffffffffffff1916908160001a9053507f7800000000000000000000000000000000000000000000000000000000000000816001815181106111315761113161225c565b60200101907effffffffffffffffffffffffffffffffffffffffffffffffffffffffffffff1916908160001a905350600061116d846002612207565b611178906001612244565b90505b6001811115611215577f303132333435363738396162636465660000000000000000000000000000000085600f16601081106111b9576111b961225c565b1a60f81b8282815181106111cf576111cf61225c565b60200101907effffffffffffffffffffffffffffffffffffffffffffffffffffffffffffff1916908160001a90535060049490941c9361120e8161228b565b905061117b565b508315611282576040517f08c379a000000000000000000000000000000000000000000000000000000000815260206004820181905260248201527f537472696e67733a20686578206c656e67746820696e73756666696369656e74604482015260640160405180910390fd5b9392505050565b606081516000036112a857505060408051602081019091526000815290565b60006040518060600160405280604081526020016122fc60409139905060006003845160026112d79190612244565b6112e191906122c0565b6112ec906004612207565b67ffffffffffffffff8111156113045761130461157c565b6040519080825280601f01601f19166020018201604052801561132e576020820181803683370190505b509050600182016020820185865187015b8082101561139a576003820191508151603f8160121c168501518453600184019350603f81600c1c168501518453600184019350603f8160061c168501518453600184019350603f811685015184535060018301925061133f565b50506003865106600181146113b657600281146113c9576113d1565b603d6001830353603d60028303536113d1565b603d60018303535b509195945050505050565b6000807a184f03e93ff9f4daa797ed6e38ed64bf6a1f0100000000000000008310611425577a184f03e93ff9f4daa797ed6e38ed64bf6a1f010000000000000000830492506040015b6d04ee2d6d415b85acef81000000008310611451576d04ee2d6d415b85acef8100000000830492506020015b662386f26fc10000831061146f57662386f26fc10000830492506010015b6305f5e1008310611487576305f5e100830492506008015b612710831061149b57612710830492506004015b606483106114ad576064830492506002015b600a8310610eca5760010192915050565b8280546114ca90611a3e565b90600052602060002090601f0160209004810192826114ec5760008555611532565b82601f1061150557805160ff1916838001178555611532565b82800160010185558215611532579182015b82811115611532578251825591602001919060010190611517565b5061153e929150611542565b5090565b5b8082111561153e5760008155600101611543565b73ffffffffffffffffffffffffffffffffffffffff8116811461157957600080fd5b50565b7f4e487b7100000000000000000000000000000000000000000000000000000000600052604160045260246000fd5b604051610160810167ffffffffffffffff811182821017156115cf576115cf61157c565b60405290565b604051601f82017fffffffffffffffffffffffffffffffffffffffffffffffffffffffffffffffe016810167ffffffffffffffff8111828210171561161c5761161c61157c565b604052919050565b600067ffffffffffffffff82111561163e5761163e61157c565b50601f017fffffffffffffffffffffffffffffffffffffffffffffffffffffffffffffffe01660200190565b600061167d61167884611624565b6115d5565b905082815283838301111561169157600080fd5b828260208301376000602084830101529392505050565b600082601f8301126116b957600080fd5b6112828383356020850161166a565b6000806000606084860312156116dd57600080fd5b83356116e881611557565b9250602084013567ffffffffffffffff8082111561170557600080fd5b611711878388016116a8565b9350604086013591508082111561172757600080fd5b50611734868287016116a8565b9150509250925092565b60006020828403121561175057600080fd5b813567ffffffffffffffff81111561176757600080fd5b8201601f8101841361177857600080fd5b6117878482356020840161166a565b949350505050565b600080604083850312156117a257600080fd5b82356117ad81611557565b9150602083013567ffffffffffffffff8111156117c957600080fd5b6117d5858286016116a8565b9150509250929050565b6000602082840312156117f157600080fd5b813561128281611557565b60005b838110156118175781810151838201526020016117ff565b83811115611826576000848401525b50505050565b600081518084526118448160208601602086016117fc565b601f017fffffffffffffffffffffffffffffffffffffffffffffffffffffffffffffffe0169290920160200192915050565b606081526000611889606083018661182c565b828103602084015261189b818661182c565b90508281036040840152610a4b818561182c565b6000602082840312156118c157600080fd5b5035919050565b602081526000611282602083018461182c565b805180151581146118eb57600080fd5b919050565b60006020828403121561190257600080fd5b611282826118db565b73ffffffffffffffffffffffffffffffffffffffff8416815260606020820152600061193a606083018561182c565b8281036040840152610a4b818561182c565b600082601f83011261195d57600080fd5b815161196b61167882611624565b81815284602083860101111561198057600080fd5b6117878260208301602087016117fc565b6000806000606084860312156119a657600080fd5b835167ffffffffffffffff808211156119be57600080fd5b6119ca8783880161194c565b945060208601519150808211156119e057600080fd5b6119ec8783880161194c565b93506040860151915080821115611a0257600080fd5b506117348682870161194c565b73ffffffffffffffffffffffffffffffffffffffff83168152604060208201526000611787604083018461182c565b600181811c90821680611a5257607f821691505b602082108103611a8b577f4e487b7100000000000000000000000000000000000000000000000000000000600052602260045260246000fd5b50919050565b805167ffffffffffffffff811681146118eb57600080fd5b60006101608284031215611abc57600080fd5b611ac46115ab565b611acd836118db565b8152611adb602084016118db565b602082015260408301516040820152611af660608401611a91565b6060820152611b0760808401611a91565b6080820152611b1860a08401611a91565b60a0820152611b2960c08401611a91565b60c082015260e0838101519082015261010080840151908201526101208084015190820152610140928301519281019290925250919050565b600060208284031215611b7457600080fd5b815167ffffffffffffffff811115611b8b57600080fd5b6117878482850161194c565b600060808284031215611ba957600080fd5b6040516080810181811067ffffffffffffffff82111715611bcc57611bcc61157c565b6040528251611bda81611557565b8152611be860208401611a91565b6020820152604083015161ffff81168114611c0257600080fd5b60408201526060830151611c1581611557565b60608201529392505050565b60008151611c338185602086016117fc565b9290920192915050565b7f222c2022696d616765223a202200000000000000000000000000000000000000815260008251611c7581600d8501602087016117fc565b91909101600d0192915050565b7f222c2022616e696d6174696f6e5f75726c223a20220000000000000000000000815260008251611cba8160158501602087016117fc565b9190910160150192915050565b7f7b226e616d65223a2022000000000000000000000000000000000000000000008152600087516020611d0082600a8601838d016117fc565b7f222c20226465736372697074696f6e223a202200000000000000000000000000600a928501928301528851611d3c81601d8501848d016117fc565b7f222c202273656c6c65725f6665655f62617369735f706f696e7473223a200000601d93909101928301528751611d7981603b8501848c016117fc565b7f2c20226665655f726563697069656e74223a2022000000000000000000000000603b93909101928301528651611db681604f8501848b016117fc565b8651920191611dcb81604f8501848a016117fc565b8551920191611de081604f85018489016117fc565b611e12604f828501017f227d000000000000000000000000000000000000000000000000000000000000815260020190565b9b9a5050505050505050505050565b7f696d616765223a20220000000000000000000000000000000000000000000000815260008351611e598160098501602088016117fc565b7f222c2022616e696d6174696f6e5f75726c223a202200000000000000000000006009918401918201528351611e9681601e8401602088016117fc565b7f222c202200000000000000000000000000000000000000000000000000000000601e9290910191820152602201949350505050565b7f696d616765223a20220000000000000000000000000000000000000000000000815260008251611f048160098501602087016117fc565b7f222c2022000000000000000000000000000000000000000000000000000000006009939091019283015250600d01919050565b7f616e696d6174696f6e5f75726c223a2022000000000000000000000000000000815260008251611f708160118501602087016117fc565b7f222c2022000000000000000000000000000000000000000000000000000000006011939091019283015250601501919050565b7f2f00000000000000000000000000000000000000000000000000000000000000815260008251611fdc8160018501602087016117fc565b9190910160010192915050565b7f7b226e616d65223a20220000000000000000000000000000000000000000000081526000885161202181600a850160208d016117fc565b7f2000000000000000000000000000000000000000000000000000000000000000600a91840191820152885161205e81600b840160208d016117fc565b885191019061207481600b840160208c016117fc565b8082019150507f222c20220000000000000000000000000000000000000000000000000000000080600b8301527f6465736372697074696f6e223a20220000000000000000000000000000000000600f83015287516120da81601e850160208c016117fc565b601e92019182015261218561215c61215661212d6121276120fe602287018c611c21565b7f70726f70657274696573223a207b226e756d626572223a200000000000000000815260180190565b89611c21565b7f2c20226e616d65223a20220000000000000000000000000000000000000000008152600b0190565b86611c21565b7f227d7d0000000000000000000000000000000000000000000000000000000000815260030190565b9a9950505050505050505050565b7f646174613a6170706c69636174696f6e2f6a736f6e3b6261736536342c0000008152600082516121cb81601d8501602087016117fc565b91909101601d0192915050565b7f4e487b7100000000000000000000000000000000000000000000000000000000600052601160045260246000fd5b6000817fffffffffffffffffffffffffffffffffffffffffffffffffffffffffffffffff048311821515161561223f5761223f6121d8565b500290565b60008219821115612257576122576121d8565b500190565b7f4e487b7100000000000000000000000000000000000000000000000000000000600052603260045260246000fd5b60008161229a5761229a6121d8565b507fffffffffffffffffffffffffffffffffffffffffffffffffffffffffffffffff0190565b6000826122f6577f4e487b7100000000000000000000000000000000000000000000000000000000600052601260045260246000fd5b50049056fe4142434445464748494a4b4c4d4e4f505152535455565758595a6162636465666768696a6b6c6d6e6f707172737475767778797a303132333435363738392b2fa164736f6c634300080d000a",
  "devdoc": {
    "events": {
      "DescriptionUpdated(address,address,string)": {
        "details": "admin function indexer feedback"
      },
      "EditionInitialized(address,string,string,string)": {
        "details": "admin function indexer feedback"
      }
    },
    "kind": "dev",
    "methods": {
      "contractURI()": {
        "returns": {
          "_0": "contract uri (if set)"
        }
      },
      "init(bytes)": {
        "details": "This function is called by the deployer/factory when creating a contractA blank init function is required to be able to call genesisDeriveFutureAddress to get the deterministic addressSince no data is required to be intialized the selector is just returned and _setInitialized() does not need to be called"
      },
      "initializeWithData(bytes)": {
        "params": {
          "data": "data to init with"
        }
      },
      "tokenURI(uint256)": {
        "params": {
          "tokenId": "to get uri for"
        },
        "returns": {
          "_0": "contract uri (if set)"
        }
      },
      "updateDescription(address,string)": {
        "params": {
          "newDescription": "new description",
          "target": "target description"
        }
      },
      "updateMediaURIs(address,string,string)": {
        "params": {
          "animationURI": "new animation uri address",
          "imageURI": "new image uri address",
          "target": "target for contract to update metadata for"
        }
      }
    },
    "version": 1
  },
  "userdoc": {
    "events": {
      "DescriptionUpdated(address,address,string)": {
        "notice": "Description updated for this edition"
      },
      "EditionInitialized(address,string,string,string)": {
        "notice": "Event for a new edition initialized"
      },
      "MediaURIsUpdated(address,address,string,string)": {
        "notice": "Event for updated Media URIs"
      }
    },
    "kind": "user",
    "methods": {
      "contractURI()": {
        "notice": "Contract URI information getter"
      },
      "init(bytes)": {
        "notice": "Used internally to initialize the contract instead of through a constructor"
      },
      "initializeWithData(bytes)": {
        "notice": "Default initializer for edition data from a specific contract"
      },
      "tokenInfos(address)": {
        "notice": "Token information mapping storage"
      },
      "tokenURI(uint256)": {
        "notice": "Token URI information getter"
      },
      "updateDescription(address,string)": {
        "notice": "Admin function to update description"
      },
      "updateMediaURIs(address,string,string)": {
        "notice": "Update media URIs"
      }
    },
    "notice": "EditionsMetadataRenderer for editions support",
    "version": 1
  },
  "storageLayout": {
    "storage": [
      {
        "astId": 8817,
        "contract": "contracts/drops/metadata/EditionsMetadataRenderer.sol:EditionsMetadataRenderer",
        "label": "tokenInfos",
        "offset": 0,
        "slot": "0",
        "type": "t_mapping(t_address,t_struct(TokenEditionInfo)8780_storage)"
      }
    ],
    "types": {
      "t_address": {
        "encoding": "inplace",
        "label": "address",
        "numberOfBytes": "20"
      },
      "t_mapping(t_address,t_struct(TokenEditionInfo)8780_storage)": {
        "encoding": "mapping",
        "key": "t_address",
        "label": "mapping(address => struct EditionsMetadataRenderer.TokenEditionInfo)",
        "numberOfBytes": "32",
        "value": "t_struct(TokenEditionInfo)8780_storage"
      },
      "t_string_storage": {
        "encoding": "bytes",
        "label": "string",
        "numberOfBytes": "32"
      },
      "t_struct(TokenEditionInfo)8780_storage": {
        "encoding": "inplace",
        "label": "struct EditionsMetadataRenderer.TokenEditionInfo",
        "members": [
          {
            "astId": 8775,
            "contract": "contracts/drops/metadata/EditionsMetadataRenderer.sol:EditionsMetadataRenderer",
            "label": "description",
            "offset": 0,
            "slot": "0",
            "type": "t_string_storage"
          },
          {
            "astId": 8777,
            "contract": "contracts/drops/metadata/EditionsMetadataRenderer.sol:EditionsMetadataRenderer",
            "label": "imageURI",
            "offset": 0,
            "slot": "1",
            "type": "t_string_storage"
          },
          {
            "astId": 8779,
            "contract": "contracts/drops/metadata/EditionsMetadataRenderer.sol:EditionsMetadataRenderer",
            "label": "animationURI",
            "offset": 0,
            "slot": "2",
            "type": "t_string_storage"
          }
        ],
        "numberOfBytes": "96"
      }
    }
  }
}