{
  "address": "0x35c13b3989169E615C14d351a70d5a3Ac3064381",
  "abi": [
    {
      "inputs": [],
      "stateMutability": "nonpayable",
      "type": "constructor"
    },
    {
      "anonymous": false,
      "inputs": [
        {
          "indexed": true,
          "internalType": "address",
          "name": "previousOwner",
          "type": "address"
        },
        {
          "indexed": true,
          "internalType": "address",
          "name": "newOwner",
          "type": "address"
        }
      ],
      "name": "OwnershipTransferred",
      "type": "event"
    },
    {
      "stateMutability": "payable",
      "type": "fallback"
    },
    {
      "inputs": [],
      "name": "admin",
      "outputs": [
        {
          "internalType": "address",
          "name": "",
          "type": "address"
        }
      ],
      "stateMutability": "view",
      "type": "function"
    },
    {
      "inputs": [
        {
          "internalType": "address",
          "name": "target",
          "type": "address"
        },
        {
          "internalType": "bytes",
          "name": "data",
          "type": "bytes"
        }
      ],
      "name": "adminCall",
      "outputs": [],
      "stateMutability": "payable",
      "type": "function"
    },
    {
      "inputs": [
        {
          "internalType": "uint32",
          "name": "fromChain",
          "type": "uint32"
        },
        {
          "internalType": "bytes",
          "name": "payload",
          "type": "bytes"
        }
      ],
      "name": "bridgeIn",
      "outputs": [
        {
          "internalType": "bytes4",
          "name": "",
          "type": "bytes4"
        }
      ],
      "stateMutability": "nonpayable",
      "type": "function"
    },
    {
      "inputs": [
        {
          "internalType": "uint32",
          "name": "toChain",
          "type": "uint32"
        },
        {
          "internalType": "address",
          "name": "sender",
          "type": "address"
        },
        {
          "internalType": "bytes",
          "name": "payload",
          "type": "bytes"
        }
      ],
      "name": "bridgeOut",
      "outputs": [
        {
          "internalType": "bytes4",
          "name": "selector",
          "type": "bytes4"
        },
        {
          "internalType": "bytes",
          "name": "data",
          "type": "bytes"
        }
      ],
      "stateMutability": "nonpayable",
      "type": "function"
    },
    {
      "inputs": [],
      "name": "getAdmin",
      "outputs": [
        {
          "internalType": "address",
          "name": "adminAddress",
          "type": "address"
        }
      ],
      "stateMutability": "view",
      "type": "function"
    },
    {
      "inputs": [],
      "name": "getOwner",
      "outputs": [
        {
          "internalType": "address",
          "name": "ownerAddress",
          "type": "address"
        }
      ],
      "stateMutability": "view",
      "type": "function"
    },
    {
      "inputs": [
        {
          "internalType": "bytes",
          "name": "initPayload",
          "type": "bytes"
        }
      ],
      "name": "init",
      "outputs": [
        {
          "internalType": "bytes4",
          "name": "",
          "type": "bytes4"
        }
      ],
      "stateMutability": "nonpayable",
      "type": "function"
    },
    {
      "inputs": [],
      "name": "owner",
      "outputs": [
        {
          "internalType": "address",
          "name": "",
          "type": "address"
        }
      ],
      "stateMutability": "view",
      "type": "function"
    },
    {
      "inputs": [
        {
          "internalType": "address",
          "name": "target",
          "type": "address"
        },
        {
          "internalType": "bytes",
          "name": "data",
          "type": "bytes"
        }
      ],
      "name": "ownerCall",
      "outputs": [],
      "stateMutability": "payable",
      "type": "function"
    },
    {
      "inputs": [
        {
          "internalType": "address",
          "name": "adminAddress",
          "type": "address"
        }
      ],
      "name": "setAdmin",
      "outputs": [],
      "stateMutability": "nonpayable",
      "type": "function"
    },
    {
      "inputs": [
        {
          "internalType": "address",
          "name": "ownerAddress",
          "type": "address"
        }
      ],
      "name": "setOwner",
      "outputs": [],
      "stateMutability": "nonpayable",
      "type": "function"
    },
    {
      "inputs": [
        {
          "internalType": "bytes32",
          "name": "eventId",
          "type": "bytes32"
        },
        {
          "internalType": "bytes",
          "name": "eventData",
          "type": "bytes"
        }
      ],
      "name": "sourceEmit",
      "outputs": [],
      "stateMutability": "nonpayable",
      "type": "function"
    },
    {
      "inputs": [
        {
          "internalType": "bytes",
          "name": "eventData",
          "type": "bytes"
        }
      ],
      "name": "sourceEmit",
      "outputs": [],
      "stateMutability": "nonpayable",
      "type": "function"
    },
    {
      "inputs": [
        {
          "internalType": "bytes32",
          "name": "eventId",
          "type": "bytes32"
        },
        {
          "internalType": "bytes32",
          "name": "topic1",
          "type": "bytes32"
        },
        {
          "internalType": "bytes32",
          "name": "topic2",
          "type": "bytes32"
        },
        {
          "internalType": "bytes32",
          "name": "topic3",
          "type": "bytes32"
        },
        {
          "internalType": "bytes",
          "name": "eventData",
          "type": "bytes"
        }
      ],
      "name": "sourceEmit",
      "outputs": [],
      "stateMutability": "nonpayable",
      "type": "function"
    },
    {
      "inputs": [
        {
          "internalType": "bytes32",
          "name": "eventId",
          "type": "bytes32"
        },
        {
          "internalType": "bytes32",
          "name": "topic1",
          "type": "bytes32"
        },
        {
          "internalType": "bytes",
          "name": "eventData",
          "type": "bytes"
        }
      ],
      "name": "sourceEmit",
      "outputs": [],
      "stateMutability": "nonpayable",
      "type": "function"
    },
    {
      "inputs": [
        {
          "internalType": "bytes32",
          "name": "eventId",
          "type": "bytes32"
        },
        {
          "internalType": "bytes32",
          "name": "topic1",
          "type": "bytes32"
        },
        {
          "internalType": "bytes32",
          "name": "topic2",
          "type": "bytes32"
        },
        {
          "internalType": "bytes",
          "name": "eventData",
          "type": "bytes"
        }
      ],
      "name": "sourceEmit",
      "outputs": [],
      "stateMutability": "nonpayable",
      "type": "function"
    },
    {
      "inputs": [
        {
          "internalType": "address",
          "name": "target",
          "type": "address"
        },
        {
          "internalType": "bytes",
          "name": "data",
          "type": "bytes"
        }
      ],
      "name": "sourceExternalCall",
      "outputs": [],
      "stateMutability": "nonpayable",
      "type": "function"
    },
    {
      "inputs": [
        {
          "internalType": "address payable",
          "name": "destination",
          "type": "address"
        },
        {
          "internalType": "uint256",
          "name": "amount",
          "type": "uint256"
        }
      ],
      "name": "sourceTransfer",
      "outputs": [],
      "stateMutability": "nonpayable",
      "type": "function"
    },
    {
      "inputs": [
        {
          "internalType": "bytes4",
          "name": "interfaceId",
          "type": "bytes4"
        }
      ],
      "name": "supportsInterface",
      "outputs": [
        {
          "internalType": "bool",
          "name": "",
          "type": "bool"
        }
      ],
      "stateMutability": "view",
      "type": "function"
    },
    {
      "inputs": [
        {
          "internalType": "address",
          "name": "newOwner",
          "type": "address"
        }
      ],
      "name": "transferOwnership",
      "outputs": [],
      "stateMutability": "nonpayable",
      "type": "function"
    },
    {
      "stateMutability": "payable",
      "type": "receive"
    }
  ],
  "transactionHash": "0x7f61c824143c7c3100342a55b08fc0cd20ce1d467ae905efedcba5180eb17da5",
  "args": [],
  "numDeployments": 1,
  "solcInputHash": "eaccabe53e7de4a0dd89d9180b8a1c06",
  "bytecode": "0x608060405234801561001057600080fd5b50612178806100206000396000f3fe6080604052600436106101635760003560e01c8063893d20e8116100c0578063c5655fce11610074578063ebad1ffe11610059578063ebad1ffe14610450578063f2fde38b14610470578063f851a440146104905761016a565b8063c5655fce1461041d578063eb66dbcf1461043d5761016a565b8063a9fb6c72116100a5578063a9fb6c72146103bc578063b7e03661146103dc578063bf64a82d1461040a5761016a565b8063893d20e8146103735780638da5cb5b146103a75761016a565b8063207e69a81161011757806360795403116100fc57806360795403146102de5780636e9960c3146102fe578063704b6c02146103535761016a565b8063207e69a81461029e5780634ddf47d4146102be5761016a565b8063035c5c6511610148578063035c5c651461020d57806308a1eb201461022d57806313af40351461027e5761016a565b806301ffc9a7146101b8578063023db0cd146101ed5761016a565b3661016a57005b3660008037333652600080602036016000347f27d542086d1e831d40b749e7f5509a626c3047a36d160781c40d5acc83e5b074545af13d6000803e8080156101b1573d6000f35b3d6000fd5b005b3480156101c457600080fd5b506101d86101d33660046119ce565b6104a5565b60405190151581526020015b60405180910390f35b3480156101f957600080fd5b506101b6610208366004611a3b565b61063b565b34801561021957600080fd5b506101b6610228366004611a87565b6106f1565b34801561023957600080fd5b5061024d610248366004611ae2565b6107a0565b6040517fffffffff0000000000000000000000000000000000000000000000000000000090911681526020016101e4565b34801561028a57600080fd5b506101b6610299366004611b3e565b610a0c565b3480156102aa57600080fd5b506101b66102b9366004611b5b565b610b6f565b3480156102ca57600080fd5b5061024d6102d9366004611c89565b610c26565b3480156102ea57600080fd5b506101b66102f9366004611d09565b610e9e565b34801561030a57600080fd5b507f3f106594dc74eeef980dae234cde8324dc2497b13d27a0c59e55bd2ca10a07c9545b60405173ffffffffffffffffffffffffffffffffffffffff90911681526020016101e4565b34801561035f57600080fd5b506101b661036e366004611b3e565b610f51565b34801561037f57600080fd5b507fb56711ba6bd3ded7639fc335ee7524fe668a79d7558c85992e3f8494cf7727775461032e565b3480156103b357600080fd5b5061032e61102b565b3480156103c857600080fd5b506101b66103d7366004611d5c565b6110c7565b3480156103e857600080fd5b506103fc6103f7366004611d7c565b611188565b6040516101e4929190611e3d565b6101b6610418366004611d5c565b6113c2565b34801561042957600080fd5b506101b6610438366004611e80565b611498565b6101b661044b366004611d5c565b611582565b34801561045c57600080fd5b506101b661046b366004611eac565b611638565b34801561047c57600080fd5b506101b661048b366004611b3e565b6116ed565b34801561049c57600080fd5b5061032e611844565b6000806104b0611873565b7f27d542086d1e831d40b749e7f5509a626c3047a36d160781c40d5acc83e5b074546040517f9fe7303f0000000000000000000000000000000000000000000000000000000081529192509073ffffffffffffffffffffffffffffffffffffffff831690639fe7303f9061052b906005908890600401611f3c565b602060405180830381865afa158015610548573d6000803e3d6000fd5b505050506040513d601f19601f8201168201806040525081019061056c9190611fb8565b8061062257506040517f01ffc9a70000000000000000000000000000000000000000000000000000000081527fffffffff000000000000000000000000000000000000000000000000000000008516600482015273ffffffffffffffffffffffffffffffffffffffff8216906301ffc9a790602401602060405180830381865afa1580156105fe573d6000803e3d6000fd5b505050506040513d601f19601f820116820180604052508101906106229190611fb8565b15610631575060019392505050565b5060009392505050565b7f27d542086d1e831d40b749e7f5509a626c3047a36d160781c40d5acc83e5b074543373ffffffffffffffffffffffffffffffffffffffff8216146106e1576040517f08c379a000000000000000000000000000000000000000000000000000000000815260206004820152601960248201527f47454e455249433a20736f75726365206f6e6c792063616c6c0000000000000060448201526064015b60405180910390fd5b818360003783826000a150505050565b7f27d542086d1e831d40b749e7f5509a626c3047a36d160781c40d5acc83e5b074543373ffffffffffffffffffffffffffffffffffffffff821614610792576040517f08c379a000000000000000000000000000000000000000000000000000000000815260206004820152601960248201527f47454e455249433a20736f75726365206f6e6c792063616c6c0000000000000060448201526064016106d8565b8183600037816000a0505050565b60006107ca7fb4107f746e9496e8452accc7de63d1c5e14c19f510932daa04077cd49e8bd77a5490565b73ffffffffffffffffffffffffffffffffffffffff16630fffbaf36040518163ffffffff1660e01b8152600401602060405180830381865afa158015610814573d6000803e3d6000fd5b505050506040513d601f19601f820116820180604052508101906108389190611fd3565b73ffffffffffffffffffffffffffffffffffffffff163373ffffffffffffffffffffffffffffffffffffffff16146108cc576040517f08c379a000000000000000000000000000000000000000000000000000000000815260206004820152601960248201527f47454e455249433a20627269646765206f6e6c792063616c6c0000000000000060448201526064016106d8565b6108d6600161190b565b156109e35761097d6308a1eb2060e01b8585856040516024016108fb93929190612039565b604080517fffffffffffffffffffffffffffffffffffffffffffffffffffffffffffffffe08184030181529190526020810180517bffffffffffffffffffffffffffffffffffffffffffffffffffffffff167fffffffff000000000000000000000000000000000000000000000000000000009093169290921790915261193e565b6109e3576040517f08c379a000000000000000000000000000000000000000000000000000000000815260206004820152601b60248201527f484f4c4f47524150483a2062726964676520696e206661696c6564000000000060448201526064016106d8565b507f08a1eb20000000000000000000000000000000000000000000000000000000009392505050565b7fb56711ba6bd3ded7639fc335ee7524fe668a79d7558c85992e3f8494cf7727775473ffffffffffffffffffffffffffffffffffffffff163373ffffffffffffffffffffffffffffffffffffffff1614610ac2576040517f08c379a000000000000000000000000000000000000000000000000000000000815260206004820152601e60248201527f484f4c4f47524150483a206f776e6572206f6e6c792066756e6374696f6e000060448201526064016106d8565b6000610aec7fb56711ba6bd3ded7639fc335ee7524fe668a79d7558c85992e3f8494cf7727775490565b9050817fb56711ba6bd3ded7639fc335ee7524fe668a79d7558c85992e3f8494cf772777558173ffffffffffffffffffffffffffffffffffffffff168173ffffffffffffffffffffffffffffffffffffffff167f8be0079c531659141344cd1fd0a4f28419497f9722a3daafe3b4186f6b6457e060405160405180910390a35050565b7f27d542086d1e831d40b749e7f5509a626c3047a36d160781c40d5acc83e5b074543373ffffffffffffffffffffffffffffffffffffffff821614610c10576040517f08c379a000000000000000000000000000000000000000000000000000000000815260206004820152601960248201527f47454e455249433a20736f75726365206f6e6c792063616c6c0000000000000060448201526064016106d8565b818360003783858789856000a450505050505050565b6000610c507f4e5f991bca30eca2d4643aaefa807e88f96a4a97398933d572a3c0d973004a015490565b15610cb7576040517f08c379a000000000000000000000000000000000000000000000000000000000815260206004820152601c60248201527f47454e455249433a20616c726561647920696e697469616c697a65640000000060448201526064016106d8565b6000337fb56711ba6bd3ded7639fc335ee7524fe668a79d7558c85992e3f8494cf772777557f27d542086d1e831d40b749e7f5509a626c3047a36d160781c40d5acc83e5b074549050600080600085806020019051810190610d199190612062565b60008390559194509250905081610e4a576040517f4ddf47d4000000000000000000000000000000000000000000000000000000008082529073ffffffffffffffffffffffffffffffffffffffff861690634ddf47d490610d7e9085906004016120f5565b6020604051808303816000875af1158015610d9d573d6000803e3d6000fd5b505050506040513d601f19601f82011682018060405250810190610dc19190612108565b7fffffffff000000000000000000000000000000000000000000000000000000001614610e4a576040517f08c379a000000000000000000000000000000000000000000000000000000000815260206004820152601e60248201527f47454e455249433a20636f756c64206e6f7420696e697420736f75726365000060448201526064016106d8565b610e7360017f4e5f991bca30eca2d4643aaefa807e88f96a4a97398933d572a3c0d973004a0155565b507f4ddf47d40000000000000000000000000000000000000000000000000000000095945050505050565b7f27d542086d1e831d40b749e7f5509a626c3047a36d160781c40d5acc83e5b074543373ffffffffffffffffffffffffffffffffffffffff821614610f3f576040517f08c379a000000000000000000000000000000000000000000000000000000000815260206004820152601960248201527f47454e455249433a20736f75726365206f6e6c792063616c6c0000000000000060448201526064016106d8565b81836000378385836000a25050505050565b7f3f106594dc74eeef980dae234cde8324dc2497b13d27a0c59e55bd2ca10a07c95473ffffffffffffffffffffffffffffffffffffffff163373ffffffffffffffffffffffffffffffffffffffff1614611007576040517f08c379a000000000000000000000000000000000000000000000000000000000815260206004820152601e60248201527f484f4c4f47524150483a2061646d696e206f6e6c792066756e6374696f6e000060448201526064016106d8565b7f3f106594dc74eeef980dae234cde8324dc2497b13d27a0c59e55bd2ca10a07c955565b6000807f27d542086d1e831d40b749e7f5509a626c3047a36d160781c40d5acc83e5b0745490508073ffffffffffffffffffffffffffffffffffffffff16638da5cb5b6040518163ffffffff1660e01b8152600401602060405180830381865afa15801561109d573d6000803e3d6000fd5b505050506040513d601f19601f820116820180604052508101906110c19190611fd3565b91505090565b7f27d542086d1e831d40b749e7f5509a626c3047a36d160781c40d5acc83e5b074543373ffffffffffffffffffffffffffffffffffffffff821614611168576040517f08c379a000000000000000000000000000000000000000000000000000000000815260206004820152601960248201527f47454e455249433a20736f75726365206f6e6c792063616c6c0000000000000060448201526064016106d8565b818360003760008083600034885af13d6000803e8080156101b1573d6000f35b600060606111b47fb4107f746e9496e8452accc7de63d1c5e14c19f510932daa04077cd49e8bd77a5490565b73ffffffffffffffffffffffffffffffffffffffff16630fffbaf36040518163ffffffff1660e01b8152600401602060405180830381865afa1580156111fe573d6000803e3d6000fd5b505050506040513d601f19601f820116820180604052508101906112229190611fd3565b73ffffffffffffffffffffffffffffffffffffffff163373ffffffffffffffffffffffffffffffffffffffff16146112b6576040517f08c379a000000000000000000000000000000000000000000000000000000000815260206004820152601960248201527f47454e455249433a20627269646765206f6e6c792063616c6c0000000000000060448201526064016106d8565b6112c0600261190b565b1561139657600063b7e0366160e01b878787876040516024016112e69493929190612125565b604051602081830303815290604052907bffffffffffffffffffffffffffffffffffffffffffffffffffffffff19166020820180517bffffffffffffffffffffffffffffffffffffffffffffffffffffffff83818316178352505050509050336020825101820152600080602083510160208401347f27d542086d1e831d40b749e7f5509a626c3047a36d160781c40d5acc83e5b074545af160203d036020843e8080611392573d6000fd5b5050505b7fb7e0366100000000000000000000000000000000000000000000000000000000915094509492505050565b7f3f106594dc74eeef980dae234cde8324dc2497b13d27a0c59e55bd2ca10a07c95473ffffffffffffffffffffffffffffffffffffffff163373ffffffffffffffffffffffffffffffffffffffff1614611478576040517f08c379a000000000000000000000000000000000000000000000000000000000815260206004820152601e60248201527f484f4c4f47524150483a2061646d696e206f6e6c792066756e6374696f6e000060448201526064016106d8565b808260003760008082600034875af13d6000803e8080156101b1573d6000f35b7f27d542086d1e831d40b749e7f5509a626c3047a36d160781c40d5acc83e5b074543373ffffffffffffffffffffffffffffffffffffffff821614611539576040517f08c379a000000000000000000000000000000000000000000000000000000000815260206004820152601960248201527f47454e455249433a20736f75726365206f6e6c792063616c6c0000000000000060448201526064016106d8565b60405173ffffffffffffffffffffffffffffffffffffffff84169083156108fc029084906000818181858888f1935050505015801561157c573d6000803e3d6000fd5b50505050565b7fb56711ba6bd3ded7639fc335ee7524fe668a79d7558c85992e3f8494cf7727775473ffffffffffffffffffffffffffffffffffffffff163373ffffffffffffffffffffffffffffffffffffffff1614611478576040517f08c379a000000000000000000000000000000000000000000000000000000000815260206004820152601e60248201527f484f4c4f47524150483a206f776e6572206f6e6c792066756e6374696f6e000060448201526064016106d8565b7f27d542086d1e831d40b749e7f5509a626c3047a36d160781c40d5acc83e5b074543373ffffffffffffffffffffffffffffffffffffffff8216146116d9576040517f08c379a000000000000000000000000000000000000000000000000000000000815260206004820152601960248201527f47454e455249433a20736f75726365206f6e6c792063616c6c0000000000000060448201526064016106d8565b8183600037838587846000a3505050505050565b7fb56711ba6bd3ded7639fc335ee7524fe668a79d7558c85992e3f8494cf7727775473ffffffffffffffffffffffffffffffffffffffff163373ffffffffffffffffffffffffffffffffffffffff16146117a3576040517f08c379a000000000000000000000000000000000000000000000000000000000815260206004820152601e60248201527f484f4c4f47524150483a206f776e6572206f6e6c792066756e6374696f6e000060448201526064016106d8565b73ffffffffffffffffffffffffffffffffffffffff8116611820576040517f08c379a000000000000000000000000000000000000000000000000000000000815260206004820152601760248201527f484f4c4f47524150483a207a65726f206164647265737300000000000000000060448201526064016106d8565b7fb56711ba6bd3ded7639fc335ee7524fe668a79d7558c85992e3f8494cf77277755565b600061186e7f3f106594dc74eeef980dae234cde8324dc2497b13d27a0c59e55bd2ca10a07c95490565b905090565b600061189d7fb4107f746e9496e8452accc7de63d1c5e14c19f510932daa04077cd49e8bd77a5490565b73ffffffffffffffffffffffffffffffffffffffff1663ebac15f96040518163ffffffff1660e01b8152600401602060405180830381865afa1580156118e7573d6000803e3d6000fd5b505050506040513d601f19601f8201168201806040525081019061186e9190611fd3565b6000600182600281111561192157611921611f0d565b600054901c16600114611935576000611938565b60015b92915050565b600060405160208101604052336020845101840152600080602085510160208601347f27d542086d1e831d40b749e7f5509a626c3047a36d160781c40d5acc83e5b074545af13d6000833e8080611994573d6000fd5b50505192915050565b7fffffffff00000000000000000000000000000000000000000000000000000000811681146119cb57600080fd5b50565b6000602082840312156119e057600080fd5b81356119eb8161199d565b9392505050565b60008083601f840112611a0457600080fd5b50813567ffffffffffffffff811115611a1c57600080fd5b602083019150836020828501011115611a3457600080fd5b9250929050565b600080600060408486031215611a5057600080fd5b83359250602084013567ffffffffffffffff811115611a6e57600080fd5b611a7a868287016119f2565b9497909650939450505050565b60008060208385031215611a9a57600080fd5b823567ffffffffffffffff811115611ab157600080fd5b611abd858286016119f2565b90969095509350505050565b803563ffffffff81168114611add57600080fd5b919050565b600080600060408486031215611af757600080fd5b611b0084611ac9565b9250602084013567ffffffffffffffff811115611a6e57600080fd5b73ffffffffffffffffffffffffffffffffffffffff811681146119cb57600080fd5b600060208284031215611b5057600080fd5b81356119eb81611b1c565b60008060008060008060a08789031215611b7457600080fd5b86359550602087013594506040870135935060608701359250608087013567ffffffffffffffff811115611ba757600080fd5b611bb389828a016119f2565b979a9699509497509295939492505050565b7f4e487b7100000000000000000000000000000000000000000000000000000000600052604160045260246000fd5b604051601f82017fffffffffffffffffffffffffffffffffffffffffffffffffffffffffffffffe016810167ffffffffffffffff81118282101715611c3b57611c3b611bc5565b604052919050565b600067ffffffffffffffff821115611c5d57611c5d611bc5565b50601f017fffffffffffffffffffffffffffffffffffffffffffffffffffffffffffffffe01660200190565b600060208284031215611c9b57600080fd5b813567ffffffffffffffff811115611cb257600080fd5b8201601f81018413611cc357600080fd5b8035611cd6611cd182611c43565b611bf4565b818152856020838501011115611ceb57600080fd5b81602084016020830137600091810160200191909152949350505050565b60008060008060608587031215611d1f57600080fd5b8435935060208501359250604085013567ffffffffffffffff811115611d4457600080fd5b611d50878288016119f2565b95989497509550505050565b600080600060408486031215611d7157600080fd5b8335611b0081611b1c565b60008060008060608587031215611d9257600080fd5b611d9b85611ac9565b93506020850135611dab81611b1c565b9250604085013567ffffffffffffffff811115611d4457600080fd5b60005b83811015611de2578181015183820152602001611dca565b8381111561157c5750506000910152565b60008151808452611e0b816020860160208601611dc7565b601f017fffffffffffffffffffffffffffffffffffffffffffffffffffffffffffffffe0169290920160200192915050565b7fffffffff0000000000000000000000000000000000000000000000000000000083168152604060208201526000611e786040830184611df3565b949350505050565b60008060408385031215611e9357600080fd5b8235611e9e81611b1c565b946020939093013593505050565b600080600080600060808688031215611ec457600080fd5b853594506020860135935060408601359250606086013567ffffffffffffffff811115611ef057600080fd5b611efc888289016119f2565b969995985093965092949392505050565b7f4e487b7100000000000000000000000000000000000000000000000000000000600052602160045260246000fd5b6040810160068410611f77577f4e487b7100000000000000000000000000000000000000000000000000000000600052602160045260246000fd5b9281527fffffffff000000000000000000000000000000000000000000000000000000009190911660209091015290565b80518015158114611add57600080fd5b600060208284031215611fca57600080fd5b6119eb82611fa8565b600060208284031215611fe557600080fd5b81516119eb81611b1c565b8183528181602085013750600060208284010152600060207fffffffffffffffffffffffffffffffffffffffffffffffffffffffffffffffe0601f840116840101905092915050565b63ffffffff84168152604060208201526000612059604083018486611ff0565b95945050505050565b60008060006060848603121561207757600080fd5b8351925061208760208501611fa8565b9150604084015167ffffffffffffffff8111156120a357600080fd5b8401601f810186136120b457600080fd5b80516120c2611cd182611c43565b8181528760208385010111156120d757600080fd5b6120e8826020830160208601611dc7565b8093505050509250925092565b6020815260006119eb6020830184611df3565b60006020828403121561211a57600080fd5b81516119eb8161199d565b63ffffffff8516815273ffffffffffffffffffffffffffffffffffffffff84166020820152606060408201526000612161606083018486611ff0565b969550505050505056fea164736f6c634300080d000a",
  "devdoc": {
    "author": "Holograph Foundation",
    "details": "The entire logic and functionality of the smart contract is self-contained.",
    "kind": "dev",
    "methods": {
      "constructor": {
        "details": "Constructor is left empty and init is used instead"
      },
      "init(bytes)": {
        "details": "This function is called by the deployer/factory when creating a contract",
        "params": {
          "initPayload": "abi encoded payload to use for contract initilaization"
        }
      },
      "sourceEmit(bytes)": {
        "details": "Allows for source smart contract to emit events."
      },
      "sourceExternalCall(address,bytes)": {
        "details": "Allows for source smart contract to make calls to external contracts"
      },
      "sourceTransfer(address,uint256)": {
        "details": "Allows for source smart contract to withdraw contract balance."
      },
      "supportsInterface(bytes4)": {
        "details": "Although EIP-165 is not required for ERC20 contracts, we still decided to implement it. This makes it easier for external smart contracts to easily identify a valid ERC20 token contract."
      }
    },
    "stateVariables": {
      "_eventConfig": {
        "details": "Configuration for events to trigger for source smart contract."
      },
      "_holographSlot": {
        "details": "bytes32(uint256(keccak256('eip1967.Holograph.holograph')) - 1)"
      },
      "_sourceContractSlot": {
        "details": "bytes32(uint256(keccak256('eip1967.Holograph.sourceContract')) - 1)"
      }
    },
    "title": "Holograph Bridgeable Generic Contract",
    "version": 1
  },
  "userdoc": {
    "kind": "user",
    "methods": {
      "init(bytes)": {
        "notice": "Used internally to initialize the contract instead of through a constructor"
      }
    },
    "notice": "A smart contract for creating custom bridgeable logic.",
    "version": 1
  },
  "storageLayout": {
    "storage": [
      {
        "astId": 22097,
        "contract": "contracts/enforcer/HolographGeneric.sol:HolographGeneric",
        "label": "_eventConfig",
        "offset": 0,
        "slot": "0",
        "type": "t_uint256"
      }
    ],
    "types": {
      "t_uint256": {
        "encoding": "inplace",
        "label": "uint256",
        "numberOfBytes": "32"
      }
    }
  }
}