{
  "address": "0xD24fae7301e7ac3D5826dC2482068d675ff84319",
  "abi": [
    {
      "inputs": [],
      "stateMutability": "nonpayable",
      "type": "constructor"
    },
    {
      "stateMutability": "payable",
      "type": "fallback"
    },
    {
      "inputs": [
        {
          "internalType": "address",
          "name": "",
          "type": "address"
        },
        {
          "internalType": "uint256",
          "name": "_tokenId",
          "type": "uint256"
        }
      ],
      "name": "afterBurn",
      "outputs": [
        {
          "internalType": "bool",
          "name": "",
          "type": "bool"
        }
      ],
      "stateMutability": "nonpayable",
      "type": "function"
    },
    {
      "inputs": [
        {
          "internalType": "uint32",
          "name": "",
          "type": "uint32"
        },
        {
          "internalType": "address",
          "name": "",
          "type": "address"
        },
        {
          "internalType": "address",
          "name": "",
          "type": "address"
        },
        {
          "internalType": "uint256",
          "name": "_tokenId",
          "type": "uint256"
        },
        {
          "internalType": "bytes",
          "name": "_data",
          "type": "bytes"
        }
      ],
      "name": "bridgeIn",
      "outputs": [
        {
          "internalType": "bool",
          "name": "",
          "type": "bool"
        }
      ],
      "stateMutability": "nonpayable",
      "type": "function"
    },
    {
      "inputs": [
        {
          "internalType": "uint32",
          "name": "",
          "type": "uint32"
        },
        {
          "internalType": "address",
          "name": "",
          "type": "address"
        },
        {
          "internalType": "address",
          "name": "",
          "type": "address"
        },
        {
          "internalType": "uint256",
          "name": "_tokenId",
          "type": "uint256"
        }
      ],
      "name": "bridgeOut",
      "outputs": [
        {
          "internalType": "bytes",
          "name": "_data",
          "type": "bytes"
        }
      ],
      "stateMutability": "view",
      "type": "function"
    },
    {
      "inputs": [
        {
          "internalType": "uint224",
          "name": "tokenId",
          "type": "uint224"
        },
        {
          "components": [
            {
              "internalType": "bytes32",
              "name": "payloadHash",
              "type": "bytes32"
            },
            {
              "components": [
                {
                  "internalType": "bytes32",
                  "name": "r",
                  "type": "bytes32"
                },
                {
                  "internalType": "bytes32",
                  "name": "s",
                  "type": "bytes32"
                },
                {
                  "internalType": "uint8",
                  "name": "v",
                  "type": "uint8"
                }
              ],
              "internalType": "struct Verification",
              "name": "payloadSignature",
              "type": "tuple"
            },
            {
              "internalType": "address",
              "name": "creator",
              "type": "address"
            },
            {
              "internalType": "bytes32",
              "name": "arweave",
              "type": "bytes32"
            },
            {
              "internalType": "bytes11",
              "name": "arweave2",
              "type": "bytes11"
            },
            {
              "internalType": "bytes32",
              "name": "ipfs",
              "type": "bytes32"
            },
            {
              "internalType": "bytes14",
              "name": "ipfs2",
              "type": "bytes14"
            }
          ],
          "internalType": "struct TokenData",
          "name": "tokenData",
          "type": "tuple"
        }
      ],
      "name": "cxipMint",
      "outputs": [],
      "stateMutability": "nonpayable",
      "type": "function"
    },
    {
      "inputs": [
        {
          "internalType": "bytes",
          "name": "data",
          "type": "bytes"
        }
      ],
      "name": "init",
      "outputs": [
        {
          "internalType": "bytes4",
          "name": "",
          "type": "bytes4"
        }
      ],
      "stateMutability": "nonpayable",
      "type": "function"
    },
    {
      "inputs": [
        {
          "internalType": "address",
          "name": "wallet",
          "type": "address"
        }
      ],
      "name": "isOwner",
      "outputs": [
        {
          "internalType": "bool",
          "name": "",
          "type": "bool"
        }
      ],
      "stateMutability": "view",
      "type": "function"
    },
    {
      "inputs": [],
      "name": "isOwner",
      "outputs": [
        {
          "internalType": "bool",
          "name": "",
          "type": "bool"
        }
      ],
      "stateMutability": "view",
      "type": "function"
    },
    {
      "inputs": [],
      "name": "owner",
      "outputs": [
        {
          "internalType": "address",
          "name": "",
          "type": "address"
        }
      ],
      "stateMutability": "view",
      "type": "function"
    },
    {
      "inputs": [
        {
          "internalType": "bytes4",
          "name": "",
          "type": "bytes4"
        }
      ],
      "name": "supportsInterface",
      "outputs": [
        {
          "internalType": "bool",
          "name": "",
          "type": "bool"
        }
      ],
      "stateMutability": "pure",
      "type": "function"
    },
    {
      "inputs": [
        {
          "internalType": "uint256",
          "name": "_tokenId",
          "type": "uint256"
        }
      ],
      "name": "tokenURI",
      "outputs": [
        {
          "internalType": "string",
          "name": "",
          "type": "string"
        }
      ],
      "stateMutability": "view",
      "type": "function"
    },
    {
      "stateMutability": "payable",
      "type": "receive"
    }
  ],
  "transactionHash": "0x12f5851a6492907c4c279f769d6f33f4100b0014f04e3c757712e3e8dec1b539",
  "args": [],
  "numDeployments": 1,
  "solcInputHash": "6268f4815d1b695602d2038a17eb1c6d",
  "bytecode": "0x608060405234801561001057600080fd5b506119a2806100206000396000f3fe6080604052600436106100b55760003560e01c80638f32d59b11610069578063c87b56dd1161004e578063c87b56dd14610254578063d167134c14610274578063f0f5407314610294576100bc565b80638f32d59b1461021f578063971c34b414610234576100bc565b80634ddf47d41161009a5780634ddf47d41461016c5780638b1465c6146101bd5780638da5cb5b146101ea576100bc565b806301ffc9a7146100fa5780632f54bf6e14610130576100bc565b366100bc57005b337fe860eb97addcc8d7a4df2e57474b879e6fae678a490e3807075a99030ddd92505414600181146100ed57600080fd5b600160805260206080f35b005b34801561010657600080fd5b5061011b6101153660046111b8565b50600090565b60405190151581526020015b60405180910390f35b34801561013c57600080fd5b5061011b61014b36600461122a565b60005473ffffffffffffffffffffffffffffffffffffffff91821691161490565b34801561017857600080fd5b5061018c6101873660046112c2565b6102b4565b6040517fffffffff000000000000000000000000000000000000000000000000000000009091168152602001610127565b3480156101c957600080fd5b506101dd6101d83660046113a5565b61031d565b604051610127919061145f565b3480156101f657600080fd5b5060005460405173ffffffffffffffffffffffffffffffffffffffff9091168152602001610127565b34801561022b57600080fd5b5061011b6104cf565b34801561024057600080fd5b5061011b61024f366004611472565b61058d565b34801561026057600080fd5b506101dd61026f36600461149e565b610729565b34801561028057600080fd5b506100f861028f3660046114b7565b61087a565b3480156102a057600080fd5b5061011b6102af366004611539565b610ea4565b600080828060200190518101906102cb91906115ea565b600080547fffffffffffffffffffffffff00000000000000000000000000000000000000001673ffffffffffffffffffffffffffffffffffffffff83161790559050610316836110af565b9392505050565b60606103477fe860eb97addcc8d7a4df2e57474b879e6fae678a490e3807075a99030ddd92505490565b73ffffffffffffffffffffffffffffffffffffffff163373ffffffffffffffffffffffffffffffffffffffff16146103e0576040517f08c379a000000000000000000000000000000000000000000000000000000000815260206004820152601860248201527f4552433732313a20686f6c6f67726170686572206f6e6c79000000000000000060448201526064015b60405180910390fd5b6000828152600160208181526040928390208351815492810192909252918201549281019290925260028101546060830152600381015460ff166080830152600481015473ffffffffffffffffffffffffffffffffffffffff1660a0830152600581015460c0830152600681015460a81b7fffffffffffffffffffffff0000000000000000000000000000000000000000001660e083015260078101546101008301526008015460901b7fffffffffffffffffffffffffffff00000000000000000000000000000000000016610120820152610140016040516020818303038152906040529050949350505050565b60006104f97fe860eb97addcc8d7a4df2e57474b879e6fae678a490e3807075a99030ddd92505490565b73ffffffffffffffffffffffffffffffffffffffff16330361056e5760005473ffffffffffffffffffffffffffffffffffffffff16367fffffffffffffffffffffffffffffffffffffffffffffffffffffffffffffffe0013573ffffffffffffffffffffffffffffffffffffffff1614905090565b5060005473ffffffffffffffffffffffffffffffffffffffff16331490565b60006105b77fe860eb97addcc8d7a4df2e57474b879e6fae678a490e3807075a99030ddd92505490565b73ffffffffffffffffffffffffffffffffffffffff163373ffffffffffffffffffffffffffffffffffffffff161461064b576040517f08c379a000000000000000000000000000000000000000000000000000000000815260206004820152601860248201527f4552433732313a20686f6c6f67726170686572206f6e6c79000000000000000060448201526064016103d7565b5060009081526001602081905260408220828155808201839055600281018390556003810180547fffffffffffffffffffffffffffffffffffffffffffffffffffffffffffffff001690556004810180547fffffffffffffffffffffffff0000000000000000000000000000000000000000169055600581018390556006810180547fffffffffffffffffffffffffffffffffffffffffff00000000000000000000001690556007810192909255600890910180547fffffffffffffffffffffffffffffffffffff0000000000000000000000000000169055919050565b60606107537fe860eb97addcc8d7a4df2e57474b879e6fae678a490e3807075a99030ddd92505490565b73ffffffffffffffffffffffffffffffffffffffff163373ffffffffffffffffffffffffffffffffffffffff16146107e7576040517f08c379a000000000000000000000000000000000000000000000000000000000815260206004820152601860248201527f4552433732313a20686f6c6f67726170686572206f6e6c79000000000000000060448201526064016103d7565b600082815260016020908152604091829020600581015460069091015492517f68747470733a2f2f617277656176652e6e65742f00000000000000000000000092810192909252603482015260a89190911b7fffffffffffffffffffffff000000000000000000000000000000000000000000166054820152605f0160405160208183030381529060405290505b919050565b7fe860eb97addcc8d7a4df2e57474b879e6fae678a490e3807075a99030ddd92505473ffffffffffffffffffffffffffffffffffffffff163373ffffffffffffffffffffffffffffffffffffffff1614610930576040517f08c379a000000000000000000000000000000000000000000000000000000000815260206004820152601860248201527f4552433732313a20686f6c6f67726170686572206f6e6c79000000000000000060448201526064016103d7565b7fe860eb97addcc8d7a4df2e57474b879e6fae678a490e3807075a99030ddd92505473ffffffffffffffffffffffffffffffffffffffff163303610a2d5760005473ffffffffffffffffffffffffffffffffffffffff16367fffffffffffffffffffffffffffffffffffffffffffffffffffffffffffffffe0013573ffffffffffffffffffffffffffffffffffffffff1614610a28576040517f08c379a000000000000000000000000000000000000000000000000000000000815260206004820152601b60248201527f4552433732313a206f776e6572206f6e6c792066756e6374696f6e000000000060448201526064016103d7565b610aae565b60005473ffffffffffffffffffffffffffffffffffffffff163314610aae576040517f08c379a000000000000000000000000000000000000000000000000000000000815260206004820152601b60248201527f4552433732313a206f776e6572206f6e6c792066756e6374696f6e000000000060448201526064016103d7565b6000610ad87fe860eb97addcc8d7a4df2e57474b879e6fae678a490e3807075a99030ddd92505490565b9050827bffffffffffffffffffffffffffffffffffffffffffffffffffffffff16600003610d17575b6002546040517f4f558e790000000000000000000000000000000000000000000000000000000081527bffffffffffffffffffffffffffffffffffffffffffffffffffffffff909116600482015273ffffffffffffffffffffffffffffffffffffffff821690634f558e7990602401602060405180830381865afa158015610b8d573d6000803e3d6000fd5b505050506040513d601f19601f82011682018060405250810190610bb19190611607565b80610c6757506002546040517f23250cae0000000000000000000000000000000000000000000000000000000081527bffffffffffffffffffffffffffffffffffffffffffffffffffffffff909116600482015273ffffffffffffffffffffffffffffffffffffffff8216906323250cae90602401602060405180830381865afa158015610c43573d6000803e3d6000fd5b505050506040513d601f19601f82011682018060405250810190610c679190611607565b15610cf3576002805460019190600090610ca09084907bffffffffffffffffffffffffffffffffffffffffffffffffffffffff16611658565b92506101000a8154817bffffffffffffffffffffffffffffffffffffffffffffffffffffffff02191690837bffffffffffffffffffffffffffffffffffffffffffffffffffffffff160217905550610b01565b6002547bffffffffffffffffffffffffffffffffffffffffffffffffffffffff1692505b73ffffffffffffffffffffffffffffffffffffffff8116633b4f1b26610d4360a085016080860161122a565b6040517fffffffff0000000000000000000000000000000000000000000000000000000060e084901b16815273ffffffffffffffffffffffffffffffffffffffff90911660048201527bffffffffffffffffffffffffffffffffffffffffffffffffffffffff86166024820152604401600060405180830381600087803b158015610dcd57600080fd5b505af1158015610de1573d6000803e3d6000fd5b505050506000837bffffffffffffffffffffffffffffffffffffffffffffffffffffffff168273ffffffffffffffffffffffffffffffffffffffff166377dbd8636040518163ffffffff1660e01b8152600401602060405180830381865afa158015610e51573d6000803e3d6000fd5b505050506040513d601f19601f82011682018060405250810190610e759190611698565b610e7f91906116b1565b60008181526001602052604090209091508390610e9c8282611761565b505050505050565b6000610ece7fe860eb97addcc8d7a4df2e57474b879e6fae678a490e3807075a99030ddd92505490565b73ffffffffffffffffffffffffffffffffffffffff163373ffffffffffffffffffffffffffffffffffffffff1614610f62576040517f08c379a000000000000000000000000000000000000000000000000000000000815260206004820152601860248201527f4552433732313a20686f6c6f67726170686572206f6e6c79000000000000000060448201526064016103d7565b6000610f70838501856118c0565b6000958652600160208181526040978890208351815583820151805182850155918201516002820155908801516003820180547fffffffffffffffffffffffffffffffffffffffffffffffffffffffffffffff001660ff909216919091179055968201516004880180547fffffffffffffffffffffffff00000000000000000000000000000000000000001673ffffffffffffffffffffffffffffffffffffffff9092169190911790556060820151600588015560808201516006880180547fffffffffffffffffffffffffffffffffffffffffff00000000000000000000001660a89290921c91909117905560a0820151600788015560c090910151600890960180547fffffffffffffffffffffffffffffffffffff00000000000000000000000000001660909790971c9690961790955550929695505050505050565b60006110db7f4e5f991bca30eca2d4643aaefa807e88f96a4a97398933d572a3c0d973004a0154151590565b15611142576040517f08c379a000000000000000000000000000000000000000000000000000000000815260206004820152601b60248201527f4552433732313a20616c726561647920696e697469616c697a6564000000000060448201526064016103d7565b337fe860eb97addcc8d7a4df2e57474b879e6fae678a490e3807075a99030ddd925081905561119060017f4e5f991bca30eca2d4643aaefa807e88f96a4a97398933d572a3c0d973004a0155565b507f4ddf47d40000000000000000000000000000000000000000000000000000000092915050565b6000602082840312156111ca57600080fd5b81357fffffffff000000000000000000000000000000000000000000000000000000008116811461031657600080fd5b73ffffffffffffffffffffffffffffffffffffffff8116811461121c57600080fd5b50565b8035610875816111fa565b60006020828403121561123c57600080fd5b8135610316816111fa565b7f4e487b7100000000000000000000000000000000000000000000000000000000600052604160045260246000fd5b60405160e0810167ffffffffffffffff8111828210171561129957611299611247565b60405290565b6040516060810167ffffffffffffffff8111828210171561129957611299611247565b6000602082840312156112d457600080fd5b813567ffffffffffffffff808211156112ec57600080fd5b818401915084601f83011261130057600080fd5b81358181111561131257611312611247565b604051601f82017fffffffffffffffffffffffffffffffffffffffffffffffffffffffffffffffe0908116603f0116810190838211818310171561135857611358611247565b8160405282815287602084870101111561137157600080fd5b826020860160208301376000928101602001929092525095945050505050565b803563ffffffff8116811461087557600080fd5b600080600080608085870312156113bb57600080fd5b6113c485611391565b935060208501356113d4816111fa565b925060408501356113e4816111fa565b9396929550929360600135925050565b6000815180845260005b8181101561141a576020818501810151868301820152016113fe565b8181111561142c576000602083870101525b50601f017fffffffffffffffffffffffffffffffffffffffffffffffffffffffffffffffe0169290920160200192915050565b60208152600061031660208301846113f4565b6000806040838503121561148557600080fd5b8235611490816111fa565b946020939093013593505050565b6000602082840312156114b057600080fd5b5035919050565b6000808284036101408112156114cc57600080fd5b83357bffffffffffffffffffffffffffffffffffffffffffffffffffffffff811681146114f857600080fd5b92506101207fffffffffffffffffffffffffffffffffffffffffffffffffffffffffffffffe08201121561152b57600080fd5b506020830190509250929050565b60008060008060008060a0878903121561155257600080fd5b61155b87611391565b9550602087013561156b816111fa565b9450604087013561157b816111fa565b935060608701359250608087013567ffffffffffffffff8082111561159f57600080fd5b818901915089601f8301126115b357600080fd5b8135818111156115c257600080fd5b8a60208285010111156115d457600080fd5b6020830194508093505050509295509295509295565b6000602082840312156115fc57600080fd5b8151610316816111fa565b60006020828403121561161957600080fd5b8151801515811461031657600080fd5b7f4e487b7100000000000000000000000000000000000000000000000000000000600052601160045260246000fd5b60007bffffffffffffffffffffffffffffffffffffffffffffffffffffffff80831681851680830382111561168f5761168f611629565b01949350505050565b6000602082840312156116aa57600080fd5b5051919050565b600082198211156116c4576116c4611629565b500190565b60ff8116811461121c57600080fd5b600081356116e5816111fa565b92915050565b7fffffffffffffffffffffff0000000000000000000000000000000000000000008116811461121c57600080fd5b600081356116e5816116eb565b7fffffffffffffffffffffffffffff0000000000000000000000000000000000008116811461121c57600080fd5b600081356116e581611726565b81358155602082013560018201556040820135600282015560038101606083013561178b816116c9565b60ff81167fffffffffffffffffffffffffffffffffffffffffffffffffffffffffffffff00835416178255505061180d6117c7608084016116d8565b6004830173ffffffffffffffffffffffffffffffffffffffff82167fffffffffffffffffffffffff00000000000000000000000000000000000000008254161781555050565b60a0820135600582015561185961182660c08401611719565b600683018160a81c7fffffffffffffffffffffffffffffffffffffffffff00000000000000000000008254161781555050565b60e082013560078201556118a66118736101008401611754565b600883018160901c7fffffffffffffffffffffffffffffffffffff00000000000000000000000000008254161781555050565b5050565b8035610875816116eb565b803561087581611726565b60008183036101208112156118d457600080fd5b6118dc611276565b8335815260607fffffffffffffffffffffffffffffffffffffffffffffffffffffffffffffffe08301121561191057600080fd5b61191861129f565b915060208401358252604084013560208301526060840135611939816116c9565b6040830152602081018290526119516080850161121f565b604082015260a0840135606082015261196c60c085016118aa565b608082015260e084013560a082015261198861010085016118b5565b60c082015294935050505056fea164736f6c634300080d000a",
  "devdoc": {
    "author": "CXIP-Labs",
    "details": "The entire logic and functionality of the smart contract is self-contained.",
    "kind": "dev",
    "methods": {
      "constructor": {
        "details": "To make exact CREATE2 deployment possible, constructor is left empty. We utilize the \"init\" function instead."
      },
      "init(bytes)": {
        "details": "Special function to allow a one time initialisation on deployment. Also configures and deploys royalties."
      },
      "tokenURI(uint256)": {
        "details": "Defaults the the Arweave URI",
        "returns": {
          "_0": "string The URI."
        }
      }
    },
    "stateVariables": {
      "_currentTokenId": {
        "details": "Internal reference used for minting incremental token ids."
      },
      "_tokenData": {
        "details": "Token data mapped by token id."
      }
    },
    "title": "CXIP ERC-721 Collection that is bridgeable via Holograph",
    "version": 1
  },
  "userdoc": {
    "kind": "user",
    "methods": {
      "constructor": {
        "notice": "Constructor is empty and not utilised."
      },
      "init(bytes)": {
        "notice": "Initializes the collection."
      },
      "tokenURI(uint256)": {
        "notice": "Get's the URI of the token."
      }
    },
    "notice": "A smart contract for minting and managing Holograph Bridgeable ERC721 NFTs.",
    "version": 1
  },
  "storageLayout": {
    "storage": [
      {
        "astId": 10038,
        "contract": "contracts/token/CxipERC721.sol:CxipERC721",
        "label": "_owner",
        "offset": 0,
        "slot": "0",
        "type": "t_address"
      },
      {
        "astId": 17035,
        "contract": "contracts/token/CxipERC721.sol:CxipERC721",
        "label": "_tokenData",
        "offset": 0,
        "slot": "1",
        "type": "t_mapping(t_uint256,t_struct(TokenData)17012_storage)"
      },
      {
        "astId": 17038,
        "contract": "contracts/token/CxipERC721.sol:CxipERC721",
        "label": "_currentTokenId",
        "offset": 0,
        "slot": "2",
        "type": "t_uint224"
      }
    ],
    "types": {
      "t_address": {
        "encoding": "inplace",
        "label": "address",
        "numberOfBytes": "20"
      },
      "t_bytes11": {
        "encoding": "inplace",
        "label": "bytes11",
        "numberOfBytes": "11"
      },
      "t_bytes14": {
        "encoding": "inplace",
        "label": "bytes14",
        "numberOfBytes": "14"
      },
      "t_bytes32": {
        "encoding": "inplace",
        "label": "bytes32",
        "numberOfBytes": "32"
      },
      "t_mapping(t_uint256,t_struct(TokenData)17012_storage)": {
        "encoding": "mapping",
        "key": "t_uint256",
        "label": "mapping(uint256 => struct TokenData)",
        "numberOfBytes": "32",
        "value": "t_struct(TokenData)17012_storage"
      },
      "t_struct(TokenData)17012_storage": {
        "encoding": "inplace",
        "label": "struct TokenData",
        "members": [
          {
            "astId": 16998,
            "contract": "contracts/token/CxipERC721.sol:CxipERC721",
            "label": "payloadHash",
            "offset": 0,
            "slot": "0",
            "type": "t_bytes32"
          },
          {
            "astId": 17001,
            "contract": "contracts/token/CxipERC721.sol:CxipERC721",
            "label": "payloadSignature",
            "offset": 0,
            "slot": "1",
            "type": "t_struct(Verification)17021_storage"
          },
          {
            "astId": 17003,
            "contract": "contracts/token/CxipERC721.sol:CxipERC721",
            "label": "creator",
            "offset": 0,
            "slot": "4",
            "type": "t_address"
          },
          {
            "astId": 17005,
            "contract": "contracts/token/CxipERC721.sol:CxipERC721",
            "label": "arweave",
            "offset": 0,
            "slot": "5",
            "type": "t_bytes32"
          },
          {
            "astId": 17007,
            "contract": "contracts/token/CxipERC721.sol:CxipERC721",
            "label": "arweave2",
            "offset": 0,
            "slot": "6",
            "type": "t_bytes11"
          },
          {
            "astId": 17009,
            "contract": "contracts/token/CxipERC721.sol:CxipERC721",
            "label": "ipfs",
            "offset": 0,
            "slot": "7",
            "type": "t_bytes32"
          },
          {
            "astId": 17011,
            "contract": "contracts/token/CxipERC721.sol:CxipERC721",
            "label": "ipfs2",
            "offset": 0,
            "slot": "8",
            "type": "t_bytes14"
          }
        ],
        "numberOfBytes": "288"
      },
      "t_struct(Verification)17021_storage": {
        "encoding": "inplace",
        "label": "struct Verification",
        "members": [
          {
            "astId": 17016,
            "contract": "contracts/token/CxipERC721.sol:CxipERC721",
            "label": "r",
            "offset": 0,
            "slot": "0",
            "type": "t_bytes32"
          },
          {
            "astId": 17018,
            "contract": "contracts/token/CxipERC721.sol:CxipERC721",
            "label": "s",
            "offset": 0,
            "slot": "1",
            "type": "t_bytes32"
          },
          {
            "astId": 17020,
            "contract": "contracts/token/CxipERC721.sol:CxipERC721",
            "label": "v",
            "offset": 0,
            "slot": "2",
            "type": "t_uint8"
          }
        ],
        "numberOfBytes": "96"
      },
      "t_uint224": {
        "encoding": "inplace",
        "label": "uint224",
        "numberOfBytes": "28"
      },
      "t_uint256": {
        "encoding": "inplace",
        "label": "uint256",
        "numberOfBytes": "32"
      },
      "t_uint8": {
        "encoding": "inplace",
        "label": "uint8",
        "numberOfBytes": "1"
      }
    }
  }
}