{
  "address": "0xb6656d9f99F7733b10AA5769F79e97e455EeA131",
  "abi": [
    {
      "inputs": [],
      "stateMutability": "nonpayable",
      "type": "constructor"
    },
    {
      "inputs": [],
      "name": "admin",
      "outputs": [
        {
          "internalType": "address",
          "name": "",
          "type": "address"
        }
      ],
      "stateMutability": "view",
      "type": "function"
    },
    {
      "inputs": [
        {
          "internalType": "address",
          "name": "target",
          "type": "address"
        },
        {
          "internalType": "bytes",
          "name": "data",
          "type": "bytes"
        }
      ],
      "name": "adminCall",
      "outputs": [],
      "stateMutability": "payable",
      "type": "function"
    },
    {
      "inputs": [
        {
          "internalType": "bytes32",
          "name": "hash",
          "type": "bytes32"
        },
        {
          "internalType": "address",
          "name": "contractAddress",
          "type": "address"
        }
      ],
      "name": "factoryDeployedHash",
      "outputs": [],
      "stateMutability": "nonpayable",
      "type": "function"
    },
    {
      "inputs": [],
      "name": "getAdmin",
      "outputs": [
        {
          "internalType": "address",
          "name": "adminAddress",
          "type": "address"
        }
      ],
      "stateMutability": "view",
      "type": "function"
    },
    {
      "inputs": [
        {
          "internalType": "bytes32",
          "name": "contractType",
          "type": "bytes32"
        }
      ],
      "name": "getContractTypeAddress",
      "outputs": [
        {
          "internalType": "address",
          "name": "",
          "type": "address"
        }
      ],
      "stateMutability": "view",
      "type": "function"
    },
    {
      "inputs": [
        {
          "internalType": "uint32",
          "name": "chainId",
          "type": "uint32"
        }
      ],
      "name": "getHToken",
      "outputs": [
        {
          "internalType": "address",
          "name": "",
          "type": "address"
        }
      ],
      "stateMutability": "view",
      "type": "function"
    },
    {
      "inputs": [
        {
          "internalType": "bytes32",
          "name": "hash",
          "type": "bytes32"
        }
      ],
      "name": "getHolographedHashAddress",
      "outputs": [
        {
          "internalType": "address",
          "name": "",
          "type": "address"
        }
      ],
      "stateMutability": "view",
      "type": "function"
    },
    {
      "inputs": [
        {
          "internalType": "bytes",
          "name": "data",
          "type": "bytes"
        }
      ],
      "name": "init",
      "outputs": [
        {
          "internalType": "bytes4",
          "name": "",
          "type": "bytes4"
        }
      ],
      "stateMutability": "nonpayable",
      "type": "function"
    },
    {
      "inputs": [
        {
          "internalType": "address",
          "name": "smartContract",
          "type": "address"
        }
      ],
      "name": "isHolographedContract",
      "outputs": [
        {
          "internalType": "bool",
          "name": "",
          "type": "bool"
        }
      ],
      "stateMutability": "view",
      "type": "function"
    },
    {
      "inputs": [
        {
          "internalType": "bytes32",
          "name": "hash",
          "type": "bytes32"
        }
      ],
      "name": "isHolographedHashDeployed",
      "outputs": [
        {
          "internalType": "bool",
          "name": "",
          "type": "bool"
        }
      ],
      "stateMutability": "view",
      "type": "function"
    },
    {
      "inputs": [
        {
          "internalType": "address",
          "name": "contractAddress",
          "type": "address"
        }
      ],
      "name": "referenceContractTypeAddress",
      "outputs": [
        {
          "internalType": "bytes32",
          "name": "",
          "type": "bytes32"
        }
      ],
      "stateMutability": "nonpayable",
      "type": "function"
    },
    {
      "inputs": [
        {
          "internalType": "address",
          "name": "adminAddress",
          "type": "address"
        }
      ],
      "name": "setAdmin",
      "outputs": [],
      "stateMutability": "nonpayable",
      "type": "function"
    },
    {
      "inputs": [
        {
          "internalType": "bytes32",
          "name": "contractType",
          "type": "bytes32"
        },
        {
          "internalType": "address",
          "name": "contractAddress",
          "type": "address"
        }
      ],
      "name": "setContractTypeAddress",
      "outputs": [],
      "stateMutability": "nonpayable",
      "type": "function"
    },
    {
      "inputs": [
        {
          "internalType": "uint32",
          "name": "chainId",
          "type": "uint32"
        },
        {
          "internalType": "address",
          "name": "hToken",
          "type": "address"
        }
      ],
      "name": "setHToken",
      "outputs": [],
      "stateMutability": "nonpayable",
      "type": "function"
    },
    {
      "inputs": [
        {
          "internalType": "bytes32[]",
          "name": "hashes",
          "type": "bytes32[]"
        },
        {
          "internalType": "bool[]",
          "name": "reserved",
          "type": "bool[]"
        }
      ],
      "name": "updateReservedContractTypes",
      "outputs": [],
      "stateMutability": "nonpayable",
      "type": "function"
    }
  ],
  "transactionHash": "0x2958fbbb4913affe06290f66cb4e12884d813a9704fe951c64a1bde33b46189f",
  "args": [],
  "numDeployments": 1,
  "solcInputHash": "4ef99f52a2bdcfcacb56aa2c6d37e348",
  "bytecode": "0x608060405234801561001057600080fd5b506113ff806100206000396000f3fe6080604052600436106100e85760003560e01c8063768797c31161008a578063d163678211610059578063d163678214610362578063d9aa2a7c146103a5578063ede4a519146103c5578063f851a440146103e557600080fd5b8063768797c314610295578063949d53a7146102c3578063bf64a82d1461030c578063cc2913f91461031f57600080fd5b80634ddf47d4116100c65780634ddf47d4146101af57806356116d54146102005780636e9960c314610220578063704b6c021461027557600080fd5b806324299c6e146100ed57806335ee77cf1461014757806344b25fff14610169575b600080fd5b3480156100f957600080fd5b50610132610108366004610f08565b60009081526001602052604090205473ffffffffffffffffffffffffffffffffffffffff16151590565b60405190151581526020015b60405180910390f35b34801561015357600080fd5b50610167610162366004610f5f565b6103fa565b005b34801561017557600080fd5b50610132610184366004610f96565b73ffffffffffffffffffffffffffffffffffffffff1660009081526020819052604090205460ff1690565b3480156101bb57600080fd5b506101cf6101ca366004611038565b610510565b6040517fffffffff00000000000000000000000000000000000000000000000000000000909116815260200161013e565b34801561020c57600080fd5b5061016761021b3660046110eb565b6106bb565b34801561022c57600080fd5b507f5705f5753aa4f617eef2cae1dada3d3355e9387b04d19191f09b545e684ca50d545b60405173ffffffffffffffffffffffffffffffffffffffff909116815260200161013e565b34801561028157600080fd5b50610167610290366004610f96565b61083c565b3480156102a157600080fd5b506102b56102b0366004610f96565b610916565b60405190815260200161013e565b3480156102cf57600080fd5b506102506102de366004611110565b63ffffffff1660009081526004602052604090205473ffffffffffffffffffffffffffffffffffffffff1690565b61016761031a36600461112b565b610b0a565b34801561032b57600080fd5b5061025061033a366004610f08565b60009081526002602052604090205473ffffffffffffffffffffffffffffffffffffffff1690565b34801561036e57600080fd5b5061025061037d366004610f08565b60009081526001602052604090205473ffffffffffffffffffffffffffffffffffffffff1690565b3480156103b157600080fd5b506101676103c03660046110eb565b610bec565b3480156103d157600080fd5b506101676103e03660046111fc565b610d9c565b3480156103f157600080fd5b50610250610ed9565b7f5705f5753aa4f617eef2cae1dada3d3355e9387b04d19191f09b545e684ca50d5473ffffffffffffffffffffffffffffffffffffffff163373ffffffffffffffffffffffffffffffffffffffff16146104b5576040517f08c379a000000000000000000000000000000000000000000000000000000000815260206004820152601e60248201527f484f4c4f47524150483a2061646d696e206f6e6c792066756e6374696f6e000060448201526064015b60405180910390fd5b63ffffffff91909116600090815260046020526040902080547fffffffffffffffffffffffff00000000000000000000000000000000000000001673ffffffffffffffffffffffffffffffffffffffff909216919091179055565b600061053c7f4e5f991bca30eca2d4643aaefa807e88f96a4a97398933d572a3c0d973004a0154151590565b156105a3576040517f08c379a000000000000000000000000000000000000000000000000000000000815260206004820152601e60248201527f484f4c4f47524150483a20616c726561647920696e697469616c697a6564000060448201526064016104ac565b600080838060200190518101906105ba9190611268565b91509150327f5705f5753aa4f617eef2cae1dada3d3355e9387b04d19191f09b545e684ca50d55817f1eee493315beeac80829afd0aaa340f3821cabe68571a2743478e81638a3d94d5560005b81518110156106685760016003600084848151811061062857610628611325565b6020026020010151815260200190815260200160002060006101000a81548160ff021916908315150217905550808061066090611354565b915050610607565b5061069260017f4e5f991bca30eca2d4643aaefa807e88f96a4a97398933d572a3c0d973004a0155565b507f4ddf47d4000000000000000000000000000000000000000000000000000000009392505050565b7f5705f5753aa4f617eef2cae1dada3d3355e9387b04d19191f09b545e684ca50d5473ffffffffffffffffffffffffffffffffffffffff163373ffffffffffffffffffffffffffffffffffffffff1614610771576040517f08c379a000000000000000000000000000000000000000000000000000000000815260206004820152601e60248201527f484f4c4f47524150483a2061646d696e206f6e6c792066756e6374696f6e000060448201526064016104ac565b60008281526003602052604090205460ff166107e9576040517f08c379a000000000000000000000000000000000000000000000000000000000815260206004820152601c60248201527f484f4c4f47524150483a206e6f7420726573657276656420747970650000000060448201526064016104ac565b60009182526002602052604090912080547fffffffffffffffffffffffff00000000000000000000000000000000000000001673ffffffffffffffffffffffffffffffffffffffff909216919091179055565b7f5705f5753aa4f617eef2cae1dada3d3355e9387b04d19191f09b545e684ca50d5473ffffffffffffffffffffffffffffffffffffffff163373ffffffffffffffffffffffffffffffffffffffff16146108f2576040517f08c379a000000000000000000000000000000000000000000000000000000000815260206004820152601e60248201527f484f4c4f47524150483a2061646d696e206f6e6c792066756e6374696f6e000060448201526064016104ac565b7f5705f5753aa4f617eef2cae1dada3d3355e9387b04d19191f09b545e684ca50d55565b6000813f801580159061094957507fc5d2460186f7233c927e7db2dcc703c0e500b653ca82273b7bfad8045d85a4708114155b6109af576040517f08c379a000000000000000000000000000000000000000000000000000000000815260206004820152601960248201527f484f4c4f47524150483a20656d70747920636f6e74726163740000000000000060448201526064016104ac565b60008181526002602052604090205473ffffffffffffffffffffffffffffffffffffffff1615610a3b576040517f08c379a000000000000000000000000000000000000000000000000000000000815260206004820152601f60248201527f484f4c4f47524150483a20636f6e747261637420616c7265616479207365740060448201526064016104ac565b60008181526003602052604090205460ff1615610ab4576040517f08c379a000000000000000000000000000000000000000000000000000000000815260206004820181905260248201527f484f4c4f47524150483a2072657365727665642061646472657373207479706560448201526064016104ac565b600081815260026020526040902080547fffffffffffffffffffffffff00000000000000000000000000000000000000001673ffffffffffffffffffffffffffffffffffffffff94909416939093179092555090565b7f5705f5753aa4f617eef2cae1dada3d3355e9387b04d19191f09b545e684ca50d5473ffffffffffffffffffffffffffffffffffffffff163373ffffffffffffffffffffffffffffffffffffffff1614610bc0576040517f08c379a000000000000000000000000000000000000000000000000000000000815260206004820152601e60248201527f484f4c4f47524150483a2061646d696e206f6e6c792066756e6374696f6e000060448201526064016104ac565b808260003760008082600034875af13d6000803e808015610be0573d6000f35b3d6000fd5b5050505050565b60007f1eee493315beeac80829afd0aaa340f3821cabe68571a2743478e81638a3d94d5490508073ffffffffffffffffffffffffffffffffffffffff166388cc58e46040518163ffffffff1660e01b8152600401602060405180830381865afa158015610c5d573d6000803e3d6000fd5b505050506040513d601f19601f82011682018060405250810190610c8191906113b3565b73ffffffffffffffffffffffffffffffffffffffff163373ffffffffffffffffffffffffffffffffffffffff1614610d15576040517f08c379a000000000000000000000000000000000000000000000000000000000815260206004820181905260248201527f484f4c4f47524150483a20666163746f7279206f6e6c792066756e6374696f6e60448201526064016104ac565b506000918252600160208181526040808520805473ffffffffffffffffffffffffffffffffffffffff9095167fffffffffffffffffffffffff000000000000000000000000000000000000000090951685179055928452839052912080547fffffffffffffffffffffffffffffffffffffffffffffffffffffffffffffff00169091179055565b7f5705f5753aa4f617eef2cae1dada3d3355e9387b04d19191f09b545e684ca50d5473ffffffffffffffffffffffffffffffffffffffff163373ffffffffffffffffffffffffffffffffffffffff1614610e52576040517f08c379a000000000000000000000000000000000000000000000000000000000815260206004820152601e60248201527f484f4c4f47524150483a2061646d696e206f6e6c792066756e6374696f6e000060448201526064016104ac565b60005b83811015610be557828282818110610e6f57610e6f611325565b9050602002016020810190610e8491906113d0565b60036000878785818110610e9a57610e9a611325565b90506020020135815260200190815260200160002060006101000a81548160ff0219169083151502179055508080610ed190611354565b915050610e55565b6000610f037f5705f5753aa4f617eef2cae1dada3d3355e9387b04d19191f09b545e684ca50d5490565b905090565b600060208284031215610f1a57600080fd5b5035919050565b803563ffffffff81168114610f3557600080fd5b919050565b73ffffffffffffffffffffffffffffffffffffffff81168114610f5c57600080fd5b50565b60008060408385031215610f7257600080fd5b610f7b83610f21565b91506020830135610f8b81610f3a565b809150509250929050565b600060208284031215610fa857600080fd5b8135610fb381610f3a565b9392505050565b7f4e487b7100000000000000000000000000000000000000000000000000000000600052604160045260246000fd5b604051601f82017fffffffffffffffffffffffffffffffffffffffffffffffffffffffffffffffe016810167ffffffffffffffff8111828210171561103057611030610fba565b604052919050565b6000602080838503121561104b57600080fd5b823567ffffffffffffffff8082111561106357600080fd5b818501915085601f83011261107757600080fd5b81358181111561108957611089610fba565b6110b9847fffffffffffffffffffffffffffffffffffffffffffffffffffffffffffffffe0601f84011601610fe9565b915080825286848285010111156110cf57600080fd5b8084840185840137600090820190930192909252509392505050565b600080604083850312156110fe57600080fd5b823591506020830135610f8b81610f3a565b60006020828403121561112257600080fd5b610fb382610f21565b60008060006040848603121561114057600080fd5b833561114b81610f3a565b9250602084013567ffffffffffffffff8082111561116857600080fd5b818601915086601f83011261117c57600080fd5b81358181111561118b57600080fd5b87602082850101111561119d57600080fd5b6020830194508093505050509250925092565b60008083601f8401126111c257600080fd5b50813567ffffffffffffffff8111156111da57600080fd5b6020830191508360208260051b85010111156111f557600080fd5b9250929050565b6000806000806040858703121561121257600080fd5b843567ffffffffffffffff8082111561122a57600080fd5b611236888389016111b0565b9096509450602087013591508082111561124f57600080fd5b5061125c878288016111b0565b95989497509550505050565b6000806040838503121561127b57600080fd5b825161128681610f3a565b8092505060208084015167ffffffffffffffff808211156112a657600080fd5b818601915086601f8301126112ba57600080fd5b8151818111156112cc576112cc610fba565b8060051b91506112dd848301610fe9565b81815291830184019184810190898411156112f757600080fd5b938501935b83851015611315578451825293850193908501906112fc565b8096505050505050509250929050565b7f4e487b7100000000000000000000000000000000000000000000000000000000600052603260045260246000fd5b60007fffffffffffffffffffffffffffffffffffffffffffffffffffffffffffffffff82036113ac577f4e487b7100000000000000000000000000000000000000000000000000000000600052601160045260246000fd5b5060010190565b6000602082840312156113c557600080fd5b8151610fb381610f3a565b6000602082840312156113e257600080fd5b81358015158114610fb357600080fdfea164736f6c634300080d000a",
  "devdoc": {
    "details": "This smart contract stores the different source codes that have been prepared and can be used for bridging.We will store here the layer 1 for ERC721 and ERC1155 smart contracts.This way it can be super easy to upgrade/update the source code once, and have all smart contracts automatically updated.",
    "kind": "dev",
    "methods": {
      "constructor": {
        "details": "Constructor is left empty and only the admin address is set."
      },
      "factoryDeployedHash(bytes32,address)": {
        "details": "Allows Holograph Factory to register a deployed contract, referenced with deployment hash."
      },
      "getContractTypeAddress(bytes32)": {
        "details": "Returns the contract address for a contract type."
      },
      "getHToken(uint32)": {
        "details": "Returns the hToken address for a given chain id."
      },
      "getHolographedHashAddress(bytes32)": {
        "details": "Returns the address for a holographed hash"
      },
      "init(bytes)": {
        "details": "An array of initially reserved contract types for admin only to set."
      },
      "referenceContractTypeAddress(address)": {
        "details": "Allows to reference a deployed smart contract, and use it's code as reference inside of Holographers."
      },
      "setContractTypeAddress(bytes32,address)": {
        "details": "Sets the contract address for a contract type."
      },
      "setHToken(uint32,address)": {
        "details": "Sets the hToken address for a specific chain id."
      },
      "updateReservedContractTypes(bytes32[],bool[])": {
        "details": "Allows admin to update or toggle reserved types."
      }
    },
    "stateVariables": {
      "_contractTypeAddresses": {
        "details": "Storage slot for saving contract type to contract address references."
      },
      "_hTokens": {
        "details": "Mapping of all hTokens available for the different EVM chains"
      },
      "_holographedContracts": {
        "details": "A list of smart contracts that are guaranteed secure and holographable."
      },
      "_holographedContractsHashMap": {
        "details": "A list of hashes and the mapped out contract addresses."
      },
      "_reservedTypes": {
        "details": "Reserved type addresses for Admin.  Note: this is used for defining default contracts."
      }
    },
    "version": 1
  },
  "userdoc": {
    "kind": "user",
    "methods": {},
    "version": 1
  },
  "storageLayout": {
    "storage": [
      {
        "astId": 6010,
        "contract": "contracts/HolographRegistry.sol:HolographRegistry",
        "label": "_holographedContracts",
        "offset": 0,
        "slot": "0",
        "type": "t_mapping(t_address,t_bool)"
      },
      {
        "astId": 6015,
        "contract": "contracts/HolographRegistry.sol:HolographRegistry",
        "label": "_holographedContractsHashMap",
        "offset": 0,
        "slot": "1",
        "type": "t_mapping(t_bytes32,t_address)"
      },
      {
        "astId": 6020,
        "contract": "contracts/HolographRegistry.sol:HolographRegistry",
        "label": "_contractTypeAddresses",
        "offset": 0,
        "slot": "2",
        "type": "t_mapping(t_bytes32,t_address)"
      },
      {
        "astId": 6025,
        "contract": "contracts/HolographRegistry.sol:HolographRegistry",
        "label": "_reservedTypes",
        "offset": 0,
        "slot": "3",
        "type": "t_mapping(t_bytes32,t_bool)"
      },
      {
        "astId": 6030,
        "contract": "contracts/HolographRegistry.sol:HolographRegistry",
        "label": "_hTokens",
        "offset": 0,
        "slot": "4",
        "type": "t_mapping(t_uint32,t_address)"
      }
    ],
    "types": {
      "t_address": {
        "encoding": "inplace",
        "label": "address",
        "numberOfBytes": "20"
      },
      "t_bool": {
        "encoding": "inplace",
        "label": "bool",
        "numberOfBytes": "1"
      },
      "t_bytes32": {
        "encoding": "inplace",
        "label": "bytes32",
        "numberOfBytes": "32"
      },
      "t_mapping(t_address,t_bool)": {
        "encoding": "mapping",
        "key": "t_address",
        "label": "mapping(address => bool)",
        "numberOfBytes": "32",
        "value": "t_bool"
      },
      "t_mapping(t_bytes32,t_address)": {
        "encoding": "mapping",
        "key": "t_bytes32",
        "label": "mapping(bytes32 => address)",
        "numberOfBytes": "32",
        "value": "t_address"
      },
      "t_mapping(t_bytes32,t_bool)": {
        "encoding": "mapping",
        "key": "t_bytes32",
        "label": "mapping(bytes32 => bool)",
        "numberOfBytes": "32",
        "value": "t_bool"
      },
      "t_mapping(t_uint32,t_address)": {
        "encoding": "mapping",
        "key": "t_uint32",
        "label": "mapping(uint32 => address)",
        "numberOfBytes": "32",
        "value": "t_address"
      },
      "t_uint32": {
        "encoding": "inplace",
        "label": "uint32",
        "numberOfBytes": "4"
      }
    }
  }
}