{
  "address": "0x9C22c6d54EFE60039d8A02E7e1Cf54d5D061Ba4b",
  "abi": [
    {
      "inputs": [],
      "stateMutability": "nonpayable",
      "type": "constructor"
    },
    {
      "anonymous": false,
      "inputs": [
        {
          "indexed": true,
          "internalType": "address",
          "name": "_owner",
          "type": "address"
        },
        {
          "indexed": true,
          "internalType": "address",
          "name": "_approved",
          "type": "address"
        },
        {
          "indexed": true,
          "internalType": "uint256",
          "name": "_tokenId",
          "type": "uint256"
        }
      ],
      "name": "Approval",
      "type": "event"
    },
    {
      "anonymous": false,
      "inputs": [
        {
          "indexed": true,
          "internalType": "address",
          "name": "_owner",
          "type": "address"
        },
        {
          "indexed": true,
          "internalType": "address",
          "name": "_operator",
          "type": "address"
        },
        {
          "indexed": false,
          "internalType": "bool",
          "name": "_approved",
          "type": "bool"
        }
      ],
      "name": "ApprovalForAll",
      "type": "event"
    },
    {
      "anonymous": false,
      "inputs": [
        {
          "indexed": true,
          "internalType": "address",
          "name": "previousOwner",
          "type": "address"
        },
        {
          "indexed": true,
          "internalType": "address",
          "name": "newOwner",
          "type": "address"
        }
      ],
      "name": "OwnershipTransferred",
      "type": "event"
    },
    {
      "anonymous": false,
      "inputs": [
        {
          "indexed": true,
          "internalType": "address",
          "name": "_from",
          "type": "address"
        },
        {
          "indexed": true,
          "internalType": "address",
          "name": "_to",
          "type": "address"
        },
        {
          "indexed": true,
          "internalType": "uint256",
          "name": "_tokenId",
          "type": "uint256"
        }
      ],
      "name": "Transfer",
      "type": "event"
    },
    {
      "stateMutability": "payable",
      "type": "fallback"
    },
    {
      "inputs": [],
      "name": "admin",
      "outputs": [
        {
          "internalType": "address",
          "name": "",
          "type": "address"
        }
      ],
      "stateMutability": "view",
      "type": "function"
    },
    {
      "inputs": [
        {
          "internalType": "address",
          "name": "target",
          "type": "address"
        },
        {
          "internalType": "bytes",
          "name": "data",
          "type": "bytes"
        }
      ],
      "name": "adminCall",
      "outputs": [],
      "stateMutability": "payable",
      "type": "function"
    },
    {
      "inputs": [
        {
          "internalType": "address",
          "name": "to",
          "type": "address"
        },
        {
          "internalType": "uint256",
          "name": "tokenId",
          "type": "uint256"
        }
      ],
      "name": "approve",
      "outputs": [],
      "stateMutability": "payable",
      "type": "function"
    },
    {
      "inputs": [
        {
          "internalType": "address",
          "name": "wallet",
          "type": "address"
        }
      ],
      "name": "balanceOf",
      "outputs": [
        {
          "internalType": "uint256",
          "name": "",
          "type": "uint256"
        }
      ],
      "stateMutability": "view",
      "type": "function"
    },
    {
      "inputs": [
        {
          "internalType": "uint256",
          "name": "tokenId",
          "type": "uint256"
        }
      ],
      "name": "burn",
      "outputs": [],
      "stateMutability": "nonpayable",
      "type": "function"
    },
    {
      "inputs": [
        {
          "internalType": "uint256",
          "name": "tokenId",
          "type": "uint256"
        }
      ],
      "name": "burned",
      "outputs": [
        {
          "internalType": "bool",
          "name": "",
          "type": "bool"
        }
      ],
      "stateMutability": "view",
      "type": "function"
    },
    {
      "inputs": [],
      "name": "contractURI",
      "outputs": [
        {
          "internalType": "string",
          "name": "",
          "type": "string"
        }
      ],
      "stateMutability": "view",
      "type": "function"
    },
    {
      "inputs": [
        {
          "internalType": "uint256",
          "name": "tokenId",
          "type": "uint256"
        }
      ],
      "name": "exists",
      "outputs": [
        {
          "internalType": "bool",
          "name": "",
          "type": "bool"
        }
      ],
      "stateMutability": "view",
      "type": "function"
    },
    {
      "inputs": [],
      "name": "getAdmin",
      "outputs": [
        {
          "internalType": "address",
          "name": "adminAddress",
          "type": "address"
        }
      ],
      "stateMutability": "view",
      "type": "function"
    },
    {
      "inputs": [
        {
          "internalType": "uint256",
          "name": "tokenId",
          "type": "uint256"
        }
      ],
      "name": "getApproved",
      "outputs": [
        {
          "internalType": "address",
          "name": "",
          "type": "address"
        }
      ],
      "stateMutability": "view",
      "type": "function"
    },
    {
      "inputs": [],
      "name": "getOwner",
      "outputs": [
        {
          "internalType": "address",
          "name": "ownerAddress",
          "type": "address"
        }
      ],
      "stateMutability": "view",
      "type": "function"
    },
    {
      "inputs": [
        {
          "internalType": "uint32",
          "name": "chainType",
          "type": "uint32"
        },
        {
          "internalType": "address",
          "name": "from",
          "type": "address"
        },
        {
          "internalType": "address",
          "name": "to",
          "type": "address"
        },
        {
          "internalType": "uint256",
          "name": "tokenId",
          "type": "uint256"
        },
        {
          "internalType": "bytes",
          "name": "data",
          "type": "bytes"
        }
      ],
      "name": "holographBridgeIn",
      "outputs": [
        {
          "internalType": "bytes4",
          "name": "",
          "type": "bytes4"
        }
      ],
      "stateMutability": "nonpayable",
      "type": "function"
    },
    {
      "inputs": [
        {
          "internalType": "uint32",
          "name": "chainType",
          "type": "uint32"
        },
        {
          "internalType": "address",
          "name": "from",
          "type": "address"
        },
        {
          "internalType": "address",
          "name": "to",
          "type": "address"
        },
        {
          "internalType": "uint256",
          "name": "tokenId",
          "type": "uint256"
        }
      ],
      "name": "holographBridgeOut",
      "outputs": [
        {
          "internalType": "bytes4",
          "name": "selector",
          "type": "bytes4"
        },
        {
          "internalType": "bytes",
          "name": "data",
          "type": "bytes"
        }
      ],
      "stateMutability": "nonpayable",
      "type": "function"
    },
    {
      "inputs": [
        {
          "internalType": "bytes",
          "name": "data",
          "type": "bytes"
        }
      ],
      "name": "init",
      "outputs": [
        {
          "internalType": "bytes4",
          "name": "",
          "type": "bytes4"
        }
      ],
      "stateMutability": "nonpayable",
      "type": "function"
    },
    {
      "inputs": [
        {
          "internalType": "address",
          "name": "wallet",
          "type": "address"
        },
        {
          "internalType": "address",
          "name": "operator",
          "type": "address"
        }
      ],
      "name": "isApprovedForAll",
      "outputs": [
        {
          "internalType": "bool",
          "name": "",
          "type": "bool"
        }
      ],
      "stateMutability": "view",
      "type": "function"
    },
    {
      "inputs": [],
      "name": "name",
      "outputs": [
        {
          "internalType": "string",
          "name": "",
          "type": "string"
        }
      ],
      "stateMutability": "view",
      "type": "function"
    },
    {
      "inputs": [
        {
          "internalType": "address",
          "name": "_operator",
          "type": "address"
        },
        {
          "internalType": "address",
          "name": "_from",
          "type": "address"
        },
        {
          "internalType": "uint256",
          "name": "_tokenId",
          "type": "uint256"
        },
        {
          "internalType": "bytes",
          "name": "_data",
          "type": "bytes"
        }
      ],
      "name": "onERC721Received",
      "outputs": [
        {
          "internalType": "bytes4",
          "name": "",
          "type": "bytes4"
        }
      ],
      "stateMutability": "nonpayable",
      "type": "function"
    },
    {
      "inputs": [],
      "name": "owner",
      "outputs": [
        {
          "internalType": "address",
          "name": "",
          "type": "address"
        }
      ],
      "stateMutability": "view",
      "type": "function"
    },
    {
      "inputs": [
        {
          "internalType": "address",
          "name": "target",
          "type": "address"
        },
        {
          "internalType": "bytes",
          "name": "data",
          "type": "bytes"
        }
      ],
      "name": "ownerCall",
      "outputs": [],
      "stateMutability": "payable",
      "type": "function"
    },
    {
      "inputs": [
        {
          "internalType": "uint256",
          "name": "tokenId",
          "type": "uint256"
        }
      ],
      "name": "ownerOf",
      "outputs": [
        {
          "internalType": "address",
          "name": "",
          "type": "address"
        }
      ],
      "stateMutability": "view",
      "type": "function"
    },
    {
      "inputs": [
        {
          "internalType": "address",
          "name": "from",
          "type": "address"
        },
        {
          "internalType": "address",
          "name": "to",
          "type": "address"
        },
        {
          "internalType": "uint256",
          "name": "tokenId",
          "type": "uint256"
        }
      ],
      "name": "safeTransferFrom",
      "outputs": [],
      "stateMutability": "payable",
      "type": "function"
    },
    {
      "inputs": [
        {
          "internalType": "address",
          "name": "from",
          "type": "address"
        },
        {
          "internalType": "address",
          "name": "to",
          "type": "address"
        },
        {
          "internalType": "uint256",
          "name": "tokenId",
          "type": "uint256"
        },
        {
          "internalType": "bytes",
          "name": "data",
          "type": "bytes"
        }
      ],
      "name": "safeTransferFrom",
      "outputs": [],
      "stateMutability": "payable",
      "type": "function"
    },
    {
      "inputs": [
        {
          "internalType": "address",
          "name": "adminAddress",
          "type": "address"
        }
      ],
      "name": "setAdmin",
      "outputs": [],
      "stateMutability": "nonpayable",
      "type": "function"
    },
    {
      "inputs": [
        {
          "internalType": "address",
          "name": "to",
          "type": "address"
        },
        {
          "internalType": "bool",
          "name": "approved",
          "type": "bool"
        }
      ],
      "name": "setApprovalForAll",
      "outputs": [],
      "stateMutability": "nonpayable",
      "type": "function"
    },
    {
      "inputs": [
        {
          "internalType": "address",
          "name": "ownerAddress",
          "type": "address"
        }
      ],
      "name": "setOwner",
      "outputs": [],
      "stateMutability": "nonpayable",
      "type": "function"
    },
    {
      "inputs": [
        {
          "internalType": "uint256",
          "name": "tokenId",
          "type": "uint256"
        }
      ],
      "name": "sourceBurn",
      "outputs": [],
      "stateMutability": "nonpayable",
      "type": "function"
    },
    {
      "inputs": [],
      "name": "sourceGetChainPrepend",
      "outputs": [
        {
          "internalType": "uint256",
          "name": "",
          "type": "uint256"
        }
      ],
      "stateMutability": "view",
      "type": "function"
    },
    {
      "inputs": [
        {
          "internalType": "address",
          "name": "to",
          "type": "address"
        },
        {
          "internalType": "uint224",
          "name": "tokenId",
          "type": "uint224"
        }
      ],
      "name": "sourceMint",
      "outputs": [],
      "stateMutability": "nonpayable",
      "type": "function"
    },
    {
      "inputs": [
        {
          "internalType": "address[]",
          "name": "wallets",
          "type": "address[]"
        },
        {
          "internalType": "uint224[]",
          "name": "tokenIds",
          "type": "uint224[]"
        }
      ],
      "name": "sourceMintBatch",
      "outputs": [],
      "stateMutability": "nonpayable",
      "type": "function"
    },
    {
      "inputs": [
        {
          "internalType": "address",
          "name": "to",
          "type": "address"
        },
        {
          "internalType": "uint224[]",
          "name": "tokenIds",
          "type": "uint224[]"
        }
      ],
      "name": "sourceMintBatch",
      "outputs": [],
      "stateMutability": "nonpayable",
      "type": "function"
    },
    {
      "inputs": [
        {
          "internalType": "address",
          "name": "to",
          "type": "address"
        },
        {
          "internalType": "uint224",
          "name": "startingTokenId",
          "type": "uint224"
        },
        {
          "internalType": "uint256",
          "name": "length",
          "type": "uint256"
        }
      ],
      "name": "sourceMintBatchIncremental",
      "outputs": [],
      "stateMutability": "nonpayable",
      "type": "function"
    },
    {
      "inputs": [
        {
          "internalType": "address",
          "name": "to",
          "type": "address"
        },
        {
          "internalType": "uint256",
          "name": "tokenId",
          "type": "uint256"
        }
      ],
      "name": "sourceTransfer",
      "outputs": [],
      "stateMutability": "nonpayable",
      "type": "function"
    },
    {
      "inputs": [
        {
          "internalType": "bytes4",
          "name": "interfaceId",
          "type": "bytes4"
        }
      ],
      "name": "supportsInterface",
      "outputs": [
        {
          "internalType": "bool",
          "name": "",
          "type": "bool"
        }
      ],
      "stateMutability": "view",
      "type": "function"
    },
    {
      "inputs": [],
      "name": "symbol",
      "outputs": [
        {
          "internalType": "string",
          "name": "",
          "type": "string"
        }
      ],
      "stateMutability": "view",
      "type": "function"
    },
    {
      "inputs": [
        {
          "internalType": "uint256",
          "name": "index",
          "type": "uint256"
        }
      ],
      "name": "tokenByIndex",
      "outputs": [
        {
          "internalType": "uint256",
          "name": "",
          "type": "uint256"
        }
      ],
      "stateMutability": "view",
      "type": "function"
    },
    {
      "inputs": [
        {
          "internalType": "address",
          "name": "wallet",
          "type": "address"
        },
        {
          "internalType": "uint256",
          "name": "index",
          "type": "uint256"
        }
      ],
      "name": "tokenOfOwnerByIndex",
      "outputs": [
        {
          "internalType": "uint256",
          "name": "",
          "type": "uint256"
        }
      ],
      "stateMutability": "view",
      "type": "function"
    },
    {
      "inputs": [
        {
          "internalType": "uint256",
          "name": "tokenId",
          "type": "uint256"
        }
      ],
      "name": "tokenURI",
      "outputs": [
        {
          "internalType": "string",
          "name": "",
          "type": "string"
        }
      ],
      "stateMutability": "view",
      "type": "function"
    },
    {
      "inputs": [
        {
          "internalType": "uint256",
          "name": "index",
          "type": "uint256"
        },
        {
          "internalType": "uint256",
          "name": "length",
          "type": "uint256"
        }
      ],
      "name": "tokens",
      "outputs": [
        {
          "internalType": "uint256[]",
          "name": "tokenIds",
          "type": "uint256[]"
        }
      ],
      "stateMutability": "view",
      "type": "function"
    },
    {
      "inputs": [
        {
          "internalType": "address",
          "name": "wallet",
          "type": "address"
        }
      ],
      "name": "tokensOfOwner",
      "outputs": [
        {
          "internalType": "uint256[]",
          "name": "",
          "type": "uint256[]"
        }
      ],
      "stateMutability": "view",
      "type": "function"
    },
    {
      "inputs": [
        {
          "internalType": "address",
          "name": "wallet",
          "type": "address"
        },
        {
          "internalType": "uint256",
          "name": "index",
          "type": "uint256"
        },
        {
          "internalType": "uint256",
          "name": "length",
          "type": "uint256"
        }
      ],
      "name": "tokensOfOwner",
      "outputs": [
        {
          "internalType": "uint256[]",
          "name": "tokenIds",
          "type": "uint256[]"
        }
      ],
      "stateMutability": "view",
      "type": "function"
    },
    {
      "inputs": [],
      "name": "totalSupply",
      "outputs": [
        {
          "internalType": "uint256",
          "name": "",
          "type": "uint256"
        }
      ],
      "stateMutability": "view",
      "type": "function"
    },
    {
      "inputs": [
        {
          "internalType": "address",
          "name": "to",
          "type": "address"
        },
        {
          "internalType": "uint256",
          "name": "tokenId",
          "type": "uint256"
        }
      ],
      "name": "transfer",
      "outputs": [],
      "stateMutability": "payable",
      "type": "function"
    },
    {
      "inputs": [
        {
          "internalType": "address",
          "name": "from",
          "type": "address"
        },
        {
          "internalType": "address",
          "name": "to",
          "type": "address"
        },
        {
          "internalType": "uint256",
          "name": "tokenId",
          "type": "uint256"
        }
      ],
      "name": "transferFrom",
      "outputs": [],
      "stateMutability": "payable",
      "type": "function"
    },
    {
      "inputs": [
        {
          "internalType": "address",
          "name": "from",
          "type": "address"
        },
        {
          "internalType": "address",
          "name": "to",
          "type": "address"
        },
        {
          "internalType": "uint256",
          "name": "tokenId",
          "type": "uint256"
        },
        {
          "internalType": "bytes",
          "name": "data",
          "type": "bytes"
        }
      ],
      "name": "transferFrom",
      "outputs": [],
      "stateMutability": "payable",
      "type": "function"
    },
    {
      "inputs": [
        {
          "internalType": "address",
          "name": "newOwner",
          "type": "address"
        }
      ],
      "name": "transferOwnership",
      "outputs": [],
      "stateMutability": "nonpayable",
      "type": "function"
    },
    {
      "stateMutability": "payable",
      "type": "receive"
    }
  ],
  "transactionHash": "0x917ff9ce620ccc77744889e42726017f40a429aff05d7fea892013be9af1e4f5",
  "args": [],
  "numDeployments": 1,
  "solcInputHash": "4ef99f52a2bdcfcacb56aa2c6d37e348",
  "bytecode": "0x608060405234801561001057600080fd5b50615ff380620000216000396000f3fe6080604052600436106102f65760003560e01c806377dbd8631161018f578063b88d4fde116100e1578063e8a3d4851161008a578063f2fde38b11610064578063f2fde38b14610a03578063f851a44014610a23578063fadcd09114610a38576102fd565b8063e8a3d48514610985578063e985e9c51461099a578063eb66dbcf146109f0576102fd565b8063c839fe94116100bb578063c839fe9414610917578063c87b56dd14610937578063de8b1ef114610957576102fd565b8063b88d4fde146108d1578063bf64a82d146108e4578063c5655fce146108f7576102fd565b806395a1299a11610143578063a3ee19bc1161011d578063a3ee19bc1461088b578063a9059cbb146108ab578063ab67aa58146108be576102fd565b806395a1299a1461083657806395d89b4114610856578063a22cb4651461086b576102fd565b8063893d20e811610174578063893d20e8146107cd5780638b4864d6146108015780638da5cb5b14610821576102fd565b806377dbd8631461078b5780638462151c146107a0576102fd565b80632f745c59116102485780634f558e79116101fc5780636e9960c3116101d65780636e9960c314610717578063704b6c021461074b57806370a082311461076b576102fd565b80634f558e79146106925780634f6ccce7146106d75780636352211e146106f7576102fd565b806342842e0e1161022d57806342842e0e1461063f57806342966c68146106525780634ddf47d414610672576102fd565b80632f745c59146105ff5780633b4f1b261461061f576102fd565b8063150b7a02116102aa57806323250cae1161028457806323250cae1461059c57806323b872dd146105cc578063275ccf2c146105df576102fd565b8063150b7a021461050c57806318160ddd1461055d57806321d6846f1461057c576102fd565b8063081812fc116102db578063081812fc14610471578063095ea7b3146104d957806313af4035146104ec576102fd565b806301ffc9a71461041a57806306fdde031461044f576102fd565b366102fd57005b6000610307610a58565b6040517fbe464464000000000000000000000000000000000000000000000000000000008152600080357fffffffff0000000000000000000000000000000000000000000000000000000016600483015291925073ffffffffffffffffffffffffffffffffffffffff83169063be46446490602401602060405180830381865afa158015610399573d6000803e3d6000fd5b505050506040513d601f19601f820116820180604052508101906103bd91906150ef565b156103e85750803660008037600080366000845af43d6000803e8080156103e3573d6000f35b3d6000fd5b6103f0610bd0565b9050366000803733365260008060203601600034855af13d6000803e8080156103e3573d6000f35b005b34801561042657600080fd5b5061043a61043536600461513a565b610c1d565b60405190151581526020015b60405180910390f35b34801561045b57600080fd5b50610464610e3d565b60405161044691906151cd565b34801561047d57600080fd5b506104b461048c3660046151e0565b60009081526007602052604090205473ffffffffffffffffffffffffffffffffffffffff1690565b60405173ffffffffffffffffffffffffffffffffffffffff9091168152602001610446565b6104186104e736600461521b565b610ecf565b3480156104f857600080fd5b50610418610507366004615247565b6111e4565b34801561051857600080fd5b5061052c6105273660046152ad565b611347565b6040517fffffffff000000000000000000000000000000000000000000000000000000009091168152602001610446565b34801561056957600080fd5b506004545b604051908152602001610446565b34801561058857600080fd5b5061052c610597366004615332565b6116be565b3480156105a857600080fd5b5061043a6105b73660046151e0565b6000908152600c602052604090205460ff1690565b6104186105da3660046153b7565b6119ae565b3480156105eb57600080fd5b506104186105fa36600461543d565b6119c9565b34801561060b57600080fd5b5061056e61061a36600461521b565b611bea565b34801561062b57600080fd5b5061041861063a3660046154d5565b611ca7565b61041861064d3660046153b7565b611e52565b34801561065e57600080fd5b5061041861066d3660046151e0565b611e6d565b34801561067e57600080fd5b5061052c61068d366004615624565b612090565b34801561069e57600080fd5b5061043a6106ad3660046151e0565b60009081526006602052604090205473ffffffffffffffffffffffffffffffffffffffff16151590565b3480156106e357600080fd5b5061056e6106f23660046151e0565b61261f565b34801561070357600080fd5b506104b46107123660046151e0565b6126b2565b34801561072357600080fd5b507f5705f5753aa4f617eef2cae1dada3d3355e9387b04d19191f09b545e684ca50d546104b4565b34801561075757600080fd5b50610418610766366004615247565b612744565b34801561077757600080fd5b5061056e610786366004615247565b61281e565b34801561079757600080fd5b5061056e6128c6565b3480156107ac57600080fd5b506107c06107bb366004615247565b6129bd565b6040516104469190615659565b3480156107d957600080fd5b507f89b583059fdb0b2e807359b64eba1a8a1e6d099210701fafe6dad5dd2cd64fb8546104b4565b34801561080d57600080fd5b506107c061081c36600461569d565b612a36565b34801561082d57600080fd5b506104b4612b08565b34801561084257600080fd5b506104186108513660046156bf565b612b5c565b34801561086257600080fd5b50610464612d35565b34801561087757600080fd5b506104186108863660046156fd565b612d44565b34801561089757600080fd5b506104186108a6366004615736565b612f8d565b6104186108b936600461521b565b6131f8565b6104186108cc36600461578b565b61320f565b6104186108df36600461578b565b6133d8565b6104186108f23660046157f7565b6137ce565b34801561090357600080fd5b5061041861091236600461521b565b6138a4565b34801561092357600080fd5b506107c061093236600461583f565b613a0c565b34801561094357600080fd5b506104646109523660046151e0565b613b25565b34801561096357600080fd5b50610977610972366004615874565b613c58565b6040516104469291906158c5565b34801561099157600080fd5b50610464613e73565b3480156109a657600080fd5b5061043a6109b5366004615900565b73ffffffffffffffffffffffffffffffffffffffff9182166000908152600a6020908152604080832093909416825291909152205460ff1690565b6104186109fe3660046157f7565b613f3f565b348015610a0f57600080fd5b50610418610a1e366004615247565b613ff5565b348015610a2f57600080fd5b506104b461414c565b348015610a4457600080fd5b50610418610a533660046151e0565b614176565b60003073ffffffffffffffffffffffffffffffffffffffff16634827ae0c6040518163ffffffff1660e01b8152600401602060405180830381865afa158015610aa5573d6000803e3d6000fd5b505050506040513d601f19601f82011682018060405250810190610ac9919061592e565b73ffffffffffffffffffffffffffffffffffffffff16635ab1bd536040518163ffffffff1660e01b8152600401602060405180830381865afa158015610b13573d6000803e3d6000fd5b505050506040513d601f19601f82011682018060405250810190610b37919061592e565b6040517fcc2913f90000000000000000000000000000000000000000000000000000000081526350413144600482015273ffffffffffffffffffffffffffffffffffffffff919091169063cc2913f990602401602060405180830381865afa158015610ba7573d6000803e3d6000fd5b505050506040513d601f19601f82011682018060405250810190610bcb919061592e565b905090565b60003073ffffffffffffffffffffffffffffffffffffffff16636faf275b6040518163ffffffff1660e01b8152600401602060405180830381865afa158015610ba7573d6000803e3d6000fd5b6000610c276142dd565b73ffffffffffffffffffffffffffffffffffffffff16639fe7303f6001846040518363ffffffff1660e01b8152600401610c6292919061597a565b602060405180830381865afa158015610c7f573d6000803e3d6000fd5b505050506040513d601f19601f82011682018060405250810190610ca391906150ef565b80610d635750610cb1610a58565b6040517f01ffc9a70000000000000000000000000000000000000000000000000000000081527fffffffff000000000000000000000000000000000000000000000000000000008416600482015273ffffffffffffffffffffffffffffffffffffffff91909116906301ffc9a790602401602060405180830381865afa158015610d3f573d6000803e3d6000fd5b505050506040513d601f19601f82011682018060405250810190610d6391906150ef565b80610e235750610d71610bd0565b6040517f01ffc9a70000000000000000000000000000000000000000000000000000000081527fffffffff000000000000000000000000000000000000000000000000000000008416600482015273ffffffffffffffffffffffffffffffffffffffff91909116906301ffc9a790602401602060405180830381865afa158015610dff573d6000803e3d6000fd5b505050506040513d601f19601f82011682018060405250810190610e2391906150ef565b15610e3057506001919050565b506000919050565b919050565b606060018054610e4c906159e6565b80601f0160208091040260200160405190810160405280929190818152602001828054610e78906159e6565b8015610ec55780601f10610e9a57610100808354040283529160200191610ec5565b820191906000526020600020905b815481529060010190602001808311610ea857829003601f168201915b5050505050905090565b60008181526006602052604090205473ffffffffffffffffffffffffffffffffffffffff908116908316819003610f67576040517f08c379a000000000000000000000000000000000000000000000000000000000815260206004820152601b60248201527f4552433732313a2063616e6e6f7420617070726f76652073656c66000000000060448201526064015b60405180910390fd5b610f713383614398565b610fd7576040517f08c379a000000000000000000000000000000000000000000000000000000000815260206004820152601b60248201527f4552433732313a206e6f7420617070726f7665642073656e64657200000000006044820152606401610f5e565b610fe460005460036144c5565b1561109d57610ff16144e9565b6040517f47abf3be00000000000000000000000000000000000000000000000000000000815273ffffffffffffffffffffffffffffffffffffffff838116600483015285811660248301526044820185905291909116906347abf3be906064016020604051808303816000875af1158015611070573d6000803e3d6000fd5b505050506040513d601f19601f8201168201806040525081019061109491906150ef565b61109d57600080fd5b60008281526007602052604080822080547fffffffffffffffffffffffff00000000000000000000000000000000000000001673ffffffffffffffffffffffffffffffffffffffff87811691821790925591518593918516917f8c5be1e5ebec7d5bd14f71427d1e84f3dd0314c0f7b2291e5b200ac8c7c3b92591a461112660005460026144c5565b156111df576111336144e9565b6040517f900f66ef00000000000000000000000000000000000000000000000000000000815273ffffffffffffffffffffffffffffffffffffffff8381166004830152858116602483015260448201859052919091169063900f66ef906064016020604051808303816000875af11580156111b2573d6000803e3d6000fd5b505050506040513d601f19601f820116820180604052508101906111d691906150ef565b6111df57600080fd5b505050565b7f89b583059fdb0b2e807359b64eba1a8a1e6d099210701fafe6dad5dd2cd64fb85473ffffffffffffffffffffffffffffffffffffffff163373ffffffffffffffffffffffffffffffffffffffff161461129a576040517f08c379a000000000000000000000000000000000000000000000000000000000815260206004820152601e60248201527f484f4c4f47524150483a206f776e6572206f6e6c792066756e6374696f6e00006044820152606401610f5e565b60006112c47f89b583059fdb0b2e807359b64eba1a8a1e6d099210701fafe6dad5dd2cd64fb85490565b9050817f89b583059fdb0b2e807359b64eba1a8a1e6d099210701fafe6dad5dd2cd64fb8558173ffffffffffffffffffffffffffffffffffffffff168173ffffffffffffffffffffffffffffffffffffffff167f8be0079c531659141344cd1fd0a4f28419497f9722a3daafe3b4186f6b6457e060405160405180910390a35050565b6000611352866144f3565b6113b8576040517f08c379a000000000000000000000000000000000000000000000000000000000815260206004820152601d60248201527f4552433732313a206f70657261746f72206e6f7420636f6e74726163740000006044820152606401610f5e565b6113c5600054600e6144c5565b15611460576113d26144e9565b73ffffffffffffffffffffffffffffffffffffffff166368fd76b28787308888886040518763ffffffff1660e01b815260040161141496959493929190615a82565b6020604051808303816000875af1158015611433573d6000803e3d6000fd5b505050506040513d601f19601f8201168201806040525081019061145791906150ef565b61146057600080fd5b6040517f6352211e0000000000000000000000000000000000000000000000000000000081526004810185905273ffffffffffffffffffffffffffffffffffffffff871690636352211e90602401602060405180830381865afa925050508015611505575060408051601f3d9081017fffffffffffffffffffffffffffffffffffffffffffffffffffffffffffffffe01682019092526115029181019061592e565b60015b61156b576040517f08c379a000000000000000000000000000000000000000000000000000000000815260206004820152601c60248201527f4552433732313a20746f6b656e20646f6573206e6f74206578697374000000006044820152606401610f5e565b73ffffffffffffffffffffffffffffffffffffffff811630146115ea576040517f08c379a000000000000000000000000000000000000000000000000000000000815260206004820181905260248201527f4552433732313a20636f6e7472616374206e6f7420746f6b656e206f776e65726044820152606401610f5e565b506115f8600054600f6144c5565b15611693576116056144e9565b73ffffffffffffffffffffffffffffffffffffffff1663462b401a8787308888886040518763ffffffff1660e01b815260040161164796959493929190615a82565b6020604051808303816000875af1158015611666573d6000803e3d6000fd5b505050506040513d601f19601f8201168201806040525081019061168a91906150ef565b61169357600080fd5b507f150b7a020000000000000000000000000000000000000000000000000000000095945050505050565b60006116c861452a565b73ffffffffffffffffffffffffffffffffffffffff163373ffffffffffffffffffffffffffffffffffffffff161461175c576040517f08c379a000000000000000000000000000000000000000000000000000000000815260206004820152601c60248201527f4552433732313a206f6e6c79206272696467652063616e2063616c6c000000006044820152606401610f5e565b60008481526006602052604090205473ffffffffffffffffffffffffffffffffffffffff16156117e8576040517f08c379a000000000000000000000000000000000000000000000000000000000815260206004820152601c60248201527f4552433732313a20746f6b656e20616c726561647920657869737473000000006044820152606401610f5e565b6000848152600c6020526040902080547fffffffffffffffffffffffffffffffffffffffffffffffffffffffffffffff0016905561182d61182761452a565b856145e5565b61183f61183861452a565b8786614855565b8473ffffffffffffffffffffffffffffffffffffffff168673ffffffffffffffffffffffffffffffffffffffff161461187d5761187d868686614855565b61188a60005460006144c5565b15611982576118976144e9565b73ffffffffffffffffffffffffffffffffffffffff1663f0f540738888888888886040518763ffffffff1660e01b81526004016118d996959493929190615ad6565b6020604051808303816000875af11580156118f8573d6000803e3d6000fd5b505050506040513d601f19601f8201168201806040525081019061191c91906150ef565b611982576040517f08c379a000000000000000000000000000000000000000000000000000000000815260206004820152601b60248201527f484f4c4f47524150483a2062726964676520696e206661696c656400000000006044820152606401610f5e565b507f21d6846f000000000000000000000000000000000000000000000000000000009695505050505050565b6111df8383836040518060200160405280600081525061320f565b6119d1610bd0565b73ffffffffffffffffffffffffffffffffffffffff163373ffffffffffffffffffffffffffffffffffffffff1614611a65576040517f08c379a000000000000000000000000000000000000000000000000000000000815260206004820152601c60248201527f4552433732313a206f6e6c7920736f757263652063616e206d696e74000000006044820152606401610f5e565b6000611a6f614a26565b90506000805b83811015611be15782858583818110611a9057611a90615b22565b9050602002016020810190611aa59190615b51565b604051602001611b0b92919060e09290921b7fffffffff00000000000000000000000000000000000000000000000000000000168252602090811b7fffffffffffffffffffffffffffffffffffffffffffffffffffffffff000000001660048301520190565b604051602081830303815290604052611b2390615b6c565b6000818152600c602052604090205490925060ff1615611b9f576040517f08c379a000000000000000000000000000000000000000000000000000000000815260206004820152601f60248201527f4552433732313a2063616e2774206d696e74206275726e656420746f6b656e006044820152606401610f5e565b611bcf878783818110611bb457611bb4615b22565b9050602002016020810190611bc99190615247565b836145e5565b80611bd981615bdd565b915050611a75565b50505050505050565b6000611bf58361281e565b8210611c5d576040517f08c379a000000000000000000000000000000000000000000000000000000000815260206004820152601b60248201527f4552433732313a20696e646578206f7574206f6620626f756e647300000000006044820152606401610f5e565b73ffffffffffffffffffffffffffffffffffffffff83166000908152600960205260409020805483908110611c9457611c94615b22565b9060005260206000200154905092915050565b611caf610bd0565b73ffffffffffffffffffffffffffffffffffffffff163373ffffffffffffffffffffffffffffffffffffffff1614611d43576040517f08c379a000000000000000000000000000000000000000000000000000000000815260206004820152601c60248201527f4552433732313a206f6e6c7920736f757263652063616e206d696e74000000006044820152606401610f5e565b6000611d4d614a26565b82604051602001611db492919060e09290921b7fffffffff00000000000000000000000000000000000000000000000000000000168252602090811b7fffffffffffffffffffffffffffffffffffffffffffffffffffffffff000000001660048301520190565b604051602081830303815290604052611dcc90615b6c565b6000818152600c602052604090205490915060ff1615611e48576040517f08c379a000000000000000000000000000000000000000000000000000000000815260206004820152601f60248201527f4552433732313a2063616e2774206d696e74206275726e656420746f6b656e006044820152606401610f5e565b6111df83826145e5565b6111df838383604051806020016040528060008152506133d8565b611e773382614398565b611edd576040517f08c379a000000000000000000000000000000000000000000000000000000000815260206004820152601b60248201527f4552433732313a206e6f7420617070726f7665642073656e64657200000000006044820152606401610f5e565b600081815260066020526040812054905473ffffffffffffffffffffffffffffffffffffffff90911690611f129060076144c5565b15611fc357611f1f6144e9565b6040517f4a1fefbd00000000000000000000000000000000000000000000000000000000815273ffffffffffffffffffffffffffffffffffffffff8381166004830152602482018590529190911690634a1fefbd906044016020604051808303816000875af1158015611f96573d6000803e3d6000fd5b505050506040513d601f19601f82011682018060405250810190611fba91906150ef565b611fc357600080fd5b611fcd8183614b96565b611fda60005460066144c5565b1561208c57611fe76144e9565b6040517f971c34b400000000000000000000000000000000000000000000000000000000815273ffffffffffffffffffffffffffffffffffffffff838116600483015260248201859052919091169063971c34b4906044015b6020604051808303816000875af115801561205f573d6000803e3d6000fd5b505050506040513d601f19601f8201168201806040525081019061208391906150ef565b61208c57600080fd5b5050565b60006120bc7f4e5f991bca30eca2d4643aaefa807e88f96a4a97398933d572a3c0d973004a0154151590565b15612123576040517f08c379a000000000000000000000000000000000000000000000000000000000815260206004820152601b60248201527f4552433732313a20616c726561647920696e697469616c697a656400000000006044820152606401610f5e565b337f89b583059fdb0b2e807359b64eba1a8a1e6d099210701fafe6dad5dd2cd64fb855600080600080600080878060200190518101906121639190615c5a565b955095509550955095509550856001908051906020019061218592919061501c565b50845161219990600290602088019061501c565b50600380547fffffffffffffffffffffffffffffffffffffffffffffffffffffffffffff00001661ffff86161790556000839055816125c9573073ffffffffffffffffffffffffffffffffffffffff16636faf275b6040518163ffffffff1660e01b8152600401602060405180830381865afa925050508015612257575060408051601f3d9081017fffffffffffffffffffffffffffffffffffffffffffffffffffffffffffffffe01682019092526122549181019061592e565b60015b6122bd576040517f08c379a000000000000000000000000000000000000000000000000000000000815260206004820152601d60248201527f4552433732313a20636f756c64206e6f7420696e697420736f757263650000006044820152606401610f5e565b6040517f4ddf47d4000000000000000000000000000000000000000000000000000000008082529073ffffffffffffffffffffffffffffffffffffffff831690634ddf47d4906123119086906004016151cd565b6020604051808303816000875af1158015612330573d6000803e3d6000fd5b505050506040513d601f19601f820116820180604052508101906123549190615d18565b7fffffffff0000000000000000000000000000000000000000000000000000000016146123dd576040517f08c379a000000000000000000000000000000000000000000000000000000000815260206004820152601d60248201527f4552433732313a20636f756c64206e6f7420696e697420736f757263650000006044820152606401610f5e565b506000806123e9610a58565b6040805130602082015261ffff8916818301528151808203830181526060820190925273ffffffffffffffffffffffffffffffffffffffff929092169161243391906084016151cd565b604080517fffffffffffffffffffffffffffffffffffffffffffffffffffffffffffffffe08184030181529181526020820180517bffffffffffffffffffffffffffffffffffffffffffffffffffffffff167f65b85eb500000000000000000000000000000000000000000000000000000000179052516124b49190615d35565b600060405180830381855af49150503d80600081146124ef576040519150601f19603f3d011682016040523d82523d6000602084013e6124f4565b606091505b509150915060008180602001905181019061250f9190615d18565b905082801561255f57507fffffffff0000000000000000000000000000000000000000000000000000000081167f4ddf47d400000000000000000000000000000000000000000000000000000000145b6125c5576040517f08c379a000000000000000000000000000000000000000000000000000000000815260206004820152601a60248201527f4552433732313a20636f7564206e6f7420696e697420504131440000000000006044820152606401610f5e565b5050505b6125f260017f4e5f991bca30eca2d4643aaefa807e88f96a4a97398933d572a3c0d973004a0155565b507f4ddf47d400000000000000000000000000000000000000000000000000000000979650505050505050565b600454600090821061268d576040517f08c379a000000000000000000000000000000000000000000000000000000000815260206004820152601b60248201527f4552433732313a20696e646578206f7574206f6620626f756e647300000000006044820152606401610f5e565b600482815481106126a0576126a0615b22565b90600052602060002001549050919050565b60008181526006602052604081205473ffffffffffffffffffffffffffffffffffffffff168061273e576040517f08c379a000000000000000000000000000000000000000000000000000000000815260206004820152601c60248201527f4552433732313a20746f6b656e20646f6573206e6f74206578697374000000006044820152606401610f5e565b92915050565b7f5705f5753aa4f617eef2cae1dada3d3355e9387b04d19191f09b545e684ca50d5473ffffffffffffffffffffffffffffffffffffffff163373ffffffffffffffffffffffffffffffffffffffff16146127fa576040517f08c379a000000000000000000000000000000000000000000000000000000000815260206004820152601e60248201527f484f4c4f47524150483a2061646d696e206f6e6c792066756e6374696f6e00006044820152606401610f5e565b7f5705f5753aa4f617eef2cae1dada3d3355e9387b04d19191f09b545e684ca50d55565b600073ffffffffffffffffffffffffffffffffffffffff821661289d576040517f08c379a000000000000000000000000000000000000000000000000000000000815260206004820152601460248201527f4552433732313a207a65726f20616464726573730000000000000000000000006044820152606401610f5e565b5073ffffffffffffffffffffffffffffffffffffffff1660009081526008602052604090205490565b60006128d0610bd0565b73ffffffffffffffffffffffffffffffffffffffff163373ffffffffffffffffffffffffffffffffffffffff1614612964576040517f08c379a000000000000000000000000000000000000000000000000000000000815260206004820152601e60248201527f4552433732313a206f6e6c7920736f75726365206e65656473207468697300006044820152606401610f5e565b61296c614a26565b6040805160e09290921b7fffffffff000000000000000000000000000000000000000000000000000000001660208301526000602483015201604051602081830303815290604052610e3890615b6c565b73ffffffffffffffffffffffffffffffffffffffff8116600090815260096020908152604091829020805483518184028101840190945280845260609392830182828015612a2a57602002820191906000526020600020905b815481526020019060010190808311612a16575b50505050509050919050565b60045460609080612a478486615d51565b1115612a5a57612a578482615d69565b92505b8267ffffffffffffffff811115612a7357612a7361550a565b604051908082528060200260200182016040528015612a9c578160200160208202803683370190505b50915060005b83811015612b00576004612ab68287615d51565b81548110612ac657612ac6615b22565b9060005260206000200154838281518110612ae357612ae3615b22565b602090810291909101015280612af881615bdd565b915050612aa2565b505092915050565b6000612b12610bd0565b73ffffffffffffffffffffffffffffffffffffffff16638da5cb5b6040518163ffffffff1660e01b8152600401602060405180830381865afa158015610ba7573d6000803e3d6000fd5b612b64610bd0565b73ffffffffffffffffffffffffffffffffffffffff163373ffffffffffffffffffffffffffffffffffffffff1614612bf8576040517f08c379a000000000000000000000000000000000000000000000000000000000815260206004820152601c60248201527f4552433732313a206f6e6c7920736f757263652063616e206d696e74000000006044820152606401610f5e565b6000612c02614a26565b90506000805b83811015612d2d576040805160e085901b7fffffffff000000000000000000000000000000000000000000000000000000001660208083019190915287901b7fffffffffffffffffffffffffffffffffffffffffffffffffffffffff0000000016602482015201604051602081830303815290604052612c8790615b6c565b6000818152600c602052604090205490925060ff1615612d03576040517f08c379a000000000000000000000000000000000000000000000000000000000815260206004820152601f60248201527f4552433732313a2063616e2774206d696e74206275726e656420746f6b656e006044820152606401610f5e565b612d0d86836145e5565b84612d1781615d80565b9550508080612d2590615bdd565b915050612c08565b505050505050565b606060028054610e4c906159e6565b3373ffffffffffffffffffffffffffffffffffffffff831603612dc3576040517f08c379a000000000000000000000000000000000000000000000000000000000815260206004820152601b60248201527f4552433732313a2063616e6e6f7420617070726f76652073656c6600000000006044820152606401610f5e565b612dd060005460056144c5565b15612e8257612ddd6144e9565b6040517fa730629100000000000000000000000000000000000000000000000000000000815273ffffffffffffffffffffffffffffffffffffffff84811660048301528315156024830152919091169063a7306291906044016020604051808303816000875af1158015612e55573d6000803e3d6000fd5b505050506040513d601f19601f82011682018060405250810190612e7991906150ef565b612e8257600080fd5b336000818152600a6020908152604080832073ffffffffffffffffffffffffffffffffffffffff87168085529083529281902080547fffffffffffffffffffffffffffffffffffffffffffffffffffffffffffffff001686151590811790915590519081529192917f17307eab39ab6107e8899845ad3d59bd9653f200f220920489ca2b5937696c31910160405180910390a3612f2260005460046144c5565b1561208c57612f2f6144e9565b6040517f4ce71c2300000000000000000000000000000000000000000000000000000000815273ffffffffffffffffffffffffffffffffffffffff848116600483015283151560248301529190911690634ce71c2390604401612040565b612f95610bd0565b73ffffffffffffffffffffffffffffffffffffffff163373ffffffffffffffffffffffffffffffffffffffff1614613029576040517f08c379a000000000000000000000000000000000000000000000000000000000815260206004820152601c60248201527f4552433732313a206f6e6c7920736f757263652063616e206d696e74000000006044820152606401610f5e565b6000613033614a26565b90506000805b83811015612d2d576000828152600c602052604090205460ff16156130ba576040517f08c379a000000000000000000000000000000000000000000000000000000000815260206004820152601f60248201527f4552433732313a2063616e2774206d696e74206275726e656420746f6b656e006044820152606401610f5e565b828585838181106130cd576130cd615b22565b90506020020160208101906130e29190615b51565b60405160200161314892919060e09290921b7fffffffff00000000000000000000000000000000000000000000000000000000168252602090811b7fffffffffffffffffffffffffffffffffffffffffffffffffffffffff000000001660048301520190565b60405160208183030381529060405261316090615b6c565b6000818152600c602052604090205490925060ff16156131dc576040517f08c379a000000000000000000000000000000000000000000000000000000000815260206004820152601f60248201527f4552433732313a2063616e2774206d696e74206275726e656420746f6b656e006044820152606401610f5e565b6131e686836145e5565b806131f081615bdd565b915050613039565b61208c338383604051806020016040528060008152505b6132193383614398565b61327f576040517f08c379a000000000000000000000000000000000000000000000000000000000815260206004820152601b60248201527f4552433732313a206e6f7420617070726f7665642073656e64657200000000006044820152606401610f5e565b61328c600054600d6144c5565b15613323576132996144e9565b73ffffffffffffffffffffffffffffffffffffffff1663343b278f858585856040518563ffffffff1660e01b81526004016132d79493929190615dbb565b6020604051808303816000875af11580156132f6573d6000803e3d6000fd5b505050506040513d601f19601f8201168201806040525081019061331a91906150ef565b61332357600080fd5b61332e848484614855565b61333b600054600c6144c5565b156133d2576133486144e9565b73ffffffffffffffffffffffffffffffffffffffff16630668af80858585856040518563ffffffff1660e01b81526004016133869493929190615dbb565b6020604051808303816000875af11580156133a5573d6000803e3d6000fd5b505050506040513d601f19601f820116820180604052508101906133c991906150ef565b6133d257600080fd5b50505050565b6133e23383614398565b613448576040517f08c379a000000000000000000000000000000000000000000000000000000000815260206004820152601b60248201527f4552433732313a206e6f7420617070726f7665642073656e64657200000000006044820152606401610f5e565b613455600054600b6144c5565b156134ec576134626144e9565b73ffffffffffffffffffffffffffffffffffffffff16632ca16676858585856040518563ffffffff1660e01b81526004016134a09493929190615dbb565b6020604051808303816000875af11580156134bf573d6000803e3d6000fd5b505050506040513d601f19601f820116820180604052508101906134e391906150ef565b6134ec57600080fd5b6134f7848484614855565b613500836144f3565b15613776576040517f01ffc9a700000000000000000000000000000000000000000000000000000000808252600482015273ffffffffffffffffffffffffffffffffffffffff8416906301ffc9a790602401602060405180830381865afa15801561356f573d6000803e3d6000fd5b505050506040513d601f19601f8201168201806040525081019061359391906150ef565b801561364857506040517f01ffc9a70000000000000000000000000000000000000000000000000000000081527f150b7a0200000000000000000000000000000000000000000000000000000000600482015273ffffffffffffffffffffffffffffffffffffffff8416906301ffc9a790602401602060405180830381865afa158015613624573d6000803e3d6000fd5b505050506040513d601f19601f8201168201806040525081019061364891906150ef565b801561371057506040517f150b7a02000000000000000000000000000000000000000000000000000000008082529073ffffffffffffffffffffffffffffffffffffffff85169063150b7a02906136a9903090899088908890600401615dbb565b6020604051808303816000875af11580156136c8573d6000803e3d6000fd5b505050506040513d601f19601f820116820180604052508101906136ec9190615d18565b7fffffffff0000000000000000000000000000000000000000000000000000000016145b613776576040517f08c379a000000000000000000000000000000000000000000000000000000000815260206004820152601d60248201527f4552433732313a206f6e4552433732315265636569766564206661696c0000006044820152606401610f5e565b613783600054600a6144c5565b156133d2576137906144e9565b73ffffffffffffffffffffffffffffffffffffffff166336fff062858585856040518563ffffffff1660e01b81526004016133869493929190615dbb565b7f5705f5753aa4f617eef2cae1dada3d3355e9387b04d19191f09b545e684ca50d5473ffffffffffffffffffffffffffffffffffffffff163373ffffffffffffffffffffffffffffffffffffffff1614613884576040517f08c379a000000000000000000000000000000000000000000000000000000000815260206004820152601e60248201527f484f4c4f47524150483a2061646d696e206f6e6c792066756e6374696f6e00006044820152606401610f5e565b808260003760008082600034875af13d6000803e8080156103e3573d6000f35b6138ac610bd0565b73ffffffffffffffffffffffffffffffffffffffff163373ffffffffffffffffffffffffffffffffffffffff1614613940576040517f08c379a000000000000000000000000000000000000000000000000000000000815260206004820181905260248201527f4552433732313a206f6e6c7920736f757263652063616e207472616e736665726044820152606401610f5e565b60008181526006602052604090205473ffffffffffffffffffffffffffffffffffffffff1661396d61452a565b73ffffffffffffffffffffffffffffffffffffffff168173ffffffffffffffffffffffffffffffffffffffff1603613a01576040517f08c379a000000000000000000000000000000000000000000000000000000000815260206004820152601860248201527f4552433732313a20746f6b656e206973206272696467656400000000000000006044820152606401610f5e565b6111df818484614855565b73ffffffffffffffffffffffffffffffffffffffff831660009081526008602052604090205460609080613a408486615d51565b1115613a5357613a508482615d69565b92505b8267ffffffffffffffff811115613a6c57613a6c61550a565b604051908082528060200260200182016040528015613a95578160200160208202803683370190505b50915060005b83811015613b1c5773ffffffffffffffffffffffffffffffffffffffff86166000908152600960205260409020613ad28287615d51565b81548110613ae257613ae2615b22565b9060005260206000200154838281518110613aff57613aff615b22565b602090810291909101015280613b1481615bdd565b915050613a9b565b50509392505050565b60008181526006602052604090205460609073ffffffffffffffffffffffffffffffffffffffff16613bb3576040517f08c379a000000000000000000000000000000000000000000000000000000000815260206004820152601c60248201527f4552433732313a20746f6b656e20646f6573206e6f74206578697374000000006044820152606401610f5e565b613bbb610bd0565b73ffffffffffffffffffffffffffffffffffffffff1663c87b56dd836040518263ffffffff1660e01b8152600401613bf591815260200190565b600060405180830381865afa158015613c12573d6000803e3d6000fd5b505050506040513d6000823e601f3d9081017fffffffffffffffffffffffffffffffffffffffffffffffffffffffffffffffe016820160405261273e9190810190615e04565b60006060613c6461452a565b73ffffffffffffffffffffffffffffffffffffffff163373ffffffffffffffffffffffffffffffffffffffff1614613cf8576040517f08c379a000000000000000000000000000000000000000000000000000000000815260206004820152601c60248201527f4552433732313a206f6e6c79206272696467652063616e2063616c6c000000006044820152606401610f5e565b8373ffffffffffffffffffffffffffffffffffffffff168573ffffffffffffffffffffffffffffffffffffffff1614613d3657613d36858585614855565b613d4884613d4261452a565b85614855565b613d5560005460016144c5565b15613e3657613d626144e9565b6040517f8b1465c600000000000000000000000000000000000000000000000000000000815263ffffffff8816600482015273ffffffffffffffffffffffffffffffffffffffff87811660248301528681166044830152606482018690529190911690638b1465c6906084016000604051808303816000875af1158015613ded573d6000803e3d6000fd5b505050506040513d6000823e601f3d9081017fffffffffffffffffffffffffffffffffffffffffffffffffffffffffffffffe0168201604052613e339190810190615e04565b90505b613e47613e4161452a565b84614b96565b7fde8b1ef100000000000000000000000000000000000000000000000000000000915094509492505050565b6060613e7d6142dd565b6003546040517f9cf149da00000000000000000000000000000000000000000000000000000000815273ffffffffffffffffffffffffffffffffffffffff9290921691639cf149da91613edc9160019161ffff16903090600401615e39565b600060405180830381865afa158015613ef9573d6000803e3d6000fd5b505050506040513d6000823e601f3d9081017fffffffffffffffffffffffffffffffffffffffffffffffffffffffffffffffe0168201604052610bcb9190810190615e04565b7f89b583059fdb0b2e807359b64eba1a8a1e6d099210701fafe6dad5dd2cd64fb85473ffffffffffffffffffffffffffffffffffffffff163373ffffffffffffffffffffffffffffffffffffffff1614613884576040517f08c379a000000000000000000000000000000000000000000000000000000000815260206004820152601e60248201527f484f4c4f47524150483a206f776e6572206f6e6c792066756e6374696f6e00006044820152606401610f5e565b7f89b583059fdb0b2e807359b64eba1a8a1e6d099210701fafe6dad5dd2cd64fb85473ffffffffffffffffffffffffffffffffffffffff163373ffffffffffffffffffffffffffffffffffffffff16146140ab576040517f08c379a000000000000000000000000000000000000000000000000000000000815260206004820152601e60248201527f484f4c4f47524150483a206f776e6572206f6e6c792066756e6374696f6e00006044820152606401610f5e565b73ffffffffffffffffffffffffffffffffffffffff8116614128576040517f08c379a000000000000000000000000000000000000000000000000000000000815260206004820152601760248201527f484f4c4f47524150483a207a65726f20616464726573730000000000000000006044820152606401610f5e565b7f89b583059fdb0b2e807359b64eba1a8a1e6d099210701fafe6dad5dd2cd64fb855565b6000610bcb7f5705f5753aa4f617eef2cae1dada3d3355e9387b04d19191f09b545e684ca50d5490565b61417e610bd0565b73ffffffffffffffffffffffffffffffffffffffff163373ffffffffffffffffffffffffffffffffffffffff1614614212576040517f08c379a000000000000000000000000000000000000000000000000000000000815260206004820152601c60248201527f4552433732313a206f6e6c7920736f757263652063616e206275726e000000006044820152606401610f5e565b60008181526006602052604090205473ffffffffffffffffffffffffffffffffffffffff1661423f61452a565b73ffffffffffffffffffffffffffffffffffffffff168173ffffffffffffffffffffffffffffffffffffffff16036142d3576040517f08c379a000000000000000000000000000000000000000000000000000000000815260206004820152601860248201527f4552433732313a20746f6b656e206973206272696467656400000000000000006044820152606401610f5e565b61208c8183614b96565b60003073ffffffffffffffffffffffffffffffffffffffff16634827ae0c6040518163ffffffff1660e01b8152600401602060405180830381865afa15801561432a573d6000803e3d6000fd5b505050506040513d601f19601f8201168201806040525081019061434e919061592e565b73ffffffffffffffffffffffffffffffffffffffff1663ebac15f96040518163ffffffff1660e01b8152600401602060405180830381865afa158015610ba7573d6000803e3d6000fd5b60008181526006602052604081205473ffffffffffffffffffffffffffffffffffffffff16614423576040517f08c379a000000000000000000000000000000000000000000000000000000000815260206004820152601c60248201527f4552433732313a20746f6b656e20646f6573206e6f74206578697374000000006044820152606401610f5e565b60008281526006602052604090205473ffffffffffffffffffffffffffffffffffffffff908116908416811480614480575060008381526007602052604090205473ffffffffffffffffffffffffffffffffffffffff8581169116145b806144bd575073ffffffffffffffffffffffffffffffffffffffff8082166000908152600a602090815260408083209388168352929052205460ff165b949350505050565b60006144e28383600f8111156144dd576144dd61594b565b614c84565b9392505050565b6000610bcb610bd0565b6000813f80158015906144e257507fc5d2460186f7233c927e7db2dcc703c0e500b653ca82273b7bfad8045d85a470141592915050565b60003073ffffffffffffffffffffffffffffffffffffffff16634827ae0c6040518163ffffffff1660e01b8152600401602060405180830381865afa158015614577573d6000803e3d6000fd5b505050506040513d601f19601f8201168201806040525081019061459b919061592e565b73ffffffffffffffffffffffffffffffffffffffff16630fffbaf36040518163ffffffff1660e01b8152600401602060405180830381865afa158015610ba7573d6000803e3d6000fd5b6000811161464f576040517f08c379a000000000000000000000000000000000000000000000000000000000815260206004820152601f60248201527f4552433732313a20746f6b656e2069642063616e6e6f74206265207a65726f006044820152606401610f5e565b73ffffffffffffffffffffffffffffffffffffffff82166146cc576040517f08c379a000000000000000000000000000000000000000000000000000000000815260206004820152601f60248201527f4552433732313a206d696e74696e6720746f206275726e2061646472657373006044820152606401610f5e565b60008181526006602052604090205473ffffffffffffffffffffffffffffffffffffffff1615614758576040517f08c379a000000000000000000000000000000000000000000000000000000000815260206004820152601c60248201527f4552433732313a20746f6b656e20616c726561647920657869737473000000006044820152606401610f5e565b6000818152600c602052604090205460ff16156147d1576040517f08c379a000000000000000000000000000000000000000000000000000000000815260206004820152601d60248201527f4552433732313a20746f6b656e20686173206265656e206275726e65640000006044820152606401610f5e565b60008181526006602052604080822080547fffffffffffffffffffffffff00000000000000000000000000000000000000001673ffffffffffffffffffffffffffffffffffffffff861690811790915590518392907fddf252ad1be2c89b69c2b068fc378daa952ba7f163c4a11628f55a4df523b3ef908290a461208c8282614ca5565b60008181526006602052604090205473ffffffffffffffffffffffffffffffffffffffff8481169116146148e5576040517f08c379a000000000000000000000000000000000000000000000000000000000815260206004820152601760248201527f4552433732313a20746f6b656e206e6f74206f776e65640000000000000000006044820152606401610f5e565b73ffffffffffffffffffffffffffffffffffffffff8216614962576040517f08c379a000000000000000000000000000000000000000000000000000000000815260206004820152601860248201527f4552433732313a20757365206275726e20696e737465616400000000000000006044820152606401610f5e565b600081815260076020526040902080547fffffffffffffffffffffffff000000000000000000000000000000000000000016905560008181526006602052604080822080547fffffffffffffffffffffffff00000000000000000000000000000000000000001673ffffffffffffffffffffffffffffffffffffffff86811691821790925591518493918716917fddf252ad1be2c89b69c2b068fc378daa952ba7f163c4a11628f55a4df523b3ef91a4614a1c8382614d6c565b6111df8282614ca5565b6000803073ffffffffffffffffffffffffffffffffffffffff16634827ae0c6040518163ffffffff1660e01b8152600401602060405180830381865afa158015614a74573d6000803e3d6000fd5b505050506040513d601f19601f82011682018060405250810190614a98919061592e565b73ffffffffffffffffffffffffffffffffffffffff166397e67c3b6040518163ffffffff1660e01b8152600401602060405180830381865afa158015614ae2573d6000803e3d6000fd5b505050506040513d601f19601f82011682018060405250810190614b069190615f65565b90503073ffffffffffffffffffffffffffffffffffffffff1663913a0ef26040518163ffffffff1660e01b8152600401602060405180830381865afa158015614b53573d6000803e3d6000fd5b505050506040513d601f19601f82011682018060405250810190614b779190615f65565b63ffffffff168163ffffffff1614614b8e57919050565b600091505090565b600081815260076020526040902080547fffffffffffffffffffffffff000000000000000000000000000000000000000016905560008181526006602052604080822080547fffffffffffffffffffffffff00000000000000000000000000000000000000001690555182919073ffffffffffffffffffffffffffffffffffffffff8516907fddf252ad1be2c89b69c2b068fc378daa952ba7f163c4a11628f55a4df523b3ef908390a4614c4a8282614d6c565b6000908152600c6020526040902080547fffffffffffffffffffffffffffffffffffffffffffffffffffffffffffffff0016600117905550565b6000600183831c8116908114614c9b5760006144bd565b5060019392505050565b73ffffffffffffffffffffffffffffffffffffffff821660008181526008602081815260408084208054878652600584529185208290559484529190529190614ced83615bdd565b909155505073ffffffffffffffffffffffffffffffffffffffff90911660009081526009602090815260408083208054600181810183559185528385200185905560048054868652600b909452918420839055820181559091527f8a35acfbc15ff81a39ae7d344fd709f28e8600b4aa8c65c6b64bfe7fe36bd19b0155565b614d7581614f6a565b73ffffffffffffffffffffffffffffffffffffffff82166000908152600860205260408120805491614da683615f82565b909155505073ffffffffffffffffffffffffffffffffffffffff8216600090815260086020908152604080832054848452600590925290912054808214614e9c5773ffffffffffffffffffffffffffffffffffffffff84166000908152600960205260408120805484908110614e1e57614e1e615b22565b9060005260206000200154905080600960008773ffffffffffffffffffffffffffffffffffffffff1673ffffffffffffffffffffffffffffffffffffffff1681526020019081526020016000208381548110614e7c57614e7c615b22565b600091825260208083209091019290925591825260059052604090208190555b81600003614ed75773ffffffffffffffffffffffffffffffffffffffff84166000908152600960205260408120614ed2916150a0565b6133d2565b73ffffffffffffffffffffffffffffffffffffffff84166000908152600960205260409020805483908110614f0e57614f0e615b22565b6000918252602080832090910182905573ffffffffffffffffffffffffffffffffffffffff861682526009905260409020805480614f4e57614f4e615fb7565b6001900381819060005260206000200160009055905550505050565b600454600090614f7c90600190615d69565b6000838152600b602052604081205460048054939450909284908110614fa457614fa4615b22565b906000526020600020015490508060048381548110614fc557614fc5615b22565b6000918252602080832090910192909255828152600b9091526040808220849055858252812055600480548490811061500057615000615b22565b60009182526020822001556004805480614f4e57614f4e615fb7565b828054615028906159e6565b90600052602060002090601f01602090048101928261504a5760008555615090565b82601f1061506357805160ff1916838001178555615090565b82800160010185558215615090579182015b82811115615090578251825591602001919060010190615075565b5061509c9291506150c1565b5090565b50805460008255906000526020600020908101906150be91906150c1565b50565b5b8082111561509c57600081556001016150c2565b80151581146150be57600080fd5b8051610e38816150d6565b60006020828403121561510157600080fd5b81516144e2816150d6565b7fffffffff00000000000000000000000000000000000000000000000000000000811681146150be57600080fd5b60006020828403121561514c57600080fd5b81356144e28161510c565b60005b8381101561517257818101518382015260200161515a565b838111156133d25750506000910152565b6000815180845261519b816020860160208601615157565b601f017fffffffffffffffffffffffffffffffffffffffffffffffffffffffffffffffe0169290920160200192915050565b6020815260006144e26020830184615183565b6000602082840312156151f257600080fd5b5035919050565b73ffffffffffffffffffffffffffffffffffffffff811681146150be57600080fd5b6000806040838503121561522e57600080fd5b8235615239816151f9565b946020939093013593505050565b60006020828403121561525957600080fd5b81356144e2816151f9565b60008083601f84011261527657600080fd5b50813567ffffffffffffffff81111561528e57600080fd5b6020830191508360208285010111156152a657600080fd5b9250929050565b6000806000806000608086880312156152c557600080fd5b85356152d0816151f9565b945060208601356152e0816151f9565b935060408601359250606086013567ffffffffffffffff81111561530357600080fd5b61530f88828901615264565b969995985093965092949392505050565b63ffffffff811681146150be57600080fd5b60008060008060008060a0878903121561534b57600080fd5b863561535681615320565b95506020870135615366816151f9565b94506040870135615376816151f9565b935060608701359250608087013567ffffffffffffffff81111561539957600080fd5b6153a589828a01615264565b979a9699509497509295939492505050565b6000806000606084860312156153cc57600080fd5b83356153d7816151f9565b925060208401356153e7816151f9565b929592945050506040919091013590565b60008083601f84011261540a57600080fd5b50813567ffffffffffffffff81111561542257600080fd5b6020830191508360208260051b85010111156152a657600080fd5b6000806000806040858703121561545357600080fd5b843567ffffffffffffffff8082111561546b57600080fd5b615477888389016153f8565b9096509450602087013591508082111561549057600080fd5b5061549d878288016153f8565b95989497509550505050565b80357bffffffffffffffffffffffffffffffffffffffffffffffffffffffff81168114610e3857600080fd5b600080604083850312156154e857600080fd5b82356154f3816151f9565b9150615501602084016154a9565b90509250929050565b7f4e487b7100000000000000000000000000000000000000000000000000000000600052604160045260246000fd5b604051601f82017fffffffffffffffffffffffffffffffffffffffffffffffffffffffffffffffe016810167ffffffffffffffff811182821017156155805761558061550a565b604052919050565b600067ffffffffffffffff8211156155a2576155a261550a565b50601f017fffffffffffffffffffffffffffffffffffffffffffffffffffffffffffffffe01660200190565b600082601f8301126155df57600080fd5b81356155f26155ed82615588565b615539565b81815284602083860101111561560757600080fd5b816020850160208301376000918101602001919091529392505050565b60006020828403121561563657600080fd5b813567ffffffffffffffff81111561564d57600080fd5b6144bd848285016155ce565b6020808252825182820181905260009190848201906040850190845b8181101561569157835183529284019291840191600101615675565b50909695505050505050565b600080604083850312156156b057600080fd5b50508035926020909101359150565b6000806000606084860312156156d457600080fd5b83356156df816151f9565b92506156ed602085016154a9565b9150604084013590509250925092565b6000806040838503121561571057600080fd5b823561571b816151f9565b9150602083013561572b816150d6565b809150509250929050565b60008060006040848603121561574b57600080fd5b8335615756816151f9565b9250602084013567ffffffffffffffff81111561577257600080fd5b61577e868287016153f8565b9497909650939450505050565b600080600080608085870312156157a157600080fd5b84356157ac816151f9565b935060208501356157bc816151f9565b925060408501359150606085013567ffffffffffffffff8111156157df57600080fd5b6157eb878288016155ce565b91505092959194509250565b60008060006040848603121561580c57600080fd5b8335615817816151f9565b9250602084013567ffffffffffffffff81111561583357600080fd5b61577e86828701615264565b60008060006060848603121561585457600080fd5b833561585f816151f9565b95602085013595506040909401359392505050565b6000806000806080858703121561588a57600080fd5b843561589581615320565b935060208501356158a5816151f9565b925060408501356158b5816151f9565b9396929550929360600135925050565b7fffffffff00000000000000000000000000000000000000000000000000000000831681526040602082015260006144bd6040830184615183565b6000806040838503121561591357600080fd5b823561591e816151f9565b9150602083013561572b816151f9565b60006020828403121561594057600080fd5b81516144e2816151f9565b7f4e487b7100000000000000000000000000000000000000000000000000000000600052602160045260246000fd5b60408101600284106159b5577f4e487b7100000000000000000000000000000000000000000000000000000000600052602160045260246000fd5b9281527fffffffff000000000000000000000000000000000000000000000000000000009190911660209091015290565b600181811c908216806159fa57607f821691505b602082108103615a33577f4e487b7100000000000000000000000000000000000000000000000000000000600052602260045260246000fd5b50919050565b8183528181602085013750600060208284010152600060207fffffffffffffffffffffffffffffffffffffffffffffffffffffffffffffffe0601f840116840101905092915050565b600073ffffffffffffffffffffffffffffffffffffffff8089168352808816602084015280871660408401525084606083015260a06080830152615aca60a083018486615a39565b98975050505050505050565b63ffffffff87168152600073ffffffffffffffffffffffffffffffffffffffff808816602084015280871660408401525084606083015260a06080830152615aca60a083018486615a39565b7f4e487b7100000000000000000000000000000000000000000000000000000000600052603260045260246000fd5b600060208284031215615b6357600080fd5b6144e2826154a9565b80516020808301519190811015615a33577fffffffffffffffffffffffffffffffffffffffffffffffffffffffffffffffff60209190910360031b1b16919050565b7f4e487b7100000000000000000000000000000000000000000000000000000000600052601160045260246000fd5b60007fffffffffffffffffffffffffffffffffffffffffffffffffffffffffffffffff8203615c0e57615c0e615bae565b5060010190565b600082601f830112615c2657600080fd5b8151615c346155ed82615588565b818152846020838601011115615c4957600080fd5b6144bd826020830160208701615157565b60008060008060008060c08789031215615c7357600080fd5b865167ffffffffffffffff80821115615c8b57600080fd5b615c978a838b01615c15565b97506020890151915080821115615cad57600080fd5b615cb98a838b01615c15565b96506040890151915061ffff82168214615cd257600080fd5b81955060608901519450615ce860808a016150e4565b935060a0890151915080821115615cfe57600080fd5b50615d0b89828a01615c15565b9150509295509295509295565b600060208284031215615d2a57600080fd5b81516144e28161510c565b60008251615d47818460208701615157565b9190910192915050565b60008219821115615d6457615d64615bae565b500190565b600082821015615d7b57615d7b615bae565b500390565b60007bffffffffffffffffffffffffffffffffffffffffffffffffffffffff808316818103615db157615db1615bae565b6001019392505050565b600073ffffffffffffffffffffffffffffffffffffffff808716835280861660208401525083604083015260806060830152615dfa6080830184615183565b9695505050505050565b600060208284031215615e1657600080fd5b815167ffffffffffffffff811115615e2d57600080fd5b6144bd84828501615c15565b60a08152600080855481600182811c915080831680615e5957607f831692505b60208084108203615e91577f4e487b710000000000000000000000000000000000000000000000000000000086526022600452602486fd5b60a0880184905260c08801828015615eb05760018114615edf57615f0a565b7fffffffffffffffffffffffffffffffffffffffffffffffffffffffffffffff00871682528282019750615f0a565b60008d81526020902060005b87811015615f0457815484820152908601908401615eeb565b83019850505b505087860390880152505060008352505060208101838103604085015260008152905060208101915050615f44606083018561ffff169052565b73ffffffffffffffffffffffffffffffffffffffff831660808301526144bd565b600060208284031215615f7757600080fd5b81516144e281615320565b600081615f9157615f91615bae565b507fffffffffffffffffffffffffffffffffffffffffffffffffffffffffffffffff0190565b7f4e487b7100000000000000000000000000000000000000000000000000000000600052603160045260246000fdfea164736f6c634300080d000a",
  "devdoc": {
    "author": "CXIP-Labs",
    "details": "The entire logic and functionality of the smart contract is self-contained.",
    "kind": "dev",
    "methods": {
      "approve(address,uint256)": {
        "details": "Requires the sender to be in the approved addresses.",
        "params": {
          "to": "The address to approve.",
          "tokenId": "The affected token."
        }
      },
      "balanceOf(address)": {
        "details": "Used to see total amount of tokens owned by a specific wallet.",
        "params": {
          "wallet": "Address for which to get token balance."
        },
        "returns": {
          "_0": "uint256 Returns an integer, representing total amount of tokens held by address."
        }
      },
      "burn(uint256)": {
        "details": "The sender must be the owner or approved.",
        "params": {
          "tokenId": "The token to burn."
        }
      },
      "constructor": {
        "details": "To make exact CREATE2 deployment possible, constructor is left empty. We utilize the \"init\" function instead."
      },
      "contractURI()": {
        "returns": {
          "_0": "string The URI."
        }
      },
      "getApproved(uint256)": {
        "details": "Single operator set for a specific token. Usually used for one-time very specific authorisations.",
        "params": {
          "tokenId": "Token id to get approved operator for."
        },
        "returns": {
          "_0": "address Approved address for token."
        }
      },
      "holographBridgeIn(uint32,address,address,uint256,bytes)": {
        "details": "Allows the bridge to bring in a token from another blockchain.  Note: function selector 0x2dd69ea4 is bytes4(keccak256(\"holographBridgeIn(address,address,uint256,bytes)\"))"
      },
      "holographBridgeOut(uint32,address,address,uint256)": {
        "details": "Allows the bridge to take a token out onto another blockchain.  Note: function selector 0x57aeff0a is bytes4(keccak256(\"holographBridgeOut(address,address,uint256)\"))"
      },
      "init(bytes)": {
        "details": "Special function to allow a one time initialisation on deployment. Also configures and deploys royalties."
      },
      "isApprovedForAll(address,address)": {
        "details": "Includes references to OpenSea and Rarible marketplace proxies.",
        "params": {
          "operator": "Address of the marketplace operator.",
          "wallet": "Address of the wallet."
        },
        "returns": {
          "_0": "bool True if approved."
        }
      },
      "name()": {
        "returns": {
          "_0": "string The collection name."
        }
      },
      "onERC721Received(address,address,uint256,bytes)": {
        "details": "We have this blank function in place to make sure that external contract sending in NFTs don't error out.Since it's not being used, the _operator variable is commented out to avoid compiler warnings.Since it's not being used, the _from variable is commented out to avoid compiler warnings.Since it's not being used, the _tokenId variable is commented out to avoid compiler warnings.Since it's not being used, the _data variable is commented out to avoid compiler warnings.",
        "returns": {
          "_0": "bytes4 Returns the interfaceId of onERC721Received."
        }
      },
      "ownerOf(uint256)": {
        "details": "The token must exist.",
        "params": {
          "tokenId": "The token to look up."
        },
        "returns": {
          "_0": "address Owner of the token."
        }
      },
      "safeTransferFrom(address,address,uint256)": {
        "details": "Safely transfers `tokenId` token from `from` to `to`, checking first that contract recipients are aware of the ERC721 protocol to prevent tokens from being forever locked.",
        "params": {
          "from": "cannot be the zero address.",
          "to": "cannot be the zero address.",
          "tokenId": "token must exist and be owned by `from`."
        }
      },
      "safeTransferFrom(address,address,uint256,bytes)": {
        "details": "Since it's not being used, the _data variable is commented out to avoid compiler warnings. are aware of the ERC721 protocol to prevent tokens from being forever locked.",
        "params": {
          "from": "cannot be the zero address.",
          "to": "cannot be the zero address.",
          "tokenId": "token must exist and be owned by `from`."
        }
      },
      "setApprovalForAll(address,bool)": {
        "details": "Allows platforms to sell/transfer all your NFTs. Used with proxy contracts like OpenSea/Rarible.",
        "params": {
          "approved": "Turn on or off approval status.",
          "to": "The address to approve."
        }
      },
      "sourceBurn(uint256)": {
        "details": "Allows for source smart contract to burn a token.  Note: this is put in place to make sure that custom logic could be implemented for merging, gamification, etc.  Note: token cannot be burned if it's locked by bridge."
      },
      "sourceGetChainPrepend()": {
        "details": "Allows source to get the prepend for their tokenIds."
      },
      "sourceMint(address,uint224)": {
        "details": "Allows for source smart contract to mint a token."
      },
      "sourceMintBatch(address,uint224[])": {
        "details": "Allows for source smart contract to mint a batch of tokens."
      },
      "sourceMintBatch(address[],uint224[])": {
        "details": "Allows for source smart contract to mint a batch of tokens."
      },
      "sourceMintBatchIncremental(address,uint224,uint256)": {
        "details": "Allows for source smart contract to mint a batch of tokens."
      },
      "sourceTransfer(address,uint256)": {
        "details": "Allows for source smart contract to transfer a token.  Note: this is put in place to make sure that custom logic could be implemented for merging, gamification, etc.  Note: token cannot be transfered if it's locked by bridge."
      },
      "supportsInterface(bytes4)": {
        "details": "Must add new 4 byte interface Ids here to acknowledge support",
        "params": {
          "interfaceId": "ERC165 style 4 byte interfaceId."
        },
        "returns": {
          "_0": "bool True if supported."
        }
      },
      "symbol()": {
        "returns": {
          "_0": "string The symbol."
        }
      },
      "tokenByIndex(uint256)": {
        "details": "Used in conjunction with totalSupply function to iterate over all tokens in collection.",
        "params": {
          "index": "Index of token in array."
        },
        "returns": {
          "_0": "uint256 Returns the token id of token located at that index."
        }
      },
      "tokenOfOwnerByIndex(address,uint256)": {
        "details": "Helpful for wallet token enumeration where token id info is not yet available. Use in conjunction with balanceOf function.",
        "params": {
          "index": "Index of token in array.",
          "wallet": "Specific address for which to get token for."
        },
        "returns": {
          "_0": "uint256 Returns the token id of token located at that index in specified wallet."
        }
      },
      "tokenURI(uint256)": {
        "details": "Defaults the the Arweave URI",
        "returns": {
          "_0": "string The URI."
        }
      },
      "tokens(uint256,uint256)": {
        "params": {
          "index": "The index to start enumeration from.",
          "length": "The length of returned results."
        },
        "returns": {
          "tokenIds": "uint256[] Returns a set length array of token ids minted."
        }
      },
      "tokensOfOwner(address)": {
        "params": {
          "wallet": "The wallet address to get tokens for."
        },
        "returns": {
          "_0": "uint256[] Returns an array of token ids owned by wallet."
        }
      },
      "tokensOfOwner(address,uint256,uint256)": {
        "params": {
          "index": "The index to start enumeration from.",
          "length": "The length of returned results.",
          "wallet": "The wallet address to get tokens for."
        },
        "returns": {
          "tokenIds": "uint256[] Returns a set length array of token ids owned by wallet."
        }
      },
      "totalSupply()": {
        "details": "Ignores burned tokens.",
        "returns": {
          "_0": "uint256 Returns the total number of active (not burned) tokens."
        }
      },
      "transfer(address,uint256)": {
        "details": "WARNING: Usage of this method is discouraged, use {safeTransferFrom} whenever possible.",
        "params": {
          "to": "cannot be the zero address.",
          "tokenId": "token must be owned by `from`."
        }
      },
      "transferFrom(address,address,uint256)": {
        "details": "WARNING: Usage of this method is discouraged, use {safeTransferFrom} whenever possible.",
        "params": {
          "from": "cannot be the zero address.",
          "to": "cannot be the zero address.",
          "tokenId": "token must be owned by `from`."
        }
      },
      "transferFrom(address,address,uint256,bytes)": {
        "details": "WARNING: Usage of this method is discouraged, use {safeTransferFrom} whenever possible.Since it's not being used, the _data variable is commented out to avoid compiler warnings.",
        "params": {
          "data": "additional data to pass.",
          "from": "cannot be the zero address.",
          "to": "cannot be the zero address.",
          "tokenId": "token must be owned by `from`."
        }
      }
    },
    "stateVariables": {
      "_allTokens": {
        "details": "Array of all token ids in collection."
      },
      "_allTokensIndex": {
        "details": "Mapping from token id to position in the allTokens array."
      },
      "_bps": {
        "details": "Collection royalty base points."
      },
      "_burnedTokens": {
        "details": "Mapping of all token ids that have been burned. This is to prevent re-minting of same token ids."
      },
      "_eventConfig": {
        "details": "Configuration for events to trigger for source smart contract."
      },
      "_name": {
        "details": "Collection name."
      },
      "_operatorApprovals": {
        "details": "Usually utilised for supporting marketplace proxy wallets."
      },
      "_ownedTokens": {
        "details": "Map of array of token ids owned by a specific address."
      },
      "_ownedTokensCount": {
        "details": "Map of total tokens owner by a specific address."
      },
      "_ownedTokensIndex": {
        "details": "Map of token id to array index of _ownedTokens."
      },
      "_symbol": {
        "details": "Collection symbol."
      },
      "_tokenApprovals": {
        "details": "1-to-1 map of token id that was assigned an approved operator address."
      },
      "_tokenOwner": {
        "details": "Token id to wallet (owner) address map."
      }
    },
    "title": "Holograph Bridgeable ERC-721 Collection",
    "version": 1
  },
  "userdoc": {
    "kind": "user",
    "methods": {
      "approve(address,uint256)": {
        "notice": "Adds a new address to the token's approval list."
      },
      "balanceOf(address)": {
        "notice": "Get total number of tokens owned by wallet."
      },
      "burn(uint256)": {
        "notice": "Burns the token."
      },
      "constructor": {
        "notice": "Constructor is empty and not utilised."
      },
      "contractURI()": {
        "notice": "Gets a base64 encoded contract JSON file."
      },
      "getApproved(uint256)": {
        "notice": "Gets the approved address for the token."
      },
      "init(bytes)": {
        "notice": "Initializes the collection."
      },
      "isApprovedForAll(address,address)": {
        "notice": "Checks if the address is approved."
      },
      "name()": {
        "notice": "Gets the name of the collection."
      },
      "onERC721Received(address,address,uint256,bytes)": {
        "notice": "Empty function that is triggered by external contract on NFT transfer."
      },
      "ownerOf(uint256)": {
        "notice": "Checks who the owner of a token is."
      },
      "safeTransferFrom(address,address,uint256,bytes)": {
        "notice": "Safely transfers `tokenId` token from `from` to `to`, checking first that contract recipients"
      },
      "setApprovalForAll(address,bool)": {
        "notice": "Adds a new approved operator."
      },
      "supportsInterface(bytes4)": {
        "notice": "Shows the interfaces the contracts support"
      },
      "symbol()": {
        "notice": "Gets the collection's symbol."
      },
      "tokenByIndex(uint256)": {
        "notice": "Get token by index."
      },
      "tokenOfOwnerByIndex(address,uint256)": {
        "notice": "Get token from wallet by index instead of token id."
      },
      "tokenURI(uint256)": {
        "notice": "Get's the URI of the token."
      },
      "tokens(uint256,uint256)": {
        "notice": "Get set length list, starting from index, for all tokens."
      },
      "tokensOfOwner(address)": {
        "notice": "Get list of tokens owned by wallet."
      },
      "tokensOfOwner(address,uint256,uint256)": {
        "notice": "Get set length list, starting from index, for tokens owned by wallet."
      },
      "totalSupply()": {
        "notice": "Total amount of tokens in the collection."
      },
      "transfer(address,uint256)": {
        "notice": "Transfers `tokenId` token from `msg.sender` to `to`."
      },
      "transferFrom(address,address,uint256)": {
        "notice": "Transfers `tokenId` token from `from` to `to`."
      },
      "transferFrom(address,address,uint256,bytes)": {
        "notice": "Transfers `tokenId` token from `from` to `to`."
      }
    },
    "notice": "A smart contract for minting and managing Holograph Bridgeable ERC721 NFTs.",
    "version": 1
  },
  "storageLayout": {
    "storage": [
      {
        "astId": 2783,
        "contract": "contracts/HolographERC721.sol:HolographERC721",
        "label": "_eventConfig",
        "offset": 0,
        "slot": "0",
        "type": "t_uint256"
      },
      {
        "astId": 2786,
        "contract": "contracts/HolographERC721.sol:HolographERC721",
        "label": "_name",
        "offset": 0,
        "slot": "1",
        "type": "t_string_storage"
      },
      {
        "astId": 2789,
        "contract": "contracts/HolographERC721.sol:HolographERC721",
        "label": "_symbol",
        "offset": 0,
        "slot": "2",
        "type": "t_string_storage"
      },
      {
        "astId": 2792,
        "contract": "contracts/HolographERC721.sol:HolographERC721",
        "label": "_bps",
        "offset": 0,
        "slot": "3",
        "type": "t_uint16"
      },
      {
        "astId": 2796,
        "contract": "contracts/HolographERC721.sol:HolographERC721",
        "label": "_allTokens",
        "offset": 0,
        "slot": "4",
        "type": "t_array(t_uint256)dyn_storage"
      },
      {
        "astId": 2801,
        "contract": "contracts/HolographERC721.sol:HolographERC721",
        "label": "_ownedTokensIndex",
        "offset": 0,
        "slot": "5",
        "type": "t_mapping(t_uint256,t_uint256)"
      },
      {
        "astId": 2806,
        "contract": "contracts/HolographERC721.sol:HolographERC721",
        "label": "_tokenOwner",
        "offset": 0,
        "slot": "6",
        "type": "t_mapping(t_uint256,t_address)"
      },
      {
        "astId": 2811,
        "contract": "contracts/HolographERC721.sol:HolographERC721",
        "label": "_tokenApprovals",
        "offset": 0,
        "slot": "7",
        "type": "t_mapping(t_uint256,t_address)"
      },
      {
        "astId": 2816,
        "contract": "contracts/HolographERC721.sol:HolographERC721",
        "label": "_ownedTokensCount",
        "offset": 0,
        "slot": "8",
        "type": "t_mapping(t_address,t_uint256)"
      },
      {
        "astId": 2822,
        "contract": "contracts/HolographERC721.sol:HolographERC721",
        "label": "_ownedTokens",
        "offset": 0,
        "slot": "9",
        "type": "t_mapping(t_address,t_array(t_uint256)dyn_storage)"
      },
      {
        "astId": 2829,
        "contract": "contracts/HolographERC721.sol:HolographERC721",
        "label": "_operatorApprovals",
        "offset": 0,
        "slot": "10",
        "type": "t_mapping(t_address,t_mapping(t_address,t_bool))"
      },
      {
        "astId": 2834,
        "contract": "contracts/HolographERC721.sol:HolographERC721",
        "label": "_allTokensIndex",
        "offset": 0,
        "slot": "11",
        "type": "t_mapping(t_uint256,t_uint256)"
      },
      {
        "astId": 2839,
        "contract": "contracts/HolographERC721.sol:HolographERC721",
        "label": "_burnedTokens",
        "offset": 0,
        "slot": "12",
        "type": "t_mapping(t_uint256,t_bool)"
      }
    ],
    "types": {
      "t_address": {
        "encoding": "inplace",
        "label": "address",
        "numberOfBytes": "20"
      },
      "t_array(t_uint256)dyn_storage": {
        "base": "t_uint256",
        "encoding": "dynamic_array",
        "label": "uint256[]",
        "numberOfBytes": "32"
      },
      "t_bool": {
        "encoding": "inplace",
        "label": "bool",
        "numberOfBytes": "1"
      },
      "t_mapping(t_address,t_array(t_uint256)dyn_storage)": {
        "encoding": "mapping",
        "key": "t_address",
        "label": "mapping(address => uint256[])",
        "numberOfBytes": "32",
        "value": "t_array(t_uint256)dyn_storage"
      },
      "t_mapping(t_address,t_bool)": {
        "encoding": "mapping",
        "key": "t_address",
        "label": "mapping(address => bool)",
        "numberOfBytes": "32",
        "value": "t_bool"
      },
      "t_mapping(t_address,t_mapping(t_address,t_bool))": {
        "encoding": "mapping",
        "key": "t_address",
        "label": "mapping(address => mapping(address => bool))",
        "numberOfBytes": "32",
        "value": "t_mapping(t_address,t_bool)"
      },
      "t_mapping(t_address,t_uint256)": {
        "encoding": "mapping",
        "key": "t_address",
        "label": "mapping(address => uint256)",
        "numberOfBytes": "32",
        "value": "t_uint256"
      },
      "t_mapping(t_uint256,t_address)": {
        "encoding": "mapping",
        "key": "t_uint256",
        "label": "mapping(uint256 => address)",
        "numberOfBytes": "32",
        "value": "t_address"
      },
      "t_mapping(t_uint256,t_bool)": {
        "encoding": "mapping",
        "key": "t_uint256",
        "label": "mapping(uint256 => bool)",
        "numberOfBytes": "32",
        "value": "t_bool"
      },
      "t_mapping(t_uint256,t_uint256)": {
        "encoding": "mapping",
        "key": "t_uint256",
        "label": "mapping(uint256 => uint256)",
        "numberOfBytes": "32",
        "value": "t_uint256"
      },
      "t_string_storage": {
        "encoding": "bytes",
        "label": "string",
        "numberOfBytes": "32"
      },
      "t_uint16": {
        "encoding": "inplace",
        "label": "uint16",
        "numberOfBytes": "2"
      },
      "t_uint256": {
        "encoding": "inplace",
        "label": "uint256",
        "numberOfBytes": "32"
      }
    }
  }
}