{
  "address": "0x9afc8746BC03829dd08C14E542616492c9B51eD0",
  "abi": [
    {
      "inputs": [],
      "stateMutability": "nonpayable",
      "type": "constructor"
    },
    {
      "anonymous": false,
      "inputs": [
        {
          "indexed": false,
          "internalType": "string",
          "name": "message",
          "type": "string"
        }
      ],
      "name": "Announcement",
      "type": "event"
    },
    {
      "inputs": [
        {
          "internalType": "address",
          "name": "newDeployer",
          "type": "address"
        }
      ],
      "name": "approveDeployer",
      "outputs": [],
      "stateMutability": "nonpayable",
      "type": "function"
    },
    {
      "inputs": [
        {
          "internalType": "bytes12",
          "name": "saltHash",
          "type": "bytes12"
        },
        {
          "internalType": "bytes",
          "name": "sourceCode",
          "type": "bytes"
        },
        {
          "internalType": "bytes",
          "name": "initCode",
          "type": "bytes"
        }
      ],
      "name": "deploy",
      "outputs": [],
      "stateMutability": "nonpayable",
      "type": "function"
    },
    {
      "inputs": [
        {
          "internalType": "address",
          "name": "deployer",
          "type": "address"
        }
      ],
      "name": "isApprovedDeployer",
      "outputs": [
        {
          "internalType": "bool",
          "name": "",
          "type": "bool"
        }
      ],
      "stateMutability": "view",
      "type": "function"
    }
  ],
  "transactionHash": "0x1031636a1a3e72314c758b4ad621661fb2de4217c63c5015e864f21aef5ed459",
  "args": [],
  "numDeployments": 1,
  "solcInputHash": "4ef99f52a2bdcfcacb56aa2c6d37e348",
  "bytecode": "0x608060405234801561001057600080fd5b503260009081526020819052604090819020805460ff19166001179055517f07ce702fc13ca0620c174dab22996a6d5fd9e7accb663555a4e85323692706ba9061008b9060208082526013908201527f4c6574207468657265206265206c696768742100000000000000000000000000604082015260600190565b60405180910390a16107f8806100a26000396000f3fe608060405234801561001057600080fd5b50600436106100415760003560e01c8063180b5fd4146100465780635b54cf961461005b578063dc7faa071461006e575b600080fd5b610059610054366004610620565b6100bb565b005b6100596100693660046106bb565b610444565b6100a761007c3660046106bb565b73ffffffffffffffffffffffffffffffffffffffff1660009081526020819052604090205460ff1690565b604051901515815260200160405180910390f35b3360009081526020819052604090205460ff16610139576040517f08c379a000000000000000000000000000000000000000000000000000000000815260206004820152601560248201527f74686f75207368616c74206e6f74206465706c6f79000000000000000000000060448201526064015b60405180910390fd5b604080517fffffffffffffffffffffffffffffffffffffffff0000000000000000000000003360601b1660208201527fffffffffffffffffffffffff000000000000000000000000000000000000000085166034820152600091016040516020818303038152906040526101ac906106f1565b8351602080860191909120604080517fff00000000000000000000000000000000000000000000000000000000000000818501523060601b7fffffffffffffffffffffffffffffffffffffffff00000000000000000000000016602182015260358101859052605580820193909352815180820390930183526075019052805191012090915061023b8161050c565b156102a2576040517f08c379a000000000000000000000000000000000000000000000000000000000815260206004820152601960248201527f636f6e747261637420616c7265616479206465706c6f796564000000000000006044820152606401610130565b818451602086016000f590506102b78161050c565b61031d576040517f08c379a000000000000000000000000000000000000000000000000000000000815260206004820152601160248201527f6465706c6f796d656e74206661696c65640000000000000000000000000000006044820152606401610130565b6040517f4ddf47d4000000000000000000000000000000000000000000000000000000008082529073ffffffffffffffffffffffffffffffffffffffff831690634ddf47d490610371908790600401610736565b6020604051808303816000875af1158015610390573d6000803e3d6000fd5b505050506040513d601f19601f820116820180604052508101906103b491906107a9565b7fffffffff00000000000000000000000000000000000000000000000000000000161461043d576040517f08c379a000000000000000000000000000000000000000000000000000000000815260206004820152601560248201527f696e697469616c697a6174696f6e206661696c656400000000000000000000006044820152606401610130565b5050505050565b3360009081526020819052604090205460ff166104bd576040517f08c379a000000000000000000000000000000000000000000000000000000000815260206004820152601460248201527f796f7520617265206e6f7420617070726f7665640000000000000000000000006044820152606401610130565b73ffffffffffffffffffffffffffffffffffffffff16600090815260208190526040902080547fffffffffffffffffffffffffffffffffffffffffffffffffffffffffffffff00166001179055565b6000813f801580159061053f57507fc5d2460186f7233c927e7db2dcc703c0e500b653ca82273b7bfad8045d85a4708114155b9392505050565b7f4e487b7100000000000000000000000000000000000000000000000000000000600052604160045260246000fd5b600082601f83011261058657600080fd5b813567ffffffffffffffff808211156105a1576105a1610546565b604051601f83017fffffffffffffffffffffffffffffffffffffffffffffffffffffffffffffffe0908116603f011681019082821181831017156105e7576105e7610546565b8160405283815286602085880101111561060057600080fd5b836020870160208301376000602085830101528094505050505092915050565b60008060006060848603121561063557600080fd5b83357fffffffffffffffffffffffff00000000000000000000000000000000000000008116811461066557600080fd5b9250602084013567ffffffffffffffff8082111561068257600080fd5b61068e87838801610575565b935060408601359150808211156106a457600080fd5b506106b186828701610575565b9150509250925092565b6000602082840312156106cd57600080fd5b813573ffffffffffffffffffffffffffffffffffffffff8116811461053f57600080fd5b80516020808301519190811015610730577fffffffffffffffffffffffffffffffffffffffffffffffffffffffffffffffff8160200360031b1b821691505b50919050565b600060208083528351808285015260005b8181101561076357858101830151858201604001528201610747565b81811115610775576000604083870101525b50601f017fffffffffffffffffffffffffffffffffffffffffffffffffffffffffffffffe016929092016040019392505050565b6000602082840312156107bb57600080fd5b81517fffffffff000000000000000000000000000000000000000000000000000000008116811461053f57600080fdfea164736f6c634300080d000a",
  "devdoc": {
    "details": "In the beginning there was a smart contract...",
    "kind": "dev",
    "methods": {},
    "version": 1
  },
  "userdoc": {
    "kind": "user",
    "methods": {},
    "version": 1
  },
  "storageLayout": {
    "storage": [
      {
        "astId": 5574,
        "contract": "contracts/HolographGenesis.sol:HolographGenesis",
        "label": "_approvedDeployers",
        "offset": 0,
        "slot": "0",
        "type": "t_mapping(t_address,t_bool)"
      }
    ],
    "types": {
      "t_address": {
        "encoding": "inplace",
        "label": "address",
        "numberOfBytes": "20"
      },
      "t_bool": {
        "encoding": "inplace",
        "label": "bool",
        "numberOfBytes": "1"
      },
      "t_mapping(t_address,t_bool)": {
        "encoding": "mapping",
        "key": "t_address",
        "label": "mapping(address => bool)",
        "numberOfBytes": "32",
        "value": "t_bool"
      }
    }
  }
}