{
  "address": "0xa9ACcd4c8aae4C7BE182BECB36E625298Ae75A48",
  "abi": [
    {
      "inputs": [],
      "stateMutability": "nonpayable",
      "type": "constructor"
    },
    {
      "anonymous": false,
      "inputs": [
        {
          "indexed": true,
          "internalType": "address",
          "name": "_owner",
          "type": "address"
        },
        {
          "indexed": true,
          "internalType": "address",
          "name": "_spender",
          "type": "address"
        },
        {
          "indexed": false,
          "internalType": "uint256",
          "name": "_value",
          "type": "uint256"
        }
      ],
      "name": "Approval",
      "type": "event"
    },
    {
      "anonymous": false,
      "inputs": [
        {
          "indexed": true,
          "internalType": "address",
          "name": "previousOwner",
          "type": "address"
        },
        {
          "indexed": true,
          "internalType": "address",
          "name": "newOwner",
          "type": "address"
        }
      ],
      "name": "OwnershipTransferred",
      "type": "event"
    },
    {
      "anonymous": false,
      "inputs": [
        {
          "indexed": true,
          "internalType": "address",
          "name": "_from",
          "type": "address"
        },
        {
          "indexed": true,
          "internalType": "address",
          "name": "_to",
          "type": "address"
        },
        {
          "indexed": false,
          "internalType": "uint256",
          "name": "_value",
          "type": "uint256"
        }
      ],
      "name": "Transfer",
      "type": "event"
    },
    {
      "stateMutability": "payable",
      "type": "fallback"
    },
    {
      "inputs": [],
      "name": "DOMAIN_SEPARATOR",
      "outputs": [
        {
          "internalType": "bytes32",
          "name": "",
          "type": "bytes32"
        }
      ],
      "stateMutability": "view",
      "type": "function"
    },
    {
      "inputs": [],
      "name": "admin",
      "outputs": [
        {
          "internalType": "address",
          "name": "",
          "type": "address"
        }
      ],
      "stateMutability": "view",
      "type": "function"
    },
    {
      "inputs": [
        {
          "internalType": "address",
          "name": "target",
          "type": "address"
        },
        {
          "internalType": "bytes",
          "name": "data",
          "type": "bytes"
        }
      ],
      "name": "adminCall",
      "outputs": [],
      "stateMutability": "payable",
      "type": "function"
    },
    {
      "inputs": [
        {
          "internalType": "address",
          "name": "account",
          "type": "address"
        },
        {
          "internalType": "address",
          "name": "spender",
          "type": "address"
        }
      ],
      "name": "allowance",
      "outputs": [
        {
          "internalType": "uint256",
          "name": "",
          "type": "uint256"
        }
      ],
      "stateMutability": "view",
      "type": "function"
    },
    {
      "inputs": [
        {
          "internalType": "address",
          "name": "spender",
          "type": "address"
        },
        {
          "internalType": "uint256",
          "name": "amount",
          "type": "uint256"
        }
      ],
      "name": "approve",
      "outputs": [
        {
          "internalType": "bool",
          "name": "",
          "type": "bool"
        }
      ],
      "stateMutability": "nonpayable",
      "type": "function"
    },
    {
      "inputs": [
        {
          "internalType": "address",
          "name": "account",
          "type": "address"
        }
      ],
      "name": "balanceOf",
      "outputs": [
        {
          "internalType": "uint256",
          "name": "",
          "type": "uint256"
        }
      ],
      "stateMutability": "view",
      "type": "function"
    },
    {
      "inputs": [
        {
          "internalType": "uint256",
          "name": "amount",
          "type": "uint256"
        }
      ],
      "name": "burn",
      "outputs": [],
      "stateMutability": "nonpayable",
      "type": "function"
    },
    {
      "inputs": [
        {
          "internalType": "address",
          "name": "account",
          "type": "address"
        },
        {
          "internalType": "uint256",
          "name": "amount",
          "type": "uint256"
        }
      ],
      "name": "burnFrom",
      "outputs": [
        {
          "internalType": "bool",
          "name": "",
          "type": "bool"
        }
      ],
      "stateMutability": "nonpayable",
      "type": "function"
    },
    {
      "inputs": [],
      "name": "decimals",
      "outputs": [
        {
          "internalType": "uint8",
          "name": "",
          "type": "uint8"
        }
      ],
      "stateMutability": "view",
      "type": "function"
    },
    {
      "inputs": [
        {
          "internalType": "address",
          "name": "spender",
          "type": "address"
        },
        {
          "internalType": "uint256",
          "name": "subtractedValue",
          "type": "uint256"
        }
      ],
      "name": "decreaseAllowance",
      "outputs": [
        {
          "internalType": "bool",
          "name": "",
          "type": "bool"
        }
      ],
      "stateMutability": "nonpayable",
      "type": "function"
    },
    {
      "inputs": [],
      "name": "getAdmin",
      "outputs": [
        {
          "internalType": "address",
          "name": "adminAddress",
          "type": "address"
        }
      ],
      "stateMutability": "view",
      "type": "function"
    },
    {
      "inputs": [],
      "name": "getOwner",
      "outputs": [
        {
          "internalType": "address",
          "name": "ownerAddress",
          "type": "address"
        }
      ],
      "stateMutability": "view",
      "type": "function"
    },
    {
      "inputs": [
        {
          "internalType": "uint32",
          "name": "chainType",
          "type": "uint32"
        },
        {
          "internalType": "address",
          "name": "from",
          "type": "address"
        },
        {
          "internalType": "address",
          "name": "to",
          "type": "address"
        },
        {
          "internalType": "uint256",
          "name": "amount",
          "type": "uint256"
        },
        {
          "internalType": "bytes",
          "name": "data",
          "type": "bytes"
        }
      ],
      "name": "holographBridgeIn",
      "outputs": [
        {
          "internalType": "bytes4",
          "name": "",
          "type": "bytes4"
        }
      ],
      "stateMutability": "nonpayable",
      "type": "function"
    },
    {
      "inputs": [
        {
          "internalType": "uint32",
          "name": "chainType",
          "type": "uint32"
        },
        {
          "internalType": "address",
          "name": "operator",
          "type": "address"
        },
        {
          "internalType": "address",
          "name": "from",
          "type": "address"
        },
        {
          "internalType": "address",
          "name": "to",
          "type": "address"
        },
        {
          "internalType": "uint256",
          "name": "amount",
          "type": "uint256"
        }
      ],
      "name": "holographBridgeOut",
      "outputs": [
        {
          "internalType": "bytes4",
          "name": "selector",
          "type": "bytes4"
        },
        {
          "internalType": "bytes",
          "name": "data",
          "type": "bytes"
        }
      ],
      "stateMutability": "nonpayable",
      "type": "function"
    },
    {
      "inputs": [
        {
          "internalType": "address",
          "name": "spender",
          "type": "address"
        },
        {
          "internalType": "uint256",
          "name": "addedValue",
          "type": "uint256"
        }
      ],
      "name": "increaseAllowance",
      "outputs": [
        {
          "internalType": "bool",
          "name": "",
          "type": "bool"
        }
      ],
      "stateMutability": "nonpayable",
      "type": "function"
    },
    {
      "inputs": [
        {
          "internalType": "bytes",
          "name": "data",
          "type": "bytes"
        }
      ],
      "name": "init",
      "outputs": [
        {
          "internalType": "bytes4",
          "name": "",
          "type": "bytes4"
        }
      ],
      "stateMutability": "nonpayable",
      "type": "function"
    },
    {
      "inputs": [],
      "name": "name",
      "outputs": [
        {
          "internalType": "string",
          "name": "",
          "type": "string"
        }
      ],
      "stateMutability": "view",
      "type": "function"
    },
    {
      "inputs": [
        {
          "internalType": "address",
          "name": "account",
          "type": "address"
        }
      ],
      "name": "nonces",
      "outputs": [
        {
          "internalType": "uint256",
          "name": "",
          "type": "uint256"
        }
      ],
      "stateMutability": "view",
      "type": "function"
    },
    {
      "inputs": [
        {
          "internalType": "address",
          "name": "account",
          "type": "address"
        },
        {
          "internalType": "address",
          "name": "sender",
          "type": "address"
        },
        {
          "internalType": "uint256",
          "name": "amount",
          "type": "uint256"
        },
        {
          "internalType": "bytes",
          "name": "data",
          "type": "bytes"
        }
      ],
      "name": "onERC20Received",
      "outputs": [
        {
          "internalType": "bytes4",
          "name": "",
          "type": "bytes4"
        }
      ],
      "stateMutability": "nonpayable",
      "type": "function"
    },
    {
      "inputs": [],
      "name": "owner",
      "outputs": [
        {
          "internalType": "address",
          "name": "",
          "type": "address"
        }
      ],
      "stateMutability": "view",
      "type": "function"
    },
    {
      "inputs": [
        {
          "internalType": "address",
          "name": "target",
          "type": "address"
        },
        {
          "internalType": "bytes",
          "name": "data",
          "type": "bytes"
        }
      ],
      "name": "ownerCall",
      "outputs": [],
      "stateMutability": "payable",
      "type": "function"
    },
    {
      "inputs": [
        {
          "internalType": "address",
          "name": "account",
          "type": "address"
        },
        {
          "internalType": "address",
          "name": "spender",
          "type": "address"
        },
        {
          "internalType": "uint256",
          "name": "amount",
          "type": "uint256"
        },
        {
          "internalType": "uint256",
          "name": "deadline",
          "type": "uint256"
        },
        {
          "internalType": "uint8",
          "name": "v",
          "type": "uint8"
        },
        {
          "internalType": "bytes32",
          "name": "r",
          "type": "bytes32"
        },
        {
          "internalType": "bytes32",
          "name": "s",
          "type": "bytes32"
        }
      ],
      "name": "permit",
      "outputs": [],
      "stateMutability": "nonpayable",
      "type": "function"
    },
    {
      "inputs": [
        {
          "internalType": "address",
          "name": "recipient",
          "type": "address"
        },
        {
          "internalType": "uint256",
          "name": "amount",
          "type": "uint256"
        }
      ],
      "name": "safeTransfer",
      "outputs": [
        {
          "internalType": "bool",
          "name": "",
          "type": "bool"
        }
      ],
      "stateMutability": "nonpayable",
      "type": "function"
    },
    {
      "inputs": [
        {
          "internalType": "address",
          "name": "recipient",
          "type": "address"
        },
        {
          "internalType": "uint256",
          "name": "amount",
          "type": "uint256"
        },
        {
          "internalType": "bytes",
          "name": "data",
          "type": "bytes"
        }
      ],
      "name": "safeTransfer",
      "outputs": [
        {
          "internalType": "bool",
          "name": "",
          "type": "bool"
        }
      ],
      "stateMutability": "nonpayable",
      "type": "function"
    },
    {
      "inputs": [
        {
          "internalType": "address",
          "name": "account",
          "type": "address"
        },
        {
          "internalType": "address",
          "name": "recipient",
          "type": "address"
        },
        {
          "internalType": "uint256",
          "name": "amount",
          "type": "uint256"
        }
      ],
      "name": "safeTransferFrom",
      "outputs": [
        {
          "internalType": "bool",
          "name": "",
          "type": "bool"
        }
      ],
      "stateMutability": "nonpayable",
      "type": "function"
    },
    {
      "inputs": [
        {
          "internalType": "address",
          "name": "account",
          "type": "address"
        },
        {
          "internalType": "address",
          "name": "recipient",
          "type": "address"
        },
        {
          "internalType": "uint256",
          "name": "amount",
          "type": "uint256"
        },
        {
          "internalType": "bytes",
          "name": "data",
          "type": "bytes"
        }
      ],
      "name": "safeTransferFrom",
      "outputs": [
        {
          "internalType": "bool",
          "name": "",
          "type": "bool"
        }
      ],
      "stateMutability": "nonpayable",
      "type": "function"
    },
    {
      "inputs": [
        {
          "internalType": "address",
          "name": "adminAddress",
          "type": "address"
        }
      ],
      "name": "setAdmin",
      "outputs": [],
      "stateMutability": "nonpayable",
      "type": "function"
    },
    {
      "inputs": [
        {
          "internalType": "address",
          "name": "ownerAddress",
          "type": "address"
        }
      ],
      "name": "setOwner",
      "outputs": [],
      "stateMutability": "nonpayable",
      "type": "function"
    },
    {
      "inputs": [
        {
          "internalType": "address",
          "name": "from",
          "type": "address"
        },
        {
          "internalType": "uint256",
          "name": "amount",
          "type": "uint256"
        }
      ],
      "name": "sourceBurn",
      "outputs": [],
      "stateMutability": "nonpayable",
      "type": "function"
    },
    {
      "inputs": [
        {
          "internalType": "address",
          "name": "to",
          "type": "address"
        },
        {
          "internalType": "uint256",
          "name": "amount",
          "type": "uint256"
        }
      ],
      "name": "sourceMint",
      "outputs": [],
      "stateMutability": "nonpayable",
      "type": "function"
    },
    {
      "inputs": [
        {
          "internalType": "address[]",
          "name": "wallets",
          "type": "address[]"
        },
        {
          "internalType": "uint256[]",
          "name": "amounts",
          "type": "uint256[]"
        }
      ],
      "name": "sourceMintBatch",
      "outputs": [],
      "stateMutability": "nonpayable",
      "type": "function"
    },
    {
      "inputs": [
        {
          "internalType": "address",
          "name": "from",
          "type": "address"
        },
        {
          "internalType": "address",
          "name": "to",
          "type": "address"
        },
        {
          "internalType": "uint256",
          "name": "amount",
          "type": "uint256"
        }
      ],
      "name": "sourceTransfer",
      "outputs": [],
      "stateMutability": "nonpayable",
      "type": "function"
    },
    {
      "inputs": [
        {
          "internalType": "bytes4",
          "name": "interfaceId",
          "type": "bytes4"
        }
      ],
      "name": "supportsInterface",
      "outputs": [
        {
          "internalType": "bool",
          "name": "",
          "type": "bool"
        }
      ],
      "stateMutability": "view",
      "type": "function"
    },
    {
      "inputs": [],
      "name": "symbol",
      "outputs": [
        {
          "internalType": "string",
          "name": "",
          "type": "string"
        }
      ],
      "stateMutability": "view",
      "type": "function"
    },
    {
      "inputs": [],
      "name": "totalSupply",
      "outputs": [
        {
          "internalType": "uint256",
          "name": "",
          "type": "uint256"
        }
      ],
      "stateMutability": "view",
      "type": "function"
    },
    {
      "inputs": [
        {
          "internalType": "address",
          "name": "recipient",
          "type": "address"
        },
        {
          "internalType": "uint256",
          "name": "amount",
          "type": "uint256"
        }
      ],
      "name": "transfer",
      "outputs": [
        {
          "internalType": "bool",
          "name": "",
          "type": "bool"
        }
      ],
      "stateMutability": "nonpayable",
      "type": "function"
    },
    {
      "inputs": [
        {
          "internalType": "address",
          "name": "account",
          "type": "address"
        },
        {
          "internalType": "address",
          "name": "recipient",
          "type": "address"
        },
        {
          "internalType": "uint256",
          "name": "amount",
          "type": "uint256"
        }
      ],
      "name": "transferFrom",
      "outputs": [
        {
          "internalType": "bool",
          "name": "",
          "type": "bool"
        }
      ],
      "stateMutability": "nonpayable",
      "type": "function"
    },
    {
      "inputs": [
        {
          "internalType": "address",
          "name": "newOwner",
          "type": "address"
        }
      ],
      "name": "transferOwnership",
      "outputs": [],
      "stateMutability": "nonpayable",
      "type": "function"
    },
    {
      "stateMutability": "payable",
      "type": "receive"
    }
  ],
  "transactionHash": "0x956252f41284cc7362742edefc485d87a73e7d08a41996a4592e09a6e3c34d09",
  "args": [],
  "numDeployments": 1,
  "solcInputHash": "6268f4815d1b695602d2038a17eb1c6d",
  "bytecode": "0x608060405234801561001057600080fd5b50615249806100206000396000f3fe6080604052600436106102895760003560e01c8063704b6c0211610153578063a8eb29c9116100cb578063dd62ed3e1161007f578063eb79554911610064578063eb795549146107e4578063f2fde38b14610804578063f851a4401461082457610290565b8063dd62ed3e1461077e578063eb66dbcf146107d157610290565b8063b88d4fde116100b0578063b88d4fde1461072b578063bf64a82d1461074b578063d505accf1461075e57610290565b8063a8eb29c9146106eb578063a9059cbb1461070b57610290565b8063893d20e8116101225780638da5cb5b116101075780638da5cb5b146106a157806395d89b41146106b6578063a457c2d7146106cb57610290565b8063893d20e81461063f5780638b591bab1461067357610290565b8063704b6c021461059c57806370a08231146105bc57806379cc6790146105ff5780637ecebe001461061f57610290565b8063313ce5671161020157806342966c68116101b55780634fc358591161019a5780634fc358591461050757806366bd3d45146105275780636e9960c31461054757610290565b806342966c68146104c75780634ddf47d4146104e757610290565b806339509351116101e65780633950935114610467578063423f6cef1461048757806342842e0e146104a757610290565b8063313ce567146104305780633644e5151461045257610290565b80630d5e2c1d1161025857806318160ddd1161023d57806318160ddd146103a057806321d6846f146103bf57806323b872dd1461041057610290565b80630d5e2c1d1461036057806313af40351461038057610290565b806301ffc9a7146102c957806306fdde03146102fe578063095ea7b3146103205780630d3ada541461034057610290565b3661029057005b600061029a610839565b9050366000803733365260008060203601600034855af13d6000803e8080156102c2573d6000f35b3d6000fd5b005b3480156102d557600080fd5b506102e96102e4366004614626565b6108af565b60405190151581526020015b60405180910390f35b34801561030a57600080fd5b5061031361093b565b6040516102f591906146bd565b34801561032c57600080fd5b506102e961033b3660046146f2565b6109cd565b34801561034c57600080fd5b506102c761035b36600461476a565b610b6c565b34801561036c57600080fd5b506102c761037b3660046146f2565b610c79565b34801561038c57600080fd5b506102c761039b3660046147d6565b610d23565b3480156103ac57600080fd5b506009545b6040519081526020016102f5565b3480156103cb57600080fd5b506103df6103da36600461484e565b610e86565b6040517fffffffff0000000000000000000000000000000000000000000000000000000090911681526020016102f5565b34801561041c57600080fd5b506102e961042b3660046148d1565b61105f565b34801561043c57600080fd5b50600c5460405160ff90911681526020016102f5565b34801561045e57600080fd5b506103b16112f2565b34801561047357600080fd5b506102e96104823660046146f2565b6112fc565b34801561049357600080fd5b506102e96104a23660046146f2565b611539565b3480156104b357600080fd5b506102e96104c23660046148d1565b61155c565b3480156104d357600080fd5b506102c76104e2366004614912565b611581565b3480156104f357600080fd5b506103df610502366004614a45565b611706565b34801561051357600080fd5b506103df610522366004614a7a565b611ae1565b34801561053357600080fd5b506102c76105423660046146f2565b611e42565b34801561055357600080fd5b507f5705f5753aa4f617eef2cae1dada3d3355e9387b04d19191f09b545e684ca50d545b60405173ffffffffffffffffffffffffffffffffffffffff90911681526020016102f5565b3480156105a857600080fd5b506102c76105b73660046147d6565b611ee8565b3480156105c857600080fd5b506103b16105d73660046147d6565b73ffffffffffffffffffffffffffffffffffffffff1660009081526007602052604090205490565b34801561060b57600080fd5b506102e961061a3660046146f2565b611fc2565b34801561062b57600080fd5b506103b161063a3660046147d6565b6121ec565b34801561064b57600080fd5b507f89b583059fdb0b2e807359b64eba1a8a1e6d099210701fafe6dad5dd2cd64fb854610577565b34801561067f57600080fd5b5061069361068e366004614aed565b612217565b6040516102f5929190614b4f565b3480156106ad57600080fd5b506105776124e5565b3480156106c257600080fd5b50610313612539565b3480156106d757600080fd5b506102e96106e63660046146f2565b612548565b3480156106f757600080fd5b506102c76107063660046148d1565b6125f5565b34801561071757600080fd5b506102e96107263660046146f2565b6126a1565b34801561073757600080fd5b506102e9610746366004614b8a565b6127ef565b6102c7610759366004614bf6565b612a59565b34801561076a57600080fd5b506102c7610779366004614c5a565b612b2f565b34801561078a57600080fd5b506103b1610799366004614ccb565b73ffffffffffffffffffffffffffffffffffffffff918216600090815260086020908152604080832093909416825291909152205490565b6102c76107df366004614bf6565b612e7a565b3480156107f057600080fd5b506102e96107ff366004614d04565b612f30565b34801561081057600080fd5b506102c761081f3660046147d6565b6130ab565b34801561083057600080fd5b50610577613202565b60003073ffffffffffffffffffffffffffffffffffffffff16636faf275b6040518163ffffffff1660e01b8152600401602060405180830381865afa158015610886573d6000803e3d6000fd5b505050506040513d601f19601f820116820180604052508101906108aa9190614d5d565b905090565b60006108b961322c565b73ffffffffffffffffffffffffffffffffffffffff16639fe7303f6000846040518363ffffffff1660e01b81526004016108f4929190614da9565b602060405180830381865afa158015610911573d6000803e3d6000fd5b505050506040513d601f19601f820116820180604052508101906109359190614e25565b92915050565b6060600a805461094a90614e40565b80601f016020809104026020016040519081016040528092919081815260200182805461097690614e40565b80156109c35780601f10610998576101008083540402835291602001916109c3565b820191906000526020600020905b8154815290600101906020018083116109a657829003601f168201915b5050505050905090565b60006109dc60065460036132e7565b15610a93576109e9613304565b6040517f47abf3be00000000000000000000000000000000000000000000000000000000815233600482015273ffffffffffffffffffffffffffffffffffffffff85811660248301526044820185905291909116906347abf3be906064016020604051808303816000875af1158015610a66573d6000803e3d6000fd5b505050506040513d601f19601f82011682018060405250810190610a8a9190614e25565b610a9357600080fd5b610a9e33848461330e565b610aab60065460026132e7565b15610b6357610ab8613304565b6040517f900f66ef00000000000000000000000000000000000000000000000000000000815233600482015273ffffffffffffffffffffffffffffffffffffffff858116602483015260448201859052919091169063900f66ef906064015b6020604051808303816000875af1158015610b36573d6000803e3d6000fd5b505050506040513d601f19601f82011682018060405250810190610b5a9190614e25565b610b6357600080fd5b50600192915050565b610b74610839565b73ffffffffffffffffffffffffffffffffffffffff163373ffffffffffffffffffffffffffffffffffffffff1614610c0d576040517f08c379a000000000000000000000000000000000000000000000000000000000815260206004820152601b60248201527f45524332303a206f6e6c7920736f757263652063616e206d696e74000000000060448201526064015b60405180910390fd5b60005b83811015610c7257610c60858583818110610c2d57610c2d614e8d565b9050602002016020810190610c4291906147d6565b848484818110610c5457610c54614e8d565b90506020020135613477565b80610c6a81614eeb565b915050610c10565b5050505050565b610c81610839565b73ffffffffffffffffffffffffffffffffffffffff163373ffffffffffffffffffffffffffffffffffffffff1614610d15576040517f08c379a000000000000000000000000000000000000000000000000000000000815260206004820152601b60248201527f45524332303a206f6e6c7920736f757263652063616e206275726e00000000006044820152606401610c04565b610d1f8282613597565b5050565b7f89b583059fdb0b2e807359b64eba1a8a1e6d099210701fafe6dad5dd2cd64fb85473ffffffffffffffffffffffffffffffffffffffff163373ffffffffffffffffffffffffffffffffffffffff1614610dd9576040517f08c379a000000000000000000000000000000000000000000000000000000000815260206004820152601e60248201527f484f4c4f47524150483a206f776e6572206f6e6c792066756e6374696f6e00006044820152606401610c04565b6000610e037f89b583059fdb0b2e807359b64eba1a8a1e6d099210701fafe6dad5dd2cd64fb85490565b9050817f89b583059fdb0b2e807359b64eba1a8a1e6d099210701fafe6dad5dd2cd64fb8558173ffffffffffffffffffffffffffffffffffffffff168173ffffffffffffffffffffffffffffffffffffffff167f8be0079c531659141344cd1fd0a4f28419497f9722a3daafe3b4186f6b6457e060405160405180910390a35050565b6000610e90613730565b73ffffffffffffffffffffffffffffffffffffffff163373ffffffffffffffffffffffffffffffffffffffff1614610f24576040517f08c379a000000000000000000000000000000000000000000000000000000000815260206004820152601b60248201527f45524332303a206f6e6c79206272696467652063616e2063616c6c00000000006044820152606401610c04565b610f2e8585613477565b610f3b60065460016137eb565b1561103357610f48613304565b73ffffffffffffffffffffffffffffffffffffffff1663f0f540738888888888886040518763ffffffff1660e01b8152600401610f8a96959493929190614f6c565b6020604051808303816000875af1158015610fa9573d6000803e3d6000fd5b505050506040513d601f19601f82011682018060405250810190610fcd9190614e25565b611033576040517f08c379a000000000000000000000000000000000000000000000000000000000815260206004820152601b60248201527f484f4c4f47524150483a2062726964676520696e206661696c656400000000006044820152606401610c04565b507f21d6846f000000000000000000000000000000000000000000000000000000009695505050505050565b600073ffffffffffffffffffffffffffffffffffffffff841633146111505773ffffffffffffffffffffffffffffffffffffffff8416600090815260086020908152604080832033845290915290205482811015611119576040517f08c379a000000000000000000000000000000000000000000000000000000000815260206004820152601f60248201527f45524332303a20616d6f756e74206578636565647320616c6c6f77616e6365006044820152606401610c04565b73ffffffffffffffffffffffffffffffffffffffff8516600090815260086020908152604080832033845290915290209083900390555b61115d600654600d6132e7565b156112165761116a613304565b6040517f1ffb811f00000000000000000000000000000000000000000000000000000000815273ffffffffffffffffffffffffffffffffffffffff86811660048301528581166024830152604482018590529190911690631ffb811f906064016020604051808303816000875af11580156111e9573d6000803e3d6000fd5b505050506040513d601f19601f8201168201806040525081019061120d9190614e25565b61121657600080fd5b611221848484613805565b61122e600654600c6132e7565b156112e85761123b613304565b6040517ff49062ca00000000000000000000000000000000000000000000000000000000815273ffffffffffffffffffffffffffffffffffffffff8681166004830152858116602483015260448201859052919091169063f49062ca906064015b6020604051808303816000875af11580156112bb573d6000803e3d6000fd5b505050506040513d601f19601f820116820180604052508101906112df9190614e25565b6112e857600080fd5b5060019392505050565b60006108aa613a47565b33600090815260086020908152604080832073ffffffffffffffffffffffffffffffffffffffff861684529091528120548281018181101561139a576040517f08c379a000000000000000000000000000000000000000000000000000000000815260206004820181905260248201527f45524332303a20696e637265617365642061626f7665206d61782076616c75656044820152606401610c04565b6113a760065460036132e7565b1561145e576113b4613304565b6040517f47abf3be00000000000000000000000000000000000000000000000000000000815233600482015273ffffffffffffffffffffffffffffffffffffffff87811660248301526044820184905291909116906347abf3be906064016020604051808303816000875af1158015611431573d6000803e3d6000fd5b505050506040513d601f19601f820116820180604052508101906114559190614e25565b61145e57600080fd5b61146933868361330e565b61147660065460026132e7565b1561152e57611483613304565b6040517f900f66ef00000000000000000000000000000000000000000000000000000000815233600482015273ffffffffffffffffffffffffffffffffffffffff878116602483015260448201849052919091169063900f66ef906064015b6020604051808303816000875af1158015611501573d6000803e3d6000fd5b505050506040513d601f19601f820116820180604052508101906115259190614e25565b61152e57600080fd5b506001949350505050565b6000611555838360405180602001604052806000815250612f30565b9392505050565b6000611579848484604051806020016040528060008152506127ef565b949350505050565b61158e60065460076132e7565b1561163d5761159b613304565b6040517f4a1fefbd0000000000000000000000000000000000000000000000000000000081523360048201526024810183905273ffffffffffffffffffffffffffffffffffffffff9190911690634a1fefbd906044016020604051808303816000875af1158015611610573d6000803e3d6000fd5b505050506040513d601f19601f820116820180604052508101906116349190614e25565b61163d57600080fd5b6116473382613597565b61165460065460066132e7565b1561170357611661613304565b6040517f971c34b40000000000000000000000000000000000000000000000000000000081523360048201526024810183905273ffffffffffffffffffffffffffffffffffffffff919091169063971c34b4906044016020604051808303816000875af11580156116d6573d6000803e3d6000fd5b505050506040513d601f19601f820116820180604052508101906116fa9190614e25565b61170357600080fd5b50565b60006117327f4e5f991bca30eca2d4643aaefa807e88f96a4a97398933d572a3c0d973004a0154151590565b15611799576040517f08c379a000000000000000000000000000000000000000000000000000000000815260206004820152601a60248201527f45524332303a20616c726561647920696e697469616c697a65640000000000006044820152606401610c04565b60017f5bf044ad06f1ee9ee2fcd7caf4e944279b877408c76c4515cca6b4e937b0133455337f89b583059fdb0b2e807359b64eba1a8a1e6d099210701fafe6dad5dd2cd64fb855600080600080600080600080898060200190518101906118009190615014565b9750975097509750975097509750975087600a908051906020019061182692919061455f565b50865161183a90600b9060208a019061455f565b50600c80547fffffffffffffffffffffffffffffffffffffffffffffffffffffffffffffff001660ff8816179055600685905581611a7f573073ffffffffffffffffffffffffffffffffffffffff16636faf275b6040518163ffffffff1660e01b8152600401602060405180830381865afa9250505080156118f7575060408051601f3d9081017fffffffffffffffffffffffffffffffffffffffffffffffffffffffffffffffe01682019092526118f491810190614d5d565b60015b61195d576040517f08c379a000000000000000000000000000000000000000000000000000000000815260206004820152601c60248201527f45524332303a20636f756c64206e6f7420696e697420736f75726365000000006044820152606401610c04565b6040517f4ddf47d4000000000000000000000000000000000000000000000000000000008082529073ffffffffffffffffffffffffffffffffffffffff831690634ddf47d4906119b19086906004016146bd565b6020604051808303816000875af11580156119d0573d6000803e3d6000fd5b505050506040513d601f19601f820116820180604052508101906119f49190615111565b7fffffffff000000000000000000000000000000000000000000000000000000001614611a7d576040517f08c379a000000000000000000000000000000000000000000000000000000000815260206004820152601c60248201527f45524332303a20636f756c64206e6f7420696e697420736f75726365000000006044820152606401610c04565b505b611aa860017f4e5f991bca30eca2d4643aaefa807e88f96a4a97398933d572a3c0d973004a0155565b611ab28484613ad3565b507f4ddf47d4000000000000000000000000000000000000000000000000000000009998505050505050505050565b6000611aec86613b9b565b611b52576040517f08c379a000000000000000000000000000000000000000000000000000000000815260206004820152601c60248201527f45524332303a206f70657261746f72206e6f7420636f6e7472616374000000006044820152606401610c04565b611b5f60065460056132e7565b15611bfa57611b6c613304565b73ffffffffffffffffffffffffffffffffffffffff166395aae8bd8787308888886040518763ffffffff1660e01b8152600401611bae9695949392919061512e565b6020604051808303816000875af1158015611bcd573d6000803e3d6000fd5b505050506040513d601f19601f82011682018060405250810190611bf19190614e25565b611bfa57600080fd5b6040517f70a0823100000000000000000000000000000000000000000000000000000000815230600482015273ffffffffffffffffffffffffffffffffffffffff8716906370a0823190602401602060405180830381865afa925050508015611c9e575060408051601f3d9081017fffffffffffffffffffffffffffffffffffffffffffffffffffffffffffffffe0168201909252611c9b91810190615176565b60015b611d04576040517f08c379a000000000000000000000000000000000000000000000000000000000815260206004820152601d60248201527f45524332303a206661696c65642067657474696e672062616c616e63650000006044820152606401610c04565b84811015611d6e576040517f08c379a000000000000000000000000000000000000000000000000000000000815260206004820152601b60248201527f45524332303a2062616c616e636520636865636b206661696c656400000000006044820152606401610c04565b50611d7c60065460046132e7565b15611e1757611d89613304565b73ffffffffffffffffffffffffffffffffffffffff166345b596998787308888886040518763ffffffff1660e01b8152600401611dcb9695949392919061512e565b6020604051808303816000875af1158015611dea573d6000803e3d6000fd5b505050506040513d601f19601f82011682018060405250810190611e0e9190614e25565b611e1757600080fd5b507f4fc358590000000000000000000000000000000000000000000000000000000095945050505050565b611e4a610839565b73ffffffffffffffffffffffffffffffffffffffff163373ffffffffffffffffffffffffffffffffffffffff1614611ede576040517f08c379a000000000000000000000000000000000000000000000000000000000815260206004820152601b60248201527f45524332303a206f6e6c7920736f757263652063616e206d696e7400000000006044820152606401610c04565b610d1f8282613477565b7f5705f5753aa4f617eef2cae1dada3d3355e9387b04d19191f09b545e684ca50d5473ffffffffffffffffffffffffffffffffffffffff163373ffffffffffffffffffffffffffffffffffffffff1614611f9e576040517f08c379a000000000000000000000000000000000000000000000000000000000815260206004820152601e60248201527f484f4c4f47524150483a2061646d696e206f6e6c792066756e6374696f6e00006044820152606401610c04565b7f5705f5753aa4f617eef2cae1dada3d3355e9387b04d19191f09b545e684ca50d55565b73ffffffffffffffffffffffffffffffffffffffff821660009081526008602090815260408083203384529091528120548281101561205d576040517f08c379a000000000000000000000000000000000000000000000000000000000815260206004820152601f60248201527f45524332303a20616d6f756e74206578636565647320616c6c6f77616e6365006044820152606401610c04565b73ffffffffffffffffffffffffffffffffffffffff84166000908152600860209081526040808320338452909152902083820390556006546120a09060076132e7565b15612151576120ad613304565b6040517f4a1fefbd00000000000000000000000000000000000000000000000000000000815273ffffffffffffffffffffffffffffffffffffffff8681166004830152602482018690529190911690634a1fefbd906044016020604051808303816000875af1158015612124573d6000803e3d6000fd5b505050506040513d601f19601f820116820180604052508101906121489190614e25565b61215157600080fd5b61215b8484613597565b61216860065460066132e7565b156112e857612175613304565b6040517f971c34b400000000000000000000000000000000000000000000000000000000815273ffffffffffffffffffffffffffffffffffffffff868116600483015260248201869052919091169063971c34b4906044016020604051808303816000875af11580156112bb573d6000803e3d6000fd5b73ffffffffffffffffffffffffffffffffffffffff81166000908152600d6020526040812054610935565b60006060612223613730565b73ffffffffffffffffffffffffffffffffffffffff163373ffffffffffffffffffffffffffffffffffffffff16146122b7576040517f08c379a000000000000000000000000000000000000000000000000000000000815260206004820152601b60248201527f45524332303a206f6e6c79206272696467652063616e2063616c6c00000000006044820152606401610c04565b8473ffffffffffffffffffffffffffffffffffffffff168673ffffffffffffffffffffffffffffffffffffffff16146123c05773ffffffffffffffffffffffffffffffffffffffff8086166000908152600860209081526040808320938a168352929052205483811015612387576040517f08c379a000000000000000000000000000000000000000000000000000000000815260206004820152601f60248201527f45524332303a20616d6f756e74206578636565647320616c6c6f77616e6365006044820152606401610c04565b73ffffffffffffffffffffffffffffffffffffffff8087166000908152600860209081526040808320938b168352929052209084900390555b6123cd60065460026137eb565b156124ae576123da613304565b6040517f8b1465c600000000000000000000000000000000000000000000000000000000815263ffffffff8916600482015273ffffffffffffffffffffffffffffffffffffffff87811660248301528681166044830152606482018690529190911690638b1465c6906084016000604051808303816000875af1158015612465573d6000803e3d6000fd5b505050506040513d6000823e601f3d9081017fffffffffffffffffffffffffffffffffffffffffffffffffffffffffffffffe01682016040526124ab919081019061518f565b90505b6124b88584613597565b7f8b591bab0000000000000000000000000000000000000000000000000000000091509550959350505050565b60006124ef610839565b73ffffffffffffffffffffffffffffffffffffffff16638da5cb5b6040518163ffffffff1660e01b8152600401602060405180830381865afa158015610886573d6000803e3d6000fd5b6060600b805461094a90614e40565b33600090815260086020908152604080832073ffffffffffffffffffffffffffffffffffffffff86168452909152812054828110156125e3576040517f08c379a000000000000000000000000000000000000000000000000000000000815260206004820152601b60248201527f45524332303a206465637265617365642062656c6f77207a65726f00000000006044820152606401610c04565b600654838203906113a79060036132e7565b6125fd610839565b73ffffffffffffffffffffffffffffffffffffffff163373ffffffffffffffffffffffffffffffffffffffff1614612691576040517f08c379a000000000000000000000000000000000000000000000000000000000815260206004820152601f60248201527f45524332303a206f6e6c7920736f757263652063616e207472616e73666572006044820152606401610c04565b61269c838383613805565b505050565b60006126b0600654600d6132e7565b15612767576126bd613304565b6040517f1ffb811f00000000000000000000000000000000000000000000000000000000815233600482015273ffffffffffffffffffffffffffffffffffffffff8581166024830152604482018590529190911690631ffb811f906064016020604051808303816000875af115801561273a573d6000803e3d6000fd5b505050506040513d601f19601f8201168201806040525081019061275e9190614e25565b61276757600080fd5b612772338484613805565b61277f600654600c6132e7565b15610b635761278c613304565b6040517ff49062ca00000000000000000000000000000000000000000000000000000000815233600482015273ffffffffffffffffffffffffffffffffffffffff858116602483015260448201859052919091169063f49062ca90606401610b17565b600073ffffffffffffffffffffffffffffffffffffffff851633146128e05773ffffffffffffffffffffffffffffffffffffffff85166000908152600860209081526040808320338452909152902054838110156128a9576040517f08c379a000000000000000000000000000000000000000000000000000000000815260206004820152601f60248201527f45524332303a20616d6f756e74206578636565647320616c6c6f77616e6365006044820152606401610c04565b73ffffffffffffffffffffffffffffffffffffffff8616600090815260086020908152604080832033845290915290209084900390555b6128ed600654600b6132e7565b15612984576128fa613304565b73ffffffffffffffffffffffffffffffffffffffff16632ca16676868686866040518563ffffffff1660e01b815260040161293894939291906151c4565b6020604051808303816000875af1158015612957573d6000803e3d6000fd5b505050506040513d601f19601f8201168201806040525081019061297b9190614e25565b61298457600080fd5b61298f858585613805565b61299b85858585613bd2565b612a01576040517f08c379a000000000000000000000000000000000000000000000000000000000815260206004820152601860248201527f45524332303a206e6f6e204552433230526563656976657200000000000000006044820152606401610c04565b612a0e600654600a6132e7565b1561152e57612a1b613304565b73ffffffffffffffffffffffffffffffffffffffff166336fff062868686866040518563ffffffff1660e01b81526004016114e294939291906151c4565b7f5705f5753aa4f617eef2cae1dada3d3355e9387b04d19191f09b545e684ca50d5473ffffffffffffffffffffffffffffffffffffffff163373ffffffffffffffffffffffffffffffffffffffff1614612b0f576040517f08c379a000000000000000000000000000000000000000000000000000000000815260206004820152601e60248201527f484f4c4f47524150483a2061646d696e206f6e6c792066756e6374696f6e00006044820152606401610c04565b808260003760008082600034875af13d6000803e8080156102c2573d6000f35b83421115612b99576040517f08c379a000000000000000000000000000000000000000000000000000000000815260206004820152601760248201527f45524332303a206578706972656420646561646c696e650000000000000000006044820152606401610c04565b60007f6e71edae12b1b97f4d1f60370fef10105fa2faae0126114a169c64845d6126c9888888612bc88c61412d565b60408051602081019690965273ffffffffffffffffffffffffffffffffffffffff94851690860152929091166060840152608083015260a082015260c0810186905260e0016040516020818303038152906040528051906020012090506000612c3082614162565b90506000612c40828787876141cb565b90508973ffffffffffffffffffffffffffffffffffffffff168173ffffffffffffffffffffffffffffffffffffffff1614612cd7576040517f08c379a000000000000000000000000000000000000000000000000000000000815260206004820152601860248201527f45524332303a20696e76616c6964207369676e617475726500000000000000006044820152606401610c04565b612ce460065460036132e7565b15612d9d57612cf1613304565b6040517f47abf3be00000000000000000000000000000000000000000000000000000000815273ffffffffffffffffffffffffffffffffffffffff8c811660048301528b81166024830152604482018b905291909116906347abf3be906064016020604051808303816000875af1158015612d70573d6000803e3d6000fd5b505050506040513d601f19601f82011682018060405250810190612d949190614e25565b612d9d57600080fd5b612da88a8a8a61330e565b612db560065460026132e7565b15612e6e57612dc2613304565b6040517f900f66ef00000000000000000000000000000000000000000000000000000000815273ffffffffffffffffffffffffffffffffffffffff8c811660048301528b81166024830152604482018b9052919091169063900f66ef906064016020604051808303816000875af1158015612e41573d6000803e3d6000fd5b505050506040513d601f19601f82011682018060405250810190612e659190614e25565b612e6e57600080fd5b50505050505050505050565b7f89b583059fdb0b2e807359b64eba1a8a1e6d099210701fafe6dad5dd2cd64fb85473ffffffffffffffffffffffffffffffffffffffff163373ffffffffffffffffffffffffffffffffffffffff1614612b0f576040517f08c379a000000000000000000000000000000000000000000000000000000000815260206004820152601e60248201527f484f4c4f47524150483a206f776e6572206f6e6c792066756e6374696f6e00006044820152606401610c04565b6000612f3f600654600b6132e7565b15612fd657612f4c613304565b73ffffffffffffffffffffffffffffffffffffffff16632ca16676338686866040518563ffffffff1660e01b8152600401612f8a94939291906151c4565b6020604051808303816000875af1158015612fa9573d6000803e3d6000fd5b505050506040513d601f19601f82011682018060405250810190612fcd9190614e25565b612fd657600080fd5b612fe1338585613805565b612fed33858585613bd2565b613053576040517f08c379a000000000000000000000000000000000000000000000000000000000815260206004820152601860248201527f45524332303a206e6f6e204552433230526563656976657200000000000000006044820152606401610c04565b613060600654600a6132e7565b156112e85761306d613304565b73ffffffffffffffffffffffffffffffffffffffff166336fff062338686866040518563ffffffff1660e01b815260040161129c94939291906151c4565b7f89b583059fdb0b2e807359b64eba1a8a1e6d099210701fafe6dad5dd2cd64fb85473ffffffffffffffffffffffffffffffffffffffff163373ffffffffffffffffffffffffffffffffffffffff1614613161576040517f08c379a000000000000000000000000000000000000000000000000000000000815260206004820152601e60248201527f484f4c4f47524150483a206f776e6572206f6e6c792066756e6374696f6e00006044820152606401610c04565b73ffffffffffffffffffffffffffffffffffffffff81166131de576040517f08c379a000000000000000000000000000000000000000000000000000000000815260206004820152601760248201527f484f4c4f47524150483a207a65726f20616464726573730000000000000000006044820152606401610c04565b7f89b583059fdb0b2e807359b64eba1a8a1e6d099210701fafe6dad5dd2cd64fb855565b60006108aa7f5705f5753aa4f617eef2cae1dada3d3355e9387b04d19191f09b545e684ca50d5490565b60003073ffffffffffffffffffffffffffffffffffffffff16634827ae0c6040518163ffffffff1660e01b8152600401602060405180830381865afa158015613279573d6000803e3d6000fd5b505050506040513d601f19601f8201168201806040525081019061329d9190614d5d565b73ffffffffffffffffffffffffffffffffffffffff1663ebac15f96040518163ffffffff1660e01b8152600401602060405180830381865afa158015610886573d6000803e3d6000fd5b60006115558383600d8111156132ff576132ff614d7a565b6137eb565b60006108aa610839565b73ffffffffffffffffffffffffffffffffffffffff831661338b576040517f08c379a000000000000000000000000000000000000000000000000000000000815260206004820152601e60248201527f45524332303a206163636f756e74206973207a65726f206164647265737300006044820152606401610c04565b73ffffffffffffffffffffffffffffffffffffffff8216613408576040517f08c379a000000000000000000000000000000000000000000000000000000000815260206004820152601e60248201527f45524332303a207370656e646572206973207a65726f206164647265737300006044820152606401610c04565b73ffffffffffffffffffffffffffffffffffffffff83811660008181526008602090815260408083209487168084529482529182902085905590518481527f8c5be1e5ebec7d5bd14f71427d1e84f3dd0314c0f7b2291e5b200ac8c7c3b92591015b60405180910390a3505050565b73ffffffffffffffffffffffffffffffffffffffff82166134f4576040517f08c379a000000000000000000000000000000000000000000000000000000000815260206004820152601e60248201527f45524332303a206d696e74696e6720746f206275726e206164647265737300006044820152606401610c04565b8060096000828254613506919061520d565b909155505073ffffffffffffffffffffffffffffffffffffffff82166000908152600760205260408120805483929061354090849061520d565b909155505060405181815273ffffffffffffffffffffffffffffffffffffffff8316906000907fddf252ad1be2c89b69c2b068fc378daa952ba7f163c4a11628f55a4df523b3ef9060200160405180910390a35050565b73ffffffffffffffffffffffffffffffffffffffff8216613614576040517f08c379a000000000000000000000000000000000000000000000000000000000815260206004820152601e60248201527f45524332303a206163636f756e74206973207a65726f206164647265737300006044820152606401610c04565b73ffffffffffffffffffffffffffffffffffffffff8216600090815260076020526040902054818110156136a4576040517f08c379a000000000000000000000000000000000000000000000000000000000815260206004820152601d60248201527f45524332303a20616d6f756e7420657863656564732062616c616e63650000006044820152606401610c04565b73ffffffffffffffffffffffffffffffffffffffff831660009081526007602052604081208383039055600980548492906136e0908490615225565b909155505060405182815260009073ffffffffffffffffffffffffffffffffffffffff8516907fddf252ad1be2c89b69c2b068fc378daa952ba7f163c4a11628f55a4df523b3ef9060200161346a565b60003073ffffffffffffffffffffffffffffffffffffffff16634827ae0c6040518163ffffffff1660e01b8152600401602060405180830381865afa15801561377d573d6000803e3d6000fd5b505050506040513d601f19601f820116820180604052508101906137a19190614d5d565b73ffffffffffffffffffffffffffffffffffffffff16630fffbaf36040518163ffffffff1660e01b8152600401602060405180830381865afa158015610886573d6000803e3d6000fd5b6000600183831c81169081146112e8576000949350505050565b73ffffffffffffffffffffffffffffffffffffffff8316613882576040517f08c379a000000000000000000000000000000000000000000000000000000000815260206004820152601e60248201527f45524332303a206163636f756e74206973207a65726f206164647265737300006044820152606401610c04565b73ffffffffffffffffffffffffffffffffffffffff82166138ff576040517f08c379a000000000000000000000000000000000000000000000000000000000815260206004820181905260248201527f45524332303a20726563697069656e74206973207a65726f20616464726573736044820152606401610c04565b73ffffffffffffffffffffffffffffffffffffffff83166000908152600760205260409020548181101561398f576040517f08c379a000000000000000000000000000000000000000000000000000000000815260206004820152601d60248201527f45524332303a20616d6f756e7420657863656564732062616c616e63650000006044820152606401610c04565b73ffffffffffffffffffffffffffffffffffffffff8085166000908152600760205260408082208585039055918516815290812080548492906139d390849061520d565b925050819055508273ffffffffffffffffffffffffffffffffffffffff168473ffffffffffffffffffffffffffffffffffffffff167fddf252ad1be2c89b69c2b068fc378daa952ba7f163c4a11628f55a4df523b3ef84604051613a3991815260200190565b60405180910390a350505050565b60025460009073ffffffffffffffffffffffffffffffffffffffff1630148015613a72575060015446145b15613a7e575060005490565b6108aa6005546003546004546040805160208101859052908101839052606081018290524660808201523060a082015260009060c0016040516020818303038152906040528051906020012090509392505050565b815160208084019190912082519183019190912060038290556004819055466001557f8b73c3c69bb8fe3d512ecc4cf759cc79239f7b179b0ffacaa9a75d522b39400f613b658184846040805160208101859052908101839052606081018290524660808201523060a082015260009060c0016040516020818303038152906040528051906020012090509392505050565b600055600280547fffffffffffffffffffffffff0000000000000000000000000000000000000000163017905560055550505050565b6000813f801580159061155557507fc5d2460186f7233c927e7db2dcc703c0e500b653ca82273b7bfad8045d85a470141592915050565b6000613bfc7f5bf044ad06f1ee9ee2fcd7caf4e944279b877408c76c4515cca6b4e937b013345490565b600203613c65576040517f08c379a000000000000000000000000000000000000000000000000000000000815260206004820152601560248201527f45524332303a207265656e7472616e742063616c6c00000000000000000000006044820152606401610c04565b613c8e60027f5bf044ad06f1ee9ee2fcd7caf4e944279b877408c76c4515cca6b4e937b0133455565b613c9784613b9b565b15614100576040517f01ffc9a700000000000000000000000000000000000000000000000000000000808252600482015273ffffffffffffffffffffffffffffffffffffffff8516906301ffc9a790602401602060405180830381865afa925050508015613d40575060408051601f3d9081017fffffffffffffffffffffffffffffffffffffffffffffffffffffffffffffffe0168201909252613d3d91810190614e25565b60015b613de7573d808015613d6e576040519150601f19603f3d011682016040523d82523d6000602084013e613d73565b606091505b508051600003613ddf576040517f08c379a000000000000000000000000000000000000000000000000000000000815260206004820152601860248201527f45524332303a206e6f2045524331363520737570706f727400000000000000006044820152606401610c04565b805181602001fd5b80613e4e576040517f08c379a000000000000000000000000000000000000000000000000000000000815260206004820152601860248201527f45524332303a206e6f2045524331363520737570706f727400000000000000006044820152606401610c04565b6040517f01ffc9a70000000000000000000000000000000000000000000000000000000081527f534f587600000000000000000000000000000000000000000000000000000000600482015273ffffffffffffffffffffffffffffffffffffffff8616906301ffc9a790602401602060405180830381865afa158015613ed8573d6000803e3d6000fd5b505050506040513d601f19601f82011682018060405250810190613efc9190614e25565b1561409e576040517f4fc3585900000000000000000000000000000000000000000000000000000000815273ffffffffffffffffffffffffffffffffffffffff861690634fc3585990613f599030908a90899089906004016151c4565b6020604051808303816000875af1925050508015613fb2575060408051601f3d9081017fffffffffffffffffffffffffffffffffffffffffffffffffffffffffffffffe0168201909252613faf91810190615111565b60015b614051573d808015613fe0576040519150601f19603f3d011682016040523d82523d6000602084013e613fe5565b606091505b508051600003613ddf576040517f08c379a000000000000000000000000000000000000000000000000000000000815260206004820152601860248201527f45524332303a206e6f6e204552433230526563656976657200000000000000006044820152606401610c04565b7fffffffff00000000000000000000000000000000000000000000000000000000167f4fc35859000000000000000000000000000000000000000000000000000000001491506141049050565b6040517f08c379a000000000000000000000000000000000000000000000000000000000815260206004820152601d60248201527f45524332303a206569702d34353234206e6f7420737570706f727465640000006044820152606401610c04565b5060015b61157960017f5bf044ad06f1ee9ee2fcd7caf4e944279b877408c76c4515cca6b4e937b0133455565b73ffffffffffffffffffffffffffffffffffffffff81166000908152600d602052604090208054600181018255905b50919050565b600061093561416f613a47565b836040517f19010000000000000000000000000000000000000000000000000000000000006020820152602281018390526042810182905260009060620160405160208183030381529060405280519060200120905092915050565b60008060006141dc878787876141f3565b915091506141e98161430b565b5095945050505050565b6000807f7fffffffffffffffffffffffffffffff5d576e7357a4501ddfe92f46681b20a083111561422a5750600090506003614302565b8460ff16601b1415801561424257508460ff16601c14155b156142535750600090506004614302565b6040805160008082526020820180845289905260ff881692820192909252606081018690526080810185905260019060a0016020604051602081039080840390855afa1580156142a7573d6000803e3d6000fd5b50506040517fffffffffffffffffffffffffffffffffffffffffffffffffffffffffffffffe0015191505073ffffffffffffffffffffffffffffffffffffffff81166142fb57600060019250925050614302565b9150600090505b94509492505050565b600081600481111561431f5761431f614d7a565b036143275750565b600181600481111561433b5761433b614d7a565b036143a2576040517f08c379a000000000000000000000000000000000000000000000000000000000815260206004820152601860248201527f45434453413a20696e76616c6964207369676e617475726500000000000000006044820152606401610c04565b60028160048111156143b6576143b6614d7a565b0361441d576040517f08c379a000000000000000000000000000000000000000000000000000000000815260206004820152601f60248201527f45434453413a20696e76616c6964207369676e6174757265206c656e677468006044820152606401610c04565b600381600481111561443157614431614d7a565b036144be576040517f08c379a000000000000000000000000000000000000000000000000000000000815260206004820152602260248201527f45434453413a20696e76616c6964207369676e6174757265202773272076616c60448201527f75650000000000000000000000000000000000000000000000000000000000006064820152608401610c04565b60048160048111156144d2576144d2614d7a565b03611703576040517f08c379a000000000000000000000000000000000000000000000000000000000815260206004820152602260248201527f45434453413a20696e76616c6964207369676e6174757265202776272076616c60448201527f75650000000000000000000000000000000000000000000000000000000000006064820152608401610c04565b82805461456b90614e40565b90600052602060002090601f01602090048101928261458d57600085556145d3565b82601f106145a657805160ff19168380011785556145d3565b828001600101855582156145d3579182015b828111156145d35782518255916020019190600101906145b8565b506145df9291506145e3565b5090565b5b808211156145df57600081556001016145e4565b7fffffffff000000000000000000000000000000000000000000000000000000008116811461170357600080fd5b60006020828403121561463857600080fd5b8135611555816145f8565b60005b8381101561465e578181015183820152602001614646565b8381111561466d576000848401525b50505050565b6000815180845261468b816020860160208601614643565b601f017fffffffffffffffffffffffffffffffffffffffffffffffffffffffffffffffe0169290920160200192915050565b6020815260006115556020830184614673565b73ffffffffffffffffffffffffffffffffffffffff8116811461170357600080fd5b6000806040838503121561470557600080fd5b8235614710816146d0565b946020939093013593505050565b60008083601f84011261473057600080fd5b50813567ffffffffffffffff81111561474857600080fd5b6020830191508360208260051b850101111561476357600080fd5b9250929050565b6000806000806040858703121561478057600080fd5b843567ffffffffffffffff8082111561479857600080fd5b6147a48883890161471e565b909650945060208701359150808211156147bd57600080fd5b506147ca8782880161471e565b95989497509550505050565b6000602082840312156147e857600080fd5b8135611555816146d0565b803563ffffffff8116811461480757600080fd5b919050565b60008083601f84011261481e57600080fd5b50813567ffffffffffffffff81111561483657600080fd5b60208301915083602082850101111561476357600080fd5b60008060008060008060a0878903121561486757600080fd5b614870876147f3565b95506020870135614880816146d0565b94506040870135614890816146d0565b935060608701359250608087013567ffffffffffffffff8111156148b357600080fd5b6148bf89828a0161480c565b979a9699509497509295939492505050565b6000806000606084860312156148e657600080fd5b83356148f1816146d0565b92506020840135614901816146d0565b929592945050506040919091013590565b60006020828403121561492457600080fd5b5035919050565b7f4e487b7100000000000000000000000000000000000000000000000000000000600052604160045260246000fd5b604051601f82017fffffffffffffffffffffffffffffffffffffffffffffffffffffffffffffffe016810167ffffffffffffffff811182821017156149a1576149a161492b565b604052919050565b600067ffffffffffffffff8211156149c3576149c361492b565b50601f017fffffffffffffffffffffffffffffffffffffffffffffffffffffffffffffffe01660200190565b600082601f830112614a0057600080fd5b8135614a13614a0e826149a9565b61495a565b818152846020838601011115614a2857600080fd5b816020850160208301376000918101602001919091529392505050565b600060208284031215614a5757600080fd5b813567ffffffffffffffff811115614a6e57600080fd5b611579848285016149ef565b600080600080600060808688031215614a9257600080fd5b8535614a9d816146d0565b94506020860135614aad816146d0565b935060408601359250606086013567ffffffffffffffff811115614ad057600080fd5b614adc8882890161480c565b969995985093965092949392505050565b600080600080600060a08688031215614b0557600080fd5b614b0e866147f3565b94506020860135614b1e816146d0565b93506040860135614b2e816146d0565b92506060860135614b3e816146d0565b949793965091946080013592915050565b7fffffffff00000000000000000000000000000000000000000000000000000000831681526040602082015260006115796040830184614673565b60008060008060808587031215614ba057600080fd5b8435614bab816146d0565b93506020850135614bbb816146d0565b925060408501359150606085013567ffffffffffffffff811115614bde57600080fd5b614bea878288016149ef565b91505092959194509250565b600080600060408486031215614c0b57600080fd5b8335614c16816146d0565b9250602084013567ffffffffffffffff811115614c3257600080fd5b614c3e8682870161480c565b9497909650939450505050565b60ff8116811461170357600080fd5b600080600080600080600060e0888a031215614c7557600080fd5b8735614c80816146d0565b96506020880135614c90816146d0565b955060408801359450606088013593506080880135614cae81614c4b565b9699959850939692959460a0840135945060c09093013592915050565b60008060408385031215614cde57600080fd5b8235614ce9816146d0565b91506020830135614cf9816146d0565b809150509250929050565b600080600060608486031215614d1957600080fd5b8335614d24816146d0565b925060208401359150604084013567ffffffffffffffff811115614d4757600080fd5b614d53868287016149ef565b9150509250925092565b600060208284031215614d6f57600080fd5b8151611555816146d0565b7f4e487b7100000000000000000000000000000000000000000000000000000000600052602160045260246000fd5b6040810160048410614de4577f4e487b7100000000000000000000000000000000000000000000000000000000600052602160045260246000fd5b9281527fffffffff000000000000000000000000000000000000000000000000000000009190911660209091015290565b8051801515811461480757600080fd5b600060208284031215614e3757600080fd5b61155582614e15565b600181811c90821680614e5457607f821691505b60208210810361415c577f4e487b7100000000000000000000000000000000000000000000000000000000600052602260045260246000fd5b7f4e487b7100000000000000000000000000000000000000000000000000000000600052603260045260246000fd5b7f4e487b7100000000000000000000000000000000000000000000000000000000600052601160045260246000fd5b60007fffffffffffffffffffffffffffffffffffffffffffffffffffffffffffffffff8203614f1c57614f1c614ebc565b5060010190565b8183528181602085013750600060208284010152600060207fffffffffffffffffffffffffffffffffffffffffffffffffffffffffffffffe0601f840116840101905092915050565b63ffffffff87168152600073ffffffffffffffffffffffffffffffffffffffff808816602084015280871660408401525084606083015260a06080830152614fb860a083018486614f23565b98975050505050505050565b600082601f830112614fd557600080fd5b8151614fe3614a0e826149a9565b818152846020838601011115614ff857600080fd5b611579826020830160208701614643565b805161480781614c4b565b600080600080600080600080610100898b03121561503157600080fd5b885167ffffffffffffffff8082111561504957600080fd5b6150558c838d01614fc4565b995060208b015191508082111561506b57600080fd5b6150778c838d01614fc4565b985061508560408c01615009565b975060608b0151965060808b01519150808211156150a257600080fd5b6150ae8c838d01614fc4565b955060a08b01519150808211156150c457600080fd5b6150d08c838d01614fc4565b94506150de60c08c01614e15565b935060e08b01519150808211156150f457600080fd5b506151018b828c01614fc4565b9150509295985092959890939650565b60006020828403121561512357600080fd5b8151611555816145f8565b600073ffffffffffffffffffffffffffffffffffffffff8089168352808816602084015280871660408401525084606083015260a06080830152614fb860a083018486614f23565b60006020828403121561518857600080fd5b5051919050565b6000602082840312156151a157600080fd5b815167ffffffffffffffff8111156151b857600080fd5b61157984828501614fc4565b600073ffffffffffffffffffffffffffffffffffffffff8087168352808616602084015250836040830152608060608301526152036080830184614673565b9695505050505050565b6000821982111561522057615220614ebc565b500190565b60008282101561523757615237614ebc565b50039056fea164736f6c634300080d000a",
  "devdoc": {
    "author": "CXIP-Labs",
    "details": "The entire logic and functionality of the smart contract is self-contained.",
    "kind": "dev",
    "methods": {
      "DOMAIN_SEPARATOR()": {
        "details": "Returns the domain separator used in the encoding of the signature for {permit}, as defined by {EIP712}."
      },
      "constructor": {
        "details": "Constructor does not accept any parameters."
      },
      "holographBridgeIn(uint32,address,address,uint256,bytes)": {
        "details": "Allows the bridge to bring in tokens from another blockchain."
      },
      "holographBridgeOut(uint32,address,address,address,uint256)": {
        "details": "Allows the bridge to take tokens out onto another blockchain."
      },
      "init(bytes)": {
        "details": "Special function to allow a one time initialisation on deployment. Also configures and deploys royalties."
      },
      "nonces(address)": {
        "details": "Returns the current nonce for `account`. This value must be included whenever a signature is generated for {permit}. Every successful call to {permit} increases ``account``'s nonce by one. This prevents a signature from being used multiple times."
      },
      "sourceBurn(address,uint256)": {
        "details": "Allows for source smart contract to burn tokens."
      },
      "sourceMint(address,uint256)": {
        "details": "Allows for source smart contract to mint tokens."
      },
      "sourceMintBatch(address[],uint256[])": {
        "details": "Allows for source smart contract to mint a batch of token amounts."
      },
      "sourceTransfer(address,address,uint256)": {
        "details": "Allows for source smart contract to transfer tokens."
      },
      "supportsInterface(bytes4)": {
        "details": "Although EIP-165 is not required for ERC20 contracts, we still decided to implement it. This makes it easier for external smart contracts to easily identify a valid ERC20 token contract."
      }
    },
    "stateVariables": {
      "_allowances": {
        "details": "Mapping of all authorized operators, and capped amounts."
      },
      "_balances": {
        "details": "Mapping of all the addresse's balances."
      },
      "_decimals": {
        "details": "Token number of decimal places."
      },
      "_eventConfig": {
        "details": "Configuration for events to trigger for source smart contract."
      },
      "_name": {
        "details": "Token name."
      },
      "_nonces": {
        "details": "List of used up nonces. Used in the ERC20Permit interface functionality."
      },
      "_symbol": {
        "details": "Token ticker symbol."
      },
      "_totalSupply": {
        "details": "Total number of token in circulation."
      }
    },
    "title": "Holograph Bridgeable ERC-20 Token",
    "version": 1
  },
  "userdoc": {
    "kind": "user",
    "methods": {
      "init(bytes)": {
        "notice": "Initializes the collection."
      }
    },
    "notice": "A smart contract for minting and managing Holograph Bridgeable ERC20 Tokens.",
    "version": 1
  },
  "storageLayout": {
    "storage": [
      {
        "astId": 9522,
        "contract": "contracts/HolographERC20.sol:HolographERC20",
        "label": "_CACHED_DOMAIN_SEPARATOR",
        "offset": 0,
        "slot": "0",
        "type": "t_bytes32"
      },
      {
        "astId": 9524,
        "contract": "contracts/HolographERC20.sol:HolographERC20",
        "label": "_CACHED_CHAIN_ID",
        "offset": 0,
        "slot": "1",
        "type": "t_uint256"
      },
      {
        "astId": 9526,
        "contract": "contracts/HolographERC20.sol:HolographERC20",
        "label": "_CACHED_THIS",
        "offset": 0,
        "slot": "2",
        "type": "t_address"
      },
      {
        "astId": 9528,
        "contract": "contracts/HolographERC20.sol:HolographERC20",
        "label": "_HASHED_NAME",
        "offset": 0,
        "slot": "3",
        "type": "t_bytes32"
      },
      {
        "astId": 9530,
        "contract": "contracts/HolographERC20.sol:HolographERC20",
        "label": "_HASHED_VERSION",
        "offset": 0,
        "slot": "4",
        "type": "t_bytes32"
      },
      {
        "astId": 9532,
        "contract": "contracts/HolographERC20.sol:HolographERC20",
        "label": "_TYPE_HASH",
        "offset": 0,
        "slot": "5",
        "type": "t_bytes32"
      },
      {
        "astId": 852,
        "contract": "contracts/HolographERC20.sol:HolographERC20",
        "label": "_eventConfig",
        "offset": 0,
        "slot": "6",
        "type": "t_uint256"
      },
      {
        "astId": 857,
        "contract": "contracts/HolographERC20.sol:HolographERC20",
        "label": "_balances",
        "offset": 0,
        "slot": "7",
        "type": "t_mapping(t_address,t_uint256)"
      },
      {
        "astId": 864,
        "contract": "contracts/HolographERC20.sol:HolographERC20",
        "label": "_allowances",
        "offset": 0,
        "slot": "8",
        "type": "t_mapping(t_address,t_mapping(t_address,t_uint256))"
      },
      {
        "astId": 867,
        "contract": "contracts/HolographERC20.sol:HolographERC20",
        "label": "_totalSupply",
        "offset": 0,
        "slot": "9",
        "type": "t_uint256"
      },
      {
        "astId": 870,
        "contract": "contracts/HolographERC20.sol:HolographERC20",
        "label": "_name",
        "offset": 0,
        "slot": "10",
        "type": "t_string_storage"
      },
      {
        "astId": 873,
        "contract": "contracts/HolographERC20.sol:HolographERC20",
        "label": "_symbol",
        "offset": 0,
        "slot": "11",
        "type": "t_string_storage"
      },
      {
        "astId": 876,
        "contract": "contracts/HolographERC20.sol:HolographERC20",
        "label": "_decimals",
        "offset": 0,
        "slot": "12",
        "type": "t_uint8"
      },
      {
        "astId": 882,
        "contract": "contracts/HolographERC20.sol:HolographERC20",
        "label": "_nonces",
        "offset": 0,
        "slot": "13",
        "type": "t_mapping(t_address,t_struct(Counter)13802_storage)"
      }
    ],
    "types": {
      "t_address": {
        "encoding": "inplace",
        "label": "address",
        "numberOfBytes": "20"
      },
      "t_bytes32": {
        "encoding": "inplace",
        "label": "bytes32",
        "numberOfBytes": "32"
      },
      "t_mapping(t_address,t_mapping(t_address,t_uint256))": {
        "encoding": "mapping",
        "key": "t_address",
        "label": "mapping(address => mapping(address => uint256))",
        "numberOfBytes": "32",
        "value": "t_mapping(t_address,t_uint256)"
      },
      "t_mapping(t_address,t_struct(Counter)13802_storage)": {
        "encoding": "mapping",
        "key": "t_address",
        "label": "mapping(address => struct Counters.Counter)",
        "numberOfBytes": "32",
        "value": "t_struct(Counter)13802_storage"
      },
      "t_mapping(t_address,t_uint256)": {
        "encoding": "mapping",
        "key": "t_address",
        "label": "mapping(address => uint256)",
        "numberOfBytes": "32",
        "value": "t_uint256"
      },
      "t_string_storage": {
        "encoding": "bytes",
        "label": "string",
        "numberOfBytes": "32"
      },
      "t_struct(Counter)13802_storage": {
        "encoding": "inplace",
        "label": "struct Counters.Counter",
        "members": [
          {
            "astId": 13801,
            "contract": "contracts/HolographERC20.sol:HolographERC20",
            "label": "_value",
            "offset": 0,
            "slot": "0",
            "type": "t_uint256"
          }
        ],
        "numberOfBytes": "32"
      },
      "t_uint256": {
        "encoding": "inplace",
        "label": "uint256",
        "numberOfBytes": "32"
      },
      "t_uint8": {
        "encoding": "inplace",
        "label": "uint8",
        "numberOfBytes": "1"
      }
    }
  }
}