{
  "address": "0x593F70b078E2d7B09bD7969a51F6018FD50d9C19",
  "abi": [
    {
      "inputs": [],
      "stateMutability": "nonpayable",
      "type": "constructor"
    },
    {
      "anonymous": false,
      "inputs": [
        {
          "indexed": true,
          "internalType": "address",
          "name": "_owner",
          "type": "address"
        },
        {
          "indexed": true,
          "internalType": "address",
          "name": "_spender",
          "type": "address"
        },
        {
          "indexed": false,
          "internalType": "uint256",
          "name": "_value",
          "type": "uint256"
        }
      ],
      "name": "Approval",
      "type": "event"
    },
    {
      "anonymous": false,
      "inputs": [
        {
          "indexed": true,
          "internalType": "address",
          "name": "previousOwner",
          "type": "address"
        },
        {
          "indexed": true,
          "internalType": "address",
          "name": "newOwner",
          "type": "address"
        }
      ],
      "name": "OwnershipTransferred",
      "type": "event"
    },
    {
      "anonymous": false,
      "inputs": [
        {
          "indexed": true,
          "internalType": "address",
          "name": "_from",
          "type": "address"
        },
        {
          "indexed": true,
          "internalType": "address",
          "name": "_to",
          "type": "address"
        },
        {
          "indexed": false,
          "internalType": "uint256",
          "name": "_value",
          "type": "uint256"
        }
      ],
      "name": "Transfer",
      "type": "event"
    },
    {
      "stateMutability": "payable",
      "type": "fallback"
    },
    {
      "inputs": [],
      "name": "DOMAIN_SEPARATOR",
      "outputs": [
        {
          "internalType": "bytes32",
          "name": "",
          "type": "bytes32"
        }
      ],
      "stateMutability": "view",
      "type": "function"
    },
    {
      "inputs": [],
      "name": "admin",
      "outputs": [
        {
          "internalType": "address",
          "name": "",
          "type": "address"
        }
      ],
      "stateMutability": "view",
      "type": "function"
    },
    {
      "inputs": [
        {
          "internalType": "address",
          "name": "target",
          "type": "address"
        },
        {
          "internalType": "bytes",
          "name": "data",
          "type": "bytes"
        }
      ],
      "name": "adminCall",
      "outputs": [],
      "stateMutability": "payable",
      "type": "function"
    },
    {
      "inputs": [
        {
          "internalType": "address",
          "name": "account",
          "type": "address"
        },
        {
          "internalType": "address",
          "name": "spender",
          "type": "address"
        }
      ],
      "name": "allowance",
      "outputs": [
        {
          "internalType": "uint256",
          "name": "",
          "type": "uint256"
        }
      ],
      "stateMutability": "view",
      "type": "function"
    },
    {
      "inputs": [
        {
          "internalType": "address",
          "name": "spender",
          "type": "address"
        },
        {
          "internalType": "uint256",
          "name": "amount",
          "type": "uint256"
        }
      ],
      "name": "approve",
      "outputs": [
        {
          "internalType": "bool",
          "name": "",
          "type": "bool"
        }
      ],
      "stateMutability": "nonpayable",
      "type": "function"
    },
    {
      "inputs": [
        {
          "internalType": "address",
          "name": "account",
          "type": "address"
        }
      ],
      "name": "balanceOf",
      "outputs": [
        {
          "internalType": "uint256",
          "name": "",
          "type": "uint256"
        }
      ],
      "stateMutability": "view",
      "type": "function"
    },
    {
      "inputs": [
        {
          "internalType": "uint256",
          "name": "amount",
          "type": "uint256"
        }
      ],
      "name": "burn",
      "outputs": [],
      "stateMutability": "nonpayable",
      "type": "function"
    },
    {
      "inputs": [
        {
          "internalType": "address",
          "name": "account",
          "type": "address"
        },
        {
          "internalType": "uint256",
          "name": "amount",
          "type": "uint256"
        }
      ],
      "name": "burnFrom",
      "outputs": [
        {
          "internalType": "bool",
          "name": "",
          "type": "bool"
        }
      ],
      "stateMutability": "nonpayable",
      "type": "function"
    },
    {
      "inputs": [],
      "name": "decimals",
      "outputs": [
        {
          "internalType": "uint8",
          "name": "",
          "type": "uint8"
        }
      ],
      "stateMutability": "view",
      "type": "function"
    },
    {
      "inputs": [
        {
          "internalType": "address",
          "name": "spender",
          "type": "address"
        },
        {
          "internalType": "uint256",
          "name": "subtractedValue",
          "type": "uint256"
        }
      ],
      "name": "decreaseAllowance",
      "outputs": [
        {
          "internalType": "bool",
          "name": "",
          "type": "bool"
        }
      ],
      "stateMutability": "nonpayable",
      "type": "function"
    },
    {
      "inputs": [],
      "name": "getAdmin",
      "outputs": [
        {
          "internalType": "address",
          "name": "adminAddress",
          "type": "address"
        }
      ],
      "stateMutability": "view",
      "type": "function"
    },
    {
      "inputs": [],
      "name": "getOwner",
      "outputs": [
        {
          "internalType": "address",
          "name": "ownerAddress",
          "type": "address"
        }
      ],
      "stateMutability": "view",
      "type": "function"
    },
    {
      "inputs": [
        {
          "internalType": "uint32",
          "name": "chainType",
          "type": "uint32"
        },
        {
          "internalType": "address",
          "name": "from",
          "type": "address"
        },
        {
          "internalType": "address",
          "name": "to",
          "type": "address"
        },
        {
          "internalType": "uint256",
          "name": "amount",
          "type": "uint256"
        },
        {
          "internalType": "bytes",
          "name": "data",
          "type": "bytes"
        }
      ],
      "name": "holographBridgeIn",
      "outputs": [
        {
          "internalType": "bytes4",
          "name": "",
          "type": "bytes4"
        }
      ],
      "stateMutability": "nonpayable",
      "type": "function"
    },
    {
      "inputs": [
        {
          "internalType": "uint32",
          "name": "chainType",
          "type": "uint32"
        },
        {
          "internalType": "address",
          "name": "operator",
          "type": "address"
        },
        {
          "internalType": "address",
          "name": "from",
          "type": "address"
        },
        {
          "internalType": "address",
          "name": "to",
          "type": "address"
        },
        {
          "internalType": "uint256",
          "name": "amount",
          "type": "uint256"
        }
      ],
      "name": "holographBridgeOut",
      "outputs": [
        {
          "internalType": "bytes4",
          "name": "selector",
          "type": "bytes4"
        },
        {
          "internalType": "bytes",
          "name": "data",
          "type": "bytes"
        }
      ],
      "stateMutability": "nonpayable",
      "type": "function"
    },
    {
      "inputs": [
        {
          "internalType": "address",
          "name": "spender",
          "type": "address"
        },
        {
          "internalType": "uint256",
          "name": "addedValue",
          "type": "uint256"
        }
      ],
      "name": "increaseAllowance",
      "outputs": [
        {
          "internalType": "bool",
          "name": "",
          "type": "bool"
        }
      ],
      "stateMutability": "nonpayable",
      "type": "function"
    },
    {
      "inputs": [
        {
          "internalType": "bytes",
          "name": "data",
          "type": "bytes"
        }
      ],
      "name": "init",
      "outputs": [
        {
          "internalType": "bytes4",
          "name": "",
          "type": "bytes4"
        }
      ],
      "stateMutability": "nonpayable",
      "type": "function"
    },
    {
      "inputs": [],
      "name": "name",
      "outputs": [
        {
          "internalType": "string",
          "name": "",
          "type": "string"
        }
      ],
      "stateMutability": "view",
      "type": "function"
    },
    {
      "inputs": [
        {
          "internalType": "address",
          "name": "account",
          "type": "address"
        }
      ],
      "name": "nonces",
      "outputs": [
        {
          "internalType": "uint256",
          "name": "",
          "type": "uint256"
        }
      ],
      "stateMutability": "view",
      "type": "function"
    },
    {
      "inputs": [
        {
          "internalType": "address",
          "name": "account",
          "type": "address"
        },
        {
          "internalType": "address",
          "name": "sender",
          "type": "address"
        },
        {
          "internalType": "uint256",
          "name": "amount",
          "type": "uint256"
        },
        {
          "internalType": "bytes",
          "name": "data",
          "type": "bytes"
        }
      ],
      "name": "onERC20Received",
      "outputs": [
        {
          "internalType": "bytes4",
          "name": "",
          "type": "bytes4"
        }
      ],
      "stateMutability": "nonpayable",
      "type": "function"
    },
    {
      "inputs": [],
      "name": "owner",
      "outputs": [
        {
          "internalType": "address",
          "name": "",
          "type": "address"
        }
      ],
      "stateMutability": "view",
      "type": "function"
    },
    {
      "inputs": [
        {
          "internalType": "address",
          "name": "target",
          "type": "address"
        },
        {
          "internalType": "bytes",
          "name": "data",
          "type": "bytes"
        }
      ],
      "name": "ownerCall",
      "outputs": [],
      "stateMutability": "payable",
      "type": "function"
    },
    {
      "inputs": [
        {
          "internalType": "address",
          "name": "account",
          "type": "address"
        },
        {
          "internalType": "address",
          "name": "spender",
          "type": "address"
        },
        {
          "internalType": "uint256",
          "name": "amount",
          "type": "uint256"
        },
        {
          "internalType": "uint256",
          "name": "deadline",
          "type": "uint256"
        },
        {
          "internalType": "uint8",
          "name": "v",
          "type": "uint8"
        },
        {
          "internalType": "bytes32",
          "name": "r",
          "type": "bytes32"
        },
        {
          "internalType": "bytes32",
          "name": "s",
          "type": "bytes32"
        }
      ],
      "name": "permit",
      "outputs": [],
      "stateMutability": "nonpayable",
      "type": "function"
    },
    {
      "inputs": [
        {
          "internalType": "address",
          "name": "recipient",
          "type": "address"
        },
        {
          "internalType": "uint256",
          "name": "amount",
          "type": "uint256"
        }
      ],
      "name": "safeTransfer",
      "outputs": [
        {
          "internalType": "bool",
          "name": "",
          "type": "bool"
        }
      ],
      "stateMutability": "nonpayable",
      "type": "function"
    },
    {
      "inputs": [
        {
          "internalType": "address",
          "name": "recipient",
          "type": "address"
        },
        {
          "internalType": "uint256",
          "name": "amount",
          "type": "uint256"
        },
        {
          "internalType": "bytes",
          "name": "data",
          "type": "bytes"
        }
      ],
      "name": "safeTransfer",
      "outputs": [
        {
          "internalType": "bool",
          "name": "",
          "type": "bool"
        }
      ],
      "stateMutability": "nonpayable",
      "type": "function"
    },
    {
      "inputs": [
        {
          "internalType": "address",
          "name": "account",
          "type": "address"
        },
        {
          "internalType": "address",
          "name": "recipient",
          "type": "address"
        },
        {
          "internalType": "uint256",
          "name": "amount",
          "type": "uint256"
        }
      ],
      "name": "safeTransferFrom",
      "outputs": [
        {
          "internalType": "bool",
          "name": "",
          "type": "bool"
        }
      ],
      "stateMutability": "nonpayable",
      "type": "function"
    },
    {
      "inputs": [
        {
          "internalType": "address",
          "name": "account",
          "type": "address"
        },
        {
          "internalType": "address",
          "name": "recipient",
          "type": "address"
        },
        {
          "internalType": "uint256",
          "name": "amount",
          "type": "uint256"
        },
        {
          "internalType": "bytes",
          "name": "data",
          "type": "bytes"
        }
      ],
      "name": "safeTransferFrom",
      "outputs": [
        {
          "internalType": "bool",
          "name": "",
          "type": "bool"
        }
      ],
      "stateMutability": "nonpayable",
      "type": "function"
    },
    {
      "inputs": [
        {
          "internalType": "address",
          "name": "adminAddress",
          "type": "address"
        }
      ],
      "name": "setAdmin",
      "outputs": [],
      "stateMutability": "nonpayable",
      "type": "function"
    },
    {
      "inputs": [
        {
          "internalType": "address",
          "name": "ownerAddress",
          "type": "address"
        }
      ],
      "name": "setOwner",
      "outputs": [],
      "stateMutability": "nonpayable",
      "type": "function"
    },
    {
      "inputs": [
        {
          "internalType": "address",
          "name": "from",
          "type": "address"
        },
        {
          "internalType": "uint256",
          "name": "amount",
          "type": "uint256"
        }
      ],
      "name": "sourceBurn",
      "outputs": [],
      "stateMutability": "nonpayable",
      "type": "function"
    },
    {
      "inputs": [
        {
          "internalType": "address",
          "name": "to",
          "type": "address"
        },
        {
          "internalType": "uint256",
          "name": "amount",
          "type": "uint256"
        }
      ],
      "name": "sourceMint",
      "outputs": [],
      "stateMutability": "nonpayable",
      "type": "function"
    },
    {
      "inputs": [
        {
          "internalType": "address[]",
          "name": "wallets",
          "type": "address[]"
        },
        {
          "internalType": "uint256[]",
          "name": "amounts",
          "type": "uint256[]"
        }
      ],
      "name": "sourceMintBatch",
      "outputs": [],
      "stateMutability": "nonpayable",
      "type": "function"
    },
    {
      "inputs": [
        {
          "internalType": "address",
          "name": "from",
          "type": "address"
        },
        {
          "internalType": "address",
          "name": "to",
          "type": "address"
        },
        {
          "internalType": "uint256",
          "name": "amount",
          "type": "uint256"
        }
      ],
      "name": "sourceTransfer",
      "outputs": [],
      "stateMutability": "nonpayable",
      "type": "function"
    },
    {
      "inputs": [
        {
          "internalType": "bytes4",
          "name": "interfaceId",
          "type": "bytes4"
        }
      ],
      "name": "supportsInterface",
      "outputs": [
        {
          "internalType": "bool",
          "name": "",
          "type": "bool"
        }
      ],
      "stateMutability": "view",
      "type": "function"
    },
    {
      "inputs": [],
      "name": "symbol",
      "outputs": [
        {
          "internalType": "string",
          "name": "",
          "type": "string"
        }
      ],
      "stateMutability": "view",
      "type": "function"
    },
    {
      "inputs": [],
      "name": "totalSupply",
      "outputs": [
        {
          "internalType": "uint256",
          "name": "",
          "type": "uint256"
        }
      ],
      "stateMutability": "view",
      "type": "function"
    },
    {
      "inputs": [
        {
          "internalType": "address",
          "name": "recipient",
          "type": "address"
        },
        {
          "internalType": "uint256",
          "name": "amount",
          "type": "uint256"
        }
      ],
      "name": "transfer",
      "outputs": [
        {
          "internalType": "bool",
          "name": "",
          "type": "bool"
        }
      ],
      "stateMutability": "nonpayable",
      "type": "function"
    },
    {
      "inputs": [
        {
          "internalType": "address",
          "name": "account",
          "type": "address"
        },
        {
          "internalType": "address",
          "name": "recipient",
          "type": "address"
        },
        {
          "internalType": "uint256",
          "name": "amount",
          "type": "uint256"
        }
      ],
      "name": "transferFrom",
      "outputs": [
        {
          "internalType": "bool",
          "name": "",
          "type": "bool"
        }
      ],
      "stateMutability": "nonpayable",
      "type": "function"
    },
    {
      "inputs": [
        {
          "internalType": "address",
          "name": "newOwner",
          "type": "address"
        }
      ],
      "name": "transferOwnership",
      "outputs": [],
      "stateMutability": "nonpayable",
      "type": "function"
    },
    {
      "stateMutability": "payable",
      "type": "receive"
    }
  ],
  "transactionHash": "0x850356cdd10cb2a908363d9c43d1470f0615bcc18013039328ed636238f59baf",
  "args": [],
  "numDeployments": 1,
  "solcInputHash": "fce9b8e72ee392c2ed836f8a75e0bbef",
  "bytecode": "0x608060405234801561001057600080fd5b506152f7806100206000396000f3fe6080604052600436106102895760003560e01c8063704b6c0211610153578063a8eb29c9116100cb578063dd62ed3e1161007f578063eb79554911610064578063eb795549146107e4578063f2fde38b14610804578063f851a4401461082457610290565b8063dd62ed3e1461077e578063eb66dbcf146107d157610290565b8063b88d4fde116100b0578063b88d4fde1461072b578063bf64a82d1461074b578063d505accf1461075e57610290565b8063a8eb29c9146106eb578063a9059cbb1461070b57610290565b8063893d20e8116101225780638da5cb5b116101075780638da5cb5b146106a157806395d89b41146106b6578063a457c2d7146106cb57610290565b8063893d20e81461063f5780638b591bab1461067357610290565b8063704b6c021461059c57806370a08231146105bc57806379cc6790146105ff5780637ecebe001461061f57610290565b8063313ce5671161020157806342966c68116101b55780634fc358591161019a5780634fc358591461050757806366bd3d45146105275780636e9960c31461054757610290565b806342966c68146104c75780634ddf47d4146104e757610290565b806339509351116101e65780633950935114610467578063423f6cef1461048757806342842e0e146104a757610290565b8063313ce567146104305780633644e5151461045257610290565b80630d5e2c1d1161025857806318160ddd1161023d57806318160ddd146103a057806321d6846f146103bf57806323b872dd1461041057610290565b80630d5e2c1d1461036057806313af40351461038057610290565b806301ffc9a7146102c957806306fdde03146102fe578063095ea7b3146103205780630d3ada541461034057610290565b3661029057005b600061029a610839565b9050366000803733365260008060203601600034855af13d6000803e8080156102c2573d6000f35b3d6000fd5b005b3480156102d557600080fd5b506102e96102e43660046146d4565b6108af565b60405190151581526020015b60405180910390f35b34801561030a57600080fd5b5061031361093b565b6040516102f5919061476b565b34801561032c57600080fd5b506102e961033b3660046147a0565b6109cd565b34801561034c57600080fd5b506102c761035b366004614818565b610b6c565b34801561036c57600080fd5b506102c761037b3660046147a0565b610c79565b34801561038c57600080fd5b506102c761039b366004614884565b610d23565b3480156103ac57600080fd5b506009545b6040519081526020016102f5565b3480156103cb57600080fd5b506103df6103da3660046148fc565b610e86565b6040517fffffffff0000000000000000000000000000000000000000000000000000000090911681526020016102f5565b34801561041c57600080fd5b506102e961042b36600461497f565b6110b6565b34801561043c57600080fd5b50600c5460405160ff90911681526020016102f5565b34801561045e57600080fd5b506103b1611349565b34801561047357600080fd5b506102e96104823660046147a0565b611353565b34801561049357600080fd5b506102e96104a23660046147a0565b611590565b3480156104b357600080fd5b506102e96104c236600461497f565b6115b3565b3480156104d357600080fd5b506102c76104e23660046149c0565b6115d8565b3480156104f357600080fd5b506103df610502366004614af3565b61175d565b34801561051357600080fd5b506103df610522366004614b28565b611b38565b34801561053357600080fd5b506102c76105423660046147a0565b611e99565b34801561055357600080fd5b507f5705f5753aa4f617eef2cae1dada3d3355e9387b04d19191f09b545e684ca50d545b60405173ffffffffffffffffffffffffffffffffffffffff90911681526020016102f5565b3480156105a857600080fd5b506102c76105b7366004614884565b611f3f565b3480156105c857600080fd5b506103b16105d7366004614884565b73ffffffffffffffffffffffffffffffffffffffff1660009081526007602052604090205490565b34801561060b57600080fd5b506102e961061a3660046147a0565b612019565b34801561062b57600080fd5b506103b161063a366004614884565b612243565b34801561064b57600080fd5b507f89b583059fdb0b2e807359b64eba1a8a1e6d099210701fafe6dad5dd2cd64fb854610577565b34801561067f57600080fd5b5061069361068e366004614b9b565b61226e565b6040516102f5929190614bfd565b3480156106ad57600080fd5b50610577612593565b3480156106c257600080fd5b506103136125e7565b3480156106d757600080fd5b506102e96106e63660046147a0565b6125f6565b3480156106f757600080fd5b506102c761070636600461497f565b6126a3565b34801561071757600080fd5b506102e96107263660046147a0565b61274f565b34801561073757600080fd5b506102e9610746366004614c38565b61289d565b6102c7610759366004614ca4565b612b07565b34801561076a57600080fd5b506102c7610779366004614d08565b612bdd565b34801561078a57600080fd5b506103b1610799366004614d79565b73ffffffffffffffffffffffffffffffffffffffff918216600090815260086020908152604080832093909416825291909152205490565b6102c76107df366004614ca4565b612f28565b3480156107f057600080fd5b506102e96107ff366004614db2565b612fde565b34801561081057600080fd5b506102c761081f366004614884565b613159565b34801561083057600080fd5b506105776132b0565b60003073ffffffffffffffffffffffffffffffffffffffff16636faf275b6040518163ffffffff1660e01b8152600401602060405180830381865afa158015610886573d6000803e3d6000fd5b505050506040513d601f19601f820116820180604052508101906108aa9190614e0b565b905090565b60006108b96132da565b73ffffffffffffffffffffffffffffffffffffffff16639fe7303f6000846040518363ffffffff1660e01b81526004016108f4929190614e57565b602060405180830381865afa158015610911573d6000803e3d6000fd5b505050506040513d601f19601f820116820180604052508101906109359190614ed3565b92915050565b6060600a805461094a90614eee565b80601f016020809104026020016040519081016040528092919081815260200182805461097690614eee565b80156109c35780601f10610998576101008083540402835291602001916109c3565b820191906000526020600020905b8154815290600101906020018083116109a657829003601f168201915b5050505050905090565b60006109dc6006546003613395565b15610a93576109e96133b2565b6040517f47abf3be00000000000000000000000000000000000000000000000000000000815233600482015273ffffffffffffffffffffffffffffffffffffffff85811660248301526044820185905291909116906347abf3be906064016020604051808303816000875af1158015610a66573d6000803e3d6000fd5b505050506040513d601f19601f82011682018060405250810190610a8a9190614ed3565b610a9357600080fd5b610a9e3384846133bc565b610aab6006546002613395565b15610b6357610ab86133b2565b6040517f900f66ef00000000000000000000000000000000000000000000000000000000815233600482015273ffffffffffffffffffffffffffffffffffffffff858116602483015260448201859052919091169063900f66ef906064015b6020604051808303816000875af1158015610b36573d6000803e3d6000fd5b505050506040513d601f19601f82011682018060405250810190610b5a9190614ed3565b610b6357600080fd5b50600192915050565b610b74610839565b73ffffffffffffffffffffffffffffffffffffffff163373ffffffffffffffffffffffffffffffffffffffff1614610c0d576040517f08c379a000000000000000000000000000000000000000000000000000000000815260206004820152601b60248201527f45524332303a206f6e6c7920736f757263652063616e206d696e74000000000060448201526064015b60405180910390fd5b60005b83811015610c7257610c60858583818110610c2d57610c2d614f3b565b9050602002016020810190610c429190614884565b848484818110610c5457610c54614f3b565b90506020020135613525565b80610c6a81614f99565b915050610c10565b5050505050565b610c81610839565b73ffffffffffffffffffffffffffffffffffffffff163373ffffffffffffffffffffffffffffffffffffffff1614610d15576040517f08c379a000000000000000000000000000000000000000000000000000000000815260206004820152601b60248201527f45524332303a206f6e6c7920736f757263652063616e206275726e00000000006044820152606401610c04565b610d1f8282613645565b5050565b7f89b583059fdb0b2e807359b64eba1a8a1e6d099210701fafe6dad5dd2cd64fb85473ffffffffffffffffffffffffffffffffffffffff163373ffffffffffffffffffffffffffffffffffffffff1614610dd9576040517f08c379a000000000000000000000000000000000000000000000000000000000815260206004820152601e60248201527f484f4c4f47524150483a206f776e6572206f6e6c792066756e6374696f6e00006044820152606401610c04565b6000610e037f89b583059fdb0b2e807359b64eba1a8a1e6d099210701fafe6dad5dd2cd64fb85490565b9050817f89b583059fdb0b2e807359b64eba1a8a1e6d099210701fafe6dad5dd2cd64fb8558173ffffffffffffffffffffffffffffffffffffffff168173ffffffffffffffffffffffffffffffffffffffff167f8be0079c531659141344cd1fd0a4f28419497f9722a3daafe3b4186f6b6457e060405160405180910390a35050565b6000610e906137de565b73ffffffffffffffffffffffffffffffffffffffff163373ffffffffffffffffffffffffffffffffffffffff1614610f24576040517f08c379a000000000000000000000000000000000000000000000000000000000815260206004820152601b60248201527f45524332303a206f6e6c79206272696467652063616e2063616c6c00000000006044820152606401610c04565b610f35610f2f6137de565b85613525565b610f47610f406137de565b8786613899565b8473ffffffffffffffffffffffffffffffffffffffff168673ffffffffffffffffffffffffffffffffffffffff1614610f8557610f85868686613899565b610f926006546001613adb565b1561108a57610f9f6133b2565b73ffffffffffffffffffffffffffffffffffffffff1663f0f540738888888888886040518763ffffffff1660e01b8152600401610fe19695949392919061501a565b6020604051808303816000875af1158015611000573d6000803e3d6000fd5b505050506040513d601f19601f820116820180604052508101906110249190614ed3565b61108a576040517f08c379a000000000000000000000000000000000000000000000000000000000815260206004820152601b60248201527f484f4c4f47524150483a2062726964676520696e206661696c656400000000006044820152606401610c04565b507f21d6846f000000000000000000000000000000000000000000000000000000009695505050505050565b600073ffffffffffffffffffffffffffffffffffffffff841633146111a75773ffffffffffffffffffffffffffffffffffffffff8416600090815260086020908152604080832033845290915290205482811015611170576040517f08c379a000000000000000000000000000000000000000000000000000000000815260206004820152601f60248201527f45524332303a20616d6f756e74206578636565647320616c6c6f77616e6365006044820152606401610c04565b73ffffffffffffffffffffffffffffffffffffffff8516600090815260086020908152604080832033845290915290209083900390555b6111b4600654600d613395565b1561126d576111c16133b2565b6040517f1ffb811f00000000000000000000000000000000000000000000000000000000815273ffffffffffffffffffffffffffffffffffffffff86811660048301528581166024830152604482018590529190911690631ffb811f906064016020604051808303816000875af1158015611240573d6000803e3d6000fd5b505050506040513d601f19601f820116820180604052508101906112649190614ed3565b61126d57600080fd5b611278848484613899565b611285600654600c613395565b1561133f576112926133b2565b6040517ff49062ca00000000000000000000000000000000000000000000000000000000815273ffffffffffffffffffffffffffffffffffffffff8681166004830152858116602483015260448201859052919091169063f49062ca906064015b6020604051808303816000875af1158015611312573d6000803e3d6000fd5b505050506040513d601f19601f820116820180604052508101906113369190614ed3565b61133f57600080fd5b5060019392505050565b60006108aa613af5565b33600090815260086020908152604080832073ffffffffffffffffffffffffffffffffffffffff86168452909152812054828101818110156113f1576040517f08c379a000000000000000000000000000000000000000000000000000000000815260206004820181905260248201527f45524332303a20696e637265617365642061626f7665206d61782076616c75656044820152606401610c04565b6113fe6006546003613395565b156114b55761140b6133b2565b6040517f47abf3be00000000000000000000000000000000000000000000000000000000815233600482015273ffffffffffffffffffffffffffffffffffffffff87811660248301526044820184905291909116906347abf3be906064016020604051808303816000875af1158015611488573d6000803e3d6000fd5b505050506040513d601f19601f820116820180604052508101906114ac9190614ed3565b6114b557600080fd5b6114c03386836133bc565b6114cd6006546002613395565b15611585576114da6133b2565b6040517f900f66ef00000000000000000000000000000000000000000000000000000000815233600482015273ffffffffffffffffffffffffffffffffffffffff878116602483015260448201849052919091169063900f66ef906064015b6020604051808303816000875af1158015611558573d6000803e3d6000fd5b505050506040513d601f19601f8201168201806040525081019061157c9190614ed3565b61158557600080fd5b506001949350505050565b60006115ac838360405180602001604052806000815250612fde565b9392505050565b60006115d08484846040518060200160405280600081525061289d565b949350505050565b6115e56006546007613395565b15611694576115f26133b2565b6040517f4a1fefbd0000000000000000000000000000000000000000000000000000000081523360048201526024810183905273ffffffffffffffffffffffffffffffffffffffff9190911690634a1fefbd906044016020604051808303816000875af1158015611667573d6000803e3d6000fd5b505050506040513d601f19601f8201168201806040525081019061168b9190614ed3565b61169457600080fd5b61169e3382613645565b6116ab6006546006613395565b1561175a576116b86133b2565b6040517f971c34b40000000000000000000000000000000000000000000000000000000081523360048201526024810183905273ffffffffffffffffffffffffffffffffffffffff919091169063971c34b4906044016020604051808303816000875af115801561172d573d6000803e3d6000fd5b505050506040513d601f19601f820116820180604052508101906117519190614ed3565b61175a57600080fd5b50565b60006117897f4e5f991bca30eca2d4643aaefa807e88f96a4a97398933d572a3c0d973004a0154151590565b156117f0576040517f08c379a000000000000000000000000000000000000000000000000000000000815260206004820152601a60248201527f45524332303a20616c726561647920696e697469616c697a65640000000000006044820152606401610c04565b60017f5bf044ad06f1ee9ee2fcd7caf4e944279b877408c76c4515cca6b4e937b0133455337f89b583059fdb0b2e807359b64eba1a8a1e6d099210701fafe6dad5dd2cd64fb8556000806000806000806000808980602001905181019061185791906150c2565b9750975097509750975097509750975087600a908051906020019061187d92919061460d565b50865161189190600b9060208a019061460d565b50600c80547fffffffffffffffffffffffffffffffffffffffffffffffffffffffffffffff001660ff8816179055600685905581611ad6573073ffffffffffffffffffffffffffffffffffffffff16636faf275b6040518163ffffffff1660e01b8152600401602060405180830381865afa92505050801561194e575060408051601f3d9081017fffffffffffffffffffffffffffffffffffffffffffffffffffffffffffffffe016820190925261194b91810190614e0b565b60015b6119b4576040517f08c379a000000000000000000000000000000000000000000000000000000000815260206004820152601c60248201527f45524332303a20636f756c64206e6f7420696e697420736f75726365000000006044820152606401610c04565b6040517f4ddf47d4000000000000000000000000000000000000000000000000000000008082529073ffffffffffffffffffffffffffffffffffffffff831690634ddf47d490611a0890869060040161476b565b6020604051808303816000875af1158015611a27573d6000803e3d6000fd5b505050506040513d601f19601f82011682018060405250810190611a4b91906151bf565b7fffffffff000000000000000000000000000000000000000000000000000000001614611ad4576040517f08c379a000000000000000000000000000000000000000000000000000000000815260206004820152601c60248201527f45524332303a20636f756c64206e6f7420696e697420736f75726365000000006044820152606401610c04565b505b611aff60017f4e5f991bca30eca2d4643aaefa807e88f96a4a97398933d572a3c0d973004a0155565b611b098484613b81565b507f4ddf47d4000000000000000000000000000000000000000000000000000000009998505050505050505050565b6000611b4386613c49565b611ba9576040517f08c379a000000000000000000000000000000000000000000000000000000000815260206004820152601c60248201527f45524332303a206f70657261746f72206e6f7420636f6e7472616374000000006044820152606401610c04565b611bb66006546005613395565b15611c5157611bc36133b2565b73ffffffffffffffffffffffffffffffffffffffff166395aae8bd8787308888886040518763ffffffff1660e01b8152600401611c05969594939291906151dc565b6020604051808303816000875af1158015611c24573d6000803e3d6000fd5b505050506040513d601f19601f82011682018060405250810190611c489190614ed3565b611c5157600080fd5b6040517f70a0823100000000000000000000000000000000000000000000000000000000815230600482015273ffffffffffffffffffffffffffffffffffffffff8716906370a0823190602401602060405180830381865afa925050508015611cf5575060408051601f3d9081017fffffffffffffffffffffffffffffffffffffffffffffffffffffffffffffffe0168201909252611cf291810190615224565b60015b611d5b576040517f08c379a000000000000000000000000000000000000000000000000000000000815260206004820152601d60248201527f45524332303a206661696c65642067657474696e672062616c616e63650000006044820152606401610c04565b84811015611dc5576040517f08c379a000000000000000000000000000000000000000000000000000000000815260206004820152601b60248201527f45524332303a2062616c616e636520636865636b206661696c656400000000006044820152606401610c04565b50611dd36006546004613395565b15611e6e57611de06133b2565b73ffffffffffffffffffffffffffffffffffffffff166345b596998787308888886040518763ffffffff1660e01b8152600401611e22969594939291906151dc565b6020604051808303816000875af1158015611e41573d6000803e3d6000fd5b505050506040513d601f19601f82011682018060405250810190611e659190614ed3565b611e6e57600080fd5b507f4fc358590000000000000000000000000000000000000000000000000000000095945050505050565b611ea1610839565b73ffffffffffffffffffffffffffffffffffffffff163373ffffffffffffffffffffffffffffffffffffffff1614611f35576040517f08c379a000000000000000000000000000000000000000000000000000000000815260206004820152601b60248201527f45524332303a206f6e6c7920736f757263652063616e206d696e7400000000006044820152606401610c04565b610d1f8282613525565b7f5705f5753aa4f617eef2cae1dada3d3355e9387b04d19191f09b545e684ca50d5473ffffffffffffffffffffffffffffffffffffffff163373ffffffffffffffffffffffffffffffffffffffff1614611ff5576040517f08c379a000000000000000000000000000000000000000000000000000000000815260206004820152601e60248201527f484f4c4f47524150483a2061646d696e206f6e6c792066756e6374696f6e00006044820152606401610c04565b7f5705f5753aa4f617eef2cae1dada3d3355e9387b04d19191f09b545e684ca50d55565b73ffffffffffffffffffffffffffffffffffffffff82166000908152600860209081526040808320338452909152812054828110156120b4576040517f08c379a000000000000000000000000000000000000000000000000000000000815260206004820152601f60248201527f45524332303a20616d6f756e74206578636565647320616c6c6f77616e6365006044820152606401610c04565b73ffffffffffffffffffffffffffffffffffffffff84166000908152600860209081526040808320338452909152902083820390556006546120f7906007613395565b156121a8576121046133b2565b6040517f4a1fefbd00000000000000000000000000000000000000000000000000000000815273ffffffffffffffffffffffffffffffffffffffff8681166004830152602482018690529190911690634a1fefbd906044016020604051808303816000875af115801561217b573d6000803e3d6000fd5b505050506040513d601f19601f8201168201806040525081019061219f9190614ed3565b6121a857600080fd5b6121b28484613645565b6121bf6006546006613395565b1561133f576121cc6133b2565b6040517f971c34b400000000000000000000000000000000000000000000000000000000815273ffffffffffffffffffffffffffffffffffffffff868116600483015260248201869052919091169063971c34b4906044016020604051808303816000875af1158015611312573d6000803e3d6000fd5b73ffffffffffffffffffffffffffffffffffffffff81166000908152600d6020526040812054610935565b6000606061227a6137de565b73ffffffffffffffffffffffffffffffffffffffff163373ffffffffffffffffffffffffffffffffffffffff161461230e576040517f08c379a000000000000000000000000000000000000000000000000000000000815260206004820152601b60248201527f45524332303a206f6e6c79206272696467652063616e2063616c6c00000000006044820152606401610c04565b8473ffffffffffffffffffffffffffffffffffffffff168673ffffffffffffffffffffffffffffffffffffffff16146124175773ffffffffffffffffffffffffffffffffffffffff8086166000908152600860209081526040808320938a1683529290522054838110156123de576040517f08c379a000000000000000000000000000000000000000000000000000000000815260206004820152601f60248201527f45524332303a20616d6f756e74206578636565647320616c6c6f77616e6365006044820152606401610c04565b73ffffffffffffffffffffffffffffffffffffffff8087166000908152600860209081526040808320938b168352929052209084900390555b8373ffffffffffffffffffffffffffffffffffffffff168573ffffffffffffffffffffffffffffffffffffffff161461245557612455858585613899565b612467846124616137de565b85613899565b6124746006546002613adb565b15612555576124816133b2565b6040517f8b1465c600000000000000000000000000000000000000000000000000000000815263ffffffff8916600482015273ffffffffffffffffffffffffffffffffffffffff87811660248301528681166044830152606482018690529190911690638b1465c6906084016000604051808303816000875af115801561250c573d6000803e3d6000fd5b505050506040513d6000823e601f3d9081017fffffffffffffffffffffffffffffffffffffffffffffffffffffffffffffffe0168201604052612552919081019061523d565b90505b6125666125606137de565b84613645565b7f8b591bab0000000000000000000000000000000000000000000000000000000091509550959350505050565b600061259d610839565b73ffffffffffffffffffffffffffffffffffffffff16638da5cb5b6040518163ffffffff1660e01b8152600401602060405180830381865afa158015610886573d6000803e3d6000fd5b6060600b805461094a90614eee565b33600090815260086020908152604080832073ffffffffffffffffffffffffffffffffffffffff8616845290915281205482811015612691576040517f08c379a000000000000000000000000000000000000000000000000000000000815260206004820152601b60248201527f45524332303a206465637265617365642062656c6f77207a65726f00000000006044820152606401610c04565b600654838203906113fe906003613395565b6126ab610839565b73ffffffffffffffffffffffffffffffffffffffff163373ffffffffffffffffffffffffffffffffffffffff161461273f576040517f08c379a000000000000000000000000000000000000000000000000000000000815260206004820152601f60248201527f45524332303a206f6e6c7920736f757263652063616e207472616e73666572006044820152606401610c04565b61274a838383613899565b505050565b600061275e600654600d613395565b156128155761276b6133b2565b6040517f1ffb811f00000000000000000000000000000000000000000000000000000000815233600482015273ffffffffffffffffffffffffffffffffffffffff8581166024830152604482018590529190911690631ffb811f906064016020604051808303816000875af11580156127e8573d6000803e3d6000fd5b505050506040513d601f19601f8201168201806040525081019061280c9190614ed3565b61281557600080fd5b612820338484613899565b61282d600654600c613395565b15610b635761283a6133b2565b6040517ff49062ca00000000000000000000000000000000000000000000000000000000815233600482015273ffffffffffffffffffffffffffffffffffffffff858116602483015260448201859052919091169063f49062ca90606401610b17565b600073ffffffffffffffffffffffffffffffffffffffff8516331461298e5773ffffffffffffffffffffffffffffffffffffffff8516600090815260086020908152604080832033845290915290205483811015612957576040517f08c379a000000000000000000000000000000000000000000000000000000000815260206004820152601f60248201527f45524332303a20616d6f756e74206578636565647320616c6c6f77616e6365006044820152606401610c04565b73ffffffffffffffffffffffffffffffffffffffff8616600090815260086020908152604080832033845290915290209084900390555b61299b600654600b613395565b15612a32576129a86133b2565b73ffffffffffffffffffffffffffffffffffffffff16632ca16676868686866040518563ffffffff1660e01b81526004016129e69493929190615272565b6020604051808303816000875af1158015612a05573d6000803e3d6000fd5b505050506040513d601f19601f82011682018060405250810190612a299190614ed3565b612a3257600080fd5b612a3d858585613899565b612a4985858585613c80565b612aaf576040517f08c379a000000000000000000000000000000000000000000000000000000000815260206004820152601860248201527f45524332303a206e6f6e204552433230526563656976657200000000000000006044820152606401610c04565b612abc600654600a613395565b1561158557612ac96133b2565b73ffffffffffffffffffffffffffffffffffffffff166336fff062868686866040518563ffffffff1660e01b81526004016115399493929190615272565b7f5705f5753aa4f617eef2cae1dada3d3355e9387b04d19191f09b545e684ca50d5473ffffffffffffffffffffffffffffffffffffffff163373ffffffffffffffffffffffffffffffffffffffff1614612bbd576040517f08c379a000000000000000000000000000000000000000000000000000000000815260206004820152601e60248201527f484f4c4f47524150483a2061646d696e206f6e6c792066756e6374696f6e00006044820152606401610c04565b808260003760008082600034875af13d6000803e8080156102c2573d6000f35b83421115612c47576040517f08c379a000000000000000000000000000000000000000000000000000000000815260206004820152601760248201527f45524332303a206578706972656420646561646c696e650000000000000000006044820152606401610c04565b60007f6e71edae12b1b97f4d1f60370fef10105fa2faae0126114a169c64845d6126c9888888612c768c6141db565b60408051602081019690965273ffffffffffffffffffffffffffffffffffffffff94851690860152929091166060840152608083015260a082015260c0810186905260e0016040516020818303038152906040528051906020012090506000612cde82614210565b90506000612cee82878787614279565b90508973ffffffffffffffffffffffffffffffffffffffff168173ffffffffffffffffffffffffffffffffffffffff1614612d85576040517f08c379a000000000000000000000000000000000000000000000000000000000815260206004820152601860248201527f45524332303a20696e76616c6964207369676e617475726500000000000000006044820152606401610c04565b612d926006546003613395565b15612e4b57612d9f6133b2565b6040517f47abf3be00000000000000000000000000000000000000000000000000000000815273ffffffffffffffffffffffffffffffffffffffff8c811660048301528b81166024830152604482018b905291909116906347abf3be906064016020604051808303816000875af1158015612e1e573d6000803e3d6000fd5b505050506040513d601f19601f82011682018060405250810190612e429190614ed3565b612e4b57600080fd5b612e568a8a8a6133bc565b612e636006546002613395565b15612f1c57612e706133b2565b6040517f900f66ef00000000000000000000000000000000000000000000000000000000815273ffffffffffffffffffffffffffffffffffffffff8c811660048301528b81166024830152604482018b9052919091169063900f66ef906064016020604051808303816000875af1158015612eef573d6000803e3d6000fd5b505050506040513d601f19601f82011682018060405250810190612f139190614ed3565b612f1c57600080fd5b50505050505050505050565b7f89b583059fdb0b2e807359b64eba1a8a1e6d099210701fafe6dad5dd2cd64fb85473ffffffffffffffffffffffffffffffffffffffff163373ffffffffffffffffffffffffffffffffffffffff1614612bbd576040517f08c379a000000000000000000000000000000000000000000000000000000000815260206004820152601e60248201527f484f4c4f47524150483a206f776e6572206f6e6c792066756e6374696f6e00006044820152606401610c04565b6000612fed600654600b613395565b1561308457612ffa6133b2565b73ffffffffffffffffffffffffffffffffffffffff16632ca16676338686866040518563ffffffff1660e01b81526004016130389493929190615272565b6020604051808303816000875af1158015613057573d6000803e3d6000fd5b505050506040513d601f19601f8201168201806040525081019061307b9190614ed3565b61308457600080fd5b61308f338585613899565b61309b33858585613c80565b613101576040517f08c379a000000000000000000000000000000000000000000000000000000000815260206004820152601860248201527f45524332303a206e6f6e204552433230526563656976657200000000000000006044820152606401610c04565b61310e600654600a613395565b1561133f5761311b6133b2565b73ffffffffffffffffffffffffffffffffffffffff166336fff062338686866040518563ffffffff1660e01b81526004016112f39493929190615272565b7f89b583059fdb0b2e807359b64eba1a8a1e6d099210701fafe6dad5dd2cd64fb85473ffffffffffffffffffffffffffffffffffffffff163373ffffffffffffffffffffffffffffffffffffffff161461320f576040517f08c379a000000000000000000000000000000000000000000000000000000000815260206004820152601e60248201527f484f4c4f47524150483a206f776e6572206f6e6c792066756e6374696f6e00006044820152606401610c04565b73ffffffffffffffffffffffffffffffffffffffff811661328c576040517f08c379a000000000000000000000000000000000000000000000000000000000815260206004820152601760248201527f484f4c4f47524150483a207a65726f20616464726573730000000000000000006044820152606401610c04565b7f89b583059fdb0b2e807359b64eba1a8a1e6d099210701fafe6dad5dd2cd64fb855565b60006108aa7f5705f5753aa4f617eef2cae1dada3d3355e9387b04d19191f09b545e684ca50d5490565b60003073ffffffffffffffffffffffffffffffffffffffff16634827ae0c6040518163ffffffff1660e01b8152600401602060405180830381865afa158015613327573d6000803e3d6000fd5b505050506040513d601f19601f8201168201806040525081019061334b9190614e0b565b73ffffffffffffffffffffffffffffffffffffffff1663ebac15f96040518163ffffffff1660e01b8152600401602060405180830381865afa158015610886573d6000803e3d6000fd5b60006115ac8383600d8111156133ad576133ad614e28565b613adb565b60006108aa610839565b73ffffffffffffffffffffffffffffffffffffffff8316613439576040517f08c379a000000000000000000000000000000000000000000000000000000000815260206004820152601e60248201527f45524332303a206163636f756e74206973207a65726f206164647265737300006044820152606401610c04565b73ffffffffffffffffffffffffffffffffffffffff82166134b6576040517f08c379a000000000000000000000000000000000000000000000000000000000815260206004820152601e60248201527f45524332303a207370656e646572206973207a65726f206164647265737300006044820152606401610c04565b73ffffffffffffffffffffffffffffffffffffffff83811660008181526008602090815260408083209487168084529482529182902085905590518481527f8c5be1e5ebec7d5bd14f71427d1e84f3dd0314c0f7b2291e5b200ac8c7c3b92591015b60405180910390a3505050565b73ffffffffffffffffffffffffffffffffffffffff82166135a2576040517f08c379a000000000000000000000000000000000000000000000000000000000815260206004820152601e60248201527f45524332303a206d696e74696e6720746f206275726e206164647265737300006044820152606401610c04565b80600960008282546135b491906152bb565b909155505073ffffffffffffffffffffffffffffffffffffffff8216600090815260076020526040812080548392906135ee9084906152bb565b909155505060405181815273ffffffffffffffffffffffffffffffffffffffff8316906000907fddf252ad1be2c89b69c2b068fc378daa952ba7f163c4a11628f55a4df523b3ef9060200160405180910390a35050565b73ffffffffffffffffffffffffffffffffffffffff82166136c2576040517f08c379a000000000000000000000000000000000000000000000000000000000815260206004820152601e60248201527f45524332303a206163636f756e74206973207a65726f206164647265737300006044820152606401610c04565b73ffffffffffffffffffffffffffffffffffffffff821660009081526007602052604090205481811015613752576040517f08c379a000000000000000000000000000000000000000000000000000000000815260206004820152601d60248201527f45524332303a20616d6f756e7420657863656564732062616c616e63650000006044820152606401610c04565b73ffffffffffffffffffffffffffffffffffffffff8316600090815260076020526040812083830390556009805484929061378e9084906152d3565b909155505060405182815260009073ffffffffffffffffffffffffffffffffffffffff8516907fddf252ad1be2c89b69c2b068fc378daa952ba7f163c4a11628f55a4df523b3ef90602001613518565b60003073ffffffffffffffffffffffffffffffffffffffff16634827ae0c6040518163ffffffff1660e01b8152600401602060405180830381865afa15801561382b573d6000803e3d6000fd5b505050506040513d601f19601f8201168201806040525081019061384f9190614e0b565b73ffffffffffffffffffffffffffffffffffffffff16630fffbaf36040518163ffffffff1660e01b8152600401602060405180830381865afa158015610886573d6000803e3d6000fd5b73ffffffffffffffffffffffffffffffffffffffff8316613916576040517f08c379a000000000000000000000000000000000000000000000000000000000815260206004820152601e60248201527f45524332303a206163636f756e74206973207a65726f206164647265737300006044820152606401610c04565b73ffffffffffffffffffffffffffffffffffffffff8216613993576040517f08c379a000000000000000000000000000000000000000000000000000000000815260206004820181905260248201527f45524332303a20726563697069656e74206973207a65726f20616464726573736044820152606401610c04565b73ffffffffffffffffffffffffffffffffffffffff831660009081526007602052604090205481811015613a23576040517f08c379a000000000000000000000000000000000000000000000000000000000815260206004820152601d60248201527f45524332303a20616d6f756e7420657863656564732062616c616e63650000006044820152606401610c04565b73ffffffffffffffffffffffffffffffffffffffff808516600090815260076020526040808220858503905591851681529081208054849290613a679084906152bb565b925050819055508273ffffffffffffffffffffffffffffffffffffffff168473ffffffffffffffffffffffffffffffffffffffff167fddf252ad1be2c89b69c2b068fc378daa952ba7f163c4a11628f55a4df523b3ef84604051613acd91815260200190565b60405180910390a350505050565b6000600183831c811690811461133f576000949350505050565b60025460009073ffffffffffffffffffffffffffffffffffffffff1630148015613b20575060015446145b15613b2c575060005490565b6108aa6005546003546004546040805160208101859052908101839052606081018290524660808201523060a082015260009060c0016040516020818303038152906040528051906020012090509392505050565b815160208084019190912082519183019190912060038290556004819055466001557f8b73c3c69bb8fe3d512ecc4cf759cc79239f7b179b0ffacaa9a75d522b39400f613c138184846040805160208101859052908101839052606081018290524660808201523060a082015260009060c0016040516020818303038152906040528051906020012090509392505050565b600055600280547fffffffffffffffffffffffff0000000000000000000000000000000000000000163017905560055550505050565b6000813f80158015906115ac57507fc5d2460186f7233c927e7db2dcc703c0e500b653ca82273b7bfad8045d85a470141592915050565b6000613caa7f5bf044ad06f1ee9ee2fcd7caf4e944279b877408c76c4515cca6b4e937b013345490565b600203613d13576040517f08c379a000000000000000000000000000000000000000000000000000000000815260206004820152601560248201527f45524332303a207265656e7472616e742063616c6c00000000000000000000006044820152606401610c04565b613d3c60027f5bf044ad06f1ee9ee2fcd7caf4e944279b877408c76c4515cca6b4e937b0133455565b613d4584613c49565b156141ae576040517f01ffc9a700000000000000000000000000000000000000000000000000000000808252600482015273ffffffffffffffffffffffffffffffffffffffff8516906301ffc9a790602401602060405180830381865afa925050508015613dee575060408051601f3d9081017fffffffffffffffffffffffffffffffffffffffffffffffffffffffffffffffe0168201909252613deb91810190614ed3565b60015b613e95573d808015613e1c576040519150601f19603f3d011682016040523d82523d6000602084013e613e21565b606091505b508051600003613e8d576040517f08c379a000000000000000000000000000000000000000000000000000000000815260206004820152601860248201527f45524332303a206e6f2045524331363520737570706f727400000000000000006044820152606401610c04565b805181602001fd5b80613efc576040517f08c379a000000000000000000000000000000000000000000000000000000000815260206004820152601860248201527f45524332303a206e6f2045524331363520737570706f727400000000000000006044820152606401610c04565b6040517f01ffc9a70000000000000000000000000000000000000000000000000000000081527f534f587600000000000000000000000000000000000000000000000000000000600482015273ffffffffffffffffffffffffffffffffffffffff8616906301ffc9a790602401602060405180830381865afa158015613f86573d6000803e3d6000fd5b505050506040513d601f19601f82011682018060405250810190613faa9190614ed3565b1561414c576040517f4fc3585900000000000000000000000000000000000000000000000000000000815273ffffffffffffffffffffffffffffffffffffffff861690634fc35859906140079030908a9089908990600401615272565b6020604051808303816000875af1925050508015614060575060408051601f3d9081017fffffffffffffffffffffffffffffffffffffffffffffffffffffffffffffffe016820190925261405d918101906151bf565b60015b6140ff573d80801561408e576040519150601f19603f3d011682016040523d82523d6000602084013e614093565b606091505b508051600003613e8d576040517f08c379a000000000000000000000000000000000000000000000000000000000815260206004820152601860248201527f45524332303a206e6f6e204552433230526563656976657200000000000000006044820152606401610c04565b7fffffffff00000000000000000000000000000000000000000000000000000000167f4fc35859000000000000000000000000000000000000000000000000000000001491506141b29050565b6040517f08c379a000000000000000000000000000000000000000000000000000000000815260206004820152601d60248201527f45524332303a206569702d34353234206e6f7420737570706f727465640000006044820152606401610c04565b5060015b6115d060017f5bf044ad06f1ee9ee2fcd7caf4e944279b877408c76c4515cca6b4e937b0133455565b73ffffffffffffffffffffffffffffffffffffffff81166000908152600d602052604090208054600181018255905b50919050565b600061093561421d613af5565b836040517f19010000000000000000000000000000000000000000000000000000000000006020820152602281018390526042810182905260009060620160405160208183030381529060405280519060200120905092915050565b600080600061428a878787876142a1565b91509150614297816143b9565b5095945050505050565b6000807f7fffffffffffffffffffffffffffffff5d576e7357a4501ddfe92f46681b20a08311156142d857506000905060036143b0565b8460ff16601b141580156142f057508460ff16601c14155b1561430157506000905060046143b0565b6040805160008082526020820180845289905260ff881692820192909252606081018690526080810185905260019060a0016020604051602081039080840390855afa158015614355573d6000803e3d6000fd5b50506040517fffffffffffffffffffffffffffffffffffffffffffffffffffffffffffffffe0015191505073ffffffffffffffffffffffffffffffffffffffff81166143a9576000600192509250506143b0565b9150600090505b94509492505050565b60008160048111156143cd576143cd614e28565b036143d55750565b60018160048111156143e9576143e9614e28565b03614450576040517f08c379a000000000000000000000000000000000000000000000000000000000815260206004820152601860248201527f45434453413a20696e76616c6964207369676e617475726500000000000000006044820152606401610c04565b600281600481111561446457614464614e28565b036144cb576040517f08c379a000000000000000000000000000000000000000000000000000000000815260206004820152601f60248201527f45434453413a20696e76616c6964207369676e6174757265206c656e677468006044820152606401610c04565b60038160048111156144df576144df614e28565b0361456c576040517f08c379a000000000000000000000000000000000000000000000000000000000815260206004820152602260248201527f45434453413a20696e76616c6964207369676e6174757265202773272076616c60448201527f75650000000000000000000000000000000000000000000000000000000000006064820152608401610c04565b600481600481111561458057614580614e28565b0361175a576040517f08c379a000000000000000000000000000000000000000000000000000000000815260206004820152602260248201527f45434453413a20696e76616c6964207369676e6174757265202776272076616c60448201527f75650000000000000000000000000000000000000000000000000000000000006064820152608401610c04565b82805461461990614eee565b90600052602060002090601f01602090048101928261463b5760008555614681565b82601f1061465457805160ff1916838001178555614681565b82800160010185558215614681579182015b82811115614681578251825591602001919060010190614666565b5061468d929150614691565b5090565b5b8082111561468d5760008155600101614692565b7fffffffff000000000000000000000000000000000000000000000000000000008116811461175a57600080fd5b6000602082840312156146e657600080fd5b81356115ac816146a6565b60005b8381101561470c5781810151838201526020016146f4565b8381111561471b576000848401525b50505050565b600081518084526147398160208601602086016146f1565b601f017fffffffffffffffffffffffffffffffffffffffffffffffffffffffffffffffe0169290920160200192915050565b6020815260006115ac6020830184614721565b73ffffffffffffffffffffffffffffffffffffffff8116811461175a57600080fd5b600080604083850312156147b357600080fd5b82356147be8161477e565b946020939093013593505050565b60008083601f8401126147de57600080fd5b50813567ffffffffffffffff8111156147f657600080fd5b6020830191508360208260051b850101111561481157600080fd5b9250929050565b6000806000806040858703121561482e57600080fd5b843567ffffffffffffffff8082111561484657600080fd5b614852888389016147cc565b9096509450602087013591508082111561486b57600080fd5b50614878878288016147cc565b95989497509550505050565b60006020828403121561489657600080fd5b81356115ac8161477e565b803563ffffffff811681146148b557600080fd5b919050565b60008083601f8401126148cc57600080fd5b50813567ffffffffffffffff8111156148e457600080fd5b60208301915083602082850101111561481157600080fd5b60008060008060008060a0878903121561491557600080fd5b61491e876148a1565b9550602087013561492e8161477e565b9450604087013561493e8161477e565b935060608701359250608087013567ffffffffffffffff81111561496157600080fd5b61496d89828a016148ba565b979a9699509497509295939492505050565b60008060006060848603121561499457600080fd5b833561499f8161477e565b925060208401356149af8161477e565b929592945050506040919091013590565b6000602082840312156149d257600080fd5b5035919050565b7f4e487b7100000000000000000000000000000000000000000000000000000000600052604160045260246000fd5b604051601f82017fffffffffffffffffffffffffffffffffffffffffffffffffffffffffffffffe016810167ffffffffffffffff81118282101715614a4f57614a4f6149d9565b604052919050565b600067ffffffffffffffff821115614a7157614a716149d9565b50601f017fffffffffffffffffffffffffffffffffffffffffffffffffffffffffffffffe01660200190565b600082601f830112614aae57600080fd5b8135614ac1614abc82614a57565b614a08565b818152846020838601011115614ad657600080fd5b816020850160208301376000918101602001919091529392505050565b600060208284031215614b0557600080fd5b813567ffffffffffffffff811115614b1c57600080fd5b6115d084828501614a9d565b600080600080600060808688031215614b4057600080fd5b8535614b4b8161477e565b94506020860135614b5b8161477e565b935060408601359250606086013567ffffffffffffffff811115614b7e57600080fd5b614b8a888289016148ba565b969995985093965092949392505050565b600080600080600060a08688031215614bb357600080fd5b614bbc866148a1565b94506020860135614bcc8161477e565b93506040860135614bdc8161477e565b92506060860135614bec8161477e565b949793965091946080013592915050565b7fffffffff00000000000000000000000000000000000000000000000000000000831681526040602082015260006115d06040830184614721565b60008060008060808587031215614c4e57600080fd5b8435614c598161477e565b93506020850135614c698161477e565b925060408501359150606085013567ffffffffffffffff811115614c8c57600080fd5b614c9887828801614a9d565b91505092959194509250565b600080600060408486031215614cb957600080fd5b8335614cc48161477e565b9250602084013567ffffffffffffffff811115614ce057600080fd5b614cec868287016148ba565b9497909650939450505050565b60ff8116811461175a57600080fd5b600080600080600080600060e0888a031215614d2357600080fd5b8735614d2e8161477e565b96506020880135614d3e8161477e565b955060408801359450606088013593506080880135614d5c81614cf9565b9699959850939692959460a0840135945060c09093013592915050565b60008060408385031215614d8c57600080fd5b8235614d978161477e565b91506020830135614da78161477e565b809150509250929050565b600080600060608486031215614dc757600080fd5b8335614dd28161477e565b925060208401359150604084013567ffffffffffffffff811115614df557600080fd5b614e0186828701614a9d565b9150509250925092565b600060208284031215614e1d57600080fd5b81516115ac8161477e565b7f4e487b7100000000000000000000000000000000000000000000000000000000600052602160045260246000fd5b6040810160028410614e92577f4e487b7100000000000000000000000000000000000000000000000000000000600052602160045260246000fd5b9281527fffffffff000000000000000000000000000000000000000000000000000000009190911660209091015290565b805180151581146148b557600080fd5b600060208284031215614ee557600080fd5b6115ac82614ec3565b600181811c90821680614f0257607f821691505b60208210810361420a577f4e487b7100000000000000000000000000000000000000000000000000000000600052602260045260246000fd5b7f4e487b7100000000000000000000000000000000000000000000000000000000600052603260045260246000fd5b7f4e487b7100000000000000000000000000000000000000000000000000000000600052601160045260246000fd5b60007fffffffffffffffffffffffffffffffffffffffffffffffffffffffffffffffff8203614fca57614fca614f6a565b5060010190565b8183528181602085013750600060208284010152600060207fffffffffffffffffffffffffffffffffffffffffffffffffffffffffffffffe0601f840116840101905092915050565b63ffffffff87168152600073ffffffffffffffffffffffffffffffffffffffff808816602084015280871660408401525084606083015260a0608083015261506660a083018486614fd1565b98975050505050505050565b600082601f83011261508357600080fd5b8151615091614abc82614a57565b8181528460208386010111156150a657600080fd5b6115d08260208301602087016146f1565b80516148b581614cf9565b600080600080600080600080610100898b0312156150df57600080fd5b885167ffffffffffffffff808211156150f757600080fd5b6151038c838d01615072565b995060208b015191508082111561511957600080fd5b6151258c838d01615072565b985061513360408c016150b7565b975060608b0151965060808b015191508082111561515057600080fd5b61515c8c838d01615072565b955060a08b015191508082111561517257600080fd5b61517e8c838d01615072565b945061518c60c08c01614ec3565b935060e08b01519150808211156151a257600080fd5b506151af8b828c01615072565b9150509295985092959890939650565b6000602082840312156151d157600080fd5b81516115ac816146a6565b600073ffffffffffffffffffffffffffffffffffffffff8089168352808816602084015280871660408401525084606083015260a0608083015261506660a083018486614fd1565b60006020828403121561523657600080fd5b5051919050565b60006020828403121561524f57600080fd5b815167ffffffffffffffff81111561526657600080fd5b6115d084828501615072565b600073ffffffffffffffffffffffffffffffffffffffff8087168352808616602084015250836040830152608060608301526152b16080830184614721565b9695505050505050565b600082198211156152ce576152ce614f6a565b500190565b6000828210156152e5576152e5614f6a565b50039056fea164736f6c634300080d000a",
  "devdoc": {
    "author": "CXIP-Labs",
    "details": "The entire logic and functionality of the smart contract is self-contained.",
    "kind": "dev",
    "methods": {
      "DOMAIN_SEPARATOR()": {
        "details": "Returns the domain separator used in the encoding of the signature for {permit}, as defined by {EIP712}."
      },
      "constructor": {
        "details": "Constructor does not accept any parameters."
      },
      "holographBridgeIn(uint32,address,address,uint256,bytes)": {
        "details": "Allows the bridge to bring in tokens from another blockchain."
      },
      "holographBridgeOut(uint32,address,address,address,uint256)": {
        "details": "Allows the bridge to take tokens out onto another blockchain."
      },
      "init(bytes)": {
        "details": "Special function to allow a one time initialisation on deployment. Also configures and deploys royalties."
      },
      "nonces(address)": {
        "details": "Returns the current nonce for `account`. This value must be included whenever a signature is generated for {permit}. Every successful call to {permit} increases ``account``'s nonce by one. This prevents a signature from being used multiple times."
      },
      "sourceBurn(address,uint256)": {
        "details": "Allows for source smart contract to burn tokens."
      },
      "sourceMint(address,uint256)": {
        "details": "Allows for source smart contract to mint tokens."
      },
      "sourceMintBatch(address[],uint256[])": {
        "details": "Allows for source smart contract to mint a batch of token amounts."
      },
      "sourceTransfer(address,address,uint256)": {
        "details": "Allows for source smart contract to transfer tokens."
      },
      "supportsInterface(bytes4)": {
        "details": "Although EIP-165 is not required for ERC20 contracts, we still decided to implement it. This makes it easier for external smart contracts to easily identify a valid ERC20 token contract."
      }
    },
    "stateVariables": {
      "_allowances": {
        "details": "Mapping of all authorized operators, and capped amounts."
      },
      "_balances": {
        "details": "Mapping of all the addresse's balances."
      },
      "_decimals": {
        "details": "Token number of decimal places."
      },
      "_eventConfig": {
        "details": "Configuration for events to trigger for source smart contract."
      },
      "_name": {
        "details": "Token name."
      },
      "_nonces": {
        "details": "List of used up nonces. Used in the ERC20Permit interface functionality."
      },
      "_symbol": {
        "details": "Token ticker symbol."
      },
      "_totalSupply": {
        "details": "Total number of token in circulation."
      }
    },
    "title": "Holograph Bridgeable ERC-20 Token",
    "version": 1
  },
  "userdoc": {
    "kind": "user",
    "methods": {
      "init(bytes)": {
        "notice": "Initializes the collection."
      }
    },
    "notice": "A smart contract for minting and managing Holograph Bridgeable ERC20 Tokens.",
    "version": 1
  },
  "storageLayout": {
    "storage": [
      {
        "astId": 9281,
        "contract": "contracts/HolographERC20.sol:HolographERC20",
        "label": "_CACHED_DOMAIN_SEPARATOR",
        "offset": 0,
        "slot": "0",
        "type": "t_bytes32"
      },
      {
        "astId": 9283,
        "contract": "contracts/HolographERC20.sol:HolographERC20",
        "label": "_CACHED_CHAIN_ID",
        "offset": 0,
        "slot": "1",
        "type": "t_uint256"
      },
      {
        "astId": 9285,
        "contract": "contracts/HolographERC20.sol:HolographERC20",
        "label": "_CACHED_THIS",
        "offset": 0,
        "slot": "2",
        "type": "t_address"
      },
      {
        "astId": 9287,
        "contract": "contracts/HolographERC20.sol:HolographERC20",
        "label": "_HASHED_NAME",
        "offset": 0,
        "slot": "3",
        "type": "t_bytes32"
      },
      {
        "astId": 9289,
        "contract": "contracts/HolographERC20.sol:HolographERC20",
        "label": "_HASHED_VERSION",
        "offset": 0,
        "slot": "4",
        "type": "t_bytes32"
      },
      {
        "astId": 9291,
        "contract": "contracts/HolographERC20.sol:HolographERC20",
        "label": "_TYPE_HASH",
        "offset": 0,
        "slot": "5",
        "type": "t_bytes32"
      },
      {
        "astId": 832,
        "contract": "contracts/HolographERC20.sol:HolographERC20",
        "label": "_eventConfig",
        "offset": 0,
        "slot": "6",
        "type": "t_uint256"
      },
      {
        "astId": 837,
        "contract": "contracts/HolographERC20.sol:HolographERC20",
        "label": "_balances",
        "offset": 0,
        "slot": "7",
        "type": "t_mapping(t_address,t_uint256)"
      },
      {
        "astId": 844,
        "contract": "contracts/HolographERC20.sol:HolographERC20",
        "label": "_allowances",
        "offset": 0,
        "slot": "8",
        "type": "t_mapping(t_address,t_mapping(t_address,t_uint256))"
      },
      {
        "astId": 847,
        "contract": "contracts/HolographERC20.sol:HolographERC20",
        "label": "_totalSupply",
        "offset": 0,
        "slot": "9",
        "type": "t_uint256"
      },
      {
        "astId": 850,
        "contract": "contracts/HolographERC20.sol:HolographERC20",
        "label": "_name",
        "offset": 0,
        "slot": "10",
        "type": "t_string_storage"
      },
      {
        "astId": 853,
        "contract": "contracts/HolographERC20.sol:HolographERC20",
        "label": "_symbol",
        "offset": 0,
        "slot": "11",
        "type": "t_string_storage"
      },
      {
        "astId": 856,
        "contract": "contracts/HolographERC20.sol:HolographERC20",
        "label": "_decimals",
        "offset": 0,
        "slot": "12",
        "type": "t_uint8"
      },
      {
        "astId": 862,
        "contract": "contracts/HolographERC20.sol:HolographERC20",
        "label": "_nonces",
        "offset": 0,
        "slot": "13",
        "type": "t_mapping(t_address,t_struct(Counter)13556_storage)"
      }
    ],
    "types": {
      "t_address": {
        "encoding": "inplace",
        "label": "address",
        "numberOfBytes": "20"
      },
      "t_bytes32": {
        "encoding": "inplace",
        "label": "bytes32",
        "numberOfBytes": "32"
      },
      "t_mapping(t_address,t_mapping(t_address,t_uint256))": {
        "encoding": "mapping",
        "key": "t_address",
        "label": "mapping(address => mapping(address => uint256))",
        "numberOfBytes": "32",
        "value": "t_mapping(t_address,t_uint256)"
      },
      "t_mapping(t_address,t_struct(Counter)13556_storage)": {
        "encoding": "mapping",
        "key": "t_address",
        "label": "mapping(address => struct Counters.Counter)",
        "numberOfBytes": "32",
        "value": "t_struct(Counter)13556_storage"
      },
      "t_mapping(t_address,t_uint256)": {
        "encoding": "mapping",
        "key": "t_address",
        "label": "mapping(address => uint256)",
        "numberOfBytes": "32",
        "value": "t_uint256"
      },
      "t_string_storage": {
        "encoding": "bytes",
        "label": "string",
        "numberOfBytes": "32"
      },
      "t_struct(Counter)13556_storage": {
        "encoding": "inplace",
        "label": "struct Counters.Counter",
        "members": [
          {
            "astId": 13555,
            "contract": "contracts/HolographERC20.sol:HolographERC20",
            "label": "_value",
            "offset": 0,
            "slot": "0",
            "type": "t_uint256"
          }
        ],
        "numberOfBytes": "32"
      },
      "t_uint256": {
        "encoding": "inplace",
        "label": "uint256",
        "numberOfBytes": "32"
      },
      "t_uint8": {
        "encoding": "inplace",
        "label": "uint8",
        "numberOfBytes": "1"
      }
    }
  }
}