{
  "address": "0xc5d2D6EcBa097b4609f25C50Fa3571729dEc202a",
  "abi": [
    {
      "inputs": [],
      "stateMutability": "nonpayable",
      "type": "constructor"
    },
    {
      "anonymous": false,
      "inputs": [
        {
          "indexed": true,
          "internalType": "address",
          "name": "_owner",
          "type": "address"
        },
        {
          "indexed": true,
          "internalType": "address",
          "name": "_approved",
          "type": "address"
        },
        {
          "indexed": true,
          "internalType": "uint256",
          "name": "_tokenId",
          "type": "uint256"
        }
      ],
      "name": "Approval",
      "type": "event"
    },
    {
      "anonymous": false,
      "inputs": [
        {
          "indexed": true,
          "internalType": "address",
          "name": "_owner",
          "type": "address"
        },
        {
          "indexed": true,
          "internalType": "address",
          "name": "_operator",
          "type": "address"
        },
        {
          "indexed": false,
          "internalType": "bool",
          "name": "_approved",
          "type": "bool"
        }
      ],
      "name": "ApprovalForAll",
      "type": "event"
    },
    {
      "anonymous": false,
      "inputs": [
        {
          "indexed": true,
          "internalType": "address",
          "name": "previousOwner",
          "type": "address"
        },
        {
          "indexed": true,
          "internalType": "address",
          "name": "newOwner",
          "type": "address"
        }
      ],
      "name": "OwnershipTransferred",
      "type": "event"
    },
    {
      "anonymous": false,
      "inputs": [
        {
          "indexed": true,
          "internalType": "address",
          "name": "_from",
          "type": "address"
        },
        {
          "indexed": true,
          "internalType": "address",
          "name": "_to",
          "type": "address"
        },
        {
          "indexed": true,
          "internalType": "uint256",
          "name": "_tokenId",
          "type": "uint256"
        }
      ],
      "name": "Transfer",
      "type": "event"
    },
    {
      "stateMutability": "payable",
      "type": "fallback"
    },
    {
      "inputs": [],
      "name": "admin",
      "outputs": [
        {
          "internalType": "address",
          "name": "",
          "type": "address"
        }
      ],
      "stateMutability": "view",
      "type": "function"
    },
    {
      "inputs": [
        {
          "internalType": "address",
          "name": "target",
          "type": "address"
        },
        {
          "internalType": "bytes",
          "name": "data",
          "type": "bytes"
        }
      ],
      "name": "adminCall",
      "outputs": [],
      "stateMutability": "payable",
      "type": "function"
    },
    {
      "inputs": [
        {
          "internalType": "address",
          "name": "to",
          "type": "address"
        },
        {
          "internalType": "uint256",
          "name": "tokenId",
          "type": "uint256"
        }
      ],
      "name": "approve",
      "outputs": [],
      "stateMutability": "payable",
      "type": "function"
    },
    {
      "inputs": [
        {
          "internalType": "address",
          "name": "wallet",
          "type": "address"
        }
      ],
      "name": "balanceOf",
      "outputs": [
        {
          "internalType": "uint256",
          "name": "",
          "type": "uint256"
        }
      ],
      "stateMutability": "view",
      "type": "function"
    },
    {
      "inputs": [
        {
          "internalType": "uint256",
          "name": "tokenId",
          "type": "uint256"
        }
      ],
      "name": "burn",
      "outputs": [],
      "stateMutability": "nonpayable",
      "type": "function"
    },
    {
      "inputs": [
        {
          "internalType": "uint256",
          "name": "tokenId",
          "type": "uint256"
        }
      ],
      "name": "burned",
      "outputs": [
        {
          "internalType": "bool",
          "name": "",
          "type": "bool"
        }
      ],
      "stateMutability": "view",
      "type": "function"
    },
    {
      "inputs": [],
      "name": "contractURI",
      "outputs": [
        {
          "internalType": "string",
          "name": "",
          "type": "string"
        }
      ],
      "stateMutability": "view",
      "type": "function"
    },
    {
      "inputs": [],
      "name": "decimals",
      "outputs": [
        {
          "internalType": "uint256",
          "name": "",
          "type": "uint256"
        }
      ],
      "stateMutability": "view",
      "type": "function"
    },
    {
      "inputs": [
        {
          "internalType": "uint256",
          "name": "tokenId",
          "type": "uint256"
        }
      ],
      "name": "exists",
      "outputs": [
        {
          "internalType": "bool",
          "name": "",
          "type": "bool"
        }
      ],
      "stateMutability": "view",
      "type": "function"
    },
    {
      "inputs": [],
      "name": "getAdmin",
      "outputs": [
        {
          "internalType": "address",
          "name": "adminAddress",
          "type": "address"
        }
      ],
      "stateMutability": "view",
      "type": "function"
    },
    {
      "inputs": [
        {
          "internalType": "uint256",
          "name": "tokenId",
          "type": "uint256"
        }
      ],
      "name": "getApproved",
      "outputs": [
        {
          "internalType": "address",
          "name": "",
          "type": "address"
        }
      ],
      "stateMutability": "view",
      "type": "function"
    },
    {
      "inputs": [],
      "name": "getOwner",
      "outputs": [
        {
          "internalType": "address",
          "name": "ownerAddress",
          "type": "address"
        }
      ],
      "stateMutability": "view",
      "type": "function"
    },
    {
      "inputs": [
        {
          "internalType": "uint32",
          "name": "chainType",
          "type": "uint32"
        },
        {
          "internalType": "address",
          "name": "from",
          "type": "address"
        },
        {
          "internalType": "address",
          "name": "to",
          "type": "address"
        },
        {
          "internalType": "uint256",
          "name": "tokenId",
          "type": "uint256"
        },
        {
          "internalType": "bytes",
          "name": "data",
          "type": "bytes"
        }
      ],
      "name": "holographBridgeIn",
      "outputs": [
        {
          "internalType": "bytes4",
          "name": "",
          "type": "bytes4"
        }
      ],
      "stateMutability": "nonpayable",
      "type": "function"
    },
    {
      "inputs": [
        {
          "internalType": "uint32",
          "name": "chainType",
          "type": "uint32"
        },
        {
          "internalType": "address",
          "name": "from",
          "type": "address"
        },
        {
          "internalType": "address",
          "name": "to",
          "type": "address"
        },
        {
          "internalType": "uint256",
          "name": "tokenId",
          "type": "uint256"
        }
      ],
      "name": "holographBridgeOut",
      "outputs": [
        {
          "internalType": "bytes4",
          "name": "selector",
          "type": "bytes4"
        },
        {
          "internalType": "bytes",
          "name": "data",
          "type": "bytes"
        }
      ],
      "stateMutability": "nonpayable",
      "type": "function"
    },
    {
      "inputs": [
        {
          "internalType": "bytes",
          "name": "data",
          "type": "bytes"
        }
      ],
      "name": "init",
      "outputs": [
        {
          "internalType": "bytes4",
          "name": "",
          "type": "bytes4"
        }
      ],
      "stateMutability": "nonpayable",
      "type": "function"
    },
    {
      "inputs": [
        {
          "internalType": "address",
          "name": "wallet",
          "type": "address"
        },
        {
          "internalType": "address",
          "name": "operator",
          "type": "address"
        }
      ],
      "name": "isApprovedForAll",
      "outputs": [
        {
          "internalType": "bool",
          "name": "",
          "type": "bool"
        }
      ],
      "stateMutability": "view",
      "type": "function"
    },
    {
      "inputs": [],
      "name": "name",
      "outputs": [
        {
          "internalType": "string",
          "name": "",
          "type": "string"
        }
      ],
      "stateMutability": "view",
      "type": "function"
    },
    {
      "inputs": [
        {
          "internalType": "address",
          "name": "_operator",
          "type": "address"
        },
        {
          "internalType": "address",
          "name": "_from",
          "type": "address"
        },
        {
          "internalType": "uint256",
          "name": "_tokenId",
          "type": "uint256"
        },
        {
          "internalType": "bytes",
          "name": "_data",
          "type": "bytes"
        }
      ],
      "name": "onERC721Received",
      "outputs": [
        {
          "internalType": "bytes4",
          "name": "",
          "type": "bytes4"
        }
      ],
      "stateMutability": "nonpayable",
      "type": "function"
    },
    {
      "inputs": [],
      "name": "owner",
      "outputs": [
        {
          "internalType": "address",
          "name": "",
          "type": "address"
        }
      ],
      "stateMutability": "view",
      "type": "function"
    },
    {
      "inputs": [
        {
          "internalType": "address",
          "name": "target",
          "type": "address"
        },
        {
          "internalType": "bytes",
          "name": "data",
          "type": "bytes"
        }
      ],
      "name": "ownerCall",
      "outputs": [],
      "stateMutability": "payable",
      "type": "function"
    },
    {
      "inputs": [
        {
          "internalType": "uint256",
          "name": "tokenId",
          "type": "uint256"
        }
      ],
      "name": "ownerOf",
      "outputs": [
        {
          "internalType": "address",
          "name": "",
          "type": "address"
        }
      ],
      "stateMutability": "view",
      "type": "function"
    },
    {
      "inputs": [
        {
          "internalType": "address",
          "name": "from",
          "type": "address"
        },
        {
          "internalType": "address",
          "name": "to",
          "type": "address"
        },
        {
          "internalType": "uint256",
          "name": "tokenId",
          "type": "uint256"
        }
      ],
      "name": "safeTransferFrom",
      "outputs": [],
      "stateMutability": "payable",
      "type": "function"
    },
    {
      "inputs": [
        {
          "internalType": "address",
          "name": "from",
          "type": "address"
        },
        {
          "internalType": "address",
          "name": "to",
          "type": "address"
        },
        {
          "internalType": "uint256",
          "name": "tokenId",
          "type": "uint256"
        },
        {
          "internalType": "bytes",
          "name": "data",
          "type": "bytes"
        }
      ],
      "name": "safeTransferFrom",
      "outputs": [],
      "stateMutability": "payable",
      "type": "function"
    },
    {
      "inputs": [
        {
          "internalType": "address",
          "name": "adminAddress",
          "type": "address"
        }
      ],
      "name": "setAdmin",
      "outputs": [],
      "stateMutability": "nonpayable",
      "type": "function"
    },
    {
      "inputs": [
        {
          "internalType": "address",
          "name": "to",
          "type": "address"
        },
        {
          "internalType": "bool",
          "name": "approved",
          "type": "bool"
        }
      ],
      "name": "setApprovalForAll",
      "outputs": [],
      "stateMutability": "nonpayable",
      "type": "function"
    },
    {
      "inputs": [
        {
          "internalType": "address",
          "name": "ownerAddress",
          "type": "address"
        }
      ],
      "name": "setOwner",
      "outputs": [],
      "stateMutability": "nonpayable",
      "type": "function"
    },
    {
      "inputs": [
        {
          "internalType": "uint256",
          "name": "tokenId",
          "type": "uint256"
        }
      ],
      "name": "sourceBurn",
      "outputs": [],
      "stateMutability": "nonpayable",
      "type": "function"
    },
    {
      "inputs": [],
      "name": "sourceGetChainPrepend",
      "outputs": [
        {
          "internalType": "uint256",
          "name": "",
          "type": "uint256"
        }
      ],
      "stateMutability": "view",
      "type": "function"
    },
    {
      "inputs": [
        {
          "internalType": "address",
          "name": "to",
          "type": "address"
        },
        {
          "internalType": "uint224",
          "name": "tokenId",
          "type": "uint224"
        }
      ],
      "name": "sourceMint",
      "outputs": [],
      "stateMutability": "nonpayable",
      "type": "function"
    },
    {
      "inputs": [
        {
          "internalType": "address[]",
          "name": "wallets",
          "type": "address[]"
        },
        {
          "internalType": "uint224[]",
          "name": "tokenIds",
          "type": "uint224[]"
        }
      ],
      "name": "sourceMintBatch",
      "outputs": [],
      "stateMutability": "nonpayable",
      "type": "function"
    },
    {
      "inputs": [
        {
          "internalType": "address",
          "name": "to",
          "type": "address"
        },
        {
          "internalType": "uint224[]",
          "name": "tokenIds",
          "type": "uint224[]"
        }
      ],
      "name": "sourceMintBatch",
      "outputs": [],
      "stateMutability": "nonpayable",
      "type": "function"
    },
    {
      "inputs": [
        {
          "internalType": "address",
          "name": "to",
          "type": "address"
        },
        {
          "internalType": "uint224",
          "name": "startingTokenId",
          "type": "uint224"
        },
        {
          "internalType": "uint256",
          "name": "length",
          "type": "uint256"
        }
      ],
      "name": "sourceMintBatchIncremental",
      "outputs": [],
      "stateMutability": "nonpayable",
      "type": "function"
    },
    {
      "inputs": [
        {
          "internalType": "address",
          "name": "to",
          "type": "address"
        },
        {
          "internalType": "uint256",
          "name": "tokenId",
          "type": "uint256"
        }
      ],
      "name": "sourceTransfer",
      "outputs": [],
      "stateMutability": "nonpayable",
      "type": "function"
    },
    {
      "inputs": [
        {
          "internalType": "bytes4",
          "name": "interfaceId",
          "type": "bytes4"
        }
      ],
      "name": "supportsInterface",
      "outputs": [
        {
          "internalType": "bool",
          "name": "",
          "type": "bool"
        }
      ],
      "stateMutability": "view",
      "type": "function"
    },
    {
      "inputs": [],
      "name": "symbol",
      "outputs": [
        {
          "internalType": "string",
          "name": "",
          "type": "string"
        }
      ],
      "stateMutability": "view",
      "type": "function"
    },
    {
      "inputs": [
        {
          "internalType": "uint256",
          "name": "index",
          "type": "uint256"
        }
      ],
      "name": "tokenByIndex",
      "outputs": [
        {
          "internalType": "uint256",
          "name": "",
          "type": "uint256"
        }
      ],
      "stateMutability": "view",
      "type": "function"
    },
    {
      "inputs": [
        {
          "internalType": "address",
          "name": "wallet",
          "type": "address"
        },
        {
          "internalType": "uint256",
          "name": "index",
          "type": "uint256"
        }
      ],
      "name": "tokenOfOwnerByIndex",
      "outputs": [
        {
          "internalType": "uint256",
          "name": "",
          "type": "uint256"
        }
      ],
      "stateMutability": "view",
      "type": "function"
    },
    {
      "inputs": [
        {
          "internalType": "uint256",
          "name": "tokenId",
          "type": "uint256"
        }
      ],
      "name": "tokenURI",
      "outputs": [
        {
          "internalType": "string",
          "name": "",
          "type": "string"
        }
      ],
      "stateMutability": "view",
      "type": "function"
    },
    {
      "inputs": [
        {
          "internalType": "uint256",
          "name": "index",
          "type": "uint256"
        },
        {
          "internalType": "uint256",
          "name": "length",
          "type": "uint256"
        }
      ],
      "name": "tokens",
      "outputs": [
        {
          "internalType": "uint256[]",
          "name": "tokenIds",
          "type": "uint256[]"
        }
      ],
      "stateMutability": "view",
      "type": "function"
    },
    {
      "inputs": [
        {
          "internalType": "address",
          "name": "wallet",
          "type": "address"
        }
      ],
      "name": "tokensOfOwner",
      "outputs": [
        {
          "internalType": "uint256[]",
          "name": "",
          "type": "uint256[]"
        }
      ],
      "stateMutability": "view",
      "type": "function"
    },
    {
      "inputs": [
        {
          "internalType": "address",
          "name": "wallet",
          "type": "address"
        },
        {
          "internalType": "uint256",
          "name": "index",
          "type": "uint256"
        },
        {
          "internalType": "uint256",
          "name": "length",
          "type": "uint256"
        }
      ],
      "name": "tokensOfOwner",
      "outputs": [
        {
          "internalType": "uint256[]",
          "name": "tokenIds",
          "type": "uint256[]"
        }
      ],
      "stateMutability": "view",
      "type": "function"
    },
    {
      "inputs": [],
      "name": "totalSupply",
      "outputs": [
        {
          "internalType": "uint256",
          "name": "",
          "type": "uint256"
        }
      ],
      "stateMutability": "view",
      "type": "function"
    },
    {
      "inputs": [
        {
          "internalType": "address",
          "name": "to",
          "type": "address"
        },
        {
          "internalType": "uint256",
          "name": "tokenId",
          "type": "uint256"
        }
      ],
      "name": "transfer",
      "outputs": [],
      "stateMutability": "payable",
      "type": "function"
    },
    {
      "inputs": [
        {
          "internalType": "address",
          "name": "from",
          "type": "address"
        },
        {
          "internalType": "address",
          "name": "to",
          "type": "address"
        },
        {
          "internalType": "uint256",
          "name": "tokenId",
          "type": "uint256"
        }
      ],
      "name": "transferFrom",
      "outputs": [],
      "stateMutability": "payable",
      "type": "function"
    },
    {
      "inputs": [
        {
          "internalType": "address",
          "name": "from",
          "type": "address"
        },
        {
          "internalType": "address",
          "name": "to",
          "type": "address"
        },
        {
          "internalType": "uint256",
          "name": "tokenId",
          "type": "uint256"
        },
        {
          "internalType": "bytes",
          "name": "data",
          "type": "bytes"
        }
      ],
      "name": "transferFrom",
      "outputs": [],
      "stateMutability": "payable",
      "type": "function"
    },
    {
      "inputs": [
        {
          "internalType": "address",
          "name": "newOwner",
          "type": "address"
        }
      ],
      "name": "transferOwnership",
      "outputs": [],
      "stateMutability": "nonpayable",
      "type": "function"
    },
    {
      "stateMutability": "payable",
      "type": "receive"
    }
  ],
  "transactionHash": "0x95cf93f4b37acce504e24f531bba4990cd3c13c1e0d480afd20bf3fcc3022c89",
  "args": [],
  "numDeployments": 2,
  "solcInputHash": "97985b86c6506eb254f6560c13067d69",
  "bytecode": "0x608060405234801561001057600080fd5b50615eeb80620000216000396000f3fe6080604052600436106103015760003560e01c806377dbd8631161018f578063b88d4fde116100e1578063e8a3d4851161008a578063f2fde38b11610064578063f2fde38b14610a31578063f851a44014610a51578063fadcd09114610a6657610308565b8063e8a3d485146109b3578063e985e9c5146109c8578063eb66dbcf14610a1e57610308565b8063c839fe94116100bb578063c839fe9414610945578063c87b56dd14610965578063de8b1ef11461098557610308565b8063b88d4fde146108ff578063bf64a82d14610912578063c5655fce1461092557610308565b806395a1299a11610143578063a3ee19bc1161011d578063a3ee19bc146108b9578063a9059cbb146108d9578063ab67aa58146108ec57610308565b806395a1299a1461086457806395d89b4114610884578063a22cb4651461089957610308565b8063893d20e811610174578063893d20e8146107fb5780638b4864d61461082f5780638da5cb5b1461084f57610308565b806377dbd863146107b95780638462151c146107ce57610308565b80632f745c59116102535780634f558e79116101fc5780636e9960c3116101d65780636e9960c314610745578063704b6c021461077957806370a082311461079957610308565b80634f558e79146106c05780634f6ccce7146107055780636352211e1461072557610308565b806342842e0e1161022d57806342842e0e1461066d57806342966c68146106805780634ddf47d4146106a057610308565b80632f745c5914610619578063313ce567146106395780633b4f1b261461064d57610308565b8063150b7a02116102b557806323250cae1161028f57806323250cae146105b657806323b872dd146105e6578063275ccf2c146105f957610308565b8063150b7a021461052257806318160ddd1461057357806321d6846f1461059657610308565b8063081812fc116102e6578063081812fc14610487578063095ea7b3146104ef57806313af40351461050257610308565b806301ffc9a71461043057806306fdde031461046557610308565b3661030857005b6000610312610a86565b73ffffffffffffffffffffffffffffffffffffffff16639fe7303f60046000357fffffffff00000000000000000000000000000000000000000000000000000000166040518363ffffffff1660e01b8152600401610371929190614fc0565b602060405180830381865afa15801561038e573d6000803e3d6000fd5b505050506040513d601f19601f820116820180604052508101906103b29190615045565b156103e5576103bf610b23565b90503660008037600080366000845af43d6000803e8080156103e0573d6000f35b3d6000fd5b507fee63e41dd03b4d304382a6596ec5f4a6eb601d3640835d27fca1d0be62955bb554366000803733365260008060203601600034855af13d6000803e8080156103e0573d6000f35b005b34801561043c57600080fd5b5061045061044b366004615090565b610c2b565b60405190151581526020015b60405180910390f35b34801561047157600080fd5b5061047a610e65565b60405161045c9190615123565b34801561049357600080fd5b506104ca6104a2366004615136565b60009081526007602052604090205473ffffffffffffffffffffffffffffffffffffffff1690565b60405173ffffffffffffffffffffffffffffffffffffffff909116815260200161045c565b61042e6104fd366004615171565b610ef7565b34801561050e57600080fd5b5061042e61051d36600461519d565b611206565b34801561052e57600080fd5b5061054261053d366004615203565b611369565b6040517fffffffff00000000000000000000000000000000000000000000000000000000909116815260200161045c565b34801561057f57600080fd5b506105886116da565b60405190815260200161045c565b3480156105a257600080fd5b506105426105b1366004615288565b6116f2565b3480156105c257600080fd5b506104506105d1366004615136565b6000908152600c602052604090205460ff1690565b61042e6105f436600461530d565b611988565b34801561060557600080fd5b5061042e610614366004615393565b6119a3565b34801561062557600080fd5b50610588610634366004615171565b611bde565b34801561064557600080fd5b506012610588565b34801561065957600080fd5b5061042e61066836600461542b565b611c9b565b61042e61067b36600461530d565b611e60565b34801561068c57600080fd5b5061042e61069b366004615136565b611e7b565b3480156106ac57600080fd5b506105426106bb36600461557a565b612095565b3480156106cc57600080fd5b506104506106db366004615136565b60009081526006602052604090205473ffffffffffffffffffffffffffffffffffffffff16151590565b34801561071157600080fd5b50610588610720366004615136565b612565565b34801561073157600080fd5b506104ca610740366004615136565b6125f8565b34801561075157600080fd5b507f5705f5753aa4f617eef2cae1dada3d3355e9387b04d19191f09b545e684ca50d546104ca565b34801561078557600080fd5b5061042e61079436600461519d565b61268a565b3480156107a557600080fd5b506105886107b436600461519d565b612764565b3480156107c557600080fd5b5061058861280c565b3480156107da57600080fd5b506107ee6107e936600461519d565b612923565b60405161045c91906155af565b34801561080757600080fd5b507f89b583059fdb0b2e807359b64eba1a8a1e6d099210701fafe6dad5dd2cd64fb8546104ca565b34801561083b57600080fd5b506107ee61084a3660046155f3565b61299c565b34801561085b57600080fd5b506104ca612a6e565b34801561087057600080fd5b5061042e61087f366004615615565b612ae2565b34801561089057600080fd5b5061047a612cd5565b3480156108a557600080fd5b5061042e6108b4366004615653565b612ce4565b3480156108c557600080fd5b5061042e6108d436600461568c565b612f27565b61042e6108e7366004615171565b6131ac565b61042e6108fa3660046156e1565b6131c3565b61042e61090d3660046156e1565b613386565b61042e61092036600461574d565b613776565b34801561093157600080fd5b5061042e610940366004615171565b61384c565b34801561095157600080fd5b506107ee610960366004615795565b6139ce565b34801561097157600080fd5b5061047a610980366004615136565b613ae7565b34801561099157600080fd5b506109a56109a03660046157ca565b613c49565b60405161045c92919061581b565b3480156109bf57600080fd5b5061047a613e0a565b3480156109d457600080fd5b506104506109e3366004615856565b73ffffffffffffffffffffffffffffffffffffffff9182166000908152600a6020908152604080832093909416825291909152205460ff1690565b61042e610a2c36600461574d565b613ed6565b348015610a3d57600080fd5b5061042e610a4c36600461519d565b613f8c565b348015610a5d57600080fd5b506104ca6140e3565b348015610a7257600080fd5b5061042e610a81366004615136565b61410d565b6000610ab07f1eee493315beeac80829afd0aaa340f3821cabe68571a2743478e81638a3d94d5490565b73ffffffffffffffffffffffffffffffffffffffff1663ebac15f96040518163ffffffff1660e01b8152600401602060405180830381865afa158015610afa573d6000803e3d6000fd5b505050506040513d601f19601f82011682018060405250810190610b1e9190615884565b905090565b6000610b4d7f1eee493315beeac80829afd0aaa340f3821cabe68571a2743478e81638a3d94d5490565b73ffffffffffffffffffffffffffffffffffffffff16635ab1bd536040518163ffffffff1660e01b8152600401602060405180830381865afa158015610b97573d6000803e3d6000fd5b505050506040513d601f19601f82011682018060405250810190610bbb9190615884565b6040517fcc2913f90000000000000000000000000000000000000000000000000000000081526350413144600482015273ffffffffffffffffffffffffffffffffffffffff919091169063cc2913f990602401602060405180830381865afa158015610afa573d6000803e3d6000fd5b6000610c35610a86565b73ffffffffffffffffffffffffffffffffffffffff16639fe7303f6002846040518363ffffffff1660e01b8152600401610c70929190614fc0565b602060405180830381865afa158015610c8d573d6000803e3d6000fd5b505050506040513d601f19601f82011682018060405250810190610cb19190615045565b80610d715750610cbf610b23565b6040517f01ffc9a70000000000000000000000000000000000000000000000000000000081527fffffffff000000000000000000000000000000000000000000000000000000008416600482015273ffffffffffffffffffffffffffffffffffffffff91909116906301ffc9a790602401602060405180830381865afa158015610d4d573d6000803e3d6000fd5b505050506040513d601f19601f82011682018060405250810190610d719190615045565b80610e4b57507fee63e41dd03b4d304382a6596ec5f4a6eb601d3640835d27fca1d0be62955bb5546040517f01ffc9a70000000000000000000000000000000000000000000000000000000081527fffffffff000000000000000000000000000000000000000000000000000000008416600482015273ffffffffffffffffffffffffffffffffffffffff91909116906301ffc9a790602401602060405180830381865afa158015610e27573d6000803e3d6000fd5b505050506040513d601f19601f82011682018060405250810190610e4b9190615045565b15610e5857506001919050565b506000919050565b919050565b606060018054610e74906158a1565b80601f0160208091040260200160405190810160405280929190818152602001828054610ea0906158a1565b8015610eed5780601f10610ec257610100808354040283529160200191610eed565b820191906000526020600020905b815481529060010190602001808311610ed057829003601f168201915b5050505050905090565b60008181526006602052604090205473ffffffffffffffffffffffffffffffffffffffff908116908316819003610f8f576040517f08c379a000000000000000000000000000000000000000000000000000000000815260206004820152601b60248201527f4552433732313a2063616e6e6f7420617070726f76652073656c66000000000060448201526064015b60405180910390fd5b610f99338361428e565b610fff576040517f08c379a000000000000000000000000000000000000000000000000000000000815260206004820152601b60248201527f4552433732313a206e6f7420617070726f7665642073656e64657200000000006044820152606401610f86565b61100960046143bb565b156110c2576110166143ed565b6040517f47abf3be00000000000000000000000000000000000000000000000000000000815273ffffffffffffffffffffffffffffffffffffffff838116600483015285811660248301526044820185905291909116906347abf3be906064016020604051808303816000875af1158015611095573d6000803e3d6000fd5b505050506040513d601f19601f820116820180604052508101906110b99190615045565b6110c257600080fd5b60008281526007602052604080822080547fffffffffffffffffffffffff00000000000000000000000000000000000000001673ffffffffffffffffffffffffffffffffffffffff87811691821790925591518593918516917f8c5be1e5ebec7d5bd14f71427d1e84f3dd0314c0f7b2291e5b200ac8c7c3b92591a461114860036143bb565b15611201576111556143ed565b6040517f900f66ef00000000000000000000000000000000000000000000000000000000815273ffffffffffffffffffffffffffffffffffffffff8381166004830152858116602483015260448201859052919091169063900f66ef906064016020604051808303816000875af11580156111d4573d6000803e3d6000fd5b505050506040513d601f19601f820116820180604052508101906111f89190615045565b61120157600080fd5b505050565b7f89b583059fdb0b2e807359b64eba1a8a1e6d099210701fafe6dad5dd2cd64fb85473ffffffffffffffffffffffffffffffffffffffff163373ffffffffffffffffffffffffffffffffffffffff16146112bc576040517f08c379a000000000000000000000000000000000000000000000000000000000815260206004820152601e60248201527f484f4c4f47524150483a206f776e6572206f6e6c792066756e6374696f6e00006044820152606401610f86565b60006112e67f89b583059fdb0b2e807359b64eba1a8a1e6d099210701fafe6dad5dd2cd64fb85490565b9050817f89b583059fdb0b2e807359b64eba1a8a1e6d099210701fafe6dad5dd2cd64fb8558173ffffffffffffffffffffffffffffffffffffffff168173ffffffffffffffffffffffffffffffffffffffff167f8be0079c531659141344cd1fd0a4f28419497f9722a3daafe3b4186f6b6457e060405160405180910390a35050565b600061137486614417565b6113da576040517f08c379a000000000000000000000000000000000000000000000000000000000815260206004820152601d60248201527f4552433732313a206f70657261746f72206e6f7420636f6e74726163740000006044820152606401610f86565b6113e4600f6143bb565b1561147f576113f16143ed565b73ffffffffffffffffffffffffffffffffffffffff166368fd76b28787308888886040518763ffffffff1660e01b81526004016114339695949392919061593d565b6020604051808303816000875af1158015611452573d6000803e3d6000fd5b505050506040513d601f19601f820116820180604052508101906114769190615045565b61147f57600080fd5b6040517f6352211e0000000000000000000000000000000000000000000000000000000081526004810185905273ffffffffffffffffffffffffffffffffffffffff871690636352211e90602401602060405180830381865afa925050508015611524575060408051601f3d9081017fffffffffffffffffffffffffffffffffffffffffffffffffffffffffffffffe016820190925261152191810190615884565b60015b61158a576040517f08c379a000000000000000000000000000000000000000000000000000000000815260206004820152601c60248201527f4552433732313a20746f6b656e20646f6573206e6f74206578697374000000006044820152606401610f86565b73ffffffffffffffffffffffffffffffffffffffff81163014611609576040517f08c379a000000000000000000000000000000000000000000000000000000000815260206004820181905260248201527f4552433732313a20636f6e7472616374206e6f7420746f6b656e206f776e65726044820152606401610f86565b5061161460106143bb565b156116af576116216143ed565b73ffffffffffffffffffffffffffffffffffffffff1663462b401a8787308888886040518763ffffffff1660e01b81526004016116639695949392919061593d565b6020604051808303816000875af1158015611682573d6000803e3d6000fd5b505050506040513d601f19601f820116820180604052508101906116a69190615045565b6116af57600080fd5b507f150b7a020000000000000000000000000000000000000000000000000000000095945050505050565b600454600090610b1e90670de0b6b3a76400006159c0565b60006116fc614451565b73ffffffffffffffffffffffffffffffffffffffff163373ffffffffffffffffffffffffffffffffffffffff1614611790576040517f08c379a000000000000000000000000000000000000000000000000000000000815260206004820152601c60248201527f4552433732313a206f6e6c79206272696467652063616e2063616c6c000000006044820152606401610f86565b60008481526006602052604090205473ffffffffffffffffffffffffffffffffffffffff161561181c576040517f08c379a000000000000000000000000000000000000000000000000000000000815260206004820152601c60248201527f4552433732313a20746f6b656e20616c726561647920657869737473000000006044820152606401610f86565b6000848152600c6020526040902080547fffffffffffffffffffffffffffffffffffffffffffffffffffffffffffffff0016905561185a85856144c5565b61186460016143bb565b1561195c576118716143ed565b73ffffffffffffffffffffffffffffffffffffffff1663f0f540738888888888886040518763ffffffff1660e01b81526004016118b3969594939291906159fd565b6020604051808303816000875af11580156118d2573d6000803e3d6000fd5b505050506040513d601f19601f820116820180604052508101906118f69190615045565b61195c576040517f08c379a000000000000000000000000000000000000000000000000000000000815260206004820152601b60248201527f484f4c4f47524150483a2062726964676520696e206661696c656400000000006044820152606401610f86565b507f21d6846f000000000000000000000000000000000000000000000000000000009695505050505050565b611201838383604051806020016040528060008152506131c3565b7fee63e41dd03b4d304382a6596ec5f4a6eb601d3640835d27fca1d0be62955bb55473ffffffffffffffffffffffffffffffffffffffff163373ffffffffffffffffffffffffffffffffffffffff1614611a59576040517f08c379a000000000000000000000000000000000000000000000000000000000815260206004820152601c60248201527f4552433732313a206f6e6c7920736f757263652063616e206d696e74000000006044820152606401610f86565b6000611a63614735565b90506000805b83811015611bd55782858583818110611a8457611a84615a49565b9050602002016020810190611a999190615a78565b604051602001611aff92919060e09290921b7fffffffff00000000000000000000000000000000000000000000000000000000168252602090811b7fffffffffffffffffffffffffffffffffffffffffffffffffffffffff000000001660048301520190565b604051602081830303815290604052611b1790615a93565b6000818152600c602052604090205490925060ff1615611b93576040517f08c379a000000000000000000000000000000000000000000000000000000000815260206004820152601f60248201527f4552433732313a2063616e2774206d696e74206275726e656420746f6b656e006044820152606401610f86565b611bc3878783818110611ba857611ba8615a49565b9050602002016020810190611bbd919061519d565b836144c5565b80611bcd81615ad5565b915050611a69565b50505050505050565b6000611be983612764565b8210611c51576040517f08c379a000000000000000000000000000000000000000000000000000000000815260206004820152601b60248201527f4552433732313a20696e646578206f7574206f6620626f756e647300000000006044820152606401610f86565b73ffffffffffffffffffffffffffffffffffffffff83166000908152600960205260409020805483908110611c8857611c88615a49565b9060005260206000200154905092915050565b7fee63e41dd03b4d304382a6596ec5f4a6eb601d3640835d27fca1d0be62955bb55473ffffffffffffffffffffffffffffffffffffffff163373ffffffffffffffffffffffffffffffffffffffff1614611d51576040517f08c379a000000000000000000000000000000000000000000000000000000000815260206004820152601c60248201527f4552433732313a206f6e6c7920736f757263652063616e206d696e74000000006044820152606401610f86565b6000611d5b614735565b82604051602001611dc292919060e09290921b7fffffffff00000000000000000000000000000000000000000000000000000000168252602090811b7fffffffffffffffffffffffffffffffffffffffffffffffffffffffff000000001660048301520190565b604051602081830303815290604052611dda90615a93565b6000818152600c602052604090205490915060ff1615611e56576040517f08c379a000000000000000000000000000000000000000000000000000000000815260206004820152601f60248201527f4552433732313a2063616e2774206d696e74206275726e656420746f6b656e006044820152606401610f86565b61120183826144c5565b61120183838360405180602001604052806000815250613386565b611e85338261428e565b611eeb576040517f08c379a000000000000000000000000000000000000000000000000000000000815260206004820152601b60248201527f4552433732313a206e6f7420617070726f7665642073656e64657200000000006044820152606401610f86565b60008181526006602052604090205473ffffffffffffffffffffffffffffffffffffffff16611f1a60086143bb565b15611fcb57611f276143ed565b6040517f4a1fefbd00000000000000000000000000000000000000000000000000000000815273ffffffffffffffffffffffffffffffffffffffff8381166004830152602482018590529190911690634a1fefbd906044016020604051808303816000875af1158015611f9e573d6000803e3d6000fd5b505050506040513d601f19601f82011682018060405250810190611fc29190615045565b611fcb57600080fd5b611fd581836148a5565b611fdf60076143bb565b1561209157611fec6143ed565b6040517f971c34b400000000000000000000000000000000000000000000000000000000815273ffffffffffffffffffffffffffffffffffffffff838116600483015260248201859052919091169063971c34b4906044015b6020604051808303816000875af1158015612064573d6000803e3d6000fd5b505050506040513d601f19601f820116820180604052508101906120889190615045565b61209157600080fd5b5050565b60006120c17f4e5f991bca30eca2d4643aaefa807e88f96a4a97398933d572a3c0d973004a0154151590565b15612128576040517f08c379a000000000000000000000000000000000000000000000000000000000815260206004820152601b60248201527f4552433732313a20616c726561647920696e697469616c697a656400000000006044820152606401610f86565b337f89b583059fdb0b2e807359b64eba1a8a1e6d099210701fafe6dad5dd2cd64fb855600080600080600080878060200190518101906121689190615b52565b955095509550955095509550856001908051906020019061218a929190614ed7565b50845161219e906002906020880190614ed7565b50600380547fffffffffffffffffffffffffffffffffffffffffffffffffffffffffffff00001661ffff861617905560008390558161250f577f4ddf47d4000000000000000000000000000000000000000000000000000000006122207fee63e41dd03b4d304382a6596ec5f4a6eb601d3640835d27fca1d0be62955bb55490565b73ffffffffffffffffffffffffffffffffffffffff16634ddf47d4836040518263ffffffff1660e01b81526004016122589190615123565b6020604051808303816000875af1158015612277573d6000803e3d6000fd5b505050506040513d601f19601f8201168201806040525081019061229b9190615c10565b7fffffffff000000000000000000000000000000000000000000000000000000001614612324576040517f08c379a000000000000000000000000000000000000000000000000000000000815260206004820152601d60248201527f4552433732313a20636f756c64206e6f7420696e697420736f757263650000006044820152606401610f86565b60008061232f610b23565b6040805130602082015261ffff8916818301528151808203830181526060820190925273ffffffffffffffffffffffffffffffffffffffff92909216916123799190608401615123565b604080517fffffffffffffffffffffffffffffffffffffffffffffffffffffffffffffffe08184030181529181526020820180517bffffffffffffffffffffffffffffffffffffffffffffffffffffffff167f65b85eb500000000000000000000000000000000000000000000000000000000179052516123fa9190615c2d565b600060405180830381855af49150503d8060008114612435576040519150601f19603f3d011682016040523d82523d6000602084013e61243a565b606091505b50915091506000818060200190518101906124559190615c10565b90508280156124a557507fffffffff0000000000000000000000000000000000000000000000000000000081167f4ddf47d400000000000000000000000000000000000000000000000000000000145b61250b576040517f08c379a000000000000000000000000000000000000000000000000000000000815260206004820152601a60248201527f4552433732313a20636f7564206e6f7420696e697420504131440000000000006044820152606401610f86565b5050505b61253860017f4e5f991bca30eca2d4643aaefa807e88f96a4a97398933d572a3c0d973004a0155565b507f4ddf47d400000000000000000000000000000000000000000000000000000000979650505050505050565b60045460009082106125d3576040517f08c379a000000000000000000000000000000000000000000000000000000000815260206004820152601b60248201527f4552433732313a20696e646578206f7574206f6620626f756e647300000000006044820152606401610f86565b600482815481106125e6576125e6615a49565b90600052602060002001549050919050565b60008181526006602052604081205473ffffffffffffffffffffffffffffffffffffffff1680612684576040517f08c379a000000000000000000000000000000000000000000000000000000000815260206004820152601c60248201527f4552433732313a20746f6b656e20646f6573206e6f74206578697374000000006044820152606401610f86565b92915050565b7f5705f5753aa4f617eef2cae1dada3d3355e9387b04d19191f09b545e684ca50d5473ffffffffffffffffffffffffffffffffffffffff163373ffffffffffffffffffffffffffffffffffffffff1614612740576040517f08c379a000000000000000000000000000000000000000000000000000000000815260206004820152601e60248201527f484f4c4f47524150483a2061646d696e206f6e6c792066756e6374696f6e00006044820152606401610f86565b7f5705f5753aa4f617eef2cae1dada3d3355e9387b04d19191f09b545e684ca50d55565b600073ffffffffffffffffffffffffffffffffffffffff82166127e3576040517f08c379a000000000000000000000000000000000000000000000000000000000815260206004820152601460248201527f4552433732313a207a65726f20616464726573730000000000000000000000006044820152606401610f86565b5073ffffffffffffffffffffffffffffffffffffffff1660009081526008602052604090205490565b60006128367fee63e41dd03b4d304382a6596ec5f4a6eb601d3640835d27fca1d0be62955bb55490565b73ffffffffffffffffffffffffffffffffffffffff163373ffffffffffffffffffffffffffffffffffffffff16146128ca576040517f08c379a000000000000000000000000000000000000000000000000000000000815260206004820152601e60248201527f4552433732313a206f6e6c7920736f75726365206e65656473207468697300006044820152606401610f86565b6128d2614735565b6040805160e09290921b7fffffffff000000000000000000000000000000000000000000000000000000001660208301526000602483015201604051602081830303815290604052610e6090615a93565b73ffffffffffffffffffffffffffffffffffffffff811660009081526009602090815260409182902080548351818402810184019094528084526060939283018282801561299057602002820191906000526020600020905b81548152602001906001019080831161297c575b50505050509050919050565b600454606090806129ad8486615c49565b11156129c0576129bd8482615c61565b92505b8267ffffffffffffffff8111156129d9576129d9615460565b604051908082528060200260200182016040528015612a02578160200160208202803683370190505b50915060005b83811015612a66576004612a1c8287615c49565b81548110612a2c57612a2c615a49565b9060005260206000200154838281518110612a4957612a49615a49565b602090810291909101015280612a5e81615ad5565b915050612a08565b505092915050565b6000612a987fee63e41dd03b4d304382a6596ec5f4a6eb601d3640835d27fca1d0be62955bb55490565b73ffffffffffffffffffffffffffffffffffffffff16638da5cb5b6040518163ffffffff1660e01b8152600401602060405180830381865afa158015610afa573d6000803e3d6000fd5b7fee63e41dd03b4d304382a6596ec5f4a6eb601d3640835d27fca1d0be62955bb55473ffffffffffffffffffffffffffffffffffffffff163373ffffffffffffffffffffffffffffffffffffffff1614612b98576040517f08c379a000000000000000000000000000000000000000000000000000000000815260206004820152601c60248201527f4552433732313a206f6e6c7920736f757263652063616e206d696e74000000006044820152606401610f86565b6000612ba2614735565b90506000805b83811015612ccd576040805160e085901b7fffffffff000000000000000000000000000000000000000000000000000000001660208083019190915287901b7fffffffffffffffffffffffffffffffffffffffffffffffffffffffff0000000016602482015201604051602081830303815290604052612c2790615a93565b6000818152600c602052604090205490925060ff1615612ca3576040517f08c379a000000000000000000000000000000000000000000000000000000000815260206004820152601f60248201527f4552433732313a2063616e2774206d696e74206275726e656420746f6b656e006044820152606401610f86565b612cad86836144c5565b84612cb781615c78565b9550508080612cc590615ad5565b915050612ba8565b505050505050565b606060028054610e74906158a1565b3373ffffffffffffffffffffffffffffffffffffffff831603612d63576040517f08c379a000000000000000000000000000000000000000000000000000000000815260206004820152601b60248201527f4552433732313a2063616e6e6f7420617070726f76652073656c6600000000006044820152606401610f86565b612d6d60066143bb565b15612e1f57612d7a6143ed565b6040517fa730629100000000000000000000000000000000000000000000000000000000815273ffffffffffffffffffffffffffffffffffffffff84811660048301528315156024830152919091169063a7306291906044016020604051808303816000875af1158015612df2573d6000803e3d6000fd5b505050506040513d601f19601f82011682018060405250810190612e169190615045565b612e1f57600080fd5b336000818152600a6020908152604080832073ffffffffffffffffffffffffffffffffffffffff87168085529083529281902080547fffffffffffffffffffffffffffffffffffffffffffffffffffffffffffffff001686151590811790915590519081529192917f17307eab39ab6107e8899845ad3d59bd9653f200f220920489ca2b5937696c31910160405180910390a3612ebc60056143bb565b1561209157612ec96143ed565b6040517f4ce71c2300000000000000000000000000000000000000000000000000000000815273ffffffffffffffffffffffffffffffffffffffff848116600483015283151560248301529190911690634ce71c2390604401612045565b7fee63e41dd03b4d304382a6596ec5f4a6eb601d3640835d27fca1d0be62955bb55473ffffffffffffffffffffffffffffffffffffffff163373ffffffffffffffffffffffffffffffffffffffff1614612fdd576040517f08c379a000000000000000000000000000000000000000000000000000000000815260206004820152601c60248201527f4552433732313a206f6e6c7920736f757263652063616e206d696e74000000006044820152606401610f86565b6000612fe7614735565b90506000805b83811015612ccd576000828152600c602052604090205460ff161561306e576040517f08c379a000000000000000000000000000000000000000000000000000000000815260206004820152601f60248201527f4552433732313a2063616e2774206d696e74206275726e656420746f6b656e006044820152606401610f86565b8285858381811061308157613081615a49565b90506020020160208101906130969190615a78565b6040516020016130fc92919060e09290921b7fffffffff00000000000000000000000000000000000000000000000000000000168252602090811b7fffffffffffffffffffffffffffffffffffffffffffffffffffffffff000000001660048301520190565b60405160208183030381529060405261311490615a93565b6000818152600c602052604090205490925060ff1615613190576040517f08c379a000000000000000000000000000000000000000000000000000000000815260206004820152601f60248201527f4552433732313a2063616e2774206d696e74206275726e656420746f6b656e006044820152606401610f86565b61319a86836144c5565b806131a481615ad5565b915050612fed565b612091338383604051806020016040528060008152505b6131cd338361428e565b613233576040517f08c379a000000000000000000000000000000000000000000000000000000000815260206004820152601b60248201527f4552433732313a206e6f7420617070726f7665642073656e64657200000000006044820152606401610f86565b61323d600e6143bb565b156132d45761324a6143ed565b73ffffffffffffffffffffffffffffffffffffffff1663343b278f858585856040518563ffffffff1660e01b81526004016132889493929190615cb3565b6020604051808303816000875af11580156132a7573d6000803e3d6000fd5b505050506040513d601f19601f820116820180604052508101906132cb9190615045565b6132d457600080fd5b6132df848484614993565b6132e9600d6143bb565b15613380576132f66143ed565b73ffffffffffffffffffffffffffffffffffffffff16630668af80858585856040518563ffffffff1660e01b81526004016133349493929190615cb3565b6020604051808303816000875af1158015613353573d6000803e3d6000fd5b505050506040513d601f19601f820116820180604052508101906133779190615045565b61338057600080fd5b50505050565b613390338361428e565b6133f6576040517f08c379a000000000000000000000000000000000000000000000000000000000815260206004820152601b60248201527f4552433732313a206e6f7420617070726f7665642073656e64657200000000006044820152606401610f86565b613400600c6143bb565b156134975761340d6143ed565b73ffffffffffffffffffffffffffffffffffffffff16632ca16676858585856040518563ffffffff1660e01b815260040161344b9493929190615cb3565b6020604051808303816000875af115801561346a573d6000803e3d6000fd5b505050506040513d601f19601f8201168201806040525081019061348e9190615045565b61349757600080fd5b6134a2848484614993565b6134ab83614417565b15613721576040517f01ffc9a700000000000000000000000000000000000000000000000000000000808252600482015273ffffffffffffffffffffffffffffffffffffffff8416906301ffc9a790602401602060405180830381865afa15801561351a573d6000803e3d6000fd5b505050506040513d601f19601f8201168201806040525081019061353e9190615045565b80156135f357506040517f01ffc9a70000000000000000000000000000000000000000000000000000000081527f150b7a0200000000000000000000000000000000000000000000000000000000600482015273ffffffffffffffffffffffffffffffffffffffff8416906301ffc9a790602401602060405180830381865afa1580156135cf573d6000803e3d6000fd5b505050506040513d601f19601f820116820180604052508101906135f39190615045565b80156136bb57506040517f150b7a02000000000000000000000000000000000000000000000000000000008082529073ffffffffffffffffffffffffffffffffffffffff85169063150b7a0290613654903090899088908890600401615cb3565b6020604051808303816000875af1158015613673573d6000803e3d6000fd5b505050506040513d601f19601f820116820180604052508101906136979190615c10565b7fffffffff0000000000000000000000000000000000000000000000000000000016145b613721576040517f08c379a000000000000000000000000000000000000000000000000000000000815260206004820152601d60248201527f4552433732313a206f6e4552433732315265636569766564206661696c0000006044820152606401610f86565b61372b600b6143bb565b15613380576137386143ed565b73ffffffffffffffffffffffffffffffffffffffff166336fff062858585856040518563ffffffff1660e01b81526004016133349493929190615cb3565b7f5705f5753aa4f617eef2cae1dada3d3355e9387b04d19191f09b545e684ca50d5473ffffffffffffffffffffffffffffffffffffffff163373ffffffffffffffffffffffffffffffffffffffff161461382c576040517f08c379a000000000000000000000000000000000000000000000000000000000815260206004820152601e60248201527f484f4c4f47524150483a2061646d696e206f6e6c792066756e6374696f6e00006044820152606401610f86565b808260003760008082600034875af13d6000803e8080156103e0573d6000f35b7fee63e41dd03b4d304382a6596ec5f4a6eb601d3640835d27fca1d0be62955bb55473ffffffffffffffffffffffffffffffffffffffff163373ffffffffffffffffffffffffffffffffffffffff1614613902576040517f08c379a000000000000000000000000000000000000000000000000000000000815260206004820181905260248201527f4552433732313a206f6e6c7920736f757263652063616e207472616e736665726044820152606401610f86565b60008181526006602052604090205473ffffffffffffffffffffffffffffffffffffffff1661392f614451565b73ffffffffffffffffffffffffffffffffffffffff168173ffffffffffffffffffffffffffffffffffffffff16036139c3576040517f08c379a000000000000000000000000000000000000000000000000000000000815260206004820152601860248201527f4552433732313a20746f6b656e206973206272696467656400000000000000006044820152606401610f86565b611201818484614993565b73ffffffffffffffffffffffffffffffffffffffff831660009081526008602052604090205460609080613a028486615c49565b1115613a1557613a128482615c61565b92505b8267ffffffffffffffff811115613a2e57613a2e615460565b604051908082528060200260200182016040528015613a57578160200160208202803683370190505b50915060005b83811015613ade5773ffffffffffffffffffffffffffffffffffffffff86166000908152600960205260409020613a948287615c49565b81548110613aa457613aa4615a49565b9060005260206000200154838281518110613ac157613ac1615a49565b602090810291909101015280613ad681615ad5565b915050613a5d565b50509392505050565b60008181526006602052604090205460609073ffffffffffffffffffffffffffffffffffffffff16613b75576040517f08c379a000000000000000000000000000000000000000000000000000000000815260206004820152601c60248201527f4552433732313a20746f6b656e20646f6573206e6f74206578697374000000006044820152606401610f86565b7fee63e41dd03b4d304382a6596ec5f4a6eb601d3640835d27fca1d0be62955bb5546040517fc87b56dd0000000000000000000000000000000000000000000000000000000081526004810184905273ffffffffffffffffffffffffffffffffffffffff9091169063c87b56dd90602401600060405180830381865afa158015613c03573d6000803e3d6000fd5b505050506040513d6000823e601f3d9081017fffffffffffffffffffffffffffffffffffffffffffffffffffffffffffffffe01682016040526126849190810190615cfc565b60006060613c55614451565b73ffffffffffffffffffffffffffffffffffffffff163373ffffffffffffffffffffffffffffffffffffffff1614613ce9576040517f08c379a000000000000000000000000000000000000000000000000000000000815260206004820152601c60248201527f4552433732313a206f6e6c79206272696467652063616e2063616c6c000000006044820152606401610f86565b613cf360026143bb565b15613dd457613d006143ed565b6040517f8b1465c600000000000000000000000000000000000000000000000000000000815263ffffffff8816600482015273ffffffffffffffffffffffffffffffffffffffff87811660248301528681166044830152606482018690529190911690638b1465c6906084016000604051808303816000875af1158015613d8b573d6000803e3d6000fd5b505050506040513d6000823e601f3d9081017fffffffffffffffffffffffffffffffffffffffffffffffffffffffffffffffe0168201604052613dd19190810190615cfc565b90505b613dde85846148a5565b7fde8b1ef100000000000000000000000000000000000000000000000000000000915094509492505050565b6060613e14610a86565b6003546040517f9cf149da00000000000000000000000000000000000000000000000000000000815273ffffffffffffffffffffffffffffffffffffffff9290921691639cf149da91613e739160019161ffff16903090600401615d31565b600060405180830381865afa158015613e90573d6000803e3d6000fd5b505050506040513d6000823e601f3d9081017fffffffffffffffffffffffffffffffffffffffffffffffffffffffffffffffe0168201604052610b1e9190810190615cfc565b7f89b583059fdb0b2e807359b64eba1a8a1e6d099210701fafe6dad5dd2cd64fb85473ffffffffffffffffffffffffffffffffffffffff163373ffffffffffffffffffffffffffffffffffffffff161461382c576040517f08c379a000000000000000000000000000000000000000000000000000000000815260206004820152601e60248201527f484f4c4f47524150483a206f776e6572206f6e6c792066756e6374696f6e00006044820152606401610f86565b7f89b583059fdb0b2e807359b64eba1a8a1e6d099210701fafe6dad5dd2cd64fb85473ffffffffffffffffffffffffffffffffffffffff163373ffffffffffffffffffffffffffffffffffffffff1614614042576040517f08c379a000000000000000000000000000000000000000000000000000000000815260206004820152601e60248201527f484f4c4f47524150483a206f776e6572206f6e6c792066756e6374696f6e00006044820152606401610f86565b73ffffffffffffffffffffffffffffffffffffffff81166140bf576040517f08c379a000000000000000000000000000000000000000000000000000000000815260206004820152601760248201527f484f4c4f47524150483a207a65726f20616464726573730000000000000000006044820152606401610f86565b7f89b583059fdb0b2e807359b64eba1a8a1e6d099210701fafe6dad5dd2cd64fb855565b6000610b1e7f5705f5753aa4f617eef2cae1dada3d3355e9387b04d19191f09b545e684ca50d5490565b7fee63e41dd03b4d304382a6596ec5f4a6eb601d3640835d27fca1d0be62955bb55473ffffffffffffffffffffffffffffffffffffffff163373ffffffffffffffffffffffffffffffffffffffff16146141c3576040517f08c379a000000000000000000000000000000000000000000000000000000000815260206004820152601c60248201527f4552433732313a206f6e6c7920736f757263652063616e206275726e000000006044820152606401610f86565b60008181526006602052604090205473ffffffffffffffffffffffffffffffffffffffff166141f0614451565b73ffffffffffffffffffffffffffffffffffffffff168173ffffffffffffffffffffffffffffffffffffffff1603614284576040517f08c379a000000000000000000000000000000000000000000000000000000000815260206004820152601860248201527f4552433732313a20746f6b656e206973206272696467656400000000000000006044820152606401610f86565b61209181836148a5565b60008181526006602052604081205473ffffffffffffffffffffffffffffffffffffffff16614319576040517f08c379a000000000000000000000000000000000000000000000000000000000815260206004820152601c60248201527f4552433732313a20746f6b656e20646f6573206e6f74206578697374000000006044820152606401610f86565b60008281526006602052604090205473ffffffffffffffffffffffffffffffffffffffff908116908416811480614376575060008381526007602052604090205473ffffffffffffffffffffffffffffffffffffffff8581169116145b806143b3575073ffffffffffffffffffffffffffffffffffffffff8082166000908152600a602090815260408083209388168352929052205460ff165b949350505050565b600060018260108111156143d1576143d1614f91565b600054901c166001146143e5576000612684565b600192915050565b6000610b1e7fee63e41dd03b4d304382a6596ec5f4a6eb601d3640835d27fca1d0be62955bb55490565b6000813f801580159061444a57507fc5d2460186f7233c927e7db2dcc703c0e500b653ca82273b7bfad8045d85a4708114155b9392505050565b600061447b7f1eee493315beeac80829afd0aaa340f3821cabe68571a2743478e81638a3d94d5490565b73ffffffffffffffffffffffffffffffffffffffff16630fffbaf36040518163ffffffff1660e01b8152600401602060405180830381865afa158015610afa573d6000803e3d6000fd5b6000811161452f576040517f08c379a000000000000000000000000000000000000000000000000000000000815260206004820152601f60248201527f4552433732313a20746f6b656e2069642063616e6e6f74206265207a65726f006044820152606401610f86565b73ffffffffffffffffffffffffffffffffffffffff82166145ac576040517f08c379a000000000000000000000000000000000000000000000000000000000815260206004820152601f60248201527f4552433732313a206d696e74696e6720746f206275726e2061646472657373006044820152606401610f86565b60008181526006602052604090205473ffffffffffffffffffffffffffffffffffffffff1615614638576040517f08c379a000000000000000000000000000000000000000000000000000000000815260206004820152601c60248201527f4552433732313a20746f6b656e20616c726561647920657869737473000000006044820152606401610f86565b6000818152600c602052604090205460ff16156146b1576040517f08c379a000000000000000000000000000000000000000000000000000000000815260206004820152601d60248201527f4552433732313a20746f6b656e20686173206265656e206275726e65640000006044820152606401610f86565b60008181526006602052604080822080547fffffffffffffffffffffffff00000000000000000000000000000000000000001673ffffffffffffffffffffffffffffffffffffffff861690811790915590518392907fddf252ad1be2c89b69c2b068fc378daa952ba7f163c4a11628f55a4df523b3ef908290a46120918282614b60565b6000803073ffffffffffffffffffffffffffffffffffffffff16634827ae0c6040518163ffffffff1660e01b8152600401602060405180830381865afa158015614783573d6000803e3d6000fd5b505050506040513d601f19601f820116820180604052508101906147a79190615884565b73ffffffffffffffffffffffffffffffffffffffff166397e67c3b6040518163ffffffff1660e01b8152600401602060405180830381865afa1580156147f1573d6000803e3d6000fd5b505050506040513d601f19601f820116820180604052508101906148159190615e5d565b90503073ffffffffffffffffffffffffffffffffffffffff1663913a0ef26040518163ffffffff1660e01b8152600401602060405180830381865afa158015614862573d6000803e3d6000fd5b505050506040513d601f19601f820116820180604052508101906148869190615e5d565b63ffffffff168163ffffffff161461489d57919050565b600091505090565b600081815260076020526040902080547fffffffffffffffffffffffff000000000000000000000000000000000000000016905560008181526006602052604080822080547fffffffffffffffffffffffff00000000000000000000000000000000000000001690555182919073ffffffffffffffffffffffffffffffffffffffff8516907fddf252ad1be2c89b69c2b068fc378daa952ba7f163c4a11628f55a4df523b3ef908390a46149598282614c27565b6000908152600c6020526040902080547fffffffffffffffffffffffffffffffffffffffffffffffffffffffffffffff0016600117905550565b60008181526006602052604090205473ffffffffffffffffffffffffffffffffffffffff848116911614614a23576040517f08c379a000000000000000000000000000000000000000000000000000000000815260206004820152601760248201527f4552433732313a20746f6b656e206e6f74206f776e65640000000000000000006044820152606401610f86565b73ffffffffffffffffffffffffffffffffffffffff8216614aa0576040517f08c379a000000000000000000000000000000000000000000000000000000000815260206004820152601860248201527f4552433732313a20757365206275726e20696e737465616400000000000000006044820152606401610f86565b600081815260076020526040902080547fffffffffffffffffffffffff000000000000000000000000000000000000000016905560008181526006602052604080822080547fffffffffffffffffffffffff00000000000000000000000000000000000000001673ffffffffffffffffffffffffffffffffffffffff86811691821790925591518493918716917fddf252ad1be2c89b69c2b068fc378daa952ba7f163c4a11628f55a4df523b3ef91a4614b5a8382614c27565b61120182825b73ffffffffffffffffffffffffffffffffffffffff821660008181526008602081815260408084208054878652600584529185208290559484529190529190614ba883615ad5565b909155505073ffffffffffffffffffffffffffffffffffffffff90911660009081526009602090815260408083208054600181810183559185528385200185905560048054868652600b909452918420839055820181559091527f8a35acfbc15ff81a39ae7d344fd709f28e8600b4aa8c65c6b64bfe7fe36bd19b0155565b614c3081614e25565b73ffffffffffffffffffffffffffffffffffffffff82166000908152600860205260408120805491614c6183615e7a565b909155505073ffffffffffffffffffffffffffffffffffffffff8216600090815260086020908152604080832054848452600590925290912054808214614d575773ffffffffffffffffffffffffffffffffffffffff84166000908152600960205260408120805484908110614cd957614cd9615a49565b9060005260206000200154905080600960008773ffffffffffffffffffffffffffffffffffffffff1673ffffffffffffffffffffffffffffffffffffffff1681526020019081526020016000208381548110614d3757614d37615a49565b600091825260208083209091019290925591825260059052604090208190555b81600003614d925773ffffffffffffffffffffffffffffffffffffffff84166000908152600960205260408120614d8d91614f5b565b613380565b73ffffffffffffffffffffffffffffffffffffffff84166000908152600960205260409020805483908110614dc957614dc9615a49565b6000918252602080832090910182905573ffffffffffffffffffffffffffffffffffffffff861682526009905260409020805480614e0957614e09615eaf565b6001900381819060005260206000200160009055905550505050565b600454600090614e3790600190615c61565b6000838152600b602052604081205460048054939450909284908110614e5f57614e5f615a49565b906000526020600020015490508060048381548110614e8057614e80615a49565b6000918252602080832090910192909255828152600b90915260408082208490558582528120556004805484908110614ebb57614ebb615a49565b60009182526020822001556004805480614e0957614e09615eaf565b828054614ee3906158a1565b90600052602060002090601f016020900481019282614f055760008555614f4b565b82601f10614f1e57805160ff1916838001178555614f4b565b82800160010185558215614f4b579182015b82811115614f4b578251825591602001919060010190614f30565b50614f57929150614f7c565b5090565b5080546000825590600052602060002090810190614f799190614f7c565b50565b5b80821115614f575760008155600101614f7d565b7f4e487b7100000000000000000000000000000000000000000000000000000000600052602160045260246000fd5b6040810160058410614ffb577f4e487b7100000000000000000000000000000000000000000000000000000000600052602160045260246000fd5b9281527fffffffff000000000000000000000000000000000000000000000000000000009190911660209091015290565b8015158114614f7957600080fd5b8051610e608161502c565b60006020828403121561505757600080fd5b815161444a8161502c565b7fffffffff0000000000000000000000000000000000000000000000000000000081168114614f7957600080fd5b6000602082840312156150a257600080fd5b813561444a81615062565b60005b838110156150c85781810151838201526020016150b0565b838111156133805750506000910152565b600081518084526150f18160208601602086016150ad565b601f017fffffffffffffffffffffffffffffffffffffffffffffffffffffffffffffffe0169290920160200192915050565b60208152600061444a60208301846150d9565b60006020828403121561514857600080fd5b5035919050565b73ffffffffffffffffffffffffffffffffffffffff81168114614f7957600080fd5b6000806040838503121561518457600080fd5b823561518f8161514f565b946020939093013593505050565b6000602082840312156151af57600080fd5b813561444a8161514f565b60008083601f8401126151cc57600080fd5b50813567ffffffffffffffff8111156151e457600080fd5b6020830191508360208285010111156151fc57600080fd5b9250929050565b60008060008060006080868803121561521b57600080fd5b85356152268161514f565b945060208601356152368161514f565b935060408601359250606086013567ffffffffffffffff81111561525957600080fd5b615265888289016151ba565b969995985093965092949392505050565b63ffffffff81168114614f7957600080fd5b60008060008060008060a087890312156152a157600080fd5b86356152ac81615276565b955060208701356152bc8161514f565b945060408701356152cc8161514f565b935060608701359250608087013567ffffffffffffffff8111156152ef57600080fd5b6152fb89828a016151ba565b979a9699509497509295939492505050565b60008060006060848603121561532257600080fd5b833561532d8161514f565b9250602084013561533d8161514f565b929592945050506040919091013590565b60008083601f84011261536057600080fd5b50813567ffffffffffffffff81111561537857600080fd5b6020830191508360208260051b85010111156151fc57600080fd5b600080600080604085870312156153a957600080fd5b843567ffffffffffffffff808211156153c157600080fd5b6153cd8883890161534e565b909650945060208701359150808211156153e657600080fd5b506153f38782880161534e565b95989497509550505050565b80357bffffffffffffffffffffffffffffffffffffffffffffffffffffffff81168114610e6057600080fd5b6000806040838503121561543e57600080fd5b82356154498161514f565b9150615457602084016153ff565b90509250929050565b7f4e487b7100000000000000000000000000000000000000000000000000000000600052604160045260246000fd5b604051601f82017fffffffffffffffffffffffffffffffffffffffffffffffffffffffffffffffe016810167ffffffffffffffff811182821017156154d6576154d6615460565b604052919050565b600067ffffffffffffffff8211156154f8576154f8615460565b50601f017fffffffffffffffffffffffffffffffffffffffffffffffffffffffffffffffe01660200190565b600082601f83011261553557600080fd5b8135615548615543826154de565b61548f565b81815284602083860101111561555d57600080fd5b816020850160208301376000918101602001919091529392505050565b60006020828403121561558c57600080fd5b813567ffffffffffffffff8111156155a357600080fd5b6143b384828501615524565b6020808252825182820181905260009190848201906040850190845b818110156155e7578351835292840192918401916001016155cb565b50909695505050505050565b6000806040838503121561560657600080fd5b50508035926020909101359150565b60008060006060848603121561562a57600080fd5b83356156358161514f565b9250615643602085016153ff565b9150604084013590509250925092565b6000806040838503121561566657600080fd5b82356156718161514f565b915060208301356156818161502c565b809150509250929050565b6000806000604084860312156156a157600080fd5b83356156ac8161514f565b9250602084013567ffffffffffffffff8111156156c857600080fd5b6156d48682870161534e565b9497909650939450505050565b600080600080608085870312156156f757600080fd5b84356157028161514f565b935060208501356157128161514f565b925060408501359150606085013567ffffffffffffffff81111561573557600080fd5b61574187828801615524565b91505092959194509250565b60008060006040848603121561576257600080fd5b833561576d8161514f565b9250602084013567ffffffffffffffff81111561578957600080fd5b6156d4868287016151ba565b6000806000606084860312156157aa57600080fd5b83356157b58161514f565b95602085013595506040909401359392505050565b600080600080608085870312156157e057600080fd5b84356157eb81615276565b935060208501356157fb8161514f565b9250604085013561580b8161514f565b9396929550929360600135925050565b7fffffffff00000000000000000000000000000000000000000000000000000000831681526040602082015260006143b360408301846150d9565b6000806040838503121561586957600080fd5b82356158748161514f565b915060208301356156818161514f565b60006020828403121561589657600080fd5b815161444a8161514f565b600181811c908216806158b557607f821691505b6020821081036158ee577f4e487b7100000000000000000000000000000000000000000000000000000000600052602260045260246000fd5b50919050565b8183528181602085013750600060208284010152600060207fffffffffffffffffffffffffffffffffffffffffffffffffffffffffffffffe0601f840116840101905092915050565b600073ffffffffffffffffffffffffffffffffffffffff8089168352808816602084015280871660408401525084606083015260a0608083015261598560a0830184866158f4565b98975050505050505050565b7f4e487b7100000000000000000000000000000000000000000000000000000000600052601160045260246000fd5b6000817fffffffffffffffffffffffffffffffffffffffffffffffffffffffffffffffff04831182151516156159f8576159f8615991565b500290565b63ffffffff87168152600073ffffffffffffffffffffffffffffffffffffffff808816602084015280871660408401525084606083015260a0608083015261598560a0830184866158f4565b7f4e487b7100000000000000000000000000000000000000000000000000000000600052603260045260246000fd5b600060208284031215615a8a57600080fd5b61444a826153ff565b805160208083015191908110156158ee577fffffffffffffffffffffffffffffffffffffffffffffffffffffffffffffffff60209190910360031b1b16919050565b60007fffffffffffffffffffffffffffffffffffffffffffffffffffffffffffffffff8203615b0657615b06615991565b5060010190565b600082601f830112615b1e57600080fd5b8151615b2c615543826154de565b818152846020838601011115615b4157600080fd5b6143b38260208301602087016150ad565b60008060008060008060c08789031215615b6b57600080fd5b865167ffffffffffffffff80821115615b8357600080fd5b615b8f8a838b01615b0d565b97506020890151915080821115615ba557600080fd5b615bb18a838b01615b0d565b96506040890151915061ffff82168214615bca57600080fd5b81955060608901519450615be060808a0161503a565b935060a0890151915080821115615bf657600080fd5b50615c0389828a01615b0d565b9150509295509295509295565b600060208284031215615c2257600080fd5b815161444a81615062565b60008251615c3f8184602087016150ad565b9190910192915050565b60008219821115615c5c57615c5c615991565b500190565b600082821015615c7357615c73615991565b500390565b60007bffffffffffffffffffffffffffffffffffffffffffffffffffffffff808316818103615ca957615ca9615991565b6001019392505050565b600073ffffffffffffffffffffffffffffffffffffffff808716835280861660208401525083604083015260806060830152615cf260808301846150d9565b9695505050505050565b600060208284031215615d0e57600080fd5b815167ffffffffffffffff811115615d2557600080fd5b6143b384828501615b0d565b60a08152600080855481600182811c915080831680615d5157607f831692505b60208084108203615d89577f4e487b710000000000000000000000000000000000000000000000000000000086526022600452602486fd5b60a0880184905260c08801828015615da85760018114615dd757615e02565b7fffffffffffffffffffffffffffffffffffffffffffffffffffffffffffffff00871682528282019750615e02565b60008d81526020902060005b87811015615dfc57815484820152908601908401615de3565b83019850505b505087860390880152505060008352505060208101838103604085015260008152905060208101915050615e3c606083018561ffff169052565b73ffffffffffffffffffffffffffffffffffffffff831660808301526143b3565b600060208284031215615e6f57600080fd5b815161444a81615276565b600081615e8957615e89615991565b507fffffffffffffffffffffffffffffffffffffffffffffffffffffffffffffffff0190565b7f4e487b7100000000000000000000000000000000000000000000000000000000600052603160045260246000fdfea164736f6c634300080d000a",
  "devdoc": {
    "author": "CXIP-Labs",
    "details": "The entire logic and functionality of the smart contract is self-contained.",
    "kind": "dev",
    "methods": {
      "approve(address,uint256)": {
        "details": "Requires the sender to be in the approved addresses.",
        "params": {
          "to": "The address to approve.",
          "tokenId": "The affected token."
        }
      },
      "balanceOf(address)": {
        "details": "Used to see total amount of tokens owned by a specific wallet.",
        "params": {
          "wallet": "Address for which to get token balance."
        },
        "returns": {
          "_0": "uint256 Returns an integer, representing total amount of tokens held by address."
        }
      },
      "burn(uint256)": {
        "details": "The sender must be the owner or approved.",
        "params": {
          "tokenId": "The token to burn."
        }
      },
      "constructor": {
        "details": "To make exact CREATE2 deployment possible, constructor is left empty. We utilize the \"init\" function instead."
      },
      "contractURI()": {
        "returns": {
          "_0": "string The URI."
        }
      },
      "getApproved(uint256)": {
        "details": "Single operator set for a specific token. Usually used for one-time very specific authorisations.",
        "params": {
          "tokenId": "Token id to get approved operator for."
        },
        "returns": {
          "_0": "address Approved address for token."
        }
      },
      "holographBridgeIn(uint32,address,address,uint256,bytes)": {
        "details": "Allows the bridge to bring in a token from another blockchain.  Note: function selector 0x2dd69ea4 is bytes4(keccak256(\"holographBridgeIn(address,address,uint256,bytes)\"))"
      },
      "holographBridgeOut(uint32,address,address,uint256)": {
        "details": "Allows the bridge to take a token out onto another blockchain.  Note: function selector 0x57aeff0a is bytes4(keccak256(\"holographBridgeOut(address,address,uint256)\"))"
      },
      "init(bytes)": {
        "details": "Special function to allow a one time initialisation on deployment. Also configures and deploys royalties."
      },
      "isApprovedForAll(address,address)": {
        "details": "Includes references to OpenSea and Rarible marketplace proxies.",
        "params": {
          "operator": "Address of the marketplace operator.",
          "wallet": "Address of the wallet."
        },
        "returns": {
          "_0": "bool True if approved."
        }
      },
      "name()": {
        "returns": {
          "_0": "string The collection name."
        }
      },
      "onERC721Received(address,address,uint256,bytes)": {
        "details": "We have this blank function in place to make sure that external contract sending in NFTs don't error out.Since it's not being used, the _operator variable is commented out to avoid compiler warnings.Since it's not being used, the _from variable is commented out to avoid compiler warnings.Since it's not being used, the _tokenId variable is commented out to avoid compiler warnings.Since it's not being used, the _data variable is commented out to avoid compiler warnings.",
        "returns": {
          "_0": "bytes4 Returns the interfaceId of onERC721Received."
        }
      },
      "ownerOf(uint256)": {
        "details": "The token must exist.",
        "params": {
          "tokenId": "The token to look up."
        },
        "returns": {
          "_0": "address Owner of the token."
        }
      },
      "safeTransferFrom(address,address,uint256)": {
        "details": "Safely transfers `tokenId` token from `from` to `to`, checking first that contract recipients are aware of the ERC721 protocol to prevent tokens from being forever locked.",
        "params": {
          "from": "cannot be the zero address.",
          "to": "cannot be the zero address.",
          "tokenId": "token must exist and be owned by `from`."
        }
      },
      "safeTransferFrom(address,address,uint256,bytes)": {
        "details": "Since it's not being used, the _data variable is commented out to avoid compiler warnings. are aware of the ERC721 protocol to prevent tokens from being forever locked.",
        "params": {
          "from": "cannot be the zero address.",
          "to": "cannot be the zero address.",
          "tokenId": "token must exist and be owned by `from`."
        }
      },
      "setApprovalForAll(address,bool)": {
        "details": "Allows platforms to sell/transfer all your NFTs. Used with proxy contracts like OpenSea/Rarible.",
        "params": {
          "approved": "Turn on or off approval status.",
          "to": "The address to approve."
        }
      },
      "sourceBurn(uint256)": {
        "details": "Allows for source smart contract to burn a token.  Note: this is put in place to make sure that custom logic could be implemented for merging, gamification, etc.  Note: token cannot be burned if it's locked by bridge."
      },
      "sourceGetChainPrepend()": {
        "details": "Allows source to get the prepend for their tokenIds."
      },
      "sourceMint(address,uint224)": {
        "details": "Allows for source smart contract to mint a token."
      },
      "sourceMintBatch(address,uint224[])": {
        "details": "Allows for source smart contract to mint a batch of tokens."
      },
      "sourceMintBatch(address[],uint224[])": {
        "details": "Allows for source smart contract to mint a batch of tokens."
      },
      "sourceMintBatchIncremental(address,uint224,uint256)": {
        "details": "Allows for source smart contract to mint a batch of tokens."
      },
      "sourceTransfer(address,uint256)": {
        "details": "Allows for source smart contract to transfer a token.  Note: this is put in place to make sure that custom logic could be implemented for merging, gamification, etc.  Note: token cannot be transfered if it's locked by bridge."
      },
      "supportsInterface(bytes4)": {
        "details": "Must add new 4 byte interface Ids here to acknowledge support",
        "params": {
          "interfaceId": "ERC165 style 4 byte interfaceId."
        },
        "returns": {
          "_0": "bool True if supported."
        }
      },
      "symbol()": {
        "returns": {
          "_0": "string The symbol."
        }
      },
      "tokenByIndex(uint256)": {
        "details": "Used in conjunction with totalSupply function to iterate over all tokens in collection.",
        "params": {
          "index": "Index of token in array."
        },
        "returns": {
          "_0": "uint256 Returns the token id of token located at that index."
        }
      },
      "tokenOfOwnerByIndex(address,uint256)": {
        "details": "Helpful for wallet token enumeration where token id info is not yet available. Use in conjunction with balanceOf function.",
        "params": {
          "index": "Index of token in array.",
          "wallet": "Specific address for which to get token for."
        },
        "returns": {
          "_0": "uint256 Returns the token id of token located at that index in specified wallet."
        }
      },
      "tokenURI(uint256)": {
        "details": "Defaults the the Arweave URI",
        "returns": {
          "_0": "string The URI."
        }
      },
      "tokens(uint256,uint256)": {
        "params": {
          "index": "The index to start enumeration from.",
          "length": "The length of returned results."
        },
        "returns": {
          "tokenIds": "uint256[] Returns a set length array of token ids minted."
        }
      },
      "tokensOfOwner(address)": {
        "params": {
          "wallet": "The wallet address to get tokens for."
        },
        "returns": {
          "_0": "uint256[] Returns an array of token ids owned by wallet."
        }
      },
      "tokensOfOwner(address,uint256,uint256)": {
        "params": {
          "index": "The index to start enumeration from.",
          "length": "The length of returned results.",
          "wallet": "The wallet address to get tokens for."
        },
        "returns": {
          "tokenIds": "uint256[] Returns a set length array of token ids owned by wallet."
        }
      },
      "totalSupply()": {
        "details": "Ignores burned tokens.",
        "returns": {
          "_0": "uint256 Returns the total number of active (not burned) tokens."
        }
      },
      "transfer(address,uint256)": {
        "details": "WARNING: Usage of this method is discouraged, use {safeTransferFrom} whenever possible.",
        "params": {
          "to": "cannot be the zero address.",
          "tokenId": "token must be owned by `from`."
        }
      },
      "transferFrom(address,address,uint256)": {
        "details": "WARNING: Usage of this method is discouraged, use {safeTransferFrom} whenever possible.",
        "params": {
          "from": "cannot be the zero address.",
          "to": "cannot be the zero address.",
          "tokenId": "token must be owned by `from`."
        }
      },
      "transferFrom(address,address,uint256,bytes)": {
        "details": "WARNING: Usage of this method is discouraged, use {safeTransferFrom} whenever possible.Since it's not being used, the _data variable is commented out to avoid compiler warnings.",
        "params": {
          "data": "additional data to pass.",
          "from": "cannot be the zero address.",
          "to": "cannot be the zero address.",
          "tokenId": "token must be owned by `from`."
        }
      }
    },
    "stateVariables": {
      "_allTokens": {
        "details": "Array of all token ids in collection."
      },
      "_allTokensIndex": {
        "details": "Mapping from token id to position in the allTokens array."
      },
      "_bps": {
        "details": "Collection royalty base points."
      },
      "_burnedTokens": {
        "details": "Mapping of all token ids that have been burned. This is to prevent re-minting of same token ids."
      },
      "_eventConfig": {
        "details": "Configuration for events to trigger for source smart contract."
      },
      "_name": {
        "details": "Collection name."
      },
      "_operatorApprovals": {
        "details": "Usually utilised for supporting marketplace proxy wallets."
      },
      "_ownedTokens": {
        "details": "Map of array of token ids owned by a specific address."
      },
      "_ownedTokensCount": {
        "details": "Map of total tokens owner by a specific address."
      },
      "_ownedTokensIndex": {
        "details": "Map of token id to array index of _ownedTokens."
      },
      "_symbol": {
        "details": "Collection symbol."
      },
      "_tokenApprovals": {
        "details": "1-to-1 map of token id that was assigned an approved operator address."
      },
      "_tokenOwner": {
        "details": "Token id to wallet (owner) address map."
      }
    },
    "title": "Holograph Bridgeable ERC-721 Collection",
    "version": 1
  },
  "userdoc": {
    "kind": "user",
    "methods": {
      "approve(address,uint256)": {
        "notice": "Adds a new address to the token's approval list."
      },
      "balanceOf(address)": {
        "notice": "Get total number of tokens owned by wallet."
      },
      "burn(uint256)": {
        "notice": "Burns the token."
      },
      "constructor": {
        "notice": "Constructor is empty and not utilised."
      },
      "contractURI()": {
        "notice": "Gets a base64 encoded contract JSON file."
      },
      "getApproved(uint256)": {
        "notice": "Gets the approved address for the token."
      },
      "init(bytes)": {
        "notice": "Initializes the collection."
      },
      "isApprovedForAll(address,address)": {
        "notice": "Checks if the address is approved."
      },
      "name()": {
        "notice": "Gets the name of the collection."
      },
      "onERC721Received(address,address,uint256,bytes)": {
        "notice": "Empty function that is triggered by external contract on NFT transfer."
      },
      "ownerOf(uint256)": {
        "notice": "Checks who the owner of a token is."
      },
      "safeTransferFrom(address,address,uint256,bytes)": {
        "notice": "Safely transfers `tokenId` token from `from` to `to`, checking first that contract recipients"
      },
      "setApprovalForAll(address,bool)": {
        "notice": "Adds a new approved operator."
      },
      "supportsInterface(bytes4)": {
        "notice": "Shows the interfaces the contracts support"
      },
      "symbol()": {
        "notice": "Gets the collection's symbol."
      },
      "tokenByIndex(uint256)": {
        "notice": "Get token by index."
      },
      "tokenOfOwnerByIndex(address,uint256)": {
        "notice": "Get token from wallet by index instead of token id."
      },
      "tokenURI(uint256)": {
        "notice": "Get's the URI of the token."
      },
      "tokens(uint256,uint256)": {
        "notice": "Get set length list, starting from index, for all tokens."
      },
      "tokensOfOwner(address)": {
        "notice": "Get list of tokens owned by wallet."
      },
      "tokensOfOwner(address,uint256,uint256)": {
        "notice": "Get set length list, starting from index, for tokens owned by wallet."
      },
      "totalSupply()": {
        "notice": "Total amount of tokens in the collection."
      },
      "transfer(address,uint256)": {
        "notice": "Transfers `tokenId` token from `msg.sender` to `to`."
      },
      "transferFrom(address,address,uint256)": {
        "notice": "Transfers `tokenId` token from `from` to `to`."
      },
      "transferFrom(address,address,uint256,bytes)": {
        "notice": "Transfers `tokenId` token from `from` to `to`."
      }
    },
    "notice": "A smart contract for minting and managing Holograph Bridgeable ERC721 NFTs.",
    "version": 1
  },
  "storageLayout": {
    "storage": [
      {
        "astId": 2764,
        "contract": "contracts/HolographERC721.sol:HolographERC721",
        "label": "_eventConfig",
        "offset": 0,
        "slot": "0",
        "type": "t_uint256"
      },
      {
        "astId": 2767,
        "contract": "contracts/HolographERC721.sol:HolographERC721",
        "label": "_name",
        "offset": 0,
        "slot": "1",
        "type": "t_string_storage"
      },
      {
        "astId": 2770,
        "contract": "contracts/HolographERC721.sol:HolographERC721",
        "label": "_symbol",
        "offset": 0,
        "slot": "2",
        "type": "t_string_storage"
      },
      {
        "astId": 2773,
        "contract": "contracts/HolographERC721.sol:HolographERC721",
        "label": "_bps",
        "offset": 0,
        "slot": "3",
        "type": "t_uint16"
      },
      {
        "astId": 2777,
        "contract": "contracts/HolographERC721.sol:HolographERC721",
        "label": "_allTokens",
        "offset": 0,
        "slot": "4",
        "type": "t_array(t_uint256)dyn_storage"
      },
      {
        "astId": 2782,
        "contract": "contracts/HolographERC721.sol:HolographERC721",
        "label": "_ownedTokensIndex",
        "offset": 0,
        "slot": "5",
        "type": "t_mapping(t_uint256,t_uint256)"
      },
      {
        "astId": 2787,
        "contract": "contracts/HolographERC721.sol:HolographERC721",
        "label": "_tokenOwner",
        "offset": 0,
        "slot": "6",
        "type": "t_mapping(t_uint256,t_address)"
      },
      {
        "astId": 2792,
        "contract": "contracts/HolographERC721.sol:HolographERC721",
        "label": "_tokenApprovals",
        "offset": 0,
        "slot": "7",
        "type": "t_mapping(t_uint256,t_address)"
      },
      {
        "astId": 2797,
        "contract": "contracts/HolographERC721.sol:HolographERC721",
        "label": "_ownedTokensCount",
        "offset": 0,
        "slot": "8",
        "type": "t_mapping(t_address,t_uint256)"
      },
      {
        "astId": 2803,
        "contract": "contracts/HolographERC721.sol:HolographERC721",
        "label": "_ownedTokens",
        "offset": 0,
        "slot": "9",
        "type": "t_mapping(t_address,t_array(t_uint256)dyn_storage)"
      },
      {
        "astId": 2810,
        "contract": "contracts/HolographERC721.sol:HolographERC721",
        "label": "_operatorApprovals",
        "offset": 0,
        "slot": "10",
        "type": "t_mapping(t_address,t_mapping(t_address,t_bool))"
      },
      {
        "astId": 2815,
        "contract": "contracts/HolographERC721.sol:HolographERC721",
        "label": "_allTokensIndex",
        "offset": 0,
        "slot": "11",
        "type": "t_mapping(t_uint256,t_uint256)"
      },
      {
        "astId": 2820,
        "contract": "contracts/HolographERC721.sol:HolographERC721",
        "label": "_burnedTokens",
        "offset": 0,
        "slot": "12",
        "type": "t_mapping(t_uint256,t_bool)"
      }
    ],
    "types": {
      "t_address": {
        "encoding": "inplace",
        "label": "address",
        "numberOfBytes": "20"
      },
      "t_array(t_uint256)dyn_storage": {
        "base": "t_uint256",
        "encoding": "dynamic_array",
        "label": "uint256[]",
        "numberOfBytes": "32"
      },
      "t_bool": {
        "encoding": "inplace",
        "label": "bool",
        "numberOfBytes": "1"
      },
      "t_mapping(t_address,t_array(t_uint256)dyn_storage)": {
        "encoding": "mapping",
        "key": "t_address",
        "label": "mapping(address => uint256[])",
        "numberOfBytes": "32",
        "value": "t_array(t_uint256)dyn_storage"
      },
      "t_mapping(t_address,t_bool)": {
        "encoding": "mapping",
        "key": "t_address",
        "label": "mapping(address => bool)",
        "numberOfBytes": "32",
        "value": "t_bool"
      },
      "t_mapping(t_address,t_mapping(t_address,t_bool))": {
        "encoding": "mapping",
        "key": "t_address",
        "label": "mapping(address => mapping(address => bool))",
        "numberOfBytes": "32",
        "value": "t_mapping(t_address,t_bool)"
      },
      "t_mapping(t_address,t_uint256)": {
        "encoding": "mapping",
        "key": "t_address",
        "label": "mapping(address => uint256)",
        "numberOfBytes": "32",
        "value": "t_uint256"
      },
      "t_mapping(t_uint256,t_address)": {
        "encoding": "mapping",
        "key": "t_uint256",
        "label": "mapping(uint256 => address)",
        "numberOfBytes": "32",
        "value": "t_address"
      },
      "t_mapping(t_uint256,t_bool)": {
        "encoding": "mapping",
        "key": "t_uint256",
        "label": "mapping(uint256 => bool)",
        "numberOfBytes": "32",
        "value": "t_bool"
      },
      "t_mapping(t_uint256,t_uint256)": {
        "encoding": "mapping",
        "key": "t_uint256",
        "label": "mapping(uint256 => uint256)",
        "numberOfBytes": "32",
        "value": "t_uint256"
      },
      "t_string_storage": {
        "encoding": "bytes",
        "label": "string",
        "numberOfBytes": "32"
      },
      "t_uint16": {
        "encoding": "inplace",
        "label": "uint16",
        "numberOfBytes": "2"
      },
      "t_uint256": {
        "encoding": "inplace",
        "label": "uint256",
        "numberOfBytes": "32"
      }
    }
  }
}