{
  "address": "0x7EA007530947AcEF77100f441b15eD6257cb6397",
  "abi": [
    {
      "inputs": [],
      "stateMutability": "nonpayable",
      "type": "constructor"
    },
    {
      "stateMutability": "payable",
      "type": "fallback"
    },
    {
      "inputs": [],
      "name": "admin",
      "outputs": [
        {
          "internalType": "address",
          "name": "",
          "type": "address"
        }
      ],
      "stateMutability": "view",
      "type": "function"
    },
    {
      "inputs": [
        {
          "internalType": "address",
          "name": "target",
          "type": "address"
        },
        {
          "internalType": "bytes",
          "name": "data",
          "type": "bytes"
        }
      ],
      "name": "adminCall",
      "outputs": [],
      "stateMutability": "payable",
      "type": "function"
    },
    {
      "inputs": [
        {
          "internalType": "string",
          "name": "name",
          "type": "string"
        },
        {
          "internalType": "string",
          "name": "imageURL",
          "type": "string"
        },
        {
          "internalType": "string",
          "name": "externalLink",
          "type": "string"
        },
        {
          "internalType": "uint16",
          "name": "bps",
          "type": "uint16"
        },
        {
          "internalType": "address",
          "name": "contractAddress",
          "type": "address"
        }
      ],
      "name": "contractURI",
      "outputs": [
        {
          "internalType": "string",
          "name": "",
          "type": "string"
        }
      ],
      "stateMutability": "pure",
      "type": "function"
    },
    {
      "inputs": [],
      "name": "getAdmin",
      "outputs": [
        {
          "internalType": "address",
          "name": "adminAddress",
          "type": "address"
        }
      ],
      "stateMutability": "view",
      "type": "function"
    },
    {
      "inputs": [
        {
          "internalType": "bytes",
          "name": "data",
          "type": "bytes"
        }
      ],
      "name": "init",
      "outputs": [
        {
          "internalType": "bytes4",
          "name": "",
          "type": "bytes4"
        }
      ],
      "stateMutability": "nonpayable",
      "type": "function"
    },
    {
      "inputs": [
        {
          "internalType": "address",
          "name": "adminAddress",
          "type": "address"
        }
      ],
      "name": "setAdmin",
      "outputs": [],
      "stateMutability": "nonpayable",
      "type": "function"
    },
    {
      "inputs": [
        {
          "internalType": "enum InterfaceType",
          "name": "interfaceType",
          "type": "uint8"
        },
        {
          "internalType": "bytes4",
          "name": "interfaceId",
          "type": "bytes4"
        }
      ],
      "name": "supportsInterface",
      "outputs": [
        {
          "internalType": "bool",
          "name": "",
          "type": "bool"
        }
      ],
      "stateMutability": "view",
      "type": "function"
    },
    {
      "inputs": [
        {
          "internalType": "enum InterfaceType",
          "name": "interfaceType",
          "type": "uint8"
        },
        {
          "internalType": "bytes4",
          "name": "interfaceId",
          "type": "bytes4"
        },
        {
          "internalType": "bool",
          "name": "supported",
          "type": "bool"
        }
      ],
      "name": "updateInterface",
      "outputs": [],
      "stateMutability": "nonpayable",
      "type": "function"
    },
    {
      "stateMutability": "payable",
      "type": "receive"
    }
  ],
  "transactionHash": "0xaf2e301481603ed826cdbe9e5c5fec04882f5ffd14ec272eeefc4cddabc99a83",
  "args": [],
  "numDeployments": 1,
  "solcInputHash": "6268f4815d1b695602d2038a17eb1c6d",
  "bytecode": "0x608060405234801561001057600080fd5b506123a7806100206000396000f3fe60806040526004361061007f5760003560e01c80639cf149da1161004e5780639cf149da1461017b5780639fe7303f146101a8578063bf64a82d146101d8578063f851a440146101eb57600080fd5b80634ddf47d41461008e5780636d97233f146100e45780636e9960c314610106578063704b6c021461015b57600080fd5b3661008957600080fd5b600080fd5b34801561009a57600080fd5b506100ae6100a9366004611a80565b610200565b6040517fffffffff0000000000000000000000000000000000000000000000000000000090911681526020015b60405180910390f35b3480156100f057600080fd5b506101046100ff366004611b8e565b610e19565b005b34801561011257600080fd5b507f5705f5753aa4f617eef2cae1dada3d3355e9387b04d19191f09b545e684ca50d545b60405173ffffffffffffffffffffffffffffffffffffffff90911681526020016100db565b34801561016757600080fd5b50610104610176366004611bff565b610f6b565b34801561018757600080fd5b5061019b610196366004611c6c565b611045565b6040516100db9190611d63565b3480156101b457600080fd5b506101c86101c3366004611db4565b6110c2565b60405190151581526020016100db565b6101046101e6366004611de7565b611136565b3480156101f757600080fd5b50610136611211565b600061022c7f4e5f991bca30eca2d4643aaefa807e88f96a4a97398933d572a3c0d973004a0154151590565b15610298576040517f08c379a000000000000000000000000000000000000000000000000000000000815260206004820152601e60248201527f484f4c4f47524150483a20616c726561647920696e697469616c697a6564000060448201526064015b60405180910390fd5b6000828060200190518101906102ae9190611e3c565b7f5705f5753aa4f617eef2cae1dada3d3355e9387b04d19191f09b545e684ca50d5550507f8081f2e62baa7b6d5d07c2eb4ca92b6f991bec7fca8510bbe6931c8fa25569cd805460017fffffffffffffffffffffffffffffffffffffffffffffffffffffffffffffff0091821681179092557fdb93507e3c32aca898a51b46c4ae5b96232e700c4741348044ba840a38ac4f1c80548216831790557fade3797baf3ffd7083e1ed9ea080ff3ef544881c83bc3807e8f663fe6b26848e80548216831790557f75459bc0add31586819f61897df672807b6a02a1c35d4416e8f3f96b720e4e2080548216831790557f2788346cd83b80e553b9d8f6959ca333e2686b3e06cf4fe721963c0d2f379f3780548216831790557ffe788db07c28f38d3b235fb852c9f68e3dd1a89aff5667db632ba16388c12c0c80548216831790557fc6d7d7d56db5de3a3a38fe541eba127be5ed7e1635d77a3661191cdc2240c7c280548216831790557f0f793d685e17c331691863057e13d30ce8fc59fc20c11c8a403fb695b828a28d80548216831790557f0a8beb5952c629a8e5015a0e77e8e6d1576582c3d5fc469e6b934759b3d7259380548216831790557ff55a84ef4a9dd574c43f58a245d98d7494c11e8c25370db5ca6a994b9e8ae11880548216831790557fa062888372265a5e7933896ff0d0a812f3a24a29b5ec85ab00b88e0d1905e7ef80548216831790557f9fbc50d9d361e5ca789614e4073ba9ffae76238a8ab1acde87e559aaabf19d0c80548216831790557fd97b3e61aa1f163ae7a050e4f15ac409ac252e321ef5f8c00aebe96fe97b4b7580548216831790557ffb724b01794f8c1959475354bb2174502f87f8275f218573bc936ecacabcec8780548216831790557f98fd37be456c34bfed0e53cbb4ec6656b1ef760b140e9c2959c087783a3ca58d80548216831790557fa73cb153a4163e26314cfcfa7e02f6b4b3dff3e178a7e404477882b03f22c0d480548216831790557f726f40138b2be84435519cfca804e9bac126a812fcef1d36c0ac15634d0593fa80548216831790557f8b5c21077e214a258ec13d0a578a763e224e56384991dbf7e980d8a45acf29c880548216831790557fb6714480718896d6fb0a01c610576228009a3295df6a77fc98dd045283e3169f80548216831790557fb915a15f410692e5a47a31f8ef9648a67222c842f85e5ed6f326509eaebc7ca180548216831790557f46d98f16bd840d7e66435003a32f382b04681110e0deb6a4bbbf8229f871106180548216831790557f0a402010e0ed89d588697182e0b8ac614ef4c95d638411c7fca4d2855f28217580548216831790557f2fe662d1b31351bb1fc8b0b24227b1485ffa37d183d099d603b67ff383f62a1780548216831790557f6881aa153bfffe0daf3bc03a3c08dfd277346437f988268d91db220a417d4c6880548216831790557f304d9160b7aa71190a7a35ee0f4bb758d16660f4df8c0a6b46a70a12102e0e8980548216831790557f01f418530287530c5a6a30257ddc85333d5071425af340b8531c2e39d431650f80548216831790557f01c280a728be210244b097dc4cd29d9280634b7f01fca4073ae1dadfed7404e580548216831790557f63d535570a611f53d44a8b9cac8f7ef870f43453580a0aaa654a02479799a57680548216831790557f1543d29a2731af52c17611f9ede02eef67aab8325c2ccc6ee2ebd8a6635527f580548216831790557fbf529132fe76c160103ecad2a1aa8d204f23adbe6521cd4d08def0da7b9debaf80548216831790557fff45fc2a5b5687eeecbe1d4a7fb75e48c603c81db9e8b8bdcb7b1529f58397d580548216831790557f8f08664390c91421243a6b67b972d7c54954dbf60061d7e5f9e7abf7b4d6cbef80548216831790557fa0fca9e1ea4c57d3a8d6efa3daa5b65d3b370fb27ea5f44bc40f9714edfa969e80548216831790557f4ae1fb7ee4e2a8b73db517415c0dcc0d950ac0e3242b07c1b77ebad1395c004580548216831790557fb80621dc33e206dc337606e33f06377f35fb0e01bf753d7e0c8ab1ac1fa929f580548216831790557ff8443408b8cce52d80c881074c8aeca0b6265b29daf6a8e9ad578f1a97b079d580548216831790557f441a82394958d99dd3600f3529789b43460f934a9882f001100a5fff74f0b51480548216831790557fd1a658501074b3d1cdffefafd780a2af4262c3fb35f18966a556ad7a200782d880548216831790557f7f4c7e5c9f06c8bee2f15fe5514901a63f1ca0151c148efd3814c8a32d3da9e180548216831790557faf59abb7b2a24403410d53c702f8f332c0441e4d26fce10d27791c9ab972753780548216831790557f2678e1153e25a9671d8bfec4aa22c5d95343376bd40b5bb5ab6a5df41cf97be180548216831790557f5dc1599adf2c5960f56125cedc5dd069ed9a8a1b8557dd5eebdc47ce1780574f80548216831790557f8f7c0f1727dcb6d3aceeb0296b1ae65e0aff1a046adfa7d09a26ae3e486a43e180548216831790557f5008fe1a8a1f17ad8e0a10dc63c129801199fc482fcf25afbc27b2c08fa18ef480548216831790557fb048df62158b1bdb5fe70088d8666433abd96bf0910a2a16e5c6dc822ab2efd380548216831790557f03c76fbb19663738b5c63909b5befa2cc7e3b74e67cbd40d9ed2f1beff9e381180548216831790557f89d87211e72a0fdfb0c94fefdd71fba3947c0e755a88ad95281dfa913285eb4980548216831790557f54a674f924cb0517384222130463a01d70ba2c22b0875befeb893d087a44aeea80548216831790557fb3ffb14e9863ae33419f16a1e78ef489c4826810bbb6a5aac006daac82abeb5a80548216831790557f9bbd55ed444a859047295d445559b27b5a173b83fc69b6d53c74023b3ddd7c4980548216831790557f70c2b750d9799ea05485bedde564eaa4d3e6b32900c984ce9a784eb5c07efd8780548216831790557f476b3ee7c00892ba4344dc9421cc15cdc88eea4db443635d495ace4b933259c280548216831790557f217a4e97e64c17fc9fb4588adc03b6f4f5a5d211fa46976e507c6d714a00a03480548216831790557febf8d1ca5c9267ff7472681603cdf5660d83f8f87eb21d5140a63b14db385ae880548216831790557f33bc53e3b4cf2533da79a9873ba7cd9e41ea21cacbf29aad46c88e64e825e64f80548216831790557f30a92568343f55f7ce9dc0c7032aa38e1c6259fba1be354188f65f6bebb29b4780548216831790557ff95af76a036a13d60af35ef5368308e830cabe6b93d55a6a76074d2c9252990d80548216831790557f3ea480aaa0408ae361d1c7b5722ca8ec94b2bdb2970625cf5048241dbec2c05d80548216831790557f2a7ba53f0dcd359a3c895d58cecb858cd36cc5add3660ed5c968d6b9d367dfc980548216831790557fd8f166e1ca7d33b56b95ee5d08d232b6201d780d964e9084db5682754305d3f080548216831790557f8d6fc4438634177cf2c6e418d78ab45777c8198d6f86bb1ae40106073785b6f880548216831790557f28890443a1aed29526afdf401f90cf1b2db6282cc4f9a028cb7c68bffbd5a9df80548216831790557fa3ae2adb5c7b9077d7bc624a875f9ed8d5c935e0746e1ddcb1412ea8dcac33ba80548216831790557fd9e6d569c717e58bb6013e57c3f99ea10a6e27958250989e8f6dab2b649e3b3580548216831790557f9022a93f0a1e1c6fb0bebf9cbed0c9d316677b26fd6eb70962a14a20bbb798b980548216831790557fbe464464000000000000000000000000000000000000000000000000000000006000527f101e368776582e57ab3d116ffe2517c0a585cd5b23174b01e275c2d8329c3d836020527f571df3669e84e3c6fb784c4f11c5e8fd97ed4e5ad58bf7e5036f640dc6b2cbae8054909116821790557f4e5f991bca30eca2d4643aaefa807e88f96a4a97398933d572a3c0d973004a0155507f4ddf47d40000000000000000000000000000000000000000000000000000000090565b7f5705f5753aa4f617eef2cae1dada3d3355e9387b04d19191f09b545e684ca50d5473ffffffffffffffffffffffffffffffffffffffff163373ffffffffffffffffffffffffffffffffffffffff1614610ecf576040517f08c379a000000000000000000000000000000000000000000000000000000000815260206004820152601e60248201527f484f4c4f47524150483a2061646d696e206f6e6c792066756e6374696f6e0000604482015260640161028f565b80600080856003811115610ee557610ee5611e59565b6003811115610ef657610ef6611e59565b8152602080820192909252604090810160009081207fffffffff000000000000000000000000000000000000000000000000000000009690961681529490915290922080547fffffffffffffffffffffffffffffffffffffffffffffffffffffffffffffff0016921515929092179091555050565b7f5705f5753aa4f617eef2cae1dada3d3355e9387b04d19191f09b545e684ca50d5473ffffffffffffffffffffffffffffffffffffffff163373ffffffffffffffffffffffffffffffffffffffff1614611021576040517f08c379a000000000000000000000000000000000000000000000000000000000815260206004820152601e60248201527f484f4c4f47524150483a2061646d696e206f6e6c792066756e6374696f6e0000604482015260640161028f565b7f5705f5753aa4f617eef2cae1dada3d3355e9387b04d19191f09b545e684ca50d55565b606061109589898b8b8b8b8b8b61105f8c61ffff16611240565b6110688c6113a0565b6040516020016110819a99989796959493929190611e88565b604051602081830303815290604052611524565b6040516020016110a59190612005565b604051602081830303815290604052905098975050505050505050565b60008060008460038111156110d9576110d9611e59565b60038111156110ea576110ea611e59565b8152602080820192909252604090810160009081207fffffffff000000000000000000000000000000000000000000000000000000008616825290925290205460ff1690505b92915050565b7f5705f5753aa4f617eef2cae1dada3d3355e9387b04d19191f09b545e684ca50d5473ffffffffffffffffffffffffffffffffffffffff163373ffffffffffffffffffffffffffffffffffffffff16146111ec576040517f08c379a000000000000000000000000000000000000000000000000000000000815260206004820152601e60248201527f484f4c4f47524150483a2061646d696e206f6e6c792066756e6374696f6e0000604482015260640161028f565b808260003760008082600034875af13d6000803e80801561120c573d6000f35b3d6000fd5b600061123b7f5705f5753aa4f617eef2cae1dada3d3355e9387b04d19191f09b545e684ca50d5490565b905090565b60608160000361128357505060408051808201909152600181527f3000000000000000000000000000000000000000000000000000000000000000602082015290565b8160005b81156112ad578061129781612079565b91506112a69050600a836120e0565b9150611287565b60008167ffffffffffffffff8111156112c8576112c8611a51565b6040519080825280601f01601f1916602001820160405280156112f2576020820181803683370190505b509050815b8515611397576113086001826120f4565b90506000611317600a886120e0565b61132290600a61210b565b61132c90886120f4565b611337906030612148565b905060008160f81b9050808484815181106113545761135461216d565b60200101907effffffffffffffffffffffffffffffffffffffffffffffffffffffffffffff1916908160001a90535061138e600a896120e0565b975050506112f7565b50949350505050565b60408051602880825260608281019093526000919060208201818036833701905050905060005b601481101561151d5760006113dd8260136120f4565b6113e890600861210b565b6113f39060026122bc565b6114139073ffffffffffffffffffffffffffffffffffffffff87166120e0565b60f81b9050600060108260f81c61142a91906122c8565b60f81b905060008160f81c601061144191906122ea565b8360f81c61144f919061230b565b60f81b905061145d826118fb565b8561146986600261210b565b815181106114795761147961216d565b60200101907effffffffffffffffffffffffffffffffffffffffffffffffffffffffffffff1916908160001a9053506114b1816118fb565b856114bd86600261210b565b6114c890600161232e565b815181106114d8576114d861216d565b60200101907effffffffffffffffffffffffffffffffffffffffffffffffffffffffffffff1916908160001a905350505050808061151590612079565b9150506113c7565b5092915050565b60606000600383516115369190612346565b90506000600361154683826120f4565b6115509190612346565b600385516002611560919061232e565b61156a91906120e0565b61157590600461210b565b61157f91906120f4565b905060008167ffffffffffffffff81111561159c5761159c611a51565b6040519080825280601f01601f1916602001820160405280156115c6576020820181803683370190505b5090506000805b86516115da83600361232e565b11611784576116498783815181106115f4576115f461216d565b016020015160f81c8861160885600161232e565b815181106116185761161861216d565b016020015160f81c8961162c86600261232e565b8151811061163c5761163c61216d565b016020015160f81c611936565b86858151811061165b5761165b61216d565b016020018761166b87600161232e565b8151811061167b5761167b61216d565b016020018861168b88600261232e565b8151811061169b5761169b61216d565b01602001896116ab89600361232e565b815181106116bb576116bb61216d565b7fff00000000000000000000000000000000000000000000000000000000000000861660001a9101602001537fff00000000000000000000000000000000000000000000000000000000000000851660001a90537fff00000000000000000000000000000000000000000000000000000000000000851660001a90537fff00000000000000000000000000000000000000000000000000000000000000851660001a905350505050600481611770919061232e565b905061177d60038361232e565b91506115cd565b84156118f05760008786895161179a91906120f4565b815181106117aa576117aa61216d565b016020015160f81c9050600060028790036117e9578860018a516117ce91906120f4565b815181106117de576117de61216d565b016020015160f81c90505b60008060006118008560ff168560ff166000611936565b509250925092508288878151811061181a5761181a61216d565b60200101907effffffffffffffffffffffffffffffffffffffffffffffffffffffffffffff1916908160001a905350818861185688600161232e565b815181106118665761186661216d565b60200101907effffffffffffffffffffffffffffffffffffffffffffffffffffffffffffff1916908160001a905350896002036118ea5780886118aa88600261232e565b815181106118ba576118ba61216d565b60200101907effffffffffffffffffffffffffffffffffffffffffffffffffffffffffffff1916908160001a9053505b50505050505b509095945050505050565b6000600a60f883901c10156119225761191960f883901c6030612148565b60f81b92915050565b61191960f883901c6057612148565b919050565b60408051606081018252818152600091829182918291601089901b600889901b17871791603f601284901c811692600c85901c821692600686901c8316928616919061235b602083013984815181106119915761199161216d565b602001015160f81c60f81b985060405180606001604052806040815260200161235b6040913983815181106119c8576119c861216d565b602001015160f81c60f81b975060405180606001604052806040815260200161235b6040913982815181106119ff576119ff61216d565b602001015160f81c60f81b965060405180606001604052806040815260200161235b604091398181518110611a3657611a3661216d565b602001015160f81c60f81b9550505050505093509350935093565b7f4e487b7100000000000000000000000000000000000000000000000000000000600052604160045260246000fd5b600060208284031215611a9257600080fd5b813567ffffffffffffffff80821115611aaa57600080fd5b818401915084601f830112611abe57600080fd5b813581811115611ad057611ad0611a51565b604051601f82017fffffffffffffffffffffffffffffffffffffffffffffffffffffffffffffffe0908116603f01168101908382118183101715611b1657611b16611a51565b81604052828152876020848701011115611b2f57600080fd5b826020860160208301376000928101602001929092525095945050505050565b80356004811061193157600080fd5b80357fffffffff000000000000000000000000000000000000000000000000000000008116811461193157600080fd5b600080600060608486031215611ba357600080fd5b611bac84611b4f565b9250611bba60208501611b5e565b915060408401358015158114611bcf57600080fd5b809150509250925092565b73ffffffffffffffffffffffffffffffffffffffff81168114611bfc57600080fd5b50565b600060208284031215611c1157600080fd5b8135611c1c81611bda565b9392505050565b60008083601f840112611c3557600080fd5b50813567ffffffffffffffff811115611c4d57600080fd5b602083019150836020828501011115611c6557600080fd5b9250929050565b60008060008060008060008060a0898b031215611c8857600080fd5b883567ffffffffffffffff80821115611ca057600080fd5b611cac8c838d01611c23565b909a50985060208b0135915080821115611cc557600080fd5b611cd18c838d01611c23565b909850965060408b0135915080821115611cea57600080fd5b50611cf78b828c01611c23565b909550935050606089013561ffff81168114611d1257600080fd5b91506080890135611d2281611bda565b809150509295985092959890939650565b60005b83811015611d4e578181015183820152602001611d36565b83811115611d5d576000848401525b50505050565b6020815260008251806020840152611d82816040850160208701611d33565b601f017fffffffffffffffffffffffffffffffffffffffffffffffffffffffffffffffe0169190910160400192915050565b60008060408385031215611dc757600080fd5b611dd083611b4f565b9150611dde60208401611b5e565b90509250929050565b600080600060408486031215611dfc57600080fd5b8335611e0781611bda565b9250602084013567ffffffffffffffff811115611e2357600080fd5b611e2f86828701611c23565b9497909650939450505050565b600060208284031215611e4e57600080fd5b8151611c1c81611bda565b7f4e487b7100000000000000000000000000000000000000000000000000000000600052602160045260246000fd5b7f7b226e616d65223a2200000000000000000000000000000000000000000000008152898b600983013760008a82017f222c226465736372697074696f6e223a220000000000000000000000000000006009820152898b601a8301377f222c22696d616765223a22000000000000000000000000000000000000000000601a918b0191820152878960258301377f222c2265787465726e616c5f6c696e6b223a2200000000000000000000000000602591890191820152858760388301377f222c2273656c6c65725f6665655f62617369735f706f696e7473223a000000006038918701918201528451611f83816054840160208901611d33565b7f2c226665655f726563697069656e74223a223078000000000000000000000000605492909101918201528351611fc1816068840160208801611d33565b611ff36068828401017f227d000000000000000000000000000000000000000000000000000000000000815260020190565b9e9d5050505050505050505050505050565b7f646174613a6170706c69636174696f6e2f6a736f6e3b6261736536342c00000081526000825161203d81601d850160208701611d33565b91909101601d0192915050565b7f4e487b7100000000000000000000000000000000000000000000000000000000600052601160045260246000fd5b60007fffffffffffffffffffffffffffffffffffffffffffffffffffffffffffffffff82036120aa576120aa61204a565b5060010190565b7f4e487b7100000000000000000000000000000000000000000000000000000000600052601260045260246000fd5b6000826120ef576120ef6120b1565b500490565b6000828210156121065761210661204a565b500390565b6000817fffffffffffffffffffffffffffffffffffffffffffffffffffffffffffffffff04831182151516156121435761214361204a565b500290565b600060ff821660ff84168060ff038211156121655761216561204a565b019392505050565b7f4e487b7100000000000000000000000000000000000000000000000000000000600052603260045260246000fd5b600181815b808511156121f557817fffffffffffffffffffffffffffffffffffffffffffffffffffffffffffffffff048211156121db576121db61204a565b808516156121e857918102915b93841c93908002906121a1565b509250929050565b60008261220c57506001611130565b8161221957506000611130565b816001811461222f576002811461223957612255565b6001915050611130565b60ff84111561224a5761224a61204a565b50506001821b611130565b5060208310610133831016604e8410600b8410161715612278575081810a611130565b612282838361219c565b807fffffffffffffffffffffffffffffffffffffffffffffffffffffffffffffffff048211156122b4576122b461204a565b029392505050565b6000611c1c83836121fd565b600060ff8316806122db576122db6120b1565b8060ff84160491505092915050565b600060ff821660ff84168160ff04811182151516156122b4576122b461204a565b600060ff821660ff8416808210156123255761232561204a565b90039392505050565b600082198211156123415761234161204a565b500190565b600082612355576123556120b1565b50069056fe4142434445464748494a4b4c4d4e4f505152535455565758595a6162636465666768696a6b6c6d6e6f707172737475767778797a303132333435363738392d5fa164736f6c634300080d000a",
  "devdoc": {
    "kind": "dev",
    "methods": {},
    "version": 1
  },
  "userdoc": {
    "kind": "user",
    "methods": {},
    "version": 1
  },
  "storageLayout": {
    "storage": [
      {
        "astId": 6578,
        "contract": "contracts/Interfaces.sol:Interfaces",
        "label": "_supportedInterfaces",
        "offset": 0,
        "slot": "0",
        "type": "t_mapping(t_enum(InterfaceType)11453,t_mapping(t_bytes4,t_bool))"
      }
    ],
    "types": {
      "t_bool": {
        "encoding": "inplace",
        "label": "bool",
        "numberOfBytes": "1"
      },
      "t_bytes4": {
        "encoding": "inplace",
        "label": "bytes4",
        "numberOfBytes": "4"
      },
      "t_enum(InterfaceType)11453": {
        "encoding": "inplace",
        "label": "enum InterfaceType",
        "numberOfBytes": "1"
      },
      "t_mapping(t_bytes4,t_bool)": {
        "encoding": "mapping",
        "key": "t_bytes4",
        "label": "mapping(bytes4 => bool)",
        "numberOfBytes": "32",
        "value": "t_bool"
      },
      "t_mapping(t_enum(InterfaceType)11453,t_mapping(t_bytes4,t_bool))": {
        "encoding": "mapping",
        "key": "t_enum(InterfaceType)11453",
        "label": "mapping(enum InterfaceType => mapping(bytes4 => bool))",
        "numberOfBytes": "32",
        "value": "t_mapping(t_bytes4,t_bool)"
      }
    }
  }
}