{
  "address": "0x8D8B74906E84536dB65C4834523fb9D17718A032",
  "abi": [
    {
      "inputs": [],
      "stateMutability": "nonpayable",
      "type": "constructor"
    },
    {
      "stateMutability": "payable",
      "type": "fallback"
    },
    {
      "inputs": [],
      "name": "admin",
      "outputs": [
        {
          "internalType": "address",
          "name": "",
          "type": "address"
        }
      ],
      "stateMutability": "view",
      "type": "function"
    },
    {
      "inputs": [
        {
          "internalType": "address",
          "name": "target",
          "type": "address"
        },
        {
          "internalType": "bytes",
          "name": "data",
          "type": "bytes"
        }
      ],
      "name": "adminCall",
      "outputs": [],
      "stateMutability": "payable",
      "type": "function"
    },
    {
      "inputs": [
        {
          "internalType": "string",
          "name": "name",
          "type": "string"
        },
        {
          "internalType": "string",
          "name": "imageURL",
          "type": "string"
        },
        {
          "internalType": "string",
          "name": "externalLink",
          "type": "string"
        },
        {
          "internalType": "uint16",
          "name": "bps",
          "type": "uint16"
        },
        {
          "internalType": "address",
          "name": "contractAddress",
          "type": "address"
        }
      ],
      "name": "contractURI",
      "outputs": [
        {
          "internalType": "string",
          "name": "",
          "type": "string"
        }
      ],
      "stateMutability": "pure",
      "type": "function"
    },
    {
      "inputs": [],
      "name": "getAdmin",
      "outputs": [
        {
          "internalType": "address",
          "name": "adminAddress",
          "type": "address"
        }
      ],
      "stateMutability": "view",
      "type": "function"
    },
    {
      "inputs": [
        {
          "internalType": "bytes",
          "name": "data",
          "type": "bytes"
        }
      ],
      "name": "init",
      "outputs": [
        {
          "internalType": "bytes4",
          "name": "",
          "type": "bytes4"
        }
      ],
      "stateMutability": "nonpayable",
      "type": "function"
    },
    {
      "inputs": [
        {
          "internalType": "address",
          "name": "adminAddress",
          "type": "address"
        }
      ],
      "name": "setAdmin",
      "outputs": [],
      "stateMutability": "nonpayable",
      "type": "function"
    },
    {
      "inputs": [
        {
          "internalType": "enum InterfaceType",
          "name": "interfaceType",
          "type": "uint8"
        },
        {
          "internalType": "bytes4",
          "name": "interfaceId",
          "type": "bytes4"
        }
      ],
      "name": "supportsInterface",
      "outputs": [
        {
          "internalType": "bool",
          "name": "",
          "type": "bool"
        }
      ],
      "stateMutability": "view",
      "type": "function"
    },
    {
      "inputs": [
        {
          "internalType": "enum InterfaceType",
          "name": "interfaceType",
          "type": "uint8"
        },
        {
          "internalType": "bytes4",
          "name": "interfaceId",
          "type": "bytes4"
        },
        {
          "internalType": "bool",
          "name": "supported",
          "type": "bool"
        }
      ],
      "name": "updateInterface",
      "outputs": [],
      "stateMutability": "nonpayable",
      "type": "function"
    },
    {
      "stateMutability": "payable",
      "type": "receive"
    }
  ],
  "transactionHash": "0xae5c3c3039ad393585730d5d5fbaaaa9b610ae029211e877a75dbfd6f45927ce",
  "args": [],
  "numDeployments": 1,
  "solcInputHash": "fce9b8e72ee392c2ed836f8a75e0bbef",
  "bytecode": "0x608060405234801561001057600080fd5b5061204a806100206000396000f3fe60806040526004361061007f5760003560e01c80639cf149da1161004e5780639cf149da1461017b5780639fe7303f146101a8578063bf64a82d146101d8578063f851a440146101eb57600080fd5b80634ddf47d41461008e5780636d97233f146100e45780636e9960c314610106578063704b6c021461015b57600080fd5b3661008957600080fd5b600080fd5b34801561009a57600080fd5b506100ae6100a9366004611723565b610200565b6040517fffffffff0000000000000000000000000000000000000000000000000000000090911681526020015b60405180910390f35b3480156100f057600080fd5b506101046100ff366004611831565b610abc565b005b34801561011257600080fd5b507f5705f5753aa4f617eef2cae1dada3d3355e9387b04d19191f09b545e684ca50d545b60405173ffffffffffffffffffffffffffffffffffffffff90911681526020016100db565b34801561016757600080fd5b506101046101763660046118a2565b610c0e565b34801561018757600080fd5b5061019b61019636600461190f565b610ce8565b6040516100db9190611a06565b3480156101b457600080fd5b506101c86101c3366004611a57565b610d65565b60405190151581526020016100db565b6101046101e6366004611a8a565b610dd9565b3480156101f757600080fd5b50610136610eb4565b600061022c7f4e5f991bca30eca2d4643aaefa807e88f96a4a97398933d572a3c0d973004a0154151590565b15610298576040517f08c379a000000000000000000000000000000000000000000000000000000000815260206004820152601e60248201527f484f4c4f47524150483a20616c726561647920696e697469616c697a6564000060448201526064015b60405180910390fd5b6000828060200190518101906102ae9190611adf565b7f5705f5753aa4f617eef2cae1dada3d3355e9387b04d19191f09b545e684ca50d5550507f8081f2e62baa7b6d5d07c2eb4ca92b6f991bec7fca8510bbe6931c8fa25569cd805460017fffffffffffffffffffffffffffffffffffffffffffffffffffffffffffffff0091821681179092557fdb93507e3c32aca898a51b46c4ae5b96232e700c4741348044ba840a38ac4f1c80548216831790557fade3797baf3ffd7083e1ed9ea080ff3ef544881c83bc3807e8f663fe6b26848e80548216831790557f75459bc0add31586819f61897df672807b6a02a1c35d4416e8f3f96b720e4e2080548216831790557f2788346cd83b80e553b9d8f6959ca333e2686b3e06cf4fe721963c0d2f379f3780548216831790557ffe788db07c28f38d3b235fb852c9f68e3dd1a89aff5667db632ba16388c12c0c80548216831790557fc6d7d7d56db5de3a3a38fe541eba127be5ed7e1635d77a3661191cdc2240c7c280548216831790557f0f793d685e17c331691863057e13d30ce8fc59fc20c11c8a403fb695b828a28d80548216831790557f0a8beb5952c629a8e5015a0e77e8e6d1576582c3d5fc469e6b934759b3d7259380548216831790557ff55a84ef4a9dd574c43f58a245d98d7494c11e8c25370db5ca6a994b9e8ae11880548216831790557fa062888372265a5e7933896ff0d0a812f3a24a29b5ec85ab00b88e0d1905e7ef80548216831790557f9fbc50d9d361e5ca789614e4073ba9ffae76238a8ab1acde87e559aaabf19d0c80548216831790557fd97b3e61aa1f163ae7a050e4f15ac409ac252e321ef5f8c00aebe96fe97b4b7580548216831790557ffb724b01794f8c1959475354bb2174502f87f8275f218573bc936ecacabcec8780548216831790557f98fd37be456c34bfed0e53cbb4ec6656b1ef760b140e9c2959c087783a3ca58d80548216831790557fa73cb153a4163e26314cfcfa7e02f6b4b3dff3e178a7e404477882b03f22c0d480548216831790557f726f40138b2be84435519cfca804e9bac126a812fcef1d36c0ac15634d0593fa80548216831790557f8b5c21077e214a258ec13d0a578a763e224e56384991dbf7e980d8a45acf29c880548216831790557fb6714480718896d6fb0a01c610576228009a3295df6a77fc98dd045283e3169f80548216831790557fb915a15f410692e5a47a31f8ef9648a67222c842f85e5ed6f326509eaebc7ca180548216831790557f46d98f16bd840d7e66435003a32f382b04681110e0deb6a4bbbf8229f871106180548216831790557f0a402010e0ed89d588697182e0b8ac614ef4c95d638411c7fca4d2855f28217580548216831790557f2fe662d1b31351bb1fc8b0b24227b1485ffa37d183d099d603b67ff383f62a1780548216831790557f6881aa153bfffe0daf3bc03a3c08dfd277346437f988268d91db220a417d4c6880548216831790557f304d9160b7aa71190a7a35ee0f4bb758d16660f4df8c0a6b46a70a12102e0e8980548216831790557f01f418530287530c5a6a30257ddc85333d5071425af340b8531c2e39d431650f80548216831790557f01c280a728be210244b097dc4cd29d9280634b7f01fca4073ae1dadfed7404e580548216831790557f63d535570a611f53d44a8b9cac8f7ef870f43453580a0aaa654a02479799a57680548216831790557f1543d29a2731af52c17611f9ede02eef67aab8325c2ccc6ee2ebd8a6635527f580548216831790557fbf529132fe76c160103ecad2a1aa8d204f23adbe6521cd4d08def0da7b9debaf80548216831790557fff45fc2a5b5687eeecbe1d4a7fb75e48c603c81db9e8b8bdcb7b1529f58397d580548216831790557f8f08664390c91421243a6b67b972d7c54954dbf60061d7e5f9e7abf7b4d6cbef80548216831790557fa0fca9e1ea4c57d3a8d6efa3daa5b65d3b370fb27ea5f44bc40f9714edfa969e80548216831790557f4ae1fb7ee4e2a8b73db517415c0dcc0d950ac0e3242b07c1b77ebad1395c004580548216831790557fb80621dc33e206dc337606e33f06377f35fb0e01bf753d7e0c8ab1ac1fa929f580548216831790557ff8443408b8cce52d80c881074c8aeca0b6265b29daf6a8e9ad578f1a97b079d580548216831790557f441a82394958d99dd3600f3529789b43460f934a9882f001100a5fff74f0b51480548216831790557fd1a658501074b3d1cdffefafd780a2af4262c3fb35f18966a556ad7a200782d880548216831790557f7f4c7e5c9f06c8bee2f15fe5514901a63f1ca0151c148efd3814c8a32d3da9e180548216831790557faf59abb7b2a24403410d53c702f8f332c0441e4d26fce10d27791c9ab972753780548216831790557f2678e1153e25a9671d8bfec4aa22c5d95343376bd40b5bb5ab6a5df41cf97be180548216831790557f5dc1599adf2c5960f56125cedc5dd069ed9a8a1b8557dd5eebdc47ce1780574f80548216831790557f8f7c0f1727dcb6d3aceeb0296b1ae65e0aff1a046adfa7d09a26ae3e486a43e180548216831790557f5008fe1a8a1f17ad8e0a10dc63c129801199fc482fcf25afbc27b2c08fa18ef480548216831790557fe8a3d485000000000000000000000000000000000000000000000000000000006000527fada5013122d395ba3c54772283fb069b10426056ef8ca54750cb9bb552a59e7d6020527fb048df62158b1bdb5fe70088d8666433abd96bf0910a2a16e5c6dc822ab2efd38054909116821790557f4e5f991bca30eca2d4643aaefa807e88f96a4a97398933d572a3c0d973004a0155507f4ddf47d40000000000000000000000000000000000000000000000000000000090565b7f5705f5753aa4f617eef2cae1dada3d3355e9387b04d19191f09b545e684ca50d5473ffffffffffffffffffffffffffffffffffffffff163373ffffffffffffffffffffffffffffffffffffffff1614610b72576040517f08c379a000000000000000000000000000000000000000000000000000000000815260206004820152601e60248201527f484f4c4f47524150483a2061646d696e206f6e6c792066756e6374696f6e0000604482015260640161028f565b80600080856001811115610b8857610b88611afc565b6001811115610b9957610b99611afc565b8152602080820192909252604090810160009081207fffffffff000000000000000000000000000000000000000000000000000000009690961681529490915290922080547fffffffffffffffffffffffffffffffffffffffffffffffffffffffffffffff0016921515929092179091555050565b7f5705f5753aa4f617eef2cae1dada3d3355e9387b04d19191f09b545e684ca50d5473ffffffffffffffffffffffffffffffffffffffff163373ffffffffffffffffffffffffffffffffffffffff1614610cc4576040517f08c379a000000000000000000000000000000000000000000000000000000000815260206004820152601e60248201527f484f4c4f47524150483a2061646d696e206f6e6c792066756e6374696f6e0000604482015260640161028f565b7f5705f5753aa4f617eef2cae1dada3d3355e9387b04d19191f09b545e684ca50d55565b6060610d3889898b8b8b8b8b8b610d028c61ffff16610ee3565b610d0b8c611043565b604051602001610d249a99989796959493929190611b2b565b6040516020818303038152906040526111c7565b604051602001610d489190611ca8565b604051602081830303815290604052905098975050505050505050565b6000806000846001811115610d7c57610d7c611afc565b6001811115610d8d57610d8d611afc565b8152602080820192909252604090810160009081207fffffffff000000000000000000000000000000000000000000000000000000008616825290925290205460ff1690505b92915050565b7f5705f5753aa4f617eef2cae1dada3d3355e9387b04d19191f09b545e684ca50d5473ffffffffffffffffffffffffffffffffffffffff163373ffffffffffffffffffffffffffffffffffffffff1614610e8f576040517f08c379a000000000000000000000000000000000000000000000000000000000815260206004820152601e60248201527f484f4c4f47524150483a2061646d696e206f6e6c792066756e6374696f6e0000604482015260640161028f565b808260003760008082600034875af13d6000803e808015610eaf573d6000f35b3d6000fd5b6000610ede7f5705f5753aa4f617eef2cae1dada3d3355e9387b04d19191f09b545e684ca50d5490565b905090565b606081600003610f2657505060408051808201909152600181527f3000000000000000000000000000000000000000000000000000000000000000602082015290565b8160005b8115610f505780610f3a81611d1c565b9150610f499050600a83611d83565b9150610f2a565b60008167ffffffffffffffff811115610f6b57610f6b6116f4565b6040519080825280601f01601f191660200182016040528015610f95576020820181803683370190505b509050815b851561103a57610fab600182611d97565b90506000610fba600a88611d83565b610fc590600a611dae565b610fcf9088611d97565b610fda906030611deb565b905060008160f81b905080848481518110610ff757610ff7611e10565b60200101907effffffffffffffffffffffffffffffffffffffffffffffffffffffffffffff1916908160001a905350611031600a89611d83565b97505050610f9a565b50949350505050565b60408051602880825260608281019093526000919060208201818036833701905050905060005b60148110156111c0576000611080826013611d97565b61108b906008611dae565b611096906002611f5f565b6110b69073ffffffffffffffffffffffffffffffffffffffff8716611d83565b60f81b9050600060108260f81c6110cd9190611f6b565b60f81b905060008160f81c60106110e49190611f8d565b8360f81c6110f29190611fae565b60f81b90506111008261159e565b8561110c866002611dae565b8151811061111c5761111c611e10565b60200101907effffffffffffffffffffffffffffffffffffffffffffffffffffffffffffff1916908160001a9053506111548161159e565b85611160866002611dae565b61116b906001611fd1565b8151811061117b5761117b611e10565b60200101907effffffffffffffffffffffffffffffffffffffffffffffffffffffffffffff1916908160001a90535050505080806111b890611d1c565b91505061106a565b5092915050565b60606000600383516111d99190611fe9565b9050600060036111e98382611d97565b6111f39190611fe9565b6003855160026112039190611fd1565b61120d9190611d83565b611218906004611dae565b6112229190611d97565b905060008167ffffffffffffffff81111561123f5761123f6116f4565b6040519080825280601f01601f191660200182016040528015611269576020820181803683370190505b5090506000805b865161127d836003611fd1565b11611427576112ec87838151811061129757611297611e10565b016020015160f81c886112ab856001611fd1565b815181106112bb576112bb611e10565b016020015160f81c896112cf866002611fd1565b815181106112df576112df611e10565b016020015160f81c6115d9565b8685815181106112fe576112fe611e10565b016020018761130e876001611fd1565b8151811061131e5761131e611e10565b016020018861132e886002611fd1565b8151811061133e5761133e611e10565b016020018961134e896003611fd1565b8151811061135e5761135e611e10565b7fff00000000000000000000000000000000000000000000000000000000000000861660001a9101602001537fff00000000000000000000000000000000000000000000000000000000000000851660001a90537fff00000000000000000000000000000000000000000000000000000000000000851660001a90537fff00000000000000000000000000000000000000000000000000000000000000851660001a9053505050506004816114139190611fd1565b9050611420600383611fd1565b9150611270565b84156115935760008786895161143d9190611d97565b8151811061144d5761144d611e10565b016020015160f81c90506000600287900361148c578860018a516114719190611d97565b8151811061148157611481611e10565b016020015160f81c90505b60008060006114a38560ff168560ff1660006115d9565b50925092509250828887815181106114bd576114bd611e10565b60200101907effffffffffffffffffffffffffffffffffffffffffffffffffffffffffffff1916908160001a90535081886114f9886001611fd1565b8151811061150957611509611e10565b60200101907effffffffffffffffffffffffffffffffffffffffffffffffffffffffffffff1916908160001a9053508960020361158d57808861154d886002611fd1565b8151811061155d5761155d611e10565b60200101907effffffffffffffffffffffffffffffffffffffffffffffffffffffffffffff1916908160001a9053505b50505050505b509095945050505050565b6000600a60f883901c10156115c5576115bc60f883901c6030611deb565b60f81b92915050565b6115bc60f883901c6057611deb565b919050565b60408051606081018252818152600091829182918291601089901b600889901b17871791603f601284901c811692600c85901c821692600686901c83169286169190611ffe6020830139848151811061163457611634611e10565b602001015160f81c60f81b9850604051806060016040528060408152602001611ffe60409139838151811061166b5761166b611e10565b602001015160f81c60f81b9750604051806060016040528060408152602001611ffe6040913982815181106116a2576116a2611e10565b602001015160f81c60f81b9650604051806060016040528060408152602001611ffe6040913981815181106116d9576116d9611e10565b602001015160f81c60f81b9550505050505093509350935093565b7f4e487b7100000000000000000000000000000000000000000000000000000000600052604160045260246000fd5b60006020828403121561173557600080fd5b813567ffffffffffffffff8082111561174d57600080fd5b818401915084601f83011261176157600080fd5b813581811115611773576117736116f4565b604051601f82017fffffffffffffffffffffffffffffffffffffffffffffffffffffffffffffffe0908116603f011681019083821181831017156117b9576117b96116f4565b816040528281528760208487010111156117d257600080fd5b826020860160208301376000928101602001929092525095945050505050565b8035600281106115d457600080fd5b80357fffffffff00000000000000000000000000000000000000000000000000000000811681146115d457600080fd5b60008060006060848603121561184657600080fd5b61184f846117f2565b925061185d60208501611801565b91506040840135801515811461187257600080fd5b809150509250925092565b73ffffffffffffffffffffffffffffffffffffffff8116811461189f57600080fd5b50565b6000602082840312156118b457600080fd5b81356118bf8161187d565b9392505050565b60008083601f8401126118d857600080fd5b50813567ffffffffffffffff8111156118f057600080fd5b60208301915083602082850101111561190857600080fd5b9250929050565b60008060008060008060008060a0898b03121561192b57600080fd5b883567ffffffffffffffff8082111561194357600080fd5b61194f8c838d016118c6565b909a50985060208b013591508082111561196857600080fd5b6119748c838d016118c6565b909850965060408b013591508082111561198d57600080fd5b5061199a8b828c016118c6565b909550935050606089013561ffff811681146119b557600080fd5b915060808901356119c58161187d565b809150509295985092959890939650565b60005b838110156119f15781810151838201526020016119d9565b83811115611a00576000848401525b50505050565b6020815260008251806020840152611a258160408501602087016119d6565b601f017fffffffffffffffffffffffffffffffffffffffffffffffffffffffffffffffe0169190910160400192915050565b60008060408385031215611a6a57600080fd5b611a73836117f2565b9150611a8160208401611801565b90509250929050565b600080600060408486031215611a9f57600080fd5b8335611aaa8161187d565b9250602084013567ffffffffffffffff811115611ac657600080fd5b611ad2868287016118c6565b9497909650939450505050565b600060208284031215611af157600080fd5b81516118bf8161187d565b7f4e487b7100000000000000000000000000000000000000000000000000000000600052602160045260246000fd5b7f7b226e616d65223a2200000000000000000000000000000000000000000000008152898b600983013760008a82017f222c226465736372697074696f6e223a220000000000000000000000000000006009820152898b601a8301377f222c22696d616765223a22000000000000000000000000000000000000000000601a918b0191820152878960258301377f222c2265787465726e616c5f6c696e6b223a2200000000000000000000000000602591890191820152858760388301377f222c2273656c6c65725f6665655f62617369735f706f696e7473223a000000006038918701918201528451611c268160548401602089016119d6565b7f2c226665655f726563697069656e74223a223078000000000000000000000000605492909101918201528351611c648160688401602088016119d6565b611c966068828401017f227d000000000000000000000000000000000000000000000000000000000000815260020190565b9e9d5050505050505050505050505050565b7f646174613a6170706c69636174696f6e2f6a736f6e3b6261736536342c000000815260008251611ce081601d8501602087016119d6565b91909101601d0192915050565b7f4e487b7100000000000000000000000000000000000000000000000000000000600052601160045260246000fd5b60007fffffffffffffffffffffffffffffffffffffffffffffffffffffffffffffffff8203611d4d57611d4d611ced565b5060010190565b7f4e487b7100000000000000000000000000000000000000000000000000000000600052601260045260246000fd5b600082611d9257611d92611d54565b500490565b600082821015611da957611da9611ced565b500390565b6000817fffffffffffffffffffffffffffffffffffffffffffffffffffffffffffffffff0483118215151615611de657611de6611ced565b500290565b600060ff821660ff84168060ff03821115611e0857611e08611ced565b019392505050565b7f4e487b7100000000000000000000000000000000000000000000000000000000600052603260045260246000fd5b600181815b80851115611e9857817fffffffffffffffffffffffffffffffffffffffffffffffffffffffffffffffff04821115611e7e57611e7e611ced565b80851615611e8b57918102915b93841c9390800290611e44565b509250929050565b600082611eaf57506001610dd3565b81611ebc57506000610dd3565b8160018114611ed25760028114611edc57611ef8565b6001915050610dd3565b60ff841115611eed57611eed611ced565b50506001821b610dd3565b5060208310610133831016604e8410600b8410161715611f1b575081810a610dd3565b611f258383611e3f565b807fffffffffffffffffffffffffffffffffffffffffffffffffffffffffffffffff04821115611f5757611f57611ced565b029392505050565b60006118bf8383611ea0565b600060ff831680611f7e57611f7e611d54565b8060ff84160491505092915050565b600060ff821660ff84168160ff0481118215151615611f5757611f57611ced565b600060ff821660ff841680821015611fc857611fc8611ced565b90039392505050565b60008219821115611fe457611fe4611ced565b500190565b600082611ff857611ff8611d54565b50069056fe4142434445464748494a4b4c4d4e4f505152535455565758595a6162636465666768696a6b6c6d6e6f707172737475767778797a303132333435363738392d5fa164736f6c634300080d000a",
  "devdoc": {
    "kind": "dev",
    "methods": {},
    "version": 1
  },
  "userdoc": {
    "kind": "user",
    "methods": {},
    "version": 1
  },
  "storageLayout": {
    "storage": [
      {
        "astId": 6568,
        "contract": "contracts/Interfaces.sol:Interfaces",
        "label": "_supportedInterfaces",
        "offset": 0,
        "slot": "0",
        "type": "t_mapping(t_enum(InterfaceType)11210,t_mapping(t_bytes4,t_bool))"
      }
    ],
    "types": {
      "t_bool": {
        "encoding": "inplace",
        "label": "bool",
        "numberOfBytes": "1"
      },
      "t_bytes4": {
        "encoding": "inplace",
        "label": "bytes4",
        "numberOfBytes": "4"
      },
      "t_enum(InterfaceType)11210": {
        "encoding": "inplace",
        "label": "enum InterfaceType",
        "numberOfBytes": "1"
      },
      "t_mapping(t_bytes4,t_bool)": {
        "encoding": "mapping",
        "key": "t_bytes4",
        "label": "mapping(bytes4 => bool)",
        "numberOfBytes": "32",
        "value": "t_bool"
      },
      "t_mapping(t_enum(InterfaceType)11210,t_mapping(t_bytes4,t_bool))": {
        "encoding": "mapping",
        "key": "t_enum(InterfaceType)11210",
        "label": "mapping(enum InterfaceType => mapping(bytes4 => bool))",
        "numberOfBytes": "32",
        "value": "t_mapping(t_bytes4,t_bool)"
      }
    }
  }
}