{
  "address": "0x362cD0CD47d50332e2e654258858F638E7311c78",
  "abi": [
    {
      "inputs": [],
      "stateMutability": "nonpayable",
      "type": "constructor"
    },
    {
      "anonymous": false,
      "inputs": [
        {
          "indexed": true,
          "internalType": "address",
          "name": "previousOwner",
          "type": "address"
        },
        {
          "indexed": true,
          "internalType": "address",
          "name": "newOwner",
          "type": "address"
        }
      ],
      "name": "OwnershipTransferred",
      "type": "event"
    },
    {
      "anonymous": false,
      "inputs": [
        {
          "indexed": false,
          "internalType": "uint256",
          "name": "tokenId",
          "type": "uint256"
        },
        {
          "indexed": false,
          "internalType": "address[]",
          "name": "recipients",
          "type": "address[]"
        },
        {
          "indexed": false,
          "internalType": "uint256[]",
          "name": "bps",
          "type": "uint256[]"
        }
      ],
      "name": "SecondarySaleFees",
      "type": "event"
    },
    {
      "inputs": [],
      "name": "admin",
      "outputs": [
        {
          "internalType": "address",
          "name": "",
          "type": "address"
        }
      ],
      "stateMutability": "view",
      "type": "function"
    },
    {
      "inputs": [
        {
          "internalType": "address",
          "name": "target",
          "type": "address"
        },
        {
          "internalType": "bytes",
          "name": "data",
          "type": "bytes"
        }
      ],
      "name": "adminCall",
      "outputs": [],
      "stateMutability": "payable",
      "type": "function"
    },
    {
      "inputs": [
        {
          "internalType": "uint256",
          "name": "tokenId",
          "type": "uint256"
        }
      ],
      "name": "bidSharesForToken",
      "outputs": [
        {
          "components": [
            {
              "components": [
                {
                  "internalType": "uint256",
                  "name": "value",
                  "type": "uint256"
                }
              ],
              "internalType": "struct Zora.Decimal",
              "name": "prevOwner",
              "type": "tuple"
            },
            {
              "components": [
                {
                  "internalType": "uint256",
                  "name": "value",
                  "type": "uint256"
                }
              ],
              "internalType": "struct Zora.Decimal",
              "name": "creator",
              "type": "tuple"
            },
            {
              "components": [
                {
                  "internalType": "uint256",
                  "name": "value",
                  "type": "uint256"
                }
              ],
              "internalType": "struct Zora.Decimal",
              "name": "owner",
              "type": "tuple"
            }
          ],
          "internalType": "struct Zora.BidShares",
          "name": "bidShares",
          "type": "tuple"
        }
      ],
      "stateMutability": "view",
      "type": "function"
    },
    {
      "inputs": [
        {
          "internalType": "address",
          "name": "",
          "type": "address"
        },
        {
          "internalType": "uint256",
          "name": "tokenId",
          "type": "uint256"
        },
        {
          "internalType": "uint256",
          "name": "amount",
          "type": "uint256"
        }
      ],
      "name": "calculateRoyaltyFee",
      "outputs": [
        {
          "internalType": "uint256",
          "name": "",
          "type": "uint256"
        }
      ],
      "stateMutability": "view",
      "type": "function"
    },
    {
      "inputs": [
        {
          "internalType": "address payable[]",
          "name": "addresses",
          "type": "address[]"
        },
        {
          "internalType": "uint256[]",
          "name": "bps",
          "type": "uint256[]"
        }
      ],
      "name": "configurePayouts",
      "outputs": [],
      "stateMutability": "nonpayable",
      "type": "function"
    },
    {
      "inputs": [],
      "name": "getAdmin",
      "outputs": [
        {
          "internalType": "address",
          "name": "adminAddress",
          "type": "address"
        }
      ],
      "stateMutability": "view",
      "type": "function"
    },
    {
      "inputs": [],
      "name": "getEthPayout",
      "outputs": [],
      "stateMutability": "nonpayable",
      "type": "function"
    },
    {
      "inputs": [
        {
          "internalType": "uint256",
          "name": "tokenId",
          "type": "uint256"
        }
      ],
      "name": "getFeeBps",
      "outputs": [
        {
          "internalType": "uint256[]",
          "name": "",
          "type": "uint256[]"
        }
      ],
      "stateMutability": "view",
      "type": "function"
    },
    {
      "inputs": [
        {
          "internalType": "uint256",
          "name": "tokenId",
          "type": "uint256"
        }
      ],
      "name": "getFeeRecipients",
      "outputs": [
        {
          "internalType": "address payable[]",
          "name": "",
          "type": "address[]"
        }
      ],
      "stateMutability": "view",
      "type": "function"
    },
    {
      "inputs": [
        {
          "internalType": "uint256",
          "name": "tokenId",
          "type": "uint256"
        }
      ],
      "name": "getFees",
      "outputs": [
        {
          "internalType": "address payable[]",
          "name": "",
          "type": "address[]"
        },
        {
          "internalType": "uint256[]",
          "name": "",
          "type": "uint256[]"
        }
      ],
      "stateMutability": "view",
      "type": "function"
    },
    {
      "inputs": [],
      "name": "getOwner",
      "outputs": [
        {
          "internalType": "address",
          "name": "ownerAddress",
          "type": "address"
        }
      ],
      "stateMutability": "view",
      "type": "function"
    },
    {
      "inputs": [],
      "name": "getPayoutInfo",
      "outputs": [
        {
          "internalType": "address payable[]",
          "name": "addresses",
          "type": "address[]"
        },
        {
          "internalType": "uint256[]",
          "name": "bps",
          "type": "uint256[]"
        }
      ],
      "stateMutability": "view",
      "type": "function"
    },
    {
      "inputs": [
        {
          "internalType": "uint256",
          "name": "tokenId",
          "type": "uint256"
        }
      ],
      "name": "getRoyalties",
      "outputs": [
        {
          "internalType": "address payable[]",
          "name": "",
          "type": "address[]"
        },
        {
          "internalType": "uint256[]",
          "name": "",
          "type": "uint256[]"
        }
      ],
      "stateMutability": "view",
      "type": "function"
    },
    {
      "inputs": [
        {
          "internalType": "string",
          "name": "tokenName",
          "type": "string"
        }
      ],
      "name": "getTokenAddress",
      "outputs": [
        {
          "internalType": "address",
          "name": "",
          "type": "address"
        }
      ],
      "stateMutability": "view",
      "type": "function"
    },
    {
      "inputs": [
        {
          "internalType": "address",
          "name": "tokenAddress",
          "type": "address"
        }
      ],
      "name": "getTokenPayout",
      "outputs": [],
      "stateMutability": "nonpayable",
      "type": "function"
    },
    {
      "inputs": [
        {
          "internalType": "address[]",
          "name": "tokenAddresses",
          "type": "address[]"
        }
      ],
      "name": "getTokensPayout",
      "outputs": [],
      "stateMutability": "nonpayable",
      "type": "function"
    },
    {
      "inputs": [
        {
          "internalType": "bytes",
          "name": "data",
          "type": "bytes"
        }
      ],
      "name": "init",
      "outputs": [
        {
          "internalType": "bytes4",
          "name": "",
          "type": "bytes4"
        }
      ],
      "stateMutability": "nonpayable",
      "type": "function"
    },
    {
      "inputs": [
        {
          "internalType": "bytes",
          "name": "data",
          "type": "bytes"
        }
      ],
      "name": "initPA1D",
      "outputs": [
        {
          "internalType": "bytes4",
          "name": "",
          "type": "bytes4"
        }
      ],
      "stateMutability": "nonpayable",
      "type": "function"
    },
    {
      "inputs": [],
      "name": "marketContract",
      "outputs": [
        {
          "internalType": "address",
          "name": "",
          "type": "address"
        }
      ],
      "stateMutability": "view",
      "type": "function"
    },
    {
      "inputs": [],
      "name": "owner",
      "outputs": [
        {
          "internalType": "address",
          "name": "",
          "type": "address"
        }
      ],
      "stateMutability": "view",
      "type": "function"
    },
    {
      "inputs": [
        {
          "internalType": "address",
          "name": "target",
          "type": "address"
        },
        {
          "internalType": "bytes",
          "name": "data",
          "type": "bytes"
        }
      ],
      "name": "ownerCall",
      "outputs": [],
      "stateMutability": "payable",
      "type": "function"
    },
    {
      "inputs": [
        {
          "internalType": "uint256",
          "name": "tokenId",
          "type": "uint256"
        },
        {
          "internalType": "uint256",
          "name": "value",
          "type": "uint256"
        }
      ],
      "name": "royaltyInfo",
      "outputs": [
        {
          "internalType": "address",
          "name": "",
          "type": "address"
        },
        {
          "internalType": "uint256",
          "name": "",
          "type": "uint256"
        }
      ],
      "stateMutability": "view",
      "type": "function"
    },
    {
      "inputs": [
        {
          "internalType": "address",
          "name": "adminAddress",
          "type": "address"
        }
      ],
      "name": "setAdmin",
      "outputs": [],
      "stateMutability": "nonpayable",
      "type": "function"
    },
    {
      "inputs": [
        {
          "internalType": "address",
          "name": "ownerAddress",
          "type": "address"
        }
      ],
      "name": "setOwner",
      "outputs": [],
      "stateMutability": "nonpayable",
      "type": "function"
    },
    {
      "inputs": [
        {
          "internalType": "uint256",
          "name": "tokenId",
          "type": "uint256"
        },
        {
          "internalType": "address payable",
          "name": "receiver",
          "type": "address"
        },
        {
          "internalType": "uint256",
          "name": "bp",
          "type": "uint256"
        }
      ],
      "name": "setRoyalties",
      "outputs": [],
      "stateMutability": "nonpayable",
      "type": "function"
    },
    {
      "inputs": [
        {
          "internalType": "bytes4",
          "name": "selector",
          "type": "bytes4"
        }
      ],
      "name": "supportsFunction",
      "outputs": [
        {
          "internalType": "bool",
          "name": "",
          "type": "bool"
        }
      ],
      "stateMutability": "pure",
      "type": "function"
    },
    {
      "inputs": [
        {
          "internalType": "bytes4",
          "name": "interfaceId",
          "type": "bytes4"
        }
      ],
      "name": "supportsInterface",
      "outputs": [
        {
          "internalType": "bool",
          "name": "",
          "type": "bool"
        }
      ],
      "stateMutability": "pure",
      "type": "function"
    },
    {
      "inputs": [
        {
          "internalType": "address",
          "name": "",
          "type": "address"
        },
        {
          "internalType": "uint256",
          "name": "tokenId",
          "type": "uint256"
        }
      ],
      "name": "tokenCreator",
      "outputs": [
        {
          "internalType": "address",
          "name": "",
          "type": "address"
        }
      ],
      "stateMutability": "view",
      "type": "function"
    },
    {
      "inputs": [
        {
          "internalType": "uint256",
          "name": "tokenId",
          "type": "uint256"
        }
      ],
      "name": "tokenCreators",
      "outputs": [
        {
          "internalType": "address",
          "name": "",
          "type": "address"
        }
      ],
      "stateMutability": "view",
      "type": "function"
    },
    {
      "inputs": [
        {
          "internalType": "address",
          "name": "newOwner",
          "type": "address"
        }
      ],
      "name": "transferOwnership",
      "outputs": [],
      "stateMutability": "nonpayable",
      "type": "function"
    }
  ],
  "transactionHash": "0x84e60a9f0ea47facc8916e9373d22b205b10d028eede1cc739018793f00487d1",
  "args": [],
  "numDeployments": 1,
  "solcInputHash": "fce9b8e72ee392c2ed836f8a75e0bbef",
  "bytecode": "0x608060405234801561001057600080fd5b506136ab806100206000396000f3fe6080604052600436106101cd5760003560e01c8063990803c3116100f7578063c409123611610095578063eb66dbcf11610064578063eb66dbcf146105aa578063f2fde38b146105bd578063f851a440146105dd578063f9ce0582146105f257600080fd5b8063c40912361461054a578063d5a06d4c146104f7578063e0fd045f1461056a578063e2c7f3381461058a57600080fd5b8063b9c4d9fb116100d1578063b9c4d9fb146104ca578063bb3bafd6146104f7578063be46446414610517578063bf64a82d1461053757600080fd5b8063990803c314610474578063a1794bcd14610497578063b85ed7e4146104aa57600080fd5b80633328d2191161016f578063704b6c021161013e578063704b6c02146103dd578063860110f5146103fd578063893d20e81461042b5780638da5cb5b1461045f57600080fd5b80633328d219146102f75780634ddf47d41461031757806365b85eb5146103685780636e9960c31461038857600080fd5b806313af4035116101ab57806313af40351461024b5780631949ddf31461026b57806320c60d2a1461028b5780632a55205a146102ab57600080fd5b806301ffc9a7146101d25780630ebd4c7f1461020757806312cb473814610234575b600080fd5b3480156101de57600080fd5b506101f26101ed366004612df7565b610637565b60405190151581526020015b60405180910390f35b34801561021357600080fd5b50610227610222366004612e39565b61093f565b6040516101fe9190612e8d565b34801561024057600080fd5b50610249610a00565b005b34801561025757600080fd5b50610249610266366004612ec2565b610a12565b34801561027757600080fd5b50610249610286366004612ec2565b610b32565b34801561029757600080fd5b506102496102a6366004612f81565b610b46565b3480156102b757600080fd5b506102cb6102c6366004613020565b610b57565b6040805173ffffffffffffffffffffffffffffffffffffffff90931683526020830191909152016101fe565b34801561030357600080fd5b506102496103123660046130a8565b610c07565b34801561032357600080fd5b506103376103323660046131e0565b610da9565b6040517fffffffff0000000000000000000000000000000000000000000000000000000090911681526020016101fe565b34801561037457600080fd5b506103376103833660046131e0565b610efb565b34801561039457600080fd5b507f5705f5753aa4f617eef2cae1dada3d3355e9387b04d19191f09b545e684ca50d545b60405173ffffffffffffffffffffffffffffffffffffffff90911681526020016101fe565b3480156103e957600080fd5b506102496103f8366004612ec2565b610ffd565b34801561040957600080fd5b5061041d610418366004613231565b6110d7565b6040519081526020016101fe565b34801561043757600080fd5b507f89b583059fdb0b2e807359b64eba1a8a1e6d099210701fafe6dad5dd2cd64fb8546103b8565b34801561046b57600080fd5b506103b8611159565b34801561048057600080fd5b50610489611188565b6040516101fe9291906132ac565b3480156104a357600080fd5b50306103b8565b3480156104b657600080fd5b506103b86104c53660046132da565b6111a3565b3480156104d657600080fd5b506104ea6104e5366004612e39565b6111f5565b6040516101fe9190613306565b34801561050357600080fd5b50610489610512366004612e39565b611311565b34801561052357600080fd5b506101f2610532366004612df7565b6114aa565b610249610545366004613319565b611a4e565b34801561055657600080fd5b506103b86105653660046131e0565b611b30565b34801561057657600080fd5b506103b8610585366004612e39565b611b3b565b34801561059657600080fd5b506102496105a536600461339e565b611b8b565b6102496105b8366004613319565b611d4c565b3480156105c957600080fd5b506102496105d8366004612ec2565b611dba565b3480156105e957600080fd5b506103b8611ec9565b3480156105fe57600080fd5b5061061261060d366004612e39565b611ef3565b60408051825151815260208084015151908201529181015151908201526060016101fe565b60007f2a55205a000000000000000000000000000000000000000000000000000000007fffffffff00000000000000000000000000000000000000000000000000000000831614806106ca57507fb7799584000000000000000000000000000000000000000000000000000000007fffffffff000000000000000000000000000000000000000000000000000000008316145b8061071657507fb9c4d9fb000000000000000000000000000000000000000000000000000000007fffffffff000000000000000000000000000000000000000000000000000000008316145b8061076257507fbb3bafd6000000000000000000000000000000000000000000000000000000007fffffffff000000000000000000000000000000000000000000000000000000008316145b806107ae57507fd5a06d4c000000000000000000000000000000000000000000000000000000007fffffffff000000000000000000000000000000000000000000000000000000008316145b806107fa57507fb85ed7e4000000000000000000000000000000000000000000000000000000007fffffffff000000000000000000000000000000000000000000000000000000008316145b8061084657507f860110f5000000000000000000000000000000000000000000000000000000007fffffffff000000000000000000000000000000000000000000000000000000008316145b8061089257507fa1794bcd000000000000000000000000000000000000000000000000000000007fffffffff000000000000000000000000000000000000000000000000000000008316145b806108de57507fe0fd045f000000000000000000000000000000000000000000000000000000007fffffffff000000000000000000000000000000000000000000000000000000008316145b8061092a57507ff9ce0582000000000000000000000000000000000000000000000000000000007fffffffff000000000000000000000000000000000000000000000000000000008316145b1561093757506001919050565b506000919050565b6040805160018082528183019092526060916000919060208083019080368337019050509050600061097084611f9b565b73ffffffffffffffffffffffffffffffffffffffff16036109d1577f3ab91e3c2ba71a57537d782545f8feb1d402b604f5e070fa6c3b911fc2f18f7554816000815181106109c0576109c06133d6565b6020026020010181815250506109fa565b6109da83612002565b816000815181106109ed576109ed6133d6565b6020026020010181815250505b92915050565b610a08612042565b610a10612137565b565b610a1a6122a9565b610a85576040517f08c379a000000000000000000000000000000000000000000000000000000000815260206004820152601960248201527f504131443a2063616c6c6572206e6f7420616e206f776e65720000000000000060448201526064015b60405180910390fd5b6000610aaf7f89b583059fdb0b2e807359b64eba1a8a1e6d099210701fafe6dad5dd2cd64fb85490565b9050817f89b583059fdb0b2e807359b64eba1a8a1e6d099210701fafe6dad5dd2cd64fb8558173ffffffffffffffffffffffffffffffffffffffff168173ffffffffffffffffffffffffffffffffffffffff167f8be0079c531659141344cd1fd0a4f28419497f9722a3daafe3b4186f6b6457e060405160405180910390a35050565b610b3a612042565b610b43816124a4565b50565b610b4e612042565b610b4381612760565b60008080610b6485611f9b565b73ffffffffffffffffffffffffffffffffffffffff1603610bea577ffd430e1c7265cc31dbd9a10ce657e68878a41cfe179c80cd68c5edf9615168485461271084610bcd7f3ab91e3c2ba71a57537d782545f8feb1d402b604f5e070fa6c3b911fc2f18f755490565b610bd79190613434565b610be19190613471565b91509150610c00565b610bf384611f9b565b61271084610bcd87612002565b9250929050565b610c0f6122a9565b610c75576040517f08c379a000000000000000000000000000000000000000000000000000000000815260206004820152601960248201527f504131443a2063616c6c6572206e6f7420616e206f776e6572000000000000006044820152606401610a7c565b8051825114610ce0576040517f08c379a000000000000000000000000000000000000000000000000000000000815260206004820152601f60248201527f504131443a206d6973736d617463686564206172726179206c656e67687473006044820152606401610a7c565b6000805b8351811015610d2657828181518110610cff57610cff6133d6565b602002602001015182610d1291906134ac565b915080610d1e816134c4565b915050610ce4565b508061271014610d92576040517f08c379a000000000000000000000000000000000000000000000000000000000815260206004820152601c60248201527f504131443a2062707320646f776e277420657175616c203130303030000000006044820152606401610a7c565b610d9b83612a4b565b610da482612adc565b505050565b6000610dd57f4e5f991bca30eca2d4643aaefa807e88f96a4a97398933d572a3c0d973004a0154151590565b15610e3c576040517f08c379a000000000000000000000000000000000000000000000000000000000815260206004820152601960248201527f504131443a20616c726561647920696e697469616c697a6564000000000000006044820152606401610a7c565b337f5705f5753aa4f617eef2cae1dada3d3355e9387b04d19191f09b545e684ca50d55337f89b583059fdb0b2e807359b64eba1a8a1e6d099210701fafe6dad5dd2cd64fb85560008083806020019051810190610e9991906134fc565b91509150610ea960008383611b8b565b610ed260017f4e5f991bca30eca2d4643aaefa807e88f96a4a97398933d572a3c0d973004a0155565b507f4ddf47d4000000000000000000000000000000000000000000000000000000009392505050565b7f33a44e907d5bf333e203bebc20bb8c91c00375213b80f466a908f3d50b337c6c546000908015610f88576040517f08c379a000000000000000000000000000000000000000000000000000000000815260206004820152601960248201527f504131443a20616c726561647920696e697469616c697a6564000000000000006044820152606401610a7c565b60008084806020019051810190610f9f91906134fc565b91509150610faf60008383611b8b565b505060017f33a44e907d5bf333e203bebc20bb8c91c00375213b80f466a908f3d50b337c6c55507f4ddf47d40000000000000000000000000000000000000000000000000000000092915050565b7f5705f5753aa4f617eef2cae1dada3d3355e9387b04d19191f09b545e684ca50d5473ffffffffffffffffffffffffffffffffffffffff163373ffffffffffffffffffffffffffffffffffffffff16146110b3576040517f08c379a000000000000000000000000000000000000000000000000000000000815260206004820152601e60248201527f484f4c4f47524150483a2061646d696e206f6e6c792066756e6374696f6e00006044820152606401610a7c565b7f5705f5753aa4f617eef2cae1dada3d3355e9387b04d19191f09b545e684ca50d55565b6000806110e384611f9b565b73ffffffffffffffffffffffffffffffffffffffff1603611145576127108261112a7f3ab91e3c2ba71a57537d782545f8feb1d402b604f5e070fa6c3b911fc2f18f755490565b6111349190613434565b61113e9190613471565b9050611152565b6127108261112a85612002565b9392505050565b60006111837f89b583059fdb0b2e807359b64eba1a8a1e6d099210701fafe6dad5dd2cd64fb85490565b905090565b606080611193612b6d565b915061119d612c66565b90509091565b6000806111af83611f9b565b905073ffffffffffffffffffffffffffffffffffffffff81166111525750507ffd430e1c7265cc31dbd9a10ce657e68878a41cfe179c80cd68c5edf961516848546109fa565b6040805160018082528183019092526060916000919060208083019080368337019050509050600061122684611f9b565b73ffffffffffffffffffffffffffffffffffffffff16036112b5577ffd430e1c7265cc31dbd9a10ce657e68878a41cfe179c80cd68c5edf9615168485481600081518110611276576112766133d6565b602002602001019073ffffffffffffffffffffffffffffffffffffffff16908173ffffffffffffffffffffffffffffffffffffffff16815250506109fa565b6112be83611f9b565b816000815181106112d1576112d16133d6565b602002602001019073ffffffffffffffffffffffffffffffffffffffff16908173ffffffffffffffffffffffffffffffffffffffff168152505092915050565b6040805160018082528183019092526060918291600091602080830190803683375050604080516001808252818301909252929350600092915060208083019080368337019050509050600061136686611f9b565b73ffffffffffffffffffffffffffffffffffffffff1603611421577ffd430e1c7265cc31dbd9a10ce657e68878a41cfe179c80cd68c5edf96151684854826000815181106113b6576113b66133d6565b73ffffffffffffffffffffffffffffffffffffffff909216602092830291909101909101527f3ab91e3c2ba71a57537d782545f8feb1d402b604f5e070fa6c3b911fc2f18f755481600081518110611410576114106133d6565b6020026020010181815250506114a0565b61142a85611f9b565b8260008151811061143d5761143d6133d6565b602002602001019073ffffffffffffffffffffffffffffffffffffffff16908173ffffffffffffffffffffffffffffffffffffffff168152505061148085612002565b81600081518110611493576114936133d6565b6020026020010181815250505b9094909350915050565b60007fffffffff0000000000000000000000000000000000000000000000000000000082167f3328d21900000000000000000000000000000000000000000000000000000000148061153d57507fffffffff0000000000000000000000000000000000000000000000000000000082167f990803c300000000000000000000000000000000000000000000000000000000145b8061158957507fffffffff0000000000000000000000000000000000000000000000000000000082167f12cb473800000000000000000000000000000000000000000000000000000000145b806115d557507fffffffff0000000000000000000000000000000000000000000000000000000082167f1949ddf300000000000000000000000000000000000000000000000000000000145b8061162157507fffffffff0000000000000000000000000000000000000000000000000000000082167f20c60d2a00000000000000000000000000000000000000000000000000000000145b8061166d57507fffffffff0000000000000000000000000000000000000000000000000000000082167f01ffc9a700000000000000000000000000000000000000000000000000000000145b806116b957507fffffffff0000000000000000000000000000000000000000000000000000000082167fe2c7f33800000000000000000000000000000000000000000000000000000000145b8061170557507fffffffff0000000000000000000000000000000000000000000000000000000082167f2a55205a00000000000000000000000000000000000000000000000000000000145b8061175157507fffffffff0000000000000000000000000000000000000000000000000000000082167f0ebd4c7f00000000000000000000000000000000000000000000000000000000145b8061179d57507fffffffff0000000000000000000000000000000000000000000000000000000082167fb9c4d9fb00000000000000000000000000000000000000000000000000000000145b806117e957507fffffffff0000000000000000000000000000000000000000000000000000000082167fbb3bafd600000000000000000000000000000000000000000000000000000000145b8061183557507fffffffff0000000000000000000000000000000000000000000000000000000082167fd5a06d4c00000000000000000000000000000000000000000000000000000000145b8061188157507fffffffff0000000000000000000000000000000000000000000000000000000082167fb85ed7e400000000000000000000000000000000000000000000000000000000145b806118cd57507fffffffff0000000000000000000000000000000000000000000000000000000082167f860110f500000000000000000000000000000000000000000000000000000000145b8061191957507fffffffff0000000000000000000000000000000000000000000000000000000082167fa1794bcd00000000000000000000000000000000000000000000000000000000145b8061196557507fffffffff0000000000000000000000000000000000000000000000000000000082167fe0fd045f00000000000000000000000000000000000000000000000000000000145b806119b157507fffffffff0000000000000000000000000000000000000000000000000000000082167ff9ce058200000000000000000000000000000000000000000000000000000000145b806119fd57507fffffffff0000000000000000000000000000000000000000000000000000000082167f9df0d22f00000000000000000000000000000000000000000000000000000000145b806109fa57507fffffffff0000000000000000000000000000000000000000000000000000000082167fc4091236000000000000000000000000000000000000000000000000000000001492915050565b7f5705f5753aa4f617eef2cae1dada3d3355e9387b04d19191f09b545e684ca50d5473ffffffffffffffffffffffffffffffffffffffff163373ffffffffffffffffffffffffffffffffffffffff1614611b04576040517f08c379a000000000000000000000000000000000000000000000000000000000815260206004820152601e60248201527f484f4c4f47524150483a2061646d696e206f6e6c792066756e6374696f6e00006044820152606401610a7c565b808260003760008082600034875af13d6000803e808015611b24573d6000f35b3d6000fd5b5050505050565b60006109fa82612d3e565b600080611b4783611f9b565b905073ffffffffffffffffffffffffffffffffffffffff81166109fa577ffd430e1c7265cc31dbd9a10ce657e68878a41cfe179c80cd68c5edf96151684854611152565b611b936122a9565b611bf9576040517f08c379a000000000000000000000000000000000000000000000000000000000815260206004820152601960248201527f504131443a2063616c6c6572206e6f7420616e206f776e6572000000000000006044820152606401610a7c565b82600003611c5657611c29827ffd430e1c7265cc31dbd9a10ce657e68878a41cfe179c80cd68c5edf96151684855565b611c51817f3ab91e3c2ba71a57537d782545f8feb1d402b604f5e070fa6c3b911fc2f18f7555565b611c6a565b611c608383612d54565b611c6a8382612db9565b604080516001808252818301909252600091602080830190803683370190505090508281600081518110611ca057611ca06133d6565b73ffffffffffffffffffffffffffffffffffffffff92909216602092830291909101909101526040805160018082528183019092526000918160200160208202803683370190505090508281600081518110611cfe57611cfe6133d6565b6020026020010181815250507f99aba1d63749cfd5ad1afda7c4663840924d54eb5f005bbbeadedc6ec13674b2858383604051611d3d9392919061352a565b60405180910390a15050505050565b611d546122a9565b611b04576040517f08c379a000000000000000000000000000000000000000000000000000000000815260206004820152601960248201527f504131443a2063616c6c6572206e6f7420616e206f776e6572000000000000006044820152606401610a7c565b611dc26122a9565b611e28576040517f08c379a000000000000000000000000000000000000000000000000000000000815260206004820152601960248201527f504131443a2063616c6c6572206e6f7420616e206f776e6572000000000000006044820152606401610a7c565b73ffffffffffffffffffffffffffffffffffffffff8116611ea5576040517f08c379a000000000000000000000000000000000000000000000000000000000815260206004820152601760248201527f484f4c4f47524150483a207a65726f20616464726573730000000000000000006044820152606401610a7c565b7f89b583059fdb0b2e807359b64eba1a8a1e6d099210701fafe6dad5dd2cd64fb855565b60006111837f5705f5753aa4f617eef2cae1dada3d3355e9387b04d19191f09b545e684ca50d5490565b611f306040805160808101825260006060820181815282528251602080820185528282528084019190915283519081018452908152909182015290565b80516000908190526040820151819052611f4983611f9b565b73ffffffffffffffffffffffffffffffffffffffff1603611f92577f3ab91e3c2ba71a57537d782545f8feb1d402b604f5e070fa6c3b911fc2f18f75545b602082015152919050565b611f8782612002565b6040517f656970313936372e486f6c6f67726170682e504131442e7265636569766572006020820152603f81018290526000908190600190605f015b6040516020818303038152906040528051906020012060001c611ffa91906135a1565b549392505050565b6040517f656970313936372e486f6c6f67726170682e504131442e6270000000000000006020820152603981018290526000908190600190605901611fd7565b61204a6122a9565b610a1057600080612059612b6d565b90503360005b82518110156120cf578173ffffffffffffffffffffffffffffffffffffffff16838281518110612091576120916133d6565b602002602001015173ffffffffffffffffffffffffffffffffffffffff16036120bd57600193506120cf565b806120c7816134c4565b91505061205f565b5082610da4576040517f08c379a000000000000000000000000000000000000000000000000000000000815260206004820152601b60248201527f504131443a2073656e646572206e6f7420617574686f72697a656400000000006044820152606401610a7c565b6000612141612b6d565b9050600061214d612c66565b825190915060008161216181615b04613434565b61216b91906134ac565b90504761271061217b83836135a1565b116121e2576040517f08c379a000000000000000000000000000000000000000000000000000000000815260206004820181905260248201527f504131443a204e6f7420656e6f7567682045544820746f207472616e736665726044820152606401610a7c565b6121ec82826135a1565b90506000805b848110156122a05761271083878381518110612210576122106133d6565b60200260200101516122229190613434565b61222c9190613471565b9150868181518110612240576122406133d6565b602002602001015173ffffffffffffffffffffffffffffffffffffffff166108fc839081150290604051600060405180830381858888f1935050505015801561228d573d6000803e3d6000fd5b5080612298816134c4565b9150506121f2565b50505050505050565b60006122d37f89b583059fdb0b2e807359b64eba1a8a1e6d099210701fafe6dad5dd2cd64fb85490565b73ffffffffffffffffffffffffffffffffffffffff163373ffffffffffffffffffffffffffffffffffffffff16148061235857507f5705f5753aa4f617eef2cae1dada3d3355e9387b04d19191f09b545e684ca50d5473ffffffffffffffffffffffffffffffffffffffff163373ffffffffffffffffffffffffffffffffffffffff16145b806123fc57503073ffffffffffffffffffffffffffffffffffffffff1663893d20e86040518163ffffffff1660e01b8152600401602060405180830381865afa1580156123a9573d6000803e3d6000fd5b505050506040513d601f19601f820116820180604052508101906123cd91906135b8565b73ffffffffffffffffffffffffffffffffffffffff163373ffffffffffffffffffffffffffffffffffffffff16145b8061118357503073ffffffffffffffffffffffffffffffffffffffff16636e9960c36040518163ffffffff1660e01b8152600401602060405180830381865afa15801561244d573d6000803e3d6000fd5b505050506040513d601f19601f8201168201806040525081019061247191906135b8565b73ffffffffffffffffffffffffffffffffffffffff163373ffffffffffffffffffffffffffffffffffffffff1614905090565b60006124ae612b6d565b905060006124ba612c66565b82516040517f70a0823100000000000000000000000000000000000000000000000000000000815230600482015291925090849060009073ffffffffffffffffffffffffffffffffffffffff8316906370a0823190602401602060405180830381865afa15801561252f573d6000803e3d6000fd5b505050506040513d601f19601f8201168201806040525081019061255391906135d5565b905061271081116125e6576040517f08c379a000000000000000000000000000000000000000000000000000000000815260206004820152602360248201527f504131443a204e6f7420656e6f75676820746f6b656e7320746f207472616e7360448201527f66657200000000000000000000000000000000000000000000000000000000006064820152608401610a7c565b6000805b848110156127565761271083878381518110612608576126086133d6565b602002602001015161261a9190613434565b6126249190613471565b91508373ffffffffffffffffffffffffffffffffffffffff1663a9059cbb888381518110612654576126546133d6565b6020026020010151846040518363ffffffff1660e01b815260040161269b92919073ffffffffffffffffffffffffffffffffffffffff929092168252602082015260400190565b6020604051808303816000875af11580156126ba573d6000803e3d6000fd5b505050506040513d601f19601f820116820180604052508101906126de91906135ee565b612744576040517f08c379a000000000000000000000000000000000000000000000000000000000815260206004820152601d60248201527f504131443a20436f756c646e2774207472616e7366657220746f6b656e0000006044820152606401610a7c565b8061274e816134c4565b9150506125ea565b5050505050505050565b600061276a612b6d565b90506000612776612c66565b905060008080805b86518110156122a057868181518110612799576127996133d6565b60209081029190910101516040517f70a0823100000000000000000000000000000000000000000000000000000000815230600482015290945073ffffffffffffffffffffffffffffffffffffffff8516906370a0823190602401602060405180830381865afa158015612811573d6000803e3d6000fd5b505050506040513d601f19601f8201168201806040525081019061283591906135d5565b925061271083116128c8576040517f08c379a000000000000000000000000000000000000000000000000000000000815260206004820152602360248201527f504131443a204e6f7420656e6f75676820746f6b656e7320746f207472616e7360448201527f66657200000000000000000000000000000000000000000000000000000000006064820152608401610a7c565b60005b8651811015612a3857612710848783815181106128ea576128ea6133d6565b60200260200101516128fc9190613434565b6129069190613471565b92508473ffffffffffffffffffffffffffffffffffffffff1663a9059cbb888381518110612936576129366133d6565b6020026020010151856040518363ffffffff1660e01b815260040161297d92919073ffffffffffffffffffffffffffffffffffffffff929092168252602082015260400190565b6020604051808303816000875af115801561299c573d6000803e3d6000fd5b505050506040513d601f19601f820116820180604052508101906129c091906135ee565b612a26576040517f08c379a000000000000000000000000000000000000000000000000000000000815260206004820152601d60248201527f504131443a20436f756c646e2774207472616e7366657220746f6b656e0000006044820152606401610a7c565b80612a30816134c4565b9150506128cb565b5080612a43816134c4565b91505061277e565b80517f700a541bc37f227b0d36d34e7b77cc0108bde768297c6f80f448f380387371df818155906000805b82811015611b29576040805160208101839052908101859052606001604051602081830303815290604052805190602001209350848181518110612abc57612abc6133d6565b602002602001015191508184558080612ad4906134c4565b915050612a76565b80517f7a62e8104cd2cc2ef6bd3a26bcb71428108fbe0e0ead6a5bfb8676781e2ed28d818155906000805b82811015611b29576040805160208101839052908101859052606001604051602081830303815290604052805190602001209350848181518110612b4d57612b4d6133d6565b602002602001015191508184558080612b65906134c4565b915050612b07565b7f700a541bc37f227b0d36d34e7b77cc0108bde768297c6f80f448f380387371df8054606091908067ffffffffffffffff811115612bad57612bad612edf565b604051908082528060200260200182016040528015612bd6578160200160208202803683370190505b5092506000805b82811015612c5f5760408051602081018390529081018590526060016040516020818303038152906040528051906020012093508354915081858281518110612c2857612c286133d6565b73ffffffffffffffffffffffffffffffffffffffff9092166020928302919091019091015280612c57816134c4565b915050612bdd565b5050505090565b7f7a62e8104cd2cc2ef6bd3a26bcb71428108fbe0e0ead6a5bfb8676781e2ed28d8054606091908067ffffffffffffffff811115612ca657612ca6612edf565b604051908082528060200260200182016040528015612ccf578160200160208202803683370190505b5092506000805b82811015612c5f5760408051602081018390529081018590526060016040516020818303038152906040528051906020012093508354915081858281518110612d2157612d216133d6565b602090810291909101015280612d36816134c4565b915050612cd6565b600080600183604051602001611fd79190613610565b6040517f656970313936372e486f6c6f67726170682e504131442e7265636569766572006020820152603f8101839052600090600190605f015b6040516020818303038152906040528051906020012060001c612db191906135a1565b919091555050565b6040517f656970313936372e486f6c6f67726170682e504131442e627000000000000000602082015260398101839052600090600190605901612d8e565b600060208284031215612e0957600080fd5b81357fffffffff000000000000000000000000000000000000000000000000000000008116811461115257600080fd5b600060208284031215612e4b57600080fd5b5035919050565b600081518084526020808501945080840160005b83811015612e8257815187529582019590820190600101612e66565b509495945050505050565b6020815260006111526020830184612e52565b73ffffffffffffffffffffffffffffffffffffffff81168114610b4357600080fd5b600060208284031215612ed457600080fd5b813561115281612ea0565b7f4e487b7100000000000000000000000000000000000000000000000000000000600052604160045260246000fd5b604051601f82017fffffffffffffffffffffffffffffffffffffffffffffffffffffffffffffffe016810167ffffffffffffffff81118282101715612f5557612f55612edf565b604052919050565b600067ffffffffffffffff821115612f7757612f77612edf565b5060051b60200190565b60006020808385031215612f9457600080fd5b823567ffffffffffffffff811115612fab57600080fd5b8301601f81018513612fbc57600080fd5b8035612fcf612fca82612f5d565b612f0e565b81815260059190911b82018301908381019087831115612fee57600080fd5b928401925b8284101561301557833561300681612ea0565b82529284019290840190612ff3565b979650505050505050565b6000806040838503121561303357600080fd5b50508035926020909101359150565b600082601f83011261305357600080fd5b81356020613063612fca83612f5d565b82815260059290921b8401810191818101908684111561308257600080fd5b8286015b8481101561309d5780358352918301918301613086565b509695505050505050565b600080604083850312156130bb57600080fd5b823567ffffffffffffffff808211156130d357600080fd5b818501915085601f8301126130e757600080fd5b813560206130f7612fca83612f5d565b82815260059290921b8401810191818101908984111561311657600080fd5b948201945b8386101561313d57853561312e81612ea0565b8252948201949082019061311b565b9650508601359250508082111561315357600080fd5b5061316085828601613042565b9150509250929050565b600067ffffffffffffffff83111561318457613184612edf565b6131b560207fffffffffffffffffffffffffffffffffffffffffffffffffffffffffffffffe0601f86011601612f0e565b90508281528383830111156131c957600080fd5b828260208301376000602084830101529392505050565b6000602082840312156131f257600080fd5b813567ffffffffffffffff81111561320957600080fd5b8201601f8101841361321a57600080fd5b6132298482356020840161316a565b949350505050565b60008060006060848603121561324657600080fd5b833561325181612ea0565b95602085013595506040909401359392505050565b600081518084526020808501945080840160005b83811015612e8257815173ffffffffffffffffffffffffffffffffffffffff168752958201959082019060010161327a565b6040815260006132bf6040830185613266565b82810360208401526132d18185612e52565b95945050505050565b600080604083850312156132ed57600080fd5b82356132f881612ea0565b946020939093013593505050565b6020815260006111526020830184613266565b60008060006040848603121561332e57600080fd5b833561333981612ea0565b9250602084013567ffffffffffffffff8082111561335657600080fd5b818601915086601f83011261336a57600080fd5b81358181111561337957600080fd5b87602082850101111561338b57600080fd5b6020830194508093505050509250925092565b6000806000606084860312156133b357600080fd5b8335925060208401356133c581612ea0565b929592945050506040919091013590565b7f4e487b7100000000000000000000000000000000000000000000000000000000600052603260045260246000fd5b7f4e487b7100000000000000000000000000000000000000000000000000000000600052601160045260246000fd5b6000817fffffffffffffffffffffffffffffffffffffffffffffffffffffffffffffffff048311821515161561346c5761346c613405565b500290565b6000826134a7577f4e487b7100000000000000000000000000000000000000000000000000000000600052601260045260246000fd5b500490565b600082198211156134bf576134bf613405565b500190565b60007fffffffffffffffffffffffffffffffffffffffffffffffffffffffffffffffff82036134f5576134f5613405565b5060010190565b6000806040838503121561350f57600080fd5b825161351a81612ea0565b6020939093015192949293505050565b6000606082018583526020606081850152818651808452608086019150828801935060005b8181101561358157845173ffffffffffffffffffffffffffffffffffffffff168352938301939183019160010161354f565b505084810360408601526135958187612e52565b98975050505050505050565b6000828210156135b3576135b3613405565b500390565b6000602082840312156135ca57600080fd5b815161115281612ea0565b6000602082840312156135e757600080fd5b5051919050565b60006020828403121561360057600080fd5b8151801515811461115257600080fd5b7f656970313936372e486f6c6f67726170682e504131442e746f6b656e416464728152600060207f657373000000000000000000000000000000000000000000000000000000000081840152835160005b8181101561367d57858101830151858201602301528201613661565b8181111561368f576000602383870101525b5092909201602301939250505056fea164736f6c634300080d000a",
  "devdoc": {
    "author": "CXIP-Labs",
    "details": "This smart contract is not intended to be used directly. Apply it to any of your ERC721 or ERC1155 smart contracts through a delegatecall fallback.",
    "events": {
      "SecondarySaleFees(uint256,address[],uint256[])": {
        "details": "Emits event in order to comply with Rarible V1 royalty spec.",
        "params": {
          "bps": "Uint256 array of base points(percentages) that each wallet(specified in recipients) will receive from the royalty payouts. Make sure that all the base points add up to a total of 10000.",
          "recipients": "Address array of wallets that will receive tha royalties.",
          "tokenId": "Specific token id for which royalty info is being set, set as 0 for all tokens inside of the smart contract."
        }
      }
    },
    "kind": "dev",
    "methods": {
      "configurePayouts(address[],uint256[])": {
        "details": "Function can only we called by owner, admin, or identity wallet.Addresses and bps arrays must be equal length. Bps values added together must equal 10000 exactly.",
        "params": {
          "addresses": "An array of all the addresses that will be receiving royalty payouts.",
          "bps": "An array of the percentages that each address will receive from the royalty payouts."
        }
      },
      "constructor": {
        "details": "Since the smart contract is being used inside of a fallback context, the constructor function is not being used."
      },
      "getEthPayout()": {
        "details": "Distribute all the ETH(minus gas fees) to payout recipients."
      },
      "getPayoutInfo()": {
        "details": "These are the recipients that will be getting royalty payouts.",
        "returns": {
          "addresses": "An array of all the addresses that will be receiving royalty payouts.",
          "bps": "An array of the percentages that each address will receive from the royalty payouts."
        }
      },
      "getTokenAddress(string)": {
        "details": "Used only to identify really major/common tokens. Avoid using due to gas usages.",
        "params": {
          "tokenName": "The ticker symbol of the token. For example \"USDC\" or \"DAI\"."
        },
        "returns": {
          "_0": "The smart contract address of the token ticker symbol. Or zero address if not found."
        }
      },
      "getTokenPayout(address)": {
        "details": "Contract owner, admin, identity wallet, and payout recipients can call this function.",
        "params": {
          "tokenAddress": "An address of the token for which to issue payouts for."
        }
      },
      "getTokensPayout(address[])": {
        "details": "Each token balance must be equal or greater than 10000. Otherwise calculating BP is difficult.",
        "params": {
          "tokenAddresses": "An address array of tokens to issue payouts for."
        }
      },
      "setRoyalties(uint256,address,uint256)": {
        "details": "Take great care to not make this function accessible by other public functions in your overlying smart contract.",
        "params": {
          "bp": "Uint256 of royalty percentage, provided in base points format.",
          "receiver": "Wallet or smart contract that will receive the royalty payouts.",
          "tokenId": "Set a specific token id, or leave at 0 to set as default parameters."
        }
      },
      "supportsInterface(bytes4)": {
        "details": "Provides the supported interface ids that this contract implements.",
        "params": {
          "interfaceId": "Bytes4 of the interface, derived through bytes4(keccak256('sampleFunction(uin256,address)'))."
        },
        "returns": {
          "_0": "True if function is supported/implemented, false if not."
        }
      }
    },
    "title": "PA1D (CXIP)",
    "version": 1
  },
  "userdoc": {
    "events": {
      "SecondarySaleFees(uint256,address[],uint256[])": {
        "notice": "Event emitted when setting/updating royalty info/fees. This is used by Rarible V1."
      }
    },
    "kind": "user",
    "methods": {
      "configurePayouts(address[],uint256[])": {
        "notice": "Set the wallets and percentages for royalty payouts."
      },
      "constructor": {
        "notice": "Constructor is empty and not utilised."
      },
      "getEthPayout()": {
        "notice": "Get payout of all ETH in smart contract."
      },
      "getPayoutInfo()": {
        "notice": "Show the wallets and percentages of payout recipients."
      },
      "getTokenAddress(string)": {
        "notice": "Get the smart contract address of a token by common name."
      },
      "getTokenPayout(address)": {
        "notice": "Get payout for a specific token address. Token must have a positive balance!"
      },
      "getTokensPayout(address[])": {
        "notice": "Get payouts for tokens listed by address. Tokens must have a positive balance!"
      },
      "setRoyalties(uint256,address,uint256)": {
        "notice": "Set the royalty information for entire contract, or a specific token."
      },
      "supportsInterface(bytes4)": {
        "notice": "Inform about supported interfaces(eip-165)."
      }
    },
    "notice": "A smart contract for providing royalty info, collecting royalties, and distributing it to configured payout wallets.",
    "version": 1
  },
  "storageLayout": {
    "storage": [],
    "types": null
  }
}