{
  "address": "0x0C7350328B4c304AC3181FDd2D05074FA8b73549",
  "abi": [
    {
      "inputs": [],
      "stateMutability": "nonpayable",
      "type": "constructor"
    },
    {
      "stateMutability": "payable",
      "type": "fallback"
    },
    {
      "inputs": [],
      "name": "admin",
      "outputs": [
        {
          "internalType": "address",
          "name": "",
          "type": "address"
        }
      ],
      "stateMutability": "view",
      "type": "function"
    },
    {
      "inputs": [
        {
          "internalType": "address",
          "name": "target",
          "type": "address"
        },
        {
          "internalType": "bytes",
          "name": "data",
          "type": "bytes"
        }
      ],
      "name": "adminCall",
      "outputs": [],
      "stateMutability": "payable",
      "type": "function"
    },
    {
      "inputs": [],
      "name": "getAdmin",
      "outputs": [
        {
          "internalType": "address",
          "name": "adminAddress",
          "type": "address"
        }
      ],
      "stateMutability": "view",
      "type": "function"
    },
    {
      "inputs": [],
      "name": "getDropsMetadataRenderer",
      "outputs": [
        {
          "internalType": "address",
          "name": "dropsMetadataRenderer",
          "type": "address"
        }
      ],
      "stateMutability": "view",
      "type": "function"
    },
    {
      "inputs": [
        {
          "internalType": "bytes",
          "name": "data",
          "type": "bytes"
        }
      ],
      "name": "init",
      "outputs": [
        {
          "internalType": "bytes4",
          "name": "",
          "type": "bytes4"
        }
      ],
      "stateMutability": "nonpayable",
      "type": "function"
    },
    {
      "inputs": [
        {
          "internalType": "address",
          "name": "adminAddress",
          "type": "address"
        }
      ],
      "name": "setAdmin",
      "outputs": [],
      "stateMutability": "nonpayable",
      "type": "function"
    },
    {
      "inputs": [
        {
          "internalType": "address",
          "name": "dropsMetadataRenderer",
          "type": "address"
        }
      ],
      "name": "setDropsMetadataRenderer",
      "outputs": [],
      "stateMutability": "nonpayable",
      "type": "function"
    },
    {
      "stateMutability": "payable",
      "type": "receive"
    }
  ],
  "transactionHash": "0xb5e2a7810241e1457469693acbb74caa91993c546cc8817beaf9f9edeb5ce22c",
  "args": [],
  "numDeployments": 1,
  "solcInputHash": "eaccabe53e7de4a0dd89d9180b8a1c06",
  "bytecode": "0x608060405234801561001057600080fd5b50610b59806100206000396000f3fe6080604052600436106100745760003560e01c8063704b6c021161004e578063704b6c021461019057806377ff737e146101b0578063bf64a82d146101e4578063f851a440146101f75761007b565b80633f6240a2146100c55780634ddf47d4146100e55780636e9960c31461013b5761007b565b3661007b57005b7fe1d18664c68b1eedd4e2fc65b2d42097f2cd8cd4c2f1a9a6418986c9f5da3817543660008037600080366000845af490503d6000803e8080156100be573d6000f35b3d6000fd5b005b3480156100d157600080fd5b506100c36100e03660046107f3565b61020c565b3480156100f157600080fd5b506101056101003660046108db565b6102eb565b6040517fffffffff0000000000000000000000000000000000000000000000000000000090911681526020015b60405180910390f35b34801561014757600080fd5b507f3f106594dc74eeef980dae234cde8324dc2497b13d27a0c59e55bd2ca10a07c9545b60405173ffffffffffffffffffffffffffffffffffffffff9091168152602001610132565b34801561019c57600080fd5b506100c36101ab3660046107f3565b6105ef565b3480156101bc57600080fd5b507fe1d18664c68b1eedd4e2fc65b2d42097f2cd8cd4c2f1a9a6418986c9f5da38175461016b565b6100c36101f236600461095b565b6106c9565b34801561020357600080fd5b5061016b61079f565b7f3f106594dc74eeef980dae234cde8324dc2497b13d27a0c59e55bd2ca10a07c95473ffffffffffffffffffffffffffffffffffffffff163373ffffffffffffffffffffffffffffffffffffffff16146102c7576040517f08c379a000000000000000000000000000000000000000000000000000000000815260206004820152601e60248201527f484f4c4f47524150483a2061646d696e206f6e6c792066756e6374696f6e000060448201526064015b60405180910390fd5b7fe1d18664c68b1eedd4e2fc65b2d42097f2cd8cd4c2f1a9a6418986c9f5da381755565b60006103157f4e5f991bca30eca2d4643aaefa807e88f96a4a97398933d572a3c0d973004a015490565b1561037c576040517f08c379a000000000000000000000000000000000000000000000000000000000815260206004820152601e60248201527f484f4c4f47524150483a20616c726561647920696e697469616c697a6564000060448201526064016102be565b600080838060200190518101906103939190610a10565b91509150327f3f106594dc74eeef980dae234cde8324dc2497b13d27a0c59e55bd2ca10a07c955817fe1d18664c68b1eedd4e2fc65b2d42097f2cd8cd4c2f1a9a6418986c9f5da3817556000808373ffffffffffffffffffffffffffffffffffffffff16836040516024016104089190610a9d565b604080517fffffffffffffffffffffffffffffffffffffffffffffffffffffffffffffffe08184030181529181526020820180517bffffffffffffffffffffffffffffffffffffffffffffffffffffffff167f4ddf47d400000000000000000000000000000000000000000000000000000000179052516104899190610aee565b600060405180830381855af49150503d80600081146104c4576040519150601f19603f3d011682016040523d82523d6000602084013e6104c9565b606091505b50915091506000818060200190518101906104e49190610b0a565b905082801561053457507fffffffff0000000000000000000000000000000000000000000000000000000081167f4ddf47d400000000000000000000000000000000000000000000000000000000145b61059a576040517f08c379a000000000000000000000000000000000000000000000000000000000815260206004820152601560248201527f696e697469616c697a6174696f6e206661696c6564000000000000000000000060448201526064016102be565b6105c360017f4e5f991bca30eca2d4643aaefa807e88f96a4a97398933d572a3c0d973004a0155565b507f4ddf47d4000000000000000000000000000000000000000000000000000000009695505050505050565b7f3f106594dc74eeef980dae234cde8324dc2497b13d27a0c59e55bd2ca10a07c95473ffffffffffffffffffffffffffffffffffffffff163373ffffffffffffffffffffffffffffffffffffffff16146106a5576040517f08c379a000000000000000000000000000000000000000000000000000000000815260206004820152601e60248201527f484f4c4f47524150483a2061646d696e206f6e6c792066756e6374696f6e000060448201526064016102be565b7f3f106594dc74eeef980dae234cde8324dc2497b13d27a0c59e55bd2ca10a07c955565b7f3f106594dc74eeef980dae234cde8324dc2497b13d27a0c59e55bd2ca10a07c95473ffffffffffffffffffffffffffffffffffffffff163373ffffffffffffffffffffffffffffffffffffffff161461077f576040517f08c379a000000000000000000000000000000000000000000000000000000000815260206004820152601e60248201527f484f4c4f47524150483a2061646d696e206f6e6c792066756e6374696f6e000060448201526064016102be565b808260003760008082600034875af13d6000803e8080156100be573d6000f35b60006107c97f3f106594dc74eeef980dae234cde8324dc2497b13d27a0c59e55bd2ca10a07c95490565b905090565b73ffffffffffffffffffffffffffffffffffffffff811681146107f057600080fd5b50565b60006020828403121561080557600080fd5b8135610810816107ce565b9392505050565b7f4e487b7100000000000000000000000000000000000000000000000000000000600052604160045260246000fd5b604051601f82017fffffffffffffffffffffffffffffffffffffffffffffffffffffffffffffffe016810167ffffffffffffffff8111828210171561088d5761088d610817565b604052919050565b600067ffffffffffffffff8211156108af576108af610817565b50601f017fffffffffffffffffffffffffffffffffffffffffffffffffffffffffffffffe01660200190565b6000602082840312156108ed57600080fd5b813567ffffffffffffffff81111561090457600080fd5b8201601f8101841361091557600080fd5b803561092861092382610895565b610846565b81815285602083850101111561093d57600080fd5b81602084016020830137600091810160200191909152949350505050565b60008060006040848603121561097057600080fd5b833561097b816107ce565b9250602084013567ffffffffffffffff8082111561099857600080fd5b818601915086601f8301126109ac57600080fd5b8135818111156109bb57600080fd5b8760208285010111156109cd57600080fd5b6020830194508093505050509250925092565b60005b838110156109fb5781810151838201526020016109e3565b83811115610a0a576000848401525b50505050565b60008060408385031215610a2357600080fd5b8251610a2e816107ce565b602084015190925067ffffffffffffffff811115610a4b57600080fd5b8301601f81018513610a5c57600080fd5b8051610a6a61092382610895565b818152866020838501011115610a7f57600080fd5b610a908260208301602086016109e0565b8093505050509250929050565b6020815260008251806020840152610abc8160408501602087016109e0565b601f017fffffffffffffffffffffffffffffffffffffffffffffffffffffffffffffffe0169190910160400192915050565b60008251610b008184602087016109e0565b9190910192915050565b600060208284031215610b1c57600080fd5b81517fffffffff000000000000000000000000000000000000000000000000000000008116811461081057600080fdfea164736f6c634300080d000a",
  "devdoc": {
    "kind": "dev",
    "methods": {},
    "stateVariables": {
      "_dropsMetadataRendererSlot": {
        "details": "bytes32(uint256(keccak256('eip1967.Holograph.dropsMetadataRenderer')) - 1)"
      }
    },
    "version": 1
  },
  "userdoc": {
    "kind": "user",
    "methods": {},
    "version": 1
  },
  "storageLayout": {
    "storage": [],
    "types": null
  }
}