{
  "address": "0xF6F0a503Cb82566DBEC035a916e3f221342Ff084",
  "abi": [
    {
      "inputs": [],
      "stateMutability": "nonpayable",
      "type": "constructor"
    },
    {
      "anonymous": false,
      "inputs": [
        {
          "indexed": true,
          "internalType": "address",
          "name": "_owner",
          "type": "address"
        },
        {
          "indexed": true,
          "internalType": "address",
          "name": "_approved",
          "type": "address"
        },
        {
          "indexed": true,
          "internalType": "uint256",
          "name": "_tokenId",
          "type": "uint256"
        }
      ],
      "name": "Approval",
      "type": "event"
    },
    {
      "anonymous": false,
      "inputs": [
        {
          "indexed": true,
          "internalType": "address",
          "name": "_owner",
          "type": "address"
        },
        {
          "indexed": true,
          "internalType": "address",
          "name": "_operator",
          "type": "address"
        },
        {
          "indexed": false,
          "internalType": "bool",
          "name": "_approved",
          "type": "bool"
        }
      ],
      "name": "ApprovalForAll",
      "type": "event"
    },
    {
      "anonymous": false,
      "inputs": [
        {
          "indexed": true,
          "internalType": "address",
          "name": "previousOwner",
          "type": "address"
        },
        {
          "indexed": true,
          "internalType": "address",
          "name": "newOwner",
          "type": "address"
        }
      ],
      "name": "OwnershipTransferred",
      "type": "event"
    },
    {
      "anonymous": false,
      "inputs": [
        {
          "indexed": true,
          "internalType": "address",
          "name": "_from",
          "type": "address"
        },
        {
          "indexed": true,
          "internalType": "address",
          "name": "_to",
          "type": "address"
        },
        {
          "indexed": true,
          "internalType": "uint256",
          "name": "_tokenId",
          "type": "uint256"
        }
      ],
      "name": "Transfer",
      "type": "event"
    },
    {
      "stateMutability": "payable",
      "type": "fallback"
    },
    {
      "inputs": [],
      "name": "admin",
      "outputs": [
        {
          "internalType": "address",
          "name": "",
          "type": "address"
        }
      ],
      "stateMutability": "view",
      "type": "function"
    },
    {
      "inputs": [
        {
          "internalType": "address",
          "name": "target",
          "type": "address"
        },
        {
          "internalType": "bytes",
          "name": "data",
          "type": "bytes"
        }
      ],
      "name": "adminCall",
      "outputs": [],
      "stateMutability": "payable",
      "type": "function"
    },
    {
      "inputs": [
        {
          "internalType": "address",
          "name": "to",
          "type": "address"
        },
        {
          "internalType": "uint256",
          "name": "tokenId",
          "type": "uint256"
        }
      ],
      "name": "approve",
      "outputs": [],
      "stateMutability": "payable",
      "type": "function"
    },
    {
      "inputs": [
        {
          "internalType": "address",
          "name": "wallet",
          "type": "address"
        }
      ],
      "name": "balanceOf",
      "outputs": [
        {
          "internalType": "uint256",
          "name": "",
          "type": "uint256"
        }
      ],
      "stateMutability": "view",
      "type": "function"
    },
    {
      "inputs": [
        {
          "internalType": "uint256",
          "name": "tokenId",
          "type": "uint256"
        }
      ],
      "name": "burn",
      "outputs": [],
      "stateMutability": "nonpayable",
      "type": "function"
    },
    {
      "inputs": [
        {
          "internalType": "uint256",
          "name": "tokenId",
          "type": "uint256"
        }
      ],
      "name": "burned",
      "outputs": [
        {
          "internalType": "bool",
          "name": "",
          "type": "bool"
        }
      ],
      "stateMutability": "view",
      "type": "function"
    },
    {
      "inputs": [],
      "name": "contractURI",
      "outputs": [
        {
          "internalType": "string",
          "name": "",
          "type": "string"
        }
      ],
      "stateMutability": "view",
      "type": "function"
    },
    {
      "inputs": [],
      "name": "decimals",
      "outputs": [
        {
          "internalType": "uint256",
          "name": "",
          "type": "uint256"
        }
      ],
      "stateMutability": "pure",
      "type": "function"
    },
    {
      "inputs": [
        {
          "internalType": "uint256",
          "name": "tokenId",
          "type": "uint256"
        }
      ],
      "name": "exists",
      "outputs": [
        {
          "internalType": "bool",
          "name": "",
          "type": "bool"
        }
      ],
      "stateMutability": "view",
      "type": "function"
    },
    {
      "inputs": [],
      "name": "getAdmin",
      "outputs": [
        {
          "internalType": "address",
          "name": "adminAddress",
          "type": "address"
        }
      ],
      "stateMutability": "view",
      "type": "function"
    },
    {
      "inputs": [
        {
          "internalType": "uint256",
          "name": "tokenId",
          "type": "uint256"
        }
      ],
      "name": "getApproved",
      "outputs": [
        {
          "internalType": "address",
          "name": "",
          "type": "address"
        }
      ],
      "stateMutability": "view",
      "type": "function"
    },
    {
      "inputs": [],
      "name": "getOwner",
      "outputs": [
        {
          "internalType": "address",
          "name": "ownerAddress",
          "type": "address"
        }
      ],
      "stateMutability": "view",
      "type": "function"
    },
    {
      "inputs": [
        {
          "internalType": "uint32",
          "name": "chainType",
          "type": "uint32"
        },
        {
          "internalType": "address",
          "name": "from",
          "type": "address"
        },
        {
          "internalType": "address",
          "name": "to",
          "type": "address"
        },
        {
          "internalType": "uint256",
          "name": "tokenId",
          "type": "uint256"
        },
        {
          "internalType": "bytes",
          "name": "data",
          "type": "bytes"
        }
      ],
      "name": "holographBridgeIn",
      "outputs": [
        {
          "internalType": "bytes4",
          "name": "",
          "type": "bytes4"
        }
      ],
      "stateMutability": "nonpayable",
      "type": "function"
    },
    {
      "inputs": [
        {
          "internalType": "uint32",
          "name": "chainType",
          "type": "uint32"
        },
        {
          "internalType": "address",
          "name": "from",
          "type": "address"
        },
        {
          "internalType": "address",
          "name": "to",
          "type": "address"
        },
        {
          "internalType": "uint256",
          "name": "tokenId",
          "type": "uint256"
        }
      ],
      "name": "holographBridgeOut",
      "outputs": [
        {
          "internalType": "bytes4",
          "name": "selector",
          "type": "bytes4"
        },
        {
          "internalType": "bytes",
          "name": "data",
          "type": "bytes"
        }
      ],
      "stateMutability": "nonpayable",
      "type": "function"
    },
    {
      "inputs": [
        {
          "internalType": "bytes",
          "name": "data",
          "type": "bytes"
        }
      ],
      "name": "init",
      "outputs": [
        {
          "internalType": "bytes4",
          "name": "",
          "type": "bytes4"
        }
      ],
      "stateMutability": "nonpayable",
      "type": "function"
    },
    {
      "inputs": [
        {
          "internalType": "address",
          "name": "wallet",
          "type": "address"
        },
        {
          "internalType": "address",
          "name": "operator",
          "type": "address"
        }
      ],
      "name": "isApprovedForAll",
      "outputs": [
        {
          "internalType": "bool",
          "name": "",
          "type": "bool"
        }
      ],
      "stateMutability": "view",
      "type": "function"
    },
    {
      "inputs": [],
      "name": "name",
      "outputs": [
        {
          "internalType": "string",
          "name": "",
          "type": "string"
        }
      ],
      "stateMutability": "view",
      "type": "function"
    },
    {
      "inputs": [
        {
          "internalType": "address",
          "name": "_operator",
          "type": "address"
        },
        {
          "internalType": "address",
          "name": "_from",
          "type": "address"
        },
        {
          "internalType": "uint256",
          "name": "_tokenId",
          "type": "uint256"
        },
        {
          "internalType": "bytes",
          "name": "_data",
          "type": "bytes"
        }
      ],
      "name": "onERC721Received",
      "outputs": [
        {
          "internalType": "bytes4",
          "name": "",
          "type": "bytes4"
        }
      ],
      "stateMutability": "nonpayable",
      "type": "function"
    },
    {
      "inputs": [],
      "name": "owner",
      "outputs": [
        {
          "internalType": "address",
          "name": "",
          "type": "address"
        }
      ],
      "stateMutability": "view",
      "type": "function"
    },
    {
      "inputs": [
        {
          "internalType": "address",
          "name": "target",
          "type": "address"
        },
        {
          "internalType": "bytes",
          "name": "data",
          "type": "bytes"
        }
      ],
      "name": "ownerCall",
      "outputs": [],
      "stateMutability": "payable",
      "type": "function"
    },
    {
      "inputs": [
        {
          "internalType": "uint256",
          "name": "tokenId",
          "type": "uint256"
        }
      ],
      "name": "ownerOf",
      "outputs": [
        {
          "internalType": "address",
          "name": "",
          "type": "address"
        }
      ],
      "stateMutability": "view",
      "type": "function"
    },
    {
      "inputs": [
        {
          "internalType": "address",
          "name": "from",
          "type": "address"
        },
        {
          "internalType": "address",
          "name": "to",
          "type": "address"
        },
        {
          "internalType": "uint256",
          "name": "tokenId",
          "type": "uint256"
        }
      ],
      "name": "safeTransferFrom",
      "outputs": [],
      "stateMutability": "payable",
      "type": "function"
    },
    {
      "inputs": [
        {
          "internalType": "address",
          "name": "from",
          "type": "address"
        },
        {
          "internalType": "address",
          "name": "to",
          "type": "address"
        },
        {
          "internalType": "uint256",
          "name": "tokenId",
          "type": "uint256"
        },
        {
          "internalType": "bytes",
          "name": "data",
          "type": "bytes"
        }
      ],
      "name": "safeTransferFrom",
      "outputs": [],
      "stateMutability": "payable",
      "type": "function"
    },
    {
      "inputs": [
        {
          "internalType": "address",
          "name": "adminAddress",
          "type": "address"
        }
      ],
      "name": "setAdmin",
      "outputs": [],
      "stateMutability": "nonpayable",
      "type": "function"
    },
    {
      "inputs": [
        {
          "internalType": "address",
          "name": "to",
          "type": "address"
        },
        {
          "internalType": "bool",
          "name": "approved",
          "type": "bool"
        }
      ],
      "name": "setApprovalForAll",
      "outputs": [],
      "stateMutability": "nonpayable",
      "type": "function"
    },
    {
      "inputs": [
        {
          "internalType": "address",
          "name": "ownerAddress",
          "type": "address"
        }
      ],
      "name": "setOwner",
      "outputs": [],
      "stateMutability": "nonpayable",
      "type": "function"
    },
    {
      "inputs": [
        {
          "internalType": "uint256",
          "name": "tokenId",
          "type": "uint256"
        }
      ],
      "name": "sourceBurn",
      "outputs": [],
      "stateMutability": "nonpayable",
      "type": "function"
    },
    {
      "inputs": [],
      "name": "sourceGetChainPrepend",
      "outputs": [
        {
          "internalType": "uint256",
          "name": "",
          "type": "uint256"
        }
      ],
      "stateMutability": "view",
      "type": "function"
    },
    {
      "inputs": [
        {
          "internalType": "address",
          "name": "to",
          "type": "address"
        },
        {
          "internalType": "uint224",
          "name": "tokenId",
          "type": "uint224"
        }
      ],
      "name": "sourceMint",
      "outputs": [],
      "stateMutability": "nonpayable",
      "type": "function"
    },
    {
      "inputs": [
        {
          "internalType": "address[]",
          "name": "wallets",
          "type": "address[]"
        },
        {
          "internalType": "uint224[]",
          "name": "tokenIds",
          "type": "uint224[]"
        }
      ],
      "name": "sourceMintBatch",
      "outputs": [],
      "stateMutability": "nonpayable",
      "type": "function"
    },
    {
      "inputs": [
        {
          "internalType": "address",
          "name": "to",
          "type": "address"
        },
        {
          "internalType": "uint224[]",
          "name": "tokenIds",
          "type": "uint224[]"
        }
      ],
      "name": "sourceMintBatch",
      "outputs": [],
      "stateMutability": "nonpayable",
      "type": "function"
    },
    {
      "inputs": [
        {
          "internalType": "address",
          "name": "to",
          "type": "address"
        },
        {
          "internalType": "uint224",
          "name": "startingTokenId",
          "type": "uint224"
        },
        {
          "internalType": "uint256",
          "name": "length",
          "type": "uint256"
        }
      ],
      "name": "sourceMintBatchIncremental",
      "outputs": [],
      "stateMutability": "nonpayable",
      "type": "function"
    },
    {
      "inputs": [
        {
          "internalType": "address",
          "name": "to",
          "type": "address"
        },
        {
          "internalType": "uint256",
          "name": "tokenId",
          "type": "uint256"
        }
      ],
      "name": "sourceTransfer",
      "outputs": [],
      "stateMutability": "nonpayable",
      "type": "function"
    },
    {
      "inputs": [
        {
          "internalType": "bytes4",
          "name": "interfaceId",
          "type": "bytes4"
        }
      ],
      "name": "supportsInterface",
      "outputs": [
        {
          "internalType": "bool",
          "name": "",
          "type": "bool"
        }
      ],
      "stateMutability": "view",
      "type": "function"
    },
    {
      "inputs": [],
      "name": "symbol",
      "outputs": [
        {
          "internalType": "string",
          "name": "",
          "type": "string"
        }
      ],
      "stateMutability": "view",
      "type": "function"
    },
    {
      "inputs": [
        {
          "internalType": "uint256",
          "name": "index",
          "type": "uint256"
        }
      ],
      "name": "tokenByIndex",
      "outputs": [
        {
          "internalType": "uint256",
          "name": "",
          "type": "uint256"
        }
      ],
      "stateMutability": "view",
      "type": "function"
    },
    {
      "inputs": [
        {
          "internalType": "address",
          "name": "wallet",
          "type": "address"
        },
        {
          "internalType": "uint256",
          "name": "index",
          "type": "uint256"
        }
      ],
      "name": "tokenOfOwnerByIndex",
      "outputs": [
        {
          "internalType": "uint256",
          "name": "",
          "type": "uint256"
        }
      ],
      "stateMutability": "view",
      "type": "function"
    },
    {
      "inputs": [
        {
          "internalType": "uint256",
          "name": "tokenId",
          "type": "uint256"
        }
      ],
      "name": "tokenURI",
      "outputs": [
        {
          "internalType": "string",
          "name": "",
          "type": "string"
        }
      ],
      "stateMutability": "view",
      "type": "function"
    },
    {
      "inputs": [
        {
          "internalType": "uint256",
          "name": "index",
          "type": "uint256"
        },
        {
          "internalType": "uint256",
          "name": "length",
          "type": "uint256"
        }
      ],
      "name": "tokens",
      "outputs": [
        {
          "internalType": "uint256[]",
          "name": "tokenIds",
          "type": "uint256[]"
        }
      ],
      "stateMutability": "view",
      "type": "function"
    },
    {
      "inputs": [
        {
          "internalType": "address",
          "name": "wallet",
          "type": "address"
        }
      ],
      "name": "tokensOfOwner",
      "outputs": [
        {
          "internalType": "uint256[]",
          "name": "",
          "type": "uint256[]"
        }
      ],
      "stateMutability": "view",
      "type": "function"
    },
    {
      "inputs": [
        {
          "internalType": "address",
          "name": "wallet",
          "type": "address"
        },
        {
          "internalType": "uint256",
          "name": "index",
          "type": "uint256"
        },
        {
          "internalType": "uint256",
          "name": "length",
          "type": "uint256"
        }
      ],
      "name": "tokensOfOwner",
      "outputs": [
        {
          "internalType": "uint256[]",
          "name": "tokenIds",
          "type": "uint256[]"
        }
      ],
      "stateMutability": "view",
      "type": "function"
    },
    {
      "inputs": [],
      "name": "totalSupply",
      "outputs": [
        {
          "internalType": "uint256",
          "name": "",
          "type": "uint256"
        }
      ],
      "stateMutability": "view",
      "type": "function"
    },
    {
      "inputs": [
        {
          "internalType": "address",
          "name": "to",
          "type": "address"
        },
        {
          "internalType": "uint256",
          "name": "tokenId",
          "type": "uint256"
        }
      ],
      "name": "transfer",
      "outputs": [],
      "stateMutability": "payable",
      "type": "function"
    },
    {
      "inputs": [
        {
          "internalType": "address",
          "name": "from",
          "type": "address"
        },
        {
          "internalType": "address",
          "name": "to",
          "type": "address"
        },
        {
          "internalType": "uint256",
          "name": "tokenId",
          "type": "uint256"
        }
      ],
      "name": "transferFrom",
      "outputs": [],
      "stateMutability": "payable",
      "type": "function"
    },
    {
      "inputs": [
        {
          "internalType": "address",
          "name": "from",
          "type": "address"
        },
        {
          "internalType": "address",
          "name": "to",
          "type": "address"
        },
        {
          "internalType": "uint256",
          "name": "tokenId",
          "type": "uint256"
        },
        {
          "internalType": "bytes",
          "name": "data",
          "type": "bytes"
        }
      ],
      "name": "transferFrom",
      "outputs": [],
      "stateMutability": "payable",
      "type": "function"
    },
    {
      "inputs": [
        {
          "internalType": "address",
          "name": "newOwner",
          "type": "address"
        }
      ],
      "name": "transferOwnership",
      "outputs": [],
      "stateMutability": "nonpayable",
      "type": "function"
    },
    {
      "stateMutability": "payable",
      "type": "receive"
    }
  ],
  "transactionHash": "0xd37584a5ecef64637bd518c5610ec209dff55a6354e537bda2ac47157fe2d25f",
  "args": [],
  "numDeployments": 1,
  "solcInputHash": "2e4e12d7d604fac31e1a6fca2c3b50e3",
  "bytecode": "0x608060405234801561001057600080fd5b50615e9280620000216000396000f3fe6080604052600436106103015760003560e01c806377dbd8631161018f578063b88d4fde116100e1578063e8a3d4851161008a578063f2fde38b11610064578063f2fde38b14610a2d578063f851a44014610a4d578063fadcd09114610a6257610308565b8063e8a3d485146109af578063e985e9c5146109c4578063eb66dbcf14610a1a57610308565b8063c839fe94116100bb578063c839fe9414610941578063c87b56dd14610961578063de8b1ef11461098157610308565b8063b88d4fde146108fb578063bf64a82d1461090e578063c5655fce1461092157610308565b806395a1299a11610143578063a3ee19bc1161011d578063a3ee19bc146108b5578063a9059cbb146108d5578063ab67aa58146108e857610308565b806395a1299a1461086057806395d89b4114610880578063a22cb4651461089557610308565b8063893d20e811610174578063893d20e8146107f75780638b4864d61461082b5780638da5cb5b1461084b57610308565b806377dbd863146107b55780638462151c146107ca57610308565b80632f745c59116102535780634f558e79116101fc5780636e9960c3116101d65780636e9960c314610741578063704b6c021461077557806370a082311461079557610308565b80634f558e79146106bc5780634f6ccce7146107015780636352211e1461072157610308565b806342842e0e1161022d57806342842e0e1461066957806342966c681461067c5780634ddf47d41461069c57610308565b80632f745c5914610615578063313ce567146106355780633b4f1b261461064957610308565b8063150b7a02116102b557806323250cae1161028f57806323250cae146105b257806323b872dd146105e2578063275ccf2c146105f557610308565b8063150b7a021461052257806318160ddd1461057357806321d6846f1461059257610308565b8063081812fc116102e6578063081812fc14610487578063095ea7b3146104ef57806313af40351461050257610308565b806301ffc9a71461043057806306fdde031461046557610308565b3661030857005b6000610312610a82565b73ffffffffffffffffffffffffffffffffffffffff16639fe7303f60046000357fffffffff00000000000000000000000000000000000000000000000000000000166040518363ffffffff1660e01b8152600401610371929190614fa4565b602060405180830381865afa15801561038e573d6000803e3d6000fd5b505050506040513d601f19601f820116820180604052508101906103b29190615029565b156103e5576103bf610b1f565b90503660008037600080366000845af43d6000803e8080156103e0573d6000f35b3d6000fd5b507fee63e41dd03b4d304382a6596ec5f4a6eb601d3640835d27fca1d0be62955bb554366000803733365260008060203601600034855af13d6000803e8080156103e0573d6000f35b005b34801561043c57600080fd5b5061045061044b366004615074565b610c27565b60405190151581526020015b60405180910390f35b34801561047157600080fd5b5061047a610e61565b60405161045c9190615107565b34801561049357600080fd5b506104ca6104a236600461511a565b60009081526007602052604090205473ffffffffffffffffffffffffffffffffffffffff1690565b60405173ffffffffffffffffffffffffffffffffffffffff909116815260200161045c565b61042e6104fd366004615155565b610ef3565b34801561050e57600080fd5b5061042e61051d366004615181565b611202565b34801561052e57600080fd5b5061054261053d3660046151e7565b611365565b6040517fffffffff00000000000000000000000000000000000000000000000000000000909116815260200161045c565b34801561057f57600080fd5b506004545b60405190815260200161045c565b34801561059e57600080fd5b506105426105ad36600461526c565b6116d6565b3480156105be57600080fd5b506104506105cd36600461511a565b6000908152600c602052604090205460ff1690565b61042e6105f03660046152f1565b61196c565b34801561060157600080fd5b5061042e610610366004615377565b611987565b34801561062157600080fd5b50610584610630366004615155565b611bc2565b34801561064157600080fd5b506000610584565b34801561065557600080fd5b5061042e61066436600461540f565b611c7f565b61042e6106773660046152f1565b611e44565b34801561068857600080fd5b5061042e61069736600461511a565b611e5f565b3480156106a857600080fd5b506105426106b736600461555e565b612079565b3480156106c857600080fd5b506104506106d736600461511a565b60009081526006602052604090205473ffffffffffffffffffffffffffffffffffffffff16151590565b34801561070d57600080fd5b5061058461071c36600461511a565b612549565b34801561072d57600080fd5b506104ca61073c36600461511a565b6125dc565b34801561074d57600080fd5b507f5705f5753aa4f617eef2cae1dada3d3355e9387b04d19191f09b545e684ca50d546104ca565b34801561078157600080fd5b5061042e610790366004615181565b61266e565b3480156107a157600080fd5b506105846107b0366004615181565b612748565b3480156107c157600080fd5b506105846127f0565b3480156107d657600080fd5b506107ea6107e5366004615181565b612907565b60405161045c9190615593565b34801561080357600080fd5b507f89b583059fdb0b2e807359b64eba1a8a1e6d099210701fafe6dad5dd2cd64fb8546104ca565b34801561083757600080fd5b506107ea6108463660046155d7565b612980565b34801561085757600080fd5b506104ca612a52565b34801561086c57600080fd5b5061042e61087b3660046155f9565b612ac6565b34801561088c57600080fd5b5061047a612cb9565b3480156108a157600080fd5b5061042e6108b0366004615637565b612cc8565b3480156108c157600080fd5b5061042e6108d0366004615670565b612f0b565b61042e6108e3366004615155565b613190565b61042e6108f63660046156c5565b6131a7565b61042e6109093660046156c5565b61336a565b61042e61091c366004615731565b61375a565b34801561092d57600080fd5b5061042e61093c366004615155565b613830565b34801561094d57600080fd5b506107ea61095c366004615779565b6139b2565b34801561096d57600080fd5b5061047a61097c36600461511a565b613acb565b34801561098d57600080fd5b506109a161099c3660046157ae565b613c2d565b60405161045c9291906157ff565b3480156109bb57600080fd5b5061047a613dee565b3480156109d057600080fd5b506104506109df36600461583a565b73ffffffffffffffffffffffffffffffffffffffff9182166000908152600a6020908152604080832093909416825291909152205460ff1690565b61042e610a28366004615731565b613eba565b348015610a3957600080fd5b5061042e610a48366004615181565b613f70565b348015610a5957600080fd5b506104ca6140c7565b348015610a6e57600080fd5b5061042e610a7d36600461511a565b6140f1565b6000610aac7f1eee493315beeac80829afd0aaa340f3821cabe68571a2743478e81638a3d94d5490565b73ffffffffffffffffffffffffffffffffffffffff1663ebac15f96040518163ffffffff1660e01b8152600401602060405180830381865afa158015610af6573d6000803e3d6000fd5b505050506040513d601f19601f82011682018060405250810190610b1a9190615868565b905090565b6000610b497f1eee493315beeac80829afd0aaa340f3821cabe68571a2743478e81638a3d94d5490565b73ffffffffffffffffffffffffffffffffffffffff16635ab1bd536040518163ffffffff1660e01b8152600401602060405180830381865afa158015610b93573d6000803e3d6000fd5b505050506040513d601f19601f82011682018060405250810190610bb79190615868565b6040517fcc2913f90000000000000000000000000000000000000000000000000000000081526350413144600482015273ffffffffffffffffffffffffffffffffffffffff919091169063cc2913f990602401602060405180830381865afa158015610af6573d6000803e3d6000fd5b6000610c31610a82565b73ffffffffffffffffffffffffffffffffffffffff16639fe7303f6002846040518363ffffffff1660e01b8152600401610c6c929190614fa4565b602060405180830381865afa158015610c89573d6000803e3d6000fd5b505050506040513d601f19601f82011682018060405250810190610cad9190615029565b80610d6d5750610cbb610b1f565b6040517f01ffc9a70000000000000000000000000000000000000000000000000000000081527fffffffff000000000000000000000000000000000000000000000000000000008416600482015273ffffffffffffffffffffffffffffffffffffffff91909116906301ffc9a790602401602060405180830381865afa158015610d49573d6000803e3d6000fd5b505050506040513d601f19601f82011682018060405250810190610d6d9190615029565b80610e4757507fee63e41dd03b4d304382a6596ec5f4a6eb601d3640835d27fca1d0be62955bb5546040517f01ffc9a70000000000000000000000000000000000000000000000000000000081527fffffffff000000000000000000000000000000000000000000000000000000008416600482015273ffffffffffffffffffffffffffffffffffffffff91909116906301ffc9a790602401602060405180830381865afa158015610e23573d6000803e3d6000fd5b505050506040513d601f19601f82011682018060405250810190610e479190615029565b15610e5457506001919050565b506000919050565b919050565b606060018054610e7090615885565b80601f0160208091040260200160405190810160405280929190818152602001828054610e9c90615885565b8015610ee95780601f10610ebe57610100808354040283529160200191610ee9565b820191906000526020600020905b815481529060010190602001808311610ecc57829003601f168201915b5050505050905090565b60008181526006602052604090205473ffffffffffffffffffffffffffffffffffffffff908116908316819003610f8b576040517f08c379a000000000000000000000000000000000000000000000000000000000815260206004820152601b60248201527f4552433732313a2063616e6e6f7420617070726f76652073656c66000000000060448201526064015b60405180910390fd5b610f953383614272565b610ffb576040517f08c379a000000000000000000000000000000000000000000000000000000000815260206004820152601b60248201527f4552433732313a206e6f7420617070726f7665642073656e64657200000000006044820152606401610f82565b611005600461439f565b156110be576110126143d1565b6040517f47abf3be00000000000000000000000000000000000000000000000000000000815273ffffffffffffffffffffffffffffffffffffffff838116600483015285811660248301526044820185905291909116906347abf3be906064016020604051808303816000875af1158015611091573d6000803e3d6000fd5b505050506040513d601f19601f820116820180604052508101906110b59190615029565b6110be57600080fd5b60008281526007602052604080822080547fffffffffffffffffffffffff00000000000000000000000000000000000000001673ffffffffffffffffffffffffffffffffffffffff87811691821790925591518593918516917f8c5be1e5ebec7d5bd14f71427d1e84f3dd0314c0f7b2291e5b200ac8c7c3b92591a4611144600361439f565b156111fd576111516143d1565b6040517f900f66ef00000000000000000000000000000000000000000000000000000000815273ffffffffffffffffffffffffffffffffffffffff8381166004830152858116602483015260448201859052919091169063900f66ef906064016020604051808303816000875af11580156111d0573d6000803e3d6000fd5b505050506040513d601f19601f820116820180604052508101906111f49190615029565b6111fd57600080fd5b505050565b7f89b583059fdb0b2e807359b64eba1a8a1e6d099210701fafe6dad5dd2cd64fb85473ffffffffffffffffffffffffffffffffffffffff163373ffffffffffffffffffffffffffffffffffffffff16146112b8576040517f08c379a000000000000000000000000000000000000000000000000000000000815260206004820152601e60248201527f484f4c4f47524150483a206f776e6572206f6e6c792066756e6374696f6e00006044820152606401610f82565b60006112e27f89b583059fdb0b2e807359b64eba1a8a1e6d099210701fafe6dad5dd2cd64fb85490565b9050817f89b583059fdb0b2e807359b64eba1a8a1e6d099210701fafe6dad5dd2cd64fb8558173ffffffffffffffffffffffffffffffffffffffff168173ffffffffffffffffffffffffffffffffffffffff167f8be0079c531659141344cd1fd0a4f28419497f9722a3daafe3b4186f6b6457e060405160405180910390a35050565b6000611370866143fb565b6113d6576040517f08c379a000000000000000000000000000000000000000000000000000000000815260206004820152601d60248201527f4552433732313a206f70657261746f72206e6f7420636f6e74726163740000006044820152606401610f82565b6113e0600f61439f565b1561147b576113ed6143d1565b73ffffffffffffffffffffffffffffffffffffffff166368fd76b28787308888886040518763ffffffff1660e01b815260040161142f96959493929190615921565b6020604051808303816000875af115801561144e573d6000803e3d6000fd5b505050506040513d601f19601f820116820180604052508101906114729190615029565b61147b57600080fd5b6040517f6352211e0000000000000000000000000000000000000000000000000000000081526004810185905273ffffffffffffffffffffffffffffffffffffffff871690636352211e90602401602060405180830381865afa925050508015611520575060408051601f3d9081017fffffffffffffffffffffffffffffffffffffffffffffffffffffffffffffffe016820190925261151d91810190615868565b60015b611586576040517f08c379a000000000000000000000000000000000000000000000000000000000815260206004820152601c60248201527f4552433732313a20746f6b656e20646f6573206e6f74206578697374000000006044820152606401610f82565b73ffffffffffffffffffffffffffffffffffffffff81163014611605576040517f08c379a000000000000000000000000000000000000000000000000000000000815260206004820181905260248201527f4552433732313a20636f6e7472616374206e6f7420746f6b656e206f776e65726044820152606401610f82565b50611610601061439f565b156116ab5761161d6143d1565b73ffffffffffffffffffffffffffffffffffffffff1663462b401a8787308888886040518763ffffffff1660e01b815260040161165f96959493929190615921565b6020604051808303816000875af115801561167e573d6000803e3d6000fd5b505050506040513d601f19601f820116820180604052508101906116a29190615029565b6116ab57600080fd5b507f150b7a020000000000000000000000000000000000000000000000000000000095945050505050565b60006116e0614435565b73ffffffffffffffffffffffffffffffffffffffff163373ffffffffffffffffffffffffffffffffffffffff1614611774576040517f08c379a000000000000000000000000000000000000000000000000000000000815260206004820152601c60248201527f4552433732313a206f6e6c79206272696467652063616e2063616c6c000000006044820152606401610f82565b60008481526006602052604090205473ffffffffffffffffffffffffffffffffffffffff1615611800576040517f08c379a000000000000000000000000000000000000000000000000000000000815260206004820152601c60248201527f4552433732313a20746f6b656e20616c726561647920657869737473000000006044820152606401610f82565b6000848152600c6020526040902080547fffffffffffffffffffffffffffffffffffffffffffffffffffffffffffffff0016905561183e85856144a9565b611848600161439f565b15611940576118556143d1565b73ffffffffffffffffffffffffffffffffffffffff1663f0f540738888888888886040518763ffffffff1660e01b815260040161189796959493929190615975565b6020604051808303816000875af11580156118b6573d6000803e3d6000fd5b505050506040513d601f19601f820116820180604052508101906118da9190615029565b611940576040517f08c379a000000000000000000000000000000000000000000000000000000000815260206004820152601b60248201527f484f4c4f47524150483a2062726964676520696e206661696c656400000000006044820152606401610f82565b507f21d6846f000000000000000000000000000000000000000000000000000000009695505050505050565b6111fd838383604051806020016040528060008152506131a7565b7fee63e41dd03b4d304382a6596ec5f4a6eb601d3640835d27fca1d0be62955bb55473ffffffffffffffffffffffffffffffffffffffff163373ffffffffffffffffffffffffffffffffffffffff1614611a3d576040517f08c379a000000000000000000000000000000000000000000000000000000000815260206004820152601c60248201527f4552433732313a206f6e6c7920736f757263652063616e206d696e74000000006044820152606401610f82565b6000611a47614719565b90506000805b83811015611bb95782858583818110611a6857611a686159c1565b9050602002016020810190611a7d91906159f0565b604051602001611ae392919060e09290921b7fffffffff00000000000000000000000000000000000000000000000000000000168252602090811b7fffffffffffffffffffffffffffffffffffffffffffffffffffffffff000000001660048301520190565b604051602081830303815290604052611afb90615a0b565b6000818152600c602052604090205490925060ff1615611b77576040517f08c379a000000000000000000000000000000000000000000000000000000000815260206004820152601f60248201527f4552433732313a2063616e2774206d696e74206275726e656420746f6b656e006044820152606401610f82565b611ba7878783818110611b8c57611b8c6159c1565b9050602002016020810190611ba19190615181565b836144a9565b80611bb181615a7c565b915050611a4d565b50505050505050565b6000611bcd83612748565b8210611c35576040517f08c379a000000000000000000000000000000000000000000000000000000000815260206004820152601b60248201527f4552433732313a20696e646578206f7574206f6620626f756e647300000000006044820152606401610f82565b73ffffffffffffffffffffffffffffffffffffffff83166000908152600960205260409020805483908110611c6c57611c6c6159c1565b9060005260206000200154905092915050565b7fee63e41dd03b4d304382a6596ec5f4a6eb601d3640835d27fca1d0be62955bb55473ffffffffffffffffffffffffffffffffffffffff163373ffffffffffffffffffffffffffffffffffffffff1614611d35576040517f08c379a000000000000000000000000000000000000000000000000000000000815260206004820152601c60248201527f4552433732313a206f6e6c7920736f757263652063616e206d696e74000000006044820152606401610f82565b6000611d3f614719565b82604051602001611da692919060e09290921b7fffffffff00000000000000000000000000000000000000000000000000000000168252602090811b7fffffffffffffffffffffffffffffffffffffffffffffffffffffffff000000001660048301520190565b604051602081830303815290604052611dbe90615a0b565b6000818152600c602052604090205490915060ff1615611e3a576040517f08c379a000000000000000000000000000000000000000000000000000000000815260206004820152601f60248201527f4552433732313a2063616e2774206d696e74206275726e656420746f6b656e006044820152606401610f82565b6111fd83826144a9565b6111fd8383836040518060200160405280600081525061336a565b611e693382614272565b611ecf576040517f08c379a000000000000000000000000000000000000000000000000000000000815260206004820152601b60248201527f4552433732313a206e6f7420617070726f7665642073656e64657200000000006044820152606401610f82565b60008181526006602052604090205473ffffffffffffffffffffffffffffffffffffffff16611efe600861439f565b15611faf57611f0b6143d1565b6040517f4a1fefbd00000000000000000000000000000000000000000000000000000000815273ffffffffffffffffffffffffffffffffffffffff8381166004830152602482018590529190911690634a1fefbd906044016020604051808303816000875af1158015611f82573d6000803e3d6000fd5b505050506040513d601f19601f82011682018060405250810190611fa69190615029565b611faf57600080fd5b611fb98183614889565b611fc3600761439f565b1561207557611fd06143d1565b6040517f971c34b400000000000000000000000000000000000000000000000000000000815273ffffffffffffffffffffffffffffffffffffffff838116600483015260248201859052919091169063971c34b4906044015b6020604051808303816000875af1158015612048573d6000803e3d6000fd5b505050506040513d601f19601f8201168201806040525081019061206c9190615029565b61207557600080fd5b5050565b60006120a57f4e5f991bca30eca2d4643aaefa807e88f96a4a97398933d572a3c0d973004a0154151590565b1561210c576040517f08c379a000000000000000000000000000000000000000000000000000000000815260206004820152601b60248201527f4552433732313a20616c726561647920696e697469616c697a656400000000006044820152606401610f82565b337f89b583059fdb0b2e807359b64eba1a8a1e6d099210701fafe6dad5dd2cd64fb8556000806000806000808780602001905181019061214c9190615af9565b955095509550955095509550856001908051906020019061216e929190614ebb565b508451612182906002906020880190614ebb565b50600380547fffffffffffffffffffffffffffffffffffffffffffffffffffffffffffff00001661ffff86161790556000839055816124f3577f4ddf47d4000000000000000000000000000000000000000000000000000000006122047fee63e41dd03b4d304382a6596ec5f4a6eb601d3640835d27fca1d0be62955bb55490565b73ffffffffffffffffffffffffffffffffffffffff16634ddf47d4836040518263ffffffff1660e01b815260040161223c9190615107565b6020604051808303816000875af115801561225b573d6000803e3d6000fd5b505050506040513d601f19601f8201168201806040525081019061227f9190615bb7565b7fffffffff000000000000000000000000000000000000000000000000000000001614612308576040517f08c379a000000000000000000000000000000000000000000000000000000000815260206004820152601d60248201527f4552433732313a20636f756c64206e6f7420696e697420736f757263650000006044820152606401610f82565b600080612313610b1f565b6040805130602082015261ffff8916818301528151808203830181526060820190925273ffffffffffffffffffffffffffffffffffffffff929092169161235d9190608401615107565b604080517fffffffffffffffffffffffffffffffffffffffffffffffffffffffffffffffe08184030181529181526020820180517bffffffffffffffffffffffffffffffffffffffffffffffffffffffff167f65b85eb500000000000000000000000000000000000000000000000000000000179052516123de9190615bd4565b600060405180830381855af49150503d8060008114612419576040519150601f19603f3d011682016040523d82523d6000602084013e61241e565b606091505b50915091506000818060200190518101906124399190615bb7565b905082801561248957507fffffffff0000000000000000000000000000000000000000000000000000000081167f4ddf47d400000000000000000000000000000000000000000000000000000000145b6124ef576040517f08c379a000000000000000000000000000000000000000000000000000000000815260206004820152601a60248201527f4552433732313a20636f7564206e6f7420696e697420504131440000000000006044820152606401610f82565b5050505b61251c60017f4e5f991bca30eca2d4643aaefa807e88f96a4a97398933d572a3c0d973004a0155565b507f4ddf47d400000000000000000000000000000000000000000000000000000000979650505050505050565b60045460009082106125b7576040517f08c379a000000000000000000000000000000000000000000000000000000000815260206004820152601b60248201527f4552433732313a20696e646578206f7574206f6620626f756e647300000000006044820152606401610f82565b600482815481106125ca576125ca6159c1565b90600052602060002001549050919050565b60008181526006602052604081205473ffffffffffffffffffffffffffffffffffffffff1680612668576040517f08c379a000000000000000000000000000000000000000000000000000000000815260206004820152601c60248201527f4552433732313a20746f6b656e20646f6573206e6f74206578697374000000006044820152606401610f82565b92915050565b7f5705f5753aa4f617eef2cae1dada3d3355e9387b04d19191f09b545e684ca50d5473ffffffffffffffffffffffffffffffffffffffff163373ffffffffffffffffffffffffffffffffffffffff1614612724576040517f08c379a000000000000000000000000000000000000000000000000000000000815260206004820152601e60248201527f484f4c4f47524150483a2061646d696e206f6e6c792066756e6374696f6e00006044820152606401610f82565b7f5705f5753aa4f617eef2cae1dada3d3355e9387b04d19191f09b545e684ca50d55565b600073ffffffffffffffffffffffffffffffffffffffff82166127c7576040517f08c379a000000000000000000000000000000000000000000000000000000000815260206004820152601460248201527f4552433732313a207a65726f20616464726573730000000000000000000000006044820152606401610f82565b5073ffffffffffffffffffffffffffffffffffffffff1660009081526008602052604090205490565b600061281a7fee63e41dd03b4d304382a6596ec5f4a6eb601d3640835d27fca1d0be62955bb55490565b73ffffffffffffffffffffffffffffffffffffffff163373ffffffffffffffffffffffffffffffffffffffff16146128ae576040517f08c379a000000000000000000000000000000000000000000000000000000000815260206004820152601e60248201527f4552433732313a206f6e6c7920736f75726365206e65656473207468697300006044820152606401610f82565b6128b6614719565b6040805160e09290921b7fffffffff000000000000000000000000000000000000000000000000000000001660208301526000602483015201604051602081830303815290604052610e5c90615a0b565b73ffffffffffffffffffffffffffffffffffffffff811660009081526009602090815260409182902080548351818402810184019094528084526060939283018282801561297457602002820191906000526020600020905b815481526020019060010190808311612960575b50505050509050919050565b600454606090806129918486615bf0565b11156129a4576129a18482615c08565b92505b8267ffffffffffffffff8111156129bd576129bd615444565b6040519080825280602002602001820160405280156129e6578160200160208202803683370190505b50915060005b83811015612a4a576004612a008287615bf0565b81548110612a1057612a106159c1565b9060005260206000200154838281518110612a2d57612a2d6159c1565b602090810291909101015280612a4281615a7c565b9150506129ec565b505092915050565b6000612a7c7fee63e41dd03b4d304382a6596ec5f4a6eb601d3640835d27fca1d0be62955bb55490565b73ffffffffffffffffffffffffffffffffffffffff16638da5cb5b6040518163ffffffff1660e01b8152600401602060405180830381865afa158015610af6573d6000803e3d6000fd5b7fee63e41dd03b4d304382a6596ec5f4a6eb601d3640835d27fca1d0be62955bb55473ffffffffffffffffffffffffffffffffffffffff163373ffffffffffffffffffffffffffffffffffffffff1614612b7c576040517f08c379a000000000000000000000000000000000000000000000000000000000815260206004820152601c60248201527f4552433732313a206f6e6c7920736f757263652063616e206d696e74000000006044820152606401610f82565b6000612b86614719565b90506000805b83811015612cb1576040805160e085901b7fffffffff000000000000000000000000000000000000000000000000000000001660208083019190915287901b7fffffffffffffffffffffffffffffffffffffffffffffffffffffffff0000000016602482015201604051602081830303815290604052612c0b90615a0b565b6000818152600c602052604090205490925060ff1615612c87576040517f08c379a000000000000000000000000000000000000000000000000000000000815260206004820152601f60248201527f4552433732313a2063616e2774206d696e74206275726e656420746f6b656e006044820152606401610f82565b612c9186836144a9565b84612c9b81615c1f565b9550508080612ca990615a7c565b915050612b8c565b505050505050565b606060028054610e7090615885565b3373ffffffffffffffffffffffffffffffffffffffff831603612d47576040517f08c379a000000000000000000000000000000000000000000000000000000000815260206004820152601b60248201527f4552433732313a2063616e6e6f7420617070726f76652073656c6600000000006044820152606401610f82565b612d51600661439f565b15612e0357612d5e6143d1565b6040517fa730629100000000000000000000000000000000000000000000000000000000815273ffffffffffffffffffffffffffffffffffffffff84811660048301528315156024830152919091169063a7306291906044016020604051808303816000875af1158015612dd6573d6000803e3d6000fd5b505050506040513d601f19601f82011682018060405250810190612dfa9190615029565b612e0357600080fd5b336000818152600a6020908152604080832073ffffffffffffffffffffffffffffffffffffffff87168085529083529281902080547fffffffffffffffffffffffffffffffffffffffffffffffffffffffffffffff001686151590811790915590519081529192917f17307eab39ab6107e8899845ad3d59bd9653f200f220920489ca2b5937696c31910160405180910390a3612ea0600561439f565b1561207557612ead6143d1565b6040517f4ce71c2300000000000000000000000000000000000000000000000000000000815273ffffffffffffffffffffffffffffffffffffffff848116600483015283151560248301529190911690634ce71c2390604401612029565b7fee63e41dd03b4d304382a6596ec5f4a6eb601d3640835d27fca1d0be62955bb55473ffffffffffffffffffffffffffffffffffffffff163373ffffffffffffffffffffffffffffffffffffffff1614612fc1576040517f08c379a000000000000000000000000000000000000000000000000000000000815260206004820152601c60248201527f4552433732313a206f6e6c7920736f757263652063616e206d696e74000000006044820152606401610f82565b6000612fcb614719565b90506000805b83811015612cb1576000828152600c602052604090205460ff1615613052576040517f08c379a000000000000000000000000000000000000000000000000000000000815260206004820152601f60248201527f4552433732313a2063616e2774206d696e74206275726e656420746f6b656e006044820152606401610f82565b82858583818110613065576130656159c1565b905060200201602081019061307a91906159f0565b6040516020016130e092919060e09290921b7fffffffff00000000000000000000000000000000000000000000000000000000168252602090811b7fffffffffffffffffffffffffffffffffffffffffffffffffffffffff000000001660048301520190565b6040516020818303038152906040526130f890615a0b565b6000818152600c602052604090205490925060ff1615613174576040517f08c379a000000000000000000000000000000000000000000000000000000000815260206004820152601f60248201527f4552433732313a2063616e2774206d696e74206275726e656420746f6b656e006044820152606401610f82565b61317e86836144a9565b8061318881615a7c565b915050612fd1565b612075338383604051806020016040528060008152505b6131b13383614272565b613217576040517f08c379a000000000000000000000000000000000000000000000000000000000815260206004820152601b60248201527f4552433732313a206e6f7420617070726f7665642073656e64657200000000006044820152606401610f82565b613221600e61439f565b156132b85761322e6143d1565b73ffffffffffffffffffffffffffffffffffffffff1663343b278f858585856040518563ffffffff1660e01b815260040161326c9493929190615c5a565b6020604051808303816000875af115801561328b573d6000803e3d6000fd5b505050506040513d601f19601f820116820180604052508101906132af9190615029565b6132b857600080fd5b6132c3848484614977565b6132cd600d61439f565b15613364576132da6143d1565b73ffffffffffffffffffffffffffffffffffffffff16630668af80858585856040518563ffffffff1660e01b81526004016133189493929190615c5a565b6020604051808303816000875af1158015613337573d6000803e3d6000fd5b505050506040513d601f19601f8201168201806040525081019061335b9190615029565b61336457600080fd5b50505050565b6133743383614272565b6133da576040517f08c379a000000000000000000000000000000000000000000000000000000000815260206004820152601b60248201527f4552433732313a206e6f7420617070726f7665642073656e64657200000000006044820152606401610f82565b6133e4600c61439f565b1561347b576133f16143d1565b73ffffffffffffffffffffffffffffffffffffffff16632ca16676858585856040518563ffffffff1660e01b815260040161342f9493929190615c5a565b6020604051808303816000875af115801561344e573d6000803e3d6000fd5b505050506040513d601f19601f820116820180604052508101906134729190615029565b61347b57600080fd5b613486848484614977565b61348f836143fb565b15613705576040517f01ffc9a700000000000000000000000000000000000000000000000000000000808252600482015273ffffffffffffffffffffffffffffffffffffffff8416906301ffc9a790602401602060405180830381865afa1580156134fe573d6000803e3d6000fd5b505050506040513d601f19601f820116820180604052508101906135229190615029565b80156135d757506040517f01ffc9a70000000000000000000000000000000000000000000000000000000081527f150b7a0200000000000000000000000000000000000000000000000000000000600482015273ffffffffffffffffffffffffffffffffffffffff8416906301ffc9a790602401602060405180830381865afa1580156135b3573d6000803e3d6000fd5b505050506040513d601f19601f820116820180604052508101906135d79190615029565b801561369f57506040517f150b7a02000000000000000000000000000000000000000000000000000000008082529073ffffffffffffffffffffffffffffffffffffffff85169063150b7a0290613638903090899088908890600401615c5a565b6020604051808303816000875af1158015613657573d6000803e3d6000fd5b505050506040513d601f19601f8201168201806040525081019061367b9190615bb7565b7fffffffff0000000000000000000000000000000000000000000000000000000016145b613705576040517f08c379a000000000000000000000000000000000000000000000000000000000815260206004820152601d60248201527f4552433732313a206f6e4552433732315265636569766564206661696c0000006044820152606401610f82565b61370f600b61439f565b156133645761371c6143d1565b73ffffffffffffffffffffffffffffffffffffffff166336fff062858585856040518563ffffffff1660e01b81526004016133189493929190615c5a565b7f5705f5753aa4f617eef2cae1dada3d3355e9387b04d19191f09b545e684ca50d5473ffffffffffffffffffffffffffffffffffffffff163373ffffffffffffffffffffffffffffffffffffffff1614613810576040517f08c379a000000000000000000000000000000000000000000000000000000000815260206004820152601e60248201527f484f4c4f47524150483a2061646d696e206f6e6c792066756e6374696f6e00006044820152606401610f82565b808260003760008082600034875af13d6000803e8080156103e0573d6000f35b7fee63e41dd03b4d304382a6596ec5f4a6eb601d3640835d27fca1d0be62955bb55473ffffffffffffffffffffffffffffffffffffffff163373ffffffffffffffffffffffffffffffffffffffff16146138e6576040517f08c379a000000000000000000000000000000000000000000000000000000000815260206004820181905260248201527f4552433732313a206f6e6c7920736f757263652063616e207472616e736665726044820152606401610f82565b60008181526006602052604090205473ffffffffffffffffffffffffffffffffffffffff16613913614435565b73ffffffffffffffffffffffffffffffffffffffff168173ffffffffffffffffffffffffffffffffffffffff16036139a7576040517f08c379a000000000000000000000000000000000000000000000000000000000815260206004820152601860248201527f4552433732313a20746f6b656e206973206272696467656400000000000000006044820152606401610f82565b6111fd818484614977565b73ffffffffffffffffffffffffffffffffffffffff8316600090815260086020526040902054606090806139e68486615bf0565b11156139f9576139f68482615c08565b92505b8267ffffffffffffffff811115613a1257613a12615444565b604051908082528060200260200182016040528015613a3b578160200160208202803683370190505b50915060005b83811015613ac25773ffffffffffffffffffffffffffffffffffffffff86166000908152600960205260409020613a788287615bf0565b81548110613a8857613a886159c1565b9060005260206000200154838281518110613aa557613aa56159c1565b602090810291909101015280613aba81615a7c565b915050613a41565b50509392505050565b60008181526006602052604090205460609073ffffffffffffffffffffffffffffffffffffffff16613b59576040517f08c379a000000000000000000000000000000000000000000000000000000000815260206004820152601c60248201527f4552433732313a20746f6b656e20646f6573206e6f74206578697374000000006044820152606401610f82565b7fee63e41dd03b4d304382a6596ec5f4a6eb601d3640835d27fca1d0be62955bb5546040517fc87b56dd0000000000000000000000000000000000000000000000000000000081526004810184905273ffffffffffffffffffffffffffffffffffffffff9091169063c87b56dd90602401600060405180830381865afa158015613be7573d6000803e3d6000fd5b505050506040513d6000823e601f3d9081017fffffffffffffffffffffffffffffffffffffffffffffffffffffffffffffffe01682016040526126689190810190615ca3565b60006060613c39614435565b73ffffffffffffffffffffffffffffffffffffffff163373ffffffffffffffffffffffffffffffffffffffff1614613ccd576040517f08c379a000000000000000000000000000000000000000000000000000000000815260206004820152601c60248201527f4552433732313a206f6e6c79206272696467652063616e2063616c6c000000006044820152606401610f82565b613cd7600261439f565b15613db857613ce46143d1565b6040517f8b1465c600000000000000000000000000000000000000000000000000000000815263ffffffff8816600482015273ffffffffffffffffffffffffffffffffffffffff87811660248301528681166044830152606482018690529190911690638b1465c6906084016000604051808303816000875af1158015613d6f573d6000803e3d6000fd5b505050506040513d6000823e601f3d9081017fffffffffffffffffffffffffffffffffffffffffffffffffffffffffffffffe0168201604052613db59190810190615ca3565b90505b613dc28584614889565b7fde8b1ef100000000000000000000000000000000000000000000000000000000915094509492505050565b6060613df8610a82565b6003546040517f9cf149da00000000000000000000000000000000000000000000000000000000815273ffffffffffffffffffffffffffffffffffffffff9290921691639cf149da91613e579160019161ffff16903090600401615cd8565b600060405180830381865afa158015613e74573d6000803e3d6000fd5b505050506040513d6000823e601f3d9081017fffffffffffffffffffffffffffffffffffffffffffffffffffffffffffffffe0168201604052610b1a9190810190615ca3565b7f89b583059fdb0b2e807359b64eba1a8a1e6d099210701fafe6dad5dd2cd64fb85473ffffffffffffffffffffffffffffffffffffffff163373ffffffffffffffffffffffffffffffffffffffff1614613810576040517f08c379a000000000000000000000000000000000000000000000000000000000815260206004820152601e60248201527f484f4c4f47524150483a206f776e6572206f6e6c792066756e6374696f6e00006044820152606401610f82565b7f89b583059fdb0b2e807359b64eba1a8a1e6d099210701fafe6dad5dd2cd64fb85473ffffffffffffffffffffffffffffffffffffffff163373ffffffffffffffffffffffffffffffffffffffff1614614026576040517f08c379a000000000000000000000000000000000000000000000000000000000815260206004820152601e60248201527f484f4c4f47524150483a206f776e6572206f6e6c792066756e6374696f6e00006044820152606401610f82565b73ffffffffffffffffffffffffffffffffffffffff81166140a3576040517f08c379a000000000000000000000000000000000000000000000000000000000815260206004820152601760248201527f484f4c4f47524150483a207a65726f20616464726573730000000000000000006044820152606401610f82565b7f89b583059fdb0b2e807359b64eba1a8a1e6d099210701fafe6dad5dd2cd64fb855565b6000610b1a7f5705f5753aa4f617eef2cae1dada3d3355e9387b04d19191f09b545e684ca50d5490565b7fee63e41dd03b4d304382a6596ec5f4a6eb601d3640835d27fca1d0be62955bb55473ffffffffffffffffffffffffffffffffffffffff163373ffffffffffffffffffffffffffffffffffffffff16146141a7576040517f08c379a000000000000000000000000000000000000000000000000000000000815260206004820152601c60248201527f4552433732313a206f6e6c7920736f757263652063616e206275726e000000006044820152606401610f82565b60008181526006602052604090205473ffffffffffffffffffffffffffffffffffffffff166141d4614435565b73ffffffffffffffffffffffffffffffffffffffff168173ffffffffffffffffffffffffffffffffffffffff1603614268576040517f08c379a000000000000000000000000000000000000000000000000000000000815260206004820152601860248201527f4552433732313a20746f6b656e206973206272696467656400000000000000006044820152606401610f82565b6120758183614889565b60008181526006602052604081205473ffffffffffffffffffffffffffffffffffffffff166142fd576040517f08c379a000000000000000000000000000000000000000000000000000000000815260206004820152601c60248201527f4552433732313a20746f6b656e20646f6573206e6f74206578697374000000006044820152606401610f82565b60008281526006602052604090205473ffffffffffffffffffffffffffffffffffffffff90811690841681148061435a575060008381526007602052604090205473ffffffffffffffffffffffffffffffffffffffff8581169116145b80614397575073ffffffffffffffffffffffffffffffffffffffff8082166000908152600a602090815260408083209388168352929052205460ff165b949350505050565b600060018260108111156143b5576143b5614f75565b600054901c166001146143c9576000612668565b600192915050565b6000610b1a7fee63e41dd03b4d304382a6596ec5f4a6eb601d3640835d27fca1d0be62955bb55490565b6000813f801580159061442e57507fc5d2460186f7233c927e7db2dcc703c0e500b653ca82273b7bfad8045d85a4708114155b9392505050565b600061445f7f1eee493315beeac80829afd0aaa340f3821cabe68571a2743478e81638a3d94d5490565b73ffffffffffffffffffffffffffffffffffffffff16630fffbaf36040518163ffffffff1660e01b8152600401602060405180830381865afa158015610af6573d6000803e3d6000fd5b60008111614513576040517f08c379a000000000000000000000000000000000000000000000000000000000815260206004820152601f60248201527f4552433732313a20746f6b656e2069642063616e6e6f74206265207a65726f006044820152606401610f82565b73ffffffffffffffffffffffffffffffffffffffff8216614590576040517f08c379a000000000000000000000000000000000000000000000000000000000815260206004820152601f60248201527f4552433732313a206d696e74696e6720746f206275726e2061646472657373006044820152606401610f82565b60008181526006602052604090205473ffffffffffffffffffffffffffffffffffffffff161561461c576040517f08c379a000000000000000000000000000000000000000000000000000000000815260206004820152601c60248201527f4552433732313a20746f6b656e20616c726561647920657869737473000000006044820152606401610f82565b6000818152600c602052604090205460ff1615614695576040517f08c379a000000000000000000000000000000000000000000000000000000000815260206004820152601d60248201527f4552433732313a20746f6b656e20686173206265656e206275726e65640000006044820152606401610f82565b60008181526006602052604080822080547fffffffffffffffffffffffff00000000000000000000000000000000000000001673ffffffffffffffffffffffffffffffffffffffff861690811790915590518392907fddf252ad1be2c89b69c2b068fc378daa952ba7f163c4a11628f55a4df523b3ef908290a46120758282614b44565b6000803073ffffffffffffffffffffffffffffffffffffffff16634827ae0c6040518163ffffffff1660e01b8152600401602060405180830381865afa158015614767573d6000803e3d6000fd5b505050506040513d601f19601f8201168201806040525081019061478b9190615868565b73ffffffffffffffffffffffffffffffffffffffff166397e67c3b6040518163ffffffff1660e01b8152600401602060405180830381865afa1580156147d5573d6000803e3d6000fd5b505050506040513d601f19601f820116820180604052508101906147f99190615e04565b90503073ffffffffffffffffffffffffffffffffffffffff1663913a0ef26040518163ffffffff1660e01b8152600401602060405180830381865afa158015614846573d6000803e3d6000fd5b505050506040513d601f19601f8201168201806040525081019061486a9190615e04565b63ffffffff168163ffffffff161461488157919050565b600091505090565b600081815260076020526040902080547fffffffffffffffffffffffff000000000000000000000000000000000000000016905560008181526006602052604080822080547fffffffffffffffffffffffff00000000000000000000000000000000000000001690555182919073ffffffffffffffffffffffffffffffffffffffff8516907fddf252ad1be2c89b69c2b068fc378daa952ba7f163c4a11628f55a4df523b3ef908390a461493d8282614c0b565b6000908152600c6020526040902080547fffffffffffffffffffffffffffffffffffffffffffffffffffffffffffffff0016600117905550565b60008181526006602052604090205473ffffffffffffffffffffffffffffffffffffffff848116911614614a07576040517f08c379a000000000000000000000000000000000000000000000000000000000815260206004820152601760248201527f4552433732313a20746f6b656e206e6f74206f776e65640000000000000000006044820152606401610f82565b73ffffffffffffffffffffffffffffffffffffffff8216614a84576040517f08c379a000000000000000000000000000000000000000000000000000000000815260206004820152601860248201527f4552433732313a20757365206275726e20696e737465616400000000000000006044820152606401610f82565b600081815260076020526040902080547fffffffffffffffffffffffff000000000000000000000000000000000000000016905560008181526006602052604080822080547fffffffffffffffffffffffff00000000000000000000000000000000000000001673ffffffffffffffffffffffffffffffffffffffff86811691821790925591518493918716917fddf252ad1be2c89b69c2b068fc378daa952ba7f163c4a11628f55a4df523b3ef91a4614b3e8382614c0b565b6111fd82825b73ffffffffffffffffffffffffffffffffffffffff821660008181526008602081815260408084208054878652600584529185208290559484529190529190614b8c83615a7c565b909155505073ffffffffffffffffffffffffffffffffffffffff90911660009081526009602090815260408083208054600181810183559185528385200185905560048054868652600b909452918420839055820181559091527f8a35acfbc15ff81a39ae7d344fd709f28e8600b4aa8c65c6b64bfe7fe36bd19b0155565b614c1481614e09565b73ffffffffffffffffffffffffffffffffffffffff82166000908152600860205260408120805491614c4583615e21565b909155505073ffffffffffffffffffffffffffffffffffffffff8216600090815260086020908152604080832054848452600590925290912054808214614d3b5773ffffffffffffffffffffffffffffffffffffffff84166000908152600960205260408120805484908110614cbd57614cbd6159c1565b9060005260206000200154905080600960008773ffffffffffffffffffffffffffffffffffffffff1673ffffffffffffffffffffffffffffffffffffffff1681526020019081526020016000208381548110614d1b57614d1b6159c1565b600091825260208083209091019290925591825260059052604090208190555b81600003614d765773ffffffffffffffffffffffffffffffffffffffff84166000908152600960205260408120614d7191614f3f565b613364565b73ffffffffffffffffffffffffffffffffffffffff84166000908152600960205260409020805483908110614dad57614dad6159c1565b6000918252602080832090910182905573ffffffffffffffffffffffffffffffffffffffff861682526009905260409020805480614ded57614ded615e56565b6001900381819060005260206000200160009055905550505050565b600454600090614e1b90600190615c08565b6000838152600b602052604081205460048054939450909284908110614e4357614e436159c1565b906000526020600020015490508060048381548110614e6457614e646159c1565b6000918252602080832090910192909255828152600b90915260408082208490558582528120556004805484908110614e9f57614e9f6159c1565b60009182526020822001556004805480614ded57614ded615e56565b828054614ec790615885565b90600052602060002090601f016020900481019282614ee95760008555614f2f565b82601f10614f0257805160ff1916838001178555614f2f565b82800160010185558215614f2f579182015b82811115614f2f578251825591602001919060010190614f14565b50614f3b929150614f60565b5090565b5080546000825590600052602060002090810190614f5d9190614f60565b50565b5b80821115614f3b5760008155600101614f61565b7f4e487b7100000000000000000000000000000000000000000000000000000000600052602160045260246000fd5b6040810160058410614fdf577f4e487b7100000000000000000000000000000000000000000000000000000000600052602160045260246000fd5b9281527fffffffff000000000000000000000000000000000000000000000000000000009190911660209091015290565b8015158114614f5d57600080fd5b8051610e5c81615010565b60006020828403121561503b57600080fd5b815161442e81615010565b7fffffffff0000000000000000000000000000000000000000000000000000000081168114614f5d57600080fd5b60006020828403121561508657600080fd5b813561442e81615046565b60005b838110156150ac578181015183820152602001615094565b838111156133645750506000910152565b600081518084526150d5816020860160208601615091565b601f017fffffffffffffffffffffffffffffffffffffffffffffffffffffffffffffffe0169290920160200192915050565b60208152600061442e60208301846150bd565b60006020828403121561512c57600080fd5b5035919050565b73ffffffffffffffffffffffffffffffffffffffff81168114614f5d57600080fd5b6000806040838503121561516857600080fd5b823561517381615133565b946020939093013593505050565b60006020828403121561519357600080fd5b813561442e81615133565b60008083601f8401126151b057600080fd5b50813567ffffffffffffffff8111156151c857600080fd5b6020830191508360208285010111156151e057600080fd5b9250929050565b6000806000806000608086880312156151ff57600080fd5b853561520a81615133565b9450602086013561521a81615133565b935060408601359250606086013567ffffffffffffffff81111561523d57600080fd5b6152498882890161519e565b969995985093965092949392505050565b63ffffffff81168114614f5d57600080fd5b60008060008060008060a0878903121561528557600080fd5b86356152908161525a565b955060208701356152a081615133565b945060408701356152b081615133565b935060608701359250608087013567ffffffffffffffff8111156152d357600080fd5b6152df89828a0161519e565b979a9699509497509295939492505050565b60008060006060848603121561530657600080fd5b833561531181615133565b9250602084013561532181615133565b929592945050506040919091013590565b60008083601f84011261534457600080fd5b50813567ffffffffffffffff81111561535c57600080fd5b6020830191508360208260051b85010111156151e057600080fd5b6000806000806040858703121561538d57600080fd5b843567ffffffffffffffff808211156153a557600080fd5b6153b188838901615332565b909650945060208701359150808211156153ca57600080fd5b506153d787828801615332565b95989497509550505050565b80357bffffffffffffffffffffffffffffffffffffffffffffffffffffffff81168114610e5c57600080fd5b6000806040838503121561542257600080fd5b823561542d81615133565b915061543b602084016153e3565b90509250929050565b7f4e487b7100000000000000000000000000000000000000000000000000000000600052604160045260246000fd5b604051601f82017fffffffffffffffffffffffffffffffffffffffffffffffffffffffffffffffe016810167ffffffffffffffff811182821017156154ba576154ba615444565b604052919050565b600067ffffffffffffffff8211156154dc576154dc615444565b50601f017fffffffffffffffffffffffffffffffffffffffffffffffffffffffffffffffe01660200190565b600082601f83011261551957600080fd5b813561552c615527826154c2565b615473565b81815284602083860101111561554157600080fd5b816020850160208301376000918101602001919091529392505050565b60006020828403121561557057600080fd5b813567ffffffffffffffff81111561558757600080fd5b61439784828501615508565b6020808252825182820181905260009190848201906040850190845b818110156155cb578351835292840192918401916001016155af565b50909695505050505050565b600080604083850312156155ea57600080fd5b50508035926020909101359150565b60008060006060848603121561560e57600080fd5b833561561981615133565b9250615627602085016153e3565b9150604084013590509250925092565b6000806040838503121561564a57600080fd5b823561565581615133565b9150602083013561566581615010565b809150509250929050565b60008060006040848603121561568557600080fd5b833561569081615133565b9250602084013567ffffffffffffffff8111156156ac57600080fd5b6156b886828701615332565b9497909650939450505050565b600080600080608085870312156156db57600080fd5b84356156e681615133565b935060208501356156f681615133565b925060408501359150606085013567ffffffffffffffff81111561571957600080fd5b61572587828801615508565b91505092959194509250565b60008060006040848603121561574657600080fd5b833561575181615133565b9250602084013567ffffffffffffffff81111561576d57600080fd5b6156b88682870161519e565b60008060006060848603121561578e57600080fd5b833561579981615133565b95602085013595506040909401359392505050565b600080600080608085870312156157c457600080fd5b84356157cf8161525a565b935060208501356157df81615133565b925060408501356157ef81615133565b9396929550929360600135925050565b7fffffffff000000000000000000000000000000000000000000000000000000008316815260406020820152600061439760408301846150bd565b6000806040838503121561584d57600080fd5b823561585881615133565b9150602083013561566581615133565b60006020828403121561587a57600080fd5b815161442e81615133565b600181811c9082168061589957607f821691505b6020821081036158d2577f4e487b7100000000000000000000000000000000000000000000000000000000600052602260045260246000fd5b50919050565b8183528181602085013750600060208284010152600060207fffffffffffffffffffffffffffffffffffffffffffffffffffffffffffffffe0601f840116840101905092915050565b600073ffffffffffffffffffffffffffffffffffffffff8089168352808816602084015280871660408401525084606083015260a0608083015261596960a0830184866158d8565b98975050505050505050565b63ffffffff87168152600073ffffffffffffffffffffffffffffffffffffffff808816602084015280871660408401525084606083015260a0608083015261596960a0830184866158d8565b7f4e487b7100000000000000000000000000000000000000000000000000000000600052603260045260246000fd5b600060208284031215615a0257600080fd5b61442e826153e3565b805160208083015191908110156158d2577fffffffffffffffffffffffffffffffffffffffffffffffffffffffffffffffff60209190910360031b1b16919050565b7f4e487b7100000000000000000000000000000000000000000000000000000000600052601160045260246000fd5b60007fffffffffffffffffffffffffffffffffffffffffffffffffffffffffffffffff8203615aad57615aad615a4d565b5060010190565b600082601f830112615ac557600080fd5b8151615ad3615527826154c2565b818152846020838601011115615ae857600080fd5b614397826020830160208701615091565b60008060008060008060c08789031215615b1257600080fd5b865167ffffffffffffffff80821115615b2a57600080fd5b615b368a838b01615ab4565b97506020890151915080821115615b4c57600080fd5b615b588a838b01615ab4565b96506040890151915061ffff82168214615b7157600080fd5b81955060608901519450615b8760808a0161501e565b935060a0890151915080821115615b9d57600080fd5b50615baa89828a01615ab4565b9150509295509295509295565b600060208284031215615bc957600080fd5b815161442e81615046565b60008251615be6818460208701615091565b9190910192915050565b60008219821115615c0357615c03615a4d565b500190565b600082821015615c1a57615c1a615a4d565b500390565b60007bffffffffffffffffffffffffffffffffffffffffffffffffffffffff808316818103615c5057615c50615a4d565b6001019392505050565b600073ffffffffffffffffffffffffffffffffffffffff808716835280861660208401525083604083015260806060830152615c9960808301846150bd565b9695505050505050565b600060208284031215615cb557600080fd5b815167ffffffffffffffff811115615ccc57600080fd5b61439784828501615ab4565b60a08152600080855481600182811c915080831680615cf857607f831692505b60208084108203615d30577f4e487b710000000000000000000000000000000000000000000000000000000086526022600452602486fd5b60a0880184905260c08801828015615d4f5760018114615d7e57615da9565b7fffffffffffffffffffffffffffffffffffffffffffffffffffffffffffffff00871682528282019750615da9565b60008d81526020902060005b87811015615da357815484820152908601908401615d8a565b83019850505b505087860390880152505060008352505060208101838103604085015260008152905060208101915050615de3606083018561ffff169052565b73ffffffffffffffffffffffffffffffffffffffff83166080830152614397565b600060208284031215615e1657600080fd5b815161442e8161525a565b600081615e3057615e30615a4d565b507fffffffffffffffffffffffffffffffffffffffffffffffffffffffffffffffff0190565b7f4e487b7100000000000000000000000000000000000000000000000000000000600052603160045260246000fdfea164736f6c634300080d000a",
  "devdoc": {
    "author": "CXIP-Labs",
    "details": "The entire logic and functionality of the smart contract is self-contained.",
    "kind": "dev",
    "methods": {
      "approve(address,uint256)": {
        "details": "Requires the sender to be in the approved addresses.",
        "params": {
          "to": "The address to approve.",
          "tokenId": "The affected token."
        }
      },
      "balanceOf(address)": {
        "details": "Used to see total amount of tokens owned by a specific wallet.",
        "params": {
          "wallet": "Address for which to get token balance."
        },
        "returns": {
          "_0": "uint256 Returns an integer, representing total amount of tokens held by address."
        }
      },
      "burn(uint256)": {
        "details": "The sender must be the owner or approved.",
        "params": {
          "tokenId": "The token to burn."
        }
      },
      "constructor": {
        "details": "To make exact CREATE2 deployment possible, constructor is left empty. We utilize the \"init\" function instead."
      },
      "contractURI()": {
        "returns": {
          "_0": "string The URI."
        }
      },
      "decimals()": {
        "details": "Since ERC721s are single, we use 0 as the decimal places to make sure a round number for totalSupply.",
        "returns": {
          "_0": "uint256 Returns the number of decimal places to have for totalSupply."
        }
      },
      "getApproved(uint256)": {
        "details": "Single operator set for a specific token. Usually used for one-time very specific authorisations.",
        "params": {
          "tokenId": "Token id to get approved operator for."
        },
        "returns": {
          "_0": "address Approved address for token."
        }
      },
      "holographBridgeIn(uint32,address,address,uint256,bytes)": {
        "details": "Allows the bridge to bring in a token from another blockchain.  Note: function selector 0x2dd69ea4 is bytes4(keccak256(\"holographBridgeIn(address,address,uint256,bytes)\"))"
      },
      "holographBridgeOut(uint32,address,address,uint256)": {
        "details": "Allows the bridge to take a token out onto another blockchain.  Note: function selector 0x57aeff0a is bytes4(keccak256(\"holographBridgeOut(address,address,uint256)\"))"
      },
      "init(bytes)": {
        "details": "Special function to allow a one time initialisation on deployment. Also configures and deploys royalties."
      },
      "isApprovedForAll(address,address)": {
        "details": "Includes references to OpenSea and Rarible marketplace proxies.",
        "params": {
          "operator": "Address of the marketplace operator.",
          "wallet": "Address of the wallet."
        },
        "returns": {
          "_0": "bool True if approved."
        }
      },
      "name()": {
        "returns": {
          "_0": "string The collection name."
        }
      },
      "onERC721Received(address,address,uint256,bytes)": {
        "details": "We have this blank function in place to make sure that external contract sending in NFTs don't error out.Since it's not being used, the _operator variable is commented out to avoid compiler warnings.Since it's not being used, the _from variable is commented out to avoid compiler warnings.Since it's not being used, the _tokenId variable is commented out to avoid compiler warnings.Since it's not being used, the _data variable is commented out to avoid compiler warnings.",
        "returns": {
          "_0": "bytes4 Returns the interfaceId of onERC721Received."
        }
      },
      "ownerOf(uint256)": {
        "details": "The token must exist.",
        "params": {
          "tokenId": "The token to look up."
        },
        "returns": {
          "_0": "address Owner of the token."
        }
      },
      "safeTransferFrom(address,address,uint256)": {
        "details": "Safely transfers `tokenId` token from `from` to `to`, checking first that contract recipients are aware of the ERC721 protocol to prevent tokens from being forever locked.",
        "params": {
          "from": "cannot be the zero address.",
          "to": "cannot be the zero address.",
          "tokenId": "token must exist and be owned by `from`."
        }
      },
      "safeTransferFrom(address,address,uint256,bytes)": {
        "details": "Since it's not being used, the _data variable is commented out to avoid compiler warnings. are aware of the ERC721 protocol to prevent tokens from being forever locked.",
        "params": {
          "from": "cannot be the zero address.",
          "to": "cannot be the zero address.",
          "tokenId": "token must exist and be owned by `from`."
        }
      },
      "setApprovalForAll(address,bool)": {
        "details": "Allows platforms to sell/transfer all your NFTs. Used with proxy contracts like OpenSea/Rarible.",
        "params": {
          "approved": "Turn on or off approval status.",
          "to": "The address to approve."
        }
      },
      "sourceBurn(uint256)": {
        "details": "Allows for source smart contract to burn a token.  Note: this is put in place to make sure that custom logic could be implemented for merging, gamification, etc.  Note: token cannot be burned if it's locked by bridge."
      },
      "sourceGetChainPrepend()": {
        "details": "Allows source to get the prepend for their tokenIds."
      },
      "sourceMint(address,uint224)": {
        "details": "Allows for source smart contract to mint a token."
      },
      "sourceMintBatch(address,uint224[])": {
        "details": "Allows for source smart contract to mint a batch of tokens."
      },
      "sourceMintBatch(address[],uint224[])": {
        "details": "Allows for source smart contract to mint a batch of tokens."
      },
      "sourceMintBatchIncremental(address,uint224,uint256)": {
        "details": "Allows for source smart contract to mint a batch of tokens."
      },
      "sourceTransfer(address,uint256)": {
        "details": "Allows for source smart contract to transfer a token.  Note: this is put in place to make sure that custom logic could be implemented for merging, gamification, etc.  Note: token cannot be transfered if it's locked by bridge."
      },
      "supportsInterface(bytes4)": {
        "details": "Must add new 4 byte interface Ids here to acknowledge support",
        "params": {
          "interfaceId": "ERC165 style 4 byte interfaceId."
        },
        "returns": {
          "_0": "bool True if supported."
        }
      },
      "symbol()": {
        "returns": {
          "_0": "string The symbol."
        }
      },
      "tokenByIndex(uint256)": {
        "details": "Used in conjunction with totalSupply function to iterate over all tokens in collection.",
        "params": {
          "index": "Index of token in array."
        },
        "returns": {
          "_0": "uint256 Returns the token id of token located at that index."
        }
      },
      "tokenOfOwnerByIndex(address,uint256)": {
        "details": "Helpful for wallet token enumeration where token id info is not yet available. Use in conjunction with balanceOf function.",
        "params": {
          "index": "Index of token in array.",
          "wallet": "Specific address for which to get token for."
        },
        "returns": {
          "_0": "uint256 Returns the token id of token located at that index in specified wallet."
        }
      },
      "tokenURI(uint256)": {
        "details": "Defaults the the Arweave URI",
        "returns": {
          "_0": "string The URI."
        }
      },
      "tokens(uint256,uint256)": {
        "params": {
          "index": "The index to start enumeration from.",
          "length": "The length of returned results."
        },
        "returns": {
          "tokenIds": "uint256[] Returns a set length array of token ids minted."
        }
      },
      "tokensOfOwner(address)": {
        "params": {
          "wallet": "The wallet address to get tokens for."
        },
        "returns": {
          "_0": "uint256[] Returns an array of token ids owned by wallet."
        }
      },
      "tokensOfOwner(address,uint256,uint256)": {
        "params": {
          "index": "The index to start enumeration from.",
          "length": "The length of returned results.",
          "wallet": "The wallet address to get tokens for."
        },
        "returns": {
          "tokenIds": "uint256[] Returns a set length array of token ids owned by wallet."
        }
      },
      "totalSupply()": {
        "details": "Ignores burned tokens.",
        "returns": {
          "_0": "uint256 Returns the total number of active (not burned) tokens."
        }
      },
      "transfer(address,uint256)": {
        "details": "WARNING: Usage of this method is discouraged, use {safeTransferFrom} whenever possible.",
        "params": {
          "to": "cannot be the zero address.",
          "tokenId": "token must be owned by `from`."
        }
      },
      "transferFrom(address,address,uint256)": {
        "details": "WARNING: Usage of this method is discouraged, use {safeTransferFrom} whenever possible.",
        "params": {
          "from": "cannot be the zero address.",
          "to": "cannot be the zero address.",
          "tokenId": "token must be owned by `from`."
        }
      },
      "transferFrom(address,address,uint256,bytes)": {
        "details": "WARNING: Usage of this method is discouraged, use {safeTransferFrom} whenever possible.Since it's not being used, the _data variable is commented out to avoid compiler warnings.",
        "params": {
          "data": "additional data to pass.",
          "from": "cannot be the zero address.",
          "to": "cannot be the zero address.",
          "tokenId": "token must be owned by `from`."
        }
      }
    },
    "stateVariables": {
      "_allTokens": {
        "details": "Array of all token ids in collection."
      },
      "_allTokensIndex": {
        "details": "Mapping from token id to position in the allTokens array."
      },
      "_bps": {
        "details": "Collection royalty base points."
      },
      "_burnedTokens": {
        "details": "Mapping of all token ids that have been burned. This is to prevent re-minting of same token ids."
      },
      "_eventConfig": {
        "details": "Configuration for events to trigger for source smart contract."
      },
      "_name": {
        "details": "Collection name."
      },
      "_operatorApprovals": {
        "details": "Usually utilised for supporting marketplace proxy wallets."
      },
      "_ownedTokens": {
        "details": "Map of array of token ids owned by a specific address."
      },
      "_ownedTokensCount": {
        "details": "Map of total tokens owner by a specific address."
      },
      "_ownedTokensIndex": {
        "details": "Map of token id to array index of _ownedTokens."
      },
      "_symbol": {
        "details": "Collection symbol."
      },
      "_tokenApprovals": {
        "details": "1-to-1 map of token id that was assigned an approved operator address."
      },
      "_tokenOwner": {
        "details": "Token id to wallet (owner) address map."
      }
    },
    "title": "Holograph Bridgeable ERC-721 Collection",
    "version": 1
  },
  "userdoc": {
    "kind": "user",
    "methods": {
      "approve(address,uint256)": {
        "notice": "Adds a new address to the token's approval list."
      },
      "balanceOf(address)": {
        "notice": "Get total number of tokens owned by wallet."
      },
      "burn(uint256)": {
        "notice": "Burns the token."
      },
      "constructor": {
        "notice": "Constructor is empty and not utilised."
      },
      "contractURI()": {
        "notice": "Gets a base64 encoded contract JSON file."
      },
      "decimals()": {
        "notice": "Decimal places to have for totalSupply."
      },
      "getApproved(uint256)": {
        "notice": "Gets the approved address for the token."
      },
      "init(bytes)": {
        "notice": "Initializes the collection."
      },
      "isApprovedForAll(address,address)": {
        "notice": "Checks if the address is approved."
      },
      "name()": {
        "notice": "Gets the name of the collection."
      },
      "onERC721Received(address,address,uint256,bytes)": {
        "notice": "Empty function that is triggered by external contract on NFT transfer."
      },
      "ownerOf(uint256)": {
        "notice": "Checks who the owner of a token is."
      },
      "safeTransferFrom(address,address,uint256,bytes)": {
        "notice": "Safely transfers `tokenId` token from `from` to `to`, checking first that contract recipients"
      },
      "setApprovalForAll(address,bool)": {
        "notice": "Adds a new approved operator."
      },
      "supportsInterface(bytes4)": {
        "notice": "Shows the interfaces the contracts support"
      },
      "symbol()": {
        "notice": "Gets the collection's symbol."
      },
      "tokenByIndex(uint256)": {
        "notice": "Get token by index."
      },
      "tokenOfOwnerByIndex(address,uint256)": {
        "notice": "Get token from wallet by index instead of token id."
      },
      "tokenURI(uint256)": {
        "notice": "Get's the URI of the token."
      },
      "tokens(uint256,uint256)": {
        "notice": "Get set length list, starting from index, for all tokens."
      },
      "tokensOfOwner(address)": {
        "notice": "Get list of tokens owned by wallet."
      },
      "tokensOfOwner(address,uint256,uint256)": {
        "notice": "Get set length list, starting from index, for tokens owned by wallet."
      },
      "totalSupply()": {
        "notice": "Total amount of tokens in the collection."
      },
      "transfer(address,uint256)": {
        "notice": "Transfers `tokenId` token from `msg.sender` to `to`."
      },
      "transferFrom(address,address,uint256)": {
        "notice": "Transfers `tokenId` token from `from` to `to`."
      },
      "transferFrom(address,address,uint256,bytes)": {
        "notice": "Transfers `tokenId` token from `from` to `to`."
      }
    },
    "notice": "A smart contract for minting and managing Holograph Bridgeable ERC721 NFTs.",
    "version": 1
  },
  "storageLayout": {
    "storage": [
      {
        "astId": 2915,
        "contract": "contracts/HolographERC721.sol:HolographERC721",
        "label": "_eventConfig",
        "offset": 0,
        "slot": "0",
        "type": "t_uint256"
      },
      {
        "astId": 2918,
        "contract": "contracts/HolographERC721.sol:HolographERC721",
        "label": "_name",
        "offset": 0,
        "slot": "1",
        "type": "t_string_storage"
      },
      {
        "astId": 2921,
        "contract": "contracts/HolographERC721.sol:HolographERC721",
        "label": "_symbol",
        "offset": 0,
        "slot": "2",
        "type": "t_string_storage"
      },
      {
        "astId": 2924,
        "contract": "contracts/HolographERC721.sol:HolographERC721",
        "label": "_bps",
        "offset": 0,
        "slot": "3",
        "type": "t_uint16"
      },
      {
        "astId": 2928,
        "contract": "contracts/HolographERC721.sol:HolographERC721",
        "label": "_allTokens",
        "offset": 0,
        "slot": "4",
        "type": "t_array(t_uint256)dyn_storage"
      },
      {
        "astId": 2933,
        "contract": "contracts/HolographERC721.sol:HolographERC721",
        "label": "_ownedTokensIndex",
        "offset": 0,
        "slot": "5",
        "type": "t_mapping(t_uint256,t_uint256)"
      },
      {
        "astId": 2938,
        "contract": "contracts/HolographERC721.sol:HolographERC721",
        "label": "_tokenOwner",
        "offset": 0,
        "slot": "6",
        "type": "t_mapping(t_uint256,t_address)"
      },
      {
        "astId": 2943,
        "contract": "contracts/HolographERC721.sol:HolographERC721",
        "label": "_tokenApprovals",
        "offset": 0,
        "slot": "7",
        "type": "t_mapping(t_uint256,t_address)"
      },
      {
        "astId": 2948,
        "contract": "contracts/HolographERC721.sol:HolographERC721",
        "label": "_ownedTokensCount",
        "offset": 0,
        "slot": "8",
        "type": "t_mapping(t_address,t_uint256)"
      },
      {
        "astId": 2954,
        "contract": "contracts/HolographERC721.sol:HolographERC721",
        "label": "_ownedTokens",
        "offset": 0,
        "slot": "9",
        "type": "t_mapping(t_address,t_array(t_uint256)dyn_storage)"
      },
      {
        "astId": 2961,
        "contract": "contracts/HolographERC721.sol:HolographERC721",
        "label": "_operatorApprovals",
        "offset": 0,
        "slot": "10",
        "type": "t_mapping(t_address,t_mapping(t_address,t_bool))"
      },
      {
        "astId": 2966,
        "contract": "contracts/HolographERC721.sol:HolographERC721",
        "label": "_allTokensIndex",
        "offset": 0,
        "slot": "11",
        "type": "t_mapping(t_uint256,t_uint256)"
      },
      {
        "astId": 2971,
        "contract": "contracts/HolographERC721.sol:HolographERC721",
        "label": "_burnedTokens",
        "offset": 0,
        "slot": "12",
        "type": "t_mapping(t_uint256,t_bool)"
      }
    ],
    "types": {
      "t_address": {
        "encoding": "inplace",
        "label": "address",
        "numberOfBytes": "20"
      },
      "t_array(t_uint256)dyn_storage": {
        "base": "t_uint256",
        "encoding": "dynamic_array",
        "label": "uint256[]",
        "numberOfBytes": "32"
      },
      "t_bool": {
        "encoding": "inplace",
        "label": "bool",
        "numberOfBytes": "1"
      },
      "t_mapping(t_address,t_array(t_uint256)dyn_storage)": {
        "encoding": "mapping",
        "key": "t_address",
        "label": "mapping(address => uint256[])",
        "numberOfBytes": "32",
        "value": "t_array(t_uint256)dyn_storage"
      },
      "t_mapping(t_address,t_bool)": {
        "encoding": "mapping",
        "key": "t_address",
        "label": "mapping(address => bool)",
        "numberOfBytes": "32",
        "value": "t_bool"
      },
      "t_mapping(t_address,t_mapping(t_address,t_bool))": {
        "encoding": "mapping",
        "key": "t_address",
        "label": "mapping(address => mapping(address => bool))",
        "numberOfBytes": "32",
        "value": "t_mapping(t_address,t_bool)"
      },
      "t_mapping(t_address,t_uint256)": {
        "encoding": "mapping",
        "key": "t_address",
        "label": "mapping(address => uint256)",
        "numberOfBytes": "32",
        "value": "t_uint256"
      },
      "t_mapping(t_uint256,t_address)": {
        "encoding": "mapping",
        "key": "t_uint256",
        "label": "mapping(uint256 => address)",
        "numberOfBytes": "32",
        "value": "t_address"
      },
      "t_mapping(t_uint256,t_bool)": {
        "encoding": "mapping",
        "key": "t_uint256",
        "label": "mapping(uint256 => bool)",
        "numberOfBytes": "32",
        "value": "t_bool"
      },
      "t_mapping(t_uint256,t_uint256)": {
        "encoding": "mapping",
        "key": "t_uint256",
        "label": "mapping(uint256 => uint256)",
        "numberOfBytes": "32",
        "value": "t_uint256"
      },
      "t_string_storage": {
        "encoding": "bytes",
        "label": "string",
        "numberOfBytes": "32"
      },
      "t_uint16": {
        "encoding": "inplace",
        "label": "uint16",
        "numberOfBytes": "2"
      },
      "t_uint256": {
        "encoding": "inplace",
        "label": "uint256",
        "numberOfBytes": "32"
      }
    }
  }
}