{
  "address": "0xCD9cF8A7946CCC9d9b940900b29ebBc17bE06131",
  "abi": [
    {
      "inputs": [],
      "stateMutability": "nonpayable",
      "type": "constructor"
    },
    {
      "stateMutability": "payable",
      "type": "fallback"
    },
    {
      "inputs": [
        {
          "internalType": "bytes",
          "name": "initPayload",
          "type": "bytes"
        }
      ],
      "name": "init",
      "outputs": [
        {
          "internalType": "bytes4",
          "name": "",
          "type": "bytes4"
        }
      ],
      "stateMutability": "nonpayable",
      "type": "function"
    },
    {
      "inputs": [],
      "name": "isHLG",
      "outputs": [
        {
          "internalType": "bool",
          "name": "",
          "type": "bool"
        }
      ],
      "stateMutability": "pure",
      "type": "function"
    },
    {
      "inputs": [
        {
          "internalType": "address",
          "name": "wallet",
          "type": "address"
        }
      ],
      "name": "isOwner",
      "outputs": [
        {
          "internalType": "bool",
          "name": "",
          "type": "bool"
        }
      ],
      "stateMutability": "view",
      "type": "function"
    },
    {
      "inputs": [],
      "name": "isOwner",
      "outputs": [
        {
          "internalType": "bool",
          "name": "",
          "type": "bool"
        }
      ],
      "stateMutability": "view",
      "type": "function"
    },
    {
      "inputs": [],
      "name": "owner",
      "outputs": [
        {
          "internalType": "address",
          "name": "",
          "type": "address"
        }
      ],
      "stateMutability": "view",
      "type": "function"
    },
    {
      "inputs": [
        {
          "internalType": "bytes4",
          "name": "",
          "type": "bytes4"
        }
      ],
      "name": "supportsInterface",
      "outputs": [
        {
          "internalType": "bool",
          "name": "",
          "type": "bool"
        }
      ],
      "stateMutability": "pure",
      "type": "function"
    },
    {
      "inputs": [],
      "name": "withdraw",
      "outputs": [],
      "stateMutability": "nonpayable",
      "type": "function"
    },
    {
      "stateMutability": "payable",
      "type": "receive"
    }
  ],
  "transactionHash": "0x15ea1cdd925c863e5b7d39947f3642843b16ed7d7136322dd86cc8561aefe23e",
  "args": [],
  "numDeployments": 1,
  "solcInputHash": "eaccabe53e7de4a0dd89d9180b8a1c06",
  "bytecode": "0x608060405234801561001057600080fd5b50610a84806100206000396000f3fe6080604052600436106100745760003560e01c80634ddf47d41161004e5780634ddf47d4146101895780638da5cb5b146101da5780638f32d59b14610214578063c25c47af14610229576100e0565b806301ffc9a71461011e5780632f54bf6e146101545780633ccfd60b14610174576100e0565b366100e0576040517f08c379a000000000000000000000000000000000000000000000000000000000815260206004820152601760248201527f45524332303a20756e726561636861626c6520636f646500000000000000000060448201526064015b60405180910390fd5b337fe9fcff60011c1a99f7b7244d1f2d9da93d79ea8ef3654ce590d775575255b2bd54146001811461011157600080fd5b600160805260206080f35b005b34801561012a57600080fd5b5061013f6101393660046108a5565b50600090565b60405190151581526020015b60405180910390f35b34801561016057600080fd5b5061013f61016f366004610910565b61023d565b34801561018057600080fd5b5061011c61029c565b34801561019557600080fd5b506101a96101a436600461095c565b6104d6565b6040517fffffffff00000000000000000000000000000000000000000000000000000000909116815260200161014b565b3480156101e657600080fd5b506101ef6105d3565b60405173ffffffffffffffffffffffffffffffffffffffff909116815260200161014b565b34801561022057600080fd5b5061013f610602565b34801561023557600080fd5b50600161013f565b60006102677fb56711ba6bd3ded7639fc335ee7524fe668a79d7558c85992e3f8494cf7727775490565b73ffffffffffffffffffffffffffffffffffffffff168273ffffffffffffffffffffffffffffffffffffffff16149050919050565b7fe9fcff60011c1a99f7b7244d1f2d9da93d79ea8ef3654ce590d775575255b2bd5473ffffffffffffffffffffffffffffffffffffffff1633036103b8577fb56711ba6bd3ded7639fc335ee7524fe668a79d7558c85992e3f8494cf7727775473ffffffffffffffffffffffffffffffffffffffff16367fffffffffffffffffffffffffffffffffffffffffffffffffffffffffffffffe0013573ffffffffffffffffffffffffffffffffffffffff16146103b3576040517f08c379a000000000000000000000000000000000000000000000000000000000815260206004820152601a60248201527f45524332303a206f776e6572206f6e6c792066756e6374696f6e00000000000060448201526064016100d7565b61046e565b7fb56711ba6bd3ded7639fc335ee7524fe668a79d7558c85992e3f8494cf7727775473ffffffffffffffffffffffffffffffffffffffff163373ffffffffffffffffffffffffffffffffffffffff161461046e576040517f08c379a000000000000000000000000000000000000000000000000000000000815260206004820152601a60248201527f45524332303a206f776e6572206f6e6c792066756e6374696f6e00000000000060448201526064016100d7565b7fb56711ba6bd3ded7639fc335ee7524fe668a79d7558c85992e3f8494cf7727775460405173ffffffffffffffffffffffffffffffffffffffff909116904780156108fc02916000818181858888f193505050501580156104d3573d6000803e3d6000fd5b50565b6000806000806000858060200190518101906104f29190610a2b565b9350935093509350610522847fb56711ba6bd3ded7639fc335ee7524fe668a79d7558c85992e3f8494cf77277755565b8146148061052e575081155b156105c05782156105c0576040517f66bd3d4500000000000000000000000000000000000000000000000000000000815273ffffffffffffffffffffffffffffffffffffffff821660048201526024810184905233906366bd3d4590604401600060405180830381600087803b1580156105a757600080fd5b505af11580156105bb573d6000803e3d6000fd5b505050505b6105c9866106fe565b9695505050505050565b60006105fd7fb56711ba6bd3ded7639fc335ee7524fe668a79d7558c85992e3f8494cf7727775490565b905090565b600061062c7fe9fcff60011c1a99f7b7244d1f2d9da93d79ea8ef3654ce590d775575255b2bd5490565b73ffffffffffffffffffffffffffffffffffffffff1633036106c0577fb56711ba6bd3ded7639fc335ee7524fe668a79d7558c85992e3f8494cf7727775473ffffffffffffffffffffffffffffffffffffffff16367fffffffffffffffffffffffffffffffffffffffffffffffffffffffffffffffe0013573ffffffffffffffffffffffffffffffffffffffff1614905090565b507fb56711ba6bd3ded7639fc335ee7524fe668a79d7558c85992e3f8494cf7727775473ffffffffffffffffffffffffffffffffffffffff16331490565b60006107287f4e5f991bca30eca2d4643aaefa807e88f96a4a97398933d572a3c0d973004a015490565b1561078f576040517f08c379a000000000000000000000000000000000000000000000000000000000815260206004820152601a60248201527f45524332303a20616c726561647920696e697469616c697a656400000000000060448201526064016100d7565b337fe9fcff60011c1a99f7b7244d1f2d9da93d79ea8ef3654ce590d775575255b2bd8190557fb56711ba6bd3ded7639fc335ee7524fe668a79d7558c85992e3f8494cf7727775473ffffffffffffffffffffffffffffffffffffffff8116610853576040517f08c379a000000000000000000000000000000000000000000000000000000000815260206004820152601860248201527f484f4c4f47524150483a206f776e6572206e6f7420736574000000000000000060448201526064016100d7565b61087c60017f4e5f991bca30eca2d4643aaefa807e88f96a4a97398933d572a3c0d973004a0155565b507f4ddf47d4000000000000000000000000000000000000000000000000000000009392505050565b6000602082840312156108b757600080fd5b81357fffffffff00000000000000000000000000000000000000000000000000000000811681146108e757600080fd5b9392505050565b73ffffffffffffffffffffffffffffffffffffffff811681146104d357600080fd5b60006020828403121561092257600080fd5b81356108e7816108ee565b7f4e487b7100000000000000000000000000000000000000000000000000000000600052604160045260246000fd5b60006020828403121561096e57600080fd5b813567ffffffffffffffff8082111561098657600080fd5b818401915084601f83011261099a57600080fd5b8135818111156109ac576109ac61092d565b604051601f82017fffffffffffffffffffffffffffffffffffffffffffffffffffffffffffffffe0908116603f011681019083821181831017156109f2576109f261092d565b81604052828152876020848701011115610a0b57600080fd5b826020860160208301376000928101602001929092525095945050505050565b60008060008060808587031215610a4157600080fd5b8451610a4c816108ee565b8094505060208501519250604085015191506060850151610a6c816108ee565b93969295509093505056fea164736f6c634300080d000a",
  "devdoc": {
    "author": "Holograph Foundation",
    "details": "The entire logic and functionality of the smart contract is self-contained.",
    "kind": "dev",
    "methods": {
      "constructor": {
        "details": "Constructor is left empty and init is used instead"
      },
      "init(bytes)": {
        "details": "This function is called by the deployer/factory when creating a contract",
        "params": {
          "initPayload": "abi encoded payload to use for contract initilaization"
        }
      },
      "isHLG()": {
        "details": "Temporarily placed to bypass bytecode conflicts"
      },
      "owner()": {
        "details": "Address of initial creator/owner of the token contract."
      }
    },
    "title": "Holograph Utility Token.",
    "version": 1
  },
  "userdoc": {
    "kind": "user",
    "methods": {
      "init(bytes)": {
        "notice": "Used internally to initialize the contract instead of through a constructor"
      }
    },
    "notice": "A smart contract for minting and managing Holograph's ERC20 Utility Tokens.",
    "version": 1
  },
  "storageLayout": {
    "storage": [],
    "types": null
  }
}