{
  "address": "0x92f583712f6Dd3143Cf15C810d8a7B4c06628F0E",
  "abi": [
    {
      "inputs": [],
      "stateMutability": "nonpayable",
      "type": "constructor"
    },
    {
      "inputs": [],
      "name": "admin",
      "outputs": [
        {
          "internalType": "address",
          "name": "",
          "type": "address"
        }
      ],
      "stateMutability": "view",
      "type": "function"
    },
    {
      "inputs": [
        {
          "internalType": "address",
          "name": "target",
          "type": "address"
        },
        {
          "internalType": "bytes",
          "name": "data",
          "type": "bytes"
        }
      ],
      "name": "adminCall",
      "outputs": [],
      "stateMutability": "payable",
      "type": "function"
    },
    {
      "inputs": [
        {
          "internalType": "uint256",
          "name": "nonce",
          "type": "uint256"
        },
        {
          "internalType": "uint32",
          "name": "fromChain",
          "type": "uint32"
        },
        {
          "internalType": "bytes",
          "name": "data",
          "type": "bytes"
        }
      ],
      "name": "deployIn",
      "outputs": [],
      "stateMutability": "nonpayable",
      "type": "function"
    },
    {
      "inputs": [
        {
          "internalType": "bytes",
          "name": "data",
          "type": "bytes"
        }
      ],
      "name": "deployIn",
      "outputs": [],
      "stateMutability": "nonpayable",
      "type": "function"
    },
    {
      "inputs": [
        {
          "internalType": "uint32",
          "name": "toChain",
          "type": "uint32"
        },
        {
          "components": [
            {
              "internalType": "bytes32",
              "name": "contractType",
              "type": "bytes32"
            },
            {
              "internalType": "uint32",
              "name": "chainType",
              "type": "uint32"
            },
            {
              "internalType": "bytes32",
              "name": "salt",
              "type": "bytes32"
            },
            {
              "internalType": "bytes",
              "name": "byteCode",
              "type": "bytes"
            },
            {
              "internalType": "bytes",
              "name": "initCode",
              "type": "bytes"
            }
          ],
          "internalType": "struct DeploymentConfig",
          "name": "config",
          "type": "tuple"
        },
        {
          "components": [
            {
              "internalType": "bytes32",
              "name": "r",
              "type": "bytes32"
            },
            {
              "internalType": "bytes32",
              "name": "s",
              "type": "bytes32"
            },
            {
              "internalType": "uint8",
              "name": "v",
              "type": "uint8"
            }
          ],
          "internalType": "struct Verification",
          "name": "signature",
          "type": "tuple"
        },
        {
          "internalType": "address",
          "name": "signer",
          "type": "address"
        }
      ],
      "name": "deployOut",
      "outputs": [],
      "stateMutability": "payable",
      "type": "function"
    },
    {
      "inputs": [
        {
          "internalType": "uint32",
          "name": "fromChain",
          "type": "uint32"
        },
        {
          "internalType": "address",
          "name": "token",
          "type": "address"
        },
        {
          "internalType": "address",
          "name": "from",
          "type": "address"
        },
        {
          "internalType": "address",
          "name": "to",
          "type": "address"
        },
        {
          "internalType": "uint256",
          "name": "amount",
          "type": "uint256"
        },
        {
          "internalType": "bytes",
          "name": "data",
          "type": "bytes"
        }
      ],
      "name": "erc20in",
      "outputs": [],
      "stateMutability": "nonpayable",
      "type": "function"
    },
    {
      "inputs": [
        {
          "internalType": "uint256",
          "name": "nonce",
          "type": "uint256"
        },
        {
          "internalType": "uint32",
          "name": "fromChain",
          "type": "uint32"
        },
        {
          "internalType": "address",
          "name": "token",
          "type": "address"
        },
        {
          "internalType": "address",
          "name": "from",
          "type": "address"
        },
        {
          "internalType": "address",
          "name": "to",
          "type": "address"
        },
        {
          "internalType": "uint256",
          "name": "amount",
          "type": "uint256"
        },
        {
          "internalType": "bytes",
          "name": "data",
          "type": "bytes"
        }
      ],
      "name": "erc20in",
      "outputs": [],
      "stateMutability": "nonpayable",
      "type": "function"
    },
    {
      "inputs": [
        {
          "internalType": "uint32",
          "name": "toChain",
          "type": "uint32"
        },
        {
          "internalType": "address",
          "name": "token",
          "type": "address"
        },
        {
          "internalType": "address",
          "name": "from",
          "type": "address"
        },
        {
          "internalType": "address",
          "name": "to",
          "type": "address"
        },
        {
          "internalType": "uint256",
          "name": "amount",
          "type": "uint256"
        }
      ],
      "name": "erc20out",
      "outputs": [],
      "stateMutability": "payable",
      "type": "function"
    },
    {
      "inputs": [
        {
          "internalType": "uint32",
          "name": "fromChain",
          "type": "uint32"
        },
        {
          "internalType": "address",
          "name": "collection",
          "type": "address"
        },
        {
          "internalType": "address",
          "name": "from",
          "type": "address"
        },
        {
          "internalType": "address",
          "name": "to",
          "type": "address"
        },
        {
          "internalType": "uint256",
          "name": "tokenId",
          "type": "uint256"
        },
        {
          "internalType": "bytes",
          "name": "data",
          "type": "bytes"
        }
      ],
      "name": "erc721in",
      "outputs": [],
      "stateMutability": "nonpayable",
      "type": "function"
    },
    {
      "inputs": [
        {
          "internalType": "uint256",
          "name": "nonce",
          "type": "uint256"
        },
        {
          "internalType": "uint32",
          "name": "fromChain",
          "type": "uint32"
        },
        {
          "internalType": "address",
          "name": "collection",
          "type": "address"
        },
        {
          "internalType": "address",
          "name": "from",
          "type": "address"
        },
        {
          "internalType": "address",
          "name": "to",
          "type": "address"
        },
        {
          "internalType": "uint256",
          "name": "tokenId",
          "type": "uint256"
        },
        {
          "internalType": "bytes",
          "name": "data",
          "type": "bytes"
        }
      ],
      "name": "erc721in",
      "outputs": [],
      "stateMutability": "nonpayable",
      "type": "function"
    },
    {
      "inputs": [
        {
          "internalType": "uint32",
          "name": "toChain",
          "type": "uint32"
        },
        {
          "internalType": "address",
          "name": "collection",
          "type": "address"
        },
        {
          "internalType": "address",
          "name": "from",
          "type": "address"
        },
        {
          "internalType": "address",
          "name": "to",
          "type": "address"
        },
        {
          "internalType": "uint256",
          "name": "tokenId",
          "type": "uint256"
        }
      ],
      "name": "erc721out",
      "outputs": [],
      "stateMutability": "payable",
      "type": "function"
    },
    {
      "inputs": [
        {
          "internalType": "bytes",
          "name": "_payload",
          "type": "bytes"
        }
      ],
      "name": "executeJob",
      "outputs": [],
      "stateMutability": "nonpayable",
      "type": "function"
    },
    {
      "inputs": [],
      "name": "getAdmin",
      "outputs": [
        {
          "internalType": "address",
          "name": "adminAddress",
          "type": "address"
        }
      ],
      "stateMutability": "view",
      "type": "function"
    },
    {
      "inputs": [],
      "name": "getFactory",
      "outputs": [
        {
          "internalType": "address",
          "name": "factory",
          "type": "address"
        }
      ],
      "stateMutability": "view",
      "type": "function"
    },
    {
      "inputs": [],
      "name": "getHolograph",
      "outputs": [
        {
          "internalType": "address",
          "name": "holograph",
          "type": "address"
        }
      ],
      "stateMutability": "view",
      "type": "function"
    },
    {
      "inputs": [],
      "name": "getInterfaces",
      "outputs": [
        {
          "internalType": "address",
          "name": "interfaces",
          "type": "address"
        }
      ],
      "stateMutability": "view",
      "type": "function"
    },
    {
      "inputs": [],
      "name": "getOperator",
      "outputs": [
        {
          "internalType": "address",
          "name": "operator",
          "type": "address"
        }
      ],
      "stateMutability": "view",
      "type": "function"
    },
    {
      "inputs": [],
      "name": "getRegistry",
      "outputs": [
        {
          "internalType": "address",
          "name": "registry",
          "type": "address"
        }
      ],
      "stateMutability": "view",
      "type": "function"
    },
    {
      "inputs": [
        {
          "internalType": "bytes",
          "name": "data",
          "type": "bytes"
        }
      ],
      "name": "init",
      "outputs": [
        {
          "internalType": "bytes4",
          "name": "",
          "type": "bytes4"
        }
      ],
      "stateMutability": "nonpayable",
      "type": "function"
    },
    {
      "inputs": [
        {
          "internalType": "address",
          "name": "adminAddress",
          "type": "address"
        }
      ],
      "name": "setAdmin",
      "outputs": [],
      "stateMutability": "nonpayable",
      "type": "function"
    },
    {
      "inputs": [
        {
          "internalType": "address",
          "name": "factory",
          "type": "address"
        }
      ],
      "name": "setFactory",
      "outputs": [],
      "stateMutability": "nonpayable",
      "type": "function"
    },
    {
      "inputs": [
        {
          "internalType": "address",
          "name": "holograph",
          "type": "address"
        }
      ],
      "name": "setHolograph",
      "outputs": [],
      "stateMutability": "nonpayable",
      "type": "function"
    },
    {
      "inputs": [
        {
          "internalType": "address",
          "name": "interfaces",
          "type": "address"
        }
      ],
      "name": "setInterfaces",
      "outputs": [],
      "stateMutability": "nonpayable",
      "type": "function"
    },
    {
      "inputs": [
        {
          "internalType": "address",
          "name": "operator",
          "type": "address"
        }
      ],
      "name": "setOperator",
      "outputs": [],
      "stateMutability": "nonpayable",
      "type": "function"
    },
    {
      "inputs": [
        {
          "internalType": "address",
          "name": "registry",
          "type": "address"
        }
      ],
      "name": "setRegistry",
      "outputs": [],
      "stateMutability": "nonpayable",
      "type": "function"
    }
  ],
  "transactionHash": "0xb0946c9b431dc419e2a2372ad53278fad5cfe4d9488ab19e2903bedf1990479b",
  "args": [],
  "numDeployments": 2,
  "solcInputHash": "2e4e12d7d604fac31e1a6fca2c3b50e3",
  "bytecode": "0x608060405234801561001057600080fd5b5061324f806100206000396000f3fe6080604052600436106101965760003560e01c80639596936b116100e1578063b3ab15fb1161008a578063e7f43c6811610064578063e7f43c6814610470578063ebac15f9146104a4578063ed2631f0146104d8578063f851a440146104f857600080fd5b8063b3ab15fb1461041d578063bf64a82d1461043d578063da8292d91461045057600080fd5b8063a4bd02d7116100bb578063a4bd02d7146103ea578063a91ee0dc146103fd578063b14526601461037057600080fd5b80639596936b1461019b578063a1caf2ea146103c4578063a45561bb146103d757600080fd5b80636389f48311610143578063778fd1d11161011d578063778fd1d1146103505780637e554cae1461037057806388cc58e41461039057600080fd5b80636389f483146102dc5780636e9960c3146102fc578063704b6c021461033057600080fd5b80634ddf47d4116101745780634ddf47d4146102375780635ab1bd53146102885780635bb47808146102bc57600080fd5b80631a827d501461019b57806325d5cac8146101bd5780634827ae0c146101dd575b600080fd5b3480156101a757600080fd5b506101bb6101b63660046125f9565b61050d565b005b3480156101c957600080fd5b506101bb6101d8366004612691565b6107c8565b3480156101e957600080fd5b507f1eee493315beeac80829afd0aaa340f3821cabe68571a2743478e81638a3d94d545b60405173ffffffffffffffffffffffffffffffffffffffff90911681526020015b60405180910390f35b34801561024357600080fd5b506102576102523660046127f8565b6108a2565b6040517fffffffff00000000000000000000000000000000000000000000000000000000909116815260200161022e565b34801561029457600080fd5b507f460c4059d72b144253e5fc4e2aacbae2bcd6362c67862cd58ecbab0e7b10c3495461020d565b3480156102c857600080fd5b506101bb6102d7366004612691565b610a82565b3480156102e857600080fd5b506101bb6102f7366004612835565b610b5c565b34801561030857600080fd5b507f5705f5753aa4f617eef2cae1dada3d3355e9387b04d19191f09b545e684ca50d5461020d565b34801561033c57600080fd5b506101bb61034b366004612691565b610c7a565b34801561035c57600080fd5b506101bb61036b366004612891565b610d54565b34801561037c57600080fd5b506101bb61038b3660046128d3565b610e10565b34801561039c57600080fd5b507f7eefc8e705e14d34b5d1d6c3ea7f4e20cecb5956b182bac952a455d9372b87e25461020d565b6101bb6103d2366004612974565b6110c7565b6101bb6103e5366004612974565b61192b565b6101bb6103f83660046129d8565b611ebe565b34801561040957600080fd5b506101bb610418366004612691565b6120e4565b34801561042957600080fd5b506101bb610438366004612691565b6121be565b6101bb61044b366004612a7a565b612298565b34801561045c57600080fd5b506101bb61046b366004612691565b612373565b34801561047c57600080fd5b507f7bef7d8d97f57f9aa64de319c8598b5cdc7c3d2715fc02428415a98281ca6bdc5461020d565b3480156104b057600080fd5b507f23e584d4fb363739321c1e56c9bcdc29517a4c57065f8502226c995fd15b24725461020d565b3480156104e457600080fd5b506101bb6104f3366004612891565b61244d565b34801561050457600080fd5b5061020d61254a565b33301461057b576040517f08c379a000000000000000000000000000000000000000000000000000000000815260206004820152601b60248201527f484f4c4f47524150483a20627269646765206f6e6c792063616c6c000000000060448201526064015b60405180910390fd5b7f460c4059d72b144253e5fc4e2aacbae2bcd6362c67862cd58ecbab0e7b10c349546040517f44b25fff00000000000000000000000000000000000000000000000000000000815273ffffffffffffffffffffffffffffffffffffffff888116600483015291909116906344b25fff90602401602060405180830381865afa15801561060b573d6000803e3d6000fd5b505050506040513d601f19601f8201168201806040525081019061062f9190612acf565b610695576040517f08c379a000000000000000000000000000000000000000000000000000000000815260206004820152601a60248201527f484f4c4f47524150483a206e6f7420686f6c6f677261706865640000000000006044820152606401610572565b6040517f21d6846f000000000000000000000000000000000000000000000000000000008082529073ffffffffffffffffffffffffffffffffffffffff8816906321d6846f906106f3908b908a908a908a908a908a90600401612b3a565b6020604051808303816000875af1158015610712573d6000803e3d6000fd5b505050506040513d601f19601f820116820180604052508101906107369190612bc7565b7fffffffff0000000000000000000000000000000000000000000000000000000016146107bf576040517f08c379a000000000000000000000000000000000000000000000000000000000815260206004820152601b60248201527f484f4c4f47524150483a2062726964676520696e206661696c656400000000006044820152606401610572565b50505050505050565b7f5705f5753aa4f617eef2cae1dada3d3355e9387b04d19191f09b545e684ca50d5473ffffffffffffffffffffffffffffffffffffffff163373ffffffffffffffffffffffffffffffffffffffff161461087e576040517f08c379a000000000000000000000000000000000000000000000000000000000815260206004820152601e60248201527f484f4c4f47524150483a2061646d696e206f6e6c792066756e6374696f6e00006044820152606401610572565b7f1eee493315beeac80829afd0aaa340f3821cabe68571a2743478e81638a3d94d55565b60006108ce7f4e5f991bca30eca2d4643aaefa807e88f96a4a97398933d572a3c0d973004a0154151590565b15610935576040517f08c379a000000000000000000000000000000000000000000000000000000000815260206004820152601e60248201527f484f4c4f47524150483a20616c726561647920696e697469616c697a656400006044820152606401610572565b6000806000806000868060200190518101906109519190612be2565b94509450945094509450327f5705f5753aa4f617eef2cae1dada3d3355e9387b04d19191f09b545e684ca50d55847f7eefc8e705e14d34b5d1d6c3ea7f4e20cecb5956b182bac952a455d9372b87e255837f1eee493315beeac80829afd0aaa340f3821cabe68571a2743478e81638a3d94d55827f23e584d4fb363739321c1e56c9bcdc29517a4c57065f8502226c995fd15b247255817f7bef7d8d97f57f9aa64de319c8598b5cdc7c3d2715fc02428415a98281ca6bdc55807f460c4059d72b144253e5fc4e2aacbae2bcd6362c67862cd58ecbab0e7b10c34955610a5660017f4e5f991bca30eca2d4643aaefa807e88f96a4a97398933d572a3c0d973004a0155565b507f4ddf47d4000000000000000000000000000000000000000000000000000000009695505050505050565b7f5705f5753aa4f617eef2cae1dada3d3355e9387b04d19191f09b545e684ca50d5473ffffffffffffffffffffffffffffffffffffffff163373ffffffffffffffffffffffffffffffffffffffff1614610b38576040517f08c379a000000000000000000000000000000000000000000000000000000000815260206004820152601e60248201527f484f4c4f47524150483a2061646d696e206f6e6c792066756e6374696f6e00006044820152606401610572565b7f7eefc8e705e14d34b5d1d6c3ea7f4e20cecb5956b182bac952a455d9372b87e255565b333014610bc5576040517f08c379a000000000000000000000000000000000000000000000000000000000815260206004820152601b60248201527f484f4c4f47524150483a20627269646765206f6e6c792063616c6c00000000006044820152606401610572565b60008080610bd584860186612cd6565b925092509250610c037f7eefc8e705e14d34b5d1d6c3ea7f4e20cecb5956b182bac952a455d9372b87e25490565b73ffffffffffffffffffffffffffffffffffffffff1663df6516bd8484846040518463ffffffff1660e01b8152600401610c3f93929190612e2c565b600060405180830381600087803b158015610c5957600080fd5b505af1158015610c6d573d6000803e3d6000fd5b5050505050505050505050565b7f5705f5753aa4f617eef2cae1dada3d3355e9387b04d19191f09b545e684ca50d5473ffffffffffffffffffffffffffffffffffffffff163373ffffffffffffffffffffffffffffffffffffffff1614610d30576040517f08c379a000000000000000000000000000000000000000000000000000000000815260206004820152601e60248201527f484f4c4f47524150483a2061646d696e206f6e6c792066756e6374696f6e00006044820152606401610572565b7f5705f5753aa4f617eef2cae1dada3d3355e9387b04d19191f09b545e684ca50d55565b337f7bef7d8d97f57f9aa64de319c8598b5cdc7c3d2715fc02428415a98281ca6bdc5414610ded577f08c379a0000000000000000000000000000000000000000000000000000000006080527c200000000000000000000000000000000000000000000000000000000060a0527c18484f4c4f47524150483a206f70657261746f72206f6e6c790000000060c052600060e05260c46080fd5b808260003760008082600034305af280610e0b573d6000803e3d6000fd5b505050565b333014610e79576040517f08c379a000000000000000000000000000000000000000000000000000000000815260206004820152601b60248201527f484f4c4f47524150483a20627269646765206f6e6c792063616c6c00000000006044820152606401610572565b7f460c4059d72b144253e5fc4e2aacbae2bcd6362c67862cd58ecbab0e7b10c349546040517f44b25fff00000000000000000000000000000000000000000000000000000000815273ffffffffffffffffffffffffffffffffffffffff888116600483015291909116906344b25fff90602401602060405180830381865afa158015610f09573d6000803e3d6000fd5b505050506040513d601f19601f82011682018060405250810190610f2d9190612acf565b610f93576040517f08c379a000000000000000000000000000000000000000000000000000000000815260206004820152601a60248201527f484f4c4f47524150483a206e6f7420686f6c6f677261706865640000000000006044820152606401610572565b6040517f21d6846f000000000000000000000000000000000000000000000000000000008082529073ffffffffffffffffffffffffffffffffffffffff8816906321d6846f90610ff1908b908a908a908a908a908a90600401612b3a565b6020604051808303816000875af1158015611010573d6000803e3d6000fd5b505050506040513d601f19601f820116820180604052508101906110349190612bc7565b7fffffffff0000000000000000000000000000000000000000000000000000000016146110bd576040517f08c379a000000000000000000000000000000000000000000000000000000000815260206004820152601b60248201527f484f4c4f47524150483a2062726964676520696e206661696c656400000000006044820152606401610572565b5050505050505050565b7f460c4059d72b144253e5fc4e2aacbae2bcd6362c67862cd58ecbab0e7b10c349546040517f44b25fff00000000000000000000000000000000000000000000000000000000815273ffffffffffffffffffffffffffffffffffffffff868116600483015291909116906344b25fff90602401602060405180830381865afa158015611157573d6000803e3d6000fd5b505050506040513d601f19601f8201168201806040525081019061117b9190612acf565b6111e1576040517f08c379a000000000000000000000000000000000000000000000000000000000815260206004820152601a60248201527f484f4c4f47524150483a206e6f7420686f6c6f677261706865640000000000006044820152606401610572565b6040517f4f558e7900000000000000000000000000000000000000000000000000000000815260048101829052849073ffffffffffffffffffffffffffffffffffffffff821690634f558e7990602401602060405180830381865afa15801561124e573d6000803e3d6000fd5b505050506040513d601f19601f820116820180604052508101906112729190612acf565b6112d8576040517f08c379a000000000000000000000000000000000000000000000000000000000815260206004820152601e60248201527f484f4c4f47524150483a20746f6b656e20646f65736e277420657869737400006044820152606401610572565b6040517f6352211e0000000000000000000000000000000000000000000000000000000081526004810183905260009073ffffffffffffffffffffffffffffffffffffffff831690636352211e90602401602060405180830381865afa158015611346573d6000803e3d6000fd5b505050506040513d601f19601f8201168201806040525081019061136a9190612eee565b905073ffffffffffffffffffffffffffffffffffffffff811633148061143457506040517f081812fc00000000000000000000000000000000000000000000000000000000815260048101849052339073ffffffffffffffffffffffffffffffffffffffff84169063081812fc90602401602060405180830381865afa1580156113f8573d6000803e3d6000fd5b505050506040513d601f19601f8201168201806040525081019061141c9190612eee565b73ffffffffffffffffffffffffffffffffffffffff16145b806114d057506040517fe985e9c500000000000000000000000000000000000000000000000000000000815273ffffffffffffffffffffffffffffffffffffffff828116600483015233602483015283169063e985e9c590604401602060405180830381865afa1580156114ac573d6000803e3d6000fd5b505050506040513d601f19601f820116820180604052508101906114d09190612acf565b611536576040517f08c379a000000000000000000000000000000000000000000000000000000000815260206004820152601d60248201527f484f4c4f47524150483a206e6f7420617070726f7665642f6f776e65720000006044820152606401610572565b73ffffffffffffffffffffffffffffffffffffffff84166115b3576040517f08c379a000000000000000000000000000000000000000000000000000000000815260206004820152601760248201527f484f4c4f47524150483a207a65726f20616464726573730000000000000000006044820152606401610572565b6040517fde8b1ef100000000000000000000000000000000000000000000000000000000815263ffffffff8816600482015273ffffffffffffffffffffffffffffffffffffffff8681166024830152858116604483015260648201859052600091829185169063de8b1ef1906084016000604051808303816000875af1158015611641573d6000803e3d6000fd5b505050506040513d6000823e601f3d9081017fffffffffffffffffffffffffffffffffffffffffffffffffffffffffffffffe01682016040526116879190810190612f0b565b90925090507fffffffff0000000000000000000000000000000000000000000000000000000082167fde8b1ef10000000000000000000000000000000000000000000000000000000014611737576040517f08c379a000000000000000000000000000000000000000000000000000000000815260206004820152601c60248201527f484f4c4f47524150483a20627269646765206f7574206661696c6564000000006044820152606401610572565b60008054908061174683612f95565b90915550507f7bef7d8d97f57f9aa64de319c8598b5cdc7c3d2715fc02428415a98281ca6bdc5473ffffffffffffffffffffffffffffffffffffffff166368346a92348b336000546117b67f1eee493315beeac80829afd0aaa340f3821cabe68571a2743478e81638a3d94d5490565b73ffffffffffffffffffffffffffffffffffffffff166397e67c3b6040518163ffffffff1660e01b8152600401602060405180830381865afa158015611800573d6000803e3d6000fd5b505050506040513d601f19601f820116820180604052508101906118249190612ff4565b8e8e8e8e8b60405160240161183f9796959493929190613011565b604080517fffffffffffffffffffffffffffffffffffffffffffffffffffffffffffffffe08184030181529181526020820180517bffffffffffffffffffffffffffffffffffffffffffffffffffffffff167f7e554cae000000000000000000000000000000000000000000000000000000001790525160e086901b7fffffffff000000000000000000000000000000000000000000000000000000001681526118ee93929190600401613077565b6000604051808303818588803b15801561190757600080fd5b505af115801561191b573d6000803e3d6000fd5b5050505050505050505050505050565b7f460c4059d72b144253e5fc4e2aacbae2bcd6362c67862cd58ecbab0e7b10c349546040517f44b25fff00000000000000000000000000000000000000000000000000000000815273ffffffffffffffffffffffffffffffffffffffff868116600483015291909116906344b25fff90602401602060405180830381865afa1580156119bb573d6000803e3d6000fd5b505050506040513d601f19601f820116820180604052508101906119df9190612acf565b611a45576040517f08c379a000000000000000000000000000000000000000000000000000000000815260206004820152601a60248201527f484f4c4f47524150483a206e6f7420686f6c6f677261706865640000000000006044820152606401610572565b6040517f70a0823100000000000000000000000000000000000000000000000000000000815273ffffffffffffffffffffffffffffffffffffffff8481166004830152859183918316906370a0823190602401602060405180830381865afa158015611ab5573d6000803e3d6000fd5b505050506040513d601f19601f82011682018060405250810190611ad991906130bb565b1015611b41576040517f08c379a000000000000000000000000000000000000000000000000000000000815260206004820152601c60248201527f484f4c4f47524150483a206e6f7420656e6f75676820746f6b656e73000000006044820152606401610572565b6040517f8b591bab00000000000000000000000000000000000000000000000000000000815263ffffffff8716600482015233602482015273ffffffffffffffffffffffffffffffffffffffff85811660448301528481166064830152608482018490526000918291841690638b591bab9060a4016000604051808303816000875af1158015611bd5573d6000803e3d6000fd5b505050506040513d6000823e601f3d9081017fffffffffffffffffffffffffffffffffffffffffffffffffffffffffffffffe0168201604052611c1b9190810190612f0b565b90925090507fffffffff0000000000000000000000000000000000000000000000000000000082167f8b591bab0000000000000000000000000000000000000000000000000000000014611ccb576040517f08c379a000000000000000000000000000000000000000000000000000000000815260206004820152601c60248201527f484f4c4f47524150483a20627269646765206f7574206661696c6564000000006044820152606401610572565b600080549080611cda83612f95565b90915550507f7bef7d8d97f57f9aa64de319c8598b5cdc7c3d2715fc02428415a98281ca6bdc5473ffffffffffffffffffffffffffffffffffffffff166368346a92348a33600054611d4a7f1eee493315beeac80829afd0aaa340f3821cabe68571a2743478e81638a3d94d5490565b73ffffffffffffffffffffffffffffffffffffffff166397e67c3b6040518163ffffffff1660e01b8152600401602060405180830381865afa158015611d94573d6000803e3d6000fd5b505050506040513d601f19601f82011682018060405250810190611db89190612ff4565b8d8d8d8d8b604051602401611dd39796959493929190613011565b604080517fffffffffffffffffffffffffffffffffffffffffffffffffffffffffffffffe08184030181529181526020820180517bffffffffffffffffffffffffffffffffffffffffffffffffffffffff167fb1452660000000000000000000000000000000000000000000000000000000001790525160e086901b7fffffffff00000000000000000000000000000000000000000000000000000000168152611e8293929190600401613077565b6000604051808303818588803b158015611e9b57600080fd5b505af1158015611eaf573d6000803e3d6000fd5b50505050505050505050505050565b600080549080611ecd83612f95565b90915550507f7bef7d8d97f57f9aa64de319c8598b5cdc7c3d2715fc02428415a98281ca6bdc5473ffffffffffffffffffffffffffffffffffffffff166368346a92348633600054611f3d7f1eee493315beeac80829afd0aaa340f3821cabe68571a2743478e81638a3d94d5490565b73ffffffffffffffffffffffffffffffffffffffff166397e67c3b6040518163ffffffff1660e01b8152600401602060405180830381865afa158015611f87573d6000803e3d6000fd5b505050506040513d601f19601f82011682018060405250810190611fab9190612ff4565b898989604051602001611fc093929190613138565b604080517fffffffffffffffffffffffffffffffffffffffffffffffffffffffffffffffe081840301815290829052611ffd93929160240161321d565b604080517fffffffffffffffffffffffffffffffffffffffffffffffffffffffffffffffe08184030181529181526020820180517bffffffffffffffffffffffffffffffffffffffffffffffffffffffff167f6389f483000000000000000000000000000000000000000000000000000000001790525160e086901b7fffffffff000000000000000000000000000000000000000000000000000000001681526120ac93929190600401613077565b6000604051808303818588803b1580156120c557600080fd5b505af11580156120d9573d6000803e3d6000fd5b505050505050505050565b7f5705f5753aa4f617eef2cae1dada3d3355e9387b04d19191f09b545e684ca50d5473ffffffffffffffffffffffffffffffffffffffff163373ffffffffffffffffffffffffffffffffffffffff161461219a576040517f08c379a000000000000000000000000000000000000000000000000000000000815260206004820152601e60248201527f484f4c4f47524150483a2061646d696e206f6e6c792066756e6374696f6e00006044820152606401610572565b7f460c4059d72b144253e5fc4e2aacbae2bcd6362c67862cd58ecbab0e7b10c34955565b7f5705f5753aa4f617eef2cae1dada3d3355e9387b04d19191f09b545e684ca50d5473ffffffffffffffffffffffffffffffffffffffff163373ffffffffffffffffffffffffffffffffffffffff1614612274576040517f08c379a000000000000000000000000000000000000000000000000000000000815260206004820152601e60248201527f484f4c4f47524150483a2061646d696e206f6e6c792066756e6374696f6e00006044820152606401610572565b7f7bef7d8d97f57f9aa64de319c8598b5cdc7c3d2715fc02428415a98281ca6bdc55565b7f5705f5753aa4f617eef2cae1dada3d3355e9387b04d19191f09b545e684ca50d5473ffffffffffffffffffffffffffffffffffffffff163373ffffffffffffffffffffffffffffffffffffffff161461234e576040517f08c379a000000000000000000000000000000000000000000000000000000000815260206004820152601e60248201527f484f4c4f47524150483a2061646d696e206f6e6c792066756e6374696f6e00006044820152606401610572565b808260003760008082600034875af13d6000803e80801561236e573d6000f35b3d6000fd5b7f5705f5753aa4f617eef2cae1dada3d3355e9387b04d19191f09b545e684ca50d5473ffffffffffffffffffffffffffffffffffffffff163373ffffffffffffffffffffffffffffffffffffffff1614612429576040517f08c379a000000000000000000000000000000000000000000000000000000000815260206004820152601e60248201527f484f4c4f47524150483a2061646d696e206f6e6c792066756e6374696f6e00006044820152606401610572565b7f23e584d4fb363739321c1e56c9bcdc29517a4c57065f8502226c995fd15b247255565b3330146124b6576040517f08c379a000000000000000000000000000000000000000000000000000000000815260206004820152601b60248201527f484f4c4f47524150483a20627269646765206f6e6c792063616c6c00000000006044820152606401610572565b600080806124c684860186612cd6565b9250925092506124f47f7eefc8e705e14d34b5d1d6c3ea7f4e20cecb5956b182bac952a455d9372b87e25490565b73ffffffffffffffffffffffffffffffffffffffff1663df6516bd8484846040518463ffffffff1660e01b815260040161253093929190612e2c565b600060405180830381600087803b1580156120c557600080fd5b60006125747f5705f5753aa4f617eef2cae1dada3d3355e9387b04d19191f09b545e684ca50d5490565b905090565b63ffffffff8116811461258b57600080fd5b50565b73ffffffffffffffffffffffffffffffffffffffff8116811461258b57600080fd5b60008083601f8401126125c257600080fd5b50813567ffffffffffffffff8111156125da57600080fd5b6020830191508360208285010111156125f257600080fd5b9250929050565b600080600080600080600060c0888a03121561261457600080fd5b873561261f81612579565b9650602088013561262f8161258e565b9550604088013561263f8161258e565b9450606088013561264f8161258e565b93506080880135925060a088013567ffffffffffffffff81111561267257600080fd5b61267e8a828b016125b0565b989b979a50959850939692959293505050565b6000602082840312156126a357600080fd5b81356126ae8161258e565b9392505050565b7f4e487b7100000000000000000000000000000000000000000000000000000000600052604160045260246000fd5b60405160a0810167ffffffffffffffff81118282101715612707576127076126b5565b60405290565b604051601f82017fffffffffffffffffffffffffffffffffffffffffffffffffffffffffffffffe016810167ffffffffffffffff81118282101715612754576127546126b5565b604052919050565b600067ffffffffffffffff821115612776576127766126b5565b50601f017fffffffffffffffffffffffffffffffffffffffffffffffffffffffffffffffe01660200190565b600082601f8301126127b357600080fd5b81356127c66127c18261275c565b61270d565b8181528460208386010111156127db57600080fd5b816020850160208301376000918101602001919091529392505050565b60006020828403121561280a57600080fd5b813567ffffffffffffffff81111561282157600080fd5b61282d848285016127a2565b949350505050565b6000806000806060858703121561284b57600080fd5b84359350602085013561285d81612579565b9250604085013567ffffffffffffffff81111561287957600080fd5b612885878288016125b0565b95989497509550505050565b600080602083850312156128a457600080fd5b823567ffffffffffffffff8111156128bb57600080fd5b6128c7858286016125b0565b90969095509350505050565b60008060008060008060008060e0898b0312156128ef57600080fd5b88359750602089013561290181612579565b965060408901356129118161258e565b955060608901356129218161258e565b945060808901356129318161258e565b935060a0890135925060c089013567ffffffffffffffff81111561295457600080fd5b6129608b828c016125b0565b999c989b5096995094979396929594505050565b600080600080600060a0868803121561298c57600080fd5b853561299781612579565b945060208601356129a78161258e565b935060408601356129b78161258e565b925060608601356129c78161258e565b949793965091946080013592915050565b60008060008084860360c08112156129ef57600080fd5b85356129fa81612579565b9450602086013567ffffffffffffffff811115612a1657600080fd5b860160a08189031215612a2857600080fd5b935060607fffffffffffffffffffffffffffffffffffffffffffffffffffffffffffffffc082011215612a5a57600080fd5b5060408501915060a0850135612a6f8161258e565b939692955090935050565b600080600060408486031215612a8f57600080fd5b8335612a9a8161258e565b9250602084013567ffffffffffffffff811115612ab657600080fd5b612ac2868287016125b0565b9497909650939450505050565b600060208284031215612ae157600080fd5b815180151581146126ae57600080fd5b8183528181602085013750600060208284010152600060207fffffffffffffffffffffffffffffffffffffffffffffffffffffffffffffffe0601f840116840101905092915050565b63ffffffff87168152600073ffffffffffffffffffffffffffffffffffffffff808816602084015280871660408401525084606083015260a06080830152612b8660a083018486612af1565b98975050505050505050565b80517fffffffff0000000000000000000000000000000000000000000000000000000081168114612bc257600080fd5b919050565b600060208284031215612bd957600080fd5b6126ae82612b92565b600080600080600060a08688031215612bfa57600080fd5b8551612c058161258e565b6020870151909550612c168161258e565b6040870151909450612c278161258e565b6060870151909350612c388161258e565b6080870151909250612c498161258e565b809150509295509295909350565b803560ff81168114612bc257600080fd5b600060608284031215612c7a57600080fd5b6040516060810181811067ffffffffffffffff82111715612c9d57612c9d6126b5565b80604052508091508235815260208301356020820152612cbf60408401612c57565b60408201525092915050565b8035612bc28161258e565b600080600060a08486031215612ceb57600080fd5b833567ffffffffffffffff80821115612d0357600080fd5b9085019060a08288031215612d1757600080fd5b612d1f6126e4565b823581526020830135612d3181612579565b602082015260408381013590820152606083013582811115612d5257600080fd5b612d5e898286016127a2565b606083015250608083013582811115612d7657600080fd5b612d82898286016127a2565b608083015250809550505050612d9b8560208601612c68565b9150612da960808501612ccb565b90509250925092565b60005b83811015612dcd578181015183820152602001612db5565b83811115612ddc576000848401525b50505050565b60008151808452612dfa816020860160208601612db2565b601f017fffffffffffffffffffffffffffffffffffffffffffffffffffffffffffffffe0169290920160200192915050565b60a08152835160a082015263ffffffff60208501511660c0820152604084015160e08201526000606085015160a0610100840152612e6e610140840182612de2565b905060808601517fffffffffffffffffffffffffffffffffffffffffffffffffffffffffffffff6084830301610120850152612eaa8282612de2565b92505050835160208301526020840151604083015260ff604085015116606083015261282d608083018473ffffffffffffffffffffffffffffffffffffffff169052565b600060208284031215612f0057600080fd5b81516126ae8161258e565b60008060408385031215612f1e57600080fd5b612f2783612b92565b9150602083015167ffffffffffffffff811115612f4357600080fd5b8301601f81018513612f5457600080fd5b8051612f626127c18261275c565b818152866020838501011115612f7757600080fd5b612f88826020830160208601612db2565b8093505050509250929050565b60007fffffffffffffffffffffffffffffffffffffffffffffffffffffffffffffffff8203612fed577f4e487b7100000000000000000000000000000000000000000000000000000000600052601160045260246000fd5b5060010190565b60006020828403121561300657600080fd5b81516126ae81612579565b87815263ffffffff87166020820152600073ffffffffffffffffffffffffffffffffffffffff808816604084015280871660608401528086166080840152508360a083015260e060c083015261306a60e0830184612de2565b9998505050505050505050565b63ffffffff8416815273ffffffffffffffffffffffffffffffffffffffff831660208201526060604082015260006130b26060830184612de2565b95945050505050565b6000602082840312156130cd57600080fd5b5051919050565b60008083357fffffffffffffffffffffffffffffffffffffffffffffffffffffffffffffffe184360301811261310957600080fd5b830160208101925035905067ffffffffffffffff81111561312957600080fd5b8036038313156125f257600080fd5b60a08152833560a08201526000602085013561315381612579565b63ffffffff1660c0830152604085013560e083015261317560608601866130d4565b60a061010085015261318c61014085018284612af1565b91505061319c60808701876130d4565b7fffffffffffffffffffffffffffffffffffffffffffffffffffffffffffffff60858403016101208601526131d2838284612af1565b9350505050833560208301526020840135604083015260ff6131f660408601612c57565b16606083015273ffffffffffffffffffffffffffffffffffffffff8316608083015261282d565b83815263ffffffff831660208201526060604082015260006130b26060830184612de256fea164736f6c634300080d000a",
  "devdoc": {
    "details": "This smart contract contains the actual core bridging logic.",
    "kind": "dev",
    "methods": {
      "constructor": {
        "details": "Constructor is left empty and only the admin address is set."
      }
    },
    "stateVariables": {
      "_jobNonce": {
        "details": "Internal nonce used for randomness."
      }
    },
    "version": 1
  },
  "userdoc": {
    "kind": "user",
    "methods": {},
    "version": 1
  },
  "storageLayout": {
    "storage": [
      {
        "astId": 228,
        "contract": "contracts/HolographBridge.sol:HolographBridge",
        "label": "_jobNonce",
        "offset": 0,
        "slot": "0",
        "type": "t_uint256"
      }
    ],
    "types": {
      "t_uint256": {
        "encoding": "inplace",
        "label": "uint256",
        "numberOfBytes": "32"
      }
    }
  }
}