{
  "address": "0xA0B41e0E533e23dbF16F6100aE0DaeD549d9B740",
  "abi": [
    {
      "inputs": [],
      "stateMutability": "nonpayable",
      "type": "constructor"
    },
    {
      "stateMutability": "payable",
      "type": "fallback"
    },
    {
      "inputs": [
        {
          "internalType": "address",
          "name": "",
          "type": "address"
        },
        {
          "internalType": "uint256",
          "name": "_tokenId",
          "type": "uint256"
        }
      ],
      "name": "afterBurn",
      "outputs": [
        {
          "internalType": "bool",
          "name": "",
          "type": "bool"
        }
      ],
      "stateMutability": "nonpayable",
      "type": "function"
    },
    {
      "inputs": [
        {
          "internalType": "uint32",
          "name": "",
          "type": "uint32"
        },
        {
          "internalType": "address",
          "name": "",
          "type": "address"
        },
        {
          "internalType": "address",
          "name": "",
          "type": "address"
        },
        {
          "internalType": "uint256",
          "name": "_tokenId",
          "type": "uint256"
        },
        {
          "internalType": "bytes",
          "name": "_data",
          "type": "bytes"
        }
      ],
      "name": "bridgeIn",
      "outputs": [
        {
          "internalType": "bool",
          "name": "",
          "type": "bool"
        }
      ],
      "stateMutability": "nonpayable",
      "type": "function"
    },
    {
      "inputs": [
        {
          "internalType": "uint32",
          "name": "",
          "type": "uint32"
        },
        {
          "internalType": "address",
          "name": "",
          "type": "address"
        },
        {
          "internalType": "address",
          "name": "",
          "type": "address"
        },
        {
          "internalType": "uint256",
          "name": "_tokenId",
          "type": "uint256"
        }
      ],
      "name": "bridgeOut",
      "outputs": [
        {
          "internalType": "bytes",
          "name": "_data",
          "type": "bytes"
        }
      ],
      "stateMutability": "view",
      "type": "function"
    },
    {
      "inputs": [
        {
          "internalType": "uint224",
          "name": "tokenId",
          "type": "uint224"
        },
        {
          "internalType": "enum TokenUriType",
          "name": "uriType",
          "type": "uint8"
        },
        {
          "internalType": "string",
          "name": "tokenUri",
          "type": "string"
        }
      ],
      "name": "cxipMint",
      "outputs": [],
      "stateMutability": "nonpayable",
      "type": "function"
    },
    {
      "inputs": [
        {
          "internalType": "bytes",
          "name": "initPayload",
          "type": "bytes"
        }
      ],
      "name": "init",
      "outputs": [
        {
          "internalType": "bytes4",
          "name": "",
          "type": "bytes4"
        }
      ],
      "stateMutability": "nonpayable",
      "type": "function"
    },
    {
      "inputs": [
        {
          "internalType": "address",
          "name": "wallet",
          "type": "address"
        }
      ],
      "name": "isOwner",
      "outputs": [
        {
          "internalType": "bool",
          "name": "",
          "type": "bool"
        }
      ],
      "stateMutability": "view",
      "type": "function"
    },
    {
      "inputs": [],
      "name": "isOwner",
      "outputs": [
        {
          "internalType": "bool",
          "name": "",
          "type": "bool"
        }
      ],
      "stateMutability": "view",
      "type": "function"
    },
    {
      "inputs": [],
      "name": "owner",
      "outputs": [
        {
          "internalType": "address",
          "name": "",
          "type": "address"
        }
      ],
      "stateMutability": "view",
      "type": "function"
    },
    {
      "inputs": [
        {
          "internalType": "bytes4",
          "name": "",
          "type": "bytes4"
        }
      ],
      "name": "supportsInterface",
      "outputs": [
        {
          "internalType": "bool",
          "name": "",
          "type": "bool"
        }
      ],
      "stateMutability": "pure",
      "type": "function"
    },
    {
      "inputs": [
        {
          "internalType": "uint256",
          "name": "_tokenId",
          "type": "uint256"
        }
      ],
      "name": "tokenURI",
      "outputs": [
        {
          "internalType": "string",
          "name": "",
          "type": "string"
        }
      ],
      "stateMutability": "view",
      "type": "function"
    },
    {
      "inputs": [],
      "name": "withdraw",
      "outputs": [],
      "stateMutability": "nonpayable",
      "type": "function"
    },
    {
      "stateMutability": "payable",
      "type": "receive"
    }
  ],
  "transactionHash": "0x978898549790dea4935bf970c02a51309c2a1ac24e2786e3f65e3ed609c591e1",
  "args": [],
  "numDeployments": 2,
  "solcInputHash": "8a3e7c0b8a48991c4a15cecfd042fb05",
  "bytecode": "0x608060405234801561001057600080fd5b50612229806100206000396000f3fe6080604052600436106100c05760003560e01c80638da5cb5b11610074578063c87b56dd1161004e578063c87b56dd146102c2578063e003ba45146102e2578063f0f54073146103025761012c565b80638da5cb5b146102535780638f32d59b1461028d578063971c34b4146102a25761012c565b80633ccfd60b116100a55780633ccfd60b146101c05780634ddf47d4146101d55780638b1465c6146102265761012c565b806301ffc9a71461016a5780632f54bf6e146101a05761012c565b3661012c576040517f08c379a000000000000000000000000000000000000000000000000000000000815260206004820152601860248201527f4552433732313a20756e726561636861626c6520636f6465000000000000000060448201526064015b60405180910390fd5b337fe9fcff60011c1a99f7b7244d1f2d9da93d79ea8ef3654ce590d775575255b2bd54146001811461015d57600080fd5b600160805260206080f35b005b34801561017657600080fd5b5061018b6101853660046119d8565b50600090565b60405190151581526020015b60405180910390f35b3480156101ac57600080fd5b5061018b6101bb366004611a3c565b610322565b3480156101cc57600080fd5b50610168610381565b3480156101e157600080fd5b506101f56101f0366004611b5b565b6105bb565b6040517fffffffff000000000000000000000000000000000000000000000000000000009091168152602001610197565b34801561023257600080fd5b50610246610241366004611bc0565b610653565b6040516101979190611c89565b34801561025f57600080fd5b506102686107cf565b60405173ffffffffffffffffffffffffffffffffffffffff9091168152602001610197565b34801561029957600080fd5b5061018b6107fe565b3480156102ae57600080fd5b5061018b6102bd366004611c9c565b6108fa565b3480156102ce57600080fd5b506102466102dd366004611cc8565b610a62565b3480156102ee57600080fd5b506101686102fd366004611d39565b610d74565b34801561030e57600080fd5b5061018b61031d366004611dbd565b611546565b600061034c7fb56711ba6bd3ded7639fc335ee7524fe668a79d7558c85992e3f8494cf7727775490565b73ffffffffffffffffffffffffffffffffffffffff168273ffffffffffffffffffffffffffffffffffffffff16149050919050565b7fe9fcff60011c1a99f7b7244d1f2d9da93d79ea8ef3654ce590d775575255b2bd5473ffffffffffffffffffffffffffffffffffffffff16330361049d577fb56711ba6bd3ded7639fc335ee7524fe668a79d7558c85992e3f8494cf7727775473ffffffffffffffffffffffffffffffffffffffff16367fffffffffffffffffffffffffffffffffffffffffffffffffffffffffffffffe0013573ffffffffffffffffffffffffffffffffffffffff1614610498576040517f08c379a000000000000000000000000000000000000000000000000000000000815260206004820152601b60248201527f4552433732313a206f776e6572206f6e6c792066756e6374696f6e00000000006044820152606401610123565b610553565b7fb56711ba6bd3ded7639fc335ee7524fe668a79d7558c85992e3f8494cf7727775473ffffffffffffffffffffffffffffffffffffffff163373ffffffffffffffffffffffffffffffffffffffff1614610553576040517f08c379a000000000000000000000000000000000000000000000000000000000815260206004820152601b60248201527f4552433732313a206f776e6572206f6e6c792066756e6374696f6e00000000006044820152606401610123565b7fb56711ba6bd3ded7639fc335ee7524fe668a79d7558c85992e3f8494cf7727775460405173ffffffffffffffffffffffffffffffffffffffff909116904780156108fc02916000818181858888f193505050501580156105b8573d6000803e3d6000fd5b50565b600080547fffffff00ffffffffffffffffffffffffffffffffffffffffffffffffffffffff167c0100000000000000000000000000000000000000000000000000000000178155815181906106199060209085018101908501611e6f565b9050610643817fb56711ba6bd3ded7639fc335ee7524fe668a79d7558c85992e3f8494cf77277755565b61064c836116cc565b9392505050565b606061067d7fe9fcff60011c1a99f7b7244d1f2d9da93d79ea8ef3654ce590d775575255b2bd5490565b73ffffffffffffffffffffffffffffffffffffffff163373ffffffffffffffffffffffffffffffffffffffff1614610711576040517f08c379a000000000000000000000000000000000000000000000000000000000815260206004820152601860248201527f4552433732313a20686f6c6f67726170686572206f6e6c7900000000000000006044820152606401610123565b60008281526001602052604081205460ff169081600381111561073657610736611e40565b0361076357506000547c0100000000000000000000000000000000000000000000000000000000900460ff165b6000838152600260205260408120829182600381111561078557610785611e40565b600381111561079657610796611e40565b81526020019081526020016000206040516020016107b5929190611f1a565b604051602081830303815290604052915050949350505050565b60006107f97fb56711ba6bd3ded7639fc335ee7524fe668a79d7558c85992e3f8494cf7727775490565b905090565b60006108287fe9fcff60011c1a99f7b7244d1f2d9da93d79ea8ef3654ce590d775575255b2bd5490565b73ffffffffffffffffffffffffffffffffffffffff1633036108bc577fb56711ba6bd3ded7639fc335ee7524fe668a79d7558c85992e3f8494cf7727775473ffffffffffffffffffffffffffffffffffffffff16367fffffffffffffffffffffffffffffffffffffffffffffffffffffffffffffffe0013573ffffffffffffffffffffffffffffffffffffffff1614905090565b507fb56711ba6bd3ded7639fc335ee7524fe668a79d7558c85992e3f8494cf7727775473ffffffffffffffffffffffffffffffffffffffff16331490565b60006109247fe9fcff60011c1a99f7b7244d1f2d9da93d79ea8ef3654ce590d775575255b2bd5490565b73ffffffffffffffffffffffffffffffffffffffff163373ffffffffffffffffffffffffffffffffffffffff16146109b8576040517f08c379a000000000000000000000000000000000000000000000000000000000815260206004820152601860248201527f4552433732313a20686f6c6f67726170686572206f6e6c7900000000000000006044820152606401610123565b60008281526001602052604081205460ff16908160038111156109dd576109dd611e40565b03610a0a57506000547c0100000000000000000000000000000000000000000000000000000000900460ff165b600083815260026020526040812090826003811115610a2b57610a2b611e40565b6003811115610a3c57610a3c611e40565b81526020019081526020016000206000610a569190611873565b60019150505b92915050565b6060610a8c7fe9fcff60011c1a99f7b7244d1f2d9da93d79ea8ef3654ce590d775575255b2bd5490565b73ffffffffffffffffffffffffffffffffffffffff163373ffffffffffffffffffffffffffffffffffffffff1614610b20576040517f08c379a000000000000000000000000000000000000000000000000000000000815260206004820152601860248201527f4552433732313a20686f6c6f67726170686572206f6e6c7900000000000000006044820152606401610123565b60008281526001602052604081205460ff1690816003811115610b4557610b45611e40565b03610b7257506000547c0100000000000000000000000000000000000000000000000000000000900460ff165b7fe9fcff60011c1a99f7b7244d1f2d9da93d79ea8ef3654ce590d775575255b2bd5473ffffffffffffffffffffffffffffffffffffffff16634827ae0c6040518163ffffffff1660e01b8152600401602060405180830381865afa158015610bde573d6000803e3d6000fd5b505050506040513d601f19601f82011682018060405250810190610c029190611e6f565b73ffffffffffffffffffffffffffffffffffffffff1663ebac15f96040518163ffffffff1660e01b8152600401602060405180830381865afa158015610c4c573d6000803e3d6000fd5b505050506040513d601f19601f82011682018060405250810190610c709190611e6f565b73ffffffffffffffffffffffffffffffffffffffff16630a2bb379826040518263ffffffff1660e01b8152600401610ca89190611fcc565b600060405180830381865afa158015610cc5573d6000803e3d6000fd5b505050506040513d6000823e601f3d9081017fffffffffffffffffffffffffffffffffffffffffffffffffffffffffffffffe0168201604052610d0b9190810190611fda565b600084815260026020526040812090836003811115610d2c57610d2c611e40565b6003811115610d3d57610d3d611e40565b8152602001908152602001600020604051602001610d5c929190612051565b6040516020818303038152906040529150505b919050565b7fe9fcff60011c1a99f7b7244d1f2d9da93d79ea8ef3654ce590d775575255b2bd5473ffffffffffffffffffffffffffffffffffffffff163373ffffffffffffffffffffffffffffffffffffffff1614610e2a576040517f08c379a000000000000000000000000000000000000000000000000000000000815260206004820152601860248201527f4552433732313a20686f6c6f67726170686572206f6e6c7900000000000000006044820152606401610123565b7fe9fcff60011c1a99f7b7244d1f2d9da93d79ea8ef3654ce590d775575255b2bd5473ffffffffffffffffffffffffffffffffffffffff163303610f46577fb56711ba6bd3ded7639fc335ee7524fe668a79d7558c85992e3f8494cf7727775473ffffffffffffffffffffffffffffffffffffffff16367fffffffffffffffffffffffffffffffffffffffffffffffffffffffffffffffe0013573ffffffffffffffffffffffffffffffffffffffff1614610f41576040517f08c379a000000000000000000000000000000000000000000000000000000000815260206004820152601b60248201527f4552433732313a206f776e6572206f6e6c792066756e6374696f6e00000000006044820152606401610123565b610ffc565b7fb56711ba6bd3ded7639fc335ee7524fe668a79d7558c85992e3f8494cf7727775473ffffffffffffffffffffffffffffffffffffffff163373ffffffffffffffffffffffffffffffffffffffff1614610ffc576040517f08c379a000000000000000000000000000000000000000000000000000000000815260206004820152601b60248201527f4552433732313a206f776e6572206f6e6c792066756e6374696f6e00000000006044820152606401610123565b60006110267fe9fcff60011c1a99f7b7244d1f2d9da93d79ea8ef3654ce590d775575255b2bd5490565b905060008173ffffffffffffffffffffffffffffffffffffffff166377dbd8636040518163ffffffff1660e01b8152600401602060405180830381865afa158015611075573d6000803e3d6000fd5b505050506040513d601f19601f8201168201806040525081019061109991906120f8565b9050857bffffffffffffffffffffffffffffffffffffffffffffffffffffffff1660000361134857600080546001919081906110f49084907bffffffffffffffffffffffffffffffffffffffffffffffffffffffff16612140565b92506101000a8154817bffffffffffffffffffffffffffffffffffffffffffffffffffffffff02191690837bffffffffffffffffffffffffffffffffffffffffffffffffffffffff1602179055505b60005473ffffffffffffffffffffffffffffffffffffffff831690634f558e799061118c907bffffffffffffffffffffffffffffffffffffffffffffffffffffffff1684612180565b6040518263ffffffff1660e01b81526004016111aa91815260200190565b602060405180830381865afa1580156111c7573d6000803e3d6000fd5b505050506040513d601f19601f820116820180604052508101906111eb9190612198565b80611299575060005473ffffffffffffffffffffffffffffffffffffffff8316906323250cae9061123a907bffffffffffffffffffffffffffffffffffffffffffffffffffffffff1684612180565b6040518263ffffffff1660e01b815260040161125891815260200190565b602060405180830381865afa158015611275573d6000803e3d6000fd5b505050506040513d601f19601f820116820180604052508101906112999190612198565b1561132457600080546001919081906112d19084907bffffffffffffffffffffffffffffffffffffffffffffffffffffffff16612140565b92506101000a8154817bffffffffffffffffffffffffffffffffffffffffffffffffffffffff02191690837bffffffffffffffffffffffffffffffffffffffffffffffffffffffff160217905550611143565b6000547bffffffffffffffffffffffffffffffffffffffffffffffffffffffff1695505b73ffffffffffffffffffffffffffffffffffffffff8216633b4f1b26367fffffffffffffffffffffffffffffffffffffffffffffffffffffffffffffffe001356040517fffffffff0000000000000000000000000000000000000000000000000000000060e084901b16815273ffffffffffffffffffffffffffffffffffffffff90911660048201527bffffffffffffffffffffffffffffffffffffffffffffffffffffffff89166024820152604401600060405180830381600087803b15801561141257600080fd5b505af1158015611426573d6000803e3d6000fd5b505050506000867bffffffffffffffffffffffffffffffffffffffffffffffffffffffff16826114569190612180565b9050600086600381111561146c5761146c611e40565b0361149a576000547c0100000000000000000000000000000000000000000000000000000000900460ff1695505b6000818152600160208190526040909120805488927fffffffffffffffffffffffffffffffffffffffffffffffffffffffffffffff00909116908360038111156114e6576114e6611e40565b02179055506000818152600260205260408120869186919089600381111561151057611510611e40565b600381111561152157611521611e40565b8152602001908152602001600020919061153c9291906118ad565b5050505050505050565b60006115707fe9fcff60011c1a99f7b7244d1f2d9da93d79ea8ef3654ce590d775575255b2bd5490565b73ffffffffffffffffffffffffffffffffffffffff163373ffffffffffffffffffffffffffffffffffffffff1614611604576040517f08c379a000000000000000000000000000000000000000000000000000000000815260206004820152601860248201527f4552433732313a20686f6c6f67726170686572206f6e6c7900000000000000006044820152606401610123565b600080611613848601866121ba565b6000888152600160208190526040909120805493955091935084927fffffffffffffffffffffffffffffffffffffffffffffffffffffffffffffff00169083600381111561166357611663611e40565b02179055506000868152600260205260408120829184600381111561168a5761168a611e40565b600381111561169b5761169b611e40565b815260200190815260200160002090805190602001906116bc92919061194f565b5060019998505050505050505050565b60006116f67f4e5f991bca30eca2d4643aaefa807e88f96a4a97398933d572a3c0d973004a015490565b1561175d576040517f08c379a000000000000000000000000000000000000000000000000000000000815260206004820152601b60248201527f4552433732313a20616c726561647920696e697469616c697a656400000000006044820152606401610123565b337fe9fcff60011c1a99f7b7244d1f2d9da93d79ea8ef3654ce590d775575255b2bd8190557fb56711ba6bd3ded7639fc335ee7524fe668a79d7558c85992e3f8494cf7727775473ffffffffffffffffffffffffffffffffffffffff8116611821576040517f08c379a000000000000000000000000000000000000000000000000000000000815260206004820152601860248201527f484f4c4f47524150483a206f776e6572206e6f742073657400000000000000006044820152606401610123565b61184a60017f4e5f991bca30eca2d4643aaefa807e88f96a4a97398933d572a3c0d973004a0155565b507f4ddf47d4000000000000000000000000000000000000000000000000000000009392505050565b50805461187f90611ec7565b6000825580601f1061188f575050565b601f0160209004906000526020600020908101906105b891906119c3565b8280546118b990611ec7565b90600052602060002090601f0160209004810192826118db576000855561193f565b82601f10611912578280017fffffffffffffffffffffffffffffffffffffffffffffffffffffffffffffff0082351617855561193f565b8280016001018555821561193f579182015b8281111561193f578235825591602001919060010190611924565b5061194b9291506119c3565b5090565b82805461195b90611ec7565b90600052602060002090601f01602090048101928261197d576000855561193f565b82601f1061199657805160ff191683800117855561193f565b8280016001018555821561193f579182015b8281111561193f5782518255916020019190600101906119a8565b5b8082111561194b57600081556001016119c4565b6000602082840312156119ea57600080fd5b81357fffffffff000000000000000000000000000000000000000000000000000000008116811461064c57600080fd5b73ffffffffffffffffffffffffffffffffffffffff811681146105b857600080fd5b600060208284031215611a4e57600080fd5b813561064c81611a1a565b7f4e487b7100000000000000000000000000000000000000000000000000000000600052604160045260246000fd5b604051601f82017fffffffffffffffffffffffffffffffffffffffffffffffffffffffffffffffe016810167ffffffffffffffff81118282101715611acf57611acf611a59565b604052919050565b600067ffffffffffffffff821115611af157611af1611a59565b50601f017fffffffffffffffffffffffffffffffffffffffffffffffffffffffffffffffe01660200190565b6000611b30611b2b84611ad7565b611a88565b9050828152838383011115611b4457600080fd5b828260208301376000602084830101529392505050565b600060208284031215611b6d57600080fd5b813567ffffffffffffffff811115611b8457600080fd5b8201601f81018413611b9557600080fd5b611ba484823560208401611b1d565b949350505050565b803563ffffffff81168114610d6f57600080fd5b60008060008060808587031215611bd657600080fd5b611bdf85611bac565b93506020850135611bef81611a1a565b92506040850135611bff81611a1a565b9396929550929360600135925050565b60005b83811015611c2a578181015183820152602001611c12565b83811115611c39576000848401525b50505050565b60008151808452611c57816020860160208601611c0f565b601f017fffffffffffffffffffffffffffffffffffffffffffffffffffffffffffffffe0169290920160200192915050565b60208152600061064c6020830184611c3f565b60008060408385031215611caf57600080fd5b8235611cba81611a1a565b946020939093013593505050565b600060208284031215611cda57600080fd5b5035919050565b803560048110610d6f57600080fd5b60008083601f840112611d0257600080fd5b50813567ffffffffffffffff811115611d1a57600080fd5b602083019150836020828501011115611d3257600080fd5b9250929050565b60008060008060608587031215611d4f57600080fd5b84357bffffffffffffffffffffffffffffffffffffffffffffffffffffffff81168114611d7b57600080fd5b9350611d8960208601611ce1565b9250604085013567ffffffffffffffff811115611da557600080fd5b611db187828801611cf0565b95989497509550505050565b60008060008060008060a08789031215611dd657600080fd5b611ddf87611bac565b95506020870135611def81611a1a565b94506040870135611dff81611a1a565b935060608701359250608087013567ffffffffffffffff811115611e2257600080fd5b611e2e89828a01611cf0565b979a9699509497509295939492505050565b7f4e487b7100000000000000000000000000000000000000000000000000000000600052602160045260246000fd5b600060208284031215611e8157600080fd5b815161064c81611a1a565b60048110611ec3577f4e487b7100000000000000000000000000000000000000000000000000000000600052602160045260246000fd5b9052565b600181811c90821680611edb57607f821691505b602082108103611f14577f4e487b7100000000000000000000000000000000000000000000000000000000600052602260045260246000fd5b50919050565b611f248184611e8c565b6000602060408184015260008454611f3b81611ec7565b8060408701526060600180841660008114611f5d5760018114611f8f57611fbd565b7fffffffffffffffffffffffffffffffffffffffffffffffffffffffffffffff008516838a0152608089019550611fbd565b896000528660002060005b85811015611fb55781548b8201860152908301908801611f9a565b8a0184019650505b50939998505050505050505050565b60208101610a5c8284611e8c565b600060208284031215611fec57600080fd5b815167ffffffffffffffff81111561200357600080fd5b8201601f8101841361201457600080fd5b8051612022611b2b82611ad7565b81815285602083850101111561203757600080fd5b612048826020830160208601611c0f565b95945050505050565b6000835160206120648285838901611c0f565b81840191506000855461207681611ec7565b6001828116801561208e57600181146120bd576120e9565b7fffffffffffffffffffffffffffffffffffffffffffffffffffffffffffffff008416875282870194506120e9565b896000528560002060005b848110156120e1578154898201529083019087016120c8565b505082870194505b50929998505050505050505050565b60006020828403121561210a57600080fd5b5051919050565b7f4e487b7100000000000000000000000000000000000000000000000000000000600052601160045260246000fd5b60007bffffffffffffffffffffffffffffffffffffffffffffffffffffffff80831681851680830382111561217757612177612111565b01949350505050565b6000821982111561219357612193612111565b500190565b6000602082840312156121aa57600080fd5b8151801515811461064c57600080fd5b600080604083850312156121cd57600080fd5b6121d683611ce1565b9150602083013567ffffffffffffffff8111156121f257600080fd5b8301601f8101851361220357600080fd5b61221285823560208401611b1d565b915050925092905056fea164736f6c634300080d000a",
  "devdoc": {
    "author": "CXIP-Labs",
    "details": "The entire logic and functionality of the smart contract is self-contained.",
    "kind": "dev",
    "methods": {
      "constructor": {
        "details": "Constructor is left empty and init is used instead"
      },
      "init(bytes)": {
        "details": "This function is called by the deployer/factory when creating a contract",
        "params": {
          "initPayload": "abi encoded payload to use for contract initilaization"
        }
      },
      "owner()": {
        "details": "Address of initial creator/owner of the collection."
      },
      "tokenURI(uint256)": {
        "returns": {
          "_0": "string The URI."
        }
      }
    },
    "stateVariables": {
      "_currentTokenId": {
        "details": "Internal reference used for minting incremental token ids."
      },
      "_tokenURIs": {
        "details": "Mapping of IPFS URIs for tokenIds."
      },
      "_tokenUriType": {
        "details": "Enum mapping of type of token URI to use for specific tokenId."
      },
      "_uriType": {
        "details": "Enum of type of token URI to use globally for the entire contract."
      }
    },
    "title": "CXIP ERC-721 Collection that is bridgeable via Holograph",
    "version": 1
  },
  "userdoc": {
    "kind": "user",
    "methods": {
      "init(bytes)": {
        "notice": "Used internally to initialize the contract instead of through a constructor"
      },
      "tokenURI(uint256)": {
        "notice": "Get's the URI of the token."
      }
    },
    "notice": "A smart contract for minting and managing Holograph Bridgeable ERC721 NFTs.",
    "version": 1
  },
  "storageLayout": {
    "storage": [
      {
        "astId": 22418,
        "contract": "contracts/token/CxipERC721.sol:CxipERC721",
        "label": "_currentTokenId",
        "offset": 0,
        "slot": "0",
        "type": "t_uint224"
      },
      {
        "astId": 22422,
        "contract": "contracts/token/CxipERC721.sol:CxipERC721",
        "label": "_uriType",
        "offset": 28,
        "slot": "0",
        "type": "t_enum(TokenUriType)13621"
      },
      {
        "astId": 22428,
        "contract": "contracts/token/CxipERC721.sol:CxipERC721",
        "label": "_tokenUriType",
        "offset": 0,
        "slot": "1",
        "type": "t_mapping(t_uint256,t_enum(TokenUriType)13621)"
      },
      {
        "astId": 22436,
        "contract": "contracts/token/CxipERC721.sol:CxipERC721",
        "label": "_tokenURIs",
        "offset": 0,
        "slot": "2",
        "type": "t_mapping(t_uint256,t_mapping(t_enum(TokenUriType)13621,t_string_storage))"
      }
    ],
    "types": {
      "t_enum(TokenUriType)13621": {
        "encoding": "inplace",
        "label": "enum TokenUriType",
        "numberOfBytes": "1"
      },
      "t_mapping(t_enum(TokenUriType)13621,t_string_storage)": {
        "encoding": "mapping",
        "key": "t_enum(TokenUriType)13621",
        "label": "mapping(enum TokenUriType => string)",
        "numberOfBytes": "32",
        "value": "t_string_storage"
      },
      "t_mapping(t_uint256,t_enum(TokenUriType)13621)": {
        "encoding": "mapping",
        "key": "t_uint256",
        "label": "mapping(uint256 => enum TokenUriType)",
        "numberOfBytes": "32",
        "value": "t_enum(TokenUriType)13621"
      },
      "t_mapping(t_uint256,t_mapping(t_enum(TokenUriType)13621,t_string_storage))": {
        "encoding": "mapping",
        "key": "t_uint256",
        "label": "mapping(uint256 => mapping(enum TokenUriType => string))",
        "numberOfBytes": "32",
        "value": "t_mapping(t_enum(TokenUriType)13621,t_string_storage)"
      },
      "t_string_storage": {
        "encoding": "bytes",
        "label": "string",
        "numberOfBytes": "32"
      },
      "t_uint224": {
        "encoding": "inplace",
        "label": "uint224",
        "numberOfBytes": "28"
      },
      "t_uint256": {
        "encoding": "inplace",
        "label": "uint256",
        "numberOfBytes": "32"
      }
    }
  }
}