{
  "address": "0x25A75D637d02D6C604aCb7d9F39D3C52a5FC899B",
  "abi": [
    {
      "inputs": [],
      "stateMutability": "nonpayable",
      "type": "constructor"
    },
    {
      "anonymous": false,
      "inputs": [
        {
          "indexed": false,
          "internalType": "bytes32",
          "name": "jobHash",
          "type": "bytes32"
        },
        {
          "indexed": false,
          "internalType": "bytes",
          "name": "payload",
          "type": "bytes"
        }
      ],
      "name": "AvailableOperatorJob",
      "type": "event"
    },
    {
      "anonymous": false,
      "inputs": [
        {
          "indexed": false,
          "internalType": "bytes32",
          "name": "messageHash",
          "type": "bytes32"
        }
      ],
      "name": "CrossChainMessageSent",
      "type": "event"
    },
    {
      "anonymous": false,
      "inputs": [
        {
          "indexed": false,
          "internalType": "bytes32",
          "name": "jobHash",
          "type": "bytes32"
        }
      ],
      "name": "FailedOperatorJob",
      "type": "event"
    },
    {
      "anonymous": false,
      "inputs": [
        {
          "indexed": false,
          "internalType": "bytes32",
          "name": "jobHash",
          "type": "bytes32"
        },
        {
          "indexed": false,
          "internalType": "address",
          "name": "operator",
          "type": "address"
        }
      ],
      "name": "FinishedOperatorJob",
      "type": "event"
    },
    {
      "stateMutability": "payable",
      "type": "fallback"
    },
    {
      "inputs": [],
      "name": "admin",
      "outputs": [
        {
          "internalType": "address",
          "name": "",
          "type": "address"
        }
      ],
      "stateMutability": "view",
      "type": "function"
    },
    {
      "inputs": [
        {
          "internalType": "address",
          "name": "target",
          "type": "address"
        },
        {
          "internalType": "bytes",
          "name": "data",
          "type": "bytes"
        }
      ],
      "name": "adminCall",
      "outputs": [],
      "stateMutability": "payable",
      "type": "function"
    },
    {
      "inputs": [
        {
          "internalType": "address",
          "name": "operator",
          "type": "address"
        },
        {
          "internalType": "uint256",
          "name": "amount",
          "type": "uint256"
        },
        {
          "internalType": "uint256",
          "name": "pod",
          "type": "uint256"
        }
      ],
      "name": "bondUtilityToken",
      "outputs": [],
      "stateMutability": "nonpayable",
      "type": "function"
    },
    {
      "inputs": [
        {
          "internalType": "bytes",
          "name": "bridgeInRequestPayload",
          "type": "bytes"
        }
      ],
      "name": "crossChainMessage",
      "outputs": [],
      "stateMutability": "payable",
      "type": "function"
    },
    {
      "inputs": [
        {
          "internalType": "bytes",
          "name": "bridgeInRequestPayload",
          "type": "bytes"
        }
      ],
      "name": "executeJob",
      "outputs": [],
      "stateMutability": "payable",
      "type": "function"
    },
    {
      "inputs": [],
      "name": "getAdmin",
      "outputs": [
        {
          "internalType": "address",
          "name": "adminAddress",
          "type": "address"
        }
      ],
      "stateMutability": "view",
      "type": "function"
    },
    {
      "inputs": [
        {
          "internalType": "address",
          "name": "operator",
          "type": "address"
        }
      ],
      "name": "getBondedAmount",
      "outputs": [
        {
          "internalType": "uint256",
          "name": "amount",
          "type": "uint256"
        }
      ],
      "stateMutability": "view",
      "type": "function"
    },
    {
      "inputs": [
        {
          "internalType": "address",
          "name": "operator",
          "type": "address"
        }
      ],
      "name": "getBondedPod",
      "outputs": [
        {
          "internalType": "uint256",
          "name": "pod",
          "type": "uint256"
        }
      ],
      "stateMutability": "view",
      "type": "function"
    },
    {
      "inputs": [
        {
          "internalType": "address",
          "name": "operator",
          "type": "address"
        }
      ],
      "name": "getBondedPodIndex",
      "outputs": [
        {
          "internalType": "uint256",
          "name": "index",
          "type": "uint256"
        }
      ],
      "stateMutability": "view",
      "type": "function"
    },
    {
      "inputs": [],
      "name": "getBridge",
      "outputs": [
        {
          "internalType": "address",
          "name": "bridge",
          "type": "address"
        }
      ],
      "stateMutability": "view",
      "type": "function"
    },
    {
      "inputs": [],
      "name": "getHolograph",
      "outputs": [
        {
          "internalType": "address",
          "name": "holograph",
          "type": "address"
        }
      ],
      "stateMutability": "view",
      "type": "function"
    },
    {
      "inputs": [],
      "name": "getInterfaces",
      "outputs": [
        {
          "internalType": "address",
          "name": "interfaces",
          "type": "address"
        }
      ],
      "stateMutability": "view",
      "type": "function"
    },
    {
      "inputs": [
        {
          "internalType": "bytes32",
          "name": "jobHash",
          "type": "bytes32"
        }
      ],
      "name": "getJobDetails",
      "outputs": [
        {
          "components": [
            {
              "internalType": "uint8",
              "name": "pod",
              "type": "uint8"
            },
            {
              "internalType": "uint16",
              "name": "blockTimes",
              "type": "uint16"
            },
            {
              "internalType": "address",
              "name": "operator",
              "type": "address"
            },
            {
              "internalType": "uint40",
              "name": "startBlock",
              "type": "uint40"
            },
            {
              "internalType": "uint64",
              "name": "startTimestamp",
              "type": "uint64"
            },
            {
              "internalType": "uint16[5]",
              "name": "fallbackOperators",
              "type": "uint16[5]"
            }
          ],
          "internalType": "struct OperatorJob",
          "name": "",
          "type": "tuple"
        }
      ],
      "stateMutability": "view",
      "type": "function"
    },
    {
      "inputs": [
        {
          "internalType": "uint32",
          "name": "",
          "type": "uint32"
        },
        {
          "internalType": "uint256",
          "name": "",
          "type": "uint256"
        },
        {
          "internalType": "uint256",
          "name": "",
          "type": "uint256"
        },
        {
          "internalType": "bytes",
          "name": "",
          "type": "bytes"
        }
      ],
      "name": "getMessageFee",
      "outputs": [
        {
          "internalType": "uint256",
          "name": "",
          "type": "uint256"
        },
        {
          "internalType": "uint256",
          "name": "",
          "type": "uint256"
        },
        {
          "internalType": "uint256",
          "name": "",
          "type": "uint256"
        }
      ],
      "stateMutability": "view",
      "type": "function"
    },
    {
      "inputs": [],
      "name": "getMessagingModule",
      "outputs": [
        {
          "internalType": "address",
          "name": "messagingModule",
          "type": "address"
        }
      ],
      "stateMutability": "view",
      "type": "function"
    },
    {
      "inputs": [],
      "name": "getMinGasPrice",
      "outputs": [
        {
          "internalType": "uint256",
          "name": "minGasPrice",
          "type": "uint256"
        }
      ],
      "stateMutability": "view",
      "type": "function"
    },
    {
      "inputs": [
        {
          "internalType": "uint256",
          "name": "pod",
          "type": "uint256"
        }
      ],
      "name": "getPodBondAmounts",
      "outputs": [
        {
          "internalType": "uint256",
          "name": "base",
          "type": "uint256"
        },
        {
          "internalType": "uint256",
          "name": "current",
          "type": "uint256"
        }
      ],
      "stateMutability": "view",
      "type": "function"
    },
    {
      "inputs": [
        {
          "internalType": "uint256",
          "name": "pod",
          "type": "uint256"
        },
        {
          "internalType": "uint256",
          "name": "index",
          "type": "uint256"
        },
        {
          "internalType": "uint256",
          "name": "length",
          "type": "uint256"
        }
      ],
      "name": "getPodOperators",
      "outputs": [
        {
          "internalType": "address[]",
          "name": "operators",
          "type": "address[]"
        }
      ],
      "stateMutability": "view",
      "type": "function"
    },
    {
      "inputs": [
        {
          "internalType": "uint256",
          "name": "pod",
          "type": "uint256"
        }
      ],
      "name": "getPodOperators",
      "outputs": [
        {
          "internalType": "address[]",
          "name": "operators",
          "type": "address[]"
        }
      ],
      "stateMutability": "view",
      "type": "function"
    },
    {
      "inputs": [
        {
          "internalType": "uint256",
          "name": "pod",
          "type": "uint256"
        }
      ],
      "name": "getPodOperatorsLength",
      "outputs": [
        {
          "internalType": "uint256",
          "name": "",
          "type": "uint256"
        }
      ],
      "stateMutability": "view",
      "type": "function"
    },
    {
      "inputs": [],
      "name": "getRegistry",
      "outputs": [
        {
          "internalType": "address",
          "name": "registry",
          "type": "address"
        }
      ],
      "stateMutability": "view",
      "type": "function"
    },
    {
      "inputs": [],
      "name": "getTotalPods",
      "outputs": [
        {
          "internalType": "uint256",
          "name": "totalPods",
          "type": "uint256"
        }
      ],
      "stateMutability": "view",
      "type": "function"
    },
    {
      "inputs": [],
      "name": "getUtilityToken",
      "outputs": [
        {
          "internalType": "address",
          "name": "utilityToken",
          "type": "address"
        }
      ],
      "stateMutability": "view",
      "type": "function"
    },
    {
      "inputs": [
        {
          "internalType": "bytes",
          "name": "initPayload",
          "type": "bytes"
        }
      ],
      "name": "init",
      "outputs": [
        {
          "internalType": "bytes4",
          "name": "",
          "type": "bytes4"
        }
      ],
      "stateMutability": "nonpayable",
      "type": "function"
    },
    {
      "inputs": [
        {
          "internalType": "bytes",
          "name": "bridgeInRequestPayload",
          "type": "bytes"
        }
      ],
      "name": "jobEstimator",
      "outputs": [
        {
          "internalType": "uint256",
          "name": "",
          "type": "uint256"
        }
      ],
      "stateMutability": "payable",
      "type": "function"
    },
    {
      "inputs": [
        {
          "internalType": "address",
          "name": "msgSender",
          "type": "address"
        },
        {
          "internalType": "bytes",
          "name": "payload",
          "type": "bytes"
        }
      ],
      "name": "nonRevertingBridgeCall",
      "outputs": [],
      "stateMutability": "payable",
      "type": "function"
    },
    {
      "inputs": [
        {
          "internalType": "uint256",
          "name": "gasLimit",
          "type": "uint256"
        },
        {
          "internalType": "uint256",
          "name": "gasPrice",
          "type": "uint256"
        },
        {
          "internalType": "uint32",
          "name": "toChain",
          "type": "uint32"
        },
        {
          "internalType": "address",
          "name": "msgSender",
          "type": "address"
        },
        {
          "internalType": "uint256",
          "name": "nonce",
          "type": "uint256"
        },
        {
          "internalType": "address",
          "name": "holographableContract",
          "type": "address"
        },
        {
          "internalType": "bytes",
          "name": "bridgeOutPayload",
          "type": "bytes"
        }
      ],
      "name": "send",
      "outputs": [],
      "stateMutability": "payable",
      "type": "function"
    },
    {
      "inputs": [
        {
          "internalType": "address",
          "name": "adminAddress",
          "type": "address"
        }
      ],
      "name": "setAdmin",
      "outputs": [],
      "stateMutability": "nonpayable",
      "type": "function"
    },
    {
      "inputs": [
        {
          "internalType": "address",
          "name": "bridge",
          "type": "address"
        }
      ],
      "name": "setBridge",
      "outputs": [],
      "stateMutability": "nonpayable",
      "type": "function"
    },
    {
      "inputs": [
        {
          "internalType": "address",
          "name": "holograph",
          "type": "address"
        }
      ],
      "name": "setHolograph",
      "outputs": [],
      "stateMutability": "nonpayable",
      "type": "function"
    },
    {
      "inputs": [
        {
          "internalType": "address",
          "name": "interfaces",
          "type": "address"
        }
      ],
      "name": "setInterfaces",
      "outputs": [],
      "stateMutability": "nonpayable",
      "type": "function"
    },
    {
      "inputs": [
        {
          "internalType": "address",
          "name": "messagingModule",
          "type": "address"
        }
      ],
      "name": "setMessagingModule",
      "outputs": [],
      "stateMutability": "nonpayable",
      "type": "function"
    },
    {
      "inputs": [
        {
          "internalType": "uint256",
          "name": "minGasPrice",
          "type": "uint256"
        }
      ],
      "name": "setMinGasPrice",
      "outputs": [],
      "stateMutability": "nonpayable",
      "type": "function"
    },
    {
      "inputs": [
        {
          "internalType": "address",
          "name": "registry",
          "type": "address"
        }
      ],
      "name": "setRegistry",
      "outputs": [],
      "stateMutability": "nonpayable",
      "type": "function"
    },
    {
      "inputs": [
        {
          "internalType": "address",
          "name": "utilityToken",
          "type": "address"
        }
      ],
      "name": "setUtilityToken",
      "outputs": [],
      "stateMutability": "nonpayable",
      "type": "function"
    },
    {
      "inputs": [
        {
          "internalType": "address",
          "name": "operator",
          "type": "address"
        },
        {
          "internalType": "uint256",
          "name": "amount",
          "type": "uint256"
        }
      ],
      "name": "topupUtilityToken",
      "outputs": [],
      "stateMutability": "nonpayable",
      "type": "function"
    },
    {
      "inputs": [
        {
          "internalType": "address",
          "name": "operator",
          "type": "address"
        },
        {
          "internalType": "address",
          "name": "recipient",
          "type": "address"
        }
      ],
      "name": "unbondUtilityToken",
      "outputs": [],
      "stateMutability": "nonpayable",
      "type": "function"
    },
    {
      "stateMutability": "payable",
      "type": "receive"
    }
  ],
  "transactionHash": "0xfd44cdaa09480e41043455a9df048315257ef6f9658d52b53f9b3e02da23d020",
  "args": [],
  "numDeployments": 3,
  "solcInputHash": "88c9fc284c215f4ee5e9c8a750f4b492",
  "bytecode": "0x608060405234801561001057600080fd5b50614a00806100206000396000f3fe60806040526004361061026d5760003560e01c80636e9960c31161015357806390ac1866116100cb578063d2197bd31161007f578063ebac15f911610064578063ebac15f9146107eb578063f851a4401461081f578063ff1370d91461083457600080fd5b8063d2197bd3146107b6578063da8292d9146107cb57600080fd5b8063a91ee0dc116100b0578063a91ee0dc14610770578063b24b2afc14610790578063bf64a82d146107a357600080fd5b806390ac18661461070d57806391e0d46b1461072d57600080fd5b80637868674d116101225780638dd14802116101075780638dd148021461068a5780639013ae08146106aa578063905eceed146106ca57600080fd5b80637868674d1461064a5780638b432e4e1461066a57600080fd5b80636e9960c3146105a0578063704b6c02146105d4578063761b48ec146105f4578063778fd1d11461063757600080fd5b80633fb58819116101e6578063493b07ef116101b55780635ab1bd531161019a5780635ab1bd5314610539578063612a33721461056d578063696af2bf1461058d57600080fd5b8063493b07ef146104b35780634ddf47d4146104e857600080fd5b80633fb5881914610404578063409aad69146104385780634827ae0c1461044b57806348dfc8b71461047f57600080fd5b806321cb8f371161023d57806325d5cac81161022257806325d5cac81461039757806327aa01f5146103b75780632b4a75b4146103e457600080fd5b806321cb8f3714610362578063254e10621461038457600080fd5b8062626679146102795780630b239c4e146102d35780630fffbaf31461030157806311a33bda1461033557600080fd5b3661027457005b600080fd5b34801561028557600080fd5b507fbf76518d46db472b71aa7677a0908b8016f3dee568415ffa24055f9a670f9c37545b60405173ffffffffffffffffffffffffffffffffffffffff90911681526020015b60405180910390f35b3480156102df57600080fd5b506102f36102ee366004613ed9565b61086f565b6040519081526020016102ca565b34801561030d57600080fd5b507feb87cbb21687feb327e3d58c6c16d552231d12c7a0e8115042a4165fac8a77f9546102a9565b34801561034157600080fd5b50610355610350366004613ed9565b610912565b6040516102ca9190613ef2565b34801561036e57600080fd5b5061038261037d366004613fb1565b6109eb565b005b610382610392366004614026565b610bcf565b3480156103a357600080fd5b506103826103b2366004614068565b611002565b3480156103c357600080fd5b506103d76103d2366004614085565b6110dc565b6040516102ca91906140b1565b3480156103f057600080fd5b506103826103ff366004614068565b61129f565b34801561041057600080fd5b507f264d744422f7427cd080572c35c848b6cd3a36da6b47519af89ef13098b12fc0546102f3565b61038261044636600461411d565b611379565b34801561045757600080fd5b507fb4107f746e9496e8452accc7de63d1c5e14c19f510932daa04077cd49e8bd77a546102a9565b34801561048b57600080fd5b507f54176250282e65985d205704ffce44a59efe61f7afd99e29fda50f55b48c061a546102a9565b3480156104bf57600080fd5b506104d36104ce366004613ed9565b611985565b604080519283526020830191909152016102ca565b3480156104f457600080fd5b506105086105033660046141e4565b6119b7565b6040517fffffffff0000000000000000000000000000000000000000000000000000000090911681526020016102ca565b34801561054557600080fd5b507fce8e75d5c5227ce29a4ee170160bb296e5dea6934b80a9bd723f7ef1e7c850e7546102a9565b34801561057957600080fd5b506103826105883660046142b3565b611c3f565b61038261059b3660046142ec565b611ff6565b3480156105ac57600080fd5b507f3f106594dc74eeef980dae234cde8324dc2497b13d27a0c59e55bd2ca10a07c9546102a9565b3480156105e057600080fd5b506103826105ef366004614068565b6120a7565b34801561060057600080fd5b506102f361060f366004614068565b73ffffffffffffffffffffffffffffffffffffffff166000908152600e602052604090205490565b610382610645366004614026565b612181565b34801561065657600080fd5b506103d7610665366004613ed9565b612cfe565b34801561067657600080fd5b50610382610685366004614341565b612e01565b34801561069657600080fd5b506103826106a5366004614068565b61336b565b3480156106b657600080fd5b506103826106c5366004614068565b613445565b3480156106d657600080fd5b506102f36106e5366004614068565b73ffffffffffffffffffffffffffffffffffffffff166000908152600d602052604090205490565b34801561071957600080fd5b50610382610728366004613ed9565b61351f565b34801561073957600080fd5b506102f3610748366004614068565b73ffffffffffffffffffffffffffffffffffffffff166000908152600c602052604090205490565b34801561077c57600080fd5b5061038261078b366004614068565b6135f9565b6102f361079e366004614026565b6136d3565b6103826107b13660046142ec565b61372d565b3480156107c257600080fd5b50600b546102f3565b3480156107d757600080fd5b506103826107e6366004614068565b613808565b3480156107f757600080fd5b507fbd3084b8c09da87ad159c247a60e209784196be2530cecbbd8f337fdd1848827546102a9565b34801561082b57600080fd5b506102a96138e2565b34801561084057600080fd5b5061085461084f366004614376565b613911565b604080519384526020840192909252908201526060016102ca565b600b546000908211156108e3576040517f08c379a000000000000000000000000000000000000000000000000000000000815260206004820152601d60248201527f484f4c4f47524150483a20706f6420646f6573206e6f7420657869737400000060448201526064015b60405180910390fd5b600b6108f060018461440f565b8154811061090057610900614426565b60009182526020909120015492915050565b61091a613d4f565b50600090815260076020908152604080832054815160c08101835260f882901c8152845461ffff9081168286015263ffffffff60d884901c16865260098552948390205473ffffffffffffffffffffffffffffffffffffffff168184015264ffffffffff60b083901c1660608083019190915267ffffffffffffffff601084901c16608080840191909152845160a0818101875285811c89168252609086901c89169782019790975284821c881695810195909552607084901c87168583015292901c909416908201529082015290565b73ffffffffffffffffffffffffffffffffffffffff82166000908152600c60205260408120549003610a79576040517f08c379a000000000000000000000000000000000000000000000000000000000815260206004820152601e60248201527f484f4c4f47524150483a206f70657261746f72206e6f7420626f6e646564000060448201526064016108da565b73ffffffffffffffffffffffffffffffffffffffff82166000908152600e602052604090208054820190557fbf76518d46db472b71aa7677a0908b8016f3dee568415ffa24055f9a670f9c37546040517f23b872dd0000000000000000000000000000000000000000000000000000000081523360048201523060248201526044810183905273ffffffffffffffffffffffffffffffffffffffff91909116906323b872dd906064016020604051808303816000875af1158015610b41573d6000803e3d6000fd5b505050506040513d601f19601f82011682018060405250810190610b659190614455565b610bcb576040517f08c379a000000000000000000000000000000000000000000000000000000000815260206004820181905260248201527f484f4c4f47524150483a20746f6b656e207472616e73666572206661696c656460448201526064016108da565b5050565b7f54176250282e65985d205704ffce44a59efe61f7afd99e29fda50f55b48c061a5473ffffffffffffffffffffffffffffffffffffffff163373ffffffffffffffffffffffffffffffffffffffff1614610c85576040517f08c379a000000000000000000000000000000000000000000000000000000000815260206004820152601e60248201527f484f4c4f47524150483a206d6573736167696e67206f6e6c792063616c6c000060448201526064016108da565b7fffffffffffffffffffffffffffffffffffffffffffffffffffffffffffffffe082820101356000610cd57f264d744422f7427cd080572c35c848b6cd3a36da6b47519af89ef13098b12fc05490565b8210905060008484604051610ceb929190614477565b604051908190039020600a805463ffffffff808216600101167fffffffffffffffffffffffffffffffffffffffffffffffffffffffff000000009091161790559050600081610d607f1cda64803f3b43503042e00863791e8d996666552d5855a78d53ee1dd4b3286d80546001019081905590565b60408051602081019390935282015243606082015242608082015260a001604080517fffffffffffffffffffffffffffffffffffffffffffffffffffffffffffffffe08184030181529190528051602090910120600b549091506000908281610dcb57610dcb614487565b0690506000600b8281548110610de357610de3614426565b6000918252602082200154915085610e0a57818481610e0457610e04614487565b06610e0d565b60005b9050600b8381548110610e2257610e22614426565b906000526020600020018181548110610e3d57610e3d614426565b6000918252602080832090910154600a5463ffffffff1683526009909152604090912080547fffffffffffffffffffffffff00000000000000000000000000000000000000001673ffffffffffffffffffffffffffffffffffffffff909216919091179055610eac8382613956565b6001821115610edb577fffffffffffffffffffffffffffffffffffffffffffffffffffffffffffffffff909101905b4260101b606087610ef757610ef286856005613c14565b610efa565b60005b901b607088610f1457610f0f87866004613c14565b610f17565b60005b901b608089610f3157610f2c88876003613c14565b610f34565b60005b901b60908a610f4e57610f4989886002613c14565b610f51565b60005b901b60a08b610f6b57610f668a896001613c14565b610f6e565b60005b901b60b043901b60d8600a60009054906101000a900463ffffffff1663ffffffff16901b60f88b600101901b171717171717171760001760076000878152602001908152602001600020819055507f4422a85db963f113e500bc4ada8f9e9f1a7bcd57cbec6907fbb2bf6aaf5878ff858a8a604051610fef939291906144ff565b60405180910390a1505050505050505050565b7f3f106594dc74eeef980dae234cde8324dc2497b13d27a0c59e55bd2ca10a07c95473ffffffffffffffffffffffffffffffffffffffff163373ffffffffffffffffffffffffffffffffffffffff16146110b8576040517f08c379a000000000000000000000000000000000000000000000000000000000815260206004820152601e60248201527f484f4c4f47524150483a2061646d696e206f6e6c792066756e6374696f6e000060448201526064016108da565b7fb4107f746e9496e8452accc7de63d1c5e14c19f510932daa04077cd49e8bd77a55565b600b5460609084111561114b576040517f08c379a000000000000000000000000000000000000000000000000000000000815260206004820152601d60248201527f484f4c4f47524150483a20706f6420646f6573206e6f7420657869737400000060448201526064016108da565b8361115581614522565b9450506000600b858154811061116d5761116d614426565b6000918252602090912001549050806111868486614557565b111561119957611196848261440f565b92505b8267ffffffffffffffff8111156111b2576111b26141b5565b6040519080825280602002602001820160405280156111db578160200160208202803683370190505b50915060005b8381101561129657600b86815481106111fc576111fc614426565b9060005260206000200181866112129190614557565b8154811061122257611222614426565b9060005260206000200160009054906101000a900473ffffffffffffffffffffffffffffffffffffffff1683828151811061125f5761125f614426565b73ffffffffffffffffffffffffffffffffffffffff909216602092830291909101909101528061128e8161456f565b9150506111e1565b50509392505050565b7f3f106594dc74eeef980dae234cde8324dc2497b13d27a0c59e55bd2ca10a07c95473ffffffffffffffffffffffffffffffffffffffff163373ffffffffffffffffffffffffffffffffffffffff1614611355576040517f08c379a000000000000000000000000000000000000000000000000000000000815260206004820152601e60248201527f484f4c4f47524150483a2061646d696e206f6e6c792066756e6374696f6e000060448201526064016108da565b7f54176250282e65985d205704ffce44a59efe61f7afd99e29fda50f55b48c061a55565b7feb87cbb21687feb327e3d58c6c16d552231d12c7a0e8115042a4165fac8a77f95473ffffffffffffffffffffffffffffffffffffffff163373ffffffffffffffffffffffffffffffffffffffff161461142f576040517f08c379a000000000000000000000000000000000000000000000000000000000815260206004820152601b60248201527f484f4c4f47524150483a20627269646765206f6e6c792063616c6c000000000060448201526064016108da565b60006114597f54176250282e65985d205704ffce44a59efe61f7afd99e29fda50f55b48c061a5490565b6040517f28ee41a500000000000000000000000000000000000000000000000000000000815263ffffffff89166004820152602481018b9052604481018a90526064810184905290915060009073ffffffffffffffffffffffffffffffffffffffff8316906328ee41a590608401602060405180830381865afa1580156114e4573d6000803e3d6000fd5b505050506040513d601f19601f8201168201806040525081019061150891906145a7565b905060006115347fce8e75d5c5227ce29a4ee170160bb296e5dea6934b80a9bd723f7ef1e7c850e75490565b73ffffffffffffffffffffffffffffffffffffffff1663949d53a76115777fb4107f746e9496e8452accc7de63d1c5e14c19f510932daa04077cd49e8bd77a5490565b73ffffffffffffffffffffffffffffffffffffffff1663381b5f466040518163ffffffff1660e01b8152600401602060405180830381865afa1580156115c1573d6000803e3d6000fd5b505050506040513d601f19601f820116820180604052508101906115e591906145c0565b6040517fffffffff0000000000000000000000000000000000000000000000000000000060e084901b16815263ffffffff919091166004820152602401602060405180830381865afa15801561163f573d6000803e3d6000fd5b505050506040513d601f19601f8201168201806040525081019061166391906145dd565b90503482106116ce576040517f08c379a000000000000000000000000000000000000000000000000000000000815260206004820152601b60248201527f484f4c4f47524150483a206e6f7420656e6f7567682076616c7565000000000060448201526064016108da565b60405173ffffffffffffffffffffffffffffffffffffffff82169083156108fc029084906000818181858888f19350505050158015611711573d6000803e3d6000fd5b5060007f16f1be70000000000000000000000000000000000000000000000000000000008861175e7fb4107f746e9496e8452accc7de63d1c5e14c19f510932daa04077cd49e8bd77a5490565b73ffffffffffffffffffffffffffffffffffffffff1663381b5f466040518163ffffffff1660e01b8152600401602060405180830381865afa1580156117a8573d6000803e3d6000fd5b505050506040513d601f19601f820116820180604052508101906117cc91906145c0565b898560008860018d8d6040516024016117ed999897969594939291906145fa565b604080517fffffffffffffffffffffffffffffffffffffffffffffffffffffffffffffffe0818403018152918152602080830180517bffffffffffffffffffffffffffffffffffffffffffffffffffffffff167fffffffff00000000000000000000000000000000000000000000000000000000909516949094179093525190925061187f9183918f918f9101614699565b604080517fffffffffffffffffffffffffffffffffffffffffffffffffffffffffffffffe0818403018152919052905073ffffffffffffffffffffffffffffffffffffffff8416630a0542ef6118d5853461440f565b8e8e8e8e6118e38a3461440f565b886040518863ffffffff1660e01b8152600401611905969594939291906146c0565b6000604051808303818588803b15801561191e57600080fd5b505af1158015611932573d6000803e3d6000fd5b50505050507f0f5759b4182507dcfc771071166f98d7ca331262e5134eaa74b676adce2138b7818051906020012060405161196f91815260200190565b60405180910390a1505050505050505050505050565b60008061199b61199660018561440f565b613c34565b91506119b06119ab60018561440f565b613c57565b9050915091565b60006119e17f4e5f991bca30eca2d4643aaefa807e88f96a4a97398933d572a3c0d973004a015490565b15611a48576040517f08c379a000000000000000000000000000000000000000000000000000000000815260206004820152601e60248201527f484f4c4f47524150483a20616c726561647920696e697469616c697a6564000060448201526064016108da565b60008060008060008087806020019051810190611a659190614750565b327f3f106594dc74eeef980dae234cde8324dc2497b13d27a0c59e55bd2ca10a07c9557feb87cbb21687feb327e3d58c6c16d552231d12c7a0e8115042a4165fac8a77f98690557fb4107f746e9496e8452accc7de63d1c5e14c19f510932daa04077cd49e8bd77a8590557fbd3084b8c09da87ad159c247a60e209784196be2530cecbbd8f337fdd18488278490557fce8e75d5c5227ce29a4ee170160bb296e5dea6934b80a9bd723f7ef1e7c850e78390557fbf76518d46db472b71aa7677a0908b8016f3dee568415ffa24055f9a670f9c378290557f264d744422f7427cd080572c35c848b6cd3a36da6b47519af89ef13098b12fc0819055603c600090815568056bc75e2d631000006001908155600280556103e8600355600a60045560646005556040805180820190915260208101928352918252969c50949a5092985090965094509250611bbb91600b9190613d8b565b5060008052600c60205260017f13649b2456f1b42fef0f0040b3aaeabcd21a76a0f3f5defd4f583839455116e855611c1260017f4e5f991bca30eca2d4643aaefa807e88f96a4a97398933d572a3c0d973004a0155565b507f4ddf47d400000000000000000000000000000000000000000000000000000000979650505050505050565b73ffffffffffffffffffffffffffffffffffffffff82166000908152600c60205260408120549003611ccd576040517f08c379a000000000000000000000000000000000000000000000000000000000815260206004820152601e60248201527f484f4c4f47524150483a206f70657261746f72206e6f7420626f6e646564000060448201526064016108da565b3373ffffffffffffffffffffffffffffffffffffffff831614611e5c57611cf382613d15565b611d59576040517f08c379a000000000000000000000000000000000000000000000000000000000815260206004820181905260248201527f484f4c4f47524150483a206f70657261746f72206e6f7420636f6e747261637460448201526064016108da565b3373ffffffffffffffffffffffffffffffffffffffff168273ffffffffffffffffffffffffffffffffffffffff16638da5cb5b6040518163ffffffff1660e01b8152600401602060405180830381865afa158015611dbb573d6000803e3d6000fd5b505050506040513d601f19601f82011682018060405250810190611ddf91906145dd565b73ffffffffffffffffffffffffffffffffffffffff1614611e5c576040517f08c379a000000000000000000000000000000000000000000000000000000000815260206004820152601b60248201527f484f4c4f47524150483a2073656e646572206e6f74206f776e6572000000000060448201526064016108da565b73ffffffffffffffffffffffffffffffffffffffff82166000908152600e60209081526040808320805490849055600c90925290912054611ece90611ea39060019061440f565b73ffffffffffffffffffffffffffffffffffffffff85166000908152600d6020526040902054613956565b7fbf76518d46db472b71aa7677a0908b8016f3dee568415ffa24055f9a670f9c37546040517fa9059cbb00000000000000000000000000000000000000000000000000000000815273ffffffffffffffffffffffffffffffffffffffff848116600483015260248201849052919091169063a9059cbb906044016020604051808303816000875af1158015611f67573d6000803e3d6000fd5b505050506040513d601f19601f82011682018060405250810190611f8b9190614455565b611ff1576040517f08c379a000000000000000000000000000000000000000000000000000000000815260206004820181905260248201527f484f4c4f47524150483a20746f6b656e207472616e73666572206661696c656460448201526064016108da565b505050565b33301461205f576040517f08c379a000000000000000000000000000000000000000000000000000000000815260206004820152601d60248201527f484f4c4f47524150483a206f70657261746f72206f6e6c792063616c6c00000060448201526064016108da565b602081038260003782608452600080604083036000347feb87cbb21687feb327e3d58c6c16d552231d12c7a0e8115042a4165fac8a77f9546040870351f18061038257600080fd5b7f3f106594dc74eeef980dae234cde8324dc2497b13d27a0c59e55bd2ca10a07c95473ffffffffffffffffffffffffffffffffffffffff163373ffffffffffffffffffffffffffffffffffffffff161461215d576040517f08c379a000000000000000000000000000000000000000000000000000000000815260206004820152601e60248201527f484f4c4f47524150483a2061646d696e206f6e6c792066756e6374696f6e000060448201526064016108da565b7f3f106594dc74eeef980dae234cde8324dc2497b13d27a0c59e55bd2ca10a07c955565b60008282604051612193929190614477565b60405180910390209050600060076000838152602001908152602001600020541161221a576040517f08c379a000000000000000000000000000000000000000000000000000000000815260206004820152601660248201527f484f4c4f47524150483a20696e76616c6964206a6f620000000000000000000060448201526064016108da565b8183017fffffffffffffffffffffffffffffffffffffffffffffffffffffffffffffffc0810135907fffffffffffffffffffffffffffffffffffffffffffffffffffffffffffffffe00135600061227084610912565b6000858152600760209081526040808320839055338352600e90915290819020549082015191925015159073ffffffffffffffffffffffffffffffffffffffff1615612a285781516000906122c7906001906147cd565b60ff1690503373ffffffffffffffffffffffffffffffffffffffff16836040015173ffffffffffffffffffffffffffffffffffffffff1614612961576000836080015167ffffffffffffffff164261231f919061440f565b90506000846020015161ffff168261233791906147f0565b9050600081116123a3576040517f08c379a000000000000000000000000000000000000000000000000000000000815260206004820152601c60248201527f484f4c4f47524150483a206f70657261746f72206861732074696d650000000060448201526064016108da565b3a86101561240d576040517f08c379a000000000000000000000000000000000000000000000000000000000815260206004820152601d60248201527f484f4c4f47524150483a20676173207370696b6520646574656374656400000060448201526064016108da565b60068110156125b95760a085015160009061242960018461440f565b6005811061243957612439614426565b602002015161ffff1690506000811180156124715750600b848154811061246257612462614426565b60009182526020909120015481105b15612539576000600b858154811061248b5761248b614426565b9060005260206000200182815481106124a6576124a6614426565b60009182526020909120015473ffffffffffffffffffffffffffffffffffffffff169050338114612533576040517f08c379a000000000000000000000000000000000000000000000000000000000815260206004820152601b60248201527f484f4c4f47524150483a20696e76616c69642066616c6c6261636b000000000060448201526064016108da565b506125b7565b8551336000908152600c602052604090205460ff909116146125b7576040517f08c379a000000000000000000000000000000000000000000000000000000000815260206004820152601c60248201527f484f4c4f47524150483a20706f64206f6e6c792066616c6c6261636b0000000060448201526064016108da565b505b60006125c484613c34565b905080600e6000886040015173ffffffffffffffffffffffffffffffffffffffff1673ffffffffffffffffffffffffffffffffffffffff1681526020019081526020016000206000828254612619919061440f565b90915550507fbf76518d46db472b71aa7677a0908b8016f3dee568415ffa24055f9a670f9c375473ffffffffffffffffffffffffffffffffffffffff1663a9059cbb86612687577fbf76518d46db472b71aa7677a0908b8016f3dee568415ffa24055f9a670f9c3754612689565b335b6040517fffffffff0000000000000000000000000000000000000000000000000000000060e084901b16815273ffffffffffffffffffffffffffffffffffffffff9091166004820152602481018490526044016020604051808303816000875af11580156126fb573d6000803e3d6000fd5b505050506040513d601f19601f8201168201806040525081019061271f9190614455565b5060408087015173ffffffffffffffffffffffffffffffffffffffff166000908152600e6020522054811161283d57600b848154811061276157612761614426565b6000918252602080832060408a01519201805460018082018355918552919093200180547fffffffffffffffffffffffff00000000000000000000000000000000000000001673ffffffffffffffffffffffffffffffffffffffff909216919091179055600b8054869081106127d9576127d9614426565b6000918252602090912001546127ef919061440f565b6040808801805173ffffffffffffffffffffffffffffffffffffffff9081166000908152600d6020908152848220959095558a5192519091168152600c909352912060ff9091169055612959565b60408087015173ffffffffffffffffffffffffffffffffffffffff166000908152600e602052205480156129575760408781015173ffffffffffffffffffffffffffffffffffffffff166000908152600e602052908120557fbf76518d46db472b71aa7677a0908b8016f3dee568415ffa24055f9a670f9c375460408089015190517fa9059cbb00000000000000000000000000000000000000000000000000000000815273ffffffffffffffffffffffffffffffffffffffff91821660048201526024810184905291169063a9059cbb906044016020604051808303816000875af1158015612931573d6000803e3d6000fd5b505050506040513d601f19601f820116820180604052508101906129559190614455565b505b505b505050612a26565b600b818154811061297457612974614426565b60009182526020808320909101805460018181018355918452919092200180547fffffffffffffffffffffffff00000000000000000000000000000000000000001633179055600b8054839081106129ce576129ce614426565b6000918252602090912001546129e4919061440f565b60408085015173ffffffffffffffffffffffffffffffffffffffff166000908152600d6020908152828220939093558551338252600c9093522060ff90911690555b505b600660008154612a379061456f565b909155507fbf76518d46db472b71aa7677a0908b8016f3dee568415ffa24055f9a670f9c375473ffffffffffffffffffffffffffffffffffffffff1663a9059cbb82612aa4577fbf76518d46db472b71aa7677a0908b8016f3dee568415ffa24055f9a670f9c3754612aa6565b335b6040517fffffffff0000000000000000000000000000000000000000000000000000000060e084901b16815273ffffffffffffffffffffffffffffffffffffffff9091166004820152670de0b6b3a764000060248201526044016020604051808303816000875af1158015612b1f573d6000803e3d6000fd5b505050506040513d601f19601f82011682018060405250810190612b439190614455565b50604080518681523360208201527ffc3963369d694e97f35e33cc03fcd382bfa4dbb688ae43d318fcf344f479425e910160405180910390a1835a11612be5576040517f08c379a000000000000000000000000000000000000000000000000000000000815260206004820152601e60248201527f484f4c4f47524150483a206e6f7420656e6f75676820676173206c656674000060448201526064016108da565b6040517f696af2bf000000000000000000000000000000000000000000000000000000008152309063696af2bf903490612c279033908c908c9060040161482b565b6000604051808303818588803b158015612c4057600080fd5b505af193505050508015612c52575060015b612cf55760405133903480156108fc02916000818181858888f19350505050158015612c82573d6000803e3d6000fd5b506000858152600860205260409081902080547fffffffffffffffffffffffffffffffffffffffffffffffffffffffffffffff00166001179055517f26dc03e6c4feb5e9d33804dc1646860c976c3aeabb458f4719c53dcbadbf44b590612cec9087815260200190565b60405180910390a15b50505050505050565b600b54606090821115612d6d576040517f08c379a000000000000000000000000000000000000000000000000000000000815260206004820152601d60248201527f484f4c4f47524150483a20706f6420646f6573206e6f7420657869737400000060448201526064016108da565b600b612d7a60018461440f565b81548110612d8a57612d8a614426565b90600052602060002001805480602002602001604051908101604052809291908181526020018280548015612df557602002820191906000526020600020905b815473ffffffffffffffffffffffffffffffffffffffff168152600190910190602001808311612dca575b50505050509050919050565b73ffffffffffffffffffffffffffffffffffffffff83166000908152600c6020526040902054158015612e57575073ffffffffffffffffffffffffffffffffffffffff83166000908152600e6020526040902054155b612ebd576040517f08c379a000000000000000000000000000000000000000000000000000000000815260206004820152601d60248201527f484f4c4f47524150483a206f70657261746f7220697320626f6e64656400000060448201526064016108da565b612ec683613d15565b15612fcf57600073ffffffffffffffffffffffffffffffffffffffff168373ffffffffffffffffffffffffffffffffffffffff16638da5cb5b6040518163ffffffff1660e01b8152600401602060405180830381865afa158015612f2e573d6000803e3d6000fd5b505050506040513d601f19601f82011682018060405250810190612f5291906145dd565b73ffffffffffffffffffffffffffffffffffffffff1603612fcf576040517f08c379a000000000000000000000000000000000000000000000000000000000815260206004820152601f60248201527f484f4c4f47524150483a20636f6e7472616374206e6f74206f776e61626c650060448201526064016108da565b6000612fdd60018303613c57565b905082811115613049576040517f08c379a000000000000000000000000000000000000000000000000000000000815260206004820181905260248201527f484f4c4f47524150483a20626f6e6420616d6f756e7420746f6f20736d616c6c60448201526064016108da565b600b548211156130b857600b545b828110156130b65760408051602081019091526000808252600b805460018181018355919092526130ad927f0175b7a638427703f0dbe7bb9bbf987a2551717b34e79f33b5b1008d1fa01db99092019190613de2565b50600101613057565b505b61ffff8016600b60018403815481106130d3576130d3614426565b60009182526020909120015410613146576040517f08c379a000000000000000000000000000000000000000000000000000000000815260206004820152601d60248201527f484f4c4f47524150483a20746f6f206d616e79206f70657261746f727300000060448201526064016108da565b600b600183038154811061315c5761315c614426565b6000918252602080832091909101805460018082018355918452919092200180547fffffffffffffffffffffffff00000000000000000000000000000000000000001673ffffffffffffffffffffffffffffffffffffffff8716179055600b80547fffffffffffffffffffffffffffffffffffffffffffffffffffffffffffffffff85019081106131ef576131ef614426565b600091825260208083209091015473ffffffffffffffffffffffffffffffffffffffff88168352600d8252604080842094909103909355600c8152828220859055600e9052208390556132607fbf76518d46db472b71aa7677a0908b8016f3dee568415ffa24055f9a670f9c375490565b6040517f23b872dd0000000000000000000000000000000000000000000000000000000081523360048201523060248201526044810185905273ffffffffffffffffffffffffffffffffffffffff91909116906323b872dd906064016020604051808303816000875af11580156132db573d6000803e3d6000fd5b505050506040513d601f19601f820116820180604052508101906132ff9190614455565b613365576040517f08c379a000000000000000000000000000000000000000000000000000000000815260206004820181905260248201527f484f4c4f47524150483a20746f6b656e207472616e73666572206661696c656460448201526064016108da565b50505050565b7f3f106594dc74eeef980dae234cde8324dc2497b13d27a0c59e55bd2ca10a07c95473ffffffffffffffffffffffffffffffffffffffff163373ffffffffffffffffffffffffffffffffffffffff1614613421576040517f08c379a000000000000000000000000000000000000000000000000000000000815260206004820152601e60248201527f484f4c4f47524150483a2061646d696e206f6e6c792066756e6374696f6e000060448201526064016108da565b7feb87cbb21687feb327e3d58c6c16d552231d12c7a0e8115042a4165fac8a77f955565b7f3f106594dc74eeef980dae234cde8324dc2497b13d27a0c59e55bd2ca10a07c95473ffffffffffffffffffffffffffffffffffffffff163373ffffffffffffffffffffffffffffffffffffffff16146134fb576040517f08c379a000000000000000000000000000000000000000000000000000000000815260206004820152601e60248201527f484f4c4f47524150483a2061646d696e206f6e6c792066756e6374696f6e000060448201526064016108da565b7fbf76518d46db472b71aa7677a0908b8016f3dee568415ffa24055f9a670f9c3755565b7f3f106594dc74eeef980dae234cde8324dc2497b13d27a0c59e55bd2ca10a07c95473ffffffffffffffffffffffffffffffffffffffff163373ffffffffffffffffffffffffffffffffffffffff16146135d5576040517f08c379a000000000000000000000000000000000000000000000000000000000815260206004820152601e60248201527f484f4c4f47524150483a2061646d696e206f6e6c792066756e6374696f6e000060448201526064016108da565b7f264d744422f7427cd080572c35c848b6cd3a36da6b47519af89ef13098b12fc055565b7f3f106594dc74eeef980dae234cde8324dc2497b13d27a0c59e55bd2ca10a07c95473ffffffffffffffffffffffffffffffffffffffff163373ffffffffffffffffffffffffffffffffffffffff16146136af576040517f08c379a000000000000000000000000000000000000000000000000000000000815260206004820152601e60248201527f484f4c4f47524150483a2061646d696e206f6e6c792066756e6374696f6e000060448201526064016108da565b7fce8e75d5c5227ce29a4ee170160bb296e5dea6934b80a9bd723f7ef1e7c850e755565b60006040820383600037600060e353600080604084036000347feb87cbb21687feb327e3d58c6c16d552231d12c7a0e8115042a4165fac8a77f9545af160018103613722573d6000803e3d6000fd5b505a60005260206000f35b7f3f106594dc74eeef980dae234cde8324dc2497b13d27a0c59e55bd2ca10a07c95473ffffffffffffffffffffffffffffffffffffffff163373ffffffffffffffffffffffffffffffffffffffff16146137e3576040517f08c379a000000000000000000000000000000000000000000000000000000000815260206004820152601e60248201527f484f4c4f47524150483a2061646d696e206f6e6c792066756e6374696f6e000060448201526064016108da565b808260003760008082600034875af13d6000803e808015613803573d6000f35b3d6000fd5b7f3f106594dc74eeef980dae234cde8324dc2497b13d27a0c59e55bd2ca10a07c95473ffffffffffffffffffffffffffffffffffffffff163373ffffffffffffffffffffffffffffffffffffffff16146138be576040517f08c379a000000000000000000000000000000000000000000000000000000000815260206004820152601e60248201527f484f4c4f47524150483a2061646d696e206f6e6c792066756e6374696f6e000060448201526064016108da565b7fbd3084b8c09da87ad159c247a60e209784196be2530cecbbd8f337fdd184882755565b600061390c7f3f106594dc74eeef980dae234cde8324dc2497b13d27a0c59e55bd2ca10a07c95490565b905090565b600080600036600080376000803660007f54176250282e65985d205704ffce44a59efe61f7afd99e29fda50f55b48c061a545afa3d6000803e808015613803573d6000f35b8015610bcb576000600b838154811061397157613971614426565b90600052602060002001828154811061398c5761398c614426565b600091825260208083209091015473ffffffffffffffffffffffffffffffffffffffff16808352600c82526040808420849055600d909252908220829055600b8054919350600191869081106139e4576139e4614426565b600091825260209091200154039050828114613b2a57600b8481548110613a0d57613a0d614426565b906000526020600020018181548110613a2857613a28614426565b600091825260209091200154600b805473ffffffffffffffffffffffffffffffffffffffff9092169186908110613a6157613a61614426565b906000526020600020018481548110613a7c57613a7c614426565b9060005260206000200160006101000a81548173ffffffffffffffffffffffffffffffffffffffff021916908373ffffffffffffffffffffffffffffffffffffffff16021790555082600d6000600b8781548110613adc57613adc614426565b906000526020600020018681548110613af757613af7614426565b600091825260208083209091015473ffffffffffffffffffffffffffffffffffffffff1683528201929092526040019020555b600b8481548110613b3d57613b3d614426565b906000526020600020018181548110613b5857613b58614426565b600091825260209091200180547fffffffffffffffffffffffff0000000000000000000000000000000000000000169055600b805485908110613b9d57613b9d614426565b90600052602060002001805480613bb657613bb661485b565b60008281526020902081017fffffffffffffffffffffffffffffffffffffffffffffffffffffffffffffffff90810180547fffffffffffffffffffffffff000000000000000000000000000000000000000016905501905550505050565b6000824383900340850181613c2b57613c2b614487565b06949350505050565b600060015482600254613c4791906149aa565b613c5191906149b6565b92915050565b60008060015483600254613c6b91906149aa565b613c7591906149b6565b600b549091508310613c875792915050565b6000613c948460026149aa565b600354613ca191906147f0565b90506000600b8581548110613cb857613cb8614426565b600091825260209091200154905081811115613d0c57613cd8828261440f565b905060045481613ce891906147f0565b600554613cf590856147f0565b613cff91906149b6565b613d099084614557565b92505b50909392505050565b6000813f8015801590613d4857507fc5d2460186f7233c927e7db2dcc703c0e500b653ca82273b7bfad8045d85a4708114155b9392505050565b6040805160c08101825260008082526020820181905291810182905260608101829052608081019190915260a08101613d86613e68565b905290565b828054828255906000526020600020908101928215613dd2579160200282015b82811115613dd2578251613dc29083906001613de2565b5091602001919060010190613dab565b50613dde929150613e86565b5090565b828054828255906000526020600020908101928215613e5c579160200282015b82811115613e5c57825182547fffffffffffffffffffffffff00000000000000000000000000000000000000001673ffffffffffffffffffffffffffffffffffffffff909116178255602090920191600190910190613e02565b50613dde929150613ea3565b6040518060a001604052806005906020820280368337509192915050565b80821115613dde576000613e9a8282613eb8565b50600101613e86565b5b80821115613dde5760008155600101613ea4565b5080546000825590600052602060002090810190613ed69190613ea3565b50565b600060208284031215613eeb57600080fd5b5035919050565b60006101408201905060ff835116825260208084015161ffff8082168386015273ffffffffffffffffffffffffffffffffffffffff604087015116604086015264ffffffffff606087015116606086015267ffffffffffffffff608087015116608086015260a0860151915060a0850160005b6005811015613f84578351831682529284019290840190600101613f65565b505050505092915050565b73ffffffffffffffffffffffffffffffffffffffff81168114613ed657600080fd5b60008060408385031215613fc457600080fd5b8235613fcf81613f8f565b946020939093013593505050565b60008083601f840112613fef57600080fd5b50813567ffffffffffffffff81111561400757600080fd5b60208301915083602082850101111561401f57600080fd5b9250929050565b6000806020838503121561403957600080fd5b823567ffffffffffffffff81111561405057600080fd5b61405c85828601613fdd565b90969095509350505050565b60006020828403121561407a57600080fd5b8135613d4881613f8f565b60008060006060848603121561409a57600080fd5b505081359360208301359350604090920135919050565b6020808252825182820181905260009190848201906040850190845b818110156140ff57835173ffffffffffffffffffffffffffffffffffffffff16835292840192918401916001016140cd565b50909695505050505050565b63ffffffff81168114613ed657600080fd5b60008060008060008060008060e0898b03121561413957600080fd5b883597506020890135965060408901356141528161410b565b9550606089013561416281613f8f565b94506080890135935060a089013561417981613f8f565b925060c089013567ffffffffffffffff81111561419557600080fd5b6141a18b828c01613fdd565b999c989b5096995094979396929594505050565b7f4e487b7100000000000000000000000000000000000000000000000000000000600052604160045260246000fd5b6000602082840312156141f657600080fd5b813567ffffffffffffffff8082111561420e57600080fd5b818401915084601f83011261422257600080fd5b813581811115614234576142346141b5565b604051601f82017fffffffffffffffffffffffffffffffffffffffffffffffffffffffffffffffe0908116603f0116810190838211818310171561427a5761427a6141b5565b8160405282815287602084870101111561429357600080fd5b826020860160208301376000928101602001929092525095945050505050565b600080604083850312156142c657600080fd5b82356142d181613f8f565b915060208301356142e181613f8f565b809150509250929050565b60008060006040848603121561430157600080fd5b833561430c81613f8f565b9250602084013567ffffffffffffffff81111561432857600080fd5b61433486828701613fdd565b9497909650939450505050565b60008060006060848603121561435657600080fd5b833561436181613f8f565b95602085013595506040909401359392505050565b60008060008060006080868803121561438e57600080fd5b85356143998161410b565b94506020860135935060408601359250606086013567ffffffffffffffff8111156143c357600080fd5b6143cf88828901613fdd565b969995985093965092949392505050565b7f4e487b7100000000000000000000000000000000000000000000000000000000600052601160045260246000fd5b600082821015614421576144216143e0565b500390565b7f4e487b7100000000000000000000000000000000000000000000000000000000600052603260045260246000fd5b60006020828403121561446757600080fd5b81518015158114613d4857600080fd5b8183823760009101908152919050565b7f4e487b7100000000000000000000000000000000000000000000000000000000600052601260045260246000fd5b8183528181602085013750600060208284010152600060207fffffffffffffffffffffffffffffffffffffffffffffffffffffffffffffffe0601f840116840101905092915050565b8381526040602082015260006145196040830184866144b6565b95945050505050565b600081614531576145316143e0565b507fffffffffffffffffffffffffffffffffffffffffffffffffffffffffffffffff0190565b6000821982111561456a5761456a6143e0565b500190565b60007fffffffffffffffffffffffffffffffffffffffffffffffffffffffffffffffff82036145a0576145a06143e0565b5060010190565b6000602082840312156145b957600080fd5b5051919050565b6000602082840312156145d257600080fd5b8151613d488161410b565b6000602082840312156145ef57600080fd5b8151613d4881613f8f565b60006101008b835263ffffffff8b16602084015273ffffffffffffffffffffffffffffffffffffffff808b166040850152808a1660608501528089166080850152508660a084015285151560c08401528060e084015261465d81840185876144b6565b9c9b505050505050505050505050565b60005b83811015614688578181015183820152602001614670565b838111156133655750506000910152565b600084516146ab81846020890161466d565b91909101928352506020820152604001919050565b86815285602082015263ffffffff8516604082015273ffffffffffffffffffffffffffffffffffffffff8416606082015282608082015260c060a0820152600082518060c08401526147198160e085016020870161466d565b601f017fffffffffffffffffffffffffffffffffffffffffffffffffffffffffffffffe0169190910160e001979650505050505050565b60008060008060008060c0878903121561476957600080fd5b865161477481613f8f565b602088015190965061478581613f8f565b604088015190955061479681613f8f565b60608801519094506147a781613f8f565b60808801519093506147b881613f8f565b8092505060a087015190509295509295509295565b600060ff821660ff8416808210156147e7576147e76143e0565b90039392505050565b600082614826577f4e487b7100000000000000000000000000000000000000000000000000000000600052601260045260246000fd5b500490565b73ffffffffffffffffffffffffffffffffffffffff841681526040602082015260006145196040830184866144b6565b7f4e487b7100000000000000000000000000000000000000000000000000000000600052603160045260246000fd5b600181815b808511156148e357817fffffffffffffffffffffffffffffffffffffffffffffffffffffffffffffffff048211156148c9576148c96143e0565b808516156148d657918102915b93841c939080029061488f565b509250929050565b6000826148fa57506001613c51565b8161490757506000613c51565b816001811461491d576002811461492757614943565b6001915050613c51565b60ff841115614938576149386143e0565b50506001821b613c51565b5060208310610133831016604e8410600b8410161715614966575081810a613c51565b614970838361488a565b807fffffffffffffffffffffffffffffffffffffffffffffffffffffffffffffffff048211156149a2576149a26143e0565b029392505050565b6000613d4883836148eb565b6000817fffffffffffffffffffffffffffffffffffffffffffffffffffffffffffffffff04831182151516156149ee576149ee6143e0565b50029056fea164736f6c634300080d000a",
  "devdoc": {
    "author": "https://github.com/holographxyz",
    "details": "This contract allows operators to bond utility tokens and help execute operator jobs",
    "kind": "dev",
    "methods": {
      "bondUtilityToken(address,uint256,uint256)": {
        "details": "An operator can only bond to one pod at a time, per network",
        "params": {
          "amount": "utility token amount to bond (can be greater than minimum)",
          "operator": "address of operator to bond (can be an ownable smart contract)",
          "pod": "number of pod to bond to (can be for one that does not exist yet)"
        }
      },
      "constructor": {
        "details": "Constructor is left empty and init is used instead"
      },
      "crossChainMessage(bytes)": {
        "details": "This function is restricted for use by Holograph Messaging Module only"
      },
      "executeJob(bytes)": {
        "details": "When making this call, if operating criteria is not met, the call will revert",
        "params": {
          "bridgeInRequestPayload": "the entire cross chain message payload"
        }
      },
      "getBondedAmount(address)": {
        "details": "Useful for checking how much an operator has bonded",
        "params": {
          "operator": "address of operator to check"
        },
        "returns": {
          "amount": "total number of utility token bonded"
        }
      },
      "getBondedPod(address)": {
        "details": "Useful for checking if an operator is currently bonded",
        "params": {
          "operator": "address of operator to check"
        },
        "returns": {
          "pod": "number that operator is bonded on, returns zero if not bonded or selected for job"
        }
      },
      "getBondedPodIndex(address)": {
        "details": "Useful for checking if an operator is a fallback for active job",
        "params": {
          "operator": "address of operator to check"
        },
        "returns": {
          "index": "currently bonded pod's operator index, returns zero if not in pod or moved out for active job"
        }
      },
      "getBridge()": {
        "details": "Used for beaming holographable assets cross-chain"
      },
      "getHolograph()": {
        "details": "Used for storing a reference to all the primary modules and variables of the protocol"
      },
      "getInterfaces()": {
        "details": "Holograph uses this contract to store data that needs to be accessed by a large portion of the modules"
      },
      "getJobDetails(bytes32)": {
        "details": "The job hash is a keccak256 hash of the entire job payload",
        "params": {
          "jobHash": "keccak256 hash of the job"
        },
        "returns": {
          "_0": "an OperatorJob struct with details about a specific job"
        }
      },
      "getMessageFee(uint32,uint256,uint256,bytes)": {
        "details": "Will provide exact costs on protocol and message side, combine the two to get total@param toChain holograph chain id of destination chain for payload@param gasLimit amount of gas to provide for executing payload on destination chain@param gasPrice maximum amount to pay for gas price, can be set to 0 and will be chose automatically@param crossChainPayload the entire packet being sent cross-chain",
        "returns": {
          "_0": "hlgFee the amount (in wei) of native gas token that will cost for finalizing job on destiantion chain",
          "_1": "msgFee the amount (in wei) of native gas token that will cost for sending message to destiantion chain",
          "_2": "dstGasPrice the amount (in wei) that destination message maximum gas price will be"
        }
      },
      "getMessagingModule()": {
        "details": "All cross-chain message requests will get forwarded to this adress"
      },
      "getMinGasPrice()": {
        "details": "The minimum value required to execute a job without it being marked as under priced"
      },
      "getPodBondAmounts(uint256)": {
        "details": "Useful for understanding what is required for bonding to a pod",
        "params": {
          "pod": "the pod to get bonding amounts for"
        },
        "returns": {
          "base": "the base bond amount required for a pod",
          "current": "the current bond amount required for a pod"
        }
      },
      "getPodOperators(uint256)": {
        "details": "Use paginated getPodOperators function instead if list gets too long",
        "params": {
          "pod": "the pod to query"
        },
        "returns": {
          "operators": "array list of operators in a pod"
        }
      },
      "getPodOperators(uint256,uint256,uint256)": {
        "details": "Use in conjunction with getPodOperatorsLength to know the total length of results",
        "params": {
          "index": "the array index to start from",
          "length": "the length of result set to be (will be shorter if reached end of array)",
          "pod": "the pod to query"
        },
        "returns": {
          "operators": "a paginated array of operators"
        }
      },
      "getPodOperatorsLength(uint256)": {
        "details": "Use in conjunction with paginated getPodOperators function",
        "params": {
          "pod": "the pod to query"
        },
        "returns": {
          "_0": "total operators in a pod"
        }
      },
      "getRegistry()": {
        "details": "This module stores a reference for all deployed holographable smart contracts"
      },
      "getTotalPods()": {
        "details": "This returns number of pods that have been opened via bonding"
      },
      "getUtilityToken()": {
        "details": "This is the official utility token of the Holograph Protocol"
      },
      "init(bytes)": {
        "details": "This function is called by the deployer/factory when creating a contract",
        "params": {
          "initPayload": "abi encoded payload to use for contract initilaization"
        }
      },
      "jobEstimator(bytes)": {
        "details": "Use this function to estimate the amount of gas that will be used by the bridgeInRequest function      Set a specific gas limit when making this call, subtract return value, to get total gas used      Only use this with a static call",
        "params": {
          "bridgeInRequestPayload": "abi encoded bytes making up the bridgeInRequest payload"
        },
        "returns": {
          "_0": "the gas amount remaining after the static call is returned"
        }
      },
      "send(uint256,uint256,uint32,address,uint256,address,bytes)": {
        "details": "This function is restricted to only be callable by Holograph Bridge",
        "params": {
          "bridgeOutPayload": "bytes made up of the bridgeOutRequest payload",
          "gasLimit": "maximum amount of gas to spend for executing the beam on destination chain",
          "gasPrice": "maximum amount of gas price (in destination chain native gas token) to pay on destination chain",
          "holographableContract": "address of the contract for which the bridge request is being made",
          "nonce": "incremented number used to ensure job hashes are unique",
          "toChain": "Holograph Chain ID where the beam is being sent to"
        }
      },
      "setBridge(address)": {
        "params": {
          "bridge": "address of the Holograph Bridge smart contract to use"
        }
      },
      "setHolograph(address)": {
        "params": {
          "holograph": "address of the Holograph Protocol smart contract to use"
        }
      },
      "setInterfaces(address)": {
        "params": {
          "interfaces": "address of the Holograph Interfaces smart contract to use"
        }
      },
      "setMessagingModule(address)": {
        "params": {
          "messagingModule": "address of the LayerZero Endpoint to use"
        }
      },
      "setMinGasPrice(uint256)": {
        "params": {
          "minGasPrice": "amount to set for minimum gas price"
        }
      },
      "setRegistry(address)": {
        "params": {
          "registry": "address of the Holograph Registry smart contract to use"
        }
      },
      "setUtilityToken(address)": {
        "params": {
          "utilityToken": "address of the Holograph Utility Token smart contract to use"
        }
      },
      "topupUtilityToken(address,uint256)": {
        "details": "Useful function if an operator got slashed and wants to add a safety buffer to not get unbonded      This function will not work if operator has currently been selected for a job",
        "params": {
          "amount": "utility token amount to add",
          "operator": "address of operator to topup"
        }
      },
      "unbondUtilityToken(address,address)": {
        "details": "A bonded operator selected for a job cannot unbond until they complete the job, or are slashed",
        "params": {
          "operator": "address of operator to unbond",
          "recipient": "address where to send the bonded tokens"
        }
      }
    },
    "stateVariables": {
      "_baseBondAmount": {
        "details": "Minimum amount of tokens needed for bonding"
      },
      "_blockTime": {
        "details": "Internal number (in seconds), used for defining a window for operator to execute the job"
      },
      "_bondedAmounts": {
        "details": "Internal mapping of bonded operator amounts"
      },
      "_bondedOperators": {
        "details": "Internal mapping of bonded operators, to prevent double bonding"
      },
      "_bridgeSlot": {
        "details": "bytes32(uint256(keccak256('eip1967.Holograph.bridge')) - 1)"
      },
      "_failedJobs": {
        "details": "Internal mapping of operator job details for a specific job hash"
      },
      "_holographSlot": {
        "details": "bytes32(uint256(keccak256('eip1967.Holograph.holograph')) - 1)"
      },
      "_inboundMessageCounter": {
        "details": "Internal counter of all cross-chain messages received"
      },
      "_interfacesSlot": {
        "details": "bytes32(uint256(keccak256('eip1967.Holograph.interfaces')) - 1)"
      },
      "_jobNonceSlot": {
        "details": "bytes32(uint256(keccak256('eip1967.Holograph.jobNonce')) - 1)"
      },
      "_messagingModuleSlot": {
        "details": "bytes32(uint256(keccak256('eip1967.Holograph.messagingModule')) - 1)"
      },
      "_minGasPriceSlot": {
        "details": "bytes32(uint256(keccak256('eip1967.Holograph.minGasPrice')) - 1)"
      },
      "_operatorJobs": {
        "details": "Internal mapping of operator job details for a specific job hash"
      },
      "_operatorPodIndex": {
        "details": "Internal mapping of bonded operators, to prevent double bonding"
      },
      "_operatorPods": {
        "details": "Multi-dimensional array of available operators"
      },
      "_operatorTempStorage": {
        "details": "Internal mapping of operator addresses, used for temp storage when defining an operator job"
      },
      "_operatorTempStorageCounter": {
        "details": "Internal index used for storing/referencing operator temp storage"
      },
      "_operatorThreshold": {
        "details": "The threshold used for limiting number of operators in a pod"
      },
      "_operatorThresholdDivisor": {
        "details": "The threshold divisor used for increasing bond amount once threshold is reached"
      },
      "_operatorThresholdStep": {
        "details": "The threshold step used for increasing bond amount once threshold is reached"
      },
      "_podMultiplier": {
        "details": "The multiplier used for calculating bonding amount for pods"
      },
      "_registrySlot": {
        "details": "bytes32(uint256(keccak256('eip1967.Holograph.registry')) - 1)"
      },
      "_utilityTokenSlot": {
        "details": "bytes32(uint256(keccak256('eip1967.Holograph.utilityToken')) - 1)"
      }
    },
    "title": "Holograph Operator",
    "version": 1
  },
  "userdoc": {
    "kind": "user",
    "methods": {
      "bondUtilityToken(address,uint256,uint256)": {
        "notice": "Bond utility tokens and become an operator"
      },
      "crossChainMessage(bytes)": {
        "notice": "Receive a cross-chain message"
      },
      "executeJob(bytes)": {
        "notice": "Execute an available operator job"
      },
      "getBondedAmount(address)": {
        "notice": "Get an operator's currently bonded amount"
      },
      "getBondedPod(address)": {
        "notice": "Get an operator's currently bonded pod"
      },
      "getBondedPodIndex(address)": {
        "notice": "Get an operator's currently bonded pod index"
      },
      "getBridge()": {
        "notice": "Get the address of the Holograph Bridge module"
      },
      "getHolograph()": {
        "notice": "Get the Holograph Protocol contract"
      },
      "getInterfaces()": {
        "notice": "Get the address of the Holograph Interfaces module"
      },
      "getJobDetails(bytes32)": {
        "notice": "Get the details for an available operator job"
      },
      "getMessageFee(uint32,uint256,uint256,bytes)": {
        "notice": "Get the fees associated with sending specific payload"
      },
      "getMessagingModule()": {
        "notice": "Get the address of the Holograph Messaging Module"
      },
      "getMinGasPrice()": {
        "notice": "Get the Minimum Gas Price"
      },
      "getPodBondAmounts(uint256)": {
        "notice": "Check the base and current price for bonding to a particular pod"
      },
      "getPodOperators(uint256)": {
        "notice": "Get list of operators in a pod"
      },
      "getPodOperators(uint256,uint256,uint256)": {
        "notice": "Get paginated list of operators in a pod"
      },
      "getPodOperatorsLength(uint256)": {
        "notice": "Get total number of operators in a pod"
      },
      "getRegistry()": {
        "notice": "Get the Holograph Registry module"
      },
      "getTotalPods()": {
        "notice": "Get number of pods available"
      },
      "getUtilityToken()": {
        "notice": "Get the Holograph Utility Token address"
      },
      "init(bytes)": {
        "notice": "Used internally to initialize the contract instead of through a constructor"
      },
      "jobEstimator(bytes)": {
        "notice": "Calculate the amount of gas needed to execute a bridgeInRequest"
      },
      "send(uint256,uint256,uint32,address,uint256,address,bytes)": {
        "notice": "Send cross chain bridge request message"
      },
      "setBridge(address)": {
        "notice": "Update the Holograph Bridge module address"
      },
      "setHolograph(address)": {
        "notice": "Update the Holograph Protocol contract address"
      },
      "setInterfaces(address)": {
        "notice": "Update the Holograph Interfaces module address"
      },
      "setMessagingModule(address)": {
        "notice": "Update the Holograph Messaging Module address"
      },
      "setMinGasPrice(uint256)": {
        "notice": "Update the Minimum Gas Price"
      },
      "setRegistry(address)": {
        "notice": "Update the Holograph Registry module address"
      },
      "setUtilityToken(address)": {
        "notice": "Update the Holograph Utility Token address"
      },
      "topupUtilityToken(address,uint256)": {
        "notice": "Topup a bonded operator with more utility tokens"
      },
      "unbondUtilityToken(address,address)": {
        "notice": "Unbond HLG utility tokens and stop being an operator"
      }
    },
    "notice": "Participate in the Holograph Protocol by becoming an Operator",
    "version": 1
  },
  "storageLayout": {
    "storage": [
      {
        "astId": 2051,
        "contract": "contracts/HolographOperator.sol:HolographOperator",
        "label": "_blockTime",
        "offset": 0,
        "slot": "0",
        "type": "t_uint256"
      },
      {
        "astId": 2054,
        "contract": "contracts/HolographOperator.sol:HolographOperator",
        "label": "_baseBondAmount",
        "offset": 0,
        "slot": "1",
        "type": "t_uint256"
      },
      {
        "astId": 2057,
        "contract": "contracts/HolographOperator.sol:HolographOperator",
        "label": "_podMultiplier",
        "offset": 0,
        "slot": "2",
        "type": "t_uint256"
      },
      {
        "astId": 2060,
        "contract": "contracts/HolographOperator.sol:HolographOperator",
        "label": "_operatorThreshold",
        "offset": 0,
        "slot": "3",
        "type": "t_uint256"
      },
      {
        "astId": 2063,
        "contract": "contracts/HolographOperator.sol:HolographOperator",
        "label": "_operatorThresholdStep",
        "offset": 0,
        "slot": "4",
        "type": "t_uint256"
      },
      {
        "astId": 2066,
        "contract": "contracts/HolographOperator.sol:HolographOperator",
        "label": "_operatorThresholdDivisor",
        "offset": 0,
        "slot": "5",
        "type": "t_uint256"
      },
      {
        "astId": 2069,
        "contract": "contracts/HolographOperator.sol:HolographOperator",
        "label": "_inboundMessageCounter",
        "offset": 0,
        "slot": "6",
        "type": "t_uint256"
      },
      {
        "astId": 2074,
        "contract": "contracts/HolographOperator.sol:HolographOperator",
        "label": "_operatorJobs",
        "offset": 0,
        "slot": "7",
        "type": "t_mapping(t_bytes32,t_uint256)"
      },
      {
        "astId": 2079,
        "contract": "contracts/HolographOperator.sol:HolographOperator",
        "label": "_failedJobs",
        "offset": 0,
        "slot": "8",
        "type": "t_mapping(t_bytes32,t_bool)"
      },
      {
        "astId": 2084,
        "contract": "contracts/HolographOperator.sol:HolographOperator",
        "label": "_operatorTempStorage",
        "offset": 0,
        "slot": "9",
        "type": "t_mapping(t_uint256,t_address)"
      },
      {
        "astId": 2087,
        "contract": "contracts/HolographOperator.sol:HolographOperator",
        "label": "_operatorTempStorageCounter",
        "offset": 0,
        "slot": "10",
        "type": "t_uint32"
      },
      {
        "astId": 2092,
        "contract": "contracts/HolographOperator.sol:HolographOperator",
        "label": "_operatorPods",
        "offset": 0,
        "slot": "11",
        "type": "t_array(t_array(t_address)dyn_storage)dyn_storage"
      },
      {
        "astId": 2097,
        "contract": "contracts/HolographOperator.sol:HolographOperator",
        "label": "_bondedOperators",
        "offset": 0,
        "slot": "12",
        "type": "t_mapping(t_address,t_uint256)"
      },
      {
        "astId": 2102,
        "contract": "contracts/HolographOperator.sol:HolographOperator",
        "label": "_operatorPodIndex",
        "offset": 0,
        "slot": "13",
        "type": "t_mapping(t_address,t_uint256)"
      },
      {
        "astId": 2107,
        "contract": "contracts/HolographOperator.sol:HolographOperator",
        "label": "_bondedAmounts",
        "offset": 0,
        "slot": "14",
        "type": "t_mapping(t_address,t_uint256)"
      }
    ],
    "types": {
      "t_address": {
        "encoding": "inplace",
        "label": "address",
        "numberOfBytes": "20"
      },
      "t_array(t_address)dyn_storage": {
        "base": "t_address",
        "encoding": "dynamic_array",
        "label": "address[]",
        "numberOfBytes": "32"
      },
      "t_array(t_array(t_address)dyn_storage)dyn_storage": {
        "base": "t_array(t_address)dyn_storage",
        "encoding": "dynamic_array",
        "label": "address[][]",
        "numberOfBytes": "32"
      },
      "t_bool": {
        "encoding": "inplace",
        "label": "bool",
        "numberOfBytes": "1"
      },
      "t_bytes32": {
        "encoding": "inplace",
        "label": "bytes32",
        "numberOfBytes": "32"
      },
      "t_mapping(t_address,t_uint256)": {
        "encoding": "mapping",
        "key": "t_address",
        "label": "mapping(address => uint256)",
        "numberOfBytes": "32",
        "value": "t_uint256"
      },
      "t_mapping(t_bytes32,t_bool)": {
        "encoding": "mapping",
        "key": "t_bytes32",
        "label": "mapping(bytes32 => bool)",
        "numberOfBytes": "32",
        "value": "t_bool"
      },
      "t_mapping(t_bytes32,t_uint256)": {
        "encoding": "mapping",
        "key": "t_bytes32",
        "label": "mapping(bytes32 => uint256)",
        "numberOfBytes": "32",
        "value": "t_uint256"
      },
      "t_mapping(t_uint256,t_address)": {
        "encoding": "mapping",
        "key": "t_uint256",
        "label": "mapping(uint256 => address)",
        "numberOfBytes": "32",
        "value": "t_address"
      },
      "t_uint256": {
        "encoding": "inplace",
        "label": "uint256",
        "numberOfBytes": "32"
      },
      "t_uint32": {
        "encoding": "inplace",
        "label": "uint32",
        "numberOfBytes": "4"
      }
    }
  }
}