{
  "address": "0xc377f6c06bbD2d84313F6C6c0Ea3f56e4E2050fd",
  "abi": [
    {
      "inputs": [],
      "stateMutability": "nonpayable",
      "type": "constructor"
    },
    {
      "anonymous": false,
      "inputs": [
        {
          "indexed": true,
          "internalType": "address",
          "name": "contractAddress",
          "type": "address"
        },
        {
          "indexed": true,
          "internalType": "bytes32",
          "name": "hash",
          "type": "bytes32"
        }
      ],
      "name": "BridgeableContractDeployed",
      "type": "event"
    },
    {
      "stateMutability": "payable",
      "type": "fallback"
    },
    {
      "inputs": [],
      "name": "admin",
      "outputs": [
        {
          "internalType": "address",
          "name": "",
          "type": "address"
        }
      ],
      "stateMutability": "view",
      "type": "function"
    },
    {
      "inputs": [
        {
          "internalType": "address",
          "name": "target",
          "type": "address"
        },
        {
          "internalType": "bytes",
          "name": "data",
          "type": "bytes"
        }
      ],
      "name": "adminCall",
      "outputs": [],
      "stateMutability": "payable",
      "type": "function"
    },
    {
      "inputs": [
        {
          "internalType": "uint32",
          "name": "",
          "type": "uint32"
        },
        {
          "internalType": "bytes",
          "name": "payload",
          "type": "bytes"
        }
      ],
      "name": "bridgeIn",
      "outputs": [
        {
          "internalType": "bytes4",
          "name": "",
          "type": "bytes4"
        }
      ],
      "stateMutability": "nonpayable",
      "type": "function"
    },
    {
      "inputs": [
        {
          "internalType": "uint32",
          "name": "",
          "type": "uint32"
        },
        {
          "internalType": "address",
          "name": "",
          "type": "address"
        },
        {
          "internalType": "bytes",
          "name": "payload",
          "type": "bytes"
        }
      ],
      "name": "bridgeOut",
      "outputs": [
        {
          "internalType": "bytes4",
          "name": "selector",
          "type": "bytes4"
        },
        {
          "internalType": "bytes",
          "name": "data",
          "type": "bytes"
        }
      ],
      "stateMutability": "pure",
      "type": "function"
    },
    {
      "inputs": [
        {
          "components": [
            {
              "internalType": "bytes32",
              "name": "contractType",
              "type": "bytes32"
            },
            {
              "internalType": "uint32",
              "name": "chainType",
              "type": "uint32"
            },
            {
              "internalType": "bytes32",
              "name": "salt",
              "type": "bytes32"
            },
            {
              "internalType": "bytes",
              "name": "byteCode",
              "type": "bytes"
            },
            {
              "internalType": "bytes",
              "name": "initCode",
              "type": "bytes"
            }
          ],
          "internalType": "struct DeploymentConfig",
          "name": "config",
          "type": "tuple"
        },
        {
          "components": [
            {
              "internalType": "bytes32",
              "name": "r",
              "type": "bytes32"
            },
            {
              "internalType": "bytes32",
              "name": "s",
              "type": "bytes32"
            },
            {
              "internalType": "uint8",
              "name": "v",
              "type": "uint8"
            }
          ],
          "internalType": "struct Verification",
          "name": "signature",
          "type": "tuple"
        },
        {
          "internalType": "address",
          "name": "signer",
          "type": "address"
        }
      ],
      "name": "deployHolographableContract",
      "outputs": [],
      "stateMutability": "nonpayable",
      "type": "function"
    },
    {
      "inputs": [],
      "name": "getAdmin",
      "outputs": [
        {
          "internalType": "address",
          "name": "adminAddress",
          "type": "address"
        }
      ],
      "stateMutability": "view",
      "type": "function"
    },
    {
      "inputs": [],
      "name": "getHolograph",
      "outputs": [
        {
          "internalType": "address",
          "name": "holograph",
          "type": "address"
        }
      ],
      "stateMutability": "view",
      "type": "function"
    },
    {
      "inputs": [],
      "name": "getRegistry",
      "outputs": [
        {
          "internalType": "address",
          "name": "registry",
          "type": "address"
        }
      ],
      "stateMutability": "view",
      "type": "function"
    },
    {
      "inputs": [
        {
          "internalType": "bytes",
          "name": "initPayload",
          "type": "bytes"
        }
      ],
      "name": "init",
      "outputs": [
        {
          "internalType": "bytes4",
          "name": "",
          "type": "bytes4"
        }
      ],
      "stateMutability": "nonpayable",
      "type": "function"
    },
    {
      "inputs": [
        {
          "internalType": "address",
          "name": "adminAddress",
          "type": "address"
        }
      ],
      "name": "setAdmin",
      "outputs": [],
      "stateMutability": "nonpayable",
      "type": "function"
    },
    {
      "inputs": [
        {
          "internalType": "address",
          "name": "holograph",
          "type": "address"
        }
      ],
      "name": "setHolograph",
      "outputs": [],
      "stateMutability": "nonpayable",
      "type": "function"
    },
    {
      "inputs": [
        {
          "internalType": "address",
          "name": "registry",
          "type": "address"
        }
      ],
      "name": "setRegistry",
      "outputs": [],
      "stateMutability": "nonpayable",
      "type": "function"
    },
    {
      "stateMutability": "payable",
      "type": "receive"
    }
  ],
  "transactionHash": "0x7a5334d7935e793550e027609d5303d09d3f3cfd1c1e0bc0a564c82cc68c9833",
  "args": [],
  "numDeployments": 4,
  "solcInputHash": "8a3e7c0b8a48991c4a15cecfd042fb05",
  "bytecode": "0x608060405234801561001057600080fd5b506126d1806100206000396000f3fe6080604052600436106100cb5760003560e01c8063704b6c0211610074578063bf64a82d1161004e578063bf64a82d1461029d578063df6516bd146102b0578063f851a440146102d057600080fd5b8063704b6c021461022f578063a91ee0dc1461024f578063b7e036611461026f57600080fd5b80634ddf47d4116100a55780634ddf47d4146101a75780635ab1bd53146101c75780636e9960c3146101fb57600080fd5b806308a1eb20146100da57806325d5cac8146101305780634827ae0c1461015257600080fd5b366100d557600080fd5b600080fd5b3480156100e657600080fd5b506100fa6100f5366004611157565b6102e5565b6040517fffffffff0000000000000000000000000000000000000000000000000000000090911681526020015b60405180910390f35b34801561013c57600080fd5b5061015061014b3660046111cf565b61039c565b005b34801561015e57600080fd5b507fb4107f746e9496e8452accc7de63d1c5e14c19f510932daa04077cd49e8bd77a545b60405173ffffffffffffffffffffffffffffffffffffffff9091168152602001610127565b3480156101b357600080fd5b506100fa6101c23660046112c6565b61047b565b3480156101d357600080fd5b507fce8e75d5c5227ce29a4ee170160bb296e5dea6934b80a9bd723f7ef1e7c850e754610182565b34801561020757600080fd5b507f3f106594dc74eeef980dae234cde8324dc2497b13d27a0c59e55bd2ca10a07c954610182565b34801561023b57600080fd5b5061015061024a3660046111cf565b6105e2565b34801561025b57600080fd5b5061015061026a3660046111cf565b6106bc565b34801561027b57600080fd5b5061028f61028a366004611303565b610796565b6040516101279291906113d1565b6101506102ab36600461140c565b6107ea565b3480156102bc57600080fd5b506101506102cb366004611547565b6108c5565b3480156102dc57600080fd5b50610182610e10565b60008080806102f685870187611547565b6040517fdf6516bd0000000000000000000000000000000000000000000000000000000081529295509093509150309063df6516bd9061033e908690869086906004016115aa565b600060405180830381600087803b15801561035857600080fd5b505af115801561036c573d6000803e3d6000fd5b507f08a1eb20000000000000000000000000000000000000000000000000000000009a9950505050505050505050565b7f3f106594dc74eeef980dae234cde8324dc2497b13d27a0c59e55bd2ca10a07c95473ffffffffffffffffffffffffffffffffffffffff163373ffffffffffffffffffffffffffffffffffffffff1614610457576040517f08c379a000000000000000000000000000000000000000000000000000000000815260206004820152601e60248201527f484f4c4f47524150483a2061646d696e206f6e6c792066756e6374696f6e000060448201526064015b60405180910390fd5b7fb4107f746e9496e8452accc7de63d1c5e14c19f510932daa04077cd49e8bd77a55565b60006104a57f4e5f991bca30eca2d4643aaefa807e88f96a4a97398933d572a3c0d973004a015490565b1561050c576040517f08c379a000000000000000000000000000000000000000000000000000000000815260206004820152601e60248201527f484f4c4f47524150483a20616c726561647920696e697469616c697a65640000604482015260640161044e565b60008083806020019051810190610523919061166c565b91509150327f3f106594dc74eeef980dae234cde8324dc2497b13d27a0c59e55bd2ca10a07c955817fb4107f746e9496e8452accc7de63d1c5e14c19f510932daa04077cd49e8bd77a55807fce8e75d5c5227ce29a4ee170160bb296e5dea6934b80a9bd723f7ef1e7c850e7556105b960017f4e5f991bca30eca2d4643aaefa807e88f96a4a97398933d572a3c0d973004a0155565b507f4ddf47d4000000000000000000000000000000000000000000000000000000009392505050565b7f3f106594dc74eeef980dae234cde8324dc2497b13d27a0c59e55bd2ca10a07c95473ffffffffffffffffffffffffffffffffffffffff163373ffffffffffffffffffffffffffffffffffffffff1614610698576040517f08c379a000000000000000000000000000000000000000000000000000000000815260206004820152601e60248201527f484f4c4f47524150483a2061646d696e206f6e6c792066756e6374696f6e0000604482015260640161044e565b7f3f106594dc74eeef980dae234cde8324dc2497b13d27a0c59e55bd2ca10a07c955565b7f3f106594dc74eeef980dae234cde8324dc2497b13d27a0c59e55bd2ca10a07c95473ffffffffffffffffffffffffffffffffffffffff163373ffffffffffffffffffffffffffffffffffffffff1614610772576040517f08c379a000000000000000000000000000000000000000000000000000000000815260206004820152601e60248201527f484f4c4f47524150483a2061646d696e206f6e6c792066756e6374696f6e0000604482015260640161044e565b7fce8e75d5c5227ce29a4ee170160bb296e5dea6934b80a9bd723f7ef1e7c850e755565b6000606063b7e0366160e01b848481818080601f016020809104026020016040519081016040528093929190818152602001838380828437600092019190915250959c929b50919950505050505050505050565b7f3f106594dc74eeef980dae234cde8324dc2497b13d27a0c59e55bd2ca10a07c95473ffffffffffffffffffffffffffffffffffffffff163373ffffffffffffffffffffffffffffffffffffffff16146108a0576040517f08c379a000000000000000000000000000000000000000000000000000000000815260206004820152601e60248201527f484f4c4f47524150483a2061646d696e206f6e6c792066756e6374696f6e0000604482015260640161044e565b808260003760008082600034875af13d6000803e8080156108c0573d6000f35b3d6000fd5b7fb4107f746e9496e8452accc7de63d1c5e14c19f510932daa04077cd49e8bd77a547fce8e75d5c5227ce29a4ee170160bb296e5dea6934b80a9bd723f7ef1e7c850e754845160208087015160408089015160608a015180519085012060808b015180519086012092519697966000966109b296909594918b910195865260e09490941b7fffffffff0000000000000000000000000000000000000000000000000000000016602086015260248501929092526044840152606483015260601b7fffffffffffffffffffffffffffffffffffffffff00000000000000000000000016608482015260980190565b6040516020818303038152906040528051906020012090506109e38560000151866020015187604001518488610e3f565b610a49576040517f08c379a000000000000000000000000000000000000000000000000000000000815260206004820152601c60248201527f484f4c4f47524150483a20696e76616c6964207369676e617475726500000000604482015260640161044e565b600060405180602001610a5b906110e8565b7fffffffffffffffffffffffffffffffffffffffffffffffffffffffffffffffe082820381018352601f90910116604081815282516020808501919091207fff00000000000000000000000000000000000000000000000000000000000000828501527fffffffffffffffffffffffffffffffffffffffff0000000000000000000000003060601b166021850152603584018790526055808501919091528251808503909101815260759093019091528151910120909150610b1c816110ae565b15610b83576040517f08c379a000000000000000000000000000000000000000000000000000000000815260206004820152601b60248201527f484f4c4f47524150483a20616c7265616479206465706c6f7965640000000000604482015260640161044e565b60608801518051849160009183906020830184f59150828551602087016000f560208c8101518d516040805163ffffffff9093169383019390935273ffffffffffffffffffffffffffffffffffffffff8b811693830193909352606082015284821660808201529195507f4ddf47d4000000000000000000000000000000000000000000000000000000009190861690634ddf47d49060a0016040516020818303038152906040528e60800151604051602001610c419291906116a6565b6040516020818303038152906040526040518263ffffffff1660e01b8152600401610c6c91906116cb565b6020604051808303816000875af1158015610c8b573d6000803e3d6000fd5b505050506040513d601f19601f82011682018060405250810190610caf91906116de565b7fffffffff000000000000000000000000000000000000000000000000000000001614610d38576040517f08c379a000000000000000000000000000000000000000000000000000000000815260206004820152601560248201527f696e697469616c697a6174696f6e206661696c65640000000000000000000000604482015260640161044e565b6040517f725229f60000000000000000000000000000000000000000000000000000000081526004810187905273ffffffffffffffffffffffffffffffffffffffff858116602483015289169063725229f690604401600060405180830381600087803b158015610da857600080fd5b505af1158015610dbc573d6000803e3d6000fd5b505060405188925073ffffffffffffffffffffffffffffffffffffffff871691507fa802207d4c618b40db3b25b7b90e6f483e16b2c1f8d3610b15b345a718c6b41b90600090a35050505050505050505050565b6000610e3a7f3f106594dc74eeef980dae234cde8324dc2497b13d27a0c59e55bd2ca10a07c95490565b905090565b6000601b8460ff161015610e5b57610e58601b8561174f565b93505b8360ff16601b14158015610e7357508360ff16601c14155b15610e80575060006110a5565b7f7fffffffffffffffffffffffffffffff5d576e7357a4501ddfe92f46681b20a0851115610f0457610ed2857ffffffffffffffffffffffffffffffffebaaedce6af48a03bbfd25e8cd0364141611774565b94507f7fffffffffffffffffffffffffffffff5d576e7357a4501ddfe92f46681b20a0851115610f04575060006110a5565b73ffffffffffffffffffffffffffffffffffffffff8216158015906110a257506040517f19457468657265756d205369676e6564204d6573736167653a0a3332000000006020820152603c810184905273ffffffffffffffffffffffffffffffffffffffff831690600190605c01604080517fffffffffffffffffffffffffffffffffffffffffffffffffffffffffffffffe08184030181528282528051602091820120600084529083018083525260ff881690820152606081018990526080810188905260a0016020604051602081039080840390855afa158015610fee573d6000803e3d6000fd5b5050506020604051035173ffffffffffffffffffffffffffffffffffffffff1614806110a2575060408051600081526020810180835285905260ff861691810191909152606081018790526080810186905273ffffffffffffffffffffffffffffffffffffffff83169060019060a0016020604051602081039080840390855afa158015611080573d6000803e3d6000fd5b5050506020604051035173ffffffffffffffffffffffffffffffffffffffff16145b90505b95945050505050565b6000813f80158015906110e157507fc5d2460186f7233c927e7db2dcc703c0e500b653ca82273b7bfad8045d85a4708114155b9392505050565b610f398061178c83390190565b803563ffffffff8116811461110957600080fd5b919050565b60008083601f84011261112057600080fd5b50813567ffffffffffffffff81111561113857600080fd5b60208301915083602082850101111561115057600080fd5b9250929050565b60008060006040848603121561116c57600080fd5b611175846110f5565b9250602084013567ffffffffffffffff81111561119157600080fd5b61119d8682870161110e565b9497909650939450505050565b73ffffffffffffffffffffffffffffffffffffffff811681146111cc57600080fd5b50565b6000602082840312156111e157600080fd5b81356110e1816111aa565b7f4e487b7100000000000000000000000000000000000000000000000000000000600052604160045260246000fd5b600082601f83011261122c57600080fd5b813567ffffffffffffffff80821115611247576112476111ec565b604051601f83017fffffffffffffffffffffffffffffffffffffffffffffffffffffffffffffffe0908116603f0116810190828211818310171561128d5761128d6111ec565b816040528381528660208588010111156112a657600080fd5b836020870160208301376000602085830101528094505050505092915050565b6000602082840312156112d857600080fd5b813567ffffffffffffffff8111156112ef57600080fd5b6112fb8482850161121b565b949350505050565b6000806000806060858703121561131957600080fd5b611322856110f5565b93506020850135611332816111aa565b9250604085013567ffffffffffffffff81111561134e57600080fd5b61135a8782880161110e565b95989497509550505050565b6000815180845260005b8181101561138c57602081850181015186830182015201611370565b8181111561139e576000602083870101525b50601f017fffffffffffffffffffffffffffffffffffffffffffffffffffffffffffffffe0169290920160200192915050565b7fffffffff00000000000000000000000000000000000000000000000000000000831681526040602082015260006112fb6040830184611366565b60008060006040848603121561142157600080fd5b8335611175816111aa565b600060a0828403121561143e57600080fd5b60405160a0810167ffffffffffffffff8282108183111715611462576114626111ec565b8160405282935084358352611479602086016110f5565b602084015260408501356040840152606085013591508082111561149c57600080fd5b6114a88683870161121b565b606084015260808501359150808211156114c157600080fd5b506114ce8582860161121b565b6080830152505092915050565b6000606082840312156114ed57600080fd5b6040516060810181811067ffffffffffffffff82111715611510576115106111ec565b80604052508091508235815260208301356020820152604083013560ff8116811461153a57600080fd5b6040919091015292915050565b600080600060a0848603121561155c57600080fd5b833567ffffffffffffffff81111561157357600080fd5b61157f8682870161142c565b93505061158f85602086016114db565b9150608084013561159f816111aa565b809150509250925092565b60a08152835160a082015263ffffffff60208501511660c0820152604084015160e08201526000606085015160a06101008401526115ec610140840182611366565b905060808601517fffffffffffffffffffffffffffffffffffffffffffffffffffffffffffffff60848303016101208501526116288282611366565b92505050835160208301526020840151604083015260ff60408501511660608301526112fb608083018473ffffffffffffffffffffffffffffffffffffffff169052565b6000806040838503121561167f57600080fd5b825161168a816111aa565b602084015190925061169b816111aa565b809150509250929050565b6040815260006116b96040830185611366565b82810360208401526110a58185611366565b6020815260006110e16020830184611366565b6000602082840312156116f057600080fd5b81517fffffffff00000000000000000000000000000000000000000000000000000000811681146110e157600080fd5b7f4e487b7100000000000000000000000000000000000000000000000000000000600052601160045260246000fd5b600060ff821660ff84168060ff0382111561176c5761176c611720565b019392505050565b60008282101561178657611786611720565b50039056fe608060405234801561001057600080fd5b50610f19806100206000396000f3fe6080604052600436106100c05760003560e01c806380d1cb3511610074578063c51a29e01161004e578063c51a29e0146102b7578063c8a4c3d5146102f4578063f851a44014610309576100c7565b806380d1cb351461022c578063913a0ef214610260578063bf64a82d146102a4576100c7565b80636e9960c3116100a55780636e9960c3146101a45780636faf275b146101d8578063704b6c021461020c576100c7565b80634827ae0c146100f95780634ddf47d414610153576100c7565b366100c757005b60006100d161031e565b90503660008037600080366000845af43d6000803e8080156100f2573d6000f35b3d6000fd5b005b34801561010557600080fd5b507fb4107f746e9496e8452accc7de63d1c5e14c19f510932daa04077cd49e8bd77a545b60405173ffffffffffffffffffffffffffffffffffffffff90911681526020015b60405180910390f35b34801561015f57600080fd5b5061017361016e366004610bb3565b61045c565b6040517fffffffff00000000000000000000000000000000000000000000000000000000909116815260200161014a565b3480156101b057600080fd5b507f3f106594dc74eeef980dae234cde8324dc2497b13d27a0c59e55bd2ca10a07c954610129565b3480156101e457600080fd5b507f27d542086d1e831d40b749e7f5509a626c3047a36d160781c40d5acc83e5b07454610129565b34801561021857600080fd5b506100f7610227366004610c58565b610910565b34801561023857600080fd5b507f9172848b0f1df776dc924b58e7fa303087ae0409bbf611608529e7f747d55de354610129565b34801561026c57600080fd5b507fd49ffd6af8249d6e6b5963d9d2b22c6db30ad594cb468453047a14e1c1bcde4d5460405163ffffffff909116815260200161014a565b6100f76102b2366004610c7c565b6109ea565b3480156102c357600080fd5b507f0b671eb65810897366dd82c4cbb7d9dff8beda8484194956e81e89b8a361d9c75460405190815260200161014a565b34801561030057600080fd5b5061012961031e565b34801561031557600080fd5b50610129610ac0565b60008060007fb4107f746e9496e8452accc7de63d1c5e14c19f510932daa04077cd49e8bd77a5491507f0b671eb65810897366dd82c4cbb7d9dff8beda8484194956e81e89b8a361d9c75490508173ffffffffffffffffffffffffffffffffffffffff16635ab1bd536040518163ffffffff1660e01b8152600401602060405180830381865afa1580156103b6573d6000803e3d6000fd5b505050506040513d601f19601f820116820180604052508101906103da9190610d01565b73ffffffffffffffffffffffffffffffffffffffff166374b7510c826040518263ffffffff1660e01b815260040161041491815260200190565b602060405180830381865afa158015610431573d6000803e3d6000fd5b505050506040513d601f19601f820116820180604052508101906104559190610d01565b9250505090565b60006104867f4e5f991bca30eca2d4643aaefa807e88f96a4a97398933d572a3c0d973004a015490565b156104f2576040517f08c379a000000000000000000000000000000000000000000000000000000000815260206004820181905260248201527f484f4c4f475241504845523a20616c726561647920696e697469616c697a656460448201526064015b60405180910390fd5b600080838060200190518101906105099190610d9b565b91509150600080600080858060200190518101906105279190610dff565b9350935093509350337f3f106594dc74eeef980dae234cde8324dc2497b13d27a0c59e55bd2ca10a07c955437f9172848b0f1df776dc924b58e7fa303087ae0409bbf611608529e7f747d55de355817f0b671eb65810897366dd82c4cbb7d9dff8beda8484194956e81e89b8a361d9c755827fb4107f746e9496e8452accc7de63d1c5e14c19f510932daa04077cd49e8bd77a55837fd49ffd6af8249d6e6b5963d9d2b22c6db30ad594cb468453047a14e1c1bcde4d55807f27d542086d1e831d40b749e7f5509a626c3047a36d160781c40d5acc83e5b074556000808473ffffffffffffffffffffffffffffffffffffffff16635ab1bd536040518163ffffffff1660e01b8152600401602060405180830381865afa15801561064f573d6000803e3d6000fd5b505050506040513d601f19601f820116820180604052508101906106739190610d01565b73ffffffffffffffffffffffffffffffffffffffff166374b7510c856040518263ffffffff1660e01b81526004016106ad91815260200190565b602060405180830381865afa1580156106ca573d6000803e3d6000fd5b505050506040513d601f19601f820116820180604052508101906106ee9190610d01565b73ffffffffffffffffffffffffffffffffffffffff16634ddf47d460e01b8860405160240161071d9190610e5d565b604080517fffffffffffffffffffffffffffffffffffffffffffffffffffffffffffffffe08184030181529181526020820180517bffffffffffffffffffffffffffffffffffffffffffffffffffffffff167fffffffff000000000000000000000000000000000000000000000000000000009094169390931790925290516107a69190610eae565b600060405180830381855af49150503d80600081146107e1576040519150601f19603f3d011682016040523d82523d6000602084013e6107e6565b606091505b50915091506000818060200190518101906108019190610eca565b905082801561085157507fffffffff0000000000000000000000000000000000000000000000000000000081167f4ddf47d400000000000000000000000000000000000000000000000000000000145b6108b7576040517f08c379a000000000000000000000000000000000000000000000000000000000815260206004820152601560248201527f696e697469616c697a6174696f6e206661696c6564000000000000000000000060448201526064016104e9565b6108e060017f4e5f991bca30eca2d4643aaefa807e88f96a4a97398933d572a3c0d973004a0155565b507f4ddf47d4000000000000000000000000000000000000000000000000000000009a9950505050505050505050565b7f3f106594dc74eeef980dae234cde8324dc2497b13d27a0c59e55bd2ca10a07c95473ffffffffffffffffffffffffffffffffffffffff163373ffffffffffffffffffffffffffffffffffffffff16146109c6576040517f08c379a000000000000000000000000000000000000000000000000000000000815260206004820152601e60248201527f484f4c4f47524150483a2061646d696e206f6e6c792066756e6374696f6e000060448201526064016104e9565b7f3f106594dc74eeef980dae234cde8324dc2497b13d27a0c59e55bd2ca10a07c955565b7f3f106594dc74eeef980dae234cde8324dc2497b13d27a0c59e55bd2ca10a07c95473ffffffffffffffffffffffffffffffffffffffff163373ffffffffffffffffffffffffffffffffffffffff1614610aa0576040517f08c379a000000000000000000000000000000000000000000000000000000000815260206004820152601e60248201527f484f4c4f47524150483a2061646d696e206f6e6c792066756e6374696f6e000060448201526064016104e9565b808260003760008082600034875af13d6000803e8080156100f2573d6000f35b6000610aea7f3f106594dc74eeef980dae234cde8324dc2497b13d27a0c59e55bd2ca10a07c95490565b905090565b7f4e487b7100000000000000000000000000000000000000000000000000000000600052604160045260246000fd5b604051601f82017fffffffffffffffffffffffffffffffffffffffffffffffffffffffffffffffe016810167ffffffffffffffff81118282101715610b6557610b65610aef565b604052919050565b600067ffffffffffffffff821115610b8757610b87610aef565b50601f017fffffffffffffffffffffffffffffffffffffffffffffffffffffffffffffffe01660200190565b600060208284031215610bc557600080fd5b813567ffffffffffffffff811115610bdc57600080fd5b8201601f81018413610bed57600080fd5b8035610c00610bfb82610b6d565b610b1e565b818152856020838501011115610c1557600080fd5b81602084016020830137600091810160200191909152949350505050565b73ffffffffffffffffffffffffffffffffffffffff81168114610c5557600080fd5b50565b600060208284031215610c6a57600080fd5b8135610c7581610c33565b9392505050565b600080600060408486031215610c9157600080fd5b8335610c9c81610c33565b9250602084013567ffffffffffffffff80821115610cb957600080fd5b818601915086601f830112610ccd57600080fd5b813581811115610cdc57600080fd5b876020828501011115610cee57600080fd5b6020830194508093505050509250925092565b600060208284031215610d1357600080fd5b8151610c7581610c33565b60005b83811015610d39578181015183820152602001610d21565b83811115610d48576000848401525b50505050565b600082601f830112610d5f57600080fd5b8151610d6d610bfb82610b6d565b818152846020838601011115610d8257600080fd5b610d93826020830160208701610d1e565b949350505050565b60008060408385031215610dae57600080fd5b825167ffffffffffffffff80821115610dc657600080fd5b610dd286838701610d4e565b93506020850151915080821115610de857600080fd5b50610df585828601610d4e565b9150509250929050565b60008060008060808587031215610e1557600080fd5b845163ffffffff81168114610e2957600080fd5b6020860151909450610e3a81610c33565b604086015160608701519194509250610e5281610c33565b939692955090935050565b6020815260008251806020840152610e7c816040850160208701610d1e565b601f017fffffffffffffffffffffffffffffffffffffffffffffffffffffffffffffffe0169190910160400192915050565b60008251610ec0818460208701610d1e565b9190910192915050565b600060208284031215610edc57600080fd5b81517fffffffff0000000000000000000000000000000000000000000000000000000081168114610c7557600080fdfea164736f6c634300080d000aa164736f6c634300080d000a",
  "devdoc": {
    "author": "https://github.com/holographxyz",
    "details": "The contract provides methods that allow for the creation of Holograph Protocol compliant smart contracts, that are capable of minting holographable assets",
    "kind": "dev",
    "methods": {
      "bridgeIn(uint32,bytes)": {
        "details": "This function directly forwards the calldata to the deployHolographableContract function      It is used to allow for Holograph Bridge to make cross-chain deployments"
      },
      "bridgeOut(uint32,address,bytes)": {
        "details": "This function directly returns the calldata      It is used to allow for Holograph Bridge to make cross-chain deployments"
      },
      "constructor": {
        "details": "Constructor is left empty and init is used instead"
      },
      "deployHolographableContract((bytes32,uint32,bytes32,bytes,bytes),(bytes32,bytes32,uint8),address)": {
        "details": "Using this function allows to deploy smart contracts that have the same address across all EVM chains",
        "params": {
          "config": "contract deployement configurations",
          "signature": "that was created by the wallet that created the original payload",
          "signer": "address of wallet that created the payload"
        }
      },
      "getHolograph()": {
        "details": "Used for storing a reference to all the primary modules and variables of the protocol"
      },
      "getRegistry()": {
        "details": "This module stores a reference for all deployed holographable smart contracts"
      },
      "init(bytes)": {
        "details": "This function is called by the deployer/factory when creating a contract",
        "params": {
          "initPayload": "abi encoded payload to use for contract initilaization"
        }
      },
      "setHolograph(address)": {
        "params": {
          "holograph": "address of the Holograph Protocol smart contract to use"
        }
      },
      "setRegistry(address)": {
        "params": {
          "registry": "address of the Holograph Registry smart contract to use"
        }
      }
    },
    "stateVariables": {
      "_holographSlot": {
        "details": "bytes32(uint256(keccak256('eip1967.Holograph.holograph')) - 1)"
      },
      "_registrySlot": {
        "details": "bytes32(uint256(keccak256('eip1967.Holograph.registry')) - 1)"
      }
    },
    "title": "Holograph Factory",
    "version": 1
  },
  "userdoc": {
    "kind": "user",
    "methods": {
      "bridgeIn(uint32,bytes)": {
        "notice": "Deploy holographable contract via bridge request"
      },
      "bridgeOut(uint32,address,bytes)": {
        "notice": "Deploy holographable contract via bridge request"
      },
      "deployHolographableContract((bytes32,uint32,bytes32,bytes,bytes),(bytes32,bytes32,uint8),address)": {
        "notice": "Deploy a holographable smart contract"
      },
      "getHolograph()": {
        "notice": "Get the Holograph Protocol contract"
      },
      "getRegistry()": {
        "notice": "Get the Holograph Registry module"
      },
      "init(bytes)": {
        "notice": "Used internally to initialize the contract instead of through a constructor"
      },
      "setHolograph(address)": {
        "notice": "Update the Holograph Protocol contract address"
      },
      "setRegistry(address)": {
        "notice": "Update the Holograph Registry module address"
      }
    },
    "notice": "Deploy holographable contracts",
    "version": 1
  },
  "storageLayout": {
    "storage": [],
    "types": null
  }
}