{
  "address": "0x759E339891F180abeFa6D68740F17B5d38AE87C3",
  "abi": [
    {
      "inputs": [],
      "stateMutability": "nonpayable",
      "type": "constructor"
    },
    {
      "anonymous": false,
      "inputs": [
        {
          "indexed": true,
          "internalType": "address",
          "name": "_owner",
          "type": "address"
        },
        {
          "indexed": true,
          "internalType": "address",
          "name": "_spender",
          "type": "address"
        },
        {
          "indexed": false,
          "internalType": "uint256",
          "name": "_value",
          "type": "uint256"
        }
      ],
      "name": "Approval",
      "type": "event"
    },
    {
      "anonymous": false,
      "inputs": [
        {
          "indexed": true,
          "internalType": "address",
          "name": "previousOwner",
          "type": "address"
        },
        {
          "indexed": true,
          "internalType": "address",
          "name": "newOwner",
          "type": "address"
        }
      ],
      "name": "OwnershipTransferred",
      "type": "event"
    },
    {
      "anonymous": false,
      "inputs": [
        {
          "indexed": true,
          "internalType": "address",
          "name": "_from",
          "type": "address"
        },
        {
          "indexed": true,
          "internalType": "address",
          "name": "_to",
          "type": "address"
        },
        {
          "indexed": false,
          "internalType": "uint256",
          "name": "_value",
          "type": "uint256"
        }
      ],
      "name": "Transfer",
      "type": "event"
    },
    {
      "stateMutability": "payable",
      "type": "fallback"
    },
    {
      "inputs": [],
      "name": "DOMAIN_SEPARATOR",
      "outputs": [
        {
          "internalType": "bytes32",
          "name": "",
          "type": "bytes32"
        }
      ],
      "stateMutability": "view",
      "type": "function"
    },
    {
      "inputs": [],
      "name": "admin",
      "outputs": [
        {
          "internalType": "address",
          "name": "",
          "type": "address"
        }
      ],
      "stateMutability": "view",
      "type": "function"
    },
    {
      "inputs": [
        {
          "internalType": "address",
          "name": "target",
          "type": "address"
        },
        {
          "internalType": "bytes",
          "name": "data",
          "type": "bytes"
        }
      ],
      "name": "adminCall",
      "outputs": [],
      "stateMutability": "payable",
      "type": "function"
    },
    {
      "inputs": [
        {
          "internalType": "address",
          "name": "account",
          "type": "address"
        },
        {
          "internalType": "address",
          "name": "spender",
          "type": "address"
        }
      ],
      "name": "allowance",
      "outputs": [
        {
          "internalType": "uint256",
          "name": "",
          "type": "uint256"
        }
      ],
      "stateMutability": "view",
      "type": "function"
    },
    {
      "inputs": [
        {
          "internalType": "address",
          "name": "spender",
          "type": "address"
        },
        {
          "internalType": "uint256",
          "name": "amount",
          "type": "uint256"
        }
      ],
      "name": "approve",
      "outputs": [
        {
          "internalType": "bool",
          "name": "",
          "type": "bool"
        }
      ],
      "stateMutability": "nonpayable",
      "type": "function"
    },
    {
      "inputs": [
        {
          "internalType": "address",
          "name": "account",
          "type": "address"
        }
      ],
      "name": "balanceOf",
      "outputs": [
        {
          "internalType": "uint256",
          "name": "",
          "type": "uint256"
        }
      ],
      "stateMutability": "view",
      "type": "function"
    },
    {
      "inputs": [
        {
          "internalType": "uint32",
          "name": "fromChain",
          "type": "uint32"
        },
        {
          "internalType": "bytes",
          "name": "payload",
          "type": "bytes"
        }
      ],
      "name": "bridgeIn",
      "outputs": [
        {
          "internalType": "bytes4",
          "name": "",
          "type": "bytes4"
        }
      ],
      "stateMutability": "nonpayable",
      "type": "function"
    },
    {
      "inputs": [
        {
          "internalType": "uint32",
          "name": "toChain",
          "type": "uint32"
        },
        {
          "internalType": "address",
          "name": "sender",
          "type": "address"
        },
        {
          "internalType": "bytes",
          "name": "payload",
          "type": "bytes"
        }
      ],
      "name": "bridgeOut",
      "outputs": [
        {
          "internalType": "bytes4",
          "name": "selector",
          "type": "bytes4"
        },
        {
          "internalType": "bytes",
          "name": "data",
          "type": "bytes"
        }
      ],
      "stateMutability": "nonpayable",
      "type": "function"
    },
    {
      "inputs": [
        {
          "internalType": "uint256",
          "name": "amount",
          "type": "uint256"
        }
      ],
      "name": "burn",
      "outputs": [],
      "stateMutability": "nonpayable",
      "type": "function"
    },
    {
      "inputs": [
        {
          "internalType": "address",
          "name": "account",
          "type": "address"
        },
        {
          "internalType": "uint256",
          "name": "amount",
          "type": "uint256"
        }
      ],
      "name": "burnFrom",
      "outputs": [
        {
          "internalType": "bool",
          "name": "",
          "type": "bool"
        }
      ],
      "stateMutability": "nonpayable",
      "type": "function"
    },
    {
      "inputs": [],
      "name": "decimals",
      "outputs": [
        {
          "internalType": "uint8",
          "name": "",
          "type": "uint8"
        }
      ],
      "stateMutability": "view",
      "type": "function"
    },
    {
      "inputs": [
        {
          "internalType": "address",
          "name": "spender",
          "type": "address"
        },
        {
          "internalType": "uint256",
          "name": "subtractedValue",
          "type": "uint256"
        }
      ],
      "name": "decreaseAllowance",
      "outputs": [
        {
          "internalType": "bool",
          "name": "",
          "type": "bool"
        }
      ],
      "stateMutability": "nonpayable",
      "type": "function"
    },
    {
      "inputs": [],
      "name": "getAdmin",
      "outputs": [
        {
          "internalType": "address",
          "name": "adminAddress",
          "type": "address"
        }
      ],
      "stateMutability": "view",
      "type": "function"
    },
    {
      "inputs": [],
      "name": "getContractType",
      "outputs": [
        {
          "internalType": "bytes32",
          "name": "contractType",
          "type": "bytes32"
        }
      ],
      "stateMutability": "view",
      "type": "function"
    },
    {
      "inputs": [],
      "name": "getOwner",
      "outputs": [
        {
          "internalType": "address",
          "name": "ownerAddress",
          "type": "address"
        }
      ],
      "stateMutability": "view",
      "type": "function"
    },
    {
      "inputs": [
        {
          "internalType": "address",
          "name": "to",
          "type": "address"
        },
        {
          "internalType": "uint256",
          "name": "amount",
          "type": "uint256"
        }
      ],
      "name": "holographBridgeMint",
      "outputs": [
        {
          "internalType": "bytes4",
          "name": "",
          "type": "bytes4"
        }
      ],
      "stateMutability": "nonpayable",
      "type": "function"
    },
    {
      "inputs": [
        {
          "internalType": "address",
          "name": "spender",
          "type": "address"
        },
        {
          "internalType": "uint256",
          "name": "addedValue",
          "type": "uint256"
        }
      ],
      "name": "increaseAllowance",
      "outputs": [
        {
          "internalType": "bool",
          "name": "",
          "type": "bool"
        }
      ],
      "stateMutability": "nonpayable",
      "type": "function"
    },
    {
      "inputs": [
        {
          "internalType": "bytes",
          "name": "initPayload",
          "type": "bytes"
        }
      ],
      "name": "init",
      "outputs": [
        {
          "internalType": "bytes4",
          "name": "",
          "type": "bytes4"
        }
      ],
      "stateMutability": "nonpayable",
      "type": "function"
    },
    {
      "inputs": [],
      "name": "name",
      "outputs": [
        {
          "internalType": "string",
          "name": "",
          "type": "string"
        }
      ],
      "stateMutability": "view",
      "type": "function"
    },
    {
      "inputs": [
        {
          "internalType": "address",
          "name": "account",
          "type": "address"
        }
      ],
      "name": "nonces",
      "outputs": [
        {
          "internalType": "uint256",
          "name": "",
          "type": "uint256"
        }
      ],
      "stateMutability": "view",
      "type": "function"
    },
    {
      "inputs": [
        {
          "internalType": "address",
          "name": "account",
          "type": "address"
        },
        {
          "internalType": "address",
          "name": "sender",
          "type": "address"
        },
        {
          "internalType": "uint256",
          "name": "amount",
          "type": "uint256"
        },
        {
          "internalType": "bytes",
          "name": "data",
          "type": "bytes"
        }
      ],
      "name": "onERC20Received",
      "outputs": [
        {
          "internalType": "bytes4",
          "name": "",
          "type": "bytes4"
        }
      ],
      "stateMutability": "nonpayable",
      "type": "function"
    },
    {
      "inputs": [],
      "name": "owner",
      "outputs": [
        {
          "internalType": "address",
          "name": "",
          "type": "address"
        }
      ],
      "stateMutability": "view",
      "type": "function"
    },
    {
      "inputs": [
        {
          "internalType": "address",
          "name": "target",
          "type": "address"
        },
        {
          "internalType": "bytes",
          "name": "data",
          "type": "bytes"
        }
      ],
      "name": "ownerCall",
      "outputs": [],
      "stateMutability": "payable",
      "type": "function"
    },
    {
      "inputs": [
        {
          "internalType": "address",
          "name": "account",
          "type": "address"
        },
        {
          "internalType": "address",
          "name": "spender",
          "type": "address"
        },
        {
          "internalType": "uint256",
          "name": "amount",
          "type": "uint256"
        },
        {
          "internalType": "uint256",
          "name": "deadline",
          "type": "uint256"
        },
        {
          "internalType": "uint8",
          "name": "v",
          "type": "uint8"
        },
        {
          "internalType": "bytes32",
          "name": "r",
          "type": "bytes32"
        },
        {
          "internalType": "bytes32",
          "name": "s",
          "type": "bytes32"
        }
      ],
      "name": "permit",
      "outputs": [],
      "stateMutability": "nonpayable",
      "type": "function"
    },
    {
      "inputs": [
        {
          "internalType": "address",
          "name": "recipient",
          "type": "address"
        },
        {
          "internalType": "uint256",
          "name": "amount",
          "type": "uint256"
        }
      ],
      "name": "safeTransfer",
      "outputs": [
        {
          "internalType": "bool",
          "name": "",
          "type": "bool"
        }
      ],
      "stateMutability": "nonpayable",
      "type": "function"
    },
    {
      "inputs": [
        {
          "internalType": "address",
          "name": "recipient",
          "type": "address"
        },
        {
          "internalType": "uint256",
          "name": "amount",
          "type": "uint256"
        },
        {
          "internalType": "bytes",
          "name": "data",
          "type": "bytes"
        }
      ],
      "name": "safeTransfer",
      "outputs": [
        {
          "internalType": "bool",
          "name": "",
          "type": "bool"
        }
      ],
      "stateMutability": "nonpayable",
      "type": "function"
    },
    {
      "inputs": [
        {
          "internalType": "address",
          "name": "account",
          "type": "address"
        },
        {
          "internalType": "address",
          "name": "recipient",
          "type": "address"
        },
        {
          "internalType": "uint256",
          "name": "amount",
          "type": "uint256"
        }
      ],
      "name": "safeTransferFrom",
      "outputs": [
        {
          "internalType": "bool",
          "name": "",
          "type": "bool"
        }
      ],
      "stateMutability": "nonpayable",
      "type": "function"
    },
    {
      "inputs": [
        {
          "internalType": "address",
          "name": "account",
          "type": "address"
        },
        {
          "internalType": "address",
          "name": "recipient",
          "type": "address"
        },
        {
          "internalType": "uint256",
          "name": "amount",
          "type": "uint256"
        },
        {
          "internalType": "bytes",
          "name": "data",
          "type": "bytes"
        }
      ],
      "name": "safeTransferFrom",
      "outputs": [
        {
          "internalType": "bool",
          "name": "",
          "type": "bool"
        }
      ],
      "stateMutability": "nonpayable",
      "type": "function"
    },
    {
      "inputs": [
        {
          "internalType": "address",
          "name": "adminAddress",
          "type": "address"
        }
      ],
      "name": "setAdmin",
      "outputs": [],
      "stateMutability": "nonpayable",
      "type": "function"
    },
    {
      "inputs": [
        {
          "internalType": "address",
          "name": "ownerAddress",
          "type": "address"
        }
      ],
      "name": "setOwner",
      "outputs": [],
      "stateMutability": "nonpayable",
      "type": "function"
    },
    {
      "inputs": [
        {
          "internalType": "address",
          "name": "from",
          "type": "address"
        },
        {
          "internalType": "uint256",
          "name": "amount",
          "type": "uint256"
        }
      ],
      "name": "sourceBurn",
      "outputs": [],
      "stateMutability": "nonpayable",
      "type": "function"
    },
    {
      "inputs": [
        {
          "internalType": "address",
          "name": "to",
          "type": "address"
        },
        {
          "internalType": "uint256",
          "name": "amount",
          "type": "uint256"
        }
      ],
      "name": "sourceMint",
      "outputs": [],
      "stateMutability": "nonpayable",
      "type": "function"
    },
    {
      "inputs": [
        {
          "internalType": "address[]",
          "name": "wallets",
          "type": "address[]"
        },
        {
          "internalType": "uint256[]",
          "name": "amounts",
          "type": "uint256[]"
        }
      ],
      "name": "sourceMintBatch",
      "outputs": [],
      "stateMutability": "nonpayable",
      "type": "function"
    },
    {
      "inputs": [
        {
          "internalType": "address",
          "name": "from",
          "type": "address"
        },
        {
          "internalType": "address",
          "name": "to",
          "type": "address"
        },
        {
          "internalType": "uint256",
          "name": "amount",
          "type": "uint256"
        }
      ],
      "name": "sourceTransfer",
      "outputs": [],
      "stateMutability": "nonpayable",
      "type": "function"
    },
    {
      "inputs": [
        {
          "internalType": "address payable",
          "name": "destination",
          "type": "address"
        }
      ],
      "name": "sourceWithdraw",
      "outputs": [],
      "stateMutability": "nonpayable",
      "type": "function"
    },
    {
      "inputs": [
        {
          "internalType": "bytes4",
          "name": "interfaceId",
          "type": "bytes4"
        }
      ],
      "name": "supportsInterface",
      "outputs": [
        {
          "internalType": "bool",
          "name": "",
          "type": "bool"
        }
      ],
      "stateMutability": "view",
      "type": "function"
    },
    {
      "inputs": [],
      "name": "symbol",
      "outputs": [
        {
          "internalType": "string",
          "name": "",
          "type": "string"
        }
      ],
      "stateMutability": "view",
      "type": "function"
    },
    {
      "inputs": [],
      "name": "totalSupply",
      "outputs": [
        {
          "internalType": "uint256",
          "name": "",
          "type": "uint256"
        }
      ],
      "stateMutability": "view",
      "type": "function"
    },
    {
      "inputs": [
        {
          "internalType": "address",
          "name": "recipient",
          "type": "address"
        },
        {
          "internalType": "uint256",
          "name": "amount",
          "type": "uint256"
        }
      ],
      "name": "transfer",
      "outputs": [
        {
          "internalType": "bool",
          "name": "",
          "type": "bool"
        }
      ],
      "stateMutability": "nonpayable",
      "type": "function"
    },
    {
      "inputs": [
        {
          "internalType": "address",
          "name": "account",
          "type": "address"
        },
        {
          "internalType": "address",
          "name": "recipient",
          "type": "address"
        },
        {
          "internalType": "uint256",
          "name": "amount",
          "type": "uint256"
        }
      ],
      "name": "transferFrom",
      "outputs": [
        {
          "internalType": "bool",
          "name": "",
          "type": "bool"
        }
      ],
      "stateMutability": "nonpayable",
      "type": "function"
    },
    {
      "inputs": [
        {
          "internalType": "address",
          "name": "newOwner",
          "type": "address"
        }
      ],
      "name": "transferOwnership",
      "outputs": [],
      "stateMutability": "nonpayable",
      "type": "function"
    },
    {
      "stateMutability": "payable",
      "type": "receive"
    }
  ],
  "transactionHash": "0x99c6b6adaf963a475ff3df025a7fb6a6ab7d9ac807892b98d30c1ef79eab47a8",
  "args": [],
  "numDeployments": 2,
  "solcInputHash": "8a3e7c0b8a48991c4a15cecfd042fb05",
  "bytecode": "0x608060405234801561001057600080fd5b50614b02806100206000396000f3fe6080604052600436106102ca5760003560e01c8063704b6c0211610179578063b7e03661116100d6578063dd62ed3e1161008a578063f2fde38b11610064578063f2fde38b146108d1578063f851a440146108f1578063fad66f9214610906576102d1565b8063dd62ed3e1461084b578063eb66dbcf1461089e578063eb795549146108b1576102d1565b8063bf64a82d116100bb578063bf64a82d146107e4578063c51a29e0146107f7578063d505accf1461082b576102d1565b8063b7e0366114610796578063b88d4fde146107c4576102d1565b80638da5cb5b1161012d578063a457c2d711610112578063a457c2d714610736578063a8eb29c914610756578063a9059cbb14610776576102d1565b80638da5cb5b1461070c57806395d89b4114610721576102d1565b806379cc67901161015e57806379cc6790146106755780637ecebe0014610695578063893d20e8146106d8576102d1565b8063704b6c021461061257806370a0823114610632576102d1565b8063313ce5671161022757806342966c68116101db5780634fc35859116101c05780634fc358591461057d57806366bd3d451461059d5780636e9960c3146105bd576102d1565b806342966c681461053d5780634ddf47d41461055d576102d1565b8063395093511161020c57806339509351146104dd578063423f6cef146104fd57806342842e0e1461051d576102d1565b8063313ce567146104a65780633644e515146104c8576102d1565b80630d5e2c1d1161027e57806318160ddd1161026357806318160ddd1461044757806323b872dd146104665780632711dbd614610486576102d1565b80630d5e2c1d1461040757806313af403514610427576102d1565b806308a1eb20116102af57806308a1eb2014610376578063095ea7b3146103c75780630d3ada54146103e7576102d1565b806301ffc9a71461031f57806306fdde0314610354576102d1565b366102d157005b3660008037333652600080602036016000347f27d542086d1e831d40b749e7f5509a626c3047a36d160781c40d5acc83e5b074545af13d6000803e808015610318573d6000f35b3d6000fd5b005b34801561032b57600080fd5b5061033f61033a366004613f68565b610926565b60405190151581526020015b60405180910390f35b34801561036057600080fd5b50610369610abc565b60405161034b9190613ffb565b34801561038257600080fd5b50610396610391366004614070565b610b4e565b6040517fffffffff00000000000000000000000000000000000000000000000000000000909116815260200161034b565b3480156103d357600080fd5b5061033f6103e23660046140e5565b610dea565b3480156103f357600080fd5b5061031d610402366004614156565b610ee4565b34801561041357600080fd5b5061031d6104223660046140e5565b610ff2565b34801561043357600080fd5b5061031d6104423660046141c2565b6110a2565b34801561045357600080fd5b506009545b60405190815260200161034b565b34801561047257600080fd5b5061033f6104813660046141df565b611205565b34801561049257600080fd5b5061031d6104a13660046141c2565b61157e565b3480156104b257600080fd5b50600c5460405160ff909116815260200161034b565b3480156104d457600080fd5b50610458611661565b3480156104e957600080fd5b5061033f6104f83660046140e5565b611670565b34801561050957600080fd5b5061033f6105183660046140e5565b611808565b34801561052957600080fd5b5061033f6105383660046141df565b61182b565b34801561054957600080fd5b5061031d610558366004614220565b611850565b34801561056957600080fd5b50610396610578366004614353565b611909565b34801561058957600080fd5b50610396610598366004614388565b611c1c565b3480156105a957600080fd5b5061031d6105b83660046140e5565b611e3f565b3480156105c957600080fd5b507f3f106594dc74eeef980dae234cde8324dc2497b13d27a0c59e55bd2ca10a07c9545b60405173ffffffffffffffffffffffffffffffffffffffff909116815260200161034b565b34801561061e57600080fd5b5061031d61062d3660046141c2565b611eea565b34801561063e57600080fd5b5061045861064d3660046141c2565b73ffffffffffffffffffffffffffffffffffffffff1660009081526007602052604090205490565b34801561068157600080fd5b5061033f6106903660046140e5565b611fc4565b3480156106a157600080fd5b506104586106b03660046141c2565b73ffffffffffffffffffffffffffffffffffffffff166000908152600d602052604090205490565b3480156106e457600080fd5b507fb56711ba6bd3ded7639fc335ee7524fe668a79d7558c85992e3f8494cf772777546105ed565b34801561071857600080fd5b506105ed61216d565b34801561072d57600080fd5b50610369612209565b34801561074257600080fd5b5061033f6107513660046140e5565b612218565b34801561076257600080fd5b5061031d6107713660046141df565b6122c0565b34801561078257600080fd5b5061033f6107913660046140e5565b612372565b3480156107a257600080fd5b506107b66107b13660046143fb565b61245a565b60405161034b929190614452565b3480156107d057600080fd5b5061033f6107df36600461448d565b6127fb565b61031d6107f23660046144f9565b612aed565b34801561080357600080fd5b507f0b671eb65810897366dd82c4cbb7d9dff8beda8484194956e81e89b8a361d9c754610458565b34801561083757600080fd5b5061031d610846366004614528565b612bc3565b34801561085757600080fd5b50610458610866366004614599565b73ffffffffffffffffffffffffffffffffffffffff918216600090815260086020908152604080832093909416825291909152205490565b61031d6108ac3660046144f9565b612e6a565b3480156108bd57600080fd5b5061033f6108cc3660046145d2565b612f20565b3480156108dd57600080fd5b5061031d6108ec3660046141c2565b612f98565b3480156108fd57600080fd5b506105ed6130ef565b34801561091257600080fd5b506103966109213660046140e5565b613119565b600080610931613277565b7f27d542086d1e831d40b749e7f5509a626c3047a36d160781c40d5acc83e5b074546040517f9fe7303f0000000000000000000000000000000000000000000000000000000081529192509073ffffffffffffffffffffffffffffffffffffffff831690639fe7303f906109ac90600190889060040161465a565b602060405180830381865afa1580156109c9573d6000803e3d6000fd5b505050506040513d601f19601f820116820180604052508101906109ed91906146d6565b80610aa357506040517f01ffc9a70000000000000000000000000000000000000000000000000000000081527fffffffff000000000000000000000000000000000000000000000000000000008516600482015273ffffffffffffffffffffffffffffffffffffffff8216906301ffc9a790602401602060405180830381865afa158015610a7f573d6000803e3d6000fd5b505050506040513d601f19601f82011682018060405250810190610aa391906146d6565b15610ab2575060019392505050565b5060009392505050565b6060600a8054610acb906146f1565b80601f0160208091040260200160405190810160405280929190818152602001828054610af7906146f1565b8015610b445780601f10610b1957610100808354040283529160200191610b44565b820191906000526020600020905b815481529060010190602001808311610b2757829003601f168201915b5050505050905090565b6000610b787fb4107f746e9496e8452accc7de63d1c5e14c19f510932daa04077cd49e8bd77a5490565b73ffffffffffffffffffffffffffffffffffffffff16630fffbaf36040518163ffffffff1660e01b8152600401602060405180830381865afa158015610bc2573d6000803e3d6000fd5b505050506040513d601f19601f82011682018060405250810190610be69190614744565b73ffffffffffffffffffffffffffffffffffffffff163373ffffffffffffffffffffffffffffffffffffffff1614610c7f576040517f08c379a000000000000000000000000000000000000000000000000000000000815260206004820152601760248201527f45524332303a20627269646765206f6e6c792063616c6c00000000000000000060448201526064015b60405180910390fd5b6000808080610c908688018861448d565b9350935093509350610ca2838361330f565b610cac600161342f565b15610dbd57610d5763f0f5407360e01b8986868686604051602401610cd5959493929190614761565b604080517fffffffffffffffffffffffffffffffffffffffffffffffffffffffffffffffe08184030181529190526020810180517bffffffffffffffffffffffffffffffffffffffffffffffffffffffff167fffffffff0000000000000000000000000000000000000000000000000000000090931692909217909152613462565b610dbd576040517f08c379a000000000000000000000000000000000000000000000000000000000815260206004820152601b60248201527f484f4c4f47524150483a2062726964676520696e206661696c656400000000006044820152606401610c76565b507f08a1eb2000000000000000000000000000000000000000000000000000000000979650505050505050565b6000610df6600461342f565b15610e5e5760405133602482015273ffffffffffffffffffffffffffffffffffffffff8416604482015260648101839052610e55907f47abf3be0000000000000000000000000000000000000000000000000000000090608401610cd5565b610e5e57600080fd5b610e693384846134bb565b610e73600361342f565b15610edb5760405133602482015273ffffffffffffffffffffffffffffffffffffffff8416604482015260648101839052610ed2907f900f66ef0000000000000000000000000000000000000000000000000000000090608401610cd5565b610edb57600080fd5b50600192915050565b7f27d542086d1e831d40b749e7f5509a626c3047a36d160781c40d5acc83e5b074543373ffffffffffffffffffffffffffffffffffffffff821614610f85576040517f08c379a000000000000000000000000000000000000000000000000000000000815260206004820152601760248201527f45524332303a20736f75726365206f6e6c792063616c6c0000000000000000006044820152606401610c76565b60005b84811015610fea57610fd8868683818110610fa557610fa56147b7565b9050602002016020810190610fba91906141c2565b858584818110610fcc57610fcc6147b7565b9050602002013561330f565b80610fe281614815565b915050610f88565b505050505050565b7f27d542086d1e831d40b749e7f5509a626c3047a36d160781c40d5acc83e5b074543373ffffffffffffffffffffffffffffffffffffffff821614611093576040517f08c379a000000000000000000000000000000000000000000000000000000000815260206004820152601760248201527f45524332303a20736f75726365206f6e6c792063616c6c0000000000000000006044820152606401610c76565b61109d8383613624565b505050565b7fb56711ba6bd3ded7639fc335ee7524fe668a79d7558c85992e3f8494cf7727775473ffffffffffffffffffffffffffffffffffffffff163373ffffffffffffffffffffffffffffffffffffffff1614611158576040517f08c379a000000000000000000000000000000000000000000000000000000000815260206004820152601e60248201527f484f4c4f47524150483a206f776e6572206f6e6c792066756e6374696f6e00006044820152606401610c76565b60006111827fb56711ba6bd3ded7639fc335ee7524fe668a79d7558c85992e3f8494cf7727775490565b9050817fb56711ba6bd3ded7639fc335ee7524fe668a79d7558c85992e3f8494cf772777558173ffffffffffffffffffffffffffffffffffffffff168173ffffffffffffffffffffffffffffffffffffffff167f8be0079c531659141344cd1fd0a4f28419497f9722a3daafe3b4186f6b6457e060405160405180910390a35050565b600073ffffffffffffffffffffffffffffffffffffffff84163314611481577fb4107f746e9496e8452accc7de63d1c5e14c19f510932daa04077cd49e8bd77a5473ffffffffffffffffffffffffffffffffffffffff16630fffbaf36040518163ffffffff1660e01b8152600401602060405180830381865afa158015611290573d6000803e3d6000fd5b505050506040513d601f19601f820116820180604052508101906112b49190614744565b73ffffffffffffffffffffffffffffffffffffffff163373ffffffffffffffffffffffffffffffffffffffff16141580156113aa57507fb4107f746e9496e8452accc7de63d1c5e14c19f510932daa04077cd49e8bd77a5473ffffffffffffffffffffffffffffffffffffffff1663e7f43c686040518163ffffffff1660e01b8152600401602060405180830381865afa158015611356573d6000803e3d6000fd5b505050506040513d601f19601f8201168201806040525081019061137a9190614744565b73ffffffffffffffffffffffffffffffffffffffff163373ffffffffffffffffffffffffffffffffffffffff1614155b156114815773ffffffffffffffffffffffffffffffffffffffff841660009081526008602090815260408083203384529091529020548281101561144a576040517f08c379a000000000000000000000000000000000000000000000000000000000815260206004820152601f60248201527f45524332303a20616d6f756e74206578636565647320616c6c6f77616e6365006044820152606401610c76565b73ffffffffffffffffffffffffffffffffffffffff8516600090815260086020908152604080832033845290915290209083900390555b61148b600e61342f565b156114f55760405173ffffffffffffffffffffffffffffffffffffffff808616602483015284166044820152606481018390526114ec907f1ffb811f0000000000000000000000000000000000000000000000000000000090608401610cd5565b6114f557600080fd5b6115008484846137bd565b61150a600d61342f565b156115745760405173ffffffffffffffffffffffffffffffffffffffff8086166024830152841660448201526064810183905261156b907ff49062ca0000000000000000000000000000000000000000000000000000000090608401610cd5565b61157457600080fd5b5060019392505050565b7f27d542086d1e831d40b749e7f5509a626c3047a36d160781c40d5acc83e5b074543373ffffffffffffffffffffffffffffffffffffffff82161461161f576040517f08c379a000000000000000000000000000000000000000000000000000000000815260206004820152601760248201527f45524332303a20736f75726365206f6e6c792063616c6c0000000000000000006044820152606401610c76565b60405173ffffffffffffffffffffffffffffffffffffffff8316904780156108fc02916000818181858888f1935050505015801561109d573d6000803e3d6000fd5b600061166b6139ff565b905090565b33600090815260086020908152604080832073ffffffffffffffffffffffffffffffffffffffff861684529091528120548281018181101561170e576040517f08c379a000000000000000000000000000000000000000000000000000000000815260206004820181905260248201527f45524332303a20696e637265617365642061626f7665206d61782076616c75656044820152606401610c76565b611718600461342f565b156117805760405133602482015273ffffffffffffffffffffffffffffffffffffffff8616604482015260648101829052611777907f47abf3be0000000000000000000000000000000000000000000000000000000090608401610cd5565b61178057600080fd5b61178b3386836134bb565b611795600361342f565b156117fd5760405133602482015273ffffffffffffffffffffffffffffffffffffffff86166044820152606481018290526117f4907f900f66ef0000000000000000000000000000000000000000000000000000000090608401610cd5565b6117fd57600080fd5b506001949350505050565b6000611824838360405180602001604052806000815250612f20565b9392505050565b6000611848848484604051806020016040528060008152506127fb565b949350505050565b61185a600861342f565b156118a6576040513360248201526044810182905261189d907f4a1fefbd0000000000000000000000000000000000000000000000000000000090606401610cd5565b6118a657600080fd5b6118b03382613624565b6118ba600761342f565b1561190657604051336024820152604481018290526118fd907f971c34b40000000000000000000000000000000000000000000000000000000090606401610cd5565b61190657600080fd5b50565b60006119337f4e5f991bca30eca2d4643aaefa807e88f96a4a97398933d572a3c0d973004a015490565b1561199a576040517f08c379a000000000000000000000000000000000000000000000000000000000815260206004820152601a60248201527f45524332303a20616c726561647920696e697469616c697a65640000000000006044820152606401610c76565b600060017f04b524dd539523930d3901481aa9455d7752b49add99e1647adb8b09a313727955337fb56711ba6bd3ded7639fc335ee7524fe668a79d7558c85992e3f8494cf772777557f27d542086d1e831d40b749e7f5509a626c3047a36d160781c40d5acc83e5b0745490506000806000806000806000808a806020019051810190611a27919061489d565b9750975097509750975097509750975087600a9080519060200190611a4d929190613ea1565b508651611a6190600b9060208a0190613ea1565b50600c80547fffffffffffffffffffffffffffffffffffffffffffffffffffffffffffffff001660ff8816179055600685905581611bb9576040517f4ddf47d4000000000000000000000000000000000000000000000000000000008082529073ffffffffffffffffffffffffffffffffffffffff8b1690634ddf47d490611aed908590600401613ffb565b6020604051808303816000875af1158015611b0c573d6000803e3d6000fd5b505050506040513d601f19601f82011682018060405250810190611b30919061499a565b7fffffffff000000000000000000000000000000000000000000000000000000001614611bb9576040517f08c379a000000000000000000000000000000000000000000000000000000000815260206004820152601c60248201527f45524332303a20636f756c64206e6f7420696e697420736f75726365000000006044820152606401610c76565b611be260017f4e5f991bca30eca2d4643aaefa807e88f96a4a97398933d572a3c0d973004a0155565b611bec8484613a8b565b507f4ddf47d4000000000000000000000000000000000000000000000000000000009a9950505050505050505050565b6000611c2786613b53565b611c8d576040517f08c379a000000000000000000000000000000000000000000000000000000000815260206004820152601c60248201527f45524332303a206f70657261746f72206e6f7420636f6e7472616374000000006044820152606401610c76565b611c97600661342f565b15611ccb57611cc26395aae8bd60e01b878730888888604051602401610cd5969594939291906149b7565b611ccb57600080fd5b6040517f70a0823100000000000000000000000000000000000000000000000000000000815230600482015273ffffffffffffffffffffffffffffffffffffffff8716906370a0823190602401602060405180830381865afa925050508015611d6f575060408051601f3d9081017fffffffffffffffffffffffffffffffffffffffffffffffffffffffffffffffe0168201909252611d6c91810190614a3f565b60015b611dd5576040517f08c379a000000000000000000000000000000000000000000000000000000000815260206004820152601d60248201527f45524332303a206661696c65642067657474696e672062616c616e63650000006044820152606401610c76565b50611de0600561342f565b15611e1457611e0b6345b5969960e01b878730888888604051602401610cd5969594939291906149b7565b611e1457600080fd5b507f4fc358590000000000000000000000000000000000000000000000000000000095945050505050565b7f27d542086d1e831d40b749e7f5509a626c3047a36d160781c40d5acc83e5b074543373ffffffffffffffffffffffffffffffffffffffff821614611ee0576040517f08c379a000000000000000000000000000000000000000000000000000000000815260206004820152601760248201527f45524332303a20736f75726365206f6e6c792063616c6c0000000000000000006044820152606401610c76565b61109d838361330f565b7f3f106594dc74eeef980dae234cde8324dc2497b13d27a0c59e55bd2ca10a07c95473ffffffffffffffffffffffffffffffffffffffff163373ffffffffffffffffffffffffffffffffffffffff1614611fa0576040517f08c379a000000000000000000000000000000000000000000000000000000000815260206004820152601e60248201527f484f4c4f47524150483a2061646d696e206f6e6c792066756e6374696f6e00006044820152606401610c76565b7f3f106594dc74eeef980dae234cde8324dc2497b13d27a0c59e55bd2ca10a07c955565b73ffffffffffffffffffffffffffffffffffffffff821660009081526008602090815260408083203384529091528120548281101561205f576040517f08c379a000000000000000000000000000000000000000000000000000000000815260206004820152601f60248201527f45524332303a20616d6f756e74206578636565647320616c6c6f77616e6365006044820152606401610c76565b73ffffffffffffffffffffffffffffffffffffffff84166000908152600860208181526040808420338552909152909120848303905561209e9061342f565b156121005760405173ffffffffffffffffffffffffffffffffffffffff85166024820152604481018490526120f7907f4a1fefbd0000000000000000000000000000000000000000000000000000000090606401610cd5565b61210057600080fd5b61210a8484613624565b612114600761342f565b156115745760405173ffffffffffffffffffffffffffffffffffffffff851660248201526044810184905261156b907f971c34b40000000000000000000000000000000000000000000000000000000090606401610cd5565b6000807f27d542086d1e831d40b749e7f5509a626c3047a36d160781c40d5acc83e5b0745490508073ffffffffffffffffffffffffffffffffffffffff16638da5cb5b6040518163ffffffff1660e01b8152600401602060405180830381865afa1580156121df573d6000803e3d6000fd5b505050506040513d601f19601f820116820180604052508101906122039190614744565b91505090565b6060600b8054610acb906146f1565b33600090815260086020908152604080832073ffffffffffffffffffffffffffffffffffffffff86168452909152812054828110156122b3576040517f08c379a000000000000000000000000000000000000000000000000000000000815260206004820152601b60248201527f45524332303a206465637265617365642062656c6f77207a65726f00000000006044820152606401610c76565b828103611718600461342f565b7f27d542086d1e831d40b749e7f5509a626c3047a36d160781c40d5acc83e5b074543373ffffffffffffffffffffffffffffffffffffffff821614612361576040517f08c379a000000000000000000000000000000000000000000000000000000000815260206004820152601760248201527f45524332303a20736f75726365206f6e6c792063616c6c0000000000000000006044820152606401610c76565b61236c8484846137bd565b50505050565b600061237e600e61342f565b156123e65760405133602482015273ffffffffffffffffffffffffffffffffffffffff84166044820152606481018390526123dd907f1ffb811f0000000000000000000000000000000000000000000000000000000090608401610cd5565b6123e657600080fd5b6123f13384846137bd565b6123fb600d61342f565b15610edb5760405133602482015273ffffffffffffffffffffffffffffffffffffffff8416604482015260648101839052610ed2907ff49062ca0000000000000000000000000000000000000000000000000000000090608401610cd5565b600060606124867fb4107f746e9496e8452accc7de63d1c5e14c19f510932daa04077cd49e8bd77a5490565b73ffffffffffffffffffffffffffffffffffffffff16630fffbaf36040518163ffffffff1660e01b8152600401602060405180830381865afa1580156124d0573d6000803e3d6000fd5b505050506040513d601f19601f820116820180604052508101906124f49190614744565b73ffffffffffffffffffffffffffffffffffffffff163373ffffffffffffffffffffffffffffffffffffffff1614612588576040517f08c379a000000000000000000000000000000000000000000000000000000000815260206004820152601760248201527f45524332303a20627269646765206f6e6c792063616c6c0000000000000000006044820152606401610c76565b60008080612598868801886141df565b9250925092508273ffffffffffffffffffffffffffffffffffffffff168873ffffffffffffffffffffffffffffffffffffffff16146126a75773ffffffffffffffffffffffffffffffffffffffff8084166000908152600860209081526040808320938c16835292905220548181101561266e576040517f08c379a000000000000000000000000000000000000000000000000000000000815260206004820152601f60248201527f45524332303a20616d6f756e74206578636565647320616c6c6f77616e6365006044820152606401610c76565b73ffffffffffffffffffffffffffffffffffffffff8085166000908152600860209081526040808320938d168352929052209082900390555b6126b1600261342f565b15612799576040805163ffffffff8b16602482015273ffffffffffffffffffffffffffffffffffffffff85811660448301528416606482015260848082018490528251808303909101815260a4909101909152602080820180517bffffffffffffffffffffffffffffffffffffffffffffffffffffffff167f8b1465c6000000000000000000000000000000000000000000000000000000001790528151339083015281517f27d542086d1e831d40b749e7f5509a626c3047a36d160781c40d5acc83e5b0745460009283920190849034905af13d6000873e8080612795573d6000fd5b5050505b6127a38382613624565b6040517fb7e0366100000000000000000000000000000000000000000000000000000000906127dc908590859085908990602001614a58565b6040516020818303038152906040529450945050505094509492505050565b600073ffffffffffffffffffffffffffffffffffffffff85163314612a77577fb4107f746e9496e8452accc7de63d1c5e14c19f510932daa04077cd49e8bd77a5473ffffffffffffffffffffffffffffffffffffffff16630fffbaf36040518163ffffffff1660e01b8152600401602060405180830381865afa158015612886573d6000803e3d6000fd5b505050506040513d601f19601f820116820180604052508101906128aa9190614744565b73ffffffffffffffffffffffffffffffffffffffff163373ffffffffffffffffffffffffffffffffffffffff16141580156129a057507fb4107f746e9496e8452accc7de63d1c5e14c19f510932daa04077cd49e8bd77a5473ffffffffffffffffffffffffffffffffffffffff1663e7f43c686040518163ffffffff1660e01b8152600401602060405180830381865afa15801561294c573d6000803e3d6000fd5b505050506040513d601f19601f820116820180604052508101906129709190614744565b73ffffffffffffffffffffffffffffffffffffffff163373ffffffffffffffffffffffffffffffffffffffff1614155b15612a775773ffffffffffffffffffffffffffffffffffffffff8516600090815260086020908152604080832033845290915290205483811015612a40576040517f08c379a000000000000000000000000000000000000000000000000000000000815260206004820152601f60248201527f45524332303a20616d6f756e74206578636565647320616c6c6f77616e6365006044820152606401610c76565b73ffffffffffffffffffffffffffffffffffffffff8616600090815260086020908152604080832033845290915290209084900390555b612a81600c61342f565b15612ab157612aa8632ca1667660e01b86868686604051602401610cd59493929190614a58565b612ab157600080fd5b612abc8585856137bd565b612ac6600b61342f565b156117fd576117f46336fff06260e01b86868686604051602401610cd59493929190614a58565b7f3f106594dc74eeef980dae234cde8324dc2497b13d27a0c59e55bd2ca10a07c95473ffffffffffffffffffffffffffffffffffffffff163373ffffffffffffffffffffffffffffffffffffffff1614612ba3576040517f08c379a000000000000000000000000000000000000000000000000000000000815260206004820152601e60248201527f484f4c4f47524150483a2061646d696e206f6e6c792066756e6374696f6e00006044820152606401610c76565b808260003760008082600034875af13d6000803e808015610318573d6000f35b83421115612c2d576040517f08c379a000000000000000000000000000000000000000000000000000000000815260206004820152601760248201527f45524332303a206578706972656420646561646c696e650000000000000000006044820152606401610c76565b60007f6e71edae12b1b97f4d1f60370fef10105fa2faae0126114a169c64845d6126c9888888612c5c8c613b8a565b60408051602081019690965273ffffffffffffffffffffffffffffffffffffffff94851690860152929091166060840152608083015260a082015260c0810186905260e0016040516020818303038152906040528051906020012090506000612cc482613bc8565b90506000612cd485858885613c31565b90508973ffffffffffffffffffffffffffffffffffffffff168173ffffffffffffffffffffffffffffffffffffffff1614612d6b576040517f08c379a000000000000000000000000000000000000000000000000000000000815260206004820152601860248201527f45524332303a20696e76616c6964207369676e617475726500000000000000006044820152606401610c76565b612d75600461342f565b15612ddf5760405173ffffffffffffffffffffffffffffffffffffffff808c1660248301528a16604482015260648101899052612dd6907f47abf3be0000000000000000000000000000000000000000000000000000000090608401610cd5565b612ddf57600080fd5b612dea8a8a8a6134bb565b612df4600361342f565b15612e5e5760405173ffffffffffffffffffffffffffffffffffffffff808c1660248301528a16604482015260648101899052612e55907f900f66ef0000000000000000000000000000000000000000000000000000000090608401610cd5565b612e5e57600080fd5b50505050505050505050565b7fb56711ba6bd3ded7639fc335ee7524fe668a79d7558c85992e3f8494cf7727775473ffffffffffffffffffffffffffffffffffffffff163373ffffffffffffffffffffffffffffffffffffffff1614612ba3576040517f08c379a000000000000000000000000000000000000000000000000000000000815260206004820152601e60248201527f484f4c4f47524150483a206f776e6572206f6e6c792066756e6374696f6e00006044820152606401610c76565b6000612f2c600c61342f565b15612f5c57612f53632ca1667660e01b33868686604051602401610cd59493929190614a58565b612f5c57600080fd5b612f673385856137bd565b612f71600b61342f565b156115745761156b6336fff06260e01b33868686604051602401610cd59493929190614a58565b7fb56711ba6bd3ded7639fc335ee7524fe668a79d7558c85992e3f8494cf7727775473ffffffffffffffffffffffffffffffffffffffff163373ffffffffffffffffffffffffffffffffffffffff161461304e576040517f08c379a000000000000000000000000000000000000000000000000000000000815260206004820152601e60248201527f484f4c4f47524150483a206f776e6572206f6e6c792066756e6374696f6e00006044820152606401610c76565b73ffffffffffffffffffffffffffffffffffffffff81166130cb576040517f08c379a000000000000000000000000000000000000000000000000000000000815260206004820152601760248201527f484f4c4f47524150483a207a65726f20616464726573730000000000000000006044820152606401610c76565b7fb56711ba6bd3ded7639fc335ee7524fe668a79d7558c85992e3f8494cf77277755565b600061166b7f3f106594dc74eeef980dae234cde8324dc2497b13d27a0c59e55bd2ca10a07c95490565b60006131437fb4107f746e9496e8452accc7de63d1c5e14c19f510932daa04077cd49e8bd77a5490565b73ffffffffffffffffffffffffffffffffffffffff16630fffbaf36040518163ffffffff1660e01b8152600401602060405180830381865afa15801561318d573d6000803e3d6000fd5b505050506040513d601f19601f820116820180604052508101906131b19190614744565b73ffffffffffffffffffffffffffffffffffffffff163373ffffffffffffffffffffffffffffffffffffffff1614613245576040517f08c379a000000000000000000000000000000000000000000000000000000000815260206004820152601760248201527f45524332303a20627269646765206f6e6c792063616c6c0000000000000000006044820152606401610c76565b61324f838361330f565b507ffad66f920000000000000000000000000000000000000000000000000000000092915050565b60006132a17fb4107f746e9496e8452accc7de63d1c5e14c19f510932daa04077cd49e8bd77a5490565b73ffffffffffffffffffffffffffffffffffffffff1663ebac15f96040518163ffffffff1660e01b8152600401602060405180830381865afa1580156132eb573d6000803e3d6000fd5b505050506040513d601f19601f8201168201806040525081019061166b9190614744565b73ffffffffffffffffffffffffffffffffffffffff821661338c576040517f08c379a000000000000000000000000000000000000000000000000000000000815260206004820152601e60248201527f45524332303a206d696e74696e6720746f206275726e206164647265737300006044820152606401610c76565b806009600082825461339e9190614aa1565b909155505073ffffffffffffffffffffffffffffffffffffffff8216600090815260076020526040812080548392906133d8908490614aa1565b909155505060405181815273ffffffffffffffffffffffffffffffffffffffff8316906000907fddf252ad1be2c89b69c2b068fc378daa952ba7f163c4a11628f55a4df523b3ef9060200160405180910390a35050565b6000600182600e8111156134455761344561462b565b600654901c1660011461345957600061345c565b60015b92915050565b600060405160208101604052338351840152600080602085510185347f27d542086d1e831d40b749e7f5509a626c3047a36d160781c40d5acc83e5b074545af13d6000833e80806134b2573d6000fd5b50505192915050565b73ffffffffffffffffffffffffffffffffffffffff8316613538576040517f08c379a000000000000000000000000000000000000000000000000000000000815260206004820152601e60248201527f45524332303a206163636f756e74206973207a65726f206164647265737300006044820152606401610c76565b73ffffffffffffffffffffffffffffffffffffffff82166135b5576040517f08c379a000000000000000000000000000000000000000000000000000000000815260206004820152601e60248201527f45524332303a207370656e646572206973207a65726f206164647265737300006044820152606401610c76565b73ffffffffffffffffffffffffffffffffffffffff83811660008181526008602090815260408083209487168084529482529182902085905590518481527f8c5be1e5ebec7d5bd14f71427d1e84f3dd0314c0f7b2291e5b200ac8c7c3b92591015b60405180910390a3505050565b73ffffffffffffffffffffffffffffffffffffffff82166136a1576040517f08c379a000000000000000000000000000000000000000000000000000000000815260206004820152601e60248201527f45524332303a206163636f756e74206973207a65726f206164647265737300006044820152606401610c76565b73ffffffffffffffffffffffffffffffffffffffff821660009081526007602052604090205481811015613731576040517f08c379a000000000000000000000000000000000000000000000000000000000815260206004820152601d60248201527f45524332303a20616d6f756e7420657863656564732062616c616e63650000006044820152606401610c76565b73ffffffffffffffffffffffffffffffffffffffff8316600090815260076020526040812083830390556009805484929061376d908490614ab9565b909155505060405182815260009073ffffffffffffffffffffffffffffffffffffffff8516907fddf252ad1be2c89b69c2b068fc378daa952ba7f163c4a11628f55a4df523b3ef90602001613617565b73ffffffffffffffffffffffffffffffffffffffff831661383a576040517f08c379a000000000000000000000000000000000000000000000000000000000815260206004820152601e60248201527f45524332303a206163636f756e74206973207a65726f206164647265737300006044820152606401610c76565b73ffffffffffffffffffffffffffffffffffffffff82166138b7576040517f08c379a000000000000000000000000000000000000000000000000000000000815260206004820181905260248201527f45524332303a20726563697069656e74206973207a65726f20616464726573736044820152606401610c76565b73ffffffffffffffffffffffffffffffffffffffff831660009081526007602052604090205481811015613947576040517f08c379a000000000000000000000000000000000000000000000000000000000815260206004820152601d60248201527f45524332303a20616d6f756e7420657863656564732062616c616e63650000006044820152606401610c76565b73ffffffffffffffffffffffffffffffffffffffff80851660009081526007602052604080822085850390559185168152908120805484929061398b908490614aa1565b925050819055508273ffffffffffffffffffffffffffffffffffffffff168473ffffffffffffffffffffffffffffffffffffffff167fddf252ad1be2c89b69c2b068fc378daa952ba7f163c4a11628f55a4df523b3ef846040516139f191815260200190565b60405180910390a350505050565b60025460009073ffffffffffffffffffffffffffffffffffffffff1630148015613a2a575060015446145b15613a36575060005490565b61166b6005546003546004546040805160208101859052908101839052606081018290524660808201523060a082015260009060c0016040516020818303038152906040528051906020012090509392505050565b815160208084019190912082519183019190912060038290556004819055466001557f8b73c3c69bb8fe3d512ecc4cf759cc79239f7b179b0ffacaa9a75d522b39400f613b1d8184846040805160208101859052908101839052606081018290524660808201523060a082015260009060c0016040516020818303038152906040528051906020012090509392505050565b600055600280547fffffffffffffffffffffffff0000000000000000000000000000000000000000163017905560055550505050565b6000813f801580159061182457507fc5d2460186f7233c927e7db2dcc703c0e500b653ca82273b7bfad8045d85a470141592915050565b73ffffffffffffffffffffffffffffffffffffffff81166000908152600d60205260408120805491829190613bbe83614815565b9190505550919050565b600061345c613bd56139ff565b836040517f19010000000000000000000000000000000000000000000000000000000000006020820152602281018390526042810182905260009060620160405160208183030381529060405280519060200120905092915050565b6000601b8360ff161015613c4d57613c4a601b84614ad0565b92505b8260ff16601b1480613c6257508260ff16601c145b613cc8576040517f08c379a000000000000000000000000000000000000000000000000000000000815260206004820152601660248201527f45524332303a20696e76616c696420762076616c7565000000000000000000006044820152606401610c76565b7f7fffffffffffffffffffffffffffffff5d576e7357a4501ddfe92f46681b20a0841115613da657613d1a847ffffffffffffffffffffffffffffffffebaaedce6af48a03bbfd25e8cd0364141614ab9565b93507f7fffffffffffffffffffffffffffffff5d576e7357a4501ddfe92f46681b20a0841115613da6576040517f08c379a000000000000000000000000000000000000000000000000000000000815260206004820152601660248201527f45524332303a20696e76616c696420732076616c7565000000000000000000006044820152606401610c76565b60408051600081526020810180835284905260ff851691810191909152606081018690526080810185905260019060a0016020604051602081039080840390855afa158015613df9573d6000803e3d6000fd5b50506040517fffffffffffffffffffffffffffffffffffffffffffffffffffffffffffffffe0015191505073ffffffffffffffffffffffffffffffffffffffff8116611848576040517f08c379a000000000000000000000000000000000000000000000000000000000815260206004820152601a60248201527f45524332303a207a65726f2061646472657373207369676e65720000000000006044820152606401610c76565b828054613ead906146f1565b90600052602060002090601f016020900481019282613ecf5760008555613f15565b82601f10613ee857805160ff1916838001178555613f15565b82800160010185558215613f15579182015b82811115613f15578251825591602001919060010190613efa565b50613f21929150613f25565b5090565b5b80821115613f215760008155600101613f26565b7fffffffff000000000000000000000000000000000000000000000000000000008116811461190657600080fd5b600060208284031215613f7a57600080fd5b813561182481613f3a565b60005b83811015613fa0578181015183820152602001613f88565b8381111561236c5750506000910152565b60008151808452613fc9816020860160208601613f85565b601f017fffffffffffffffffffffffffffffffffffffffffffffffffffffffffffffffe0169290920160200192915050565b6020815260006118246020830184613fb1565b803563ffffffff8116811461402257600080fd5b919050565b60008083601f84011261403957600080fd5b50813567ffffffffffffffff81111561405157600080fd5b60208301915083602082850101111561406957600080fd5b9250929050565b60008060006040848603121561408557600080fd5b61408e8461400e565b9250602084013567ffffffffffffffff8111156140aa57600080fd5b6140b686828701614027565b9497909650939450505050565b73ffffffffffffffffffffffffffffffffffffffff8116811461190657600080fd5b600080604083850312156140f857600080fd5b8235614103816140c3565b946020939093013593505050565b60008083601f84011261412357600080fd5b50813567ffffffffffffffff81111561413b57600080fd5b6020830191508360208260051b850101111561406957600080fd5b6000806000806040858703121561416c57600080fd5b843567ffffffffffffffff8082111561418457600080fd5b61419088838901614111565b909650945060208701359150808211156141a957600080fd5b506141b687828801614111565b95989497509550505050565b6000602082840312156141d457600080fd5b8135611824816140c3565b6000806000606084860312156141f457600080fd5b83356141ff816140c3565b9250602084013561420f816140c3565b929592945050506040919091013590565b60006020828403121561423257600080fd5b5035919050565b7f4e487b7100000000000000000000000000000000000000000000000000000000600052604160045260246000fd5b604051601f82017fffffffffffffffffffffffffffffffffffffffffffffffffffffffffffffffe016810167ffffffffffffffff811182821017156142af576142af614239565b604052919050565b600067ffffffffffffffff8211156142d1576142d1614239565b50601f017fffffffffffffffffffffffffffffffffffffffffffffffffffffffffffffffe01660200190565b600082601f83011261430e57600080fd5b813561432161431c826142b7565b614268565b81815284602083860101111561433657600080fd5b816020850160208301376000918101602001919091529392505050565b60006020828403121561436557600080fd5b813567ffffffffffffffff81111561437c57600080fd5b611848848285016142fd565b6000806000806000608086880312156143a057600080fd5b85356143ab816140c3565b945060208601356143bb816140c3565b935060408601359250606086013567ffffffffffffffff8111156143de57600080fd5b6143ea88828901614027565b969995985093965092949392505050565b6000806000806060858703121561441157600080fd5b61441a8561400e565b9350602085013561442a816140c3565b9250604085013567ffffffffffffffff81111561444657600080fd5b6141b687828801614027565b7fffffffff00000000000000000000000000000000000000000000000000000000831681526040602082015260006118486040830184613fb1565b600080600080608085870312156144a357600080fd5b84356144ae816140c3565b935060208501356144be816140c3565b925060408501359150606085013567ffffffffffffffff8111156144e157600080fd5b6144ed878288016142fd565b91505092959194509250565b60008060006040848603121561450e57600080fd5b833561408e816140c3565b60ff8116811461190657600080fd5b600080600080600080600060e0888a03121561454357600080fd5b873561454e816140c3565b9650602088013561455e816140c3565b95506040880135945060608801359350608088013561457c81614519565b9699959850939692959460a0840135945060c09093013592915050565b600080604083850312156145ac57600080fd5b82356145b7816140c3565b915060208301356145c7816140c3565b809150509250929050565b6000806000606084860312156145e757600080fd5b83356145f2816140c3565b925060208401359150604084013567ffffffffffffffff81111561461557600080fd5b614621868287016142fd565b9150509250925092565b7f4e487b7100000000000000000000000000000000000000000000000000000000600052602160045260246000fd5b6040810160068410614695577f4e487b7100000000000000000000000000000000000000000000000000000000600052602160045260246000fd5b9281527fffffffff000000000000000000000000000000000000000000000000000000009190911660209091015290565b8051801515811461402257600080fd5b6000602082840312156146e857600080fd5b611824826146c6565b600181811c9082168061470557607f821691505b60208210810361473e577f4e487b7100000000000000000000000000000000000000000000000000000000600052602260045260246000fd5b50919050565b60006020828403121561475657600080fd5b8151611824816140c3565b63ffffffff86168152600073ffffffffffffffffffffffffffffffffffffffff808716602084015280861660408401525083606083015260a060808301526147ac60a0830184613fb1565b979650505050505050565b7f4e487b7100000000000000000000000000000000000000000000000000000000600052603260045260246000fd5b7f4e487b7100000000000000000000000000000000000000000000000000000000600052601160045260246000fd5b60007fffffffffffffffffffffffffffffffffffffffffffffffffffffffffffffffff8203614846576148466147e6565b5060010190565b600082601f83011261485e57600080fd5b815161486c61431c826142b7565b81815284602083860101111561488157600080fd5b611848826020830160208701613f85565b805161402281614519565b600080600080600080600080610100898b0312156148ba57600080fd5b885167ffffffffffffffff808211156148d257600080fd5b6148de8c838d0161484d565b995060208b01519150808211156148f457600080fd5b6149008c838d0161484d565b985061490e60408c01614892565b975060608b0151965060808b015191508082111561492b57600080fd5b6149378c838d0161484d565b955060a08b015191508082111561494d57600080fd5b6149598c838d0161484d565b945061496760c08c016146c6565b935060e08b015191508082111561497d57600080fd5b5061498a8b828c0161484d565b9150509295985092959890939650565b6000602082840312156149ac57600080fd5b815161182481613f3a565b600073ffffffffffffffffffffffffffffffffffffffff8089168352808816602084015280871660408401525084606083015260a060808301528260a0830152828460c0840137600060c0848401015260c07fffffffffffffffffffffffffffffffffffffffffffffffffffffffffffffffe0601f8501168301019050979650505050505050565b600060208284031215614a5157600080fd5b5051919050565b600073ffffffffffffffffffffffffffffffffffffffff808716835280861660208401525083604083015260806060830152614a976080830184613fb1565b9695505050505050565b60008219821115614ab457614ab46147e6565b500190565b600082821015614acb57614acb6147e6565b500390565b600060ff821660ff84168060ff03821115614aed57614aed6147e6565b01939250505056fea164736f6c634300080d000a",
  "devdoc": {
    "author": "CXIP-Labs",
    "details": "The entire logic and functionality of the smart contract is self-contained.",
    "kind": "dev",
    "methods": {
      "DOMAIN_SEPARATOR()": {
        "details": "Returns the domain separator used in the encoding of the signature for {permit}, as defined by {EIP712}."
      },
      "constructor": {
        "details": "Constructor is left empty and init is used instead"
      },
      "getContractType()": {
        "details": "Returns the contract type that is used for loading the Enforcer"
      },
      "holographBridgeMint(address,uint256)": {
        "details": "Allows the bridge to mint tokens (used for hTokens only)."
      },
      "init(bytes)": {
        "details": "This function is called by the deployer/factory when creating a contract",
        "params": {
          "initPayload": "abi encoded payload to use for contract initilaization"
        }
      },
      "nonces(address)": {
        "details": "Returns the current nonce for `account`. This value must be included whenever a signature is generated for {permit}. Every successful call to {permit} increases ``account``'s nonce by one. This prevents a signature from being used multiple times."
      },
      "sourceBurn(address,uint256)": {
        "details": "Allows for source smart contract to burn tokens."
      },
      "sourceMint(address,uint256)": {
        "details": "Allows for source smart contract to mint tokens."
      },
      "sourceMintBatch(address[],uint256[])": {
        "details": "Allows for source smart contract to mint a batch of token amounts."
      },
      "sourceTransfer(address,address,uint256)": {
        "details": "Allows for source smart contract to transfer tokens."
      },
      "sourceWithdraw(address)": {
        "details": "Allows for source smart contract to withdraw contract balance."
      },
      "supportsInterface(bytes4)": {
        "details": "Although EIP-165 is not required for ERC20 contracts, we still decided to implement it. This makes it easier for external smart contracts to easily identify a valid ERC20 token contract."
      }
    },
    "stateVariables": {
      "_allowances": {
        "details": "Mapping of all authorized operators, and capped amounts."
      },
      "_balances": {
        "details": "Mapping of all the addresse's balances."
      },
      "_contractTypeSlot": {
        "details": "bytes32(uint256(keccak256('eip1967.Holograph.contractType')) - 1)"
      },
      "_decimals": {
        "details": "Token number of decimal places."
      },
      "_eventConfig": {
        "details": "Configuration for events to trigger for source smart contract."
      },
      "_holographSlot": {
        "details": "bytes32(uint256(keccak256('eip1967.Holograph.holograph')) - 1)"
      },
      "_name": {
        "details": "Token name."
      },
      "_nonces": {
        "details": "List of used up nonces. Used in the ERC20Permit interface functionality."
      },
      "_sourceContractSlot": {
        "details": "bytes32(uint256(keccak256('eip1967.Holograph.sourceContract')) - 1)"
      },
      "_symbol": {
        "details": "Token ticker symbol."
      },
      "_totalSupply": {
        "details": "Total number of token in circulation."
      }
    },
    "title": "Holograph Bridgeable ERC-20 Token",
    "version": 1
  },
  "userdoc": {
    "kind": "user",
    "methods": {
      "init(bytes)": {
        "notice": "Used internally to initialize the contract instead of through a constructor"
      }
    },
    "notice": "A smart contract for minting and managing Holograph Bridgeable ERC20 Tokens.",
    "version": 1
  },
  "storageLayout": {
    "storage": [
      {
        "astId": 4749,
        "contract": "contracts/enforcer/HolographERC20.sol:HolographERC20",
        "label": "_CACHED_DOMAIN_SEPARATOR",
        "offset": 0,
        "slot": "0",
        "type": "t_bytes32"
      },
      {
        "astId": 4751,
        "contract": "contracts/enforcer/HolographERC20.sol:HolographERC20",
        "label": "_CACHED_CHAIN_ID",
        "offset": 0,
        "slot": "1",
        "type": "t_uint256"
      },
      {
        "astId": 4753,
        "contract": "contracts/enforcer/HolographERC20.sol:HolographERC20",
        "label": "_CACHED_THIS",
        "offset": 0,
        "slot": "2",
        "type": "t_address"
      },
      {
        "astId": 4755,
        "contract": "contracts/enforcer/HolographERC20.sol:HolographERC20",
        "label": "_HASHED_NAME",
        "offset": 0,
        "slot": "3",
        "type": "t_bytes32"
      },
      {
        "astId": 4757,
        "contract": "contracts/enforcer/HolographERC20.sol:HolographERC20",
        "label": "_HASHED_VERSION",
        "offset": 0,
        "slot": "4",
        "type": "t_bytes32"
      },
      {
        "astId": 4759,
        "contract": "contracts/enforcer/HolographERC20.sol:HolographERC20",
        "label": "_TYPE_HASH",
        "offset": 0,
        "slot": "5",
        "type": "t_bytes32"
      },
      {
        "astId": 7087,
        "contract": "contracts/enforcer/HolographERC20.sol:HolographERC20",
        "label": "_eventConfig",
        "offset": 0,
        "slot": "6",
        "type": "t_uint256"
      },
      {
        "astId": 7092,
        "contract": "contracts/enforcer/HolographERC20.sol:HolographERC20",
        "label": "_balances",
        "offset": 0,
        "slot": "7",
        "type": "t_mapping(t_address,t_uint256)"
      },
      {
        "astId": 7099,
        "contract": "contracts/enforcer/HolographERC20.sol:HolographERC20",
        "label": "_allowances",
        "offset": 0,
        "slot": "8",
        "type": "t_mapping(t_address,t_mapping(t_address,t_uint256))"
      },
      {
        "astId": 7102,
        "contract": "contracts/enforcer/HolographERC20.sol:HolographERC20",
        "label": "_totalSupply",
        "offset": 0,
        "slot": "9",
        "type": "t_uint256"
      },
      {
        "astId": 7105,
        "contract": "contracts/enforcer/HolographERC20.sol:HolographERC20",
        "label": "_name",
        "offset": 0,
        "slot": "10",
        "type": "t_string_storage"
      },
      {
        "astId": 7108,
        "contract": "contracts/enforcer/HolographERC20.sol:HolographERC20",
        "label": "_symbol",
        "offset": 0,
        "slot": "11",
        "type": "t_string_storage"
      },
      {
        "astId": 7111,
        "contract": "contracts/enforcer/HolographERC20.sol:HolographERC20",
        "label": "_decimals",
        "offset": 0,
        "slot": "12",
        "type": "t_uint8"
      },
      {
        "astId": 7116,
        "contract": "contracts/enforcer/HolographERC20.sol:HolographERC20",
        "label": "_nonces",
        "offset": 0,
        "slot": "13",
        "type": "t_mapping(t_address,t_uint256)"
      }
    ],
    "types": {
      "t_address": {
        "encoding": "inplace",
        "label": "address",
        "numberOfBytes": "20"
      },
      "t_bytes32": {
        "encoding": "inplace",
        "label": "bytes32",
        "numberOfBytes": "32"
      },
      "t_mapping(t_address,t_mapping(t_address,t_uint256))": {
        "encoding": "mapping",
        "key": "t_address",
        "label": "mapping(address => mapping(address => uint256))",
        "numberOfBytes": "32",
        "value": "t_mapping(t_address,t_uint256)"
      },
      "t_mapping(t_address,t_uint256)": {
        "encoding": "mapping",
        "key": "t_address",
        "label": "mapping(address => uint256)",
        "numberOfBytes": "32",
        "value": "t_uint256"
      },
      "t_string_storage": {
        "encoding": "bytes",
        "label": "string",
        "numberOfBytes": "32"
      },
      "t_uint256": {
        "encoding": "inplace",
        "label": "uint256",
        "numberOfBytes": "32"
      },
      "t_uint8": {
        "encoding": "inplace",
        "label": "uint8",
        "numberOfBytes": "1"
      }
    }
  }
}