{
  "address": "0xd1454CB0e1c136A2277060182D4dD256faeB62cA",
  "abi": [
    {
      "inputs": [],
      "stateMutability": "nonpayable",
      "type": "constructor"
    },
    {
      "anonymous": false,
      "inputs": [
        {
          "indexed": true,
          "internalType": "address",
          "name": "contractAddress",
          "type": "address"
        },
        {
          "indexed": true,
          "internalType": "bytes32",
          "name": "hash",
          "type": "bytes32"
        }
      ],
      "name": "BridgeableContractDeployed",
      "type": "event"
    },
    {
      "stateMutability": "payable",
      "type": "fallback"
    },
    {
      "inputs": [],
      "name": "admin",
      "outputs": [
        {
          "internalType": "address",
          "name": "",
          "type": "address"
        }
      ],
      "stateMutability": "view",
      "type": "function"
    },
    {
      "inputs": [
        {
          "internalType": "address",
          "name": "target",
          "type": "address"
        },
        {
          "internalType": "bytes",
          "name": "data",
          "type": "bytes"
        }
      ],
      "name": "adminCall",
      "outputs": [],
      "stateMutability": "payable",
      "type": "function"
    },
    {
      "inputs": [
        {
          "internalType": "uint32",
          "name": "",
          "type": "uint32"
        },
        {
          "internalType": "bytes",
          "name": "payload",
          "type": "bytes"
        }
      ],
      "name": "bridgeIn",
      "outputs": [
        {
          "internalType": "bytes4",
          "name": "",
          "type": "bytes4"
        }
      ],
      "stateMutability": "nonpayable",
      "type": "function"
    },
    {
      "inputs": [
        {
          "internalType": "uint32",
          "name": "",
          "type": "uint32"
        },
        {
          "internalType": "address",
          "name": "",
          "type": "address"
        },
        {
          "internalType": "bytes",
          "name": "payload",
          "type": "bytes"
        }
      ],
      "name": "bridgeOut",
      "outputs": [
        {
          "internalType": "bytes4",
          "name": "selector",
          "type": "bytes4"
        },
        {
          "internalType": "bytes",
          "name": "data",
          "type": "bytes"
        }
      ],
      "stateMutability": "pure",
      "type": "function"
    },
    {
      "inputs": [
        {
          "components": [
            {
              "internalType": "bytes32",
              "name": "contractType",
              "type": "bytes32"
            },
            {
              "internalType": "uint32",
              "name": "chainType",
              "type": "uint32"
            },
            {
              "internalType": "bytes32",
              "name": "salt",
              "type": "bytes32"
            },
            {
              "internalType": "bytes",
              "name": "byteCode",
              "type": "bytes"
            },
            {
              "internalType": "bytes",
              "name": "initCode",
              "type": "bytes"
            }
          ],
          "internalType": "struct DeploymentConfig",
          "name": "config",
          "type": "tuple"
        },
        {
          "components": [
            {
              "internalType": "bytes32",
              "name": "r",
              "type": "bytes32"
            },
            {
              "internalType": "bytes32",
              "name": "s",
              "type": "bytes32"
            },
            {
              "internalType": "uint8",
              "name": "v",
              "type": "uint8"
            }
          ],
          "internalType": "struct Verification",
          "name": "signature",
          "type": "tuple"
        },
        {
          "internalType": "address",
          "name": "signer",
          "type": "address"
        }
      ],
      "name": "deployHolographableContract",
      "outputs": [],
      "stateMutability": "nonpayable",
      "type": "function"
    },
    {
      "inputs": [
        {
          "components": [
            {
              "internalType": "bytes32",
              "name": "contractType",
              "type": "bytes32"
            },
            {
              "internalType": "uint32",
              "name": "chainType",
              "type": "uint32"
            },
            {
              "internalType": "bytes32",
              "name": "salt",
              "type": "bytes32"
            },
            {
              "internalType": "bytes",
              "name": "byteCode",
              "type": "bytes"
            },
            {
              "internalType": "bytes",
              "name": "initCode",
              "type": "bytes"
            }
          ],
          "internalType": "struct DeploymentConfig",
          "name": "config",
          "type": "tuple"
        },
        {
          "components": [
            {
              "internalType": "bytes32",
              "name": "r",
              "type": "bytes32"
            },
            {
              "internalType": "bytes32",
              "name": "s",
              "type": "bytes32"
            },
            {
              "internalType": "uint8",
              "name": "v",
              "type": "uint8"
            }
          ],
          "internalType": "struct Verification",
          "name": "signature",
          "type": "tuple"
        },
        {
          "internalType": "address",
          "name": "signer",
          "type": "address"
        },
        {
          "internalType": "bool",
          "name": "deployOnCurrentChain",
          "type": "bool"
        },
        {
          "components": [
            {
              "internalType": "uint256",
              "name": "value",
              "type": "uint256"
            },
            {
              "internalType": "uint256",
              "name": "gasLimit",
              "type": "uint256"
            },
            {
              "internalType": "uint256",
              "name": "gasPrice",
              "type": "uint256"
            },
            {
              "internalType": "uint32",
              "name": "toChain",
              "type": "uint32"
            }
          ],
          "internalType": "struct BridgeSettings[]",
          "name": "bridgeSettings",
          "type": "tuple[]"
        }
      ],
      "name": "deployHolographableContractMultiChain",
      "outputs": [],
      "stateMutability": "payable",
      "type": "function"
    },
    {
      "inputs": [],
      "name": "getAdmin",
      "outputs": [
        {
          "internalType": "address",
          "name": "adminAddress",
          "type": "address"
        }
      ],
      "stateMutability": "view",
      "type": "function"
    },
    {
      "inputs": [],
      "name": "getHolograph",
      "outputs": [
        {
          "internalType": "address",
          "name": "holograph",
          "type": "address"
        }
      ],
      "stateMutability": "view",
      "type": "function"
    },
    {
      "inputs": [],
      "name": "getRegistry",
      "outputs": [
        {
          "internalType": "address",
          "name": "registry",
          "type": "address"
        }
      ],
      "stateMutability": "view",
      "type": "function"
    },
    {
      "inputs": [
        {
          "internalType": "bytes",
          "name": "initPayload",
          "type": "bytes"
        }
      ],
      "name": "init",
      "outputs": [
        {
          "internalType": "bytes4",
          "name": "",
          "type": "bytes4"
        }
      ],
      "stateMutability": "nonpayable",
      "type": "function"
    },
    {
      "inputs": [
        {
          "internalType": "address",
          "name": "adminAddress",
          "type": "address"
        }
      ],
      "name": "setAdmin",
      "outputs": [],
      "stateMutability": "nonpayable",
      "type": "function"
    },
    {
      "inputs": [
        {
          "internalType": "address",
          "name": "holograph",
          "type": "address"
        }
      ],
      "name": "setHolograph",
      "outputs": [],
      "stateMutability": "nonpayable",
      "type": "function"
    },
    {
      "inputs": [
        {
          "internalType": "address",
          "name": "registry",
          "type": "address"
        }
      ],
      "name": "setRegistry",
      "outputs": [],
      "stateMutability": "nonpayable",
      "type": "function"
    },
    {
      "stateMutability": "payable",
      "type": "receive"
    }
  ],
  "transactionHash": "0x58cd8dab6cfb12adc087e152ee9567a6f82f74e67b33fc09c666ff6dc1f03dd2",
  "args": [],
  "numDeployments": 1,
  "solcInputHash": "eaccabe53e7de4a0dd89d9180b8a1c06",
  "bytecode": "0x608060405234801561001057600080fd5b50612f61806100206000396000f3fe6080604052600436106100d65760003560e01c8063704b6c021161007f578063b7e0366111610059578063b7e036611461028d578063bf64a82d146102bb578063df6516bd146102ce578063f851a440146102ee57600080fd5b8063704b6c021461023a578063a8935c671461025a578063a91ee0dc1461026d57600080fd5b80634ddf47d4116100b05780634ddf47d4146101b25780635ab1bd53146101d25780636e9960c31461020657600080fd5b806308a1eb20146100e557806325d5cac81461013b5780634827ae0c1461015d57600080fd5b366100e057600080fd5b600080fd5b3480156100f157600080fd5b50610105610100366004611690565b610303565b6040517fffffffff0000000000000000000000000000000000000000000000000000000090911681526020015b60405180910390f35b34801561014757600080fd5b5061015b610156366004611708565b6103ba565b005b34801561016957600080fd5b507fb4107f746e9496e8452accc7de63d1c5e14c19f510932daa04077cd49e8bd77a545b60405173ffffffffffffffffffffffffffffffffffffffff9091168152602001610132565b3480156101be57600080fd5b506101056101cd36600461185a565b610499565b3480156101de57600080fd5b507fce8e75d5c5227ce29a4ee170160bb296e5dea6934b80a9bd723f7ef1e7c850e75461018d565b34801561021257600080fd5b507f3f106594dc74eeef980dae234cde8324dc2497b13d27a0c59e55bd2ca10a07c95461018d565b34801561024657600080fd5b5061015b610255366004611708565b610600565b61015b6102683660046119b2565b6106da565b34801561027957600080fd5b5061015b610288366004611708565b6108c1565b34801561029957600080fd5b506102ad6102a8366004611af9565b61099b565b604051610132929190611bd6565b61015b6102c9366004611c11565b6109ef565b3480156102da57600080fd5b5061015b6102e9366004611c31565b610aca565b3480156102fa57600080fd5b5061018d611015565b600080808061031485870187611c31565b6040517fdf6516bd0000000000000000000000000000000000000000000000000000000081529295509093509150309063df6516bd9061035c90869086908690600401611c94565b600060405180830381600087803b15801561037657600080fd5b505af115801561038a573d6000803e3d6000fd5b507f08a1eb20000000000000000000000000000000000000000000000000000000009a9950505050505050505050565b7f3f106594dc74eeef980dae234cde8324dc2497b13d27a0c59e55bd2ca10a07c95473ffffffffffffffffffffffffffffffffffffffff163373ffffffffffffffffffffffffffffffffffffffff1614610475576040517f08c379a000000000000000000000000000000000000000000000000000000000815260206004820152601e60248201527f484f4c4f47524150483a2061646d696e206f6e6c792066756e6374696f6e000060448201526064015b60405180910390fd5b7fb4107f746e9496e8452accc7de63d1c5e14c19f510932daa04077cd49e8bd77a55565b60006104c37f4e5f991bca30eca2d4643aaefa807e88f96a4a97398933d572a3c0d973004a015490565b1561052a576040517f08c379a000000000000000000000000000000000000000000000000000000000815260206004820152601e60248201527f484f4c4f47524150483a20616c726561647920696e697469616c697a65640000604482015260640161046c565b600080838060200190518101906105419190611d56565b91509150327f3f106594dc74eeef980dae234cde8324dc2497b13d27a0c59e55bd2ca10a07c955817fb4107f746e9496e8452accc7de63d1c5e14c19f510932daa04077cd49e8bd77a55807fce8e75d5c5227ce29a4ee170160bb296e5dea6934b80a9bd723f7ef1e7c850e7556105d760017f4e5f991bca30eca2d4643aaefa807e88f96a4a97398933d572a3c0d973004a0155565b507f4ddf47d4000000000000000000000000000000000000000000000000000000009392505050565b7f3f106594dc74eeef980dae234cde8324dc2497b13d27a0c59e55bd2ca10a07c95473ffffffffffffffffffffffffffffffffffffffff163373ffffffffffffffffffffffffffffffffffffffff16146106b6576040517f08c379a000000000000000000000000000000000000000000000000000000000815260206004820152601e60248201527f484f4c4f47524150483a2061646d696e206f6e6c792066756e6374696f6e0000604482015260640161046c565b7f3f106594dc74eeef980dae234cde8324dc2497b13d27a0c59e55bd2ca10a07c955565b81156106eb576106eb858585610aca565b600085858560405160200161070293929190611c94565b604051602081830303815290604052905060007fb4107f746e9496e8452accc7de63d1c5e14c19f510932daa04077cd49e8bd77a54905060008173ffffffffffffffffffffffffffffffffffffffff16630fffbaf36040518163ffffffff1660e01b8152600401602060405180830381865afa158015610786573d6000803e3d6000fd5b505050506040513d601f19601f820116820180604052508101906107aa9190611d90565b845190915060005b818110156108b5578273ffffffffffffffffffffffffffffffffffffffff1663e55856668783815181106107e8576107e8611dad565b60200260200101516000015188848151811061080657610806611dad565b602002602001015160600151308a868151811061082557610825611dad565b6020026020010151602001518b878151811061084357610843611dad565b6020026020010151604001518b6040518763ffffffff1660e01b8152600401610870959493929190611ddc565b6000604051808303818588803b15801561088957600080fd5b505af115801561089d573d6000803e3d6000fd5b505050505080806108ad90611e5d565b9150506107b2565b50505050505050505050565b7f3f106594dc74eeef980dae234cde8324dc2497b13d27a0c59e55bd2ca10a07c95473ffffffffffffffffffffffffffffffffffffffff163373ffffffffffffffffffffffffffffffffffffffff1614610977576040517f08c379a000000000000000000000000000000000000000000000000000000000815260206004820152601e60248201527f484f4c4f47524150483a2061646d696e206f6e6c792066756e6374696f6e0000604482015260640161046c565b7fce8e75d5c5227ce29a4ee170160bb296e5dea6934b80a9bd723f7ef1e7c850e755565b6000606063b7e0366160e01b848481818080601f016020809104026020016040519081016040528093929190818152602001838380828437600092019190915250959c929b50919950505050505050505050565b7f3f106594dc74eeef980dae234cde8324dc2497b13d27a0c59e55bd2ca10a07c95473ffffffffffffffffffffffffffffffffffffffff163373ffffffffffffffffffffffffffffffffffffffff1614610aa5576040517f08c379a000000000000000000000000000000000000000000000000000000000815260206004820152601e60248201527f484f4c4f47524150483a2061646d696e206f6e6c792066756e6374696f6e0000604482015260640161046c565b808260003760008082600034875af13d6000803e808015610ac5573d6000f35b3d6000fd5b7fb4107f746e9496e8452accc7de63d1c5e14c19f510932daa04077cd49e8bd77a547fce8e75d5c5227ce29a4ee170160bb296e5dea6934b80a9bd723f7ef1e7c850e754845160208087015160408089015160608a015180519085012060808b01518051908601209251969796600096610bb796909594918b910195865260e09490941b7fffffffff0000000000000000000000000000000000000000000000000000000016602086015260248501929092526044840152606483015260601b7fffffffffffffffffffffffffffffffffffffffff00000000000000000000000016608482015260980190565b604051602081830303815290604052805190602001209050610be88560000151866020015187604001518488611044565b610c4e576040517f08c379a000000000000000000000000000000000000000000000000000000000815260206004820152601c60248201527f484f4c4f47524150483a20696e76616c6964207369676e617475726500000000604482015260640161046c565b600060405180602001610c6090611621565b7fffffffffffffffffffffffffffffffffffffffffffffffffffffffffffffffe082820381018352601f90910116604081815282516020808501919091207fff00000000000000000000000000000000000000000000000000000000000000828501527fffffffffffffffffffffffffffffffffffffffff0000000000000000000000003060601b166021850152603584018790526055808501919091528251808503909101815260759093019091528151910120909150610d21816113a4565b15610d88576040517f08c379a000000000000000000000000000000000000000000000000000000000815260206004820152601b60248201527f484f4c4f47524150483a20616c7265616479206465706c6f7965640000000000604482015260640161046c565b60608801518051849160009183906020830184f59150828551602087016000f560208c8101518d516040805163ffffffff9093169383019390935273ffffffffffffffffffffffffffffffffffffffff8b811693830193909352606082015284821660808201529195507f4ddf47d4000000000000000000000000000000000000000000000000000000009190861690634ddf47d49060a0016040516020818303038152906040528e60800151604051602001610e46929190611e95565b6040516020818303038152906040526040518263ffffffff1660e01b8152600401610e719190611eba565b6020604051808303816000875af1158015610e90573d6000803e3d6000fd5b505050506040513d601f19601f82011682018060405250810190610eb49190611ecd565b7fffffffff000000000000000000000000000000000000000000000000000000001614610f3d576040517f08c379a000000000000000000000000000000000000000000000000000000000815260206004820152601560248201527f696e697469616c697a6174696f6e206661696c65640000000000000000000000604482015260640161046c565b6040517f725229f60000000000000000000000000000000000000000000000000000000081526004810187905273ffffffffffffffffffffffffffffffffffffffff858116602483015289169063725229f690604401600060405180830381600087803b158015610fad57600080fd5b505af1158015610fc1573d6000803e3d6000fd5b505060405188925073ffffffffffffffffffffffffffffffffffffffff871691507fa802207d4c618b40db3b25b7b90e6f483e16b2c1f8d3610b15b345a718c6b41b90600090a35050505050505050505050565b600061103f7f3f106594dc74eeef980dae234cde8324dc2497b13d27a0c59e55bd2ca10a07c95490565b905090565b6000601b8460ff1610156110605761105d601b85611f0f565b93505b8360ff16601b1415801561107857508360ff16601c14155b156110855750600061139b565b7f7fffffffffffffffffffffffffffffff5d576e7357a4501ddfe92f46681b20a0851115611122576110d7857ffffffffffffffffffffffffffffffffebaaedce6af48a03bbfd25e8cd0364141611f34565b945060ff8416601b036110ed57601c93506110f2565b601b93505b7f7fffffffffffffffffffffffffffffff5d576e7357a4501ddfe92f46681b20a08511156111225750600061139b565b73ffffffffffffffffffffffffffffffffffffffff82161580159061139857506040517f19457468657265756d205369676e6564204d6573736167653a0a3332000000006020820152603c810184905273ffffffffffffffffffffffffffffffffffffffff831690600190605c01604080517fffffffffffffffffffffffffffffffffffffffffffffffffffffffffffffffe08184030181528282528051602091820120600084529083018083525260ff881690820152606081018990526080810188905260a0016020604051602081039080840390855afa15801561120c573d6000803e3d6000fd5b5050506020604051035173ffffffffffffffffffffffffffffffffffffffff161480611305575073ffffffffffffffffffffffffffffffffffffffff821660016112578560206113de565b6040516020016112679190611f4b565b604080517fffffffffffffffffffffffffffffffffffffffffffffffffffffffffffffffe08184030181528282528051602091820120600084529083018083525260ff881690820152606081018990526080810188905260a0016020604051602081039080840390855afa1580156112e3573d6000803e3d6000fd5b5050506020604051035173ffffffffffffffffffffffffffffffffffffffff16145b80611398575060408051600081526020810180835285905260ff861691810191909152606081018790526080810186905273ffffffffffffffffffffffffffffffffffffffff83169060019060a0016020604051602081039080840390855afa158015611376573d6000803e3d6000fd5b5050506020604051035173ffffffffffffffffffffffffffffffffffffffff16145b90505b95945050505050565b6000813f80158015906113d757507fc5d2460186f7233c927e7db2dcc703c0e500b653ca82273b7bfad8045d85a4708114155b9392505050565b606060006113ed836002611f90565b6113f8906002611fcd565b67ffffffffffffffff81111561141057611410611725565b6040519080825280601f01601f19166020018201604052801561143a576020820181803683370190505b5090507f30000000000000000000000000000000000000000000000000000000000000008160008151811061147157611471611dad565b60200101907effffffffffffffffffffffffffffffffffffffffffffffffffffffffffffff1916908160001a9053507f7800000000000000000000000000000000000000000000000000000000000000816001815181106114d4576114d4611dad565b60200101907effffffffffffffffffffffffffffffffffffffffffffffffffffffffffffff1916908160001a9053506000611510846002611f90565b61151b906001611fcd565b90505b60018111156115b8577f303132333435363738396162636465660000000000000000000000000000000085600f166010811061155c5761155c611dad565b1a60f81b82828151811061157257611572611dad565b60200101907effffffffffffffffffffffffffffffffffffffffffffffffffffffffffffff1916908160001a90535060049490941c936115b181611fe5565b905061151e565b5083156113d7576040517f08c379a000000000000000000000000000000000000000000000000000000000815260206004820181905260248201527f537472696e67733a20686578206c656e67746820696e73756666696369656e74604482015260640161046c565b610f3a8061201b83390190565b803563ffffffff8116811461164257600080fd5b919050565b60008083601f84011261165957600080fd5b50813567ffffffffffffffff81111561167157600080fd5b60208301915083602082850101111561168957600080fd5b9250929050565b6000806000604084860312156116a557600080fd5b6116ae8461162e565b9250602084013567ffffffffffffffff8111156116ca57600080fd5b6116d686828701611647565b9497909650939450505050565b73ffffffffffffffffffffffffffffffffffffffff8116811461170557600080fd5b50565b60006020828403121561171a57600080fd5b81356113d7816116e3565b7f4e487b7100000000000000000000000000000000000000000000000000000000600052604160045260246000fd5b6040516080810167ffffffffffffffff8111828210171561177757611777611725565b60405290565b604051601f82017fffffffffffffffffffffffffffffffffffffffffffffffffffffffffffffffe016810167ffffffffffffffff811182821017156117c4576117c4611725565b604052919050565b600082601f8301126117dd57600080fd5b813567ffffffffffffffff8111156117f7576117f7611725565b61182860207fffffffffffffffffffffffffffffffffffffffffffffffffffffffffffffffe0601f8401160161177d565b81815284602083860101111561183d57600080fd5b816020850160208301376000918101602001919091529392505050565b60006020828403121561186c57600080fd5b813567ffffffffffffffff81111561188357600080fd5b61188f848285016117cc565b949350505050565b600060a082840312156118a957600080fd5b60405160a0810167ffffffffffffffff82821081831117156118cd576118cd611725565b81604052829350843583526118e46020860161162e565b602084015260408501356040840152606085013591508082111561190757600080fd5b611913868387016117cc565b6060840152608085013591508082111561192c57600080fd5b50611939858286016117cc565b6080830152505092915050565b60006060828403121561195857600080fd5b6040516060810181811067ffffffffffffffff8211171561197b5761197b611725565b80604052508091508235815260208301356020820152604083013560ff811681146119a557600080fd5b6040919091015292915050565b600080600080600060e086880312156119ca57600080fd5b853567ffffffffffffffff808211156119e257600080fd5b6119ee89838a01611897565b965060209150611a0089838a01611946565b9550608080890135611a11816116e3565b955060a08901358015158114611a2657600080fd5b945060c089013582811115611a3a57600080fd5b8901601f81018b13611a4b57600080fd5b803583811115611a5d57611a5d611725565b611a6b858260051b0161177d565b818152858101945060079190911b82018501908c821115611a8b57600080fd5b918501915b81831015611ae65783838e031215611aa85760008081fd5b611ab0611754565b833581528684013587820152604080850135908201526060611ad381860161162e565b9082015285529385019391830191611a90565b8096505050505050509295509295909350565b60008060008060608587031215611b0f57600080fd5b611b188561162e565b93506020850135611b28816116e3565b9250604085013567ffffffffffffffff811115611b4457600080fd5b611b5087828801611647565b95989497509550505050565b60005b83811015611b77578181015183820152602001611b5f565b83811115611b86576000848401525b50505050565b60008151808452611ba4816020860160208601611b5c565b601f017fffffffffffffffffffffffffffffffffffffffffffffffffffffffffffffffe0169290920160200192915050565b7fffffffff000000000000000000000000000000000000000000000000000000008316815260406020820152600061188f6040830184611b8c565b600080600060408486031215611c2657600080fd5b83356116ae816116e3565b600080600060a08486031215611c4657600080fd5b833567ffffffffffffffff811115611c5d57600080fd5b611c6986828701611897565b935050611c798560208601611946565b91506080840135611c89816116e3565b809150509250925092565b60a08152835160a082015263ffffffff60208501511660c0820152604084015160e08201526000606085015160a0610100840152611cd6610140840182611b8c565b905060808601517fffffffffffffffffffffffffffffffffffffffffffffffffffffffffffffff6084830301610120850152611d128282611b8c565b92505050835160208301526020840151604083015260ff604085015116606083015261188f608083018473ffffffffffffffffffffffffffffffffffffffff169052565b60008060408385031215611d6957600080fd5b8251611d74816116e3565b6020840151909250611d85816116e3565b809150509250929050565b600060208284031215611da257600080fd5b81516113d7816116e3565b7f4e487b7100000000000000000000000000000000000000000000000000000000600052603260045260246000fd5b63ffffffff8616815273ffffffffffffffffffffffffffffffffffffffff8516602082015283604082015282606082015260a060808201526000611e2360a0830184611b8c565b979650505050505050565b7f4e487b7100000000000000000000000000000000000000000000000000000000600052601160045260246000fd5b60007fffffffffffffffffffffffffffffffffffffffffffffffffffffffffffffffff8203611e8e57611e8e611e2e565b5060010190565b604081526000611ea86040830185611b8c565b828103602084015261139b8185611b8c565b6020815260006113d76020830184611b8c565b600060208284031215611edf57600080fd5b81517fffffffff00000000000000000000000000000000000000000000000000000000811681146113d757600080fd5b600060ff821660ff84168060ff03821115611f2c57611f2c611e2e565b019392505050565b600082821015611f4657611f46611e2e565b500390565b7f19457468657265756d205369676e6564204d6573736167653a0a363600000000815260008251611f8381601c850160208701611b5c565b91909101601c0192915050565b6000817fffffffffffffffffffffffffffffffffffffffffffffffffffffffffffffffff0483118215151615611fc857611fc8611e2e565b500290565b60008219821115611fe057611fe0611e2e565b500190565b600081611ff457611ff4611e2e565b507fffffffffffffffffffffffffffffffffffffffffffffffffffffffffffffffff019056fe608060405234801561001057600080fd5b50610f1a806100206000396000f3fe6080604052600436106100c05760003560e01c806380d1cb3511610074578063c51a29e01161004e578063c51a29e0146102c1578063c8a4c3d5146102f5578063f851a4401461030a576100c7565b806380d1cb351461022c578063913a0ef21461026a578063bf64a82d146102ae576100c7565b80636e9960c3116100a55780636e9960c3146101a45780636faf275b146101d8578063704b6c021461020c576100c7565b80634827ae0c146100f95780634ddf47d414610153576100c7565b366100c757005b60006100d161031f565b90503660008037600080366000845af43d6000803e8080156100f2573d6000f35b3d6000fd5b005b34801561010557600080fd5b507fb4107f746e9496e8452accc7de63d1c5e14c19f510932daa04077cd49e8bd77a545b60405173ffffffffffffffffffffffffffffffffffffffff90911681526020015b60405180910390f35b34801561015f57600080fd5b5061017361016e366004610bb4565b61045d565b6040517fffffffff00000000000000000000000000000000000000000000000000000000909116815260200161014a565b3480156101b057600080fd5b507f3f106594dc74eeef980dae234cde8324dc2497b13d27a0c59e55bd2ca10a07c954610129565b3480156101e457600080fd5b507f27d542086d1e831d40b749e7f5509a626c3047a36d160781c40d5acc83e5b07454610129565b34801561021857600080fd5b506100f7610227366004610c59565b610911565b34801561023857600080fd5b507f9172848b0f1df776dc924b58e7fa303087ae0409bbf611608529e7f747d55de3545b60405190815260200161014a565b34801561027657600080fd5b507fd49ffd6af8249d6e6b5963d9d2b22c6db30ad594cb468453047a14e1c1bcde4d5460405163ffffffff909116815260200161014a565b6100f76102bc366004610c7d565b6109eb565b3480156102cd57600080fd5b507f0b671eb65810897366dd82c4cbb7d9dff8beda8484194956e81e89b8a361d9c75461025c565b34801561030157600080fd5b5061012961031f565b34801561031657600080fd5b50610129610ac1565b60008060007fb4107f746e9496e8452accc7de63d1c5e14c19f510932daa04077cd49e8bd77a5491507f0b671eb65810897366dd82c4cbb7d9dff8beda8484194956e81e89b8a361d9c75490508173ffffffffffffffffffffffffffffffffffffffff16635ab1bd536040518163ffffffff1660e01b8152600401602060405180830381865afa1580156103b7573d6000803e3d6000fd5b505050506040513d601f19601f820116820180604052508101906103db9190610d02565b73ffffffffffffffffffffffffffffffffffffffff166374b7510c826040518263ffffffff1660e01b815260040161041591815260200190565b602060405180830381865afa158015610432573d6000803e3d6000fd5b505050506040513d601f19601f820116820180604052508101906104569190610d02565b9250505090565b60006104877f4e5f991bca30eca2d4643aaefa807e88f96a4a97398933d572a3c0d973004a015490565b156104f3576040517f08c379a000000000000000000000000000000000000000000000000000000000815260206004820181905260248201527f484f4c4f475241504845523a20616c726561647920696e697469616c697a656460448201526064015b60405180910390fd5b6000808380602001905181019061050a9190610d9c565b91509150600080600080858060200190518101906105289190610e00565b9350935093509350337f3f106594dc74eeef980dae234cde8324dc2497b13d27a0c59e55bd2ca10a07c955437f9172848b0f1df776dc924b58e7fa303087ae0409bbf611608529e7f747d55de355817f0b671eb65810897366dd82c4cbb7d9dff8beda8484194956e81e89b8a361d9c755827fb4107f746e9496e8452accc7de63d1c5e14c19f510932daa04077cd49e8bd77a55837fd49ffd6af8249d6e6b5963d9d2b22c6db30ad594cb468453047a14e1c1bcde4d55807f27d542086d1e831d40b749e7f5509a626c3047a36d160781c40d5acc83e5b074556000808473ffffffffffffffffffffffffffffffffffffffff16635ab1bd536040518163ffffffff1660e01b8152600401602060405180830381865afa158015610650573d6000803e3d6000fd5b505050506040513d601f19601f820116820180604052508101906106749190610d02565b73ffffffffffffffffffffffffffffffffffffffff166374b7510c856040518263ffffffff1660e01b81526004016106ae91815260200190565b602060405180830381865afa1580156106cb573d6000803e3d6000fd5b505050506040513d601f19601f820116820180604052508101906106ef9190610d02565b73ffffffffffffffffffffffffffffffffffffffff16634ddf47d460e01b8860405160240161071e9190610e5e565b604080517fffffffffffffffffffffffffffffffffffffffffffffffffffffffffffffffe08184030181529181526020820180517bffffffffffffffffffffffffffffffffffffffffffffffffffffffff167fffffffff000000000000000000000000000000000000000000000000000000009094169390931790925290516107a79190610eaf565b600060405180830381855af49150503d80600081146107e2576040519150601f19603f3d011682016040523d82523d6000602084013e6107e7565b606091505b50915091506000818060200190518101906108029190610ecb565b905082801561085257507fffffffff0000000000000000000000000000000000000000000000000000000081167f4ddf47d400000000000000000000000000000000000000000000000000000000145b6108b8576040517f08c379a000000000000000000000000000000000000000000000000000000000815260206004820181905260248201527f484f4c4f47524150483a20696e697469616c697a6174696f6e206661696c656460448201526064016104ea565b6108e160017f4e5f991bca30eca2d4643aaefa807e88f96a4a97398933d572a3c0d973004a0155565b507f4ddf47d4000000000000000000000000000000000000000000000000000000009a9950505050505050505050565b7f3f106594dc74eeef980dae234cde8324dc2497b13d27a0c59e55bd2ca10a07c95473ffffffffffffffffffffffffffffffffffffffff163373ffffffffffffffffffffffffffffffffffffffff16146109c7576040517f08c379a000000000000000000000000000000000000000000000000000000000815260206004820152601e60248201527f484f4c4f47524150483a2061646d696e206f6e6c792066756e6374696f6e000060448201526064016104ea565b7f3f106594dc74eeef980dae234cde8324dc2497b13d27a0c59e55bd2ca10a07c955565b7f3f106594dc74eeef980dae234cde8324dc2497b13d27a0c59e55bd2ca10a07c95473ffffffffffffffffffffffffffffffffffffffff163373ffffffffffffffffffffffffffffffffffffffff1614610aa1576040517f08c379a000000000000000000000000000000000000000000000000000000000815260206004820152601e60248201527f484f4c4f47524150483a2061646d696e206f6e6c792066756e6374696f6e000060448201526064016104ea565b808260003760008082600034875af13d6000803e8080156100f2573d6000f35b6000610aeb7f3f106594dc74eeef980dae234cde8324dc2497b13d27a0c59e55bd2ca10a07c95490565b905090565b7f4e487b7100000000000000000000000000000000000000000000000000000000600052604160045260246000fd5b604051601f82017fffffffffffffffffffffffffffffffffffffffffffffffffffffffffffffffe016810167ffffffffffffffff81118282101715610b6657610b66610af0565b604052919050565b600067ffffffffffffffff821115610b8857610b88610af0565b50601f017fffffffffffffffffffffffffffffffffffffffffffffffffffffffffffffffe01660200190565b600060208284031215610bc657600080fd5b813567ffffffffffffffff811115610bdd57600080fd5b8201601f81018413610bee57600080fd5b8035610c01610bfc82610b6e565b610b1f565b818152856020838501011115610c1657600080fd5b81602084016020830137600091810160200191909152949350505050565b73ffffffffffffffffffffffffffffffffffffffff81168114610c5657600080fd5b50565b600060208284031215610c6b57600080fd5b8135610c7681610c34565b9392505050565b600080600060408486031215610c9257600080fd5b8335610c9d81610c34565b9250602084013567ffffffffffffffff80821115610cba57600080fd5b818601915086601f830112610cce57600080fd5b813581811115610cdd57600080fd5b876020828501011115610cef57600080fd5b6020830194508093505050509250925092565b600060208284031215610d1457600080fd5b8151610c7681610c34565b60005b83811015610d3a578181015183820152602001610d22565b83811115610d49576000848401525b50505050565b600082601f830112610d6057600080fd5b8151610d6e610bfc82610b6e565b818152846020838601011115610d8357600080fd5b610d94826020830160208701610d1f565b949350505050565b60008060408385031215610daf57600080fd5b825167ffffffffffffffff80821115610dc757600080fd5b610dd386838701610d4f565b93506020850151915080821115610de957600080fd5b50610df685828601610d4f565b9150509250929050565b60008060008060808587031215610e1657600080fd5b845163ffffffff81168114610e2a57600080fd5b6020860151909450610e3b81610c34565b604086015160608701519194509250610e5381610c34565b939692955090935050565b6020815260008251806020840152610e7d816040850160208701610d1f565b601f017fffffffffffffffffffffffffffffffffffffffffffffffffffffffffffffffe0169190910160400192915050565b60008251610ec1818460208701610d1f565b9190910192915050565b600060208284031215610edd57600080fd5b81517fffffffff0000000000000000000000000000000000000000000000000000000081168114610c7657600080fdfea164736f6c634300080d000aa164736f6c634300080d000a",
  "devdoc": {
    "author": "https://github.com/holographxyz",
    "details": "The contract provides methods that allow for the creation of Holograph Protocol compliant smart contracts, that are capable of minting holographable assets",
    "kind": "dev",
    "methods": {
      "bridgeIn(uint32,bytes)": {
        "details": "This function directly forwards the calldata to the deployHolographableContract function      It is used to allow for Holograph Bridge to make cross-chain deployments"
      },
      "bridgeOut(uint32,address,bytes)": {
        "details": "This function directly returns the calldata      It is used to allow for Holograph Bridge to make cross-chain deployments"
      },
      "constructor": {
        "details": "Constructor is left empty and init is used instead"
      },
      "deployHolographableContract((bytes32,uint32,bytes32,bytes,bytes),(bytes32,bytes32,uint8),address)": {
        "details": "Using this function allows to deploy smart contracts that have the same address across all EVM chains",
        "params": {
          "config": "contract deployement configurations",
          "signature": "that was created by the wallet that created the original payload",
          "signer": "address of wallet that created the payload"
        }
      },
      "getHolograph()": {
        "details": "Used for storing a reference to all the primary modules and variables of the protocol"
      },
      "getRegistry()": {
        "details": "This module stores a reference for all deployed holographable smart contracts"
      },
      "init(bytes)": {
        "details": "This function is called by the deployer/factory when creating a contract",
        "params": {
          "initPayload": "abi encoded payload to use for contract initilaization"
        }
      },
      "setHolograph(address)": {
        "params": {
          "holograph": "address of the Holograph Protocol smart contract to use"
        }
      },
      "setRegistry(address)": {
        "params": {
          "registry": "address of the Holograph Registry smart contract to use"
        }
      }
    },
    "stateVariables": {
      "_holographSlot": {
        "details": "bytes32(uint256(keccak256('eip1967.Holograph.holograph')) - 1)"
      },
      "_registrySlot": {
        "details": "bytes32(uint256(keccak256('eip1967.Holograph.registry')) - 1)"
      }
    },
    "title": "Holograph Factory",
    "version": 1
  },
  "userdoc": {
    "kind": "user",
    "methods": {
      "bridgeIn(uint32,bytes)": {
        "notice": "Deploy holographable contract via bridge request"
      },
      "bridgeOut(uint32,address,bytes)": {
        "notice": "Deploy holographable contract via bridge request"
      },
      "deployHolographableContract((bytes32,uint32,bytes32,bytes,bytes),(bytes32,bytes32,uint8),address)": {
        "notice": "Deploy a holographable smart contract"
      },
      "getHolograph()": {
        "notice": "Get the Holograph Protocol contract"
      },
      "getRegistry()": {
        "notice": "Get the Holograph Registry module"
      },
      "init(bytes)": {
        "notice": "Used internally to initialize the contract instead of through a constructor"
      },
      "setHolograph(address)": {
        "notice": "Update the Holograph Protocol contract address"
      },
      "setRegistry(address)": {
        "notice": "Update the Holograph Registry module address"
      }
    },
    "notice": "Deploy holographable contracts",
    "version": 1
  },
  "storageLayout": {
    "storage": [],
    "types": null
  }
}