{
  "address": "0x94e9a47c2CD7fA41F12654Fdcb77be3F7aefBafA",
  "abi": [
    {
      "inputs": [],
      "stateMutability": "nonpayable",
      "type": "constructor"
    },
    {
      "anonymous": false,
      "inputs": [
        {
          "indexed": true,
          "internalType": "address",
          "name": "_owner",
          "type": "address"
        },
        {
          "indexed": true,
          "internalType": "address",
          "name": "_approved",
          "type": "address"
        },
        {
          "indexed": true,
          "internalType": "uint256",
          "name": "_tokenId",
          "type": "uint256"
        }
      ],
      "name": "Approval",
      "type": "event"
    },
    {
      "anonymous": false,
      "inputs": [
        {
          "indexed": true,
          "internalType": "address",
          "name": "_owner",
          "type": "address"
        },
        {
          "indexed": true,
          "internalType": "address",
          "name": "_operator",
          "type": "address"
        },
        {
          "indexed": false,
          "internalType": "bool",
          "name": "_approved",
          "type": "bool"
        }
      ],
      "name": "ApprovalForAll",
      "type": "event"
    },
    {
      "anonymous": false,
      "inputs": [
        {
          "indexed": true,
          "internalType": "address",
          "name": "previousOwner",
          "type": "address"
        },
        {
          "indexed": true,
          "internalType": "address",
          "name": "newOwner",
          "type": "address"
        }
      ],
      "name": "OwnershipTransferred",
      "type": "event"
    },
    {
      "anonymous": false,
      "inputs": [
        {
          "indexed": true,
          "internalType": "address",
          "name": "_from",
          "type": "address"
        },
        {
          "indexed": true,
          "internalType": "address",
          "name": "_to",
          "type": "address"
        },
        {
          "indexed": true,
          "internalType": "uint256",
          "name": "_tokenId",
          "type": "uint256"
        }
      ],
      "name": "Transfer",
      "type": "event"
    },
    {
      "stateMutability": "payable",
      "type": "fallback"
    },
    {
      "inputs": [],
      "name": "admin",
      "outputs": [
        {
          "internalType": "address",
          "name": "",
          "type": "address"
        }
      ],
      "stateMutability": "view",
      "type": "function"
    },
    {
      "inputs": [
        {
          "internalType": "address",
          "name": "target",
          "type": "address"
        },
        {
          "internalType": "bytes",
          "name": "data",
          "type": "bytes"
        }
      ],
      "name": "adminCall",
      "outputs": [],
      "stateMutability": "payable",
      "type": "function"
    },
    {
      "inputs": [
        {
          "internalType": "address",
          "name": "to",
          "type": "address"
        },
        {
          "internalType": "uint256",
          "name": "tokenId",
          "type": "uint256"
        }
      ],
      "name": "approve",
      "outputs": [],
      "stateMutability": "payable",
      "type": "function"
    },
    {
      "inputs": [
        {
          "internalType": "address",
          "name": "wallet",
          "type": "address"
        }
      ],
      "name": "balanceOf",
      "outputs": [
        {
          "internalType": "uint256",
          "name": "",
          "type": "uint256"
        }
      ],
      "stateMutability": "view",
      "type": "function"
    },
    {
      "inputs": [
        {
          "internalType": "uint32",
          "name": "fromChain",
          "type": "uint32"
        },
        {
          "internalType": "bytes",
          "name": "payload",
          "type": "bytes"
        }
      ],
      "name": "bridgeIn",
      "outputs": [
        {
          "internalType": "bytes4",
          "name": "",
          "type": "bytes4"
        }
      ],
      "stateMutability": "nonpayable",
      "type": "function"
    },
    {
      "inputs": [
        {
          "internalType": "uint32",
          "name": "toChain",
          "type": "uint32"
        },
        {
          "internalType": "address",
          "name": "sender",
          "type": "address"
        },
        {
          "internalType": "bytes",
          "name": "payload",
          "type": "bytes"
        }
      ],
      "name": "bridgeOut",
      "outputs": [
        {
          "internalType": "bytes4",
          "name": "selector",
          "type": "bytes4"
        },
        {
          "internalType": "bytes",
          "name": "data",
          "type": "bytes"
        }
      ],
      "stateMutability": "nonpayable",
      "type": "function"
    },
    {
      "inputs": [
        {
          "internalType": "uint256",
          "name": "tokenId",
          "type": "uint256"
        }
      ],
      "name": "burn",
      "outputs": [],
      "stateMutability": "nonpayable",
      "type": "function"
    },
    {
      "inputs": [
        {
          "internalType": "uint256",
          "name": "tokenId",
          "type": "uint256"
        }
      ],
      "name": "burned",
      "outputs": [
        {
          "internalType": "bool",
          "name": "",
          "type": "bool"
        }
      ],
      "stateMutability": "view",
      "type": "function"
    },
    {
      "inputs": [],
      "name": "contractURI",
      "outputs": [
        {
          "internalType": "string",
          "name": "",
          "type": "string"
        }
      ],
      "stateMutability": "view",
      "type": "function"
    },
    {
      "inputs": [],
      "name": "decimals",
      "outputs": [
        {
          "internalType": "uint256",
          "name": "",
          "type": "uint256"
        }
      ],
      "stateMutability": "pure",
      "type": "function"
    },
    {
      "inputs": [
        {
          "internalType": "uint256",
          "name": "tokenId",
          "type": "uint256"
        }
      ],
      "name": "exists",
      "outputs": [
        {
          "internalType": "bool",
          "name": "",
          "type": "bool"
        }
      ],
      "stateMutability": "view",
      "type": "function"
    },
    {
      "inputs": [],
      "name": "getAdmin",
      "outputs": [
        {
          "internalType": "address",
          "name": "adminAddress",
          "type": "address"
        }
      ],
      "stateMutability": "view",
      "type": "function"
    },
    {
      "inputs": [
        {
          "internalType": "uint256",
          "name": "tokenId",
          "type": "uint256"
        }
      ],
      "name": "getApproved",
      "outputs": [
        {
          "internalType": "address",
          "name": "",
          "type": "address"
        }
      ],
      "stateMutability": "view",
      "type": "function"
    },
    {
      "inputs": [],
      "name": "getContractType",
      "outputs": [
        {
          "internalType": "bytes32",
          "name": "contractType",
          "type": "bytes32"
        }
      ],
      "stateMutability": "view",
      "type": "function"
    },
    {
      "inputs": [],
      "name": "getOwner",
      "outputs": [
        {
          "internalType": "address",
          "name": "ownerAddress",
          "type": "address"
        }
      ],
      "stateMutability": "view",
      "type": "function"
    },
    {
      "inputs": [
        {
          "internalType": "bytes",
          "name": "initPayload",
          "type": "bytes"
        }
      ],
      "name": "init",
      "outputs": [
        {
          "internalType": "bytes4",
          "name": "",
          "type": "bytes4"
        }
      ],
      "stateMutability": "nonpayable",
      "type": "function"
    },
    {
      "inputs": [
        {
          "internalType": "address",
          "name": "wallet",
          "type": "address"
        },
        {
          "internalType": "address",
          "name": "operator",
          "type": "address"
        }
      ],
      "name": "isApprovedForAll",
      "outputs": [
        {
          "internalType": "bool",
          "name": "",
          "type": "bool"
        }
      ],
      "stateMutability": "view",
      "type": "function"
    },
    {
      "inputs": [],
      "name": "name",
      "outputs": [
        {
          "internalType": "string",
          "name": "",
          "type": "string"
        }
      ],
      "stateMutability": "view",
      "type": "function"
    },
    {
      "inputs": [
        {
          "internalType": "address",
          "name": "_operator",
          "type": "address"
        },
        {
          "internalType": "address",
          "name": "_from",
          "type": "address"
        },
        {
          "internalType": "uint256",
          "name": "_tokenId",
          "type": "uint256"
        },
        {
          "internalType": "bytes",
          "name": "_data",
          "type": "bytes"
        }
      ],
      "name": "onERC721Received",
      "outputs": [
        {
          "internalType": "bytes4",
          "name": "",
          "type": "bytes4"
        }
      ],
      "stateMutability": "nonpayable",
      "type": "function"
    },
    {
      "inputs": [],
      "name": "owner",
      "outputs": [
        {
          "internalType": "address",
          "name": "",
          "type": "address"
        }
      ],
      "stateMutability": "view",
      "type": "function"
    },
    {
      "inputs": [
        {
          "internalType": "address",
          "name": "target",
          "type": "address"
        },
        {
          "internalType": "bytes",
          "name": "data",
          "type": "bytes"
        }
      ],
      "name": "ownerCall",
      "outputs": [],
      "stateMutability": "payable",
      "type": "function"
    },
    {
      "inputs": [
        {
          "internalType": "uint256",
          "name": "tokenId",
          "type": "uint256"
        }
      ],
      "name": "ownerOf",
      "outputs": [
        {
          "internalType": "address",
          "name": "",
          "type": "address"
        }
      ],
      "stateMutability": "view",
      "type": "function"
    },
    {
      "inputs": [
        {
          "internalType": "address",
          "name": "from",
          "type": "address"
        },
        {
          "internalType": "address",
          "name": "to",
          "type": "address"
        },
        {
          "internalType": "uint256",
          "name": "tokenId",
          "type": "uint256"
        }
      ],
      "name": "safeTransferFrom",
      "outputs": [],
      "stateMutability": "payable",
      "type": "function"
    },
    {
      "inputs": [
        {
          "internalType": "address",
          "name": "from",
          "type": "address"
        },
        {
          "internalType": "address",
          "name": "to",
          "type": "address"
        },
        {
          "internalType": "uint256",
          "name": "tokenId",
          "type": "uint256"
        },
        {
          "internalType": "bytes",
          "name": "data",
          "type": "bytes"
        }
      ],
      "name": "safeTransferFrom",
      "outputs": [],
      "stateMutability": "payable",
      "type": "function"
    },
    {
      "inputs": [
        {
          "internalType": "address",
          "name": "adminAddress",
          "type": "address"
        }
      ],
      "name": "setAdmin",
      "outputs": [],
      "stateMutability": "nonpayable",
      "type": "function"
    },
    {
      "inputs": [
        {
          "internalType": "address",
          "name": "to",
          "type": "address"
        },
        {
          "internalType": "bool",
          "name": "approved",
          "type": "bool"
        }
      ],
      "name": "setApprovalForAll",
      "outputs": [],
      "stateMutability": "nonpayable",
      "type": "function"
    },
    {
      "inputs": [
        {
          "internalType": "address",
          "name": "ownerAddress",
          "type": "address"
        }
      ],
      "name": "setOwner",
      "outputs": [],
      "stateMutability": "nonpayable",
      "type": "function"
    },
    {
      "inputs": [
        {
          "internalType": "uint256",
          "name": "tokenId",
          "type": "uint256"
        }
      ],
      "name": "sourceBurn",
      "outputs": [],
      "stateMutability": "nonpayable",
      "type": "function"
    },
    {
      "inputs": [],
      "name": "sourceGetChainPrepend",
      "outputs": [
        {
          "internalType": "uint256",
          "name": "",
          "type": "uint256"
        }
      ],
      "stateMutability": "view",
      "type": "function"
    },
    {
      "inputs": [
        {
          "internalType": "address",
          "name": "to",
          "type": "address"
        },
        {
          "internalType": "uint224",
          "name": "tokenId",
          "type": "uint224"
        }
      ],
      "name": "sourceMint",
      "outputs": [],
      "stateMutability": "nonpayable",
      "type": "function"
    },
    {
      "inputs": [
        {
          "internalType": "address",
          "name": "to",
          "type": "address"
        },
        {
          "internalType": "uint256",
          "name": "tokenId",
          "type": "uint256"
        }
      ],
      "name": "sourceTransfer",
      "outputs": [],
      "stateMutability": "nonpayable",
      "type": "function"
    },
    {
      "inputs": [
        {
          "internalType": "bytes4",
          "name": "interfaceId",
          "type": "bytes4"
        }
      ],
      "name": "supportsInterface",
      "outputs": [
        {
          "internalType": "bool",
          "name": "",
          "type": "bool"
        }
      ],
      "stateMutability": "view",
      "type": "function"
    },
    {
      "inputs": [],
      "name": "symbol",
      "outputs": [
        {
          "internalType": "string",
          "name": "",
          "type": "string"
        }
      ],
      "stateMutability": "view",
      "type": "function"
    },
    {
      "inputs": [
        {
          "internalType": "uint256",
          "name": "index",
          "type": "uint256"
        }
      ],
      "name": "tokenByIndex",
      "outputs": [
        {
          "internalType": "uint256",
          "name": "",
          "type": "uint256"
        }
      ],
      "stateMutability": "view",
      "type": "function"
    },
    {
      "inputs": [
        {
          "internalType": "address",
          "name": "wallet",
          "type": "address"
        },
        {
          "internalType": "uint256",
          "name": "index",
          "type": "uint256"
        }
      ],
      "name": "tokenOfOwnerByIndex",
      "outputs": [
        {
          "internalType": "uint256",
          "name": "",
          "type": "uint256"
        }
      ],
      "stateMutability": "view",
      "type": "function"
    },
    {
      "inputs": [
        {
          "internalType": "uint256",
          "name": "tokenId",
          "type": "uint256"
        }
      ],
      "name": "tokenURI",
      "outputs": [
        {
          "internalType": "string",
          "name": "",
          "type": "string"
        }
      ],
      "stateMutability": "view",
      "type": "function"
    },
    {
      "inputs": [
        {
          "internalType": "uint256",
          "name": "index",
          "type": "uint256"
        },
        {
          "internalType": "uint256",
          "name": "length",
          "type": "uint256"
        }
      ],
      "name": "tokens",
      "outputs": [
        {
          "internalType": "uint256[]",
          "name": "tokenIds",
          "type": "uint256[]"
        }
      ],
      "stateMutability": "view",
      "type": "function"
    },
    {
      "inputs": [
        {
          "internalType": "address",
          "name": "wallet",
          "type": "address"
        }
      ],
      "name": "tokensOfOwner",
      "outputs": [
        {
          "internalType": "uint256[]",
          "name": "",
          "type": "uint256[]"
        }
      ],
      "stateMutability": "view",
      "type": "function"
    },
    {
      "inputs": [
        {
          "internalType": "address",
          "name": "wallet",
          "type": "address"
        },
        {
          "internalType": "uint256",
          "name": "index",
          "type": "uint256"
        },
        {
          "internalType": "uint256",
          "name": "length",
          "type": "uint256"
        }
      ],
      "name": "tokensOfOwner",
      "outputs": [
        {
          "internalType": "uint256[]",
          "name": "tokenIds",
          "type": "uint256[]"
        }
      ],
      "stateMutability": "view",
      "type": "function"
    },
    {
      "inputs": [],
      "name": "totalSupply",
      "outputs": [
        {
          "internalType": "uint256",
          "name": "",
          "type": "uint256"
        }
      ],
      "stateMutability": "view",
      "type": "function"
    },
    {
      "inputs": [
        {
          "internalType": "address",
          "name": "to",
          "type": "address"
        },
        {
          "internalType": "uint256",
          "name": "tokenId",
          "type": "uint256"
        }
      ],
      "name": "transfer",
      "outputs": [],
      "stateMutability": "payable",
      "type": "function"
    },
    {
      "inputs": [
        {
          "internalType": "address",
          "name": "from",
          "type": "address"
        },
        {
          "internalType": "address",
          "name": "to",
          "type": "address"
        },
        {
          "internalType": "uint256",
          "name": "tokenId",
          "type": "uint256"
        }
      ],
      "name": "transferFrom",
      "outputs": [],
      "stateMutability": "payable",
      "type": "function"
    },
    {
      "inputs": [
        {
          "internalType": "address",
          "name": "from",
          "type": "address"
        },
        {
          "internalType": "address",
          "name": "to",
          "type": "address"
        },
        {
          "internalType": "uint256",
          "name": "tokenId",
          "type": "uint256"
        },
        {
          "internalType": "bytes",
          "name": "data",
          "type": "bytes"
        }
      ],
      "name": "transferFrom",
      "outputs": [],
      "stateMutability": "payable",
      "type": "function"
    },
    {
      "inputs": [
        {
          "internalType": "address",
          "name": "newOwner",
          "type": "address"
        }
      ],
      "name": "transferOwnership",
      "outputs": [],
      "stateMutability": "nonpayable",
      "type": "function"
    },
    {
      "stateMutability": "payable",
      "type": "receive"
    }
  ],
  "transactionHash": "0xe9f93c0abfbd387cb5729bc2455ed80d2428cfc61f341a28f1f87a8eb48e9df9",
  "args": [],
  "numDeployments": 2,
  "solcInputHash": "8a3e7c0b8a48991c4a15cecfd042fb05",
  "bytecode": "0x608060405234801561001057600080fd5b50615395806100206000396000f3fe6080604052600436106102eb5760003560e01c806377dbd86311610184578063bf64a82d116100d6578063e8a3d4851161008a578063f2fde38b11610064578063f2fde38b146109e9578063f851a44014610a09578063fadcd09114610a1e576102f2565b8063e8a3d4851461096b578063e985e9c514610980578063eb66dbcf146109d6576102f2565b8063c5655fce116100bb578063c5655fce1461090b578063c839fe941461092b578063c87b56dd1461094b576102f2565b8063bf64a82d146108c4578063c51a29e0146108d7576102f2565b806395d89b4111610138578063ab67aa5811610112578063ab67aa5814610870578063b7e0366114610883578063b88d4fde146108b1576102f2565b806395d89b4114610828578063a22cb4651461083d578063a9059cbb1461085d576102f2565b8063893d20e811610169578063893d20e8146107bf5780638b4864d6146107f35780638da5cb5b14610813576102f2565b806377dbd8631461077d5780638462151c14610792576102f2565b8063313ce5671161023d5780634f558e79116101f15780636e9960c3116101cb5780636e9960c314610709578063704b6c021461073d57806370a082311461075d576102f2565b80634f558e79146106845780634f6ccce7146106c95780636352211e146106e9576102f2565b806342842e0e1161022257806342842e0e1461063157806342966c68146106445780634ddf47d414610664576102f2565b8063313ce567146105fd5780633b4f1b2614610611576102f2565b806313af40351161029f57806323250cae1161027957806323250cae1461059a57806323b872dd146105ca5780632f745c59146105dd576102f2565b806313af40351461053b578063150b7a021461055b57806318160ddd1461057b576102f2565b8063081812fc116102d0578063081812fc1461046f57806308a1eb20146104d7578063095ea7b314610528576102f2565b806301ffc9a71461041857806306fdde031461044d576102f2565b366102f257005b60006102fc610a3e565b73ffffffffffffffffffffffffffffffffffffffff16639fe7303f60046000357fffffffff00000000000000000000000000000000000000000000000000000000166040518363ffffffff1660e01b815260040161035b92919061469d565b602060405180830381865afa158015610378573d6000803e3d6000fd5b505050506040513d601f19601f8201168201806040525081019061039c9190614727565b156103cf576103a9610adb565b90503660008037600080366000845af43d6000803e8080156103ca573d6000f35b3d6000fd5b3660008037333652600080602036016000347f27d542086d1e831d40b749e7f5509a626c3047a36d160781c40d5acc83e5b074545af13d6000803e8080156103ca573d6000f35b005b34801561042457600080fd5b50610438610433366004614772565b610be3565b60405190151581526020015b60405180910390f35b34801561045957600080fd5b50610462610e14565b6040516104449190614805565b34801561047b57600080fd5b506104b261048a366004614818565b60009081526007602052604090205473ffffffffffffffffffffffffffffffffffffffff1690565b60405173ffffffffffffffffffffffffffffffffffffffff9091168152602001610444565b3480156104e357600080fd5b506104f76104f236600461488c565b610ea6565b6040517fffffffff000000000000000000000000000000000000000000000000000000009091168152602001610444565b610416610536366004614903565b61120b565b34801561054757600080fd5b5061041661055636600461492f565b611477565b34801561056757600080fd5b506104f761057636600461494c565b6115da565b34801561058757600080fd5b506004545b604051908152602001610444565b3480156105a657600080fd5b506104386105b5366004614818565b6000908152600c602052604090205460ff1690565b6104166105d83660046149bf565b61187d565b3480156105e957600080fd5b5061058c6105f8366004614903565b611898565b34801561060957600080fd5b50600061058c565b34801561061d57600080fd5b5061041661062c366004614a00565b611955565b61041661063f3660046149bf565b611b0b565b34801561065057600080fd5b5061041661065f366004614818565b611b26565b34801561067057600080fd5b506104f761067f366004614b74565b611ca1565b34801561069057600080fd5b5061043861069f366004614818565b60009081526006602052604090205473ffffffffffffffffffffffffffffffffffffffff16151590565b3480156106d557600080fd5b5061058c6106e4366004614818565b612187565b3480156106f557600080fd5b506104b2610704366004614818565b61221a565b34801561071557600080fd5b507f3f106594dc74eeef980dae234cde8324dc2497b13d27a0c59e55bd2ca10a07c9546104b2565b34801561074957600080fd5b5061041661075836600461492f565b6122ac565b34801561076957600080fd5b5061058c61077836600461492f565b612386565b34801561078957600080fd5b5061058c61242e565b34801561079e57600080fd5b506107b26107ad36600461492f565b612532565b6040516104449190614ba9565b3480156107cb57600080fd5b507fb56711ba6bd3ded7639fc335ee7524fe668a79d7558c85992e3f8494cf772777546104b2565b3480156107ff57600080fd5b506107b261080e366004614bed565b6125ab565b34801561081f57600080fd5b506104b261267d565b34801561083457600080fd5b50610462612713565b34801561084957600080fd5b50610416610858366004614c0f565b612722565b61041661086b366004614903565b612911565b61041661087e366004614c3d565b612928565b34801561088f57600080fd5b506108a361089e366004614ca9565b612a17565b604051610444929190614d0e565b6104166108bf366004614c3d565b612e2d565b6104166108d2366004614d49565b613047565b3480156108e357600080fd5b507f0b671eb65810897366dd82c4cbb7d9dff8beda8484194956e81e89b8a361d9c75461058c565b34801561091757600080fd5b50610416610926366004614903565b61311d565b34801561093757600080fd5b506107b2610946366004614d69565b613267565b34801561095757600080fd5b50610462610966366004614818565b613380565b34801561097757600080fd5b506104626134e8565b34801561098c57600080fd5b5061043861099b366004614d9e565b73ffffffffffffffffffffffffffffffffffffffff9182166000908152600a6020908152604080832093909416825291909152205460ff1690565b6104166109e4366004614d49565b6135b4565b3480156109f557600080fd5b50610416610a0436600461492f565b61366a565b348015610a1557600080fd5b506104b26137c1565b348015610a2a57600080fd5b50610416610a39366004614818565b6137eb565b6000610a687fb4107f746e9496e8452accc7de63d1c5e14c19f510932daa04077cd49e8bd77a5490565b73ffffffffffffffffffffffffffffffffffffffff1663ebac15f96040518163ffffffff1660e01b8152600401602060405180830381865afa158015610ab2573d6000803e3d6000fd5b505050506040513d601f19601f82011682018060405250810190610ad69190614dcc565b905090565b6000610b057fb4107f746e9496e8452accc7de63d1c5e14c19f510932daa04077cd49e8bd77a5490565b73ffffffffffffffffffffffffffffffffffffffff16635ab1bd536040518163ffffffff1660e01b8152600401602060405180830381865afa158015610b4f573d6000803e3d6000fd5b505050506040513d601f19601f82011682018060405250810190610b739190614dcc565b6040517fcc2913f90000000000000000000000000000000000000000000000000000000081526350413144600482015273ffffffffffffffffffffffffffffffffffffffff919091169063cc2913f990602401602060405180830381865afa158015610ab2573d6000803e3d6000fd5b600080610bee610a3e565b7f27d542086d1e831d40b749e7f5509a626c3047a36d160781c40d5acc83e5b074546040517f9fe7303f0000000000000000000000000000000000000000000000000000000081529192509073ffffffffffffffffffffffffffffffffffffffff831690639fe7303f90610c6990600290889060040161469d565b602060405180830381865afa158015610c86573d6000803e3d6000fd5b505050506040513d601f19601f82011682018060405250810190610caa9190614727565b80610d4557506040517f9fe7303f00000000000000000000000000000000000000000000000000000000815273ffffffffffffffffffffffffffffffffffffffff831690639fe7303f90610d04906004908890820161469d565b602060405180830381865afa158015610d21573d6000803e3d6000fd5b505050506040513d601f19601f82011682018060405250810190610d459190614727565b80610dfb57506040517f01ffc9a70000000000000000000000000000000000000000000000000000000081527fffffffff000000000000000000000000000000000000000000000000000000008516600482015273ffffffffffffffffffffffffffffffffffffffff8216906301ffc9a790602401602060405180830381865afa158015610dd7573d6000803e3d6000fd5b505050506040513d601f19601f82011682018060405250810190610dfb9190614727565b15610e0a575060019392505050565b5060009392505050565b606060018054610e2390614de9565b80601f0160208091040260200160405190810160405280929190818152602001828054610e4f90614de9565b8015610e9c5780601f10610e7157610100808354040283529160200191610e9c565b820191906000526020600020905b815481529060010190602001808311610e7f57829003601f168201915b5050505050905090565b6000610ed07fb4107f746e9496e8452accc7de63d1c5e14c19f510932daa04077cd49e8bd77a5490565b73ffffffffffffffffffffffffffffffffffffffff16630fffbaf36040518163ffffffff1660e01b8152600401602060405180830381865afa158015610f1a573d6000803e3d6000fd5b505050506040513d601f19601f82011682018060405250810190610f3e9190614dcc565b73ffffffffffffffffffffffffffffffffffffffff163373ffffffffffffffffffffffffffffffffffffffff1614610fd7576040517f08c379a000000000000000000000000000000000000000000000000000000000815260206004820152601860248201527f4552433732313a20627269646765206f6e6c792063616c6c000000000000000060448201526064015b60405180910390fd5b6000808080610fe886880188614c3d565b935093509350935061101e8260009081526006602052604090205473ffffffffffffffffffffffffffffffffffffffff16151590565b15611085576040517f08c379a000000000000000000000000000000000000000000000000000000000815260206004820152601c60248201527f4552433732313a20746f6b656e20616c726561647920657869737473000000006044820152606401610fce565b6000828152600c6020526040902080547fffffffffffffffffffffffffffffffffffffffffffffffffffffffffffffff001690556110c383836138bb565b6110cd6001613b2b565b156111de5761117863f0f5407360e01b89868686866040516024016110f6959493929190614e3c565b604080517fffffffffffffffffffffffffffffffffffffffffffffffffffffffffffffffe08184030181529190526020810180517bffffffffffffffffffffffffffffffffffffffffffffffffffffffff167fffffffff0000000000000000000000000000000000000000000000000000000090931692909217909152613b5d565b6111de576040517f08c379a000000000000000000000000000000000000000000000000000000000815260206004820152601b60248201527f484f4c4f47524150483a2062726964676520696e206661696c656400000000006044820152606401610fce565b507f08a1eb2000000000000000000000000000000000000000000000000000000000979650505050505050565b60008181526006602052604090205473ffffffffffffffffffffffffffffffffffffffff90811690831681900361129e576040517f08c379a000000000000000000000000000000000000000000000000000000000815260206004820152601b60248201527f4552433732313a2063616e6e6f7420617070726f76652073656c6600000000006044820152606401610fce565b6112a83383613bb6565b61130e576040517f08c379a000000000000000000000000000000000000000000000000000000000815260206004820152601b60248201527f4552433732313a206e6f7420617070726f7665642073656e64657200000000006044820152606401610fce565b6113186004613b2b565b156113825760405173ffffffffffffffffffffffffffffffffffffffff80831660248301528416604482015260648101839052611379907f47abf3be00000000000000000000000000000000000000000000000000000000906084016110f6565b61138257600080fd5b60008281526007602052604080822080547fffffffffffffffffffffffff00000000000000000000000000000000000000001673ffffffffffffffffffffffffffffffffffffffff87811691821790925591518593918516917f8c5be1e5ebec7d5bd14f71427d1e84f3dd0314c0f7b2291e5b200ac8c7c3b92591a46114086003613b2b565b156114725760405173ffffffffffffffffffffffffffffffffffffffff80831660248301528416604482015260648101839052611469907f900f66ef00000000000000000000000000000000000000000000000000000000906084016110f6565b61147257600080fd5b505050565b7fb56711ba6bd3ded7639fc335ee7524fe668a79d7558c85992e3f8494cf7727775473ffffffffffffffffffffffffffffffffffffffff163373ffffffffffffffffffffffffffffffffffffffff161461152d576040517f08c379a000000000000000000000000000000000000000000000000000000000815260206004820152601e60248201527f484f4c4f47524150483a206f776e6572206f6e6c792066756e6374696f6e00006044820152606401610fce565b60006115577fb56711ba6bd3ded7639fc335ee7524fe668a79d7558c85992e3f8494cf7727775490565b9050817fb56711ba6bd3ded7639fc335ee7524fe668a79d7558c85992e3f8494cf772777558173ffffffffffffffffffffffffffffffffffffffff168173ffffffffffffffffffffffffffffffffffffffff167f8be0079c531659141344cd1fd0a4f28419497f9722a3daafe3b4186f6b6457e060405160405180910390a35050565b60006115e586613cb2565b61164b576040517f08c379a000000000000000000000000000000000000000000000000000000000815260206004820152601d60248201527f4552433732313a206f70657261746f72206e6f7420636f6e74726163740000006044820152606401610fce565b611655600f613b2b565b15611689576116806368fd76b260e01b8787308888886040516024016110f696959493929190614e92565b61168957600080fd5b6040517f6352211e0000000000000000000000000000000000000000000000000000000081526004810185905273ffffffffffffffffffffffffffffffffffffffff871690636352211e90602401602060405180830381865afa92505050801561172e575060408051601f3d9081017fffffffffffffffffffffffffffffffffffffffffffffffffffffffffffffffe016820190925261172b91810190614dcc565b60015b611794576040517f08c379a000000000000000000000000000000000000000000000000000000000815260206004820152601c60248201527f4552433732313a20746f6b656e20646f6573206e6f74206578697374000000006044820152606401610fce565b73ffffffffffffffffffffffffffffffffffffffff81163014611813576040517f08c379a000000000000000000000000000000000000000000000000000000000815260206004820181905260248201527f4552433732313a20636f6e7472616374206e6f7420746f6b656e206f776e65726044820152606401610fce565b5061181e6010613b2b565b156118525761184963462b401a60e01b8787308888886040516024016110f696959493929190614e92565b61185257600080fd5b507f150b7a020000000000000000000000000000000000000000000000000000000095945050505050565b61147283838360405180602001604052806000815250612928565b60006118a383612386565b821061190b576040517f08c379a000000000000000000000000000000000000000000000000000000000815260206004820152601b60248201527f4552433732313a20696e646578206f7574206f6620626f756e647300000000006044820152606401610fce565b73ffffffffffffffffffffffffffffffffffffffff8316600090815260096020526040902080548390811061194257611942614f1a565b9060005260206000200154905092915050565b7f27d542086d1e831d40b749e7f5509a626c3047a36d160781c40d5acc83e5b074543373ffffffffffffffffffffffffffffffffffffffff8216146119f6576040517f08c379a000000000000000000000000000000000000000000000000000000000815260206004820152601860248201527f4552433732313a20736f75726365206f6e6c792063616c6c00000000000000006044820152606401610fce565b6000611a00613ce9565b83604051602001611a6792919060e09290921b7fffffffff00000000000000000000000000000000000000000000000000000000168252602090811b7fffffffffffffffffffffffffffffffffffffffffffffffffffffffff000000001660048301520190565b604051602081830303815290604052611a7f90614f49565b6000818152600c602052604090205490915060ff1615611afb576040517f08c379a000000000000000000000000000000000000000000000000000000000815260206004820152601f60248201527f4552433732313a2063616e2774206d696e74206275726e656420746f6b656e006044820152606401610fce565b611b0584826138bb565b50505050565b61147283838360405180602001604052806000815250612e2d565b611b303382613e59565b611b96576040517f08c379a000000000000000000000000000000000000000000000000000000000815260206004820152601b60248201527f4552433732313a206e6f7420617070726f7665642073656e64657200000000006044820152606401610fce565b60008181526006602052604090205473ffffffffffffffffffffffffffffffffffffffff16611bc56008613b2b565b15611c275760405173ffffffffffffffffffffffffffffffffffffffff8216602482015260448101839052611c1e907f4a1fefbd00000000000000000000000000000000000000000000000000000000906064016110f6565b611c2757600080fd5b611c318183613f86565b611c3b6007613b2b565b15611c9d5760405173ffffffffffffffffffffffffffffffffffffffff8216602482015260448101839052611c94907f971c34b400000000000000000000000000000000000000000000000000000000906064016110f6565b611c9d57600080fd5b5050565b6000611ccb7f4e5f991bca30eca2d4643aaefa807e88f96a4a97398933d572a3c0d973004a015490565b15611d32576040517f08c379a000000000000000000000000000000000000000000000000000000000815260206004820152601b60248201527f4552433732313a20616c726561647920696e697469616c697a656400000000006044820152606401610fce565b6000337fb56711ba6bd3ded7639fc335ee7524fe668a79d7558c85992e3f8494cf772777557f27d542086d1e831d40b749e7f5509a626c3047a36d160781c40d5acc83e5b07454905060008060008060008088806020019051810190611d989190614fd0565b9550955095509550955095508560019080519060200190611dba9291906145b8565b508451611dce9060029060208801906145b8565b50600380547fffffffffffffffffffffffffffffffffffffffffffffffffffffffffffff00001661ffff8616179055600083905581612130576040517f4ddf47d4000000000000000000000000000000000000000000000000000000008082529073ffffffffffffffffffffffffffffffffffffffff891690634ddf47d490611e5b908590600401614805565b6020604051808303816000875af1158015611e7a573d6000803e3d6000fd5b505050506040513d601f19601f82011682018060405250810190611e9e919061508e565b7fffffffff000000000000000000000000000000000000000000000000000000001614611f27576040517f08c379a000000000000000000000000000000000000000000000000000000000815260206004820152601d60248201527f4552433732313a20636f756c64206e6f7420696e697420736f757263650000006044820152606401610fce565b600080611f32610adb565b73ffffffffffffffffffffffffffffffffffffffff168661ffff16604051602001611f5f91815260200190565b604080517fffffffffffffffffffffffffffffffffffffffffffffffffffffffffffffffe081840301815290829052611f9a91602401614805565b604080517fffffffffffffffffffffffffffffffffffffffffffffffffffffffffffffffe08184030181529181526020820180517bffffffffffffffffffffffffffffffffffffffffffffffffffffffff167f65b85eb5000000000000000000000000000000000000000000000000000000001790525161201b91906150ab565b600060405180830381855af49150503d8060008114612056576040519150601f19603f3d011682016040523d82523d6000602084013e61205b565b606091505b5091509150600081806020019051810190612076919061508e565b90508280156120c657507fffffffff0000000000000000000000000000000000000000000000000000000081167f4ddf47d400000000000000000000000000000000000000000000000000000000145b61212c576040517f08c379a000000000000000000000000000000000000000000000000000000000815260206004820152601a60248201527f4552433732313a20636f7564206e6f7420696e697420504131440000000000006044820152606401610fce565b5050505b61215960017f4e5f991bca30eca2d4643aaefa807e88f96a4a97398933d572a3c0d973004a0155565b507f4ddf47d40000000000000000000000000000000000000000000000000000000098975050505050505050565b60045460009082106121f5576040517f08c379a000000000000000000000000000000000000000000000000000000000815260206004820152601b60248201527f4552433732313a20696e646578206f7574206f6620626f756e647300000000006044820152606401610fce565b6004828154811061220857612208614f1a565b90600052602060002001549050919050565b60008181526006602052604081205473ffffffffffffffffffffffffffffffffffffffff16806122a6576040517f08c379a000000000000000000000000000000000000000000000000000000000815260206004820152601c60248201527f4552433732313a20746f6b656e20646f6573206e6f74206578697374000000006044820152606401610fce565b92915050565b7f3f106594dc74eeef980dae234cde8324dc2497b13d27a0c59e55bd2ca10a07c95473ffffffffffffffffffffffffffffffffffffffff163373ffffffffffffffffffffffffffffffffffffffff1614612362576040517f08c379a000000000000000000000000000000000000000000000000000000000815260206004820152601e60248201527f484f4c4f47524150483a2061646d696e206f6e6c792066756e6374696f6e00006044820152606401610fce565b7f3f106594dc74eeef980dae234cde8324dc2497b13d27a0c59e55bd2ca10a07c955565b600073ffffffffffffffffffffffffffffffffffffffff8216612405576040517f08c379a000000000000000000000000000000000000000000000000000000000815260206004820152601460248201527f4552433732313a207a65726f20616464726573730000000000000000000000006044820152606401610fce565b5073ffffffffffffffffffffffffffffffffffffffff1660009081526008602052604090205490565b7f27d542086d1e831d40b749e7f5509a626c3047a36d160781c40d5acc83e5b074546000903373ffffffffffffffffffffffffffffffffffffffff8216146124d2576040517f08c379a000000000000000000000000000000000000000000000000000000000815260206004820152601860248201527f4552433732313a20736f75726365206f6e6c792063616c6c00000000000000006044820152606401610fce565b6124da613ce9565b6040805160e09290921b7fffffffff00000000000000000000000000000000000000000000000000000000166020830152600060248301520160405160208183030381529060405261252b90614f49565b91505b5090565b73ffffffffffffffffffffffffffffffffffffffff811660009081526009602090815260409182902080548351818402810184019094528084526060939283018282801561259f57602002820191906000526020600020905b81548152602001906001019080831161258b575b50505050509050919050565b600454606090806125bc84866150f6565b11156125cf576125cc848261510e565b92505b8267ffffffffffffffff8111156125e8576125e8614a5a565b604051908082528060200260200182016040528015612611578160200160208202803683370190505b50915060005b8381101561267557600461262b82876150f6565b8154811061263b5761263b614f1a565b906000526020600020015483828151811061265857612658614f1a565b60209081029190910101528061266d81615125565b915050612617565b505092915050565b6000807f27d542086d1e831d40b749e7f5509a626c3047a36d160781c40d5acc83e5b0745490508073ffffffffffffffffffffffffffffffffffffffff16638da5cb5b6040518163ffffffff1660e01b8152600401602060405180830381865afa1580156126ef573d6000803e3d6000fd5b505050506040513d601f19601f8201168201806040525081019061252b9190614dcc565b606060028054610e2390614de9565b3373ffffffffffffffffffffffffffffffffffffffff8316036127a1576040517f08c379a000000000000000000000000000000000000000000000000000000000815260206004820152601b60248201527f4552433732313a2063616e6e6f7420617070726f76652073656c6600000000006044820152606401610fce565b6127ab6006613b2b565b156128145760405133602482015273ffffffffffffffffffffffffffffffffffffffff83166044820152811515606482015261280b907f0d39191500000000000000000000000000000000000000000000000000000000906084016110f6565b61281457600080fd5b336000818152600a6020908152604080832073ffffffffffffffffffffffffffffffffffffffff87168085529083529281902080547fffffffffffffffffffffffffffffffffffffffffffffffffffffffffffffff001686151590811790915590519081529192917f17307eab39ab6107e8899845ad3d59bd9653f200f220920489ca2b5937696c31910160405180910390a36128b16005613b2b565b15611c9d5760405133602482015273ffffffffffffffffffffffffffffffffffffffff831660448201528115156064820152611c94907fb6d3d5b700000000000000000000000000000000000000000000000000000000906084016110f6565b611c9d338383604051806020016040528060008152505b6129323383613e59565b612998576040517f08c379a000000000000000000000000000000000000000000000000000000000815260206004820152601b60248201527f4552433732313a206e6f7420617070726f7665642073656e64657200000000006044820152606401610fce565b6129a2600e613b2b565b156129d2576129c963343b278f60e01b858585856040516024016110f6949392919061515d565b6129d257600080fd5b6129dd848484614074565b6129e7600d613b2b565b15611b0557612a0e630668af8060e01b858585856040516024016110f6949392919061515d565b611b0557600080fd5b60006060612a437fb4107f746e9496e8452accc7de63d1c5e14c19f510932daa04077cd49e8bd77a5490565b73ffffffffffffffffffffffffffffffffffffffff16630fffbaf36040518163ffffffff1660e01b8152600401602060405180830381865afa158015612a8d573d6000803e3d6000fd5b505050506040513d601f19601f82011682018060405250810190612ab19190614dcc565b73ffffffffffffffffffffffffffffffffffffffff163373ffffffffffffffffffffffffffffffffffffffff1614612b45576040517f08c379a000000000000000000000000000000000000000000000000000000000815260206004820152601860248201527f4552433732313a20627269646765206f6e6c792063616c6c00000000000000006044820152606401610fce565b60008080612b55868801886149bf565b9194509250905073ffffffffffffffffffffffffffffffffffffffff8216612bd9576040517f08c379a000000000000000000000000000000000000000000000000000000000815260206004820152601460248201527f4552433732313a207a65726f20616464726573730000000000000000000000006044820152606401610fce565b612be38882613e59565b612c49576040517f08c379a000000000000000000000000000000000000000000000000000000000815260206004820152601b60248201527f4552433732313a2073656e646572206e6f7420617070726f76656400000000006044820152606401610fce565b60008181526006602052604090205473ffffffffffffffffffffffffffffffffffffffff848116911614612cd9576040517f08c379a000000000000000000000000000000000000000000000000000000000815260206004820152601960248201527f4552433732313a2066726f6d206973206e6f74206f776e6572000000000000006044820152606401610fce565b612ce36002613b2b565b15612dcb576040805163ffffffff8b16602482015273ffffffffffffffffffffffffffffffffffffffff85811660448301528416606482015260848082018490528251808303909101815260a4909101909152602080820180517bffffffffffffffffffffffffffffffffffffffffffffffffffffffff167f8b1465c6000000000000000000000000000000000000000000000000000000001790528151339083015281517f27d542086d1e831d40b749e7f5509a626c3047a36d160781c40d5acc83e5b0745460009283920190849034905af13d6000873e8080612dc7573d6000fd5b5050505b612dd58382613f86565b6040517fb7e036610000000000000000000000000000000000000000000000000000000090612e0e90859085908590899060200161515d565b6040516020818303038152906040529450945050505094509492505050565b612e373383613e59565b612e9d576040517f08c379a000000000000000000000000000000000000000000000000000000000815260206004820152601b60248201527f4552433732313a206e6f7420617070726f7665642073656e64657200000000006044820152606401610fce565b612ea7600c613b2b565b15612ed757612ece632ca1667660e01b858585856040516024016110f6949392919061515d565b612ed757600080fd5b612ee2848484614074565b612eeb83613cb2565b15613016576040517f150b7a02000000000000000000000000000000000000000000000000000000008082529073ffffffffffffffffffffffffffffffffffffffff85169063150b7a0290612f4a90339089908890889060040161515d565b6020604051808303816000875af1158015612f69573d6000803e3d6000fd5b505050506040513d601f19601f82011682018060405250810190612f8d919061508e565b7fffffffff000000000000000000000000000000000000000000000000000000001614613016576040517f08c379a000000000000000000000000000000000000000000000000000000000815260206004820152601d60248201527f4552433732313a206f6e4552433732315265636569766564206661696c0000006044820152606401610fce565b613020600b613b2b565b15611b0557612a0e6336fff06260e01b858585856040516024016110f6949392919061515d565b7f3f106594dc74eeef980dae234cde8324dc2497b13d27a0c59e55bd2ca10a07c95473ffffffffffffffffffffffffffffffffffffffff163373ffffffffffffffffffffffffffffffffffffffff16146130fd576040517f08c379a000000000000000000000000000000000000000000000000000000000815260206004820152601e60248201527f484f4c4f47524150483a2061646d696e206f6e6c792066756e6374696f6e00006044820152606401610fce565b808260003760008082600034875af13d6000803e8080156103ca573d6000f35b7f27d542086d1e831d40b749e7f5509a626c3047a36d160781c40d5acc83e5b074543373ffffffffffffffffffffffffffffffffffffffff8216146131be576040517f08c379a000000000000000000000000000000000000000000000000000000000815260206004820152601860248201527f4552433732313a20736f75726365206f6e6c792063616c6c00000000000000006044820152606401610fce565b6000828152600c602052604090205460ff1615613237576040517f08c379a000000000000000000000000000000000000000000000000000000000815260206004820152601d60248201527f4552433732313a20746f6b656e20686173206265656e206275726e65640000006044820152606401610fce565b60008281526006602052604090205473ffffffffffffffffffffffffffffffffffffffff16611b05818585614074565b73ffffffffffffffffffffffffffffffffffffffff83166000908152600860205260409020546060908061329b84866150f6565b11156132ae576132ab848261510e565b92505b8267ffffffffffffffff8111156132c7576132c7614a5a565b6040519080825280602002602001820160405280156132f0578160200160208202803683370190505b50915060005b838110156133775773ffffffffffffffffffffffffffffffffffffffff8616600090815260096020526040902061332d82876150f6565b8154811061333d5761333d614f1a565b906000526020600020015483828151811061335a5761335a614f1a565b60209081029190910101528061336f81615125565b9150506132f6565b50509392505050565b60008181526006602052604090205460609073ffffffffffffffffffffffffffffffffffffffff1661340e576040517f08c379a000000000000000000000000000000000000000000000000000000000815260206004820152601c60248201527f4552433732313a20746f6b656e20646f6573206e6f74206578697374000000006044820152606401610fce565b7f27d542086d1e831d40b749e7f5509a626c3047a36d160781c40d5acc83e5b074546040517fc87b56dd0000000000000000000000000000000000000000000000000000000081526004810184905273ffffffffffffffffffffffffffffffffffffffff82169063c87b56dd90602401600060405180830381865afa15801561349b573d6000803e3d6000fd5b505050506040513d6000823e601f3d9081017fffffffffffffffffffffffffffffffffffffffffffffffffffffffffffffffe01682016040526134e191908101906151a6565b9392505050565b60606134f2610a3e565b6003546040517f9cf149da00000000000000000000000000000000000000000000000000000000815273ffffffffffffffffffffffffffffffffffffffff9290921691639cf149da916135519160019161ffff169030906004016151db565b600060405180830381865afa15801561356e573d6000803e3d6000fd5b505050506040513d6000823e601f3d9081017fffffffffffffffffffffffffffffffffffffffffffffffffffffffffffffffe0168201604052610ad691908101906151a6565b7fb56711ba6bd3ded7639fc335ee7524fe668a79d7558c85992e3f8494cf7727775473ffffffffffffffffffffffffffffffffffffffff163373ffffffffffffffffffffffffffffffffffffffff16146130fd576040517f08c379a000000000000000000000000000000000000000000000000000000000815260206004820152601e60248201527f484f4c4f47524150483a206f776e6572206f6e6c792066756e6374696f6e00006044820152606401610fce565b7fb56711ba6bd3ded7639fc335ee7524fe668a79d7558c85992e3f8494cf7727775473ffffffffffffffffffffffffffffffffffffffff163373ffffffffffffffffffffffffffffffffffffffff1614613720576040517f08c379a000000000000000000000000000000000000000000000000000000000815260206004820152601e60248201527f484f4c4f47524150483a206f776e6572206f6e6c792066756e6374696f6e00006044820152606401610fce565b73ffffffffffffffffffffffffffffffffffffffff811661379d576040517f08c379a000000000000000000000000000000000000000000000000000000000815260206004820152601760248201527f484f4c4f47524150483a207a65726f20616464726573730000000000000000006044820152606401610fce565b7fb56711ba6bd3ded7639fc335ee7524fe668a79d7558c85992e3f8494cf77277755565b6000610ad67f3f106594dc74eeef980dae234cde8324dc2497b13d27a0c59e55bd2ca10a07c95490565b7f27d542086d1e831d40b749e7f5509a626c3047a36d160781c40d5acc83e5b074543373ffffffffffffffffffffffffffffffffffffffff82161461388c576040517f08c379a000000000000000000000000000000000000000000000000000000000815260206004820152601860248201527f4552433732313a20736f75726365206f6e6c792063616c6c00000000000000006044820152606401610fce565b60008281526006602052604090205473ffffffffffffffffffffffffffffffffffffffff166114728184613f86565b60008111613925576040517f08c379a000000000000000000000000000000000000000000000000000000000815260206004820152601f60248201527f4552433732313a20746f6b656e2069642063616e6e6f74206265207a65726f006044820152606401610fce565b73ffffffffffffffffffffffffffffffffffffffff82166139a2576040517f08c379a000000000000000000000000000000000000000000000000000000000815260206004820152601f60248201527f4552433732313a206d696e74696e6720746f206275726e2061646472657373006044820152606401610fce565b60008181526006602052604090205473ffffffffffffffffffffffffffffffffffffffff1615613a2e576040517f08c379a000000000000000000000000000000000000000000000000000000000815260206004820152601c60248201527f4552433732313a20746f6b656e20616c726561647920657869737473000000006044820152606401610fce565b6000818152600c602052604090205460ff1615613aa7576040517f08c379a000000000000000000000000000000000000000000000000000000000815260206004820152601d60248201527f4552433732313a20746f6b656e20686173206265656e206275726e65640000006044820152606401610fce565b60008181526006602052604080822080547fffffffffffffffffffffffff00000000000000000000000000000000000000001673ffffffffffffffffffffffffffffffffffffffff861690811790915590518392907fddf252ad1be2c89b69c2b068fc378daa952ba7f163c4a11628f55a4df523b3ef908290a4611c9d8282614241565b60006001826010811115613b4157613b4161466e565b600054901c16600114613b555760006122a6565b600192915050565b600060405160208101604052338351840152600080602085510185347f27d542086d1e831d40b749e7f5509a626c3047a36d160781c40d5acc83e5b074545af13d6000833e8080613bad573d6000fd5b50505192915050565b60008181526006602052604081205473ffffffffffffffffffffffffffffffffffffffff16613c41576040517f08c379a000000000000000000000000000000000000000000000000000000000815260206004820152601c60248201527f4552433732313a20746f6b656e20646f6573206e6f74206578697374000000006044820152606401610fce565b60008281526006602052604090205473ffffffffffffffffffffffffffffffffffffffff908116908416811480613caa575073ffffffffffffffffffffffffffffffffffffffff8082166000908152600a602090815260408083209388168352929052205460ff165b949350505050565b6000813f80158015906134e157507fc5d2460186f7233c927e7db2dcc703c0e500b653ca82273b7bfad8045d85a470141592915050565b6000803073ffffffffffffffffffffffffffffffffffffffff16634827ae0c6040518163ffffffff1660e01b8152600401602060405180830381865afa158015613d37573d6000803e3d6000fd5b505050506040513d601f19601f82011682018060405250810190613d5b9190614dcc565b73ffffffffffffffffffffffffffffffffffffffff1663381b5f466040518163ffffffff1660e01b8152600401602060405180830381865afa158015613da5573d6000803e3d6000fd5b505050506040513d601f19601f82011682018060405250810190613dc99190615307565b90503073ffffffffffffffffffffffffffffffffffffffff1663913a0ef26040518163ffffffff1660e01b8152600401602060405180830381865afa158015613e16573d6000803e3d6000fd5b505050506040513d601f19601f82011682018060405250810190613e3a9190615307565b63ffffffff168163ffffffff1614613e5157919050565b600091505090565b60008181526006602052604081205473ffffffffffffffffffffffffffffffffffffffff16613ee4576040517f08c379a000000000000000000000000000000000000000000000000000000000815260206004820152601c60248201527f4552433732313a20746f6b656e20646f6573206e6f74206578697374000000006044820152606401610fce565b60008281526006602052604090205473ffffffffffffffffffffffffffffffffffffffff908116908416811480613f41575060008381526007602052604090205473ffffffffffffffffffffffffffffffffffffffff8581169116145b80613caa575073ffffffffffffffffffffffffffffffffffffffff8082166000908152600a602090815260408083209388168352929052205460ff1691505092915050565b600081815260076020526040902080547fffffffffffffffffffffffff000000000000000000000000000000000000000016905560008181526006602052604080822080547fffffffffffffffffffffffff00000000000000000000000000000000000000001690555182919073ffffffffffffffffffffffffffffffffffffffff8516907fddf252ad1be2c89b69c2b068fc378daa952ba7f163c4a11628f55a4df523b3ef908390a461403a8282614308565b6000908152600c6020526040902080547fffffffffffffffffffffffffffffffffffffffffffffffffffffffffffffff0016600117905550565b60008181526006602052604090205473ffffffffffffffffffffffffffffffffffffffff848116911614614104576040517f08c379a000000000000000000000000000000000000000000000000000000000815260206004820152601760248201527f4552433732313a20746f6b656e206e6f74206f776e65640000000000000000006044820152606401610fce565b73ffffffffffffffffffffffffffffffffffffffff8216614181576040517f08c379a000000000000000000000000000000000000000000000000000000000815260206004820152601860248201527f4552433732313a20757365206275726e20696e737465616400000000000000006044820152606401610fce565b600081815260076020526040902080547fffffffffffffffffffffffff000000000000000000000000000000000000000016905560008181526006602052604080822080547fffffffffffffffffffffffff00000000000000000000000000000000000000001673ffffffffffffffffffffffffffffffffffffffff86811691821790925591518493918716917fddf252ad1be2c89b69c2b068fc378daa952ba7f163c4a11628f55a4df523b3ef91a461423b8382614308565b61147282825b73ffffffffffffffffffffffffffffffffffffffff82166000818152600860208181526040808420805487865260058452918520829055948452919052919061428983615125565b909155505073ffffffffffffffffffffffffffffffffffffffff90911660009081526009602090815260408083208054600181810183559185528385200185905560048054868652600b909452918420839055820181559091527f8a35acfbc15ff81a39ae7d344fd709f28e8600b4aa8c65c6b64bfe7fe36bd19b0155565b61431181614506565b73ffffffffffffffffffffffffffffffffffffffff8216600090815260086020526040812080549161434283615324565b909155505073ffffffffffffffffffffffffffffffffffffffff82166000908152600860209081526040808320548484526005909252909120548082146144385773ffffffffffffffffffffffffffffffffffffffff841660009081526009602052604081208054849081106143ba576143ba614f1a565b9060005260206000200154905080600960008773ffffffffffffffffffffffffffffffffffffffff1673ffffffffffffffffffffffffffffffffffffffff168152602001908152602001600020838154811061441857614418614f1a565b600091825260208083209091019290925591825260059052604090208190555b816000036144735773ffffffffffffffffffffffffffffffffffffffff8416600090815260096020526040812061446e91614638565b611b05565b73ffffffffffffffffffffffffffffffffffffffff841660009081526009602052604090208054839081106144aa576144aa614f1a565b6000918252602080832090910182905573ffffffffffffffffffffffffffffffffffffffff8616825260099052604090208054806144ea576144ea615359565b6001900381819060005260206000200160009055905550505050565b6004546000906145189060019061510e565b6000838152600b60205260408120546004805493945090928490811061454057614540614f1a565b90600052602060002001549050806004838154811061456157614561614f1a565b6000918252602080832090910192909255828152600b9091526040808220849055858252812055600480548490811061459c5761459c614f1a565b600091825260208220015560048054806144ea576144ea615359565b8280546145c490614de9565b90600052602060002090601f0160209004810192826145e6576000855561462c565b82601f106145ff57805160ff191683800117855561462c565b8280016001018555821561462c579182015b8281111561462c578251825591602001919060010190614611565b5061252e929150614659565b50805460008255906000526020600020908101906146569190614659565b50565b5b8082111561252e576000815560010161465a565b7f4e487b7100000000000000000000000000000000000000000000000000000000600052602160045260246000fd5b60408101600684106146d8577f4e487b7100000000000000000000000000000000000000000000000000000000600052602160045260246000fd5b9281527fffffffff000000000000000000000000000000000000000000000000000000009190911660209091015290565b801515811461465657600080fd5b805161472281614709565b919050565b60006020828403121561473957600080fd5b81516134e181614709565b7fffffffff000000000000000000000000000000000000000000000000000000008116811461465657600080fd5b60006020828403121561478457600080fd5b81356134e181614744565b60005b838110156147aa578181015183820152602001614792565b83811115611b055750506000910152565b600081518084526147d381602086016020860161478f565b601f017fffffffffffffffffffffffffffffffffffffffffffffffffffffffffffffffe0169290920160200192915050565b6020815260006134e160208301846147bb565b60006020828403121561482a57600080fd5b5035919050565b63ffffffff8116811461465657600080fd5b60008083601f84011261485557600080fd5b50813567ffffffffffffffff81111561486d57600080fd5b60208301915083602082850101111561488557600080fd5b9250929050565b6000806000604084860312156148a157600080fd5b83356148ac81614831565b9250602084013567ffffffffffffffff8111156148c857600080fd5b6148d486828701614843565b9497909650939450505050565b73ffffffffffffffffffffffffffffffffffffffff8116811461465657600080fd5b6000806040838503121561491657600080fd5b8235614921816148e1565b946020939093013593505050565b60006020828403121561494157600080fd5b81356134e1816148e1565b60008060008060006080868803121561496457600080fd5b853561496f816148e1565b9450602086013561497f816148e1565b935060408601359250606086013567ffffffffffffffff8111156149a257600080fd5b6149ae88828901614843565b969995985093965092949392505050565b6000806000606084860312156149d457600080fd5b83356149df816148e1565b925060208401356149ef816148e1565b929592945050506040919091013590565b60008060408385031215614a1357600080fd5b8235614a1e816148e1565b915060208301357bffffffffffffffffffffffffffffffffffffffffffffffffffffffff81168114614a4f57600080fd5b809150509250929050565b7f4e487b7100000000000000000000000000000000000000000000000000000000600052604160045260246000fd5b604051601f82017fffffffffffffffffffffffffffffffffffffffffffffffffffffffffffffffe016810167ffffffffffffffff81118282101715614ad057614ad0614a5a565b604052919050565b600067ffffffffffffffff821115614af257614af2614a5a565b50601f017fffffffffffffffffffffffffffffffffffffffffffffffffffffffffffffffe01660200190565b600082601f830112614b2f57600080fd5b8135614b42614b3d82614ad8565b614a89565b818152846020838601011115614b5757600080fd5b816020850160208301376000918101602001919091529392505050565b600060208284031215614b8657600080fd5b813567ffffffffffffffff811115614b9d57600080fd5b613caa84828501614b1e565b6020808252825182820181905260009190848201906040850190845b81811015614be157835183529284019291840191600101614bc5565b50909695505050505050565b60008060408385031215614c0057600080fd5b50508035926020909101359150565b60008060408385031215614c2257600080fd5b8235614c2d816148e1565b91506020830135614a4f81614709565b60008060008060808587031215614c5357600080fd5b8435614c5e816148e1565b93506020850135614c6e816148e1565b925060408501359150606085013567ffffffffffffffff811115614c9157600080fd5b614c9d87828801614b1e565b91505092959194509250565b60008060008060608587031215614cbf57600080fd5b8435614cca81614831565b93506020850135614cda816148e1565b9250604085013567ffffffffffffffff811115614cf657600080fd5b614d0287828801614843565b95989497509550505050565b7fffffffff0000000000000000000000000000000000000000000000000000000083168152604060208201526000613caa60408301846147bb565b600080600060408486031215614d5e57600080fd5b83356148ac816148e1565b600080600060608486031215614d7e57600080fd5b8335614d89816148e1565b95602085013595506040909401359392505050565b60008060408385031215614db157600080fd5b8235614dbc816148e1565b91506020830135614a4f816148e1565b600060208284031215614dde57600080fd5b81516134e1816148e1565b600181811c90821680614dfd57607f821691505b602082108103614e36577f4e487b7100000000000000000000000000000000000000000000000000000000600052602260045260246000fd5b50919050565b63ffffffff86168152600073ffffffffffffffffffffffffffffffffffffffff808716602084015280861660408401525083606083015260a06080830152614e8760a08301846147bb565b979650505050505050565b600073ffffffffffffffffffffffffffffffffffffffff8089168352808816602084015280871660408401525084606083015260a060808301528260a0830152828460c0840137600060c0848401015260c07fffffffffffffffffffffffffffffffffffffffffffffffffffffffffffffffe0601f8501168301019050979650505050505050565b7f4e487b7100000000000000000000000000000000000000000000000000000000600052603260045260246000fd5b80516020808301519190811015614e36577fffffffffffffffffffffffffffffffffffffffffffffffffffffffffffffffff60209190910360031b1b16919050565b600082601f830112614f9c57600080fd5b8151614faa614b3d82614ad8565b818152846020838601011115614fbf57600080fd5b613caa82602083016020870161478f565b60008060008060008060c08789031215614fe957600080fd5b865167ffffffffffffffff8082111561500157600080fd5b61500d8a838b01614f8b565b9750602089015191508082111561502357600080fd5b61502f8a838b01614f8b565b96506040890151915061ffff8216821461504857600080fd5b8195506060890151945061505e60808a01614717565b935060a089015191508082111561507457600080fd5b5061508189828a01614f8b565b9150509295509295509295565b6000602082840312156150a057600080fd5b81516134e181614744565b600082516150bd81846020870161478f565b9190910192915050565b7f4e487b7100000000000000000000000000000000000000000000000000000000600052601160045260246000fd5b60008219821115615109576151096150c7565b500190565b600082821015615120576151206150c7565b500390565b60007fffffffffffffffffffffffffffffffffffffffffffffffffffffffffffffffff8203615156576151566150c7565b5060010190565b600073ffffffffffffffffffffffffffffffffffffffff80871683528086166020840152508360408301526080606083015261519c60808301846147bb565b9695505050505050565b6000602082840312156151b857600080fd5b815167ffffffffffffffff8111156151cf57600080fd5b613caa84828501614f8b565b60a08152600080855481600182811c9150808316806151fb57607f831692505b60208084108203615233577f4e487b710000000000000000000000000000000000000000000000000000000086526022600452602486fd5b60a0880184905260c088018280156152525760018114615281576152ac565b7fffffffffffffffffffffffffffffffffffffffffffffffffffffffffffffff008716825282820197506152ac565b60008d81526020902060005b878110156152a65781548482015290860190840161528d565b83019850505b5050878603908801525050600083525050602081018381036040850152600081529050602081019150506152e6606083018561ffff169052565b73ffffffffffffffffffffffffffffffffffffffff83166080830152613caa565b60006020828403121561531957600080fd5b81516134e181614831565b600081615333576153336150c7565b507fffffffffffffffffffffffffffffffffffffffffffffffffffffffffffffffff0190565b7f4e487b7100000000000000000000000000000000000000000000000000000000600052603160045260246000fdfea164736f6c634300080d000a",
  "devdoc": {
    "author": "CXIP-Labs",
    "details": "The entire logic and functionality of the smart contract is self-contained.",
    "kind": "dev",
    "methods": {
      "approve(address,uint256)": {
        "details": "Requires the sender to be in the approved addresses.",
        "params": {
          "to": "The address to approve.",
          "tokenId": "The affected token."
        }
      },
      "balanceOf(address)": {
        "details": "Used to see total amount of tokens owned by a specific wallet.",
        "params": {
          "wallet": "Address for which to get token balance."
        },
        "returns": {
          "_0": "uint256 Returns an integer, representing total amount of tokens held by address."
        }
      },
      "burn(uint256)": {
        "details": "The sender must be the owner or approved.",
        "params": {
          "tokenId": "The token to burn."
        }
      },
      "constructor": {
        "details": "Constructor is left empty and init is used instead"
      },
      "contractURI()": {
        "returns": {
          "_0": "string The URI."
        }
      },
      "decimals()": {
        "details": "Since ERC721s are single, we use 0 as the decimal places to make sure a round number for totalSupply.",
        "returns": {
          "_0": "uint256 Returns the number of decimal places to have for totalSupply."
        }
      },
      "getApproved(uint256)": {
        "details": "Single operator set for a specific token. Usually used for one-time very specific authorisations.",
        "params": {
          "tokenId": "Token id to get approved operator for."
        },
        "returns": {
          "_0": "address Approved address for token."
        }
      },
      "getContractType()": {
        "details": "Returns the contract type that is used for loading the Enforcer"
      },
      "init(bytes)": {
        "details": "This function is called by the deployer/factory when creating a contract",
        "params": {
          "initPayload": "abi encoded payload to use for contract initilaization"
        }
      },
      "isApprovedForAll(address,address)": {
        "details": "Includes references to OpenSea and Rarible marketplace proxies.",
        "params": {
          "operator": "Address of the marketplace operator.",
          "wallet": "Address of the wallet."
        },
        "returns": {
          "_0": "bool True if approved."
        }
      },
      "name()": {
        "returns": {
          "_0": "string The collection name."
        }
      },
      "onERC721Received(address,address,uint256,bytes)": {
        "details": "We have this blank function in place to make sure that external contract sending in NFTs don't error out.Since it's not being used, the _operator variable is commented out to avoid compiler warnings.Since it's not being used, the _from variable is commented out to avoid compiler warnings.Since it's not being used, the _tokenId variable is commented out to avoid compiler warnings.Since it's not being used, the _data variable is commented out to avoid compiler warnings.",
        "returns": {
          "_0": "bytes4 Returns the interfaceId of onERC721Received."
        }
      },
      "ownerOf(uint256)": {
        "details": "The token must exist.",
        "params": {
          "tokenId": "The token to look up."
        },
        "returns": {
          "_0": "address Owner of the token."
        }
      },
      "safeTransferFrom(address,address,uint256)": {
        "details": "Safely transfers `tokenId` token from `from` to `to`, checking first that contract recipients are aware of the ERC721 protocol to prevent tokens from being forever locked.",
        "params": {
          "from": "cannot be the zero address.",
          "to": "cannot be the zero address.",
          "tokenId": "token must exist and be owned by `from`."
        }
      },
      "safeTransferFrom(address,address,uint256,bytes)": {
        "details": "Since it's not being used, the _data variable is commented out to avoid compiler warnings. are aware of the ERC721 protocol to prevent tokens from being forever locked.",
        "params": {
          "from": "cannot be the zero address.",
          "to": "cannot be the zero address.",
          "tokenId": "token must exist and be owned by `from`."
        }
      },
      "setApprovalForAll(address,bool)": {
        "details": "Allows platforms to sell/transfer all your NFTs. Used with proxy contracts like OpenSea/Rarible.",
        "params": {
          "approved": "Turn on or off approval status.",
          "to": "The address to approve."
        }
      },
      "sourceBurn(uint256)": {
        "details": "Allows for source smart contract to burn a token.  Note: this is put in place to make sure that custom logic could be implemented for merging, gamification, etc.  Note: token cannot be burned if it's locked by bridge."
      },
      "sourceGetChainPrepend()": {
        "details": "Allows source to get the prepend for their tokenIds."
      },
      "sourceMint(address,uint224)": {
        "details": "Allows for source smart contract to mint a token."
      },
      "sourceTransfer(address,uint256)": {
        "details": "Allows for source smart contract to transfer a token.  Note: this is put in place to make sure that custom logic could be implemented for merging, gamification, etc.  Note: token cannot be transfered if it's locked by bridge."
      },
      "supportsInterface(bytes4)": {
        "details": "Must add new 4 byte interface Ids here to acknowledge support",
        "params": {
          "interfaceId": "ERC165 style 4 byte interfaceId."
        },
        "returns": {
          "_0": "bool True if supported."
        }
      },
      "symbol()": {
        "returns": {
          "_0": "string The symbol."
        }
      },
      "tokenByIndex(uint256)": {
        "details": "Used in conjunction with totalSupply function to iterate over all tokens in collection.",
        "params": {
          "index": "Index of token in array."
        },
        "returns": {
          "_0": "uint256 Returns the token id of token located at that index."
        }
      },
      "tokenOfOwnerByIndex(address,uint256)": {
        "details": "Helpful for wallet token enumeration where token id info is not yet available. Use in conjunction with balanceOf function.",
        "params": {
          "index": "Index of token in array.",
          "wallet": "Specific address for which to get token for."
        },
        "returns": {
          "_0": "uint256 Returns the token id of token located at that index in specified wallet."
        }
      },
      "tokenURI(uint256)": {
        "details": "Defaults the the Arweave URI",
        "returns": {
          "_0": "string The URI."
        }
      },
      "tokens(uint256,uint256)": {
        "params": {
          "index": "The index to start enumeration from.",
          "length": "The length of returned results."
        },
        "returns": {
          "tokenIds": "uint256[] Returns a set length array of token ids minted."
        }
      },
      "tokensOfOwner(address)": {
        "params": {
          "wallet": "The wallet address to get tokens for."
        },
        "returns": {
          "_0": "uint256[] Returns an array of token ids owned by wallet."
        }
      },
      "tokensOfOwner(address,uint256,uint256)": {
        "params": {
          "index": "The index to start enumeration from.",
          "length": "The length of returned results.",
          "wallet": "The wallet address to get tokens for."
        },
        "returns": {
          "tokenIds": "uint256[] Returns a set length array of token ids owned by wallet."
        }
      },
      "totalSupply()": {
        "details": "Ignores burned tokens.",
        "returns": {
          "_0": "uint256 Returns the total number of active (not burned) tokens."
        }
      },
      "transfer(address,uint256)": {
        "details": "WARNING: Usage of this method is discouraged, use {safeTransferFrom} whenever possible.",
        "params": {
          "to": "cannot be the zero address.",
          "tokenId": "token must be owned by `from`."
        }
      },
      "transferFrom(address,address,uint256)": {
        "details": "WARNING: Usage of this method is discouraged, use {safeTransferFrom} whenever possible.",
        "params": {
          "from": "cannot be the zero address.",
          "to": "cannot be the zero address.",
          "tokenId": "token must be owned by `from`."
        }
      },
      "transferFrom(address,address,uint256,bytes)": {
        "details": "WARNING: Usage of this method is discouraged, use {safeTransferFrom} whenever possible.Since it's not being used, the _data variable is commented out to avoid compiler warnings.",
        "params": {
          "data": "additional data to pass.",
          "from": "cannot be the zero address.",
          "to": "cannot be the zero address.",
          "tokenId": "token must be owned by `from`."
        }
      }
    },
    "stateVariables": {
      "_allTokens": {
        "details": "Array of all token ids in collection."
      },
      "_allTokensIndex": {
        "details": "Mapping from token id to position in the allTokens array."
      },
      "_bps": {
        "details": "Collection royalty base points."
      },
      "_burnedTokens": {
        "details": "Mapping of all token ids that have been burned. This is to prevent re-minting of same token ids."
      },
      "_contractTypeSlot": {
        "details": "bytes32(uint256(keccak256('eip1967.Holograph.contractType')) - 1)"
      },
      "_eventConfig": {
        "details": "Configuration for events to trigger for source smart contract."
      },
      "_holographSlot": {
        "details": "bytes32(uint256(keccak256('eip1967.Holograph.holograph')) - 1)"
      },
      "_name": {
        "details": "Collection name."
      },
      "_operatorApprovals": {
        "details": "Usually utilised for supporting marketplace proxy wallets."
      },
      "_ownedTokens": {
        "details": "Map of array of token ids owned by a specific address."
      },
      "_ownedTokensCount": {
        "details": "Map of total tokens owner by a specific address."
      },
      "_ownedTokensIndex": {
        "details": "Map of token id to array index of _ownedTokens."
      },
      "_sourceContractSlot": {
        "details": "bytes32(uint256(keccak256('eip1967.Holograph.sourceContract')) - 1)"
      },
      "_symbol": {
        "details": "Collection symbol."
      },
      "_tokenApprovals": {
        "details": "1-to-1 map of token id that was assigned an approved operator address."
      },
      "_tokenOwner": {
        "details": "Token id to wallet (owner) address map."
      }
    },
    "title": "Holograph Bridgeable ERC-721 Collection",
    "version": 1
  },
  "userdoc": {
    "kind": "user",
    "methods": {
      "approve(address,uint256)": {
        "notice": "Adds a new address to the token's approval list."
      },
      "balanceOf(address)": {
        "notice": "Get total number of tokens owned by wallet."
      },
      "burn(uint256)": {
        "notice": "Burns the token."
      },
      "contractURI()": {
        "notice": "Gets a base64 encoded contract JSON file."
      },
      "decimals()": {
        "notice": "Decimal places to have for totalSupply."
      },
      "getApproved(uint256)": {
        "notice": "Gets the approved address for the token."
      },
      "init(bytes)": {
        "notice": "Used internally to initialize the contract instead of through a constructor"
      },
      "isApprovedForAll(address,address)": {
        "notice": "Checks if the address is approved."
      },
      "name()": {
        "notice": "Gets the name of the collection."
      },
      "onERC721Received(address,address,uint256,bytes)": {
        "notice": "Empty function that is triggered by external contract on NFT transfer."
      },
      "ownerOf(uint256)": {
        "notice": "Checks who the owner of a token is."
      },
      "safeTransferFrom(address,address,uint256,bytes)": {
        "notice": "Safely transfers `tokenId` token from `from` to `to`, checking first that contract recipients"
      },
      "setApprovalForAll(address,bool)": {
        "notice": "Adds a new approved operator."
      },
      "supportsInterface(bytes4)": {
        "notice": "Shows the interfaces the contracts support"
      },
      "symbol()": {
        "notice": "Gets the collection's symbol."
      },
      "tokenByIndex(uint256)": {
        "notice": "Get token by index."
      },
      "tokenOfOwnerByIndex(address,uint256)": {
        "notice": "Get token from wallet by index instead of token id."
      },
      "tokenURI(uint256)": {
        "notice": "Get's the URI of the token."
      },
      "tokens(uint256,uint256)": {
        "notice": "Get set length list, starting from index, for all tokens."
      },
      "tokensOfOwner(address)": {
        "notice": "Get list of tokens owned by wallet."
      },
      "tokensOfOwner(address,uint256,uint256)": {
        "notice": "Get set length list, starting from index, for tokens owned by wallet."
      },
      "totalSupply()": {
        "notice": "Total amount of tokens in the collection."
      },
      "transfer(address,uint256)": {
        "notice": "Transfers `tokenId` token from `msg.sender` to `to`."
      },
      "transferFrom(address,address,uint256)": {
        "notice": "Transfers `tokenId` token from `from` to `to`."
      },
      "transferFrom(address,address,uint256,bytes)": {
        "notice": "Transfers `tokenId` token from `from` to `to`."
      }
    },
    "notice": "A smart contract for minting and managing Holograph Bridgeable ERC721 NFTs.",
    "version": 1
  },
  "storageLayout": {
    "storage": [
      {
        "astId": 9100,
        "contract": "contracts/enforcer/HolographERC721.sol:HolographERC721",
        "label": "_eventConfig",
        "offset": 0,
        "slot": "0",
        "type": "t_uint256"
      },
      {
        "astId": 9103,
        "contract": "contracts/enforcer/HolographERC721.sol:HolographERC721",
        "label": "_name",
        "offset": 0,
        "slot": "1",
        "type": "t_string_storage"
      },
      {
        "astId": 9106,
        "contract": "contracts/enforcer/HolographERC721.sol:HolographERC721",
        "label": "_symbol",
        "offset": 0,
        "slot": "2",
        "type": "t_string_storage"
      },
      {
        "astId": 9109,
        "contract": "contracts/enforcer/HolographERC721.sol:HolographERC721",
        "label": "_bps",
        "offset": 0,
        "slot": "3",
        "type": "t_uint16"
      },
      {
        "astId": 9113,
        "contract": "contracts/enforcer/HolographERC721.sol:HolographERC721",
        "label": "_allTokens",
        "offset": 0,
        "slot": "4",
        "type": "t_array(t_uint256)dyn_storage"
      },
      {
        "astId": 9118,
        "contract": "contracts/enforcer/HolographERC721.sol:HolographERC721",
        "label": "_ownedTokensIndex",
        "offset": 0,
        "slot": "5",
        "type": "t_mapping(t_uint256,t_uint256)"
      },
      {
        "astId": 9123,
        "contract": "contracts/enforcer/HolographERC721.sol:HolographERC721",
        "label": "_tokenOwner",
        "offset": 0,
        "slot": "6",
        "type": "t_mapping(t_uint256,t_address)"
      },
      {
        "astId": 9128,
        "contract": "contracts/enforcer/HolographERC721.sol:HolographERC721",
        "label": "_tokenApprovals",
        "offset": 0,
        "slot": "7",
        "type": "t_mapping(t_uint256,t_address)"
      },
      {
        "astId": 9133,
        "contract": "contracts/enforcer/HolographERC721.sol:HolographERC721",
        "label": "_ownedTokensCount",
        "offset": 0,
        "slot": "8",
        "type": "t_mapping(t_address,t_uint256)"
      },
      {
        "astId": 9139,
        "contract": "contracts/enforcer/HolographERC721.sol:HolographERC721",
        "label": "_ownedTokens",
        "offset": 0,
        "slot": "9",
        "type": "t_mapping(t_address,t_array(t_uint256)dyn_storage)"
      },
      {
        "astId": 9146,
        "contract": "contracts/enforcer/HolographERC721.sol:HolographERC721",
        "label": "_operatorApprovals",
        "offset": 0,
        "slot": "10",
        "type": "t_mapping(t_address,t_mapping(t_address,t_bool))"
      },
      {
        "astId": 9151,
        "contract": "contracts/enforcer/HolographERC721.sol:HolographERC721",
        "label": "_allTokensIndex",
        "offset": 0,
        "slot": "11",
        "type": "t_mapping(t_uint256,t_uint256)"
      },
      {
        "astId": 9156,
        "contract": "contracts/enforcer/HolographERC721.sol:HolographERC721",
        "label": "_burnedTokens",
        "offset": 0,
        "slot": "12",
        "type": "t_mapping(t_uint256,t_bool)"
      }
    ],
    "types": {
      "t_address": {
        "encoding": "inplace",
        "label": "address",
        "numberOfBytes": "20"
      },
      "t_array(t_uint256)dyn_storage": {
        "base": "t_uint256",
        "encoding": "dynamic_array",
        "label": "uint256[]",
        "numberOfBytes": "32"
      },
      "t_bool": {
        "encoding": "inplace",
        "label": "bool",
        "numberOfBytes": "1"
      },
      "t_mapping(t_address,t_array(t_uint256)dyn_storage)": {
        "encoding": "mapping",
        "key": "t_address",
        "label": "mapping(address => uint256[])",
        "numberOfBytes": "32",
        "value": "t_array(t_uint256)dyn_storage"
      },
      "t_mapping(t_address,t_bool)": {
        "encoding": "mapping",
        "key": "t_address",
        "label": "mapping(address => bool)",
        "numberOfBytes": "32",
        "value": "t_bool"
      },
      "t_mapping(t_address,t_mapping(t_address,t_bool))": {
        "encoding": "mapping",
        "key": "t_address",
        "label": "mapping(address => mapping(address => bool))",
        "numberOfBytes": "32",
        "value": "t_mapping(t_address,t_bool)"
      },
      "t_mapping(t_address,t_uint256)": {
        "encoding": "mapping",
        "key": "t_address",
        "label": "mapping(address => uint256)",
        "numberOfBytes": "32",
        "value": "t_uint256"
      },
      "t_mapping(t_uint256,t_address)": {
        "encoding": "mapping",
        "key": "t_uint256",
        "label": "mapping(uint256 => address)",
        "numberOfBytes": "32",
        "value": "t_address"
      },
      "t_mapping(t_uint256,t_bool)": {
        "encoding": "mapping",
        "key": "t_uint256",
        "label": "mapping(uint256 => bool)",
        "numberOfBytes": "32",
        "value": "t_bool"
      },
      "t_mapping(t_uint256,t_uint256)": {
        "encoding": "mapping",
        "key": "t_uint256",
        "label": "mapping(uint256 => uint256)",
        "numberOfBytes": "32",
        "value": "t_uint256"
      },
      "t_string_storage": {
        "encoding": "bytes",
        "label": "string",
        "numberOfBytes": "32"
      },
      "t_uint16": {
        "encoding": "inplace",
        "label": "uint16",
        "numberOfBytes": "2"
      },
      "t_uint256": {
        "encoding": "inplace",
        "label": "uint256",
        "numberOfBytes": "32"
      }
    }
  }
}