{
  "address": "0x077ABF6d02a1D4dD15FD947B10E9deb13eb0c89d",
  "abi": [
    {
      "inputs": [],
      "stateMutability": "nonpayable",
      "type": "constructor"
    },
    {
      "anonymous": false,
      "inputs": [
        {
          "indexed": true,
          "internalType": "address",
          "name": "from",
          "type": "address"
        },
        {
          "indexed": false,
          "internalType": "uint256",
          "name": "amount",
          "type": "uint256"
        }
      ],
      "name": "Deposit",
      "type": "event"
    },
    {
      "anonymous": false,
      "inputs": [
        {
          "indexed": true,
          "internalType": "address",
          "name": "source",
          "type": "address"
        },
        {
          "indexed": false,
          "internalType": "uint256",
          "name": "amount",
          "type": "uint256"
        }
      ],
      "name": "FundsReceived",
      "type": "event"
    },
    {
      "anonymous": false,
      "inputs": [
        {
          "indexed": true,
          "internalType": "address",
          "name": "token",
          "type": "address"
        },
        {
          "indexed": true,
          "internalType": "address",
          "name": "from",
          "type": "address"
        },
        {
          "indexed": false,
          "internalType": "uint256",
          "name": "amount",
          "type": "uint256"
        }
      ],
      "name": "TokenDeposit",
      "type": "event"
    },
    {
      "anonymous": false,
      "inputs": [
        {
          "indexed": true,
          "internalType": "address",
          "name": "token",
          "type": "address"
        },
        {
          "indexed": true,
          "internalType": "address",
          "name": "to",
          "type": "address"
        },
        {
          "indexed": false,
          "internalType": "uint256",
          "name": "amount",
          "type": "uint256"
        }
      ],
      "name": "TokenWithdrawal",
      "type": "event"
    },
    {
      "anonymous": false,
      "inputs": [
        {
          "indexed": true,
          "internalType": "address",
          "name": "to",
          "type": "address"
        },
        {
          "indexed": false,
          "internalType": "uint256",
          "name": "amount",
          "type": "uint256"
        }
      ],
      "name": "Withdrawal",
      "type": "event"
    },
    {
      "stateMutability": "payable",
      "type": "fallback"
    },
    {
      "inputs": [
        {
          "internalType": "address payable",
          "name": "recipient",
          "type": "address"
        },
        {
          "internalType": "uint256",
          "name": "amount",
          "type": "uint256"
        }
      ],
      "name": "extractNativeToken",
      "outputs": [],
      "stateMutability": "nonpayable",
      "type": "function"
    },
    {
      "inputs": [
        {
          "internalType": "address",
          "name": "recipient",
          "type": "address"
        }
      ],
      "name": "holographNativeToken",
      "outputs": [],
      "stateMutability": "payable",
      "type": "function"
    },
    {
      "inputs": [
        {
          "internalType": "bytes",
          "name": "initPayload",
          "type": "bytes"
        }
      ],
      "name": "init",
      "outputs": [
        {
          "internalType": "bytes4",
          "name": "",
          "type": "bytes4"
        }
      ],
      "stateMutability": "nonpayable",
      "type": "function"
    },
    {
      "inputs": [
        {
          "internalType": "address",
          "name": "wallet",
          "type": "address"
        }
      ],
      "name": "isOwner",
      "outputs": [
        {
          "internalType": "bool",
          "name": "",
          "type": "bool"
        }
      ],
      "stateMutability": "view",
      "type": "function"
    },
    {
      "inputs": [],
      "name": "isOwner",
      "outputs": [
        {
          "internalType": "bool",
          "name": "",
          "type": "bool"
        }
      ],
      "stateMutability": "view",
      "type": "function"
    },
    {
      "inputs": [
        {
          "internalType": "uint256",
          "name": "chain",
          "type": "uint256"
        }
      ],
      "name": "isSupportedChain",
      "outputs": [
        {
          "internalType": "bool",
          "name": "",
          "type": "bool"
        }
      ],
      "stateMutability": "view",
      "type": "function"
    },
    {
      "inputs": [
        {
          "internalType": "address",
          "name": "token",
          "type": "address"
        }
      ],
      "name": "isSupportedWrapper",
      "outputs": [
        {
          "internalType": "bool",
          "name": "",
          "type": "bool"
        }
      ],
      "stateMutability": "view",
      "type": "function"
    },
    {
      "inputs": [],
      "name": "owner",
      "outputs": [
        {
          "internalType": "address",
          "name": "",
          "type": "address"
        }
      ],
      "stateMutability": "view",
      "type": "function"
    },
    {
      "inputs": [
        {
          "internalType": "bytes4",
          "name": "",
          "type": "bytes4"
        }
      ],
      "name": "supportsInterface",
      "outputs": [
        {
          "internalType": "bool",
          "name": "",
          "type": "bool"
        }
      ],
      "stateMutability": "pure",
      "type": "function"
    },
    {
      "inputs": [
        {
          "internalType": "uint256",
          "name": "chain",
          "type": "uint256"
        },
        {
          "internalType": "bool",
          "name": "supported",
          "type": "bool"
        }
      ],
      "name": "updateSupportedChain",
      "outputs": [],
      "stateMutability": "nonpayable",
      "type": "function"
    },
    {
      "inputs": [
        {
          "internalType": "address",
          "name": "token",
          "type": "address"
        },
        {
          "internalType": "bool",
          "name": "supported",
          "type": "bool"
        }
      ],
      "name": "updateSupportedWrapper",
      "outputs": [],
      "stateMutability": "nonpayable",
      "type": "function"
    },
    {
      "inputs": [],
      "name": "withdraw",
      "outputs": [],
      "stateMutability": "nonpayable",
      "type": "function"
    },
    {
      "stateMutability": "payable",
      "type": "receive"
    }
  ],
  "transactionHash": "0xd0364e3a4d49c40b0e964afb71ed1bcf5f20998214f497323c8aa60f99758e34",
  "args": [],
  "numDeployments": 1,
  "solcInputHash": "7a782ebaa2b0856c6deb8c80495410db",
  "bytecode": "0x608060405234801561001057600080fd5b506115f4806100206000396000f3fe6080604052600436106100cb5760003560e01c806377974486116100745780638f32d59b1161004e5780638f32d59b146102e05780639ecd7d4c146102f5578063c60161a41461031557610129565b806377974486146102735780637f4d680b146102865780638da5cb5b146102a657610129565b80634ddf47d4116100a55780634ddf47d4146101d25780635153d467146102235780635284d9cd1461025357610129565b806301ffc9a7146101675780632f54bf6e1461019d5780633ccfd60b146101bd57610129565b36610129576100d861035b565b73ffffffffffffffffffffffffffffffffffffffff167f8e47b87b0ef542cdfa1659c551d88bad38aa7f452d2bbb349ab7530dfec8be8f3460405161011f91815260200190565b60405180910390a2005b337fe9fcff60011c1a99f7b7244d1f2d9da93d79ea8ef3654ce590d775575255b2bd54146001811461015a57600080fd5b600160805260206080f35b005b34801561017357600080fd5b5061018861018236600461127a565b50600090565b60405190151581526020015b60405180910390f35b3480156101a957600080fd5b506101886101b83660046112e5565b6103b9565b3480156101c957600080fd5b50610165610418565b3480156101de57600080fd5b506101f26101ed366004611331565b610542565b6040517fffffffff000000000000000000000000000000000000000000000000000000009091168152602001610194565b34801561022f57600080fd5b5061018861023e366004611400565b60009081526002602052604090205460ff1690565b34801561025f57600080fd5b5061016561026e366004611419565b6105e9565b6101656102813660046112e5565b610bbf565b34801561029257600080fd5b506101656102a136600461145a565b610e32565b3480156102b257600080fd5b506102bb610f45565b60405173ffffffffffffffffffffffffffffffffffffffff9091168152602001610194565b3480156102ec57600080fd5b50610188610f74565b34801561030157600080fd5b5061016561031036600461148f565b610fd8565b34801561032157600080fd5b506101886103303660046112e5565b73ffffffffffffffffffffffffffffffffffffffff1660009081526001602052604090205460ff1690565b60007fe9fcff60011c1a99f7b7244d1f2d9da93d79ea8ef3654ce590d775575255b2bd543314600081146103b25750507fffffffffffffffffffffffffffffffffffffffffffffffffffffffffffffffe036013590565b3391505090565b60006103e37fb56711ba6bd3ded7639fc335ee7524fe668a79d7558c85992e3f8494cf7727775490565b73ffffffffffffffffffffffffffffffffffffffff168273ffffffffffffffffffffffffffffffffffffffff16149050919050565b7fb56711ba6bd3ded7639fc335ee7524fe668a79d7558c85992e3f8494cf7727775473ffffffffffffffffffffffffffffffffffffffff1661045861035b565b73ffffffffffffffffffffffffffffffffffffffff16146104da576040517f08c379a000000000000000000000000000000000000000000000000000000000815260206004820152601a60248201527f45524332303a206f776e6572206f6e6c792066756e6374696f6e00000000000060448201526064015b60405180910390fd5b7fb56711ba6bd3ded7639fc335ee7524fe668a79d7558c85992e3f8494cf7727775460405173ffffffffffffffffffffffffffffffffffffffff909116904780156108fc02916000818181858888f1935050505015801561053f573d6000803e3d6000fd5b50565b60008060008380602001905181019061055b91906114b2565b91509150817f3f106594dc74eeef980dae234cde8324dc2497b13d27a0c59e55bd2ca10a07c9556105aa827fb56711ba6bd3ded7639fc335ee7524fe668a79d7558c85992e3f8494cf77277755565b600080547fffffffffffffffffffffffffffffffffffffffffffffffffffffffffffff00001661ffff83161790556105e1846110d3565b949350505050565b4660009081526002602052604090205460ff16610662576040517f08c379a000000000000000000000000000000000000000000000000000000000815260206004820152601960248201527f68546f6b656e3a20756e737570706f7274656420636861696e0000000000000060448201526064016104d1565b600061066c61035b565b9050816106977fe9fcff60011c1a99f7b7244d1f2d9da93d79ea8ef3654ce590d775575255b2bd5490565b6040517f70a0823100000000000000000000000000000000000000000000000000000000815273ffffffffffffffffffffffffffffffffffffffff848116600483015291909116906370a0823190602401602060405180830381865afa158015610705573d6000803e3d6000fd5b505050506040513d601f19601f8201168201806040525081019061072991906114f3565b1015610791576040517f08c379a000000000000000000000000000000000000000000000000000000000815260206004820152601c60248201527f68546f6b656e3a206e6f7420656e6f7567682068546f6b656e2873290000000060448201526064016104d1565b816107ba7fe9fcff60011c1a99f7b7244d1f2d9da93d79ea8ef3654ce590d775575255b2bd5490565b73ffffffffffffffffffffffffffffffffffffffff16311015610839576040517f08c379a000000000000000000000000000000000000000000000000000000000815260206004820181905260248201527f68546f6b656e3a206e6f7420656e6f756768206e617469766520746f6b656e7360448201526064016104d1565b7fe9fcff60011c1a99f7b7244d1f2d9da93d79ea8ef3654ce590d775575255b2bd546040517f0d5e2c1d00000000000000000000000000000000000000000000000000000000815273ffffffffffffffffffffffffffffffffffffffff8381166004830152602482018590529190911690630d5e2c1d90604401600060405180830381600087803b1580156108cd57600080fd5b505af11580156108e1573d6000803e3d6000fd5b50506000805490925061ffff161590506109175760005461ffff166109086127108561153b565b6109129190611576565b61091a565b60005b90508015610aab577fe9fcff60011c1a99f7b7244d1f2d9da93d79ea8ef3654ce590d775575255b2bd5473ffffffffffffffffffffffffffffffffffffffff16634827ae0c6040518163ffffffff1660e01b8152600401602060405180830381865afa15801561098e573d6000803e3d6000fd5b505050506040513d601f19601f820116820180604052508101906109b291906115b3565b73ffffffffffffffffffffffffffffffffffffffff16633b19e84a6040518163ffffffff1660e01b8152600401602060405180830381865afa1580156109fc573d6000803e3d6000fd5b505050506040513d601f19601f82011682018060405250810190610a2091906115b3565b6040517fc5655fce00000000000000000000000000000000000000000000000000000000815273ffffffffffffffffffffffffffffffffffffffff868116600483015260248201849052919091169063c5655fce90604401600060405180830381600087803b158015610a9257600080fd5b505af1158015610aa6573d6000803e3d6000fd5b505050505b610ab581846115d0565b9250610adf7fe9fcff60011c1a99f7b7244d1f2d9da93d79ea8ef3654ce590d775575255b2bd5490565b6040517fc5655fce00000000000000000000000000000000000000000000000000000000815273ffffffffffffffffffffffffffffffffffffffff868116600483015260248201869052919091169063c5655fce90604401600060405180830381600087803b158015610b5157600080fd5b505af1158015610b65573d6000803e3d6000fd5b505050508373ffffffffffffffffffffffffffffffffffffffff167f7fcf532c15f0a6db0bd6d0e038bea71d30d808c7d98cb3bf7268a95bf5081b6584604051610bb191815260200190565b60405180910390a250505050565b4660009081526002602052604090205460ff16610c38576040517f08c379a000000000000000000000000000000000000000000000000000000000815260206004820152601960248201527f68546f6b656e3a20756e737570706f7274656420636861696e0000000000000060448201526064016104d1565b60003411610ca2576040517f08c379a000000000000000000000000000000000000000000000000000000000815260206004820152601960248201527f68546f6b656e3a206e6f2076616c75652072656365697665640000000000000060448201526064016104d1565b6000610cac61035b565b905073ffffffffffffffffffffffffffffffffffffffff8216610ccd578091505b7fe9fcff60011c1a99f7b7244d1f2d9da93d79ea8ef3654ce590d775575255b2bd5460405173ffffffffffffffffffffffffffffffffffffffff909116903480156108fc02916000818181858888f19350505050158015610d32573d6000803e3d6000fd5b507fe9fcff60011c1a99f7b7244d1f2d9da93d79ea8ef3654ce590d775575255b2bd546040517f66bd3d4500000000000000000000000000000000000000000000000000000000815273ffffffffffffffffffffffffffffffffffffffff848116600483015234602483015291909116906366bd3d4590604401600060405180830381600087803b158015610dc657600080fd5b505af1158015610dda573d6000803e3d6000fd5b505050508073ffffffffffffffffffffffffffffffffffffffff167fe1fffcc4923d04b559f4d29a8bfc6cda04eb5b0d3c460751c2402c5c5cc9109c34604051610e2691815260200190565b60405180910390a25050565b7fb56711ba6bd3ded7639fc335ee7524fe668a79d7558c85992e3f8494cf7727775473ffffffffffffffffffffffffffffffffffffffff16610e7261035b565b73ffffffffffffffffffffffffffffffffffffffff1614610eef576040517f08c379a000000000000000000000000000000000000000000000000000000000815260206004820152601a60248201527f45524332303a206f776e6572206f6e6c792066756e6374696f6e00000000000060448201526064016104d1565b73ffffffffffffffffffffffffffffffffffffffff91909116600090815260016020526040902080547fffffffffffffffffffffffffffffffffffffffffffffffffffffffffffffff0016911515919091179055565b6000610f6f7fb56711ba6bd3ded7639fc335ee7524fe668a79d7558c85992e3f8494cf7727775490565b905090565b6000610f9e7fb56711ba6bd3ded7639fc335ee7524fe668a79d7558c85992e3f8494cf7727775490565b73ffffffffffffffffffffffffffffffffffffffff16610fbc61035b565b73ffffffffffffffffffffffffffffffffffffffff1614905090565b7fb56711ba6bd3ded7639fc335ee7524fe668a79d7558c85992e3f8494cf7727775473ffffffffffffffffffffffffffffffffffffffff1661101861035b565b73ffffffffffffffffffffffffffffffffffffffff1614611095576040517f08c379a000000000000000000000000000000000000000000000000000000000815260206004820152601a60248201527f45524332303a206f776e6572206f6e6c792066756e6374696f6e00000000000060448201526064016104d1565b60009182526002602052604090912080547fffffffffffffffffffffffffffffffffffffffffffffffffffffffffffffff0016911515919091179055565b60006110fd7f4e5f991bca30eca2d4643aaefa807e88f96a4a97398933d572a3c0d973004a015490565b15611164576040517f08c379a000000000000000000000000000000000000000000000000000000000815260206004820152601a60248201527f45524332303a20616c726561647920696e697469616c697a656400000000000060448201526064016104d1565b337fe9fcff60011c1a99f7b7244d1f2d9da93d79ea8ef3654ce590d775575255b2bd8190557fb56711ba6bd3ded7639fc335ee7524fe668a79d7558c85992e3f8494cf7727775473ffffffffffffffffffffffffffffffffffffffff8116611228576040517f08c379a000000000000000000000000000000000000000000000000000000000815260206004820152601860248201527f484f4c4f47524150483a206f776e6572206e6f7420736574000000000000000060448201526064016104d1565b61125160017f4e5f991bca30eca2d4643aaefa807e88f96a4a97398933d572a3c0d973004a0155565b507f4ddf47d4000000000000000000000000000000000000000000000000000000009392505050565b60006020828403121561128c57600080fd5b81357fffffffff00000000000000000000000000000000000000000000000000000000811681146112bc57600080fd5b9392505050565b73ffffffffffffffffffffffffffffffffffffffff8116811461053f57600080fd5b6000602082840312156112f757600080fd5b81356112bc816112c3565b7f4e487b7100000000000000000000000000000000000000000000000000000000600052604160045260246000fd5b60006020828403121561134357600080fd5b813567ffffffffffffffff8082111561135b57600080fd5b818401915084601f83011261136f57600080fd5b81358181111561138157611381611302565b604051601f82017fffffffffffffffffffffffffffffffffffffffffffffffffffffffffffffffe0908116603f011681019083821181831017156113c7576113c7611302565b816040528281528760208487010111156113e057600080fd5b826020860160208301376000928101602001929092525095945050505050565b60006020828403121561141257600080fd5b5035919050565b6000806040838503121561142c57600080fd5b8235611437816112c3565b946020939093013593505050565b8035801515811461145557600080fd5b919050565b6000806040838503121561146d57600080fd5b8235611478816112c3565b915061148660208401611445565b90509250929050565b600080604083850312156114a257600080fd5b8235915061148660208401611445565b600080604083850312156114c557600080fd5b82516114d0816112c3565b602084015190925061ffff811681146114e857600080fd5b809150509250929050565b60006020828403121561150557600080fd5b5051919050565b7f4e487b7100000000000000000000000000000000000000000000000000000000600052601160045260246000fd5b600082611571577f4e487b7100000000000000000000000000000000000000000000000000000000600052601260045260246000fd5b500490565b6000817fffffffffffffffffffffffffffffffffffffffffffffffffffffffffffffffff04831182151516156115ae576115ae61150c565b500290565b6000602082840312156115c557600080fd5b81516112bc816112c3565b6000828210156115e2576115e261150c565b50039056fea164736f6c634300080d000a",
  "devdoc": {
    "author": "Holograph Foundation",
    "details": "The entire logic and functionality of the smart contract is self-contained.",
    "events": {
      "Deposit(address,uint256)": {
        "details": "Event that is triggered when native token is converted into hToken."
      },
      "TokenDeposit(address,address,uint256)": {
        "details": "Event that is triggered when ERC20 token is converted into hToken."
      },
      "TokenWithdrawal(address,address,uint256)": {
        "details": "Event that is triggered when hToken is converted into ERC20 token."
      },
      "Withdrawal(address,uint256)": {
        "details": "Event that is triggered when hToken is converted into native token."
      }
    },
    "kind": "dev",
    "methods": {
      "constructor": {
        "details": "Constructor is left empty and init is used instead"
      },
      "extractNativeToken(address,uint256)": {
        "details": "Send hToken, get back native token value equivalent.",
        "params": {
          "recipient": "Address of where to send the native token(s) to."
        }
      },
      "holographNativeToken(address)": {
        "details": "Send native token value, get back hToken equivalent.",
        "params": {
          "recipient": "Address of where to send the hToken(s) to."
        }
      },
      "init(bytes)": {
        "details": "This function is called by the deployer/factory when creating a contract",
        "params": {
          "initPayload": "abi encoded payload to use for contract initilaization"
        }
      },
      "owner()": {
        "details": "Address of initial creator/owner of the token contract."
      }
    },
    "stateVariables": {
      "_feeBp": {
        "details": "Sample fee for unwrapping."
      },
      "_supportedChains": {
        "details": "List of supported chains."
      },
      "_supportedWrappers": {
        "details": "List of supported Wrapped Tokens (equivalent), on current-chain."
      }
    },
    "title": "Holograph token (aka hToken), used to wrap and bridge native tokens across blockchains.",
    "version": 1
  },
  "userdoc": {
    "kind": "user",
    "methods": {
      "init(bytes)": {
        "notice": "Used internally to initialize the contract instead of through a constructor"
      }
    },
    "notice": "A smart contract for minting and managing Holograph's Bridgeable ERC20 Tokens.",
    "version": 1
  },
  "storageLayout": {
    "storage": [
      {
        "astId": 35001,
        "contract": "contracts/token/hToken.sol:hToken",
        "label": "_feeBp",
        "offset": 0,
        "slot": "0",
        "type": "t_uint16"
      },
      {
        "astId": 35006,
        "contract": "contracts/token/hToken.sol:hToken",
        "label": "_supportedWrappers",
        "offset": 0,
        "slot": "1",
        "type": "t_mapping(t_address,t_bool)"
      },
      {
        "astId": 35011,
        "contract": "contracts/token/hToken.sol:hToken",
        "label": "_supportedChains",
        "offset": 0,
        "slot": "2",
        "type": "t_mapping(t_uint256,t_bool)"
      }
    ],
    "types": {
      "t_address": {
        "encoding": "inplace",
        "label": "address",
        "numberOfBytes": "20"
      },
      "t_bool": {
        "encoding": "inplace",
        "label": "bool",
        "numberOfBytes": "1"
      },
      "t_mapping(t_address,t_bool)": {
        "encoding": "mapping",
        "key": "t_address",
        "label": "mapping(address => bool)",
        "numberOfBytes": "32",
        "value": "t_bool"
      },
      "t_mapping(t_uint256,t_bool)": {
        "encoding": "mapping",
        "key": "t_uint256",
        "label": "mapping(uint256 => bool)",
        "numberOfBytes": "32",
        "value": "t_bool"
      },
      "t_uint16": {
        "encoding": "inplace",
        "label": "uint16",
        "numberOfBytes": "2"
      },
      "t_uint256": {
        "encoding": "inplace",
        "label": "uint256",
        "numberOfBytes": "32"
      }
    }
  }
}