{
  "address": "0xFB3A696421dDA8d13FD0cdDaF0DAdd891164d684",
  "abi": [
    {
      "inputs": [],
      "stateMutability": "nonpayable",
      "type": "constructor"
    },
    {
      "stateMutability": "payable",
      "type": "fallback"
    },
    {
      "inputs": [],
      "name": "admin",
      "outputs": [
        {
          "internalType": "address",
          "name": "",
          "type": "address"
        }
      ],
      "stateMutability": "view",
      "type": "function"
    },
    {
      "inputs": [
        {
          "internalType": "address",
          "name": "target",
          "type": "address"
        },
        {
          "internalType": "bytes",
          "name": "data",
          "type": "bytes"
        }
      ],
      "name": "adminCall",
      "outputs": [],
      "stateMutability": "payable",
      "type": "function"
    },
    {
      "inputs": [],
      "name": "getAdmin",
      "outputs": [
        {
          "internalType": "address",
          "name": "adminAddress",
          "type": "address"
        }
      ],
      "stateMutability": "view",
      "type": "function"
    },
    {
      "inputs": [],
      "name": "getBridge",
      "outputs": [
        {
          "internalType": "address",
          "name": "bridge",
          "type": "address"
        }
      ],
      "stateMutability": "view",
      "type": "function"
    },
    {
      "inputs": [
        {
          "internalType": "uint32",
          "name": "chainId",
          "type": "uint32"
        }
      ],
      "name": "getGasParameters",
      "outputs": [
        {
          "components": [
            {
              "internalType": "uint256",
              "name": "msgBaseGas",
              "type": "uint256"
            },
            {
              "internalType": "uint256",
              "name": "msgGasPerByte",
              "type": "uint256"
            },
            {
              "internalType": "uint256",
              "name": "jobBaseGas",
              "type": "uint256"
            },
            {
              "internalType": "uint256",
              "name": "jobGasPerByte",
              "type": "uint256"
            },
            {
              "internalType": "uint256",
              "name": "minGasPrice",
              "type": "uint256"
            },
            {
              "internalType": "uint256",
              "name": "maxGasLimit",
              "type": "uint256"
            }
          ],
          "internalType": "struct GasParameters",
          "name": "gasParameters",
          "type": "tuple"
        }
      ],
      "stateMutability": "view",
      "type": "function"
    },
    {
      "inputs": [
        {
          "internalType": "uint32",
          "name": "toChain",
          "type": "uint32"
        },
        {
          "internalType": "uint256",
          "name": "gasLimit",
          "type": "uint256"
        },
        {
          "internalType": "uint256",
          "name": "gasPrice",
          "type": "uint256"
        },
        {
          "internalType": "uint256",
          "name": "payloadLength",
          "type": "uint256"
        }
      ],
      "name": "getHlgFee",
      "outputs": [
        {
          "internalType": "uint256",
          "name": "hlgFee",
          "type": "uint256"
        }
      ],
      "stateMutability": "view",
      "type": "function"
    },
    {
      "inputs": [],
      "name": "getInterfaces",
      "outputs": [
        {
          "internalType": "address",
          "name": "interfaces",
          "type": "address"
        }
      ],
      "stateMutability": "view",
      "type": "function"
    },
    {
      "inputs": [],
      "name": "getLZEndpoint",
      "outputs": [
        {
          "internalType": "address",
          "name": "lZEndpoint",
          "type": "address"
        }
      ],
      "stateMutability": "view",
      "type": "function"
    },
    {
      "inputs": [
        {
          "internalType": "uint32",
          "name": "toChain",
          "type": "uint32"
        },
        {
          "internalType": "uint256",
          "name": "gasLimit",
          "type": "uint256"
        },
        {
          "internalType": "uint256",
          "name": "gasPrice",
          "type": "uint256"
        },
        {
          "internalType": "bytes",
          "name": "crossChainPayload",
          "type": "bytes"
        }
      ],
      "name": "getMessageFee",
      "outputs": [
        {
          "internalType": "uint256",
          "name": "hlgFee",
          "type": "uint256"
        },
        {
          "internalType": "uint256",
          "name": "msgFee",
          "type": "uint256"
        },
        {
          "internalType": "uint256",
          "name": "dstGasPrice",
          "type": "uint256"
        }
      ],
      "stateMutability": "view",
      "type": "function"
    },
    {
      "inputs": [],
      "name": "getOperator",
      "outputs": [
        {
          "internalType": "address",
          "name": "operator",
          "type": "address"
        }
      ],
      "stateMutability": "view",
      "type": "function"
    },
    {
      "inputs": [
        {
          "internalType": "bytes",
          "name": "initPayload",
          "type": "bytes"
        }
      ],
      "name": "init",
      "outputs": [
        {
          "internalType": "bytes4",
          "name": "",
          "type": "bytes4"
        }
      ],
      "stateMutability": "nonpayable",
      "type": "function"
    },
    {
      "inputs": [
        {
          "internalType": "uint16",
          "name": "",
          "type": "uint16"
        },
        {
          "internalType": "bytes",
          "name": "_srcAddress",
          "type": "bytes"
        },
        {
          "internalType": "uint64",
          "name": "",
          "type": "uint64"
        },
        {
          "internalType": "bytes",
          "name": "_payload",
          "type": "bytes"
        }
      ],
      "name": "lzReceive",
      "outputs": [],
      "stateMutability": "payable",
      "type": "function"
    },
    {
      "inputs": [
        {
          "internalType": "uint256",
          "name": "",
          "type": "uint256"
        },
        {
          "internalType": "uint256",
          "name": "",
          "type": "uint256"
        },
        {
          "internalType": "uint32",
          "name": "toChain",
          "type": "uint32"
        },
        {
          "internalType": "address",
          "name": "msgSender",
          "type": "address"
        },
        {
          "internalType": "uint256",
          "name": "msgValue",
          "type": "uint256"
        },
        {
          "internalType": "bytes",
          "name": "crossChainPayload",
          "type": "bytes"
        }
      ],
      "name": "send",
      "outputs": [],
      "stateMutability": "payable",
      "type": "function"
    },
    {
      "inputs": [
        {
          "internalType": "address",
          "name": "adminAddress",
          "type": "address"
        }
      ],
      "name": "setAdmin",
      "outputs": [],
      "stateMutability": "nonpayable",
      "type": "function"
    },
    {
      "inputs": [
        {
          "internalType": "address",
          "name": "bridge",
          "type": "address"
        }
      ],
      "name": "setBridge",
      "outputs": [],
      "stateMutability": "nonpayable",
      "type": "function"
    },
    {
      "inputs": [
        {
          "internalType": "uint32[]",
          "name": "chainIds",
          "type": "uint32[]"
        },
        {
          "components": [
            {
              "internalType": "uint256",
              "name": "msgBaseGas",
              "type": "uint256"
            },
            {
              "internalType": "uint256",
              "name": "msgGasPerByte",
              "type": "uint256"
            },
            {
              "internalType": "uint256",
              "name": "jobBaseGas",
              "type": "uint256"
            },
            {
              "internalType": "uint256",
              "name": "jobGasPerByte",
              "type": "uint256"
            },
            {
              "internalType": "uint256",
              "name": "minGasPrice",
              "type": "uint256"
            },
            {
              "internalType": "uint256",
              "name": "maxGasLimit",
              "type": "uint256"
            }
          ],
          "internalType": "struct GasParameters[]",
          "name": "gasParameters",
          "type": "tuple[]"
        }
      ],
      "name": "setGasParameters",
      "outputs": [],
      "stateMutability": "nonpayable",
      "type": "function"
    },
    {
      "inputs": [
        {
          "internalType": "uint32",
          "name": "chainId",
          "type": "uint32"
        },
        {
          "components": [
            {
              "internalType": "uint256",
              "name": "msgBaseGas",
              "type": "uint256"
            },
            {
              "internalType": "uint256",
              "name": "msgGasPerByte",
              "type": "uint256"
            },
            {
              "internalType": "uint256",
              "name": "jobBaseGas",
              "type": "uint256"
            },
            {
              "internalType": "uint256",
              "name": "jobGasPerByte",
              "type": "uint256"
            },
            {
              "internalType": "uint256",
              "name": "minGasPrice",
              "type": "uint256"
            },
            {
              "internalType": "uint256",
              "name": "maxGasLimit",
              "type": "uint256"
            }
          ],
          "internalType": "struct GasParameters",
          "name": "gasParameters",
          "type": "tuple"
        }
      ],
      "name": "setGasParameters",
      "outputs": [],
      "stateMutability": "nonpayable",
      "type": "function"
    },
    {
      "inputs": [
        {
          "internalType": "address",
          "name": "interfaces",
          "type": "address"
        }
      ],
      "name": "setInterfaces",
      "outputs": [],
      "stateMutability": "nonpayable",
      "type": "function"
    },
    {
      "inputs": [
        {
          "internalType": "address",
          "name": "lZEndpoint",
          "type": "address"
        }
      ],
      "name": "setLZEndpoint",
      "outputs": [],
      "stateMutability": "nonpayable",
      "type": "function"
    },
    {
      "inputs": [
        {
          "internalType": "address",
          "name": "operator",
          "type": "address"
        }
      ],
      "name": "setOperator",
      "outputs": [],
      "stateMutability": "nonpayable",
      "type": "function"
    },
    {
      "stateMutability": "payable",
      "type": "receive"
    }
  ],
  "transactionHash": "0x7a8b1f8024037fa7031da9d76b63dc7751a8a0f1171bae275c1e6d84f6d34b26",
  "args": [],
  "numDeployments": 2,
  "solcInputHash": "8a3e7c0b8a48991c4a15cecfd042fb05",
  "bytecode": "0x608060405234801561001057600080fd5b506129e9806100206000396000f3fe6080604052600436106101625760003560e01c8063704b6c02116100c0578063da8292d911610074578063ebac15f911610059578063ebac15f91461046d578063f851a440146104a1578063ff1370d9146104b657600080fd5b8063da8292d914610419578063e7f43c681461043957600080fd5b8063960a4270116100a5578063960a4270146103c6578063b3ab15fb146103e6578063bf64a82d1461040657600080fd5b8063704b6c02146103865780638dd14802146103a657600080fd5b806336c5ab40116101175780634ddf47d4116100fc5780634ddf47d4146102955780636e9960c3146102e65780636ec7fad71461031a57600080fd5b806336c5ab40146102415780634b40f1bf1461027557600080fd5b80630e95b650116101485780630e95b650146101995780630fffbaf3146101b957806328ee41a51461021357600080fd5b80621d3567146101715780630a0542ef1461018657600080fd5b3661016c57600080fd5b600080fd5b61018461017f366004611d83565b6104f1565b005b610184610194366004611e4e565b6106c7565b3480156101a557600080fd5b506101846101b436600461206c565b61098d565b3480156101c557600080fd5b507feb87cbb21687feb327e3d58c6c16d552231d12c7a0e8115042a4165fac8a77f9545b60405173ffffffffffffffffffffffffffffffffffffffff90911681526020015b60405180910390f35b34801561021f57600080fd5b5061023361022e36600461212e565b610b0d565b60405190815260200161020a565b34801561024d57600080fd5b507f56825e447adf54cdde5f04815fcf9b1dd26ef9d5c053625147c18b7c13091686546101e9565b34801561028157600080fd5b50610184610290366004612169565b610d80565b3480156102a157600080fd5b506102b56102b036600461218d565b610e5a565b6040517fffffffff00000000000000000000000000000000000000000000000000000000909116815260200161020a565b3480156102f257600080fd5b507f3f106594dc74eeef980dae234cde8324dc2497b13d27a0c59e55bd2ca10a07c9546101e9565b34801561032657600080fd5b5061033a610335366004612240565b611091565b60405161020a9190600060c082019050825182526020830151602083015260408301516040830152606083015160608301526080830151608083015260a083015160a083015292915050565b34801561039257600080fd5b506101846103a1366004612169565b6110d9565b3480156103b257600080fd5b506101846103c1366004612169565b6111b3565b3480156103d257600080fd5b506101846103e136600461225d565b61128d565b3480156103f257600080fd5b50610184610401366004612169565b611351565b610184610414366004612293565b61142b565b34801561042557600080fd5b50610184610434366004612169565b61150d565b34801561044557600080fd5b507f7caba557ad34138fa3b7e43fb574e0e6cc10481c3073e0dffbc560db81b5c60f546101e9565b34801561047957600080fd5b507fbd3084b8c09da87ad159c247a60e209784196be2530cecbbd8f337fdd1848827546101e9565b3480156104ad57600080fd5b506101e96115e7565b3480156104c257600080fd5b506104d66104d13660046122e8565b611616565b6040805193845260208401929092529082015260600161020a565b7f56825e447adf54cdde5f04815fcf9b1dd26ef9d5c053625147c18b7c130916865433148061058b577f08c379a0000000000000000000000000000000000000000000000000000000006080527c200000000000000000000000000000000000000000000000000000000060a0527c1b484f4c4f47524150483a204c5a206f6e6c7920656e64706f696e740060c052600060e05260c46080fd5b506040518486600c830137805130148061062f577f08c379a0000000000000000000000000000000000000000000000000000000006080527c200000000000000000000000000000000000000000000000000000000060a0527c1e484f4c4f47524150483a20756e617574686f72697a65642073656e6460c0527f657200000000000000000000000000000000000000000000000000000000000060e05260c46080fd5b50507f7caba557ad34138fa3b7e43fb574e0e6cc10481c3073e0dffbc560db81b5c60f5473ffffffffffffffffffffffffffffffffffffffff1663254e106283836040518363ffffffff1660e01b815260040161068d92919061239b565b600060405180830381600087803b1580156106a757600080fd5b505af11580156106bb573d6000803e3d6000fd5b50505050505050505050565b7f7caba557ad34138fa3b7e43fb574e0e6cc10481c3073e0dffbc560db81b5c60f5473ffffffffffffffffffffffffffffffffffffffff163373ffffffffffffffffffffffffffffffffffffffff1614610782576040517f08c379a000000000000000000000000000000000000000000000000000000000815260206004820152601d60248201527f484f4c4f47524150483a206f70657261746f72206f6e6c792063616c6c00000060448201526064015b60405180910390fd5b7f56825e447adf54cdde5f04815fcf9b1dd26ef9d5c053625147c18b7c130916865460006107af876119d6565b90508173ffffffffffffffffffffffffffffffffffffffff1663c5803100866107f67fbd3084b8c09da87ad159c247a60e209784196be2530cecbbd8f337fdd18488275490565b73ffffffffffffffffffffffffffffffffffffffff166320fc06ea60028c63ffffffff1660036040518463ffffffff1660e01b815260040161083a939291906123ea565b602060405180830381865afa158015610857573d6000803e3d6000fd5b505050506040513d601f19601f8201168201806040525081019061087b919061240b565b6040517fffffffffffffffffffffffffffffffffffffffff0000000000000000000000003060601b1660208201819052603482015260480160405160208183030381529060405288888c3060018a602001518e8e90506108db9190612453565b8b516108e79190612490565b60405160f09290921b7fffff00000000000000000000000000000000000000000000000000000000000016602083015260228201526042016040516020818303038152906040526040518963ffffffff1660e01b81526004016109509796959493929190612513565b6000604051808303818588803b15801561096957600080fd5b505af115801561097d573d6000803e3d6000fd5b5050505050505050505050505050565b7f3f106594dc74eeef980dae234cde8324dc2497b13d27a0c59e55bd2ca10a07c95473ffffffffffffffffffffffffffffffffffffffff163373ffffffffffffffffffffffffffffffffffffffff1614610a43576040517f08c379a000000000000000000000000000000000000000000000000000000000815260206004820152601e60248201527f484f4c4f47524150483a2061646d696e206f6e6c792066756e6374696f6e00006044820152606401610779565b8051825114610aae576040517f08c379a000000000000000000000000000000000000000000000000000000000815260206004820152601e60248201527f484f4c4f47524150483a2077726f6e67206172726179206c656e6774687300006044820152606401610779565b60005b8251811015610b0857610af6838281518110610acf57610acf612589565b6020026020010151838381518110610ae957610ae9612589565b6020026020010151611ac0565b80610b00816125b8565b915050610ab1565b505050565b7f56825e447adf54cdde5f04815fcf9b1dd26ef9d5c053625147c18b7c130916865460009081610b5b7fbd3084b8c09da87ad159c247a60e209784196be2530cecbbd8f337fdd18488275490565b73ffffffffffffffffffffffffffffffffffffffff166320fc06ea60028963ffffffff1660036040518463ffffffff1660e01b8152600401610b9f939291906123ea565b602060405180830381865afa158015610bbc573d6000803e3d6000fd5b505050506040513d601f19601f82011682018060405250810190610be0919061240b565b9050600080610bef8484611b69565b9150915086600003610c1157806fffffffffffffffffffffffffffffffff1696505b6000610c1c8a6119d6565b905080608001518811610c8b576040517f08c379a000000000000000000000000000000000000000000000000000000000815260206004820152601c60248201527f484f4c4f47524150483a2067617320707269636520746f6f206c6f77000000006044820152606401610779565b6060810151610c9a9088612453565b6040820151610ca9908b612490565b610cb39190612490565b9850610cc0600a8a61261f565b610cca908a612490565b98508060a001518910610d39576040517f08c379a000000000000000000000000000000000000000000000000000000000815260206004820152601d60248201527f484f4c4f47524150483a20676173206c696d6974206f766572206d61780000006044820152606401610779565b6402540be4006fffffffffffffffffffffffffffffffff8416610d5c8b8b612453565b610d669190612453565b610d70919061261f565b955050505050505b949350505050565b7f3f106594dc74eeef980dae234cde8324dc2497b13d27a0c59e55bd2ca10a07c95473ffffffffffffffffffffffffffffffffffffffff163373ffffffffffffffffffffffffffffffffffffffff1614610e36576040517f08c379a000000000000000000000000000000000000000000000000000000000815260206004820152601e60248201527f484f4c4f47524150483a2061646d696e206f6e6c792066756e6374696f6e00006044820152606401610779565b7f56825e447adf54cdde5f04815fcf9b1dd26ef9d5c053625147c18b7c1309168655565b6000610e847f4e5f991bca30eca2d4643aaefa807e88f96a4a97398933d572a3c0d973004a015490565b15610eeb576040517f08c379a000000000000000000000000000000000000000000000000000000000815260206004820152601e60248201527f484f4c4f47524150483a20616c726561647920696e697469616c697a656400006044820152606401610779565b600080600080600086806020019051810190610f0791906126d8565b94509450945094509450327f3f106594dc74eeef980dae234cde8324dc2497b13d27a0c59e55bd2ca10a07c955847feb87cbb21687feb327e3d58c6c16d552231d12c7a0e8115042a4165fac8a77f955837fbd3084b8c09da87ad159c247a60e209784196be2530cecbbd8f337fdd184882755827f7caba557ad34138fa3b7e43fb574e0e6cc10481c3073e0dffbc560db81b5c60f558051825114611008576040517f08c379a000000000000000000000000000000000000000000000000000000000815260206004820152601e60248201527f484f4c4f47524150483a2077726f6e67206172726179206c656e6774687300006044820152606401610779565b60005b825181101561103b57611029838281518110610acf57610acf612589565b80611033816125b8565b91505061100b565b5061106560017f4e5f991bca30eca2d4643aaefa807e88f96a4a97398933d572a3c0d973004a0155565b507f4ddf47d4000000000000000000000000000000000000000000000000000000009695505050505050565b6110ca6040518060c001604052806000815260200160008152602001600081526020016000815260200160008152602001600081525090565b6110d3826119d6565b92915050565b7f3f106594dc74eeef980dae234cde8324dc2497b13d27a0c59e55bd2ca10a07c95473ffffffffffffffffffffffffffffffffffffffff163373ffffffffffffffffffffffffffffffffffffffff161461118f576040517f08c379a000000000000000000000000000000000000000000000000000000000815260206004820152601e60248201527f484f4c4f47524150483a2061646d696e206f6e6c792066756e6374696f6e00006044820152606401610779565b7f3f106594dc74eeef980dae234cde8324dc2497b13d27a0c59e55bd2ca10a07c955565b7f3f106594dc74eeef980dae234cde8324dc2497b13d27a0c59e55bd2ca10a07c95473ffffffffffffffffffffffffffffffffffffffff163373ffffffffffffffffffffffffffffffffffffffff1614611269576040517f08c379a000000000000000000000000000000000000000000000000000000000815260206004820152601e60248201527f484f4c4f47524150483a2061646d696e206f6e6c792066756e6374696f6e00006044820152606401610779565b7feb87cbb21687feb327e3d58c6c16d552231d12c7a0e8115042a4165fac8a77f955565b7f3f106594dc74eeef980dae234cde8324dc2497b13d27a0c59e55bd2ca10a07c95473ffffffffffffffffffffffffffffffffffffffff163373ffffffffffffffffffffffffffffffffffffffff1614611343576040517f08c379a000000000000000000000000000000000000000000000000000000000815260206004820152601e60248201527f484f4c4f47524150483a2061646d696e206f6e6c792066756e6374696f6e00006044820152606401610779565b61134d8282611ac0565b5050565b7f3f106594dc74eeef980dae234cde8324dc2497b13d27a0c59e55bd2ca10a07c95473ffffffffffffffffffffffffffffffffffffffff163373ffffffffffffffffffffffffffffffffffffffff1614611407576040517f08c379a000000000000000000000000000000000000000000000000000000000815260206004820152601e60248201527f484f4c4f47524150483a2061646d696e206f6e6c792066756e6374696f6e00006044820152606401610779565b7f7caba557ad34138fa3b7e43fb574e0e6cc10481c3073e0dffbc560db81b5c60f55565b7f3f106594dc74eeef980dae234cde8324dc2497b13d27a0c59e55bd2ca10a07c95473ffffffffffffffffffffffffffffffffffffffff163373ffffffffffffffffffffffffffffffffffffffff16146114e1576040517f08c379a000000000000000000000000000000000000000000000000000000000815260206004820152601e60248201527f484f4c4f47524150483a2061646d696e206f6e6c792066756e6374696f6e00006044820152606401610779565b808260003760008082600034875af13d6000803e808015611501573d6000f35b3d6000fd5b5050505050565b7f3f106594dc74eeef980dae234cde8324dc2497b13d27a0c59e55bd2ca10a07c95473ffffffffffffffffffffffffffffffffffffffff163373ffffffffffffffffffffffffffffffffffffffff16146115c3576040517f08c379a000000000000000000000000000000000000000000000000000000000815260206004820152601e60248201527f484f4c4f47524150483a2061646d696e206f6e6c792066756e6374696f6e00006044820152606401610779565b7fbd3084b8c09da87ad159c247a60e209784196be2530cecbbd8f337fdd184882755565b60006116117f3f106594dc74eeef980dae234cde8324dc2497b13d27a0c59e55bd2ca10a07c95490565b905090565b6000806000806116447fbd3084b8c09da87ad159c247a60e209784196be2530cecbbd8f337fdd18488275490565b73ffffffffffffffffffffffffffffffffffffffff166320fc06ea60028b63ffffffff1660036040518463ffffffff1660e01b8152600401611688939291906123ea565b602060405180830381865afa1580156116a5573d6000803e3d6000fd5b505050506040513d601f19601f820116820180604052508101906116c9919061240b565b7f56825e447adf54cdde5f04815fcf9b1dd26ef9d5c053625147c18b7c13091686549091506000806116fb8385611b69565b915091508960000361171d57806fffffffffffffffffffffffffffffffff1699505b60006117288d6119d6565b905080608001518b11611797576040517f08c379a000000000000000000000000000000000000000000000000000000000815260206004820152601c60248201527f484f4c4f47524150483a2067617320707269636520746f6f206c6f77000000006044820152606401610779565b60208101516000906001906117ac908c612453565b83516117b89190612490565b60405160f09290921b7fffff0000000000000000000000000000000000000000000000000000000000001660208301526022820152604201604080517fffffffffffffffffffffffffffffffffffffffffffffffffffffffffffffffe08184030181529190526060830151909150611830908b612453565b604083015161183f908f612490565b6118499190612490565b9c50611856600a8e61261f565b611860908e612490565b9c508160a001518d106118cf576040517f08c379a000000000000000000000000000000000000000000000000000000000815260206004820152601d60248201527f484f4c4f47524150483a20676173206c696d6974206f766572206d61780000006044820152606401610779565b60008573ffffffffffffffffffffffffffffffffffffffff166340a7bb1088308f8f6000886040518763ffffffff1660e01b8152600401611915969594939291906127d9565b6040805180830381865afa158015611931573d6000803e3d6000fd5b505050506040513d601f19601f82011682018060405250810190611955919061283a565b5090506402540be400856fffffffffffffffffffffffffffffffff168f8f61197d9190612453565b6119879190612453565b611991919061261f565b99509750876402540be4006119a6868661285e565b6119b09190612896565b6fffffffffffffffffffffffffffffffff16975050505050505050955095509592505050565b611a0f6040518060c001604052806000815260200160008152602001600081526020016000815260200160008152602001600081525090565b600063ffffffff831615611a73576040805163ffffffff851660208201527f15eee82a0af3c04e4b65c3842105c973a6b0fb2a68728bf035809e13b38ce8cf9181019190915260600160405160208183030381529060405280519060200120611a95565b7f15eee82a0af3c04e4b65c3842105c973a6b0fb2a68728bf035809e13b38ce8cf5b90508160005b6006811015611ab857828101548252602090910190600101611a9b565b505050919050565b600063ffffffff831615611b24576040805163ffffffff851660208201527f15eee82a0af3c04e4b65c3842105c973a6b0fb2a68728bf035809e13b38ce8cf9181019190915260600160405160208183030381529060405280519060200120611b46565b7f15eee82a0af3c04e4b65c3842105c973a6b0fb2a68728bf035809e13b38ce8cf5b90508160005b600681101561150657815183820155602090910190600101611b4c565b6000808373ffffffffffffffffffffffffffffffffffffffff16634afb422b6040518163ffffffff1660e01b8152600401602060405180830381865afa158015611bb7573d6000803e3d6000fd5b505050506040513d601f19601f82011682018060405250810190611bdb91906128c5565b6040517fa466222200000000000000000000000000000000000000000000000000000000815261ffff8516600482015230602482015273ffffffffffffffffffffffffffffffffffffffff919091169063a46622229060440160c060405180830381865afa158015611c51573d6000803e3d6000fd5b505050506040513d601f19601f82011682018060405250810190611c7591906128e2565b60409081015190517f765a8a5400000000000000000000000000000000000000000000000000000000815261ffff8516600482015273ffffffffffffffffffffffffffffffffffffffff9091169063765a8a54906024016040805180830381865afa158015611ce8573d6000803e3d6000fd5b505050506040513d601f19601f82011682018060405250810190611d0c91906129b2565b915091505b9250929050565b61ffff81168114611d2857600080fd5b50565b60008083601f840112611d3d57600080fd5b50813567ffffffffffffffff811115611d5557600080fd5b602083019150836020828501011115611d1157600080fd5b67ffffffffffffffff81168114611d2857600080fd5b60008060008060008060808789031215611d9c57600080fd5b8635611da781611d18565b9550602087013567ffffffffffffffff80821115611dc457600080fd5b611dd08a838b01611d2b565b909750955060408901359150611de582611d6d565b90935060608801359080821115611dfb57600080fd5b50611e0889828a01611d2b565b979a9699509497509295939492505050565b63ffffffff81168114611d2857600080fd5b73ffffffffffffffffffffffffffffffffffffffff81168114611d2857600080fd5b600080600080600080600060c0888a031215611e6957600080fd5b87359650602088013595506040880135611e8281611e1a565b94506060880135611e9281611e2c565b93506080880135925060a088013567ffffffffffffffff811115611eb557600080fd5b611ec18a828b01611d2b565b989b979a50959850939692959293505050565b7f4e487b7100000000000000000000000000000000000000000000000000000000600052604160045260246000fd5b60405160c0810167ffffffffffffffff81118282101715611f2657611f26611ed4565b60405290565b604051601f82017fffffffffffffffffffffffffffffffffffffffffffffffffffffffffffffffe016810167ffffffffffffffff81118282101715611f7357611f73611ed4565b604052919050565b600067ffffffffffffffff821115611f9557611f95611ed4565b5060051b60200190565b600060c08284031215611fb157600080fd5b611fb9611f03565b9050813581526020820135602082015260408201356040820152606082013560608201526080820135608082015260a082013560a082015292915050565b600082601f83011261200857600080fd5b8135602061201d61201883611f7b565b611f2c565b82815260c0928302850182019282820191908785111561203c57600080fd5b8387015b8581101561205f576120528982611f9f565b8452928401928101612040565b5090979650505050505050565b6000806040838503121561207f57600080fd5b823567ffffffffffffffff8082111561209757600080fd5b818501915085601f8301126120ab57600080fd5b813560206120bb61201883611f7b565b82815260059290921b840181019181810190898411156120da57600080fd5b948201945b838610156121015785356120f281611e1a565b825294820194908201906120df565b9650508601359250508082111561211757600080fd5b5061212485828601611ff7565b9150509250929050565b6000806000806080858703121561214457600080fd5b843561214f81611e1a565b966020860135965060408601359560600135945092505050565b60006020828403121561217b57600080fd5b813561218681611e2c565b9392505050565b600060208083850312156121a057600080fd5b823567ffffffffffffffff808211156121b857600080fd5b818501915085601f8301126121cc57600080fd5b8135818111156121de576121de611ed4565b61220e847fffffffffffffffffffffffffffffffffffffffffffffffffffffffffffffffe0601f84011601611f2c565b9150808252868482850101111561222457600080fd5b8084840185840137600090820190930192909252509392505050565b60006020828403121561225257600080fd5b813561218681611e1a565b60008060e0838503121561227057600080fd5b823561227b81611e1a565b915061228a8460208501611f9f565b90509250929050565b6000806000604084860312156122a857600080fd5b83356122b381611e2c565b9250602084013567ffffffffffffffff8111156122cf57600080fd5b6122db86828701611d2b565b9497909650939450505050565b60008060008060006080868803121561230057600080fd5b853561230b81611e1a565b94506020860135935060408601359250606086013567ffffffffffffffff81111561233557600080fd5b61234188828901611d2b565b969995985093965092949392505050565b8183528181602085013750600060208284010152600060207fffffffffffffffffffffffffffffffffffffffffffffffffffffffffffffffe0601f840116840101905092915050565b602081526000610d78602083018486612352565b600581106123e6577f4e487b7100000000000000000000000000000000000000000000000000000000600052602160045260246000fd5b9052565b606081016123f882866123af565b836020830152610d7860408301846123af565b60006020828403121561241d57600080fd5b5051919050565b7f4e487b7100000000000000000000000000000000000000000000000000000000600052601160045260246000fd5b6000817fffffffffffffffffffffffffffffffffffffffffffffffffffffffffffffffff048311821515161561248b5761248b612424565b500290565b600082198211156124a3576124a3612424565b500190565b6000815180845260005b818110156124ce576020818501810151868301820152016124b2565b818111156124e0576000602083870101525b50601f017fffffffffffffffffffffffffffffffffffffffffffffffffffffffffffffffe0169290920160200192915050565b61ffff8816815260c06020820152600061253060c08301896124a8565b828103604084015261254381888a612352565b73ffffffffffffffffffffffffffffffffffffffff87811660608601528616608085015283810360a0850152905061257b81856124a8565b9a9950505050505050505050565b7f4e487b7100000000000000000000000000000000000000000000000000000000600052603260045260246000fd5b60007fffffffffffffffffffffffffffffffffffffffffffffffffffffffffffffffff82036125e9576125e9612424565b5060010190565b7f4e487b7100000000000000000000000000000000000000000000000000000000600052601260045260246000fd5b60008261262e5761262e6125f0565b500490565b600082601f83011261264457600080fd5b8151602061265461201883611f7b565b82815260c0928302850182019282820191908785111561267357600080fd5b8387015b8581101561205f5781818a03121561268f5760008081fd5b612697611f03565b81518152858201518682015260408083015190820152606080830151908201526080808301519082015260a080830151908201528452928401928101612677565b600080600080600060a086880312156126f057600080fd5b85516126fb81611e2c565b8095505060208087015161270e81611e2c565b604088015190955061271f81611e2c565b606088015190945067ffffffffffffffff8082111561273d57600080fd5b818901915089601f83011261275157600080fd5b815161275f61201882611f7b565b81815260059190911b8301840190848101908c83111561277e57600080fd5b938501935b828510156127a557845161279681611e1a565b82529385019390850190612783565b60808c015190975094505050808311156127be57600080fd5b50506127cc88828901612633565b9150509295509295909350565b61ffff8716815273ffffffffffffffffffffffffffffffffffffffff8616602082015260a06040820152600061281360a083018688612352565b8415156060840152828103608084015261282d81856124a8565b9998505050505050505050565b6000806040838503121561284d57600080fd5b505080516020909101519092909150565b60006fffffffffffffffffffffffffffffffff8083168185168183048111821515161561288d5761288d612424565b02949350505050565b60006fffffffffffffffffffffffffffffffff808416806128b9576128b96125f0565b92169190910492915050565b6000602082840312156128d757600080fd5b815161218681611e2c565b600060c082840312156128f457600080fd5b60405160c0810181811067ffffffffffffffff8211171561291757612917611ed4565b604052825161292581611d18565b8152602083015161293581611d6d565b6020820152604083015161294881611e2c565b6040820152606083015161295b81611d18565b6060820152608083015161296e81611d6d565b608082015260a083015161298181611e2c565b60a08201529392505050565b80516fffffffffffffffffffffffffffffffff811681146129ad57600080fd5b919050565b600080604083850312156129c557600080fd5b6129ce8361298d565b915061228a6020840161298d56fea164736f6c634300080d000a",
  "devdoc": {
    "author": "https://github.com/holographxyz",
    "details": "This contract abstracts all of the LayerZero specific logic into an isolated module",
    "kind": "dev",
    "methods": {
      "constructor": {
        "details": "Constructor is left empty and init is used instead"
      },
      "getBridge()": {
        "details": "Used for beaming holographable assets cross-chain"
      },
      "getGasParameters(uint32)": {
        "params": {
          "chainId": "the Holograph ChainId to get gas parameters for, set to 0 for default"
        }
      },
      "getInterfaces()": {
        "details": "Holograph uses this contract to store data that needs to be accessed by a large portion of the modules"
      },
      "getLZEndpoint()": {
        "details": "All lzReceive function calls allow only requests from this address"
      },
      "getOperator()": {
        "details": "All cross-chain Holograph Bridge beams are handled by the Holograph Operator module"
      },
      "init(bytes)": {
        "details": "This function is called by the deployer/factory when creating a contract",
        "params": {
          "initPayload": "abi encoded payload to use for contract initilaization"
        }
      },
      "lzReceive(uint16,bytes,uint64,bytes)": {
        "details": "This function only allows calls from the configured LayerZero endpoint address"
      },
      "send(uint256,uint256,uint32,address,uint256,bytes)": {
        "details": "Need to add an extra function to get LZ gas amount needed for their internal cross-chain message verification"
      },
      "setBridge(address)": {
        "params": {
          "bridge": "address of the Holograph Bridge smart contract to use"
        }
      },
      "setGasParameters(uint32,(uint256,uint256,uint256,uint256,uint256,uint256))": {
        "params": {
          "chainId": "the Holograph ChainId to set gas parameters for, set to 0 for default",
          "gasParameters": "struct of all the gas parameters to set"
        }
      },
      "setGasParameters(uint32[],(uint256,uint256,uint256,uint256,uint256,uint256)[])": {
        "params": {
          "chainIds": "array of Holograph ChainId to set gas parameters for",
          "gasParameters": "array of all the gas parameters to set"
        }
      },
      "setInterfaces(address)": {
        "params": {
          "interfaces": "address of the Holograph Interfaces smart contract to use"
        }
      },
      "setLZEndpoint(address)": {
        "params": {
          "lZEndpoint": "address of the LayerZero Endpoint to use"
        }
      },
      "setOperator(address)": {
        "params": {
          "operator": "address of the Holograph Operator smart contract to use"
        }
      }
    },
    "stateVariables": {
      "_bridgeSlot": {
        "details": "bytes32(uint256(keccak256('eip1967.Holograph.bridge')) - 1)"
      },
      "_gasParametersSlot": {
        "details": "bytes32(uint256(keccak256('eip1967.Holograph.gasParameters')) - 1)"
      },
      "_interfacesSlot": {
        "details": "bytes32(uint256(keccak256('eip1967.Holograph.interfaces')) - 1)"
      },
      "_lZEndpointSlot": {
        "details": "bytes32(uint256(keccak256('eip1967.Holograph.lZEndpoint')) - 1)"
      },
      "_operatorSlot": {
        "details": "bytes32(uint256(keccak256('eip1967.Holograph.operator')) - 1)"
      }
    },
    "title": "Holograph LayerZero Module",
    "version": 1
  },
  "userdoc": {
    "kind": "user",
    "methods": {
      "getBridge()": {
        "notice": "Get the address of the Holograph Bridge module"
      },
      "getGasParameters(uint32)": {
        "notice": "Get the default or chain-specific GasParameters"
      },
      "getInterfaces()": {
        "notice": "Get the address of the Holograph Interfaces module"
      },
      "getLZEndpoint()": {
        "notice": "Get the address of the approved LayerZero Endpoint"
      },
      "getOperator()": {
        "notice": "Get the address of the Holograph Operator module"
      },
      "init(bytes)": {
        "notice": "Used internally to initialize the contract instead of through a constructor"
      },
      "lzReceive(uint16,bytes,uint64,bytes)": {
        "notice": "Receive cross-chain message from LayerZero"
      },
      "setBridge(address)": {
        "notice": "Update the Holograph Bridge module address"
      },
      "setGasParameters(uint32,(uint256,uint256,uint256,uint256,uint256,uint256))": {
        "notice": "Update the default or chain-specific GasParameters"
      },
      "setGasParameters(uint32[],(uint256,uint256,uint256,uint256,uint256,uint256)[])": {
        "notice": "Update the default or chain-specific GasParameters"
      },
      "setInterfaces(address)": {
        "notice": "Update the Holograph Interfaces module address"
      },
      "setLZEndpoint(address)": {
        "notice": "Update the approved LayerZero Endpoint address"
      },
      "setOperator(address)": {
        "notice": "Update the Holograph Operator module address"
      }
    },
    "notice": "Holograph module for enabling LayerZero cross-chain messaging",
    "version": 1
  },
  "storageLayout": {
    "storage": [],
    "types": null
  }
}