{
  "address": "0x79E6005500A27B33806426bc6Af015f8f3EDe265",
  "abi": [
    {
      "inputs": [],
      "stateMutability": "nonpayable",
      "type": "constructor"
    },
    {
      "inputs": [],
      "name": "admin",
      "outputs": [
        {
          "internalType": "address",
          "name": "",
          "type": "address"
        }
      ],
      "stateMutability": "view",
      "type": "function"
    },
    {
      "inputs": [
        {
          "internalType": "address",
          "name": "target",
          "type": "address"
        },
        {
          "internalType": "bytes",
          "name": "data",
          "type": "bytes"
        }
      ],
      "name": "adminCall",
      "outputs": [],
      "stateMutability": "payable",
      "type": "function"
    },
    {
      "inputs": [],
      "name": "getAdmin",
      "outputs": [
        {
          "internalType": "address",
          "name": "adminAddress",
          "type": "address"
        }
      ],
      "stateMutability": "view",
      "type": "function"
    },
    {
      "inputs": [],
      "name": "getBridge",
      "outputs": [
        {
          "internalType": "address",
          "name": "bridge",
          "type": "address"
        }
      ],
      "stateMutability": "view",
      "type": "function"
    },
    {
      "inputs": [],
      "name": "getHolograph",
      "outputs": [
        {
          "internalType": "address",
          "name": "holograph",
          "type": "address"
        }
      ],
      "stateMutability": "view",
      "type": "function"
    },
    {
      "inputs": [],
      "name": "getOperator",
      "outputs": [
        {
          "internalType": "address",
          "name": "operator",
          "type": "address"
        }
      ],
      "stateMutability": "view",
      "type": "function"
    },
    {
      "inputs": [],
      "name": "getRegistry",
      "outputs": [
        {
          "internalType": "address",
          "name": "registry",
          "type": "address"
        }
      ],
      "stateMutability": "view",
      "type": "function"
    },
    {
      "inputs": [
        {
          "internalType": "bytes",
          "name": "data",
          "type": "bytes"
        }
      ],
      "name": "init",
      "outputs": [
        {
          "internalType": "bytes4",
          "name": "",
          "type": "bytes4"
        }
      ],
      "stateMutability": "nonpayable",
      "type": "function"
    },
    {
      "inputs": [
        {
          "internalType": "address",
          "name": "adminAddress",
          "type": "address"
        }
      ],
      "name": "setAdmin",
      "outputs": [],
      "stateMutability": "nonpayable",
      "type": "function"
    },
    {
      "inputs": [
        {
          "internalType": "address",
          "name": "bridge",
          "type": "address"
        }
      ],
      "name": "setBridge",
      "outputs": [],
      "stateMutability": "nonpayable",
      "type": "function"
    },
    {
      "inputs": [
        {
          "internalType": "address",
          "name": "holograph",
          "type": "address"
        }
      ],
      "name": "setHolograph",
      "outputs": [],
      "stateMutability": "nonpayable",
      "type": "function"
    },
    {
      "inputs": [
        {
          "internalType": "address",
          "name": "operator",
          "type": "address"
        }
      ],
      "name": "setOperator",
      "outputs": [],
      "stateMutability": "nonpayable",
      "type": "function"
    },
    {
      "inputs": [
        {
          "internalType": "address",
          "name": "registry",
          "type": "address"
        }
      ],
      "name": "setRegistry",
      "outputs": [],
      "stateMutability": "nonpayable",
      "type": "function"
    }
  ],
  "transactionHash": "0xe02e471d80530b9c7f9f88a84383cc440d225a8d60fdaa218d40f627bb1c1167",
  "args": [],
  "numDeployments": 1,
  "solcInputHash": "2e4e12d7d604fac31e1a6fca2c3b50e3",
  "bytecode": "0x608060405234801561001057600080fd5b50610c5d806100206000396000f3fe6080604052600436106100d25760003560e01c8063704b6c021161007f578063b3ab15fb11610059578063b3ab15fb146102a0578063bf64a82d146102c0578063e7f43c68146102d3578063f851a4401461030757600080fd5b8063704b6c02146102405780638dd1480214610260578063a91ee0dc1461028057600080fd5b80634ddf47d4116100b05780634ddf47d4146101875780635ab1bd53146101d85780636e9960c31461020c57600080fd5b80630fffbaf3146100d757806325d5cac8146101315780634827ae0c14610153575b600080fd5b3480156100e357600080fd5b507f03be85923973d3197c19b1ad1f9b28c331dd9229cd80cbf84926b2286fc4563f545b60405173ffffffffffffffffffffffffffffffffffffffff90911681526020015b60405180910390f35b34801561013d57600080fd5b5061015161014c366004610a4a565b61031c565b005b34801561015f57600080fd5b507f1eee493315beeac80829afd0aaa340f3821cabe68571a2743478e81638a3d94d54610107565b34801561019357600080fd5b506101a76101a2366004610a9d565b6103fb565b6040517fffffffff000000000000000000000000000000000000000000000000000000009091168152602001610128565b3480156101e457600080fd5b507f460c4059d72b144253e5fc4e2aacbae2bcd6362c67862cd58ecbab0e7b10c34954610107565b34801561021857600080fd5b507f5705f5753aa4f617eef2cae1dada3d3355e9387b04d19191f09b545e684ca50d54610107565b34801561024c57600080fd5b5061015161025b366004610a4a565b6105b3565b34801561026c57600080fd5b5061015161027b366004610a4a565b61068d565b34801561028c57600080fd5b5061015161029b366004610a4a565b610767565b3480156102ac57600080fd5b506101516102bb366004610a4a565b610841565b6101516102ce366004610b6c565b61091b565b3480156102df57600080fd5b507f7bef7d8d97f57f9aa64de319c8598b5cdc7c3d2715fc02428415a98281ca6bdc54610107565b34801561031357600080fd5b506101076109f6565b7f5705f5753aa4f617eef2cae1dada3d3355e9387b04d19191f09b545e684ca50d5473ffffffffffffffffffffffffffffffffffffffff163373ffffffffffffffffffffffffffffffffffffffff16146103d7576040517f08c379a000000000000000000000000000000000000000000000000000000000815260206004820152601e60248201527f484f4c4f47524150483a2061646d696e206f6e6c792066756e6374696f6e000060448201526064015b60405180910390fd5b7f1eee493315beeac80829afd0aaa340f3821cabe68571a2743478e81638a3d94d55565b60006104277f4e5f991bca30eca2d4643aaefa807e88f96a4a97398933d572a3c0d973004a0154151590565b1561048e576040517f08c379a000000000000000000000000000000000000000000000000000000000815260206004820152601e60248201527f484f4c4f47524150483a20616c726561647920696e697469616c697a6564000060448201526064016103ce565b600080600080858060200190518101906104a89190610bf1565b9350935093509350327f5705f5753aa4f617eef2cae1dada3d3355e9387b04d19191f09b545e684ca50d55837f03be85923973d3197c19b1ad1f9b28c331dd9229cd80cbf84926b2286fc4563f55827f1eee493315beeac80829afd0aaa340f3821cabe68571a2743478e81638a3d94d55817f7bef7d8d97f57f9aa64de319c8598b5cdc7c3d2715fc02428415a98281ca6bdc55807f460c4059d72b144253e5fc4e2aacbae2bcd6362c67862cd58ecbab0e7b10c3495561058860017f4e5f991bca30eca2d4643aaefa807e88f96a4a97398933d572a3c0d973004a0155565b507f4ddf47d40000000000000000000000000000000000000000000000000000000095945050505050565b7f5705f5753aa4f617eef2cae1dada3d3355e9387b04d19191f09b545e684ca50d5473ffffffffffffffffffffffffffffffffffffffff163373ffffffffffffffffffffffffffffffffffffffff1614610669576040517f08c379a000000000000000000000000000000000000000000000000000000000815260206004820152601e60248201527f484f4c4f47524150483a2061646d696e206f6e6c792066756e6374696f6e000060448201526064016103ce565b7f5705f5753aa4f617eef2cae1dada3d3355e9387b04d19191f09b545e684ca50d55565b7f5705f5753aa4f617eef2cae1dada3d3355e9387b04d19191f09b545e684ca50d5473ffffffffffffffffffffffffffffffffffffffff163373ffffffffffffffffffffffffffffffffffffffff1614610743576040517f08c379a000000000000000000000000000000000000000000000000000000000815260206004820152601e60248201527f484f4c4f47524150483a2061646d696e206f6e6c792066756e6374696f6e000060448201526064016103ce565b7f03be85923973d3197c19b1ad1f9b28c331dd9229cd80cbf84926b2286fc4563f55565b7f5705f5753aa4f617eef2cae1dada3d3355e9387b04d19191f09b545e684ca50d5473ffffffffffffffffffffffffffffffffffffffff163373ffffffffffffffffffffffffffffffffffffffff161461081d576040517f08c379a000000000000000000000000000000000000000000000000000000000815260206004820152601e60248201527f484f4c4f47524150483a2061646d696e206f6e6c792066756e6374696f6e000060448201526064016103ce565b7f460c4059d72b144253e5fc4e2aacbae2bcd6362c67862cd58ecbab0e7b10c34955565b7f5705f5753aa4f617eef2cae1dada3d3355e9387b04d19191f09b545e684ca50d5473ffffffffffffffffffffffffffffffffffffffff163373ffffffffffffffffffffffffffffffffffffffff16146108f7576040517f08c379a000000000000000000000000000000000000000000000000000000000815260206004820152601e60248201527f484f4c4f47524150483a2061646d696e206f6e6c792066756e6374696f6e000060448201526064016103ce565b7f7bef7d8d97f57f9aa64de319c8598b5cdc7c3d2715fc02428415a98281ca6bdc55565b7f5705f5753aa4f617eef2cae1dada3d3355e9387b04d19191f09b545e684ca50d5473ffffffffffffffffffffffffffffffffffffffff163373ffffffffffffffffffffffffffffffffffffffff16146109d1576040517f08c379a000000000000000000000000000000000000000000000000000000000815260206004820152601e60248201527f484f4c4f47524150483a2061646d696e206f6e6c792066756e6374696f6e000060448201526064016103ce565b808260003760008082600034875af13d6000803e8080156109f1573d6000f35b3d6000fd5b6000610a207f5705f5753aa4f617eef2cae1dada3d3355e9387b04d19191f09b545e684ca50d5490565b905090565b73ffffffffffffffffffffffffffffffffffffffff81168114610a4757600080fd5b50565b600060208284031215610a5c57600080fd5b8135610a6781610a25565b9392505050565b7f4e487b7100000000000000000000000000000000000000000000000000000000600052604160045260246000fd5b600060208284031215610aaf57600080fd5b813567ffffffffffffffff80821115610ac757600080fd5b818401915084601f830112610adb57600080fd5b813581811115610aed57610aed610a6e565b604051601f82017fffffffffffffffffffffffffffffffffffffffffffffffffffffffffffffffe0908116603f01168101908382118183101715610b3357610b33610a6e565b81604052828152876020848701011115610b4c57600080fd5b826020860160208301376000928101602001929092525095945050505050565b600080600060408486031215610b8157600080fd5b8335610b8c81610a25565b9250602084013567ffffffffffffffff80821115610ba957600080fd5b818601915086601f830112610bbd57600080fd5b813581811115610bcc57600080fd5b876020828501011115610bde57600080fd5b6020830194508093505050509250925092565b60008060008060808587031215610c0757600080fd5b8451610c1281610a25565b6020860151909450610c2381610a25565b6040860151909350610c3481610a25565b6060860151909250610c4581610a25565b93969295509093505056fea164736f6c634300080d000a",
  "devdoc": {
    "details": "This smart contract contains the actual core treasury logic.",
    "kind": "dev",
    "methods": {
      "constructor": {
        "details": "Constructor is left empty and only the admin address is set."
      }
    },
    "version": 1
  },
  "userdoc": {
    "kind": "user",
    "methods": {},
    "version": 1
  },
  "storageLayout": {
    "storage": [],
    "types": null
  }
}