{
  "address": "0xc8AD65cAbbA702858fa6ed00A6d81Fe1D88b473E",
  "abi": [
    {
      "inputs": [],
      "stateMutability": "nonpayable",
      "type": "constructor"
    },
    {
      "stateMutability": "payable",
      "type": "fallback"
    },
    {
      "inputs": [],
      "name": "admin",
      "outputs": [
        {
          "internalType": "address",
          "name": "",
          "type": "address"
        }
      ],
      "stateMutability": "view",
      "type": "function"
    },
    {
      "inputs": [
        {
          "internalType": "address",
          "name": "target",
          "type": "address"
        },
        {
          "internalType": "bytes",
          "name": "data",
          "type": "bytes"
        }
      ],
      "name": "adminCall",
      "outputs": [],
      "stateMutability": "payable",
      "type": "function"
    },
    {
      "inputs": [],
      "name": "getAdmin",
      "outputs": [
        {
          "internalType": "address",
          "name": "adminAddress",
          "type": "address"
        }
      ],
      "stateMutability": "view",
      "type": "function"
    },
    {
      "inputs": [],
      "name": "getBridge",
      "outputs": [
        {
          "internalType": "address",
          "name": "bridge",
          "type": "address"
        }
      ],
      "stateMutability": "view",
      "type": "function"
    },
    {
      "inputs": [
        {
          "internalType": "uint32",
          "name": "toChain",
          "type": "uint32"
        },
        {
          "internalType": "uint256",
          "name": "gasLimit",
          "type": "uint256"
        },
        {
          "internalType": "uint256",
          "name": "gasPrice",
          "type": "uint256"
        },
        {
          "internalType": "uint256",
          "name": "payloadLength",
          "type": "uint256"
        }
      ],
      "name": "getHlgFee",
      "outputs": [
        {
          "internalType": "uint256",
          "name": "hlgFee",
          "type": "uint256"
        }
      ],
      "stateMutability": "view",
      "type": "function"
    },
    {
      "inputs": [],
      "name": "getInterfaces",
      "outputs": [
        {
          "internalType": "address",
          "name": "interfaces",
          "type": "address"
        }
      ],
      "stateMutability": "view",
      "type": "function"
    },
    {
      "inputs": [],
      "name": "getJobBaseGas",
      "outputs": [
        {
          "internalType": "uint256",
          "name": "jobBaseGas",
          "type": "uint256"
        }
      ],
      "stateMutability": "view",
      "type": "function"
    },
    {
      "inputs": [],
      "name": "getJobGasPerByte",
      "outputs": [
        {
          "internalType": "uint256",
          "name": "jobGasPerByte",
          "type": "uint256"
        }
      ],
      "stateMutability": "view",
      "type": "function"
    },
    {
      "inputs": [],
      "name": "getLZEndpoint",
      "outputs": [
        {
          "internalType": "address",
          "name": "lZEndpoint",
          "type": "address"
        }
      ],
      "stateMutability": "view",
      "type": "function"
    },
    {
      "inputs": [
        {
          "internalType": "uint32",
          "name": "toChain",
          "type": "uint32"
        },
        {
          "internalType": "uint256",
          "name": "gasLimit",
          "type": "uint256"
        },
        {
          "internalType": "uint256",
          "name": "gasPrice",
          "type": "uint256"
        },
        {
          "internalType": "bytes",
          "name": "crossChainPayload",
          "type": "bytes"
        }
      ],
      "name": "getMessageFee",
      "outputs": [
        {
          "internalType": "uint256",
          "name": "hlgFee",
          "type": "uint256"
        },
        {
          "internalType": "uint256",
          "name": "msgFee",
          "type": "uint256"
        },
        {
          "internalType": "uint256",
          "name": "dstGasPrice",
          "type": "uint256"
        }
      ],
      "stateMutability": "view",
      "type": "function"
    },
    {
      "inputs": [],
      "name": "getMsgBaseGas",
      "outputs": [
        {
          "internalType": "uint256",
          "name": "msgBaseGas",
          "type": "uint256"
        }
      ],
      "stateMutability": "view",
      "type": "function"
    },
    {
      "inputs": [],
      "name": "getMsgGasPerByte",
      "outputs": [
        {
          "internalType": "uint256",
          "name": "msgGasPerByte",
          "type": "uint256"
        }
      ],
      "stateMutability": "view",
      "type": "function"
    },
    {
      "inputs": [],
      "name": "getOperator",
      "outputs": [
        {
          "internalType": "address",
          "name": "operator",
          "type": "address"
        }
      ],
      "stateMutability": "view",
      "type": "function"
    },
    {
      "inputs": [
        {
          "internalType": "bytes",
          "name": "initPayload",
          "type": "bytes"
        }
      ],
      "name": "init",
      "outputs": [
        {
          "internalType": "bytes4",
          "name": "",
          "type": "bytes4"
        }
      ],
      "stateMutability": "nonpayable",
      "type": "function"
    },
    {
      "inputs": [
        {
          "internalType": "uint16",
          "name": "",
          "type": "uint16"
        },
        {
          "internalType": "bytes",
          "name": "_srcAddress",
          "type": "bytes"
        },
        {
          "internalType": "uint64",
          "name": "",
          "type": "uint64"
        },
        {
          "internalType": "bytes",
          "name": "_payload",
          "type": "bytes"
        }
      ],
      "name": "lzReceive",
      "outputs": [],
      "stateMutability": "payable",
      "type": "function"
    },
    {
      "inputs": [
        {
          "internalType": "uint256",
          "name": "",
          "type": "uint256"
        },
        {
          "internalType": "uint256",
          "name": "",
          "type": "uint256"
        },
        {
          "internalType": "uint32",
          "name": "toChain",
          "type": "uint32"
        },
        {
          "internalType": "address",
          "name": "msgSender",
          "type": "address"
        },
        {
          "internalType": "uint256",
          "name": "msgValue",
          "type": "uint256"
        },
        {
          "internalType": "bytes",
          "name": "crossChainPayload",
          "type": "bytes"
        }
      ],
      "name": "send",
      "outputs": [],
      "stateMutability": "payable",
      "type": "function"
    },
    {
      "inputs": [
        {
          "internalType": "address",
          "name": "adminAddress",
          "type": "address"
        }
      ],
      "name": "setAdmin",
      "outputs": [],
      "stateMutability": "nonpayable",
      "type": "function"
    },
    {
      "inputs": [
        {
          "internalType": "address",
          "name": "bridge",
          "type": "address"
        }
      ],
      "name": "setBridge",
      "outputs": [],
      "stateMutability": "nonpayable",
      "type": "function"
    },
    {
      "inputs": [
        {
          "internalType": "address",
          "name": "interfaces",
          "type": "address"
        }
      ],
      "name": "setInterfaces",
      "outputs": [],
      "stateMutability": "nonpayable",
      "type": "function"
    },
    {
      "inputs": [
        {
          "internalType": "uint256",
          "name": "jobBaseGas",
          "type": "uint256"
        }
      ],
      "name": "setJobBaseGas",
      "outputs": [],
      "stateMutability": "nonpayable",
      "type": "function"
    },
    {
      "inputs": [
        {
          "internalType": "uint256",
          "name": "jobGasPerByte",
          "type": "uint256"
        }
      ],
      "name": "setJobGasPerByte",
      "outputs": [],
      "stateMutability": "nonpayable",
      "type": "function"
    },
    {
      "inputs": [
        {
          "internalType": "address",
          "name": "lZEndpoint",
          "type": "address"
        }
      ],
      "name": "setLZEndpoint",
      "outputs": [],
      "stateMutability": "nonpayable",
      "type": "function"
    },
    {
      "inputs": [
        {
          "internalType": "uint256",
          "name": "msgBaseGas",
          "type": "uint256"
        }
      ],
      "name": "setMsgBaseGas",
      "outputs": [],
      "stateMutability": "nonpayable",
      "type": "function"
    },
    {
      "inputs": [
        {
          "internalType": "uint256",
          "name": "msgGasPerByte",
          "type": "uint256"
        }
      ],
      "name": "setMsgGasPerByte",
      "outputs": [],
      "stateMutability": "nonpayable",
      "type": "function"
    },
    {
      "inputs": [
        {
          "internalType": "address",
          "name": "operator",
          "type": "address"
        }
      ],
      "name": "setOperator",
      "outputs": [],
      "stateMutability": "nonpayable",
      "type": "function"
    },
    {
      "stateMutability": "payable",
      "type": "receive"
    }
  ],
  "transactionHash": "0xe9d7cf9cc88b08e58eb97de76aa2261470784e79bc8b7116c3dfbc350a3d0749",
  "args": [],
  "numDeployments": 1,
  "solcInputHash": "9360b78c07e2381459f9db79a3ffb2bd",
  "bytecode": "0x608060405234801561001057600080fd5b50612488806100206000396000f3fe6080604052600436106101995760003560e01c8063704b6c02116100e1578063db2a8b0f1161008a578063ebac15f911610064578063ebac15f914610524578063f495a46c14610558578063f851a44014610578578063ff1370d91461058d57600080fd5b8063db2a8b0f1461049c578063e45f30dd146104bc578063e7f43c68146104f057600080fd5b8063b3ab15fb116100bb578063b3ab15fb14610449578063bf64a82d14610469578063da8292d91461047c57600080fd5b8063704b6c02146103e95780638dd1480214610409578063a812ae5d1461042957600080fd5b80634afc39da1161014357806355c7ee8d1161011d57806355c7ee8d146103615780635ac15bc7146103815780636e9960c3146103b557600080fd5b80634afc39da146102bc5780634b40f1bf146102f05780634ddf47d41461031057600080fd5b8063118b2a2311610174578063118b2a231461022a57806328ee41a51461026857806336c5ab401461028857600080fd5b80621d3567146101a85780630a0542ef146101bd5780630fffbaf3146101d057600080fd5b366101a357600080fd5b600080fd5b6101bb6101b6366004611c6e565b6105c8565b005b6101bb6101cb366004611d40565b61079e565b3480156101dc57600080fd5b507feb87cbb21687feb327e3d58c6c16d552231d12c7a0e8115042a4165fac8a77f9545b60405173ffffffffffffffffffffffffffffffffffffffff90911681526020015b60405180910390f35b34801561023657600080fd5b507f9bd5d4bcceb48def742308e3d5e49a206458ad9978d2a13b249ce344a306f8fb545b604051908152602001610221565b34801561027457600080fd5b5061025a610283366004611dc4565b610a95565b34801561029457600080fd5b507f56825e447adf54cdde5f04815fcf9b1dd26ef9d5c053625147c18b7c1309168654610200565b3480156102c857600080fd5b507f1f3604959b0efac4bf7d61f0c33a52f79508888111e10963d8d7941ebc9811b85461025a565b3480156102fc57600080fd5b506101bb61030b366004611dfd565b610c58565b34801561031c57600080fd5b5061033061032b366004611e50565b610d32565b6040517fffffffff000000000000000000000000000000000000000000000000000000009091168152602001610221565b34801561036d57600080fd5b506101bb61037c366004611f1f565b610f5f565b34801561038d57600080fd5b507f2c07db4a05a3231c81b6f50f461c85a47c4b9ab274cf279cb516545e583ab1dd5461025a565b3480156103c157600080fd5b507f3f106594dc74eeef980dae234cde8324dc2497b13d27a0c59e55bd2ca10a07c954610200565b3480156103f557600080fd5b506101bb610404366004611dfd565b611039565b34801561041557600080fd5b506101bb610424366004611dfd565b611113565b34801561043557600080fd5b506101bb610444366004611f1f565b6111ed565b34801561045557600080fd5b506101bb610464366004611dfd565b6112c7565b6101bb610477366004611f38565b6113a1565b34801561048857600080fd5b506101bb610497366004611dfd565b61147c565b3480156104a857600080fd5b506101bb6104b7366004611f1f565b611556565b3480156104c857600080fd5b507f5c8bfa74865379e8f0b031e99cb7c91eefe679e5ff1364c217fbada1ba3d43d45461025a565b3480156104fc57600080fd5b507f7caba557ad34138fa3b7e43fb574e0e6cc10481c3073e0dffbc560db81b5c60f54610200565b34801561053057600080fd5b507fbd3084b8c09da87ad159c247a60e209784196be2530cecbbd8f337fdd184882754610200565b34801561056457600080fd5b506101bb610573366004611f1f565b611630565b34801561058457600080fd5b5061020061170a565b34801561059957600080fd5b506105ad6105a8366004611f8d565b611739565b60408051938452602084019290925290820152606001610221565b7f56825e447adf54cdde5f04815fcf9b1dd26ef9d5c053625147c18b7c1309168654331480610662577f08c379a0000000000000000000000000000000000000000000000000000000006080527c200000000000000000000000000000000000000000000000000000000060a0527c1b484f4c4f47524150483a204c5a206f6e6c7920656e64706f696e740060c052600060e05260c46080fd5b506040518486600c8301378051301480610706577f08c379a0000000000000000000000000000000000000000000000000000000006080527c200000000000000000000000000000000000000000000000000000000060a0527c1e484f4c4f47524150483a20756e617574686f72697a65642073656e6460c0527f657200000000000000000000000000000000000000000000000000000000000060e05260c46080fd5b50507f7caba557ad34138fa3b7e43fb574e0e6cc10481c3073e0dffbc560db81b5c60f5473ffffffffffffffffffffffffffffffffffffffff1663254e106283836040518363ffffffff1660e01b815260040161076492919061203e565b600060405180830381600087803b15801561077e57600080fd5b505af1158015610792573d6000803e3d6000fd5b50505050505050505050565b7f7caba557ad34138fa3b7e43fb574e0e6cc10481c3073e0dffbc560db81b5c60f5473ffffffffffffffffffffffffffffffffffffffff163373ffffffffffffffffffffffffffffffffffffffff1614610859576040517f08c379a000000000000000000000000000000000000000000000000000000000815260206004820152601d60248201527f484f4c4f47524150483a206f70657261746f72206f6e6c792063616c6c00000060448201526064015b60405180910390fd5b7f56825e447adf54cdde5f04815fcf9b1dd26ef9d5c053625147c18b7c130916865473ffffffffffffffffffffffffffffffffffffffff811663c5803100856108c07fbd3084b8c09da87ad159c247a60e209784196be2530cecbbd8f337fdd18488275490565b73ffffffffffffffffffffffffffffffffffffffff166320fc06ea60028b63ffffffff1660036040518463ffffffff1660e01b81526004016109049392919061208d565b602060405180830381865afa158015610921573d6000803e3d6000fd5b505050506040513d601f19601f8201168201806040525081019061094591906120ae565b6040517fffffffffffffffffffffffffffffffffffffffff0000000000000000000000003060601b1660208201819052603482015260480160405160208183030381529060405287878b3060016109ba7f1f3604959b0efac4bf7d61f0c33a52f79508888111e10963d8d7941ebc9811b85490565b6109c4908d6120f6565b7f2c07db4a05a3231c81b6f50f461c85a47c4b9ab274cf279cb516545e583ab1dd546109f09190612133565b60405160f09290921b7fffff00000000000000000000000000000000000000000000000000000000000016602083015260228201526042016040516020818303038152906040526040518963ffffffff1660e01b8152600401610a5997969594939291906121b6565b6000604051808303818588803b158015610a7257600080fd5b505af1158015610a86573d6000803e3d6000fd5b50505050505050505050505050565b7f56825e447adf54cdde5f04815fcf9b1dd26ef9d5c053625147c18b7c130916865460009081610ae37fbd3084b8c09da87ad159c247a60e209784196be2530cecbbd8f337fdd18488275490565b73ffffffffffffffffffffffffffffffffffffffff166320fc06ea60028963ffffffff1660036040518463ffffffff1660e01b8152600401610b279392919061208d565b602060405180830381865afa158015610b44573d6000803e3d6000fd5b505050506040513d601f19601f82011682018060405250810190610b6891906120ae565b9050600080610b778484611a54565b9150915086600003610b9957806fffffffffffffffffffffffffffffffff1696505b7f5c8bfa74865379e8f0b031e99cb7c91eefe679e5ff1364c217fbada1ba3d43d454610bc590876120f6565b7f9bd5d4bcceb48def742308e3d5e49a206458ad9978d2a13b249ce344a306f8fb54610bf19190612133565b610bfb9089612133565b97506402540be4006fffffffffffffffffffffffffffffffff8316610c21600a8b61222c565b610c2b908b612133565b610c35908a6120f6565b610c3f91906120f6565b610c49919061222c565b9450505050505b949350505050565b7f3f106594dc74eeef980dae234cde8324dc2497b13d27a0c59e55bd2ca10a07c95473ffffffffffffffffffffffffffffffffffffffff163373ffffffffffffffffffffffffffffffffffffffff1614610d0e576040517f08c379a000000000000000000000000000000000000000000000000000000000815260206004820152601e60248201527f484f4c4f47524150483a2061646d696e206f6e6c792066756e6374696f6e00006044820152606401610850565b7f56825e447adf54cdde5f04815fcf9b1dd26ef9d5c053625147c18b7c1309168655565b6000610d5c7f4e5f991bca30eca2d4643aaefa807e88f96a4a97398933d572a3c0d973004a015490565b15610dc3576040517f08c379a000000000000000000000000000000000000000000000000000000000815260206004820152601e60248201527f484f4c4f47524150483a20616c726561647920696e697469616c697a656400006044820152606401610850565b600080600080600080600088806020019051810190610de29190612267565b9650965096509650965096509650327f3f106594dc74eeef980dae234cde8324dc2497b13d27a0c59e55bd2ca10a07c955867feb87cbb21687feb327e3d58c6c16d552231d12c7a0e8115042a4165fac8a77f955857fbd3084b8c09da87ad159c247a60e209784196be2530cecbbd8f337fdd184882755847f7caba557ad34138fa3b7e43fb574e0e6cc10481c3073e0dffbc560db81b5c60f55837f2c07db4a05a3231c81b6f50f461c85a47c4b9ab274cf279cb516545e583ab1dd55827f1f3604959b0efac4bf7d61f0c33a52f79508888111e10963d8d7941ebc9811b855817f9bd5d4bcceb48def742308e3d5e49a206458ad9978d2a13b249ce344a306f8fb55807f5c8bfa74865379e8f0b031e99cb7c91eefe679e5ff1364c217fbada1ba3d43d455610f3160017f4e5f991bca30eca2d4643aaefa807e88f96a4a97398933d572a3c0d973004a0155565b507f4ddf47d40000000000000000000000000000000000000000000000000000000098975050505050505050565b7f3f106594dc74eeef980dae234cde8324dc2497b13d27a0c59e55bd2ca10a07c95473ffffffffffffffffffffffffffffffffffffffff163373ffffffffffffffffffffffffffffffffffffffff1614611015576040517f08c379a000000000000000000000000000000000000000000000000000000000815260206004820152601e60248201527f484f4c4f47524150483a2061646d696e206f6e6c792066756e6374696f6e00006044820152606401610850565b7f9bd5d4bcceb48def742308e3d5e49a206458ad9978d2a13b249ce344a306f8fb55565b7f3f106594dc74eeef980dae234cde8324dc2497b13d27a0c59e55bd2ca10a07c95473ffffffffffffffffffffffffffffffffffffffff163373ffffffffffffffffffffffffffffffffffffffff16146110ef576040517f08c379a000000000000000000000000000000000000000000000000000000000815260206004820152601e60248201527f484f4c4f47524150483a2061646d696e206f6e6c792066756e6374696f6e00006044820152606401610850565b7f3f106594dc74eeef980dae234cde8324dc2497b13d27a0c59e55bd2ca10a07c955565b7f3f106594dc74eeef980dae234cde8324dc2497b13d27a0c59e55bd2ca10a07c95473ffffffffffffffffffffffffffffffffffffffff163373ffffffffffffffffffffffffffffffffffffffff16146111c9576040517f08c379a000000000000000000000000000000000000000000000000000000000815260206004820152601e60248201527f484f4c4f47524150483a2061646d696e206f6e6c792066756e6374696f6e00006044820152606401610850565b7feb87cbb21687feb327e3d58c6c16d552231d12c7a0e8115042a4165fac8a77f955565b7f3f106594dc74eeef980dae234cde8324dc2497b13d27a0c59e55bd2ca10a07c95473ffffffffffffffffffffffffffffffffffffffff163373ffffffffffffffffffffffffffffffffffffffff16146112a3576040517f08c379a000000000000000000000000000000000000000000000000000000000815260206004820152601e60248201527f484f4c4f47524150483a2061646d696e206f6e6c792066756e6374696f6e00006044820152606401610850565b7f1f3604959b0efac4bf7d61f0c33a52f79508888111e10963d8d7941ebc9811b855565b7f3f106594dc74eeef980dae234cde8324dc2497b13d27a0c59e55bd2ca10a07c95473ffffffffffffffffffffffffffffffffffffffff163373ffffffffffffffffffffffffffffffffffffffff161461137d576040517f08c379a000000000000000000000000000000000000000000000000000000000815260206004820152601e60248201527f484f4c4f47524150483a2061646d696e206f6e6c792066756e6374696f6e00006044820152606401610850565b7f7caba557ad34138fa3b7e43fb574e0e6cc10481c3073e0dffbc560db81b5c60f55565b7f3f106594dc74eeef980dae234cde8324dc2497b13d27a0c59e55bd2ca10a07c95473ffffffffffffffffffffffffffffffffffffffff163373ffffffffffffffffffffffffffffffffffffffff1614611457576040517f08c379a000000000000000000000000000000000000000000000000000000000815260206004820152601e60248201527f484f4c4f47524150483a2061646d696e206f6e6c792066756e6374696f6e00006044820152606401610850565b808260003760008082600034875af13d6000803e808015611477573d6000f35b3d6000fd5b7f3f106594dc74eeef980dae234cde8324dc2497b13d27a0c59e55bd2ca10a07c95473ffffffffffffffffffffffffffffffffffffffff163373ffffffffffffffffffffffffffffffffffffffff1614611532576040517f08c379a000000000000000000000000000000000000000000000000000000000815260206004820152601e60248201527f484f4c4f47524150483a2061646d696e206f6e6c792066756e6374696f6e00006044820152606401610850565b7fbd3084b8c09da87ad159c247a60e209784196be2530cecbbd8f337fdd184882755565b7f3f106594dc74eeef980dae234cde8324dc2497b13d27a0c59e55bd2ca10a07c95473ffffffffffffffffffffffffffffffffffffffff163373ffffffffffffffffffffffffffffffffffffffff161461160c576040517f08c379a000000000000000000000000000000000000000000000000000000000815260206004820152601e60248201527f484f4c4f47524150483a2061646d696e206f6e6c792066756e6374696f6e00006044820152606401610850565b7f2c07db4a05a3231c81b6f50f461c85a47c4b9ab274cf279cb516545e583ab1dd55565b7f3f106594dc74eeef980dae234cde8324dc2497b13d27a0c59e55bd2ca10a07c95473ffffffffffffffffffffffffffffffffffffffff163373ffffffffffffffffffffffffffffffffffffffff16146116e6576040517f08c379a000000000000000000000000000000000000000000000000000000000815260206004820152601e60248201527f484f4c4f47524150483a2061646d696e206f6e6c792066756e6374696f6e00006044820152606401610850565b7f5c8bfa74865379e8f0b031e99cb7c91eefe679e5ff1364c217fbada1ba3d43d455565b60006117347f3f106594dc74eeef980dae234cde8324dc2497b13d27a0c59e55bd2ca10a07c95490565b905090565b6000806000806117677fbd3084b8c09da87ad159c247a60e209784196be2530cecbbd8f337fdd18488275490565b73ffffffffffffffffffffffffffffffffffffffff166320fc06ea60028b63ffffffff1660036040518463ffffffff1660e01b81526004016117ab9392919061208d565b602060405180830381865afa1580156117c8573d6000803e3d6000fd5b505050506040513d601f19601f820116820180604052508101906117ec91906120ae565b7f56825e447adf54cdde5f04815fcf9b1dd26ef9d5c053625147c18b7c130916865490915060008061181e8385611a54565b915091508960000361184057806fffffffffffffffffffffffffffffffff1699505b6000600161186c7f1f3604959b0efac4bf7d61f0c33a52f79508888111e10963d8d7941ebc9811b85490565b611876908b6120f6565b7f2c07db4a05a3231c81b6f50f461c85a47c4b9ab274cf279cb516545e583ab1dd546118a29190612133565b60405160f09290921b7fffff000000000000000000000000000000000000000000000000000000000000166020830152602282015260420160405160208183030381529060405290506119137f5c8bfa74865379e8f0b031e99cb7c91eefe679e5ff1364c217fbada1ba3d43d45490565b61191d908a6120f6565b7f9bd5d4bcceb48def742308e3d5e49a206458ad9978d2a13b249ce344a306f8fb546119499190612133565b611953908d612133565b9b5060008473ffffffffffffffffffffffffffffffffffffffff166340a7bb1087308e8e6000886040518763ffffffff1660e01b815260040161199b969594939291906122db565b6040805180830381865afa1580156119b7573d6000803e3d6000fd5b505050506040513d601f19601f820116820180604052508101906119db919061233c565b5090506402540be400846fffffffffffffffffffffffffffffffff16600a8f611a04919061222c565b8f611a0f9190612133565b611a19908f6120f6565b611a2391906120f6565b611a2d919061222c565b98509650506fffffffffffffffffffffffffffffffff169350505050955095509592505050565b6000808373ffffffffffffffffffffffffffffffffffffffff16634afb422b6040518163ffffffff1660e01b8152600401602060405180830381865afa158015611aa2573d6000803e3d6000fd5b505050506040513d601f19601f82011682018060405250810190611ac69190612360565b6040517fa466222200000000000000000000000000000000000000000000000000000000815261ffff8516600482015230602482015273ffffffffffffffffffffffffffffffffffffffff919091169063a46622229060440160c060405180830381865afa158015611b3c573d6000803e3d6000fd5b505050506040513d601f19601f82011682018060405250810190611b60919061237d565b60409081015190517f765a8a5400000000000000000000000000000000000000000000000000000000815261ffff8516600482015273ffffffffffffffffffffffffffffffffffffffff9091169063765a8a54906024016040805180830381865afa158015611bd3573d6000803e3d6000fd5b505050506040513d601f19601f82011682018060405250810190611bf79190612448565b915091505b9250929050565b61ffff81168114611c1357600080fd5b50565b60008083601f840112611c2857600080fd5b50813567ffffffffffffffff811115611c4057600080fd5b602083019150836020828501011115611bfc57600080fd5b67ffffffffffffffff81168114611c1357600080fd5b60008060008060008060808789031215611c8757600080fd5b8635611c9281611c03565b9550602087013567ffffffffffffffff80821115611caf57600080fd5b611cbb8a838b01611c16565b909750955060408901359150611cd082611c58565b90935060608801359080821115611ce657600080fd5b50611cf389828a01611c16565b979a9699509497509295939492505050565b803563ffffffff81168114611d1957600080fd5b919050565b73ffffffffffffffffffffffffffffffffffffffff81168114611c1357600080fd5b600080600080600080600060c0888a031215611d5b57600080fd5b8735965060208801359550611d7260408901611d05565b94506060880135611d8281611d1e565b93506080880135925060a088013567ffffffffffffffff811115611da557600080fd5b611db18a828b01611c16565b989b979a50959850939692959293505050565b60008060008060808587031215611dda57600080fd5b611de385611d05565b966020860135965060408601359560600135945092505050565b600060208284031215611e0f57600080fd5b8135611e1a81611d1e565b9392505050565b7f4e487b7100000000000000000000000000000000000000000000000000000000600052604160045260246000fd5b600060208284031215611e6257600080fd5b813567ffffffffffffffff80821115611e7a57600080fd5b818401915084601f830112611e8e57600080fd5b813581811115611ea057611ea0611e21565b604051601f82017fffffffffffffffffffffffffffffffffffffffffffffffffffffffffffffffe0908116603f01168101908382118183101715611ee657611ee6611e21565b81604052828152876020848701011115611eff57600080fd5b826020860160208301376000928101602001929092525095945050505050565b600060208284031215611f3157600080fd5b5035919050565b600080600060408486031215611f4d57600080fd5b8335611f5881611d1e565b9250602084013567ffffffffffffffff811115611f7457600080fd5b611f8086828701611c16565b9497909650939450505050565b600080600080600060808688031215611fa557600080fd5b611fae86611d05565b94506020860135935060408601359250606086013567ffffffffffffffff811115611fd857600080fd5b611fe488828901611c16565b969995985093965092949392505050565b8183528181602085013750600060208284010152600060207fffffffffffffffffffffffffffffffffffffffffffffffffffffffffffffffe0601f840116840101905092915050565b602081526000610c50602083018486611ff5565b60058110612089577f4e487b7100000000000000000000000000000000000000000000000000000000600052602160045260246000fd5b9052565b6060810161209b8286612052565b836020830152610c506040830184612052565b6000602082840312156120c057600080fd5b5051919050565b7f4e487b7100000000000000000000000000000000000000000000000000000000600052601160045260246000fd5b6000817fffffffffffffffffffffffffffffffffffffffffffffffffffffffffffffffff048311821515161561212e5761212e6120c7565b500290565b60008219821115612146576121466120c7565b500190565b6000815180845260005b8181101561217157602081850181015186830182015201612155565b81811115612183576000602083870101525b50601f017fffffffffffffffffffffffffffffffffffffffffffffffffffffffffffffffe0169290920160200192915050565b61ffff8816815260c0602082015260006121d360c083018961214b565b82810360408401526121e681888a611ff5565b73ffffffffffffffffffffffffffffffffffffffff87811660608601528616608085015283810360a0850152905061221e818561214b565b9a9950505050505050505050565b600082612262577f4e487b7100000000000000000000000000000000000000000000000000000000600052601260045260246000fd5b500490565b600080600080600080600060e0888a03121561228257600080fd5b875161228d81611d1e565b602089015190975061229e81611d1e565b60408901519096506122af81611d1e565b80955050606088015193506080880151925060a0880151915060c0880151905092959891949750929550565b61ffff8716815273ffffffffffffffffffffffffffffffffffffffff8616602082015260a06040820152600061231560a083018688611ff5565b8415156060840152828103608084015261232f818561214b565b9998505050505050505050565b6000806040838503121561234f57600080fd5b505080516020909101519092909150565b60006020828403121561237257600080fd5b8151611e1a81611d1e565b600060c0828403121561238f57600080fd5b60405160c0810181811067ffffffffffffffff821117156123b2576123b2611e21565b60405282516123c081611c03565b815260208301516123d081611c58565b602082015260408301516123e381611d1e565b604082015260608301516123f681611c03565b6060820152608083015161240981611c58565b608082015260a083015161241c81611d1e565b60a08201529392505050565b80516fffffffffffffffffffffffffffffffff81168114611d1957600080fd5b6000806040838503121561245b57600080fd5b61246483612428565b915061247260208401612428565b9050925092905056fea164736f6c634300080d000a",
  "devdoc": {
    "author": "https://github.com/holographxyz",
    "details": "This contract abstracts all of the LayerZero specific logic into an isolated module",
    "kind": "dev",
    "methods": {
      "constructor": {
        "details": "Constructor is left empty and init is used instead"
      },
      "getBridge()": {
        "details": "Used for beaming holographable assets cross-chain"
      },
      "getInterfaces()": {
        "details": "Holograph uses this contract to store data that needs to be accessed by a large portion of the modules"
      },
      "getJobBaseGas()": {
        "details": "Executing jobs require at least this much gas"
      },
      "getJobGasPerByte()": {
        "details": "Executing jobs require at least this much gas (per payload byte)"
      },
      "getLZEndpoint()": {
        "details": "All lzReceive function calls allow only requests from this address"
      },
      "getMsgBaseGas()": {
        "details": "Cross-chain messages require at least this much gas"
      },
      "getMsgGasPerByte()": {
        "details": "Cross-chain messages require at least this much gas (per payload byte)"
      },
      "getOperator()": {
        "details": "All cross-chain Holograph Bridge beams are handled by the Holograph Operator module"
      },
      "init(bytes)": {
        "details": "This function is called by the deployer/factory when creating a contract",
        "params": {
          "initPayload": "abi encoded payload to use for contract initilaization"
        }
      },
      "lzReceive(uint16,bytes,uint64,bytes)": {
        "details": "This function only allows calls from the configured LayerZero endpoint address"
      },
      "send(uint256,uint256,uint32,address,uint256,bytes)": {
        "details": "Need to add an extra function to get LZ gas amount needed for their internal cross-chain message verification"
      },
      "setBridge(address)": {
        "params": {
          "bridge": "address of the Holograph Bridge smart contract to use"
        }
      },
      "setInterfaces(address)": {
        "params": {
          "interfaces": "address of the Holograph Interfaces smart contract to use"
        }
      },
      "setJobBaseGas(uint256)": {
        "params": {
          "jobBaseGas": "minimum gas amount that a executeJob requires"
        }
      },
      "setJobGasPerByte(uint256)": {
        "params": {
          "jobGasPerByte": "minimum gas amount (per payload byte) that a executeJob requires"
        }
      },
      "setLZEndpoint(address)": {
        "params": {
          "lZEndpoint": "address of the LayerZero Endpoint to use"
        }
      },
      "setMsgBaseGas(uint256)": {
        "params": {
          "msgBaseGas": "minimum gas amount that a message requires"
        }
      },
      "setMsgGasPerByte(uint256)": {
        "params": {
          "msgGasPerByte": "minimum gas amount (per payload byte) that a message requires"
        }
      },
      "setOperator(address)": {
        "params": {
          "operator": "address of the Holograph Operator smart contract to use"
        }
      }
    },
    "stateVariables": {
      "_bridgeSlot": {
        "details": "bytes32(uint256(keccak256('eip1967.Holograph.bridge')) - 1)"
      },
      "_interfacesSlot": {
        "details": "bytes32(uint256(keccak256('eip1967.Holograph.interfaces')) - 1)"
      },
      "_jobBaseGasSlot": {
        "details": "bytes32(uint256(keccak256('eip1967.Holograph.jobBaseGas')) - 1)"
      },
      "_jobGasPerByteSlot": {
        "details": "bytes32(uint256(keccak256('eip1967.Holograph.jobGasPerByte')) - 1)"
      },
      "_lZEndpointSlot": {
        "details": "bytes32(uint256(keccak256('eip1967.Holograph.lZEndpoint')) - 1)"
      },
      "_msgBaseGasSlot": {
        "details": "bytes32(uint256(keccak256('eip1967.Holograph.msgBaseGas')) - 1)"
      },
      "_msgGasPerByteSlot": {
        "details": "bytes32(uint256(keccak256('eip1967.Holograph.msgGasPerByte')) - 1)"
      },
      "_operatorSlot": {
        "details": "bytes32(uint256(keccak256('eip1967.Holograph.operator')) - 1)"
      }
    },
    "title": "Holograph LayerZero Module",
    "version": 1
  },
  "userdoc": {
    "kind": "user",
    "methods": {
      "getBridge()": {
        "notice": "Get the address of the Holograph Bridge module"
      },
      "getInterfaces()": {
        "notice": "Get the address of the Holograph Interfaces module"
      },
      "getJobBaseGas()": {
        "notice": "Get the jobBaseGas value"
      },
      "getJobGasPerByte()": {
        "notice": "Get the jobGasPerByte value"
      },
      "getLZEndpoint()": {
        "notice": "Get the address of the approved LayerZero Endpoint"
      },
      "getMsgBaseGas()": {
        "notice": "Get the msgBaseGas value"
      },
      "getMsgGasPerByte()": {
        "notice": "Get the msgGasPerByte value"
      },
      "getOperator()": {
        "notice": "Get the address of the Holograph Operator module"
      },
      "init(bytes)": {
        "notice": "Used internally to initialize the contract instead of through a constructor"
      },
      "lzReceive(uint16,bytes,uint64,bytes)": {
        "notice": "Receive cross-chain message from LayerZero"
      },
      "setBridge(address)": {
        "notice": "Update the Holograph Bridge module address"
      },
      "setInterfaces(address)": {
        "notice": "Update the Holograph Interfaces module address"
      },
      "setJobBaseGas(uint256)": {
        "notice": "Update the jobBaseGas value"
      },
      "setJobGasPerByte(uint256)": {
        "notice": "Update the jobGasPerByte value"
      },
      "setLZEndpoint(address)": {
        "notice": "Update the approved LayerZero Endpoint address"
      },
      "setMsgBaseGas(uint256)": {
        "notice": "Update the msgBaseGas value"
      },
      "setMsgGasPerByte(uint256)": {
        "notice": "Update the msgGasPerByte value"
      },
      "setOperator(address)": {
        "notice": "Update the Holograph Operator module address"
      }
    },
    "notice": "Holograph module for enabling LayerZero cross-chain messaging",
    "version": 1
  },
  "storageLayout": {
    "storage": [],
    "types": null
  }
}