{
  "address": "0xEeCCb260C6B91236E143DE4B838601437d7F64A6",
  "abi": [
    {
      "inputs": [],
      "stateMutability": "nonpayable",
      "type": "constructor"
    },
    {
      "anonymous": false,
      "inputs": [
        {
          "indexed": true,
          "internalType": "address",
          "name": "previousOwner",
          "type": "address"
        },
        {
          "indexed": true,
          "internalType": "address",
          "name": "newOwner",
          "type": "address"
        }
      ],
      "name": "OwnershipTransferred",
      "type": "event"
    },
    {
      "anonymous": false,
      "inputs": [
        {
          "indexed": false,
          "internalType": "uint256",
          "name": "tokenId",
          "type": "uint256"
        },
        {
          "indexed": false,
          "internalType": "address[]",
          "name": "recipients",
          "type": "address[]"
        },
        {
          "indexed": false,
          "internalType": "uint256[]",
          "name": "bps",
          "type": "uint256[]"
        }
      ],
      "name": "SecondarySaleFees",
      "type": "event"
    },
    {
      "inputs": [],
      "name": "admin",
      "outputs": [
        {
          "internalType": "address",
          "name": "",
          "type": "address"
        }
      ],
      "stateMutability": "view",
      "type": "function"
    },
    {
      "inputs": [
        {
          "internalType": "address",
          "name": "target",
          "type": "address"
        },
        {
          "internalType": "bytes",
          "name": "data",
          "type": "bytes"
        }
      ],
      "name": "adminCall",
      "outputs": [],
      "stateMutability": "payable",
      "type": "function"
    },
    {
      "inputs": [
        {
          "internalType": "uint256",
          "name": "tokenId",
          "type": "uint256"
        }
      ],
      "name": "bidSharesForToken",
      "outputs": [
        {
          "components": [
            {
              "components": [
                {
                  "internalType": "uint256",
                  "name": "value",
                  "type": "uint256"
                }
              ],
              "internalType": "struct Zora.Decimal",
              "name": "prevOwner",
              "type": "tuple"
            },
            {
              "components": [
                {
                  "internalType": "uint256",
                  "name": "value",
                  "type": "uint256"
                }
              ],
              "internalType": "struct Zora.Decimal",
              "name": "creator",
              "type": "tuple"
            },
            {
              "components": [
                {
                  "internalType": "uint256",
                  "name": "value",
                  "type": "uint256"
                }
              ],
              "internalType": "struct Zora.Decimal",
              "name": "owner",
              "type": "tuple"
            }
          ],
          "internalType": "struct Zora.BidShares",
          "name": "bidShares",
          "type": "tuple"
        }
      ],
      "stateMutability": "view",
      "type": "function"
    },
    {
      "inputs": [
        {
          "internalType": "address",
          "name": "",
          "type": "address"
        },
        {
          "internalType": "uint256",
          "name": "tokenId",
          "type": "uint256"
        },
        {
          "internalType": "uint256",
          "name": "amount",
          "type": "uint256"
        }
      ],
      "name": "calculateRoyaltyFee",
      "outputs": [
        {
          "internalType": "uint256",
          "name": "",
          "type": "uint256"
        }
      ],
      "stateMutability": "view",
      "type": "function"
    },
    {
      "inputs": [
        {
          "internalType": "address payable[]",
          "name": "addresses",
          "type": "address[]"
        },
        {
          "internalType": "uint256[]",
          "name": "bps",
          "type": "uint256[]"
        }
      ],
      "name": "configurePayouts",
      "outputs": [],
      "stateMutability": "nonpayable",
      "type": "function"
    },
    {
      "inputs": [],
      "name": "getAdmin",
      "outputs": [
        {
          "internalType": "address",
          "name": "adminAddress",
          "type": "address"
        }
      ],
      "stateMutability": "view",
      "type": "function"
    },
    {
      "inputs": [],
      "name": "getEthPayout",
      "outputs": [],
      "stateMutability": "nonpayable",
      "type": "function"
    },
    {
      "inputs": [
        {
          "internalType": "uint256",
          "name": "tokenId",
          "type": "uint256"
        }
      ],
      "name": "getFeeBps",
      "outputs": [
        {
          "internalType": "uint256[]",
          "name": "",
          "type": "uint256[]"
        }
      ],
      "stateMutability": "view",
      "type": "function"
    },
    {
      "inputs": [
        {
          "internalType": "uint256",
          "name": "tokenId",
          "type": "uint256"
        }
      ],
      "name": "getFeeRecipients",
      "outputs": [
        {
          "internalType": "address payable[]",
          "name": "",
          "type": "address[]"
        }
      ],
      "stateMutability": "view",
      "type": "function"
    },
    {
      "inputs": [
        {
          "internalType": "uint256",
          "name": "tokenId",
          "type": "uint256"
        }
      ],
      "name": "getFees",
      "outputs": [
        {
          "internalType": "address payable[]",
          "name": "",
          "type": "address[]"
        },
        {
          "internalType": "uint256[]",
          "name": "",
          "type": "uint256[]"
        }
      ],
      "stateMutability": "view",
      "type": "function"
    },
    {
      "inputs": [],
      "name": "getOwner",
      "outputs": [
        {
          "internalType": "address",
          "name": "ownerAddress",
          "type": "address"
        }
      ],
      "stateMutability": "view",
      "type": "function"
    },
    {
      "inputs": [],
      "name": "getPayoutInfo",
      "outputs": [
        {
          "internalType": "address payable[]",
          "name": "addresses",
          "type": "address[]"
        },
        {
          "internalType": "uint256[]",
          "name": "bps",
          "type": "uint256[]"
        }
      ],
      "stateMutability": "view",
      "type": "function"
    },
    {
      "inputs": [
        {
          "internalType": "uint256",
          "name": "tokenId",
          "type": "uint256"
        }
      ],
      "name": "getRoyalties",
      "outputs": [
        {
          "internalType": "address payable[]",
          "name": "",
          "type": "address[]"
        },
        {
          "internalType": "uint256[]",
          "name": "",
          "type": "uint256[]"
        }
      ],
      "stateMutability": "view",
      "type": "function"
    },
    {
      "inputs": [
        {
          "internalType": "string",
          "name": "tokenName",
          "type": "string"
        }
      ],
      "name": "getTokenAddress",
      "outputs": [
        {
          "internalType": "address",
          "name": "",
          "type": "address"
        }
      ],
      "stateMutability": "view",
      "type": "function"
    },
    {
      "inputs": [
        {
          "internalType": "address",
          "name": "tokenAddress",
          "type": "address"
        }
      ],
      "name": "getTokenPayout",
      "outputs": [],
      "stateMutability": "nonpayable",
      "type": "function"
    },
    {
      "inputs": [
        {
          "internalType": "address[]",
          "name": "tokenAddresses",
          "type": "address[]"
        }
      ],
      "name": "getTokensPayout",
      "outputs": [],
      "stateMutability": "nonpayable",
      "type": "function"
    },
    {
      "inputs": [
        {
          "internalType": "bytes",
          "name": "data",
          "type": "bytes"
        }
      ],
      "name": "init",
      "outputs": [
        {
          "internalType": "bytes4",
          "name": "",
          "type": "bytes4"
        }
      ],
      "stateMutability": "nonpayable",
      "type": "function"
    },
    {
      "inputs": [
        {
          "internalType": "bytes",
          "name": "data",
          "type": "bytes"
        }
      ],
      "name": "initPA1D",
      "outputs": [
        {
          "internalType": "bytes4",
          "name": "",
          "type": "bytes4"
        }
      ],
      "stateMutability": "nonpayable",
      "type": "function"
    },
    {
      "inputs": [],
      "name": "marketContract",
      "outputs": [
        {
          "internalType": "address",
          "name": "",
          "type": "address"
        }
      ],
      "stateMutability": "view",
      "type": "function"
    },
    {
      "inputs": [],
      "name": "owner",
      "outputs": [
        {
          "internalType": "address",
          "name": "",
          "type": "address"
        }
      ],
      "stateMutability": "view",
      "type": "function"
    },
    {
      "inputs": [
        {
          "internalType": "address",
          "name": "target",
          "type": "address"
        },
        {
          "internalType": "bytes",
          "name": "data",
          "type": "bytes"
        }
      ],
      "name": "ownerCall",
      "outputs": [],
      "stateMutability": "payable",
      "type": "function"
    },
    {
      "inputs": [
        {
          "internalType": "uint256",
          "name": "tokenId",
          "type": "uint256"
        },
        {
          "internalType": "uint256",
          "name": "value",
          "type": "uint256"
        }
      ],
      "name": "royaltyInfo",
      "outputs": [
        {
          "internalType": "address",
          "name": "",
          "type": "address"
        },
        {
          "internalType": "uint256",
          "name": "",
          "type": "uint256"
        }
      ],
      "stateMutability": "view",
      "type": "function"
    },
    {
      "inputs": [
        {
          "internalType": "address",
          "name": "adminAddress",
          "type": "address"
        }
      ],
      "name": "setAdmin",
      "outputs": [],
      "stateMutability": "nonpayable",
      "type": "function"
    },
    {
      "inputs": [
        {
          "internalType": "address",
          "name": "ownerAddress",
          "type": "address"
        }
      ],
      "name": "setOwner",
      "outputs": [],
      "stateMutability": "nonpayable",
      "type": "function"
    },
    {
      "inputs": [
        {
          "internalType": "uint256",
          "name": "tokenId",
          "type": "uint256"
        },
        {
          "internalType": "address payable",
          "name": "receiver",
          "type": "address"
        },
        {
          "internalType": "uint256",
          "name": "bp",
          "type": "uint256"
        }
      ],
      "name": "setRoyalties",
      "outputs": [],
      "stateMutability": "nonpayable",
      "type": "function"
    },
    {
      "inputs": [
        {
          "internalType": "bytes4",
          "name": "interfaceId",
          "type": "bytes4"
        }
      ],
      "name": "supportsInterface",
      "outputs": [
        {
          "internalType": "bool",
          "name": "",
          "type": "bool"
        }
      ],
      "stateMutability": "pure",
      "type": "function"
    },
    {
      "inputs": [
        {
          "internalType": "address",
          "name": "",
          "type": "address"
        },
        {
          "internalType": "uint256",
          "name": "tokenId",
          "type": "uint256"
        }
      ],
      "name": "tokenCreator",
      "outputs": [
        {
          "internalType": "address",
          "name": "",
          "type": "address"
        }
      ],
      "stateMutability": "view",
      "type": "function"
    },
    {
      "inputs": [
        {
          "internalType": "uint256",
          "name": "tokenId",
          "type": "uint256"
        }
      ],
      "name": "tokenCreators",
      "outputs": [
        {
          "internalType": "address",
          "name": "",
          "type": "address"
        }
      ],
      "stateMutability": "view",
      "type": "function"
    },
    {
      "inputs": [
        {
          "internalType": "address",
          "name": "newOwner",
          "type": "address"
        }
      ],
      "name": "transferOwnership",
      "outputs": [],
      "stateMutability": "nonpayable",
      "type": "function"
    }
  ],
  "transactionHash": "0xecb6eb7bf210f3ee0c5c689b308369002bdec3c20ac1fde9b118d1dcbe622c37",
  "args": [],
  "numDeployments": 1,
  "solcInputHash": "2e4e12d7d604fac31e1a6fca2c3b50e3",
  "bytecode": "0x608060405234801561001057600080fd5b506130dc806100206000396000f3fe6080604052600436106101c25760003560e01c80638da5cb5b116100f7578063c409123611610095578063eb66dbcf11610064578063eb66dbcf1461057f578063f2fde38b14610592578063f851a440146105b2578063f9ce0582146105c757600080fd5b8063c40912361461051f578063d5a06d4c146104ec578063e0fd045f1461053f578063e2c7f3381461055f57600080fd5b8063b85ed7e4116100d1578063b85ed7e41461049f578063b9c4d9fb146104bf578063bb3bafd6146104ec578063bf64a82d1461050c57600080fd5b80638da5cb5b14610454578063990803c314610469578063a1794bcd1461048c57600080fd5b80633328d219116101645780636e9960c31161013e5780636e9960c31461037d578063704b6c02146103d2578063860110f5146103f2578063893d20e81461042057600080fd5b80633328d219146102ec5780634ddf47d41461030c57806365b85eb51461035d57600080fd5b806313af4035116101a057806313af4035146102405780631949ddf31461026057806320c60d2a146102805780632a55205a146102a057600080fd5b806301ffc9a7146101c75780630ebd4c7f146101fc57806312cb473814610229575b600080fd5b3480156101d357600080fd5b506101e76101e2366004612828565b61060c565b60405190151581526020015b60405180910390f35b34801561020857600080fd5b5061021c61021736600461286a565b610914565b6040516101f391906128be565b34801561023557600080fd5b5061023e6109d5565b005b34801561024c57600080fd5b5061023e61025b3660046128f3565b6109e7565b34801561026c57600080fd5b5061023e61027b3660046128f3565b610b07565b34801561028c57600080fd5b5061023e61029b3660046129b2565b610b1b565b3480156102ac57600080fd5b506102c06102bb366004612a51565b610b2c565b6040805173ffffffffffffffffffffffffffffffffffffffff90931683526020830191909152016101f3565b3480156102f857600080fd5b5061023e610307366004612ad9565b610bdc565b34801561031857600080fd5b5061032c610327366004612c11565b610d7e565b6040517fffffffff0000000000000000000000000000000000000000000000000000000090911681526020016101f3565b34801561036957600080fd5b5061032c610378366004612c11565b610ed0565b34801561038957600080fd5b507f5705f5753aa4f617eef2cae1dada3d3355e9387b04d19191f09b545e684ca50d545b60405173ffffffffffffffffffffffffffffffffffffffff90911681526020016101f3565b3480156103de57600080fd5b5061023e6103ed3660046128f3565b610fd2565b3480156103fe57600080fd5b5061041261040d366004612c62565b6110ac565b6040519081526020016101f3565b34801561042c57600080fd5b507f89b583059fdb0b2e807359b64eba1a8a1e6d099210701fafe6dad5dd2cd64fb8546103ad565b34801561046057600080fd5b506103ad61112e565b34801561047557600080fd5b5061047e61115d565b6040516101f3929190612cdd565b34801561049857600080fd5b50306103ad565b3480156104ab57600080fd5b506103ad6104ba366004612d0b565b611178565b3480156104cb57600080fd5b506104df6104da36600461286a565b6111ca565b6040516101f39190612d37565b3480156104f857600080fd5b5061047e61050736600461286a565b6112e6565b61023e61051a366004612d4a565b61147f565b34801561052b57600080fd5b506103ad61053a366004612c11565b611561565b34801561054b57600080fd5b506103ad61055a36600461286a565b61156c565b34801561056b57600080fd5b5061023e61057a366004612dcf565b6115bc565b61023e61058d366004612d4a565b61177d565b34801561059e57600080fd5b5061023e6105ad3660046128f3565b6117eb565b3480156105be57600080fd5b506103ad6118fa565b3480156105d357600080fd5b506105e76105e236600461286a565b611924565b60408051825151815260208084015151908201529181015151908201526060016101f3565b60007f2a55205a000000000000000000000000000000000000000000000000000000007fffffffff000000000000000000000000000000000000000000000000000000008316148061069f57507fb7799584000000000000000000000000000000000000000000000000000000007fffffffff000000000000000000000000000000000000000000000000000000008316145b806106eb57507fb9c4d9fb000000000000000000000000000000000000000000000000000000007fffffffff000000000000000000000000000000000000000000000000000000008316145b8061073757507fbb3bafd6000000000000000000000000000000000000000000000000000000007fffffffff000000000000000000000000000000000000000000000000000000008316145b8061078357507fd5a06d4c000000000000000000000000000000000000000000000000000000007fffffffff000000000000000000000000000000000000000000000000000000008316145b806107cf57507fb85ed7e4000000000000000000000000000000000000000000000000000000007fffffffff000000000000000000000000000000000000000000000000000000008316145b8061081b57507f860110f5000000000000000000000000000000000000000000000000000000007fffffffff000000000000000000000000000000000000000000000000000000008316145b8061086757507fa1794bcd000000000000000000000000000000000000000000000000000000007fffffffff000000000000000000000000000000000000000000000000000000008316145b806108b357507fe0fd045f000000000000000000000000000000000000000000000000000000007fffffffff000000000000000000000000000000000000000000000000000000008316145b806108ff57507ff9ce0582000000000000000000000000000000000000000000000000000000007fffffffff000000000000000000000000000000000000000000000000000000008316145b1561090c57506001919050565b506000919050565b60408051600180825281830190925260609160009190602080830190803683370190505090506000610945846119cc565b73ffffffffffffffffffffffffffffffffffffffff16036109a6577f3ab91e3c2ba71a57537d782545f8feb1d402b604f5e070fa6c3b911fc2f18f75548160008151811061099557610995612e07565b6020026020010181815250506109cf565b6109af83611a33565b816000815181106109c2576109c2612e07565b6020026020010181815250505b92915050565b6109dd611a73565b6109e5611b68565b565b6109ef611cda565b610a5a576040517f08c379a000000000000000000000000000000000000000000000000000000000815260206004820152601960248201527f504131443a2063616c6c6572206e6f7420616e206f776e65720000000000000060448201526064015b60405180910390fd5b6000610a847f89b583059fdb0b2e807359b64eba1a8a1e6d099210701fafe6dad5dd2cd64fb85490565b9050817f89b583059fdb0b2e807359b64eba1a8a1e6d099210701fafe6dad5dd2cd64fb8558173ffffffffffffffffffffffffffffffffffffffff168173ffffffffffffffffffffffffffffffffffffffff167f8be0079c531659141344cd1fd0a4f28419497f9722a3daafe3b4186f6b6457e060405160405180910390a35050565b610b0f611a73565b610b1881611ed5565b50565b610b23611a73565b610b1881612191565b60008080610b39856119cc565b73ffffffffffffffffffffffffffffffffffffffff1603610bbf577ffd430e1c7265cc31dbd9a10ce657e68878a41cfe179c80cd68c5edf9615168485461271084610ba27f3ab91e3c2ba71a57537d782545f8feb1d402b604f5e070fa6c3b911fc2f18f755490565b610bac9190612e65565b610bb69190612ea2565b91509150610bd5565b610bc8846119cc565b61271084610ba287611a33565b9250929050565b610be4611cda565b610c4a576040517f08c379a000000000000000000000000000000000000000000000000000000000815260206004820152601960248201527f504131443a2063616c6c6572206e6f7420616e206f776e6572000000000000006044820152606401610a51565b8051825114610cb5576040517f08c379a000000000000000000000000000000000000000000000000000000000815260206004820152601f60248201527f504131443a206d6973736d617463686564206172726179206c656e67687473006044820152606401610a51565b6000805b8351811015610cfb57828181518110610cd457610cd4612e07565b602002602001015182610ce79190612edd565b915080610cf381612ef5565b915050610cb9565b508061271014610d67576040517f08c379a000000000000000000000000000000000000000000000000000000000815260206004820152601c60248201527f504131443a2062707320646f776e277420657175616c203130303030000000006044820152606401610a51565b610d708361247c565b610d798261250d565b505050565b6000610daa7f4e5f991bca30eca2d4643aaefa807e88f96a4a97398933d572a3c0d973004a0154151590565b15610e11576040517f08c379a000000000000000000000000000000000000000000000000000000000815260206004820152601960248201527f504131443a20616c726561647920696e697469616c697a6564000000000000006044820152606401610a51565b337f5705f5753aa4f617eef2cae1dada3d3355e9387b04d19191f09b545e684ca50d55337f89b583059fdb0b2e807359b64eba1a8a1e6d099210701fafe6dad5dd2cd64fb85560008083806020019051810190610e6e9190612f2d565b91509150610e7e600083836115bc565b610ea760017f4e5f991bca30eca2d4643aaefa807e88f96a4a97398933d572a3c0d973004a0155565b507f4ddf47d4000000000000000000000000000000000000000000000000000000009392505050565b7f33a44e907d5bf333e203bebc20bb8c91c00375213b80f466a908f3d50b337c6c546000908015610f5d576040517f08c379a000000000000000000000000000000000000000000000000000000000815260206004820152601960248201527f504131443a20616c726561647920696e697469616c697a6564000000000000006044820152606401610a51565b60008084806020019051810190610f749190612f2d565b91509150610f84600083836115bc565b505060017f33a44e907d5bf333e203bebc20bb8c91c00375213b80f466a908f3d50b337c6c55507f4ddf47d40000000000000000000000000000000000000000000000000000000092915050565b7f5705f5753aa4f617eef2cae1dada3d3355e9387b04d19191f09b545e684ca50d5473ffffffffffffffffffffffffffffffffffffffff163373ffffffffffffffffffffffffffffffffffffffff1614611088576040517f08c379a000000000000000000000000000000000000000000000000000000000815260206004820152601e60248201527f484f4c4f47524150483a2061646d696e206f6e6c792066756e6374696f6e00006044820152606401610a51565b7f5705f5753aa4f617eef2cae1dada3d3355e9387b04d19191f09b545e684ca50d55565b6000806110b8846119cc565b73ffffffffffffffffffffffffffffffffffffffff160361111a57612710826110ff7f3ab91e3c2ba71a57537d782545f8feb1d402b604f5e070fa6c3b911fc2f18f755490565b6111099190612e65565b6111139190612ea2565b9050611127565b612710826110ff85611a33565b9392505050565b60006111587f89b583059fdb0b2e807359b64eba1a8a1e6d099210701fafe6dad5dd2cd64fb85490565b905090565b60608061116861259e565b9150611172612697565b90509091565b600080611184836119cc565b905073ffffffffffffffffffffffffffffffffffffffff81166111275750507ffd430e1c7265cc31dbd9a10ce657e68878a41cfe179c80cd68c5edf961516848546109cf565b604080516001808252818301909252606091600091906020808301908036833701905050905060006111fb846119cc565b73ffffffffffffffffffffffffffffffffffffffff160361128a577ffd430e1c7265cc31dbd9a10ce657e68878a41cfe179c80cd68c5edf961516848548160008151811061124b5761124b612e07565b602002602001019073ffffffffffffffffffffffffffffffffffffffff16908173ffffffffffffffffffffffffffffffffffffffff16815250506109cf565b611293836119cc565b816000815181106112a6576112a6612e07565b602002602001019073ffffffffffffffffffffffffffffffffffffffff16908173ffffffffffffffffffffffffffffffffffffffff168152505092915050565b6040805160018082528183019092526060918291600091602080830190803683375050604080516001808252818301909252929350600092915060208083019080368337019050509050600061133b866119cc565b73ffffffffffffffffffffffffffffffffffffffff16036113f6577ffd430e1c7265cc31dbd9a10ce657e68878a41cfe179c80cd68c5edf961516848548260008151811061138b5761138b612e07565b73ffffffffffffffffffffffffffffffffffffffff909216602092830291909101909101527f3ab91e3c2ba71a57537d782545f8feb1d402b604f5e070fa6c3b911fc2f18f7554816000815181106113e5576113e5612e07565b602002602001018181525050611475565b6113ff856119cc565b8260008151811061141257611412612e07565b602002602001019073ffffffffffffffffffffffffffffffffffffffff16908173ffffffffffffffffffffffffffffffffffffffff168152505061145585611a33565b8160008151811061146857611468612e07565b6020026020010181815250505b9094909350915050565b7f5705f5753aa4f617eef2cae1dada3d3355e9387b04d19191f09b545e684ca50d5473ffffffffffffffffffffffffffffffffffffffff163373ffffffffffffffffffffffffffffffffffffffff1614611535576040517f08c379a000000000000000000000000000000000000000000000000000000000815260206004820152601e60248201527f484f4c4f47524150483a2061646d696e206f6e6c792066756e6374696f6e00006044820152606401610a51565b808260003760008082600034875af13d6000803e808015611555573d6000f35b3d6000fd5b5050505050565b60006109cf8261276f565b600080611578836119cc565b905073ffffffffffffffffffffffffffffffffffffffff81166109cf577ffd430e1c7265cc31dbd9a10ce657e68878a41cfe179c80cd68c5edf96151684854611127565b6115c4611cda565b61162a576040517f08c379a000000000000000000000000000000000000000000000000000000000815260206004820152601960248201527f504131443a2063616c6c6572206e6f7420616e206f776e6572000000000000006044820152606401610a51565b826000036116875761165a827ffd430e1c7265cc31dbd9a10ce657e68878a41cfe179c80cd68c5edf96151684855565b611682817f3ab91e3c2ba71a57537d782545f8feb1d402b604f5e070fa6c3b911fc2f18f7555565b61169b565b6116918383612785565b61169b83826127ea565b6040805160018082528183019092526000916020808301908036833701905050905082816000815181106116d1576116d1612e07565b73ffffffffffffffffffffffffffffffffffffffff9290921660209283029190910190910152604080516001808252818301909252600091816020016020820280368337019050509050828160008151811061172f5761172f612e07565b6020026020010181815250507f99aba1d63749cfd5ad1afda7c4663840924d54eb5f005bbbeadedc6ec13674b285838360405161176e93929190612f5b565b60405180910390a15050505050565b611785611cda565b611535576040517f08c379a000000000000000000000000000000000000000000000000000000000815260206004820152601960248201527f504131443a2063616c6c6572206e6f7420616e206f776e6572000000000000006044820152606401610a51565b6117f3611cda565b611859576040517f08c379a000000000000000000000000000000000000000000000000000000000815260206004820152601960248201527f504131443a2063616c6c6572206e6f7420616e206f776e6572000000000000006044820152606401610a51565b73ffffffffffffffffffffffffffffffffffffffff81166118d6576040517f08c379a000000000000000000000000000000000000000000000000000000000815260206004820152601760248201527f484f4c4f47524150483a207a65726f20616464726573730000000000000000006044820152606401610a51565b7f89b583059fdb0b2e807359b64eba1a8a1e6d099210701fafe6dad5dd2cd64fb855565b60006111587f5705f5753aa4f617eef2cae1dada3d3355e9387b04d19191f09b545e684ca50d5490565b6119616040805160808101825260006060820181815282528251602080820185528282528084019190915283519081018452908152909182015290565b8051600090819052604082015181905261197a836119cc565b73ffffffffffffffffffffffffffffffffffffffff16036119c3577f3ab91e3c2ba71a57537d782545f8feb1d402b604f5e070fa6c3b911fc2f18f75545b602082015152919050565b6119b882611a33565b6040517f656970313936372e486f6c6f67726170682e504131442e7265636569766572006020820152603f81018290526000908190600190605f015b6040516020818303038152906040528051906020012060001c611a2b9190612fd2565b549392505050565b6040517f656970313936372e486f6c6f67726170682e504131442e6270000000000000006020820152603981018290526000908190600190605901611a08565b611a7b611cda565b6109e557600080611a8a61259e565b90503360005b8251811015611b00578173ffffffffffffffffffffffffffffffffffffffff16838281518110611ac257611ac2612e07565b602002602001015173ffffffffffffffffffffffffffffffffffffffff1603611aee5760019350611b00565b80611af881612ef5565b915050611a90565b5082610d79576040517f08c379a000000000000000000000000000000000000000000000000000000000815260206004820152601b60248201527f504131443a2073656e646572206e6f7420617574686f72697a656400000000006044820152606401610a51565b6000611b7261259e565b90506000611b7e612697565b8251909150600081611b9281615b04612e65565b611b9c9190612edd565b905047612710611bac8383612fd2565b11611c13576040517f08c379a000000000000000000000000000000000000000000000000000000000815260206004820181905260248201527f504131443a204e6f7420656e6f7567682045544820746f207472616e736665726044820152606401610a51565b611c1d8282612fd2565b90506000805b84811015611cd15761271083878381518110611c4157611c41612e07565b6020026020010151611c539190612e65565b611c5d9190612ea2565b9150868181518110611c7157611c71612e07565b602002602001015173ffffffffffffffffffffffffffffffffffffffff166108fc839081150290604051600060405180830381858888f19350505050158015611cbe573d6000803e3d6000fd5b5080611cc981612ef5565b915050611c23565b50505050505050565b6000611d047f89b583059fdb0b2e807359b64eba1a8a1e6d099210701fafe6dad5dd2cd64fb85490565b73ffffffffffffffffffffffffffffffffffffffff163373ffffffffffffffffffffffffffffffffffffffff161480611d8957507f5705f5753aa4f617eef2cae1dada3d3355e9387b04d19191f09b545e684ca50d5473ffffffffffffffffffffffffffffffffffffffff163373ffffffffffffffffffffffffffffffffffffffff16145b80611e2d57503073ffffffffffffffffffffffffffffffffffffffff1663893d20e86040518163ffffffff1660e01b8152600401602060405180830381865afa158015611dda573d6000803e3d6000fd5b505050506040513d601f19601f82011682018060405250810190611dfe9190612fe9565b73ffffffffffffffffffffffffffffffffffffffff163373ffffffffffffffffffffffffffffffffffffffff16145b8061115857503073ffffffffffffffffffffffffffffffffffffffff16636e9960c36040518163ffffffff1660e01b8152600401602060405180830381865afa158015611e7e573d6000803e3d6000fd5b505050506040513d601f19601f82011682018060405250810190611ea29190612fe9565b73ffffffffffffffffffffffffffffffffffffffff163373ffffffffffffffffffffffffffffffffffffffff1614905090565b6000611edf61259e565b90506000611eeb612697565b82516040517f70a0823100000000000000000000000000000000000000000000000000000000815230600482015291925090849060009073ffffffffffffffffffffffffffffffffffffffff8316906370a0823190602401602060405180830381865afa158015611f60573d6000803e3d6000fd5b505050506040513d601f19601f82011682018060405250810190611f849190613006565b90506127108111612017576040517f08c379a000000000000000000000000000000000000000000000000000000000815260206004820152602360248201527f504131443a204e6f7420656e6f75676820746f6b656e7320746f207472616e7360448201527f66657200000000000000000000000000000000000000000000000000000000006064820152608401610a51565b6000805b84811015612187576127108387838151811061203957612039612e07565b602002602001015161204b9190612e65565b6120559190612ea2565b91508373ffffffffffffffffffffffffffffffffffffffff1663a9059cbb88838151811061208557612085612e07565b6020026020010151846040518363ffffffff1660e01b81526004016120cc92919073ffffffffffffffffffffffffffffffffffffffff929092168252602082015260400190565b6020604051808303816000875af11580156120eb573d6000803e3d6000fd5b505050506040513d601f19601f8201168201806040525081019061210f919061301f565b612175576040517f08c379a000000000000000000000000000000000000000000000000000000000815260206004820152601d60248201527f504131443a20436f756c646e2774207472616e7366657220746f6b656e0000006044820152606401610a51565b8061217f81612ef5565b91505061201b565b5050505050505050565b600061219b61259e565b905060006121a7612697565b905060008080805b8651811015611cd1578681815181106121ca576121ca612e07565b60209081029190910101516040517f70a0823100000000000000000000000000000000000000000000000000000000815230600482015290945073ffffffffffffffffffffffffffffffffffffffff8516906370a0823190602401602060405180830381865afa158015612242573d6000803e3d6000fd5b505050506040513d601f19601f820116820180604052508101906122669190613006565b925061271083116122f9576040517f08c379a000000000000000000000000000000000000000000000000000000000815260206004820152602360248201527f504131443a204e6f7420656e6f75676820746f6b656e7320746f207472616e7360448201527f66657200000000000000000000000000000000000000000000000000000000006064820152608401610a51565b60005b8651811015612469576127108487838151811061231b5761231b612e07565b602002602001015161232d9190612e65565b6123379190612ea2565b92508473ffffffffffffffffffffffffffffffffffffffff1663a9059cbb88838151811061236757612367612e07565b6020026020010151856040518363ffffffff1660e01b81526004016123ae92919073ffffffffffffffffffffffffffffffffffffffff929092168252602082015260400190565b6020604051808303816000875af11580156123cd573d6000803e3d6000fd5b505050506040513d601f19601f820116820180604052508101906123f1919061301f565b612457576040517f08c379a000000000000000000000000000000000000000000000000000000000815260206004820152601d60248201527f504131443a20436f756c646e2774207472616e7366657220746f6b656e0000006044820152606401610a51565b8061246181612ef5565b9150506122fc565b508061247481612ef5565b9150506121af565b80517f700a541bc37f227b0d36d34e7b77cc0108bde768297c6f80f448f380387371df818155906000805b8281101561155a5760408051602081018390529081018590526060016040516020818303038152906040528051906020012093508481815181106124ed576124ed612e07565b60200260200101519150818455808061250590612ef5565b9150506124a7565b80517f7a62e8104cd2cc2ef6bd3a26bcb71428108fbe0e0ead6a5bfb8676781e2ed28d818155906000805b8281101561155a57604080516020810183905290810185905260600160405160208183030381529060405280519060200120935084818151811061257e5761257e612e07565b60200260200101519150818455808061259690612ef5565b915050612538565b7f700a541bc37f227b0d36d34e7b77cc0108bde768297c6f80f448f380387371df8054606091908067ffffffffffffffff8111156125de576125de612910565b604051908082528060200260200182016040528015612607578160200160208202803683370190505b5092506000805b82811015612690576040805160208101839052908101859052606001604051602081830303815290604052805190602001209350835491508185828151811061265957612659612e07565b73ffffffffffffffffffffffffffffffffffffffff909216602092830291909101909101528061268881612ef5565b91505061260e565b5050505090565b7f7a62e8104cd2cc2ef6bd3a26bcb71428108fbe0e0ead6a5bfb8676781e2ed28d8054606091908067ffffffffffffffff8111156126d7576126d7612910565b604051908082528060200260200182016040528015612700578160200160208202803683370190505b5092506000805b82811015612690576040805160208101839052908101859052606001604051602081830303815290604052805190602001209350835491508185828151811061275257612752612e07565b60209081029190910101528061276781612ef5565b915050612707565b600080600183604051602001611a089190613041565b6040517f656970313936372e486f6c6f67726170682e504131442e7265636569766572006020820152603f8101839052600090600190605f015b6040516020818303038152906040528051906020012060001c6127e29190612fd2565b919091555050565b6040517f656970313936372e486f6c6f67726170682e504131442e6270000000000000006020820152603981018390526000906001906059016127bf565b60006020828403121561283a57600080fd5b81357fffffffff000000000000000000000000000000000000000000000000000000008116811461112757600080fd5b60006020828403121561287c57600080fd5b5035919050565b600081518084526020808501945080840160005b838110156128b357815187529582019590820190600101612897565b509495945050505050565b6020815260006111276020830184612883565b73ffffffffffffffffffffffffffffffffffffffff81168114610b1857600080fd5b60006020828403121561290557600080fd5b8135611127816128d1565b7f4e487b7100000000000000000000000000000000000000000000000000000000600052604160045260246000fd5b604051601f82017fffffffffffffffffffffffffffffffffffffffffffffffffffffffffffffffe016810167ffffffffffffffff8111828210171561298657612986612910565b604052919050565b600067ffffffffffffffff8211156129a8576129a8612910565b5060051b60200190565b600060208083850312156129c557600080fd5b823567ffffffffffffffff8111156129dc57600080fd5b8301601f810185136129ed57600080fd5b8035612a006129fb8261298e565b61293f565b81815260059190911b82018301908381019087831115612a1f57600080fd5b928401925b82841015612a46578335612a37816128d1565b82529284019290840190612a24565b979650505050505050565b60008060408385031215612a6457600080fd5b50508035926020909101359150565b600082601f830112612a8457600080fd5b81356020612a946129fb8361298e565b82815260059290921b84018101918181019086841115612ab357600080fd5b8286015b84811015612ace5780358352918301918301612ab7565b509695505050505050565b60008060408385031215612aec57600080fd5b823567ffffffffffffffff80821115612b0457600080fd5b818501915085601f830112612b1857600080fd5b81356020612b286129fb8361298e565b82815260059290921b84018101918181019089841115612b4757600080fd5b948201945b83861015612b6e578535612b5f816128d1565b82529482019490820190612b4c565b96505086013592505080821115612b8457600080fd5b50612b9185828601612a73565b9150509250929050565b600067ffffffffffffffff831115612bb557612bb5612910565b612be660207fffffffffffffffffffffffffffffffffffffffffffffffffffffffffffffffe0601f8601160161293f565b9050828152838383011115612bfa57600080fd5b828260208301376000602084830101529392505050565b600060208284031215612c2357600080fd5b813567ffffffffffffffff811115612c3a57600080fd5b8201601f81018413612c4b57600080fd5b612c5a84823560208401612b9b565b949350505050565b600080600060608486031215612c7757600080fd5b8335612c82816128d1565b95602085013595506040909401359392505050565b600081518084526020808501945080840160005b838110156128b357815173ffffffffffffffffffffffffffffffffffffffff1687529582019590820190600101612cab565b604081526000612cf06040830185612c97565b8281036020840152612d028185612883565b95945050505050565b60008060408385031215612d1e57600080fd5b8235612d29816128d1565b946020939093013593505050565b6020815260006111276020830184612c97565b600080600060408486031215612d5f57600080fd5b8335612d6a816128d1565b9250602084013567ffffffffffffffff80821115612d8757600080fd5b818601915086601f830112612d9b57600080fd5b813581811115612daa57600080fd5b876020828501011115612dbc57600080fd5b6020830194508093505050509250925092565b600080600060608486031215612de457600080fd5b833592506020840135612df6816128d1565b929592945050506040919091013590565b7f4e487b7100000000000000000000000000000000000000000000000000000000600052603260045260246000fd5b7f4e487b7100000000000000000000000000000000000000000000000000000000600052601160045260246000fd5b6000817fffffffffffffffffffffffffffffffffffffffffffffffffffffffffffffffff0483118215151615612e9d57612e9d612e36565b500290565b600082612ed8577f4e487b7100000000000000000000000000000000000000000000000000000000600052601260045260246000fd5b500490565b60008219821115612ef057612ef0612e36565b500190565b60007fffffffffffffffffffffffffffffffffffffffffffffffffffffffffffffffff8203612f2657612f26612e36565b5060010190565b60008060408385031215612f4057600080fd5b8251612f4b816128d1565b6020939093015192949293505050565b6000606082018583526020606081850152818651808452608086019150828801935060005b81811015612fb257845173ffffffffffffffffffffffffffffffffffffffff1683529383019391830191600101612f80565b50508481036040860152612fc68187612883565b98975050505050505050565b600082821015612fe457612fe4612e36565b500390565b600060208284031215612ffb57600080fd5b8151611127816128d1565b60006020828403121561301857600080fd5b5051919050565b60006020828403121561303157600080fd5b8151801515811461112757600080fd5b7f656970313936372e486f6c6f67726170682e504131442e746f6b656e416464728152600060207f657373000000000000000000000000000000000000000000000000000000000081840152835160005b818110156130ae57858101830151858201602301528201613092565b818111156130c0576000602383870101525b5092909201602301939250505056fea164736f6c634300080d000a",
  "devdoc": {
    "author": "CXIP-Labs",
    "details": "This smart contract is not intended to be used directly. Apply it to any of your ERC721 or ERC1155 smart contracts through a delegatecall fallback.",
    "events": {
      "SecondarySaleFees(uint256,address[],uint256[])": {
        "details": "Emits event in order to comply with Rarible V1 royalty spec.",
        "params": {
          "bps": "Uint256 array of base points(percentages) that each wallet(specified in recipients) will receive from the royalty payouts. Make sure that all the base points add up to a total of 10000.",
          "recipients": "Address array of wallets that will receive tha royalties.",
          "tokenId": "Specific token id for which royalty info is being set, set as 0 for all tokens inside of the smart contract."
        }
      }
    },
    "kind": "dev",
    "methods": {
      "configurePayouts(address[],uint256[])": {
        "details": "Function can only we called by owner, admin, or identity wallet.Addresses and bps arrays must be equal length. Bps values added together must equal 10000 exactly.",
        "params": {
          "addresses": "An array of all the addresses that will be receiving royalty payouts.",
          "bps": "An array of the percentages that each address will receive from the royalty payouts."
        }
      },
      "constructor": {
        "details": "Since the smart contract is being used inside of a fallback context, the constructor function is not being used."
      },
      "getEthPayout()": {
        "details": "Distribute all the ETH(minus gas fees) to payout recipients."
      },
      "getPayoutInfo()": {
        "details": "These are the recipients that will be getting royalty payouts.",
        "returns": {
          "addresses": "An array of all the addresses that will be receiving royalty payouts.",
          "bps": "An array of the percentages that each address will receive from the royalty payouts."
        }
      },
      "getTokenAddress(string)": {
        "details": "Used only to identify really major/common tokens. Avoid using due to gas usages.",
        "params": {
          "tokenName": "The ticker symbol of the token. For example \"USDC\" or \"DAI\"."
        },
        "returns": {
          "_0": "The smart contract address of the token ticker symbol. Or zero address if not found."
        }
      },
      "getTokenPayout(address)": {
        "details": "Contract owner, admin, identity wallet, and payout recipients can call this function.",
        "params": {
          "tokenAddress": "An address of the token for which to issue payouts for."
        }
      },
      "getTokensPayout(address[])": {
        "details": "Each token balance must be equal or greater than 10000. Otherwise calculating BP is difficult.",
        "params": {
          "tokenAddresses": "An address array of tokens to issue payouts for."
        }
      },
      "setRoyalties(uint256,address,uint256)": {
        "details": "Take great care to not make this function accessible by other public functions in your overlying smart contract.",
        "params": {
          "bp": "Uint256 of royalty percentage, provided in base points format.",
          "receiver": "Wallet or smart contract that will receive the royalty payouts.",
          "tokenId": "Set a specific token id, or leave at 0 to set as default parameters."
        }
      },
      "supportsInterface(bytes4)": {
        "details": "Provides the supported interface ids that this contract implements.",
        "params": {
          "interfaceId": "Bytes4 of the interface, derived through bytes4(keccak256('sampleFunction(uin256,address)'))."
        },
        "returns": {
          "_0": "True if function is supported/implemented, false if not."
        }
      }
    },
    "title": "PA1D (CXIP)",
    "version": 1
  },
  "userdoc": {
    "events": {
      "SecondarySaleFees(uint256,address[],uint256[])": {
        "notice": "Event emitted when setting/updating royalty info/fees. This is used by Rarible V1."
      }
    },
    "kind": "user",
    "methods": {
      "configurePayouts(address[],uint256[])": {
        "notice": "Set the wallets and percentages for royalty payouts."
      },
      "constructor": {
        "notice": "Constructor is empty and not utilised."
      },
      "getEthPayout()": {
        "notice": "Get payout of all ETH in smart contract."
      },
      "getPayoutInfo()": {
        "notice": "Show the wallets and percentages of payout recipients."
      },
      "getTokenAddress(string)": {
        "notice": "Get the smart contract address of a token by common name."
      },
      "getTokenPayout(address)": {
        "notice": "Get payout for a specific token address. Token must have a positive balance!"
      },
      "getTokensPayout(address[])": {
        "notice": "Get payouts for tokens listed by address. Tokens must have a positive balance!"
      },
      "setRoyalties(uint256,address,uint256)": {
        "notice": "Set the royalty information for entire contract, or a specific token."
      },
      "supportsInterface(bytes4)": {
        "notice": "Inform about supported interfaces(eip-165)."
      }
    },
    "notice": "A smart contract for providing royalty info, collecting royalties, and distributing it to configured payout wallets.",
    "version": 1
  },
  "storageLayout": {
    "storage": [],
    "types": null
  }
}