{
  "address": "0x59f4103009EFe7Af74f4FD61b7Cbcd8d37660FB1",
  "abi": [
    {
      "type": "constructor",
      "inputs": [],
      "stateMutability": "nonpayable"
    },
    {
      "type": "fallback",
      "stateMutability": "payable"
    },
    {
      "type": "receive",
      "stateMutability": "payable"
    },
    {
      "type": "function",
      "name": "END_DATE",
      "inputs": [],
      "outputs": [
        {
          "name": "",
          "type": "uint256",
          "internalType": "uint256"
        }
      ],
      "stateMutability": "view"
    },
    {
      "type": "function",
      "name": "FUNDS_RECIPIENT",
      "inputs": [],
      "outputs": [
        {
          "name": "",
          "type": "address",
          "internalType": "address payable"
        }
      ],
      "stateMutability": "view"
    },
    {
      "type": "function",
      "name": "INITIAL_END_DATE",
      "inputs": [],
      "outputs": [
        {
          "name": "",
          "type": "uint256",
          "internalType": "uint256"
        }
      ],
      "stateMutability": "view"
    },
    {
      "type": "function",
      "name": "INITIAL_MAX_SUPPLY",
      "inputs": [],
      "outputs": [
        {
          "name": "",
          "type": "uint256",
          "internalType": "uint256"
        }
      ],
      "stateMutability": "view"
    },
    {
      "type": "function",
      "name": "MINT_INTERVAL",
      "inputs": [],
      "outputs": [
        {
          "name": "",
          "type": "uint256",
          "internalType": "uint256"
        }
      ],
      "stateMutability": "view"
    },
    {
      "type": "function",
      "name": "START_DATE",
      "inputs": [],
      "outputs": [
        {
          "name": "",
          "type": "uint256",
          "internalType": "uint256"
        }
      ],
      "stateMutability": "view"
    },
    {
      "type": "function",
      "name": "baseURI",
      "inputs": [
        {
          "name": "_tokenId",
          "type": "uint256",
          "internalType": "uint256"
        }
      ],
      "outputs": [
        {
          "name": "",
          "type": "string",
          "internalType": "string"
        }
      ],
      "stateMutability": "view"
    },
    {
      "type": "function",
      "name": "batchFrozen",
      "inputs": [
        {
          "name": "",
          "type": "uint256",
          "internalType": "uint256"
        }
      ],
      "outputs": [
        {
          "name": "",
          "type": "bool",
          "internalType": "bool"
        }
      ],
      "stateMutability": "view"
    },
    {
      "type": "function",
      "name": "contractURI",
      "inputs": [],
      "outputs": [
        {
          "name": "",
          "type": "string",
          "internalType": "string"
        }
      ],
      "stateMutability": "view"
    },
    {
      "type": "function",
      "name": "currentTheoricalMaxSupply",
      "inputs": [],
      "outputs": [
        {
          "name": "",
          "type": "uint256",
          "internalType": "uint256"
        }
      ],
      "stateMutability": "view"
    },
    {
      "type": "function",
      "name": "dropsPriceOracle",
      "inputs": [],
      "outputs": [
        {
          "name": "",
          "type": "address",
          "internalType": "contract IDropsPriceOracle"
        }
      ],
      "stateMutability": "view"
    },
    {
      "type": "function",
      "name": "encryptDecrypt",
      "inputs": [
        {
          "name": "data",
          "type": "bytes",
          "internalType": "bytes"
        },
        {
          "name": "key",
          "type": "bytes",
          "internalType": "bytes"
        }
      ],
      "outputs": [
        {
          "name": "result",
          "type": "bytes",
          "internalType": "bytes"
        }
      ],
      "stateMutability": "pure"
    },
    {
      "type": "function",
      "name": "encryptedData",
      "inputs": [
        {
          "name": "",
          "type": "uint256",
          "internalType": "uint256"
        }
      ],
      "outputs": [
        {
          "name": "",
          "type": "bytes",
          "internalType": "bytes"
        }
      ],
      "stateMutability": "view"
    },
    {
      "type": "function",
      "name": "getBaseURICount",
      "inputs": [],
      "outputs": [
        {
          "name": "",
          "type": "uint256",
          "internalType": "uint256"
        }
      ],
      "stateMutability": "view"
    },
    {
      "type": "function",
      "name": "getBatchIdAtIndex",
      "inputs": [
        {
          "name": "_index",
          "type": "uint256",
          "internalType": "uint256"
        }
      ],
      "outputs": [
        {
          "name": "",
          "type": "uint256",
          "internalType": "uint256"
        }
      ],
      "stateMutability": "view"
    },
    {
      "type": "function",
      "name": "getNativePrice",
      "inputs": [],
      "outputs": [
        {
          "name": "",
          "type": "uint256",
          "internalType": "uint256"
        }
      ],
      "stateMutability": "view"
    },
    {
      "type": "function",
      "name": "getRevealURI",
      "inputs": [
        {
          "name": "_batchId",
          "type": "uint256",
          "internalType": "uint256"
        },
        {
          "name": "_key",
          "type": "bytes",
          "internalType": "bytes"
        }
      ],
      "outputs": [
        {
          "name": "revealedURI",
          "type": "string",
          "internalType": "string"
        }
      ],
      "stateMutability": "view"
    },
    {
      "type": "function",
      "name": "init",
      "inputs": [
        {
          "name": "initPayload",
          "type": "bytes",
          "internalType": "bytes"
        }
      ],
      "outputs": [
        {
          "name": "",
          "type": "bytes4",
          "internalType": "bytes4"
        }
      ],
      "stateMutability": "nonpayable"
    },
    {
      "type": "function",
      "name": "isAdmin",
      "inputs": [
        {
          "name": "user",
          "type": "address",
          "internalType": "address"
        }
      ],
      "outputs": [
        {
          "name": "",
          "type": "bool",
          "internalType": "bool"
        }
      ],
      "stateMutability": "view"
    },
    {
      "type": "function",
      "name": "isEncryptedBatch",
      "inputs": [
        {
          "name": "_batchId",
          "type": "uint256",
          "internalType": "uint256"
        }
      ],
      "outputs": [
        {
          "name": "",
          "type": "bool",
          "internalType": "bool"
        }
      ],
      "stateMutability": "view"
    },
    {
      "type": "function",
      "name": "isOwner",
      "inputs": [
        {
          "name": "wallet",
          "type": "address",
          "internalType": "address"
        }
      ],
      "outputs": [
        {
          "name": "",
          "type": "bool",
          "internalType": "bool"
        }
      ],
      "stateMutability": "view"
    },
    {
      "type": "function",
      "name": "isOwner",
      "inputs": [],
      "outputs": [
        {
          "name": "",
          "type": "bool",
          "internalType": "bool"
        }
      ],
      "stateMutability": "view"
    },
    {
      "type": "function",
      "name": "mintTo",
      "inputs": [
        {
          "name": "recipient",
          "type": "address",
          "internalType": "address"
        },
        {
          "name": "quantity",
          "type": "uint256",
          "internalType": "uint256"
        }
      ],
      "outputs": [
        {
          "name": "",
          "type": "uint256",
          "internalType": "uint256"
        }
      ],
      "stateMutability": "nonpayable"
    },
    {
      "type": "function",
      "name": "mintedPerAddress",
      "inputs": [
        {
          "name": "minter",
          "type": "address",
          "internalType": "address"
        }
      ],
      "outputs": [
        {
          "name": "",
          "type": "tuple",
          "internalType": "struct AddressMintDetails",
          "components": [
            {
              "name": "totalMints",
              "type": "uint256",
              "internalType": "uint256"
            },
            {
              "name": "presaleMints",
              "type": "uint256",
              "internalType": "uint256"
            },
            {
              "name": "publicMints",
              "type": "uint256",
              "internalType": "uint256"
            }
          ]
        }
      ],
      "stateMutability": "view"
    },
    {
      "type": "function",
      "name": "minter",
      "inputs": [],
      "outputs": [
        {
          "name": "",
          "type": "address",
          "internalType": "address"
        }
      ],
      "stateMutability": "view"
    },
    {
      "type": "function",
      "name": "multicall",
      "inputs": [
        {
          "name": "data",
          "type": "bytes[]",
          "internalType": "bytes[]"
        }
      ],
      "outputs": [
        {
          "name": "results",
          "type": "bytes[]",
          "internalType": "bytes[]"
        }
      ],
      "stateMutability": "nonpayable"
    },
    {
      "type": "function",
      "name": "name",
      "inputs": [],
      "outputs": [
        {
          "name": "",
          "type": "string",
          "internalType": "string"
        }
      ],
      "stateMutability": "view"
    },
    {
      "type": "function",
      "name": "nextTokenIdToClaim",
      "inputs": [],
      "outputs": [
        {
          "name": "",
          "type": "uint256",
          "internalType": "uint256"
        }
      ],
      "stateMutability": "view"
    },
    {
      "type": "function",
      "name": "nextTokenIdToMint",
      "inputs": [],
      "outputs": [
        {
          "name": "",
          "type": "uint256",
          "internalType": "uint256"
        }
      ],
      "stateMutability": "view"
    },
    {
      "type": "function",
      "name": "owner",
      "inputs": [],
      "outputs": [
        {
          "name": "",
          "type": "address",
          "internalType": "address"
        }
      ],
      "stateMutability": "view"
    },
    {
      "type": "function",
      "name": "purchase",
      "inputs": [
        {
          "name": "quantity",
          "type": "uint256",
          "internalType": "uint256"
        }
      ],
      "outputs": [
        {
          "name": "",
          "type": "uint256",
          "internalType": "uint256"
        }
      ],
      "stateMutability": "payable"
    },
    {
      "type": "function",
      "name": "reveal",
      "inputs": [
        {
          "name": "_index",
          "type": "uint256",
          "internalType": "uint256"
        },
        {
          "name": "_key",
          "type": "bytes",
          "internalType": "bytes"
        }
      ],
      "outputs": [
        {
          "name": "revealedURI",
          "type": "string",
          "internalType": "string"
        }
      ],
      "stateMutability": "nonpayable"
    },
    {
      "type": "function",
      "name": "saleDetails",
      "inputs": [],
      "outputs": [
        {
          "name": "",
          "type": "tuple",
          "internalType": "struct CustomERC721SaleDetails",
          "components": [
            {
              "name": "publicSaleActive",
              "type": "bool",
              "internalType": "bool"
            },
            {
              "name": "publicSalePrice",
              "type": "uint256",
              "internalType": "uint256"
            },
            {
              "name": "publicSaleStart",
              "type": "uint256",
              "internalType": "uint256"
            },
            {
              "name": "maxSalePurchasePerAddress",
              "type": "uint256",
              "internalType": "uint256"
            },
            {
              "name": "totalMinted",
              "type": "uint256",
              "internalType": "uint256"
            },
            {
              "name": "maxSupply",
              "type": "uint256",
              "internalType": "uint256"
            }
          ]
        }
      ],
      "stateMutability": "view"
    },
    {
      "type": "function",
      "name": "salesConfig",
      "inputs": [],
      "outputs": [
        {
          "name": "publicSalePrice",
          "type": "uint104",
          "internalType": "uint104"
        },
        {
          "name": "maxSalePurchasePerAddress",
          "type": "uint24",
          "internalType": "uint24"
        }
      ],
      "stateMutability": "view"
    },
    {
      "type": "function",
      "name": "setContractURI",
      "inputs": [
        {
          "name": "_uri",
          "type": "string",
          "internalType": "string"
        }
      ],
      "outputs": [],
      "stateMutability": "nonpayable"
    },
    {
      "type": "function",
      "name": "setFundsRecipient",
      "inputs": [
        {
          "name": "newRecipientAddress",
          "type": "address",
          "internalType": "address payable"
        }
      ],
      "outputs": [],
      "stateMutability": "nonpayable"
    },
    {
      "type": "function",
      "name": "setSaleConfiguration",
      "inputs": [
        {
          "name": "publicSalePrice",
          "type": "uint104",
          "internalType": "uint104"
        },
        {
          "name": "maxSalePurchasePerAddress",
          "type": "uint24",
          "internalType": "uint24"
        }
      ],
      "outputs": [],
      "stateMutability": "nonpayable"
    },
    {
      "type": "function",
      "name": "supportsInterface",
      "inputs": [
        {
          "name": "interfaceId",
          "type": "bytes4",
          "internalType": "bytes4"
        }
      ],
      "outputs": [
        {
          "name": "",
          "type": "bool",
          "internalType": "bool"
        }
      ],
      "stateMutability": "pure"
    },
    {
      "type": "function",
      "name": "syncLazyMint",
      "inputs": [],
      "outputs": [
        {
          "name": "chainPrepend",
          "type": "uint256",
          "internalType": "uint256"
        }
      ],
      "stateMutability": "nonpayable"
    },
    {
      "type": "function",
      "name": "tokenURI",
      "inputs": [
        {
          "name": "_tokenId",
          "type": "uint256",
          "internalType": "uint256"
        }
      ],
      "outputs": [
        {
          "name": "",
          "type": "string",
          "internalType": "string"
        }
      ],
      "stateMutability": "view"
    },
    {
      "type": "function",
      "name": "totalMinted",
      "inputs": [],
      "outputs": [
        {
          "name": "",
          "type": "uint256",
          "internalType": "uint256"
        }
      ],
      "stateMutability": "view"
    },
    {
      "type": "function",
      "name": "totalMintsByAddress",
      "inputs": [
        {
          "name": "",
          "type": "address",
          "internalType": "address"
        }
      ],
      "outputs": [
        {
          "name": "",
          "type": "uint256",
          "internalType": "uint256"
        }
      ],
      "stateMutability": "view"
    },
    {
      "type": "function",
      "name": "version",
      "inputs": [],
      "outputs": [
        {
          "name": "",
          "type": "uint32",
          "internalType": "uint32"
        }
      ],
      "stateMutability": "pure"
    },
    {
      "type": "function",
      "name": "withdraw",
      "inputs": [],
      "outputs": [],
      "stateMutability": "nonpayable"
    },
    {
      "type": "event",
      "name": "BatchMetadataUpdate",
      "inputs": [
        {
          "name": "_fromTokenId",
          "type": "uint256",
          "indexed": false,
          "internalType": "uint256"
        },
        {
          "name": "_toTokenId",
          "type": "uint256",
          "indexed": false,
          "internalType": "uint256"
        }
      ],
      "anonymous": false
    },
    {
      "type": "event",
      "name": "ContractURIUpdated",
      "inputs": [
        {
          "name": "prevURI",
          "type": "string",
          "indexed": false,
          "internalType": "string"
        },
        {
          "name": "newURI",
          "type": "string",
          "indexed": false,
          "internalType": "string"
        }
      ],
      "anonymous": false
    },
    {
      "type": "event",
      "name": "FundsReceived",
      "inputs": [
        {
          "name": "source",
          "type": "address",
          "indexed": true,
          "internalType": "address"
        },
        {
          "name": "amount",
          "type": "uint256",
          "indexed": false,
          "internalType": "uint256"
        }
      ],
      "anonymous": false
    },
    {
      "type": "event",
      "name": "FundsRecipientChanged",
      "inputs": [
        {
          "name": "newAddress",
          "type": "address",
          "indexed": true,
          "internalType": "address"
        },
        {
          "name": "changedBy",
          "type": "address",
          "indexed": true,
          "internalType": "address"
        }
      ],
      "anonymous": false
    },
    {
      "type": "event",
      "name": "FundsWithdrawn",
      "inputs": [
        {
          "name": "withdrawnBy",
          "type": "address",
          "indexed": true,
          "internalType": "address"
        },
        {
          "name": "withdrawnTo",
          "type": "address",
          "indexed": true,
          "internalType": "address"
        },
        {
          "name": "amount",
          "type": "uint256",
          "indexed": false,
          "internalType": "uint256"
        }
      ],
      "anonymous": false
    },
    {
      "type": "event",
      "name": "MetadataFrozen",
      "inputs": [],
      "anonymous": false
    },
    {
      "type": "event",
      "name": "MintFeePayout",
      "inputs": [
        {
          "name": "mintFeeAmount",
          "type": "uint256",
          "indexed": false,
          "internalType": "uint256"
        },
        {
          "name": "mintFeeRecipient",
          "type": "address",
          "indexed": false,
          "internalType": "address"
        },
        {
          "name": "success",
          "type": "bool",
          "indexed": false,
          "internalType": "bool"
        }
      ],
      "anonymous": false
    },
    {
      "type": "event",
      "name": "NFTMinted",
      "inputs": [
        {
          "name": "recipient",
          "type": "address",
          "indexed": true,
          "internalType": "address"
        },
        {
          "name": "tokenId",
          "type": "uint256",
          "indexed": true,
          "internalType": "uint256"
        },
        {
          "name": "id",
          "type": "uint256",
          "indexed": false,
          "internalType": "uint256"
        }
      ],
      "anonymous": false
    },
    {
      "type": "event",
      "name": "OpenMintFinalized",
      "inputs": [
        {
          "name": "sender",
          "type": "address",
          "indexed": true,
          "internalType": "address"
        },
        {
          "name": "numberOfMints",
          "type": "uint256",
          "indexed": false,
          "internalType": "uint256"
        }
      ],
      "anonymous": false
    },
    {
      "type": "event",
      "name": "Sale",
      "inputs": [
        {
          "name": "to",
          "type": "address",
          "indexed": true,
          "internalType": "address"
        },
        {
          "name": "quantity",
          "type": "uint256",
          "indexed": true,
          "internalType": "uint256"
        },
        {
          "name": "pricePerToken",
          "type": "uint256",
          "indexed": true,
          "internalType": "uint256"
        },
        {
          "name": "firstPurchasedTokenId",
          "type": "uint256",
          "indexed": false,
          "internalType": "uint256"
        }
      ],
      "anonymous": false
    },
    {
      "type": "event",
      "name": "SalesConfigChanged",
      "inputs": [
        {
          "name": "changedBy",
          "type": "address",
          "indexed": true,
          "internalType": "address"
        }
      ],
      "anonymous": false
    },
    {
      "type": "event",
      "name": "TokenURIRevealed",
      "inputs": [
        {
          "name": "index",
          "type": "uint256",
          "indexed": true,
          "internalType": "uint256"
        },
        {
          "name": "revealedURI",
          "type": "string",
          "indexed": false,
          "internalType": "string"
        }
      ],
      "anonymous": false
    },
    {
      "type": "event",
      "name": "TokensLazyMinted",
      "inputs": [
        {
          "name": "startTokenId",
          "type": "uint256",
          "indexed": true,
          "internalType": "uint256"
        },
        {
          "name": "endTokenId",
          "type": "uint256",
          "indexed": false,
          "internalType": "uint256"
        },
        {
          "name": "baseURI",
          "type": "string",
          "indexed": false,
          "internalType": "string"
        },
        {
          "name": "encryptedBaseURI",
          "type": "bytes",
          "indexed": false,
          "internalType": "bytes"
        }
      ],
      "anonymous": false
    },
    {
      "type": "error",
      "name": "Access_MissingRoleOrAdmin",
      "inputs": [
        {
          "name": "role",
          "type": "bytes32",
          "internalType": "bytes32"
        }
      ]
    },
    {
      "type": "error",
      "name": "Access_OnlyAdmin",
      "inputs": []
    },
    {
      "type": "error",
      "name": "Access_OnlyMinter",
      "inputs": []
    },
    {
      "type": "error",
      "name": "Access_WithdrawNotAllowed",
      "inputs": []
    },
    {
      "type": "error",
      "name": "Admin_InvalidUpgradeAddress",
      "inputs": [
        {
          "name": "proposedAddress",
          "type": "address",
          "internalType": "address"
        }
      ]
    },
    {
      "type": "error",
      "name": "Admin_UnableToFinalizeNotOpenEdition",
      "inputs": []
    },
    {
      "type": "error",
      "name": "BatchMintInvalidBatchId",
      "inputs": [
        {
          "name": "index",
          "type": "uint256",
          "internalType": "uint256"
        }
      ]
    },
    {
      "type": "error",
      "name": "BatchMintInvalidTokenId",
      "inputs": [
        {
          "name": "tokenId",
          "type": "uint256",
          "internalType": "uint256"
        }
      ]
    },
    {
      "type": "error",
      "name": "BatchMintMetadataFrozen",
      "inputs": [
        {
          "name": "batchId",
          "type": "uint256",
          "internalType": "uint256"
        }
      ]
    },
    {
      "type": "error",
      "name": "CountdownEndMustBeDivisibleByMintTimeCost",
      "inputs": [
        {
          "name": "countdownEnd",
          "type": "uint128",
          "internalType": "uint128"
        },
        {
          "name": "mintTimeCost",
          "type": "uint128",
          "internalType": "uint128"
        }
      ]
    },
    {
      "type": "error",
      "name": "DelayedRevealIncorrectResultHash",
      "inputs": [
        {
          "name": "expected",
          "type": "bytes32",
          "internalType": "bytes32"
        },
        {
          "name": "actual",
          "type": "bytes32",
          "internalType": "bytes32"
        }
      ]
    },
    {
      "type": "error",
      "name": "DelayedRevealNothingToReveal",
      "inputs": []
    },
    {
      "type": "error",
      "name": "ExternalMetadataRenderer_CallFailed",
      "inputs": []
    },
    {
      "type": "error",
      "name": "FeePaymentFailed",
      "inputs": []
    },
    {
      "type": "error",
      "name": "LazyMintInvalidAmount",
      "inputs": []
    },
    {
      "type": "error",
      "name": "LazyMintUnauthorized",
      "inputs": []
    },
    {
      "type": "error",
      "name": "LazyMint_AlreadyInitialized",
      "inputs": []
    },
    {
      "type": "error",
      "name": "MintFee_FundsSendFailure",
      "inputs": []
    },
    {
      "type": "error",
      "name": "Mint_SoldOut",
      "inputs": []
    },
    {
      "type": "error",
      "name": "NotInitialized",
      "inputs": []
    },
    {
      "type": "error",
      "name": "Purchase_CountdownCompleted",
      "inputs": []
    },
    {
      "type": "error",
      "name": "Purchase_TooManyForAddress",
      "inputs": []
    },
    {
      "type": "error",
      "name": "Purchase_WrongPrice",
      "inputs": [
        {
          "name": "correctPrice",
          "type": "uint256",
          "internalType": "uint256"
        }
      ]
    },
    {
      "type": "error",
      "name": "Sale_Inactive",
      "inputs": []
    },
    {
      "type": "error",
      "name": "Setup_RoyaltyPercentageTooHigh",
      "inputs": [
        {
          "name": "maxRoyaltyBPS",
          "type": "uint16",
          "internalType": "uint16"
        }
      ]
    },
    {
      "type": "error",
      "name": "Withdraw_FundsSendFailure",
      "inputs": []
    }
  ],
  "transactionHash": "0xe248c2f3474bc1b122c5cdc0d647b3a668977febbe8f07dbe4bbb528c7171280",
  "args": [],
  "numDeployments": 1,
  "bytecode": {
    "object": "0x608060405234801561001057600080fd5b5061478e806100206000396000f3fe6080604052600436106102eb5760003560e01c806363b45e2d11610184578063a2309ff8116100d6578063ce8056421161008a578063e8a3d48511610064578063e8a3d485146109cf578063ed616341146109e4578063efef39a1146109fa57610349565b8063ce8056421461094d578063d445b9781461096d578063e7150322146109af57610349565b8063acd083f8116100bb578063acd083f8146108f8578063c87b56dd1461090d578063cb0793bc1461092d57610349565b8063a2309ff814610898578063ac9650d8146108cb57610349565b80638da5cb5b11610138578063938e3d7b11610112578063938e3d7b146108385780639fc4d68f14610858578063a05112fc1461087857610349565b80638da5cb5b146107e15780638f32d59b146107f65780639123f01e1461080b57610349565b80638304053211610169578063830405321461077357806384e7e3d3146107a35780638cb163f4146107b957610349565b806363b45e2d146107495780636c73853e1461075e57610349565b80633474a4a61161023d578063449a52f8116101f15780634ddf47d4116101cb5780634ddf47d4146106c6578063545599ff1461071757806354fd4d501461072d57610349565b8063449a52f814610670578063457509bf14610690578063492e224b146106a657610349565b806337b11bbf1161022257806337b11bbf146106195780633b1475a7146106465780633ccfd60b1461065b57610349565b80633474a4a6146105a0578063372c65331461060357610349565b80631d2c0b381161029f5780632ccde4f6116102795780632ccde4f61461054b5780632df667fb1461056b5780632f54bf6e1461058057610349565b80631d2c0b38146104a45780632419f51b1461050b57806324d7806c1461052b57610349565b806307546172116102d0578063075461721461040d57806310a7eb5d1461045f57806317430c9e1461048157610349565b806301ffc9a71461037457806306fdde03146103eb57610349565b36610349576102f8610a0d565b73ffffffffffffffffffffffffffffffffffffffff167f8e47b87b0ef542cdfa1659c551d88bad38aa7f452d2bbb349ab7530dfec8be8f3460405161033f91815260200190565b60405180910390a2005b6040517f46756e6374696f6e206e6f7420666f756e6400000000000000000000000000008152601481fd5b34801561038057600080fd5b506103d661038f366004613a5e565b7fffffffff00000000000000000000000000000000000000000000000000000000167f19a31fdc000000000000000000000000000000000000000000000000000000001490565b60405190151581526020015b60405180910390f35b3480156103f757600080fd5b50610400610a6c565b6040516103e29190613b1a565b34801561041957600080fd5b50600c5461043a9073ffffffffffffffffffffffffffffffffffffffff1681565b60405173ffffffffffffffffffffffffffffffffffffffff90911681526020016103e2565b34801561046b57600080fd5b5061047f61047a366004613b4f565b610b2b565b005b34801561048d57600080fd5b50610496610d34565b6040519081526020016103e2565b3480156104b057600080fd5b50600e546104e2906cffffffffffffffffffffffffff8116906d0100000000000000000000000000900462ffffff1682565b604080516cffffffffffffffffffffffffff909316835262ffffff9091166020830152016103e2565b34801561051757600080fd5b50610496610526366004613b6c565b610d52565b34801561053757600080fd5b506103d6610546366004613b4f565b610dbd565b34801561055757600080fd5b50610400610566366004613b6c565b610e1b565b34801561057757600080fd5b50610496610e2c565b34801561058c57600080fd5b506103d661059b366004613b4f565b610e9a565b3480156105ac57600080fd5b506105b5610ef9565b6040516103e29190600060c0820190508251151582526020830151602083015260408301516040830152606083015160608301526080830151608083015260a083015160a083015292915050565b34801561060f57600080fd5b5061049660065481565b34801561062557600080fd5b5060095461043a9073ffffffffffffffffffffffffffffffffffffffff1681565b34801561065257600080fd5b50600454610496565b34801561066757600080fd5b5061047f610fc2565b34801561067c57600080fd5b5061049661068b366004613b85565b6112d3565b34801561069c57600080fd5b50610496600a5481565b3480156106b257600080fd5b506103d66106c1366004613b6c565b6113d5565b3480156106d257600080fd5b506106e66106e1366004613d20565b6113fb565b6040517fffffffff0000000000000000000000000000000000000000000000000000000090911681526020016103e2565b34801561072357600080fd5b50610496600b5481565b34801561073957600080fd5b50604051600181526020016103e2565b34801561075557600080fd5b50600154610496565b34801561076a57600080fd5b5061049661171a565b34801561077f57600080fd5b506103d661078e366004613b6c565b60036020526000908152604090205460ff1681565b3480156107af57600080fd5b5061049660085481565b3480156107c557600080fd5b5061043a73ea7f4c52cbd4cf1036cdca8b16aca11f5b09cf6e81565b3480156107ed57600080fd5b5061043a611c7a565b34801561080257600080fd5b506103d6611ca4565b34801561081757600080fd5b50610496610826366004613b4f565b600f6020526000908152604090205481565b34801561084457600080fd5b5061047f610853366004613d55565b611d08565b34801561086457600080fd5b50610400610873366004613de7565b611d82565b34801561088457600080fd5b50610400610893366004613b6c565b611f2b565b3480156108a457600080fd5b50600d547bffffffffffffffffffffffffffffffffffffffffffffffffffffffff16610496565b3480156108d757600080fd5b506108eb6108e6366004613e57565b611fc5565b6040516103e29190613f08565b34801561090457600080fd5b506104966120a4565b34801561091957600080fd5b50610400610928366004613b6c565b6120f6565b34801561093957600080fd5b5061047f610948366004613fb4565b612137565b34801561095957600080fd5b50610400610968366004613de7565b612294565b34801561097957600080fd5b5061098d610988366004613b4f565b612381565b60408051825181526020808401519082015291810151908201526060016103e2565b3480156109bb57600080fd5b506104006109ca366004613fed565b6123ee565b3480156109db57600080fd5b50610400612481565b3480156109f057600080fd5b5061049660075481565b610496610a08366004613b6c565b61248e565b60007fe9fcff60011c1a99f7b7244d1f2d9da93d79ea8ef3654ce590d775575255b2bd54331460008114610a645750507fffffffffffffffffffffffffffffffffffffffffffffffffffffffffffffffe036013590565b3391505b5090565b6060610a967fe9fcff60011c1a99f7b7244d1f2d9da93d79ea8ef3654ce590d775575255b2bd5490565b73ffffffffffffffffffffffffffffffffffffffff166306fdde036040518163ffffffff1660e01b8152600401600060405180830381865afa158015610ae0573d6000803e3d6000fd5b505050506040513d6000823e601f3d9081017fffffffffffffffffffffffffffffffffffffffffffffffffffffffffffffffe0168201604052610b26919081019061408e565b905090565b7fb56711ba6bd3ded7639fc335ee7524fe668a79d7558c85992e3f8494cf7727775473ffffffffffffffffffffffffffffffffffffffff16610b6b610a0d565b73ffffffffffffffffffffffffffffffffffffffff1614610bed576040517f08c379a000000000000000000000000000000000000000000000000000000000815260206004820152601b60248201527f4552433732313a206f776e6572206f6e6c792066756e6374696f6e000000000060448201526064015b60405180910390fd5b73ffffffffffffffffffffffffffffffffffffffff8116610c90576040517f08c379a000000000000000000000000000000000000000000000000000000000815260206004820152602360248201527f46756e647320526563697069656e742063616e6e6f742062652030206164647260448201527f65737300000000000000000000000000000000000000000000000000000000006064820152608401610be4565b600980547fffffffffffffffffffffffff00000000000000000000000000000000000000001673ffffffffffffffffffffffffffffffffffffffff8316179055610cd8610a0d565b73ffffffffffffffffffffffffffffffffffffffff168173ffffffffffffffffffffffffffffffffffffffff167f70a7ea5c664ab9c21baf3da59bb2f1e1ca33557b08a0031fab4f17076744995160405160405180910390a350565b600e54600090610b26906cffffffffffffffffffffffffff1661296b565b6000610d5d60015490565b8210610d98576040517f0f2624ee00000000000000000000000000000000000000000000000000000000815260048101839052602401610be4565b60018281548110610dab57610dab6140c3565b90600052602060002001549050919050565b60008173ffffffffffffffffffffffffffffffffffffffff16610dfe7fb56711ba6bd3ded7639fc335ee7524fe668a79d7558c85992e3f8494cf7727775490565b73ffffffffffffffffffffffffffffffffffffffff161492915050565b6060610e2682612a0a565b92915050565b60006006544211610e3e575060075490565b600854600754610e4e9190614121565b600654610e5b919061415e565b4210610e675750600090565b600060085460065442610e7a9190614176565b610e8491906141bc565b905080600754610e949190614176565b91505090565b6000610ec47fb56711ba6bd3ded7639fc335ee7524fe668a79d7558c85992e3f8494cf7727775490565b73ffffffffffffffffffffffffffffffffffffffff168273ffffffffffffffffffffffffffffffffffffffff16149050919050565b610f346040518060c0016040528060001515815260200160008152602001600081526020016000815260200160008152602001600081525090565b6040518060c00160405280610f4b60065442101590565b15158152600e546cffffffffffffffffffffffffff8116602083015260065460408301526d0100000000000000000000000000900462ffffff166060820152600d547bffffffffffffffffffffffffffffffffffffffffffffffffffffffff16608082015260a001610fbb610e2c565b9052919050565b7f04b524dd539523930d3901481aa9455d7752b49add99e1647adb8b09a31372795460020361104d576040517f08c379a000000000000000000000000000000000000000000000000000000000815260206004820152601960248201527f484f4c4f47524150483a207265656e7472616e742063616c6c000000000000006044820152606401610be4565b61107660027f04b524dd539523930d3901481aa9455d7752b49add99e1647adb8b09a313727955565b60095473ffffffffffffffffffffffffffffffffffffffff166110f5576040517f08c379a000000000000000000000000000000000000000000000000000000000815260206004820152601f60248201527f46756e647320526563697069656e742061646472657373206e6f7420736574006044820152606401610be4565b60006110ff610a0d565b600954909150479073ffffffffffffffffffffffffffffffffffffffff80841691161480159061117c57507fb56711ba6bd3ded7639fc335ee7524fe668a79d7558c85992e3f8494cf7727775473ffffffffffffffffffffffffffffffffffffffff168273ffffffffffffffffffffffffffffffffffffffff1614155b156111b3576040517f1dab829b00000000000000000000000000000000000000000000000000000000815260040160405180910390fd5b60095460405160009173ffffffffffffffffffffffffffffffffffffffff16906203345090849084818181858888f193505050503d8060008114611213576040519150601f19603f3d011682016040523d82523d6000602084013e611218565b606091505b5050905080611253576040517f39debd5b00000000000000000000000000000000000000000000000000000000815260040160405180910390fd5b60095460405183815273ffffffffffffffffffffffffffffffffffffffff918216918516907fa92ff919b850e4909ab2261d907ef955f11bc1716733a6cbece38d163a69af8a9060200160405180910390a35050506112d160017f04b524dd539523930d3901481aa9455d7752b49add99e1647adb8b09a313727955565b565b600c5460009073ffffffffffffffffffffffffffffffffffffffff166112f7610a0d565b73ffffffffffffffffffffffffffffffffffffffff1614611344576040517fd7ae9e8300000000000000000000000000000000000000000000000000000000815260040160405180910390fd5b81611350600182614176565b60085461135d9190614121565b600b5461136a9190614176565b42106113a2576040517f5fe2561a00000000000000000000000000000000000000000000000000000000815260040160405180910390fd5b6113ac8484612ba1565b5050600d547bffffffffffffffffffffffffffffffffffffffffffffffffffffffff1692915050565b600081815260056020526040812080548291906113f1906141d0565b9050119050919050565b60006114257f4e5f991bca30eca2d4643aaefa807e88f96a4a97398933d572a3c0d973004a015490565b1561148c576040517f08c379a000000000000000000000000000000000000000000000000000000000815260206004820152601e60248201527f484f4c4f47524150483a20616c726561647920696e697469616c697a656400006044820152606401610be4565b337fe9fcff60011c1a99f7b7244d1f2d9da93d79ea8ef3654ce590d775575255b2bd556000828060200190518101906114c591906143d4565b90506114f381606001517fb56711ba6bd3ded7639fc335ee7524fe668a79d7558c85992e3f8494cf77277755565b6080810151600c80547fffffffffffffffffffffffff00000000000000000000000000000000000000001673ffffffffffffffffffffffffffffffffffffffff90921691909117905560c081015161154a90612fa6565b60005b816101000151518110156115d5576115cc8261010001518281518110611575576115756140c3565b6020026020010151600001518361010001518381518110611598576115986140c3565b60200260200101516020015184610100015184815181106115bb576115bb6140c3565b602002602001015160400151613087565b5060010161154d565b50805164ffffffffff16600655602081015163ffffffff8116600755604082015162ffffff16600881905560a0830151600980547fffffffffffffffffffffffff00000000000000000000000000000000000000001673ffffffffffffffffffffffffffffffffffffffff90921691909117905560009161165691906144e0565b82516116689163ffffffff169061450c565b64ffffffffff16600b819055600a81905560e08301518051600e805460209093015162ffffff166d0100000000000000000000000000027fffffffffffffffffffffffffffffffff000000000000000000000000000000009093166cffffffffffffffffffffffffff90921691909117919091179055905061170960017f04b524dd539523930d3901481aa9455d7752b49add99e1647adb8b09a313727955565b611712846130e7565b949350505050565b60006117447fb56711ba6bd3ded7639fc335ee7524fe668a79d7558c85992e3f8494cf7727775490565b73ffffffffffffffffffffffffffffffffffffffff16611762610a0d565b73ffffffffffffffffffffffffffffffffffffffff16146117df576040517f08c379a000000000000000000000000000000000000000000000000000000000815260206004820152601b60248201527f4552433732313a206f776e6572206f6e6c792066756e6374696f6e00000000006044820152606401610be4565b7f4e5f991bca30eca2d4643aaefa807e88f96a4a97398933d572a3c0d973004a0154611837576040517f87138d5c00000000000000000000000000000000000000000000000000000000815260040160405180910390fd5b7f48d0e47abf92fdd55242caeea30ef9b630788bb50b5c07884bc96bb0c942c6c15415611890576040517f2aa07f2900000000000000000000000000000000000000000000000000000000815260040160405180910390fd5b60006118ba7fe9fcff60011c1a99f7b7244d1f2d9da93d79ea8ef3654ce590d775575255b2bd5490565b90508073ffffffffffffffffffffffffffffffffffffffff166377dbd8636040518163ffffffff1660e01b8152600401602060405180830381865afa158015611907573d6000803e3d6000fd5b505050506040513d601f19601f8201168201806040525081019061192b9190614535565b61193690600161415e565b915061196160017f48d0e47abf92fdd55242caeea30ef9b630788bb50b5c07884bc96bb0c942c6c155565b8160000361197157600091505090565b60015460005b81811015611c74576002600060018381548110611996576119966140c3565b906000526020600020015481526020019081526020016000206002600086600185815481106119c7576119c76140c3565b90600052602060002001546119dc919061415e565b81526020019081526020016000209080546119f6906141d0565b611a01929190613914565b506003600060018381548110611a1957611a196140c3565b9060005260206000200154815260200190815260200160002060009054906101000a900460ff16600360008660018581548110611a5857611a586140c3565b9060005260206000200154611a6d919061415e565b815260200190815260200160002060006101000a81548160ff021916908315150217905550611b7c8460018381548110611aa957611aa96140c3565b9060005260206000200154611abe919061415e565b6005600060018581548110611ad557611ad56140c3565b906000526020600020015481526020019081526020016000208054611af9906141d0565b80601f0160208091040260200160405190810160405280929190818152602001828054611b25906141d0565b8015611b725780601f10611b4757610100808354040283529160200191611b72565b820191906000526020600020905b815481529060010190602001808311611b5557829003601f168201915b505050505061328e565b8360018281548110611b9057611b906140c3565b906000526020600020016000828254611ba9919061415e565b925050819055506002600060018381548110611bc757611bc76140c3565b906000526020600020015481526020019081526020016000206000611bec919061399b565b6003600060018381548110611c0357611c036140c3565b9060005260206000200154815260200190815260200160002060006101000a81549060ff0219169055611c6260018281548110611c4257611c426140c3565b90600052602060002001546040518060200160405280600081525061328e565b80611c6c8161454e565b915050611977565b50505090565b6000610b267fb56711ba6bd3ded7639fc335ee7524fe668a79d7558c85992e3f8494cf7727775490565b6000611cce7fb56711ba6bd3ded7639fc335ee7524fe668a79d7558c85992e3f8494cf7727775490565b73ffffffffffffffffffffffffffffffffffffffff16611cec610a0d565b73ffffffffffffffffffffffffffffffffffffffff1614905090565b611d10611ca4565b611d76576040517f08c379a000000000000000000000000000000000000000000000000000000000815260206004820152600e60248201527f4e6f7420617574686f72697a65640000000000000000000000000000000000006044820152606401610be4565b611d7f81612fa6565b50565b600083815260056020526040812080546060929190611da0906141d0565b80601f0160208091040260200160405190810160405280929190818152602001828054611dcc906141d0565b8015611e195780601f10611dee57610100808354040283529160200191611e19565b820191906000526020600020905b815481529060010190602001808311611dfc57829003601f168201915b505050505090508051600003611e5b576040517f5d0580b300000000000000000000000000000000000000000000000000000000815260040160405180910390fd5b60008082806020019051810190611e729190614586565b91509150611e818287876123ee565b93508084878746604051602001611e9b94939291906145cd565b6040516020818303038152906040528051906020012014611f21578084878746604051602001611ece94939291906145cd565b604051602081830303815290604052805190602001206040517fcd915d3c000000000000000000000000000000000000000000000000000000008152600401610be4929190918252602082015260400190565b5050509392505050565b60056020526000908152604090208054611f44906141d0565b80601f0160208091040260200160405190810160405280929190818152602001828054611f70906141d0565b8015611fbd5780601f10611f9257610100808354040283529160200191611fbd565b820191906000526020600020905b815481529060010190602001808311611fa057829003601f168201915b505050505081565b6060815167ffffffffffffffff811115611fe157611fe1613bb1565b60405190808252806020026020018201604052801561201457816020015b6060815260200190600190039081611fff5790505b50905060005b825181101561209e5761206e30848381518110612039576120396140c3565b6020026020010151612049610a0d565b60405160200161205a9291906145f6565b6040516020818303038152906040526132b2565b828281518110612080576120806140c3565b602002602001018190525080806120969061454e565b91505061201a565b50919050565b600d546000906120d3907bffffffffffffffffffffffffffffffffffffffffffffffffffffffff166001614640565b7bffffffffffffffffffffffffffffffffffffffffffffffffffffffff16905090565b6060600061210383612a0a565b90508061210f846132de565b604051602001612120929190614677565b604051602081830303815290604052915050919050565b7fb56711ba6bd3ded7639fc335ee7524fe668a79d7558c85992e3f8494cf7727775473ffffffffffffffffffffffffffffffffffffffff16612177610a0d565b73ffffffffffffffffffffffffffffffffffffffff16146121f4576040517f08c379a000000000000000000000000000000000000000000000000000000000815260206004820152601b60248201527f4552433732313a206f776e6572206f6e6c792066756e6374696f6e00000000006044820152606401610be4565b600e805462ffffff83166d0100000000000000000000000000027fffffffffffffffffffffffffffffffff000000000000000000000000000000009091166cffffffffffffffffffffffffff85161717905561224e610a0d565b73ffffffffffffffffffffffffffffffffffffffff167fc1ff5e4744ac8dd2b8027a10e3723b165975297501c71c4e7dcb8796d96375db60405160405180910390a25050565b606061229e611ca4565b612304576040517f08c379a000000000000000000000000000000000000000000000000000000000815260206004820152600e60248201527f4e6f7420617574686f72697a65640000000000000000000000000000000000006044820152606401610be4565b600061230f85610d52565b905061231c818585611d82565b9150612337816040518060200160405280600081525061328e565b6123418183613413565b847f6df1d8db2a036436ffe0b2d1833f2c5f1e624818dfce2578c0faa4b83ef9998d836040516123719190613b1a565b60405180910390a2509392505050565b6123a560405180606001604052806000815260200160008152602001600081525090565b506040805160608101825273ffffffffffffffffffffffffffffffffffffffff9092166000818152600f6020818152848320548087528187018490529390925290529082015290565b8251604080518083016020019091528181529060005b818110156124785760008585836040516020016124239392919061469d565b604080517fffffffffffffffffffffffffffffffffffffffffffffffffffffffffffffffe081840301815291905280516020918201208884018201511885840182015261247191508261415e565b9050612404565b50509392505050565b60008054611f44906141d0565b60006124b87f04b524dd539523930d3901481aa9455d7752b49add99e1647adb8b09a31372795490565b600203612521576040517f08c379a000000000000000000000000000000000000000000000000000000000815260206004820152601960248201527f484f4c4f47524150483a207265656e7472616e742063616c6c000000000000006044820152606401610be4565b61254a60027f04b524dd539523930d3901481aa9455d7752b49add99e1647adb8b09a313727955565b81612556600182614176565b6008546125639190614121565b600b546125709190614176565b42106125a8576040517f5fe2561a00000000000000000000000000000000000000000000000000000000815260040160405180910390fd5b6006544210156125e4576040517ff12dcc7f00000000000000000000000000000000000000000000000000000000815260040160405180910390fd5b600e54600090612602906cffffffffffffffffffffffffff1661296b565b905061260e8482614121565b34101561266757600e546126329085906cffffffffffffffffffffffffff16614121565b6040517f6a1c179e000000000000000000000000000000000000000000000000000000008152600401610be491815260200190565b6008546126749085614121565b600b546126819190614176565b600b5560006126908583614121565b61269a9034614176565b600e549091506d0100000000000000000000000000900462ffffff161580159061272c5750600e546d0100000000000000000000000000900462ffffff1685600f60006126e5610a0d565b73ffffffffffffffffffffffffffffffffffffffff1673ffffffffffffffffffffffffffffffffffffffff1681526020019081526020016000205461272a919061415e565b115b15612763576040517f220ae94c00000000000000000000000000000000000000000000000000000000815260040160405180910390fd5b61277461276e610a0d565b86612ba1565b600061279e7fe9fcff60011c1a99f7b7244d1f2d9da93d79ea8ef3654ce590d775575255b2bd5490565b905060008173ffffffffffffffffffffffffffffffffffffffff166377dbd8636040518163ffffffff1660e01b8152600401602060405180830381865afa1580156127ed573d6000803e3d6000fd5b505050506040513d601f19601f820116820180604052508101906128119190614535565b600d549091506000906128439089907bffffffffffffffffffffffffffffffffffffffffffffffffffffffff16614176565b61284d908361415e565b61285890600161415e565b90508488612864610a0d565b73ffffffffffffffffffffffffffffffffffffffff167f4e26b0356a15833a75d497ecc40ebbb716b99466ed0dba9454f1fff451e25a90846040516128ab91815260200190565b60405180910390a48315612936576128c1610a0d565b73ffffffffffffffffffffffffffffffffffffffff1684620334505a116128e8575a6128ed565b620334505b6040519091906000818181858888f193505050503d806000811461292d576040519150601f19603f3d011682016040523d82523d6000602084013e612932565b606091505b5050505b9550505050505061296660017f04b524dd539523930d3901481aa9455d7752b49add99e1647adb8b09a313727955565b919050565b60008160000361297d57506000919050565b6040517ff5d781610000000000000000000000000000000000000000000000000000000081526004810183905273ea7f4c52cbd4cf1036cdca8b16aca11f5b09cf6e9063f5d7816190602401602060405180830381865afa1580156129e6573d6000803e3d6000fd5b505050506040513d601f19601f82011682018060405250810190610e269190614535565b60606000612a1760015490565b905060006001805480602002602001604051908101604052809291908181526020018280548015612a6757602002820191906000526020600020905b815481526020019060010190808311612a53575b5050505050905060005b82811015612b6b57818181518110612a8b57612a8b6140c3565b6020026020010151851015612b595760026000838381518110612ab057612ab06140c3565b602002602001015181526020019081526020016000208054612ad1906141d0565b80601f0160208091040260200160405190810160405280929190818152602001828054612afd906141d0565b8015612b4a5780601f10612b1f57610100808354040283529160200191612b4a565b820191906000526020600020905b815481529060010190602001808311612b2d57829003601f168201915b50505050509350505050919050565b612b6460018261415e565b9050612a71565b506040517f25e5fda400000000000000000000000000000000000000000000000000000000815260048101859052602401610be4565b6000612bcb7fe9fcff60011c1a99f7b7244d1f2d9da93d79ea8ef3654ce590d775575255b2bd5490565b905060008173ffffffffffffffffffffffffffffffffffffffff166377dbd8636040518163ffffffff1660e01b8152600401602060405180830381865afa158015612c1a573d6000803e3d6000fd5b505050506040513d601f19601f82011682018060405250810190612c3e9190614535565b90506000805b848114612f9e57600d80547bffffffffffffffffffffffffffffffffffffffffffffffffffffffff808216600101167fffffffff000000000000000000000000000000000000000000000000000000009091161790555b600d5473ffffffffffffffffffffffffffffffffffffffff851690634f558e7990612ce4907bffffffffffffffffffffffffffffffffffffffffffffffffffffffff168661415e565b6040518263ffffffff1660e01b8152600401612d0291815260200190565b602060405180830381865afa158015612d1f573d6000803e3d6000fd5b505050506040513d601f19601f82011682018060405250810190612d4391906146af565b80612df15750600d5473ffffffffffffffffffffffffffffffffffffffff8516906323250cae90612d92907bffffffffffffffffffffffffffffffffffffffffffffffffffffffff168661415e565b6040518263ffffffff1660e01b8152600401612db091815260200190565b602060405180830381865afa158015612dcd573d6000803e3d6000fd5b505050506040513d601f19601f82011682018060405250810190612df191906146af565b15612e4a57600d80547bffffffffffffffffffffffffffffffffffffffffffffffffffffffff808216600101167fffffffff00000000000000000000000000000000000000000000000000000000909116179055612c9b565b600d546040517f3b4f1b2600000000000000000000000000000000000000000000000000000000815273ffffffffffffffffffffffffffffffffffffffff88811660048301527bffffffffffffffffffffffffffffffffffffffffffffffffffffffff90921660248201819052935090851690633b4f1b2690604401600060405180830381600087803b158015612ee057600080fd5b505af1158015612ef4573d6000803e3d6000fd5b505050506000827bffffffffffffffffffffffffffffffffffffffffffffffffffffffff1684612f24919061415e565b9050827bffffffffffffffffffffffffffffffffffffffffffffffffffffffff168773ffffffffffffffffffffffffffffffffffffffff167f3a8a89b59a31c39a36febecb987e0657ab7b7c73b60ebacb44dcb9886c2d5c8a83604051612f8d91815260200190565b60405180910390a350600101612c44565b505050505050565b6000808054612fb4906141d0565b80601f0160208091040260200160405190810160405280929190818152602001828054612fe0906141d0565b801561302d5780601f106130025761010080835404028352916020019161302d565b820191906000526020600020905b81548152906001019060200180831161301057829003601f168201915b50508551939450613049936000935060208701925090506139d5565b507fc9c7c3fe08b88b4df9d4d47ef47d2c43d55c025a0ba88ca442580ed9e7348a16818360405161307b9291906146d1565b60405180910390a15050565b8051600090156130dc57600080838060200190518101906130a89190614586565b9150915081516000141580156130bd57508015155b156130d9576130d9866004546130d3919061415e565b8561328e565b50505b6117128484846134bd565b60006131117f4e5f991bca30eca2d4643aaefa807e88f96a4a97398933d572a3c0d973004a015490565b15613178576040517f08c379a000000000000000000000000000000000000000000000000000000000815260206004820152601b60248201527f4552433732313a20616c726561647920696e697469616c697a656400000000006044820152606401610be4565b337fe9fcff60011c1a99f7b7244d1f2d9da93d79ea8ef3654ce590d775575255b2bd8190557fb56711ba6bd3ded7639fc335ee7524fe668a79d7558c85992e3f8494cf7727775473ffffffffffffffffffffffffffffffffffffffff811661323c576040517f08c379a000000000000000000000000000000000000000000000000000000000815260206004820152601860248201527f484f4c4f47524150483a206f776e6572206e6f742073657400000000000000006044820152606401610be4565b61326560017f4e5f991bca30eca2d4643aaefa807e88f96a4a97398933d572a3c0d973004a0155565b507f4ddf47d4000000000000000000000000000000000000000000000000000000009392505050565b600082815260056020908152604090912082516132ad928401906139d5565b505050565b60606132d7838360405180606001604052806027815260200161475b60279139613596565b9392505050565b60608160000361332157505060408051808201909152600181527f3000000000000000000000000000000000000000000000000000000000000000602082015290565b8160005b811561334b57806133358161454e565b91506133449050600a836141bc565b9150613325565b60008167ffffffffffffffff81111561336657613366613bb1565b6040519080825280601f01601f191660200182016040528015613390576020820181803683370190505b5090505b8415611712576133a5600183614176565b91506133b2600a866146ff565b6133bd90603061415e565b60f81b8183815181106133d2576133d26140c3565b60200101907effffffffffffffffffffffffffffffffffffffffffffffffffffffffffffff1916908160001a90535061340c600a866141bc565b9450613394565b60008281526003602052604090205460ff161561345f576040517fba0f359200000000000000000000000000000000000000000000000000000000815260048101839052602401610be4565b6000828152600260209081526040909120825161347e928401906139d5565b507f6bd5c950a8d8df17f772f5af37cb3655737899cbf903264b9795592da439661c6134a98361361b565b60408051918252602082018590520161307b565b60006134c7613730565b6134fd576040517ff409ec7300000000000000000000000000000000000000000000000000000000815260040160405180910390fd5b83600003613537576040517f8fd36a9b00000000000000000000000000000000000000000000000000000000815260040160405180910390fd5b6004546135458186866137c9565b6004919091559150807f2a0365091ef1a40953c670dce28177e37520648a6fdc91506bffac0ab045570d600161357b888461415e565b6135859190614176565b868660405161237193929190614713565b60606000808573ffffffffffffffffffffffffffffffffffffffff16856040516135c0919061473e565b600060405180830381855af49150503d80600081146135fb576040519150601f19603f3d011682016040523d82523d6000602084013e613600565b606091505b509150915061361186838387613835565b9695505050505050565b60008061362760015490565b90506000600180548060200260200160405190810160405280929190818152602001828054801561367757602002820191906000526020600020905b815481526020019060010190808311613663575b5050505050905060005b828110156136fa5781818151811061369b5761369b6140c3565b602002602001015185036136e85780156136dd57816136bb600183614176565b815181106136cb576136cb6140c3565b60200260200101519350505050919050565b506000949350505050565b806136f28161454e565b915050613681565b506040517f0f2624ee00000000000000000000000000000000000000000000000000000000815260048101859052602401610be4565b600061375a7f4e5f991bca30eca2d4643aaefa807e88f96a4a97398933d572a3c0d973004a015490565b1580610b2657507fb56711ba6bd3ded7639fc335ee7524fe668a79d7558c85992e3f8494cf7727775473ffffffffffffffffffffffffffffffffffffffff166137a1610a0d565b73ffffffffffffffffffffffffffffffffffffffff16148015610b2657505060065442101590565b6000806137d6848661415e565b600180548082019091557fb10e2d527612073b26eecdfd717e6a320cf44b4afac2b0732d9fcbe2b7fa0cf6018190556000818152600260209081526040909120855192945084935061382c9290918601906139d5565b50935093915050565b606083156138cb5782516000036138c45773ffffffffffffffffffffffffffffffffffffffff85163b6138c4576040517f08c379a000000000000000000000000000000000000000000000000000000000815260206004820152601d60248201527f416464726573733a2063616c6c20746f206e6f6e2d636f6e74726163740000006044820152606401610be4565b5081611712565b61171283838151156138e05781518083602001fd5b806040517f08c379a0000000000000000000000000000000000000000000000000000000008152600401610be49190613b1a565b828054613920906141d0565b90600052602060002090601f016020900481019282613942576000855561398f565b82601f10613953578054855561398f565b8280016001018555821561398f57600052602060002091601f016020900482015b8281111561398f578254825591600101919060010190613974565b50610a68929150613a49565b5080546139a7906141d0565b6000825580601f106139b7575050565b601f016020900490600052602060002090810190611d7f9190613a49565b8280546139e1906141d0565b90600052602060002090601f016020900481019282613a03576000855561398f565b82601f10613a1c57805160ff191683800117855561398f565b8280016001018555821561398f579182015b8281111561398f578251825591602001919060010190613a2e565b5b80821115610a685760008155600101613a4a565b600060208284031215613a7057600080fd5b81357fffffffff00000000000000000000000000000000000000000000000000000000811681146132d757600080fd5b60005b83811015613abb578181015183820152602001613aa3565b83811115613aca576000848401525b50505050565b60008151808452613ae8816020860160208601613aa0565b601f017fffffffffffffffffffffffffffffffffffffffffffffffffffffffffffffffe0169290920160200192915050565b6020815260006132d76020830184613ad0565b73ffffffffffffffffffffffffffffffffffffffff81168114611d7f57600080fd5b600060208284031215613b6157600080fd5b81356132d781613b2d565b600060208284031215613b7e57600080fd5b5035919050565b60008060408385031215613b9857600080fd5b8235613ba381613b2d565b946020939093013593505050565b7f4e487b7100000000000000000000000000000000000000000000000000000000600052604160045260246000fd5b6040516060810167ffffffffffffffff81118282101715613c0357613c03613bb1565b60405290565b604051610120810167ffffffffffffffff81118282101715613c0357613c03613bb1565b604051601f82017fffffffffffffffffffffffffffffffffffffffffffffffffffffffffffffffe016810167ffffffffffffffff81118282101715613c7457613c74613bb1565b604052919050565b600067ffffffffffffffff821115613c9657613c96613bb1565b50601f017fffffffffffffffffffffffffffffffffffffffffffffffffffffffffffffffe01660200190565b6000613cd5613cd084613c7c565b613c2d565b9050828152838383011115613ce957600080fd5b828260208301376000602084830101529392505050565b600082601f830112613d1157600080fd5b6132d783833560208501613cc2565b600060208284031215613d3257600080fd5b813567ffffffffffffffff811115613d4957600080fd5b61171284828501613d00565b600060208284031215613d6757600080fd5b813567ffffffffffffffff811115613d7e57600080fd5b8201601f81018413613d8f57600080fd5b61171284823560208401613cc2565b60008083601f840112613db057600080fd5b50813567ffffffffffffffff811115613dc857600080fd5b602083019150836020828501011115613de057600080fd5b9250929050565b600080600060408486031215613dfc57600080fd5b83359250602084013567ffffffffffffffff811115613e1a57600080fd5b613e2686828701613d9e565b9497909650939450505050565b600067ffffffffffffffff821115613e4d57613e4d613bb1565b5060051b60200190565b60006020808385031215613e6a57600080fd5b823567ffffffffffffffff80821115613e8257600080fd5b818501915085601f830112613e9657600080fd5b8135613ea4613cd082613e33565b81815260059190911b83018401908481019088831115613ec357600080fd5b8585015b83811015613efb57803585811115613edf5760008081fd5b613eed8b89838a0101613d00565b845250918601918601613ec7565b5098975050505050505050565b6000602080830181845280855180835260408601915060408160051b870101925083870160005b82811015613f7b577fffffffffffffffffffffffffffffffffffffffffffffffffffffffffffffffc0888603018452613f69858351613ad0565b94509285019290850190600101613f2f565b5092979650505050505050565b6cffffffffffffffffffffffffff81168114611d7f57600080fd5b62ffffff81168114611d7f57600080fd5b60008060408385031215613fc757600080fd5b8235613fd281613f88565b91506020830135613fe281613fa3565b809150509250929050565b60008060006040848603121561400257600080fd5b833567ffffffffffffffff8082111561401a57600080fd5b61402687838801613d00565b9450602086013591508082111561403c57600080fd5b50613e2686828701613d9e565b600082601f83011261405a57600080fd5b8151614068613cd082613c7c565b81815284602083860101111561407d57600080fd5b611712826020830160208701613aa0565b6000602082840312156140a057600080fd5b815167ffffffffffffffff8111156140b757600080fd5b61171284828501614049565b7f4e487b7100000000000000000000000000000000000000000000000000000000600052603260045260246000fd5b7f4e487b7100000000000000000000000000000000000000000000000000000000600052601160045260246000fd5b6000817fffffffffffffffffffffffffffffffffffffffffffffffffffffffffffffffff0483118215151615614159576141596140f2565b500290565b60008219821115614171576141716140f2565b500190565b600082821015614188576141886140f2565b500390565b7f4e487b7100000000000000000000000000000000000000000000000000000000600052601260045260246000fd5b6000826141cb576141cb61418d565b500490565b600181811c908216806141e457607f821691505b60208210810361209e577f4e487b7100000000000000000000000000000000000000000000000000000000600052602260045260246000fd5b805164ffffffffff8116811461296657600080fd5b805163ffffffff8116811461296657600080fd5b805161296681613fa3565b805161296681613b2d565b60006040828403121561426e57600080fd5b6040516040810181811067ffffffffffffffff8211171561429157614291613bb1565b806040525080915082516142a481613f88565b815260208301516142b481613fa3565b6020919091015292915050565b600082601f8301126142d257600080fd5b815160206142e2613cd083613e33565b82815260059290921b8401810191818101908684111561430157600080fd5b8286015b848110156143c957805167ffffffffffffffff808211156143265760008081fd5b81890191506060807fffffffffffffffffffffffffffffffffffffffffffffffffffffffffffffffe0848d0301121561435f5760008081fd5b614367613be0565b878401518152604080850151848111156143815760008081fd5b61438f8e8b83890101614049565b838b0152509184015191838311156143a75760008081fd5b6143b58d8a85880101614049565b908201528652505050918301918301614305565b509695505050505050565b6000602082840312156143e657600080fd5b815167ffffffffffffffff808211156143fe57600080fd5b90830190610140828603121561441357600080fd5b61441b613c09565b6144248361421d565b815261443260208401614232565b602082015261444360408401614246565b604082015261445460608401614251565b606082015261446560808401614251565b608082015261447660a08401614251565b60a082015260c08301518281111561448d57600080fd5b61449987828601614049565b60c0830152506144ac8660e0850161425c565b60e0820152610120830151828111156144c457600080fd5b6144d0878286016142c1565b6101008301525095945050505050565b600063ffffffff80831681851681830481118215151615614503576145036140f2565b02949350505050565b600064ffffffffff80831681851680830382111561452c5761452c6140f2565b01949350505050565b60006020828403121561454757600080fd5b5051919050565b60007fffffffffffffffffffffffffffffffffffffffffffffffffffffffffffffffff820361457f5761457f6140f2565b5060010190565b6000806040838503121561459957600080fd5b825167ffffffffffffffff8111156145b057600080fd5b6145bc85828601614049565b925050602083015190509250929050565b600085516145df818460208a01613aa0565b820184868237909301918252506020019392505050565b60008351614608818460208801613aa0565b60609390931b7fffffffffffffffffffffffffffffffffffffffff000000000000000000000000169190920190815260140192915050565b60007bffffffffffffffffffffffffffffffffffffffffffffffffffffffff80831681851680830382111561452c5761452c6140f2565b60008351614689818460208801613aa0565b83519083019061452c818360208801613aa0565b82848237909101908152602001919050565b6000602082840312156146c157600080fd5b815180151581146132d757600080fd5b6040815260006146e46040830185613ad0565b82810360208401526146f68185613ad0565b95945050505050565b60008261470e5761470e61418d565b500690565b83815260606020820152600061472c6060830185613ad0565b82810360408401526136118185613ad0565b60008251614750818460208701613aa0565b919091019291505056fe416464726573733a206c6f772d6c6576656c2064656c65676174652063616c6c206661696c6564a164736f6c634300080d000a",
    "linkReferences": {}
  },
  "methodIdentifiers": {
    "END_DATE()": "545599ff",
    "FUNDS_RECIPIENT()": "37b11bbf",
    "INITIAL_END_DATE()": "457509bf",
    "INITIAL_MAX_SUPPLY()": "ed616341",
    "MINT_INTERVAL()": "84e7e3d3",
    "START_DATE()": "372c6533",
    "baseURI(uint256)": "2ccde4f6",
    "batchFrozen(uint256)": "83040532",
    "contractURI()": "e8a3d485",
    "currentTheoricalMaxSupply()": "2df667fb",
    "dropsPriceOracle()": "8cb163f4",
    "encryptDecrypt(bytes,bytes)": "e7150322",
    "encryptedData(uint256)": "a05112fc",
    "getBaseURICount()": "63b45e2d",
    "getBatchIdAtIndex(uint256)": "2419f51b",
    "getNativePrice()": "17430c9e",
    "getRevealURI(uint256,bytes)": "9fc4d68f",
    "init(bytes)": "4ddf47d4",
    "isAdmin(address)": "24d7806c",
    "isEncryptedBatch(uint256)": "492e224b",
    "isOwner()": "8f32d59b",
    "isOwner(address)": "2f54bf6e",
    "mintTo(address,uint256)": "449a52f8",
    "mintedPerAddress(address)": "d445b978",
    "minter()": "07546172",
    "multicall(bytes[])": "ac9650d8",
    "name()": "06fdde03",
    "nextTokenIdToClaim()": "acd083f8",
    "nextTokenIdToMint()": "3b1475a7",
    "owner()": "8da5cb5b",
    "purchase(uint256)": "efef39a1",
    "reveal(uint256,bytes)": "ce805642",
    "saleDetails()": "3474a4a6",
    "salesConfig()": "1d2c0b38",
    "setContractURI(string)": "938e3d7b",
    "setFundsRecipient(address)": "10a7eb5d",
    "setSaleConfiguration(uint104,uint24)": "cb0793bc",
    "supportsInterface(bytes4)": "01ffc9a7",
    "syncLazyMint()": "6c73853e",
    "tokenURI(uint256)": "c87b56dd",
    "totalMinted()": "a2309ff8",
    "totalMintsByAddress(address)": "9123f01e",
    "version()": "54fd4d50",
    "withdraw()": "3ccfd60b"
  }
}