{
  "address": "0x7A359570666a126247f0Fefb7E4b51D14C645703",
  "abi": [
    {
      "inputs": [],
      "stateMutability": "nonpayable",
      "type": "constructor"
    },
    {
      "inputs": [],
      "name": "admin",
      "outputs": [
        {
          "internalType": "address",
          "name": "",
          "type": "address"
        }
      ],
      "stateMutability": "view",
      "type": "function"
    },
    {
      "inputs": [
        {
          "internalType": "address",
          "name": "target",
          "type": "address"
        },
        {
          "internalType": "bytes",
          "name": "data",
          "type": "bytes"
        }
      ],
      "name": "adminCall",
      "outputs": [],
      "stateMutability": "payable",
      "type": "function"
    },
    {
      "inputs": [
        {
          "internalType": "bytes32",
          "name": "hash",
          "type": "bytes32"
        },
        {
          "internalType": "address",
          "name": "contractAddress",
          "type": "address"
        }
      ],
      "name": "factoryDeployedHash",
      "outputs": [],
      "stateMutability": "nonpayable",
      "type": "function"
    },
    {
      "inputs": [],
      "name": "getAdmin",
      "outputs": [
        {
          "internalType": "address",
          "name": "adminAddress",
          "type": "address"
        }
      ],
      "stateMutability": "view",
      "type": "function"
    },
    {
      "inputs": [
        {
          "internalType": "bytes32",
          "name": "contractType",
          "type": "bytes32"
        }
      ],
      "name": "getContractTypeAddress",
      "outputs": [
        {
          "internalType": "address",
          "name": "",
          "type": "address"
        }
      ],
      "stateMutability": "view",
      "type": "function"
    },
    {
      "inputs": [
        {
          "internalType": "uint32",
          "name": "chainId",
          "type": "uint32"
        }
      ],
      "name": "getHToken",
      "outputs": [
        {
          "internalType": "address",
          "name": "",
          "type": "address"
        }
      ],
      "stateMutability": "view",
      "type": "function"
    },
    {
      "inputs": [],
      "name": "getHolograph",
      "outputs": [
        {
          "internalType": "address",
          "name": "holograph",
          "type": "address"
        }
      ],
      "stateMutability": "view",
      "type": "function"
    },
    {
      "inputs": [
        {
          "internalType": "bytes32",
          "name": "hash",
          "type": "bytes32"
        }
      ],
      "name": "getHolographedHashAddress",
      "outputs": [
        {
          "internalType": "address",
          "name": "",
          "type": "address"
        }
      ],
      "stateMutability": "view",
      "type": "function"
    },
    {
      "inputs": [
        {
          "internalType": "bytes",
          "name": "data",
          "type": "bytes"
        }
      ],
      "name": "init",
      "outputs": [
        {
          "internalType": "bytes4",
          "name": "",
          "type": "bytes4"
        }
      ],
      "stateMutability": "nonpayable",
      "type": "function"
    },
    {
      "inputs": [
        {
          "internalType": "address",
          "name": "smartContract",
          "type": "address"
        }
      ],
      "name": "isHolographedContract",
      "outputs": [
        {
          "internalType": "bool",
          "name": "",
          "type": "bool"
        }
      ],
      "stateMutability": "view",
      "type": "function"
    },
    {
      "inputs": [
        {
          "internalType": "bytes32",
          "name": "hash",
          "type": "bytes32"
        }
      ],
      "name": "isHolographedHashDeployed",
      "outputs": [
        {
          "internalType": "bool",
          "name": "",
          "type": "bool"
        }
      ],
      "stateMutability": "view",
      "type": "function"
    },
    {
      "inputs": [
        {
          "internalType": "address",
          "name": "contractAddress",
          "type": "address"
        }
      ],
      "name": "referenceContractTypeAddress",
      "outputs": [
        {
          "internalType": "bytes32",
          "name": "",
          "type": "bytes32"
        }
      ],
      "stateMutability": "nonpayable",
      "type": "function"
    },
    {
      "inputs": [
        {
          "internalType": "address",
          "name": "adminAddress",
          "type": "address"
        }
      ],
      "name": "setAdmin",
      "outputs": [],
      "stateMutability": "nonpayable",
      "type": "function"
    },
    {
      "inputs": [
        {
          "internalType": "bytes32",
          "name": "contractType",
          "type": "bytes32"
        },
        {
          "internalType": "address",
          "name": "contractAddress",
          "type": "address"
        }
      ],
      "name": "setContractTypeAddress",
      "outputs": [],
      "stateMutability": "nonpayable",
      "type": "function"
    },
    {
      "inputs": [
        {
          "internalType": "uint32",
          "name": "chainId",
          "type": "uint32"
        },
        {
          "internalType": "address",
          "name": "hToken",
          "type": "address"
        }
      ],
      "name": "setHToken",
      "outputs": [],
      "stateMutability": "nonpayable",
      "type": "function"
    },
    {
      "inputs": [
        {
          "internalType": "address",
          "name": "holograph",
          "type": "address"
        }
      ],
      "name": "setHolograph",
      "outputs": [],
      "stateMutability": "nonpayable",
      "type": "function"
    },
    {
      "inputs": [
        {
          "internalType": "bytes32[]",
          "name": "hashes",
          "type": "bytes32[]"
        },
        {
          "internalType": "bool[]",
          "name": "reserved",
          "type": "bool[]"
        }
      ],
      "name": "updateReservedContractTypes",
      "outputs": [],
      "stateMutability": "nonpayable",
      "type": "function"
    }
  ],
  "transactionHash": "0x659f45d68fcbecec1d1a295502c6a813ff33e5d79a155786d019c9258bd1c9d4",
  "args": [],
  "numDeployments": 1,
  "solcInputHash": "baadfd951e13d468af7acca3ea127c51",
  "bytecode": "0x608060405234801561001057600080fd5b50611553806100206000396000f3fe60806040526004361061010e5760003560e01c8063704b6c02116100a5578063cc2913f911610074578063d9aa2a7c11610059578063d9aa2a7c1461041f578063ede4a5191461043f578063f851a4401461045f57600080fd5b8063cc2913f914610399578063d1636782146103dc57600080fd5b8063704b6c02146102ef578063768797c31461030f578063949d53a71461033d578063bf64a82d1461038657600080fd5b80634827ae0c116100e15780634827ae0c146101f55780634ddf47d41461024a57806356116d541461029b5780636e9960c3146102bb57600080fd5b806324299c6e1461011357806325d5cac81461016d57806335ee77cf1461018f57806344b25fff146101af575b600080fd5b34801561011f57600080fd5b5061015861012e36600461105c565b60009081526001602052604090205473ffffffffffffffffffffffffffffffffffffffff16151590565b60405190151581526020015b60405180910390f35b34801561017957600080fd5b5061018d61018836600461109a565b610474565b005b34801561019b57600080fd5b5061018d6101aa3660046110d7565b610553565b3480156101bb57600080fd5b506101586101ca36600461109a565b73ffffffffffffffffffffffffffffffffffffffff1660009081526020819052604090205460ff1690565b34801561020157600080fd5b507f1eee493315beeac80829afd0aaa340f3821cabe68571a2743478e81638a3d94d545b60405173ffffffffffffffffffffffffffffffffffffffff9091168152602001610164565b34801561025657600080fd5b5061026a61026536600461118c565b610664565b6040517fffffffff000000000000000000000000000000000000000000000000000000009091168152602001610164565b3480156102a757600080fd5b5061018d6102b636600461123f565b61080f565b3480156102c757600080fd5b507f5705f5753aa4f617eef2cae1dada3d3355e9387b04d19191f09b545e684ca50d54610225565b3480156102fb57600080fd5b5061018d61030a36600461109a565b610990565b34801561031b57600080fd5b5061032f61032a36600461109a565b610a6a565b604051908152602001610164565b34801561034957600080fd5b50610225610358366004611264565b63ffffffff1660009081526004602052604090205473ffffffffffffffffffffffffffffffffffffffff1690565b61018d61039436600461127f565b610c5e565b3480156103a557600080fd5b506102256103b436600461105c565b60009081526002602052604090205473ffffffffffffffffffffffffffffffffffffffff1690565b3480156103e857600080fd5b506102256103f736600461105c565b60009081526001602052604090205473ffffffffffffffffffffffffffffffffffffffff1690565b34801561042b57600080fd5b5061018d61043a36600461123f565b610d40565b34801561044b57600080fd5b5061018d61045a366004611350565b610ef0565b34801561046b57600080fd5b5061022561102d565b7f5705f5753aa4f617eef2cae1dada3d3355e9387b04d19191f09b545e684ca50d5473ffffffffffffffffffffffffffffffffffffffff163373ffffffffffffffffffffffffffffffffffffffff161461052f576040517f08c379a000000000000000000000000000000000000000000000000000000000815260206004820152601e60248201527f484f4c4f47524150483a2061646d696e206f6e6c792066756e6374696f6e000060448201526064015b60405180910390fd5b7f1eee493315beeac80829afd0aaa340f3821cabe68571a2743478e81638a3d94d55565b7f5705f5753aa4f617eef2cae1dada3d3355e9387b04d19191f09b545e684ca50d5473ffffffffffffffffffffffffffffffffffffffff163373ffffffffffffffffffffffffffffffffffffffff1614610609576040517f08c379a000000000000000000000000000000000000000000000000000000000815260206004820152601e60248201527f484f4c4f47524150483a2061646d696e206f6e6c792066756e6374696f6e00006044820152606401610526565b63ffffffff91909116600090815260046020526040902080547fffffffffffffffffffffffff00000000000000000000000000000000000000001673ffffffffffffffffffffffffffffffffffffffff909216919091179055565b60006106907f4e5f991bca30eca2d4643aaefa807e88f96a4a97398933d572a3c0d973004a0154151590565b156106f7576040517f08c379a000000000000000000000000000000000000000000000000000000000815260206004820152601e60248201527f484f4c4f47524150483a20616c726561647920696e697469616c697a656400006044820152606401610526565b6000808380602001905181019061070e91906113bc565b91509150327f5705f5753aa4f617eef2cae1dada3d3355e9387b04d19191f09b545e684ca50d55817f1eee493315beeac80829afd0aaa340f3821cabe68571a2743478e81638a3d94d5560005b81518110156107bc5760016003600084848151811061077c5761077c611479565b6020026020010151815260200190815260200160002060006101000a81548160ff02191690831515021790555080806107b4906114a8565b91505061075b565b506107e660017f4e5f991bca30eca2d4643aaefa807e88f96a4a97398933d572a3c0d973004a0155565b507f4ddf47d4000000000000000000000000000000000000000000000000000000009392505050565b7f5705f5753aa4f617eef2cae1dada3d3355e9387b04d19191f09b545e684ca50d5473ffffffffffffffffffffffffffffffffffffffff163373ffffffffffffffffffffffffffffffffffffffff16146108c5576040517f08c379a000000000000000000000000000000000000000000000000000000000815260206004820152601e60248201527f484f4c4f47524150483a2061646d696e206f6e6c792066756e6374696f6e00006044820152606401610526565b60008281526003602052604090205460ff1661093d576040517f08c379a000000000000000000000000000000000000000000000000000000000815260206004820152601c60248201527f484f4c4f47524150483a206e6f742072657365727665642074797065000000006044820152606401610526565b60009182526002602052604090912080547fffffffffffffffffffffffff00000000000000000000000000000000000000001673ffffffffffffffffffffffffffffffffffffffff909216919091179055565b7f5705f5753aa4f617eef2cae1dada3d3355e9387b04d19191f09b545e684ca50d5473ffffffffffffffffffffffffffffffffffffffff163373ffffffffffffffffffffffffffffffffffffffff1614610a46576040517f08c379a000000000000000000000000000000000000000000000000000000000815260206004820152601e60248201527f484f4c4f47524150483a2061646d696e206f6e6c792066756e6374696f6e00006044820152606401610526565b7f5705f5753aa4f617eef2cae1dada3d3355e9387b04d19191f09b545e684ca50d55565b6000813f8015801590610a9d57507fc5d2460186f7233c927e7db2dcc703c0e500b653ca82273b7bfad8045d85a4708114155b610b03576040517f08c379a000000000000000000000000000000000000000000000000000000000815260206004820152601960248201527f484f4c4f47524150483a20656d70747920636f6e7472616374000000000000006044820152606401610526565b60008181526002602052604090205473ffffffffffffffffffffffffffffffffffffffff1615610b8f576040517f08c379a000000000000000000000000000000000000000000000000000000000815260206004820152601f60248201527f484f4c4f47524150483a20636f6e747261637420616c726561647920736574006044820152606401610526565b60008181526003602052604090205460ff1615610c08576040517f08c379a000000000000000000000000000000000000000000000000000000000815260206004820181905260248201527f484f4c4f47524150483a207265736572766564206164647265737320747970656044820152606401610526565b600081815260026020526040902080547fffffffffffffffffffffffff00000000000000000000000000000000000000001673ffffffffffffffffffffffffffffffffffffffff94909416939093179092555090565b7f5705f5753aa4f617eef2cae1dada3d3355e9387b04d19191f09b545e684ca50d5473ffffffffffffffffffffffffffffffffffffffff163373ffffffffffffffffffffffffffffffffffffffff1614610d14576040517f08c379a000000000000000000000000000000000000000000000000000000000815260206004820152601e60248201527f484f4c4f47524150483a2061646d696e206f6e6c792066756e6374696f6e00006044820152606401610526565b808260003760008082600034875af13d6000803e808015610d34573d6000f35b3d6000fd5b5050505050565b60007f1eee493315beeac80829afd0aaa340f3821cabe68571a2743478e81638a3d94d5490508073ffffffffffffffffffffffffffffffffffffffff166388cc58e46040518163ffffffff1660e01b8152600401602060405180830381865afa158015610db1573d6000803e3d6000fd5b505050506040513d601f19601f82011682018060405250810190610dd59190611507565b73ffffffffffffffffffffffffffffffffffffffff163373ffffffffffffffffffffffffffffffffffffffff1614610e69576040517f08c379a000000000000000000000000000000000000000000000000000000000815260206004820181905260248201527f484f4c4f47524150483a20666163746f7279206f6e6c792066756e6374696f6e6044820152606401610526565b506000918252600160208181526040808520805473ffffffffffffffffffffffffffffffffffffffff9095167fffffffffffffffffffffffff000000000000000000000000000000000000000090951685179055928452839052912080547fffffffffffffffffffffffffffffffffffffffffffffffffffffffffffffff00169091179055565b7f5705f5753aa4f617eef2cae1dada3d3355e9387b04d19191f09b545e684ca50d5473ffffffffffffffffffffffffffffffffffffffff163373ffffffffffffffffffffffffffffffffffffffff1614610fa6576040517f08c379a000000000000000000000000000000000000000000000000000000000815260206004820152601e60248201527f484f4c4f47524150483a2061646d696e206f6e6c792066756e6374696f6e00006044820152606401610526565b60005b83811015610d3957828282818110610fc357610fc3611479565b9050602002016020810190610fd89190611524565b60036000878785818110610fee57610fee611479565b90506020020135815260200190815260200160002060006101000a81548160ff0219169083151502179055508080611025906114a8565b915050610fa9565b60006110577f5705f5753aa4f617eef2cae1dada3d3355e9387b04d19191f09b545e684ca50d5490565b905090565b60006020828403121561106e57600080fd5b5035919050565b73ffffffffffffffffffffffffffffffffffffffff8116811461109757600080fd5b50565b6000602082840312156110ac57600080fd5b81356110b781611075565b9392505050565b803563ffffffff811681146110d257600080fd5b919050565b600080604083850312156110ea57600080fd5b6110f3836110be565b9150602083013561110381611075565b809150509250929050565b7f4e487b7100000000000000000000000000000000000000000000000000000000600052604160045260246000fd5b604051601f82017fffffffffffffffffffffffffffffffffffffffffffffffffffffffffffffffe016810167ffffffffffffffff811182821017156111845761118461110e565b604052919050565b6000602080838503121561119f57600080fd5b823567ffffffffffffffff808211156111b757600080fd5b818501915085601f8301126111cb57600080fd5b8135818111156111dd576111dd61110e565b61120d847fffffffffffffffffffffffffffffffffffffffffffffffffffffffffffffffe0601f8401160161113d565b9150808252868482850101111561122357600080fd5b8084840185840137600090820190930192909252509392505050565b6000806040838503121561125257600080fd5b82359150602083013561110381611075565b60006020828403121561127657600080fd5b6110b7826110be565b60008060006040848603121561129457600080fd5b833561129f81611075565b9250602084013567ffffffffffffffff808211156112bc57600080fd5b818601915086601f8301126112d057600080fd5b8135818111156112df57600080fd5b8760208285010111156112f157600080fd5b6020830194508093505050509250925092565b60008083601f84011261131657600080fd5b50813567ffffffffffffffff81111561132e57600080fd5b6020830191508360208260051b850101111561134957600080fd5b9250929050565b6000806000806040858703121561136657600080fd5b843567ffffffffffffffff8082111561137e57600080fd5b61138a88838901611304565b909650945060208701359150808211156113a357600080fd5b506113b087828801611304565b95989497509550505050565b600080604083850312156113cf57600080fd5b82516113da81611075565b8092505060208084015167ffffffffffffffff808211156113fa57600080fd5b818601915086601f83011261140e57600080fd5b8151818111156114205761142061110e565b8060051b915061143184830161113d565b818152918301840191848101908984111561144b57600080fd5b938501935b8385101561146957845182529385019390850190611450565b8096505050505050509250929050565b7f4e487b7100000000000000000000000000000000000000000000000000000000600052603260045260246000fd5b60007fffffffffffffffffffffffffffffffffffffffffffffffffffffffffffffffff8203611500577f4e487b7100000000000000000000000000000000000000000000000000000000600052601160045260246000fd5b5060010190565b60006020828403121561151957600080fd5b81516110b781611075565b60006020828403121561153657600080fd5b813580151581146110b757600080fdfea164736f6c634300080d000a",
  "devdoc": {
    "details": "This smart contract stores the different source codes that have been prepared and can be used for bridging.We will store here the layer 1 for ERC721 and ERC1155 smart contracts.This way it can be super easy to upgrade/update the source code once, and have all smart contracts automatically updated.",
    "kind": "dev",
    "methods": {
      "constructor": {
        "details": "Constructor is left empty and only the admin address is set."
      },
      "factoryDeployedHash(bytes32,address)": {
        "details": "Allows Holograph Factory to register a deployed contract, referenced with deployment hash."
      },
      "getContractTypeAddress(bytes32)": {
        "details": "Returns the contract address for a contract type."
      },
      "getHToken(uint32)": {
        "details": "Returns the hToken address for a given chain id."
      },
      "getHolographedHashAddress(bytes32)": {
        "details": "Returns the address for a holographed hash"
      },
      "init(bytes)": {
        "details": "An array of initially reserved contract types for admin only to set."
      },
      "referenceContractTypeAddress(address)": {
        "details": "Allows to reference a deployed smart contract, and use it's code as reference inside of Holographers."
      },
      "setContractTypeAddress(bytes32,address)": {
        "details": "Sets the contract address for a contract type."
      },
      "setHToken(uint32,address)": {
        "details": "Sets the hToken address for a specific chain id."
      },
      "updateReservedContractTypes(bytes32[],bool[])": {
        "details": "Allows admin to update or toggle reserved types."
      }
    },
    "stateVariables": {
      "_contractTypeAddresses": {
        "details": "Storage slot for saving contract type to contract address references."
      },
      "_hTokens": {
        "details": "Mapping of all hTokens available for the different EVM chains"
      },
      "_holographedContracts": {
        "details": "A list of smart contracts that are guaranteed secure and holographable."
      },
      "_holographedContractsHashMap": {
        "details": "A list of hashes and the mapped out contract addresses."
      },
      "_reservedTypes": {
        "details": "Reserved type addresses for Admin.  Note: this is used for defining default contracts."
      }
    },
    "version": 1
  },
  "userdoc": {
    "kind": "user",
    "methods": {},
    "version": 1
  },
  "storageLayout": {
    "storage": [
      {
        "astId": 5856,
        "contract": "contracts/HolographRegistry.sol:HolographRegistry",
        "label": "_holographedContracts",
        "offset": 0,
        "slot": "0",
        "type": "t_mapping(t_address,t_bool)"
      },
      {
        "astId": 5861,
        "contract": "contracts/HolographRegistry.sol:HolographRegistry",
        "label": "_holographedContractsHashMap",
        "offset": 0,
        "slot": "1",
        "type": "t_mapping(t_bytes32,t_address)"
      },
      {
        "astId": 5866,
        "contract": "contracts/HolographRegistry.sol:HolographRegistry",
        "label": "_contractTypeAddresses",
        "offset": 0,
        "slot": "2",
        "type": "t_mapping(t_bytes32,t_address)"
      },
      {
        "astId": 5871,
        "contract": "contracts/HolographRegistry.sol:HolographRegistry",
        "label": "_reservedTypes",
        "offset": 0,
        "slot": "3",
        "type": "t_mapping(t_bytes32,t_bool)"
      },
      {
        "astId": 5876,
        "contract": "contracts/HolographRegistry.sol:HolographRegistry",
        "label": "_hTokens",
        "offset": 0,
        "slot": "4",
        "type": "t_mapping(t_uint32,t_address)"
      }
    ],
    "types": {
      "t_address": {
        "encoding": "inplace",
        "label": "address",
        "numberOfBytes": "20"
      },
      "t_bool": {
        "encoding": "inplace",
        "label": "bool",
        "numberOfBytes": "1"
      },
      "t_bytes32": {
        "encoding": "inplace",
        "label": "bytes32",
        "numberOfBytes": "32"
      },
      "t_mapping(t_address,t_bool)": {
        "encoding": "mapping",
        "key": "t_address",
        "label": "mapping(address => bool)",
        "numberOfBytes": "32",
        "value": "t_bool"
      },
      "t_mapping(t_bytes32,t_address)": {
        "encoding": "mapping",
        "key": "t_bytes32",
        "label": "mapping(bytes32 => address)",
        "numberOfBytes": "32",
        "value": "t_address"
      },
      "t_mapping(t_bytes32,t_bool)": {
        "encoding": "mapping",
        "key": "t_bytes32",
        "label": "mapping(bytes32 => bool)",
        "numberOfBytes": "32",
        "value": "t_bool"
      },
      "t_mapping(t_uint32,t_address)": {
        "encoding": "mapping",
        "key": "t_uint32",
        "label": "mapping(uint32 => address)",
        "numberOfBytes": "32",
        "value": "t_address"
      },
      "t_uint32": {
        "encoding": "inplace",
        "label": "uint32",
        "numberOfBytes": "4"
      }
    }
  }
}