{
  "address": "0x16A22040D6934367b7b72355D62F78C56b2Ae452",
  "abi": [
    {
      "inputs": [],
      "stateMutability": "nonpayable",
      "type": "constructor"
    },
    {
      "stateMutability": "payable",
      "type": "fallback"
    },
    {
      "inputs": [],
      "name": "admin",
      "outputs": [
        {
          "internalType": "address",
          "name": "",
          "type": "address"
        }
      ],
      "stateMutability": "view",
      "type": "function"
    },
    {
      "inputs": [
        {
          "internalType": "address",
          "name": "target",
          "type": "address"
        },
        {
          "internalType": "bytes",
          "name": "data",
          "type": "bytes"
        }
      ],
      "name": "adminCall",
      "outputs": [],
      "stateMutability": "payable",
      "type": "function"
    },
    {
      "inputs": [],
      "name": "getAdmin",
      "outputs": [
        {
          "internalType": "address",
          "name": "adminAddress",
          "type": "address"
        }
      ],
      "stateMutability": "view",
      "type": "function"
    },
    {
      "inputs": [],
      "name": "getBridge",
      "outputs": [
        {
          "internalType": "address",
          "name": "bridge",
          "type": "address"
        }
      ],
      "stateMutability": "view",
      "type": "function"
    },
    {
      "inputs": [
        {
          "internalType": "bytes",
          "name": "data",
          "type": "bytes"
        }
      ],
      "name": "init",
      "outputs": [
        {
          "internalType": "bytes4",
          "name": "",
          "type": "bytes4"
        }
      ],
      "stateMutability": "nonpayable",
      "type": "function"
    },
    {
      "inputs": [
        {
          "internalType": "address",
          "name": "adminAddress",
          "type": "address"
        }
      ],
      "name": "setAdmin",
      "outputs": [],
      "stateMutability": "nonpayable",
      "type": "function"
    },
    {
      "inputs": [
        {
          "internalType": "address",
          "name": "bridge",
          "type": "address"
        }
      ],
      "name": "setBridge",
      "outputs": [],
      "stateMutability": "nonpayable",
      "type": "function"
    },
    {
      "stateMutability": "payable",
      "type": "receive"
    }
  ],
  "transactionHash": "0xfa363d2e670e11c84908175007c329d8717e2cab8a1635fe10d0ecef4309b31c",
  "args": [],
  "numDeployments": 1,
  "solcInputHash": "baadfd951e13d468af7acca3ea127c51",
  "bytecode": "0x608060405234801561001057600080fd5b50610b5c806100206000396000f3fe6080604052600436106100745760003560e01c8063704b6c021161004e578063704b6c02146101a05780638dd14802146101c0578063bf64a82d146101e0578063f851a440146101f35761007b565b80630fffbaf3146100c15780634ddf47d41461011b5780636e9960c31461016c5761007b565b3661007b57005b7f03be85923973d3197c19b1ad1f9b28c331dd9229cd80cbf84926b2286fc4563f5460003681823780813683855af491503d81823e8180156100bb573d82f35b3d82fd5b005b3480156100cd57600080fd5b507f03be85923973d3197c19b1ad1f9b28c331dd9229cd80cbf84926b2286fc4563f545b60405173ffffffffffffffffffffffffffffffffffffffff90911681526020015b60405180910390f35b34801561012757600080fd5b5061013b610136366004610895565b610208565b6040517fffffffff000000000000000000000000000000000000000000000000000000009091168152602001610112565b34801561017857600080fd5b507f5705f5753aa4f617eef2cae1dada3d3355e9387b04d19191f09b545e684ca50d546100f1565b3480156101ac57600080fd5b506100bf6101bb36600461093a565b610513565b3480156101cc57600080fd5b506100bf6101db36600461093a565b6105ed565b6100bf6101ee36600461095e565b6106c7565b3480156101ff57600080fd5b506100f16107a2565b60006102347f4e5f991bca30eca2d4643aaefa807e88f96a4a97398933d572a3c0d973004a0154151590565b156102a0576040517f08c379a000000000000000000000000000000000000000000000000000000000815260206004820152601e60248201527f484f4c4f47524150483a20616c726561647920696e697469616c697a6564000060448201526064015b60405180910390fd5b600080838060200190518101906102b79190610a13565b91509150817f03be85923973d3197c19b1ad1f9b28c331dd9229cd80cbf84926b2286fc4563f55327f5705f5753aa4f617eef2cae1dada3d3355e9387b04d19191f09b545e684ca50d556000808373ffffffffffffffffffffffffffffffffffffffff168360405160240161032c9190610aa0565b604080517fffffffffffffffffffffffffffffffffffffffffffffffffffffffffffffffe08184030181529181526020820180517bffffffffffffffffffffffffffffffffffffffffffffffffffffffff167f4ddf47d400000000000000000000000000000000000000000000000000000000179052516103ad9190610af1565b600060405180830381855af49150503d80600081146103e8576040519150601f19603f3d011682016040523d82523d6000602084013e6103ed565b606091505b50915091506000818060200190518101906104089190610b0d565b905082801561045857507fffffffff0000000000000000000000000000000000000000000000000000000081167f4ddf47d400000000000000000000000000000000000000000000000000000000145b6104be576040517f08c379a000000000000000000000000000000000000000000000000000000000815260206004820152601560248201527f696e697469616c697a6174696f6e206661696c656400000000000000000000006044820152606401610297565b6104e760017f4e5f991bca30eca2d4643aaefa807e88f96a4a97398933d572a3c0d973004a0155565b507f4ddf47d4000000000000000000000000000000000000000000000000000000009695505050505050565b7f5705f5753aa4f617eef2cae1dada3d3355e9387b04d19191f09b545e684ca50d5473ffffffffffffffffffffffffffffffffffffffff163373ffffffffffffffffffffffffffffffffffffffff16146105c9576040517f08c379a000000000000000000000000000000000000000000000000000000000815260206004820152601e60248201527f484f4c4f47524150483a2061646d696e206f6e6c792066756e6374696f6e00006044820152606401610297565b7f5705f5753aa4f617eef2cae1dada3d3355e9387b04d19191f09b545e684ca50d55565b7f5705f5753aa4f617eef2cae1dada3d3355e9387b04d19191f09b545e684ca50d5473ffffffffffffffffffffffffffffffffffffffff163373ffffffffffffffffffffffffffffffffffffffff16146106a3576040517f08c379a000000000000000000000000000000000000000000000000000000000815260206004820152601e60248201527f484f4c4f47524150483a2061646d696e206f6e6c792066756e6374696f6e00006044820152606401610297565b7f03be85923973d3197c19b1ad1f9b28c331dd9229cd80cbf84926b2286fc4563f55565b7f5705f5753aa4f617eef2cae1dada3d3355e9387b04d19191f09b545e684ca50d5473ffffffffffffffffffffffffffffffffffffffff163373ffffffffffffffffffffffffffffffffffffffff161461077d576040517f08c379a000000000000000000000000000000000000000000000000000000000815260206004820152601e60248201527f484f4c4f47524150483a2061646d696e206f6e6c792066756e6374696f6e00006044820152606401610297565b808260003760008082600034875af13d6000803e80801561079d573d6000f35b3d6000fd5b60006107cc7f5705f5753aa4f617eef2cae1dada3d3355e9387b04d19191f09b545e684ca50d5490565b905090565b7f4e487b7100000000000000000000000000000000000000000000000000000000600052604160045260246000fd5b604051601f82017fffffffffffffffffffffffffffffffffffffffffffffffffffffffffffffffe016810167ffffffffffffffff81118282101715610847576108476107d1565b604052919050565b600067ffffffffffffffff821115610869576108696107d1565b50601f017fffffffffffffffffffffffffffffffffffffffffffffffffffffffffffffffe01660200190565b6000602082840312156108a757600080fd5b813567ffffffffffffffff8111156108be57600080fd5b8201601f810184136108cf57600080fd5b80356108e26108dd8261084f565b610800565b8181528560208385010111156108f757600080fd5b81602084016020830137600091810160200191909152949350505050565b73ffffffffffffffffffffffffffffffffffffffff8116811461093757600080fd5b50565b60006020828403121561094c57600080fd5b813561095781610915565b9392505050565b60008060006040848603121561097357600080fd5b833561097e81610915565b9250602084013567ffffffffffffffff8082111561099b57600080fd5b818601915086601f8301126109af57600080fd5b8135818111156109be57600080fd5b8760208285010111156109d057600080fd5b6020830194508093505050509250925092565b60005b838110156109fe5781810151838201526020016109e6565b83811115610a0d576000848401525b50505050565b60008060408385031215610a2657600080fd5b8251610a3181610915565b602084015190925067ffffffffffffffff811115610a4e57600080fd5b8301601f81018513610a5f57600080fd5b8051610a6d6108dd8261084f565b818152866020838501011115610a8257600080fd5b610a938260208301602086016109e3565b8093505050509250929050565b6020815260008251806020840152610abf8160408501602087016109e3565b601f017fffffffffffffffffffffffffffffffffffffffffffffffffffffffffffffffe0169190910160400192915050565b60008251610b038184602087016109e3565b9190910192915050565b600060208284031215610b1f57600080fd5b81517fffffffff000000000000000000000000000000000000000000000000000000008116811461095757600080fdfea164736f6c634300080d000a",
  "devdoc": {
    "kind": "dev",
    "methods": {},
    "version": 1
  },
  "userdoc": {
    "kind": "user",
    "methods": {},
    "version": 1
  },
  "storageLayout": {
    "storage": [],
    "types": null
  }
}