{
  "address": "0x7aA1833c52f296926ab0c0D64Ce8216D9c2ed9e2",
  "abi": [
    {
      "inputs": [],
      "stateMutability": "nonpayable",
      "type": "constructor"
    },
    {
      "anonymous": false,
      "inputs": [
        {
          "indexed": true,
          "internalType": "address",
          "name": "contractAddress",
          "type": "address"
        },
        {
          "indexed": true,
          "internalType": "bytes32",
          "name": "hash",
          "type": "bytes32"
        }
      ],
      "name": "BridgeableContractDeployed",
      "type": "event"
    },
    {
      "inputs": [],
      "name": "admin",
      "outputs": [
        {
          "internalType": "address",
          "name": "",
          "type": "address"
        }
      ],
      "stateMutability": "view",
      "type": "function"
    },
    {
      "inputs": [
        {
          "internalType": "address",
          "name": "target",
          "type": "address"
        },
        {
          "internalType": "bytes",
          "name": "data",
          "type": "bytes"
        }
      ],
      "name": "adminCall",
      "outputs": [],
      "stateMutability": "payable",
      "type": "function"
    },
    {
      "inputs": [
        {
          "components": [
            {
              "internalType": "bytes32",
              "name": "contractType",
              "type": "bytes32"
            },
            {
              "internalType": "uint32",
              "name": "chainType",
              "type": "uint32"
            },
            {
              "internalType": "bytes32",
              "name": "salt",
              "type": "bytes32"
            },
            {
              "internalType": "bytes",
              "name": "byteCode",
              "type": "bytes"
            },
            {
              "internalType": "bytes",
              "name": "initCode",
              "type": "bytes"
            }
          ],
          "internalType": "struct DeploymentConfig",
          "name": "config",
          "type": "tuple"
        },
        {
          "components": [
            {
              "internalType": "bytes32",
              "name": "r",
              "type": "bytes32"
            },
            {
              "internalType": "bytes32",
              "name": "s",
              "type": "bytes32"
            },
            {
              "internalType": "uint8",
              "name": "v",
              "type": "uint8"
            }
          ],
          "internalType": "struct Verification",
          "name": "signature",
          "type": "tuple"
        },
        {
          "internalType": "address",
          "name": "signer",
          "type": "address"
        }
      ],
      "name": "deployHolographableContract",
      "outputs": [],
      "stateMutability": "nonpayable",
      "type": "function"
    },
    {
      "inputs": [],
      "name": "getAdmin",
      "outputs": [
        {
          "internalType": "address",
          "name": "adminAddress",
          "type": "address"
        }
      ],
      "stateMutability": "view",
      "type": "function"
    },
    {
      "inputs": [],
      "name": "getBridgeRegistry",
      "outputs": [
        {
          "internalType": "address",
          "name": "bridgeRegistry",
          "type": "address"
        }
      ],
      "stateMutability": "view",
      "type": "function"
    },
    {
      "inputs": [],
      "name": "getHolograph",
      "outputs": [
        {
          "internalType": "address",
          "name": "holograph",
          "type": "address"
        }
      ],
      "stateMutability": "view",
      "type": "function"
    },
    {
      "inputs": [],
      "name": "getSecureStorage",
      "outputs": [
        {
          "internalType": "address",
          "name": "secureStorage",
          "type": "address"
        }
      ],
      "stateMutability": "view",
      "type": "function"
    },
    {
      "inputs": [
        {
          "internalType": "bytes",
          "name": "data",
          "type": "bytes"
        }
      ],
      "name": "init",
      "outputs": [
        {
          "internalType": "bytes4",
          "name": "",
          "type": "bytes4"
        }
      ],
      "stateMutability": "nonpayable",
      "type": "function"
    },
    {
      "inputs": [
        {
          "internalType": "address",
          "name": "adminAddress",
          "type": "address"
        }
      ],
      "name": "setAdmin",
      "outputs": [],
      "stateMutability": "nonpayable",
      "type": "function"
    },
    {
      "inputs": [
        {
          "internalType": "address",
          "name": "bridgeRegistry",
          "type": "address"
        }
      ],
      "name": "setBridgeRegistry",
      "outputs": [],
      "stateMutability": "nonpayable",
      "type": "function"
    },
    {
      "inputs": [
        {
          "internalType": "address",
          "name": "holograph",
          "type": "address"
        }
      ],
      "name": "setHolograph",
      "outputs": [],
      "stateMutability": "nonpayable",
      "type": "function"
    },
    {
      "inputs": [
        {
          "internalType": "address",
          "name": "secureStorage",
          "type": "address"
        }
      ],
      "name": "setSecureStorage",
      "outputs": [],
      "stateMutability": "nonpayable",
      "type": "function"
    }
  ],
  "transactionHash": "0x7c5b65edf9dcb5e9c2deb1dc78311723334a760de2b264dbd1f531f22f61259c",
  "args": [],
  "numDeployments": 1,
  "solcInputHash": "6268f4815d1b695602d2038a17eb1c6d",
  "bytecode": "0x608060405234801561001057600080fd5b506134c3806100206000396000f3fe6080604052600436106100c75760003560e01c8063704b6c0211610074578063df6516bd1161004e578063df6516bd14610274578063ec49611514610294578063f851a440146102c857600080fd5b8063704b6c0214610221578063bcfef79014610241578063bf64a82d1461026157600080fd5b80634827ae0c116100a55780634827ae0c146101685780634ddf47d41461019c5780636e9960c3146101ed57600080fd5b80630cfbacee146100cc57806325d5cac8146100ee578063344be5d51461010e575b600080fd5b3480156100d857600080fd5b506100ec6100e736600461161d565b6102dd565b005b3480156100fa57600080fd5b506100ec61010936600461161d565b6103bc565b34801561011a57600080fd5b507fd26498b26a05274577b8ac2e3250418da53433f3ff82027428ee3c530702cdec545b60405173ffffffffffffffffffffffffffffffffffffffff90911681526020015b60405180910390f35b34801561017457600080fd5b507f1eee493315beeac80829afd0aaa340f3821cabe68571a2743478e81638a3d94d5461013e565b3480156101a857600080fd5b506101bc6101b7366004611669565b610496565b6040517fffffffff00000000000000000000000000000000000000000000000000000000909116815260200161015f565b3480156101f957600080fd5b507f5705f5753aa4f617eef2cae1dada3d3355e9387b04d19191f09b545e684ca50d5461013e565b34801561022d57600080fd5b506100ec61023c36600461161d565b610627565b34801561024d57600080fd5b506100ec61025c36600461161d565b610701565b6100ec61026f366004611738565b6107db565b34801561028057600080fd5b506100ec61028f3660046117bd565b6108b6565b3480156102a057600080fd5b507f460c4059d72b144253e5fc4e2aacbae2bcd6362c67862cd58ecbab0e7b10c3495461013e565b3480156102d457600080fd5b5061013e6113d1565b7f5705f5753aa4f617eef2cae1dada3d3355e9387b04d19191f09b545e684ca50d5473ffffffffffffffffffffffffffffffffffffffff163373ffffffffffffffffffffffffffffffffffffffff1614610398576040517f08c379a000000000000000000000000000000000000000000000000000000000815260206004820152601e60248201527f484f4c4f47524150483a2061646d696e206f6e6c792066756e6374696f6e000060448201526064015b60405180910390fd5b7f460c4059d72b144253e5fc4e2aacbae2bcd6362c67862cd58ecbab0e7b10c34955565b7f5705f5753aa4f617eef2cae1dada3d3355e9387b04d19191f09b545e684ca50d5473ffffffffffffffffffffffffffffffffffffffff163373ffffffffffffffffffffffffffffffffffffffff1614610472576040517f08c379a000000000000000000000000000000000000000000000000000000000815260206004820152601e60248201527f484f4c4f47524150483a2061646d696e206f6e6c792066756e6374696f6e0000604482015260640161038f565b7f1eee493315beeac80829afd0aaa340f3821cabe68571a2743478e81638a3d94d55565b60006104c27f4e5f991bca30eca2d4643aaefa807e88f96a4a97398933d572a3c0d973004a0154151590565b15610529576040517f08c379a000000000000000000000000000000000000000000000000000000000815260206004820152601e60248201527f484f4c4f47524150483a20616c726561647920696e697469616c697a65640000604482015260640161038f565b600080600084806020019051810190610542919061184e565b925092509250327f5705f5753aa4f617eef2cae1dada3d3355e9387b04d19191f09b545e684ca50d55827f1eee493315beeac80829afd0aaa340f3821cabe68571a2743478e81638a3d94d55817f460c4059d72b144253e5fc4e2aacbae2bcd6362c67862cd58ecbab0e7b10c34955807fd26498b26a05274577b8ac2e3250418da53433f3ff82027428ee3c530702cdec556105fd60017f4e5f991bca30eca2d4643aaefa807e88f96a4a97398933d572a3c0d973004a0155565b507f4ddf47d400000000000000000000000000000000000000000000000000000000949350505050565b7f5705f5753aa4f617eef2cae1dada3d3355e9387b04d19191f09b545e684ca50d5473ffffffffffffffffffffffffffffffffffffffff163373ffffffffffffffffffffffffffffffffffffffff16146106dd576040517f08c379a000000000000000000000000000000000000000000000000000000000815260206004820152601e60248201527f484f4c4f47524150483a2061646d696e206f6e6c792066756e6374696f6e0000604482015260640161038f565b7f5705f5753aa4f617eef2cae1dada3d3355e9387b04d19191f09b545e684ca50d55565b7f5705f5753aa4f617eef2cae1dada3d3355e9387b04d19191f09b545e684ca50d5473ffffffffffffffffffffffffffffffffffffffff163373ffffffffffffffffffffffffffffffffffffffff16146107b7576040517f08c379a000000000000000000000000000000000000000000000000000000000815260206004820152601e60248201527f484f4c4f47524150483a2061646d696e206f6e6c792066756e6374696f6e0000604482015260640161038f565b7fd26498b26a05274577b8ac2e3250418da53433f3ff82027428ee3c530702cdec55565b7f5705f5753aa4f617eef2cae1dada3d3355e9387b04d19191f09b545e684ca50d5473ffffffffffffffffffffffffffffffffffffffff163373ffffffffffffffffffffffffffffffffffffffff1614610891576040517f08c379a000000000000000000000000000000000000000000000000000000000815260206004820152601e60248201527f484f4c4f47524150483a2061646d696e206f6e6c792066756e6374696f6e0000604482015260640161038f565b808260003760008082600034875af13d6000803e8080156108b1573d6000f35b3d6000fd5b600083356108ca6040860160208701611890565b60408601356108dc60608801886118b6565b6040516108ea929190611922565b60405190819003902061090060808901896118b6565b60405161090e929190611922565b6040519081900381206109969594939291889060200195865260e09490941b7fffffffff0000000000000000000000000000000000000000000000000000000016602086015260248501929092526044840152606483015260601b7fffffffffffffffffffffffffffffffffffffffff00000000000000000000000016608482015260980190565b6040516020818303038152906040528051906020012090506109d5836000013584602001358560400160208101906109ce9190611932565b8486611400565b610a3b576040517f08c379a000000000000000000000000000000000000000000000000000000000815260206004820152601c60248201527f484f4c4f47524150483a20696e76616c6964207369676e617475726500000000604482015260640161038f565b7f460c4059d72b144253e5fc4e2aacbae2bcd6362c67862cd58ecbab0e7b10c349546040517f24299c6e0000000000000000000000000000000000000000000000000000000081526004810183905273ffffffffffffffffffffffffffffffffffffffff909116906324299c6e90602401602060405180830381865afa158015610ac9573d6000803e3d6000fd5b505050506040513d601f19601f82011682018060405250810190610aed9190611955565b15610b54576040517f08c379a000000000000000000000000000000000000000000000000000000000815260206004820152601b60248201527f484f4c4f47524150483a20616c7265616479206465706c6f7965640000000000604482015260640161038f565b60405181906000908190610b6a602082016115de565b6020820181038252601f19601f820116604052509050828151602083016000f5915060007fff000000000000000000000000000000000000000000000000000000000000003085610bbe60608c018c6118b6565b604051610bcc929190611922565b604051908190038120610c43949392916020017fff0000000000000000000000000000000000000000000000000000000000000094909416845260609290921b7fffffffffffffffffffffffffffffffffffffffff0000000000000000000000001660018401526015830152603582015260550190565b604080517fffffffffffffffffffffffffffffffffffffffffffffffffffffffffffffffe0818403018152919052805160209091012090506000610c8a60608a018a6118b6565b8080601f016020809104026020016040519081016040528093929190818152602001838380828437600092019190915250929350610ccd92508491506115a49050565b610d4c57848151602083016000f59150610ce6826115a4565b610d4c576040517f08c379a000000000000000000000000000000000000000000000000000000000815260206004820152601d60248201527f736f7572636520636f6e747261637420637265617465206661696c6564000000604482015260640161038f565b600060405180602001610d5e906115eb565b7fffffffffffffffffffffffffffffffffffffffffffffffffffffffffffffffe082820381018352601f90910116604081815282516020808501919091207fff00000000000000000000000000000000000000000000000000000000000000828501527fffffffffffffffffffffffffffffffffffffffff0000000000000000000000003060601b166021850152603584018b90526055808501919091528251808503909101815260759093019091528151910120909150610e1f816115a4565b15610e86576040517f08c379a000000000000000000000000000000000000000000000000000000000815260206004820152601b60248201527f484f4c4f47524150483a20616c7265616479206465706c6f7965640000000000604482015260640161038f565b868251602084016000f59050610e9b816115a4565b610f01576040517f08c379a000000000000000000000000000000000000000000000000000000000815260206004820152601d60248201527f486f6c6f67726170686572206465706c6f796d656e74206661696c6564000000604482015260640161038f565b7f4ddf47d40000000000000000000000000000000000000000000000000000000073ffffffffffffffffffffffffffffffffffffffff8716634ddf47d4610f667fd26498b26a05274577b8ac2e3250418da53433f3ff82027428ee3c530702cdec5490565b6040805173ffffffffffffffffffffffffffffffffffffffff8716602082015201604080517fffffffffffffffffffffffffffffffffffffffffffffffffffffffffffffffe081840301815290829052610fc392916020016119e2565b6040516020818303038152906040526040518263ffffffff1660e01b8152600401610fee9190611a19565b6020604051808303816000875af115801561100d573d6000803e3d6000fd5b505050506040513d601f19601f820116820180604052508101906110319190611a2c565b7fffffffff0000000000000000000000000000000000000000000000000000000016146110ba576040517f08c379a000000000000000000000000000000000000000000000000000000000815260206004820152601560248201527f696e697469616c697a6174696f6e206661696c65640000000000000000000000604482015260640161038f565b7f1eee493315beeac80829afd0aaa340f3821cabe68571a2743478e81638a3d94d5460006110ee60408e0160208f01611890565b6040805163ffffffff909216602083015273ffffffffffffffffffffffffffffffffffffffff80851691830191909152808a1660608301528e356080830152871660a082015260c001604080517fffffffffffffffffffffffffffffffffffffffffffffffffffffffffffffffe081840301815291905261117260808f018f6118b6565b60405160200161118493929190611a6e565b604080517fffffffffffffffffffffffffffffffffffffffffffffffffffffffffffffffe0818403018152908290527f4ddf47d4000000000000000000000000000000000000000000000000000000008083529092509073ffffffffffffffffffffffffffffffffffffffff851690634ddf47d490611207908590600401611a19565b6020604051808303816000875af1158015611226573d6000803e3d6000fd5b505050506040513d601f19601f8201168201806040525081019061124a9190611a2c565b7fffffffff0000000000000000000000000000000000000000000000000000000016146112d3576040517f08c379a000000000000000000000000000000000000000000000000000000000815260206004820152601560248201527f696e697469616c697a6174696f6e206661696c65640000000000000000000000604482015260640161038f565b7f460c4059d72b144253e5fc4e2aacbae2bcd6362c67862cd58ecbab0e7b10c349546040517fd9aa2a7c000000000000000000000000000000000000000000000000000000008152600481018c905273ffffffffffffffffffffffffffffffffffffffff8581166024830152919091169063d9aa2a7c90604401600060405180830381600087803b15801561136757600080fd5b505af115801561137b573d6000803e3d6000fd5b50506040518c925073ffffffffffffffffffffffffffffffffffffffff861691507fa802207d4c618b40db3b25b7b90e6f483e16b2c1f8d3610b15b345a718c6b41b90600090a350505050505050505050505050565b60006113fb7f5705f5753aa4f617eef2cae1dada3d3355e9387b04d19191f09b545e684ca50d5490565b905090565b6000601b8460ff16101561141c57611419601b85611ad2565b93505b60408051600081526020810180835285905260ff861691810191909152606081018790526080810186905273ffffffffffffffffffffffffffffffffffffffff83169060019060a0016020604051602081039080840390855afa158015611487573d6000803e3d6000fd5b5050506020604051035173ffffffffffffffffffffffffffffffffffffffff16148061159a57506040517f19457468657265756d205369676e6564204d6573736167653a0a3332000000006020820152603c810184905273ffffffffffffffffffffffffffffffffffffffff831690600190605c01604080517fffffffffffffffffffffffffffffffffffffffffffffffffffffffffffffffe08184030181528282528051602091820120600084529083018083525260ff881690820152606081018990526080810188905260a0016020604051602081039080840390855afa158015611578573d6000803e3d6000fd5b5050506020604051035173ffffffffffffffffffffffffffffffffffffffff16145b9695505050505050565b6000813f80158015906115d757507fc5d2460186f7233c927e7db2dcc703c0e500b653ca82273b7bfad8045d85a4708114155b9392505050565b610b7c80611b1f83390190565b610e1c8061269b83390190565b73ffffffffffffffffffffffffffffffffffffffff8116811461161a57600080fd5b50565b60006020828403121561162f57600080fd5b81356115d7816115f8565b7f4e487b7100000000000000000000000000000000000000000000000000000000600052604160045260246000fd5b60006020828403121561167b57600080fd5b813567ffffffffffffffff8082111561169357600080fd5b818401915084601f8301126116a757600080fd5b8135818111156116b9576116b961163a565b604051601f82017fffffffffffffffffffffffffffffffffffffffffffffffffffffffffffffffe0908116603f011681019083821181831017156116ff576116ff61163a565b8160405282815287602084870101111561171857600080fd5b826020860160208301376000928101602001929092525095945050505050565b60008060006040848603121561174d57600080fd5b8335611758816115f8565b9250602084013567ffffffffffffffff8082111561177557600080fd5b818601915086601f83011261178957600080fd5b81358181111561179857600080fd5b8760208285010111156117aa57600080fd5b6020830194508093505050509250925092565b600080600083850360a08112156117d357600080fd5b843567ffffffffffffffff8111156117ea57600080fd5b850160a081880312156117fc57600080fd5b935060607fffffffffffffffffffffffffffffffffffffffffffffffffffffffffffffffe08201121561182e57600080fd5b506020840191506080840135611843816115f8565b809150509250925092565b60008060006060848603121561186357600080fd5b835161186e816115f8565b602085015190935061187f816115f8565b6040850151909250611843816115f8565b6000602082840312156118a257600080fd5b813563ffffffff811681146115d757600080fd5b60008083357fffffffffffffffffffffffffffffffffffffffffffffffffffffffffffffffe18436030181126118eb57600080fd5b83018035915067ffffffffffffffff82111561190657600080fd5b60200191503681900382131561191b57600080fd5b9250929050565b8183823760009101908152919050565b60006020828403121561194457600080fd5b813560ff811681146115d757600080fd5b60006020828403121561196757600080fd5b815180151581146115d757600080fd5b6000815180845260005b8181101561199d57602081850181015186830182015201611981565b818111156119af576000602083870101525b50601f017fffffffffffffffffffffffffffffffffffffffffffffffffffffffffffffffe0169290920160200192915050565b73ffffffffffffffffffffffffffffffffffffffff83168152604060208201526000611a116040830184611977565b949350505050565b6020815260006115d76020830184611977565b600060208284031215611a3e57600080fd5b81517fffffffff00000000000000000000000000000000000000000000000000000000811681146115d757600080fd5b604081526000611a816040830186611977565b82810360208401528381528385602083013760006020858301015260207fffffffffffffffffffffffffffffffffffffffffffffffffffffffffffffffe0601f860116820101915050949350505050565b600060ff821660ff84168060ff03821115611b16577f4e487b7100000000000000000000000000000000000000000000000000000000600052601160045260246000fd5b01939250505056fe608060405234801561001057600080fd5b50610b5c806100206000396000f3fe6080604052600436106100745760003560e01c8063704b6c021161004e578063704b6c02146101a0578063bcfef790146101c0578063bf64a82d146101e0578063f851a440146101f35761007b565b8063344be5d5146100c15780634ddf47d41461011b5780636e9960c31461016c5761007b565b3661007b57005b7fd26498b26a05274577b8ac2e3250418da53433f3ff82027428ee3c530702cdec5460003681823780813683855af491503d81823e8180156100bb573d82f35b3d82fd5b005b3480156100cd57600080fd5b507fd26498b26a05274577b8ac2e3250418da53433f3ff82027428ee3c530702cdec545b60405173ffffffffffffffffffffffffffffffffffffffff90911681526020015b60405180910390f35b34801561012757600080fd5b5061013b610136366004610895565b610208565b6040517fffffffff000000000000000000000000000000000000000000000000000000009091168152602001610112565b34801561017857600080fd5b507f5705f5753aa4f617eef2cae1dada3d3355e9387b04d19191f09b545e684ca50d546100f1565b3480156101ac57600080fd5b506100bf6101bb36600461093a565b610513565b3480156101cc57600080fd5b506100bf6101db36600461093a565b6105ed565b6100bf6101ee36600461095e565b6106c7565b3480156101ff57600080fd5b506100f16107a2565b60006102347f4e5f991bca30eca2d4643aaefa807e88f96a4a97398933d572a3c0d973004a0154151590565b156102a0576040517f08c379a000000000000000000000000000000000000000000000000000000000815260206004820152601e60248201527f484f4c4f47524150483a20616c726561647920696e697469616c697a6564000060448201526064015b60405180910390fd5b600080838060200190518101906102b79190610a13565b91509150817fd26498b26a05274577b8ac2e3250418da53433f3ff82027428ee3c530702cdec55327f5705f5753aa4f617eef2cae1dada3d3355e9387b04d19191f09b545e684ca50d556000808373ffffffffffffffffffffffffffffffffffffffff168360405160240161032c9190610aa0565b604080517fffffffffffffffffffffffffffffffffffffffffffffffffffffffffffffffe08184030181529181526020820180517bffffffffffffffffffffffffffffffffffffffffffffffffffffffff167f4ddf47d400000000000000000000000000000000000000000000000000000000179052516103ad9190610af1565b600060405180830381855af49150503d80600081146103e8576040519150601f19603f3d011682016040523d82523d6000602084013e6103ed565b606091505b50915091506000818060200190518101906104089190610b0d565b905082801561045857507fffffffff0000000000000000000000000000000000000000000000000000000081167f4ddf47d400000000000000000000000000000000000000000000000000000000145b6104be576040517f08c379a000000000000000000000000000000000000000000000000000000000815260206004820152601560248201527f696e697469616c697a6174696f6e206661696c656400000000000000000000006044820152606401610297565b6104e760017f4e5f991bca30eca2d4643aaefa807e88f96a4a97398933d572a3c0d973004a0155565b507f4ddf47d4000000000000000000000000000000000000000000000000000000009695505050505050565b7f5705f5753aa4f617eef2cae1dada3d3355e9387b04d19191f09b545e684ca50d5473ffffffffffffffffffffffffffffffffffffffff163373ffffffffffffffffffffffffffffffffffffffff16146105c9576040517f08c379a000000000000000000000000000000000000000000000000000000000815260206004820152601e60248201527f484f4c4f47524150483a2061646d696e206f6e6c792066756e6374696f6e00006044820152606401610297565b7f5705f5753aa4f617eef2cae1dada3d3355e9387b04d19191f09b545e684ca50d55565b7f5705f5753aa4f617eef2cae1dada3d3355e9387b04d19191f09b545e684ca50d5473ffffffffffffffffffffffffffffffffffffffff163373ffffffffffffffffffffffffffffffffffffffff16146106a3576040517f08c379a000000000000000000000000000000000000000000000000000000000815260206004820152601e60248201527f484f4c4f47524150483a2061646d696e206f6e6c792066756e6374696f6e00006044820152606401610297565b7fd26498b26a05274577b8ac2e3250418da53433f3ff82027428ee3c530702cdec55565b7f5705f5753aa4f617eef2cae1dada3d3355e9387b04d19191f09b545e684ca50d5473ffffffffffffffffffffffffffffffffffffffff163373ffffffffffffffffffffffffffffffffffffffff161461077d576040517f08c379a000000000000000000000000000000000000000000000000000000000815260206004820152601e60248201527f484f4c4f47524150483a2061646d696e206f6e6c792066756e6374696f6e00006044820152606401610297565b808260003760008082600034875af13d6000803e80801561079d573d6000f35b3d6000fd5b60006107cc7f5705f5753aa4f617eef2cae1dada3d3355e9387b04d19191f09b545e684ca50d5490565b905090565b7f4e487b7100000000000000000000000000000000000000000000000000000000600052604160045260246000fd5b604051601f82017fffffffffffffffffffffffffffffffffffffffffffffffffffffffffffffffe016810167ffffffffffffffff81118282101715610847576108476107d1565b604052919050565b600067ffffffffffffffff821115610869576108696107d1565b50601f017fffffffffffffffffffffffffffffffffffffffffffffffffffffffffffffffe01660200190565b6000602082840312156108a757600080fd5b813567ffffffffffffffff8111156108be57600080fd5b8201601f810184136108cf57600080fd5b80356108e26108dd8261084f565b610800565b8181528560208385010111156108f757600080fd5b81602084016020830137600091810160200191909152949350505050565b73ffffffffffffffffffffffffffffffffffffffff8116811461093757600080fd5b50565b60006020828403121561094c57600080fd5b813561095781610915565b9392505050565b60008060006040848603121561097357600080fd5b833561097e81610915565b9250602084013567ffffffffffffffff8082111561099b57600080fd5b818601915086601f8301126109af57600080fd5b8135818111156109be57600080fd5b8760208285010111156109d057600080fd5b6020830194508093505050509250925092565b60005b838110156109fe5781810151838201526020016109e6565b83811115610a0d576000848401525b50505050565b60008060408385031215610a2657600080fd5b8251610a3181610915565b602084015190925067ffffffffffffffff811115610a4e57600080fd5b8301601f81018513610a5f57600080fd5b8051610a6d6108dd8261084f565b818152866020838501011115610a8257600080fd5b610a938260208301602086016109e3565b8093505050509250929050565b6020815260008251806020840152610abf8160408501602087016109e3565b601f017fffffffffffffffffffffffffffffffffffffffffffffffffffffffffffffffe0169190910160400192915050565b60008251610b038184602087016109e3565b9190910192915050565b600060208284031215610b1f57600080fd5b81517fffffffff000000000000000000000000000000000000000000000000000000008116811461095757600080fdfea164736f6c634300080d000a608060405234801561001057600080fd5b50610dfc806100206000396000f3fe6080604052600436106100b55760003560e01c8063704b6c0211610069578063bf64a82d1161004e578063bf64a82d14610299578063c8a4c3d5146102ac578063f851a440146102c1576100bc565b8063704b6c0214610235578063913a0ef214610255576100bc565b80634ddf47d41161009a5780634ddf47d41461017c5780636e9960c3146101cd5780636faf275b14610201576100bc565b8063344be5d5146100ee5780634827ae0c14610148576100bc565b366100bc57005b60006100c66102d6565b90503660008037600080366000845af43d6000803e8080156100e7573d6000f35b3d6000fd5b005b3480156100fa57600080fd5b507fd26498b26a05274577b8ac2e3250418da53433f3ff82027428ee3c530702cdec545b60405173ffffffffffffffffffffffffffffffffffffffff90911681526020015b60405180910390f35b34801561015457600080fd5b507f1eee493315beeac80829afd0aaa340f3821cabe68571a2743478e81638a3d94d5461011e565b34801561018857600080fd5b5061019c610197366004610a80565b610414565b6040517fffffffff00000000000000000000000000000000000000000000000000000000909116815260200161013f565b3480156101d957600080fd5b507f5705f5753aa4f617eef2cae1dada3d3355e9387b04d19191f09b545e684ca50d5461011e565b34801561020d57600080fd5b507fee63e41dd03b4d304382a6596ec5f4a6eb601d3640835d27fca1d0be62955bb55461011e565b34801561024157600080fd5b506100ec610250366004610b25565b6107dd565b34801561026157600080fd5b507f2378c1f8aa4ffd1a2b352b1ec4b9fe37cee7d2bb3fa1a7e6aeaeb422f15defdb5460405163ffffffff909116815260200161013f565b6100ec6102a7366004610b49565b6108b7565b3480156102b857600080fd5b5061011e6102d6565b3480156102cd57600080fd5b5061011e61098d565b60008060007f1eee493315beeac80829afd0aaa340f3821cabe68571a2743478e81638a3d94d5491507f927d33f74b40d20ebbbc7fbed0f01deacf3e0b589b248a5cc2fc82aa949289135490508173ffffffffffffffffffffffffffffffffffffffff16635ab1bd536040518163ffffffff1660e01b8152600401602060405180830381865afa15801561036e573d6000803e3d6000fd5b505050506040513d601f19601f820116820180604052508101906103929190610bce565b73ffffffffffffffffffffffffffffffffffffffff1663cc2913f9826040518263ffffffff1660e01b81526004016103cc91815260200190565b602060405180830381865afa1580156103e9573d6000803e3d6000fd5b505050506040513d601f19601f8201168201806040525081019061040d9190610bce565b9250505090565b60006104407f4e5f991bca30eca2d4643aaefa807e88f96a4a97398933d572a3c0d973004a0154151590565b156104ac576040517f08c379a000000000000000000000000000000000000000000000000000000000815260206004820181905260248201527f484f4c4f475241504845523a20616c726561647920696e697469616c697a656460448201526064015b60405180910390fd5b600080838060200190518101906104c39190610c68565b915091506000806000806000868060200190518101906104e39190610ccc565b94509450945094509450337f5705f5753aa4f617eef2cae1dada3d3355e9387b04d19191f09b545e684ca50d55847f2378c1f8aa4ffd1a2b352b1ec4b9fe37cee7d2bb3fa1a7e6aeaeb422f15defdb55837f1eee493315beeac80829afd0aaa340f3821cabe68571a2743478e81638a3d94d55827fd26498b26a05274577b8ac2e3250418da53433f3ff82027428ee3c530702cdec55817f927d33f74b40d20ebbbc7fbed0f01deacf3e0b589b248a5cc2fc82aa9492891355807fee63e41dd03b4d304382a6596ec5f4a6eb601d3640835d27fca1d0be62955bb5556000806105ca6102d6565b73ffffffffffffffffffffffffffffffffffffffff16886040516024016105f19190610d40565b604080517fffffffffffffffffffffffffffffffffffffffffffffffffffffffffffffffe08184030181529181526020820180517bffffffffffffffffffffffffffffffffffffffffffffffffffffffff167f4ddf47d400000000000000000000000000000000000000000000000000000000179052516106729190610d91565b600060405180830381855af49150503d80600081146106ad576040519150601f19603f3d011682016040523d82523d6000602084013e6106b2565b606091505b50915091506000818060200190518101906106cd9190610dad565b905082801561071d57507fffffffff0000000000000000000000000000000000000000000000000000000081167f4ddf47d400000000000000000000000000000000000000000000000000000000145b610783576040517f08c379a000000000000000000000000000000000000000000000000000000000815260206004820152601560248201527f696e697469616c697a6174696f6e206661696c6564000000000000000000000060448201526064016104a3565b6107ac60017f4e5f991bca30eca2d4643aaefa807e88f96a4a97398933d572a3c0d973004a0155565b507f4ddf47d4000000000000000000000000000000000000000000000000000000009b9a5050505050505050505050565b7f5705f5753aa4f617eef2cae1dada3d3355e9387b04d19191f09b545e684ca50d5473ffffffffffffffffffffffffffffffffffffffff163373ffffffffffffffffffffffffffffffffffffffff1614610893576040517f08c379a000000000000000000000000000000000000000000000000000000000815260206004820152601e60248201527f484f4c4f47524150483a2061646d696e206f6e6c792066756e6374696f6e000060448201526064016104a3565b7f5705f5753aa4f617eef2cae1dada3d3355e9387b04d19191f09b545e684ca50d55565b7f5705f5753aa4f617eef2cae1dada3d3355e9387b04d19191f09b545e684ca50d5473ffffffffffffffffffffffffffffffffffffffff163373ffffffffffffffffffffffffffffffffffffffff161461096d576040517f08c379a000000000000000000000000000000000000000000000000000000000815260206004820152601e60248201527f484f4c4f47524150483a2061646d696e206f6e6c792066756e6374696f6e000060448201526064016104a3565b808260003760008082600034875af13d6000803e8080156100e7573d6000f35b60006109b77f5705f5753aa4f617eef2cae1dada3d3355e9387b04d19191f09b545e684ca50d5490565b905090565b7f4e487b7100000000000000000000000000000000000000000000000000000000600052604160045260246000fd5b604051601f82017fffffffffffffffffffffffffffffffffffffffffffffffffffffffffffffffe016810167ffffffffffffffff81118282101715610a3257610a326109bc565b604052919050565b600067ffffffffffffffff821115610a5457610a546109bc565b50601f017fffffffffffffffffffffffffffffffffffffffffffffffffffffffffffffffe01660200190565b600060208284031215610a9257600080fd5b813567ffffffffffffffff811115610aa957600080fd5b8201601f81018413610aba57600080fd5b8035610acd610ac882610a3a565b6109eb565b818152856020838501011115610ae257600080fd5b81602084016020830137600091810160200191909152949350505050565b73ffffffffffffffffffffffffffffffffffffffff81168114610b2257600080fd5b50565b600060208284031215610b3757600080fd5b8135610b4281610b00565b9392505050565b600080600060408486031215610b5e57600080fd5b8335610b6981610b00565b9250602084013567ffffffffffffffff80821115610b8657600080fd5b818601915086601f830112610b9a57600080fd5b813581811115610ba957600080fd5b876020828501011115610bbb57600080fd5b6020830194508093505050509250925092565b600060208284031215610be057600080fd5b8151610b4281610b00565b60005b83811015610c06578181015183820152602001610bee565b83811115610c15576000848401525b50505050565b600082601f830112610c2c57600080fd5b8151610c3a610ac882610a3a565b818152846020838601011115610c4f57600080fd5b610c60826020830160208701610beb565b949350505050565b60008060408385031215610c7b57600080fd5b825167ffffffffffffffff80821115610c9357600080fd5b610c9f86838701610c1b565b93506020850151915080821115610cb557600080fd5b50610cc285828601610c1b565b9150509250929050565b600080600080600060a08688031215610ce457600080fd5b855163ffffffff81168114610cf857600080fd5b6020870151909550610d0981610b00565b6040870151909450610d1a81610b00565b606087015160808801519194509250610d3281610b00565b809150509295509295909350565b6020815260008251806020840152610d5f816040850160208701610beb565b601f017fffffffffffffffffffffffffffffffffffffffffffffffffffffffffffffffe0169190910160400192915050565b60008251610da3818460208701610beb565b9190910192915050565b600060208284031215610dbf57600080fd5b81517fffffffff0000000000000000000000000000000000000000000000000000000081168114610b4257600080fdfea164736f6c634300080d000aa164736f6c634300080d000a",
  "devdoc": {
    "details": "This smart contract demonstrates a clear and concise way that we plan to deploy smart contracts.With the goal of deploying replicate-able non-fungible token smart contracts through this process.This is just the first step. But it is fundamental for achieving cross-chain non-fungible tokens.",
    "events": {
      "BridgeableContractDeployed(address,bytes32)": {
        "details": "This event is fired every time that a bridgeable contract is deployed."
      }
    },
    "kind": "dev",
    "methods": {
      "constructor": {
        "details": "Constructor is left empty and only the admin address is set."
      },
      "deployHolographableContract((bytes32,uint32,bytes32,bytes,bytes),(bytes32,bytes32,uint8),address)": {
        "details": "A sample function of the deployment of bridgeable smart contracts.The used variables and formatting is not the final or decisive version, but the general idea is directly portrayed."
      },
      "getBridgeRegistry()": {
        "details": "Returns the address of the bridge registry.More details on bridge registry and it's purpose can be found in the BridgeRegistry smart contract."
      },
      "getHolograph()": {
        "details": "Returns the address of holograph.More details on bridge holograph and it's purpose can be found in the Holograph smart contract."
      },
      "getSecureStorage()": {
        "details": "Returns the address of the secure storage smart contract source code.More details on secure storage and it's purpose can be found in the SecureStorage smart contract."
      },
      "setBridgeRegistry(address)": {
        "details": "Sets the address of the bridge registry."
      },
      "setHolograph(address)": {
        "details": "Sets the address of holograph."
      },
      "setSecureStorage(address)": {
        "details": "Sets the address of the secure storage smart contract source code."
      }
    },
    "version": 1
  },
  "userdoc": {
    "kind": "user",
    "methods": {
      "deployHolographableContract((bytes32,uint32,bytes32,bytes,bytes),(bytes32,bytes32,uint8),address)": {
        "notice": "In this function we have incorporated a secure storage function/extension. Keep in mind that this is not required or needed for bridgeable deployments to work. It is just a personal development choice."
      }
    },
    "version": 1
  },
  "storageLayout": {
    "storage": [],
    "types": null
  }
}