{
  "address": "0x68EbE971296C83155279451d443e71cbA3B57B5e",
  "abi": [
    {
      "inputs": [],
      "stateMutability": "nonpayable",
      "type": "constructor"
    },
    {
      "inputs": [],
      "name": "admin",
      "outputs": [
        {
          "internalType": "address",
          "name": "",
          "type": "address"
        }
      ],
      "stateMutability": "view",
      "type": "function"
    },
    {
      "inputs": [
        {
          "internalType": "address",
          "name": "target",
          "type": "address"
        },
        {
          "internalType": "bytes",
          "name": "data",
          "type": "bytes"
        }
      ],
      "name": "adminCall",
      "outputs": [],
      "stateMutability": "payable",
      "type": "function"
    },
    {
      "inputs": [
        {
          "internalType": "bytes",
          "name": "data",
          "type": "bytes"
        }
      ],
      "name": "deployIn",
      "outputs": [],
      "stateMutability": "nonpayable",
      "type": "function"
    },
    {
      "inputs": [
        {
          "internalType": "uint32",
          "name": "toChain",
          "type": "uint32"
        },
        {
          "components": [
            {
              "internalType": "bytes32",
              "name": "contractType",
              "type": "bytes32"
            },
            {
              "internalType": "uint32",
              "name": "chainType",
              "type": "uint32"
            },
            {
              "internalType": "bytes32",
              "name": "salt",
              "type": "bytes32"
            },
            {
              "internalType": "bytes",
              "name": "byteCode",
              "type": "bytes"
            },
            {
              "internalType": "bytes",
              "name": "initCode",
              "type": "bytes"
            }
          ],
          "internalType": "struct DeploymentConfig",
          "name": "config",
          "type": "tuple"
        },
        {
          "components": [
            {
              "internalType": "bytes32",
              "name": "r",
              "type": "bytes32"
            },
            {
              "internalType": "bytes32",
              "name": "s",
              "type": "bytes32"
            },
            {
              "internalType": "uint8",
              "name": "v",
              "type": "uint8"
            }
          ],
          "internalType": "struct Verification",
          "name": "signature",
          "type": "tuple"
        },
        {
          "internalType": "address",
          "name": "signer",
          "type": "address"
        }
      ],
      "name": "deployOut",
      "outputs": [],
      "stateMutability": "payable",
      "type": "function"
    },
    {
      "inputs": [
        {
          "internalType": "uint32",
          "name": "fromChain",
          "type": "uint32"
        },
        {
          "internalType": "address",
          "name": "token",
          "type": "address"
        },
        {
          "internalType": "address",
          "name": "from",
          "type": "address"
        },
        {
          "internalType": "address",
          "name": "to",
          "type": "address"
        },
        {
          "internalType": "uint256",
          "name": "amount",
          "type": "uint256"
        },
        {
          "internalType": "bytes",
          "name": "data",
          "type": "bytes"
        }
      ],
      "name": "erc20in",
      "outputs": [],
      "stateMutability": "nonpayable",
      "type": "function"
    },
    {
      "inputs": [
        {
          "internalType": "uint32",
          "name": "toChain",
          "type": "uint32"
        },
        {
          "internalType": "address",
          "name": "token",
          "type": "address"
        },
        {
          "internalType": "address",
          "name": "from",
          "type": "address"
        },
        {
          "internalType": "address",
          "name": "to",
          "type": "address"
        },
        {
          "internalType": "uint256",
          "name": "amount",
          "type": "uint256"
        }
      ],
      "name": "erc20out",
      "outputs": [],
      "stateMutability": "payable",
      "type": "function"
    },
    {
      "inputs": [
        {
          "internalType": "uint32",
          "name": "fromChain",
          "type": "uint32"
        },
        {
          "internalType": "address",
          "name": "collection",
          "type": "address"
        },
        {
          "internalType": "address",
          "name": "from",
          "type": "address"
        },
        {
          "internalType": "address",
          "name": "to",
          "type": "address"
        },
        {
          "internalType": "uint256",
          "name": "tokenId",
          "type": "uint256"
        },
        {
          "internalType": "bytes",
          "name": "data",
          "type": "bytes"
        }
      ],
      "name": "erc721in",
      "outputs": [],
      "stateMutability": "nonpayable",
      "type": "function"
    },
    {
      "inputs": [
        {
          "internalType": "uint32",
          "name": "toChain",
          "type": "uint32"
        },
        {
          "internalType": "address",
          "name": "collection",
          "type": "address"
        },
        {
          "internalType": "address",
          "name": "from",
          "type": "address"
        },
        {
          "internalType": "address",
          "name": "to",
          "type": "address"
        },
        {
          "internalType": "uint256",
          "name": "tokenId",
          "type": "uint256"
        }
      ],
      "name": "erc721out",
      "outputs": [],
      "stateMutability": "payable",
      "type": "function"
    },
    {
      "inputs": [
        {
          "internalType": "bytes",
          "name": "_payload",
          "type": "bytes"
        }
      ],
      "name": "executeJob",
      "outputs": [],
      "stateMutability": "nonpayable",
      "type": "function"
    },
    {
      "inputs": [],
      "name": "getAdmin",
      "outputs": [
        {
          "internalType": "address",
          "name": "adminAddress",
          "type": "address"
        }
      ],
      "stateMutability": "view",
      "type": "function"
    },
    {
      "inputs": [
        {
          "internalType": "bytes",
          "name": "data",
          "type": "bytes"
        }
      ],
      "name": "init",
      "outputs": [
        {
          "internalType": "bytes4",
          "name": "",
          "type": "bytes4"
        }
      ],
      "stateMutability": "nonpayable",
      "type": "function"
    },
    {
      "inputs": [
        {
          "internalType": "address",
          "name": "adminAddress",
          "type": "address"
        }
      ],
      "name": "setAdmin",
      "outputs": [],
      "stateMutability": "nonpayable",
      "type": "function"
    }
  ],
  "transactionHash": "0x57a1689d1a1a8ebcb284bc6edaf000b2cf6eb269c45f5cdc9230b92643c5d3e1",
  "args": [],
  "numDeployments": 1,
  "solcInputHash": "4ef99f52a2bdcfcacb56aa2c6d37e348",
  "bytecode": "0x608060405234801561001057600080fd5b5061280a806100206000396000f3fe6080604052600436106100c75760003560e01c8063a1caf2ea11610074578063bf64a82d1161004e578063bf64a82d14610212578063ed2631f014610225578063f851a4401461024557600080fd5b8063a1caf2ea146101d9578063a45561bb146101ec578063a4bd02d7146101ff57600080fd5b8063704b6c02116100a5578063704b6c0214610199578063778fd1d1146101b95780639596936b146100cc57600080fd5b80631a827d50146100cc5780634ddf47d4146100ee5780636e9960c314610144575b600080fd5b3480156100d857600080fd5b506100ec6100e7366004611d26565b61025a565b005b3480156100fa57600080fd5b5061010e610109366004611f01565b610515565b6040517fffffffff0000000000000000000000000000000000000000000000000000000090911681526020015b60405180910390f35b34801561015057600080fd5b507f5705f5753aa4f617eef2cae1dada3d3355e9387b04d19191f09b545e684ca50d545b60405173ffffffffffffffffffffffffffffffffffffffff909116815260200161013b565b3480156101a557600080fd5b506100ec6101b4366004611f3e565b6106cd565b3480156101c557600080fd5b506100ec6101d4366004611f62565b6107a7565b6100ec6101e7366004611fa4565b610863565b6100ec6101fa366004611fa4565b611143565b6100ec61020d366004612008565b611752565b6100ec6102203660046120aa565b61195d565b34801561023157600080fd5b506100ec610240366004611f62565b611a38565b34801561025157600080fd5b50610174611b35565b3330146102c8576040517f08c379a000000000000000000000000000000000000000000000000000000000815260206004820152601b60248201527f484f4c4f47524150483a20627269646765206f6e6c792063616c6c000000000060448201526064015b60405180910390fd5b7f460c4059d72b144253e5fc4e2aacbae2bcd6362c67862cd58ecbab0e7b10c349546040517f44b25fff00000000000000000000000000000000000000000000000000000000815273ffffffffffffffffffffffffffffffffffffffff888116600483015291909116906344b25fff90602401602060405180830381865afa158015610358573d6000803e3d6000fd5b505050506040513d601f19601f8201168201806040525081019061037c91906120ff565b6103e2576040517f08c379a000000000000000000000000000000000000000000000000000000000815260206004820152601a60248201527f484f4c4f47524150483a206e6f7420686f6c6f6772617068656400000000000060448201526064016102bf565b6040517f21d6846f000000000000000000000000000000000000000000000000000000008082529073ffffffffffffffffffffffffffffffffffffffff8816906321d6846f90610440908b908a908a908a908a908a9060040161216a565b6020604051808303816000875af115801561045f573d6000803e3d6000fd5b505050506040513d601f19601f8201168201806040525081019061048391906121f7565b7fffffffff00000000000000000000000000000000000000000000000000000000161461050c576040517f08c379a000000000000000000000000000000000000000000000000000000000815260206004820152601b60248201527f484f4c4f47524150483a2062726964676520696e206661696c6564000000000060448201526064016102bf565b50505050505050565b60006105417f4e5f991bca30eca2d4643aaefa807e88f96a4a97398933d572a3c0d973004a0154151590565b156105a8576040517f08c379a000000000000000000000000000000000000000000000000000000000815260206004820152601e60248201527f484f4c4f47524150483a20616c726561647920696e697469616c697a6564000060448201526064016102bf565b600080600080858060200190518101906105c29190612212565b9350935093509350327f5705f5753aa4f617eef2cae1dada3d3355e9387b04d19191f09b545e684ca50d55837f1eee493315beeac80829afd0aaa340f3821cabe68571a2743478e81638a3d94d55827f460c4059d72b144253e5fc4e2aacbae2bcd6362c67862cd58ecbab0e7b10c34955817f7eefc8e705e14d34b5d1d6c3ea7f4e20cecb5956b182bac952a455d9372b87e255807f7bef7d8d97f57f9aa64de319c8598b5cdc7c3d2715fc02428415a98281ca6bdc556106a260017f4e5f991bca30eca2d4643aaefa807e88f96a4a97398933d572a3c0d973004a0155565b507f4ddf47d40000000000000000000000000000000000000000000000000000000095945050505050565b7f5705f5753aa4f617eef2cae1dada3d3355e9387b04d19191f09b545e684ca50d5473ffffffffffffffffffffffffffffffffffffffff163373ffffffffffffffffffffffffffffffffffffffff1614610783576040517f08c379a000000000000000000000000000000000000000000000000000000000815260206004820152601e60248201527f484f4c4f47524150483a2061646d696e206f6e6c792066756e6374696f6e000060448201526064016102bf565b7f5705f5753aa4f617eef2cae1dada3d3355e9387b04d19191f09b545e684ca50d55565b337f7bef7d8d97f57f9aa64de319c8598b5cdc7c3d2715fc02428415a98281ca6bdc5414610840577f08c379a0000000000000000000000000000000000000000000000000000000006080527c200000000000000000000000000000000000000000000000000000000060a0527c18484f4c4f47524150483a206f70657261746f72206f6e6c790000000060c052600060e05260c46080fd5b808260003760008082600034305af28061085e573d6000803e3d6000fd5b505050565b7f460c4059d72b144253e5fc4e2aacbae2bcd6362c67862cd58ecbab0e7b10c349546040517f44b25fff00000000000000000000000000000000000000000000000000000000815273ffffffffffffffffffffffffffffffffffffffff868116600483015291909116906344b25fff90602401602060405180830381865afa1580156108f3573d6000803e3d6000fd5b505050506040513d601f19601f8201168201806040525081019061091791906120ff565b61097d576040517f08c379a000000000000000000000000000000000000000000000000000000000815260206004820152601a60248201527f484f4c4f47524150483a206e6f7420686f6c6f6772617068656400000000000060448201526064016102bf565b6040517f4f558e7900000000000000000000000000000000000000000000000000000000815260048101829052849073ffffffffffffffffffffffffffffffffffffffff821690634f558e7990602401602060405180830381865afa1580156109ea573d6000803e3d6000fd5b505050506040513d601f19601f82011682018060405250810190610a0e91906120ff565b610a74576040517f08c379a000000000000000000000000000000000000000000000000000000000815260206004820152601e60248201527f484f4c4f47524150483a20746f6b656e20646f65736e2774206578697374000060448201526064016102bf565b6040517f6352211e0000000000000000000000000000000000000000000000000000000081526004810183905260009073ffffffffffffffffffffffffffffffffffffffff831690636352211e90602401602060405180830381865afa158015610ae2573d6000803e3d6000fd5b505050506040513d601f19601f82011682018060405250810190610b069190612266565b905073ffffffffffffffffffffffffffffffffffffffff8116331480610bd057506040517f081812fc00000000000000000000000000000000000000000000000000000000815260048101849052339073ffffffffffffffffffffffffffffffffffffffff84169063081812fc90602401602060405180830381865afa158015610b94573d6000803e3d6000fd5b505050506040513d601f19601f82011682018060405250810190610bb89190612266565b73ffffffffffffffffffffffffffffffffffffffff16145b80610c6c57506040517fe985e9c500000000000000000000000000000000000000000000000000000000815273ffffffffffffffffffffffffffffffffffffffff828116600483015233602483015283169063e985e9c590604401602060405180830381865afa158015610c48573d6000803e3d6000fd5b505050506040513d601f19601f82011682018060405250810190610c6c91906120ff565b610cd2576040517f08c379a000000000000000000000000000000000000000000000000000000000815260206004820152601d60248201527f484f4c4f47524150483a206e6f7420617070726f7665642f6f776e657200000060448201526064016102bf565b73ffffffffffffffffffffffffffffffffffffffff8416610d4f576040517f08c379a000000000000000000000000000000000000000000000000000000000815260206004820152601760248201527f484f4c4f47524150483a207a65726f206164647265737300000000000000000060448201526064016102bf565b6040517fde8b1ef100000000000000000000000000000000000000000000000000000000815263ffffffff8816600482015273ffffffffffffffffffffffffffffffffffffffff8681166024830152858116604483015260648201859052600091829185169063de8b1ef1906084016000604051808303816000875af1158015610ddd573d6000803e3d6000fd5b505050506040513d6000823e601f3d9081017fffffffffffffffffffffffffffffffffffffffffffffffffffffffffffffffe0168201604052610e2391908101906122b3565b90925090507fffffffff0000000000000000000000000000000000000000000000000000000082167fde8b1ef10000000000000000000000000000000000000000000000000000000014610ed3576040517f08c379a000000000000000000000000000000000000000000000000000000000815260206004820152601c60248201527f484f4c4f47524150483a20627269646765206f7574206661696c65640000000060448201526064016102bf565b7f7bef7d8d97f57f9aa64de319c8598b5cdc7c3d2715fc02428415a98281ca6bdc5473ffffffffffffffffffffffffffffffffffffffff1663c580310034610f1a8c611b64565b7f7bef7d8d97f57f9aa64de319c8598b5cdc7c3d2715fc02428415a98281ca6bdc54604051602001610f77919060609190911b7fffffffffffffffffffffffffffffffffffffffff00000000000000000000000016815260140190565b604051602081830303815290604052610fae7f1eee493315beeac80829afd0aaa340f3821cabe68571a2743478e81638a3d94d5490565b73ffffffffffffffffffffffffffffffffffffffff166397e67c3b6040518163ffffffff1660e01b8152600401602060405180830381865afa158015610ff8573d6000803e3d6000fd5b505050506040513d601f19601f8201168201806040525081019061101c919061233d565b8d8d8d8d8a604051602401611036969594939291906123a4565b604080517fffffffffffffffffffffffffffffffffffffffffffffffffffffffffffffffe08184030181529190526020810180517bffffffffffffffffffffffffffffffffffffffffffffffffffffffff167f1a827d5000000000000000000000000000000000000000000000000000000000179052336110d57f7bef7d8d97f57f9aa64de319c8598b5cdc7c3d2715fc02428415a98281ca6bdc5490565b604051806020016040528060008152506040518863ffffffff1660e01b8152600401611106969594939291906123f7565b6000604051808303818588803b15801561111f57600080fd5b505af1158015611133573d6000803e3d6000fd5b5050505050505050505050505050565b7f460c4059d72b144253e5fc4e2aacbae2bcd6362c67862cd58ecbab0e7b10c349546040517f44b25fff00000000000000000000000000000000000000000000000000000000815273ffffffffffffffffffffffffffffffffffffffff868116600483015291909116906344b25fff90602401602060405180830381865afa1580156111d3573d6000803e3d6000fd5b505050506040513d601f19601f820116820180604052508101906111f791906120ff565b61125d576040517f08c379a000000000000000000000000000000000000000000000000000000000815260206004820152601a60248201527f484f4c4f47524150483a206e6f7420686f6c6f6772617068656400000000000060448201526064016102bf565b6040517f70a0823100000000000000000000000000000000000000000000000000000000815273ffffffffffffffffffffffffffffffffffffffff8481166004830152859183918316906370a0823190602401602060405180830381865afa1580156112cd573d6000803e3d6000fd5b505050506040513d601f19601f820116820180604052508101906112f1919061246b565b1015611359576040517f08c379a000000000000000000000000000000000000000000000000000000000815260206004820152601c60248201527f484f4c4f47524150483a206e6f7420656e6f75676820746f6b656e730000000060448201526064016102bf565b6040517f8b591bab00000000000000000000000000000000000000000000000000000000815263ffffffff8716600482015233602482015273ffffffffffffffffffffffffffffffffffffffff85811660448301528481166064830152608482018490526000918291841690638b591bab9060a4016000604051808303816000875af11580156113ed573d6000803e3d6000fd5b505050506040513d6000823e601f3d9081017fffffffffffffffffffffffffffffffffffffffffffffffffffffffffffffffe016820160405261143391908101906122b3565b90925090507fffffffff0000000000000000000000000000000000000000000000000000000082167f8b591bab00000000000000000000000000000000000000000000000000000000146114e3576040517f08c379a000000000000000000000000000000000000000000000000000000000815260206004820152601c60248201527f484f4c4f47524150483a20627269646765206f7574206661696c65640000000060448201526064016102bf565b7f7bef7d8d97f57f9aa64de319c8598b5cdc7c3d2715fc02428415a98281ca6bdc5473ffffffffffffffffffffffffffffffffffffffff1663c58031003461152a8b611b64565b7f7bef7d8d97f57f9aa64de319c8598b5cdc7c3d2715fc02428415a98281ca6bdc54604051602001611587919060609190911b7fffffffffffffffffffffffffffffffffffffffff00000000000000000000000016815260140190565b6040516020818303038152906040526115be7f1eee493315beeac80829afd0aaa340f3821cabe68571a2743478e81638a3d94d5490565b73ffffffffffffffffffffffffffffffffffffffff166397e67c3b6040518163ffffffff1660e01b8152600401602060405180830381865afa158015611608573d6000803e3d6000fd5b505050506040513d601f19601f8201168201806040525081019061162c919061233d565b8c8c8c8c8a604051602401611646969594939291906123a4565b604080517fffffffffffffffffffffffffffffffffffffffffffffffffffffffffffffffe08184030181529190526020810180517bffffffffffffffffffffffffffffffffffffffffffffffffffffffff167f9596936b00000000000000000000000000000000000000000000000000000000179052336116e57f7bef7d8d97f57f9aa64de319c8598b5cdc7c3d2715fc02428415a98281ca6bdc5490565b604051806020016040528060008152506040518863ffffffff1660e01b8152600401611716969594939291906123f7565b6000604051808303818588803b15801561172f57600080fd5b505af1158015611743573d6000803e3d6000fd5b50505050505050505050505050565b7f7bef7d8d97f57f9aa64de319c8598b5cdc7c3d2715fc02428415a98281ca6bdc5473ffffffffffffffffffffffffffffffffffffffff1663c58031003461179987611b64565b7f7bef7d8d97f57f9aa64de319c8598b5cdc7c3d2715fc02428415a98281ca6bdc546040516020016117f6919060609190911b7fffffffffffffffffffffffffffffffffffffffff00000000000000000000000016815260140190565b60405160208183030381529060405287878760405160200161181a939291906124f9565b604080517fffffffffffffffffffffffffffffffffffffffffffffffffffffffffffffffe081840301815290829052611855916024016125de565b604080517fffffffffffffffffffffffffffffffffffffffffffffffffffffffffffffffe08184030181529190526020810180517bffffffffffffffffffffffffffffffffffffffffffffffffffffffff167fed2631f000000000000000000000000000000000000000000000000000000000179052336118f47f7bef7d8d97f57f9aa64de319c8598b5cdc7c3d2715fc02428415a98281ca6bdc5490565b604051806020016040528060008152506040518863ffffffff1660e01b8152600401611925969594939291906123f7565b6000604051808303818588803b15801561193e57600080fd5b505af1158015611952573d6000803e3d6000fd5b505050505050505050565b7f5705f5753aa4f617eef2cae1dada3d3355e9387b04d19191f09b545e684ca50d5473ffffffffffffffffffffffffffffffffffffffff163373ffffffffffffffffffffffffffffffffffffffff1614611a13576040517f08c379a000000000000000000000000000000000000000000000000000000000815260206004820152601e60248201527f484f4c4f47524150483a2061646d696e206f6e6c792066756e6374696f6e000060448201526064016102bf565b808260003760008082600034875af13d6000803e808015611a33573d6000f35b3d6000fd5b333014611aa1576040517f08c379a000000000000000000000000000000000000000000000000000000000815260206004820152601b60248201527f484f4c4f47524150483a20627269646765206f6e6c792063616c6c000000000060448201526064016102bf565b60008080611ab18486018661265f565b925092509250611adf7f7eefc8e705e14d34b5d1d6c3ea7f4e20cecb5956b182bac952a455d9372b87e25490565b73ffffffffffffffffffffffffffffffffffffffff1663df6516bd8484846040518463ffffffff1660e01b8152600401611b1b9392919061273b565b600060405180830381600087803b15801561193e57600080fd5b6000611b5f7f5705f5753aa4f617eef2cae1dada3d3355e9387b04d19191f09b545e684ca50d5490565b905090565b60008160018114611c0b5760028114611c145760038114611c1d5760048114611c265760058114611c2f5760068114611c385760078114611c415763ee6b28018114611c4a5763ee6b28028114611c545763ee6b28038114611c5e5763ee6b28048114611c685763ee6b28058114611c725763ee6b28068114611c7c5763ee6b28078114611c865763fffffffe8114611c905763ffffffff8114611c9a5760009150611ca0565b60019150611ca0565b60029150611ca0565b60069150611ca0565b60099150611ca0565b600c9150611ca0565b600a9150611ca0565b600b9150611ca0565b6127119150611ca0565b6127129150611ca0565b6127169150611ca0565b6127199150611ca0565b61271c9150611ca0565b61271a9150611ca0565b61271b9150611ca0565b61fffe9150611ca0565b61ffff91505b50919050565b63ffffffff81168114611cb857600080fd5b50565b73ffffffffffffffffffffffffffffffffffffffff81168114611cb857600080fd5b60008083601f840112611cef57600080fd5b50813567ffffffffffffffff811115611d0757600080fd5b602083019150836020828501011115611d1f57600080fd5b9250929050565b600080600080600080600060c0888a031215611d4157600080fd5b8735611d4c81611ca6565b96506020880135611d5c81611cbb565b95506040880135611d6c81611cbb565b94506060880135611d7c81611cbb565b93506080880135925060a088013567ffffffffffffffff811115611d9f57600080fd5b611dab8a828b01611cdd565b989b979a50959850939692959293505050565b7f4e487b7100000000000000000000000000000000000000000000000000000000600052604160045260246000fd5b60405160a0810167ffffffffffffffff81118282101715611e1057611e10611dbe565b60405290565b604051601f82017fffffffffffffffffffffffffffffffffffffffffffffffffffffffffffffffe016810167ffffffffffffffff81118282101715611e5d57611e5d611dbe565b604052919050565b600067ffffffffffffffff821115611e7f57611e7f611dbe565b50601f017fffffffffffffffffffffffffffffffffffffffffffffffffffffffffffffffe01660200190565b600082601f830112611ebc57600080fd5b8135611ecf611eca82611e65565b611e16565b818152846020838601011115611ee457600080fd5b816020850160208301376000918101602001919091529392505050565b600060208284031215611f1357600080fd5b813567ffffffffffffffff811115611f2a57600080fd5b611f3684828501611eab565b949350505050565b600060208284031215611f5057600080fd5b8135611f5b81611cbb565b9392505050565b60008060208385031215611f7557600080fd5b823567ffffffffffffffff811115611f8c57600080fd5b611f9885828601611cdd565b90969095509350505050565b600080600080600060a08688031215611fbc57600080fd5b8535611fc781611ca6565b94506020860135611fd781611cbb565b93506040860135611fe781611cbb565b92506060860135611ff781611cbb565b949793965091946080013592915050565b60008060008084860360c081121561201f57600080fd5b853561202a81611ca6565b9450602086013567ffffffffffffffff81111561204657600080fd5b860160a0818903121561205857600080fd5b935060607fffffffffffffffffffffffffffffffffffffffffffffffffffffffffffffffc08201121561208a57600080fd5b5060408501915060a085013561209f81611cbb565b939692955090935050565b6000806000604084860312156120bf57600080fd5b83356120ca81611cbb565b9250602084013567ffffffffffffffff8111156120e657600080fd5b6120f286828701611cdd565b9497909650939450505050565b60006020828403121561211157600080fd5b81518015158114611f5b57600080fd5b8183528181602085013750600060208284010152600060207fffffffffffffffffffffffffffffffffffffffffffffffffffffffffffffffe0601f840116840101905092915050565b63ffffffff87168152600073ffffffffffffffffffffffffffffffffffffffff808816602084015280871660408401525084606083015260a060808301526121b660a083018486612121565b98975050505050505050565b80517fffffffff00000000000000000000000000000000000000000000000000000000811681146121f257600080fd5b919050565b60006020828403121561220957600080fd5b611f5b826121c2565b6000806000806080858703121561222857600080fd5b845161223381611cbb565b602086015190945061224481611cbb565b604086015190935061225581611cbb565b606086015190925061209f81611cbb565b60006020828403121561227857600080fd5b8151611f5b81611cbb565b60005b8381101561229e578181015183820152602001612286565b838111156122ad576000848401525b50505050565b600080604083850312156122c657600080fd5b6122cf836121c2565b9150602083015167ffffffffffffffff8111156122eb57600080fd5b8301601f810185136122fc57600080fd5b805161230a611eca82611e65565b81815286602083850101111561231f57600080fd5b612330826020830160208601612283565b8093505050509250929050565b60006020828403121561234f57600080fd5b8151611f5b81611ca6565b60008151808452612372816020860160208601612283565b601f017fffffffffffffffffffffffffffffffffffffffffffffffffffffffffffffffe0169290920160200192915050565b63ffffffff87168152600073ffffffffffffffffffffffffffffffffffffffff8088166020840152808716604084015280861660608401525083608083015260c060a08301526121b660c083018461235a565b61ffff8716815260c06020820152600061241460c083018861235a565b8281036040840152612426818861235a565b73ffffffffffffffffffffffffffffffffffffffff87811660608601528616608085015283810360a0850152905061245e818561235a565b9998505050505050505050565b60006020828403121561247d57600080fd5b5051919050565b60008083357fffffffffffffffffffffffffffffffffffffffffffffffffffffffffffffffe18436030181126124b957600080fd5b830160208101925035905067ffffffffffffffff8111156124d957600080fd5b803603831315611d1f57600080fd5b803560ff811681146121f257600080fd5b60a08152833560a08201526000602085013561251481611ca6565b63ffffffff1660c0830152604085013560e08301526125366060860186612484565b60a061010085015261254d61014085018284612121565b91505061255d6080870187612484565b7fffffffffffffffffffffffffffffffffffffffffffffffffffffffffffffff6085840301610120860152612593838284612121565b9350505050833560208301526020840135604083015260ff6125b7604086016124e8565b16606083015273ffffffffffffffffffffffffffffffffffffffff83166080830152611f36565b602081526000611f5b602083018461235a565b60006060828403121561260357600080fd5b6040516060810181811067ffffffffffffffff8211171561262657612626611dbe565b80604052508091508235815260208301356020820152612648604084016124e8565b60408201525092915050565b80356121f281611cbb565b600080600060a0848603121561267457600080fd5b833567ffffffffffffffff8082111561268c57600080fd5b9085019060a082880312156126a057600080fd5b6126a8611ded565b8235815260208301356126ba81611ca6565b6020820152604083810135908201526060830135828111156126db57600080fd5b6126e789828601611eab565b6060830152506080830135828111156126ff57600080fd5b61270b89828601611eab565b60808301525080955050505061272485602086016125f1565b915061273260808501612654565b90509250925092565b60a08152835160a082015263ffffffff60208501511660c0820152604084015160e08201526000606085015160a061010084015261277d61014084018261235a565b905060808601517fffffffffffffffffffffffffffffffffffffffffffffffffffffffffffffff60848303016101208501526127b9828261235a565b92505050835160208301526020840151604083015260ff6040850151166060830152611f36608083018473ffffffffffffffffffffffffffffffffffffffff16905256fea164736f6c634300080d000a",
  "devdoc": {
    "details": "This smart contract contains the actual core bridging logic.",
    "kind": "dev",
    "methods": {
      "constructor": {
        "details": "Constructor is left empty and only the admin address is set."
      }
    },
    "version": 1
  },
  "userdoc": {
    "kind": "user",
    "methods": {},
    "version": 1
  },
  "storageLayout": {
    "storage": [],
    "types": null
  }
}