{
  "address": "0x6CF6D895129A8bD730cD88EfF08BbFDfCf33c163",
  "abi": [
    {
      "inputs": [],
      "stateMutability": "nonpayable",
      "type": "constructor"
    },
    {
      "inputs": [],
      "name": "admin",
      "outputs": [
        {
          "internalType": "address",
          "name": "",
          "type": "address"
        }
      ],
      "stateMutability": "view",
      "type": "function"
    },
    {
      "inputs": [
        {
          "internalType": "address",
          "name": "target",
          "type": "address"
        },
        {
          "internalType": "bytes",
          "name": "data",
          "type": "bytes"
        }
      ],
      "name": "adminCall",
      "outputs": [],
      "stateMutability": "payable",
      "type": "function"
    },
    {
      "inputs": [
        {
          "internalType": "bytes",
          "name": "data",
          "type": "bytes"
        }
      ],
      "name": "deployIn",
      "outputs": [],
      "stateMutability": "nonpayable",
      "type": "function"
    },
    {
      "inputs": [
        {
          "internalType": "uint32",
          "name": "toChain",
          "type": "uint32"
        },
        {
          "components": [
            {
              "internalType": "bytes32",
              "name": "contractType",
              "type": "bytes32"
            },
            {
              "internalType": "uint32",
              "name": "chainType",
              "type": "uint32"
            },
            {
              "internalType": "bytes32",
              "name": "salt",
              "type": "bytes32"
            },
            {
              "internalType": "bytes",
              "name": "byteCode",
              "type": "bytes"
            },
            {
              "internalType": "bytes",
              "name": "initCode",
              "type": "bytes"
            }
          ],
          "internalType": "struct DeploymentConfig",
          "name": "config",
          "type": "tuple"
        },
        {
          "components": [
            {
              "internalType": "bytes32",
              "name": "r",
              "type": "bytes32"
            },
            {
              "internalType": "bytes32",
              "name": "s",
              "type": "bytes32"
            },
            {
              "internalType": "uint8",
              "name": "v",
              "type": "uint8"
            }
          ],
          "internalType": "struct Verification",
          "name": "signature",
          "type": "tuple"
        },
        {
          "internalType": "address",
          "name": "signer",
          "type": "address"
        }
      ],
      "name": "deployOut",
      "outputs": [],
      "stateMutability": "payable",
      "type": "function"
    },
    {
      "inputs": [
        {
          "internalType": "uint32",
          "name": "fromChain",
          "type": "uint32"
        },
        {
          "internalType": "address",
          "name": "token",
          "type": "address"
        },
        {
          "internalType": "address",
          "name": "from",
          "type": "address"
        },
        {
          "internalType": "address",
          "name": "to",
          "type": "address"
        },
        {
          "internalType": "uint256",
          "name": "amount",
          "type": "uint256"
        },
        {
          "internalType": "bytes",
          "name": "data",
          "type": "bytes"
        }
      ],
      "name": "erc20in",
      "outputs": [],
      "stateMutability": "nonpayable",
      "type": "function"
    },
    {
      "inputs": [
        {
          "internalType": "uint32",
          "name": "toChain",
          "type": "uint32"
        },
        {
          "internalType": "address",
          "name": "token",
          "type": "address"
        },
        {
          "internalType": "address",
          "name": "from",
          "type": "address"
        },
        {
          "internalType": "address",
          "name": "to",
          "type": "address"
        },
        {
          "internalType": "uint256",
          "name": "amount",
          "type": "uint256"
        }
      ],
      "name": "erc20out",
      "outputs": [],
      "stateMutability": "payable",
      "type": "function"
    },
    {
      "inputs": [
        {
          "internalType": "uint32",
          "name": "fromChain",
          "type": "uint32"
        },
        {
          "internalType": "address",
          "name": "collection",
          "type": "address"
        },
        {
          "internalType": "address",
          "name": "from",
          "type": "address"
        },
        {
          "internalType": "address",
          "name": "to",
          "type": "address"
        },
        {
          "internalType": "uint256",
          "name": "tokenId",
          "type": "uint256"
        },
        {
          "internalType": "bytes",
          "name": "data",
          "type": "bytes"
        }
      ],
      "name": "erc721in",
      "outputs": [],
      "stateMutability": "nonpayable",
      "type": "function"
    },
    {
      "inputs": [
        {
          "internalType": "uint32",
          "name": "toChain",
          "type": "uint32"
        },
        {
          "internalType": "address",
          "name": "collection",
          "type": "address"
        },
        {
          "internalType": "address",
          "name": "from",
          "type": "address"
        },
        {
          "internalType": "address",
          "name": "to",
          "type": "address"
        },
        {
          "internalType": "uint256",
          "name": "tokenId",
          "type": "uint256"
        }
      ],
      "name": "erc721out",
      "outputs": [],
      "stateMutability": "payable",
      "type": "function"
    },
    {
      "inputs": [
        {
          "internalType": "bytes",
          "name": "_payload",
          "type": "bytes"
        }
      ],
      "name": "executeJob",
      "outputs": [],
      "stateMutability": "nonpayable",
      "type": "function"
    },
    {
      "inputs": [],
      "name": "getAdmin",
      "outputs": [
        {
          "internalType": "address",
          "name": "adminAddress",
          "type": "address"
        }
      ],
      "stateMutability": "view",
      "type": "function"
    },
    {
      "inputs": [],
      "name": "getFactory",
      "outputs": [
        {
          "internalType": "address",
          "name": "factory",
          "type": "address"
        }
      ],
      "stateMutability": "view",
      "type": "function"
    },
    {
      "inputs": [],
      "name": "getHolograph",
      "outputs": [
        {
          "internalType": "address",
          "name": "holograph",
          "type": "address"
        }
      ],
      "stateMutability": "view",
      "type": "function"
    },
    {
      "inputs": [],
      "name": "getInterfaces",
      "outputs": [
        {
          "internalType": "address",
          "name": "interfaces",
          "type": "address"
        }
      ],
      "stateMutability": "view",
      "type": "function"
    },
    {
      "inputs": [],
      "name": "getOperator",
      "outputs": [
        {
          "internalType": "address",
          "name": "operator",
          "type": "address"
        }
      ],
      "stateMutability": "view",
      "type": "function"
    },
    {
      "inputs": [],
      "name": "getRegistry",
      "outputs": [
        {
          "internalType": "address",
          "name": "registry",
          "type": "address"
        }
      ],
      "stateMutability": "view",
      "type": "function"
    },
    {
      "inputs": [
        {
          "internalType": "bytes",
          "name": "data",
          "type": "bytes"
        }
      ],
      "name": "init",
      "outputs": [
        {
          "internalType": "bytes4",
          "name": "",
          "type": "bytes4"
        }
      ],
      "stateMutability": "nonpayable",
      "type": "function"
    },
    {
      "inputs": [
        {
          "internalType": "address",
          "name": "adminAddress",
          "type": "address"
        }
      ],
      "name": "setAdmin",
      "outputs": [],
      "stateMutability": "nonpayable",
      "type": "function"
    },
    {
      "inputs": [
        {
          "internalType": "address",
          "name": "factory",
          "type": "address"
        }
      ],
      "name": "setFactory",
      "outputs": [],
      "stateMutability": "nonpayable",
      "type": "function"
    },
    {
      "inputs": [
        {
          "internalType": "address",
          "name": "holograph",
          "type": "address"
        }
      ],
      "name": "setHolograph",
      "outputs": [],
      "stateMutability": "nonpayable",
      "type": "function"
    },
    {
      "inputs": [
        {
          "internalType": "address",
          "name": "interfaces",
          "type": "address"
        }
      ],
      "name": "setInterfaces",
      "outputs": [],
      "stateMutability": "nonpayable",
      "type": "function"
    },
    {
      "inputs": [
        {
          "internalType": "address",
          "name": "operator",
          "type": "address"
        }
      ],
      "name": "setOperator",
      "outputs": [],
      "stateMutability": "nonpayable",
      "type": "function"
    },
    {
      "inputs": [
        {
          "internalType": "address",
          "name": "registry",
          "type": "address"
        }
      ],
      "name": "setRegistry",
      "outputs": [],
      "stateMutability": "nonpayable",
      "type": "function"
    }
  ],
  "transactionHash": "0xb6e3b9341a8252a854a96803707add9f878c5e8f112ef4778763cffb14f60429",
  "args": [],
  "numDeployments": 1,
  "solcInputHash": "ad0a38ed733b6baecf70bc5a825f9ae8",
  "bytecode": "0x608060405234801561001057600080fd5b50612abf806100206000396000f3fe6080604052600436106101755760003560e01c8063a1caf2ea116100cb578063bf64a82d1161007f578063ebac15f911610059578063ebac15f914610423578063ed2631f014610457578063f851a4401461047757600080fd5b8063bf64a82d146103bc578063da8292d9146103cf578063e7f43c68146103ef57600080fd5b8063a4bd02d7116100b0578063a4bd02d714610369578063a91ee0dc1461037c578063b3ab15fb1461039c57600080fd5b8063a1caf2ea14610343578063a45561bb1461035657600080fd5b80635bb478081161012d578063778fd1d111610107578063778fd1d1146102ef57806388cc58e41461030f5780639596936b1461017a57600080fd5b80635bb478081461019c5780636e9960c31461029b578063704b6c02146102cf57600080fd5b80634827ae0c1161015e5780634827ae0c146101bc5780634ddf47d4146102165780635ab1bd531461026757600080fd5b80631a827d501461017a57806325d5cac81461019c575b600080fd5b34801561018657600080fd5b5061019a610195366004611fea565b61048c565b005b3480156101a857600080fd5b5061019a6101b7366004612082565b610747565b3480156101c857600080fd5b507f1eee493315beeac80829afd0aaa340f3821cabe68571a2743478e81638a3d94d545b60405173ffffffffffffffffffffffffffffffffffffffff90911681526020015b60405180910390f35b34801561022257600080fd5b506102366102313660046121e9565b610821565b6040517fffffffff00000000000000000000000000000000000000000000000000000000909116815260200161020d565b34801561027357600080fd5b507f460c4059d72b144253e5fc4e2aacbae2bcd6362c67862cd58ecbab0e7b10c349546101ec565b3480156102a757600080fd5b507f5705f5753aa4f617eef2cae1dada3d3355e9387b04d19191f09b545e684ca50d546101ec565b3480156102db57600080fd5b5061019a6102ea366004612082565b610a01565b3480156102fb57600080fd5b5061019a61030a366004612226565b610adb565b34801561031b57600080fd5b507f7eefc8e705e14d34b5d1d6c3ea7f4e20cecb5956b182bac952a455d9372b87e2546101ec565b61019a610351366004612268565b610b97565b61019a610364366004612268565b6113e3565b61019a6103773660046122cc565b61195e565b34801561038857600080fd5b5061019a610397366004612082565b611ad5565b3480156103a857600080fd5b5061019a6103b7366004612082565b611baf565b61019a6103ca36600461236e565b611c89565b3480156103db57600080fd5b5061019a6103ea366004612082565b611d64565b3480156103fb57600080fd5b507f7bef7d8d97f57f9aa64de319c8598b5cdc7c3d2715fc02428415a98281ca6bdc546101ec565b34801561042f57600080fd5b507f23e584d4fb363739321c1e56c9bcdc29517a4c57065f8502226c995fd15b2472546101ec565b34801561046357600080fd5b5061019a610472366004612226565b611e3e565b34801561048357600080fd5b506101ec611f3b565b3330146104fa576040517f08c379a000000000000000000000000000000000000000000000000000000000815260206004820152601b60248201527f484f4c4f47524150483a20627269646765206f6e6c792063616c6c000000000060448201526064015b60405180910390fd5b7f460c4059d72b144253e5fc4e2aacbae2bcd6362c67862cd58ecbab0e7b10c349546040517f44b25fff00000000000000000000000000000000000000000000000000000000815273ffffffffffffffffffffffffffffffffffffffff888116600483015291909116906344b25fff90602401602060405180830381865afa15801561058a573d6000803e3d6000fd5b505050506040513d601f19601f820116820180604052508101906105ae91906123c3565b610614576040517f08c379a000000000000000000000000000000000000000000000000000000000815260206004820152601a60248201527f484f4c4f47524150483a206e6f7420686f6c6f6772617068656400000000000060448201526064016104f1565b6040517f21d6846f000000000000000000000000000000000000000000000000000000008082529073ffffffffffffffffffffffffffffffffffffffff8816906321d6846f90610672908b908a908a908a908a908a9060040161242e565b6020604051808303816000875af1158015610691573d6000803e3d6000fd5b505050506040513d601f19601f820116820180604052508101906106b591906124bb565b7fffffffff00000000000000000000000000000000000000000000000000000000161461073e576040517f08c379a000000000000000000000000000000000000000000000000000000000815260206004820152601b60248201527f484f4c4f47524150483a2062726964676520696e206661696c6564000000000060448201526064016104f1565b50505050505050565b7f5705f5753aa4f617eef2cae1dada3d3355e9387b04d19191f09b545e684ca50d5473ffffffffffffffffffffffffffffffffffffffff163373ffffffffffffffffffffffffffffffffffffffff16146107fd576040517f08c379a000000000000000000000000000000000000000000000000000000000815260206004820152601e60248201527f484f4c4f47524150483a2061646d696e206f6e6c792066756e6374696f6e000060448201526064016104f1565b7f7eefc8e705e14d34b5d1d6c3ea7f4e20cecb5956b182bac952a455d9372b87e255565b600061084d7f4e5f991bca30eca2d4643aaefa807e88f96a4a97398933d572a3c0d973004a0154151590565b156108b4576040517f08c379a000000000000000000000000000000000000000000000000000000000815260206004820152601e60248201527f484f4c4f47524150483a20616c726561647920696e697469616c697a6564000060448201526064016104f1565b6000806000806000868060200190518101906108d091906124d6565b94509450945094509450327f5705f5753aa4f617eef2cae1dada3d3355e9387b04d19191f09b545e684ca50d55847f7eefc8e705e14d34b5d1d6c3ea7f4e20cecb5956b182bac952a455d9372b87e255837f1eee493315beeac80829afd0aaa340f3821cabe68571a2743478e81638a3d94d55827f23e584d4fb363739321c1e56c9bcdc29517a4c57065f8502226c995fd15b247255817f7bef7d8d97f57f9aa64de319c8598b5cdc7c3d2715fc02428415a98281ca6bdc55807f460c4059d72b144253e5fc4e2aacbae2bcd6362c67862cd58ecbab0e7b10c349556109d560017f4e5f991bca30eca2d4643aaefa807e88f96a4a97398933d572a3c0d973004a0155565b507f4ddf47d4000000000000000000000000000000000000000000000000000000009695505050505050565b7f5705f5753aa4f617eef2cae1dada3d3355e9387b04d19191f09b545e684ca50d5473ffffffffffffffffffffffffffffffffffffffff163373ffffffffffffffffffffffffffffffffffffffff1614610ab7576040517f08c379a000000000000000000000000000000000000000000000000000000000815260206004820152601e60248201527f484f4c4f47524150483a2061646d696e206f6e6c792066756e6374696f6e000060448201526064016104f1565b7f5705f5753aa4f617eef2cae1dada3d3355e9387b04d19191f09b545e684ca50d55565b337f7bef7d8d97f57f9aa64de319c8598b5cdc7c3d2715fc02428415a98281ca6bdc5414610b74577f08c379a0000000000000000000000000000000000000000000000000000000006080527c200000000000000000000000000000000000000000000000000000000060a0527c18484f4c4f47524150483a206f70657261746f72206f6e6c790000000060c052600060e05260c46080fd5b808260003760008082600034305af280610b92573d6000803e3d6000fd5b505050565b7f460c4059d72b144253e5fc4e2aacbae2bcd6362c67862cd58ecbab0e7b10c349546040517f44b25fff00000000000000000000000000000000000000000000000000000000815273ffffffffffffffffffffffffffffffffffffffff868116600483015291909116906344b25fff90602401602060405180830381865afa158015610c27573d6000803e3d6000fd5b505050506040513d601f19601f82011682018060405250810190610c4b91906123c3565b610cb1576040517f08c379a000000000000000000000000000000000000000000000000000000000815260206004820152601a60248201527f484f4c4f47524150483a206e6f7420686f6c6f6772617068656400000000000060448201526064016104f1565b6040517f4f558e7900000000000000000000000000000000000000000000000000000000815260048101829052849073ffffffffffffffffffffffffffffffffffffffff821690634f558e7990602401602060405180830381865afa158015610d1e573d6000803e3d6000fd5b505050506040513d601f19601f82011682018060405250810190610d4291906123c3565b610da8576040517f08c379a000000000000000000000000000000000000000000000000000000000815260206004820152601e60248201527f484f4c4f47524150483a20746f6b656e20646f65736e2774206578697374000060448201526064016104f1565b6040517f6352211e0000000000000000000000000000000000000000000000000000000081526004810183905260009073ffffffffffffffffffffffffffffffffffffffff831690636352211e90602401602060405180830381865afa158015610e16573d6000803e3d6000fd5b505050506040513d601f19601f82011682018060405250810190610e3a919061254b565b905073ffffffffffffffffffffffffffffffffffffffff8116331480610f0457506040517f081812fc00000000000000000000000000000000000000000000000000000000815260048101849052339073ffffffffffffffffffffffffffffffffffffffff84169063081812fc90602401602060405180830381865afa158015610ec8573d6000803e3d6000fd5b505050506040513d601f19601f82011682018060405250810190610eec919061254b565b73ffffffffffffffffffffffffffffffffffffffff16145b80610fa057506040517fe985e9c500000000000000000000000000000000000000000000000000000000815273ffffffffffffffffffffffffffffffffffffffff828116600483015233602483015283169063e985e9c590604401602060405180830381865afa158015610f7c573d6000803e3d6000fd5b505050506040513d601f19601f82011682018060405250810190610fa091906123c3565b611006576040517f08c379a000000000000000000000000000000000000000000000000000000000815260206004820152601d60248201527f484f4c4f47524150483a206e6f7420617070726f7665642f6f776e657200000060448201526064016104f1565b73ffffffffffffffffffffffffffffffffffffffff8416611083576040517f08c379a000000000000000000000000000000000000000000000000000000000815260206004820152601760248201527f484f4c4f47524150483a207a65726f206164647265737300000000000000000060448201526064016104f1565b6040517fde8b1ef100000000000000000000000000000000000000000000000000000000815263ffffffff8816600482015273ffffffffffffffffffffffffffffffffffffffff8681166024830152858116604483015260648201859052600091829185169063de8b1ef1906084016000604051808303816000875af1158015611111573d6000803e3d6000fd5b505050506040513d6000823e601f3d9081017fffffffffffffffffffffffffffffffffffffffffffffffffffffffffffffffe01682016040526111579190810190612598565b90925090507fffffffff0000000000000000000000000000000000000000000000000000000082167fde8b1ef10000000000000000000000000000000000000000000000000000000014611207576040517f08c379a000000000000000000000000000000000000000000000000000000000815260206004820152601c60248201527f484f4c4f47524150483a20627269646765206f7574206661696c65640000000060448201526064016104f1565b7f7bef7d8d97f57f9aa64de319c8598b5cdc7c3d2715fc02428415a98281ca6bdc5473ffffffffffffffffffffffffffffffffffffffff166368346a92348b3361126f7f1eee493315beeac80829afd0aaa340f3821cabe68571a2743478e81638a3d94d5490565b73ffffffffffffffffffffffffffffffffffffffff166397e67c3b6040518163ffffffff1660e01b8152600401602060405180830381865afa1580156112b9573d6000803e3d6000fd5b505050506040513d601f19601f820116820180604052508101906112dd9190612622565b8d8d8d8d8a6040516024016112f796959493929190612689565b604080517fffffffffffffffffffffffffffffffffffffffffffffffffffffffffffffffe08184030181529181526020820180517bffffffffffffffffffffffffffffffffffffffffffffffffffffffff167f1a827d50000000000000000000000000000000000000000000000000000000001790525160e086901b7fffffffff000000000000000000000000000000000000000000000000000000001681526113a6939291906004016126dc565b6000604051808303818588803b1580156113bf57600080fd5b505af11580156113d3573d6000803e3d6000fd5b5050505050505050505050505050565b7f460c4059d72b144253e5fc4e2aacbae2bcd6362c67862cd58ecbab0e7b10c349546040517f44b25fff00000000000000000000000000000000000000000000000000000000815273ffffffffffffffffffffffffffffffffffffffff868116600483015291909116906344b25fff90602401602060405180830381865afa158015611473573d6000803e3d6000fd5b505050506040513d601f19601f8201168201806040525081019061149791906123c3565b6114fd576040517f08c379a000000000000000000000000000000000000000000000000000000000815260206004820152601a60248201527f484f4c4f47524150483a206e6f7420686f6c6f6772617068656400000000000060448201526064016104f1565b6040517f70a0823100000000000000000000000000000000000000000000000000000000815273ffffffffffffffffffffffffffffffffffffffff8481166004830152859183918316906370a0823190602401602060405180830381865afa15801561156d573d6000803e3d6000fd5b505050506040513d601f19601f820116820180604052508101906115919190612720565b10156115f9576040517f08c379a000000000000000000000000000000000000000000000000000000000815260206004820152601c60248201527f484f4c4f47524150483a206e6f7420656e6f75676820746f6b656e730000000060448201526064016104f1565b6040517f8b591bab00000000000000000000000000000000000000000000000000000000815263ffffffff8716600482015233602482015273ffffffffffffffffffffffffffffffffffffffff85811660448301528481166064830152608482018490526000918291841690638b591bab9060a4016000604051808303816000875af115801561168d573d6000803e3d6000fd5b505050506040513d6000823e601f3d9081017fffffffffffffffffffffffffffffffffffffffffffffffffffffffffffffffe01682016040526116d39190810190612598565b90925090507fffffffff0000000000000000000000000000000000000000000000000000000082167f8b591bab0000000000000000000000000000000000000000000000000000000014611783576040517f08c379a000000000000000000000000000000000000000000000000000000000815260206004820152601c60248201527f484f4c4f47524150483a20627269646765206f7574206661696c65640000000060448201526064016104f1565b7f7bef7d8d97f57f9aa64de319c8598b5cdc7c3d2715fc02428415a98281ca6bdc5473ffffffffffffffffffffffffffffffffffffffff166368346a92348a336117eb7f1eee493315beeac80829afd0aaa340f3821cabe68571a2743478e81638a3d94d5490565b73ffffffffffffffffffffffffffffffffffffffff166397e67c3b6040518163ffffffff1660e01b8152600401602060405180830381865afa158015611835573d6000803e3d6000fd5b505050506040513d601f19601f820116820180604052508101906118599190612622565b8c8c8c8c8a60405160240161187396959493929190612689565b604080517fffffffffffffffffffffffffffffffffffffffffffffffffffffffffffffffe08184030181529181526020820180517bffffffffffffffffffffffffffffffffffffffffffffffffffffffff167f9596936b000000000000000000000000000000000000000000000000000000001790525160e086901b7fffffffff00000000000000000000000000000000000000000000000000000000168152611922939291906004016126dc565b6000604051808303818588803b15801561193b57600080fd5b505af115801561194f573d6000803e3d6000fd5b50505050505050505050505050565b7f7bef7d8d97f57f9aa64de319c8598b5cdc7c3d2715fc02428415a98281ca6bdc5473ffffffffffffffffffffffffffffffffffffffff166368346a923486338787876040516020016119b3939291906127ae565b604080517fffffffffffffffffffffffffffffffffffffffffffffffffffffffffffffffe0818403018152908290526119ee91602401612893565b604080517fffffffffffffffffffffffffffffffffffffffffffffffffffffffffffffffe08184030181529181526020820180517bffffffffffffffffffffffffffffffffffffffffffffffffffffffff167fed2631f0000000000000000000000000000000000000000000000000000000001790525160e086901b7fffffffff00000000000000000000000000000000000000000000000000000000168152611a9d939291906004016126dc565b6000604051808303818588803b158015611ab657600080fd5b505af1158015611aca573d6000803e3d6000fd5b505050505050505050565b7f5705f5753aa4f617eef2cae1dada3d3355e9387b04d19191f09b545e684ca50d5473ffffffffffffffffffffffffffffffffffffffff163373ffffffffffffffffffffffffffffffffffffffff1614611b8b576040517f08c379a000000000000000000000000000000000000000000000000000000000815260206004820152601e60248201527f484f4c4f47524150483a2061646d696e206f6e6c792066756e6374696f6e000060448201526064016104f1565b7f460c4059d72b144253e5fc4e2aacbae2bcd6362c67862cd58ecbab0e7b10c34955565b7f5705f5753aa4f617eef2cae1dada3d3355e9387b04d19191f09b545e684ca50d5473ffffffffffffffffffffffffffffffffffffffff163373ffffffffffffffffffffffffffffffffffffffff1614611c65576040517f08c379a000000000000000000000000000000000000000000000000000000000815260206004820152601e60248201527f484f4c4f47524150483a2061646d696e206f6e6c792066756e6374696f6e000060448201526064016104f1565b7f7bef7d8d97f57f9aa64de319c8598b5cdc7c3d2715fc02428415a98281ca6bdc55565b7f5705f5753aa4f617eef2cae1dada3d3355e9387b04d19191f09b545e684ca50d5473ffffffffffffffffffffffffffffffffffffffff163373ffffffffffffffffffffffffffffffffffffffff1614611d3f576040517f08c379a000000000000000000000000000000000000000000000000000000000815260206004820152601e60248201527f484f4c4f47524150483a2061646d696e206f6e6c792066756e6374696f6e000060448201526064016104f1565b808260003760008082600034875af13d6000803e808015611d5f573d6000f35b3d6000fd5b7f5705f5753aa4f617eef2cae1dada3d3355e9387b04d19191f09b545e684ca50d5473ffffffffffffffffffffffffffffffffffffffff163373ffffffffffffffffffffffffffffffffffffffff1614611e1a576040517f08c379a000000000000000000000000000000000000000000000000000000000815260206004820152601e60248201527f484f4c4f47524150483a2061646d696e206f6e6c792066756e6374696f6e000060448201526064016104f1565b7f23e584d4fb363739321c1e56c9bcdc29517a4c57065f8502226c995fd15b247255565b333014611ea7576040517f08c379a000000000000000000000000000000000000000000000000000000000815260206004820152601b60248201527f484f4c4f47524150483a20627269646765206f6e6c792063616c6c000000000060448201526064016104f1565b60008080611eb784860186612914565b925092509250611ee57f7eefc8e705e14d34b5d1d6c3ea7f4e20cecb5956b182bac952a455d9372b87e25490565b73ffffffffffffffffffffffffffffffffffffffff1663df6516bd8484846040518463ffffffff1660e01b8152600401611f21939291906129f0565b600060405180830381600087803b158015611ab657600080fd5b6000611f657f5705f5753aa4f617eef2cae1dada3d3355e9387b04d19191f09b545e684ca50d5490565b905090565b63ffffffff81168114611f7c57600080fd5b50565b73ffffffffffffffffffffffffffffffffffffffff81168114611f7c57600080fd5b60008083601f840112611fb357600080fd5b50813567ffffffffffffffff811115611fcb57600080fd5b602083019150836020828501011115611fe357600080fd5b9250929050565b600080600080600080600060c0888a03121561200557600080fd5b873561201081611f6a565b9650602088013561202081611f7f565b9550604088013561203081611f7f565b9450606088013561204081611f7f565b93506080880135925060a088013567ffffffffffffffff81111561206357600080fd5b61206f8a828b01611fa1565b989b979a50959850939692959293505050565b60006020828403121561209457600080fd5b813561209f81611f7f565b9392505050565b7f4e487b7100000000000000000000000000000000000000000000000000000000600052604160045260246000fd5b60405160a0810167ffffffffffffffff811182821017156120f8576120f86120a6565b60405290565b604051601f82017fffffffffffffffffffffffffffffffffffffffffffffffffffffffffffffffe016810167ffffffffffffffff81118282101715612145576121456120a6565b604052919050565b600067ffffffffffffffff821115612167576121676120a6565b50601f017fffffffffffffffffffffffffffffffffffffffffffffffffffffffffffffffe01660200190565b600082601f8301126121a457600080fd5b81356121b76121b28261214d565b6120fe565b8181528460208386010111156121cc57600080fd5b816020850160208301376000918101602001919091529392505050565b6000602082840312156121fb57600080fd5b813567ffffffffffffffff81111561221257600080fd5b61221e84828501612193565b949350505050565b6000806020838503121561223957600080fd5b823567ffffffffffffffff81111561225057600080fd5b61225c85828601611fa1565b90969095509350505050565b600080600080600060a0868803121561228057600080fd5b853561228b81611f6a565b9450602086013561229b81611f7f565b935060408601356122ab81611f7f565b925060608601356122bb81611f7f565b949793965091946080013592915050565b60008060008084860360c08112156122e357600080fd5b85356122ee81611f6a565b9450602086013567ffffffffffffffff81111561230a57600080fd5b860160a0818903121561231c57600080fd5b935060607fffffffffffffffffffffffffffffffffffffffffffffffffffffffffffffffc08201121561234e57600080fd5b5060408501915060a085013561236381611f7f565b939692955090935050565b60008060006040848603121561238357600080fd5b833561238e81611f7f565b9250602084013567ffffffffffffffff8111156123aa57600080fd5b6123b686828701611fa1565b9497909650939450505050565b6000602082840312156123d557600080fd5b8151801515811461209f57600080fd5b8183528181602085013750600060208284010152600060207fffffffffffffffffffffffffffffffffffffffffffffffffffffffffffffffe0601f840116840101905092915050565b63ffffffff87168152600073ffffffffffffffffffffffffffffffffffffffff808816602084015280871660408401525084606083015260a0608083015261247a60a0830184866123e5565b98975050505050505050565b80517fffffffff00000000000000000000000000000000000000000000000000000000811681146124b657600080fd5b919050565b6000602082840312156124cd57600080fd5b61209f82612486565b600080600080600060a086880312156124ee57600080fd5b85516124f981611f7f565b602087015190955061250a81611f7f565b604087015190945061251b81611f7f565b606087015190935061252c81611f7f565b608087015190925061253d81611f7f565b809150509295509295909350565b60006020828403121561255d57600080fd5b815161209f81611f7f565b60005b8381101561258357818101518382015260200161256b565b83811115612592576000848401525b50505050565b600080604083850312156125ab57600080fd5b6125b483612486565b9150602083015167ffffffffffffffff8111156125d057600080fd5b8301601f810185136125e157600080fd5b80516125ef6121b28261214d565b81815286602083850101111561260457600080fd5b612615826020830160208601612568565b8093505050509250929050565b60006020828403121561263457600080fd5b815161209f81611f6a565b60008151808452612657816020860160208601612568565b601f017fffffffffffffffffffffffffffffffffffffffffffffffffffffffffffffffe0169290920160200192915050565b63ffffffff87168152600073ffffffffffffffffffffffffffffffffffffffff8088166020840152808716604084015280861660608401525083608083015260c060a083015261247a60c083018461263f565b63ffffffff8416815273ffffffffffffffffffffffffffffffffffffffff83166020820152606060408201526000612717606083018461263f565b95945050505050565b60006020828403121561273257600080fd5b5051919050565b60008083357fffffffffffffffffffffffffffffffffffffffffffffffffffffffffffffffe184360301811261276e57600080fd5b830160208101925035905067ffffffffffffffff81111561278e57600080fd5b803603831315611fe357600080fd5b803560ff811681146124b657600080fd5b60a08152833560a0820152600060208501356127c981611f6a565b63ffffffff1660c0830152604085013560e08301526127eb6060860186612739565b60a0610100850152612802610140850182846123e5565b9150506128126080870187612739565b7fffffffffffffffffffffffffffffffffffffffffffffffffffffffffffffff60858403016101208601526128488382846123e5565b9350505050833560208301526020840135604083015260ff61286c6040860161279d565b16606083015273ffffffffffffffffffffffffffffffffffffffff8316608083015261221e565b60208152600061209f602083018461263f565b6000606082840312156128b857600080fd5b6040516060810181811067ffffffffffffffff821117156128db576128db6120a6565b806040525080915082358152602083013560208201526128fd6040840161279d565b60408201525092915050565b80356124b681611f7f565b600080600060a0848603121561292957600080fd5b833567ffffffffffffffff8082111561294157600080fd5b9085019060a0828803121561295557600080fd5b61295d6120d5565b82358152602083013561296f81611f6a565b60208201526040838101359082015260608301358281111561299057600080fd5b61299c89828601612193565b6060830152506080830135828111156129b457600080fd5b6129c089828601612193565b6080830152508095505050506129d985602086016128a6565b91506129e760808501612909565b90509250925092565b60a08152835160a082015263ffffffff60208501511660c0820152604084015160e08201526000606085015160a0610100840152612a3261014084018261263f565b905060808601517fffffffffffffffffffffffffffffffffffffffffffffffffffffffffffffff6084830301610120850152612a6e828261263f565b92505050835160208301526020840151604083015260ff604085015116606083015261221e608083018473ffffffffffffffffffffffffffffffffffffffff16905256fea164736f6c634300080d000a",
  "devdoc": {
    "details": "This smart contract contains the actual core bridging logic.",
    "kind": "dev",
    "methods": {
      "constructor": {
        "details": "Constructor is left empty and only the admin address is set."
      }
    },
    "version": 1
  },
  "userdoc": {
    "kind": "user",
    "methods": {},
    "version": 1
  },
  "storageLayout": {
    "storage": [],
    "types": null
  }
}