{
  "address": "0x31Fff38CB60c8008C86738e6EfF73ef2Ad8506f4",
  "abi": [
    {
      "inputs": [],
      "stateMutability": "nonpayable",
      "type": "constructor"
    },
    {
      "stateMutability": "payable",
      "type": "fallback"
    },
    {
      "inputs": [],
      "name": "admin",
      "outputs": [
        {
          "internalType": "address",
          "name": "",
          "type": "address"
        }
      ],
      "stateMutability": "view",
      "type": "function"
    },
    {
      "inputs": [
        {
          "internalType": "address",
          "name": "target",
          "type": "address"
        },
        {
          "internalType": "bytes",
          "name": "data",
          "type": "bytes"
        }
      ],
      "name": "adminCall",
      "outputs": [],
      "stateMutability": "payable",
      "type": "function"
    },
    {
      "inputs": [],
      "name": "getAdmin",
      "outputs": [
        {
          "internalType": "address",
          "name": "adminAddress",
          "type": "address"
        }
      ],
      "stateMutability": "view",
      "type": "function"
    },
    {
      "inputs": [],
      "name": "getBridge",
      "outputs": [
        {
          "internalType": "address",
          "name": "bridge",
          "type": "address"
        }
      ],
      "stateMutability": "view",
      "type": "function"
    },
    {
      "inputs": [],
      "name": "getChainType",
      "outputs": [
        {
          "internalType": "uint32",
          "name": "chainType",
          "type": "uint32"
        }
      ],
      "stateMutability": "view",
      "type": "function"
    },
    {
      "inputs": [],
      "name": "getFactory",
      "outputs": [
        {
          "internalType": "address",
          "name": "factory",
          "type": "address"
        }
      ],
      "stateMutability": "view",
      "type": "function"
    },
    {
      "inputs": [],
      "name": "getInterfaces",
      "outputs": [
        {
          "internalType": "address",
          "name": "interfaces",
          "type": "address"
        }
      ],
      "stateMutability": "view",
      "type": "function"
    },
    {
      "inputs": [],
      "name": "getOperator",
      "outputs": [
        {
          "internalType": "address",
          "name": "operator",
          "type": "address"
        }
      ],
      "stateMutability": "view",
      "type": "function"
    },
    {
      "inputs": [],
      "name": "getRegistry",
      "outputs": [
        {
          "internalType": "address",
          "name": "registry",
          "type": "address"
        }
      ],
      "stateMutability": "view",
      "type": "function"
    },
    {
      "inputs": [],
      "name": "getSecureStorage",
      "outputs": [
        {
          "internalType": "address",
          "name": "secureStorage",
          "type": "address"
        }
      ],
      "stateMutability": "view",
      "type": "function"
    },
    {
      "inputs": [],
      "name": "getTreasury",
      "outputs": [
        {
          "internalType": "address",
          "name": "treasury",
          "type": "address"
        }
      ],
      "stateMutability": "view",
      "type": "function"
    },
    {
      "inputs": [
        {
          "internalType": "bytes",
          "name": "data",
          "type": "bytes"
        }
      ],
      "name": "init",
      "outputs": [
        {
          "internalType": "bytes4",
          "name": "",
          "type": "bytes4"
        }
      ],
      "stateMutability": "nonpayable",
      "type": "function"
    },
    {
      "inputs": [
        {
          "internalType": "address",
          "name": "adminAddress",
          "type": "address"
        }
      ],
      "name": "setAdmin",
      "outputs": [],
      "stateMutability": "nonpayable",
      "type": "function"
    },
    {
      "inputs": [
        {
          "internalType": "address",
          "name": "bridge",
          "type": "address"
        }
      ],
      "name": "setBridge",
      "outputs": [],
      "stateMutability": "nonpayable",
      "type": "function"
    },
    {
      "inputs": [
        {
          "internalType": "uint32",
          "name": "chainType",
          "type": "uint32"
        }
      ],
      "name": "setChainType",
      "outputs": [],
      "stateMutability": "nonpayable",
      "type": "function"
    },
    {
      "inputs": [
        {
          "internalType": "address",
          "name": "factory",
          "type": "address"
        }
      ],
      "name": "setFactory",
      "outputs": [],
      "stateMutability": "nonpayable",
      "type": "function"
    },
    {
      "inputs": [
        {
          "internalType": "address",
          "name": "interfaces",
          "type": "address"
        }
      ],
      "name": "setInterfaces",
      "outputs": [],
      "stateMutability": "nonpayable",
      "type": "function"
    },
    {
      "inputs": [
        {
          "internalType": "address",
          "name": "operator",
          "type": "address"
        }
      ],
      "name": "setOperator",
      "outputs": [],
      "stateMutability": "nonpayable",
      "type": "function"
    },
    {
      "inputs": [
        {
          "internalType": "address",
          "name": "registry",
          "type": "address"
        }
      ],
      "name": "setRegistry",
      "outputs": [],
      "stateMutability": "nonpayable",
      "type": "function"
    },
    {
      "inputs": [
        {
          "internalType": "address",
          "name": "secureStorage",
          "type": "address"
        }
      ],
      "name": "setSecureStorage",
      "outputs": [],
      "stateMutability": "nonpayable",
      "type": "function"
    },
    {
      "inputs": [
        {
          "internalType": "address",
          "name": "treasury",
          "type": "address"
        }
      ],
      "name": "setTreasury",
      "outputs": [],
      "stateMutability": "nonpayable",
      "type": "function"
    },
    {
      "stateMutability": "payable",
      "type": "receive"
    }
  ],
  "transactionHash": "0x6bcaeaf2286a1d14c7f902c7804ff2aff714ae55dfa6b0d8f710a2372b98bc4a",
  "args": [],
  "numDeployments": 1,
  "solcInputHash": "6268f4815d1b695602d2038a17eb1c6d",
  "bytecode": "0x608060405234801561001057600080fd5b506112e9806100206000396000f3fe60806040526004361061016e5760003560e01c806397e67c3b116100cb578063bf64a82d1161007f578063ebac15f911610059578063ebac15f9146104b9578063f0f44260146104ed578063f851a4401461050d57600080fd5b8063bf64a82d14610452578063da8292d914610465578063e7f43c681461048557600080fd5b8063aea777f4116100b0578063aea777f4146103f2578063b3ab15fb14610412578063bcfef7901461043257600080fd5b806397e67c3b1461038e578063a91ee0dc146103d257600080fd5b80635bb4780811610122578063704b6c0211610107578063704b6c021461031a57806388cc58e41461033a5780638dd148021461036e57600080fd5b80635bb47808146102c45780636e9960c3146102e657600080fd5b80633b19e84a116101535780633b19e84a1461020b5780634ddf47d41461023f5780635ab1bd531461029057600080fd5b80630fffbaf31461017d578063344be5d5146101d757600080fd5b3661017857600080fd5b600080fd5b34801561018957600080fd5b507f03be85923973d3197c19b1ad1f9b28c331dd9229cd80cbf84926b2286fc4563f545b60405173ffffffffffffffffffffffffffffffffffffffff90911681526020015b60405180910390f35b3480156101e357600080fd5b507fd26498b26a05274577b8ac2e3250418da53433f3ff82027428ee3c530702cdec546101ad565b34801561021757600080fd5b507fc8f5846d0f0d68cef76d4d10d7d189845e41b44d1dbdc208ed0f8961f993af5f546101ad565b34801561024b57600080fd5b5061025f61025a366004611060565b610522565b6040517fffffffff0000000000000000000000000000000000000000000000000000000090911681526020016101ce565b34801561029c57600080fd5b507f460c4059d72b144253e5fc4e2aacbae2bcd6362c67862cd58ecbab0e7b10c349546101ad565b3480156102d057600080fd5b506102e46102df366004611154565b61077d565b005b3480156102f257600080fd5b507f5705f5753aa4f617eef2cae1dada3d3355e9387b04d19191f09b545e684ca50d546101ad565b34801561032657600080fd5b506102e4610335366004611154565b610857565b34801561034657600080fd5b507f7eefc8e705e14d34b5d1d6c3ea7f4e20cecb5956b182bac952a455d9372b87e2546101ad565b34801561037a57600080fd5b506102e4610389366004611154565b610931565b34801561039a57600080fd5b507ff659863303d91045cf6f5789ae687c591017a1efd53ebb2eec518fb10873ecb85460405163ffffffff90911681526020016101ce565b3480156103de57600080fd5b506102e46103ed366004611154565b610a0b565b3480156103fe57600080fd5b506102e461040d36600461118a565b610ae5565b34801561041e57600080fd5b506102e461042d366004611154565b610bbf565b34801561043e57600080fd5b506102e461044d366004611154565b610c99565b6102e46104603660046111a7565b610d73565b34801561047157600080fd5b506102e4610480366004611154565b610e4e565b34801561049157600080fd5b507f7bef7d8d97f57f9aa64de319c8598b5cdc7c3d2715fc02428415a98281ca6bdc546101ad565b3480156104c557600080fd5b507f23e584d4fb363739321c1e56c9bcdc29517a4c57065f8502226c995fd15b2472546101ad565b3480156104f957600080fd5b506102e4610508366004611154565b610f28565b34801561051957600080fd5b506101ad611002565b600061054e7f4e5f991bca30eca2d4643aaefa807e88f96a4a97398933d572a3c0d973004a0154151590565b156105ba576040517f08c379a000000000000000000000000000000000000000000000000000000000815260206004820152601e60248201527f484f4c4f47524150483a20616c726561647920696e697469616c697a6564000060448201526064015b60405180910390fd5b600080600080600080600080898060200190518101906105da919061122c565b97509750975097509750975097509750327f5705f5753aa4f617eef2cae1dada3d3355e9387b04d19191f09b545e684ca50d55877ff659863303d91045cf6f5789ae687c591017a1efd53ebb2eec518fb10873ecb855867f03be85923973d3197c19b1ad1f9b28c331dd9229cd80cbf84926b2286fc4563f55857f7eefc8e705e14d34b5d1d6c3ea7f4e20cecb5956b182bac952a455d9372b87e255847f23e584d4fb363739321c1e56c9bcdc29517a4c57065f8502226c995fd15b247255837f7bef7d8d97f57f9aa64de319c8598b5cdc7c3d2715fc02428415a98281ca6bdc55827f460c4059d72b144253e5fc4e2aacbae2bcd6362c67862cd58ecbab0e7b10c34955817fd26498b26a05274577b8ac2e3250418da53433f3ff82027428ee3c530702cdec55807fc8f5846d0f0d68cef76d4d10d7d189845e41b44d1dbdc208ed0f8961f993af5f5561074e60017f4e5f991bca30eca2d4643aaefa807e88f96a4a97398933d572a3c0d973004a0155565b507f4ddf47d4000000000000000000000000000000000000000000000000000000009998505050505050505050565b7f5705f5753aa4f617eef2cae1dada3d3355e9387b04d19191f09b545e684ca50d5473ffffffffffffffffffffffffffffffffffffffff163373ffffffffffffffffffffffffffffffffffffffff1614610833576040517f08c379a000000000000000000000000000000000000000000000000000000000815260206004820152601e60248201527f484f4c4f47524150483a2061646d696e206f6e6c792066756e6374696f6e000060448201526064016105b1565b7f7eefc8e705e14d34b5d1d6c3ea7f4e20cecb5956b182bac952a455d9372b87e255565b7f5705f5753aa4f617eef2cae1dada3d3355e9387b04d19191f09b545e684ca50d5473ffffffffffffffffffffffffffffffffffffffff163373ffffffffffffffffffffffffffffffffffffffff161461090d576040517f08c379a000000000000000000000000000000000000000000000000000000000815260206004820152601e60248201527f484f4c4f47524150483a2061646d696e206f6e6c792066756e6374696f6e000060448201526064016105b1565b7f5705f5753aa4f617eef2cae1dada3d3355e9387b04d19191f09b545e684ca50d55565b7f5705f5753aa4f617eef2cae1dada3d3355e9387b04d19191f09b545e684ca50d5473ffffffffffffffffffffffffffffffffffffffff163373ffffffffffffffffffffffffffffffffffffffff16146109e7576040517f08c379a000000000000000000000000000000000000000000000000000000000815260206004820152601e60248201527f484f4c4f47524150483a2061646d696e206f6e6c792066756e6374696f6e000060448201526064016105b1565b7f03be85923973d3197c19b1ad1f9b28c331dd9229cd80cbf84926b2286fc4563f55565b7f5705f5753aa4f617eef2cae1dada3d3355e9387b04d19191f09b545e684ca50d5473ffffffffffffffffffffffffffffffffffffffff163373ffffffffffffffffffffffffffffffffffffffff1614610ac1576040517f08c379a000000000000000000000000000000000000000000000000000000000815260206004820152601e60248201527f484f4c4f47524150483a2061646d696e206f6e6c792066756e6374696f6e000060448201526064016105b1565b7f460c4059d72b144253e5fc4e2aacbae2bcd6362c67862cd58ecbab0e7b10c34955565b7f5705f5753aa4f617eef2cae1dada3d3355e9387b04d19191f09b545e684ca50d5473ffffffffffffffffffffffffffffffffffffffff163373ffffffffffffffffffffffffffffffffffffffff1614610b9b576040517f08c379a000000000000000000000000000000000000000000000000000000000815260206004820152601e60248201527f484f4c4f47524150483a2061646d696e206f6e6c792066756e6374696f6e000060448201526064016105b1565b7ff659863303d91045cf6f5789ae687c591017a1efd53ebb2eec518fb10873ecb855565b7f5705f5753aa4f617eef2cae1dada3d3355e9387b04d19191f09b545e684ca50d5473ffffffffffffffffffffffffffffffffffffffff163373ffffffffffffffffffffffffffffffffffffffff1614610c75576040517f08c379a000000000000000000000000000000000000000000000000000000000815260206004820152601e60248201527f484f4c4f47524150483a2061646d696e206f6e6c792066756e6374696f6e000060448201526064016105b1565b7f7bef7d8d97f57f9aa64de319c8598b5cdc7c3d2715fc02428415a98281ca6bdc55565b7f5705f5753aa4f617eef2cae1dada3d3355e9387b04d19191f09b545e684ca50d5473ffffffffffffffffffffffffffffffffffffffff163373ffffffffffffffffffffffffffffffffffffffff1614610d4f576040517f08c379a000000000000000000000000000000000000000000000000000000000815260206004820152601e60248201527f484f4c4f47524150483a2061646d696e206f6e6c792066756e6374696f6e000060448201526064016105b1565b7fd26498b26a05274577b8ac2e3250418da53433f3ff82027428ee3c530702cdec55565b7f5705f5753aa4f617eef2cae1dada3d3355e9387b04d19191f09b545e684ca50d5473ffffffffffffffffffffffffffffffffffffffff163373ffffffffffffffffffffffffffffffffffffffff1614610e29576040517f08c379a000000000000000000000000000000000000000000000000000000000815260206004820152601e60248201527f484f4c4f47524150483a2061646d696e206f6e6c792066756e6374696f6e000060448201526064016105b1565b808260003760008082600034875af13d6000803e808015610e49573d6000f35b3d6000fd5b7f5705f5753aa4f617eef2cae1dada3d3355e9387b04d19191f09b545e684ca50d5473ffffffffffffffffffffffffffffffffffffffff163373ffffffffffffffffffffffffffffffffffffffff1614610f04576040517f08c379a000000000000000000000000000000000000000000000000000000000815260206004820152601e60248201527f484f4c4f47524150483a2061646d696e206f6e6c792066756e6374696f6e000060448201526064016105b1565b7f23e584d4fb363739321c1e56c9bcdc29517a4c57065f8502226c995fd15b247255565b7f5705f5753aa4f617eef2cae1dada3d3355e9387b04d19191f09b545e684ca50d5473ffffffffffffffffffffffffffffffffffffffff163373ffffffffffffffffffffffffffffffffffffffff1614610fde576040517f08c379a000000000000000000000000000000000000000000000000000000000815260206004820152601e60248201527f484f4c4f47524150483a2061646d696e206f6e6c792066756e6374696f6e000060448201526064016105b1565b7fc8f5846d0f0d68cef76d4d10d7d189845e41b44d1dbdc208ed0f8961f993af5f55565b600061102c7f5705f5753aa4f617eef2cae1dada3d3355e9387b04d19191f09b545e684ca50d5490565b905090565b7f4e487b7100000000000000000000000000000000000000000000000000000000600052604160045260246000fd5b60006020828403121561107257600080fd5b813567ffffffffffffffff8082111561108a57600080fd5b818401915084601f83011261109e57600080fd5b8135818111156110b0576110b0611031565b604051601f82017fffffffffffffffffffffffffffffffffffffffffffffffffffffffffffffffe0908116603f011681019083821181831017156110f6576110f6611031565b8160405282815287602084870101111561110f57600080fd5b826020860160208301376000928101602001929092525095945050505050565b73ffffffffffffffffffffffffffffffffffffffff8116811461115157600080fd5b50565b60006020828403121561116657600080fd5b81356111718161112f565b9392505050565b63ffffffff8116811461115157600080fd5b60006020828403121561119c57600080fd5b813561117181611178565b6000806000604084860312156111bc57600080fd5b83356111c78161112f565b9250602084013567ffffffffffffffff808211156111e457600080fd5b818601915086601f8301126111f857600080fd5b81358181111561120757600080fd5b87602082850101111561121957600080fd5b6020830194508093505050509250925092565b600080600080600080600080610100898b03121561124957600080fd5b885161125481611178565b60208a01519098506112658161112f565b60408a01519097506112768161112f565b60608a01519096506112878161112f565b60808a01519095506112988161112f565b60a08a01519094506112a98161112f565b60c08a01519093506112ba8161112f565b60e08a01519092506112cb8161112f565b80915050929598509295989093965056fea164736f6c634300080d000a",
  "devdoc": {
    "kind": "dev",
    "methods": {
      "getChainType()": {
        "details": "Returns an integer value of the chain type that the factory is currently on.For example:                   1 = Ethereum mainnet                   2 = Binance Smart Chain mainnet                   3 = Avalanche mainnet                   4 = Polygon mainnet                   etc."
      },
      "setChainType(uint32)": {
        "details": "Sets the chain type that the factory is currently on."
      }
    },
    "version": 1
  },
  "userdoc": {
    "kind": "user",
    "methods": {},
    "version": 1
  },
  "storageLayout": {
    "storage": [],
    "types": null
  }
}