{
  "address": "0xEE151805e64Cd497C8d1eF7E85e4Bb13448F7650",
  "abi": [
    {
      "inputs": [],
      "stateMutability": "nonpayable",
      "type": "constructor"
    },
    {
      "anonymous": false,
      "inputs": [
        {
          "indexed": false,
          "internalType": "bytes",
          "name": "_payload",
          "type": "bytes"
        }
      ],
      "name": "AvailableJob",
      "type": "event"
    },
    {
      "inputs": [],
      "name": "admin",
      "outputs": [
        {
          "internalType": "address",
          "name": "",
          "type": "address"
        }
      ],
      "stateMutability": "view",
      "type": "function"
    },
    {
      "inputs": [
        {
          "internalType": "address",
          "name": "target",
          "type": "address"
        },
        {
          "internalType": "bytes",
          "name": "data",
          "type": "bytes"
        }
      ],
      "name": "adminCall",
      "outputs": [],
      "stateMutability": "payable",
      "type": "function"
    },
    {
      "inputs": [
        {
          "internalType": "bytes",
          "name": "_payload",
          "type": "bytes"
        }
      ],
      "name": "executeJob",
      "outputs": [],
      "stateMutability": "payable",
      "type": "function"
    },
    {
      "inputs": [],
      "name": "getAdmin",
      "outputs": [
        {
          "internalType": "address",
          "name": "adminAddress",
          "type": "address"
        }
      ],
      "stateMutability": "view",
      "type": "function"
    },
    {
      "inputs": [],
      "name": "getBridge",
      "outputs": [
        {
          "internalType": "address",
          "name": "bridge",
          "type": "address"
        }
      ],
      "stateMutability": "view",
      "type": "function"
    },
    {
      "inputs": [],
      "name": "getHolograph",
      "outputs": [
        {
          "internalType": "address",
          "name": "holograph",
          "type": "address"
        }
      ],
      "stateMutability": "view",
      "type": "function"
    },
    {
      "inputs": [],
      "name": "getInterfaces",
      "outputs": [
        {
          "internalType": "address",
          "name": "interfaces",
          "type": "address"
        }
      ],
      "stateMutability": "view",
      "type": "function"
    },
    {
      "inputs": [],
      "name": "getLZEndpoint",
      "outputs": [
        {
          "internalType": "address",
          "name": "lZEndpoint",
          "type": "address"
        }
      ],
      "stateMutability": "view",
      "type": "function"
    },
    {
      "inputs": [],
      "name": "getRegistry",
      "outputs": [
        {
          "internalType": "address",
          "name": "registry",
          "type": "address"
        }
      ],
      "stateMutability": "view",
      "type": "function"
    },
    {
      "inputs": [
        {
          "internalType": "bytes",
          "name": "data",
          "type": "bytes"
        }
      ],
      "name": "init",
      "outputs": [
        {
          "internalType": "bytes4",
          "name": "",
          "type": "bytes4"
        }
      ],
      "stateMutability": "nonpayable",
      "type": "function"
    },
    {
      "inputs": [
        {
          "internalType": "uint16",
          "name": "_srcChainId",
          "type": "uint16"
        },
        {
          "internalType": "bytes",
          "name": "_srcAddress",
          "type": "bytes"
        },
        {
          "internalType": "uint64",
          "name": "_nonce",
          "type": "uint64"
        },
        {
          "internalType": "bytes",
          "name": "_payload",
          "type": "bytes"
        }
      ],
      "name": "jobEstimator",
      "outputs": [],
      "stateMutability": "payable",
      "type": "function"
    },
    {
      "inputs": [
        {
          "internalType": "uint16",
          "name": "",
          "type": "uint16"
        },
        {
          "internalType": "bytes",
          "name": "_srcAddress",
          "type": "bytes"
        },
        {
          "internalType": "uint64",
          "name": "",
          "type": "uint64"
        },
        {
          "internalType": "bytes",
          "name": "_payload",
          "type": "bytes"
        }
      ],
      "name": "lzReceive",
      "outputs": [],
      "stateMutability": "payable",
      "type": "function"
    },
    {
      "inputs": [
        {
          "internalType": "uint32",
          "name": "toChain",
          "type": "uint32"
        },
        {
          "internalType": "address",
          "name": "msgSender",
          "type": "address"
        },
        {
          "internalType": "bytes",
          "name": "_payload",
          "type": "bytes"
        }
      ],
      "name": "send",
      "outputs": [],
      "stateMutability": "payable",
      "type": "function"
    },
    {
      "inputs": [
        {
          "internalType": "address",
          "name": "adminAddress",
          "type": "address"
        }
      ],
      "name": "setAdmin",
      "outputs": [],
      "stateMutability": "nonpayable",
      "type": "function"
    },
    {
      "inputs": [
        {
          "internalType": "address",
          "name": "bridge",
          "type": "address"
        }
      ],
      "name": "setBridge",
      "outputs": [],
      "stateMutability": "nonpayable",
      "type": "function"
    },
    {
      "inputs": [
        {
          "internalType": "address",
          "name": "holograph",
          "type": "address"
        }
      ],
      "name": "setHolograph",
      "outputs": [],
      "stateMutability": "nonpayable",
      "type": "function"
    },
    {
      "inputs": [
        {
          "internalType": "address",
          "name": "interfaces",
          "type": "address"
        }
      ],
      "name": "setInterfaces",
      "outputs": [],
      "stateMutability": "nonpayable",
      "type": "function"
    },
    {
      "inputs": [
        {
          "internalType": "address",
          "name": "lZEndpoint",
          "type": "address"
        }
      ],
      "name": "setLZEndpoint",
      "outputs": [],
      "stateMutability": "nonpayable",
      "type": "function"
    },
    {
      "inputs": [
        {
          "internalType": "address",
          "name": "registry",
          "type": "address"
        }
      ],
      "name": "setRegistry",
      "outputs": [],
      "stateMutability": "nonpayable",
      "type": "function"
    }
  ],
  "transactionHash": "0xb9dc6821c25aa06175354601459946a7472caaa27351fb35166f2804b2d6a285",
  "args": [],
  "numDeployments": 1,
  "solcInputHash": "ad0a38ed733b6baecf70bc5a825f9ae8",
  "bytecode": "0x608060405234801561001057600080fd5b5061186b806100206000396000f3fe6080604052600436106101435760003560e01c80636e9960c3116100c0578063a91ee0dc11610074578063da8292d911610059578063da8292d9146103c4578063ebac15f9146103e4578063f851a4401461041857600080fd5b8063a91ee0dc14610391578063bf64a82d146103b157600080fd5b8063778fd1d1116100a5578063778fd1d11461034b5780637a143a1b1461035e5780638dd148021461037157600080fd5b80636e9960c3146102f7578063704b6c021461032b57600080fd5b80634827ae0c116101175780634ddf47d4116100fc5780634ddf47d41461025f5780635ab1bd53146102b057806368346a92146102e457600080fd5b80634827ae0c1461020b5780634b40f1bf1461023f57600080fd5b80621d3567146101485780630fffbaf31461015d57806325d5cac8146101b757806336c5ab40146101d7575b600080fd5b61015b6101563660046112f7565b61042d565b005b34801561016957600080fd5b507f03be85923973d3197c19b1ad1f9b28c331dd9229cd80cbf84926b2286fc4563f545b60405173ffffffffffffffffffffffffffffffffffffffff90911681526020015b60405180910390f35b3480156101c357600080fd5b5061015b6101d23660046113bf565b6105f5565b3480156101e357600080fd5b507f2944abfef32f38db0df81ab8a585718b1584ffa240274312f8a85cb682b6b6885461018d565b34801561021757600080fd5b507f1eee493315beeac80829afd0aaa340f3821cabe68571a2743478e81638a3d94d5461018d565b34801561024b57600080fd5b5061015b61025a3660046113bf565b6106d4565b34801561026b57600080fd5b5061027f61027a366004611412565b6107ae565b6040517fffffffff0000000000000000000000000000000000000000000000000000000090911681526020016101ae565b3480156102bc57600080fd5b507f460c4059d72b144253e5fc4e2aacbae2bcd6362c67862cd58ecbab0e7b10c3495461018d565b61015b6102f23660046114e1565b610966565b34801561030357600080fd5b507f5705f5753aa4f617eef2cae1dada3d3355e9387b04d19191f09b545e684ca50d5461018d565b34801561033757600080fd5b5061015b6103463660046113bf565b610be8565b61015b61035936600461154f565b610cc2565b61015b61036c3660046112f7565b610dce565b34801561037d57600080fd5b5061015b61038c3660046113bf565b610f16565b34801561039d57600080fd5b5061015b6103ac3660046113bf565b610ff0565b61015b6103bf366004611591565b6110ca565b3480156103d057600080fd5b5061015b6103df3660046113bf565b6111a5565b3480156103f057600080fd5b507f23e584d4fb363739321c1e56c9bcdc29517a4c57065f8502226c995fd15b24725461018d565b34801561042457600080fd5b5061018d61127f565b337f2944abfef32f38db0df81ab8a585718b1584ffa240274312f8a85cb682b6b68854146104cd573330146104cd577f08c379a0000000000000000000000000000000000000000000000000000000006080527c200000000000000000000000000000000000000000000000000000000060a0527c1b484f4c4f47524150483a204c5a206f6e6c7920656e64706f696e740060c052600060e05260c46080fd5b6040518486600c8301378051301480610570577f08c379a0000000000000000000000000000000000000000000000000000000006080527c200000000000000000000000000000000000000000000000000000000060a0527c1e484f4c4f47524150483a20756e617574686f72697a65642073656e6460c0527f657200000000000000000000000000000000000000000000000000000000000060e05260c46080fd5b5050600160008084846040516105879291906115e6565b6040518091039020815260200190815260200160002060006101000a81548160ff0219169083151502179055507f6114b34f1f941c01691c47744b4fbc0dd9d542be34241ba84fc4c0bd9bef9b1182826040516105e592919061163f565b60405180910390a1505050505050565b7f5705f5753aa4f617eef2cae1dada3d3355e9387b04d19191f09b545e684ca50d5473ffffffffffffffffffffffffffffffffffffffff163373ffffffffffffffffffffffffffffffffffffffff16146106b0576040517f08c379a000000000000000000000000000000000000000000000000000000000815260206004820152601e60248201527f484f4c4f47524150483a2061646d696e206f6e6c792066756e6374696f6e000060448201526064015b60405180910390fd5b7f7eefc8e705e14d34b5d1d6c3ea7f4e20cecb5956b182bac952a455d9372b87e255565b7f5705f5753aa4f617eef2cae1dada3d3355e9387b04d19191f09b545e684ca50d5473ffffffffffffffffffffffffffffffffffffffff163373ffffffffffffffffffffffffffffffffffffffff161461078a576040517f08c379a000000000000000000000000000000000000000000000000000000000815260206004820152601e60248201527f484f4c4f47524150483a2061646d696e206f6e6c792066756e6374696f6e000060448201526064016106a7565b7f2944abfef32f38db0df81ab8a585718b1584ffa240274312f8a85cb682b6b68855565b60006107da7f4e5f991bca30eca2d4643aaefa807e88f96a4a97398933d572a3c0d973004a0154151590565b15610841576040517f08c379a000000000000000000000000000000000000000000000000000000000815260206004820152601e60248201527f484f4c4f47524150483a20616c726561647920696e697469616c697a6564000060448201526064016106a7565b6000806000808580602001905181019061085b919061165b565b9350935093509350327f5705f5753aa4f617eef2cae1dada3d3355e9387b04d19191f09b545e684ca50d55837f03be85923973d3197c19b1ad1f9b28c331dd9229cd80cbf84926b2286fc4563f55827f1eee493315beeac80829afd0aaa340f3821cabe68571a2743478e81638a3d94d55817f23e584d4fb363739321c1e56c9bcdc29517a4c57065f8502226c995fd15b247255807f460c4059d72b144253e5fc4e2aacbae2bcd6362c67862cd58ecbab0e7b10c3495561093b60017f4e5f991bca30eca2d4643aaefa807e88f96a4a97398933d572a3c0d973004a0155565b507f4ddf47d40000000000000000000000000000000000000000000000000000000095945050505050565b7f03be85923973d3197c19b1ad1f9b28c331dd9229cd80cbf84926b2286fc4563f5473ffffffffffffffffffffffffffffffffffffffff163373ffffffffffffffffffffffffffffffffffffffff1614610a1c576040517f08c379a000000000000000000000000000000000000000000000000000000000815260206004820152601b60248201527f484f4c4f47524150483a20627269646765206f6e6c792063616c6c000000000060448201526064016106a7565b7f2944abfef32f38db0df81ab8a585718b1584ffa240274312f8a85cb682b6b6885473ffffffffffffffffffffffffffffffffffffffff811663c580310034610a837f23e584d4fb363739321c1e56c9bcdc29517a4c57065f8502226c995fd15b24725490565b73ffffffffffffffffffffffffffffffffffffffff166320fc06ea60028a63ffffffff1660036040518463ffffffff1660e01b8152600401610ac7939291906116f5565b602060405180830381865afa158015610ae4573d6000803e3d6000fd5b505050506040513d601f19601f82011682018060405250810190610b089190611716565b6040517fffffffffffffffffffffffffffffffffffffffff0000000000000000000000003060601b166020820152603401604080517fffffffffffffffffffffffffffffffffffffffffffffffffffffffffffffffe08184030181526020830182526000835290517fffffffff0000000000000000000000000000000000000000000000000000000060e087901b168152610baf93928a918a918d9130919060040161179a565b6000604051808303818588803b158015610bc857600080fd5b505af1158015610bdc573d6000803e3d6000fd5b50505050505050505050565b7f5705f5753aa4f617eef2cae1dada3d3355e9387b04d19191f09b545e684ca50d5473ffffffffffffffffffffffffffffffffffffffff163373ffffffffffffffffffffffffffffffffffffffff1614610c9e576040517f08c379a000000000000000000000000000000000000000000000000000000000815260206004820152601e60248201527f484f4c4f47524150483a2061646d696e206f6e6c792066756e6374696f6e000060448201526064016106a7565b7f5705f5753aa4f617eef2cae1dada3d3355e9387b04d19191f09b545e684ca50d55565b60008282604051610cd49291906115e6565b604080519182900390912060008181526020819052919091205490915060ff16610d5a576040517f08c379a000000000000000000000000000000000000000000000000000000000815260206004820152601660248201527f484f4c4f47524150483a20696e76616c6964206a6f620000000000000000000060448201526064016106a7565b60003681823780813683347f03be85923973d3197c19b1ad1f9b28c331dd9229cd80cbf84926b2286fc4563f545af1610d95573d81823e3d81fd5b50600090815260208190526040902080547fffffffffffffffffffffffffffffffffffffffffffffffffffffffffffffff001690555050565b3360605114610e48577f08c379a0000000000000000000000000000000000000000000000000000000006080527c200000000000000000000000000000000000000000000000000000000060a0527c18484f4c4f47524150483a206f70657261746f72206f6e6c790000000060c052600060e05260c46080fd5b6040517e1d35670000000000000000000000000000000000000000000000000000000081523090621d356790610e8c90899089908990899089908990600401611810565b600060405180830381600087803b158015610ea657600080fd5b505af1158015610eba573d6000803e3d6000fd5b50506040517f778fd1d100000000000000000000000000000000000000000000000000000000815230925063778fd1d19150610efc908590859060040161163f565b600060405180830381600087803b158015610bc857600080fd5b7f5705f5753aa4f617eef2cae1dada3d3355e9387b04d19191f09b545e684ca50d5473ffffffffffffffffffffffffffffffffffffffff163373ffffffffffffffffffffffffffffffffffffffff1614610fcc576040517f08c379a000000000000000000000000000000000000000000000000000000000815260206004820152601e60248201527f484f4c4f47524150483a2061646d696e206f6e6c792066756e6374696f6e000060448201526064016106a7565b7f03be85923973d3197c19b1ad1f9b28c331dd9229cd80cbf84926b2286fc4563f55565b7f5705f5753aa4f617eef2cae1dada3d3355e9387b04d19191f09b545e684ca50d5473ffffffffffffffffffffffffffffffffffffffff163373ffffffffffffffffffffffffffffffffffffffff16146110a6576040517f08c379a000000000000000000000000000000000000000000000000000000000815260206004820152601e60248201527f484f4c4f47524150483a2061646d696e206f6e6c792066756e6374696f6e000060448201526064016106a7565b7f460c4059d72b144253e5fc4e2aacbae2bcd6362c67862cd58ecbab0e7b10c34955565b7f5705f5753aa4f617eef2cae1dada3d3355e9387b04d19191f09b545e684ca50d5473ffffffffffffffffffffffffffffffffffffffff163373ffffffffffffffffffffffffffffffffffffffff1614611180576040517f08c379a000000000000000000000000000000000000000000000000000000000815260206004820152601e60248201527f484f4c4f47524150483a2061646d696e206f6e6c792066756e6374696f6e000060448201526064016106a7565b808260003760008082600034875af13d6000803e8080156111a0573d6000f35b3d6000fd5b7f5705f5753aa4f617eef2cae1dada3d3355e9387b04d19191f09b545e684ca50d5473ffffffffffffffffffffffffffffffffffffffff163373ffffffffffffffffffffffffffffffffffffffff161461125b576040517f08c379a000000000000000000000000000000000000000000000000000000000815260206004820152601e60248201527f484f4c4f47524150483a2061646d696e206f6e6c792066756e6374696f6e000060448201526064016106a7565b7f23e584d4fb363739321c1e56c9bcdc29517a4c57065f8502226c995fd15b247255565b60006112a97f5705f5753aa4f617eef2cae1dada3d3355e9387b04d19191f09b545e684ca50d5490565b905090565b60008083601f8401126112c057600080fd5b50813567ffffffffffffffff8111156112d857600080fd5b6020830191508360208285010111156112f057600080fd5b9250929050565b6000806000806000806080878903121561131057600080fd5b863561ffff8116811461132257600080fd5b9550602087013567ffffffffffffffff8082111561133f57600080fd5b61134b8a838b016112ae565b909750955060408901359150808216821461136557600080fd5b9093506060880135908082111561137b57600080fd5b5061138889828a016112ae565b979a9699509497509295939492505050565b73ffffffffffffffffffffffffffffffffffffffff811681146113bc57600080fd5b50565b6000602082840312156113d157600080fd5b81356113dc8161139a565b9392505050565b7f4e487b7100000000000000000000000000000000000000000000000000000000600052604160045260246000fd5b60006020828403121561142457600080fd5b813567ffffffffffffffff8082111561143c57600080fd5b818401915084601f83011261145057600080fd5b813581811115611462576114626113e3565b604051601f82017fffffffffffffffffffffffffffffffffffffffffffffffffffffffffffffffe0908116603f011681019083821181831017156114a8576114a86113e3565b816040528281528760208487010111156114c157600080fd5b826020860160208301376000928101602001929092525095945050505050565b600080600080606085870312156114f757600080fd5b843563ffffffff8116811461150b57600080fd5b9350602085013561151b8161139a565b9250604085013567ffffffffffffffff81111561153757600080fd5b611543878288016112ae565b95989497509550505050565b6000806020838503121561156257600080fd5b823567ffffffffffffffff81111561157957600080fd5b611585858286016112ae565b90969095509350505050565b6000806000604084860312156115a657600080fd5b83356115b18161139a565b9250602084013567ffffffffffffffff8111156115cd57600080fd5b6115d9868287016112ae565b9497909650939450505050565b8183823760009101908152919050565b8183528181602085013750600060208284010152600060207fffffffffffffffffffffffffffffffffffffffffffffffffffffffffffffffe0601f840116840101905092915050565b6020815260006116536020830184866115f6565b949350505050565b6000806000806080858703121561167157600080fd5b845161167c8161139a565b602086015190945061168d8161139a565b604086015190935061169e8161139a565b60608601519092506116af8161139a565b939692955090935050565b600781106116f1577f4e487b7100000000000000000000000000000000000000000000000000000000600052602160045260246000fd5b9052565b6060810161170382866116ba565b83602083015261165360408301846116ba565b60006020828403121561172857600080fd5b5051919050565b6000815180845260005b8181101561175557602081850181015186830182015201611739565b81811115611767576000602083870101525b50601f017fffffffffffffffffffffffffffffffffffffffffffffffffffffffffffffffe0169290920160200192915050565b61ffff8816815260c0602082015260006117b760c083018961172f565b82810360408401526117ca81888a6115f6565b73ffffffffffffffffffffffffffffffffffffffff87811660608601528616608085015283810360a08501529050611802818561172f565b9a9950505050505050505050565b61ffff8716815260806020820152600061182e6080830187896115f6565b67ffffffffffffffff8616604084015282810360608401526118518185876115f6565b999850505050505050505056fea164736f6c634300080d000a",
  "devdoc": {
    "details": "This smart contract contains the actual core operator logic.",
    "events": {
      "AvailableJob(bytes)": {
        "details": "Event is emitted for every time that a valid job is available."
      }
    },
    "kind": "dev",
    "methods": {
      "constructor": {
        "details": "Constructor is left empty and only the admin address is set."
      }
    },
    "stateVariables": {
      "_availableJobs": {
        "details": "Internal mapping of hashes for valid operator jobs."
      }
    },
    "version": 1
  },
  "userdoc": {
    "kind": "user",
    "methods": {},
    "version": 1
  },
  "storageLayout": {
    "storage": [
      {
        "astId": 5519,
        "contract": "contracts/HolographOperator.sol:HolographOperator",
        "label": "_availableJobs",
        "offset": 0,
        "slot": "0",
        "type": "t_mapping(t_bytes32,t_bool)"
      }
    ],
    "types": {
      "t_bool": {
        "encoding": "inplace",
        "label": "bool",
        "numberOfBytes": "1"
      },
      "t_bytes32": {
        "encoding": "inplace",
        "label": "bytes32",
        "numberOfBytes": "32"
      },
      "t_mapping(t_bytes32,t_bool)": {
        "encoding": "mapping",
        "key": "t_bytes32",
        "label": "mapping(bytes32 => bool)",
        "numberOfBytes": "32",
        "value": "t_bool"
      }
    }
  }
}