{
  "address": "0x1238EfB0aAAD48c9e8f2bEf410BF1A271CC83F59",
  "abi": [
    {
      "inputs": [],
      "stateMutability": "nonpayable",
      "type": "constructor"
    },
    {
      "anonymous": false,
      "inputs": [
        {
          "indexed": true,
          "internalType": "address",
          "name": "_owner",
          "type": "address"
        },
        {
          "indexed": true,
          "internalType": "address",
          "name": "_approved",
          "type": "address"
        },
        {
          "indexed": true,
          "internalType": "uint256",
          "name": "_tokenId",
          "type": "uint256"
        }
      ],
      "name": "Approval",
      "type": "event"
    },
    {
      "anonymous": false,
      "inputs": [
        {
          "indexed": true,
          "internalType": "address",
          "name": "_owner",
          "type": "address"
        },
        {
          "indexed": true,
          "internalType": "address",
          "name": "_operator",
          "type": "address"
        },
        {
          "indexed": false,
          "internalType": "bool",
          "name": "_approved",
          "type": "bool"
        }
      ],
      "name": "ApprovalForAll",
      "type": "event"
    },
    {
      "anonymous": false,
      "inputs": [
        {
          "indexed": true,
          "internalType": "address",
          "name": "previousOwner",
          "type": "address"
        },
        {
          "indexed": true,
          "internalType": "address",
          "name": "newOwner",
          "type": "address"
        }
      ],
      "name": "OwnershipTransferred",
      "type": "event"
    },
    {
      "anonymous": false,
      "inputs": [
        {
          "indexed": true,
          "internalType": "address",
          "name": "_from",
          "type": "address"
        },
        {
          "indexed": true,
          "internalType": "address",
          "name": "_to",
          "type": "address"
        },
        {
          "indexed": true,
          "internalType": "uint256",
          "name": "_tokenId",
          "type": "uint256"
        }
      ],
      "name": "Transfer",
      "type": "event"
    },
    {
      "stateMutability": "payable",
      "type": "fallback"
    },
    {
      "inputs": [],
      "name": "admin",
      "outputs": [
        {
          "internalType": "address",
          "name": "",
          "type": "address"
        }
      ],
      "stateMutability": "view",
      "type": "function"
    },
    {
      "inputs": [
        {
          "internalType": "address",
          "name": "target",
          "type": "address"
        },
        {
          "internalType": "bytes",
          "name": "data",
          "type": "bytes"
        }
      ],
      "name": "adminCall",
      "outputs": [],
      "stateMutability": "payable",
      "type": "function"
    },
    {
      "inputs": [
        {
          "internalType": "address",
          "name": "to",
          "type": "address"
        },
        {
          "internalType": "uint256",
          "name": "tokenId",
          "type": "uint256"
        }
      ],
      "name": "approve",
      "outputs": [],
      "stateMutability": "payable",
      "type": "function"
    },
    {
      "inputs": [
        {
          "internalType": "address",
          "name": "wallet",
          "type": "address"
        }
      ],
      "name": "balanceOf",
      "outputs": [
        {
          "internalType": "uint256",
          "name": "",
          "type": "uint256"
        }
      ],
      "stateMutability": "view",
      "type": "function"
    },
    {
      "inputs": [
        {
          "internalType": "uint256",
          "name": "tokenId",
          "type": "uint256"
        }
      ],
      "name": "burn",
      "outputs": [],
      "stateMutability": "nonpayable",
      "type": "function"
    },
    {
      "inputs": [
        {
          "internalType": "uint256",
          "name": "tokenId",
          "type": "uint256"
        }
      ],
      "name": "burned",
      "outputs": [
        {
          "internalType": "bool",
          "name": "",
          "type": "bool"
        }
      ],
      "stateMutability": "view",
      "type": "function"
    },
    {
      "inputs": [],
      "name": "contractURI",
      "outputs": [
        {
          "internalType": "string",
          "name": "",
          "type": "string"
        }
      ],
      "stateMutability": "view",
      "type": "function"
    },
    {
      "inputs": [
        {
          "internalType": "uint256",
          "name": "tokenId",
          "type": "uint256"
        }
      ],
      "name": "exists",
      "outputs": [
        {
          "internalType": "bool",
          "name": "",
          "type": "bool"
        }
      ],
      "stateMutability": "view",
      "type": "function"
    },
    {
      "inputs": [],
      "name": "getAdmin",
      "outputs": [
        {
          "internalType": "address",
          "name": "adminAddress",
          "type": "address"
        }
      ],
      "stateMutability": "view",
      "type": "function"
    },
    {
      "inputs": [
        {
          "internalType": "uint256",
          "name": "tokenId",
          "type": "uint256"
        }
      ],
      "name": "getApproved",
      "outputs": [
        {
          "internalType": "address",
          "name": "",
          "type": "address"
        }
      ],
      "stateMutability": "view",
      "type": "function"
    },
    {
      "inputs": [],
      "name": "getOwner",
      "outputs": [
        {
          "internalType": "address",
          "name": "ownerAddress",
          "type": "address"
        }
      ],
      "stateMutability": "view",
      "type": "function"
    },
    {
      "inputs": [
        {
          "internalType": "uint32",
          "name": "chainType",
          "type": "uint32"
        },
        {
          "internalType": "address",
          "name": "from",
          "type": "address"
        },
        {
          "internalType": "address",
          "name": "to",
          "type": "address"
        },
        {
          "internalType": "uint256",
          "name": "tokenId",
          "type": "uint256"
        },
        {
          "internalType": "bytes",
          "name": "data",
          "type": "bytes"
        }
      ],
      "name": "holographBridgeIn",
      "outputs": [
        {
          "internalType": "bytes4",
          "name": "",
          "type": "bytes4"
        }
      ],
      "stateMutability": "nonpayable",
      "type": "function"
    },
    {
      "inputs": [
        {
          "internalType": "uint32",
          "name": "chainType",
          "type": "uint32"
        },
        {
          "internalType": "address",
          "name": "from",
          "type": "address"
        },
        {
          "internalType": "address",
          "name": "to",
          "type": "address"
        },
        {
          "internalType": "uint256",
          "name": "tokenId",
          "type": "uint256"
        }
      ],
      "name": "holographBridgeOut",
      "outputs": [
        {
          "internalType": "bytes4",
          "name": "selector",
          "type": "bytes4"
        },
        {
          "internalType": "bytes",
          "name": "data",
          "type": "bytes"
        }
      ],
      "stateMutability": "nonpayable",
      "type": "function"
    },
    {
      "inputs": [
        {
          "internalType": "bytes",
          "name": "data",
          "type": "bytes"
        }
      ],
      "name": "init",
      "outputs": [
        {
          "internalType": "bytes4",
          "name": "",
          "type": "bytes4"
        }
      ],
      "stateMutability": "nonpayable",
      "type": "function"
    },
    {
      "inputs": [
        {
          "internalType": "address",
          "name": "wallet",
          "type": "address"
        },
        {
          "internalType": "address",
          "name": "operator",
          "type": "address"
        }
      ],
      "name": "isApprovedForAll",
      "outputs": [
        {
          "internalType": "bool",
          "name": "",
          "type": "bool"
        }
      ],
      "stateMutability": "view",
      "type": "function"
    },
    {
      "inputs": [],
      "name": "name",
      "outputs": [
        {
          "internalType": "string",
          "name": "",
          "type": "string"
        }
      ],
      "stateMutability": "view",
      "type": "function"
    },
    {
      "inputs": [
        {
          "internalType": "address",
          "name": "_operator",
          "type": "address"
        },
        {
          "internalType": "address",
          "name": "_from",
          "type": "address"
        },
        {
          "internalType": "uint256",
          "name": "_tokenId",
          "type": "uint256"
        },
        {
          "internalType": "bytes",
          "name": "_data",
          "type": "bytes"
        }
      ],
      "name": "onERC721Received",
      "outputs": [
        {
          "internalType": "bytes4",
          "name": "",
          "type": "bytes4"
        }
      ],
      "stateMutability": "nonpayable",
      "type": "function"
    },
    {
      "inputs": [],
      "name": "owner",
      "outputs": [
        {
          "internalType": "address",
          "name": "",
          "type": "address"
        }
      ],
      "stateMutability": "view",
      "type": "function"
    },
    {
      "inputs": [
        {
          "internalType": "address",
          "name": "target",
          "type": "address"
        },
        {
          "internalType": "bytes",
          "name": "data",
          "type": "bytes"
        }
      ],
      "name": "ownerCall",
      "outputs": [],
      "stateMutability": "payable",
      "type": "function"
    },
    {
      "inputs": [
        {
          "internalType": "uint256",
          "name": "tokenId",
          "type": "uint256"
        }
      ],
      "name": "ownerOf",
      "outputs": [
        {
          "internalType": "address",
          "name": "",
          "type": "address"
        }
      ],
      "stateMutability": "view",
      "type": "function"
    },
    {
      "inputs": [
        {
          "internalType": "address",
          "name": "from",
          "type": "address"
        },
        {
          "internalType": "address",
          "name": "to",
          "type": "address"
        },
        {
          "internalType": "uint256",
          "name": "tokenId",
          "type": "uint256"
        }
      ],
      "name": "safeTransferFrom",
      "outputs": [],
      "stateMutability": "payable",
      "type": "function"
    },
    {
      "inputs": [
        {
          "internalType": "address",
          "name": "from",
          "type": "address"
        },
        {
          "internalType": "address",
          "name": "to",
          "type": "address"
        },
        {
          "internalType": "uint256",
          "name": "tokenId",
          "type": "uint256"
        },
        {
          "internalType": "bytes",
          "name": "data",
          "type": "bytes"
        }
      ],
      "name": "safeTransferFrom",
      "outputs": [],
      "stateMutability": "payable",
      "type": "function"
    },
    {
      "inputs": [
        {
          "internalType": "address",
          "name": "adminAddress",
          "type": "address"
        }
      ],
      "name": "setAdmin",
      "outputs": [],
      "stateMutability": "nonpayable",
      "type": "function"
    },
    {
      "inputs": [
        {
          "internalType": "address",
          "name": "to",
          "type": "address"
        },
        {
          "internalType": "bool",
          "name": "approved",
          "type": "bool"
        }
      ],
      "name": "setApprovalForAll",
      "outputs": [],
      "stateMutability": "nonpayable",
      "type": "function"
    },
    {
      "inputs": [
        {
          "internalType": "address",
          "name": "ownerAddress",
          "type": "address"
        }
      ],
      "name": "setOwner",
      "outputs": [],
      "stateMutability": "nonpayable",
      "type": "function"
    },
    {
      "inputs": [
        {
          "internalType": "uint256",
          "name": "tokenId",
          "type": "uint256"
        }
      ],
      "name": "sourceBurn",
      "outputs": [],
      "stateMutability": "nonpayable",
      "type": "function"
    },
    {
      "inputs": [],
      "name": "sourceGetChainPrepend",
      "outputs": [
        {
          "internalType": "uint256",
          "name": "",
          "type": "uint256"
        }
      ],
      "stateMutability": "view",
      "type": "function"
    },
    {
      "inputs": [
        {
          "internalType": "address",
          "name": "to",
          "type": "address"
        },
        {
          "internalType": "uint224",
          "name": "tokenId",
          "type": "uint224"
        }
      ],
      "name": "sourceMint",
      "outputs": [],
      "stateMutability": "nonpayable",
      "type": "function"
    },
    {
      "inputs": [
        {
          "internalType": "address[]",
          "name": "wallets",
          "type": "address[]"
        },
        {
          "internalType": "uint224[]",
          "name": "tokenIds",
          "type": "uint224[]"
        }
      ],
      "name": "sourceMintBatch",
      "outputs": [],
      "stateMutability": "nonpayable",
      "type": "function"
    },
    {
      "inputs": [
        {
          "internalType": "address",
          "name": "to",
          "type": "address"
        },
        {
          "internalType": "uint224[]",
          "name": "tokenIds",
          "type": "uint224[]"
        }
      ],
      "name": "sourceMintBatch",
      "outputs": [],
      "stateMutability": "nonpayable",
      "type": "function"
    },
    {
      "inputs": [
        {
          "internalType": "address",
          "name": "to",
          "type": "address"
        },
        {
          "internalType": "uint224",
          "name": "startingTokenId",
          "type": "uint224"
        },
        {
          "internalType": "uint256",
          "name": "length",
          "type": "uint256"
        }
      ],
      "name": "sourceMintBatchIncremental",
      "outputs": [],
      "stateMutability": "nonpayable",
      "type": "function"
    },
    {
      "inputs": [
        {
          "internalType": "address",
          "name": "to",
          "type": "address"
        },
        {
          "internalType": "uint256",
          "name": "tokenId",
          "type": "uint256"
        }
      ],
      "name": "sourceTransfer",
      "outputs": [],
      "stateMutability": "nonpayable",
      "type": "function"
    },
    {
      "inputs": [
        {
          "internalType": "bytes4",
          "name": "interfaceId",
          "type": "bytes4"
        }
      ],
      "name": "supportsInterface",
      "outputs": [
        {
          "internalType": "bool",
          "name": "",
          "type": "bool"
        }
      ],
      "stateMutability": "view",
      "type": "function"
    },
    {
      "inputs": [],
      "name": "symbol",
      "outputs": [
        {
          "internalType": "string",
          "name": "",
          "type": "string"
        }
      ],
      "stateMutability": "view",
      "type": "function"
    },
    {
      "inputs": [
        {
          "internalType": "uint256",
          "name": "index",
          "type": "uint256"
        }
      ],
      "name": "tokenByIndex",
      "outputs": [
        {
          "internalType": "uint256",
          "name": "",
          "type": "uint256"
        }
      ],
      "stateMutability": "view",
      "type": "function"
    },
    {
      "inputs": [
        {
          "internalType": "address",
          "name": "wallet",
          "type": "address"
        },
        {
          "internalType": "uint256",
          "name": "index",
          "type": "uint256"
        }
      ],
      "name": "tokenOfOwnerByIndex",
      "outputs": [
        {
          "internalType": "uint256",
          "name": "",
          "type": "uint256"
        }
      ],
      "stateMutability": "view",
      "type": "function"
    },
    {
      "inputs": [
        {
          "internalType": "uint256",
          "name": "tokenId",
          "type": "uint256"
        }
      ],
      "name": "tokenURI",
      "outputs": [
        {
          "internalType": "string",
          "name": "",
          "type": "string"
        }
      ],
      "stateMutability": "view",
      "type": "function"
    },
    {
      "inputs": [
        {
          "internalType": "uint256",
          "name": "index",
          "type": "uint256"
        },
        {
          "internalType": "uint256",
          "name": "length",
          "type": "uint256"
        }
      ],
      "name": "tokens",
      "outputs": [
        {
          "internalType": "uint256[]",
          "name": "tokenIds",
          "type": "uint256[]"
        }
      ],
      "stateMutability": "view",
      "type": "function"
    },
    {
      "inputs": [
        {
          "internalType": "address",
          "name": "wallet",
          "type": "address"
        }
      ],
      "name": "tokensOfOwner",
      "outputs": [
        {
          "internalType": "uint256[]",
          "name": "",
          "type": "uint256[]"
        }
      ],
      "stateMutability": "view",
      "type": "function"
    },
    {
      "inputs": [
        {
          "internalType": "address",
          "name": "wallet",
          "type": "address"
        },
        {
          "internalType": "uint256",
          "name": "index",
          "type": "uint256"
        },
        {
          "internalType": "uint256",
          "name": "length",
          "type": "uint256"
        }
      ],
      "name": "tokensOfOwner",
      "outputs": [
        {
          "internalType": "uint256[]",
          "name": "tokenIds",
          "type": "uint256[]"
        }
      ],
      "stateMutability": "view",
      "type": "function"
    },
    {
      "inputs": [],
      "name": "totalSupply",
      "outputs": [
        {
          "internalType": "uint256",
          "name": "",
          "type": "uint256"
        }
      ],
      "stateMutability": "view",
      "type": "function"
    },
    {
      "inputs": [
        {
          "internalType": "address",
          "name": "to",
          "type": "address"
        },
        {
          "internalType": "uint256",
          "name": "tokenId",
          "type": "uint256"
        }
      ],
      "name": "transfer",
      "outputs": [],
      "stateMutability": "payable",
      "type": "function"
    },
    {
      "inputs": [
        {
          "internalType": "address",
          "name": "from",
          "type": "address"
        },
        {
          "internalType": "address",
          "name": "to",
          "type": "address"
        },
        {
          "internalType": "uint256",
          "name": "tokenId",
          "type": "uint256"
        }
      ],
      "name": "transferFrom",
      "outputs": [],
      "stateMutability": "payable",
      "type": "function"
    },
    {
      "inputs": [
        {
          "internalType": "address",
          "name": "from",
          "type": "address"
        },
        {
          "internalType": "address",
          "name": "to",
          "type": "address"
        },
        {
          "internalType": "uint256",
          "name": "tokenId",
          "type": "uint256"
        },
        {
          "internalType": "bytes",
          "name": "data",
          "type": "bytes"
        }
      ],
      "name": "transferFrom",
      "outputs": [],
      "stateMutability": "payable",
      "type": "function"
    },
    {
      "inputs": [
        {
          "internalType": "address",
          "name": "newOwner",
          "type": "address"
        }
      ],
      "name": "transferOwnership",
      "outputs": [],
      "stateMutability": "nonpayable",
      "type": "function"
    },
    {
      "stateMutability": "payable",
      "type": "receive"
    }
  ],
  "transactionHash": "0x72c7c76f9453da7c7df856350433b7adb7229a8daa8467f6b47fab9af8efde82",
  "args": [],
  "numDeployments": 1,
  "solcInputHash": "9c4112ef79367b0efdb44246ed5b05f9",
  "bytecode": "0x608060405234801561001057600080fd5b50615e7380620000216000396000f3fe6080604052600436106102f65760003560e01c806377dbd8631161018f578063b88d4fde116100e1578063e8a3d4851161008a578063f2fde38b11610064578063f2fde38b14610a0e578063f851a44014610a2e578063fadcd09114610a43576102fd565b8063e8a3d48514610990578063e985e9c5146109a5578063eb66dbcf146109fb576102fd565b8063c839fe94116100bb578063c839fe9414610922578063c87b56dd14610942578063de8b1ef114610962576102fd565b8063b88d4fde146108dc578063bf64a82d146108ef578063c5655fce14610902576102fd565b806395a1299a11610143578063a3ee19bc1161011d578063a3ee19bc14610896578063a9059cbb146108b6578063ab67aa58146108c9576102fd565b806395a1299a1461084157806395d89b4114610861578063a22cb46514610876576102fd565b8063893d20e811610174578063893d20e8146107d85780638b4864d61461080c5780638da5cb5b1461082c576102fd565b806377dbd863146107965780638462151c146107ab576102fd565b80632f745c59116102485780634f558e79116101fc5780636e9960c3116101d65780636e9960c314610722578063704b6c021461075657806370a0823114610776576102fd565b80634f558e791461069d5780634f6ccce7146106e25780636352211e14610702576102fd565b806342842e0e1161022d57806342842e0e1461064a57806342966c681461065d5780634ddf47d41461067d576102fd565b80632f745c591461060a5780633b4f1b261461062a576102fd565b8063150b7a02116102aa57806323250cae1161028457806323250cae146105a757806323b872dd146105d7578063275ccf2c146105ea576102fd565b8063150b7a021461051757806318160ddd1461056857806321d6846f14610587576102fd565b8063081812fc116102db578063081812fc1461047c578063095ea7b3146104e457806313af4035146104f7576102fd565b806301ffc9a71461042557806306fdde031461045a576102fd565b366102fd57005b6000610307610a63565b73ffffffffffffffffffffffffffffffffffffffff16639fe7303f60036000357fffffffff00000000000000000000000000000000000000000000000000000000166040518363ffffffff1660e01b8152600401610366929190614f85565b602060405180830381865afa158015610383573d6000803e3d6000fd5b505050506040513d601f19601f820116820180604052508101906103a7919061500a565b156103da576103b4610b00565b90503660008037600080366000845af43d6000803e8080156103d5573d6000f35b3d6000fd5b507fee63e41dd03b4d304382a6596ec5f4a6eb601d3640835d27fca1d0be62955bb554366000803733365260008060203601600034855af13d6000803e8080156103d5573d6000f35b005b34801561043157600080fd5b50610445610440366004615055565b610c08565b60405190151581526020015b60405180910390f35b34801561046657600080fd5b5061046f610e42565b60405161045191906150e8565b34801561048857600080fd5b506104bf6104973660046150fb565b60009081526007602052604090205473ffffffffffffffffffffffffffffffffffffffff1690565b60405173ffffffffffffffffffffffffffffffffffffffff9091168152602001610451565b6104236104f2366004615136565b610ed4565b34801561050357600080fd5b50610423610512366004615162565b6111e3565b34801561052357600080fd5b506105376105323660046151c8565b611346565b6040517fffffffff000000000000000000000000000000000000000000000000000000009091168152602001610451565b34801561057457600080fd5b506004545b604051908152602001610451565b34801561059357600080fd5b506105376105a236600461524d565b6116b7565b3480156105b357600080fd5b506104456105c23660046150fb565b6000908152600c602052604090205460ff1690565b6104236105e53660046152d2565b61194d565b3480156105f657600080fd5b50610423610605366004615358565b611968565b34801561061657600080fd5b50610579610625366004615136565b611ba3565b34801561063657600080fd5b506104236106453660046153f0565b611c60565b6104236106583660046152d2565b611e25565b34801561066957600080fd5b506104236106783660046150fb565b611e40565b34801561068957600080fd5b5061053761069836600461553f565b61205a565b3480156106a957600080fd5b506104456106b83660046150fb565b60009081526006602052604090205473ffffffffffffffffffffffffffffffffffffffff16151590565b3480156106ee57600080fd5b506105796106fd3660046150fb565b61252a565b34801561070e57600080fd5b506104bf61071d3660046150fb565b6125bd565b34801561072e57600080fd5b507f5705f5753aa4f617eef2cae1dada3d3355e9387b04d19191f09b545e684ca50d546104bf565b34801561076257600080fd5b50610423610771366004615162565b61264f565b34801561078257600080fd5b50610579610791366004615162565b612729565b3480156107a257600080fd5b506105796127d1565b3480156107b757600080fd5b506107cb6107c6366004615162565b6128e8565b6040516104519190615574565b3480156107e457600080fd5b507f89b583059fdb0b2e807359b64eba1a8a1e6d099210701fafe6dad5dd2cd64fb8546104bf565b34801561081857600080fd5b506107cb6108273660046155b8565b612961565b34801561083857600080fd5b506104bf612a33565b34801561084d57600080fd5b5061042361085c3660046155da565b612aa7565b34801561086d57600080fd5b5061046f612c9a565b34801561088257600080fd5b50610423610891366004615618565b612ca9565b3480156108a257600080fd5b506104236108b1366004615651565b612eec565b6104236108c4366004615136565b613171565b6104236108d73660046156a6565b613188565b6104236108ea3660046156a6565b61334b565b6104236108fd366004615712565b61373b565b34801561090e57600080fd5b5061042361091d366004615136565b613811565b34801561092e57600080fd5b506107cb61093d36600461575a565b613993565b34801561094e57600080fd5b5061046f61095d3660046150fb565b613aac565b34801561096e57600080fd5b5061098261097d36600461578f565b613c0e565b6040516104519291906157e0565b34801561099c57600080fd5b5061046f613dcf565b3480156109b157600080fd5b506104456109c036600461581b565b73ffffffffffffffffffffffffffffffffffffffff9182166000908152600a6020908152604080832093909416825291909152205460ff1690565b610423610a09366004615712565b613e9b565b348015610a1a57600080fd5b50610423610a29366004615162565b613f51565b348015610a3a57600080fd5b506104bf6140a8565b348015610a4f57600080fd5b50610423610a5e3660046150fb565b6140d2565b6000610a8d7f1eee493315beeac80829afd0aaa340f3821cabe68571a2743478e81638a3d94d5490565b73ffffffffffffffffffffffffffffffffffffffff1663ebac15f96040518163ffffffff1660e01b8152600401602060405180830381865afa158015610ad7573d6000803e3d6000fd5b505050506040513d601f19601f82011682018060405250810190610afb9190615849565b905090565b6000610b2a7f1eee493315beeac80829afd0aaa340f3821cabe68571a2743478e81638a3d94d5490565b73ffffffffffffffffffffffffffffffffffffffff16635ab1bd536040518163ffffffff1660e01b8152600401602060405180830381865afa158015610b74573d6000803e3d6000fd5b505050506040513d601f19601f82011682018060405250810190610b989190615849565b6040517fcc2913f90000000000000000000000000000000000000000000000000000000081526350413144600482015273ffffffffffffffffffffffffffffffffffffffff919091169063cc2913f990602401602060405180830381865afa158015610ad7573d6000803e3d6000fd5b6000610c12610a63565b73ffffffffffffffffffffffffffffffffffffffff16639fe7303f6001846040518363ffffffff1660e01b8152600401610c4d929190614f85565b602060405180830381865afa158015610c6a573d6000803e3d6000fd5b505050506040513d601f19601f82011682018060405250810190610c8e919061500a565b80610d4e5750610c9c610b00565b6040517f01ffc9a70000000000000000000000000000000000000000000000000000000081527fffffffff000000000000000000000000000000000000000000000000000000008416600482015273ffffffffffffffffffffffffffffffffffffffff91909116906301ffc9a790602401602060405180830381865afa158015610d2a573d6000803e3d6000fd5b505050506040513d601f19601f82011682018060405250810190610d4e919061500a565b80610e2857507fee63e41dd03b4d304382a6596ec5f4a6eb601d3640835d27fca1d0be62955bb5546040517f01ffc9a70000000000000000000000000000000000000000000000000000000081527fffffffff000000000000000000000000000000000000000000000000000000008416600482015273ffffffffffffffffffffffffffffffffffffffff91909116906301ffc9a790602401602060405180830381865afa158015610e04573d6000803e3d6000fd5b505050506040513d601f19601f82011682018060405250810190610e28919061500a565b15610e3557506001919050565b506000919050565b919050565b606060018054610e5190615866565b80601f0160208091040260200160405190810160405280929190818152602001828054610e7d90615866565b8015610eca5780601f10610e9f57610100808354040283529160200191610eca565b820191906000526020600020905b815481529060010190602001808311610ead57829003601f168201915b5050505050905090565b60008181526006602052604090205473ffffffffffffffffffffffffffffffffffffffff908116908316819003610f6c576040517f08c379a000000000000000000000000000000000000000000000000000000000815260206004820152601b60248201527f4552433732313a2063616e6e6f7420617070726f76652073656c66000000000060448201526064015b60405180910390fd5b610f763383614253565b610fdc576040517f08c379a000000000000000000000000000000000000000000000000000000000815260206004820152601b60248201527f4552433732313a206e6f7420617070726f7665642073656e64657200000000006044820152606401610f63565b610fe66003614380565b1561109f57610ff36143b2565b6040517f47abf3be00000000000000000000000000000000000000000000000000000000815273ffffffffffffffffffffffffffffffffffffffff838116600483015285811660248301526044820185905291909116906347abf3be906064016020604051808303816000875af1158015611072573d6000803e3d6000fd5b505050506040513d601f19601f82011682018060405250810190611096919061500a565b61109f57600080fd5b60008281526007602052604080822080547fffffffffffffffffffffffff00000000000000000000000000000000000000001673ffffffffffffffffffffffffffffffffffffffff87811691821790925591518593918516917f8c5be1e5ebec7d5bd14f71427d1e84f3dd0314c0f7b2291e5b200ac8c7c3b92591a46111256002614380565b156111de576111326143b2565b6040517f900f66ef00000000000000000000000000000000000000000000000000000000815273ffffffffffffffffffffffffffffffffffffffff8381166004830152858116602483015260448201859052919091169063900f66ef906064016020604051808303816000875af11580156111b1573d6000803e3d6000fd5b505050506040513d601f19601f820116820180604052508101906111d5919061500a565b6111de57600080fd5b505050565b7f89b583059fdb0b2e807359b64eba1a8a1e6d099210701fafe6dad5dd2cd64fb85473ffffffffffffffffffffffffffffffffffffffff163373ffffffffffffffffffffffffffffffffffffffff1614611299576040517f08c379a000000000000000000000000000000000000000000000000000000000815260206004820152601e60248201527f484f4c4f47524150483a206f776e6572206f6e6c792066756e6374696f6e00006044820152606401610f63565b60006112c37f89b583059fdb0b2e807359b64eba1a8a1e6d099210701fafe6dad5dd2cd64fb85490565b9050817f89b583059fdb0b2e807359b64eba1a8a1e6d099210701fafe6dad5dd2cd64fb8558173ffffffffffffffffffffffffffffffffffffffff168173ffffffffffffffffffffffffffffffffffffffff167f8be0079c531659141344cd1fd0a4f28419497f9722a3daafe3b4186f6b6457e060405160405180910390a35050565b6000611351866143dc565b6113b7576040517f08c379a000000000000000000000000000000000000000000000000000000000815260206004820152601d60248201527f4552433732313a206f70657261746f72206e6f7420636f6e74726163740000006044820152606401610f63565b6113c1600e614380565b1561145c576113ce6143b2565b73ffffffffffffffffffffffffffffffffffffffff166368fd76b28787308888886040518763ffffffff1660e01b815260040161141096959493929190615902565b6020604051808303816000875af115801561142f573d6000803e3d6000fd5b505050506040513d601f19601f82011682018060405250810190611453919061500a565b61145c57600080fd5b6040517f6352211e0000000000000000000000000000000000000000000000000000000081526004810185905273ffffffffffffffffffffffffffffffffffffffff871690636352211e90602401602060405180830381865afa925050508015611501575060408051601f3d9081017fffffffffffffffffffffffffffffffffffffffffffffffffffffffffffffffe01682019092526114fe91810190615849565b60015b611567576040517f08c379a000000000000000000000000000000000000000000000000000000000815260206004820152601c60248201527f4552433732313a20746f6b656e20646f6573206e6f74206578697374000000006044820152606401610f63565b73ffffffffffffffffffffffffffffffffffffffff811630146115e6576040517f08c379a000000000000000000000000000000000000000000000000000000000815260206004820181905260248201527f4552433732313a20636f6e7472616374206e6f7420746f6b656e206f776e65726044820152606401610f63565b506115f1600f614380565b1561168c576115fe6143b2565b73ffffffffffffffffffffffffffffffffffffffff1663462b401a8787308888886040518763ffffffff1660e01b815260040161164096959493929190615902565b6020604051808303816000875af115801561165f573d6000803e3d6000fd5b505050506040513d601f19601f82011682018060405250810190611683919061500a565b61168c57600080fd5b507f150b7a020000000000000000000000000000000000000000000000000000000095945050505050565b60006116c1614416565b73ffffffffffffffffffffffffffffffffffffffff163373ffffffffffffffffffffffffffffffffffffffff1614611755576040517f08c379a000000000000000000000000000000000000000000000000000000000815260206004820152601c60248201527f4552433732313a206f6e6c79206272696467652063616e2063616c6c000000006044820152606401610f63565b60008481526006602052604090205473ffffffffffffffffffffffffffffffffffffffff16156117e1576040517f08c379a000000000000000000000000000000000000000000000000000000000815260206004820152601c60248201527f4552433732313a20746f6b656e20616c726561647920657869737473000000006044820152606401610f63565b6000848152600c6020526040902080547fffffffffffffffffffffffffffffffffffffffffffffffffffffffffffffff0016905561181f858561448a565b6118296000614380565b15611921576118366143b2565b73ffffffffffffffffffffffffffffffffffffffff1663f0f540738888888888886040518763ffffffff1660e01b815260040161187896959493929190615956565b6020604051808303816000875af1158015611897573d6000803e3d6000fd5b505050506040513d601f19601f820116820180604052508101906118bb919061500a565b611921576040517f08c379a000000000000000000000000000000000000000000000000000000000815260206004820152601b60248201527f484f4c4f47524150483a2062726964676520696e206661696c656400000000006044820152606401610f63565b507f21d6846f000000000000000000000000000000000000000000000000000000009695505050505050565b6111de83838360405180602001604052806000815250613188565b7fee63e41dd03b4d304382a6596ec5f4a6eb601d3640835d27fca1d0be62955bb55473ffffffffffffffffffffffffffffffffffffffff163373ffffffffffffffffffffffffffffffffffffffff1614611a1e576040517f08c379a000000000000000000000000000000000000000000000000000000000815260206004820152601c60248201527f4552433732313a206f6e6c7920736f757263652063616e206d696e74000000006044820152606401610f63565b6000611a286146fa565b90506000805b83811015611b9a5782858583818110611a4957611a496159a2565b9050602002016020810190611a5e91906159d1565b604051602001611ac492919060e09290921b7fffffffff00000000000000000000000000000000000000000000000000000000168252602090811b7fffffffffffffffffffffffffffffffffffffffffffffffffffffffff000000001660048301520190565b604051602081830303815290604052611adc906159ec565b6000818152600c602052604090205490925060ff1615611b58576040517f08c379a000000000000000000000000000000000000000000000000000000000815260206004820152601f60248201527f4552433732313a2063616e2774206d696e74206275726e656420746f6b656e006044820152606401610f63565b611b88878783818110611b6d57611b6d6159a2565b9050602002016020810190611b829190615162565b8361448a565b80611b9281615a5d565b915050611a2e565b50505050505050565b6000611bae83612729565b8210611c16576040517f08c379a000000000000000000000000000000000000000000000000000000000815260206004820152601b60248201527f4552433732313a20696e646578206f7574206f6620626f756e647300000000006044820152606401610f63565b73ffffffffffffffffffffffffffffffffffffffff83166000908152600960205260409020805483908110611c4d57611c4d6159a2565b9060005260206000200154905092915050565b7fee63e41dd03b4d304382a6596ec5f4a6eb601d3640835d27fca1d0be62955bb55473ffffffffffffffffffffffffffffffffffffffff163373ffffffffffffffffffffffffffffffffffffffff1614611d16576040517f08c379a000000000000000000000000000000000000000000000000000000000815260206004820152601c60248201527f4552433732313a206f6e6c7920736f757263652063616e206d696e74000000006044820152606401610f63565b6000611d206146fa565b82604051602001611d8792919060e09290921b7fffffffff00000000000000000000000000000000000000000000000000000000168252602090811b7fffffffffffffffffffffffffffffffffffffffffffffffffffffffff000000001660048301520190565b604051602081830303815290604052611d9f906159ec565b6000818152600c602052604090205490915060ff1615611e1b576040517f08c379a000000000000000000000000000000000000000000000000000000000815260206004820152601f60248201527f4552433732313a2063616e2774206d696e74206275726e656420746f6b656e006044820152606401610f63565b6111de838261448a565b6111de8383836040518060200160405280600081525061334b565b611e4a3382614253565b611eb0576040517f08c379a000000000000000000000000000000000000000000000000000000000815260206004820152601b60248201527f4552433732313a206e6f7420617070726f7665642073656e64657200000000006044820152606401610f63565b60008181526006602052604090205473ffffffffffffffffffffffffffffffffffffffff16611edf6007614380565b15611f9057611eec6143b2565b6040517f4a1fefbd00000000000000000000000000000000000000000000000000000000815273ffffffffffffffffffffffffffffffffffffffff8381166004830152602482018590529190911690634a1fefbd906044016020604051808303816000875af1158015611f63573d6000803e3d6000fd5b505050506040513d601f19601f82011682018060405250810190611f87919061500a565b611f9057600080fd5b611f9a818361486a565b611fa46006614380565b1561205657611fb16143b2565b6040517f971c34b400000000000000000000000000000000000000000000000000000000815273ffffffffffffffffffffffffffffffffffffffff838116600483015260248201859052919091169063971c34b4906044015b6020604051808303816000875af1158015612029573d6000803e3d6000fd5b505050506040513d601f19601f8201168201806040525081019061204d919061500a565b61205657600080fd5b5050565b60006120867f4e5f991bca30eca2d4643aaefa807e88f96a4a97398933d572a3c0d973004a0154151590565b156120ed576040517f08c379a000000000000000000000000000000000000000000000000000000000815260206004820152601b60248201527f4552433732313a20616c726561647920696e697469616c697a656400000000006044820152606401610f63565b337f89b583059fdb0b2e807359b64eba1a8a1e6d099210701fafe6dad5dd2cd64fb8556000806000806000808780602001905181019061212d9190615ada565b955095509550955095509550856001908051906020019061214f929190614e9c565b508451612163906002906020880190614e9c565b50600380547fffffffffffffffffffffffffffffffffffffffffffffffffffffffffffff00001661ffff86161790556000839055816124d4577f4ddf47d4000000000000000000000000000000000000000000000000000000006121e57fee63e41dd03b4d304382a6596ec5f4a6eb601d3640835d27fca1d0be62955bb55490565b73ffffffffffffffffffffffffffffffffffffffff16634ddf47d4836040518263ffffffff1660e01b815260040161221d91906150e8565b6020604051808303816000875af115801561223c573d6000803e3d6000fd5b505050506040513d601f19601f820116820180604052508101906122609190615b98565b7fffffffff0000000000000000000000000000000000000000000000000000000016146122e9576040517f08c379a000000000000000000000000000000000000000000000000000000000815260206004820152601d60248201527f4552433732313a20636f756c64206e6f7420696e697420736f757263650000006044820152606401610f63565b6000806122f4610b00565b6040805130602082015261ffff8916818301528151808203830181526060820190925273ffffffffffffffffffffffffffffffffffffffff929092169161233e91906084016150e8565b604080517fffffffffffffffffffffffffffffffffffffffffffffffffffffffffffffffe08184030181529181526020820180517bffffffffffffffffffffffffffffffffffffffffffffffffffffffff167f65b85eb500000000000000000000000000000000000000000000000000000000179052516123bf9190615bb5565b600060405180830381855af49150503d80600081146123fa576040519150601f19603f3d011682016040523d82523d6000602084013e6123ff565b606091505b509150915060008180602001905181019061241a9190615b98565b905082801561246a57507fffffffff0000000000000000000000000000000000000000000000000000000081167f4ddf47d400000000000000000000000000000000000000000000000000000000145b6124d0576040517f08c379a000000000000000000000000000000000000000000000000000000000815260206004820152601a60248201527f4552433732313a20636f7564206e6f7420696e697420504131440000000000006044820152606401610f63565b5050505b6124fd60017f4e5f991bca30eca2d4643aaefa807e88f96a4a97398933d572a3c0d973004a0155565b507f4ddf47d400000000000000000000000000000000000000000000000000000000979650505050505050565b6004546000908210612598576040517f08c379a000000000000000000000000000000000000000000000000000000000815260206004820152601b60248201527f4552433732313a20696e646578206f7574206f6620626f756e647300000000006044820152606401610f63565b600482815481106125ab576125ab6159a2565b90600052602060002001549050919050565b60008181526006602052604081205473ffffffffffffffffffffffffffffffffffffffff1680612649576040517f08c379a000000000000000000000000000000000000000000000000000000000815260206004820152601c60248201527f4552433732313a20746f6b656e20646f6573206e6f74206578697374000000006044820152606401610f63565b92915050565b7f5705f5753aa4f617eef2cae1dada3d3355e9387b04d19191f09b545e684ca50d5473ffffffffffffffffffffffffffffffffffffffff163373ffffffffffffffffffffffffffffffffffffffff1614612705576040517f08c379a000000000000000000000000000000000000000000000000000000000815260206004820152601e60248201527f484f4c4f47524150483a2061646d696e206f6e6c792066756e6374696f6e00006044820152606401610f63565b7f5705f5753aa4f617eef2cae1dada3d3355e9387b04d19191f09b545e684ca50d55565b600073ffffffffffffffffffffffffffffffffffffffff82166127a8576040517f08c379a000000000000000000000000000000000000000000000000000000000815260206004820152601460248201527f4552433732313a207a65726f20616464726573730000000000000000000000006044820152606401610f63565b5073ffffffffffffffffffffffffffffffffffffffff1660009081526008602052604090205490565b60006127fb7fee63e41dd03b4d304382a6596ec5f4a6eb601d3640835d27fca1d0be62955bb55490565b73ffffffffffffffffffffffffffffffffffffffff163373ffffffffffffffffffffffffffffffffffffffff161461288f576040517f08c379a000000000000000000000000000000000000000000000000000000000815260206004820152601e60248201527f4552433732313a206f6e6c7920736f75726365206e65656473207468697300006044820152606401610f63565b6128976146fa565b6040805160e09290921b7fffffffff000000000000000000000000000000000000000000000000000000001660208301526000602483015201604051602081830303815290604052610e3d906159ec565b73ffffffffffffffffffffffffffffffffffffffff811660009081526009602090815260409182902080548351818402810184019094528084526060939283018282801561295557602002820191906000526020600020905b815481526020019060010190808311612941575b50505050509050919050565b600454606090806129728486615bd1565b1115612985576129828482615be9565b92505b8267ffffffffffffffff81111561299e5761299e615425565b6040519080825280602002602001820160405280156129c7578160200160208202803683370190505b50915060005b83811015612a2b5760046129e18287615bd1565b815481106129f1576129f16159a2565b9060005260206000200154838281518110612a0e57612a0e6159a2565b602090810291909101015280612a2381615a5d565b9150506129cd565b505092915050565b6000612a5d7fee63e41dd03b4d304382a6596ec5f4a6eb601d3640835d27fca1d0be62955bb55490565b73ffffffffffffffffffffffffffffffffffffffff16638da5cb5b6040518163ffffffff1660e01b8152600401602060405180830381865afa158015610ad7573d6000803e3d6000fd5b7fee63e41dd03b4d304382a6596ec5f4a6eb601d3640835d27fca1d0be62955bb55473ffffffffffffffffffffffffffffffffffffffff163373ffffffffffffffffffffffffffffffffffffffff1614612b5d576040517f08c379a000000000000000000000000000000000000000000000000000000000815260206004820152601c60248201527f4552433732313a206f6e6c7920736f757263652063616e206d696e74000000006044820152606401610f63565b6000612b676146fa565b90506000805b83811015612c92576040805160e085901b7fffffffff000000000000000000000000000000000000000000000000000000001660208083019190915287901b7fffffffffffffffffffffffffffffffffffffffffffffffffffffffff0000000016602482015201604051602081830303815290604052612bec906159ec565b6000818152600c602052604090205490925060ff1615612c68576040517f08c379a000000000000000000000000000000000000000000000000000000000815260206004820152601f60248201527f4552433732313a2063616e2774206d696e74206275726e656420746f6b656e006044820152606401610f63565b612c72868361448a565b84612c7c81615c00565b9550508080612c8a90615a5d565b915050612b6d565b505050505050565b606060028054610e5190615866565b3373ffffffffffffffffffffffffffffffffffffffff831603612d28576040517f08c379a000000000000000000000000000000000000000000000000000000000815260206004820152601b60248201527f4552433732313a2063616e6e6f7420617070726f76652073656c6600000000006044820152606401610f63565b612d326005614380565b15612de457612d3f6143b2565b6040517fa730629100000000000000000000000000000000000000000000000000000000815273ffffffffffffffffffffffffffffffffffffffff84811660048301528315156024830152919091169063a7306291906044016020604051808303816000875af1158015612db7573d6000803e3d6000fd5b505050506040513d601f19601f82011682018060405250810190612ddb919061500a565b612de457600080fd5b336000818152600a6020908152604080832073ffffffffffffffffffffffffffffffffffffffff87168085529083529281902080547fffffffffffffffffffffffffffffffffffffffffffffffffffffffffffffff001686151590811790915590519081529192917f17307eab39ab6107e8899845ad3d59bd9653f200f220920489ca2b5937696c31910160405180910390a3612e816004614380565b1561205657612e8e6143b2565b6040517f4ce71c2300000000000000000000000000000000000000000000000000000000815273ffffffffffffffffffffffffffffffffffffffff848116600483015283151560248301529190911690634ce71c239060440161200a565b7fee63e41dd03b4d304382a6596ec5f4a6eb601d3640835d27fca1d0be62955bb55473ffffffffffffffffffffffffffffffffffffffff163373ffffffffffffffffffffffffffffffffffffffff1614612fa2576040517f08c379a000000000000000000000000000000000000000000000000000000000815260206004820152601c60248201527f4552433732313a206f6e6c7920736f757263652063616e206d696e74000000006044820152606401610f63565b6000612fac6146fa565b90506000805b83811015612c92576000828152600c602052604090205460ff1615613033576040517f08c379a000000000000000000000000000000000000000000000000000000000815260206004820152601f60248201527f4552433732313a2063616e2774206d696e74206275726e656420746f6b656e006044820152606401610f63565b82858583818110613046576130466159a2565b905060200201602081019061305b91906159d1565b6040516020016130c192919060e09290921b7fffffffff00000000000000000000000000000000000000000000000000000000168252602090811b7fffffffffffffffffffffffffffffffffffffffffffffffffffffffff000000001660048301520190565b6040516020818303038152906040526130d9906159ec565b6000818152600c602052604090205490925060ff1615613155576040517f08c379a000000000000000000000000000000000000000000000000000000000815260206004820152601f60248201527f4552433732313a2063616e2774206d696e74206275726e656420746f6b656e006044820152606401610f63565b61315f868361448a565b8061316981615a5d565b915050612fb2565b612056338383604051806020016040528060008152505b6131923383614253565b6131f8576040517f08c379a000000000000000000000000000000000000000000000000000000000815260206004820152601b60248201527f4552433732313a206e6f7420617070726f7665642073656e64657200000000006044820152606401610f63565b613202600d614380565b156132995761320f6143b2565b73ffffffffffffffffffffffffffffffffffffffff1663343b278f858585856040518563ffffffff1660e01b815260040161324d9493929190615c3b565b6020604051808303816000875af115801561326c573d6000803e3d6000fd5b505050506040513d601f19601f82011682018060405250810190613290919061500a565b61329957600080fd5b6132a4848484614958565b6132ae600c614380565b15613345576132bb6143b2565b73ffffffffffffffffffffffffffffffffffffffff16630668af80858585856040518563ffffffff1660e01b81526004016132f99493929190615c3b565b6020604051808303816000875af1158015613318573d6000803e3d6000fd5b505050506040513d601f19601f8201168201806040525081019061333c919061500a565b61334557600080fd5b50505050565b6133553383614253565b6133bb576040517f08c379a000000000000000000000000000000000000000000000000000000000815260206004820152601b60248201527f4552433732313a206e6f7420617070726f7665642073656e64657200000000006044820152606401610f63565b6133c5600b614380565b1561345c576133d26143b2565b73ffffffffffffffffffffffffffffffffffffffff16632ca16676858585856040518563ffffffff1660e01b81526004016134109493929190615c3b565b6020604051808303816000875af115801561342f573d6000803e3d6000fd5b505050506040513d601f19601f82011682018060405250810190613453919061500a565b61345c57600080fd5b613467848484614958565b613470836143dc565b156136e6576040517f01ffc9a700000000000000000000000000000000000000000000000000000000808252600482015273ffffffffffffffffffffffffffffffffffffffff8416906301ffc9a790602401602060405180830381865afa1580156134df573d6000803e3d6000fd5b505050506040513d601f19601f82011682018060405250810190613503919061500a565b80156135b857506040517f01ffc9a70000000000000000000000000000000000000000000000000000000081527f150b7a0200000000000000000000000000000000000000000000000000000000600482015273ffffffffffffffffffffffffffffffffffffffff8416906301ffc9a790602401602060405180830381865afa158015613594573d6000803e3d6000fd5b505050506040513d601f19601f820116820180604052508101906135b8919061500a565b801561368057506040517f150b7a02000000000000000000000000000000000000000000000000000000008082529073ffffffffffffffffffffffffffffffffffffffff85169063150b7a0290613619903090899088908890600401615c3b565b6020604051808303816000875af1158015613638573d6000803e3d6000fd5b505050506040513d601f19601f8201168201806040525081019061365c9190615b98565b7fffffffff0000000000000000000000000000000000000000000000000000000016145b6136e6576040517f08c379a000000000000000000000000000000000000000000000000000000000815260206004820152601d60248201527f4552433732313a206f6e4552433732315265636569766564206661696c0000006044820152606401610f63565b6136f0600a614380565b15613345576136fd6143b2565b73ffffffffffffffffffffffffffffffffffffffff166336fff062858585856040518563ffffffff1660e01b81526004016132f99493929190615c3b565b7f5705f5753aa4f617eef2cae1dada3d3355e9387b04d19191f09b545e684ca50d5473ffffffffffffffffffffffffffffffffffffffff163373ffffffffffffffffffffffffffffffffffffffff16146137f1576040517f08c379a000000000000000000000000000000000000000000000000000000000815260206004820152601e60248201527f484f4c4f47524150483a2061646d696e206f6e6c792066756e6374696f6e00006044820152606401610f63565b808260003760008082600034875af13d6000803e8080156103d5573d6000f35b7fee63e41dd03b4d304382a6596ec5f4a6eb601d3640835d27fca1d0be62955bb55473ffffffffffffffffffffffffffffffffffffffff163373ffffffffffffffffffffffffffffffffffffffff16146138c7576040517f08c379a000000000000000000000000000000000000000000000000000000000815260206004820181905260248201527f4552433732313a206f6e6c7920736f757263652063616e207472616e736665726044820152606401610f63565b60008181526006602052604090205473ffffffffffffffffffffffffffffffffffffffff166138f4614416565b73ffffffffffffffffffffffffffffffffffffffff168173ffffffffffffffffffffffffffffffffffffffff1603613988576040517f08c379a000000000000000000000000000000000000000000000000000000000815260206004820152601860248201527f4552433732313a20746f6b656e206973206272696467656400000000000000006044820152606401610f63565b6111de818484614958565b73ffffffffffffffffffffffffffffffffffffffff8316600090815260086020526040902054606090806139c78486615bd1565b11156139da576139d78482615be9565b92505b8267ffffffffffffffff8111156139f3576139f3615425565b604051908082528060200260200182016040528015613a1c578160200160208202803683370190505b50915060005b83811015613aa35773ffffffffffffffffffffffffffffffffffffffff86166000908152600960205260409020613a598287615bd1565b81548110613a6957613a696159a2565b9060005260206000200154838281518110613a8657613a866159a2565b602090810291909101015280613a9b81615a5d565b915050613a22565b50509392505050565b60008181526006602052604090205460609073ffffffffffffffffffffffffffffffffffffffff16613b3a576040517f08c379a000000000000000000000000000000000000000000000000000000000815260206004820152601c60248201527f4552433732313a20746f6b656e20646f6573206e6f74206578697374000000006044820152606401610f63565b7fee63e41dd03b4d304382a6596ec5f4a6eb601d3640835d27fca1d0be62955bb5546040517fc87b56dd0000000000000000000000000000000000000000000000000000000081526004810184905273ffffffffffffffffffffffffffffffffffffffff9091169063c87b56dd90602401600060405180830381865afa158015613bc8573d6000803e3d6000fd5b505050506040513d6000823e601f3d9081017fffffffffffffffffffffffffffffffffffffffffffffffffffffffffffffffe01682016040526126499190810190615c84565b60006060613c1a614416565b73ffffffffffffffffffffffffffffffffffffffff163373ffffffffffffffffffffffffffffffffffffffff1614613cae576040517f08c379a000000000000000000000000000000000000000000000000000000000815260206004820152601c60248201527f4552433732313a206f6e6c79206272696467652063616e2063616c6c000000006044820152606401610f63565b613cb86001614380565b15613d9957613cc56143b2565b6040517f8b1465c600000000000000000000000000000000000000000000000000000000815263ffffffff8816600482015273ffffffffffffffffffffffffffffffffffffffff87811660248301528681166044830152606482018690529190911690638b1465c6906084016000604051808303816000875af1158015613d50573d6000803e3d6000fd5b505050506040513d6000823e601f3d9081017fffffffffffffffffffffffffffffffffffffffffffffffffffffffffffffffe0168201604052613d969190810190615c84565b90505b613da3858461486a565b7fde8b1ef100000000000000000000000000000000000000000000000000000000915094509492505050565b6060613dd9610a63565b6003546040517f9cf149da00000000000000000000000000000000000000000000000000000000815273ffffffffffffffffffffffffffffffffffffffff9290921691639cf149da91613e389160019161ffff16903090600401615cb9565b600060405180830381865afa158015613e55573d6000803e3d6000fd5b505050506040513d6000823e601f3d9081017fffffffffffffffffffffffffffffffffffffffffffffffffffffffffffffffe0168201604052610afb9190810190615c84565b7f89b583059fdb0b2e807359b64eba1a8a1e6d099210701fafe6dad5dd2cd64fb85473ffffffffffffffffffffffffffffffffffffffff163373ffffffffffffffffffffffffffffffffffffffff16146137f1576040517f08c379a000000000000000000000000000000000000000000000000000000000815260206004820152601e60248201527f484f4c4f47524150483a206f776e6572206f6e6c792066756e6374696f6e00006044820152606401610f63565b7f89b583059fdb0b2e807359b64eba1a8a1e6d099210701fafe6dad5dd2cd64fb85473ffffffffffffffffffffffffffffffffffffffff163373ffffffffffffffffffffffffffffffffffffffff1614614007576040517f08c379a000000000000000000000000000000000000000000000000000000000815260206004820152601e60248201527f484f4c4f47524150483a206f776e6572206f6e6c792066756e6374696f6e00006044820152606401610f63565b73ffffffffffffffffffffffffffffffffffffffff8116614084576040517f08c379a000000000000000000000000000000000000000000000000000000000815260206004820152601760248201527f484f4c4f47524150483a207a65726f20616464726573730000000000000000006044820152606401610f63565b7f89b583059fdb0b2e807359b64eba1a8a1e6d099210701fafe6dad5dd2cd64fb855565b6000610afb7f5705f5753aa4f617eef2cae1dada3d3355e9387b04d19191f09b545e684ca50d5490565b7fee63e41dd03b4d304382a6596ec5f4a6eb601d3640835d27fca1d0be62955bb55473ffffffffffffffffffffffffffffffffffffffff163373ffffffffffffffffffffffffffffffffffffffff1614614188576040517f08c379a000000000000000000000000000000000000000000000000000000000815260206004820152601c60248201527f4552433732313a206f6e6c7920736f757263652063616e206275726e000000006044820152606401610f63565b60008181526006602052604090205473ffffffffffffffffffffffffffffffffffffffff166141b5614416565b73ffffffffffffffffffffffffffffffffffffffff168173ffffffffffffffffffffffffffffffffffffffff1603614249576040517f08c379a000000000000000000000000000000000000000000000000000000000815260206004820152601860248201527f4552433732313a20746f6b656e206973206272696467656400000000000000006044820152606401610f63565b612056818361486a565b60008181526006602052604081205473ffffffffffffffffffffffffffffffffffffffff166142de576040517f08c379a000000000000000000000000000000000000000000000000000000000815260206004820152601c60248201527f4552433732313a20746f6b656e20646f6573206e6f74206578697374000000006044820152606401610f63565b60008281526006602052604090205473ffffffffffffffffffffffffffffffffffffffff90811690841681148061433b575060008381526007602052604090205473ffffffffffffffffffffffffffffffffffffffff8581169116145b80614378575073ffffffffffffffffffffffffffffffffffffffff8082166000908152600a602090815260408083209388168352929052205460ff165b949350505050565b6000600182600f81111561439657614396614f56565b600054901c166001146143aa576000612649565b600192915050565b6000610afb7fee63e41dd03b4d304382a6596ec5f4a6eb601d3640835d27fca1d0be62955bb55490565b6000813f801580159061440f57507fc5d2460186f7233c927e7db2dcc703c0e500b653ca82273b7bfad8045d85a4708114155b9392505050565b60006144407f1eee493315beeac80829afd0aaa340f3821cabe68571a2743478e81638a3d94d5490565b73ffffffffffffffffffffffffffffffffffffffff16630fffbaf36040518163ffffffff1660e01b8152600401602060405180830381865afa158015610ad7573d6000803e3d6000fd5b600081116144f4576040517f08c379a000000000000000000000000000000000000000000000000000000000815260206004820152601f60248201527f4552433732313a20746f6b656e2069642063616e6e6f74206265207a65726f006044820152606401610f63565b73ffffffffffffffffffffffffffffffffffffffff8216614571576040517f08c379a000000000000000000000000000000000000000000000000000000000815260206004820152601f60248201527f4552433732313a206d696e74696e6720746f206275726e2061646472657373006044820152606401610f63565b60008181526006602052604090205473ffffffffffffffffffffffffffffffffffffffff16156145fd576040517f08c379a000000000000000000000000000000000000000000000000000000000815260206004820152601c60248201527f4552433732313a20746f6b656e20616c726561647920657869737473000000006044820152606401610f63565b6000818152600c602052604090205460ff1615614676576040517f08c379a000000000000000000000000000000000000000000000000000000000815260206004820152601d60248201527f4552433732313a20746f6b656e20686173206265656e206275726e65640000006044820152606401610f63565b60008181526006602052604080822080547fffffffffffffffffffffffff00000000000000000000000000000000000000001673ffffffffffffffffffffffffffffffffffffffff861690811790915590518392907fddf252ad1be2c89b69c2b068fc378daa952ba7f163c4a11628f55a4df523b3ef908290a46120568282614b25565b6000803073ffffffffffffffffffffffffffffffffffffffff16634827ae0c6040518163ffffffff1660e01b8152600401602060405180830381865afa158015614748573d6000803e3d6000fd5b505050506040513d601f19601f8201168201806040525081019061476c9190615849565b73ffffffffffffffffffffffffffffffffffffffff166397e67c3b6040518163ffffffff1660e01b8152600401602060405180830381865afa1580156147b6573d6000803e3d6000fd5b505050506040513d601f19601f820116820180604052508101906147da9190615de5565b90503073ffffffffffffffffffffffffffffffffffffffff1663913a0ef26040518163ffffffff1660e01b8152600401602060405180830381865afa158015614827573d6000803e3d6000fd5b505050506040513d601f19601f8201168201806040525081019061484b9190615de5565b63ffffffff168163ffffffff161461486257919050565b600091505090565b600081815260076020526040902080547fffffffffffffffffffffffff000000000000000000000000000000000000000016905560008181526006602052604080822080547fffffffffffffffffffffffff00000000000000000000000000000000000000001690555182919073ffffffffffffffffffffffffffffffffffffffff8516907fddf252ad1be2c89b69c2b068fc378daa952ba7f163c4a11628f55a4df523b3ef908390a461491e8282614bec565b6000908152600c6020526040902080547fffffffffffffffffffffffffffffffffffffffffffffffffffffffffffffff0016600117905550565b60008181526006602052604090205473ffffffffffffffffffffffffffffffffffffffff8481169116146149e8576040517f08c379a000000000000000000000000000000000000000000000000000000000815260206004820152601760248201527f4552433732313a20746f6b656e206e6f74206f776e65640000000000000000006044820152606401610f63565b73ffffffffffffffffffffffffffffffffffffffff8216614a65576040517f08c379a000000000000000000000000000000000000000000000000000000000815260206004820152601860248201527f4552433732313a20757365206275726e20696e737465616400000000000000006044820152606401610f63565b600081815260076020526040902080547fffffffffffffffffffffffff000000000000000000000000000000000000000016905560008181526006602052604080822080547fffffffffffffffffffffffff00000000000000000000000000000000000000001673ffffffffffffffffffffffffffffffffffffffff86811691821790925591518493918716917fddf252ad1be2c89b69c2b068fc378daa952ba7f163c4a11628f55a4df523b3ef91a4614b1f8382614bec565b6111de82825b73ffffffffffffffffffffffffffffffffffffffff821660008181526008602081815260408084208054878652600584529185208290559484529190529190614b6d83615a5d565b909155505073ffffffffffffffffffffffffffffffffffffffff90911660009081526009602090815260408083208054600181810183559185528385200185905560048054868652600b909452918420839055820181559091527f8a35acfbc15ff81a39ae7d344fd709f28e8600b4aa8c65c6b64bfe7fe36bd19b0155565b614bf581614dea565b73ffffffffffffffffffffffffffffffffffffffff82166000908152600860205260408120805491614c2683615e02565b909155505073ffffffffffffffffffffffffffffffffffffffff8216600090815260086020908152604080832054848452600590925290912054808214614d1c5773ffffffffffffffffffffffffffffffffffffffff84166000908152600960205260408120805484908110614c9e57614c9e6159a2565b9060005260206000200154905080600960008773ffffffffffffffffffffffffffffffffffffffff1673ffffffffffffffffffffffffffffffffffffffff1681526020019081526020016000208381548110614cfc57614cfc6159a2565b600091825260208083209091019290925591825260059052604090208190555b81600003614d575773ffffffffffffffffffffffffffffffffffffffff84166000908152600960205260408120614d5291614f20565b613345565b73ffffffffffffffffffffffffffffffffffffffff84166000908152600960205260409020805483908110614d8e57614d8e6159a2565b6000918252602080832090910182905573ffffffffffffffffffffffffffffffffffffffff861682526009905260409020805480614dce57614dce615e37565b6001900381819060005260206000200160009055905550505050565b600454600090614dfc90600190615be9565b6000838152600b602052604081205460048054939450909284908110614e2457614e246159a2565b906000526020600020015490508060048381548110614e4557614e456159a2565b6000918252602080832090910192909255828152600b90915260408082208490558582528120556004805484908110614e8057614e806159a2565b60009182526020822001556004805480614dce57614dce615e37565b828054614ea890615866565b90600052602060002090601f016020900481019282614eca5760008555614f10565b82601f10614ee357805160ff1916838001178555614f10565b82800160010185558215614f10579182015b82811115614f10578251825591602001919060010190614ef5565b50614f1c929150614f41565b5090565b5080546000825590600052602060002090810190614f3e9190614f41565b50565b5b80821115614f1c5760008155600101614f42565b7f4e487b7100000000000000000000000000000000000000000000000000000000600052602160045260246000fd5b6040810160048410614fc0577f4e487b7100000000000000000000000000000000000000000000000000000000600052602160045260246000fd5b9281527fffffffff000000000000000000000000000000000000000000000000000000009190911660209091015290565b8015158114614f3e57600080fd5b8051610e3d81614ff1565b60006020828403121561501c57600080fd5b815161440f81614ff1565b7fffffffff0000000000000000000000000000000000000000000000000000000081168114614f3e57600080fd5b60006020828403121561506757600080fd5b813561440f81615027565b60005b8381101561508d578181015183820152602001615075565b838111156133455750506000910152565b600081518084526150b6816020860160208601615072565b601f017fffffffffffffffffffffffffffffffffffffffffffffffffffffffffffffffe0169290920160200192915050565b60208152600061440f602083018461509e565b60006020828403121561510d57600080fd5b5035919050565b73ffffffffffffffffffffffffffffffffffffffff81168114614f3e57600080fd5b6000806040838503121561514957600080fd5b823561515481615114565b946020939093013593505050565b60006020828403121561517457600080fd5b813561440f81615114565b60008083601f84011261519157600080fd5b50813567ffffffffffffffff8111156151a957600080fd5b6020830191508360208285010111156151c157600080fd5b9250929050565b6000806000806000608086880312156151e057600080fd5b85356151eb81615114565b945060208601356151fb81615114565b935060408601359250606086013567ffffffffffffffff81111561521e57600080fd5b61522a8882890161517f565b969995985093965092949392505050565b63ffffffff81168114614f3e57600080fd5b60008060008060008060a0878903121561526657600080fd5b86356152718161523b565b9550602087013561528181615114565b9450604087013561529181615114565b935060608701359250608087013567ffffffffffffffff8111156152b457600080fd5b6152c089828a0161517f565b979a9699509497509295939492505050565b6000806000606084860312156152e757600080fd5b83356152f281615114565b9250602084013561530281615114565b929592945050506040919091013590565b60008083601f84011261532557600080fd5b50813567ffffffffffffffff81111561533d57600080fd5b6020830191508360208260051b85010111156151c157600080fd5b6000806000806040858703121561536e57600080fd5b843567ffffffffffffffff8082111561538657600080fd5b61539288838901615313565b909650945060208701359150808211156153ab57600080fd5b506153b887828801615313565b95989497509550505050565b80357bffffffffffffffffffffffffffffffffffffffffffffffffffffffff81168114610e3d57600080fd5b6000806040838503121561540357600080fd5b823561540e81615114565b915061541c602084016153c4565b90509250929050565b7f4e487b7100000000000000000000000000000000000000000000000000000000600052604160045260246000fd5b604051601f82017fffffffffffffffffffffffffffffffffffffffffffffffffffffffffffffffe016810167ffffffffffffffff8111828210171561549b5761549b615425565b604052919050565b600067ffffffffffffffff8211156154bd576154bd615425565b50601f017fffffffffffffffffffffffffffffffffffffffffffffffffffffffffffffffe01660200190565b600082601f8301126154fa57600080fd5b813561550d615508826154a3565b615454565b81815284602083860101111561552257600080fd5b816020850160208301376000918101602001919091529392505050565b60006020828403121561555157600080fd5b813567ffffffffffffffff81111561556857600080fd5b614378848285016154e9565b6020808252825182820181905260009190848201906040850190845b818110156155ac57835183529284019291840191600101615590565b50909695505050505050565b600080604083850312156155cb57600080fd5b50508035926020909101359150565b6000806000606084860312156155ef57600080fd5b83356155fa81615114565b9250615608602085016153c4565b9150604084013590509250925092565b6000806040838503121561562b57600080fd5b823561563681615114565b9150602083013561564681614ff1565b809150509250929050565b60008060006040848603121561566657600080fd5b833561567181615114565b9250602084013567ffffffffffffffff81111561568d57600080fd5b61569986828701615313565b9497909650939450505050565b600080600080608085870312156156bc57600080fd5b84356156c781615114565b935060208501356156d781615114565b925060408501359150606085013567ffffffffffffffff8111156156fa57600080fd5b615706878288016154e9565b91505092959194509250565b60008060006040848603121561572757600080fd5b833561573281615114565b9250602084013567ffffffffffffffff81111561574e57600080fd5b6156998682870161517f565b60008060006060848603121561576f57600080fd5b833561577a81615114565b95602085013595506040909401359392505050565b600080600080608085870312156157a557600080fd5b84356157b08161523b565b935060208501356157c081615114565b925060408501356157d081615114565b9396929550929360600135925050565b7fffffffff0000000000000000000000000000000000000000000000000000000083168152604060208201526000614378604083018461509e565b6000806040838503121561582e57600080fd5b823561583981615114565b9150602083013561564681615114565b60006020828403121561585b57600080fd5b815161440f81615114565b600181811c9082168061587a57607f821691505b6020821081036158b3577f4e487b7100000000000000000000000000000000000000000000000000000000600052602260045260246000fd5b50919050565b8183528181602085013750600060208284010152600060207fffffffffffffffffffffffffffffffffffffffffffffffffffffffffffffffe0601f840116840101905092915050565b600073ffffffffffffffffffffffffffffffffffffffff8089168352808816602084015280871660408401525084606083015260a0608083015261594a60a0830184866158b9565b98975050505050505050565b63ffffffff87168152600073ffffffffffffffffffffffffffffffffffffffff808816602084015280871660408401525084606083015260a0608083015261594a60a0830184866158b9565b7f4e487b7100000000000000000000000000000000000000000000000000000000600052603260045260246000fd5b6000602082840312156159e357600080fd5b61440f826153c4565b805160208083015191908110156158b3577fffffffffffffffffffffffffffffffffffffffffffffffffffffffffffffffff60209190910360031b1b16919050565b7f4e487b7100000000000000000000000000000000000000000000000000000000600052601160045260246000fd5b60007fffffffffffffffffffffffffffffffffffffffffffffffffffffffffffffffff8203615a8e57615a8e615a2e565b5060010190565b600082601f830112615aa657600080fd5b8151615ab4615508826154a3565b818152846020838601011115615ac957600080fd5b614378826020830160208701615072565b60008060008060008060c08789031215615af357600080fd5b865167ffffffffffffffff80821115615b0b57600080fd5b615b178a838b01615a95565b97506020890151915080821115615b2d57600080fd5b615b398a838b01615a95565b96506040890151915061ffff82168214615b5257600080fd5b81955060608901519450615b6860808a01614fff565b935060a0890151915080821115615b7e57600080fd5b50615b8b89828a01615a95565b9150509295509295509295565b600060208284031215615baa57600080fd5b815161440f81615027565b60008251615bc7818460208701615072565b9190910192915050565b60008219821115615be457615be4615a2e565b500190565b600082821015615bfb57615bfb615a2e565b500390565b60007bffffffffffffffffffffffffffffffffffffffffffffffffffffffff808316818103615c3157615c31615a2e565b6001019392505050565b600073ffffffffffffffffffffffffffffffffffffffff808716835280861660208401525083604083015260806060830152615c7a608083018461509e565b9695505050505050565b600060208284031215615c9657600080fd5b815167ffffffffffffffff811115615cad57600080fd5b61437884828501615a95565b60a08152600080855481600182811c915080831680615cd957607f831692505b60208084108203615d11577f4e487b710000000000000000000000000000000000000000000000000000000086526022600452602486fd5b60a0880184905260c08801828015615d305760018114615d5f57615d8a565b7fffffffffffffffffffffffffffffffffffffffffffffffffffffffffffffff00871682528282019750615d8a565b60008d81526020902060005b87811015615d8457815484820152908601908401615d6b565b83019850505b505087860390880152505060008352505060208101838103604085015260008152905060208101915050615dc4606083018561ffff169052565b73ffffffffffffffffffffffffffffffffffffffff83166080830152614378565b600060208284031215615df757600080fd5b815161440f8161523b565b600081615e1157615e11615a2e565b507fffffffffffffffffffffffffffffffffffffffffffffffffffffffffffffffff0190565b7f4e487b7100000000000000000000000000000000000000000000000000000000600052603160045260246000fdfea164736f6c634300080d000a",
  "devdoc": {
    "author": "CXIP-Labs",
    "details": "The entire logic and functionality of the smart contract is self-contained.",
    "kind": "dev",
    "methods": {
      "approve(address,uint256)": {
        "details": "Requires the sender to be in the approved addresses.",
        "params": {
          "to": "The address to approve.",
          "tokenId": "The affected token."
        }
      },
      "balanceOf(address)": {
        "details": "Used to see total amount of tokens owned by a specific wallet.",
        "params": {
          "wallet": "Address for which to get token balance."
        },
        "returns": {
          "_0": "uint256 Returns an integer, representing total amount of tokens held by address."
        }
      },
      "burn(uint256)": {
        "details": "The sender must be the owner or approved.",
        "params": {
          "tokenId": "The token to burn."
        }
      },
      "constructor": {
        "details": "To make exact CREATE2 deployment possible, constructor is left empty. We utilize the \"init\" function instead."
      },
      "contractURI()": {
        "returns": {
          "_0": "string The URI."
        }
      },
      "getApproved(uint256)": {
        "details": "Single operator set for a specific token. Usually used for one-time very specific authorisations.",
        "params": {
          "tokenId": "Token id to get approved operator for."
        },
        "returns": {
          "_0": "address Approved address for token."
        }
      },
      "holographBridgeIn(uint32,address,address,uint256,bytes)": {
        "details": "Allows the bridge to bring in a token from another blockchain.  Note: function selector 0x2dd69ea4 is bytes4(keccak256(\"holographBridgeIn(address,address,uint256,bytes)\"))"
      },
      "holographBridgeOut(uint32,address,address,uint256)": {
        "details": "Allows the bridge to take a token out onto another blockchain.  Note: function selector 0x57aeff0a is bytes4(keccak256(\"holographBridgeOut(address,address,uint256)\"))"
      },
      "init(bytes)": {
        "details": "Special function to allow a one time initialisation on deployment. Also configures and deploys royalties."
      },
      "isApprovedForAll(address,address)": {
        "details": "Includes references to OpenSea and Rarible marketplace proxies.",
        "params": {
          "operator": "Address of the marketplace operator.",
          "wallet": "Address of the wallet."
        },
        "returns": {
          "_0": "bool True if approved."
        }
      },
      "name()": {
        "returns": {
          "_0": "string The collection name."
        }
      },
      "onERC721Received(address,address,uint256,bytes)": {
        "details": "We have this blank function in place to make sure that external contract sending in NFTs don't error out.Since it's not being used, the _operator variable is commented out to avoid compiler warnings.Since it's not being used, the _from variable is commented out to avoid compiler warnings.Since it's not being used, the _tokenId variable is commented out to avoid compiler warnings.Since it's not being used, the _data variable is commented out to avoid compiler warnings.",
        "returns": {
          "_0": "bytes4 Returns the interfaceId of onERC721Received."
        }
      },
      "ownerOf(uint256)": {
        "details": "The token must exist.",
        "params": {
          "tokenId": "The token to look up."
        },
        "returns": {
          "_0": "address Owner of the token."
        }
      },
      "safeTransferFrom(address,address,uint256)": {
        "details": "Safely transfers `tokenId` token from `from` to `to`, checking first that contract recipients are aware of the ERC721 protocol to prevent tokens from being forever locked.",
        "params": {
          "from": "cannot be the zero address.",
          "to": "cannot be the zero address.",
          "tokenId": "token must exist and be owned by `from`."
        }
      },
      "safeTransferFrom(address,address,uint256,bytes)": {
        "details": "Since it's not being used, the _data variable is commented out to avoid compiler warnings. are aware of the ERC721 protocol to prevent tokens from being forever locked.",
        "params": {
          "from": "cannot be the zero address.",
          "to": "cannot be the zero address.",
          "tokenId": "token must exist and be owned by `from`."
        }
      },
      "setApprovalForAll(address,bool)": {
        "details": "Allows platforms to sell/transfer all your NFTs. Used with proxy contracts like OpenSea/Rarible.",
        "params": {
          "approved": "Turn on or off approval status.",
          "to": "The address to approve."
        }
      },
      "sourceBurn(uint256)": {
        "details": "Allows for source smart contract to burn a token.  Note: this is put in place to make sure that custom logic could be implemented for merging, gamification, etc.  Note: token cannot be burned if it's locked by bridge."
      },
      "sourceGetChainPrepend()": {
        "details": "Allows source to get the prepend for their tokenIds."
      },
      "sourceMint(address,uint224)": {
        "details": "Allows for source smart contract to mint a token."
      },
      "sourceMintBatch(address,uint224[])": {
        "details": "Allows for source smart contract to mint a batch of tokens."
      },
      "sourceMintBatch(address[],uint224[])": {
        "details": "Allows for source smart contract to mint a batch of tokens."
      },
      "sourceMintBatchIncremental(address,uint224,uint256)": {
        "details": "Allows for source smart contract to mint a batch of tokens."
      },
      "sourceTransfer(address,uint256)": {
        "details": "Allows for source smart contract to transfer a token.  Note: this is put in place to make sure that custom logic could be implemented for merging, gamification, etc.  Note: token cannot be transfered if it's locked by bridge."
      },
      "supportsInterface(bytes4)": {
        "details": "Must add new 4 byte interface Ids here to acknowledge support",
        "params": {
          "interfaceId": "ERC165 style 4 byte interfaceId."
        },
        "returns": {
          "_0": "bool True if supported."
        }
      },
      "symbol()": {
        "returns": {
          "_0": "string The symbol."
        }
      },
      "tokenByIndex(uint256)": {
        "details": "Used in conjunction with totalSupply function to iterate over all tokens in collection.",
        "params": {
          "index": "Index of token in array."
        },
        "returns": {
          "_0": "uint256 Returns the token id of token located at that index."
        }
      },
      "tokenOfOwnerByIndex(address,uint256)": {
        "details": "Helpful for wallet token enumeration where token id info is not yet available. Use in conjunction with balanceOf function.",
        "params": {
          "index": "Index of token in array.",
          "wallet": "Specific address for which to get token for."
        },
        "returns": {
          "_0": "uint256 Returns the token id of token located at that index in specified wallet."
        }
      },
      "tokenURI(uint256)": {
        "details": "Defaults the the Arweave URI",
        "returns": {
          "_0": "string The URI."
        }
      },
      "tokens(uint256,uint256)": {
        "params": {
          "index": "The index to start enumeration from.",
          "length": "The length of returned results."
        },
        "returns": {
          "tokenIds": "uint256[] Returns a set length array of token ids minted."
        }
      },
      "tokensOfOwner(address)": {
        "params": {
          "wallet": "The wallet address to get tokens for."
        },
        "returns": {
          "_0": "uint256[] Returns an array of token ids owned by wallet."
        }
      },
      "tokensOfOwner(address,uint256,uint256)": {
        "params": {
          "index": "The index to start enumeration from.",
          "length": "The length of returned results.",
          "wallet": "The wallet address to get tokens for."
        },
        "returns": {
          "tokenIds": "uint256[] Returns a set length array of token ids owned by wallet."
        }
      },
      "totalSupply()": {
        "details": "Ignores burned tokens.",
        "returns": {
          "_0": "uint256 Returns the total number of active (not burned) tokens."
        }
      },
      "transfer(address,uint256)": {
        "details": "WARNING: Usage of this method is discouraged, use {safeTransferFrom} whenever possible.",
        "params": {
          "to": "cannot be the zero address.",
          "tokenId": "token must be owned by `from`."
        }
      },
      "transferFrom(address,address,uint256)": {
        "details": "WARNING: Usage of this method is discouraged, use {safeTransferFrom} whenever possible.",
        "params": {
          "from": "cannot be the zero address.",
          "to": "cannot be the zero address.",
          "tokenId": "token must be owned by `from`."
        }
      },
      "transferFrom(address,address,uint256,bytes)": {
        "details": "WARNING: Usage of this method is discouraged, use {safeTransferFrom} whenever possible.Since it's not being used, the _data variable is commented out to avoid compiler warnings.",
        "params": {
          "data": "additional data to pass.",
          "from": "cannot be the zero address.",
          "to": "cannot be the zero address.",
          "tokenId": "token must be owned by `from`."
        }
      }
    },
    "stateVariables": {
      "_allTokens": {
        "details": "Array of all token ids in collection."
      },
      "_allTokensIndex": {
        "details": "Mapping from token id to position in the allTokens array."
      },
      "_bps": {
        "details": "Collection royalty base points."
      },
      "_burnedTokens": {
        "details": "Mapping of all token ids that have been burned. This is to prevent re-minting of same token ids."
      },
      "_eventConfig": {
        "details": "Configuration for events to trigger for source smart contract."
      },
      "_name": {
        "details": "Collection name."
      },
      "_operatorApprovals": {
        "details": "Usually utilised for supporting marketplace proxy wallets."
      },
      "_ownedTokens": {
        "details": "Map of array of token ids owned by a specific address."
      },
      "_ownedTokensCount": {
        "details": "Map of total tokens owner by a specific address."
      },
      "_ownedTokensIndex": {
        "details": "Map of token id to array index of _ownedTokens."
      },
      "_symbol": {
        "details": "Collection symbol."
      },
      "_tokenApprovals": {
        "details": "1-to-1 map of token id that was assigned an approved operator address."
      },
      "_tokenOwner": {
        "details": "Token id to wallet (owner) address map."
      }
    },
    "title": "Holograph Bridgeable ERC-721 Collection",
    "version": 1
  },
  "userdoc": {
    "kind": "user",
    "methods": {
      "approve(address,uint256)": {
        "notice": "Adds a new address to the token's approval list."
      },
      "balanceOf(address)": {
        "notice": "Get total number of tokens owned by wallet."
      },
      "burn(uint256)": {
        "notice": "Burns the token."
      },
      "constructor": {
        "notice": "Constructor is empty and not utilised."
      },
      "contractURI()": {
        "notice": "Gets a base64 encoded contract JSON file."
      },
      "getApproved(uint256)": {
        "notice": "Gets the approved address for the token."
      },
      "init(bytes)": {
        "notice": "Initializes the collection."
      },
      "isApprovedForAll(address,address)": {
        "notice": "Checks if the address is approved."
      },
      "name()": {
        "notice": "Gets the name of the collection."
      },
      "onERC721Received(address,address,uint256,bytes)": {
        "notice": "Empty function that is triggered by external contract on NFT transfer."
      },
      "ownerOf(uint256)": {
        "notice": "Checks who the owner of a token is."
      },
      "safeTransferFrom(address,address,uint256,bytes)": {
        "notice": "Safely transfers `tokenId` token from `from` to `to`, checking first that contract recipients"
      },
      "setApprovalForAll(address,bool)": {
        "notice": "Adds a new approved operator."
      },
      "supportsInterface(bytes4)": {
        "notice": "Shows the interfaces the contracts support"
      },
      "symbol()": {
        "notice": "Gets the collection's symbol."
      },
      "tokenByIndex(uint256)": {
        "notice": "Get token by index."
      },
      "tokenOfOwnerByIndex(address,uint256)": {
        "notice": "Get token from wallet by index instead of token id."
      },
      "tokenURI(uint256)": {
        "notice": "Get's the URI of the token."
      },
      "tokens(uint256,uint256)": {
        "notice": "Get set length list, starting from index, for all tokens."
      },
      "tokensOfOwner(address)": {
        "notice": "Get list of tokens owned by wallet."
      },
      "tokensOfOwner(address,uint256,uint256)": {
        "notice": "Get set length list, starting from index, for tokens owned by wallet."
      },
      "totalSupply()": {
        "notice": "Total amount of tokens in the collection."
      },
      "transfer(address,uint256)": {
        "notice": "Transfers `tokenId` token from `msg.sender` to `to`."
      },
      "transferFrom(address,address,uint256)": {
        "notice": "Transfers `tokenId` token from `from` to `to`."
      },
      "transferFrom(address,address,uint256,bytes)": {
        "notice": "Transfers `tokenId` token from `from` to `to`."
      }
    },
    "notice": "A smart contract for minting and managing Holograph Bridgeable ERC721 NFTs.",
    "version": 1
  },
  "storageLayout": {
    "storage": [
      {
        "astId": 2764,
        "contract": "contracts/HolographERC721.sol:HolographERC721",
        "label": "_eventConfig",
        "offset": 0,
        "slot": "0",
        "type": "t_uint256"
      },
      {
        "astId": 2767,
        "contract": "contracts/HolographERC721.sol:HolographERC721",
        "label": "_name",
        "offset": 0,
        "slot": "1",
        "type": "t_string_storage"
      },
      {
        "astId": 2770,
        "contract": "contracts/HolographERC721.sol:HolographERC721",
        "label": "_symbol",
        "offset": 0,
        "slot": "2",
        "type": "t_string_storage"
      },
      {
        "astId": 2773,
        "contract": "contracts/HolographERC721.sol:HolographERC721",
        "label": "_bps",
        "offset": 0,
        "slot": "3",
        "type": "t_uint16"
      },
      {
        "astId": 2777,
        "contract": "contracts/HolographERC721.sol:HolographERC721",
        "label": "_allTokens",
        "offset": 0,
        "slot": "4",
        "type": "t_array(t_uint256)dyn_storage"
      },
      {
        "astId": 2782,
        "contract": "contracts/HolographERC721.sol:HolographERC721",
        "label": "_ownedTokensIndex",
        "offset": 0,
        "slot": "5",
        "type": "t_mapping(t_uint256,t_uint256)"
      },
      {
        "astId": 2787,
        "contract": "contracts/HolographERC721.sol:HolographERC721",
        "label": "_tokenOwner",
        "offset": 0,
        "slot": "6",
        "type": "t_mapping(t_uint256,t_address)"
      },
      {
        "astId": 2792,
        "contract": "contracts/HolographERC721.sol:HolographERC721",
        "label": "_tokenApprovals",
        "offset": 0,
        "slot": "7",
        "type": "t_mapping(t_uint256,t_address)"
      },
      {
        "astId": 2797,
        "contract": "contracts/HolographERC721.sol:HolographERC721",
        "label": "_ownedTokensCount",
        "offset": 0,
        "slot": "8",
        "type": "t_mapping(t_address,t_uint256)"
      },
      {
        "astId": 2803,
        "contract": "contracts/HolographERC721.sol:HolographERC721",
        "label": "_ownedTokens",
        "offset": 0,
        "slot": "9",
        "type": "t_mapping(t_address,t_array(t_uint256)dyn_storage)"
      },
      {
        "astId": 2810,
        "contract": "contracts/HolographERC721.sol:HolographERC721",
        "label": "_operatorApprovals",
        "offset": 0,
        "slot": "10",
        "type": "t_mapping(t_address,t_mapping(t_address,t_bool))"
      },
      {
        "astId": 2815,
        "contract": "contracts/HolographERC721.sol:HolographERC721",
        "label": "_allTokensIndex",
        "offset": 0,
        "slot": "11",
        "type": "t_mapping(t_uint256,t_uint256)"
      },
      {
        "astId": 2820,
        "contract": "contracts/HolographERC721.sol:HolographERC721",
        "label": "_burnedTokens",
        "offset": 0,
        "slot": "12",
        "type": "t_mapping(t_uint256,t_bool)"
      }
    ],
    "types": {
      "t_address": {
        "encoding": "inplace",
        "label": "address",
        "numberOfBytes": "20"
      },
      "t_array(t_uint256)dyn_storage": {
        "base": "t_uint256",
        "encoding": "dynamic_array",
        "label": "uint256[]",
        "numberOfBytes": "32"
      },
      "t_bool": {
        "encoding": "inplace",
        "label": "bool",
        "numberOfBytes": "1"
      },
      "t_mapping(t_address,t_array(t_uint256)dyn_storage)": {
        "encoding": "mapping",
        "key": "t_address",
        "label": "mapping(address => uint256[])",
        "numberOfBytes": "32",
        "value": "t_array(t_uint256)dyn_storage"
      },
      "t_mapping(t_address,t_bool)": {
        "encoding": "mapping",
        "key": "t_address",
        "label": "mapping(address => bool)",
        "numberOfBytes": "32",
        "value": "t_bool"
      },
      "t_mapping(t_address,t_mapping(t_address,t_bool))": {
        "encoding": "mapping",
        "key": "t_address",
        "label": "mapping(address => mapping(address => bool))",
        "numberOfBytes": "32",
        "value": "t_mapping(t_address,t_bool)"
      },
      "t_mapping(t_address,t_uint256)": {
        "encoding": "mapping",
        "key": "t_address",
        "label": "mapping(address => uint256)",
        "numberOfBytes": "32",
        "value": "t_uint256"
      },
      "t_mapping(t_uint256,t_address)": {
        "encoding": "mapping",
        "key": "t_uint256",
        "label": "mapping(uint256 => address)",
        "numberOfBytes": "32",
        "value": "t_address"
      },
      "t_mapping(t_uint256,t_bool)": {
        "encoding": "mapping",
        "key": "t_uint256",
        "label": "mapping(uint256 => bool)",
        "numberOfBytes": "32",
        "value": "t_bool"
      },
      "t_mapping(t_uint256,t_uint256)": {
        "encoding": "mapping",
        "key": "t_uint256",
        "label": "mapping(uint256 => uint256)",
        "numberOfBytes": "32",
        "value": "t_uint256"
      },
      "t_string_storage": {
        "encoding": "bytes",
        "label": "string",
        "numberOfBytes": "32"
      },
      "t_uint16": {
        "encoding": "inplace",
        "label": "uint16",
        "numberOfBytes": "2"
      },
      "t_uint256": {
        "encoding": "inplace",
        "label": "uint256",
        "numberOfBytes": "32"
      }
    }
  }
}