{
  "address": "0x624967226C6A3c4D0A1173405899E9F7Abd41A75",
  "abi": [
    {
      "inputs": [],
      "stateMutability": "nonpayable",
      "type": "constructor"
    },
    {
      "anonymous": false,
      "inputs": [
        {
          "indexed": false,
          "internalType": "bytes",
          "name": "_payload",
          "type": "bytes"
        }
      ],
      "name": "AvailableJob",
      "type": "event"
    },
    {
      "anonymous": false,
      "inputs": [
        {
          "indexed": false,
          "internalType": "uint16",
          "name": "_dstChainId",
          "type": "uint16"
        },
        {
          "indexed": false,
          "internalType": "bytes",
          "name": "_destination",
          "type": "bytes"
        },
        {
          "indexed": false,
          "internalType": "bytes",
          "name": "_payload",
          "type": "bytes"
        }
      ],
      "name": "LzEvent",
      "type": "event"
    },
    {
      "inputs": [],
      "name": "admin",
      "outputs": [
        {
          "internalType": "address",
          "name": "",
          "type": "address"
        }
      ],
      "stateMutability": "view",
      "type": "function"
    },
    {
      "inputs": [
        {
          "internalType": "address",
          "name": "target",
          "type": "address"
        },
        {
          "internalType": "bytes",
          "name": "data",
          "type": "bytes"
        }
      ],
      "name": "adminCall",
      "outputs": [],
      "stateMutability": "payable",
      "type": "function"
    },
    {
      "inputs": [
        {
          "internalType": "bytes",
          "name": "_payload",
          "type": "bytes"
        }
      ],
      "name": "executeJob",
      "outputs": [],
      "stateMutability": "payable",
      "type": "function"
    },
    {
      "inputs": [],
      "name": "getAdmin",
      "outputs": [
        {
          "internalType": "address",
          "name": "adminAddress",
          "type": "address"
        }
      ],
      "stateMutability": "view",
      "type": "function"
    },
    {
      "inputs": [],
      "name": "getLZEndpoint",
      "outputs": [
        {
          "internalType": "address",
          "name": "lZEndpoint",
          "type": "address"
        }
      ],
      "stateMutability": "view",
      "type": "function"
    },
    {
      "inputs": [
        {
          "internalType": "bytes",
          "name": "data",
          "type": "bytes"
        }
      ],
      "name": "init",
      "outputs": [
        {
          "internalType": "bytes4",
          "name": "",
          "type": "bytes4"
        }
      ],
      "stateMutability": "nonpayable",
      "type": "function"
    },
    {
      "inputs": [
        {
          "internalType": "uint16",
          "name": "_srcChainId",
          "type": "uint16"
        },
        {
          "internalType": "bytes",
          "name": "_srcAddress",
          "type": "bytes"
        },
        {
          "internalType": "uint64",
          "name": "_nonce",
          "type": "uint64"
        },
        {
          "internalType": "bytes",
          "name": "_payload",
          "type": "bytes"
        }
      ],
      "name": "jobEstimator",
      "outputs": [],
      "stateMutability": "payable",
      "type": "function"
    },
    {
      "inputs": [
        {
          "internalType": "uint16",
          "name": "",
          "type": "uint16"
        },
        {
          "internalType": "bytes",
          "name": "_srcAddress",
          "type": "bytes"
        },
        {
          "internalType": "uint64",
          "name": "",
          "type": "uint64"
        },
        {
          "internalType": "bytes",
          "name": "_payload",
          "type": "bytes"
        }
      ],
      "name": "lzReceive",
      "outputs": [],
      "stateMutability": "payable",
      "type": "function"
    },
    {
      "inputs": [
        {
          "internalType": "uint16",
          "name": "_dstChainId",
          "type": "uint16"
        },
        {
          "internalType": "bytes",
          "name": "_destination",
          "type": "bytes"
        },
        {
          "internalType": "bytes",
          "name": "_payload",
          "type": "bytes"
        },
        {
          "internalType": "address payable",
          "name": "",
          "type": "address"
        },
        {
          "internalType": "address",
          "name": "",
          "type": "address"
        },
        {
          "internalType": "bytes",
          "name": "",
          "type": "bytes"
        }
      ],
      "name": "send",
      "outputs": [],
      "stateMutability": "payable",
      "type": "function"
    },
    {
      "inputs": [
        {
          "internalType": "address",
          "name": "adminAddress",
          "type": "address"
        }
      ],
      "name": "setAdmin",
      "outputs": [],
      "stateMutability": "nonpayable",
      "type": "function"
    },
    {
      "inputs": [
        {
          "internalType": "address",
          "name": "lZEndpoint",
          "type": "address"
        }
      ],
      "name": "setLZEndpoint",
      "outputs": [],
      "stateMutability": "nonpayable",
      "type": "function"
    }
  ],
  "transactionHash": "0xeeb1c57d1fdacd754413c144da4a2c3a7421ccedcc7284490809715210cc04b5",
  "args": [],
  "numDeployments": 1,
  "solcInputHash": "6268f4815d1b695602d2038a17eb1c6d",
  "bytecode": "0x608060405234801561001057600080fd5b506110e6806100206000396000f3fe6080604052600436106100bb5760003560e01c8063704b6c0211610074578063bf64a82d1161004e578063bf64a82d1461021a578063c58031001461022d578063f851a4401461024057600080fd5b8063704b6c02146101d4578063778fd1d1146101f45780637a143a1b1461020757600080fd5b80634b40f1bf116100a55780634b40f1bf1461012f5780634ddf47d41461014f5780636e9960c3146101a057600080fd5b80621d3567146100c057806336c5ab40146100d5575b600080fd5b6100d36100ce366004610c3e565b610255565b005b3480156100e157600080fd5b507f2944abfef32f38db0df81ab8a585718b1584ffa240274312f8a85cb682b6b688545b60405173ffffffffffffffffffffffffffffffffffffffff90911681526020015b60405180910390f35b34801561013b57600080fd5b506100d361014a366004610cfd565b610416565b34801561015b57600080fd5b5061016f61016a366004610d50565b6104f5565b6040517fffffffff000000000000000000000000000000000000000000000000000000009091168152602001610126565b3480156101ac57600080fd5b507f5705f5753aa4f617eef2cae1dada3d3355e9387b04d19191f09b545e684ca50d54610105565b3480156101e057600080fd5b506100d36101ef366004610cfd565b610686565b6100d3610202366004610e1f565b610760565b6100d3610215366004610c3e565b61086c565b6100d3610228366004610e61565b6109d4565b6100d361023b366004610eb6565b610aaf565b34801561024c57600080fd5b50610105610baf565b337f2944abfef32f38db0df81ab8a585718b1584ffa240274312f8a85cb682b6b68854146102ee577f08c379a0000000000000000000000000000000000000000000000000000000006080527c200000000000000000000000000000000000000000000000000000000060a0527c1b484f4c4f47524150483a204c5a206f6e6c7920656e64706f696e740060c052600060e05260c46080fd5b6040518486600c8301378051301480610391577f08c379a0000000000000000000000000000000000000000000000000000000006080527c200000000000000000000000000000000000000000000000000000000060a0527c1e484f4c4f47524150483a20756e617574686f72697a65642073656e6460c0527f657200000000000000000000000000000000000000000000000000000000000060e05260c46080fd5b5050600160008084846040516103a8929190610f8c565b6040518091039020815260200190815260200160002060006101000a81548160ff0219169083151502179055507f6114b34f1f941c01691c47744b4fbc0dd9d542be34241ba84fc4c0bd9bef9b118282604051610406929190610fe5565b60405180910390a1505050505050565b7f5705f5753aa4f617eef2cae1dada3d3355e9387b04d19191f09b545e684ca50d5473ffffffffffffffffffffffffffffffffffffffff163373ffffffffffffffffffffffffffffffffffffffff16146104d1576040517f08c379a000000000000000000000000000000000000000000000000000000000815260206004820152601e60248201527f484f4c4f47524150483a2061646d696e206f6e6c792066756e6374696f6e000060448201526064015b60405180910390fd5b7f2944abfef32f38db0df81ab8a585718b1584ffa240274312f8a85cb682b6b68855565b60006105217f4e5f991bca30eca2d4643aaefa807e88f96a4a97398933d572a3c0d973004a0154151590565b15610588576040517f08c379a000000000000000000000000000000000000000000000000000000000815260206004820152601e60248201527f484f4c4f47524150483a20616c726561647920696e697469616c697a6564000060448201526064016104c8565b6000806000848060200190518101906105a19190611001565b925092509250327f5705f5753aa4f617eef2cae1dada3d3355e9387b04d19191f09b545e684ca50d55827f03be85923973d3197c19b1ad1f9b28c331dd9229cd80cbf84926b2286fc4563f55817f1eee493315beeac80829afd0aaa340f3821cabe68571a2743478e81638a3d94d55807f460c4059d72b144253e5fc4e2aacbae2bcd6362c67862cd58ecbab0e7b10c3495561065c60017f4e5f991bca30eca2d4643aaefa807e88f96a4a97398933d572a3c0d973004a0155565b507f4ddf47d400000000000000000000000000000000000000000000000000000000949350505050565b7f5705f5753aa4f617eef2cae1dada3d3355e9387b04d19191f09b545e684ca50d5473ffffffffffffffffffffffffffffffffffffffff163373ffffffffffffffffffffffffffffffffffffffff161461073c576040517f08c379a000000000000000000000000000000000000000000000000000000000815260206004820152601e60248201527f484f4c4f47524150483a2061646d696e206f6e6c792066756e6374696f6e000060448201526064016104c8565b7f5705f5753aa4f617eef2cae1dada3d3355e9387b04d19191f09b545e684ca50d55565b60008282604051610772929190610f8c565b604080519182900390912060008181526020819052919091205490915060ff166107f8576040517f08c379a000000000000000000000000000000000000000000000000000000000815260206004820152601660248201527f484f4c4f47524150483a20696e76616c6964206a6f620000000000000000000060448201526064016104c8565b60003681823780813683347f03be85923973d3197c19b1ad1f9b28c331dd9229cd80cbf84926b2286fc4563f545af1610833573d81823e3d81fd5b50600090815260208190526040902080547fffffffffffffffffffffffffffffffffffffffffffffffffffffffffffffff001690555050565b33606051146108e6577f08c379a0000000000000000000000000000000000000000000000000000000006080527c200000000000000000000000000000000000000000000000000000000060a0527c18484f4c4f47524150483a206f70657261746f72206f6e6c790000000060c052600060e05260c46080fd5b6040517e1d35670000000000000000000000000000000000000000000000000000000081523090621d35679061092a9089908990899089908990899060040161104e565b600060405180830381600087803b15801561094457600080fd5b505af1158015610958573d6000803e3d6000fd5b50506040517f778fd1d100000000000000000000000000000000000000000000000000000000815230925063778fd1d1915061099a9085908590600401610fe5565b600060405180830381600087803b1580156109b457600080fd5b505af11580156109c8573d6000803e3d6000fd5b50505050505050505050565b7f5705f5753aa4f617eef2cae1dada3d3355e9387b04d19191f09b545e684ca50d5473ffffffffffffffffffffffffffffffffffffffff163373ffffffffffffffffffffffffffffffffffffffff1614610a8a576040517f08c379a000000000000000000000000000000000000000000000000000000000815260206004820152601e60248201527f484f4c4f47524150483a2061646d696e206f6e6c792066756e6374696f6e000060448201526064016104c8565b808260003760008082600034875af13d6000803e808015610aaa573d6000f35b3d6000fd5b7f03be85923973d3197c19b1ad1f9b28c331dd9229cd80cbf84926b2286fc4563f5473ffffffffffffffffffffffffffffffffffffffff163373ffffffffffffffffffffffffffffffffffffffff1614610b65576040517f08c379a000000000000000000000000000000000000000000000000000000000815260206004820152601b60248201527f484f4c4f47524150483a20627269646765206f6e6c792063616c6c000000000060448201526064016104c8565b7f138bae39f5887c9423d9c61fbf2cba537d68671ee69f2008423dbc28c8c416638989898989604051610b9c95949392919061109c565b60405180910390a1505050505050505050565b6000610bd97f5705f5753aa4f617eef2cae1dada3d3355e9387b04d19191f09b545e684ca50d5490565b905090565b803561ffff81168114610bf057600080fd5b919050565b60008083601f840112610c0757600080fd5b50813567ffffffffffffffff811115610c1f57600080fd5b602083019150836020828501011115610c3757600080fd5b9250929050565b60008060008060008060808789031215610c5757600080fd5b610c6087610bde565b9550602087013567ffffffffffffffff80821115610c7d57600080fd5b610c898a838b01610bf5565b9097509550604089013591508082168214610ca357600080fd5b90935060608801359080821115610cb957600080fd5b50610cc689828a01610bf5565b979a9699509497509295939492505050565b73ffffffffffffffffffffffffffffffffffffffff81168114610cfa57600080fd5b50565b600060208284031215610d0f57600080fd5b8135610d1a81610cd8565b9392505050565b7f4e487b7100000000000000000000000000000000000000000000000000000000600052604160045260246000fd5b600060208284031215610d6257600080fd5b813567ffffffffffffffff80821115610d7a57600080fd5b818401915084601f830112610d8e57600080fd5b813581811115610da057610da0610d21565b604051601f82017fffffffffffffffffffffffffffffffffffffffffffffffffffffffffffffffe0908116603f01168101908382118183101715610de657610de6610d21565b81604052828152876020848701011115610dff57600080fd5b826020860160208301376000928101602001929092525095945050505050565b60008060208385031215610e3257600080fd5b823567ffffffffffffffff811115610e4957600080fd5b610e5585828601610bf5565b90969095509350505050565b600080600060408486031215610e7657600080fd5b8335610e8181610cd8565b9250602084013567ffffffffffffffff811115610e9d57600080fd5b610ea986828701610bf5565b9497909650939450505050565b600080600080600080600080600060c08a8c031215610ed457600080fd5b610edd8a610bde565b985060208a013567ffffffffffffffff80821115610efa57600080fd5b610f068d838e01610bf5565b909a50985060408c0135915080821115610f1f57600080fd5b610f2b8d838e01610bf5565b909850965060608c01359150610f4082610cd8565b90945060808b013590610f5282610cd8565b90935060a08b01359080821115610f6857600080fd5b50610f758c828d01610bf5565b915080935050809150509295985092959850929598565b8183823760009101908152919050565b8183528181602085013750600060208284010152600060207fffffffffffffffffffffffffffffffffffffffffffffffffffffffffffffffe0601f840116840101905092915050565b602081526000610ff9602083018486610f9c565b949350505050565b60008060006060848603121561101657600080fd5b835161102181610cd8565b602085015190935061103281610cd8565b604085015190925061104381610cd8565b809150509250925092565b61ffff8716815260806020820152600061106c608083018789610f9c565b67ffffffffffffffff86166040840152828103606084015261108f818587610f9c565b9998505050505050505050565b61ffff861681526060602082015260006110ba606083018688610f9c565b82810360408401526110cd818587610f9c565b9897505050505050505056fea164736f6c634300080d000a",
  "devdoc": {
    "details": "This smart contract contains the actual core operator logic.",
    "events": {
      "AvailableJob(bytes)": {
        "details": "Event is emitted for every time that a valid job is available."
      }
    },
    "kind": "dev",
    "methods": {
      "constructor": {
        "details": "Constructor is left empty and only the admin address is set."
      }
    },
    "stateVariables": {
      "_availableJobs": {
        "details": "Internal mapping of hashes for valid operator jobs."
      }
    },
    "version": 1
  },
  "userdoc": {
    "kind": "user",
    "methods": {},
    "version": 1
  },
  "storageLayout": {
    "storage": [
      {
        "astId": 5677,
        "contract": "contracts/HolographOperator.sol:HolographOperator",
        "label": "_availableJobs",
        "offset": 0,
        "slot": "0",
        "type": "t_mapping(t_bytes32,t_bool)"
      }
    ],
    "types": {
      "t_bool": {
        "encoding": "inplace",
        "label": "bool",
        "numberOfBytes": "1"
      },
      "t_bytes32": {
        "encoding": "inplace",
        "label": "bytes32",
        "numberOfBytes": "32"
      },
      "t_mapping(t_bytes32,t_bool)": {
        "encoding": "mapping",
        "key": "t_bytes32",
        "label": "mapping(bytes32 => bool)",
        "numberOfBytes": "32",
        "value": "t_bool"
      }
    }
  }
}