{
  "address": "0x4043e849137544A3631cA0AeB69319DC565A24e1",
  "abi": [
    {
      "inputs": [],
      "stateMutability": "nonpayable",
      "type": "constructor"
    },
    {
      "stateMutability": "payable",
      "type": "fallback"
    },
    {
      "inputs": [],
      "name": "admin",
      "outputs": [
        {
          "internalType": "address",
          "name": "",
          "type": "address"
        }
      ],
      "stateMutability": "view",
      "type": "function"
    },
    {
      "inputs": [
        {
          "internalType": "address",
          "name": "target",
          "type": "address"
        },
        {
          "internalType": "bytes",
          "name": "data",
          "type": "bytes"
        }
      ],
      "name": "adminCall",
      "outputs": [],
      "stateMutability": "payable",
      "type": "function"
    },
    {
      "inputs": [
        {
          "internalType": "string",
          "name": "name",
          "type": "string"
        },
        {
          "internalType": "string",
          "name": "imageURL",
          "type": "string"
        },
        {
          "internalType": "string",
          "name": "externalLink",
          "type": "string"
        },
        {
          "internalType": "uint16",
          "name": "bps",
          "type": "uint16"
        },
        {
          "internalType": "address",
          "name": "contractAddress",
          "type": "address"
        }
      ],
      "name": "contractURI",
      "outputs": [
        {
          "internalType": "string",
          "name": "",
          "type": "string"
        }
      ],
      "stateMutability": "pure",
      "type": "function"
    },
    {
      "inputs": [],
      "name": "getAdmin",
      "outputs": [
        {
          "internalType": "address",
          "name": "adminAddress",
          "type": "address"
        }
      ],
      "stateMutability": "view",
      "type": "function"
    },
    {
      "inputs": [
        {
          "internalType": "enum ChainIdType",
          "name": "fromChainType",
          "type": "uint8"
        },
        {
          "internalType": "uint256",
          "name": "fromChainId",
          "type": "uint256"
        },
        {
          "internalType": "enum ChainIdType",
          "name": "toChainType",
          "type": "uint8"
        }
      ],
      "name": "getChainId",
      "outputs": [
        {
          "internalType": "uint256",
          "name": "toChainId",
          "type": "uint256"
        }
      ],
      "stateMutability": "view",
      "type": "function"
    },
    {
      "inputs": [
        {
          "internalType": "bytes",
          "name": "data",
          "type": "bytes"
        }
      ],
      "name": "init",
      "outputs": [
        {
          "internalType": "bytes4",
          "name": "",
          "type": "bytes4"
        }
      ],
      "stateMutability": "nonpayable",
      "type": "function"
    },
    {
      "inputs": [
        {
          "internalType": "address",
          "name": "adminAddress",
          "type": "address"
        }
      ],
      "name": "setAdmin",
      "outputs": [],
      "stateMutability": "nonpayable",
      "type": "function"
    },
    {
      "inputs": [
        {
          "internalType": "enum InterfaceType",
          "name": "interfaceType",
          "type": "uint8"
        },
        {
          "internalType": "bytes4",
          "name": "interfaceId",
          "type": "bytes4"
        }
      ],
      "name": "supportsInterface",
      "outputs": [
        {
          "internalType": "bool",
          "name": "",
          "type": "bool"
        }
      ],
      "stateMutability": "view",
      "type": "function"
    },
    {
      "inputs": [
        {
          "internalType": "enum ChainIdType",
          "name": "fromChainType",
          "type": "uint8"
        },
        {
          "internalType": "uint256",
          "name": "fromChainId",
          "type": "uint256"
        },
        {
          "internalType": "enum ChainIdType",
          "name": "toChainType",
          "type": "uint8"
        },
        {
          "internalType": "uint256",
          "name": "toChainId",
          "type": "uint256"
        }
      ],
      "name": "updateChainIdMap",
      "outputs": [],
      "stateMutability": "nonpayable",
      "type": "function"
    },
    {
      "inputs": [
        {
          "internalType": "enum ChainIdType[]",
          "name": "fromChainType",
          "type": "uint8[]"
        },
        {
          "internalType": "uint256[]",
          "name": "fromChainId",
          "type": "uint256[]"
        },
        {
          "internalType": "enum ChainIdType[]",
          "name": "toChainType",
          "type": "uint8[]"
        },
        {
          "internalType": "uint256[]",
          "name": "toChainId",
          "type": "uint256[]"
        }
      ],
      "name": "updateChainIdMaps",
      "outputs": [],
      "stateMutability": "nonpayable",
      "type": "function"
    },
    {
      "inputs": [
        {
          "internalType": "enum InterfaceType",
          "name": "interfaceType",
          "type": "uint8"
        },
        {
          "internalType": "bytes4",
          "name": "interfaceId",
          "type": "bytes4"
        },
        {
          "internalType": "bool",
          "name": "supported",
          "type": "bool"
        }
      ],
      "name": "updateInterface",
      "outputs": [],
      "stateMutability": "nonpayable",
      "type": "function"
    },
    {
      "inputs": [
        {
          "internalType": "enum InterfaceType",
          "name": "interfaceType",
          "type": "uint8"
        },
        {
          "internalType": "bytes4[]",
          "name": "interfaceIds",
          "type": "bytes4[]"
        },
        {
          "internalType": "bool",
          "name": "supported",
          "type": "bool"
        }
      ],
      "name": "updateInterfaceBatch",
      "outputs": [],
      "stateMutability": "nonpayable",
      "type": "function"
    },
    {
      "stateMutability": "payable",
      "type": "receive"
    }
  ],
  "transactionHash": "0xf068a9ebba3a7dfd877011a71fce6e5b5d5d55bac3b5ccc652ba3c23f41e8c85",
  "args": [],
  "numDeployments": 1,
  "solcInputHash": "9c4112ef79367b0efdb44246ed5b05f9",
  "bytecode": "0x608060405234801561001057600080fd5b50600160008181527fccfe08badd7fbee8a36c1d2ba2b3090f679bf1a4970d307adddb9d938fc7bd726020527f4fa7a5ca669c08e34b1b3d5543a2ef94a748cc63cb9484727acae3a69f7634e6829055600291908081526020808201929092526040908101600090812060388252835281812060018083529352908120929092556003918081526020808201929092526040908101600090812061a86a8252835281812060018083529352908120929092556004918081526020808201929092526040908101600090812060898252835281812060018083529352908120929092556006918081526020808201929092526040908101600090812061a4b182528352818120600180835293529081209290925560079180815260208082019290925260409081016000908120600a8252835281812060018083529352908120929092556005918081526020808201929092526040908101600090812060fa82528352818120600180835293529081209290925563ee6b28019180815260208082019290925260409081016000908120600482528352818120600180835293529081209290925563ee6b28029180815260208082019290925260409081016000908120606182528352818120600180835293529081209290925563ee6b2803918081526020808201929092526040908101600090812061a86982528352818120600180835293529081209290925563ee6b280491808152602080820192909252604090810160009081206201388182528352818120600180835293529081209290925563ee6b2806918081526020808201929092526040908101600090812062066eeb82528352818120600180835293529081209290925563ee6b28079180815260208082019290925260409081016000908120604582528352818120600180835293529081209290925563ee6b28059180815260208082019290925260409081016000908120610fa282528352818120600180835293529081209290925563fffffffe918081526020808201929092526040908101600090812061053a82528352818120600180835293529081209290925563ffffffff918081526020808201929092526040908101600090812061053b825283528181206001808352935290812092909255908190818152602080820192909252604090810160009081206001808352908452828220828052909352908120929092556038918181526020808201929092526040908101600090812060028252835281812081805290925281209190915561a86a90600190818152602080820192909252604090810160009081206003825283528181208180529092528120919091556089906001908181526020808201929092526040908101600090812060048252835281812081805290925281209190915561a4b19060019081815260208082019290925260409081016000908120600682528352818120818052909252812091909155600a906001908181526020808201929092526040908101600090812060078252835281812081805290925281209190915560fa90600190818152602080820192909252604090810160009081206005825283528181208180529092528120919091556004906001908181526020808201929092526040908101600090812063ee6b2801825283528181208180529092528120919091556061906001908181526020808201929092526040908101600090812063ee6b28028252835281812081805290925281209190915561a869906001908181526020808201929092526040908101600090812063ee6b28038252835281812081805290925281209190915562013881906001908181526020808201929092526040908101600090812063ee6b28048252835281812081805290925281209190915562066eeb906001908181526020808201929092526040908101600090812063ee6b2806825283528181208180529092528120919091556045906001908181526020808201929092526040908101600090812063ee6b280782528352818120818052909252812091909155610fa2906001908181526020808201929092526040908101600090812063ee6b28058252835281812081805290925281209190915561053a906001908181526020808201929092526040908101600090812063fffffffe8252835281812081805290925281209190915561053b906001908181526020808201929092526040908101600090812063ffffffff82528352818120818052909252812091909155600190819060028152602080820192909252604090810160009081206001808352908452828220909352908120929092556002918281526020808201929092526040908101600090812060028083529084528282206001808452945291812093909355600392908152602080820192909252604090810160009081206006825283528181206001808352935290812092909255600491600281526020808201929092526040908101600090812060098252835281812060018083529352908120929092556006916002815260208082019290925260409081016000908120600a8252835281812060018083529352908120929092556007916002815260208082019290925260409081016000908120600b8252835281812060018083529352908120929092556005916002815260208082019290925260409081016000908120600c82528352818120600180835293529081209290925563ee6b280191600281526020808201929092526040908101600090812061271182528352818120600180835293529081209290925563ee6b280291600281526020808201929092526040908101600090812061271282528352818120600180835293529081209290925563ee6b280391600281526020808201929092526040908101600090812061271682528352818120600180835293529081209290925563ee6b280491600281526020808201929092526040908101600090812061271982528352818120600180835293529081209290925563ee6b280691600281526020808201929092526040908101600090812061271a82528352818120600180835293529081209290925563ee6b280791600281526020808201929092526040908101600090812061271b82528352818120600180835293529081209290925563ee6b280591600281526020808201929092526040908101600090812061271c82528352818120600180835293529081209290925563fffffffe91600281526020808201929092526040908101600090812061fffe82528352818120600180835293529081209290925563ffffffff91600281526020808201929092526040908101600090812061ffff825283528181206001808352935290812092909255908190818152602080820192909252604090810160009081206001808352908452828220600280845294529181209390935590918181526020808201929092526040908101600090812060028252835281812090925281209190915560069060019081815260208082019290925260409081016000908120600382528352818120600282529092528120919091556009906001908181526020808201929092526040908101600090812060048252835281812060028252909252812091909155600c906001908181526020808201929092526040908101600090812060058252835281812060028252909252812091909155600a906001908181526020808201929092526040908101600090812060068252835281812060028252909252812091909155600b906001908181526020808201929092526040908101600090812060078252835281812060028252909252812091909155612711906001908181526020808201929092526040908101600090812063ee6b28018252835281812060028252909252812091909155612712906001908181526020808201929092526040908101600090812063ee6b28028252835281812060028252909252812091909155612716906001908181526020808201929092526040908101600090812063ee6b28038252835281812060028252909252812091909155612719906001908181526020808201929092526040908101600090812063ee6b2804825283528181206002825290925281209190915561271c906001908181526020808201929092526040908101600090812063ee6b2805825283528181206002825290925281209190915561271a906001908181526020808201929092526040908101600090812063ee6b2806825283528181206002825290925281209190915561271b906001908181526020808201929092526040908101600090812063ee6b2807825283528181206002825290925281209190915561fffe906001908181526020808201929092526040908101600090812063fffffffe825283528181206002825290925281209190915561ffff906001908181526020808201929092526040908101600090812063ffffffff8252835281812060028252909252902055612bb780610d046000396000f3fe6080604052600436106100cb5760003560e01c806384dd6f8711610074578063a1a0d9601161004e578063a1a0d96014610292578063bf64a82d146102b2578063f851a440146102c557600080fd5b806384dd6f87146102155780639cf149da146102355780639fe7303f1461026257600080fd5b80636d97233f116100a55780636d97233f146101805780636e9960c3146101a0578063704b6c02146101f557600080fd5b806320fc06ea146100da5780634ddf47d41461010d5780636d7db6271461015e57600080fd5b366100d557600080fd5b600080fd5b3480156100e657600080fd5b506100fa6100f536600461203f565b6102da565b6040519081526020015b60405180910390f35b34801561011957600080fd5b5061012d6101283660046120aa565b61035f565b6040517fffffffff000000000000000000000000000000000000000000000000000000009091168152602001610104565b34801561016a57600080fd5b5061017e6101793660046121c5565b610f4f565b005b34801561018c57600080fd5b5061017e61019b3660046122d8565b611128565b3480156101ac57600080fd5b507f5705f5753aa4f617eef2cae1dada3d3355e9387b04d19191f09b545e684ca50d545b60405173ffffffffffffffffffffffffffffffffffffffff9091168152602001610104565b34801561020157600080fd5b5061017e610210366004612337565b61127a565b34801561022157600080fd5b5061017e61023036600461235b565b611354565b34801561024157600080fd5b50610255610250366004612402565b6114eb565b60405161010491906124f9565b34801561026e57600080fd5b5061028261027d36600461254a565b611568565b6040519015158152602001610104565b34801561029e57600080fd5b5061017e6102ad36600461257d565b6115dc565b61017e6102c03660046125c1565b611715565b3480156102d157600080fd5b506101d06117f0565b6000600160008560058111156102f2576102f2612616565b600581111561030357610303612616565b81526020019081526020016000206000848152602001908152602001600020600083600581111561033657610336612616565b600581111561034757610347612616565b81526020019081526020016000205490509392505050565b600061038b7f4e5f991bca30eca2d4643aaefa807e88f96a4a97398933d572a3c0d973004a0154151590565b156103f7576040517f08c379a000000000000000000000000000000000000000000000000000000000815260206004820152601e60248201527f484f4c4f47524150483a20616c726561647920696e697469616c697a6564000060448201526064015b60405180910390fd5b60008280602001905181019061040d9190612645565b7f5705f5753aa4f617eef2cae1dada3d3355e9387b04d19191f09b545e684ca50d5550507f8081f2e62baa7b6d5d07c2eb4ca92b6f991bec7fca8510bbe6931c8fa25569cd805460017fffffffffffffffffffffffffffffffffffffffffffffffffffffffffffffff0091821681179092557fdb93507e3c32aca898a51b46c4ae5b96232e700c4741348044ba840a38ac4f1c80548216831790557fade3797baf3ffd7083e1ed9ea080ff3ef544881c83bc3807e8f663fe6b26848e80548216831790557f75459bc0add31586819f61897df672807b6a02a1c35d4416e8f3f96b720e4e2080548216831790557f2788346cd83b80e553b9d8f6959ca333e2686b3e06cf4fe721963c0d2f379f3780548216831790557ffe788db07c28f38d3b235fb852c9f68e3dd1a89aff5667db632ba16388c12c0c80548216831790557fc6d7d7d56db5de3a3a38fe541eba127be5ed7e1635d77a3661191cdc2240c7c280548216831790557f0f793d685e17c331691863057e13d30ce8fc59fc20c11c8a403fb695b828a28d80548216831790557f0a8beb5952c629a8e5015a0e77e8e6d1576582c3d5fc469e6b934759b3d7259380548216831790557ff55a84ef4a9dd574c43f58a245d98d7494c11e8c25370db5ca6a994b9e8ae11880548216831790557fa062888372265a5e7933896ff0d0a812f3a24a29b5ec85ab00b88e0d1905e7ef80548216831790557f9fbc50d9d361e5ca789614e4073ba9ffae76238a8ab1acde87e559aaabf19d0c80548216831790557fd97b3e61aa1f163ae7a050e4f15ac409ac252e321ef5f8c00aebe96fe97b4b7580548216831790557ffb724b01794f8c1959475354bb2174502f87f8275f218573bc936ecacabcec8780548216831790557f98fd37be456c34bfed0e53cbb4ec6656b1ef760b140e9c2959c087783a3ca58d80548216831790557fa73cb153a4163e26314cfcfa7e02f6b4b3dff3e178a7e404477882b03f22c0d480548216831790557f726f40138b2be84435519cfca804e9bac126a812fcef1d36c0ac15634d0593fa80548216831790557f8b5c21077e214a258ec13d0a578a763e224e56384991dbf7e980d8a45acf29c880548216831790557fb6714480718896d6fb0a01c610576228009a3295df6a77fc98dd045283e3169f80548216831790557fb915a15f410692e5a47a31f8ef9648a67222c842f85e5ed6f326509eaebc7ca180548216831790557f46d98f16bd840d7e66435003a32f382b04681110e0deb6a4bbbf8229f871106180548216831790557f0a402010e0ed89d588697182e0b8ac614ef4c95d638411c7fca4d2855f28217580548216831790557f2fe662d1b31351bb1fc8b0b24227b1485ffa37d183d099d603b67ff383f62a1780548216831790557f6881aa153bfffe0daf3bc03a3c08dfd277346437f988268d91db220a417d4c6880548216831790557f304d9160b7aa71190a7a35ee0f4bb758d16660f4df8c0a6b46a70a12102e0e8980548216831790557f01f418530287530c5a6a30257ddc85333d5071425af340b8531c2e39d431650f80548216831790557f01c280a728be210244b097dc4cd29d9280634b7f01fca4073ae1dadfed7404e580548216831790557f63d535570a611f53d44a8b9cac8f7ef870f43453580a0aaa654a02479799a57680548216831790557f1543d29a2731af52c17611f9ede02eef67aab8325c2ccc6ee2ebd8a6635527f580548216831790557fbf529132fe76c160103ecad2a1aa8d204f23adbe6521cd4d08def0da7b9debaf80548216831790557fff45fc2a5b5687eeecbe1d4a7fb75e48c603c81db9e8b8bdcb7b1529f58397d580548216831790557f8f08664390c91421243a6b67b972d7c54954dbf60061d7e5f9e7abf7b4d6cbef80548216831790557fa0fca9e1ea4c57d3a8d6efa3daa5b65d3b370fb27ea5f44bc40f9714edfa969e80548216831790557f4ae1fb7ee4e2a8b73db517415c0dcc0d950ac0e3242b07c1b77ebad1395c004580548216831790557fb80621dc33e206dc337606e33f06377f35fb0e01bf753d7e0c8ab1ac1fa929f580548216831790557ff8443408b8cce52d80c881074c8aeca0b6265b29daf6a8e9ad578f1a97b079d580548216831790557f441a82394958d99dd3600f3529789b43460f934a9882f001100a5fff74f0b51480548216831790557fd1a658501074b3d1cdffefafd780a2af4262c3fb35f18966a556ad7a200782d880548216831790557f7f4c7e5c9f06c8bee2f15fe5514901a63f1ca0151c148efd3814c8a32d3da9e180548216831790557faf59abb7b2a24403410d53c702f8f332c0441e4d26fce10d27791c9ab972753780548216831790557f2678e1153e25a9671d8bfec4aa22c5d95343376bd40b5bb5ab6a5df41cf97be180548216831790557f5dc1599adf2c5960f56125cedc5dd069ed9a8a1b8557dd5eebdc47ce1780574f80548216831790557f8f7c0f1727dcb6d3aceeb0296b1ae65e0aff1a046adfa7d09a26ae3e486a43e180548216831790557f5008fe1a8a1f17ad8e0a10dc63c129801199fc482fcf25afbc27b2c08fa18ef480548216831790557fb048df62158b1bdb5fe70088d8666433abd96bf0910a2a16e5c6dc822ab2efd380548216831790557f03c76fbb19663738b5c63909b5befa2cc7e3b74e67cbd40d9ed2f1beff9e381180548216831790557f89d87211e72a0fdfb0c94fefdd71fba3947c0e755a88ad95281dfa913285eb4980548216831790557f54a674f924cb0517384222130463a01d70ba2c22b0875befeb893d087a44aeea80548216831790557fb3ffb14e9863ae33419f16a1e78ef489c4826810bbb6a5aac006daac82abeb5a80548216831790557f9bbd55ed444a859047295d445559b27b5a173b83fc69b6d53c74023b3ddd7c4980548216831790557f70c2b750d9799ea05485bedde564eaa4d3e6b32900c984ce9a784eb5c07efd8780548216831790557f476b3ee7c00892ba4344dc9421cc15cdc88eea4db443635d495ace4b933259c280548216831790557f217a4e97e64c17fc9fb4588adc03b6f4f5a5d211fa46976e507c6d714a00a03480548216831790557febf8d1ca5c9267ff7472681603cdf5660d83f8f87eb21d5140a63b14db385ae880548216831790557f33bc53e3b4cf2533da79a9873ba7cd9e41ea21cacbf29aad46c88e64e825e64f80548216831790557f30a92568343f55f7ce9dc0c7032aa38e1c6259fba1be354188f65f6bebb29b4780548216831790557ff95af76a036a13d60af35ef5368308e830cabe6b93d55a6a76074d2c9252990d80548216831790557f3ea480aaa0408ae361d1c7b5722ca8ec94b2bdb2970625cf5048241dbec2c05d80548216831790557f2a7ba53f0dcd359a3c895d58cecb858cd36cc5add3660ed5c968d6b9d367dfc980548216831790557fd8f166e1ca7d33b56b95ee5d08d232b6201d780d964e9084db5682754305d3f080548216831790557f8d6fc4438634177cf2c6e418d78ab45777c8198d6f86bb1ae40106073785b6f880548216831790557f28890443a1aed29526afdf401f90cf1b2db6282cc4f9a028cb7c68bffbd5a9df80548216831790557fa3ae2adb5c7b9077d7bc624a875f9ed8d5c935e0746e1ddcb1412ea8dcac33ba80548216831790557fd9e6d569c717e58bb6013e57c3f99ea10a6e27958250989e8f6dab2b649e3b3580548216831790557fc4091236000000000000000000000000000000000000000000000000000000006000527f101e368776582e57ab3d116ffe2517c0a585cd5b23174b01e275c2d8329c3d836020527f9022a93f0a1e1c6fb0bebf9cbed0c9d316677b26fd6eb70962a14a20bbb798b98054909116821790557f4e5f991bca30eca2d4643aaefa807e88f96a4a97398933d572a3c0d973004a0155507f4ddf47d40000000000000000000000000000000000000000000000000000000090565b7f5705f5753aa4f617eef2cae1dada3d3355e9387b04d19191f09b545e684ca50d5473ffffffffffffffffffffffffffffffffffffffff163373ffffffffffffffffffffffffffffffffffffffff1614611005576040517f08c379a000000000000000000000000000000000000000000000000000000000815260206004820152601e60248201527f484f4c4f47524150483a2061646d696e206f6e6c792066756e6374696f6e000060448201526064016103ee565b8660005b8181101561111c5783838281811061102357611023612662565b90506020020135600160008c8c8581811061104057611040612662565b90506020020160208101906110559190612691565b600581111561106657611066612616565b600581111561107757611077612616565b815260200190815260200160002060008a8a8581811061109957611099612662565b90506020020135815260200190815260200160002060008888858181106110c2576110c2612662565b90506020020160208101906110d79190612691565b60058111156110e8576110e8612616565b60058111156110f9576110f9612616565b815260208101919091526040016000205580611114816126db565b915050611009565b50505050505050505050565b7f5705f5753aa4f617eef2cae1dada3d3355e9387b04d19191f09b545e684ca50d5473ffffffffffffffffffffffffffffffffffffffff163373ffffffffffffffffffffffffffffffffffffffff16146111de576040517f08c379a000000000000000000000000000000000000000000000000000000000815260206004820152601e60248201527f484f4c4f47524150483a2061646d696e206f6e6c792066756e6374696f6e000060448201526064016103ee565b806000808560038111156111f4576111f4612616565b600381111561120557611205612616565b8152602080820192909252604090810160009081207fffffffff000000000000000000000000000000000000000000000000000000009690961681529490915290922080547fffffffffffffffffffffffffffffffffffffffffffffffffffffffffffffff0016921515929092179091555050565b7f5705f5753aa4f617eef2cae1dada3d3355e9387b04d19191f09b545e684ca50d5473ffffffffffffffffffffffffffffffffffffffff163373ffffffffffffffffffffffffffffffffffffffff1614611330576040517f08c379a000000000000000000000000000000000000000000000000000000000815260206004820152601e60248201527f484f4c4f47524150483a2061646d696e206f6e6c792066756e6374696f6e000060448201526064016103ee565b7f5705f5753aa4f617eef2cae1dada3d3355e9387b04d19191f09b545e684ca50d55565b7f5705f5753aa4f617eef2cae1dada3d3355e9387b04d19191f09b545e684ca50d5473ffffffffffffffffffffffffffffffffffffffff163373ffffffffffffffffffffffffffffffffffffffff161461140a576040517f08c379a000000000000000000000000000000000000000000000000000000000815260206004820152601e60248201527f484f4c4f47524150483a2061646d696e206f6e6c792066756e6374696f6e000060448201526064016103ee565b60005b828110156114e4578160008087600381111561142b5761142b612616565b600381111561143c5761143c612616565b8152602001908152602001600020600086868581811061145e5761145e612662565b90506020020160208101906114739190612713565b7fffffffff00000000000000000000000000000000000000000000000000000000168152602081019190915260400160002080547fffffffffffffffffffffffffffffffffffffffffffffffffffffffffffffff0016911515919091179055806114dc816126db565b91505061140d565b5050505050565b606061153b89898b8b8b8b8b8b6115058c61ffff1661181f565b61150e8c61197f565b6040516020016115279a9998979695949392919061272e565b604051602081830303815290604052611b03565b60405160200161154b91906128ab565b604051602081830303815290604052905098975050505050505050565b600080600084600381111561157f5761157f612616565b600381111561159057611590612616565b8152602080820192909252604090810160009081207fffffffff000000000000000000000000000000000000000000000000000000008616825290925290205460ff1690505b92915050565b7f5705f5753aa4f617eef2cae1dada3d3355e9387b04d19191f09b545e684ca50d5473ffffffffffffffffffffffffffffffffffffffff163373ffffffffffffffffffffffffffffffffffffffff1614611692576040517f08c379a000000000000000000000000000000000000000000000000000000000815260206004820152601e60248201527f484f4c4f47524150483a2061646d696e206f6e6c792066756e6374696f6e000060448201526064016103ee565b80600160008660058111156116a9576116a9612616565b60058111156116ba576116ba612616565b8152602001908152602001600020600085815260200190815260200160002060008460058111156116ed576116ed612616565b60058111156116fe576116fe612616565b815260208101919091526040016000205550505050565b7f5705f5753aa4f617eef2cae1dada3d3355e9387b04d19191f09b545e684ca50d5473ffffffffffffffffffffffffffffffffffffffff163373ffffffffffffffffffffffffffffffffffffffff16146117cb576040517f08c379a000000000000000000000000000000000000000000000000000000000815260206004820152601e60248201527f484f4c4f47524150483a2061646d696e206f6e6c792066756e6374696f6e000060448201526064016103ee565b808260003760008082600034875af13d6000803e8080156117eb573d6000f35b3d6000fd5b600061181a7f5705f5753aa4f617eef2cae1dada3d3355e9387b04d19191f09b545e684ca50d5490565b905090565b60608160000361186257505060408051808201909152600181527f3000000000000000000000000000000000000000000000000000000000000000602082015290565b8160005b811561188c5780611876816126db565b91506118859050600a8361291f565b9150611866565b60008167ffffffffffffffff8111156118a7576118a761207b565b6040519080825280601f01601f1916602001820160405280156118d1576020820181803683370190505b509050815b8515611976576118e7600182612933565b905060006118f6600a8861291f565b61190190600a61294a565b61190b9088612933565b611916906030612987565b905060008160f81b90508084848151811061193357611933612662565b60200101907effffffffffffffffffffffffffffffffffffffffffffffffffffffffffffff1916908160001a90535061196d600a8961291f565b975050506118d6565b50949350505050565b60408051602880825260608281019093526000919060208201818036833701905050905060005b6014811015611afc5760006119bc826013612933565b6119c790600861294a565b6119d2906002612acc565b6119f29073ffffffffffffffffffffffffffffffffffffffff871661291f565b60f81b9050600060108260f81c611a099190612ad8565b60f81b905060008160f81c6010611a209190612afa565b8360f81c611a2e9190612b1b565b60f81b9050611a3c82611eda565b85611a4886600261294a565b81518110611a5857611a58612662565b60200101907effffffffffffffffffffffffffffffffffffffffffffffffffffffffffffff1916908160001a905350611a9081611eda565b85611a9c86600261294a565b611aa7906001612b3e565b81518110611ab757611ab7612662565b60200101907effffffffffffffffffffffffffffffffffffffffffffffffffffffffffffff1916908160001a9053505050508080611af4906126db565b9150506119a6565b5092915050565b6060600060038351611b159190612b56565b905060006003611b258382612933565b611b2f9190612b56565b600385516002611b3f9190612b3e565b611b49919061291f565b611b5490600461294a565b611b5e9190612933565b905060008167ffffffffffffffff811115611b7b57611b7b61207b565b6040519080825280601f01601f191660200182016040528015611ba5576020820181803683370190505b5090506000805b8651611bb9836003612b3e565b11611d6357611c28878381518110611bd357611bd3612662565b016020015160f81c88611be7856001612b3e565b81518110611bf757611bf7612662565b016020015160f81c89611c0b866002612b3e565b81518110611c1b57611c1b612662565b016020015160f81c611f15565b868581518110611c3a57611c3a612662565b0160200187611c4a876001612b3e565b81518110611c5a57611c5a612662565b0160200188611c6a886002612b3e565b81518110611c7a57611c7a612662565b0160200189611c8a896003612b3e565b81518110611c9a57611c9a612662565b7fff00000000000000000000000000000000000000000000000000000000000000861660001a9101602001537fff00000000000000000000000000000000000000000000000000000000000000851660001a90537fff00000000000000000000000000000000000000000000000000000000000000851660001a90537fff00000000000000000000000000000000000000000000000000000000000000851660001a905350505050600481611d4f9190612b3e565b9050611d5c600383612b3e565b9150611bac565b8415611ecf57600087868951611d799190612933565b81518110611d8957611d89612662565b016020015160f81c905060006002879003611dc8578860018a51611dad9190612933565b81518110611dbd57611dbd612662565b016020015160f81c90505b6000806000611ddf8560ff168560ff166000611f15565b5092509250925082888781518110611df957611df9612662565b60200101907effffffffffffffffffffffffffffffffffffffffffffffffffffffffffffff1916908160001a9053508188611e35886001612b3e565b81518110611e4557611e45612662565b60200101907effffffffffffffffffffffffffffffffffffffffffffffffffffffffffffff1916908160001a90535089600203611ec9578088611e89886002612b3e565b81518110611e9957611e99612662565b60200101907effffffffffffffffffffffffffffffffffffffffffffffffffffffffffffff1916908160001a9053505b50505050505b509095945050505050565b6000600a60f883901c1015611f0157611ef860f883901c6030612987565b60f81b92915050565b611ef860f883901c6057612987565b919050565b60408051606081018252818152600091829182918291601089901b600889901b17871791603f601284901c811692600c85901c821692600686901c83169286169190612b6b60208301398481518110611f7057611f70612662565b602001015160f81c60f81b9850604051806060016040528060408152602001612b6b604091398381518110611fa757611fa7612662565b602001015160f81c60f81b9750604051806060016040528060408152602001612b6b604091398281518110611fde57611fde612662565b602001015160f81c60f81b9650604051806060016040528060408152602001612b6b60409139818151811061201557612015612662565b602001015160f81c60f81b9550505050505093509350935093565b803560068110611f1057600080fd5b60008060006060848603121561205457600080fd5b61205d84612030565b92506020840135915061207260408501612030565b90509250925092565b7f4e487b7100000000000000000000000000000000000000000000000000000000600052604160045260246000fd5b6000602082840312156120bc57600080fd5b813567ffffffffffffffff808211156120d457600080fd5b818401915084601f8301126120e857600080fd5b8135818111156120fa576120fa61207b565b604051601f82017fffffffffffffffffffffffffffffffffffffffffffffffffffffffffffffffe0908116603f011681019083821181831017156121405761214061207b565b8160405282815287602084870101111561215957600080fd5b826020860160208301376000928101602001929092525095945050505050565b60008083601f84011261218b57600080fd5b50813567ffffffffffffffff8111156121a357600080fd5b6020830191508360208260051b85010111156121be57600080fd5b9250929050565b6000806000806000806000806080898b0312156121e157600080fd5b883567ffffffffffffffff808211156121f957600080fd5b6122058c838d01612179565b909a50985060208b013591508082111561221e57600080fd5b61222a8c838d01612179565b909850965060408b013591508082111561224357600080fd5b61224f8c838d01612179565b909650945060608b013591508082111561226857600080fd5b506122758b828c01612179565b999c989b5096995094979396929594505050565b803560048110611f1057600080fd5b80357fffffffff0000000000000000000000000000000000000000000000000000000081168114611f1057600080fd5b80358015158114611f1057600080fd5b6000806000606084860312156122ed57600080fd5b6122f684612289565b925061230460208501612298565b9150612072604085016122c8565b73ffffffffffffffffffffffffffffffffffffffff8116811461233457600080fd5b50565b60006020828403121561234957600080fd5b813561235481612312565b9392505050565b6000806000806060858703121561237157600080fd5b61237a85612289565b9350602085013567ffffffffffffffff81111561239657600080fd5b6123a287828801612179565b90945092506123b59050604086016122c8565b905092959194509250565b60008083601f8401126123d257600080fd5b50813567ffffffffffffffff8111156123ea57600080fd5b6020830191508360208285010111156121be57600080fd5b60008060008060008060008060a0898b03121561241e57600080fd5b883567ffffffffffffffff8082111561243657600080fd5b6124428c838d016123c0565b909a50985060208b013591508082111561245b57600080fd5b6124678c838d016123c0565b909850965060408b013591508082111561248057600080fd5b5061248d8b828c016123c0565b909550935050606089013561ffff811681146124a857600080fd5b915060808901356124b881612312565b809150509295985092959890939650565b60005b838110156124e45781810151838201526020016124cc565b838111156124f3576000848401525b50505050565b60208152600082518060208401526125188160408501602087016124c9565b601f017fffffffffffffffffffffffffffffffffffffffffffffffffffffffffffffffe0169190910160400192915050565b6000806040838503121561255d57600080fd5b61256683612289565b915061257460208401612298565b90509250929050565b6000806000806080858703121561259357600080fd5b61259c85612030565b9350602085013592506125b160408601612030565b9396929550929360600135925050565b6000806000604084860312156125d657600080fd5b83356125e181612312565b9250602084013567ffffffffffffffff8111156125fd57600080fd5b612609868287016123c0565b9497909650939450505050565b7f4e487b7100000000000000000000000000000000000000000000000000000000600052602160045260246000fd5b60006020828403121561265757600080fd5b815161235481612312565b7f4e487b7100000000000000000000000000000000000000000000000000000000600052603260045260246000fd5b6000602082840312156126a357600080fd5b61235482612030565b7f4e487b7100000000000000000000000000000000000000000000000000000000600052601160045260246000fd5b60007fffffffffffffffffffffffffffffffffffffffffffffffffffffffffffffffff820361270c5761270c6126ac565b5060010190565b60006020828403121561272557600080fd5b61235482612298565b7f7b226e616d65223a2200000000000000000000000000000000000000000000008152898b600983013760008a82017f222c226465736372697074696f6e223a220000000000000000000000000000006009820152898b601a8301377f222c22696d616765223a22000000000000000000000000000000000000000000601a918b0191820152878960258301377f222c2265787465726e616c5f6c696e6b223a2200000000000000000000000000602591890191820152858760388301377f222c2273656c6c65725f6665655f62617369735f706f696e7473223a0000000060389187019182015284516128298160548401602089016124c9565b7f2c226665655f726563697069656e74223a2230780000000000000000000000006054929091019182015283516128678160688401602088016124c9565b6128996068828401017f227d000000000000000000000000000000000000000000000000000000000000815260020190565b9e9d5050505050505050505050505050565b7f646174613a6170706c69636174696f6e2f6a736f6e3b6261736536342c0000008152600082516128e381601d8501602087016124c9565b91909101601d0192915050565b7f4e487b7100000000000000000000000000000000000000000000000000000000600052601260045260246000fd5b60008261292e5761292e6128f0565b500490565b600082821015612945576129456126ac565b500390565b6000817fffffffffffffffffffffffffffffffffffffffffffffffffffffffffffffffff0483118215151615612982576129826126ac565b500290565b600060ff821660ff84168060ff038211156129a4576129a46126ac565b019392505050565b600181815b80851115612a0557817fffffffffffffffffffffffffffffffffffffffffffffffffffffffffffffffff048211156129eb576129eb6126ac565b808516156129f857918102915b93841c93908002906129b1565b509250929050565b600082612a1c575060016115d6565b81612a29575060006115d6565b8160018114612a3f5760028114612a4957612a65565b60019150506115d6565b60ff841115612a5a57612a5a6126ac565b50506001821b6115d6565b5060208310610133831016604e8410600b8410161715612a88575081810a6115d6565b612a9283836129ac565b807fffffffffffffffffffffffffffffffffffffffffffffffffffffffffffffffff04821115612ac457612ac46126ac565b029392505050565b60006123548383612a0d565b600060ff831680612aeb57612aeb6128f0565b8060ff84160491505092915050565b600060ff821660ff84168160ff0481118215151615612ac457612ac46126ac565b600060ff821660ff841680821015612b3557612b356126ac565b90039392505050565b60008219821115612b5157612b516126ac565b500190565b600082612b6557612b656128f0565b50069056fe4142434445464748494a4b4c4d4e4f505152535455565758595a6162636465666768696a6b6c6d6e6f707172737475767778797a303132333435363738392d5fa164736f6c634300080d000a",
  "devdoc": {
    "kind": "dev",
    "methods": {},
    "version": 1
  },
  "userdoc": {
    "kind": "user",
    "methods": {},
    "version": 1
  },
  "storageLayout": {
    "storage": [
      {
        "astId": 6666,
        "contract": "contracts/Interfaces.sol:Interfaces",
        "label": "_supportedInterfaces",
        "offset": 0,
        "slot": "0",
        "type": "t_mapping(t_enum(InterfaceType)12195,t_mapping(t_bytes4,t_bool))"
      },
      {
        "astId": 6676,
        "contract": "contracts/Interfaces.sol:Interfaces",
        "label": "_chainIdMap",
        "offset": 0,
        "slot": "1",
        "type": "t_mapping(t_enum(ChainIdType)12152,t_mapping(t_uint256,t_mapping(t_enum(ChainIdType)12152,t_uint256)))"
      }
    ],
    "types": {
      "t_bool": {
        "encoding": "inplace",
        "label": "bool",
        "numberOfBytes": "1"
      },
      "t_bytes4": {
        "encoding": "inplace",
        "label": "bytes4",
        "numberOfBytes": "4"
      },
      "t_enum(ChainIdType)12152": {
        "encoding": "inplace",
        "label": "enum ChainIdType",
        "numberOfBytes": "1"
      },
      "t_enum(InterfaceType)12195": {
        "encoding": "inplace",
        "label": "enum InterfaceType",
        "numberOfBytes": "1"
      },
      "t_mapping(t_bytes4,t_bool)": {
        "encoding": "mapping",
        "key": "t_bytes4",
        "label": "mapping(bytes4 => bool)",
        "numberOfBytes": "32",
        "value": "t_bool"
      },
      "t_mapping(t_enum(ChainIdType)12152,t_mapping(t_uint256,t_mapping(t_enum(ChainIdType)12152,t_uint256)))": {
        "encoding": "mapping",
        "key": "t_enum(ChainIdType)12152",
        "label": "mapping(enum ChainIdType => mapping(uint256 => mapping(enum ChainIdType => uint256)))",
        "numberOfBytes": "32",
        "value": "t_mapping(t_uint256,t_mapping(t_enum(ChainIdType)12152,t_uint256))"
      },
      "t_mapping(t_enum(ChainIdType)12152,t_uint256)": {
        "encoding": "mapping",
        "key": "t_enum(ChainIdType)12152",
        "label": "mapping(enum ChainIdType => uint256)",
        "numberOfBytes": "32",
        "value": "t_uint256"
      },
      "t_mapping(t_enum(InterfaceType)12195,t_mapping(t_bytes4,t_bool))": {
        "encoding": "mapping",
        "key": "t_enum(InterfaceType)12195",
        "label": "mapping(enum InterfaceType => mapping(bytes4 => bool))",
        "numberOfBytes": "32",
        "value": "t_mapping(t_bytes4,t_bool)"
      },
      "t_mapping(t_uint256,t_mapping(t_enum(ChainIdType)12152,t_uint256))": {
        "encoding": "mapping",
        "key": "t_uint256",
        "label": "mapping(uint256 => mapping(enum ChainIdType => uint256))",
        "numberOfBytes": "32",
        "value": "t_mapping(t_enum(ChainIdType)12152,t_uint256)"
      },
      "t_uint256": {
        "encoding": "inplace",
        "label": "uint256",
        "numberOfBytes": "32"
      }
    }
  }
}