{
  "address": "0x6eDcb79a7E8f04904E354221dCb7fa5827b704d7",
  "abi": [
    {
      "inputs": [],
      "stateMutability": "nonpayable",
      "type": "constructor"
    },
    {
      "anonymous": false,
      "inputs": [
        {
          "indexed": true,
          "internalType": "address",
          "name": "previousOwner",
          "type": "address"
        },
        {
          "indexed": true,
          "internalType": "address",
          "name": "newOwner",
          "type": "address"
        }
      ],
      "name": "OwnershipTransferred",
      "type": "event"
    },
    {
      "inputs": [],
      "name": "admin",
      "outputs": [
        {
          "internalType": "address",
          "name": "",
          "type": "address"
        }
      ],
      "stateMutability": "view",
      "type": "function"
    },
    {
      "inputs": [
        {
          "internalType": "address",
          "name": "target",
          "type": "address"
        },
        {
          "internalType": "bytes",
          "name": "data",
          "type": "bytes"
        }
      ],
      "name": "adminCall",
      "outputs": [],
      "stateMutability": "payable",
      "type": "function"
    },
    {
      "inputs": [],
      "name": "getAdmin",
      "outputs": [
        {
          "internalType": "address",
          "name": "adminAddress",
          "type": "address"
        }
      ],
      "stateMutability": "view",
      "type": "function"
    },
    {
      "inputs": [],
      "name": "getOwner",
      "outputs": [
        {
          "internalType": "address",
          "name": "ownerAddress",
          "type": "address"
        }
      ],
      "stateMutability": "view",
      "type": "function"
    },
    {
      "inputs": [
        {
          "internalType": "bytes32",
          "name": "slot",
          "type": "bytes32"
        }
      ],
      "name": "getSlot",
      "outputs": [
        {
          "internalType": "bytes32",
          "name": "data",
          "type": "bytes32"
        }
      ],
      "stateMutability": "view",
      "type": "function"
    },
    {
      "inputs": [
        {
          "internalType": "bytes",
          "name": "data",
          "type": "bytes"
        }
      ],
      "name": "init",
      "outputs": [
        {
          "internalType": "bytes4",
          "name": "",
          "type": "bytes4"
        }
      ],
      "stateMutability": "nonpayable",
      "type": "function"
    },
    {
      "inputs": [
        {
          "internalType": "bool",
          "name": "position",
          "type": "bool"
        }
      ],
      "name": "lock",
      "outputs": [],
      "stateMutability": "nonpayable",
      "type": "function"
    },
    {
      "inputs": [],
      "name": "owner",
      "outputs": [
        {
          "internalType": "address",
          "name": "",
          "type": "address"
        }
      ],
      "stateMutability": "view",
      "type": "function"
    },
    {
      "inputs": [
        {
          "internalType": "address",
          "name": "target",
          "type": "address"
        },
        {
          "internalType": "bytes",
          "name": "data",
          "type": "bytes"
        }
      ],
      "name": "ownerCall",
      "outputs": [],
      "stateMutability": "payable",
      "type": "function"
    },
    {
      "inputs": [
        {
          "internalType": "address",
          "name": "adminAddress",
          "type": "address"
        }
      ],
      "name": "setAdmin",
      "outputs": [],
      "stateMutability": "nonpayable",
      "type": "function"
    },
    {
      "inputs": [
        {
          "internalType": "address",
          "name": "ownerAddress",
          "type": "address"
        }
      ],
      "name": "setOwner",
      "outputs": [],
      "stateMutability": "nonpayable",
      "type": "function"
    },
    {
      "inputs": [
        {
          "internalType": "bytes32",
          "name": "slot",
          "type": "bytes32"
        },
        {
          "internalType": "bytes32",
          "name": "data",
          "type": "bytes32"
        }
      ],
      "name": "setSlot",
      "outputs": [],
      "stateMutability": "nonpayable",
      "type": "function"
    },
    {
      "inputs": [
        {
          "internalType": "address",
          "name": "newOwner",
          "type": "address"
        }
      ],
      "name": "transferOwnership",
      "outputs": [],
      "stateMutability": "nonpayable",
      "type": "function"
    }
  ],
  "transactionHash": "0x329e93d52123708c57cf8c8e0de3514030ed1c6c2c4522cda7b12062fb386c75",
  "args": [],
  "numDeployments": 1,
  "solcInputHash": "fce9b8e72ee392c2ed836f8a75e0bbef",
  "bytecode": "0x608060405234801561001057600080fd5b5061101e806100206000396000f3fe6080604052600436106100d25760003560e01c8063893d20e81161007f578063d3607ed911610059578063d3607ed91461026d578063eb66dbcf1461028d578063f2fde38b146102a0578063f851a440146102c057600080fd5b8063893d20e8146102115780638da5cb5b14610245578063bf64a82d1461025a57600080fd5b80636317e00b116100b05780636317e00b1461016f5780636e9960c31461019c578063704b6c02146101f157600080fd5b80630dd0a042146100d757806313af4035146100f95780634ddf47d414610119575b600080fd5b3480156100e357600080fd5b506100f76100f2366004610dcb565b6102d5565b005b34801561010557600080fd5b506100f7610114366004610e19565b610488565b34801561012557600080fd5b50610139610134366004610e65565b610642565b6040517fffffffff0000000000000000000000000000000000000000000000000000000090911681526020015b60405180910390f35b34801561017b57600080fd5b5061018e61018a366004610f34565b5490565b604051908152602001610166565b3480156101a857600080fd5b507f5705f5753aa4f617eef2cae1dada3d3355e9387b04d19191f09b545e684ca50d545b60405173ffffffffffffffffffffffffffffffffffffffff9091168152602001610166565b3480156101fd57600080fd5b506100f761020c366004610e19565b610784565b34801561021d57600080fd5b507f89b583059fdb0b2e807359b64eba1a8a1e6d099210701fafe6dad5dd2cd64fb8546101cc565b34801561025157600080fd5b506101cc61085e565b6100f7610268366004610f4d565b61088d565b34801561027957600080fd5b506100f7610288366004610fd2565b610968565b6100f761029b366004610f4d565b610ae6565b3480156102ac57600080fd5b506100f76102bb366004610e19565b610bf3565b3480156102cc57600080fd5b506101cc610da1565b7f89b583059fdb0b2e807359b64eba1a8a1e6d099210701fafe6dad5dd2cd64fb85473ffffffffffffffffffffffffffffffffffffffff163373ffffffffffffffffffffffffffffffffffffffff16148061037c57507f5705f5753aa4f617eef2cae1dada3d3355e9387b04d19191f09b545e684ca50d5473ffffffffffffffffffffffffffffffffffffffff163373ffffffffffffffffffffffffffffffffffffffff16145b6103e7576040517f08c379a000000000000000000000000000000000000000000000000000000000815260206004820152601e60248201527f484f4c4f47524150483a20756e617574686f72697365642073656e646572000060448201526064015b60405180910390fd5b60005460ff1615610454576040517f08c379a000000000000000000000000000000000000000000000000000000000815260206004820152601c60248201527f484f4c4f47524150483a2073746f72616765204953206c6f636b65640000000060448201526064016103de565b600080547fffffffffffffffffffffffffffffffffffffffffffffffffffffffffffffff0090811692151516919091179055565b7f89b583059fdb0b2e807359b64eba1a8a1e6d099210701fafe6dad5dd2cd64fb85473ffffffffffffffffffffffffffffffffffffffff163373ffffffffffffffffffffffffffffffffffffffff16148061052f57507f5705f5753aa4f617eef2cae1dada3d3355e9387b04d19191f09b545e684ca50d5473ffffffffffffffffffffffffffffffffffffffff163373ffffffffffffffffffffffffffffffffffffffff16145b610595576040517f08c379a000000000000000000000000000000000000000000000000000000000815260206004820152601e60248201527f484f4c4f47524150483a20756e617574686f72697365642073656e646572000060448201526064016103de565b60006105bf7f89b583059fdb0b2e807359b64eba1a8a1e6d099210701fafe6dad5dd2cd64fb85490565b9050817f89b583059fdb0b2e807359b64eba1a8a1e6d099210701fafe6dad5dd2cd64fb8558173ffffffffffffffffffffffffffffffffffffffff168173ffffffffffffffffffffffffffffffffffffffff167f8be0079c531659141344cd1fd0a4f28419497f9722a3daafe3b4186f6b6457e060405160405180910390a35050565b600061066e7f4e5f991bca30eca2d4643aaefa807e88f96a4a97398933d572a3c0d973004a0154151590565b156106d5576040517f08c379a000000000000000000000000000000000000000000000000000000000815260206004820152601e60248201527f484f4c4f47524150483a20616c726561647920696e697469616c697a6564000060448201526064016103de565b6000828060200190518101906106eb9190610ff4565b9050807f89b583059fdb0b2e807359b64eba1a8a1e6d099210701fafe6dad5dd2cd64fb855327f5705f5753aa4f617eef2cae1dada3d3355e9387b04d19191f09b545e684ca50d5561075c60017f4e5f991bca30eca2d4643aaefa807e88f96a4a97398933d572a3c0d973004a0155565b507f4ddf47d40000000000000000000000000000000000000000000000000000000092915050565b7f5705f5753aa4f617eef2cae1dada3d3355e9387b04d19191f09b545e684ca50d5473ffffffffffffffffffffffffffffffffffffffff163373ffffffffffffffffffffffffffffffffffffffff161461083a576040517f08c379a000000000000000000000000000000000000000000000000000000000815260206004820152601e60248201527f484f4c4f47524150483a2061646d696e206f6e6c792066756e6374696f6e000060448201526064016103de565b7f5705f5753aa4f617eef2cae1dada3d3355e9387b04d19191f09b545e684ca50d55565b60006108887f89b583059fdb0b2e807359b64eba1a8a1e6d099210701fafe6dad5dd2cd64fb85490565b905090565b7f5705f5753aa4f617eef2cae1dada3d3355e9387b04d19191f09b545e684ca50d5473ffffffffffffffffffffffffffffffffffffffff163373ffffffffffffffffffffffffffffffffffffffff1614610943576040517f08c379a000000000000000000000000000000000000000000000000000000000815260206004820152601e60248201527f484f4c4f47524150483a2061646d696e206f6e6c792066756e6374696f6e000060448201526064016103de565b808260003760008082600034875af13d6000803e808015610963573d6000f35b3d6000fd5b60005460ff16156109d5576040517f08c379a000000000000000000000000000000000000000000000000000000000815260206004820152601960248201527f484f4c4f47524150483a2073746f72616765206c6f636b65640000000000000060448201526064016103de565b7f89b583059fdb0b2e807359b64eba1a8a1e6d099210701fafe6dad5dd2cd64fb85473ffffffffffffffffffffffffffffffffffffffff163373ffffffffffffffffffffffffffffffffffffffff161480610a7c57507f5705f5753aa4f617eef2cae1dada3d3355e9387b04d19191f09b545e684ca50d5473ffffffffffffffffffffffffffffffffffffffff163373ffffffffffffffffffffffffffffffffffffffff16145b610ae2576040517f08c379a000000000000000000000000000000000000000000000000000000000815260206004820152601e60248201527f484f4c4f47524150483a20756e617574686f72697365642073656e646572000060448201526064016103de565b9055565b7f89b583059fdb0b2e807359b64eba1a8a1e6d099210701fafe6dad5dd2cd64fb85473ffffffffffffffffffffffffffffffffffffffff163373ffffffffffffffffffffffffffffffffffffffff161480610b8d57507f5705f5753aa4f617eef2cae1dada3d3355e9387b04d19191f09b545e684ca50d5473ffffffffffffffffffffffffffffffffffffffff163373ffffffffffffffffffffffffffffffffffffffff16145b610943576040517f08c379a000000000000000000000000000000000000000000000000000000000815260206004820152601e60248201527f484f4c4f47524150483a20756e617574686f72697365642073656e646572000060448201526064016103de565b7f89b583059fdb0b2e807359b64eba1a8a1e6d099210701fafe6dad5dd2cd64fb85473ffffffffffffffffffffffffffffffffffffffff163373ffffffffffffffffffffffffffffffffffffffff161480610c9a57507f5705f5753aa4f617eef2cae1dada3d3355e9387b04d19191f09b545e684ca50d5473ffffffffffffffffffffffffffffffffffffffff163373ffffffffffffffffffffffffffffffffffffffff16145b610d00576040517f08c379a000000000000000000000000000000000000000000000000000000000815260206004820152601e60248201527f484f4c4f47524150483a20756e617574686f72697365642073656e646572000060448201526064016103de565b73ffffffffffffffffffffffffffffffffffffffff8116610d7d576040517f08c379a000000000000000000000000000000000000000000000000000000000815260206004820152601760248201527f484f4c4f47524150483a207a65726f206164647265737300000000000000000060448201526064016103de565b7f89b583059fdb0b2e807359b64eba1a8a1e6d099210701fafe6dad5dd2cd64fb855565b60006108887f5705f5753aa4f617eef2cae1dada3d3355e9387b04d19191f09b545e684ca50d5490565b600060208284031215610ddd57600080fd5b81358015158114610ded57600080fd5b9392505050565b73ffffffffffffffffffffffffffffffffffffffff81168114610e1657600080fd5b50565b600060208284031215610e2b57600080fd5b8135610ded81610df4565b7f4e487b7100000000000000000000000000000000000000000000000000000000600052604160045260246000fd5b600060208284031215610e7757600080fd5b813567ffffffffffffffff80821115610e8f57600080fd5b818401915084601f830112610ea357600080fd5b813581811115610eb557610eb5610e36565b604051601f82017fffffffffffffffffffffffffffffffffffffffffffffffffffffffffffffffe0908116603f01168101908382118183101715610efb57610efb610e36565b81604052828152876020848701011115610f1457600080fd5b826020860160208301376000928101602001929092525095945050505050565b600060208284031215610f4657600080fd5b5035919050565b600080600060408486031215610f6257600080fd5b8335610f6d81610df4565b9250602084013567ffffffffffffffff80821115610f8a57600080fd5b818601915086601f830112610f9e57600080fd5b813581811115610fad57600080fd5b876020828501011115610fbf57600080fd5b6020830194508093505050509250925092565b60008060408385031215610fe557600080fd5b50508035926020909101359150565b60006020828403121561100657600080fd5b8151610ded81610df456fea164736f6c634300080d000a",
  "devdoc": {
    "kind": "dev",
    "methods": {},
    "stateVariables": {
      "_locked": {
        "details": "Boolean indicating if storage writing is locked. Used to prevent delegated contracts access."
      }
    },
    "version": 1
  },
  "userdoc": {
    "kind": "user",
    "methods": {},
    "version": 1
  },
  "storageLayout": {
    "storage": [
      {
        "astId": 9096,
        "contract": "contracts/SecureStorage.sol:SecureStorage",
        "label": "_locked",
        "offset": 0,
        "slot": "0",
        "type": "t_bool"
      }
    ],
    "types": {
      "t_bool": {
        "encoding": "inplace",
        "label": "bool",
        "numberOfBytes": "1"
      }
    }
  }
}