{
  "address": "0xc25cB8504f400528823451D38628365d50494e43",
  "abi": [
    {
      "inputs": [],
      "stateMutability": "nonpayable",
      "type": "constructor"
    },
    {
      "inputs": [],
      "name": "faucetCooldown",
      "outputs": [
        {
          "internalType": "uint256",
          "name": "",
          "type": "uint256"
        }
      ],
      "stateMutability": "view",
      "type": "function"
    },
    {
      "inputs": [],
      "name": "faucetDripAmount",
      "outputs": [
        {
          "internalType": "uint256",
          "name": "",
          "type": "uint256"
        }
      ],
      "stateMutability": "view",
      "type": "function"
    },
    {
      "inputs": [
        {
          "internalType": "address",
          "name": "_address",
          "type": "address"
        }
      ],
      "name": "getLastAccessTime",
      "outputs": [
        {
          "internalType": "uint256",
          "name": "",
          "type": "uint256"
        }
      ],
      "stateMutability": "view",
      "type": "function"
    },
    {
      "inputs": [
        {
          "internalType": "address",
          "name": "_address",
          "type": "address"
        }
      ],
      "name": "grantTokens",
      "outputs": [],
      "stateMutability": "nonpayable",
      "type": "function"
    },
    {
      "inputs": [
        {
          "internalType": "address",
          "name": "_address",
          "type": "address"
        },
        {
          "internalType": "uint256",
          "name": "_amountWei",
          "type": "uint256"
        }
      ],
      "name": "grantTokens",
      "outputs": [],
      "stateMutability": "nonpayable",
      "type": "function"
    },
    {
      "inputs": [
        {
          "internalType": "bytes",
          "name": "data",
          "type": "bytes"
        }
      ],
      "name": "init",
      "outputs": [
        {
          "internalType": "bytes4",
          "name": "",
          "type": "bytes4"
        }
      ],
      "stateMutability": "nonpayable",
      "type": "function"
    },
    {
      "inputs": [
        {
          "internalType": "address",
          "name": "_address",
          "type": "address"
        }
      ],
      "name": "isAllowedToWithdraw",
      "outputs": [
        {
          "internalType": "bool",
          "name": "",
          "type": "bool"
        }
      ],
      "stateMutability": "view",
      "type": "function"
    },
    {
      "inputs": [],
      "name": "owner",
      "outputs": [
        {
          "internalType": "address",
          "name": "",
          "type": "address"
        }
      ],
      "stateMutability": "view",
      "type": "function"
    },
    {
      "inputs": [],
      "name": "requestTokens",
      "outputs": [],
      "stateMutability": "nonpayable",
      "type": "function"
    },
    {
      "inputs": [
        {
          "internalType": "uint256",
          "name": "_amountWei",
          "type": "uint256"
        }
      ],
      "name": "setWithdrawAmount",
      "outputs": [],
      "stateMutability": "nonpayable",
      "type": "function"
    },
    {
      "inputs": [
        {
          "internalType": "uint256",
          "name": "_waitTimeSeconds",
          "type": "uint256"
        }
      ],
      "name": "setWithdrawCooldown",
      "outputs": [],
      "stateMutability": "nonpayable",
      "type": "function"
    },
    {
      "inputs": [],
      "name": "token",
      "outputs": [
        {
          "internalType": "contract ERC20Holograph",
          "name": "",
          "type": "address"
        }
      ],
      "stateMutability": "view",
      "type": "function"
    },
    {
      "inputs": [
        {
          "internalType": "address",
          "name": "_receiver",
          "type": "address"
        }
      ],
      "name": "withdrawAllTokens",
      "outputs": [],
      "stateMutability": "nonpayable",
      "type": "function"
    },
    {
      "inputs": [
        {
          "internalType": "address",
          "name": "_receiver",
          "type": "address"
        },
        {
          "internalType": "uint256",
          "name": "_amountWei",
          "type": "uint256"
        }
      ],
      "name": "withdrawTokens",
      "outputs": [],
      "stateMutability": "nonpayable",
      "type": "function"
    }
  ],
  "transactionHash": "0x083ed2c9439d59b4bbfc30e4223cf9cf61c98a284d22396d3c4e2a6a1a7b9fa5",
  "args": [],
  "numDeployments": 1,
  "solcInputHash": "ac303f393f9669983bc219896de79206",
  "bytecode": "0x608060405268056bc75e2d631000006002556201518060035534801561002457600080fd5b50610f9a806100346000396000f3fe608060405234801561001057600080fd5b50600436106100ea5760003560e01c80638da5cb5b1161008c578063b3d2b44111610066578063b3d2b44114610239578063c94e643c146100ef578063ceb04e291461024c578063fc0c546a1461025f57600080fd5b80638da5cb5b146101d8578063905467f61461021d578063a878aee61461022657600080fd5b806336cec69b116100c857806336cec69b1461013457806344feed29146101785780634ddf47d41461018b5780637e36320b146101cf57600080fd5b806306b091f9146100ef5780632a4c80a414610104578063359cf2b71461012c575b600080fd5b6101026100fd366004610d72565b61027f565b005b610117610112366004610d9e565b6104a1565b60405190151581526020015b60405180910390f35b61010261051e565b61016a610142366004610d9e565b73ffffffffffffffffffffffffffffffffffffffff1660009081526004602052604090205490565b604051908152602001610123565b610102610186366004610dc2565b610742565b61019e610199366004610e0a565b6107c8565b6040517fffffffff000000000000000000000000000000000000000000000000000000009091168152602001610123565b61016a60035481565b6000546101f89073ffffffffffffffffffffffffffffffffffffffff1681565b60405173ffffffffffffffffffffffffffffffffffffffff9091168152602001610123565b61016a60025481565b610102610234366004610d9e565b610934565b610102610247366004610d9e565b610aea565b61010261025a366004610dc2565b610cca565b6001546101f89073ffffffffffffffffffffffffffffffffffffffff1681565b60005473ffffffffffffffffffffffffffffffffffffffff163314610305576040517f08c379a000000000000000000000000000000000000000000000000000000000815260206004820152601760248201527f43616c6c6572206973206e6f7420746865206f776e657200000000000000000060448201526064015b60405180910390fd5b6001546040517f70a08231000000000000000000000000000000000000000000000000000000008152306004820152829173ffffffffffffffffffffffffffffffffffffffff16906370a0823190602401602060405180830381865afa158015610373573d6000803e3d6000fd5b505050506040513d601f19601f820116820180604052508101906103979190610ed9565b10156103ff576040517f08c379a000000000000000000000000000000000000000000000000000000000815260206004820152601260248201527f496e73756666696369656e742066756e6473000000000000000000000000000060448201526064016102fc565b6001546040517fa9059cbb00000000000000000000000000000000000000000000000000000000815273ffffffffffffffffffffffffffffffffffffffff8481166004830152602482018490529091169063a9059cbb906044016020604051808303816000875af1158015610478573d6000803e3d6000fd5b505050506040513d601f19601f8201168201806040525081019061049c9190610ef2565b505050565b73ffffffffffffffffffffffffffffffffffffffff811660009081526004602052604081205481036104d557506001919050565b60035473ffffffffffffffffffffffffffffffffffffffff83166000908152600460205260409020546105089190610f14565b421061051657506001919050565b506000919050565b610527336104a1565b61058d576040517f08c379a000000000000000000000000000000000000000000000000000000000815260206004820152600f60248201527f436f6d65206261636b206c61746572000000000000000000000000000000000060448201526064016102fc565b6002546001546040517f70a0823100000000000000000000000000000000000000000000000000000000815230600482015273ffffffffffffffffffffffffffffffffffffffff909116906370a0823190602401602060405180830381865afa1580156105fe573d6000803e3d6000fd5b505050506040513d601f19601f820116820180604052508101906106229190610ed9565b101561068a576040517f08c379a000000000000000000000000000000000000000000000000000000000815260206004820152600f60248201527f46617563657420697320656d707479000000000000000000000000000000000060448201526064016102fc565b3360008181526004602081905260409182902042905560015460025492517fa9059cbb00000000000000000000000000000000000000000000000000000000815291820193909352602481019190915273ffffffffffffffffffffffffffffffffffffffff9091169063a9059cbb906044016020604051808303816000875af115801561071b573d6000803e3d6000fd5b505050506040513d601f19601f8201168201806040525081019061073f9190610ef2565b50565b60005473ffffffffffffffffffffffffffffffffffffffff1633146107c3576040517f08c379a000000000000000000000000000000000000000000000000000000000815260206004820152601760248201527f43616c6c6572206973206e6f7420746865206f776e657200000000000000000060448201526064016102fc565b600355565b60006107f27f4e5f991bca30eca2d4643aaefa807e88f96a4a97398933d572a3c0d973004a015490565b1561087f576040517f08c379a000000000000000000000000000000000000000000000000000000000815260206004820152602660248201527f46617563657420636f6e747261637420697320616c726561647920696e69746960448201527f616c697a6564000000000000000000000000000000000000000000000000000060648201526084016102fc565b600080838060200190518101906108969190610f53565b6001805473ffffffffffffffffffffffffffffffffffffffff9283167fffffffffffffffffffffffff0000000000000000000000000000000000000000918216178255600080549490931693169290921790557f4e5f991bca30eca2d4643aaefa807e88f96a4a97398933d572a3c0d973004a0155507f4ddf47d4000000000000000000000000000000000000000000000000000000009392505050565b60005473ffffffffffffffffffffffffffffffffffffffff1633146109b5576040517f08c379a000000000000000000000000000000000000000000000000000000000815260206004820152601760248201527f43616c6c6572206973206e6f7420746865206f776e657200000000000000000060448201526064016102fc565b6001546040517f70a0823100000000000000000000000000000000000000000000000000000000815230600482015273ffffffffffffffffffffffffffffffffffffffff9091169063a9059cbb90839083906370a0823190602401602060405180830381865afa158015610a2d573d6000803e3d6000fd5b505050506040513d601f19601f82011682018060405250810190610a519190610ed9565b6040517fffffffff0000000000000000000000000000000000000000000000000000000060e085901b16815273ffffffffffffffffffffffffffffffffffffffff909216600483015260248201526044015b6020604051808303816000875af1158015610ac2573d6000803e3d6000fd5b505050506040513d601f19601f82011682018060405250810190610ae69190610ef2565b5050565b60005473ffffffffffffffffffffffffffffffffffffffff163314610b6b576040517f08c379a000000000000000000000000000000000000000000000000000000000815260206004820152601760248201527f43616c6c6572206973206e6f7420746865206f776e657200000000000000000060448201526064016102fc565b6002546001546040517f70a0823100000000000000000000000000000000000000000000000000000000815230600482015273ffffffffffffffffffffffffffffffffffffffff909116906370a0823190602401602060405180830381865afa158015610bdc573d6000803e3d6000fd5b505050506040513d601f19601f82011682018060405250810190610c009190610ed9565b1015610c68576040517f08c379a000000000000000000000000000000000000000000000000000000000815260206004820152600f60248201527f46617563657420697320656d707479000000000000000000000000000000000060448201526064016102fc565b6001546002546040517fa9059cbb00000000000000000000000000000000000000000000000000000000815273ffffffffffffffffffffffffffffffffffffffff8481166004830152602482019290925291169063a9059cbb90604401610aa3565b60005473ffffffffffffffffffffffffffffffffffffffff163314610d4b576040517f08c379a000000000000000000000000000000000000000000000000000000000815260206004820152601760248201527f43616c6c6572206973206e6f7420746865206f776e657200000000000000000060448201526064016102fc565b600255565b73ffffffffffffffffffffffffffffffffffffffff8116811461073f57600080fd5b60008060408385031215610d8557600080fd5b8235610d9081610d50565b946020939093013593505050565b600060208284031215610db057600080fd5b8135610dbb81610d50565b9392505050565b600060208284031215610dd457600080fd5b5035919050565b7f4e487b7100000000000000000000000000000000000000000000000000000000600052604160045260246000fd5b600060208284031215610e1c57600080fd5b813567ffffffffffffffff80821115610e3457600080fd5b818401915084601f830112610e4857600080fd5b813581811115610e5a57610e5a610ddb565b604051601f82017fffffffffffffffffffffffffffffffffffffffffffffffffffffffffffffffe0908116603f01168101908382118183101715610ea057610ea0610ddb565b81604052828152876020848701011115610eb957600080fd5b826020860160208301376000928101602001929092525095945050505050565b600060208284031215610eeb57600080fd5b5051919050565b600060208284031215610f0457600080fd5b81518015158114610dbb57600080fd5b60008219821115610f4e577f4e487b7100000000000000000000000000000000000000000000000000000000600052601160045260246000fd5b500190565b60008060408385031215610f6657600080fd5b8251610f7181610d50565b6020840151909250610f8281610d50565b80915050925092905056fea164736f6c634300080d000a",
  "devdoc": {
    "kind": "dev",
    "methods": {
      "constructor": {
        "details": "To make exact CREATE2 deployment possible, constructor is left empty. We utilize the \"init\" function instead."
      },
      "init(bytes)": {
        "details": "Special function to allow a one time initialisation on deployment."
      }
    },
    "version": 1
  },
  "userdoc": {
    "kind": "user",
    "methods": {
      "constructor": {
        "notice": "Constructor is empty and not utilised."
      },
      "getLastAccessTime(address)": {
        "notice": "Get the last time the address withdrew tokens."
      },
      "grantTokens(address)": {
        "notice": "Grant tokens to receiver from faucet's own balance. Not rate limited."
      },
      "init(bytes)": {
        "notice": "Initializes the token."
      },
      "isAllowedToWithdraw(address)": {
        "notice": "Check whether an address can request drip and is not on cooldown."
      },
      "requestTokens()": {
        "notice": "Get tokens from faucet's own balance. Rate limited."
      },
      "setWithdrawAmount(uint256)": {
        "notice": "Configure the drip request amount. Amount is in wei."
      },
      "setWithdrawCooldown(uint256)": {
        "notice": "Configure the time between two drip requests. Time is in seconds."
      },
      "withdrawAllTokens(address)": {
        "notice": "Withdraw all funds from the faucet."
      },
      "withdrawTokens(address,uint256)": {
        "notice": "Withdraw amount of funds from the faucet. Amount is in wei."
      }
    },
    "version": 1
  },
  "storageLayout": {
    "storage": [
      {
        "astId": 12747,
        "contract": "contracts/faucet/Faucet.sol:Faucet",
        "label": "owner",
        "offset": 0,
        "slot": "0",
        "type": "t_address"
      },
      {
        "astId": 12750,
        "contract": "contracts/faucet/Faucet.sol:Faucet",
        "label": "token",
        "offset": 0,
        "slot": "1",
        "type": "t_contract(ERC20Holograph)13238"
      },
      {
        "astId": 12753,
        "contract": "contracts/faucet/Faucet.sol:Faucet",
        "label": "faucetDripAmount",
        "offset": 0,
        "slot": "2",
        "type": "t_uint256"
      },
      {
        "astId": 12756,
        "contract": "contracts/faucet/Faucet.sol:Faucet",
        "label": "faucetCooldown",
        "offset": 0,
        "slot": "3",
        "type": "t_uint256"
      },
      {
        "astId": 12760,
        "contract": "contracts/faucet/Faucet.sol:Faucet",
        "label": "lastAccessTime",
        "offset": 0,
        "slot": "4",
        "type": "t_mapping(t_address,t_uint256)"
      }
    ],
    "types": {
      "t_address": {
        "encoding": "inplace",
        "label": "address",
        "numberOfBytes": "20"
      },
      "t_contract(ERC20Holograph)13238": {
        "encoding": "inplace",
        "label": "contract ERC20Holograph",
        "numberOfBytes": "20"
      },
      "t_mapping(t_address,t_uint256)": {
        "encoding": "mapping",
        "key": "t_address",
        "label": "mapping(address => uint256)",
        "numberOfBytes": "32",
        "value": "t_uint256"
      },
      "t_uint256": {
        "encoding": "inplace",
        "label": "uint256",
        "numberOfBytes": "32"
      }
    }
  }
}