{
  "address": "0x976c77C1b611E4c0db5CB9c7e606fe912441ac56",
  "abi": [
    {
      "inputs": [],
      "stateMutability": "nonpayable",
      "type": "constructor"
    },
    {
      "stateMutability": "payable",
      "type": "fallback"
    },
    {
      "inputs": [],
      "name": "admin",
      "outputs": [
        {
          "internalType": "address",
          "name": "",
          "type": "address"
        }
      ],
      "stateMutability": "view",
      "type": "function"
    },
    {
      "inputs": [
        {
          "internalType": "address",
          "name": "target",
          "type": "address"
        },
        {
          "internalType": "bytes",
          "name": "data",
          "type": "bytes"
        }
      ],
      "name": "adminCall",
      "outputs": [],
      "stateMutability": "payable",
      "type": "function"
    },
    {
      "inputs": [],
      "name": "getAdmin",
      "outputs": [
        {
          "internalType": "address",
          "name": "adminAddress",
          "type": "address"
        }
      ],
      "stateMutability": "view",
      "type": "function"
    },
    {
      "inputs": [
        {
          "internalType": "bytes32",
          "name": "contractType",
          "type": "bytes32"
        }
      ],
      "name": "getContractTypeAddress",
      "outputs": [
        {
          "internalType": "address",
          "name": "",
          "type": "address"
        }
      ],
      "stateMutability": "view",
      "type": "function"
    },
    {
      "inputs": [
        {
          "internalType": "uint32",
          "name": "chainId",
          "type": "uint32"
        }
      ],
      "name": "getHToken",
      "outputs": [
        {
          "internalType": "address",
          "name": "",
          "type": "address"
        }
      ],
      "stateMutability": "view",
      "type": "function"
    },
    {
      "inputs": [],
      "name": "getHolograph",
      "outputs": [
        {
          "internalType": "address",
          "name": "holograph",
          "type": "address"
        }
      ],
      "stateMutability": "view",
      "type": "function"
    },
    {
      "inputs": [
        {
          "internalType": "uint256",
          "name": "index",
          "type": "uint256"
        },
        {
          "internalType": "uint256",
          "name": "length",
          "type": "uint256"
        }
      ],
      "name": "getHolographableContracts",
      "outputs": [
        {
          "internalType": "address[]",
          "name": "contracts",
          "type": "address[]"
        }
      ],
      "stateMutability": "view",
      "type": "function"
    },
    {
      "inputs": [],
      "name": "getHolographableContractsLength",
      "outputs": [
        {
          "internalType": "uint256",
          "name": "",
          "type": "uint256"
        }
      ],
      "stateMutability": "view",
      "type": "function"
    },
    {
      "inputs": [
        {
          "internalType": "bytes32",
          "name": "hash",
          "type": "bytes32"
        }
      ],
      "name": "getHolographedHashAddress",
      "outputs": [
        {
          "internalType": "address",
          "name": "",
          "type": "address"
        }
      ],
      "stateMutability": "view",
      "type": "function"
    },
    {
      "inputs": [
        {
          "internalType": "bytes32",
          "name": "contractType",
          "type": "bytes32"
        }
      ],
      "name": "getReservedContractTypeAddress",
      "outputs": [
        {
          "internalType": "address",
          "name": "contractTypeAddress",
          "type": "address"
        }
      ],
      "stateMutability": "view",
      "type": "function"
    },
    {
      "inputs": [],
      "name": "getUtilityToken",
      "outputs": [
        {
          "internalType": "address",
          "name": "utilityToken",
          "type": "address"
        }
      ],
      "stateMutability": "view",
      "type": "function"
    },
    {
      "inputs": [
        {
          "internalType": "bytes",
          "name": "initPayload",
          "type": "bytes"
        }
      ],
      "name": "init",
      "outputs": [
        {
          "internalType": "bytes4",
          "name": "",
          "type": "bytes4"
        }
      ],
      "stateMutability": "nonpayable",
      "type": "function"
    },
    {
      "inputs": [
        {
          "internalType": "address",
          "name": "smartContract",
          "type": "address"
        }
      ],
      "name": "isHolographedContract",
      "outputs": [
        {
          "internalType": "bool",
          "name": "",
          "type": "bool"
        }
      ],
      "stateMutability": "view",
      "type": "function"
    },
    {
      "inputs": [
        {
          "internalType": "bytes32",
          "name": "hash",
          "type": "bytes32"
        }
      ],
      "name": "isHolographedHashDeployed",
      "outputs": [
        {
          "internalType": "bool",
          "name": "",
          "type": "bool"
        }
      ],
      "stateMutability": "view",
      "type": "function"
    },
    {
      "inputs": [
        {
          "internalType": "address",
          "name": "contractAddress",
          "type": "address"
        }
      ],
      "name": "referenceContractTypeAddress",
      "outputs": [
        {
          "internalType": "bytes32",
          "name": "",
          "type": "bytes32"
        }
      ],
      "stateMutability": "nonpayable",
      "type": "function"
    },
    {
      "inputs": [
        {
          "internalType": "address",
          "name": "adminAddress",
          "type": "address"
        }
      ],
      "name": "setAdmin",
      "outputs": [],
      "stateMutability": "nonpayable",
      "type": "function"
    },
    {
      "inputs": [
        {
          "internalType": "bytes32",
          "name": "contractType",
          "type": "bytes32"
        },
        {
          "internalType": "address",
          "name": "contractAddress",
          "type": "address"
        }
      ],
      "name": "setContractTypeAddress",
      "outputs": [],
      "stateMutability": "nonpayable",
      "type": "function"
    },
    {
      "inputs": [
        {
          "internalType": "uint32",
          "name": "chainId",
          "type": "uint32"
        },
        {
          "internalType": "address",
          "name": "hToken",
          "type": "address"
        }
      ],
      "name": "setHToken",
      "outputs": [],
      "stateMutability": "nonpayable",
      "type": "function"
    },
    {
      "inputs": [
        {
          "internalType": "address",
          "name": "holograph",
          "type": "address"
        }
      ],
      "name": "setHolograph",
      "outputs": [],
      "stateMutability": "nonpayable",
      "type": "function"
    },
    {
      "inputs": [
        {
          "internalType": "bytes32",
          "name": "hash",
          "type": "bytes32"
        },
        {
          "internalType": "address",
          "name": "contractAddress",
          "type": "address"
        }
      ],
      "name": "setHolographedHashAddress",
      "outputs": [],
      "stateMutability": "nonpayable",
      "type": "function"
    },
    {
      "inputs": [
        {
          "internalType": "bytes32",
          "name": "hash",
          "type": "bytes32"
        },
        {
          "internalType": "bool",
          "name": "reserved",
          "type": "bool"
        }
      ],
      "name": "setReservedContractTypeAddress",
      "outputs": [],
      "stateMutability": "nonpayable",
      "type": "function"
    },
    {
      "inputs": [
        {
          "internalType": "bytes32[]",
          "name": "hashes",
          "type": "bytes32[]"
        },
        {
          "internalType": "bool[]",
          "name": "reserved",
          "type": "bool[]"
        }
      ],
      "name": "setReservedContractTypeAddresses",
      "outputs": [],
      "stateMutability": "nonpayable",
      "type": "function"
    },
    {
      "inputs": [
        {
          "internalType": "address",
          "name": "utilityToken",
          "type": "address"
        }
      ],
      "name": "setUtilityToken",
      "outputs": [],
      "stateMutability": "nonpayable",
      "type": "function"
    },
    {
      "stateMutability": "payable",
      "type": "receive"
    }
  ],
  "transactionHash": "0x530ebf59fd674dbeae831c6a209ee8767f59eb316f3bcce0bebe0cf9776e67e5",
  "args": [],
  "numDeployments": 3,
  "solcInputHash": "0170ccd2045a2b851ffe72cadf6fabb9",
  "bytecode": "0x608060405234801561001057600080fd5b50611ada806100206000396000f3fe6080604052600436106101835760003560e01c80636e9960c3116100d65780639013ae081161007f578063cc2913f911610059578063cc2913f91461052a578063d16367821461056d578063f851a440146105b057600080fd5b80639013ae08146104ae578063949d53a7146104ce578063bf64a82d1461051757600080fd5b806374b7510c116100b057806374b7510c1461044e5780637674a6ec1461046e578063768797c31461048e57600080fd5b80636e9960c3146103da578063704b6c021461040e578063725229f61461042e57600080fd5b806340ad4fa9116101385780634827ae0c116101125780634827ae0c146103355780634ddf47d41461036957806356116d54146103ba57600080fd5b806340ad4fa9146102b057806343e451bc146102cf57806344b25fff146102ef57600080fd5b806324299c6e1161016957806324299c6e1461021957806325d5cac81461026e57806335ee77cf1461029057600080fd5b80626266791461019257806321ad2353146101ec57600080fd5b3661018d57600080fd5b600080fd5b34801561019e57600080fd5b507fbf76518d46db472b71aa7677a0908b8016f3dee568415ffa24055f9a670f9c37545b60405173ffffffffffffffffffffffffffffffffffffffff90911681526020015b60405180910390f35b3480156101f857600080fd5b5061020c610207366004611500565b6105c5565b6040516101e39190611522565b34801561022557600080fd5b5061025e61023436600461157c565b60009081526001602052604090205473ffffffffffffffffffffffffffffffffffffffff16151590565b60405190151581526020016101e3565b34801561027a57600080fd5b5061028e6102893660046115ba565b6106d1565b005b34801561029c57600080fd5b5061028e6102ab3660046115f2565b6107b0565b3480156102bc57600080fd5b506000545b6040519081526020016101e3565b3480156102db57600080fd5b5061028e6102ea366004611675565b6108c1565b3480156102fb57600080fd5b5061025e61030a3660046115ba565b73ffffffffffffffffffffffffffffffffffffffff1660009081526004602052604090205460ff1690565b34801561034157600080fd5b507fb4107f746e9496e8452accc7de63d1c5e14c19f510932daa04077cd49e8bd77a546101c2565b34801561037557600080fd5b5061038961038436600461175f565b610a05565b6040517fffffffff0000000000000000000000000000000000000000000000000000000090911681526020016101e3565b3480156103c657600080fd5b5061028e6103d5366004611812565b610bae565b3480156103e657600080fd5b507f3f106594dc74eeef980dae234cde8324dc2497b13d27a0c59e55bd2ca10a07c9546101c2565b34801561041a57600080fd5b5061028e6104293660046115ba565b610d2f565b34801561043a57600080fd5b5061028e610449366004611812565b610e09565b34801561045a57600080fd5b506101c261046936600461157c565b610ff1565b34801561047a57600080fd5b5061028e610489366004611847565b611034565b34801561049a57600080fd5b506102c16104a93660046115ba565b611128565b3480156104ba57600080fd5b5061028e6104c93660046115ba565b61131c565b3480156104da57600080fd5b506101c26104e9366004611873565b63ffffffff1660009081526005602052604090205473ffffffffffffffffffffffffffffffffffffffff1690565b61028e61052536600461188e565b6113f6565b34801561053657600080fd5b506101c261054536600461157c565b60009081526002602052604090205473ffffffffffffffffffffffffffffffffffffffff1690565b34801561057957600080fd5b506101c261058836600461157c565b60009081526001602052604090205473ffffffffffffffffffffffffffffffffffffffff1690565b3480156105bc57600080fd5b506101c26114d1565b600054606090806105d68486611942565b11156105e9576105e6848261195a565b92505b8267ffffffffffffffff811115610602576106026116e1565b60405190808252806020026020018201604052801561062b578160200160208202803683370190505b50915060005b838110156106c95760006106458287611942565b8154811061065557610655611971565b9060005260206000200160009054906101000a900473ffffffffffffffffffffffffffffffffffffffff1683828151811061069257610692611971565b73ffffffffffffffffffffffffffffffffffffffff90921660209283029190910190910152806106c1816119a0565b915050610631565b505092915050565b7f3f106594dc74eeef980dae234cde8324dc2497b13d27a0c59e55bd2ca10a07c95473ffffffffffffffffffffffffffffffffffffffff163373ffffffffffffffffffffffffffffffffffffffff161461078c576040517f08c379a000000000000000000000000000000000000000000000000000000000815260206004820152601e60248201527f484f4c4f47524150483a2061646d696e206f6e6c792066756e6374696f6e000060448201526064015b60405180910390fd5b7fb4107f746e9496e8452accc7de63d1c5e14c19f510932daa04077cd49e8bd77a55565b7f3f106594dc74eeef980dae234cde8324dc2497b13d27a0c59e55bd2ca10a07c95473ffffffffffffffffffffffffffffffffffffffff163373ffffffffffffffffffffffffffffffffffffffff1614610866576040517f08c379a000000000000000000000000000000000000000000000000000000000815260206004820152601e60248201527f484f4c4f47524150483a2061646d696e206f6e6c792066756e6374696f6e00006044820152606401610783565b63ffffffff91909116600090815260056020526040902080547fffffffffffffffffffffffff00000000000000000000000000000000000000001673ffffffffffffffffffffffffffffffffffffffff909216919091179055565b7f3f106594dc74eeef980dae234cde8324dc2497b13d27a0c59e55bd2ca10a07c95473ffffffffffffffffffffffffffffffffffffffff163373ffffffffffffffffffffffffffffffffffffffff1614610977576040517f08c379a000000000000000000000000000000000000000000000000000000000815260206004820152601e60248201527f484f4c4f47524150483a2061646d696e206f6e6c792066756e6374696f6e00006044820152606401610783565b60005b838110156109fe5782828281811061099457610994611971565b90506020020160208101906109a991906119d8565b600360008787858181106109bf576109bf611971565b90506020020135815260200190815260200160002060006101000a81548160ff02191690831515021790555080806109f6906119a0565b91505061097a565b5050505050565b6000610a2f7f4e5f991bca30eca2d4643aaefa807e88f96a4a97398933d572a3c0d973004a015490565b15610a96576040517f08c379a000000000000000000000000000000000000000000000000000000000815260206004820152601e60248201527f484f4c4f47524150483a20616c726561647920696e697469616c697a656400006044820152606401610783565b60008083806020019051810190610aad91906119f3565b91509150327f3f106594dc74eeef980dae234cde8324dc2497b13d27a0c59e55bd2ca10a07c955817fb4107f746e9496e8452accc7de63d1c5e14c19f510932daa04077cd49e8bd77a5560005b8151811015610b5b57600160036000848481518110610b1b57610b1b611971565b6020026020010151815260200190815260200160002060006101000a81548160ff0219169083151502179055508080610b53906119a0565b915050610afa565b50610b8560017f4e5f991bca30eca2d4643aaefa807e88f96a4a97398933d572a3c0d973004a0155565b507f4ddf47d4000000000000000000000000000000000000000000000000000000009392505050565b7f3f106594dc74eeef980dae234cde8324dc2497b13d27a0c59e55bd2ca10a07c95473ffffffffffffffffffffffffffffffffffffffff163373ffffffffffffffffffffffffffffffffffffffff1614610c64576040517f08c379a000000000000000000000000000000000000000000000000000000000815260206004820152601e60248201527f484f4c4f47524150483a2061646d696e206f6e6c792066756e6374696f6e00006044820152606401610783565b60008281526003602052604090205460ff16610cdc576040517f08c379a000000000000000000000000000000000000000000000000000000000815260206004820152601c60248201527f484f4c4f47524150483a206e6f742072657365727665642074797065000000006044820152606401610783565b60009182526002602052604090912080547fffffffffffffffffffffffff00000000000000000000000000000000000000001673ffffffffffffffffffffffffffffffffffffffff909216919091179055565b7f3f106594dc74eeef980dae234cde8324dc2497b13d27a0c59e55bd2ca10a07c95473ffffffffffffffffffffffffffffffffffffffff163373ffffffffffffffffffffffffffffffffffffffff1614610de5576040517f08c379a000000000000000000000000000000000000000000000000000000000815260206004820152601e60248201527f484f4c4f47524150483a2061646d696e206f6e6c792066756e6374696f6e00006044820152606401610783565b7f3f106594dc74eeef980dae234cde8324dc2497b13d27a0c59e55bd2ca10a07c955565b60007fb4107f746e9496e8452accc7de63d1c5e14c19f510932daa04077cd49e8bd77a5490508073ffffffffffffffffffffffffffffffffffffffff166388cc58e46040518163ffffffff1660e01b8152600401602060405180830381865afa158015610e7a573d6000803e3d6000fd5b505050506040513d601f19601f82011682018060405250810190610e9e9190611ab0565b73ffffffffffffffffffffffffffffffffffffffff163373ffffffffffffffffffffffffffffffffffffffff1614610f32576040517f08c379a000000000000000000000000000000000000000000000000000000000815260206004820181905260248201527f484f4c4f47524150483a20666163746f7279206f6e6c792066756e6374696f6e6044820152606401610783565b506000918252600160208181526040808520805473ffffffffffffffffffffffffffffffffffffffff9095167fffffffffffffffffffffffff000000000000000000000000000000000000000095861681179091558086526004909252842080547fffffffffffffffffffffffffffffffffffffffffffffffffffffffffffffff001683179055835491820184559280527f290decd9548b62a8d60345a988386fc84ba6bc95484008f6362f93160ef3e5630180549091169091179055565b60008181526003602052604081205460ff161561102f575060008181526002602052604090205473ffffffffffffffffffffffffffffffffffffffff165b919050565b7f3f106594dc74eeef980dae234cde8324dc2497b13d27a0c59e55bd2ca10a07c95473ffffffffffffffffffffffffffffffffffffffff163373ffffffffffffffffffffffffffffffffffffffff16146110ea576040517f08c379a000000000000000000000000000000000000000000000000000000000815260206004820152601e60248201527f484f4c4f47524150483a2061646d696e206f6e6c792066756e6374696f6e00006044820152606401610783565b60009182526003602052604090912080547fffffffffffffffffffffffffffffffffffffffffffffffffffffffffffffff0016911515919091179055565b6000813f801580159061115b57507fc5d2460186f7233c927e7db2dcc703c0e500b653ca82273b7bfad8045d85a4708114155b6111c1576040517f08c379a000000000000000000000000000000000000000000000000000000000815260206004820152601960248201527f484f4c4f47524150483a20656d70747920636f6e7472616374000000000000006044820152606401610783565b60008181526002602052604090205473ffffffffffffffffffffffffffffffffffffffff161561124d576040517f08c379a000000000000000000000000000000000000000000000000000000000815260206004820152601f60248201527f484f4c4f47524150483a20636f6e747261637420616c726561647920736574006044820152606401610783565b60008181526003602052604090205460ff16156112c6576040517f08c379a000000000000000000000000000000000000000000000000000000000815260206004820181905260248201527f484f4c4f47524150483a207265736572766564206164647265737320747970656044820152606401610783565b600081815260026020526040902080547fffffffffffffffffffffffff00000000000000000000000000000000000000001673ffffffffffffffffffffffffffffffffffffffff94909416939093179092555090565b7f3f106594dc74eeef980dae234cde8324dc2497b13d27a0c59e55bd2ca10a07c95473ffffffffffffffffffffffffffffffffffffffff163373ffffffffffffffffffffffffffffffffffffffff16146113d2576040517f08c379a000000000000000000000000000000000000000000000000000000000815260206004820152601e60248201527f484f4c4f47524150483a2061646d696e206f6e6c792066756e6374696f6e00006044820152606401610783565b7fbf76518d46db472b71aa7677a0908b8016f3dee568415ffa24055f9a670f9c3755565b7f3f106594dc74eeef980dae234cde8324dc2497b13d27a0c59e55bd2ca10a07c95473ffffffffffffffffffffffffffffffffffffffff163373ffffffffffffffffffffffffffffffffffffffff16146114ac576040517f08c379a000000000000000000000000000000000000000000000000000000000815260206004820152601e60248201527f484f4c4f47524150483a2061646d696e206f6e6c792066756e6374696f6e00006044820152606401610783565b808260003760008082600034875af13d6000803e8080156114cc573d6000f35b3d6000fd5b60006114fb7f3f106594dc74eeef980dae234cde8324dc2497b13d27a0c59e55bd2ca10a07c95490565b905090565b6000806040838503121561151357600080fd5b50508035926020909101359150565b6020808252825182820181905260009190848201906040850190845b8181101561157057835173ffffffffffffffffffffffffffffffffffffffff168352928401929184019160010161153e565b50909695505050505050565b60006020828403121561158e57600080fd5b5035919050565b73ffffffffffffffffffffffffffffffffffffffff811681146115b757600080fd5b50565b6000602082840312156115cc57600080fd5b81356115d781611595565b9392505050565b803563ffffffff8116811461102f57600080fd5b6000806040838503121561160557600080fd5b61160e836115de565b9150602083013561161e81611595565b809150509250929050565b60008083601f84011261163b57600080fd5b50813567ffffffffffffffff81111561165357600080fd5b6020830191508360208260051b850101111561166e57600080fd5b9250929050565b6000806000806040858703121561168b57600080fd5b843567ffffffffffffffff808211156116a357600080fd5b6116af88838901611629565b909650945060208701359150808211156116c857600080fd5b506116d587828801611629565b95989497509550505050565b7f4e487b7100000000000000000000000000000000000000000000000000000000600052604160045260246000fd5b604051601f82017fffffffffffffffffffffffffffffffffffffffffffffffffffffffffffffffe016810167ffffffffffffffff81118282101715611757576117576116e1565b604052919050565b6000602080838503121561177257600080fd5b823567ffffffffffffffff8082111561178a57600080fd5b818501915085601f83011261179e57600080fd5b8135818111156117b0576117b06116e1565b6117e0847fffffffffffffffffffffffffffffffffffffffffffffffffffffffffffffffe0601f84011601611710565b915080825286848285010111156117f657600080fd5b8084840185840137600090820190930192909252509392505050565b6000806040838503121561182557600080fd5b82359150602083013561161e81611595565b8035801515811461102f57600080fd5b6000806040838503121561185a57600080fd5b8235915061186a60208401611837565b90509250929050565b60006020828403121561188557600080fd5b6115d7826115de565b6000806000604084860312156118a357600080fd5b83356118ae81611595565b9250602084013567ffffffffffffffff808211156118cb57600080fd5b818601915086601f8301126118df57600080fd5b8135818111156118ee57600080fd5b87602082850101111561190057600080fd5b6020830194508093505050509250925092565b7f4e487b7100000000000000000000000000000000000000000000000000000000600052601160045260246000fd5b6000821982111561195557611955611913565b500190565b60008282101561196c5761196c611913565b500390565b7f4e487b7100000000000000000000000000000000000000000000000000000000600052603260045260246000fd5b60007fffffffffffffffffffffffffffffffffffffffffffffffffffffffffffffffff82036119d1576119d1611913565b5060010190565b6000602082840312156119ea57600080fd5b6115d782611837565b60008060408385031215611a0657600080fd5b8251611a1181611595565b8092505060208084015167ffffffffffffffff80821115611a3157600080fd5b818601915086601f830112611a4557600080fd5b815181811115611a5757611a576116e1565b8060051b9150611a68848301611710565b8181529183018401918481019089841115611a8257600080fd5b938501935b83851015611aa057845182529385019390850190611a87565b8096505050505050509250929050565b600060208284031215611ac257600080fd5b81516115d78161159556fea164736f6c634300080d000a",
  "devdoc": {
    "author": "https://github.com/holographxyz",
    "details": "Use this to: validate that contracts are Holograph Protocol compliant, get source code for supported standards, and interact with hTokens",
    "kind": "dev",
    "methods": {
      "constructor": {
        "details": "Constructor is left empty and init is used instead"
      },
      "getContractTypeAddress(bytes32)": {
        "details": "Returns the contract address for a contract type"
      },
      "getHToken(uint32)": {
        "details": "Returns the hToken address for a given chain id"
      },
      "getHolograph()": {
        "details": "This contract stores a reference to all the primary modules and variables of the protocol"
      },
      "getHolographableContracts(uint256,uint256)": {
        "params": {
          "index": "The index to start enumeration from",
          "length": "The length of returned results"
        },
        "returns": {
          "contracts": "address[] Returns a set length array of holographable contracts deployed"
        }
      },
      "getHolographedHashAddress(bytes32)": {
        "details": "Returns the address for a holographed hash"
      },
      "getReservedContractTypeAddress(bytes32)": {
        "details": "Returns the reserved contract address for a contract type"
      },
      "getUtilityToken()": {
        "details": "This is the official utility token of the Holograph Protocol"
      },
      "init(bytes)": {
        "details": "This function is called by the deployer/factory when creating a contract",
        "params": {
          "initPayload": "abi encoded payload to use for contract initilaization"
        }
      },
      "referenceContractTypeAddress(address)": {
        "details": "Allows to reference a deployed smart contract, and use it's code as reference inside of Holographers"
      },
      "setContractTypeAddress(bytes32,address)": {
        "details": "Sets the contract address for a contract type"
      },
      "setHToken(uint32,address)": {
        "details": "Sets the hToken address for a specific chain id"
      },
      "setHolograph(address)": {
        "params": {
          "holograph": "address of the Holograph Protocol smart contract to use"
        }
      },
      "setHolographedHashAddress(bytes32,address)": {
        "details": "Allows Holograph Factory to register a deployed contract, referenced with deployment hash"
      },
      "setReservedContractTypeAddress(bytes32,bool)": {
        "details": "Allows admin to update or toggle reserved type"
      },
      "setReservedContractTypeAddresses(bytes32[],bool[])": {
        "details": "Allows admin to update or toggle reserved types"
      },
      "setUtilityToken(address)": {
        "params": {
          "utilityToken": "address of the Holograph Utility Token smart contract to use"
        }
      }
    },
    "stateVariables": {
      "_contractTypeAddresses": {
        "details": "Storage slot for saving contract type to contract address references"
      },
      "_hTokens": {
        "details": "Mapping of all hTokens available for the different EVM chains"
      },
      "_holographSlot": {
        "details": "bytes32(uint256(keccak256('eip1967.Holograph.holograph')) - 1)"
      },
      "_holographableContracts": {
        "details": "Array of all Holographable contracts that were ever deployed on this chain"
      },
      "_holographedContracts": {
        "details": "A list of smart contracts that are guaranteed secure and holographable"
      },
      "_holographedContractsHashMap": {
        "details": "A mapping of hashes to contract addresses"
      },
      "_reservedTypes": {
        "details": "Reserved type addresses for Admin  Note: this is used for defining default contracts"
      },
      "_utilityTokenSlot": {
        "details": "bytes32(uint256(keccak256('eip1967.Holograph.utilityToken')) - 1)"
      }
    },
    "title": "Holograph Registry",
    "version": 1
  },
  "userdoc": {
    "kind": "user",
    "methods": {
      "getHolograph()": {
        "notice": "Get the Holograph Protocol contract"
      },
      "getHolographableContracts(uint256,uint256)": {
        "notice": "Get set length list, starting from index, for all holographable contracts"
      },
      "getHolographableContractsLength()": {
        "notice": "Get total number of deployed holographable contracts"
      },
      "getUtilityToken()": {
        "notice": "Get the Holograph Utility Token address"
      },
      "init(bytes)": {
        "notice": "Used internally to initialize the contract instead of through a constructor"
      },
      "setHolograph(address)": {
        "notice": "Update the Holograph Protocol contract address"
      },
      "setUtilityToken(address)": {
        "notice": "Update the Holograph Utility Token address"
      }
    },
    "notice": "View and validate all deployed holographable contracts",
    "version": 1
  },
  "storageLayout": {
    "storage": [
      {
        "astId": 3580,
        "contract": "contracts/HolographRegistry.sol:HolographRegistry",
        "label": "_holographableContracts",
        "offset": 0,
        "slot": "0",
        "type": "t_array(t_address)dyn_storage"
      },
      {
        "astId": 3585,
        "contract": "contracts/HolographRegistry.sol:HolographRegistry",
        "label": "_holographedContractsHashMap",
        "offset": 0,
        "slot": "1",
        "type": "t_mapping(t_bytes32,t_address)"
      },
      {
        "astId": 3590,
        "contract": "contracts/HolographRegistry.sol:HolographRegistry",
        "label": "_contractTypeAddresses",
        "offset": 0,
        "slot": "2",
        "type": "t_mapping(t_bytes32,t_address)"
      },
      {
        "astId": 3595,
        "contract": "contracts/HolographRegistry.sol:HolographRegistry",
        "label": "_reservedTypes",
        "offset": 0,
        "slot": "3",
        "type": "t_mapping(t_bytes32,t_bool)"
      },
      {
        "astId": 3600,
        "contract": "contracts/HolographRegistry.sol:HolographRegistry",
        "label": "_holographedContracts",
        "offset": 0,
        "slot": "4",
        "type": "t_mapping(t_address,t_bool)"
      },
      {
        "astId": 3605,
        "contract": "contracts/HolographRegistry.sol:HolographRegistry",
        "label": "_hTokens",
        "offset": 0,
        "slot": "5",
        "type": "t_mapping(t_uint32,t_address)"
      }
    ],
    "types": {
      "t_address": {
        "encoding": "inplace",
        "label": "address",
        "numberOfBytes": "20"
      },
      "t_array(t_address)dyn_storage": {
        "base": "t_address",
        "encoding": "dynamic_array",
        "label": "address[]",
        "numberOfBytes": "32"
      },
      "t_bool": {
        "encoding": "inplace",
        "label": "bool",
        "numberOfBytes": "1"
      },
      "t_bytes32": {
        "encoding": "inplace",
        "label": "bytes32",
        "numberOfBytes": "32"
      },
      "t_mapping(t_address,t_bool)": {
        "encoding": "mapping",
        "key": "t_address",
        "label": "mapping(address => bool)",
        "numberOfBytes": "32",
        "value": "t_bool"
      },
      "t_mapping(t_bytes32,t_address)": {
        "encoding": "mapping",
        "key": "t_bytes32",
        "label": "mapping(bytes32 => address)",
        "numberOfBytes": "32",
        "value": "t_address"
      },
      "t_mapping(t_bytes32,t_bool)": {
        "encoding": "mapping",
        "key": "t_bytes32",
        "label": "mapping(bytes32 => bool)",
        "numberOfBytes": "32",
        "value": "t_bool"
      },
      "t_mapping(t_uint32,t_address)": {
        "encoding": "mapping",
        "key": "t_uint32",
        "label": "mapping(uint32 => address)",
        "numberOfBytes": "32",
        "value": "t_address"
      },
      "t_uint32": {
        "encoding": "inplace",
        "label": "uint32",
        "numberOfBytes": "4"
      }
    }
  }
}