{
  "address": "0x6628E6d58c82768995D3E61138eCeF8B2DD8Fad0",
  "abi": [
    {
      "inputs": [],
      "stateMutability": "nonpayable",
      "type": "constructor"
    },
    {
      "stateMutability": "payable",
      "type": "fallback"
    },
    {
      "inputs": [],
      "name": "admin",
      "outputs": [
        {
          "internalType": "address",
          "name": "",
          "type": "address"
        }
      ],
      "stateMutability": "view",
      "type": "function"
    },
    {
      "inputs": [
        {
          "internalType": "address",
          "name": "target",
          "type": "address"
        },
        {
          "internalType": "bytes",
          "name": "data",
          "type": "bytes"
        }
      ],
      "name": "adminCall",
      "outputs": [],
      "stateMutability": "payable",
      "type": "function"
    },
    {
      "inputs": [
        {
          "internalType": "string",
          "name": "name",
          "type": "string"
        },
        {
          "internalType": "string",
          "name": "imageURL",
          "type": "string"
        },
        {
          "internalType": "string",
          "name": "externalLink",
          "type": "string"
        },
        {
          "internalType": "uint16",
          "name": "bps",
          "type": "uint16"
        },
        {
          "internalType": "address",
          "name": "contractAddress",
          "type": "address"
        }
      ],
      "name": "contractURI",
      "outputs": [
        {
          "internalType": "string",
          "name": "",
          "type": "string"
        }
      ],
      "stateMutability": "pure",
      "type": "function"
    },
    {
      "inputs": [],
      "name": "getAdmin",
      "outputs": [
        {
          "internalType": "address",
          "name": "adminAddress",
          "type": "address"
        }
      ],
      "stateMutability": "view",
      "type": "function"
    },
    {
      "inputs": [
        {
          "internalType": "enum ChainIdType",
          "name": "fromChainType",
          "type": "uint8"
        },
        {
          "internalType": "uint256",
          "name": "fromChainId",
          "type": "uint256"
        },
        {
          "internalType": "enum ChainIdType",
          "name": "toChainType",
          "type": "uint8"
        }
      ],
      "name": "getChainId",
      "outputs": [
        {
          "internalType": "uint256",
          "name": "toChainId",
          "type": "uint256"
        }
      ],
      "stateMutability": "view",
      "type": "function"
    },
    {
      "inputs": [
        {
          "internalType": "enum TokenUriType",
          "name": "uriType",
          "type": "uint8"
        }
      ],
      "name": "getUriPrepend",
      "outputs": [
        {
          "internalType": "string",
          "name": "prepend",
          "type": "string"
        }
      ],
      "stateMutability": "view",
      "type": "function"
    },
    {
      "inputs": [
        {
          "internalType": "bytes",
          "name": "data",
          "type": "bytes"
        }
      ],
      "name": "init",
      "outputs": [
        {
          "internalType": "bytes4",
          "name": "",
          "type": "bytes4"
        }
      ],
      "stateMutability": "nonpayable",
      "type": "function"
    },
    {
      "inputs": [
        {
          "internalType": "address",
          "name": "adminAddress",
          "type": "address"
        }
      ],
      "name": "setAdmin",
      "outputs": [],
      "stateMutability": "nonpayable",
      "type": "function"
    },
    {
      "inputs": [
        {
          "internalType": "enum InterfaceType",
          "name": "interfaceType",
          "type": "uint8"
        },
        {
          "internalType": "bytes4",
          "name": "interfaceId",
          "type": "bytes4"
        }
      ],
      "name": "supportsInterface",
      "outputs": [
        {
          "internalType": "bool",
          "name": "",
          "type": "bool"
        }
      ],
      "stateMutability": "view",
      "type": "function"
    },
    {
      "inputs": [
        {
          "internalType": "enum ChainIdType",
          "name": "fromChainType",
          "type": "uint8"
        },
        {
          "internalType": "uint256",
          "name": "fromChainId",
          "type": "uint256"
        },
        {
          "internalType": "enum ChainIdType",
          "name": "toChainType",
          "type": "uint8"
        },
        {
          "internalType": "uint256",
          "name": "toChainId",
          "type": "uint256"
        }
      ],
      "name": "updateChainIdMap",
      "outputs": [],
      "stateMutability": "nonpayable",
      "type": "function"
    },
    {
      "inputs": [
        {
          "internalType": "enum ChainIdType[]",
          "name": "fromChainType",
          "type": "uint8[]"
        },
        {
          "internalType": "uint256[]",
          "name": "fromChainId",
          "type": "uint256[]"
        },
        {
          "internalType": "enum ChainIdType[]",
          "name": "toChainType",
          "type": "uint8[]"
        },
        {
          "internalType": "uint256[]",
          "name": "toChainId",
          "type": "uint256[]"
        }
      ],
      "name": "updateChainIdMaps",
      "outputs": [],
      "stateMutability": "nonpayable",
      "type": "function"
    },
    {
      "inputs": [
        {
          "internalType": "enum InterfaceType",
          "name": "interfaceType",
          "type": "uint8"
        },
        {
          "internalType": "bytes4",
          "name": "interfaceId",
          "type": "bytes4"
        },
        {
          "internalType": "bool",
          "name": "supported",
          "type": "bool"
        }
      ],
      "name": "updateInterface",
      "outputs": [],
      "stateMutability": "nonpayable",
      "type": "function"
    },
    {
      "inputs": [
        {
          "internalType": "enum InterfaceType",
          "name": "interfaceType",
          "type": "uint8"
        },
        {
          "internalType": "bytes4[]",
          "name": "interfaceIds",
          "type": "bytes4[]"
        },
        {
          "internalType": "bool",
          "name": "supported",
          "type": "bool"
        }
      ],
      "name": "updateInterfaces",
      "outputs": [],
      "stateMutability": "nonpayable",
      "type": "function"
    },
    {
      "inputs": [
        {
          "internalType": "enum TokenUriType",
          "name": "uriType",
          "type": "uint8"
        },
        {
          "internalType": "string",
          "name": "prepend",
          "type": "string"
        }
      ],
      "name": "updateUriPrepend",
      "outputs": [],
      "stateMutability": "nonpayable",
      "type": "function"
    },
    {
      "inputs": [
        {
          "internalType": "enum TokenUriType[]",
          "name": "uriTypes",
          "type": "uint8[]"
        },
        {
          "internalType": "string[]",
          "name": "prepends",
          "type": "string[]"
        }
      ],
      "name": "updateUriPrepends",
      "outputs": [],
      "stateMutability": "nonpayable",
      "type": "function"
    },
    {
      "stateMutability": "payable",
      "type": "receive"
    }
  ],
  "transactionHash": "0xaeeae5f2aaf5844661acf0f8d4c2d2b75f4821fb47c1c87c81dd56375a63b2d9",
  "args": [],
  "numDeployments": 1,
  "solcInputHash": "ac303f393f9669983bc219896de79206",
  "bytecode": "0x60806040523480156200001157600080fd5b50604080518082019091526007815266697066733a2f2f60c81b602080830191825260016000526002905290516200006b917fe90b7bceb6e7df5418fb78d8ee546e97c83a08bbccc01a0644d599ccd2a7c2e09162000c41565b5060408051808201909152600881526768747470733a2f2f60c01b60208083019182526002600081905290529051620000c6917f679795a0195a1b76cdebb7c51d74e058aee92919b8c3389af86ef24535e8a28c9162000c41565b5060408051808201909152600581526461723a2f2f60d81b602080830191825260036000526002905290516200011e917f88601476d11616a71c5be67555bd1dff4b1cbf21533d2669b768b61518cfe1c39162000c41565b507f304d9160b7aa71190a7a35ee0f4bb758d16660f4df8c0a6b46a70a12102e0e898054600160ff1991821681179092557f1efacb8a092a47b9f6a95f931821439a01340dd0ce0706e390a0ca1e6144633380548216831790557fff45fc2a5b5687eeecbe1d4a7fb75e48c603c81db9e8b8bdcb7b1529f58397d580548216831790557f01f418530287530c5a6a30257ddc85333d5071425af340b8531c2e39d431650f80548216831790557ff8443408b8cce52d80c881074c8aeca0b6265b29daf6a8e9ad578f1a97b079d580548216831790557f1d0ef4c8842da18db0964be8feed659f61256e276b6cf2576db595c98f16eb5a80548216831790557fbf529132fe76c160103ecad2a1aa8d204f23adbe6521cd4d08def0da7b9debaf80548216831790557f9529eec341d5845634564364ee05dbc06d43bb20edab6cc61355d50792ac353580548216831790557faf59abb7b2a24403410d53c702f8f332c0441e4d26fce10d27791c9ab972753780548216831790557f2678e1153e25a9671d8bfec4aa22c5d95343376bd40b5bb5ab6a5df41cf97be180548216831790557fe15e0de8729d2a8aa9560602b72b11574048369b3d1fb58fa6759ad6d643200c80548216831790557fba5de9a550def308ede39fee42252cf1ec6a126e067a25a2ad492dae2b9bbc5b80548216831790557fea5618df0b93eead63d6696b5383bd1f27af3d665b8296cafb992ddf860b714580548216831790557f3ea754feac8b7b07cd8610781c97a73f633dd2cc9678c2040999e162f0ee39ec80548216831790557f1304cc6fb011d471fa8cc132cdbb10d6255d5a88f6530464dbcc50058a5738ea80548216831790557f7e235e94c21e5e523130515cea7690e8d77c449759be4674489e00b2d674a87f80548216831790557fcb433a027f3d1f5fffd40da45fd4131db08557781676c319e4a0ff7495f16c7880548216831790557f1543d29a2731af52c17611f9ede02eef67aab8325c2ccc6ee2ebd8a6635527f580548216831790557f63d535570a611f53d44a8b9cac8f7ef870f43453580a0aaa654a02479799a57680548216831790557f493fd81170f86ac022daffab29f1196b2a2b741b8cefad7e953fe68b4e81f30280548216831790557f117cc19ba5e0d8dd9135415f29a7a333318e87adc32518498fd3c67cedf78a4180548216831790557f4f5970548608026b812b39875253022db022011965cfa9ad72fdb412a09b607480548216831790557f3ce125520a955f0ad66bb8962ddd881da092e833a9abdef8582197f6c4a1df7a80548216831790557f235a2c0c5a8503bd645af16048a548a21e3fd2cb43dabdacf5ddc484aaecde7c80548216831790557f424d3144fc46304e64ff978f8fa21923227fe899fddc72e79b36a23361a3a10a80548216831790557f3fb62005d8eafcd4e81ec5dc1c7a8711bbd93806e750129f4f4b52968ddbf4ef80548216831790557fb30560924c2ea9ec2af6eb58187b4e85667095b930325f68c448d367daf94cff80548216831790557f304c58f5ecd2cb57dcf0fbfdd8917e7641bb83561518d17ecadae0196e71f55d80548216831790557f15ded3b5cbf9bc3414fa10141c121a1f62afe5ac5d7cfd39c81c3c0831e0a6a680548216831790557f1379c7a0863c24d601320a36ac8ccd54c81adc9a31e894484ae36c14c6ea37de80548216831790557fc2f7ca32670436879ff8ad728d31dc9e9070a53f5564ab4882dc3852f4aab67b80548216831790557fb209ab0c64f0b4fef2a697cd2ddf5b06e30fdca22c21781d3a226f4eb13e07f180548216831790557f71693e09eb9890e7bc4f16c8a0a6e8c53e47c7c560a3f4690699010aac80130980548216831790557faf70ae9e9795039d3fc800ce6947f1fbcd6b51f7a3165175a3f82987f4c7c17c80548216831790557f538ef243dda8e40c24ea7837541ec8a893cddb7b06a458e9226715a9bb89cd7f80548216831790557f3dda6030bf74f7190d36141f2eaaf5175c9503ba74c3e086a5fe2fe68c20f84a80548216831790557f5c5f317bea528d6c0aef74fd2ed0807b45259df4a8125a860f259d04c669d52b80548216831790557feeaa29641ccd3410d732bd7796ae648951de6c0bbf8bc2c8d7be06c564dd85a280548216831790557f605d893d3679e77518593b3012d7e085bb9e546ec55bda78f76771fb1e7c2bba80548216831790557fa2bc2110a5fb84ab024f432ae7955aac30e6cf6e8a7de816d5262d54414dee2280548216831790557f9e13a9f23ce17321fb92e9d3cc9b49c28fa022698d496615c981b3627cc9ee1580548216831790557f0d172dbe9e38e91ea7fae59b3d9b0109d870d92c7402c10b18e043ef08b7135880548216831790557fb261a17c533a7094161fedd7a91aad2f03642dfa56f352a6d5dee2d52e123a0280548216831790557fd11557ee1483c54937c95981565129125075b24c9420b42f04e8459385d9855580548216831790557f2a899c81b1110d15f03b9004478f29f9d3a6ff53b4d62e3059146164167cdbd480548216831790557fe31a80c81377fc5254a702a7b682576de4208c62a8bff2d68444d8d2abb59d8e80548216831790557f98006e52b1990d5dd523123b3b5a4afcbdc5822003678a9ff5eee6d4500f671780548216831790557f5324f463251804916ae8572517a83601a4d1b9f78f27abf055a46f01bf8b291480548216831790557f2ef84dbed7764b3726bab727168fdfea40573d541aac2f9b27637af94e56251e80548216831790557f19237756e4135d95091007d127eeaafb97b41c2f8ae717f47f2ace9c434d4ef780548216831790557f79ac0875414cb6fbf4dfac02d13e61b9f89b58d2e958e6371d836f1505cb024e80548216831790557fd4e7c9a1a228afb8b1fe5ceaf4a4dee6f86bfc602d704c774c4bd4a055da066580548216831790557fa184562f66e2f41dbe8edec92461dbce1cf12d32e4e099e67d5b9068d5fe238980548216831790557ff207aa1d711806c6c99538c9d6559d34b23c749143f1011bbb86b153ed1d336a80548216831790557f55869231cb8c92fd0a053f98461a02098b91ddbd71574687022baffa6edc579c80548216831790557fadc3b472c9fd2d66e2db53a5e538dcdf5132be2c432a55241bc890be9ced56b080548216831790557fc1307a698d6fcdc81b9a8b35c90ca976a7c81e64f4717e3e0d97a94f0f9ec28d80548216831790557f85e93ba8a10bb57c519010ee51214ecb10193aab564281e4b3d3b75a5ae075bf80548216831790557fea14ad695f82a3ab8cece7c38cc115e0150642fdd67f254f5dfb78573aaeee5580548216831790557f0a5e6f26d29b21b1aa1e216fc2f204f4d85ab43132c9a727218d421c0d19afe280548216831790557f570d8d74e58517d8bc52933ea70ee203515c8f4d6d92310b5dae7a7d1ddc94da80548216831790557f5cf83a8b2665231e6e76592d670e11c07eb805425ec90de5863bba85300a6d7880548216831790557f0f2ad8ec2575aaa613cf46a8d5b95ec2b107e11194acaa3db82c41e59de0879880548216831790557f7b8d826317d9a99b312988dfe2f349654f2623500cb33780ded06fa5c818453380548216831790557f3c4f6778fa355628e461c5d5b7b1d4dbe2a8df77ab28982085660bed4e3d8a8c80548216831790557fb05577f594ce6252c0e639ee513d08128ecedb87fe84c3b78d0baf65631f9c4780548216831790557f5b27edb7fc063936dde3be87543458c72a4d4a48c919d4734bcffa6749d42c8e8054821683179055636204891b60e11b6000527f52d75039926638d3c558b2bdefb945d5be8dae29dedd1c313212a4d472d9fde56020527f0a51a38126d1e58b7941483303bee7498f577272552a4b6387dcb481217e85318054909116909117905562000d23565b82805462000c4f9062000ce7565b90600052602060002090601f01602090048101928262000c73576000855562000cbe565b82601f1062000c8e57805160ff191683800117855562000cbe565b8280016001018555821562000cbe579182015b8281111562000cbe57825182559160200191906001019062000ca1565b5062000ccc92915062000cd0565b5090565b5b8082111562000ccc576000815560010162000cd1565b600181811c9082168062000cfc57607f821691505b60208210810362000d1d57634e487b7160e01b600052602260045260246000fd5b50919050565b6126be8062000d336000396000f3fe6080604052600436106100ec5760003560e01c80638ca3abf61161008a578063aec117ac11610059578063aec117ac146102f7578063bf64a82d14610317578063d63e93b91461032a578063f851a4401461034a57600080fd5b80638ca3abf6146102675780639cf149da146102875780639fe7303f146102a7578063a1a0d960146102d757600080fd5b80636d7db627116100c65780636d7db627146101b05780636d97233f146101d25780636e9960c3146101f2578063704b6c021461024757600080fd5b80630a2bb379146100fb57806320fc06ea146101315780634ddf47d41461015f57600080fd5b366100f657600080fd5b600080fd5b34801561010757600080fd5b5061011b6101163660046119d4565b61035f565b6040516101289190611a22565b60405180910390f35b34801561013d57600080fd5b5061015161014c366004611a83565b610426565b604051908152602001610128565b34801561016b57600080fd5b5061017f61017a366004611af4565b6104ab565b6040517fffffffff000000000000000000000000000000000000000000000000000000009091168152602001610128565b3480156101bc57600080fd5b506101d06101cb366004611c0f565b6105cd565b005b3480156101de57600080fd5b506101d06101ed366004611d13565b6107a6565b3480156101fe57600080fd5b507f3f106594dc74eeef980dae234cde8324dc2497b13d27a0c59e55bd2ca10a07c9545b60405173ffffffffffffffffffffffffffffffffffffffff9091168152602001610128565b34801561025357600080fd5b506101d0610262366004611d7a565b6108f8565b34801561027357600080fd5b506101d0610282366004611dd9565b6109d2565b34801561029357600080fd5b5061011b6102a2366004611e2c565b610ad2565b3480156102b357600080fd5b506102c76102c2366004611ef3565b610b4f565b6040519015158152602001610128565b3480156102e357600080fd5b506101d06102f2366004611f28565b610bc3565b34801561030357600080fd5b506101d0610312366004611f70565b610cfc565b6101d0610325366004611fd7565b610e93565b34801561033657600080fd5b506101d0610345366004611ff7565b610f6e565b34801561035657600080fd5b506102226110ce565b60606002600083600381111561037757610377612063565b600381111561038857610388612063565b815260200190815260200160002080546103a190612092565b80601f01602080910402602001604051908101604052809291908181526020018280546103cd90612092565b801561041a5780601f106103ef5761010080835404028352916020019161041a565b820191906000526020600020905b8154815290600101906020018083116103fd57829003601f168201915b50505050509050919050565b60006001600085600481111561043e5761043e612063565b600481111561044f5761044f612063565b81526020019081526020016000206000848152602001908152602001600020600083600481111561048257610482612063565b600481111561049357610493612063565b81526020019081526020016000205490509392505050565b60006104d57f4e5f991bca30eca2d4643aaefa807e88f96a4a97398933d572a3c0d973004a015490565b15610541576040517f08c379a000000000000000000000000000000000000000000000000000000000815260206004820152601e60248201527f484f4c4f47524150483a20616c726561647920696e697469616c697a6564000060448201526064015b60405180910390fd5b60008280602001905181019061055791906120e5565b9050807f3f106594dc74eeef980dae234cde8324dc2497b13d27a0c59e55bd2ca10a07c9556105a560017f4e5f991bca30eca2d4643aaefa807e88f96a4a97398933d572a3c0d973004a0155565b507f4ddf47d40000000000000000000000000000000000000000000000000000000092915050565b7f3f106594dc74eeef980dae234cde8324dc2497b13d27a0c59e55bd2ca10a07c95473ffffffffffffffffffffffffffffffffffffffff163373ffffffffffffffffffffffffffffffffffffffff1614610683576040517f08c379a000000000000000000000000000000000000000000000000000000000815260206004820152601e60248201527f484f4c4f47524150483a2061646d696e206f6e6c792066756e6374696f6e00006044820152606401610538565b8660005b8181101561079a578383828181106106a1576106a1612102565b90506020020135600160008c8c858181106106be576106be612102565b90506020020160208101906106d39190612131565b60048111156106e4576106e4612063565b60048111156106f5576106f5612063565b815260200190815260200160002060008a8a8581811061071757610717612102565b905060200201358152602001908152602001600020600088888581811061074057610740612102565b90506020020160208101906107559190612131565b600481111561076657610766612063565b600481111561077757610777612063565b8152602081019190915260400160002055806107928161217d565b915050610687565b50505050505050505050565b7f3f106594dc74eeef980dae234cde8324dc2497b13d27a0c59e55bd2ca10a07c95473ffffffffffffffffffffffffffffffffffffffff163373ffffffffffffffffffffffffffffffffffffffff161461085c576040517f08c379a000000000000000000000000000000000000000000000000000000000815260206004820152601e60248201527f484f4c4f47524150483a2061646d696e206f6e6c792066756e6374696f6e00006044820152606401610538565b8060008085600481111561087257610872612063565b600481111561088357610883612063565b8152602080820192909252604090810160009081207fffffffff000000000000000000000000000000000000000000000000000000009690961681529490915290922080547fffffffffffffffffffffffffffffffffffffffffffffffffffffffffffffff0016921515929092179091555050565b7f3f106594dc74eeef980dae234cde8324dc2497b13d27a0c59e55bd2ca10a07c95473ffffffffffffffffffffffffffffffffffffffff163373ffffffffffffffffffffffffffffffffffffffff16146109ae576040517f08c379a000000000000000000000000000000000000000000000000000000000815260206004820152601e60248201527f484f4c4f47524150483a2061646d696e206f6e6c792066756e6374696f6e00006044820152606401610538565b7f3f106594dc74eeef980dae234cde8324dc2497b13d27a0c59e55bd2ca10a07c955565b7f3f106594dc74eeef980dae234cde8324dc2497b13d27a0c59e55bd2ca10a07c95473ffffffffffffffffffffffffffffffffffffffff163373ffffffffffffffffffffffffffffffffffffffff1614610a88576040517f08c379a000000000000000000000000000000000000000000000000000000000815260206004820152601e60248201527f484f4c4f47524150483a2061646d696e206f6e6c792066756e6374696f6e00006044820152606401610538565b818160026000866003811115610aa057610aa0612063565b6003811115610ab157610ab1612063565b81526020019081526020016000209190610acc92919061190e565b50505050565b6060610b2289898b8b8b8b8b8b610aec8c61ffff166110fd565b610af58c61125d565b604051602001610b0e9a999897969594939291906121b5565b6040516020818303038152906040526113e1565b604051602001610b329190612332565b604051602081830303815290604052905098975050505050505050565b6000806000846004811115610b6657610b66612063565b6004811115610b7757610b77612063565b8152602080820192909252604090810160009081207fffffffff000000000000000000000000000000000000000000000000000000008616825290925290205460ff1690505b92915050565b7f3f106594dc74eeef980dae234cde8324dc2497b13d27a0c59e55bd2ca10a07c95473ffffffffffffffffffffffffffffffffffffffff163373ffffffffffffffffffffffffffffffffffffffff1614610c79576040517f08c379a000000000000000000000000000000000000000000000000000000000815260206004820152601e60248201527f484f4c4f47524150483a2061646d696e206f6e6c792066756e6374696f6e00006044820152606401610538565b8060016000866004811115610c9057610c90612063565b6004811115610ca157610ca1612063565b815260200190815260200160002060008581526020019081526020016000206000846004811115610cd457610cd4612063565b6004811115610ce557610ce5612063565b815260208101919091526040016000205550505050565b7f3f106594dc74eeef980dae234cde8324dc2497b13d27a0c59e55bd2ca10a07c95473ffffffffffffffffffffffffffffffffffffffff163373ffffffffffffffffffffffffffffffffffffffff1614610db2576040517f08c379a000000000000000000000000000000000000000000000000000000000815260206004820152601e60248201527f484f4c4f47524150483a2061646d696e206f6e6c792066756e6374696f6e00006044820152606401610538565b60005b82811015610e8c5781600080876004811115610dd357610dd3612063565b6004811115610de457610de4612063565b81526020019081526020016000206000868685818110610e0657610e06612102565b9050602002016020810190610e1b9190612377565b7fffffffff00000000000000000000000000000000000000000000000000000000168152602081019190915260400160002080547fffffffffffffffffffffffffffffffffffffffffffffffffffffffffffffff001691151591909117905580610e848161217d565b915050610db5565b5050505050565b7f3f106594dc74eeef980dae234cde8324dc2497b13d27a0c59e55bd2ca10a07c95473ffffffffffffffffffffffffffffffffffffffff163373ffffffffffffffffffffffffffffffffffffffff1614610f49576040517f08c379a000000000000000000000000000000000000000000000000000000000815260206004820152601e60248201527f484f4c4f47524150483a2061646d696e206f6e6c792066756e6374696f6e00006044820152606401610538565b808260003760008082600034875af13d6000803e808015610f69573d6000f35b3d6000fd5b7f3f106594dc74eeef980dae234cde8324dc2497b13d27a0c59e55bd2ca10a07c95473ffffffffffffffffffffffffffffffffffffffff163373ffffffffffffffffffffffffffffffffffffffff1614611024576040517f08c379a000000000000000000000000000000000000000000000000000000000815260206004820152601e60248201527f484f4c4f47524150483a2061646d696e206f6e6c792066756e6374696f6e00006044820152606401610538565b60005b83811015610e8c5782828281811061104157611041612102565b90506020028101906110539190612392565b6002600088888681811061106957611069612102565b905060200201602081019061107e91906119d4565b600381111561108f5761108f612063565b60038111156110a0576110a0612063565b815260200190815260200160002091906110bb92919061190e565b50806110c68161217d565b915050611027565b60006110f87f3f106594dc74eeef980dae234cde8324dc2497b13d27a0c59e55bd2ca10a07c95490565b905090565b60608160000361114057505060408051808201909152600181527f3000000000000000000000000000000000000000000000000000000000000000602082015290565b8160005b811561116a57806111548161217d565b91506111639050600a83612426565b9150611144565b60008167ffffffffffffffff81111561118557611185611ac5565b6040519080825280601f01601f1916602001820160405280156111af576020820181803683370190505b509050815b8515611254576111c560018261243a565b905060006111d4600a88612426565b6111df90600a612451565b6111e9908861243a565b6111f490603061248e565b905060008160f81b90508084848151811061121157611211612102565b60200101907effffffffffffffffffffffffffffffffffffffffffffffffffffffffffffff1916908160001a90535061124b600a89612426565b975050506111b4565b50949350505050565b60408051602880825260608281019093526000919060208201818036833701905050905060005b60148110156113da57600061129a82601361243a565b6112a5906008612451565b6112b09060026125d3565b6112d09073ffffffffffffffffffffffffffffffffffffffff8716612426565b60f81b9050600060108260f81c6112e791906125df565b60f81b905060008160f81c60106112fe9190612601565b8360f81c61130c9190612622565b60f81b905061131a826117b8565b85611326866002612451565b8151811061133657611336612102565b60200101907effffffffffffffffffffffffffffffffffffffffffffffffffffffffffffff1916908160001a90535061136e816117b8565b8561137a866002612451565b611385906001612645565b8151811061139557611395612102565b60200101907effffffffffffffffffffffffffffffffffffffffffffffffffffffffffffff1916908160001a90535050505080806113d29061217d565b915050611284565b5092915050565b60606000600383516113f3919061265d565b905060006003611403838261243a565b61140d919061265d565b60038551600261141d9190612645565b6114279190612426565b611432906004612451565b61143c919061243a565b905060008167ffffffffffffffff81111561145957611459611ac5565b6040519080825280601f01601f191660200182016040528015611483576020820181803683370190505b5090506000805b8651611497836003612645565b11611641576115068783815181106114b1576114b1612102565b016020015160f81c886114c5856001612645565b815181106114d5576114d5612102565b016020015160f81c896114e9866002612645565b815181106114f9576114f9612102565b016020015160f81c6117f3565b86858151811061151857611518612102565b0160200187611528876001612645565b8151811061153857611538612102565b0160200188611548886002612645565b8151811061155857611558612102565b0160200189611568896003612645565b8151811061157857611578612102565b7fff00000000000000000000000000000000000000000000000000000000000000861660001a9101602001537fff00000000000000000000000000000000000000000000000000000000000000851660001a90537fff00000000000000000000000000000000000000000000000000000000000000851660001a90537fff00000000000000000000000000000000000000000000000000000000000000851660001a90535050505060048161162d9190612645565b905061163a600383612645565b915061148a565b84156117ad57600087868951611657919061243a565b8151811061166757611667612102565b016020015160f81c9050600060028790036116a6578860018a5161168b919061243a565b8151811061169b5761169b612102565b016020015160f81c90505b60008060006116bd8560ff168560ff1660006117f3565b50925092509250828887815181106116d7576116d7612102565b60200101907effffffffffffffffffffffffffffffffffffffffffffffffffffffffffffff1916908160001a9053508188611713886001612645565b8151811061172357611723612102565b60200101907effffffffffffffffffffffffffffffffffffffffffffffffffffffffffffff1916908160001a905350896002036117a7578088611767886002612645565b8151811061177757611777612102565b60200101907effffffffffffffffffffffffffffffffffffffffffffffffffffffffffffff1916908160001a9053505b50505050505b509095945050505050565b6000600a60f883901c10156117df576117d660f883901c603061248e565b60f81b92915050565b6117d660f883901c605761248e565b919050565b60408051606081018252818152600091829182918291601089901b600889901b17871791603f601284901c811692600c85901c821692600686901c831692861691906126726020830139848151811061184e5761184e612102565b602001015160f81c60f81b985060405180606001604052806040815260200161267260409139838151811061188557611885612102565b602001015160f81c60f81b97506040518060600160405280604081526020016126726040913982815181106118bc576118bc612102565b602001015160f81c60f81b96506040518060600160405280604081526020016126726040913981815181106118f3576118f3612102565b602001015160f81c60f81b9550505050505093509350935093565b82805461191a90612092565b90600052602060002090601f01602090048101928261193c57600085556119a0565b82601f10611973578280017fffffffffffffffffffffffffffffffffffffffffffffffffffffffffffffff008235161785556119a0565b828001600101855582156119a0579182015b828111156119a0578235825591602001919060010190611985565b506119ac9291506119b0565b5090565b5b808211156119ac57600081556001016119b1565b8035600481106117ee57600080fd5b6000602082840312156119e657600080fd5b6119ef826119c5565b9392505050565b60005b83811015611a115781810151838201526020016119f9565b83811115610acc5750506000910152565b6020815260008251806020840152611a418160408501602087016119f6565b601f017fffffffffffffffffffffffffffffffffffffffffffffffffffffffffffffffe0169190910160400192915050565b60058110611a8057600080fd5b50565b600080600060608486031215611a9857600080fd5b8335611aa381611a73565b9250602084013591506040840135611aba81611a73565b809150509250925092565b7f4e487b7100000000000000000000000000000000000000000000000000000000600052604160045260246000fd5b600060208284031215611b0657600080fd5b813567ffffffffffffffff80821115611b1e57600080fd5b818401915084601f830112611b3257600080fd5b813581811115611b4457611b44611ac5565b604051601f82017fffffffffffffffffffffffffffffffffffffffffffffffffffffffffffffffe0908116603f01168101908382118183101715611b8a57611b8a611ac5565b81604052828152876020848701011115611ba357600080fd5b826020860160208301376000928101602001929092525095945050505050565b60008083601f840112611bd557600080fd5b50813567ffffffffffffffff811115611bed57600080fd5b6020830191508360208260051b8501011115611c0857600080fd5b9250929050565b6000806000806000806000806080898b031215611c2b57600080fd5b883567ffffffffffffffff80821115611c4357600080fd5b611c4f8c838d01611bc3565b909a50985060208b0135915080821115611c6857600080fd5b611c748c838d01611bc3565b909850965060408b0135915080821115611c8d57600080fd5b611c998c838d01611bc3565b909650945060608b0135915080821115611cb257600080fd5b50611cbf8b828c01611bc3565b999c989b5096995094979396929594505050565b80357fffffffff00000000000000000000000000000000000000000000000000000000811681146117ee57600080fd5b803580151581146117ee57600080fd5b600080600060608486031215611d2857600080fd5b8335611d3381611a73565b9250611d4160208501611cd3565b9150611d4f60408501611d03565b90509250925092565b73ffffffffffffffffffffffffffffffffffffffff81168114611a8057600080fd5b600060208284031215611d8c57600080fd5b81356119ef81611d58565b60008083601f840112611da957600080fd5b50813567ffffffffffffffff811115611dc157600080fd5b602083019150836020828501011115611c0857600080fd5b600080600060408486031215611dee57600080fd5b611df7846119c5565b9250602084013567ffffffffffffffff811115611e1357600080fd5b611e1f86828701611d97565b9497909650939450505050565b60008060008060008060008060a0898b031215611e4857600080fd5b883567ffffffffffffffff80821115611e6057600080fd5b611e6c8c838d01611d97565b909a50985060208b0135915080821115611e8557600080fd5b611e918c838d01611d97565b909850965060408b0135915080821115611eaa57600080fd5b50611eb78b828c01611d97565b909550935050606089013561ffff81168114611ed257600080fd5b91506080890135611ee281611d58565b809150509295985092959890939650565b60008060408385031215611f0657600080fd5b8235611f1181611a73565b9150611f1f60208401611cd3565b90509250929050565b60008060008060808587031215611f3e57600080fd5b8435611f4981611a73565b9350602085013592506040850135611f6081611a73565b9396929550929360600135925050565b60008060008060608587031215611f8657600080fd5b8435611f9181611a73565b9350602085013567ffffffffffffffff811115611fad57600080fd5b611fb987828801611bc3565b9094509250611fcc905060408601611d03565b905092959194509250565b600080600060408486031215611fec57600080fd5b8335611df781611d58565b6000806000806040858703121561200d57600080fd5b843567ffffffffffffffff8082111561202557600080fd5b61203188838901611bc3565b9096509450602087013591508082111561204a57600080fd5b5061205787828801611bc3565b95989497509550505050565b7f4e487b7100000000000000000000000000000000000000000000000000000000600052602160045260246000fd5b600181811c908216806120a657607f821691505b6020821081036120df577f4e487b7100000000000000000000000000000000000000000000000000000000600052602260045260246000fd5b50919050565b6000602082840312156120f757600080fd5b81516119ef81611d58565b7f4e487b7100000000000000000000000000000000000000000000000000000000600052603260045260246000fd5b60006020828403121561214357600080fd5b81356119ef81611a73565b7f4e487b7100000000000000000000000000000000000000000000000000000000600052601160045260246000fd5b60007fffffffffffffffffffffffffffffffffffffffffffffffffffffffffffffffff82036121ae576121ae61214e565b5060010190565b7f7b226e616d65223a2200000000000000000000000000000000000000000000008152898b600983013760008a82017f222c226465736372697074696f6e223a220000000000000000000000000000006009820152898b601a8301377f222c22696d616765223a22000000000000000000000000000000000000000000601a918b0191820152878960258301377f222c2265787465726e616c5f6c696e6b223a2200000000000000000000000000602591890191820152858760388301377f222c2273656c6c65725f6665655f62617369735f706f696e7473223a0000000060389187019182015284516122b08160548401602089016119f6565b7f2c226665655f726563697069656e74223a2230780000000000000000000000006054929091019182015283516122ee8160688401602088016119f6565b6123206068828401017f227d000000000000000000000000000000000000000000000000000000000000815260020190565b9e9d5050505050505050505050505050565b7f646174613a6170706c69636174696f6e2f6a736f6e3b6261736536342c00000081526000825161236a81601d8501602087016119f6565b91909101601d0192915050565b60006020828403121561238957600080fd5b6119ef82611cd3565b60008083357fffffffffffffffffffffffffffffffffffffffffffffffffffffffffffffffe18436030181126123c757600080fd5b83018035915067ffffffffffffffff8211156123e257600080fd5b602001915036819003821315611c0857600080fd5b7f4e487b7100000000000000000000000000000000000000000000000000000000600052601260045260246000fd5b600082612435576124356123f7565b500490565b60008282101561244c5761244c61214e565b500390565b6000817fffffffffffffffffffffffffffffffffffffffffffffffffffffffffffffffff04831182151516156124895761248961214e565b500290565b600060ff821660ff84168060ff038211156124ab576124ab61214e565b019392505050565b600181815b8085111561250c57817fffffffffffffffffffffffffffffffffffffffffffffffffffffffffffffffff048211156124f2576124f261214e565b808516156124ff57918102915b93841c93908002906124b8565b509250929050565b60008261252357506001610bbd565b8161253057506000610bbd565b816001811461254657600281146125505761256c565b6001915050610bbd565b60ff8411156125615761256161214e565b50506001821b610bbd565b5060208310610133831016604e8410600b841016171561258f575081810a610bbd565b61259983836124b3565b807fffffffffffffffffffffffffffffffffffffffffffffffffffffffffffffffff048211156125cb576125cb61214e565b029392505050565b60006119ef8383612514565b600060ff8316806125f2576125f26123f7565b8060ff84160491505092915050565b600060ff821660ff84168160ff04811182151516156125cb576125cb61214e565b600060ff821660ff84168082101561263c5761263c61214e565b90039392505050565b600082198211156126585761265861214e565b500190565b60008261266c5761266c6123f7565b50069056fe4142434445464748494a4b4c4d4e4f505152535455565758595a6162636465666768696a6b6c6d6e6f707172737475767778797a303132333435363738392d5fa164736f6c634300080d000a",
  "devdoc": {
    "kind": "dev",
    "methods": {
      "init(bytes)": {
        "details": "This function is called by the deployer/factory when creating a contract."
      }
    },
    "version": 1
  },
  "userdoc": {
    "kind": "user",
    "methods": {
      "init(bytes)": {
        "notice": "Used internally to initialize the contract instead of through a constructor"
      }
    },
    "version": 1
  },
  "storageLayout": {
    "storage": [
      {
        "astId": 1442,
        "contract": "contracts/HolographInterfaces.sol:HolographInterfaces",
        "label": "_supportedInterfaces",
        "offset": 0,
        "slot": "0",
        "type": "t_mapping(t_enum(InterfaceType)12731,t_mapping(t_bytes4,t_bool))"
      },
      {
        "astId": 1452,
        "contract": "contracts/HolographInterfaces.sol:HolographInterfaces",
        "label": "_chainIdMap",
        "offset": 0,
        "slot": "1",
        "type": "t_mapping(t_enum(ChainIdType)12685,t_mapping(t_uint256,t_mapping(t_enum(ChainIdType)12685,t_uint256)))"
      },
      {
        "astId": 1457,
        "contract": "contracts/HolographInterfaces.sol:HolographInterfaces",
        "label": "_prependURI",
        "offset": 0,
        "slot": "2",
        "type": "t_mapping(t_enum(TokenUriType)12738,t_string_storage)"
      }
    ],
    "types": {
      "t_bool": {
        "encoding": "inplace",
        "label": "bool",
        "numberOfBytes": "1"
      },
      "t_bytes4": {
        "encoding": "inplace",
        "label": "bytes4",
        "numberOfBytes": "4"
      },
      "t_enum(ChainIdType)12685": {
        "encoding": "inplace",
        "label": "enum ChainIdType",
        "numberOfBytes": "1"
      },
      "t_enum(InterfaceType)12731": {
        "encoding": "inplace",
        "label": "enum InterfaceType",
        "numberOfBytes": "1"
      },
      "t_enum(TokenUriType)12738": {
        "encoding": "inplace",
        "label": "enum TokenUriType",
        "numberOfBytes": "1"
      },
      "t_mapping(t_bytes4,t_bool)": {
        "encoding": "mapping",
        "key": "t_bytes4",
        "label": "mapping(bytes4 => bool)",
        "numberOfBytes": "32",
        "value": "t_bool"
      },
      "t_mapping(t_enum(ChainIdType)12685,t_mapping(t_uint256,t_mapping(t_enum(ChainIdType)12685,t_uint256)))": {
        "encoding": "mapping",
        "key": "t_enum(ChainIdType)12685",
        "label": "mapping(enum ChainIdType => mapping(uint256 => mapping(enum ChainIdType => uint256)))",
        "numberOfBytes": "32",
        "value": "t_mapping(t_uint256,t_mapping(t_enum(ChainIdType)12685,t_uint256))"
      },
      "t_mapping(t_enum(ChainIdType)12685,t_uint256)": {
        "encoding": "mapping",
        "key": "t_enum(ChainIdType)12685",
        "label": "mapping(enum ChainIdType => uint256)",
        "numberOfBytes": "32",
        "value": "t_uint256"
      },
      "t_mapping(t_enum(InterfaceType)12731,t_mapping(t_bytes4,t_bool))": {
        "encoding": "mapping",
        "key": "t_enum(InterfaceType)12731",
        "label": "mapping(enum InterfaceType => mapping(bytes4 => bool))",
        "numberOfBytes": "32",
        "value": "t_mapping(t_bytes4,t_bool)"
      },
      "t_mapping(t_enum(TokenUriType)12738,t_string_storage)": {
        "encoding": "mapping",
        "key": "t_enum(TokenUriType)12738",
        "label": "mapping(enum TokenUriType => string)",
        "numberOfBytes": "32",
        "value": "t_string_storage"
      },
      "t_mapping(t_uint256,t_mapping(t_enum(ChainIdType)12685,t_uint256))": {
        "encoding": "mapping",
        "key": "t_uint256",
        "label": "mapping(uint256 => mapping(enum ChainIdType => uint256))",
        "numberOfBytes": "32",
        "value": "t_mapping(t_enum(ChainIdType)12685,t_uint256)"
      },
      "t_string_storage": {
        "encoding": "bytes",
        "label": "string",
        "numberOfBytes": "32"
      },
      "t_uint256": {
        "encoding": "inplace",
        "label": "uint256",
        "numberOfBytes": "32"
      }
    }
  }
}