{
  "address": "0x120D32fb56e5b67e6d139E2DbEb596967DE9728c",
  "abi": [
    {
      "inputs": [],
      "stateMutability": "nonpayable",
      "type": "constructor"
    },
    {
      "anonymous": false,
      "inputs": [
        {
          "indexed": false,
          "internalType": "bytes32",
          "name": "jobHash",
          "type": "bytes32"
        },
        {
          "indexed": false,
          "internalType": "bytes",
          "name": "payload",
          "type": "bytes"
        }
      ],
      "name": "AvailableOperatorJob",
      "type": "event"
    },
    {
      "anonymous": false,
      "inputs": [
        {
          "indexed": false,
          "internalType": "bytes32",
          "name": "messageHash",
          "type": "bytes32"
        }
      ],
      "name": "CrossChainMessageSent",
      "type": "event"
    },
    {
      "anonymous": false,
      "inputs": [
        {
          "indexed": false,
          "internalType": "bytes32",
          "name": "jobHash",
          "type": "bytes32"
        },
        {
          "indexed": false,
          "internalType": "bytes",
          "name": "revertReason",
          "type": "bytes"
        }
      ],
      "name": "FailedOperatorJob",
      "type": "event"
    },
    {
      "stateMutability": "payable",
      "type": "fallback"
    },
    {
      "inputs": [],
      "name": "admin",
      "outputs": [
        {
          "internalType": "address",
          "name": "",
          "type": "address"
        }
      ],
      "stateMutability": "view",
      "type": "function"
    },
    {
      "inputs": [
        {
          "internalType": "address",
          "name": "target",
          "type": "address"
        },
        {
          "internalType": "bytes",
          "name": "data",
          "type": "bytes"
        }
      ],
      "name": "adminCall",
      "outputs": [],
      "stateMutability": "payable",
      "type": "function"
    },
    {
      "inputs": [
        {
          "internalType": "address",
          "name": "operator",
          "type": "address"
        },
        {
          "internalType": "uint256",
          "name": "amount",
          "type": "uint256"
        },
        {
          "internalType": "uint256",
          "name": "pod",
          "type": "uint256"
        }
      ],
      "name": "bondUtilityToken",
      "outputs": [],
      "stateMutability": "nonpayable",
      "type": "function"
    },
    {
      "inputs": [
        {
          "internalType": "bytes",
          "name": "bridgeInRequestPayload",
          "type": "bytes"
        }
      ],
      "name": "crossChainMessage",
      "outputs": [],
      "stateMutability": "payable",
      "type": "function"
    },
    {
      "inputs": [
        {
          "internalType": "bytes",
          "name": "bridgeInRequestPayload",
          "type": "bytes"
        }
      ],
      "name": "executeJob",
      "outputs": [],
      "stateMutability": "payable",
      "type": "function"
    },
    {
      "inputs": [],
      "name": "getAdmin",
      "outputs": [
        {
          "internalType": "address",
          "name": "adminAddress",
          "type": "address"
        }
      ],
      "stateMutability": "view",
      "type": "function"
    },
    {
      "inputs": [
        {
          "internalType": "address",
          "name": "operator",
          "type": "address"
        }
      ],
      "name": "getBondedPod",
      "outputs": [
        {
          "internalType": "uint256",
          "name": "pod",
          "type": "uint256"
        }
      ],
      "stateMutability": "view",
      "type": "function"
    },
    {
      "inputs": [],
      "name": "getBridge",
      "outputs": [
        {
          "internalType": "address",
          "name": "bridge",
          "type": "address"
        }
      ],
      "stateMutability": "view",
      "type": "function"
    },
    {
      "inputs": [],
      "name": "getHolograph",
      "outputs": [
        {
          "internalType": "address",
          "name": "holograph",
          "type": "address"
        }
      ],
      "stateMutability": "view",
      "type": "function"
    },
    {
      "inputs": [],
      "name": "getInterfaces",
      "outputs": [
        {
          "internalType": "address",
          "name": "interfaces",
          "type": "address"
        }
      ],
      "stateMutability": "view",
      "type": "function"
    },
    {
      "inputs": [
        {
          "internalType": "bytes32",
          "name": "jobHash",
          "type": "bytes32"
        }
      ],
      "name": "getJobDetails",
      "outputs": [
        {
          "components": [
            {
              "internalType": "uint8",
              "name": "pod",
              "type": "uint8"
            },
            {
              "internalType": "uint16",
              "name": "blockTimes",
              "type": "uint16"
            },
            {
              "internalType": "address",
              "name": "operator",
              "type": "address"
            },
            {
              "internalType": "uint40",
              "name": "startBlock",
              "type": "uint40"
            },
            {
              "internalType": "uint64",
              "name": "startTimestamp",
              "type": "uint64"
            },
            {
              "internalType": "uint16[5]",
              "name": "fallbackOperators",
              "type": "uint16[5]"
            }
          ],
          "internalType": "struct OperatorJob",
          "name": "",
          "type": "tuple"
        }
      ],
      "stateMutability": "view",
      "type": "function"
    },
    {
      "inputs": [],
      "name": "getMessagingModule",
      "outputs": [
        {
          "internalType": "address",
          "name": "messagingModule",
          "type": "address"
        }
      ],
      "stateMutability": "view",
      "type": "function"
    },
    {
      "inputs": [
        {
          "internalType": "uint256",
          "name": "pod",
          "type": "uint256"
        }
      ],
      "name": "getPodBondAmounts",
      "outputs": [
        {
          "internalType": "uint256",
          "name": "base",
          "type": "uint256"
        },
        {
          "internalType": "uint256",
          "name": "current",
          "type": "uint256"
        }
      ],
      "stateMutability": "view",
      "type": "function"
    },
    {
      "inputs": [
        {
          "internalType": "uint256",
          "name": "pod",
          "type": "uint256"
        },
        {
          "internalType": "uint256",
          "name": "index",
          "type": "uint256"
        },
        {
          "internalType": "uint256",
          "name": "length",
          "type": "uint256"
        }
      ],
      "name": "getPodOperators",
      "outputs": [
        {
          "internalType": "address[]",
          "name": "operators",
          "type": "address[]"
        }
      ],
      "stateMutability": "view",
      "type": "function"
    },
    {
      "inputs": [
        {
          "internalType": "uint256",
          "name": "pod",
          "type": "uint256"
        }
      ],
      "name": "getPodOperators",
      "outputs": [
        {
          "internalType": "address[]",
          "name": "operators",
          "type": "address[]"
        }
      ],
      "stateMutability": "view",
      "type": "function"
    },
    {
      "inputs": [
        {
          "internalType": "uint256",
          "name": "pod",
          "type": "uint256"
        }
      ],
      "name": "getPodOperatorsLength",
      "outputs": [
        {
          "internalType": "uint256",
          "name": "",
          "type": "uint256"
        }
      ],
      "stateMutability": "view",
      "type": "function"
    },
    {
      "inputs": [],
      "name": "getRegistry",
      "outputs": [
        {
          "internalType": "address",
          "name": "registry",
          "type": "address"
        }
      ],
      "stateMutability": "view",
      "type": "function"
    },
    {
      "inputs": [],
      "name": "getTotalPods",
      "outputs": [
        {
          "internalType": "uint256",
          "name": "totalPods",
          "type": "uint256"
        }
      ],
      "stateMutability": "view",
      "type": "function"
    },
    {
      "inputs": [],
      "name": "getUtilityToken",
      "outputs": [
        {
          "internalType": "address",
          "name": "utilityToken",
          "type": "address"
        }
      ],
      "stateMutability": "view",
      "type": "function"
    },
    {
      "inputs": [
        {
          "internalType": "bytes",
          "name": "initPayload",
          "type": "bytes"
        }
      ],
      "name": "init",
      "outputs": [
        {
          "internalType": "bytes4",
          "name": "",
          "type": "bytes4"
        }
      ],
      "stateMutability": "nonpayable",
      "type": "function"
    },
    {
      "inputs": [
        {
          "internalType": "bytes",
          "name": "bridgeInRequestPayload",
          "type": "bytes"
        }
      ],
      "name": "jobEstimator",
      "outputs": [
        {
          "internalType": "uint256",
          "name": "",
          "type": "uint256"
        }
      ],
      "stateMutability": "payable",
      "type": "function"
    },
    {
      "inputs": [
        {
          "internalType": "uint256",
          "name": "gasLimit",
          "type": "uint256"
        },
        {
          "internalType": "uint256",
          "name": "gasPrice",
          "type": "uint256"
        },
        {
          "internalType": "uint32",
          "name": "toChain",
          "type": "uint32"
        },
        {
          "internalType": "address",
          "name": "msgSender",
          "type": "address"
        },
        {
          "internalType": "uint256",
          "name": "nonce",
          "type": "uint256"
        },
        {
          "internalType": "address",
          "name": "holographableContract",
          "type": "address"
        },
        {
          "internalType": "bytes",
          "name": "bridgeOutPayload",
          "type": "bytes"
        }
      ],
      "name": "send",
      "outputs": [],
      "stateMutability": "payable",
      "type": "function"
    },
    {
      "inputs": [
        {
          "internalType": "address",
          "name": "adminAddress",
          "type": "address"
        }
      ],
      "name": "setAdmin",
      "outputs": [],
      "stateMutability": "nonpayable",
      "type": "function"
    },
    {
      "inputs": [
        {
          "internalType": "address",
          "name": "bridge",
          "type": "address"
        }
      ],
      "name": "setBridge",
      "outputs": [],
      "stateMutability": "nonpayable",
      "type": "function"
    },
    {
      "inputs": [
        {
          "internalType": "address",
          "name": "holograph",
          "type": "address"
        }
      ],
      "name": "setHolograph",
      "outputs": [],
      "stateMutability": "nonpayable",
      "type": "function"
    },
    {
      "inputs": [
        {
          "internalType": "address",
          "name": "interfaces",
          "type": "address"
        }
      ],
      "name": "setInterfaces",
      "outputs": [],
      "stateMutability": "nonpayable",
      "type": "function"
    },
    {
      "inputs": [
        {
          "internalType": "address",
          "name": "messagingModule",
          "type": "address"
        }
      ],
      "name": "setMessagingModule",
      "outputs": [],
      "stateMutability": "nonpayable",
      "type": "function"
    },
    {
      "inputs": [
        {
          "internalType": "address",
          "name": "registry",
          "type": "address"
        }
      ],
      "name": "setRegistry",
      "outputs": [],
      "stateMutability": "nonpayable",
      "type": "function"
    },
    {
      "inputs": [
        {
          "internalType": "address",
          "name": "utilityToken",
          "type": "address"
        }
      ],
      "name": "setUtilityToken",
      "outputs": [],
      "stateMutability": "nonpayable",
      "type": "function"
    },
    {
      "inputs": [
        {
          "internalType": "address",
          "name": "operator",
          "type": "address"
        },
        {
          "internalType": "uint256",
          "name": "amount",
          "type": "uint256"
        }
      ],
      "name": "topupUtilityToken",
      "outputs": [],
      "stateMutability": "nonpayable",
      "type": "function"
    },
    {
      "inputs": [
        {
          "internalType": "address",
          "name": "operator",
          "type": "address"
        },
        {
          "internalType": "address",
          "name": "recipient",
          "type": "address"
        }
      ],
      "name": "unbondUtilityToken",
      "outputs": [],
      "stateMutability": "nonpayable",
      "type": "function"
    },
    {
      "stateMutability": "payable",
      "type": "receive"
    }
  ],
  "transactionHash": "0x727f4077b40f459c6701bbbfe48c44fc8162d4301b02988b93d23a346864c44d",
  "args": [],
  "numDeployments": 3,
  "solcInputHash": "0170ccd2045a2b851ffe72cadf6fabb9",
  "bytecode": "0x608060405234801561001057600080fd5b50613eb6806100206000396000f3fe6080604052600436106101db5760003560e01c8063612a33721161010257806391e0d46b11610095578063d2197bd311610064578063d2197bd314610637578063da8292d91461064c578063ebac15f91461066c578063f851a440146106a057600080fd5b806391e0d46b146105ae578063a91ee0dc146105f1578063b24b2afc14610611578063bf64a82d1461062457600080fd5b80637868674d116100d15780637868674d1461052e5780638b432e4e1461054e5780638dd148021461056e5780639013ae081461058e57600080fd5b8063612a3372146104a75780636e9960c3146104c7578063704b6c02146104fb578063778fd1d11461051b57600080fd5b806327aa01f51161017a57806348dfc8b71161014957806348dfc8b7146103b9578063493b07ef146103ed5780634ddf47d4146104225780635ab1bd531461047357600080fd5b806327aa01f5146103255780632b4a75b414610352578063409aad69146103725780634827ae0c1461038557600080fd5b806311a33bda116101b657806311a33bda146102a357806321cb8f37146102d0578063254e1062146102f257806325d5cac81461030557600080fd5b8062626679146101e75780630b239c4e146102415780630fffbaf31461026f57600080fd5b366101e257005b600080fd5b3480156101f357600080fd5b507fbf76518d46db472b71aa7677a0908b8016f3dee568415ffa24055f9a670f9c37545b60405173ffffffffffffffffffffffffffffffffffffffff90911681526020015b60405180910390f35b34801561024d57600080fd5b5061026161025c366004613447565b6106b5565b604051908152602001610238565b34801561027b57600080fd5b507feb87cbb21687feb327e3d58c6c16d552231d12c7a0e8115042a4165fac8a77f954610217565b3480156102af57600080fd5b506102c36102be366004613447565b610758565b6040516102389190613460565b3480156102dc57600080fd5b506102f06102eb36600461351f565b610831565b005b6102f0610300366004613594565b610a13565b34801561031157600080fd5b506102f06103203660046135d6565b610da2565b34801561033157600080fd5b506103456103403660046135f3565b610e7c565b604051610238919061361f565b34801561035e57600080fd5b506102f061036d3660046135d6565b61103f565b6102f061038036600461368b565b611119565b34801561039157600080fd5b507fb4107f746e9496e8452accc7de63d1c5e14c19f510932daa04077cd49e8bd77a54610217565b3480156103c557600080fd5b507f54176250282e65985d205704ffce44a59efe61f7afd99e29fda50f55b48c061a54610217565b3480156103f957600080fd5b5061040d610408366004613447565b61158b565b60408051928352602083019190915201610238565b34801561042e57600080fd5b5061044261043d366004613752565b6115bd565b6040517fffffffff000000000000000000000000000000000000000000000000000000009091168152602001610238565b34801561047f57600080fd5b507fce8e75d5c5227ce29a4ee170160bb296e5dea6934b80a9bd723f7ef1e7c850e754610217565b3480156104b357600080fd5b506102f06104c2366004613821565b61181c565b3480156104d357600080fd5b507f3f106594dc74eeef980dae234cde8324dc2497b13d27a0c59e55bd2ca10a07c954610217565b34801561050757600080fd5b506102f06105163660046135d6565b611bfa565b6102f0610529366004613594565b611cd4565b34801561053a57600080fd5b50610345610549366004613447565b612531565b34801561055a57600080fd5b506102f061056936600461385a565b612634565b34801561057a57600080fd5b506102f06105893660046135d6565b612a5c565b34801561059a57600080fd5b506102f06105a93660046135d6565b612b36565b3480156105ba57600080fd5b506102616105c93660046135d6565b73ffffffffffffffffffffffffffffffffffffffff166000908152600c602052604090205490565b3480156105fd57600080fd5b506102f061060c3660046135d6565b612c10565b61026161061f366004613594565b612cea565b6102f061063236600461388f565b612d44565b34801561064357600080fd5b50600b54610261565b34801561065857600080fd5b506102f06106673660046135d6565b612e1f565b34801561067857600080fd5b507fbd3084b8c09da87ad159c247a60e209784196be2530cecbbd8f337fdd184882754610217565b3480156106ac57600080fd5b50610217612ef9565b600b54600090821115610729576040517f08c379a000000000000000000000000000000000000000000000000000000000815260206004820152601d60248201527f484f4c4f47524150483a20706f6420646f6573206e6f7420657869737400000060448201526064015b60405180910390fd5b600b610736600184613913565b815481106107465761074661392a565b60009182526020909120015492915050565b6107606132bd565b50600090815260076020908152604080832054815160c08101835260f882901c8152845461ffff9081168286015263ffffffff60d884901c16865260098552948390205473ffffffffffffffffffffffffffffffffffffffff168184015264ffffffffff60b083901c1660608083019190915267ffffffffffffffff601084901c16608080840191909152845160a0818101875285811c89168252609086901c89169782019790975284821c881695810195909552607084901c87168583015292901c909416908201529082015290565b73ffffffffffffffffffffffffffffffffffffffff82166000908152600c60205260409020546108bd576040517f08c379a000000000000000000000000000000000000000000000000000000000815260206004820152601e60248201527f484f4c4f47524150483a206f70657261746f72206e6f7420626f6e64656400006044820152606401610720565b73ffffffffffffffffffffffffffffffffffffffff82166000908152600e602052604090208054820190557fbf76518d46db472b71aa7677a0908b8016f3dee568415ffa24055f9a670f9c37546040517f23b872dd0000000000000000000000000000000000000000000000000000000081523360048201523060248201526044810183905273ffffffffffffffffffffffffffffffffffffffff91909116906323b872dd906064016020604051808303816000875af1158015610985573d6000803e3d6000fd5b505050506040513d601f19601f820116820180604052508101906109a99190613959565b610a0f576040517f08c379a000000000000000000000000000000000000000000000000000000000815260206004820181905260248201527f484f4c4f47524150483a20746f6b656e207472616e73666572206661696c65646044820152606401610720565b5050565b7f54176250282e65985d205704ffce44a59efe61f7afd99e29fda50f55b48c061a5473ffffffffffffffffffffffffffffffffffffffff163373ffffffffffffffffffffffffffffffffffffffff1614610ac9576040517f08c379a000000000000000000000000000000000000000000000000000000000815260206004820152601e60248201527f484f4c4f47524150483a206d6573736167696e67206f6e6c792063616c6c00006044820152606401610720565b60008282604051610adb92919061397b565b604051908190039020600a805463ffffffff808216600101167fffffffffffffffffffffffffffffffffffffffffffffffffffffffff000000009091161790559050600081610b507f1cda64803f3b43503042e00863791e8d996666552d5855a78d53ee1dd4b3286d80546001019081905590565b60408051602081019390935282015243606082015242608082015260a001604080517fffffffffffffffffffffffffffffffffffffffffffffffffffffffffffffffe08184030181529190528051602090910120600b549091506000908281610bbb57610bbb61398b565b0690506000600b8281548110610bd357610bd361392a565b60009182526020822001549150818481610bef57610bef61398b565b069050600b8381548110610c0557610c0561392a565b906000526020600020018181548110610c2057610c2061392a565b6000918252602080832090910154600a5463ffffffff1683526009909152604090912080547fffffffffffffffffffffffff00000000000000000000000000000000000000001673ffffffffffffffffffffffffffffffffffffffff909216919091179055610c8f8382612f28565b6001821115610cbe577fffffffffffffffffffffffffffffffffffffffffffffffffffffffffffffffff909101905b4260101b6060610cd086856005613181565b901b6070610ce087866004613181565b901b6080610cf088876003613181565b901b6090610d0089886002613181565b901b60a0610d108a896001613181565b901b60b043901b60d8600a60009054906101000a900463ffffffff1663ffffffff16901b60f88b600101901b171717171717171760001760076000878152602001908152602001600020819055507f4422a85db963f113e500bc4ada8f9e9f1a7bcd57cbec6907fbb2bf6aaf5878ff858888604051610d9193929190613a03565b60405180910390a150505050505050565b7f3f106594dc74eeef980dae234cde8324dc2497b13d27a0c59e55bd2ca10a07c95473ffffffffffffffffffffffffffffffffffffffff163373ffffffffffffffffffffffffffffffffffffffff1614610e58576040517f08c379a000000000000000000000000000000000000000000000000000000000815260206004820152601e60248201527f484f4c4f47524150483a2061646d696e206f6e6c792066756e6374696f6e00006044820152606401610720565b7fb4107f746e9496e8452accc7de63d1c5e14c19f510932daa04077cd49e8bd77a55565b600b54606090841115610eeb576040517f08c379a000000000000000000000000000000000000000000000000000000000815260206004820152601d60248201527f484f4c4f47524150483a20706f6420646f6573206e6f742065786973740000006044820152606401610720565b83610ef581613a26565b9450506000600b8581548110610f0d57610f0d61392a565b600091825260209091200154905080610f268486613a5b565b1115610f3957610f368482613913565b92505b8267ffffffffffffffff811115610f5257610f52613723565b604051908082528060200260200182016040528015610f7b578160200160208202803683370190505b50915060005b8381101561103657600b8681548110610f9c57610f9c61392a565b906000526020600020018186610fb29190613a5b565b81548110610fc257610fc261392a565b9060005260206000200160009054906101000a900473ffffffffffffffffffffffffffffffffffffffff16838281518110610fff57610fff61392a565b73ffffffffffffffffffffffffffffffffffffffff909216602092830291909101909101528061102e81613a73565b915050610f81565b50509392505050565b7f3f106594dc74eeef980dae234cde8324dc2497b13d27a0c59e55bd2ca10a07c95473ffffffffffffffffffffffffffffffffffffffff163373ffffffffffffffffffffffffffffffffffffffff16146110f5576040517f08c379a000000000000000000000000000000000000000000000000000000000815260206004820152601e60248201527f484f4c4f47524150483a2061646d696e206f6e6c792066756e6374696f6e00006044820152606401610720565b7f54176250282e65985d205704ffce44a59efe61f7afd99e29fda50f55b48c061a55565b7feb87cbb21687feb327e3d58c6c16d552231d12c7a0e8115042a4165fac8a77f95473ffffffffffffffffffffffffffffffffffffffff163373ffffffffffffffffffffffffffffffffffffffff16146111cf576040517f08c379a000000000000000000000000000000000000000000000000000000000815260206004820152601b60248201527f484f4c4f47524150483a20627269646765206f6e6c792063616c6c00000000006044820152606401610720565b60007f16f1be70000000000000000000000000000000000000000000000000000000008561121b7fb4107f746e9496e8452accc7de63d1c5e14c19f510932daa04077cd49e8bd77a5490565b73ffffffffffffffffffffffffffffffffffffffff1663381b5f466040518163ffffffff1660e01b8152600401602060405180830381865afa158015611265573d6000803e3d6000fd5b505050506040513d601f19601f820116820180604052508101906112899190613aab565b866112b27fce8e75d5c5227ce29a4ee170160bb296e5dea6934b80a9bd723f7ef1e7c850e75490565b73ffffffffffffffffffffffffffffffffffffffff1663949d53a76112f57fb4107f746e9496e8452accc7de63d1c5e14c19f510932daa04077cd49e8bd77a5490565b73ffffffffffffffffffffffffffffffffffffffff1663381b5f466040518163ffffffff1660e01b8152600401602060405180830381865afa15801561133f573d6000803e3d6000fd5b505050506040513d601f19601f820116820180604052508101906113639190613aab565b6040517fffffffff0000000000000000000000000000000000000000000000000000000060e084901b16815263ffffffff919091166004820152602401602060405180830381865afa1580156113bd573d6000803e3d6000fd5b505050506040513d601f19601f820116820180604052508101906113e19190613ac8565b60008060018a8a60405160240161140099989796959493929190613ae5565b604080517fffffffffffffffffffffffffffffffffffffffffffffffffffffffffffffffe0818403018152918152602080830180517bffffffffffffffffffffffffffffffffffffffffffffffffffffffff167fffffffff0000000000000000000000000000000000000000000000000000000090951694909417909352519092506114929183918c918c9101613b87565b60405160208183030381529060405290506114cb7f54176250282e65985d205704ffce44a59efe61f7afd99e29fda50f55b48c061a5490565b73ffffffffffffffffffffffffffffffffffffffff16630a0542ef8a8a8a8a34876040518763ffffffff1660e01b815260040161150d96959493929190613bae565b600060405180830381600087803b15801561152757600080fd5b505af115801561153b573d6000803e3d6000fd5b5050825160208401206040517f0f5759b4182507dcfc771071166f98d7ca331262e5134eaa74b676adce2138b79350611578925090815260200190565b60405180910390a1505050505050505050565b6000806115a161159c600185613913565b6131a1565b91506115b66115b1600185613913565b6131c4565b9050915091565b60006115e77f4e5f991bca30eca2d4643aaefa807e88f96a4a97398933d572a3c0d973004a015490565b1561164e576040517f08c379a000000000000000000000000000000000000000000000000000000000815260206004820152601e60248201527f484f4c4f47524150483a20616c726561647920696e697469616c697a656400006044820152606401610720565b60008060008060008680602001905181019061166a9190613c3e565b327f3f106594dc74eeef980dae234cde8324dc2497b13d27a0c59e55bd2ca10a07c9557feb87cbb21687feb327e3d58c6c16d552231d12c7a0e8115042a4165fac8a77f98590557fb4107f746e9496e8452accc7de63d1c5e14c19f510932daa04077cd49e8bd77a8490557fbd3084b8c09da87ad159c247a60e209784196be2530cecbbd8f337fdd18488278390557fce8e75d5c5227ce29a4ee170160bb296e5dea6934b80a9bd723f7ef1e7c850e78290557fbf76518d46db472b71aa7677a0908b8016f3dee568415ffa24055f9a670f9c37819055600a600081815568056bc75e2d631000006001908155600280556103e860035560049290925560646005556040805180820190915260208101918252908152959a509398509196509450925061179991600b916132f9565b5060008052600c60205260017f13649b2456f1b42fef0f0040b3aaeabcd21a76a0f3f5defd4f583839455116e8556117f060017f4e5f991bca30eca2d4643aaefa807e88f96a4a97398933d572a3c0d973004a0155565b507f4ddf47d4000000000000000000000000000000000000000000000000000000009695505050505050565b73ffffffffffffffffffffffffffffffffffffffff82166000908152600c602052604081205490036118aa576040517f08c379a000000000000000000000000000000000000000000000000000000000815260206004820152601e60248201527f484f4c4f47524150483a206f70657261746f72206e6f7420626f6e64656400006044820152606401610720565b3373ffffffffffffffffffffffffffffffffffffffff831614611a2a576118d082613283565b611936576040517f08c379a000000000000000000000000000000000000000000000000000000000815260206004820181905260248201527f484f4c4f47524150483a206f70657261746f72206e6f7420636f6e74726163746044820152606401610720565b6040517f2f54bf6e00000000000000000000000000000000000000000000000000000000815233600482015273ffffffffffffffffffffffffffffffffffffffff831690632f54bf6e90602401602060405180830381865afa1580156119a0573d6000803e3d6000fd5b505050506040513d601f19601f820116820180604052508101906119c49190613959565b611a2a576040517f08c379a000000000000000000000000000000000000000000000000000000000815260206004820152601b60248201527f484f4c4f47524150483a2073656e646572206e6f74206f776e657200000000006044820152606401610720565b73ffffffffffffffffffffffffffffffffffffffff82166000908152600e60209081526040808320805490849055600c90925290912054611a9c90611a7190600190613913565b73ffffffffffffffffffffffffffffffffffffffff85166000908152600d6020526040902054612f28565b7fbf76518d46db472b71aa7677a0908b8016f3dee568415ffa24055f9a670f9c37546040517fa9059cbb00000000000000000000000000000000000000000000000000000000815273ffffffffffffffffffffffffffffffffffffffff848116600483015260248201849052919091169063a9059cbb906044016020604051808303816000875af1158015611b35573d6000803e3d6000fd5b505050506040513d601f19601f82011682018060405250810190611b599190613959565b611bbf576040517f08c379a000000000000000000000000000000000000000000000000000000000815260206004820181905260248201527f484f4c4f47524150483a20746f6b656e207472616e73666572206661696c65646044820152606401610720565b73ffffffffffffffffffffffffffffffffffffffff83166000908152600c6020526040902054611bf590611a7190600190613913565b505050565b7f3f106594dc74eeef980dae234cde8324dc2497b13d27a0c59e55bd2ca10a07c95473ffffffffffffffffffffffffffffffffffffffff163373ffffffffffffffffffffffffffffffffffffffff1614611cb0576040517f08c379a000000000000000000000000000000000000000000000000000000000815260206004820152601e60248201527f484f4c4f47524150483a2061646d696e206f6e6c792066756e6374696f6e00006044820152606401610720565b7f3f106594dc74eeef980dae234cde8324dc2497b13d27a0c59e55bd2ca10a07c955565b60008282604051611ce692919061397b565b604051809103902090506000600760008381526020019081526020016000205411611d6d576040517f08c379a000000000000000000000000000000000000000000000000000000000815260206004820152601660248201527f484f4c4f47524150483a20696e76616c6964206a6f62000000000000000000006044820152606401610720565b8183017fffffffffffffffffffffffffffffffffffffffffffffffffffffffffffffffc0810135907fffffffffffffffffffffffffffffffffffffffffffffffffffffffffffffffe001356000611dc384610758565b6000858152600760205260408082209190915581015190915073ffffffffffffffffffffffffffffffffffffffff16156123eb578051600090611e0890600190613cb3565b60ff1690503373ffffffffffffffffffffffffffffffffffffffff16826040015173ffffffffffffffffffffffffffffffffffffffff1614612324576000826080015167ffffffffffffffff1642611e609190613913565b90506000836020015161ffff1682611e789190613cd6565b905060008111611ee4576040517f08c379a000000000000000000000000000000000000000000000000000000000815260206004820152601c60248201527f484f4c4f47524150483a206f70657261746f72206861732074696d65000000006044820152606401610720565b3a851015611f4e576040517f08c379a000000000000000000000000000000000000000000000000000000000815260206004820152601d60248201527f484f4c4f47524150483a20676173207370696b652064657465637465640000006044820152606401610720565b60068110156120785760a0840151600090611f6a600184613913565b60058110611f7a57611f7a61392a565b602002015161ffff169050600081118015611fb25750600b8481548110611fa357611fa361392a565b60009182526020909120015481105b15612076576000600b8581548110611fcc57611fcc61392a565b906000526020600020018281548110611fe757611fe761392a565b60009182526020909120015473ffffffffffffffffffffffffffffffffffffffff169050338114612074576040517f08c379a000000000000000000000000000000000000000000000000000000000815260206004820152601b60248201527f484f4c4f47524150483a20696e76616c69642066616c6c6261636b00000000006044820152606401610720565b505b505b6000612083846131a1565b905080600e6000876040015173ffffffffffffffffffffffffffffffffffffffff1673ffffffffffffffffffffffffffffffffffffffff16815260200190815260200160002060008282546120d89190613913565b9091555050336000908152600e6020526040812080548392906120fc908490613a5b565b909155505060408086015173ffffffffffffffffffffffffffffffffffffffff166000908152600e6020522054811061221e57600b84815481106121425761214261392a565b6000918252602080832060408901519201805460018082018355918552919093200180547fffffffffffffffffffffffff00000000000000000000000000000000000000001673ffffffffffffffffffffffffffffffffffffffff909216919091179055600b8054869081106121ba576121ba61392a565b6000918252602090912001546121d09190613913565b6040808701805173ffffffffffffffffffffffffffffffffffffffff9081166000908152600d602090815284822095909555895192519091168152600c909352912060ff909116905561231c565b6040858101805173ffffffffffffffffffffffffffffffffffffffff9081166000908152600e6020528381205492519091168152918220919091557fbf76518d46db472b71aa7677a0908b8016f3dee568415ffa24055f9a670f9c375460408088015190517fa9059cbb00000000000000000000000000000000000000000000000000000000815273ffffffffffffffffffffffffffffffffffffffff91821660048201526024810184905291169063a9059cbb906044016020604051808303816000875af11580156122f5573d6000803e3d6000fd5b505050506040513d601f19601f820116820180604052508101906123199190613959565b50505b5050506123e9565b600b81815481106123375761233761392a565b60009182526020808320909101805460018181018355918452919092200180547fffffffffffffffffffffffff00000000000000000000000000000000000000001633179055600b8054839081106123915761239161392a565b6000918252602090912001546123a79190613913565b60408084015173ffffffffffffffffffffffffffffffffffffffff166000908152600d6020908152828220939093558451338252600c9093522060ff90911690555b505b825a11612454576040517f08c379a000000000000000000000000000000000000000000000000000000000815260206004820152601e60248201527f484f4c4f47524150483a206e6f7420656e6f75676820676173206c65667400006044820152606401610720565b60006040860387600037600080604088036000347feb87cbb21687feb327e3d58c6c16d552231d12c7a0e8115042a4165fac8a77f95489f1806124d65760405160203d018101604052865181523d6000602083013e7f4749dc6d92b657f5c9164b5139572a187274812cb66d99aa4177b24ffc90412460203d0182a150600191505b50801561251557600085815260086020526040902080547fffffffffffffffffffffffffffffffffffffffffffffffffffffffffffffff001660011790555b60066000815461252490613a73565b9091555050505050505050565b600b546060908211156125a0576040517f08c379a000000000000000000000000000000000000000000000000000000000815260206004820152601d60248201527f484f4c4f47524150483a20706f6420646f6573206e6f742065786973740000006044820152606401610720565b600b6125ad600184613913565b815481106125bd576125bd61392a565b9060005260206000200180548060200260200160405190810160405280929190818152602001828054801561262857602002820191906000526020600020905b815473ffffffffffffffffffffffffffffffffffffffff1681526001909101906020018083116125fd575b50505050509050919050565b73ffffffffffffffffffffffffffffffffffffffff83166000908152600c6020526040902054156126c1576040517f08c379a000000000000000000000000000000000000000000000000000000000815260206004820152601d60248201527f484f4c4f47524150483a206f70657261746f7220697320626f6e6465640000006044820152606401610720565b60006126cf600183036131c4565b90508281111561273b576040517f08c379a000000000000000000000000000000000000000000000000000000000815260206004820181905260248201527f484f4c4f47524150483a20626f6e6420616d6f756e7420746f6f20736d616c6c6044820152606401610720565b600b548211156127a957600b545b8281116127a75760408051602081019091526000808252600b8054600181810183559190925261279e927f0175b7a638427703f0dbe7bb9bbf987a2551717b34e79f33b5b1008d1fa01db99092019190613350565b50600101612749565b505b61ffff8016600b60018403815481106127c4576127c461392a565b60009182526020909120015410612837576040517f08c379a000000000000000000000000000000000000000000000000000000000815260206004820152601d60248201527f484f4c4f47524150483a20746f6f206d616e79206f70657261746f72730000006044820152606401610720565b600b600183038154811061284d5761284d61392a565b6000918252602080832091909101805460018082018355918452919092200180547fffffffffffffffffffffffff00000000000000000000000000000000000000001673ffffffffffffffffffffffffffffffffffffffff8716179055600b80547fffffffffffffffffffffffffffffffffffffffffffffffffffffffffffffffff85019081106128e0576128e061392a565b600091825260208083209091015473ffffffffffffffffffffffffffffffffffffffff88168352600d8252604080842094909103909355600c8152828220859055600e9052208390556129517fbf76518d46db472b71aa7677a0908b8016f3dee568415ffa24055f9a670f9c375490565b6040517f23b872dd0000000000000000000000000000000000000000000000000000000081523360048201523060248201526044810185905273ffffffffffffffffffffffffffffffffffffffff91909116906323b872dd906064016020604051808303816000875af11580156129cc573d6000803e3d6000fd5b505050506040513d601f19601f820116820180604052508101906129f09190613959565b612a56576040517f08c379a000000000000000000000000000000000000000000000000000000000815260206004820181905260248201527f484f4c4f47524150483a20746f6b656e207472616e73666572206661696c65646044820152606401610720565b50505050565b7f3f106594dc74eeef980dae234cde8324dc2497b13d27a0c59e55bd2ca10a07c95473ffffffffffffffffffffffffffffffffffffffff163373ffffffffffffffffffffffffffffffffffffffff1614612b12576040517f08c379a000000000000000000000000000000000000000000000000000000000815260206004820152601e60248201527f484f4c4f47524150483a2061646d696e206f6e6c792066756e6374696f6e00006044820152606401610720565b7feb87cbb21687feb327e3d58c6c16d552231d12c7a0e8115042a4165fac8a77f955565b7f3f106594dc74eeef980dae234cde8324dc2497b13d27a0c59e55bd2ca10a07c95473ffffffffffffffffffffffffffffffffffffffff163373ffffffffffffffffffffffffffffffffffffffff1614612bec576040517f08c379a000000000000000000000000000000000000000000000000000000000815260206004820152601e60248201527f484f4c4f47524150483a2061646d696e206f6e6c792066756e6374696f6e00006044820152606401610720565b7fbf76518d46db472b71aa7677a0908b8016f3dee568415ffa24055f9a670f9c3755565b7f3f106594dc74eeef980dae234cde8324dc2497b13d27a0c59e55bd2ca10a07c95473ffffffffffffffffffffffffffffffffffffffff163373ffffffffffffffffffffffffffffffffffffffff1614612cc6576040517f08c379a000000000000000000000000000000000000000000000000000000000815260206004820152601e60248201527f484f4c4f47524150483a2061646d696e206f6e6c792066756e6374696f6e00006044820152606401610720565b7fce8e75d5c5227ce29a4ee170160bb296e5dea6934b80a9bd723f7ef1e7c850e755565b60006040820383600037600060e353600080604084036000347feb87cbb21687feb327e3d58c6c16d552231d12c7a0e8115042a4165fac8a77f9545af160018103612d39573d6000803e3d6000fd5b505a60005260206000f35b7f3f106594dc74eeef980dae234cde8324dc2497b13d27a0c59e55bd2ca10a07c95473ffffffffffffffffffffffffffffffffffffffff163373ffffffffffffffffffffffffffffffffffffffff1614612dfa576040517f08c379a000000000000000000000000000000000000000000000000000000000815260206004820152601e60248201527f484f4c4f47524150483a2061646d696e206f6e6c792066756e6374696f6e00006044820152606401610720565b808260003760008082600034875af13d6000803e808015612e1a573d6000f35b3d6000fd5b7f3f106594dc74eeef980dae234cde8324dc2497b13d27a0c59e55bd2ca10a07c95473ffffffffffffffffffffffffffffffffffffffff163373ffffffffffffffffffffffffffffffffffffffff1614612ed5576040517f08c379a000000000000000000000000000000000000000000000000000000000815260206004820152601e60248201527f484f4c4f47524150483a2061646d696e206f6e6c792066756e6374696f6e00006044820152606401610720565b7fbd3084b8c09da87ad159c247a60e209784196be2530cecbbd8f337fdd184882755565b6000612f237f3f106594dc74eeef980dae234cde8324dc2497b13d27a0c59e55bd2ca10a07c95490565b905090565b8015610a0f576000600b8381548110612f4357612f4361392a565b906000526020600020018281548110612f5e57612f5e61392a565b600091825260208083209091015473ffffffffffffffffffffffffffffffffffffffff16808352600c82526040808420849055600d909252908220829055600b805491935060019186908110612fb657612fb661392a565b60009182526020909120015403905082811461309757600b8481548110612fdf57612fdf61392a565b906000526020600020018181548110612ffa57612ffa61392a565b600091825260209091200154600b805473ffffffffffffffffffffffffffffffffffffffff90921691869081106130335761303361392a565b90600052602060002001848154811061304e5761304e61392a565b9060005260206000200160006101000a81548173ffffffffffffffffffffffffffffffffffffffff021916908373ffffffffffffffffffffffffffffffffffffffff1602179055505b600b84815481106130aa576130aa61392a565b9060005260206000200181815481106130c5576130c561392a565b600091825260209091200180547fffffffffffffffffffffffff0000000000000000000000000000000000000000169055600b80548590811061310a5761310a61392a565b9060005260206000200180548061312357613123613d11565b60008281526020902081017fffffffffffffffffffffffffffffffffffffffffffffffffffffffffffffffff90810180547fffffffffffffffffffffffff000000000000000000000000000000000000000016905501905550505050565b60008243839003408501816131985761319861398b565b06949350505050565b6000600154826002546131b49190613e60565b6131be9190613e6c565b92915050565b600080600154836002546131d89190613e60565b6131e29190613e6c565b600b549091508311156131f55792915050565b6000613202846002613e60565b60035461320f9190613cd6565b90506000600b85815481106132265761322661392a565b60009182526020909120015490508181111561327a576132468282613913565b9050600454816132569190613cd6565b6005546132639085613cd6565b61326d9190613e6c565b6132779084613a5b565b92505b50909392505050565b6000813f80158015906132b657507fc5d2460186f7233c927e7db2dcc703c0e500b653ca82273b7bfad8045d85a4708114155b9392505050565b6040805160c08101825260008082526020820181905291810182905260608101829052608081019190915260a081016132f46133d6565b905290565b828054828255906000526020600020908101928215613340579160200282015b828111156133405782516133309083906001613350565b5091602001919060010190613319565b5061334c9291506133f4565b5090565b8280548282559060005260206000209081019282156133ca579160200282015b828111156133ca57825182547fffffffffffffffffffffffff00000000000000000000000000000000000000001673ffffffffffffffffffffffffffffffffffffffff909116178255602090920191600190910190613370565b5061334c929150613411565b6040518060a001604052806005906020820280368337509192915050565b8082111561334c5760006134088282613426565b506001016133f4565b5b8082111561334c5760008155600101613412565b50805460008255906000526020600020908101906134449190613411565b50565b60006020828403121561345957600080fd5b5035919050565b60006101408201905060ff835116825260208084015161ffff8082168386015273ffffffffffffffffffffffffffffffffffffffff604087015116604086015264ffffffffff606087015116606086015267ffffffffffffffff608087015116608086015260a0860151915060a0850160005b60058110156134f25783518316825292840192908401906001016134d3565b505050505092915050565b73ffffffffffffffffffffffffffffffffffffffff8116811461344457600080fd5b6000806040838503121561353257600080fd5b823561353d816134fd565b946020939093013593505050565b60008083601f84011261355d57600080fd5b50813567ffffffffffffffff81111561357557600080fd5b60208301915083602082850101111561358d57600080fd5b9250929050565b600080602083850312156135a757600080fd5b823567ffffffffffffffff8111156135be57600080fd5b6135ca8582860161354b565b90969095509350505050565b6000602082840312156135e857600080fd5b81356132b6816134fd565b60008060006060848603121561360857600080fd5b505081359360208301359350604090920135919050565b6020808252825182820181905260009190848201906040850190845b8181101561366d57835173ffffffffffffffffffffffffffffffffffffffff168352928401929184019160010161363b565b50909695505050505050565b63ffffffff8116811461344457600080fd5b60008060008060008060008060e0898b0312156136a757600080fd5b883597506020890135965060408901356136c081613679565b955060608901356136d0816134fd565b94506080890135935060a08901356136e7816134fd565b925060c089013567ffffffffffffffff81111561370357600080fd5b61370f8b828c0161354b565b999c989b5096995094979396929594505050565b7f4e487b7100000000000000000000000000000000000000000000000000000000600052604160045260246000fd5b60006020828403121561376457600080fd5b813567ffffffffffffffff8082111561377c57600080fd5b818401915084601f83011261379057600080fd5b8135818111156137a2576137a2613723565b604051601f82017fffffffffffffffffffffffffffffffffffffffffffffffffffffffffffffffe0908116603f011681019083821181831017156137e8576137e8613723565b8160405282815287602084870101111561380157600080fd5b826020860160208301376000928101602001929092525095945050505050565b6000806040838503121561383457600080fd5b823561383f816134fd565b9150602083013561384f816134fd565b809150509250929050565b60008060006060848603121561386f57600080fd5b833561387a816134fd565b95602085013595506040909401359392505050565b6000806000604084860312156138a457600080fd5b83356138af816134fd565b9250602084013567ffffffffffffffff8111156138cb57600080fd5b6138d78682870161354b565b9497909650939450505050565b7f4e487b7100000000000000000000000000000000000000000000000000000000600052601160045260246000fd5b600082821015613925576139256138e4565b500390565b7f4e487b7100000000000000000000000000000000000000000000000000000000600052603260045260246000fd5b60006020828403121561396b57600080fd5b815180151581146132b657600080fd5b8183823760009101908152919050565b7f4e487b7100000000000000000000000000000000000000000000000000000000600052601260045260246000fd5b8183528181602085013750600060208284010152600060207fffffffffffffffffffffffffffffffffffffffffffffffffffffffffffffffe0601f840116840101905092915050565b838152604060208201526000613a1d6040830184866139ba565b95945050505050565b600081613a3557613a356138e4565b507fffffffffffffffffffffffffffffffffffffffffffffffffffffffffffffffff0190565b60008219821115613a6e57613a6e6138e4565b500190565b60007fffffffffffffffffffffffffffffffffffffffffffffffffffffffffffffffff8203613aa457613aa46138e4565b5060010190565b600060208284031215613abd57600080fd5b81516132b681613679565b600060208284031215613ada57600080fd5b81516132b6816134fd565b60006101008b835263ffffffff8b16602084015273ffffffffffffffffffffffffffffffffffffffff808b166040850152808a16606085015280891660808501525060ff871660a084015285151560c08401528060e0840152613b4b81840185876139ba565b9c9b505050505050505050505050565b60005b83811015613b76578181015183820152602001613b5e565b83811115612a565750506000910152565b60008451613b99818460208901613b5b565b91909101928352506020820152604001919050565b86815285602082015263ffffffff8516604082015273ffffffffffffffffffffffffffffffffffffffff8416606082015282608082015260c060a0820152600082518060c0840152613c078160e0850160208701613b5b565b601f017fffffffffffffffffffffffffffffffffffffffffffffffffffffffffffffffe0169190910160e001979650505050505050565b600080600080600060a08688031215613c5657600080fd5b8551613c61816134fd565b6020870151909550613c72816134fd565b6040870151909450613c83816134fd565b6060870151909350613c94816134fd565b6080870151909250613ca5816134fd565b809150509295509295909350565b600060ff821660ff841680821015613ccd57613ccd6138e4565b90039392505050565b600082613d0c577f4e487b7100000000000000000000000000000000000000000000000000000000600052601260045260246000fd5b500490565b7f4e487b7100000000000000000000000000000000000000000000000000000000600052603160045260246000fd5b600181815b80851115613d9957817fffffffffffffffffffffffffffffffffffffffffffffffffffffffffffffffff04821115613d7f57613d7f6138e4565b80851615613d8c57918102915b93841c9390800290613d45565b509250929050565b600082613db0575060016131be565b81613dbd575060006131be565b8160018114613dd35760028114613ddd57613df9565b60019150506131be565b60ff841115613dee57613dee6138e4565b50506001821b6131be565b5060208310610133831016604e8410600b8410161715613e1c575081810a6131be565b613e268383613d40565b807fffffffffffffffffffffffffffffffffffffffffffffffffffffffffffffffff04821115613e5857613e586138e4565b029392505050565b60006132b68383613da1565b6000817fffffffffffffffffffffffffffffffffffffffffffffffffffffffffffffffff0483118215151615613ea457613ea46138e4565b50029056fea164736f6c634300080d000a",
  "devdoc": {
    "author": "https://github.com/holographxyz",
    "details": "This contract allows operators to bond utility tokens and help execute operator jobs",
    "kind": "dev",
    "methods": {
      "bondUtilityToken(address,uint256,uint256)": {
        "details": "An operator can only bond to one pod at a time, per network",
        "params": {
          "amount": "utility token amount to bond (can be greater than minimum)",
          "operator": "address of operator to bond (can be an ownable smart contract)",
          "pod": "number of pod to bond to (can be for one that does not exist yet)"
        }
      },
      "constructor": {
        "details": "Constructor is left empty and init is used instead"
      },
      "crossChainMessage(bytes)": {
        "details": "This function is restricted for use by Holograph Messaging Module only"
      },
      "executeJob(bytes)": {
        "details": "When making this call, if operating criteria is not met, the call will revert",
        "params": {
          "bridgeInRequestPayload": "the entire cross chain message payload"
        }
      },
      "getBondedPod(address)": {
        "details": "Useful for checking if an operator is currently bonded",
        "params": {
          "operator": "address of operator to check"
        },
        "returns": {
          "pod": "number that operator is bonded on, returns zero if not bonded"
        }
      },
      "getBridge()": {
        "details": "Used for beaming holographable assets cross-chain"
      },
      "getHolograph()": {
        "details": "Used for storing a reference to all the primary modules and variables of the protocol"
      },
      "getInterfaces()": {
        "details": "Holograph uses this contract to store data that needs to be accessed by a large portion of the modules"
      },
      "getJobDetails(bytes32)": {
        "details": "The job hash is a keccak256 hash of the entire job payload",
        "params": {
          "jobHash": "keccak256 hash of the job"
        },
        "returns": {
          "_0": "an OperatorJob struct with details about a specific job"
        }
      },
      "getMessagingModule()": {
        "details": "All cross-chain message requests will get forwarded to this adress"
      },
      "getPodBondAmounts(uint256)": {
        "details": "Useful for understanding what is required for bonding to a pod",
        "params": {
          "pod": "the pod to get bonding amounts for"
        },
        "returns": {
          "base": "the base bond amount required for a pod",
          "current": "the current bond amount required for a pod"
        }
      },
      "getPodOperators(uint256)": {
        "details": "Use paginated getPodOperators function instead if list gets too long",
        "params": {
          "pod": "the pod to query"
        },
        "returns": {
          "operators": "array list of operators in a pod"
        }
      },
      "getPodOperators(uint256,uint256,uint256)": {
        "details": "Use in conjunction with getPodOperatorsLength to know the total length of results",
        "params": {
          "index": "the array index to start from",
          "length": "the length of result set to be (will be shorter if reached end of array)",
          "pod": "the pod to query"
        },
        "returns": {
          "operators": "a paginated array of operators"
        }
      },
      "getPodOperatorsLength(uint256)": {
        "details": "Use in conjunction with paginated getPodOperators function",
        "params": {
          "pod": "the pod to query"
        },
        "returns": {
          "_0": "total operators in a pod"
        }
      },
      "getRegistry()": {
        "details": "This module stores a reference for all deployed holographable smart contracts"
      },
      "getTotalPods()": {
        "details": "This returns number of pods that have been opened via bonding"
      },
      "getUtilityToken()": {
        "details": "This is the official utility token of the Holograph Protocol"
      },
      "init(bytes)": {
        "details": "This function is called by the deployer/factory when creating a contract",
        "params": {
          "initPayload": "abi encoded payload to use for contract initilaization"
        }
      },
      "jobEstimator(bytes)": {
        "details": "Use this function to estimate the amount of gas that will be used by the bridgeInRequest function      Set a specific gas limit when making this call, subtract return value, to get total gas used      Only use this with a static call",
        "params": {
          "bridgeInRequestPayload": "abi encoded bytes making up the bridgeInRequest payload"
        },
        "returns": {
          "_0": "the gas amount remaining after the static call is returned"
        }
      },
      "send(uint256,uint256,uint32,address,uint256,address,bytes)": {
        "details": "This function is restricted to only be callable by Holograph Bridge",
        "params": {
          "bridgeOutPayload": "bytes made up of the bridgeOutRequest payload",
          "gasLimit": "maximum amount of gas to spend for executing the beam on destination chain",
          "gasPrice": "maximum amount of gas price (in destination chain native gas token) to pay on destination chain",
          "holographableContract": "address of the contract for which the bridge request is being made",
          "nonce": "incremented number used to ensure job hashes are unique",
          "toChain": "Holograph Chain ID where the beam is being sent to"
        }
      },
      "setBridge(address)": {
        "params": {
          "bridge": "address of the Holograph Bridge smart contract to use"
        }
      },
      "setHolograph(address)": {
        "params": {
          "holograph": "address of the Holograph Protocol smart contract to use"
        }
      },
      "setInterfaces(address)": {
        "params": {
          "interfaces": "address of the Holograph Interfaces smart contract to use"
        }
      },
      "setMessagingModule(address)": {
        "params": {
          "messagingModule": "address of the LayerZero Endpoint to use"
        }
      },
      "setRegistry(address)": {
        "params": {
          "registry": "address of the Holograph Registry smart contract to use"
        }
      },
      "setUtilityToken(address)": {
        "params": {
          "utilityToken": "address of the Holograph Utility Token smart contract to use"
        }
      },
      "topupUtilityToken(address,uint256)": {
        "details": "Useful function if an operator got slashed and wants to add a safety buffer to not get unbonded",
        "params": {
          "amount": "utility token amount to add",
          "operator": "address of operator to topup"
        }
      },
      "unbondUtilityToken(address,address)": {
        "details": "A bonded operator selected for a job cannot unbond until they complete the job, or are slashed",
        "params": {
          "operator": "address of operator to unbond",
          "recipient": "address where to send the bonded tokens"
        }
      }
    },
    "stateVariables": {
      "_baseBondAmount": {
        "details": "Minimum amount of tokens needed for bonding"
      },
      "_blockTime": {
        "details": "Internal number (in seconds), used for defining a window for operator to execute the job"
      },
      "_bondedAmounts": {
        "details": "Internal mapping of bonded operator amounts"
      },
      "_bondedOperators": {
        "details": "Internal mapping of bonded operators, to prevent double bonding"
      },
      "_bridgeSlot": {
        "details": "bytes32(uint256(keccak256('eip1967.Holograph.bridge')) - 1)"
      },
      "_failedJobs": {
        "details": "Internal mapping of operator job details for a specific job hash"
      },
      "_holographSlot": {
        "details": "bytes32(uint256(keccak256('eip1967.Holograph.holograph')) - 1)"
      },
      "_inboundMessageCounter": {
        "details": "Internal counter of all cross-chain messages received"
      },
      "_interfacesSlot": {
        "details": "bytes32(uint256(keccak256('eip1967.Holograph.interfaces')) - 1)"
      },
      "_jobNonceSlot": {
        "details": "bytes32(uint256(keccak256('eip1967.Holograph.jobNonce')) - 1)"
      },
      "_messagingModuleSlot": {
        "details": "bytes32(uint256(keccak256('eip1967.Holograph.messagingModule')) - 1)"
      },
      "_operatorJobs": {
        "details": "Internal mapping of operator job details for a specific job hash"
      },
      "_operatorPodIndex": {
        "details": "Internal mapping of bonded operators, to prevent double bonding"
      },
      "_operatorPods": {
        "details": "Multi-dimensional array of available operators"
      },
      "_operatorTempStorage": {
        "details": "Internal mapping of operator addresses, used for temp storage when defining an operator job"
      },
      "_operatorTempStorageCounter": {
        "details": "Internal index used for storing/referencing operator temp storage"
      },
      "_operatorThreshold": {
        "details": "The threshold used for limiting number of operators in a pod"
      },
      "_operatorThresholdDivisor": {
        "details": "The threshold divisor used for increasing bond amount once threshold is reached"
      },
      "_operatorThresholdStep": {
        "details": "The threshold step used for increasing bond amount once threshold is reached"
      },
      "_podMultiplier": {
        "details": "The multiplier used for calculating bonding amount for pods"
      },
      "_registrySlot": {
        "details": "bytes32(uint256(keccak256('eip1967.Holograph.registry')) - 1)"
      },
      "_utilityTokenSlot": {
        "details": "bytes32(uint256(keccak256('eip1967.Holograph.utilityToken')) - 1)"
      }
    },
    "title": "Holograph Operator",
    "version": 1
  },
  "userdoc": {
    "kind": "user",
    "methods": {
      "bondUtilityToken(address,uint256,uint256)": {
        "notice": "Bond utility tokens and become an operator"
      },
      "crossChainMessage(bytes)": {
        "notice": "Receive a cross-chain message"
      },
      "executeJob(bytes)": {
        "notice": "Execute an available operator job"
      },
      "getBondedPod(address)": {
        "notice": "Get an operator's currently bonded pod"
      },
      "getBridge()": {
        "notice": "Get the address of the Holograph Bridge module"
      },
      "getHolograph()": {
        "notice": "Get the Holograph Protocol contract"
      },
      "getInterfaces()": {
        "notice": "Get the address of the Holograph Interfaces module"
      },
      "getJobDetails(bytes32)": {
        "notice": "Get the details for an available operator job"
      },
      "getMessagingModule()": {
        "notice": "Get the address of the Holograph Messaging Module"
      },
      "getPodBondAmounts(uint256)": {
        "notice": "Check the base and current price for bonding to a particular pod"
      },
      "getPodOperators(uint256)": {
        "notice": "Get list of operators in a pod"
      },
      "getPodOperators(uint256,uint256,uint256)": {
        "notice": "Get paginated list of operators in a pod"
      },
      "getPodOperatorsLength(uint256)": {
        "notice": "Get total number of operators in a pod"
      },
      "getRegistry()": {
        "notice": "Get the Holograph Registry module"
      },
      "getTotalPods()": {
        "notice": "Get number of pods available"
      },
      "getUtilityToken()": {
        "notice": "Get the Holograph Utility Token address"
      },
      "init(bytes)": {
        "notice": "Used internally to initialize the contract instead of through a constructor"
      },
      "jobEstimator(bytes)": {
        "notice": "Calculate the amount of gas needed to execute a bridgeInRequest"
      },
      "send(uint256,uint256,uint32,address,uint256,address,bytes)": {
        "notice": "Send cross chain bridge request message"
      },
      "setBridge(address)": {
        "notice": "Update the Holograph Bridge module address"
      },
      "setHolograph(address)": {
        "notice": "Update the Holograph Protocol contract address"
      },
      "setInterfaces(address)": {
        "notice": "Update the Holograph Interfaces module address"
      },
      "setMessagingModule(address)": {
        "notice": "Update the Holograph Messaging Module address"
      },
      "setRegistry(address)": {
        "notice": "Update the Holograph Registry module address"
      },
      "setUtilityToken(address)": {
        "notice": "Update the Holograph Utility Token address"
      },
      "topupUtilityToken(address,uint256)": {
        "notice": "Topup a bonded operator with more utility tokens"
      },
      "unbondUtilityToken(address,address)": {
        "notice": "Unbond HLG utility tokens and stop being an operator"
      }
    },
    "notice": "Participate in the Holograph Protocol by becoming an Operator",
    "version": 1
  },
  "storageLayout": {
    "storage": [
      {
        "astId": 1930,
        "contract": "contracts/HolographOperator.sol:HolographOperator",
        "label": "_blockTime",
        "offset": 0,
        "slot": "0",
        "type": "t_uint256"
      },
      {
        "astId": 1933,
        "contract": "contracts/HolographOperator.sol:HolographOperator",
        "label": "_baseBondAmount",
        "offset": 0,
        "slot": "1",
        "type": "t_uint256"
      },
      {
        "astId": 1936,
        "contract": "contracts/HolographOperator.sol:HolographOperator",
        "label": "_podMultiplier",
        "offset": 0,
        "slot": "2",
        "type": "t_uint256"
      },
      {
        "astId": 1939,
        "contract": "contracts/HolographOperator.sol:HolographOperator",
        "label": "_operatorThreshold",
        "offset": 0,
        "slot": "3",
        "type": "t_uint256"
      },
      {
        "astId": 1942,
        "contract": "contracts/HolographOperator.sol:HolographOperator",
        "label": "_operatorThresholdStep",
        "offset": 0,
        "slot": "4",
        "type": "t_uint256"
      },
      {
        "astId": 1945,
        "contract": "contracts/HolographOperator.sol:HolographOperator",
        "label": "_operatorThresholdDivisor",
        "offset": 0,
        "slot": "5",
        "type": "t_uint256"
      },
      {
        "astId": 1948,
        "contract": "contracts/HolographOperator.sol:HolographOperator",
        "label": "_inboundMessageCounter",
        "offset": 0,
        "slot": "6",
        "type": "t_uint256"
      },
      {
        "astId": 1953,
        "contract": "contracts/HolographOperator.sol:HolographOperator",
        "label": "_operatorJobs",
        "offset": 0,
        "slot": "7",
        "type": "t_mapping(t_bytes32,t_uint256)"
      },
      {
        "astId": 1958,
        "contract": "contracts/HolographOperator.sol:HolographOperator",
        "label": "_failedJobs",
        "offset": 0,
        "slot": "8",
        "type": "t_mapping(t_bytes32,t_bool)"
      },
      {
        "astId": 1963,
        "contract": "contracts/HolographOperator.sol:HolographOperator",
        "label": "_operatorTempStorage",
        "offset": 0,
        "slot": "9",
        "type": "t_mapping(t_uint256,t_address)"
      },
      {
        "astId": 1966,
        "contract": "contracts/HolographOperator.sol:HolographOperator",
        "label": "_operatorTempStorageCounter",
        "offset": 0,
        "slot": "10",
        "type": "t_uint32"
      },
      {
        "astId": 1971,
        "contract": "contracts/HolographOperator.sol:HolographOperator",
        "label": "_operatorPods",
        "offset": 0,
        "slot": "11",
        "type": "t_array(t_array(t_address)dyn_storage)dyn_storage"
      },
      {
        "astId": 1976,
        "contract": "contracts/HolographOperator.sol:HolographOperator",
        "label": "_bondedOperators",
        "offset": 0,
        "slot": "12",
        "type": "t_mapping(t_address,t_uint256)"
      },
      {
        "astId": 1981,
        "contract": "contracts/HolographOperator.sol:HolographOperator",
        "label": "_operatorPodIndex",
        "offset": 0,
        "slot": "13",
        "type": "t_mapping(t_address,t_uint256)"
      },
      {
        "astId": 1986,
        "contract": "contracts/HolographOperator.sol:HolographOperator",
        "label": "_bondedAmounts",
        "offset": 0,
        "slot": "14",
        "type": "t_mapping(t_address,t_uint256)"
      }
    ],
    "types": {
      "t_address": {
        "encoding": "inplace",
        "label": "address",
        "numberOfBytes": "20"
      },
      "t_array(t_address)dyn_storage": {
        "base": "t_address",
        "encoding": "dynamic_array",
        "label": "address[]",
        "numberOfBytes": "32"
      },
      "t_array(t_array(t_address)dyn_storage)dyn_storage": {
        "base": "t_array(t_address)dyn_storage",
        "encoding": "dynamic_array",
        "label": "address[][]",
        "numberOfBytes": "32"
      },
      "t_bool": {
        "encoding": "inplace",
        "label": "bool",
        "numberOfBytes": "1"
      },
      "t_bytes32": {
        "encoding": "inplace",
        "label": "bytes32",
        "numberOfBytes": "32"
      },
      "t_mapping(t_address,t_uint256)": {
        "encoding": "mapping",
        "key": "t_address",
        "label": "mapping(address => uint256)",
        "numberOfBytes": "32",
        "value": "t_uint256"
      },
      "t_mapping(t_bytes32,t_bool)": {
        "encoding": "mapping",
        "key": "t_bytes32",
        "label": "mapping(bytes32 => bool)",
        "numberOfBytes": "32",
        "value": "t_bool"
      },
      "t_mapping(t_bytes32,t_uint256)": {
        "encoding": "mapping",
        "key": "t_bytes32",
        "label": "mapping(bytes32 => uint256)",
        "numberOfBytes": "32",
        "value": "t_uint256"
      },
      "t_mapping(t_uint256,t_address)": {
        "encoding": "mapping",
        "key": "t_uint256",
        "label": "mapping(uint256 => address)",
        "numberOfBytes": "32",
        "value": "t_address"
      },
      "t_uint256": {
        "encoding": "inplace",
        "label": "uint256",
        "numberOfBytes": "32"
      },
      "t_uint32": {
        "encoding": "inplace",
        "label": "uint32",
        "numberOfBytes": "4"
      }
    }
  }
}