{
  "address": "0x2F53791F9828F7bdE128f3C024d654B1D2c721b0",
  "abi": [
    {
      "inputs": [],
      "stateMutability": "nonpayable",
      "type": "constructor"
    },
    {
      "anonymous": false,
      "inputs": [
        {
          "indexed": true,
          "internalType": "address",
          "name": "previousOwner",
          "type": "address"
        },
        {
          "indexed": true,
          "internalType": "address",
          "name": "newOwner",
          "type": "address"
        }
      ],
      "name": "OwnershipTransferred",
      "type": "event"
    },
    {
      "anonymous": false,
      "inputs": [
        {
          "indexed": false,
          "internalType": "uint256",
          "name": "tokenId",
          "type": "uint256"
        },
        {
          "indexed": false,
          "internalType": "address[]",
          "name": "recipients",
          "type": "address[]"
        },
        {
          "indexed": false,
          "internalType": "uint256[]",
          "name": "bps",
          "type": "uint256[]"
        }
      ],
      "name": "SecondarySaleFees",
      "type": "event"
    },
    {
      "inputs": [],
      "name": "admin",
      "outputs": [
        {
          "internalType": "address",
          "name": "",
          "type": "address"
        }
      ],
      "stateMutability": "view",
      "type": "function"
    },
    {
      "inputs": [
        {
          "internalType": "address",
          "name": "target",
          "type": "address"
        },
        {
          "internalType": "bytes",
          "name": "data",
          "type": "bytes"
        }
      ],
      "name": "adminCall",
      "outputs": [],
      "stateMutability": "payable",
      "type": "function"
    },
    {
      "inputs": [
        {
          "internalType": "uint256",
          "name": "tokenId",
          "type": "uint256"
        }
      ],
      "name": "bidSharesForToken",
      "outputs": [
        {
          "components": [
            {
              "components": [
                {
                  "internalType": "uint256",
                  "name": "value",
                  "type": "uint256"
                }
              ],
              "internalType": "struct Zora.Decimal",
              "name": "prevOwner",
              "type": "tuple"
            },
            {
              "components": [
                {
                  "internalType": "uint256",
                  "name": "value",
                  "type": "uint256"
                }
              ],
              "internalType": "struct Zora.Decimal",
              "name": "creator",
              "type": "tuple"
            },
            {
              "components": [
                {
                  "internalType": "uint256",
                  "name": "value",
                  "type": "uint256"
                }
              ],
              "internalType": "struct Zora.Decimal",
              "name": "owner",
              "type": "tuple"
            }
          ],
          "internalType": "struct Zora.BidShares",
          "name": "bidShares",
          "type": "tuple"
        }
      ],
      "stateMutability": "view",
      "type": "function"
    },
    {
      "inputs": [
        {
          "internalType": "address",
          "name": "",
          "type": "address"
        },
        {
          "internalType": "uint256",
          "name": "tokenId",
          "type": "uint256"
        },
        {
          "internalType": "uint256",
          "name": "amount",
          "type": "uint256"
        }
      ],
      "name": "calculateRoyaltyFee",
      "outputs": [
        {
          "internalType": "uint256",
          "name": "",
          "type": "uint256"
        }
      ],
      "stateMutability": "view",
      "type": "function"
    },
    {
      "inputs": [
        {
          "internalType": "address payable[]",
          "name": "addresses",
          "type": "address[]"
        },
        {
          "internalType": "uint256[]",
          "name": "bps",
          "type": "uint256[]"
        }
      ],
      "name": "configurePayouts",
      "outputs": [],
      "stateMutability": "nonpayable",
      "type": "function"
    },
    {
      "inputs": [],
      "name": "getAdmin",
      "outputs": [
        {
          "internalType": "address",
          "name": "adminAddress",
          "type": "address"
        }
      ],
      "stateMutability": "view",
      "type": "function"
    },
    {
      "inputs": [],
      "name": "getEthPayout",
      "outputs": [],
      "stateMutability": "nonpayable",
      "type": "function"
    },
    {
      "inputs": [
        {
          "internalType": "uint256",
          "name": "tokenId",
          "type": "uint256"
        }
      ],
      "name": "getFeeBps",
      "outputs": [
        {
          "internalType": "uint256[]",
          "name": "",
          "type": "uint256[]"
        }
      ],
      "stateMutability": "view",
      "type": "function"
    },
    {
      "inputs": [
        {
          "internalType": "uint256",
          "name": "tokenId",
          "type": "uint256"
        }
      ],
      "name": "getFeeRecipients",
      "outputs": [
        {
          "internalType": "address payable[]",
          "name": "",
          "type": "address[]"
        }
      ],
      "stateMutability": "view",
      "type": "function"
    },
    {
      "inputs": [
        {
          "internalType": "uint256",
          "name": "tokenId",
          "type": "uint256"
        }
      ],
      "name": "getFees",
      "outputs": [
        {
          "internalType": "address payable[]",
          "name": "",
          "type": "address[]"
        },
        {
          "internalType": "uint256[]",
          "name": "",
          "type": "uint256[]"
        }
      ],
      "stateMutability": "view",
      "type": "function"
    },
    {
      "inputs": [],
      "name": "getOwner",
      "outputs": [
        {
          "internalType": "address",
          "name": "ownerAddress",
          "type": "address"
        }
      ],
      "stateMutability": "view",
      "type": "function"
    },
    {
      "inputs": [],
      "name": "getPayoutInfo",
      "outputs": [
        {
          "internalType": "address payable[]",
          "name": "addresses",
          "type": "address[]"
        },
        {
          "internalType": "uint256[]",
          "name": "bps",
          "type": "uint256[]"
        }
      ],
      "stateMutability": "view",
      "type": "function"
    },
    {
      "inputs": [
        {
          "internalType": "uint256",
          "name": "tokenId",
          "type": "uint256"
        }
      ],
      "name": "getRoyalties",
      "outputs": [
        {
          "internalType": "address payable[]",
          "name": "",
          "type": "address[]"
        },
        {
          "internalType": "uint256[]",
          "name": "",
          "type": "uint256[]"
        }
      ],
      "stateMutability": "view",
      "type": "function"
    },
    {
      "inputs": [
        {
          "internalType": "string",
          "name": "tokenName",
          "type": "string"
        }
      ],
      "name": "getTokenAddress",
      "outputs": [
        {
          "internalType": "address",
          "name": "",
          "type": "address"
        }
      ],
      "stateMutability": "view",
      "type": "function"
    },
    {
      "inputs": [
        {
          "internalType": "address",
          "name": "tokenAddress",
          "type": "address"
        }
      ],
      "name": "getTokenPayout",
      "outputs": [],
      "stateMutability": "nonpayable",
      "type": "function"
    },
    {
      "inputs": [
        {
          "internalType": "address[]",
          "name": "tokenAddresses",
          "type": "address[]"
        }
      ],
      "name": "getTokensPayout",
      "outputs": [],
      "stateMutability": "nonpayable",
      "type": "function"
    },
    {
      "inputs": [
        {
          "internalType": "bytes",
          "name": "data",
          "type": "bytes"
        }
      ],
      "name": "init",
      "outputs": [
        {
          "internalType": "bytes4",
          "name": "",
          "type": "bytes4"
        }
      ],
      "stateMutability": "nonpayable",
      "type": "function"
    },
    {
      "inputs": [
        {
          "internalType": "bytes",
          "name": "data",
          "type": "bytes"
        }
      ],
      "name": "initPA1D",
      "outputs": [
        {
          "internalType": "bytes4",
          "name": "",
          "type": "bytes4"
        }
      ],
      "stateMutability": "nonpayable",
      "type": "function"
    },
    {
      "inputs": [],
      "name": "marketContract",
      "outputs": [
        {
          "internalType": "address",
          "name": "",
          "type": "address"
        }
      ],
      "stateMutability": "view",
      "type": "function"
    },
    {
      "inputs": [],
      "name": "owner",
      "outputs": [
        {
          "internalType": "address",
          "name": "",
          "type": "address"
        }
      ],
      "stateMutability": "view",
      "type": "function"
    },
    {
      "inputs": [
        {
          "internalType": "address",
          "name": "target",
          "type": "address"
        },
        {
          "internalType": "bytes",
          "name": "data",
          "type": "bytes"
        }
      ],
      "name": "ownerCall",
      "outputs": [],
      "stateMutability": "payable",
      "type": "function"
    },
    {
      "inputs": [
        {
          "internalType": "uint256",
          "name": "tokenId",
          "type": "uint256"
        },
        {
          "internalType": "uint256",
          "name": "value",
          "type": "uint256"
        }
      ],
      "name": "royaltyInfo",
      "outputs": [
        {
          "internalType": "address",
          "name": "",
          "type": "address"
        },
        {
          "internalType": "uint256",
          "name": "",
          "type": "uint256"
        }
      ],
      "stateMutability": "view",
      "type": "function"
    },
    {
      "inputs": [
        {
          "internalType": "address",
          "name": "adminAddress",
          "type": "address"
        }
      ],
      "name": "setAdmin",
      "outputs": [],
      "stateMutability": "nonpayable",
      "type": "function"
    },
    {
      "inputs": [
        {
          "internalType": "address",
          "name": "ownerAddress",
          "type": "address"
        }
      ],
      "name": "setOwner",
      "outputs": [],
      "stateMutability": "nonpayable",
      "type": "function"
    },
    {
      "inputs": [
        {
          "internalType": "uint256",
          "name": "tokenId",
          "type": "uint256"
        },
        {
          "internalType": "address payable",
          "name": "receiver",
          "type": "address"
        },
        {
          "internalType": "uint256",
          "name": "bp",
          "type": "uint256"
        }
      ],
      "name": "setRoyalties",
      "outputs": [],
      "stateMutability": "nonpayable",
      "type": "function"
    },
    {
      "inputs": [
        {
          "internalType": "address",
          "name": "",
          "type": "address"
        },
        {
          "internalType": "uint256",
          "name": "tokenId",
          "type": "uint256"
        }
      ],
      "name": "tokenCreator",
      "outputs": [
        {
          "internalType": "address",
          "name": "",
          "type": "address"
        }
      ],
      "stateMutability": "view",
      "type": "function"
    },
    {
      "inputs": [
        {
          "internalType": "uint256",
          "name": "tokenId",
          "type": "uint256"
        }
      ],
      "name": "tokenCreators",
      "outputs": [
        {
          "internalType": "address",
          "name": "",
          "type": "address"
        }
      ],
      "stateMutability": "view",
      "type": "function"
    },
    {
      "inputs": [
        {
          "internalType": "address",
          "name": "newOwner",
          "type": "address"
        }
      ],
      "name": "transferOwnership",
      "outputs": [],
      "stateMutability": "nonpayable",
      "type": "function"
    }
  ],
  "transactionHash": "0xbb27f80959ffe7aa043c4aabbfb51a71797200233de56cd33614a5d02c027f1c",
  "args": [],
  "numDeployments": 1,
  "solcInputHash": "0b5e3a4fef7397ea053a407f08962d01",
  "bytecode": "0x608060405234801561001057600080fd5b50612daf806100206000396000f3fe6080604052600436106101b75760003560e01c8063990803c3116100ec578063d5a06d4c1161008a578063eb66dbcf11610064578063eb66dbcf14610548578063f2fde38b1461055b578063f851a4401461057b578063f9ce05821461059057600080fd5b8063d5a06d4c146104b5578063e0fd045f14610508578063e2c7f3381461052857600080fd5b8063b9c4d9fb116100c6578063b9c4d9fb14610488578063bb3bafd6146104b5578063bf64a82d146104d5578063c4091236146104e857600080fd5b8063990803c314610432578063a1794bcd14610455578063b85ed7e41461046857600080fd5b80634ddf47d411610159578063704b6c0211610133578063704b6c021461039b578063860110f5146103bb578063893d20e8146103e95780638da5cb5b1461041d57600080fd5b80634ddf47d4146102d557806365b85eb5146103265780636e9960c31461034657600080fd5b80631949ddf3116101955780631949ddf31461022957806320c60d2a146102495780632a55205a146102695780633328d219146102b557600080fd5b80630ebd4c7f146101bc57806312cb4738146101f257806313af403514610209575b600080fd5b3480156101c857600080fd5b506101dc6101d736600461253f565b6105d5565b6040516101e99190612593565b60405180910390f35b3480156101fe57600080fd5b50610207610696565b005b34801561021557600080fd5b506102076102243660046125c8565b6106a8565b34801561023557600080fd5b506102076102443660046125c8565b6107c8565b34801561025557600080fd5b50610207610264366004612687565b6107dc565b34801561027557600080fd5b50610289610284366004612726565b6107ed565b6040805173ffffffffffffffffffffffffffffffffffffffff90931683526020830191909152016101e9565b3480156102c157600080fd5b506102076102d03660046127ae565b61089d565b3480156102e157600080fd5b506102f56102f03660046128e6565b610a3f565b6040517fffffffff0000000000000000000000000000000000000000000000000000000090911681526020016101e9565b34801561033257600080fd5b506102f56103413660046128e6565b610b8f565b34801561035257600080fd5b507f3f106594dc74eeef980dae234cde8324dc2497b13d27a0c59e55bd2ca10a07c9545b60405173ffffffffffffffffffffffffffffffffffffffff90911681526020016101e9565b3480156103a757600080fd5b506102076103b63660046125c8565b610c91565b3480156103c757600080fd5b506103db6103d6366004612937565b610d6b565b6040519081526020016101e9565b3480156103f557600080fd5b507fb56711ba6bd3ded7639fc335ee7524fe668a79d7558c85992e3f8494cf77277754610376565b34801561042957600080fd5b50610376610ded565b34801561043e57600080fd5b50610447610e1c565b6040516101e99291906129b2565b34801561046157600080fd5b5030610376565b34801561047457600080fd5b506103766104833660046129e0565b610e37565b34801561049457600080fd5b506104a86104a336600461253f565b610e89565b6040516101e99190612a0c565b3480156104c157600080fd5b506104476104d036600461253f565b610fa5565b6102076104e3366004612a1f565b61113e565b3480156104f457600080fd5b506103766105033660046128e6565b611220565b34801561051457600080fd5b5061037661052336600461253f565b61122b565b34801561053457600080fd5b50610207610543366004612aa4565b61127b565b610207610556366004612a1f565b61143c565b34801561056757600080fd5b506102076105763660046125c8565b6114aa565b34801561058757600080fd5b506103766115b9565b34801561059c57600080fd5b506105b06105ab36600461253f565b6115e3565b60408051825151815260208084015151908201529181015151908201526060016101e9565b604080516001808252818301909252606091600091906020808301908036833701905050905060006106068461168b565b73ffffffffffffffffffffffffffffffffffffffff1603610667577f3ab91e3c2ba71a57537d782545f8feb1d402b604f5e070fa6c3b911fc2f18f75548160008151811061065657610656612adc565b602002602001018181525050610690565b61067083611703565b8160008151811061068357610683612adc565b6020026020010181815250505b92915050565b61069e611750565b6106a6611845565b565b6106b06119b7565b61071b576040517f08c379a000000000000000000000000000000000000000000000000000000000815260206004820152601960248201527f504131443a2063616c6c6572206e6f7420616e206f776e65720000000000000060448201526064015b60405180910390fd5b60006107457fb56711ba6bd3ded7639fc335ee7524fe668a79d7558c85992e3f8494cf7727775490565b9050817fb56711ba6bd3ded7639fc335ee7524fe668a79d7558c85992e3f8494cf772777558173ffffffffffffffffffffffffffffffffffffffff168173ffffffffffffffffffffffffffffffffffffffff167f8be0079c531659141344cd1fd0a4f28419497f9722a3daafe3b4186f6b6457e060405160405180910390a35050565b6107d0611750565b6107d981611bb2565b50565b6107e4611750565b6107d981611e6e565b600080806107fa8561168b565b73ffffffffffffffffffffffffffffffffffffffff1603610880577ffd430e1c7265cc31dbd9a10ce657e68878a41cfe179c80cd68c5edf96151684854612710846108637f3ab91e3c2ba71a57537d782545f8feb1d402b604f5e070fa6c3b911fc2f18f755490565b61086d9190612b3a565b6108779190612b77565b91509150610896565b6108898461168b565b6127108461086387611703565b9250929050565b6108a56119b7565b61090b576040517f08c379a000000000000000000000000000000000000000000000000000000000815260206004820152601960248201527f504131443a2063616c6c6572206e6f7420616e206f776e6572000000000000006044820152606401610712565b8051825114610976576040517f08c379a000000000000000000000000000000000000000000000000000000000815260206004820152601f60248201527f504131443a206d6973736d617463686564206172726179206c656e67687473006044820152606401610712565b6000805b83518110156109bc5782818151811061099557610995612adc565b6020026020010151826109a89190612bb2565b9150806109b481612bca565b91505061097a565b508061271014610a28576040517f08c379a000000000000000000000000000000000000000000000000000000000815260206004820152601c60248201527f504131443a2062707320646f776e277420657175616c203130303030000000006044820152606401610712565b610a3183612159565b610a3a826121ea565b505050565b6000610a697f4e5f991bca30eca2d4643aaefa807e88f96a4a97398933d572a3c0d973004a015490565b15610ad0576040517f08c379a000000000000000000000000000000000000000000000000000000000815260206004820152601960248201527f504131443a20616c726561647920696e697469616c697a6564000000000000006044820152606401610712565b337f3f106594dc74eeef980dae234cde8324dc2497b13d27a0c59e55bd2ca10a07c955337fb56711ba6bd3ded7639fc335ee7524fe668a79d7558c85992e3f8494cf7727775560008083806020019051810190610b2d9190612c02565b91509150610b3d6000838361127b565b610b6660017f4e5f991bca30eca2d4643aaefa807e88f96a4a97398933d572a3c0d973004a0155565b507f4ddf47d4000000000000000000000000000000000000000000000000000000009392505050565b7f33a44e907d5bf333e203bebc20bb8c91c00375213b80f466a908f3d50b337c6c546000908015610c1c576040517f08c379a000000000000000000000000000000000000000000000000000000000815260206004820152601960248201527f504131443a20616c726561647920696e697469616c697a6564000000000000006044820152606401610712565b60008084806020019051810190610c339190612c02565b91509150610c436000838361127b565b505060017f33a44e907d5bf333e203bebc20bb8c91c00375213b80f466a908f3d50b337c6c55507f4ddf47d40000000000000000000000000000000000000000000000000000000092915050565b7f3f106594dc74eeef980dae234cde8324dc2497b13d27a0c59e55bd2ca10a07c95473ffffffffffffffffffffffffffffffffffffffff163373ffffffffffffffffffffffffffffffffffffffff1614610d47576040517f08c379a000000000000000000000000000000000000000000000000000000000815260206004820152601e60248201527f484f4c4f47524150483a2061646d696e206f6e6c792066756e6374696f6e00006044820152606401610712565b7f3f106594dc74eeef980dae234cde8324dc2497b13d27a0c59e55bd2ca10a07c955565b600080610d778461168b565b73ffffffffffffffffffffffffffffffffffffffff1603610dd95761271082610dbe7f3ab91e3c2ba71a57537d782545f8feb1d402b604f5e070fa6c3b911fc2f18f755490565b610dc89190612b3a565b610dd29190612b77565b9050610de6565b61271082610dbe85611703565b9392505050565b6000610e177fb56711ba6bd3ded7639fc335ee7524fe668a79d7558c85992e3f8494cf7727775490565b905090565b606080610e2761227b565b9150610e31612374565b90509091565b600080610e438361168b565b905073ffffffffffffffffffffffffffffffffffffffff8116610de65750507ffd430e1c7265cc31dbd9a10ce657e68878a41cfe179c80cd68c5edf96151684854610690565b60408051600180825281830190925260609160009190602080830190803683370190505090506000610eba8461168b565b73ffffffffffffffffffffffffffffffffffffffff1603610f49577ffd430e1c7265cc31dbd9a10ce657e68878a41cfe179c80cd68c5edf9615168485481600081518110610f0a57610f0a612adc565b602002602001019073ffffffffffffffffffffffffffffffffffffffff16908173ffffffffffffffffffffffffffffffffffffffff1681525050610690565b610f528361168b565b81600081518110610f6557610f65612adc565b602002602001019073ffffffffffffffffffffffffffffffffffffffff16908173ffffffffffffffffffffffffffffffffffffffff168152505092915050565b60408051600180825281830190925260609182916000916020808301908036833750506040805160018082528183019092529293506000929150602080830190803683370190505090506000610ffa8661168b565b73ffffffffffffffffffffffffffffffffffffffff16036110b5577ffd430e1c7265cc31dbd9a10ce657e68878a41cfe179c80cd68c5edf961516848548260008151811061104a5761104a612adc565b73ffffffffffffffffffffffffffffffffffffffff909216602092830291909101909101527f3ab91e3c2ba71a57537d782545f8feb1d402b604f5e070fa6c3b911fc2f18f7554816000815181106110a4576110a4612adc565b602002602001018181525050611134565b6110be8561168b565b826000815181106110d1576110d1612adc565b602002602001019073ffffffffffffffffffffffffffffffffffffffff16908173ffffffffffffffffffffffffffffffffffffffff168152505061111485611703565b8160008151811061112757611127612adc565b6020026020010181815250505b9094909350915050565b7f3f106594dc74eeef980dae234cde8324dc2497b13d27a0c59e55bd2ca10a07c95473ffffffffffffffffffffffffffffffffffffffff163373ffffffffffffffffffffffffffffffffffffffff16146111f4576040517f08c379a000000000000000000000000000000000000000000000000000000000815260206004820152601e60248201527f484f4c4f47524150483a2061646d696e206f6e6c792066756e6374696f6e00006044820152606401610712565b808260003760008082600034875af13d6000803e808015611214573d6000f35b3d6000fd5b5050505050565b60006106908261244c565b6000806112378361168b565b905073ffffffffffffffffffffffffffffffffffffffff8116610690577ffd430e1c7265cc31dbd9a10ce657e68878a41cfe179c80cd68c5edf96151684854610de6565b6112836119b7565b6112e9576040517f08c379a000000000000000000000000000000000000000000000000000000000815260206004820152601960248201527f504131443a2063616c6c6572206e6f7420616e206f776e6572000000000000006044820152606401610712565b8260000361134657611319827ffd430e1c7265cc31dbd9a10ce657e68878a41cfe179c80cd68c5edf96151684855565b611341817f3ab91e3c2ba71a57537d782545f8feb1d402b604f5e070fa6c3b911fc2f18f7555565b61135a565b611350838361247c565b61135a83826124f3565b60408051600180825281830190925260009160208083019080368337019050509050828160008151811061139057611390612adc565b73ffffffffffffffffffffffffffffffffffffffff929092166020928302919091019091015260408051600180825281830190925260009181602001602082028036833701905050905082816000815181106113ee576113ee612adc565b6020026020010181815250507f99aba1d63749cfd5ad1afda7c4663840924d54eb5f005bbbeadedc6ec13674b285838360405161142d93929190612c30565b60405180910390a15050505050565b6114446119b7565b6111f4576040517f08c379a000000000000000000000000000000000000000000000000000000000815260206004820152601960248201527f504131443a2063616c6c6572206e6f7420616e206f776e6572000000000000006044820152606401610712565b6114b26119b7565b611518576040517f08c379a000000000000000000000000000000000000000000000000000000000815260206004820152601960248201527f504131443a2063616c6c6572206e6f7420616e206f776e6572000000000000006044820152606401610712565b73ffffffffffffffffffffffffffffffffffffffff8116611595576040517f08c379a000000000000000000000000000000000000000000000000000000000815260206004820152601760248201527f484f4c4f47524150483a207a65726f20616464726573730000000000000000006044820152606401610712565b7fb56711ba6bd3ded7639fc335ee7524fe668a79d7558c85992e3f8494cf77277755565b6000610e177f3f106594dc74eeef980dae234cde8324dc2497b13d27a0c59e55bd2ca10a07c95490565b6116206040805160808101825260006060820181815282528251602080820185528282528084019190915283519081018452908152909182015290565b805160009081905260408201518190526116398361168b565b73ffffffffffffffffffffffffffffffffffffffff1603611682577f3ab91e3c2ba71a57537d782545f8feb1d402b604f5e070fa6c3b911fc2f18f75545b602082015152919050565b61167782611703565b60008060016040518060400160405280601f81526020017f656970313936372e486f6c6f67726170682e504131442e726563656976657200815250846040516020016116d8929190612ce2565b6040516020818303038152906040528051906020012060001c6116fb9190612cfb565b549392505050565b60008060016040518060400160405280601981526020017f656970313936372e486f6c6f67726170682e504131442e627000000000000000815250846040516020016116d8929190612ce2565b6117586119b7565b6106a65760008061176761227b565b90503360005b82518110156117dd578173ffffffffffffffffffffffffffffffffffffffff1683828151811061179f5761179f612adc565b602002602001015173ffffffffffffffffffffffffffffffffffffffff16036117cb57600193506117dd565b806117d581612bca565b91505061176d565b5082610a3a576040517f08c379a000000000000000000000000000000000000000000000000000000000815260206004820152601b60248201527f504131443a2073656e646572206e6f7420617574686f72697a656400000000006044820152606401610712565b600061184f61227b565b9050600061185b612374565b825190915060008161186f81615b04612b3a565b6118799190612bb2565b9050476127106118898383612cfb565b116118f0576040517f08c379a000000000000000000000000000000000000000000000000000000000815260206004820181905260248201527f504131443a204e6f7420656e6f7567682045544820746f207472616e736665726044820152606401610712565b6118fa8282612cfb565b90506000805b848110156119ae576127108387838151811061191e5761191e612adc565b60200260200101516119309190612b3a565b61193a9190612b77565b915086818151811061194e5761194e612adc565b602002602001015173ffffffffffffffffffffffffffffffffffffffff166108fc839081150290604051600060405180830381858888f1935050505015801561199b573d6000803e3d6000fd5b50806119a681612bca565b915050611900565b50505050505050565b60006119e17fb56711ba6bd3ded7639fc335ee7524fe668a79d7558c85992e3f8494cf7727775490565b73ffffffffffffffffffffffffffffffffffffffff163373ffffffffffffffffffffffffffffffffffffffff161480611a6657507f3f106594dc74eeef980dae234cde8324dc2497b13d27a0c59e55bd2ca10a07c95473ffffffffffffffffffffffffffffffffffffffff163373ffffffffffffffffffffffffffffffffffffffff16145b80611b0a57503073ffffffffffffffffffffffffffffffffffffffff1663893d20e86040518163ffffffff1660e01b8152600401602060405180830381865afa158015611ab7573d6000803e3d6000fd5b505050506040513d601f19601f82011682018060405250810190611adb9190612d12565b73ffffffffffffffffffffffffffffffffffffffff163373ffffffffffffffffffffffffffffffffffffffff16145b80610e1757503073ffffffffffffffffffffffffffffffffffffffff16636e9960c36040518163ffffffff1660e01b8152600401602060405180830381865afa158015611b5b573d6000803e3d6000fd5b505050506040513d601f19601f82011682018060405250810190611b7f9190612d12565b73ffffffffffffffffffffffffffffffffffffffff163373ffffffffffffffffffffffffffffffffffffffff1614905090565b6000611bbc61227b565b90506000611bc8612374565b82516040517f70a0823100000000000000000000000000000000000000000000000000000000815230600482015291925090849060009073ffffffffffffffffffffffffffffffffffffffff8316906370a0823190602401602060405180830381865afa158015611c3d573d6000803e3d6000fd5b505050506040513d601f19601f82011682018060405250810190611c619190612d2f565b90506127108111611cf4576040517f08c379a000000000000000000000000000000000000000000000000000000000815260206004820152602360248201527f504131443a204e6f7420656e6f75676820746f6b656e7320746f207472616e7360448201527f66657200000000000000000000000000000000000000000000000000000000006064820152608401610712565b6000805b84811015611e645761271083878381518110611d1657611d16612adc565b6020026020010151611d289190612b3a565b611d329190612b77565b91508373ffffffffffffffffffffffffffffffffffffffff1663a9059cbb888381518110611d6257611d62612adc565b6020026020010151846040518363ffffffff1660e01b8152600401611da992919073ffffffffffffffffffffffffffffffffffffffff929092168252602082015260400190565b6020604051808303816000875af1158015611dc8573d6000803e3d6000fd5b505050506040513d601f19601f82011682018060405250810190611dec9190612d48565b611e52576040517f08c379a000000000000000000000000000000000000000000000000000000000815260206004820152601d60248201527f504131443a20436f756c646e2774207472616e7366657220746f6b656e0000006044820152606401610712565b80611e5c81612bca565b915050611cf8565b5050505050505050565b6000611e7861227b565b90506000611e84612374565b905060008080805b86518110156119ae57868181518110611ea757611ea7612adc565b60209081029190910101516040517f70a0823100000000000000000000000000000000000000000000000000000000815230600482015290945073ffffffffffffffffffffffffffffffffffffffff8516906370a0823190602401602060405180830381865afa158015611f1f573d6000803e3d6000fd5b505050506040513d601f19601f82011682018060405250810190611f439190612d2f565b92506127108311611fd6576040517f08c379a000000000000000000000000000000000000000000000000000000000815260206004820152602360248201527f504131443a204e6f7420656e6f75676820746f6b656e7320746f207472616e7360448201527f66657200000000000000000000000000000000000000000000000000000000006064820152608401610712565b60005b86518110156121465761271084878381518110611ff857611ff8612adc565b602002602001015161200a9190612b3a565b6120149190612b77565b92508473ffffffffffffffffffffffffffffffffffffffff1663a9059cbb88838151811061204457612044612adc565b6020026020010151856040518363ffffffff1660e01b815260040161208b92919073ffffffffffffffffffffffffffffffffffffffff929092168252602082015260400190565b6020604051808303816000875af11580156120aa573d6000803e3d6000fd5b505050506040513d601f19601f820116820180604052508101906120ce9190612d48565b612134576040517f08c379a000000000000000000000000000000000000000000000000000000000815260206004820152601d60248201527f504131443a20436f756c646e2774207472616e7366657220746f6b656e0000006044820152606401610712565b8061213e81612bca565b915050611fd9565b508061215181612bca565b915050611e8c565b80517f700a541bc37f227b0d36d34e7b77cc0108bde768297c6f80f448f380387371df818155906000805b828110156112195760408051602081018390529081018590526060016040516020818303038152906040528051906020012093508481815181106121ca576121ca612adc565b6020026020010151915081845580806121e290612bca565b915050612184565b80517f7a62e8104cd2cc2ef6bd3a26bcb71428108fbe0e0ead6a5bfb8676781e2ed28d818155906000805b8281101561121957604080516020810183905290810185905260600160405160208183030381529060405280519060200120935084818151811061225b5761225b612adc565b60200260200101519150818455808061227390612bca565b915050612215565b7f700a541bc37f227b0d36d34e7b77cc0108bde768297c6f80f448f380387371df8054606091908067ffffffffffffffff8111156122bb576122bb6125e5565b6040519080825280602002602001820160405280156122e4578160200160208202803683370190505b5092506000805b8281101561236d576040805160208101839052908101859052606001604051602081830303815290604052805190602001209350835491508185828151811061233657612336612adc565b73ffffffffffffffffffffffffffffffffffffffff909216602092830291909101909101528061236581612bca565b9150506122eb565b5050505090565b7f7a62e8104cd2cc2ef6bd3a26bcb71428108fbe0e0ead6a5bfb8676781e2ed28d8054606091908067ffffffffffffffff8111156123b4576123b46125e5565b6040519080825280602002602001820160405280156123dd578160200160208202803683370190505b5092506000805b8281101561236d576040805160208101839052908101859052606001604051602081830303815290604052805190602001209350835491508185828151811061242f5761242f612adc565b60209081029190910101528061244481612bca565b9150506123e4565b6000806001604051806060016040528060238152602001612d8060239139846040516020016116d8929190612d6a565b600060016040518060400160405280601f81526020017f656970313936372e486f6c6f67726170682e504131442e726563656976657200815250846040516020016124c8929190612ce2565b6040516020818303038152906040528051906020012060001c6124eb9190612cfb565b919091555050565b600060016040518060400160405280601981526020017f656970313936372e486f6c6f67726170682e504131442e627000000000000000815250846040516020016124c8929190612ce2565b60006020828403121561255157600080fd5b5035919050565b600081518084526020808501945080840160005b838110156125885781518752958201959082019060010161256c565b509495945050505050565b602081526000610de66020830184612558565b73ffffffffffffffffffffffffffffffffffffffff811681146107d957600080fd5b6000602082840312156125da57600080fd5b8135610de6816125a6565b7f4e487b7100000000000000000000000000000000000000000000000000000000600052604160045260246000fd5b604051601f82017fffffffffffffffffffffffffffffffffffffffffffffffffffffffffffffffe016810167ffffffffffffffff8111828210171561265b5761265b6125e5565b604052919050565b600067ffffffffffffffff82111561267d5761267d6125e5565b5060051b60200190565b6000602080838503121561269a57600080fd5b823567ffffffffffffffff8111156126b157600080fd5b8301601f810185136126c257600080fd5b80356126d56126d082612663565b612614565b81815260059190911b820183019083810190878311156126f457600080fd5b928401925b8284101561271b57833561270c816125a6565b825292840192908401906126f9565b979650505050505050565b6000806040838503121561273957600080fd5b50508035926020909101359150565b600082601f83011261275957600080fd5b813560206127696126d083612663565b82815260059290921b8401810191818101908684111561278857600080fd5b8286015b848110156127a3578035835291830191830161278c565b509695505050505050565b600080604083850312156127c157600080fd5b823567ffffffffffffffff808211156127d957600080fd5b818501915085601f8301126127ed57600080fd5b813560206127fd6126d083612663565b82815260059290921b8401810191818101908984111561281c57600080fd5b948201945b83861015612843578535612834816125a6565b82529482019490820190612821565b9650508601359250508082111561285957600080fd5b5061286685828601612748565b9150509250929050565b600067ffffffffffffffff83111561288a5761288a6125e5565b6128bb60207fffffffffffffffffffffffffffffffffffffffffffffffffffffffffffffffe0601f86011601612614565b90508281528383830111156128cf57600080fd5b828260208301376000602084830101529392505050565b6000602082840312156128f857600080fd5b813567ffffffffffffffff81111561290f57600080fd5b8201601f8101841361292057600080fd5b61292f84823560208401612870565b949350505050565b60008060006060848603121561294c57600080fd5b8335612957816125a6565b95602085013595506040909401359392505050565b600081518084526020808501945080840160005b8381101561258857815173ffffffffffffffffffffffffffffffffffffffff1687529582019590820190600101612980565b6040815260006129c5604083018561296c565b82810360208401526129d78185612558565b95945050505050565b600080604083850312156129f357600080fd5b82356129fe816125a6565b946020939093013593505050565b602081526000610de6602083018461296c565b600080600060408486031215612a3457600080fd5b8335612a3f816125a6565b9250602084013567ffffffffffffffff80821115612a5c57600080fd5b818601915086601f830112612a7057600080fd5b813581811115612a7f57600080fd5b876020828501011115612a9157600080fd5b6020830194508093505050509250925092565b600080600060608486031215612ab957600080fd5b833592506020840135612acb816125a6565b929592945050506040919091013590565b7f4e487b7100000000000000000000000000000000000000000000000000000000600052603260045260246000fd5b7f4e487b7100000000000000000000000000000000000000000000000000000000600052601160045260246000fd5b6000817fffffffffffffffffffffffffffffffffffffffffffffffffffffffffffffffff0483118215151615612b7257612b72612b0b565b500290565b600082612bad577f4e487b7100000000000000000000000000000000000000000000000000000000600052601260045260246000fd5b500490565b60008219821115612bc557612bc5612b0b565b500190565b60007fffffffffffffffffffffffffffffffffffffffffffffffffffffffffffffffff8203612bfb57612bfb612b0b565b5060010190565b60008060408385031215612c1557600080fd5b8251612c20816125a6565b6020939093015192949293505050565b6000606082018583526020606081850152818651808452608086019150828801935060005b81811015612c8757845173ffffffffffffffffffffffffffffffffffffffff1683529383019391830191600101612c55565b50508481036040860152612c9b8187612558565b98975050505050505050565b6000815160005b81811015612cc85760208185018101518683015201612cae565b81811115612cd7576000828601525b509290920192915050565b6000612cee8285612ca7565b9283525050602001919050565b600082821015612d0d57612d0d612b0b565b500390565b600060208284031215612d2457600080fd5b8151610de6816125a6565b600060208284031215612d4157600080fd5b5051919050565b600060208284031215612d5a57600080fd5b81518015158114610de657600080fd5b600061292f612d798386612ca7565b84612ca756fe656970313936372e486f6c6f67726170682e504131442e746f6b656e41646472657373a164736f6c634300080d000a",
  "devdoc": {
    "author": "CXIP-Labs",
    "details": "This smart contract is not intended to be used directly. Apply it to any of your ERC721 or ERC1155 smart contracts through a delegatecall fallback.",
    "events": {
      "SecondarySaleFees(uint256,address[],uint256[])": {
        "details": "Emits event in order to comply with Rarible V1 royalty spec.",
        "params": {
          "bps": "Uint256 array of base points(percentages) that each wallet(specified in recipients) will receive from the royalty payouts. Make sure that all the base points add up to a total of 10000.",
          "recipients": "Address array of wallets that will receive tha royalties.",
          "tokenId": "Specific token id for which royalty info is being set, set as 0 for all tokens inside of the smart contract."
        }
      }
    },
    "kind": "dev",
    "methods": {
      "configurePayouts(address[],uint256[])": {
        "details": "Function can only we called by owner, admin, or identity wallet.Addresses and bps arrays must be equal length. Bps values added together must equal 10000 exactly.",
        "params": {
          "addresses": "An array of all the addresses that will be receiving royalty payouts.",
          "bps": "An array of the percentages that each address will receive from the royalty payouts."
        }
      },
      "constructor": {
        "details": "Since the smart contract is being used inside of a fallback context, the constructor function is not being used."
      },
      "getEthPayout()": {
        "details": "Distribute all the ETH(minus gas fees) to payout recipients."
      },
      "getPayoutInfo()": {
        "details": "These are the recipients that will be getting royalty payouts.",
        "returns": {
          "addresses": "An array of all the addresses that will be receiving royalty payouts.",
          "bps": "An array of the percentages that each address will receive from the royalty payouts."
        }
      },
      "getTokenAddress(string)": {
        "details": "Used only to identify really major/common tokens. Avoid using due to gas usages.",
        "params": {
          "tokenName": "The ticker symbol of the token. For example \"USDC\" or \"DAI\"."
        },
        "returns": {
          "_0": "The smart contract address of the token ticker symbol. Or zero address if not found."
        }
      },
      "getTokenPayout(address)": {
        "details": "Contract owner, admin, identity wallet, and payout recipients can call this function.",
        "params": {
          "tokenAddress": "An address of the token for which to issue payouts for."
        }
      },
      "getTokensPayout(address[])": {
        "details": "Each token balance must be equal or greater than 10000. Otherwise calculating BP is difficult.",
        "params": {
          "tokenAddresses": "An address array of tokens to issue payouts for."
        }
      },
      "setRoyalties(uint256,address,uint256)": {
        "details": "Take great care to not make this function accessible by other public functions in your overlying smart contract.",
        "params": {
          "bp": "Uint256 of royalty percentage, provided in base points format.",
          "receiver": "Wallet or smart contract that will receive the royalty payouts.",
          "tokenId": "Set a specific token id, or leave at 0 to set as default parameters."
        }
      }
    },
    "title": "PA1D (CXIP)",
    "version": 1
  },
  "userdoc": {
    "events": {
      "SecondarySaleFees(uint256,address[],uint256[])": {
        "notice": "Event emitted when setting/updating royalty info/fees. This is used by Rarible V1."
      }
    },
    "kind": "user",
    "methods": {
      "configurePayouts(address[],uint256[])": {
        "notice": "Set the wallets and percentages for royalty payouts."
      },
      "constructor": {
        "notice": "Constructor is empty and not utilised."
      },
      "getEthPayout()": {
        "notice": "Get payout of all ETH in smart contract."
      },
      "getPayoutInfo()": {
        "notice": "Show the wallets and percentages of payout recipients."
      },
      "getTokenAddress(string)": {
        "notice": "Get the smart contract address of a token by common name."
      },
      "getTokenPayout(address)": {
        "notice": "Get payout for a specific token address. Token must have a positive balance!"
      },
      "getTokensPayout(address[])": {
        "notice": "Get payouts for tokens listed by address. Tokens must have a positive balance!"
      },
      "setRoyalties(uint256,address,uint256)": {
        "notice": "Set the royalty information for entire contract, or a specific token."
      }
    },
    "notice": "A smart contract for providing royalty info, collecting royalties, and distributing it to configured payout wallets.",
    "version": 1
  },
  "storageLayout": {
    "storage": [],
    "types": null
  }
}