{
  "address": "0x8Ce7F1573b9C429A61Be2B4d31d74fFfE4660D69",
  "abi": [
    {
      "inputs": [],
      "stateMutability": "nonpayable",
      "type": "constructor"
    },
    {
      "inputs": [],
      "name": "USDC",
      "outputs": [
        {
          "internalType": "address",
          "name": "",
          "type": "address"
        }
      ],
      "stateMutability": "view",
      "type": "function"
    },
    {
      "inputs": [],
      "name": "WETH9",
      "outputs": [
        {
          "internalType": "address",
          "name": "",
          "type": "address"
        }
      ],
      "stateMutability": "view",
      "type": "function"
    },
    {
      "inputs": [],
      "name": "admin",
      "outputs": [
        {
          "internalType": "address",
          "name": "",
          "type": "address"
        }
      ],
      "stateMutability": "view",
      "type": "function"
    },
    {
      "inputs": [
        {
          "internalType": "address",
          "name": "target",
          "type": "address"
        },
        {
          "internalType": "bytes",
          "name": "data",
          "type": "bytes"
        }
      ],
      "name": "adminCall",
      "outputs": [],
      "stateMutability": "payable",
      "type": "function"
    },
    {
      "inputs": [
        {
          "internalType": "uint256",
          "name": "usdAmount",
          "type": "uint256"
        }
      ],
      "name": "convertUsdToWei",
      "outputs": [
        {
          "internalType": "uint256",
          "name": "weiAmount",
          "type": "uint256"
        }
      ],
      "stateMutability": "nonpayable",
      "type": "function"
    },
    {
      "inputs": [],
      "name": "getAdmin",
      "outputs": [
        {
          "internalType": "address",
          "name": "adminAddress",
          "type": "address"
        }
      ],
      "stateMutability": "view",
      "type": "function"
    },
    {
      "inputs": [
        {
          "internalType": "bytes",
          "name": "",
          "type": "bytes"
        }
      ],
      "name": "init",
      "outputs": [
        {
          "internalType": "bytes4",
          "name": "",
          "type": "bytes4"
        }
      ],
      "stateMutability": "nonpayable",
      "type": "function"
    },
    {
      "inputs": [],
      "name": "poolFee",
      "outputs": [
        {
          "internalType": "uint24",
          "name": "",
          "type": "uint24"
        }
      ],
      "stateMutability": "view",
      "type": "function"
    },
    {
      "inputs": [],
      "name": "quoterV2",
      "outputs": [
        {
          "internalType": "contract IQuoterV2",
          "name": "",
          "type": "address"
        }
      ],
      "stateMutability": "view",
      "type": "function"
    },
    {
      "inputs": [
        {
          "internalType": "address",
          "name": "adminAddress",
          "type": "address"
        }
      ],
      "name": "setAdmin",
      "outputs": [],
      "stateMutability": "nonpayable",
      "type": "function"
    },
    {
      "inputs": [
        {
          "internalType": "contract IQuoterV2",
          "name": "_quoterV2",
          "type": "address"
        }
      ],
      "name": "setQuoter",
      "outputs": [],
      "stateMutability": "nonpayable",
      "type": "function"
    }
  ],
  "transactionHash": "0x1ac56ff2df0fb376908ab6f14411bec4dbbf7ecf928071d44a1fc30d2a5f7a60",
  "args": [],
  "numDeployments": 2,
  "solcInputHash": "261ba0f9a0a883acb3a1edf57e8d6b64",
  "bytecode": "0x608060405234801561001057600080fd5b50610a86806100206000396000f3fe6080604052600436106100bc5760003560e01c806389a3027111610074578063f5d781611161004e578063f5d781611461024c578063f851a4401461027a578063f912c64b1461028f57600080fd5b806389a30271146101e4578063bf64a82d1461020c578063e20dccb21461021f57600080fd5b80634ddf47d4116100a55780634ddf47d41461013d5780636e9960c31461018e578063704b6c02146101c257600080fd5b8063089fe6aa146100c15780634aa4a4fc146100f0575b600080fd5b3480156100cd57600080fd5b506100d7610bb881565b60405162ffffff90911681526020015b60405180910390f35b3480156100fc57600080fd5b5061011873420000000000000000000000000000000000000681565b60405173ffffffffffffffffffffffffffffffffffffffff90911681526020016100e7565b34801561014957600080fd5b5061015d610158366004610871565b6102af565b6040517fffffffff0000000000000000000000000000000000000000000000000000000090911681526020016100e7565b34801561019a57600080fd5b507f3f106594dc74eeef980dae234cde8324dc2497b13d27a0c59e55bd2ca10a07c954610118565b3480156101ce57600080fd5b506101e26101dd366004610965565b6103b8565b005b3480156101f057600080fd5b5061011873833589fcd6edb6e08f4c7c32d4f71b54bda0291381565b6101e261021a366004610989565b610492565b34801561022b57600080fd5b506000546101189073ffffffffffffffffffffffffffffffffffffffff1681565b34801561025857600080fd5b5061026c610267366004610a0e565b61056d565b6040519081526020016100e7565b34801561028657600080fd5b50610118610716565b34801561029b57600080fd5b506101e26102aa366004610965565b610745565b60006102d97f4e5f991bca30eca2d4643aaefa807e88f96a4a97398933d572a3c0d973004a015490565b15610345576040517f08c379a000000000000000000000000000000000000000000000000000000000815260206004820152601e60248201527f484f4c4f47524150483a20616c726561647920696e697469616c697a6564000060448201526064015b60405180910390fd5b327f3f106594dc74eeef980dae234cde8324dc2497b13d27a0c59e55bd2ca10a07c95561039160017f4e5f991bca30eca2d4643aaefa807e88f96a4a97398933d572a3c0d973004a0155565b507f4ddf47d400000000000000000000000000000000000000000000000000000000919050565b7f3f106594dc74eeef980dae234cde8324dc2497b13d27a0c59e55bd2ca10a07c95473ffffffffffffffffffffffffffffffffffffffff163373ffffffffffffffffffffffffffffffffffffffff161461046e576040517f08c379a000000000000000000000000000000000000000000000000000000000815260206004820152601e60248201527f484f4c4f47524150483a2061646d696e206f6e6c792066756e6374696f6e0000604482015260640161033c565b7f3f106594dc74eeef980dae234cde8324dc2497b13d27a0c59e55bd2ca10a07c955565b7f3f106594dc74eeef980dae234cde8324dc2497b13d27a0c59e55bd2ca10a07c95473ffffffffffffffffffffffffffffffffffffffff163373ffffffffffffffffffffffffffffffffffffffff1614610548576040517f08c379a000000000000000000000000000000000000000000000000000000000815260206004820152601e60248201527f484f4c4f47524150483a2061646d696e206f6e6c792066756e6374696f6e0000604482015260640161033c565b808260003760008082600034875af13d6000803e808015610568573d6000f35b3d6000fd5b6000805473ffffffffffffffffffffffffffffffffffffffff166105ed576040517f08c379a000000000000000000000000000000000000000000000000000000000815260206004820152600e60248201527f51756f746572206e6f7420736574000000000000000000000000000000000000604482015260640161033c565b6040805160a081018252734200000000000000000000000000000000000006815273833589fcd6edb6e08f4c7c32d4f71b54bda0291360208201908152818301858152610bb860608401908152600060808501818152815496517fbd21704a000000000000000000000000000000000000000000000000000000008152865173ffffffffffffffffffffffffffffffffffffffff908116600483015295518616602482015293516044850152915162ffffff1660648401529051831660848301529293839283928392919091169063bd21704a9060a4016080604051808303816000875af11580156106e3573d6000803e3d6000fd5b505050506040513d601f19601f820116820180604052508101906107079190610a27565b50919998505050505050505050565b60006107407f3f106594dc74eeef980dae234cde8324dc2497b13d27a0c59e55bd2ca10a07c95490565b905090565b7f3f106594dc74eeef980dae234cde8324dc2497b13d27a0c59e55bd2ca10a07c95473ffffffffffffffffffffffffffffffffffffffff163373ffffffffffffffffffffffffffffffffffffffff16146107fb576040517f08c379a000000000000000000000000000000000000000000000000000000000815260206004820152601e60248201527f484f4c4f47524150483a2061646d696e206f6e6c792066756e6374696f6e0000604482015260640161033c565b600080547fffffffffffffffffffffffff00000000000000000000000000000000000000001673ffffffffffffffffffffffffffffffffffffffff92909216919091179055565b7f4e487b7100000000000000000000000000000000000000000000000000000000600052604160045260246000fd5b60006020828403121561088357600080fd5b813567ffffffffffffffff8082111561089b57600080fd5b818401915084601f8301126108af57600080fd5b8135818111156108c1576108c1610842565b604051601f82017fffffffffffffffffffffffffffffffffffffffffffffffffffffffffffffffe0908116603f0116810190838211818310171561090757610907610842565b8160405282815287602084870101111561092057600080fd5b826020860160208301376000928101602001929092525095945050505050565b73ffffffffffffffffffffffffffffffffffffffff8116811461096257600080fd5b50565b60006020828403121561097757600080fd5b813561098281610940565b9392505050565b60008060006040848603121561099e57600080fd5b83356109a981610940565b9250602084013567ffffffffffffffff808211156109c657600080fd5b818601915086601f8301126109da57600080fd5b8135818111156109e957600080fd5b8760208285010111156109fb57600080fd5b6020830194508093505050509250925092565b600060208284031215610a2057600080fd5b5035919050565b60008060008060808587031215610a3d57600080fd5b845193506020850151610a4f81610940565b604086015190935063ffffffff81168114610a6957600080fd5b606095909501519396929550505056fea164736f6c634300080d000a",
  "devdoc": {
    "kind": "dev",
    "methods": {
      "convertUsdToWei(uint256)": {
        "details": "It is important to note that different USD stablecoins use different decimal places.",
        "params": {
          "usdAmount": "in USDC (6 decimal places)"
        }
      },
      "init(bytes)": {
        "details": "This function is called by the deployer/factory when creating a contract"
      }
    },
    "version": 1
  },
  "userdoc": {
    "kind": "user",
    "methods": {
      "convertUsdToWei(uint256)": {
        "notice": "Converts USDC value to native gas token value in wei"
      },
      "init(bytes)": {
        "notice": "Used internally to initialize the contract instead of through a constructor"
      }
    },
    "version": 1
  },
  "storageLayout": {
    "storage": [
      {
        "astId": 11364,
        "contract": "src/drops/oracle/DropsPriceOracleBase.sol:DropsPriceOracleBase",
        "label": "quoterV2",
        "offset": 0,
        "slot": "0",
        "type": "t_contract(IQuoterV2)31412"
      }
    ],
    "types": {
      "t_contract(IQuoterV2)31412": {
        "encoding": "inplace",
        "label": "contract IQuoterV2",
        "numberOfBytes": "20"
      }
    }
  }
}