{
  "address": "0x283A35f4ffDd421beD884386970a51D7900E7562",
  "abi": [
    {
      "inputs": [],
      "stateMutability": "nonpayable",
      "type": "constructor"
    },
    {
      "anonymous": false,
      "inputs": [
        {
          "indexed": true,
          "internalType": "address",
          "name": "_owner",
          "type": "address"
        },
        {
          "indexed": true,
          "internalType": "address",
          "name": "_spender",
          "type": "address"
        },
        {
          "indexed": false,
          "internalType": "uint256",
          "name": "_value",
          "type": "uint256"
        }
      ],
      "name": "Approval",
      "type": "event"
    },
    {
      "anonymous": false,
      "inputs": [
        {
          "indexed": true,
          "internalType": "address",
          "name": "previousOwner",
          "type": "address"
        },
        {
          "indexed": true,
          "internalType": "address",
          "name": "newOwner",
          "type": "address"
        }
      ],
      "name": "OwnershipTransferred",
      "type": "event"
    },
    {
      "anonymous": false,
      "inputs": [
        {
          "indexed": true,
          "internalType": "address",
          "name": "_from",
          "type": "address"
        },
        {
          "indexed": true,
          "internalType": "address",
          "name": "_to",
          "type": "address"
        },
        {
          "indexed": false,
          "internalType": "uint256",
          "name": "_value",
          "type": "uint256"
        }
      ],
      "name": "Transfer",
      "type": "event"
    },
    {
      "stateMutability": "payable",
      "type": "fallback"
    },
    {
      "inputs": [],
      "name": "DOMAIN_SEPARATOR",
      "outputs": [
        {
          "internalType": "bytes32",
          "name": "",
          "type": "bytes32"
        }
      ],
      "stateMutability": "view",
      "type": "function"
    },
    {
      "inputs": [],
      "name": "admin",
      "outputs": [
        {
          "internalType": "address",
          "name": "",
          "type": "address"
        }
      ],
      "stateMutability": "view",
      "type": "function"
    },
    {
      "inputs": [
        {
          "internalType": "address",
          "name": "target",
          "type": "address"
        },
        {
          "internalType": "bytes",
          "name": "data",
          "type": "bytes"
        }
      ],
      "name": "adminCall",
      "outputs": [],
      "stateMutability": "payable",
      "type": "function"
    },
    {
      "inputs": [
        {
          "internalType": "address",
          "name": "account",
          "type": "address"
        },
        {
          "internalType": "address",
          "name": "spender",
          "type": "address"
        }
      ],
      "name": "allowance",
      "outputs": [
        {
          "internalType": "uint256",
          "name": "",
          "type": "uint256"
        }
      ],
      "stateMutability": "view",
      "type": "function"
    },
    {
      "inputs": [
        {
          "internalType": "address",
          "name": "spender",
          "type": "address"
        },
        {
          "internalType": "uint256",
          "name": "amount",
          "type": "uint256"
        }
      ],
      "name": "approve",
      "outputs": [
        {
          "internalType": "bool",
          "name": "",
          "type": "bool"
        }
      ],
      "stateMutability": "nonpayable",
      "type": "function"
    },
    {
      "inputs": [
        {
          "internalType": "address",
          "name": "account",
          "type": "address"
        }
      ],
      "name": "balanceOf",
      "outputs": [
        {
          "internalType": "uint256",
          "name": "",
          "type": "uint256"
        }
      ],
      "stateMutability": "view",
      "type": "function"
    },
    {
      "inputs": [
        {
          "internalType": "uint32",
          "name": "fromChain",
          "type": "uint32"
        },
        {
          "internalType": "bytes",
          "name": "payload",
          "type": "bytes"
        }
      ],
      "name": "bridgeIn",
      "outputs": [
        {
          "internalType": "bytes4",
          "name": "",
          "type": "bytes4"
        }
      ],
      "stateMutability": "nonpayable",
      "type": "function"
    },
    {
      "inputs": [
        {
          "internalType": "uint32",
          "name": "toChain",
          "type": "uint32"
        },
        {
          "internalType": "address",
          "name": "sender",
          "type": "address"
        },
        {
          "internalType": "bytes",
          "name": "payload",
          "type": "bytes"
        }
      ],
      "name": "bridgeOut",
      "outputs": [
        {
          "internalType": "bytes4",
          "name": "selector",
          "type": "bytes4"
        },
        {
          "internalType": "bytes",
          "name": "data",
          "type": "bytes"
        }
      ],
      "stateMutability": "nonpayable",
      "type": "function"
    },
    {
      "inputs": [
        {
          "internalType": "uint256",
          "name": "amount",
          "type": "uint256"
        }
      ],
      "name": "burn",
      "outputs": [],
      "stateMutability": "nonpayable",
      "type": "function"
    },
    {
      "inputs": [
        {
          "internalType": "address",
          "name": "account",
          "type": "address"
        },
        {
          "internalType": "uint256",
          "name": "amount",
          "type": "uint256"
        }
      ],
      "name": "burnFrom",
      "outputs": [
        {
          "internalType": "bool",
          "name": "",
          "type": "bool"
        }
      ],
      "stateMutability": "nonpayable",
      "type": "function"
    },
    {
      "inputs": [],
      "name": "decimals",
      "outputs": [
        {
          "internalType": "uint8",
          "name": "",
          "type": "uint8"
        }
      ],
      "stateMutability": "view",
      "type": "function"
    },
    {
      "inputs": [
        {
          "internalType": "address",
          "name": "spender",
          "type": "address"
        },
        {
          "internalType": "uint256",
          "name": "subtractedValue",
          "type": "uint256"
        }
      ],
      "name": "decreaseAllowance",
      "outputs": [
        {
          "internalType": "bool",
          "name": "",
          "type": "bool"
        }
      ],
      "stateMutability": "nonpayable",
      "type": "function"
    },
    {
      "inputs": [],
      "name": "getAdmin",
      "outputs": [
        {
          "internalType": "address",
          "name": "adminAddress",
          "type": "address"
        }
      ],
      "stateMutability": "view",
      "type": "function"
    },
    {
      "inputs": [],
      "name": "getOwner",
      "outputs": [
        {
          "internalType": "address",
          "name": "ownerAddress",
          "type": "address"
        }
      ],
      "stateMutability": "view",
      "type": "function"
    },
    {
      "inputs": [
        {
          "internalType": "address",
          "name": "to",
          "type": "address"
        },
        {
          "internalType": "uint256",
          "name": "amount",
          "type": "uint256"
        }
      ],
      "name": "holographBridgeMint",
      "outputs": [
        {
          "internalType": "bytes4",
          "name": "",
          "type": "bytes4"
        }
      ],
      "stateMutability": "nonpayable",
      "type": "function"
    },
    {
      "inputs": [
        {
          "internalType": "address",
          "name": "spender",
          "type": "address"
        },
        {
          "internalType": "uint256",
          "name": "addedValue",
          "type": "uint256"
        }
      ],
      "name": "increaseAllowance",
      "outputs": [
        {
          "internalType": "bool",
          "name": "",
          "type": "bool"
        }
      ],
      "stateMutability": "nonpayable",
      "type": "function"
    },
    {
      "inputs": [
        {
          "internalType": "bytes",
          "name": "initPayload",
          "type": "bytes"
        }
      ],
      "name": "init",
      "outputs": [
        {
          "internalType": "bytes4",
          "name": "",
          "type": "bytes4"
        }
      ],
      "stateMutability": "nonpayable",
      "type": "function"
    },
    {
      "inputs": [],
      "name": "name",
      "outputs": [
        {
          "internalType": "string",
          "name": "",
          "type": "string"
        }
      ],
      "stateMutability": "view",
      "type": "function"
    },
    {
      "inputs": [
        {
          "internalType": "address",
          "name": "account",
          "type": "address"
        }
      ],
      "name": "nonces",
      "outputs": [
        {
          "internalType": "uint256",
          "name": "",
          "type": "uint256"
        }
      ],
      "stateMutability": "view",
      "type": "function"
    },
    {
      "inputs": [
        {
          "internalType": "address",
          "name": "account",
          "type": "address"
        },
        {
          "internalType": "address",
          "name": "sender",
          "type": "address"
        },
        {
          "internalType": "uint256",
          "name": "amount",
          "type": "uint256"
        },
        {
          "internalType": "bytes",
          "name": "data",
          "type": "bytes"
        }
      ],
      "name": "onERC20Received",
      "outputs": [
        {
          "internalType": "bytes4",
          "name": "",
          "type": "bytes4"
        }
      ],
      "stateMutability": "nonpayable",
      "type": "function"
    },
    {
      "inputs": [],
      "name": "owner",
      "outputs": [
        {
          "internalType": "address",
          "name": "",
          "type": "address"
        }
      ],
      "stateMutability": "view",
      "type": "function"
    },
    {
      "inputs": [
        {
          "internalType": "address",
          "name": "target",
          "type": "address"
        },
        {
          "internalType": "bytes",
          "name": "data",
          "type": "bytes"
        }
      ],
      "name": "ownerCall",
      "outputs": [],
      "stateMutability": "payable",
      "type": "function"
    },
    {
      "inputs": [
        {
          "internalType": "address",
          "name": "account",
          "type": "address"
        },
        {
          "internalType": "address",
          "name": "spender",
          "type": "address"
        },
        {
          "internalType": "uint256",
          "name": "amount",
          "type": "uint256"
        },
        {
          "internalType": "uint256",
          "name": "deadline",
          "type": "uint256"
        },
        {
          "internalType": "uint8",
          "name": "v",
          "type": "uint8"
        },
        {
          "internalType": "bytes32",
          "name": "r",
          "type": "bytes32"
        },
        {
          "internalType": "bytes32",
          "name": "s",
          "type": "bytes32"
        }
      ],
      "name": "permit",
      "outputs": [],
      "stateMutability": "nonpayable",
      "type": "function"
    },
    {
      "inputs": [
        {
          "internalType": "address",
          "name": "recipient",
          "type": "address"
        },
        {
          "internalType": "uint256",
          "name": "amount",
          "type": "uint256"
        }
      ],
      "name": "safeTransfer",
      "outputs": [
        {
          "internalType": "bool",
          "name": "",
          "type": "bool"
        }
      ],
      "stateMutability": "nonpayable",
      "type": "function"
    },
    {
      "inputs": [
        {
          "internalType": "address",
          "name": "recipient",
          "type": "address"
        },
        {
          "internalType": "uint256",
          "name": "amount",
          "type": "uint256"
        },
        {
          "internalType": "bytes",
          "name": "data",
          "type": "bytes"
        }
      ],
      "name": "safeTransfer",
      "outputs": [
        {
          "internalType": "bool",
          "name": "",
          "type": "bool"
        }
      ],
      "stateMutability": "nonpayable",
      "type": "function"
    },
    {
      "inputs": [
        {
          "internalType": "address",
          "name": "account",
          "type": "address"
        },
        {
          "internalType": "address",
          "name": "recipient",
          "type": "address"
        },
        {
          "internalType": "uint256",
          "name": "amount",
          "type": "uint256"
        }
      ],
      "name": "safeTransferFrom",
      "outputs": [
        {
          "internalType": "bool",
          "name": "",
          "type": "bool"
        }
      ],
      "stateMutability": "nonpayable",
      "type": "function"
    },
    {
      "inputs": [
        {
          "internalType": "address",
          "name": "account",
          "type": "address"
        },
        {
          "internalType": "address",
          "name": "recipient",
          "type": "address"
        },
        {
          "internalType": "uint256",
          "name": "amount",
          "type": "uint256"
        },
        {
          "internalType": "bytes",
          "name": "data",
          "type": "bytes"
        }
      ],
      "name": "safeTransferFrom",
      "outputs": [
        {
          "internalType": "bool",
          "name": "",
          "type": "bool"
        }
      ],
      "stateMutability": "nonpayable",
      "type": "function"
    },
    {
      "inputs": [
        {
          "internalType": "address",
          "name": "adminAddress",
          "type": "address"
        }
      ],
      "name": "setAdmin",
      "outputs": [],
      "stateMutability": "nonpayable",
      "type": "function"
    },
    {
      "inputs": [
        {
          "internalType": "address",
          "name": "ownerAddress",
          "type": "address"
        }
      ],
      "name": "setOwner",
      "outputs": [],
      "stateMutability": "nonpayable",
      "type": "function"
    },
    {
      "inputs": [
        {
          "internalType": "address",
          "name": "from",
          "type": "address"
        },
        {
          "internalType": "uint256",
          "name": "amount",
          "type": "uint256"
        }
      ],
      "name": "sourceBurn",
      "outputs": [],
      "stateMutability": "nonpayable",
      "type": "function"
    },
    {
      "inputs": [
        {
          "internalType": "address",
          "name": "to",
          "type": "address"
        },
        {
          "internalType": "uint256",
          "name": "amount",
          "type": "uint256"
        }
      ],
      "name": "sourceMint",
      "outputs": [],
      "stateMutability": "nonpayable",
      "type": "function"
    },
    {
      "inputs": [
        {
          "internalType": "address[]",
          "name": "wallets",
          "type": "address[]"
        },
        {
          "internalType": "uint256[]",
          "name": "amounts",
          "type": "uint256[]"
        }
      ],
      "name": "sourceMintBatch",
      "outputs": [],
      "stateMutability": "nonpayable",
      "type": "function"
    },
    {
      "inputs": [
        {
          "internalType": "address",
          "name": "from",
          "type": "address"
        },
        {
          "internalType": "address",
          "name": "to",
          "type": "address"
        },
        {
          "internalType": "uint256",
          "name": "amount",
          "type": "uint256"
        }
      ],
      "name": "sourceTransfer",
      "outputs": [],
      "stateMutability": "nonpayable",
      "type": "function"
    },
    {
      "inputs": [
        {
          "internalType": "bytes4",
          "name": "interfaceId",
          "type": "bytes4"
        }
      ],
      "name": "supportsInterface",
      "outputs": [
        {
          "internalType": "bool",
          "name": "",
          "type": "bool"
        }
      ],
      "stateMutability": "view",
      "type": "function"
    },
    {
      "inputs": [],
      "name": "symbol",
      "outputs": [
        {
          "internalType": "string",
          "name": "",
          "type": "string"
        }
      ],
      "stateMutability": "view",
      "type": "function"
    },
    {
      "inputs": [],
      "name": "totalSupply",
      "outputs": [
        {
          "internalType": "uint256",
          "name": "",
          "type": "uint256"
        }
      ],
      "stateMutability": "view",
      "type": "function"
    },
    {
      "inputs": [
        {
          "internalType": "address",
          "name": "recipient",
          "type": "address"
        },
        {
          "internalType": "uint256",
          "name": "amount",
          "type": "uint256"
        }
      ],
      "name": "transfer",
      "outputs": [
        {
          "internalType": "bool",
          "name": "",
          "type": "bool"
        }
      ],
      "stateMutability": "nonpayable",
      "type": "function"
    },
    {
      "inputs": [
        {
          "internalType": "address",
          "name": "account",
          "type": "address"
        },
        {
          "internalType": "address",
          "name": "recipient",
          "type": "address"
        },
        {
          "internalType": "uint256",
          "name": "amount",
          "type": "uint256"
        }
      ],
      "name": "transferFrom",
      "outputs": [
        {
          "internalType": "bool",
          "name": "",
          "type": "bool"
        }
      ],
      "stateMutability": "nonpayable",
      "type": "function"
    },
    {
      "inputs": [
        {
          "internalType": "address",
          "name": "newOwner",
          "type": "address"
        }
      ],
      "name": "transferOwnership",
      "outputs": [],
      "stateMutability": "nonpayable",
      "type": "function"
    },
    {
      "stateMutability": "payable",
      "type": "receive"
    }
  ],
  "transactionHash": "0x82ed314d6ab33e9635da00731ae559c98fde3ad75f8686f714491f22aab96642",
  "args": [],
  "numDeployments": 3,
  "solcInputHash": "baabf231578d154ef0ba0f2d9719dae5",
  "bytecode": "0x608060405234801561001057600080fd5b5061593c80620000216000396000f3fe6080604052600436106102a45760003560e01c8063704b6c021161016e578063b7e03661116100cb578063eb66dbcf1161007f578063f2fde38b11610064578063f2fde38b14610857578063f851a44014610877578063fad66f921461088c576102ab565b8063eb66dbcf14610824578063eb79554914610837576102ab565b8063bf64a82d116100b0578063bf64a82d1461079e578063d505accf146107b1578063dd62ed3e146107d1576102ab565b8063b7e0366114610750578063b88d4fde1461077e576102ab565b80638da5cb5b11610122578063a457c2d711610107578063a457c2d7146106f0578063a8eb29c914610710578063a9059cbb14610730576102ab565b80638da5cb5b146106c657806395d89b41146106db576102ab565b806379cc67901161015357806379cc67901461062f5780637ecebe001461064f578063893d20e814610692576102ab565b8063704b6c02146105cc57806370a08231146105ec576102ab565b8063313ce5671161021c57806342966c68116101d05780634fc35859116101b55780634fc358591461053757806366bd3d45146105575780636e9960c314610577576102ab565b806342966c68146104f75780634ddf47d414610517576102ab565b806339509351116102015780633950935114610497578063423f6cef146104b757806342842e0e146104d7576102ab565b8063313ce567146104605780633644e51514610482576102ab565b80630d3ada541161027357806313af40351161025857806313af40351461040157806318160ddd1461042157806323b872dd14610440576102ab565b80630d3ada54146103c15780630d5e2c1d146103e1576102ab565b806301ffc9a7146102f957806306fdde031461032e57806308a1eb2014610350578063095ea7b3146103a1576102ab565b366102ab57005b3660008037333652600080602036016000347f27d542086d1e831d40b749e7f5509a626c3047a36d160781c40d5acc83e5b074545af13d6000803e8080156102f2573d6000f35b3d6000fd5b005b34801561030557600080fd5b50610319610314366004614d92565b6108ac565b60405190151581526020015b60405180910390f35b34801561033a57600080fd5b50610343610a42565b6040516103259190614e25565b34801561035c57600080fd5b5061037061036b366004614e9a565b610ad4565b6040517fffffffff000000000000000000000000000000000000000000000000000000009091168152602001610325565b3480156103ad57600080fd5b506103196103bc366004614f0f565b610d6f565b3480156103cd57600080fd5b506102f76103dc366004614f80565b610f3b565b3480156103ed57600080fd5b506102f76103fc366004614f0f565b611049565b34801561040d57600080fd5b506102f761041c366004614fec565b6110f9565b34801561042d57600080fd5b506009545b604051908152602001610325565b34801561044c57600080fd5b5061031961045b366004615009565b61125c565b34801561046c57600080fd5b50600c5460405160ff9091168152602001610325565b34801561048e57600080fd5b506104326116a7565b3480156104a357600080fd5b506103196104b2366004614f0f565b6116b6565b3480156104c357600080fd5b506103196104d2366004614f0f565b611920565b3480156104e357600080fd5b506103196104f2366004615009565b611943565b34801561050357600080fd5b506102f761051236600461504a565b611968565b34801561052357600080fd5b5061037061053236600461517d565b611b1b565b34801561054357600080fd5b506103706105523660046151b2565b611e2e565b34801561056357600080fd5b506102f7610572366004614f0f565b6121bd565b34801561058357600080fd5b507f3f106594dc74eeef980dae234cde8324dc2497b13d27a0c59e55bd2ca10a07c9545b60405173ffffffffffffffffffffffffffffffffffffffff9091168152602001610325565b3480156105d857600080fd5b506102f76105e7366004614fec565b612268565b3480156105f857600080fd5b50610432610607366004614fec565b73ffffffffffffffffffffffffffffffffffffffff1660009081526007602052604090205490565b34801561063b57600080fd5b5061031961064a366004614f0f565b612342565b34801561065b57600080fd5b5061043261066a366004614fec565b73ffffffffffffffffffffffffffffffffffffffff166000908152600d602052604090205490565b34801561069e57600080fd5b507fb56711ba6bd3ded7639fc335ee7524fe668a79d7558c85992e3f8494cf772777546105a7565b3480156106d257600080fd5b506105a7612599565b3480156106e757600080fd5b50610343612635565b3480156106fc57600080fd5b5061031961070b366004614f0f565b612644565b34801561071c57600080fd5b506102f761072b366004615009565b6126ec565b34801561073c57600080fd5b5061031961074b366004614f0f565b61279e565b34801561075c57600080fd5b5061077061076b366004615225565b612919565b60405161032592919061527c565b34801561078a57600080fd5b506103196107993660046152b7565b612cce565b6102f76107ac366004615323565b6130f1565b3480156107bd57600080fd5b506102f76107cc366004615352565b6131c7565b3480156107dd57600080fd5b506104326107ec3660046153c3565b73ffffffffffffffffffffffffffffffffffffffff918216600090815260086020908152604080832093909416825291909152205490565b6102f7610832366004615323565b613540565b34801561084357600080fd5b506103196108523660046153fc565b6135f6565b34801561086357600080fd5b506102f7610872366004614fec565b61379f565b34801561088357600080fd5b506105a76138f6565b34801561089857600080fd5b506103706108a7366004614f0f565b613920565b6000806108b7613a7e565b7f27d542086d1e831d40b749e7f5509a626c3047a36d160781c40d5acc83e5b074546040517f9fe7303f0000000000000000000000000000000000000000000000000000000081529192509073ffffffffffffffffffffffffffffffffffffffff831690639fe7303f90610932906001908890600401615484565b602060405180830381865afa15801561094f573d6000803e3d6000fd5b505050506040513d601f19601f820116820180604052508101906109739190615500565b80610a2957506040517f01ffc9a70000000000000000000000000000000000000000000000000000000081527fffffffff000000000000000000000000000000000000000000000000000000008516600482015273ffffffffffffffffffffffffffffffffffffffff8216906301ffc9a790602401602060405180830381865afa158015610a05573d6000803e3d6000fd5b505050506040513d601f19601f82011682018060405250810190610a299190615500565b15610a38575060019392505050565b5060009392505050565b6060600a8054610a519061551b565b80601f0160208091040260200160405190810160405280929190818152602001828054610a7d9061551b565b8015610aca5780601f10610a9f57610100808354040283529160200191610aca565b820191906000526020600020905b815481529060010190602001808311610aad57829003601f168201915b5050505050905090565b6000610afe7fb4107f746e9496e8452accc7de63d1c5e14c19f510932daa04077cd49e8bd77a5490565b73ffffffffffffffffffffffffffffffffffffffff16630fffbaf36040518163ffffffff1660e01b8152600401602060405180830381865afa158015610b48573d6000803e3d6000fd5b505050506040513d601f19601f82011682018060405250810190610b6c919061556e565b73ffffffffffffffffffffffffffffffffffffffff163373ffffffffffffffffffffffffffffffffffffffff1614610c05576040517f08c379a000000000000000000000000000000000000000000000000000000000815260206004820152601760248201527f45524332303a20627269646765206f6e6c792063616c6c00000000000000000060448201526064015b60405180910390fd5b6000808080610c16868801886152b7565b9350935093509350610c288383613b16565b610c326001613c36565b15610d42577f27d542086d1e831d40b749e7f5509a626c3047a36d160781c40d5acc83e5b0745473ffffffffffffffffffffffffffffffffffffffff1663f0f5407389868686866040518663ffffffff1660e01b8152600401610c9995949392919061558b565b6020604051808303816000875af1158015610cb8573d6000803e3d6000fd5b505050506040513d601f19601f82011682018060405250810190610cdc9190615500565b610d42576040517f08c379a000000000000000000000000000000000000000000000000000000000815260206004820152601b60248201527f484f4c4f47524150483a2062726964676520696e206661696c656400000000006044820152606401610bfc565b507f08a1eb2000000000000000000000000000000000000000000000000000000000979650505050505050565b6000610d7b6004613c36565b15610e4c577f27d542086d1e831d40b749e7f5509a626c3047a36d160781c40d5acc83e5b074546040517f47abf3be00000000000000000000000000000000000000000000000000000000815233600482015273ffffffffffffffffffffffffffffffffffffffff85811660248301526044820185905291909116906347abf3be906064016020604051808303816000875af1158015610e1f573d6000803e3d6000fd5b505050506040513d601f19601f82011682018060405250810190610e439190615500565b610e4c57600080fd5b610e57338484613c69565b610e616003613c36565b15610f32577f27d542086d1e831d40b749e7f5509a626c3047a36d160781c40d5acc83e5b074546040517f900f66ef00000000000000000000000000000000000000000000000000000000815233600482015273ffffffffffffffffffffffffffffffffffffffff8581166024830152604482018590529091169063900f66ef906064015b6020604051808303816000875af1158015610f05573d6000803e3d6000fd5b505050506040513d601f19601f82011682018060405250810190610f299190615500565b610f3257600080fd5b50600192915050565b7f27d542086d1e831d40b749e7f5509a626c3047a36d160781c40d5acc83e5b074543373ffffffffffffffffffffffffffffffffffffffff821614610fdc576040517f08c379a000000000000000000000000000000000000000000000000000000000815260206004820152601760248201527f45524332303a20736f75726365206f6e6c792063616c6c0000000000000000006044820152606401610bfc565b60005b848110156110415761102f868683818110610ffc57610ffc6155e1565b90506020020160208101906110119190614fec565b858584818110611023576110236155e1565b90506020020135613b16565b806110398161563f565b915050610fdf565b505050505050565b7f27d542086d1e831d40b749e7f5509a626c3047a36d160781c40d5acc83e5b074543373ffffffffffffffffffffffffffffffffffffffff8216146110ea576040517f08c379a000000000000000000000000000000000000000000000000000000000815260206004820152601760248201527f45524332303a20736f75726365206f6e6c792063616c6c0000000000000000006044820152606401610bfc565b6110f48383613dd2565b505050565b7fb56711ba6bd3ded7639fc335ee7524fe668a79d7558c85992e3f8494cf7727775473ffffffffffffffffffffffffffffffffffffffff163373ffffffffffffffffffffffffffffffffffffffff16146111af576040517f08c379a000000000000000000000000000000000000000000000000000000000815260206004820152601e60248201527f484f4c4f47524150483a206f776e6572206f6e6c792066756e6374696f6e00006044820152606401610bfc565b60006111d97fb56711ba6bd3ded7639fc335ee7524fe668a79d7558c85992e3f8494cf7727775490565b9050817fb56711ba6bd3ded7639fc335ee7524fe668a79d7558c85992e3f8494cf772777558173ffffffffffffffffffffffffffffffffffffffff168173ffffffffffffffffffffffffffffffffffffffff167f8be0079c531659141344cd1fd0a4f28419497f9722a3daafe3b4186f6b6457e060405160405180910390a35050565b600073ffffffffffffffffffffffffffffffffffffffff841633146114d8577fb4107f746e9496e8452accc7de63d1c5e14c19f510932daa04077cd49e8bd77a5473ffffffffffffffffffffffffffffffffffffffff16630fffbaf36040518163ffffffff1660e01b8152600401602060405180830381865afa1580156112e7573d6000803e3d6000fd5b505050506040513d601f19601f8201168201806040525081019061130b919061556e565b73ffffffffffffffffffffffffffffffffffffffff163373ffffffffffffffffffffffffffffffffffffffff161415801561140157507fb4107f746e9496e8452accc7de63d1c5e14c19f510932daa04077cd49e8bd77a5473ffffffffffffffffffffffffffffffffffffffff1663e7f43c686040518163ffffffff1660e01b8152600401602060405180830381865afa1580156113ad573d6000803e3d6000fd5b505050506040513d601f19601f820116820180604052508101906113d1919061556e565b73ffffffffffffffffffffffffffffffffffffffff163373ffffffffffffffffffffffffffffffffffffffff1614155b156114d85773ffffffffffffffffffffffffffffffffffffffff84166000908152600860209081526040808320338452909152902054828110156114a1576040517f08c379a000000000000000000000000000000000000000000000000000000000815260206004820152601f60248201527f45524332303a20616d6f756e74206578636565647320616c6c6f77616e6365006044820152606401610bfc565b73ffffffffffffffffffffffffffffffffffffffff8516600090815260086020908152604080832033845290915290209083900390555b6114e2600e613c36565b156115b5577f27d542086d1e831d40b749e7f5509a626c3047a36d160781c40d5acc83e5b074546040517f1ffb811f00000000000000000000000000000000000000000000000000000000815273ffffffffffffffffffffffffffffffffffffffff86811660048301528581166024830152604482018590529190911690631ffb811f906064016020604051808303816000875af1158015611588573d6000803e3d6000fd5b505050506040513d601f19601f820116820180604052508101906115ac9190615500565b6115b557600080fd5b6115c0848484613f6b565b6115ca600d613c36565b1561169d577f27d542086d1e831d40b749e7f5509a626c3047a36d160781c40d5acc83e5b074546040517ff49062ca00000000000000000000000000000000000000000000000000000000815273ffffffffffffffffffffffffffffffffffffffff86811660048301528581166024830152604482018590529091169063f49062ca906064015b6020604051808303816000875af1158015611670573d6000803e3d6000fd5b505050506040513d601f19601f820116820180604052508101906116949190615500565b61169d57600080fd5b5060019392505050565b60006116b16141ad565b905090565b33600090815260086020908152604080832073ffffffffffffffffffffffffffffffffffffffff8616845290915281205482810181811015611754576040517f08c379a000000000000000000000000000000000000000000000000000000000815260206004820181905260248201527f45524332303a20696e637265617365642061626f7665206d61782076616c75656044820152606401610bfc565b61175e6004613c36565b1561182f577f27d542086d1e831d40b749e7f5509a626c3047a36d160781c40d5acc83e5b074546040517f47abf3be00000000000000000000000000000000000000000000000000000000815233600482015273ffffffffffffffffffffffffffffffffffffffff87811660248301526044820184905291909116906347abf3be906064016020604051808303816000875af1158015611802573d6000803e3d6000fd5b505050506040513d601f19601f820116820180604052508101906118269190615500565b61182f57600080fd5b61183a338683613c69565b6118446003613c36565b15611915577f27d542086d1e831d40b749e7f5509a626c3047a36d160781c40d5acc83e5b074546040517f900f66ef00000000000000000000000000000000000000000000000000000000815233600482015273ffffffffffffffffffffffffffffffffffffffff8781166024830152604482018490529091169063900f66ef906064015b6020604051808303816000875af11580156118e8573d6000803e3d6000fd5b505050506040513d601f19601f8201168201806040525081019061190c9190615500565b61191557600080fd5b506001949350505050565b600061193c8383604051806020016040528060008152506135f6565b9392505050565b600061196084848460405180602001604052806000815250612cce565b949350505050565b6119726008613c36565b15611a3b577f27d542086d1e831d40b749e7f5509a626c3047a36d160781c40d5acc83e5b074546040517f4a1fefbd0000000000000000000000000000000000000000000000000000000081523360048201526024810183905273ffffffffffffffffffffffffffffffffffffffff9190911690634a1fefbd906044016020604051808303816000875af1158015611a0e573d6000803e3d6000fd5b505050506040513d601f19601f82011682018060405250810190611a329190615500565b611a3b57600080fd5b611a453382613dd2565b611a4f6007613c36565b15611b18577f27d542086d1e831d40b749e7f5509a626c3047a36d160781c40d5acc83e5b074546040517f971c34b40000000000000000000000000000000000000000000000000000000081523360048201526024810183905273ffffffffffffffffffffffffffffffffffffffff919091169063971c34b4906044016020604051808303816000875af1158015611aeb573d6000803e3d6000fd5b505050506040513d601f19601f82011682018060405250810190611b0f9190615500565b611b1857600080fd5b50565b6000611b457f4e5f991bca30eca2d4643aaefa807e88f96a4a97398933d572a3c0d973004a015490565b15611bac576040517f08c379a000000000000000000000000000000000000000000000000000000000815260206004820152601a60248201527f45524332303a20616c726561647920696e697469616c697a65640000000000006044820152606401610bfc565b600060017f04b524dd539523930d3901481aa9455d7752b49add99e1647adb8b09a313727955337fb56711ba6bd3ded7639fc335ee7524fe668a79d7558c85992e3f8494cf772777557f27d542086d1e831d40b749e7f5509a626c3047a36d160781c40d5acc83e5b0745490506000806000806000806000808a806020019051810190611c3991906156c7565b9750975097509750975097509750975087600a9080519060200190611c5f929190614ccb565b508651611c7390600b9060208a0190614ccb565b50600c80547fffffffffffffffffffffffffffffffffffffffffffffffffffffffffffffff001660ff8816179055600685905581611dcb576040517f4ddf47d4000000000000000000000000000000000000000000000000000000008082529073ffffffffffffffffffffffffffffffffffffffff8b1690634ddf47d490611cff908590600401614e25565b6020604051808303816000875af1158015611d1e573d6000803e3d6000fd5b505050506040513d601f19601f82011682018060405250810190611d4291906157c4565b7fffffffff000000000000000000000000000000000000000000000000000000001614611dcb576040517f08c379a000000000000000000000000000000000000000000000000000000000815260206004820152601c60248201527f45524332303a20636f756c64206e6f7420696e697420736f75726365000000006044820152606401610bfc565b611df460017f4e5f991bca30eca2d4643aaefa807e88f96a4a97398933d572a3c0d973004a0155565b611dfe8484614239565b507f4ddf47d4000000000000000000000000000000000000000000000000000000009a9950505050505050505050565b6000611e3986614301565b611e9f576040517f08c379a000000000000000000000000000000000000000000000000000000000815260206004820152601c60248201527f45524332303a206f70657261746f72206e6f7420636f6e7472616374000000006044820152606401610bfc565b611ea96006613c36565b15611f5e577f27d542086d1e831d40b749e7f5509a626c3047a36d160781c40d5acc83e5b0745473ffffffffffffffffffffffffffffffffffffffff166395aae8bd8787308888886040518763ffffffff1660e01b8152600401611f12969594939291906157e1565b6020604051808303816000875af1158015611f31573d6000803e3d6000fd5b505050506040513d601f19601f82011682018060405250810190611f559190615500565b611f5e57600080fd5b6040517f70a0823100000000000000000000000000000000000000000000000000000000815230600482015273ffffffffffffffffffffffffffffffffffffffff8716906370a0823190602401602060405180830381865afa925050508015612002575060408051601f3d9081017fffffffffffffffffffffffffffffffffffffffffffffffffffffffffffffffe0168201909252611fff91810190615869565b60015b612068576040517f08c379a000000000000000000000000000000000000000000000000000000000815260206004820152601d60248201527f45524332303a206661696c65642067657474696e672062616c616e63650000006044820152606401610bfc565b848110156120d2576040517f08c379a000000000000000000000000000000000000000000000000000000000815260206004820152601b60248201527f45524332303a2062616c616e636520636865636b206661696c656400000000006044820152606401610bfc565b506120dd6005613c36565b15612192577f27d542086d1e831d40b749e7f5509a626c3047a36d160781c40d5acc83e5b0745473ffffffffffffffffffffffffffffffffffffffff166345b596998787308888886040518763ffffffff1660e01b8152600401612146969594939291906157e1565b6020604051808303816000875af1158015612165573d6000803e3d6000fd5b505050506040513d601f19601f820116820180604052508101906121899190615500565b61219257600080fd5b507f4fc358590000000000000000000000000000000000000000000000000000000095945050505050565b7f27d542086d1e831d40b749e7f5509a626c3047a36d160781c40d5acc83e5b074543373ffffffffffffffffffffffffffffffffffffffff82161461225e576040517f08c379a000000000000000000000000000000000000000000000000000000000815260206004820152601760248201527f45524332303a20736f75726365206f6e6c792063616c6c0000000000000000006044820152606401610bfc565b6110f48383613b16565b7f3f106594dc74eeef980dae234cde8324dc2497b13d27a0c59e55bd2ca10a07c95473ffffffffffffffffffffffffffffffffffffffff163373ffffffffffffffffffffffffffffffffffffffff161461231e576040517f08c379a000000000000000000000000000000000000000000000000000000000815260206004820152601e60248201527f484f4c4f47524150483a2061646d696e206f6e6c792066756e6374696f6e00006044820152606401610bfc565b7f3f106594dc74eeef980dae234cde8324dc2497b13d27a0c59e55bd2ca10a07c955565b73ffffffffffffffffffffffffffffffffffffffff82166000908152600860209081526040808320338452909152812054828110156123dd576040517f08c379a000000000000000000000000000000000000000000000000000000000815260206004820152601f60248201527f45524332303a20616d6f756e74206578636565647320616c6c6f77616e6365006044820152606401610bfc565b73ffffffffffffffffffffffffffffffffffffffff84166000908152600860208181526040808420338552909152909120848303905561241c90613c36565b156124e7577f27d542086d1e831d40b749e7f5509a626c3047a36d160781c40d5acc83e5b074546040517f4a1fefbd00000000000000000000000000000000000000000000000000000000815273ffffffffffffffffffffffffffffffffffffffff8681166004830152602482018690529190911690634a1fefbd906044016020604051808303816000875af11580156124ba573d6000803e3d6000fd5b505050506040513d601f19601f820116820180604052508101906124de9190615500565b6124e757600080fd5b6124f18484613dd2565b6124fb6007613c36565b1561169d577f27d542086d1e831d40b749e7f5509a626c3047a36d160781c40d5acc83e5b074546040517f971c34b400000000000000000000000000000000000000000000000000000000815273ffffffffffffffffffffffffffffffffffffffff868116600483015260248201869052919091169063971c34b4906044016020604051808303816000875af1158015611670573d6000803e3d6000fd5b6000807f27d542086d1e831d40b749e7f5509a626c3047a36d160781c40d5acc83e5b0745490508073ffffffffffffffffffffffffffffffffffffffff16638da5cb5b6040518163ffffffff1660e01b8152600401602060405180830381865afa15801561260b573d6000803e3d6000fd5b505050506040513d601f19601f8201168201806040525081019061262f919061556e565b91505090565b6060600b8054610a519061551b565b33600090815260086020908152604080832073ffffffffffffffffffffffffffffffffffffffff86168452909152812054828110156126df576040517f08c379a000000000000000000000000000000000000000000000000000000000815260206004820152601b60248201527f45524332303a206465637265617365642062656c6f77207a65726f00000000006044820152606401610bfc565b82810361175e6004613c36565b7f27d542086d1e831d40b749e7f5509a626c3047a36d160781c40d5acc83e5b074543373ffffffffffffffffffffffffffffffffffffffff82161461278d576040517f08c379a000000000000000000000000000000000000000000000000000000000815260206004820152601760248201527f45524332303a20736f75726365206f6e6c792063616c6c0000000000000000006044820152606401610bfc565b612798848484613f6b565b50505050565b60006127aa600e613c36565b1561287b577f27d542086d1e831d40b749e7f5509a626c3047a36d160781c40d5acc83e5b074546040517f1ffb811f00000000000000000000000000000000000000000000000000000000815233600482015273ffffffffffffffffffffffffffffffffffffffff8581166024830152604482018590529190911690631ffb811f906064016020604051808303816000875af115801561284e573d6000803e3d6000fd5b505050506040513d601f19601f820116820180604052508101906128729190615500565b61287b57600080fd5b612886338484613f6b565b612890600d613c36565b15610f32577f27d542086d1e831d40b749e7f5509a626c3047a36d160781c40d5acc83e5b074546040517ff49062ca00000000000000000000000000000000000000000000000000000000815233600482015273ffffffffffffffffffffffffffffffffffffffff8581166024830152604482018590529091169063f49062ca90606401610ee6565b600060606129457fb4107f746e9496e8452accc7de63d1c5e14c19f510932daa04077cd49e8bd77a5490565b73ffffffffffffffffffffffffffffffffffffffff16630fffbaf36040518163ffffffff1660e01b8152600401602060405180830381865afa15801561298f573d6000803e3d6000fd5b505050506040513d601f19601f820116820180604052508101906129b3919061556e565b73ffffffffffffffffffffffffffffffffffffffff163373ffffffffffffffffffffffffffffffffffffffff1614612a47576040517f08c379a000000000000000000000000000000000000000000000000000000000815260206004820152601760248201527f45524332303a20627269646765206f6e6c792063616c6c0000000000000000006044820152606401610bfc565b60008080612a5786880188615009565b9250925092508273ffffffffffffffffffffffffffffffffffffffff168873ffffffffffffffffffffffffffffffffffffffff1614612b665773ffffffffffffffffffffffffffffffffffffffff8084166000908152600860209081526040808320938c168352929052205481811015612b2d576040517f08c379a000000000000000000000000000000000000000000000000000000000815260206004820152601f60248201527f45524332303a20616d6f756e74206578636565647320616c6c6f77616e6365006044820152606401610bfc565b73ffffffffffffffffffffffffffffffffffffffff8085166000908152600860209081526040808320938d168352929052209082900390555b612b706002613c36565b15612c6b577f27d542086d1e831d40b749e7f5509a626c3047a36d160781c40d5acc83e5b074546040517f8b1465c600000000000000000000000000000000000000000000000000000000815263ffffffff8b16600482015273ffffffffffffffffffffffffffffffffffffffff85811660248301528481166044830152606482018490529190911690638b1465c6906084016000604051808303816000875af1158015612c22573d6000803e3d6000fd5b505050506040513d6000823e601f3d9081017fffffffffffffffffffffffffffffffffffffffffffffffffffffffffffffffe0168201604052612c689190810190615882565b93505b612c758382613dd2565b6040517fb7e036610000000000000000000000000000000000000000000000000000000090612cae9085908590859089906020016158b7565b604051602081830303815290604052945094505050505b94509492505050565b600073ffffffffffffffffffffffffffffffffffffffff85163314612f4a577fb4107f746e9496e8452accc7de63d1c5e14c19f510932daa04077cd49e8bd77a5473ffffffffffffffffffffffffffffffffffffffff16630fffbaf36040518163ffffffff1660e01b8152600401602060405180830381865afa158015612d59573d6000803e3d6000fd5b505050506040513d601f19601f82011682018060405250810190612d7d919061556e565b73ffffffffffffffffffffffffffffffffffffffff163373ffffffffffffffffffffffffffffffffffffffff1614158015612e7357507fb4107f746e9496e8452accc7de63d1c5e14c19f510932daa04077cd49e8bd77a5473ffffffffffffffffffffffffffffffffffffffff1663e7f43c686040518163ffffffff1660e01b8152600401602060405180830381865afa158015612e1f573d6000803e3d6000fd5b505050506040513d601f19601f82011682018060405250810190612e43919061556e565b73ffffffffffffffffffffffffffffffffffffffff163373ffffffffffffffffffffffffffffffffffffffff1614155b15612f4a5773ffffffffffffffffffffffffffffffffffffffff8516600090815260086020908152604080832033845290915290205483811015612f13576040517f08c379a000000000000000000000000000000000000000000000000000000000815260206004820152601f60248201527f45524332303a20616d6f756e74206578636565647320616c6c6f77616e6365006044820152606401610bfc565b73ffffffffffffffffffffffffffffffffffffffff8616600090815260086020908152604080832033845290915290209084900390555b612f54600c613c36565b15613005577f27d542086d1e831d40b749e7f5509a626c3047a36d160781c40d5acc83e5b0745473ffffffffffffffffffffffffffffffffffffffff16632ca16676868686866040518563ffffffff1660e01b8152600401612fb994939291906158b7565b6020604051808303816000875af1158015612fd8573d6000803e3d6000fd5b505050506040513d601f19601f82011682018060405250810190612ffc9190615500565b61300557600080fd5b613010858585613f6b565b61301c85858585614338565b613082576040517f08c379a000000000000000000000000000000000000000000000000000000000815260206004820152601860248201527f45524332303a206e6f6e204552433230526563656976657200000000000000006044820152606401610bfc565b61308c600b613c36565b15611915577f27d542086d1e831d40b749e7f5509a626c3047a36d160781c40d5acc83e5b0745473ffffffffffffffffffffffffffffffffffffffff166336fff062868686866040518563ffffffff1660e01b81526004016118c994939291906158b7565b7f3f106594dc74eeef980dae234cde8324dc2497b13d27a0c59e55bd2ca10a07c95473ffffffffffffffffffffffffffffffffffffffff163373ffffffffffffffffffffffffffffffffffffffff16146131a7576040517f08c379a000000000000000000000000000000000000000000000000000000000815260206004820152601e60248201527f484f4c4f47524150483a2061646d696e206f6e6c792066756e6374696f6e00006044820152606401610bfc565b808260003760008082600034875af13d6000803e8080156102f2573d6000f35b83421115613231576040517f08c379a000000000000000000000000000000000000000000000000000000000815260206004820152601760248201527f45524332303a206578706972656420646561646c696e650000000000000000006044820152606401610bfc565b60007f6e71edae12b1b97f4d1f60370fef10105fa2faae0126114a169c64845d6126c98888886132608c614893565b60408051602081019690965273ffffffffffffffffffffffffffffffffffffffff94851690860152929091166060840152608083015260a082015260c0810186905260e00160405160208183030381529060405280519060200120905060006132c8826148d1565b905060006132d88287878761493a565b90508973ffffffffffffffffffffffffffffffffffffffff168173ffffffffffffffffffffffffffffffffffffffff161461336f576040517f08c379a000000000000000000000000000000000000000000000000000000000815260206004820152601860248201527f45524332303a20696e76616c6964207369676e617475726500000000000000006044820152606401610bfc565b6133796004613c36565b1561344c577f27d542086d1e831d40b749e7f5509a626c3047a36d160781c40d5acc83e5b074546040517f47abf3be00000000000000000000000000000000000000000000000000000000815273ffffffffffffffffffffffffffffffffffffffff8c811660048301528b81166024830152604482018b905291909116906347abf3be906064016020604051808303816000875af115801561341f573d6000803e3d6000fd5b505050506040513d601f19601f820116820180604052508101906134439190615500565b61344c57600080fd5b6134578a8a8a613c69565b6134616003613c36565b15613534577f27d542086d1e831d40b749e7f5509a626c3047a36d160781c40d5acc83e5b074546040517f900f66ef00000000000000000000000000000000000000000000000000000000815273ffffffffffffffffffffffffffffffffffffffff8c811660048301528b81166024830152604482018b9052919091169063900f66ef906064016020604051808303816000875af1158015613507573d6000803e3d6000fd5b505050506040513d601f19601f8201168201806040525081019061352b9190615500565b61353457600080fd5b50505050505050505050565b7fb56711ba6bd3ded7639fc335ee7524fe668a79d7558c85992e3f8494cf7727775473ffffffffffffffffffffffffffffffffffffffff163373ffffffffffffffffffffffffffffffffffffffff16146131a7576040517f08c379a000000000000000000000000000000000000000000000000000000000815260206004820152601e60248201527f484f4c4f47524150483a206f776e6572206f6e6c792066756e6374696f6e00006044820152606401610bfc565b6000613602600c613c36565b156136b3577f27d542086d1e831d40b749e7f5509a626c3047a36d160781c40d5acc83e5b0745473ffffffffffffffffffffffffffffffffffffffff16632ca16676338686866040518563ffffffff1660e01b815260040161366794939291906158b7565b6020604051808303816000875af1158015613686573d6000803e3d6000fd5b505050506040513d601f19601f820116820180604052508101906136aa9190615500565b6136b357600080fd5b6136be338585613f6b565b6136ca33858585614338565b613730576040517f08c379a000000000000000000000000000000000000000000000000000000000815260206004820152601860248201527f45524332303a206e6f6e204552433230526563656976657200000000000000006044820152606401610bfc565b61373a600b613c36565b1561169d577f27d542086d1e831d40b749e7f5509a626c3047a36d160781c40d5acc83e5b0745473ffffffffffffffffffffffffffffffffffffffff166336fff062338686866040518563ffffffff1660e01b815260040161165194939291906158b7565b7fb56711ba6bd3ded7639fc335ee7524fe668a79d7558c85992e3f8494cf7727775473ffffffffffffffffffffffffffffffffffffffff163373ffffffffffffffffffffffffffffffffffffffff1614613855576040517f08c379a000000000000000000000000000000000000000000000000000000000815260206004820152601e60248201527f484f4c4f47524150483a206f776e6572206f6e6c792066756e6374696f6e00006044820152606401610bfc565b73ffffffffffffffffffffffffffffffffffffffff81166138d2576040517f08c379a000000000000000000000000000000000000000000000000000000000815260206004820152601760248201527f484f4c4f47524150483a207a65726f20616464726573730000000000000000006044820152606401610bfc565b7fb56711ba6bd3ded7639fc335ee7524fe668a79d7558c85992e3f8494cf77277755565b60006116b17f3f106594dc74eeef980dae234cde8324dc2497b13d27a0c59e55bd2ca10a07c95490565b600061394a7fb4107f746e9496e8452accc7de63d1c5e14c19f510932daa04077cd49e8bd77a5490565b73ffffffffffffffffffffffffffffffffffffffff16630fffbaf36040518163ffffffff1660e01b8152600401602060405180830381865afa158015613994573d6000803e3d6000fd5b505050506040513d601f19601f820116820180604052508101906139b8919061556e565b73ffffffffffffffffffffffffffffffffffffffff163373ffffffffffffffffffffffffffffffffffffffff1614613a4c576040517f08c379a000000000000000000000000000000000000000000000000000000000815260206004820152601760248201527f45524332303a20627269646765206f6e6c792063616c6c0000000000000000006044820152606401610bfc565b613a568383613b16565b507ffad66f920000000000000000000000000000000000000000000000000000000092915050565b6000613aa87fb4107f746e9496e8452accc7de63d1c5e14c19f510932daa04077cd49e8bd77a5490565b73ffffffffffffffffffffffffffffffffffffffff1663ebac15f96040518163ffffffff1660e01b8152600401602060405180830381865afa158015613af2573d6000803e3d6000fd5b505050506040513d601f19601f820116820180604052508101906116b1919061556e565b73ffffffffffffffffffffffffffffffffffffffff8216613b93576040517f08c379a000000000000000000000000000000000000000000000000000000000815260206004820152601e60248201527f45524332303a206d696e74696e6720746f206275726e206164647265737300006044820152606401610bfc565b8060096000828254613ba59190615900565b909155505073ffffffffffffffffffffffffffffffffffffffff821660009081526007602052604081208054839290613bdf908490615900565b909155505060405181815273ffffffffffffffffffffffffffffffffffffffff8316906000907fddf252ad1be2c89b69c2b068fc378daa952ba7f163c4a11628f55a4df523b3ef9060200160405180910390a35050565b6000600182600e811115613c4c57613c4c615455565b600654901c16600114613c60576000613c63565b60015b92915050565b73ffffffffffffffffffffffffffffffffffffffff8316613ce6576040517f08c379a000000000000000000000000000000000000000000000000000000000815260206004820152601e60248201527f45524332303a206163636f756e74206973207a65726f206164647265737300006044820152606401610bfc565b73ffffffffffffffffffffffffffffffffffffffff8216613d63576040517f08c379a000000000000000000000000000000000000000000000000000000000815260206004820152601e60248201527f45524332303a207370656e646572206973207a65726f206164647265737300006044820152606401610bfc565b73ffffffffffffffffffffffffffffffffffffffff83811660008181526008602090815260408083209487168084529482529182902085905590518481527f8c5be1e5ebec7d5bd14f71427d1e84f3dd0314c0f7b2291e5b200ac8c7c3b92591015b60405180910390a3505050565b73ffffffffffffffffffffffffffffffffffffffff8216613e4f576040517f08c379a000000000000000000000000000000000000000000000000000000000815260206004820152601e60248201527f45524332303a206163636f756e74206973207a65726f206164647265737300006044820152606401610bfc565b73ffffffffffffffffffffffffffffffffffffffff821660009081526007602052604090205481811015613edf576040517f08c379a000000000000000000000000000000000000000000000000000000000815260206004820152601d60248201527f45524332303a20616d6f756e7420657863656564732062616c616e63650000006044820152606401610bfc565b73ffffffffffffffffffffffffffffffffffffffff83166000908152600760205260408120838303905560098054849290613f1b908490615918565b909155505060405182815260009073ffffffffffffffffffffffffffffffffffffffff8516907fddf252ad1be2c89b69c2b068fc378daa952ba7f163c4a11628f55a4df523b3ef90602001613dc5565b73ffffffffffffffffffffffffffffffffffffffff8316613fe8576040517f08c379a000000000000000000000000000000000000000000000000000000000815260206004820152601e60248201527f45524332303a206163636f756e74206973207a65726f206164647265737300006044820152606401610bfc565b73ffffffffffffffffffffffffffffffffffffffff8216614065576040517f08c379a000000000000000000000000000000000000000000000000000000000815260206004820181905260248201527f45524332303a20726563697069656e74206973207a65726f20616464726573736044820152606401610bfc565b73ffffffffffffffffffffffffffffffffffffffff8316600090815260076020526040902054818110156140f5576040517f08c379a000000000000000000000000000000000000000000000000000000000815260206004820152601d60248201527f45524332303a20616d6f756e7420657863656564732062616c616e63650000006044820152606401610bfc565b73ffffffffffffffffffffffffffffffffffffffff808516600090815260076020526040808220858503905591851681529081208054849290614139908490615900565b925050819055508273ffffffffffffffffffffffffffffffffffffffff168473ffffffffffffffffffffffffffffffffffffffff167fddf252ad1be2c89b69c2b068fc378daa952ba7f163c4a11628f55a4df523b3ef8460405161419f91815260200190565b60405180910390a350505050565b60025460009073ffffffffffffffffffffffffffffffffffffffff16301480156141d8575060015446145b156141e4575060005490565b6116b16005546003546004546040805160208101859052908101839052606081018290524660808201523060a082015260009060c0016040516020818303038152906040528051906020012090509392505050565b815160208084019190912082519183019190912060038290556004819055466001557f8b73c3c69bb8fe3d512ecc4cf759cc79239f7b179b0ffacaa9a75d522b39400f6142cb8184846040805160208101859052908101839052606081018290524660808201523060a082015260009060c0016040516020818303038152906040528051906020012090509392505050565b600055600280547fffffffffffffffffffffffff0000000000000000000000000000000000000000163017905560055550505050565b6000813f801580159061193c57507fc5d2460186f7233c927e7db2dcc703c0e500b653ca82273b7bfad8045d85a470141592915050565b60006143627f04b524dd539523930d3901481aa9455d7752b49add99e1647adb8b09a31372795490565b6002036143cb576040517f08c379a000000000000000000000000000000000000000000000000000000000815260206004820152601960248201527f484f4c4f47524150483a207265656e7472616e742063616c6c000000000000006044820152606401610bfc565b6143f460027f04b524dd539523930d3901481aa9455d7752b49add99e1647adb8b09a313727955565b6143fd84614301565b15614866576040517f01ffc9a700000000000000000000000000000000000000000000000000000000808252600482015273ffffffffffffffffffffffffffffffffffffffff8516906301ffc9a790602401602060405180830381865afa9250505080156144a6575060408051601f3d9081017fffffffffffffffffffffffffffffffffffffffffffffffffffffffffffffffe01682019092526144a391810190615500565b60015b61454d573d8080156144d4576040519150601f19603f3d011682016040523d82523d6000602084013e6144d9565b606091505b508051600003614545576040517f08c379a000000000000000000000000000000000000000000000000000000000815260206004820152601860248201527f45524332303a206e6f2045524331363520737570706f727400000000000000006044820152606401610bfc565b805181602001fd5b806145b4576040517f08c379a000000000000000000000000000000000000000000000000000000000815260206004820152601860248201527f45524332303a206e6f2045524331363520737570706f727400000000000000006044820152606401610bfc565b6040517f01ffc9a70000000000000000000000000000000000000000000000000000000081527f534f587600000000000000000000000000000000000000000000000000000000600482015273ffffffffffffffffffffffffffffffffffffffff8616906301ffc9a790602401602060405180830381865afa15801561463e573d6000803e3d6000fd5b505050506040513d601f19601f820116820180604052508101906146629190615500565b15614804576040517f4fc3585900000000000000000000000000000000000000000000000000000000815273ffffffffffffffffffffffffffffffffffffffff861690634fc35859906146bf9030908a90899089906004016158b7565b6020604051808303816000875af1925050508015614718575060408051601f3d9081017fffffffffffffffffffffffffffffffffffffffffffffffffffffffffffffffe0168201909252614715918101906157c4565b60015b6147b7573d808015614746576040519150601f19603f3d011682016040523d82523d6000602084013e61474b565b606091505b508051600003614545576040517f08c379a000000000000000000000000000000000000000000000000000000000815260206004820152601860248201527f45524332303a206e6f6e204552433230526563656976657200000000000000006044820152606401610bfc565b7fffffffff00000000000000000000000000000000000000000000000000000000167f4fc358590000000000000000000000000000000000000000000000000000000014915061486a9050565b6040517f08c379a000000000000000000000000000000000000000000000000000000000815260206004820152601d60248201527f45524332303a206569702d34353234206e6f7420737570706f727465640000006044820152606401610bfc565b5060015b61196060017f04b524dd539523930d3901481aa9455d7752b49add99e1647adb8b09a313727955565b73ffffffffffffffffffffffffffffffffffffffff81166000908152600d602052604081208054918291906148c78361563f565b9190505550919050565b6000613c636148de6141ad565b836040517f19010000000000000000000000000000000000000000000000000000000000006020820152602281018390526042810182905260009060620160405160208183030381529060405280519060200120905092915050565b600080600061494b87878787614962565b9150915061495881614a77565b5095945050505050565b6000807f7fffffffffffffffffffffffffffffff5d576e7357a4501ddfe92f46681b20a08311156149995750600090506003612cc5565b8460ff16601b141580156149b157508460ff16601c14155b156149c25750600090506004612cc5565b6040805160008082526020820180845289905260ff881692820192909252606081018690526080810185905260019060a0016020604051602081039080840390855afa158015614a16573d6000803e3d6000fd5b50506040517fffffffffffffffffffffffffffffffffffffffffffffffffffffffffffffffe0015191505073ffffffffffffffffffffffffffffffffffffffff8116614a6a57600060019250925050612cc5565b9660009650945050505050565b6000816004811115614a8b57614a8b615455565b03614a935750565b6001816004811115614aa757614aa7615455565b03614b0e576040517f08c379a000000000000000000000000000000000000000000000000000000000815260206004820152601860248201527f45434453413a20696e76616c6964207369676e617475726500000000000000006044820152606401610bfc565b6002816004811115614b2257614b22615455565b03614b89576040517f08c379a000000000000000000000000000000000000000000000000000000000815260206004820152601f60248201527f45434453413a20696e76616c6964207369676e6174757265206c656e677468006044820152606401610bfc565b6003816004811115614b9d57614b9d615455565b03614c2a576040517f08c379a000000000000000000000000000000000000000000000000000000000815260206004820152602260248201527f45434453413a20696e76616c6964207369676e6174757265202773272076616c60448201527f75650000000000000000000000000000000000000000000000000000000000006064820152608401610bfc565b6004816004811115614c3e57614c3e615455565b03611b18576040517f08c379a000000000000000000000000000000000000000000000000000000000815260206004820152602260248201527f45434453413a20696e76616c6964207369676e6174757265202776272076616c60448201527f75650000000000000000000000000000000000000000000000000000000000006064820152608401610bfc565b828054614cd79061551b565b90600052602060002090601f016020900481019282614cf95760008555614d3f565b82601f10614d1257805160ff1916838001178555614d3f565b82800160010185558215614d3f579182015b82811115614d3f578251825591602001919060010190614d24565b50614d4b929150614d4f565b5090565b5b80821115614d4b5760008155600101614d50565b7fffffffff0000000000000000000000000000000000000000000000000000000081168114611b1857600080fd5b600060208284031215614da457600080fd5b813561193c81614d64565b60005b83811015614dca578181015183820152602001614db2565b838111156127985750506000910152565b60008151808452614df3816020860160208601614daf565b601f017fffffffffffffffffffffffffffffffffffffffffffffffffffffffffffffffe0169290920160200192915050565b60208152600061193c6020830184614ddb565b803563ffffffff81168114614e4c57600080fd5b919050565b60008083601f840112614e6357600080fd5b50813567ffffffffffffffff811115614e7b57600080fd5b602083019150836020828501011115614e9357600080fd5b9250929050565b600080600060408486031215614eaf57600080fd5b614eb884614e38565b9250602084013567ffffffffffffffff811115614ed457600080fd5b614ee086828701614e51565b9497909650939450505050565b73ffffffffffffffffffffffffffffffffffffffff81168114611b1857600080fd5b60008060408385031215614f2257600080fd5b8235614f2d81614eed565b946020939093013593505050565b60008083601f840112614f4d57600080fd5b50813567ffffffffffffffff811115614f6557600080fd5b6020830191508360208260051b8501011115614e9357600080fd5b60008060008060408587031215614f9657600080fd5b843567ffffffffffffffff80821115614fae57600080fd5b614fba88838901614f3b565b90965094506020870135915080821115614fd357600080fd5b50614fe087828801614f3b565b95989497509550505050565b600060208284031215614ffe57600080fd5b813561193c81614eed565b60008060006060848603121561501e57600080fd5b833561502981614eed565b9250602084013561503981614eed565b929592945050506040919091013590565b60006020828403121561505c57600080fd5b5035919050565b7f4e487b7100000000000000000000000000000000000000000000000000000000600052604160045260246000fd5b604051601f82017fffffffffffffffffffffffffffffffffffffffffffffffffffffffffffffffe016810167ffffffffffffffff811182821017156150d9576150d9615063565b604052919050565b600067ffffffffffffffff8211156150fb576150fb615063565b50601f017fffffffffffffffffffffffffffffffffffffffffffffffffffffffffffffffe01660200190565b600082601f83011261513857600080fd5b813561514b615146826150e1565b615092565b81815284602083860101111561516057600080fd5b816020850160208301376000918101602001919091529392505050565b60006020828403121561518f57600080fd5b813567ffffffffffffffff8111156151a657600080fd5b61196084828501615127565b6000806000806000608086880312156151ca57600080fd5b85356151d581614eed565b945060208601356151e581614eed565b935060408601359250606086013567ffffffffffffffff81111561520857600080fd5b61521488828901614e51565b969995985093965092949392505050565b6000806000806060858703121561523b57600080fd5b61524485614e38565b9350602085013561525481614eed565b9250604085013567ffffffffffffffff81111561527057600080fd5b614fe087828801614e51565b7fffffffff00000000000000000000000000000000000000000000000000000000831681526040602082015260006119606040830184614ddb565b600080600080608085870312156152cd57600080fd5b84356152d881614eed565b935060208501356152e881614eed565b925060408501359150606085013567ffffffffffffffff81111561530b57600080fd5b61531787828801615127565b91505092959194509250565b60008060006040848603121561533857600080fd5b8335614eb881614eed565b60ff81168114611b1857600080fd5b600080600080600080600060e0888a03121561536d57600080fd5b873561537881614eed565b9650602088013561538881614eed565b9550604088013594506060880135935060808801356153a681615343565b9699959850939692959460a0840135945060c09093013592915050565b600080604083850312156153d657600080fd5b82356153e181614eed565b915060208301356153f181614eed565b809150509250929050565b60008060006060848603121561541157600080fd5b833561541c81614eed565b925060208401359150604084013567ffffffffffffffff81111561543f57600080fd5b61544b86828701615127565b9150509250925092565b7f4e487b7100000000000000000000000000000000000000000000000000000000600052602160045260246000fd5b60408101600584106154bf577f4e487b7100000000000000000000000000000000000000000000000000000000600052602160045260246000fd5b9281527fffffffff000000000000000000000000000000000000000000000000000000009190911660209091015290565b80518015158114614e4c57600080fd5b60006020828403121561551257600080fd5b61193c826154f0565b600181811c9082168061552f57607f821691505b602082108103615568577f4e487b7100000000000000000000000000000000000000000000000000000000600052602260045260246000fd5b50919050565b60006020828403121561558057600080fd5b815161193c81614eed565b63ffffffff86168152600073ffffffffffffffffffffffffffffffffffffffff808716602084015280861660408401525083606083015260a060808301526155d660a0830184614ddb565b979650505050505050565b7f4e487b7100000000000000000000000000000000000000000000000000000000600052603260045260246000fd5b7f4e487b7100000000000000000000000000000000000000000000000000000000600052601160045260246000fd5b60007fffffffffffffffffffffffffffffffffffffffffffffffffffffffffffffffff820361567057615670615610565b5060010190565b600082601f83011261568857600080fd5b8151615696615146826150e1565b8181528460208386010111156156ab57600080fd5b611960826020830160208701614daf565b8051614e4c81615343565b600080600080600080600080610100898b0312156156e457600080fd5b885167ffffffffffffffff808211156156fc57600080fd5b6157088c838d01615677565b995060208b015191508082111561571e57600080fd5b61572a8c838d01615677565b985061573860408c016156bc565b975060608b0151965060808b015191508082111561575557600080fd5b6157618c838d01615677565b955060a08b015191508082111561577757600080fd5b6157838c838d01615677565b945061579160c08c016154f0565b935060e08b01519150808211156157a757600080fd5b506157b48b828c01615677565b9150509295985092959890939650565b6000602082840312156157d657600080fd5b815161193c81614d64565b600073ffffffffffffffffffffffffffffffffffffffff8089168352808816602084015280871660408401525084606083015260a060808301528260a0830152828460c0840137600060c0848401015260c07fffffffffffffffffffffffffffffffffffffffffffffffffffffffffffffffe0601f8501168301019050979650505050505050565b60006020828403121561587b57600080fd5b5051919050565b60006020828403121561589457600080fd5b815167ffffffffffffffff8111156158ab57600080fd5b61196084828501615677565b600073ffffffffffffffffffffffffffffffffffffffff8087168352808616602084015250836040830152608060608301526158f66080830184614ddb565b9695505050505050565b6000821982111561591357615913615610565b500190565b60008282101561592a5761592a615610565b50039056fea164736f6c634300080d000a",
  "devdoc": {
    "author": "CXIP-Labs",
    "details": "The entire logic and functionality of the smart contract is self-contained.",
    "kind": "dev",
    "methods": {
      "DOMAIN_SEPARATOR()": {
        "details": "Returns the domain separator used in the encoding of the signature for {permit}, as defined by {EIP712}."
      },
      "constructor": {
        "details": "Constructor is left empty and init is used instead"
      },
      "holographBridgeMint(address,uint256)": {
        "details": "Allows the bridge to mint tokens (used for hTokens only)."
      },
      "init(bytes)": {
        "details": "This function is called by the deployer/factory when creating a contract",
        "params": {
          "initPayload": "abi encoded payload to use for contract initilaization"
        }
      },
      "nonces(address)": {
        "details": "Returns the current nonce for `account`. This value must be included whenever a signature is generated for {permit}. Every successful call to {permit} increases ``account``'s nonce by one. This prevents a signature from being used multiple times."
      },
      "sourceBurn(address,uint256)": {
        "details": "Allows for source smart contract to burn tokens."
      },
      "sourceMint(address,uint256)": {
        "details": "Allows for source smart contract to mint tokens."
      },
      "sourceMintBatch(address[],uint256[])": {
        "details": "Allows for source smart contract to mint a batch of token amounts."
      },
      "sourceTransfer(address,address,uint256)": {
        "details": "Allows for source smart contract to transfer tokens."
      },
      "supportsInterface(bytes4)": {
        "details": "Although EIP-165 is not required for ERC20 contracts, we still decided to implement it. This makes it easier for external smart contracts to easily identify a valid ERC20 token contract."
      }
    },
    "stateVariables": {
      "_allowances": {
        "details": "Mapping of all authorized operators, and capped amounts."
      },
      "_balances": {
        "details": "Mapping of all the addresse's balances."
      },
      "_decimals": {
        "details": "Token number of decimal places."
      },
      "_eventConfig": {
        "details": "Configuration for events to trigger for source smart contract."
      },
      "_holographSlot": {
        "details": "bytes32(uint256(keccak256('eip1967.Holograph.holograph')) - 1)"
      },
      "_name": {
        "details": "Token name."
      },
      "_nonces": {
        "details": "List of used up nonces. Used in the ERC20Permit interface functionality."
      },
      "_sourceContractSlot": {
        "details": "bytes32(uint256(keccak256('eip1967.Holograph.sourceContract')) - 1)"
      },
      "_symbol": {
        "details": "Token ticker symbol."
      },
      "_totalSupply": {
        "details": "Total number of token in circulation."
      }
    },
    "title": "Holograph Bridgeable ERC-20 Token",
    "version": 1
  },
  "userdoc": {
    "kind": "user",
    "methods": {
      "init(bytes)": {
        "notice": "Used internally to initialize the contract instead of through a constructor"
      }
    },
    "notice": "A smart contract for minting and managing Holograph Bridgeable ERC20 Tokens.",
    "version": 1
  },
  "storageLayout": {
    "storage": [
      {
        "astId": 4553,
        "contract": "contracts/enforcer/HolographERC20.sol:HolographERC20",
        "label": "_CACHED_DOMAIN_SEPARATOR",
        "offset": 0,
        "slot": "0",
        "type": "t_bytes32"
      },
      {
        "astId": 4555,
        "contract": "contracts/enforcer/HolographERC20.sol:HolographERC20",
        "label": "_CACHED_CHAIN_ID",
        "offset": 0,
        "slot": "1",
        "type": "t_uint256"
      },
      {
        "astId": 4557,
        "contract": "contracts/enforcer/HolographERC20.sol:HolographERC20",
        "label": "_CACHED_THIS",
        "offset": 0,
        "slot": "2",
        "type": "t_address"
      },
      {
        "astId": 4559,
        "contract": "contracts/enforcer/HolographERC20.sol:HolographERC20",
        "label": "_HASHED_NAME",
        "offset": 0,
        "slot": "3",
        "type": "t_bytes32"
      },
      {
        "astId": 4561,
        "contract": "contracts/enforcer/HolographERC20.sol:HolographERC20",
        "label": "_HASHED_VERSION",
        "offset": 0,
        "slot": "4",
        "type": "t_bytes32"
      },
      {
        "astId": 4563,
        "contract": "contracts/enforcer/HolographERC20.sol:HolographERC20",
        "label": "_TYPE_HASH",
        "offset": 0,
        "slot": "5",
        "type": "t_bytes32"
      },
      {
        "astId": 6576,
        "contract": "contracts/enforcer/HolographERC20.sol:HolographERC20",
        "label": "_eventConfig",
        "offset": 0,
        "slot": "6",
        "type": "t_uint256"
      },
      {
        "astId": 6581,
        "contract": "contracts/enforcer/HolographERC20.sol:HolographERC20",
        "label": "_balances",
        "offset": 0,
        "slot": "7",
        "type": "t_mapping(t_address,t_uint256)"
      },
      {
        "astId": 6588,
        "contract": "contracts/enforcer/HolographERC20.sol:HolographERC20",
        "label": "_allowances",
        "offset": 0,
        "slot": "8",
        "type": "t_mapping(t_address,t_mapping(t_address,t_uint256))"
      },
      {
        "astId": 6591,
        "contract": "contracts/enforcer/HolographERC20.sol:HolographERC20",
        "label": "_totalSupply",
        "offset": 0,
        "slot": "9",
        "type": "t_uint256"
      },
      {
        "astId": 6594,
        "contract": "contracts/enforcer/HolographERC20.sol:HolographERC20",
        "label": "_name",
        "offset": 0,
        "slot": "10",
        "type": "t_string_storage"
      },
      {
        "astId": 6597,
        "contract": "contracts/enforcer/HolographERC20.sol:HolographERC20",
        "label": "_symbol",
        "offset": 0,
        "slot": "11",
        "type": "t_string_storage"
      },
      {
        "astId": 6600,
        "contract": "contracts/enforcer/HolographERC20.sol:HolographERC20",
        "label": "_decimals",
        "offset": 0,
        "slot": "12",
        "type": "t_uint8"
      },
      {
        "astId": 6605,
        "contract": "contracts/enforcer/HolographERC20.sol:HolographERC20",
        "label": "_nonces",
        "offset": 0,
        "slot": "13",
        "type": "t_mapping(t_address,t_uint256)"
      }
    ],
    "types": {
      "t_address": {
        "encoding": "inplace",
        "label": "address",
        "numberOfBytes": "20"
      },
      "t_bytes32": {
        "encoding": "inplace",
        "label": "bytes32",
        "numberOfBytes": "32"
      },
      "t_mapping(t_address,t_mapping(t_address,t_uint256))": {
        "encoding": "mapping",
        "key": "t_address",
        "label": "mapping(address => mapping(address => uint256))",
        "numberOfBytes": "32",
        "value": "t_mapping(t_address,t_uint256)"
      },
      "t_mapping(t_address,t_uint256)": {
        "encoding": "mapping",
        "key": "t_address",
        "label": "mapping(address => uint256)",
        "numberOfBytes": "32",
        "value": "t_uint256"
      },
      "t_string_storage": {
        "encoding": "bytes",
        "label": "string",
        "numberOfBytes": "32"
      },
      "t_uint256": {
        "encoding": "inplace",
        "label": "uint256",
        "numberOfBytes": "32"
      },
      "t_uint8": {
        "encoding": "inplace",
        "label": "uint8",
        "numberOfBytes": "1"
      }
    }
  }
}