{
  "address": "0x98b0b277Ce52e1ad99A9A8EC88150daD3fe811eA",
  "abi": [
    {
      "inputs": [],
      "stateMutability": "nonpayable",
      "type": "constructor"
    },
    {
      "anonymous": false,
      "inputs": [
        {
          "indexed": true,
          "internalType": "address",
          "name": "previousOwner",
          "type": "address"
        },
        {
          "indexed": true,
          "internalType": "address",
          "name": "newOwner",
          "type": "address"
        }
      ],
      "name": "OwnershipTransferred",
      "type": "event"
    },
    {
      "stateMutability": "payable",
      "type": "fallback"
    },
    {
      "inputs": [],
      "name": "admin",
      "outputs": [
        {
          "internalType": "address",
          "name": "",
          "type": "address"
        }
      ],
      "stateMutability": "view",
      "type": "function"
    },
    {
      "inputs": [
        {
          "internalType": "address",
          "name": "target",
          "type": "address"
        },
        {
          "internalType": "bytes",
          "name": "data",
          "type": "bytes"
        }
      ],
      "name": "adminCall",
      "outputs": [],
      "stateMutability": "payable",
      "type": "function"
    },
    {
      "inputs": [
        {
          "internalType": "uint32",
          "name": "fromChain",
          "type": "uint32"
        },
        {
          "internalType": "bytes",
          "name": "payload",
          "type": "bytes"
        }
      ],
      "name": "bridgeIn",
      "outputs": [
        {
          "internalType": "bytes4",
          "name": "",
          "type": "bytes4"
        }
      ],
      "stateMutability": "nonpayable",
      "type": "function"
    },
    {
      "inputs": [
        {
          "internalType": "uint32",
          "name": "toChain",
          "type": "uint32"
        },
        {
          "internalType": "address",
          "name": "sender",
          "type": "address"
        },
        {
          "internalType": "bytes",
          "name": "payload",
          "type": "bytes"
        }
      ],
      "name": "bridgeOut",
      "outputs": [
        {
          "internalType": "bytes4",
          "name": "selector",
          "type": "bytes4"
        },
        {
          "internalType": "bytes",
          "name": "data",
          "type": "bytes"
        }
      ],
      "stateMutability": "nonpayable",
      "type": "function"
    },
    {
      "inputs": [],
      "name": "getAdmin",
      "outputs": [
        {
          "internalType": "address",
          "name": "adminAddress",
          "type": "address"
        }
      ],
      "stateMutability": "view",
      "type": "function"
    },
    {
      "inputs": [],
      "name": "getContractType",
      "outputs": [
        {
          "internalType": "bytes32",
          "name": "contractType",
          "type": "bytes32"
        }
      ],
      "stateMutability": "view",
      "type": "function"
    },
    {
      "inputs": [],
      "name": "getOwner",
      "outputs": [
        {
          "internalType": "address",
          "name": "ownerAddress",
          "type": "address"
        }
      ],
      "stateMutability": "view",
      "type": "function"
    },
    {
      "inputs": [
        {
          "internalType": "bytes",
          "name": "initPayload",
          "type": "bytes"
        }
      ],
      "name": "init",
      "outputs": [
        {
          "internalType": "bytes4",
          "name": "",
          "type": "bytes4"
        }
      ],
      "stateMutability": "nonpayable",
      "type": "function"
    },
    {
      "inputs": [],
      "name": "owner",
      "outputs": [
        {
          "internalType": "address",
          "name": "",
          "type": "address"
        }
      ],
      "stateMutability": "view",
      "type": "function"
    },
    {
      "inputs": [
        {
          "internalType": "address",
          "name": "target",
          "type": "address"
        },
        {
          "internalType": "bytes",
          "name": "data",
          "type": "bytes"
        }
      ],
      "name": "ownerCall",
      "outputs": [],
      "stateMutability": "payable",
      "type": "function"
    },
    {
      "inputs": [
        {
          "internalType": "address",
          "name": "adminAddress",
          "type": "address"
        }
      ],
      "name": "setAdmin",
      "outputs": [],
      "stateMutability": "nonpayable",
      "type": "function"
    },
    {
      "inputs": [
        {
          "internalType": "address",
          "name": "ownerAddress",
          "type": "address"
        }
      ],
      "name": "setOwner",
      "outputs": [],
      "stateMutability": "nonpayable",
      "type": "function"
    },
    {
      "inputs": [
        {
          "internalType": "bytes32",
          "name": "eventId",
          "type": "bytes32"
        },
        {
          "internalType": "bytes",
          "name": "eventData",
          "type": "bytes"
        }
      ],
      "name": "sourceEmit",
      "outputs": [],
      "stateMutability": "nonpayable",
      "type": "function"
    },
    {
      "inputs": [
        {
          "internalType": "bytes",
          "name": "eventData",
          "type": "bytes"
        }
      ],
      "name": "sourceEmit",
      "outputs": [],
      "stateMutability": "nonpayable",
      "type": "function"
    },
    {
      "inputs": [
        {
          "internalType": "bytes32",
          "name": "eventId",
          "type": "bytes32"
        },
        {
          "internalType": "bytes32",
          "name": "topic1",
          "type": "bytes32"
        },
        {
          "internalType": "bytes32",
          "name": "topic2",
          "type": "bytes32"
        },
        {
          "internalType": "bytes32",
          "name": "topic3",
          "type": "bytes32"
        },
        {
          "internalType": "bytes",
          "name": "eventData",
          "type": "bytes"
        }
      ],
      "name": "sourceEmit",
      "outputs": [],
      "stateMutability": "nonpayable",
      "type": "function"
    },
    {
      "inputs": [
        {
          "internalType": "bytes32",
          "name": "eventId",
          "type": "bytes32"
        },
        {
          "internalType": "bytes32",
          "name": "topic1",
          "type": "bytes32"
        },
        {
          "internalType": "bytes",
          "name": "eventData",
          "type": "bytes"
        }
      ],
      "name": "sourceEmit",
      "outputs": [],
      "stateMutability": "nonpayable",
      "type": "function"
    },
    {
      "inputs": [
        {
          "internalType": "bytes32",
          "name": "eventId",
          "type": "bytes32"
        },
        {
          "internalType": "bytes32",
          "name": "topic1",
          "type": "bytes32"
        },
        {
          "internalType": "bytes32",
          "name": "topic2",
          "type": "bytes32"
        },
        {
          "internalType": "bytes",
          "name": "eventData",
          "type": "bytes"
        }
      ],
      "name": "sourceEmit",
      "outputs": [],
      "stateMutability": "nonpayable",
      "type": "function"
    },
    {
      "inputs": [
        {
          "internalType": "address payable",
          "name": "destination",
          "type": "address"
        }
      ],
      "name": "sourceWithdraw",
      "outputs": [],
      "stateMutability": "nonpayable",
      "type": "function"
    },
    {
      "inputs": [
        {
          "internalType": "bytes4",
          "name": "interfaceId",
          "type": "bytes4"
        }
      ],
      "name": "supportsInterface",
      "outputs": [
        {
          "internalType": "bool",
          "name": "",
          "type": "bool"
        }
      ],
      "stateMutability": "view",
      "type": "function"
    },
    {
      "inputs": [
        {
          "internalType": "address",
          "name": "newOwner",
          "type": "address"
        }
      ],
      "name": "transferOwnership",
      "outputs": [],
      "stateMutability": "nonpayable",
      "type": "function"
    },
    {
      "stateMutability": "payable",
      "type": "receive"
    }
  ],
  "transactionHash": "0x4237db03ae31c0a6d672258920d8290514fe0e3786aef8db2849c4424847a9d7",
  "args": [],
  "numDeployments": 1,
  "solcInputHash": "1e8c1c568b03dbca27803e698d66e65e",
  "bytecode": "0x608060405234801561001057600080fd5b5061209b806100206000396000f3fe6080604052600436106101635760003560e01c8063704b6c02116100c0578063c51a29e011610074578063ebad1ffe11610059578063ebad1ffe1461046d578063f2fde38b1461048d578063f851a440146104ad5761016a565b8063c51a29e01461041d578063eb66dbcf1461045a5761016a565b80638da5cb5b116100a55780638da5cb5b146103c7578063b7e03661146103dc578063bf64a82d1461040a5761016a565b8063704b6c0214610373578063893d20e8146103935761016a565b8063207e69a8116101175780634ddf47d4116100fc5780634ddf47d4146102de57806360795403146102fe5780636e9960c31461031e5761016a565b8063207e69a81461029e5780632711dbd6146102be5761016a565b8063035c5c6511610148578063035c5c651461020d57806308a1eb201461022d57806313af40351461027e5761016a565b806301ffc9a7146101b8578063023db0cd146101ed5761016a565b3661016a57005b3660008037333652600080602036016000347f27d542086d1e831d40b749e7f5509a626c3047a36d160781c40d5acc83e5b074545af13d6000803e8080156101b1573d6000f35b3d6000fd5b005b3480156101c457600080fd5b506101d86101d3366004611919565b6104c2565b60405190151581526020015b60405180910390f35b3480156101f957600080fd5b506101b6610208366004611986565b610658565b34801561021957600080fd5b506101b66102283660046119d2565b61070e565b34801561023957600080fd5b5061024d610248366004611a2d565b6107bd565b6040517fffffffff0000000000000000000000000000000000000000000000000000000090911681526020016101e4565b34801561028a57600080fd5b506101b6610299366004611a89565b610a29565b3480156102aa57600080fd5b506101b66102b9366004611aa6565b610b8c565b3480156102ca57600080fd5b506101b66102d9366004611a89565b610c43565b3480156102ea57600080fd5b5061024d6102f9366004611bd4565b610d2b565b34801561030a57600080fd5b506101b6610319366004611c54565b610fa3565b34801561032a57600080fd5b507f3f106594dc74eeef980dae234cde8324dc2497b13d27a0c59e55bd2ca10a07c9545b60405173ffffffffffffffffffffffffffffffffffffffff90911681526020016101e4565b34801561037f57600080fd5b506101b661038e366004611a89565b611056565b34801561039f57600080fd5b507fb56711ba6bd3ded7639fc335ee7524fe668a79d7558c85992e3f8494cf7727775461034e565b3480156103d357600080fd5b5061034e611130565b3480156103e857600080fd5b506103fc6103f7366004611ca7565b6111cc565b6040516101e4929190611d6c565b6101b6610418366004611daf565b6113fd565b34801561042957600080fd5b507f0b671eb65810897366dd82c4cbb7d9dff8beda8484194956e81e89b8a361d9c7546040519081526020016101e4565b6101b6610468366004611daf565b6114d3565b34801561047957600080fd5b506101b6610488366004611dcf565b611589565b34801561049957600080fd5b506101b66104a8366004611a89565b61163e565b3480156104b957600080fd5b5061034e611795565b6000806104cd6117c4565b7f27d542086d1e831d40b749e7f5509a626c3047a36d160781c40d5acc83e5b074546040517f9fe7303f0000000000000000000000000000000000000000000000000000000081529192509073ffffffffffffffffffffffffffffffffffffffff831690639fe7303f90610548906005908890600401611e5f565b602060405180830381865afa158015610565573d6000803e3d6000fd5b505050506040513d601f19601f820116820180604052508101906105899190611edb565b8061063f57506040517f01ffc9a70000000000000000000000000000000000000000000000000000000081527fffffffff000000000000000000000000000000000000000000000000000000008516600482015273ffffffffffffffffffffffffffffffffffffffff8216906301ffc9a790602401602060405180830381865afa15801561061b573d6000803e3d6000fd5b505050506040513d601f19601f8201168201806040525081019061063f9190611edb565b1561064e575060019392505050565b5060009392505050565b7f27d542086d1e831d40b749e7f5509a626c3047a36d160781c40d5acc83e5b074543373ffffffffffffffffffffffffffffffffffffffff8216146106fe576040517f08c379a000000000000000000000000000000000000000000000000000000000815260206004820152601960248201527f47454e455249433a20736f75726365206f6e6c792063616c6c0000000000000060448201526064015b60405180910390fd5b818360003783826000a150505050565b7f27d542086d1e831d40b749e7f5509a626c3047a36d160781c40d5acc83e5b074543373ffffffffffffffffffffffffffffffffffffffff8216146107af576040517f08c379a000000000000000000000000000000000000000000000000000000000815260206004820152601960248201527f47454e455249433a20736f75726365206f6e6c792063616c6c0000000000000060448201526064016106f5565b8183600037816000a0505050565b60006107e77fb4107f746e9496e8452accc7de63d1c5e14c19f510932daa04077cd49e8bd77a5490565b73ffffffffffffffffffffffffffffffffffffffff16630fffbaf36040518163ffffffff1660e01b8152600401602060405180830381865afa158015610831573d6000803e3d6000fd5b505050506040513d601f19601f820116820180604052508101906108559190611ef6565b73ffffffffffffffffffffffffffffffffffffffff163373ffffffffffffffffffffffffffffffffffffffff16146108e9576040517f08c379a000000000000000000000000000000000000000000000000000000000815260206004820152601960248201527f47454e455249433a20627269646765206f6e6c792063616c6c0000000000000060448201526064016106f5565b6108f3600161185c565b15610a005761099a6308a1eb2060e01b85858560405160240161091893929190611f5c565b604080517fffffffffffffffffffffffffffffffffffffffffffffffffffffffffffffffe08184030181529190526020810180517bffffffffffffffffffffffffffffffffffffffffffffffffffffffff167fffffffff000000000000000000000000000000000000000000000000000000009093169290921790915261188f565b610a00576040517f08c379a000000000000000000000000000000000000000000000000000000000815260206004820152601b60248201527f484f4c4f47524150483a2062726964676520696e206661696c6564000000000060448201526064016106f5565b507f08a1eb20000000000000000000000000000000000000000000000000000000009392505050565b7fb56711ba6bd3ded7639fc335ee7524fe668a79d7558c85992e3f8494cf7727775473ffffffffffffffffffffffffffffffffffffffff163373ffffffffffffffffffffffffffffffffffffffff1614610adf576040517f08c379a000000000000000000000000000000000000000000000000000000000815260206004820152601e60248201527f484f4c4f47524150483a206f776e6572206f6e6c792066756e6374696f6e000060448201526064016106f5565b6000610b097fb56711ba6bd3ded7639fc335ee7524fe668a79d7558c85992e3f8494cf7727775490565b9050817fb56711ba6bd3ded7639fc335ee7524fe668a79d7558c85992e3f8494cf772777558173ffffffffffffffffffffffffffffffffffffffff168173ffffffffffffffffffffffffffffffffffffffff167f8be0079c531659141344cd1fd0a4f28419497f9722a3daafe3b4186f6b6457e060405160405180910390a35050565b7f27d542086d1e831d40b749e7f5509a626c3047a36d160781c40d5acc83e5b074543373ffffffffffffffffffffffffffffffffffffffff821614610c2d576040517f08c379a000000000000000000000000000000000000000000000000000000000815260206004820152601960248201527f47454e455249433a20736f75726365206f6e6c792063616c6c0000000000000060448201526064016106f5565b818360003783858789856000a450505050505050565b7f27d542086d1e831d40b749e7f5509a626c3047a36d160781c40d5acc83e5b074543373ffffffffffffffffffffffffffffffffffffffff821614610ce4576040517f08c379a000000000000000000000000000000000000000000000000000000000815260206004820152601960248201527f47454e455249433a20736f75726365206f6e6c792063616c6c0000000000000060448201526064016106f5565b60405173ffffffffffffffffffffffffffffffffffffffff8316904780156108fc02916000818181858888f19350505050158015610d26573d6000803e3d6000fd5b505050565b6000610d557f4e5f991bca30eca2d4643aaefa807e88f96a4a97398933d572a3c0d973004a015490565b15610dbc576040517f08c379a000000000000000000000000000000000000000000000000000000000815260206004820152601c60248201527f47454e455249433a20616c726561647920696e697469616c697a65640000000060448201526064016106f5565b6000337fb56711ba6bd3ded7639fc335ee7524fe668a79d7558c85992e3f8494cf772777557f27d542086d1e831d40b749e7f5509a626c3047a36d160781c40d5acc83e5b074549050600080600085806020019051810190610e1e9190611f85565b60008390559194509250905081610f4f576040517f4ddf47d4000000000000000000000000000000000000000000000000000000008082529073ffffffffffffffffffffffffffffffffffffffff861690634ddf47d490610e83908590600401612018565b6020604051808303816000875af1158015610ea2573d6000803e3d6000fd5b505050506040513d601f19601f82011682018060405250810190610ec6919061202b565b7fffffffff000000000000000000000000000000000000000000000000000000001614610f4f576040517f08c379a000000000000000000000000000000000000000000000000000000000815260206004820152601e60248201527f47454e455249433a20636f756c64206e6f7420696e697420736f75726365000060448201526064016106f5565b610f7860017f4e5f991bca30eca2d4643aaefa807e88f96a4a97398933d572a3c0d973004a0155565b507f4ddf47d40000000000000000000000000000000000000000000000000000000095945050505050565b7f27d542086d1e831d40b749e7f5509a626c3047a36d160781c40d5acc83e5b074543373ffffffffffffffffffffffffffffffffffffffff821614611044576040517f08c379a000000000000000000000000000000000000000000000000000000000815260206004820152601960248201527f47454e455249433a20736f75726365206f6e6c792063616c6c0000000000000060448201526064016106f5565b81836000378385836000a25050505050565b7f3f106594dc74eeef980dae234cde8324dc2497b13d27a0c59e55bd2ca10a07c95473ffffffffffffffffffffffffffffffffffffffff163373ffffffffffffffffffffffffffffffffffffffff161461110c576040517f08c379a000000000000000000000000000000000000000000000000000000000815260206004820152601e60248201527f484f4c4f47524150483a2061646d696e206f6e6c792066756e6374696f6e000060448201526064016106f5565b7f3f106594dc74eeef980dae234cde8324dc2497b13d27a0c59e55bd2ca10a07c955565b6000807f27d542086d1e831d40b749e7f5509a626c3047a36d160781c40d5acc83e5b0745490508073ffffffffffffffffffffffffffffffffffffffff16638da5cb5b6040518163ffffffff1660e01b8152600401602060405180830381865afa1580156111a2573d6000803e3d6000fd5b505050506040513d601f19601f820116820180604052508101906111c69190611ef6565b91505090565b600060606111f87fb4107f746e9496e8452accc7de63d1c5e14c19f510932daa04077cd49e8bd77a5490565b73ffffffffffffffffffffffffffffffffffffffff16630fffbaf36040518163ffffffff1660e01b8152600401602060405180830381865afa158015611242573d6000803e3d6000fd5b505050506040513d601f19601f820116820180604052508101906112669190611ef6565b73ffffffffffffffffffffffffffffffffffffffff163373ffffffffffffffffffffffffffffffffffffffff16146112fa576040517f08c379a000000000000000000000000000000000000000000000000000000000815260206004820152601960248201527f47454e455249433a20627269646765206f6e6c792063616c6c0000000000000060448201526064016106f5565b611304600261185c565b156113d157600063b7e0366160e01b8787878760405160240161132a9493929190612048565b604051602081830303815290604052907bffffffffffffffffffffffffffffffffffffffffffffffffffffffff19166020820180517bffffffffffffffffffffffffffffffffffffffffffffffffffffffff83818316178352505050509050338151820152600080602083510183347f27d542086d1e831d40b749e7f5509a626c3047a36d160781c40d5acc83e5b074545af13d6000843e80806113cd573d6000fd5b5050505b7fb7e0366100000000000000000000000000000000000000000000000000000000915094509492505050565b7f3f106594dc74eeef980dae234cde8324dc2497b13d27a0c59e55bd2ca10a07c95473ffffffffffffffffffffffffffffffffffffffff163373ffffffffffffffffffffffffffffffffffffffff16146114b3576040517f08c379a000000000000000000000000000000000000000000000000000000000815260206004820152601e60248201527f484f4c4f47524150483a2061646d696e206f6e6c792066756e6374696f6e000060448201526064016106f5565b808260003760008082600034875af13d6000803e8080156101b1573d6000f35b7fb56711ba6bd3ded7639fc335ee7524fe668a79d7558c85992e3f8494cf7727775473ffffffffffffffffffffffffffffffffffffffff163373ffffffffffffffffffffffffffffffffffffffff16146114b3576040517f08c379a000000000000000000000000000000000000000000000000000000000815260206004820152601e60248201527f484f4c4f47524150483a206f776e6572206f6e6c792066756e6374696f6e000060448201526064016106f5565b7f27d542086d1e831d40b749e7f5509a626c3047a36d160781c40d5acc83e5b074543373ffffffffffffffffffffffffffffffffffffffff82161461162a576040517f08c379a000000000000000000000000000000000000000000000000000000000815260206004820152601960248201527f47454e455249433a20736f75726365206f6e6c792063616c6c0000000000000060448201526064016106f5565b8183600037838587846000a3505050505050565b7fb56711ba6bd3ded7639fc335ee7524fe668a79d7558c85992e3f8494cf7727775473ffffffffffffffffffffffffffffffffffffffff163373ffffffffffffffffffffffffffffffffffffffff16146116f4576040517f08c379a000000000000000000000000000000000000000000000000000000000815260206004820152601e60248201527f484f4c4f47524150483a206f776e6572206f6e6c792066756e6374696f6e000060448201526064016106f5565b73ffffffffffffffffffffffffffffffffffffffff8116611771576040517f08c379a000000000000000000000000000000000000000000000000000000000815260206004820152601760248201527f484f4c4f47524150483a207a65726f206164647265737300000000000000000060448201526064016106f5565b7fb56711ba6bd3ded7639fc335ee7524fe668a79d7558c85992e3f8494cf77277755565b60006117bf7f3f106594dc74eeef980dae234cde8324dc2497b13d27a0c59e55bd2ca10a07c95490565b905090565b60006117ee7fb4107f746e9496e8452accc7de63d1c5e14c19f510932daa04077cd49e8bd77a5490565b73ffffffffffffffffffffffffffffffffffffffff1663ebac15f96040518163ffffffff1660e01b8152600401602060405180830381865afa158015611838573d6000803e3d6000fd5b505050506040513d601f19601f820116820180604052508101906117bf9190611ef6565b6000600182600281111561187257611872611e30565b600054901c16600114611886576000611889565b60015b92915050565b600060405160208101604052338351840152600080602085510185347f27d542086d1e831d40b749e7f5509a626c3047a36d160781c40d5acc83e5b074545af13d6000833e80806118df573d6000fd5b50505192915050565b7fffffffff000000000000000000000000000000000000000000000000000000008116811461191657600080fd5b50565b60006020828403121561192b57600080fd5b8135611936816118e8565b9392505050565b60008083601f84011261194f57600080fd5b50813567ffffffffffffffff81111561196757600080fd5b60208301915083602082850101111561197f57600080fd5b9250929050565b60008060006040848603121561199b57600080fd5b83359250602084013567ffffffffffffffff8111156119b957600080fd5b6119c58682870161193d565b9497909650939450505050565b600080602083850312156119e557600080fd5b823567ffffffffffffffff8111156119fc57600080fd5b611a088582860161193d565b90969095509350505050565b803563ffffffff81168114611a2857600080fd5b919050565b600080600060408486031215611a4257600080fd5b611a4b84611a14565b9250602084013567ffffffffffffffff8111156119b957600080fd5b73ffffffffffffffffffffffffffffffffffffffff8116811461191657600080fd5b600060208284031215611a9b57600080fd5b813561193681611a67565b60008060008060008060a08789031215611abf57600080fd5b86359550602087013594506040870135935060608701359250608087013567ffffffffffffffff811115611af257600080fd5b611afe89828a0161193d565b979a9699509497509295939492505050565b7f4e487b7100000000000000000000000000000000000000000000000000000000600052604160045260246000fd5b604051601f82017fffffffffffffffffffffffffffffffffffffffffffffffffffffffffffffffe016810167ffffffffffffffff81118282101715611b8657611b86611b10565b604052919050565b600067ffffffffffffffff821115611ba857611ba8611b10565b50601f017fffffffffffffffffffffffffffffffffffffffffffffffffffffffffffffffe01660200190565b600060208284031215611be657600080fd5b813567ffffffffffffffff811115611bfd57600080fd5b8201601f81018413611c0e57600080fd5b8035611c21611c1c82611b8e565b611b3f565b818152856020838501011115611c3657600080fd5b81602084016020830137600091810160200191909152949350505050565b60008060008060608587031215611c6a57600080fd5b8435935060208501359250604085013567ffffffffffffffff811115611c8f57600080fd5b611c9b8782880161193d565b95989497509550505050565b60008060008060608587031215611cbd57600080fd5b611cc685611a14565b93506020850135611cd681611a67565b9250604085013567ffffffffffffffff811115611c8f57600080fd5b60005b83811015611d0d578181015183820152602001611cf5565b83811115611d1c576000848401525b50505050565b60008151808452611d3a816020860160208601611cf2565b601f017fffffffffffffffffffffffffffffffffffffffffffffffffffffffffffffffe0169290920160200192915050565b7fffffffff0000000000000000000000000000000000000000000000000000000083168152604060208201526000611da76040830184611d22565b949350505050565b600080600060408486031215611dc457600080fd5b8335611a4b81611a67565b600080600080600060808688031215611de757600080fd5b853594506020860135935060408601359250606086013567ffffffffffffffff811115611e1357600080fd5b611e1f8882890161193d565b969995985093965092949392505050565b7f4e487b7100000000000000000000000000000000000000000000000000000000600052602160045260246000fd5b6040810160068410611e9a577f4e487b7100000000000000000000000000000000000000000000000000000000600052602160045260246000fd5b9281527fffffffff000000000000000000000000000000000000000000000000000000009190911660209091015290565b80518015158114611a2857600080fd5b600060208284031215611eed57600080fd5b61193682611ecb565b600060208284031215611f0857600080fd5b815161193681611a67565b8183528181602085013750600060208284010152600060207fffffffffffffffffffffffffffffffffffffffffffffffffffffffffffffffe0601f840116840101905092915050565b63ffffffff84168152604060208201526000611f7c604083018486611f13565b95945050505050565b600080600060608486031215611f9a57600080fd5b83519250611faa60208501611ecb565b9150604084015167ffffffffffffffff811115611fc657600080fd5b8401601f81018613611fd757600080fd5b8051611fe5611c1c82611b8e565b818152876020838501011115611ffa57600080fd5b61200b826020830160208601611cf2565b8093505050509250925092565b6020815260006119366020830184611d22565b60006020828403121561203d57600080fd5b8151611936816118e8565b63ffffffff8516815273ffffffffffffffffffffffffffffffffffffffff84166020820152606060408201526000612084606083018486611f13565b969550505050505056fea164736f6c634300080d000a",
  "devdoc": {
    "author": "CXIP-Labs",
    "details": "The entire logic and functionality of the smart contract is self-contained.",
    "kind": "dev",
    "methods": {
      "constructor": {
        "details": "Constructor is left empty and init is used instead"
      },
      "getContractType()": {
        "details": "Returns the contract type that is used for loading the Enforcer"
      },
      "init(bytes)": {
        "details": "This function is called by the deployer/factory when creating a contract",
        "params": {
          "initPayload": "abi encoded payload to use for contract initilaization"
        }
      },
      "sourceEmit(bytes)": {
        "details": "Allows for source smart contract to emit events."
      },
      "sourceWithdraw(address)": {
        "details": "Allows for source smart contract to withdraw contract balance."
      },
      "supportsInterface(bytes4)": {
        "details": "Although EIP-165 is not required for ERC20 contracts, we still decided to implement it. This makes it easier for external smart contracts to easily identify a valid ERC20 token contract."
      }
    },
    "stateVariables": {
      "_contractTypeSlot": {
        "details": "bytes32(uint256(keccak256('eip1967.Holograph.contractType')) - 1)"
      },
      "_eventConfig": {
        "details": "Configuration for events to trigger for source smart contract."
      },
      "_holographSlot": {
        "details": "bytes32(uint256(keccak256('eip1967.Holograph.holograph')) - 1)"
      },
      "_sourceContractSlot": {
        "details": "bytes32(uint256(keccak256('eip1967.Holograph.sourceContract')) - 1)"
      }
    },
    "title": "Holograph Bridgeable Generic Contract",
    "version": 1
  },
  "userdoc": {
    "kind": "user",
    "methods": {
      "init(bytes)": {
        "notice": "Used internally to initialize the contract instead of through a constructor"
      }
    },
    "notice": "A smart contract for creating custom bridgeable logic.",
    "version": 1
  },
  "storageLayout": {
    "storage": [
      {
        "astId": 11270,
        "contract": "contracts/enforcer/HolographGeneric.sol:HolographGeneric",
        "label": "_eventConfig",
        "offset": 0,
        "slot": "0",
        "type": "t_uint256"
      }
    ],
    "types": {
      "t_uint256": {
        "encoding": "inplace",
        "label": "uint256",
        "numberOfBytes": "32"
      }
    }
  }
}