{
  "address": "0xA6c757F6015DB78A281136bA82D2aff104b01876",
  "abi": [
    {
      "inputs": [],
      "stateMutability": "nonpayable",
      "type": "constructor"
    },
    {
      "stateMutability": "payable",
      "type": "fallback"
    },
    {
      "inputs": [],
      "name": "admin",
      "outputs": [
        {
          "internalType": "address",
          "name": "",
          "type": "address"
        }
      ],
      "stateMutability": "view",
      "type": "function"
    },
    {
      "inputs": [
        {
          "internalType": "address",
          "name": "target",
          "type": "address"
        },
        {
          "internalType": "bytes",
          "name": "data",
          "type": "bytes"
        }
      ],
      "name": "adminCall",
      "outputs": [],
      "stateMutability": "payable",
      "type": "function"
    },
    {
      "inputs": [],
      "name": "getAdmin",
      "outputs": [
        {
          "internalType": "address",
          "name": "adminAddress",
          "type": "address"
        }
      ],
      "stateMutability": "view",
      "type": "function"
    },
    {
      "inputs": [],
      "name": "getBaseGas",
      "outputs": [
        {
          "internalType": "uint256",
          "name": "baseGas",
          "type": "uint256"
        }
      ],
      "stateMutability": "view",
      "type": "function"
    },
    {
      "inputs": [],
      "name": "getBridge",
      "outputs": [
        {
          "internalType": "address",
          "name": "bridge",
          "type": "address"
        }
      ],
      "stateMutability": "view",
      "type": "function"
    },
    {
      "inputs": [],
      "name": "getGasPerByte",
      "outputs": [
        {
          "internalType": "uint256",
          "name": "gasPerByte",
          "type": "uint256"
        }
      ],
      "stateMutability": "view",
      "type": "function"
    },
    {
      "inputs": [
        {
          "internalType": "uint32",
          "name": "toChain",
          "type": "uint32"
        },
        {
          "internalType": "uint256",
          "name": "gasLimit",
          "type": "uint256"
        },
        {
          "internalType": "uint256",
          "name": "gasPrice",
          "type": "uint256"
        }
      ],
      "name": "getHlgFee",
      "outputs": [
        {
          "internalType": "uint256",
          "name": "hlgFee",
          "type": "uint256"
        }
      ],
      "stateMutability": "view",
      "type": "function"
    },
    {
      "inputs": [],
      "name": "getInterfaces",
      "outputs": [
        {
          "internalType": "address",
          "name": "interfaces",
          "type": "address"
        }
      ],
      "stateMutability": "view",
      "type": "function"
    },
    {
      "inputs": [],
      "name": "getLZEndpoint",
      "outputs": [
        {
          "internalType": "address",
          "name": "lZEndpoint",
          "type": "address"
        }
      ],
      "stateMutability": "view",
      "type": "function"
    },
    {
      "inputs": [
        {
          "internalType": "uint32",
          "name": "toChain",
          "type": "uint32"
        },
        {
          "internalType": "uint256",
          "name": "gasLimit",
          "type": "uint256"
        },
        {
          "internalType": "uint256",
          "name": "gasPrice",
          "type": "uint256"
        },
        {
          "internalType": "bytes",
          "name": "crossChainPayload",
          "type": "bytes"
        }
      ],
      "name": "getMessageFee",
      "outputs": [
        {
          "internalType": "uint256",
          "name": "hlgFee",
          "type": "uint256"
        },
        {
          "internalType": "uint256",
          "name": "msgFee",
          "type": "uint256"
        }
      ],
      "stateMutability": "view",
      "type": "function"
    },
    {
      "inputs": [],
      "name": "getOperator",
      "outputs": [
        {
          "internalType": "address",
          "name": "operator",
          "type": "address"
        }
      ],
      "stateMutability": "view",
      "type": "function"
    },
    {
      "inputs": [
        {
          "internalType": "bytes",
          "name": "initPayload",
          "type": "bytes"
        }
      ],
      "name": "init",
      "outputs": [
        {
          "internalType": "bytes4",
          "name": "",
          "type": "bytes4"
        }
      ],
      "stateMutability": "nonpayable",
      "type": "function"
    },
    {
      "inputs": [
        {
          "internalType": "uint16",
          "name": "",
          "type": "uint16"
        },
        {
          "internalType": "bytes",
          "name": "_srcAddress",
          "type": "bytes"
        },
        {
          "internalType": "uint64",
          "name": "",
          "type": "uint64"
        },
        {
          "internalType": "bytes",
          "name": "_payload",
          "type": "bytes"
        }
      ],
      "name": "lzReceive",
      "outputs": [],
      "stateMutability": "payable",
      "type": "function"
    },
    {
      "inputs": [
        {
          "internalType": "uint256",
          "name": "",
          "type": "uint256"
        },
        {
          "internalType": "uint256",
          "name": "",
          "type": "uint256"
        },
        {
          "internalType": "uint32",
          "name": "toChain",
          "type": "uint32"
        },
        {
          "internalType": "address",
          "name": "msgSender",
          "type": "address"
        },
        {
          "internalType": "uint256",
          "name": "msgValue",
          "type": "uint256"
        },
        {
          "internalType": "bytes",
          "name": "crossChainPayload",
          "type": "bytes"
        }
      ],
      "name": "send",
      "outputs": [],
      "stateMutability": "payable",
      "type": "function"
    },
    {
      "inputs": [
        {
          "internalType": "address",
          "name": "adminAddress",
          "type": "address"
        }
      ],
      "name": "setAdmin",
      "outputs": [],
      "stateMutability": "nonpayable",
      "type": "function"
    },
    {
      "inputs": [
        {
          "internalType": "uint256",
          "name": "baseGas",
          "type": "uint256"
        }
      ],
      "name": "setBaseGas",
      "outputs": [],
      "stateMutability": "nonpayable",
      "type": "function"
    },
    {
      "inputs": [
        {
          "internalType": "address",
          "name": "bridge",
          "type": "address"
        }
      ],
      "name": "setBridge",
      "outputs": [],
      "stateMutability": "nonpayable",
      "type": "function"
    },
    {
      "inputs": [
        {
          "internalType": "uint256",
          "name": "gasPerByte",
          "type": "uint256"
        }
      ],
      "name": "setGasPerByte",
      "outputs": [],
      "stateMutability": "nonpayable",
      "type": "function"
    },
    {
      "inputs": [
        {
          "internalType": "address",
          "name": "interfaces",
          "type": "address"
        }
      ],
      "name": "setInterfaces",
      "outputs": [],
      "stateMutability": "nonpayable",
      "type": "function"
    },
    {
      "inputs": [
        {
          "internalType": "address",
          "name": "lZEndpoint",
          "type": "address"
        }
      ],
      "name": "setLZEndpoint",
      "outputs": [],
      "stateMutability": "nonpayable",
      "type": "function"
    },
    {
      "inputs": [
        {
          "internalType": "address",
          "name": "operator",
          "type": "address"
        }
      ],
      "name": "setOperator",
      "outputs": [],
      "stateMutability": "nonpayable",
      "type": "function"
    },
    {
      "stateMutability": "payable",
      "type": "receive"
    }
  ],
  "transactionHash": "0x2555340de81c6e7d5c578657689face8375d3d9be85bb6540668b2d3039abd70",
  "args": [],
  "numDeployments": 2,
  "solcInputHash": "baabf231578d154ef0ba0f2d9719dae5",
  "bytecode": "0x608060405234801561001057600080fd5b506120e3806100206000396000f3fe60806040526004361061016d5760003560e01c8063704b6c02116100cb578063cdf9b5091161007f578063ebac15f911610059578063ebac15f914610470578063f851a440146104a4578063ff1370d9146104b957600080fd5b8063cdf9b509146103fc578063da8292d91461041c578063e7f43c681461043c57600080fd5b80639aa8f2d6116100b05780639aa8f2d6146103a9578063b3ab15fb146103c9578063bf64a82d146103e957600080fd5b8063704b6c02146103695780638dd148021461038957600080fd5b806336c5ab40116101225780634ddf47d4116101075780634ddf47d4146102b05780635d59fee4146103015780636e9960c31461033557600080fd5b806336c5ab401461025c5780634b40f1bf1461029057600080fd5b80630a0542ef116101535780630a0542ef146101b15780630fffbaf3146101c457806334d6d9911461021e57600080fd5b80621d35671461017c578063022c042e1461019157600080fd5b3661017757600080fd5b600080fd5b61018f61018a3660046118dd565b6104ee565b005b34801561019d57600080fd5b5061018f6101ac366004611974565b6106c4565b61018f6101bf3660046119c8565b6107a3565b3480156101d057600080fd5b507feb87cbb21687feb327e3d58c6c16d552231d12c7a0e8115042a4165fac8a77f9545b60405173ffffffffffffffffffffffffffffffffffffffff90911681526020015b60405180910390f35b34801561022a57600080fd5b507f1eaa99919d5563fbfdd75d9d906ff8de8cf52beab1ed73875294c8a0c9e9d83a545b604051908152602001610215565b34801561026857600080fd5b507f56825e447adf54cdde5f04815fcf9b1dd26ef9d5c053625147c18b7c13091686546101f4565b34801561029c57600080fd5b5061018f6102ab366004611a4c565b610a95565b3480156102bc57600080fd5b506102d06102cb366004611a9f565b610b6f565b6040517fffffffff000000000000000000000000000000000000000000000000000000009091168152602001610215565b34801561030d57600080fd5b507f99d8b07d37c89d4c4f4fa0fd9b7396caeb5d1d4e58b41c61c71e3cf7d424a6255461024e565b34801561034157600080fd5b507f3f106594dc74eeef980dae234cde8324dc2497b13d27a0c59e55bd2ca10a07c9546101f4565b34801561037557600080fd5b5061018f610384366004611a4c565b610d4d565b34801561039557600080fd5b5061018f6103a4366004611a4c565b610e27565b3480156103b557600080fd5b5061024e6103c4366004611b6e565b610f01565b3480156103d557600080fd5b5061018f6103e4366004611a4c565b61105d565b61018f6103f7366004611ba1565b611137565b34801561040857600080fd5b5061018f610417366004611974565b611212565b34801561042857600080fd5b5061018f610437366004611a4c565b6112ec565b34801561044857600080fd5b507f7caba557ad34138fa3b7e43fb574e0e6cc10481c3073e0dffbc560db81b5c60f546101f4565b34801561047c57600080fd5b507fbd3084b8c09da87ad159c247a60e209784196be2530cecbbd8f337fdd1848827546101f4565b3480156104b057600080fd5b506101f46113c6565b3480156104c557600080fd5b506104d96104d4366004611bf6565b6113f5565b60408051928352602083019190915201610215565b7f56825e447adf54cdde5f04815fcf9b1dd26ef9d5c053625147c18b7c1309168654331480610588577f08c379a0000000000000000000000000000000000000000000000000000000006080527c200000000000000000000000000000000000000000000000000000000060a0527c1b484f4c4f47524150483a204c5a206f6e6c7920656e64706f696e740060c052600060e05260c46080fd5b506040518486600c830137805130148061062c577f08c379a0000000000000000000000000000000000000000000000000000000006080527c200000000000000000000000000000000000000000000000000000000060a0527c1e484f4c4f47524150483a20756e617574686f72697a65642073656e6460c0527f657200000000000000000000000000000000000000000000000000000000000060e05260c46080fd5b50507f7caba557ad34138fa3b7e43fb574e0e6cc10481c3073e0dffbc560db81b5c60f5473ffffffffffffffffffffffffffffffffffffffff1663254e106283836040518363ffffffff1660e01b815260040161068a929190611ca7565b600060405180830381600087803b1580156106a457600080fd5b505af11580156106b8573d6000803e3d6000fd5b50505050505050505050565b7f3f106594dc74eeef980dae234cde8324dc2497b13d27a0c59e55bd2ca10a07c95473ffffffffffffffffffffffffffffffffffffffff163373ffffffffffffffffffffffffffffffffffffffff161461077f576040517f08c379a000000000000000000000000000000000000000000000000000000000815260206004820152601e60248201527f484f4c4f47524150483a2061646d696e206f6e6c792066756e6374696f6e000060448201526064015b60405180910390fd5b7f1eaa99919d5563fbfdd75d9d906ff8de8cf52beab1ed73875294c8a0c9e9d83a55565b7f7caba557ad34138fa3b7e43fb574e0e6cc10481c3073e0dffbc560db81b5c60f5473ffffffffffffffffffffffffffffffffffffffff163373ffffffffffffffffffffffffffffffffffffffff1614610859576040517f08c379a000000000000000000000000000000000000000000000000000000000815260206004820152601d60248201527f484f4c4f47524150483a206f70657261746f72206f6e6c792063616c6c0000006044820152606401610776565b7f56825e447adf54cdde5f04815fcf9b1dd26ef9d5c053625147c18b7c130916865473ffffffffffffffffffffffffffffffffffffffff811663c5803100856108c07fbd3084b8c09da87ad159c247a60e209784196be2530cecbbd8f337fdd18488275490565b73ffffffffffffffffffffffffffffffffffffffff166320fc06ea60028b63ffffffff1660036040518463ffffffff1660e01b815260040161090493929190611cfe565b602060405180830381865afa158015610921573d6000803e3d6000fd5b505050506040513d601f19601f820116820180604052508101906109459190611d1f565b6040517fffffffffffffffffffffffffffffffffffffffff0000000000000000000000003060601b1660208201819052603482015260480160405160208183030381529060405287878b3060016109ba7f99d8b07d37c89d4c4f4fa0fd9b7396caeb5d1d4e58b41c61c71e3cf7d424a6255490565b6109c4908d611d67565b7f1eaa99919d5563fbfdd75d9d906ff8de8cf52beab1ed73875294c8a0c9e9d83a546109f09190611da4565b60405160f09290921b7fffff00000000000000000000000000000000000000000000000000000000000016602083015260228201526042016040516020818303038152906040526040518963ffffffff1660e01b8152600401610a599796959493929190611e27565b6000604051808303818588803b158015610a7257600080fd5b505af1158015610a86573d6000803e3d6000fd5b50505050505050505050505050565b7f3f106594dc74eeef980dae234cde8324dc2497b13d27a0c59e55bd2ca10a07c95473ffffffffffffffffffffffffffffffffffffffff163373ffffffffffffffffffffffffffffffffffffffff1614610b4b576040517f08c379a000000000000000000000000000000000000000000000000000000000815260206004820152601e60248201527f484f4c4f47524150483a2061646d696e206f6e6c792066756e6374696f6e00006044820152606401610776565b7f56825e447adf54cdde5f04815fcf9b1dd26ef9d5c053625147c18b7c1309168655565b6000610b997f4e5f991bca30eca2d4643aaefa807e88f96a4a97398933d572a3c0d973004a015490565b15610c00576040517f08c379a000000000000000000000000000000000000000000000000000000000815260206004820152601e60248201527f484f4c4f47524150483a20616c726561647920696e697469616c697a656400006044820152606401610776565b600080600080600086806020019051810190610c1c9190611e9d565b94509450945094509450327f3f106594dc74eeef980dae234cde8324dc2497b13d27a0c59e55bd2ca10a07c955847feb87cbb21687feb327e3d58c6c16d552231d12c7a0e8115042a4165fac8a77f955837fbd3084b8c09da87ad159c247a60e209784196be2530cecbbd8f337fdd184882755827f7caba557ad34138fa3b7e43fb574e0e6cc10481c3073e0dffbc560db81b5c60f55817f1eaa99919d5563fbfdd75d9d906ff8de8cf52beab1ed73875294c8a0c9e9d83a55807f99d8b07d37c89d4c4f4fa0fd9b7396caeb5d1d4e58b41c61c71e3cf7d424a62555610d2160017f4e5f991bca30eca2d4643aaefa807e88f96a4a97398933d572a3c0d973004a0155565b507f4ddf47d4000000000000000000000000000000000000000000000000000000009695505050505050565b7f3f106594dc74eeef980dae234cde8324dc2497b13d27a0c59e55bd2ca10a07c95473ffffffffffffffffffffffffffffffffffffffff163373ffffffffffffffffffffffffffffffffffffffff1614610e03576040517f08c379a000000000000000000000000000000000000000000000000000000000815260206004820152601e60248201527f484f4c4f47524150483a2061646d696e206f6e6c792066756e6374696f6e00006044820152606401610776565b7f3f106594dc74eeef980dae234cde8324dc2497b13d27a0c59e55bd2ca10a07c955565b7f3f106594dc74eeef980dae234cde8324dc2497b13d27a0c59e55bd2ca10a07c95473ffffffffffffffffffffffffffffffffffffffff163373ffffffffffffffffffffffffffffffffffffffff1614610edd576040517f08c379a000000000000000000000000000000000000000000000000000000000815260206004820152601e60248201527f484f4c4f47524150483a2061646d696e206f6e6c792066756e6374696f6e00006044820152606401610776565b7feb87cbb21687feb327e3d58c6c16d552231d12c7a0e8115042a4165fac8a77f955565b7f56825e447adf54cdde5f04815fcf9b1dd26ef9d5c053625147c18b7c130916865460009081610f4f7fbd3084b8c09da87ad159c247a60e209784196be2530cecbbd8f337fdd18488275490565b73ffffffffffffffffffffffffffffffffffffffff166320fc06ea60028863ffffffff1660036040518463ffffffff1660e01b8152600401610f9393929190611cfe565b602060405180830381865afa158015610fb0573d6000803e3d6000fd5b505050506040513d601f19601f82011682018060405250810190610fd49190611d1f565b9050600080610fe384846116c3565b915091508560000361100557806fffffffffffffffffffffffffffffffff1695505b6402540be4006fffffffffffffffffffffffffffffffff8316611029600a8a611efb565b611033908a611da4565b61103d9089611d67565b6110479190611d67565b6110519190611efb565b98975050505050505050565b7f3f106594dc74eeef980dae234cde8324dc2497b13d27a0c59e55bd2ca10a07c95473ffffffffffffffffffffffffffffffffffffffff163373ffffffffffffffffffffffffffffffffffffffff1614611113576040517f08c379a000000000000000000000000000000000000000000000000000000000815260206004820152601e60248201527f484f4c4f47524150483a2061646d696e206f6e6c792066756e6374696f6e00006044820152606401610776565b7f7caba557ad34138fa3b7e43fb574e0e6cc10481c3073e0dffbc560db81b5c60f55565b7f3f106594dc74eeef980dae234cde8324dc2497b13d27a0c59e55bd2ca10a07c95473ffffffffffffffffffffffffffffffffffffffff163373ffffffffffffffffffffffffffffffffffffffff16146111ed576040517f08c379a000000000000000000000000000000000000000000000000000000000815260206004820152601e60248201527f484f4c4f47524150483a2061646d696e206f6e6c792066756e6374696f6e00006044820152606401610776565b808260003760008082600034875af13d6000803e80801561120d573d6000f35b3d6000fd5b7f3f106594dc74eeef980dae234cde8324dc2497b13d27a0c59e55bd2ca10a07c95473ffffffffffffffffffffffffffffffffffffffff163373ffffffffffffffffffffffffffffffffffffffff16146112c8576040517f08c379a000000000000000000000000000000000000000000000000000000000815260206004820152601e60248201527f484f4c4f47524150483a2061646d696e206f6e6c792066756e6374696f6e00006044820152606401610776565b7f99d8b07d37c89d4c4f4fa0fd9b7396caeb5d1d4e58b41c61c71e3cf7d424a62555565b7f3f106594dc74eeef980dae234cde8324dc2497b13d27a0c59e55bd2ca10a07c95473ffffffffffffffffffffffffffffffffffffffff163373ffffffffffffffffffffffffffffffffffffffff16146113a2576040517f08c379a000000000000000000000000000000000000000000000000000000000815260206004820152601e60248201527f484f4c4f47524150483a2061646d696e206f6e6c792066756e6374696f6e00006044820152606401610776565b7fbd3084b8c09da87ad159c247a60e209784196be2530cecbbd8f337fdd184882755565b60006113f07f3f106594dc74eeef980dae234cde8324dc2497b13d27a0c59e55bd2ca10a07c95490565b905090565b60008060006114227fbd3084b8c09da87ad159c247a60e209784196be2530cecbbd8f337fdd18488275490565b73ffffffffffffffffffffffffffffffffffffffff166320fc06ea60028a63ffffffff1660036040518463ffffffff1660e01b815260040161146693929190611cfe565b602060405180830381865afa158015611483573d6000803e3d6000fd5b505050506040513d601f19601f820116820180604052508101906114a79190611d1f565b7f56825e447adf54cdde5f04815fcf9b1dd26ef9d5c053625147c18b7c13091686549091506000806114d983856116c3565b91509150886000036114fb57806fffffffffffffffffffffffffffffffff1698505b600060016115277f99d8b07d37c89d4c4f4fa0fd9b7396caeb5d1d4e58b41c61c71e3cf7d424a6255490565b611531908a611d67565b7f1eaa99919d5563fbfdd75d9d906ff8de8cf52beab1ed73875294c8a0c9e9d83a5461155d9190611da4565b60405160f09290921b7fffff0000000000000000000000000000000000000000000000000000000000001660208301526022820152604201604080517fffffffffffffffffffffffffffffffffffffffffffffffffffffffffffffffe0818403018152908290527f40a7bb10000000000000000000000000000000000000000000000000000000008252915060009073ffffffffffffffffffffffffffffffffffffffff8616906340a7bb109061162290899030908f908f9088908a90600401611f36565b6040805180830381865afa15801561163e573d6000803e3d6000fd5b505050506040513d601f19601f820116820180604052508101906116629190611f97565b5090506402540be4006fffffffffffffffffffffffffffffffff8516611689600a8f611efb565b611693908f611da4565b61169d908e611d67565b6116a79190611d67565b6116b19190611efb565b9d909c509a5050505050505050505050565b6000808373ffffffffffffffffffffffffffffffffffffffff16634afb422b6040518163ffffffff1660e01b8152600401602060405180830381865afa158015611711573d6000803e3d6000fd5b505050506040513d601f19601f820116820180604052508101906117359190611fbb565b6040517fa466222200000000000000000000000000000000000000000000000000000000815261ffff8516600482015230602482015273ffffffffffffffffffffffffffffffffffffffff919091169063a46622229060440160c060405180830381865afa1580156117ab573d6000803e3d6000fd5b505050506040513d601f19601f820116820180604052508101906117cf9190611fd8565b60409081015190517f765a8a5400000000000000000000000000000000000000000000000000000000815261ffff8516600482015273ffffffffffffffffffffffffffffffffffffffff9091169063765a8a54906024016040805180830381865afa158015611842573d6000803e3d6000fd5b505050506040513d601f19601f8201168201806040525081019061186691906120a3565b915091505b9250929050565b61ffff8116811461188257600080fd5b50565b60008083601f84011261189757600080fd5b50813567ffffffffffffffff8111156118af57600080fd5b60208301915083602082850101111561186b57600080fd5b67ffffffffffffffff8116811461188257600080fd5b600080600080600080608087890312156118f657600080fd5b863561190181611872565b9550602087013567ffffffffffffffff8082111561191e57600080fd5b61192a8a838b01611885565b90975095506040890135915061193f826118c7565b9093506060880135908082111561195557600080fd5b5061196289828a01611885565b979a9699509497509295939492505050565b60006020828403121561198657600080fd5b5035919050565b803563ffffffff811681146119a157600080fd5b919050565b73ffffffffffffffffffffffffffffffffffffffff8116811461188257600080fd5b600080600080600080600060c0888a0312156119e357600080fd5b87359650602088013595506119fa6040890161198d565b94506060880135611a0a816119a6565b93506080880135925060a088013567ffffffffffffffff811115611a2d57600080fd5b611a398a828b01611885565b989b979a50959850939692959293505050565b600060208284031215611a5e57600080fd5b8135611a69816119a6565b9392505050565b7f4e487b7100000000000000000000000000000000000000000000000000000000600052604160045260246000fd5b600060208284031215611ab157600080fd5b813567ffffffffffffffff80821115611ac957600080fd5b818401915084601f830112611add57600080fd5b813581811115611aef57611aef611a70565b604051601f82017fffffffffffffffffffffffffffffffffffffffffffffffffffffffffffffffe0908116603f01168101908382118183101715611b3557611b35611a70565b81604052828152876020848701011115611b4e57600080fd5b826020860160208301376000928101602001929092525095945050505050565b600080600060608486031215611b8357600080fd5b611b8c8461198d565b95602085013595506040909401359392505050565b600080600060408486031215611bb657600080fd5b8335611bc1816119a6565b9250602084013567ffffffffffffffff811115611bdd57600080fd5b611be986828701611885565b9497909650939450505050565b600080600080600060808688031215611c0e57600080fd5b611c178661198d565b94506020860135935060408601359250606086013567ffffffffffffffff811115611c4157600080fd5b611c4d88828901611885565b969995985093965092949392505050565b8183528181602085013750600060208284010152600060207fffffffffffffffffffffffffffffffffffffffffffffffffffffffffffffffe0601f840116840101905092915050565b602081526000611cbb602083018486611c5e565b949350505050565b60058110611cfa577f4e487b7100000000000000000000000000000000000000000000000000000000600052602160045260246000fd5b9052565b60608101611d0c8286611cc3565b836020830152611cbb6040830184611cc3565b600060208284031215611d3157600080fd5b5051919050565b7f4e487b7100000000000000000000000000000000000000000000000000000000600052601160045260246000fd5b6000817fffffffffffffffffffffffffffffffffffffffffffffffffffffffffffffffff0483118215151615611d9f57611d9f611d38565b500290565b60008219821115611db757611db7611d38565b500190565b6000815180845260005b81811015611de257602081850181015186830182015201611dc6565b81811115611df4576000602083870101525b50601f017fffffffffffffffffffffffffffffffffffffffffffffffffffffffffffffffe0169290920160200192915050565b61ffff8816815260c060208201526000611e4460c0830189611dbc565b8281036040840152611e5781888a611c5e565b73ffffffffffffffffffffffffffffffffffffffff87811660608601528616608085015283810360a08501529050611e8f8185611dbc565b9a9950505050505050505050565b600080600080600060a08688031215611eb557600080fd5b8551611ec0816119a6565b6020870151909550611ed1816119a6565b6040870151909450611ee2816119a6565b6060870151608090970151959894975095949392505050565b600082611f31577f4e487b7100000000000000000000000000000000000000000000000000000000600052601260045260246000fd5b500490565b61ffff8716815273ffffffffffffffffffffffffffffffffffffffff8616602082015260a060408201526000611f7060a083018688611c5e565b84151560608401528281036080840152611f8a8185611dbc565b9998505050505050505050565b60008060408385031215611faa57600080fd5b505080516020909101519092909150565b600060208284031215611fcd57600080fd5b8151611a69816119a6565b600060c08284031215611fea57600080fd5b60405160c0810181811067ffffffffffffffff8211171561200d5761200d611a70565b604052825161201b81611872565b8152602083015161202b816118c7565b6020820152604083015161203e816119a6565b6040820152606083015161205181611872565b60608201526080830151612064816118c7565b608082015260a0830151612077816119a6565b60a08201529392505050565b80516fffffffffffffffffffffffffffffffff811681146119a157600080fd5b600080604083850312156120b657600080fd5b6120bf83612083565b91506120cd60208401612083565b9050925092905056fea164736f6c634300080d000a",
  "devdoc": {
    "author": "https://github.com/holographxyz",
    "details": "This contract abstracts all of the LayerZero specific logic into an isolated module",
    "kind": "dev",
    "methods": {
      "constructor": {
        "details": "Constructor is left empty and init is used instead"
      },
      "getBaseGas()": {
        "details": "Cross-chain messages require at least this much gas"
      },
      "getBridge()": {
        "details": "Used for beaming holographable assets cross-chain"
      },
      "getGasPerByte()": {
        "details": "Cross-chain messages require at least this much gas (per payload byte)"
      },
      "getInterfaces()": {
        "details": "Holograph uses this contract to store data that needs to be accessed by a large portion of the modules"
      },
      "getLZEndpoint()": {
        "details": "All lzReceive function calls allow only requests from this address"
      },
      "getOperator()": {
        "details": "All cross-chain Holograph Bridge beams are handled by the Holograph Operator module"
      },
      "init(bytes)": {
        "details": "This function is called by the deployer/factory when creating a contract",
        "params": {
          "initPayload": "abi encoded payload to use for contract initilaization"
        }
      },
      "lzReceive(uint16,bytes,uint64,bytes)": {
        "details": "This function only allows calls from the configured LayerZero endpoint address"
      },
      "send(uint256,uint256,uint32,address,uint256,bytes)": {
        "details": "Need to add an extra function to get LZ gas amount needed for their internal cross-chain message verification"
      },
      "setBaseGas(uint256)": {
        "params": {
          "baseGas": "minimum gas amount that a message requires"
        }
      },
      "setBridge(address)": {
        "params": {
          "bridge": "address of the Holograph Bridge smart contract to use"
        }
      },
      "setGasPerByte(uint256)": {
        "params": {
          "gasPerByte": "minimum gas amount (per payload byte) that a message requires"
        }
      },
      "setInterfaces(address)": {
        "params": {
          "interfaces": "address of the Holograph Interfaces smart contract to use"
        }
      },
      "setLZEndpoint(address)": {
        "params": {
          "lZEndpoint": "address of the LayerZero Endpoint to use"
        }
      },
      "setOperator(address)": {
        "params": {
          "operator": "address of the Holograph Operator smart contract to use"
        }
      }
    },
    "stateVariables": {
      "_baseGasSlot": {
        "details": "bytes32(uint256(keccak256('eip1967.Holograph.operator')) - 1)"
      },
      "_bridgeSlot": {
        "details": "bytes32(uint256(keccak256('eip1967.Holograph.bridge')) - 1)"
      },
      "_gasPerByteSlot": {
        "details": "bytes32(uint256(keccak256('eip1967.Holograph.operator')) - 1)"
      },
      "_interfacesSlot": {
        "details": "bytes32(uint256(keccak256('eip1967.Holograph.interfaces')) - 1)"
      },
      "_lZEndpointSlot": {
        "details": "bytes32(uint256(keccak256('eip1967.Holograph.lZEndpoint')) - 1)"
      },
      "_operatorSlot": {
        "details": "bytes32(uint256(keccak256('eip1967.Holograph.operator')) - 1)"
      }
    },
    "title": "Holograph LayerZero Module",
    "version": 1
  },
  "userdoc": {
    "kind": "user",
    "methods": {
      "getBaseGas()": {
        "notice": "Get the baseGas value"
      },
      "getBridge()": {
        "notice": "Get the address of the Holograph Bridge module"
      },
      "getGasPerByte()": {
        "notice": "Get the gasPerByte value"
      },
      "getInterfaces()": {
        "notice": "Get the address of the Holograph Interfaces module"
      },
      "getLZEndpoint()": {
        "notice": "Get the address of the approved LayerZero Endpoint"
      },
      "getOperator()": {
        "notice": "Get the address of the Holograph Operator module"
      },
      "init(bytes)": {
        "notice": "Used internally to initialize the contract instead of through a constructor"
      },
      "lzReceive(uint16,bytes,uint64,bytes)": {
        "notice": "Receive cross-chain message from LayerZero"
      },
      "setBaseGas(uint256)": {
        "notice": "Update the baseGas value"
      },
      "setBridge(address)": {
        "notice": "Update the Holograph Bridge module address"
      },
      "setGasPerByte(uint256)": {
        "notice": "Update the gasPerByte value"
      },
      "setInterfaces(address)": {
        "notice": "Update the Holograph Interfaces module address"
      },
      "setLZEndpoint(address)": {
        "notice": "Update the approved LayerZero Endpoint address"
      },
      "setOperator(address)": {
        "notice": "Update the Holograph Operator module address"
      }
    },
    "notice": "Holograph module for enabling LayerZero cross-chain messaging",
    "version": 1
  },
  "storageLayout": {
    "storage": [],
    "types": null
  }
}