{
  "address": "0x4D308694feE6B9920A52731f5c3D610416a803a5",
  "abi": [
    {
      "inputs": [],
      "stateMutability": "nonpayable",
      "type": "constructor"
    },
    {
      "anonymous": false,
      "inputs": [
        {
          "indexed": true,
          "internalType": "address",
          "name": "previousOwner",
          "type": "address"
        },
        {
          "indexed": true,
          "internalType": "address",
          "name": "newOwner",
          "type": "address"
        }
      ],
      "name": "OwnershipTransferred",
      "type": "event"
    },
    {
      "anonymous": false,
      "inputs": [
        {
          "indexed": false,
          "internalType": "uint256",
          "name": "tokenId",
          "type": "uint256"
        },
        {
          "indexed": false,
          "internalType": "address[]",
          "name": "recipients",
          "type": "address[]"
        },
        {
          "indexed": false,
          "internalType": "uint256[]",
          "name": "bps",
          "type": "uint256[]"
        }
      ],
      "name": "SecondarySaleFees",
      "type": "event"
    },
    {
      "inputs": [],
      "name": "admin",
      "outputs": [
        {
          "internalType": "address",
          "name": "",
          "type": "address"
        }
      ],
      "stateMutability": "view",
      "type": "function"
    },
    {
      "inputs": [
        {
          "internalType": "address",
          "name": "target",
          "type": "address"
        },
        {
          "internalType": "bytes",
          "name": "data",
          "type": "bytes"
        }
      ],
      "name": "adminCall",
      "outputs": [],
      "stateMutability": "payable",
      "type": "function"
    },
    {
      "inputs": [
        {
          "internalType": "uint256",
          "name": "tokenId",
          "type": "uint256"
        }
      ],
      "name": "bidSharesForToken",
      "outputs": [
        {
          "components": [
            {
              "components": [
                {
                  "internalType": "uint256",
                  "name": "value",
                  "type": "uint256"
                }
              ],
              "internalType": "struct ZoraDecimal",
              "name": "prevOwner",
              "type": "tuple"
            },
            {
              "components": [
                {
                  "internalType": "uint256",
                  "name": "value",
                  "type": "uint256"
                }
              ],
              "internalType": "struct ZoraDecimal",
              "name": "creator",
              "type": "tuple"
            },
            {
              "components": [
                {
                  "internalType": "uint256",
                  "name": "value",
                  "type": "uint256"
                }
              ],
              "internalType": "struct ZoraDecimal",
              "name": "owner",
              "type": "tuple"
            }
          ],
          "internalType": "struct ZoraBidShares",
          "name": "bidShares",
          "type": "tuple"
        }
      ],
      "stateMutability": "view",
      "type": "function"
    },
    {
      "inputs": [
        {
          "internalType": "address",
          "name": "",
          "type": "address"
        },
        {
          "internalType": "uint256",
          "name": "tokenId",
          "type": "uint256"
        },
        {
          "internalType": "uint256",
          "name": "amount",
          "type": "uint256"
        }
      ],
      "name": "calculateRoyaltyFee",
      "outputs": [
        {
          "internalType": "uint256",
          "name": "",
          "type": "uint256"
        }
      ],
      "stateMutability": "view",
      "type": "function"
    },
    {
      "inputs": [
        {
          "internalType": "address payable[]",
          "name": "addresses",
          "type": "address[]"
        },
        {
          "internalType": "uint256[]",
          "name": "bps",
          "type": "uint256[]"
        }
      ],
      "name": "configurePayouts",
      "outputs": [],
      "stateMutability": "nonpayable",
      "type": "function"
    },
    {
      "inputs": [],
      "name": "getAdmin",
      "outputs": [
        {
          "internalType": "address",
          "name": "adminAddress",
          "type": "address"
        }
      ],
      "stateMutability": "view",
      "type": "function"
    },
    {
      "inputs": [],
      "name": "getEthPayout",
      "outputs": [],
      "stateMutability": "nonpayable",
      "type": "function"
    },
    {
      "inputs": [
        {
          "internalType": "uint256",
          "name": "tokenId",
          "type": "uint256"
        }
      ],
      "name": "getFeeBps",
      "outputs": [
        {
          "internalType": "uint256[]",
          "name": "",
          "type": "uint256[]"
        }
      ],
      "stateMutability": "view",
      "type": "function"
    },
    {
      "inputs": [
        {
          "internalType": "uint256",
          "name": "tokenId",
          "type": "uint256"
        }
      ],
      "name": "getFeeRecipients",
      "outputs": [
        {
          "internalType": "address payable[]",
          "name": "",
          "type": "address[]"
        }
      ],
      "stateMutability": "view",
      "type": "function"
    },
    {
      "inputs": [
        {
          "internalType": "uint256",
          "name": "tokenId",
          "type": "uint256"
        }
      ],
      "name": "getFees",
      "outputs": [
        {
          "internalType": "address payable[]",
          "name": "",
          "type": "address[]"
        },
        {
          "internalType": "uint256[]",
          "name": "",
          "type": "uint256[]"
        }
      ],
      "stateMutability": "view",
      "type": "function"
    },
    {
      "inputs": [],
      "name": "getOwner",
      "outputs": [
        {
          "internalType": "address",
          "name": "ownerAddress",
          "type": "address"
        }
      ],
      "stateMutability": "view",
      "type": "function"
    },
    {
      "inputs": [],
      "name": "getPayoutInfo",
      "outputs": [
        {
          "internalType": "address payable[]",
          "name": "addresses",
          "type": "address[]"
        },
        {
          "internalType": "uint256[]",
          "name": "bps",
          "type": "uint256[]"
        }
      ],
      "stateMutability": "view",
      "type": "function"
    },
    {
      "inputs": [
        {
          "internalType": "uint256",
          "name": "tokenId",
          "type": "uint256"
        }
      ],
      "name": "getRoyalties",
      "outputs": [
        {
          "internalType": "address payable[]",
          "name": "",
          "type": "address[]"
        },
        {
          "internalType": "uint256[]",
          "name": "",
          "type": "uint256[]"
        }
      ],
      "stateMutability": "view",
      "type": "function"
    },
    {
      "inputs": [],
      "name": "getSourceContract",
      "outputs": [
        {
          "internalType": "address",
          "name": "sourceContract",
          "type": "address"
        }
      ],
      "stateMutability": "view",
      "type": "function"
    },
    {
      "inputs": [
        {
          "internalType": "string",
          "name": "tokenName",
          "type": "string"
        }
      ],
      "name": "getTokenAddress",
      "outputs": [
        {
          "internalType": "address",
          "name": "",
          "type": "address"
        }
      ],
      "stateMutability": "view",
      "type": "function"
    },
    {
      "inputs": [
        {
          "internalType": "address",
          "name": "tokenAddress",
          "type": "address"
        }
      ],
      "name": "getTokenPayout",
      "outputs": [],
      "stateMutability": "nonpayable",
      "type": "function"
    },
    {
      "inputs": [
        {
          "internalType": "address[]",
          "name": "tokenAddresses",
          "type": "address[]"
        }
      ],
      "name": "getTokensPayout",
      "outputs": [],
      "stateMutability": "nonpayable",
      "type": "function"
    },
    {
      "inputs": [
        {
          "internalType": "bytes",
          "name": "initPayload",
          "type": "bytes"
        }
      ],
      "name": "init",
      "outputs": [
        {
          "internalType": "bytes4",
          "name": "",
          "type": "bytes4"
        }
      ],
      "stateMutability": "nonpayable",
      "type": "function"
    },
    {
      "inputs": [
        {
          "internalType": "bytes",
          "name": "initPayload",
          "type": "bytes"
        }
      ],
      "name": "initPA1D",
      "outputs": [
        {
          "internalType": "bytes4",
          "name": "",
          "type": "bytes4"
        }
      ],
      "stateMutability": "nonpayable",
      "type": "function"
    },
    {
      "inputs": [],
      "name": "marketContract",
      "outputs": [
        {
          "internalType": "address",
          "name": "",
          "type": "address"
        }
      ],
      "stateMutability": "view",
      "type": "function"
    },
    {
      "inputs": [],
      "name": "owner",
      "outputs": [
        {
          "internalType": "address",
          "name": "",
          "type": "address"
        }
      ],
      "stateMutability": "view",
      "type": "function"
    },
    {
      "inputs": [
        {
          "internalType": "address",
          "name": "target",
          "type": "address"
        },
        {
          "internalType": "bytes",
          "name": "data",
          "type": "bytes"
        }
      ],
      "name": "ownerCall",
      "outputs": [],
      "stateMutability": "payable",
      "type": "function"
    },
    {
      "inputs": [
        {
          "internalType": "uint256",
          "name": "tokenId",
          "type": "uint256"
        },
        {
          "internalType": "uint256",
          "name": "value",
          "type": "uint256"
        }
      ],
      "name": "royaltyInfo",
      "outputs": [
        {
          "internalType": "address",
          "name": "",
          "type": "address"
        },
        {
          "internalType": "uint256",
          "name": "",
          "type": "uint256"
        }
      ],
      "stateMutability": "view",
      "type": "function"
    },
    {
      "inputs": [
        {
          "internalType": "address",
          "name": "adminAddress",
          "type": "address"
        }
      ],
      "name": "setAdmin",
      "outputs": [],
      "stateMutability": "nonpayable",
      "type": "function"
    },
    {
      "inputs": [
        {
          "internalType": "address",
          "name": "ownerAddress",
          "type": "address"
        }
      ],
      "name": "setOwner",
      "outputs": [],
      "stateMutability": "nonpayable",
      "type": "function"
    },
    {
      "inputs": [
        {
          "internalType": "uint256",
          "name": "tokenId",
          "type": "uint256"
        },
        {
          "internalType": "address payable",
          "name": "receiver",
          "type": "address"
        },
        {
          "internalType": "uint256",
          "name": "bp",
          "type": "uint256"
        }
      ],
      "name": "setRoyalties",
      "outputs": [],
      "stateMutability": "nonpayable",
      "type": "function"
    },
    {
      "inputs": [
        {
          "internalType": "address",
          "name": "",
          "type": "address"
        },
        {
          "internalType": "uint256",
          "name": "tokenId",
          "type": "uint256"
        }
      ],
      "name": "tokenCreator",
      "outputs": [
        {
          "internalType": "address",
          "name": "",
          "type": "address"
        }
      ],
      "stateMutability": "view",
      "type": "function"
    },
    {
      "inputs": [
        {
          "internalType": "uint256",
          "name": "tokenId",
          "type": "uint256"
        }
      ],
      "name": "tokenCreators",
      "outputs": [
        {
          "internalType": "address",
          "name": "",
          "type": "address"
        }
      ],
      "stateMutability": "view",
      "type": "function"
    },
    {
      "inputs": [
        {
          "internalType": "address",
          "name": "newOwner",
          "type": "address"
        }
      ],
      "name": "transferOwnership",
      "outputs": [],
      "stateMutability": "nonpayable",
      "type": "function"
    }
  ],
  "transactionHash": "0xf5c0c993216271051b0b9c7ad44cf8570a10fe352be5f9068be9a3f98cd1cb8e",
  "args": [],
  "numDeployments": 3,
  "solcInputHash": "00700a4d9a19f1e4d3ae196dddd65495",
  "bytecode": "0x608060405234801561001057600080fd5b50612d4e806100206000396000f3fe6080604052600436106101c25760003560e01c80638da5cb5b116100f7578063c409123611610095578063eb66dbcf11610064578063eb66dbcf14610553578063f2fde38b14610566578063f851a44014610586578063f9ce05821461059b57600080fd5b8063c4091236146104f3578063d5a06d4c146104c0578063e0fd045f14610513578063e2c7f3381461053357600080fd5b8063b85ed7e4116100d1578063b85ed7e414610473578063b9c4d9fb14610493578063bb3bafd6146104c0578063bf64a82d146104e057600080fd5b80638da5cb5b1461043b578063990803c314610450578063a1794bcd146103a657600080fd5b80634ddf47d4116101645780636faf275b1161013e5780636faf275b146103a6578063704b6c02146103b9578063860110f5146103d9578063893d20e81461040757600080fd5b80634ddf47d4146102e057806365b85eb5146103315780636e9960c31461035157600080fd5b80631949ddf3116101a05780631949ddf31461023457806320c60d2a146102545780632a55205a146102745780633328d219146102c057600080fd5b80630ebd4c7f146101c757806312cb4738146101fd57806313af403514610214575b600080fd5b3480156101d357600080fd5b506101e76101e236600461250c565b6105e0565b6040516101f49190612560565b60405180910390f35b34801561020957600080fd5b506102126106a1565b005b34801561022057600080fd5b5061021261022f366004612595565b6106b3565b34801561024057600080fd5b5061021261024f366004612595565b6107d3565b34801561026057600080fd5b5061021261026f366004612654565b6107e7565b34801561028057600080fd5b5061029461028f3660046126f3565b6107f8565b6040805173ffffffffffffffffffffffffffffffffffffffff90931683526020830191909152016101f4565b3480156102cc57600080fd5b506102126102db36600461277b565b6108a8565b3480156102ec57600080fd5b506103006102fb3660046128b3565b610a4a565b6040517fffffffff0000000000000000000000000000000000000000000000000000000090911681526020016101f4565b34801561033d57600080fd5b5061030061034c3660046128b3565b610b96565b34801561035d57600080fd5b507f3f106594dc74eeef980dae234cde8324dc2497b13d27a0c59e55bd2ca10a07c9545b60405173ffffffffffffffffffffffffffffffffffffffff90911681526020016101f4565b3480156103b257600080fd5b5030610381565b3480156103c557600080fd5b506102126103d4366004612595565b610c94565b3480156103e557600080fd5b506103f96103f4366004612904565b610d6e565b6040519081526020016101f4565b34801561041357600080fd5b507fb56711ba6bd3ded7639fc335ee7524fe668a79d7558c85992e3f8494cf77277754610381565b34801561044757600080fd5b50610381610df0565b34801561045c57600080fd5b50610465610e1f565b6040516101f492919061297f565b34801561047f57600080fd5b5061038161048e3660046129ad565b610e3a565b34801561049f57600080fd5b506104b36104ae36600461250c565b610e8c565b6040516101f491906129d9565b3480156104cc57600080fd5b506104656104db36600461250c565b610fa8565b6102126104ee3660046129ec565b611141565b3480156104ff57600080fd5b5061038161050e3660046128b3565b611223565b34801561051f57600080fd5b5061038161052e36600461250c565b61122e565b34801561053f57600080fd5b5061021261054e366004612a71565b61127e565b6102126105613660046129ec565b61143f565b34801561057257600080fd5b50610212610581366004612595565b6114ad565b34801561059257600080fd5b506103816115bc565b3480156105a757600080fd5b506105bb6105b636600461250c565b6115e6565b60408051825151815260208084015151908201529181015151908201526060016101f4565b604080516001808252818301909252606091600091906020808301908036833701905050905060006106118461168e565b73ffffffffffffffffffffffffffffffffffffffff1603610672577f3ab91e3c2ba71a57537d782545f8feb1d402b604f5e070fa6c3b911fc2f18f75548160008151811061066157610661612aa9565b60200260200101818152505061069b565b61067b83611706565b8160008151811061068e5761068e612aa9565b6020026020010181815250505b92915050565b6106a9611753565b6106b1611848565b565b6106bb6119ba565b610726576040517f08c379a000000000000000000000000000000000000000000000000000000000815260206004820152601960248201527f504131443a2063616c6c6572206e6f7420616e206f776e65720000000000000060448201526064015b60405180910390fd5b60006107507fb56711ba6bd3ded7639fc335ee7524fe668a79d7558c85992e3f8494cf7727775490565b9050817fb56711ba6bd3ded7639fc335ee7524fe668a79d7558c85992e3f8494cf772777558173ffffffffffffffffffffffffffffffffffffffff168173ffffffffffffffffffffffffffffffffffffffff167f8be0079c531659141344cd1fd0a4f28419497f9722a3daafe3b4186f6b6457e060405160405180910390a35050565b6107db611753565b6107e481611b7f565b50565b6107ef611753565b6107e481611e3b565b600080806108058561168e565b73ffffffffffffffffffffffffffffffffffffffff160361088b577ffd430e1c7265cc31dbd9a10ce657e68878a41cfe179c80cd68c5edf961516848546127108461086e7f3ab91e3c2ba71a57537d782545f8feb1d402b604f5e070fa6c3b911fc2f18f755490565b6108789190612b07565b6108829190612b44565b915091506108a1565b6108948461168e565b6127108461086e87611706565b9250929050565b6108b06119ba565b610916576040517f08c379a000000000000000000000000000000000000000000000000000000000815260206004820152601960248201527f504131443a2063616c6c6572206e6f7420616e206f776e657200000000000000604482015260640161071d565b8051825114610981576040517f08c379a000000000000000000000000000000000000000000000000000000000815260206004820152601f60248201527f504131443a206d6973736d617463686564206172726179206c656e6768747300604482015260640161071d565b6000805b83518110156109c7578281815181106109a0576109a0612aa9565b6020026020010151826109b39190612b7f565b9150806109bf81612b97565b915050610985565b508061271014610a33576040517f08c379a000000000000000000000000000000000000000000000000000000000815260206004820152601c60248201527f504131443a2062707320646f776e277420657175616c20313030303000000000604482015260640161071d565b610a3c83612126565b610a45826121b7565b505050565b6000610a747f4e5f991bca30eca2d4643aaefa807e88f96a4a97398933d572a3c0d973004a015490565b15610adb576040517f08c379a000000000000000000000000000000000000000000000000000000000815260206004820152601960248201527f504131443a20616c726561647920696e697469616c697a656400000000000000604482015260640161071d565b337f3f106594dc74eeef980dae234cde8324dc2497b13d27a0c59e55bd2ca10a07c955337fb56711ba6bd3ded7639fc335ee7524fe668a79d7558c85992e3f8494cf77277755600082806020019051810190610b379190612bcf565b9050610b456000308361127e565b610b6e60017f4e5f991bca30eca2d4643aaefa807e88f96a4a97398933d572a3c0d973004a0155565b507f4ddf47d40000000000000000000000000000000000000000000000000000000092915050565b7f33a44e907d5bf333e203bebc20bb8c91c00375213b80f466a908f3d50b337c6c546000908015610c23576040517f08c379a000000000000000000000000000000000000000000000000000000000815260206004820152601960248201527f504131443a20616c726561647920696e697469616c697a656400000000000000604482015260640161071d565b600083806020019051810190610c399190612bcf565b9050610c476000308361127e565b505060017f33a44e907d5bf333e203bebc20bb8c91c00375213b80f466a908f3d50b337c6c55507f4ddf47d400000000000000000000000000000000000000000000000000000000919050565b7f3f106594dc74eeef980dae234cde8324dc2497b13d27a0c59e55bd2ca10a07c95473ffffffffffffffffffffffffffffffffffffffff163373ffffffffffffffffffffffffffffffffffffffff1614610d4a576040517f08c379a000000000000000000000000000000000000000000000000000000000815260206004820152601e60248201527f484f4c4f47524150483a2061646d696e206f6e6c792066756e6374696f6e0000604482015260640161071d565b7f3f106594dc74eeef980dae234cde8324dc2497b13d27a0c59e55bd2ca10a07c955565b600080610d7a8461168e565b73ffffffffffffffffffffffffffffffffffffffff1603610ddc5761271082610dc17f3ab91e3c2ba71a57537d782545f8feb1d402b604f5e070fa6c3b911fc2f18f755490565b610dcb9190612b07565b610dd59190612b44565b9050610de9565b61271082610dc185611706565b9392505050565b6000610e1a7fb56711ba6bd3ded7639fc335ee7524fe668a79d7558c85992e3f8494cf7727775490565b905090565b606080610e2a612248565b9150610e34612341565b90509091565b600080610e468361168e565b905073ffffffffffffffffffffffffffffffffffffffff8116610de95750507ffd430e1c7265cc31dbd9a10ce657e68878a41cfe179c80cd68c5edf9615168485461069b565b60408051600180825281830190925260609160009190602080830190803683370190505090506000610ebd8461168e565b73ffffffffffffffffffffffffffffffffffffffff1603610f4c577ffd430e1c7265cc31dbd9a10ce657e68878a41cfe179c80cd68c5edf9615168485481600081518110610f0d57610f0d612aa9565b602002602001019073ffffffffffffffffffffffffffffffffffffffff16908173ffffffffffffffffffffffffffffffffffffffff168152505061069b565b610f558361168e565b81600081518110610f6857610f68612aa9565b602002602001019073ffffffffffffffffffffffffffffffffffffffff16908173ffffffffffffffffffffffffffffffffffffffff168152505092915050565b60408051600180825281830190925260609182916000916020808301908036833750506040805160018082528183019092529293506000929150602080830190803683370190505090506000610ffd8661168e565b73ffffffffffffffffffffffffffffffffffffffff16036110b8577ffd430e1c7265cc31dbd9a10ce657e68878a41cfe179c80cd68c5edf961516848548260008151811061104d5761104d612aa9565b73ffffffffffffffffffffffffffffffffffffffff909216602092830291909101909101527f3ab91e3c2ba71a57537d782545f8feb1d402b604f5e070fa6c3b911fc2f18f7554816000815181106110a7576110a7612aa9565b602002602001018181525050611137565b6110c18561168e565b826000815181106110d4576110d4612aa9565b602002602001019073ffffffffffffffffffffffffffffffffffffffff16908173ffffffffffffffffffffffffffffffffffffffff168152505061111785611706565b8160008151811061112a5761112a612aa9565b6020026020010181815250505b9094909350915050565b7f3f106594dc74eeef980dae234cde8324dc2497b13d27a0c59e55bd2ca10a07c95473ffffffffffffffffffffffffffffffffffffffff163373ffffffffffffffffffffffffffffffffffffffff16146111f7576040517f08c379a000000000000000000000000000000000000000000000000000000000815260206004820152601e60248201527f484f4c4f47524150483a2061646d696e206f6e6c792066756e6374696f6e0000604482015260640161071d565b808260003760008082600034875af13d6000803e808015611217573d6000f35b3d6000fd5b5050505050565b600061069b82612419565b60008061123a8361168e565b905073ffffffffffffffffffffffffffffffffffffffff811661069b577ffd430e1c7265cc31dbd9a10ce657e68878a41cfe179c80cd68c5edf96151684854610de9565b6112866119ba565b6112ec576040517f08c379a000000000000000000000000000000000000000000000000000000000815260206004820152601960248201527f504131443a2063616c6c6572206e6f7420616e206f776e657200000000000000604482015260640161071d565b826000036113495761131c827ffd430e1c7265cc31dbd9a10ce657e68878a41cfe179c80cd68c5edf96151684855565b611344817f3ab91e3c2ba71a57537d782545f8feb1d402b604f5e070fa6c3b911fc2f18f7555565b61135d565b6113538383612449565b61135d83826124c0565b60408051600180825281830190925260009160208083019080368337019050509050828160008151811061139357611393612aa9565b73ffffffffffffffffffffffffffffffffffffffff929092166020928302919091019091015260408051600180825281830190925260009181602001602082028036833701905050905082816000815181106113f1576113f1612aa9565b6020026020010181815250507f99aba1d63749cfd5ad1afda7c4663840924d54eb5f005bbbeadedc6ec13674b285838360405161143093929190612be8565b60405180910390a15050505050565b6114476119ba565b6111f7576040517f08c379a000000000000000000000000000000000000000000000000000000000815260206004820152601960248201527f504131443a2063616c6c6572206e6f7420616e206f776e657200000000000000604482015260640161071d565b6114b56119ba565b61151b576040517f08c379a000000000000000000000000000000000000000000000000000000000815260206004820152601960248201527f504131443a2063616c6c6572206e6f7420616e206f776e657200000000000000604482015260640161071d565b73ffffffffffffffffffffffffffffffffffffffff8116611598576040517f08c379a000000000000000000000000000000000000000000000000000000000815260206004820152601760248201527f484f4c4f47524150483a207a65726f2061646472657373000000000000000000604482015260640161071d565b7fb56711ba6bd3ded7639fc335ee7524fe668a79d7558c85992e3f8494cf77277755565b6000610e1a7f3f106594dc74eeef980dae234cde8324dc2497b13d27a0c59e55bd2ca10a07c95490565b6116236040805160808101825260006060820181815282528251602080820185528282528084019190915283519081018452908152909182015290565b8051600090819052604082015181905261163c8361168e565b73ffffffffffffffffffffffffffffffffffffffff1603611685577f3ab91e3c2ba71a57537d782545f8feb1d402b604f5e070fa6c3b911fc2f18f75545b602082015152919050565b61167a82611706565b60008060016040518060400160405280601f81526020017f656970313936372e486f6c6f67726170682e504131442e726563656976657200815250846040516020016116db929190612c9a565b6040516020818303038152906040528051906020012060001c6116fe9190612cb3565b549392505050565b60008060016040518060400160405280601981526020017f656970313936372e486f6c6f67726170682e504131442e627000000000000000815250846040516020016116db929190612c9a565b61175b6119ba565b6106b15760008061176a612248565b90503360005b82518110156117e0578173ffffffffffffffffffffffffffffffffffffffff168382815181106117a2576117a2612aa9565b602002602001015173ffffffffffffffffffffffffffffffffffffffff16036117ce57600193506117e0565b806117d881612b97565b915050611770565b5082610a45576040517f08c379a000000000000000000000000000000000000000000000000000000000815260206004820152601b60248201527f504131443a2073656e646572206e6f7420617574686f72697a65640000000000604482015260640161071d565b6000611852612248565b9050600061185e612341565b825190915060008161187281615b04612b07565b61187c9190612b7f565b90504761271061188c8383612cb3565b116118f3576040517f08c379a000000000000000000000000000000000000000000000000000000000815260206004820181905260248201527f504131443a204e6f7420656e6f7567682045544820746f207472616e73666572604482015260640161071d565b6118fd8282612cb3565b90506000805b848110156119b1576127108387838151811061192157611921612aa9565b60200260200101516119339190612b07565b61193d9190612b44565b915086818151811061195157611951612aa9565b602002602001015173ffffffffffffffffffffffffffffffffffffffff166108fc839081150290604051600060405180830381858888f1935050505015801561199e573d6000803e3d6000fd5b50806119a981612b97565b915050611903565b50505050505050565b60006119e47fb56711ba6bd3ded7639fc335ee7524fe668a79d7558c85992e3f8494cf7727775490565b73ffffffffffffffffffffffffffffffffffffffff163373ffffffffffffffffffffffffffffffffffffffff161480611a6957507f3f106594dc74eeef980dae234cde8324dc2497b13d27a0c59e55bd2ca10a07c95473ffffffffffffffffffffffffffffffffffffffff163373ffffffffffffffffffffffffffffffffffffffff16145b80610e1a57503073ffffffffffffffffffffffffffffffffffffffff16636faf275b6040518163ffffffff1660e01b8152600401602060405180830381865afa158015611aba573d6000803e3d6000fd5b505050506040513d601f19601f82011682018060405250810190611ade9190612cca565b73ffffffffffffffffffffffffffffffffffffffff16638da5cb5b6040518163ffffffff1660e01b8152600401602060405180830381865afa158015611b28573d6000803e3d6000fd5b505050506040513d601f19601f82011682018060405250810190611b4c9190612cca565b73ffffffffffffffffffffffffffffffffffffffff163373ffffffffffffffffffffffffffffffffffffffff1614905090565b6000611b89612248565b90506000611b95612341565b82516040517f70a0823100000000000000000000000000000000000000000000000000000000815230600482015291925090849060009073ffffffffffffffffffffffffffffffffffffffff8316906370a0823190602401602060405180830381865afa158015611c0a573d6000803e3d6000fd5b505050506040513d601f19601f82011682018060405250810190611c2e9190612bcf565b90506127108111611cc1576040517f08c379a000000000000000000000000000000000000000000000000000000000815260206004820152602360248201527f504131443a204e6f7420656e6f75676820746f6b656e7320746f207472616e7360448201527f6665720000000000000000000000000000000000000000000000000000000000606482015260840161071d565b6000805b84811015611e315761271083878381518110611ce357611ce3612aa9565b6020026020010151611cf59190612b07565b611cff9190612b44565b91508373ffffffffffffffffffffffffffffffffffffffff1663a9059cbb888381518110611d2f57611d2f612aa9565b6020026020010151846040518363ffffffff1660e01b8152600401611d7692919073ffffffffffffffffffffffffffffffffffffffff929092168252602082015260400190565b6020604051808303816000875af1158015611d95573d6000803e3d6000fd5b505050506040513d601f19601f82011682018060405250810190611db99190612ce7565b611e1f576040517f08c379a000000000000000000000000000000000000000000000000000000000815260206004820152601d60248201527f504131443a20436f756c646e2774207472616e7366657220746f6b656e000000604482015260640161071d565b80611e2981612b97565b915050611cc5565b5050505050505050565b6000611e45612248565b90506000611e51612341565b905060008080805b86518110156119b157868181518110611e7457611e74612aa9565b60209081029190910101516040517f70a0823100000000000000000000000000000000000000000000000000000000815230600482015290945073ffffffffffffffffffffffffffffffffffffffff8516906370a0823190602401602060405180830381865afa158015611eec573d6000803e3d6000fd5b505050506040513d601f19601f82011682018060405250810190611f109190612bcf565b92506127108311611fa3576040517f08c379a000000000000000000000000000000000000000000000000000000000815260206004820152602360248201527f504131443a204e6f7420656e6f75676820746f6b656e7320746f207472616e7360448201527f6665720000000000000000000000000000000000000000000000000000000000606482015260840161071d565b60005b86518110156121135761271084878381518110611fc557611fc5612aa9565b6020026020010151611fd79190612b07565b611fe19190612b44565b92508473ffffffffffffffffffffffffffffffffffffffff1663a9059cbb88838151811061201157612011612aa9565b6020026020010151856040518363ffffffff1660e01b815260040161205892919073ffffffffffffffffffffffffffffffffffffffff929092168252602082015260400190565b6020604051808303816000875af1158015612077573d6000803e3d6000fd5b505050506040513d601f19601f8201168201806040525081019061209b9190612ce7565b612101576040517f08c379a000000000000000000000000000000000000000000000000000000000815260206004820152601d60248201527f504131443a20436f756c646e2774207472616e7366657220746f6b656e000000604482015260640161071d565b8061210b81612b97565b915050611fa6565b508061211e81612b97565b915050611e59565b80517f700a541bc37f227b0d36d34e7b77cc0108bde768297c6f80f448f380387371df818155906000805b8281101561121c57604080516020810183905290810185905260600160405160208183030381529060405280519060200120935084818151811061219757612197612aa9565b6020026020010151915081845580806121af90612b97565b915050612151565b80517f7a62e8104cd2cc2ef6bd3a26bcb71428108fbe0e0ead6a5bfb8676781e2ed28d818155906000805b8281101561121c57604080516020810183905290810185905260600160405160208183030381529060405280519060200120935084818151811061222857612228612aa9565b60200260200101519150818455808061224090612b97565b9150506121e2565b7f700a541bc37f227b0d36d34e7b77cc0108bde768297c6f80f448f380387371df8054606091908067ffffffffffffffff811115612288576122886125b2565b6040519080825280602002602001820160405280156122b1578160200160208202803683370190505b5092506000805b8281101561233a576040805160208101839052908101859052606001604051602081830303815290604052805190602001209350835491508185828151811061230357612303612aa9565b73ffffffffffffffffffffffffffffffffffffffff909216602092830291909101909101528061233281612b97565b9150506122b8565b5050505090565b7f7a62e8104cd2cc2ef6bd3a26bcb71428108fbe0e0ead6a5bfb8676781e2ed28d8054606091908067ffffffffffffffff811115612381576123816125b2565b6040519080825280602002602001820160405280156123aa578160200160208202803683370190505b5092506000805b8281101561233a57604080516020810183905290810185905260600160405160208183030381529060405280519060200120935083549150818582815181106123fc576123fc612aa9565b60209081029190910101528061241181612b97565b9150506123b1565b6000806001604051806060016040528060238152602001612d1f60239139846040516020016116db929190612d09565b600060016040518060400160405280601f81526020017f656970313936372e486f6c6f67726170682e504131442e72656365697665720081525084604051602001612495929190612c9a565b6040516020818303038152906040528051906020012060001c6124b89190612cb3565b919091555050565b600060016040518060400160405280601981526020017f656970313936372e486f6c6f67726170682e504131442e62700000000000000081525084604051602001612495929190612c9a565b60006020828403121561251e57600080fd5b5035919050565b600081518084526020808501945080840160005b8381101561255557815187529582019590820190600101612539565b509495945050505050565b602081526000610de96020830184612525565b73ffffffffffffffffffffffffffffffffffffffff811681146107e457600080fd5b6000602082840312156125a757600080fd5b8135610de981612573565b7f4e487b7100000000000000000000000000000000000000000000000000000000600052604160045260246000fd5b604051601f82017fffffffffffffffffffffffffffffffffffffffffffffffffffffffffffffffe016810167ffffffffffffffff81118282101715612628576126286125b2565b604052919050565b600067ffffffffffffffff82111561264a5761264a6125b2565b5060051b60200190565b6000602080838503121561266757600080fd5b823567ffffffffffffffff81111561267e57600080fd5b8301601f8101851361268f57600080fd5b80356126a261269d82612630565b6125e1565b81815260059190911b820183019083810190878311156126c157600080fd5b928401925b828410156126e85783356126d981612573565b825292840192908401906126c6565b979650505050505050565b6000806040838503121561270657600080fd5b50508035926020909101359150565b600082601f83011261272657600080fd5b8135602061273661269d83612630565b82815260059290921b8401810191818101908684111561275557600080fd5b8286015b848110156127705780358352918301918301612759565b509695505050505050565b6000806040838503121561278e57600080fd5b823567ffffffffffffffff808211156127a657600080fd5b818501915085601f8301126127ba57600080fd5b813560206127ca61269d83612630565b82815260059290921b840181019181810190898411156127e957600080fd5b948201945b8386101561281057853561280181612573565b825294820194908201906127ee565b9650508601359250508082111561282657600080fd5b5061283385828601612715565b9150509250929050565b600067ffffffffffffffff831115612857576128576125b2565b61288860207fffffffffffffffffffffffffffffffffffffffffffffffffffffffffffffffe0601f860116016125e1565b905082815283838301111561289c57600080fd5b828260208301376000602084830101529392505050565b6000602082840312156128c557600080fd5b813567ffffffffffffffff8111156128dc57600080fd5b8201601f810184136128ed57600080fd5b6128fc8482356020840161283d565b949350505050565b60008060006060848603121561291957600080fd5b833561292481612573565b95602085013595506040909401359392505050565b600081518084526020808501945080840160005b8381101561255557815173ffffffffffffffffffffffffffffffffffffffff168752958201959082019060010161294d565b6040815260006129926040830185612939565b82810360208401526129a48185612525565b95945050505050565b600080604083850312156129c057600080fd5b82356129cb81612573565b946020939093013593505050565b602081526000610de96020830184612939565b600080600060408486031215612a0157600080fd5b8335612a0c81612573565b9250602084013567ffffffffffffffff80821115612a2957600080fd5b818601915086601f830112612a3d57600080fd5b813581811115612a4c57600080fd5b876020828501011115612a5e57600080fd5b6020830194508093505050509250925092565b600080600060608486031215612a8657600080fd5b833592506020840135612a9881612573565b929592945050506040919091013590565b7f4e487b7100000000000000000000000000000000000000000000000000000000600052603260045260246000fd5b7f4e487b7100000000000000000000000000000000000000000000000000000000600052601160045260246000fd5b6000817fffffffffffffffffffffffffffffffffffffffffffffffffffffffffffffffff0483118215151615612b3f57612b3f612ad8565b500290565b600082612b7a577f4e487b7100000000000000000000000000000000000000000000000000000000600052601260045260246000fd5b500490565b60008219821115612b9257612b92612ad8565b500190565b60007fffffffffffffffffffffffffffffffffffffffffffffffffffffffffffffffff8203612bc857612bc8612ad8565b5060010190565b600060208284031215612be157600080fd5b5051919050565b6000606082018583526020606081850152818651808452608086019150828801935060005b81811015612c3f57845173ffffffffffffffffffffffffffffffffffffffff1683529383019391830191600101612c0d565b50508481036040860152612c538187612525565b98975050505050505050565b6000815160005b81811015612c805760208185018101518683015201612c66565b81811115612c8f576000828601525b509290920192915050565b6000612ca68285612c5f565b9283525050602001919050565b600082821015612cc557612cc5612ad8565b500390565b600060208284031215612cdc57600080fd5b8151610de981612573565b600060208284031215612cf957600080fd5b81518015158114610de957600080fd5b60006128fc612d188386612c5f565b84612c5f56fe656970313936372e486f6c6f67726170682e504131442e746f6b656e41646472657373a164736f6c634300080d000a",
  "devdoc": {
    "author": "CXIP-Labs",
    "details": "This smart contract is not intended to be used directly. Apply it to any of your ERC721 or ERC1155 smart contracts through a delegatecall fallback.",
    "events": {
      "SecondarySaleFees(uint256,address[],uint256[])": {
        "details": "Emits event in order to comply with Rarible V1 royalty spec.",
        "params": {
          "bps": "Uint256 array of base points(percentages) that each wallet(specified in recipients) will receive from the royalty payouts. Make sure that all the base points add up to a total of 10000.",
          "recipients": "Address array of wallets that will receive tha royalties.",
          "tokenId": "Specific token id for which royalty info is being set, set as 0 for all tokens inside of the smart contract."
        }
      }
    },
    "kind": "dev",
    "methods": {
      "configurePayouts(address[],uint256[])": {
        "details": "Function can only we called by owner, admin, or identity wallet.Addresses and bps arrays must be equal length. Bps values added together must equal 10000 exactly.",
        "params": {
          "addresses": "An array of all the addresses that will be receiving royalty payouts.",
          "bps": "An array of the percentages that each address will receive from the royalty payouts."
        }
      },
      "constructor": {
        "details": "Constructor is left empty and init is used instead"
      },
      "getEthPayout()": {
        "details": "Distribute all the ETH(minus gas fees) to payout recipients."
      },
      "getPayoutInfo()": {
        "details": "These are the recipients that will be getting royalty payouts.",
        "returns": {
          "addresses": "An array of all the addresses that will be receiving royalty payouts.",
          "bps": "An array of the percentages that each address will receive from the royalty payouts."
        }
      },
      "getSourceContract()": {
        "details": "This is here in place to prevent reverts in case contract is used outside of the protocol."
      },
      "getTokenAddress(string)": {
        "details": "Used only to identify really major/common tokens. Avoid using due to gas usages.",
        "params": {
          "tokenName": "The ticker symbol of the token. For example \"USDC\" or \"DAI\"."
        },
        "returns": {
          "_0": "The smart contract address of the token ticker symbol. Or zero address if not found."
        }
      },
      "getTokenPayout(address)": {
        "details": "Contract owner, admin, identity wallet, and payout recipients can call this function.",
        "params": {
          "tokenAddress": "An address of the token for which to issue payouts for."
        }
      },
      "getTokensPayout(address[])": {
        "details": "Each token balance must be equal or greater than 10000. Otherwise calculating BP is difficult.",
        "params": {
          "tokenAddresses": "An address array of tokens to issue payouts for."
        }
      },
      "init(bytes)": {
        "details": "This function is called by the deployer/factory when creating a contract",
        "params": {
          "initPayload": "abi encoded payload to use for contract initilaization"
        }
      },
      "setRoyalties(uint256,address,uint256)": {
        "details": "Take great care to not make this function accessible by other public functions in your overlying smart contract.",
        "params": {
          "bp": "Uint256 of royalty percentage, provided in base points format.",
          "receiver": "Wallet or smart contract that will receive the royalty payouts.",
          "tokenId": "Set a specific token id, or leave at 0 to set as default parameters."
        }
      }
    },
    "stateVariables": {
      "_defaultBpSlot": {
        "details": "bytes32(uint256(keccak256('eip1967.Holograph.PA1D.defaultBp')) - 1)"
      },
      "_defaultReceiverSlot": {
        "details": "bytes32(uint256(keccak256('eip1967.Holograph.PA1D.defaultReceiver')) - 1)"
      },
      "_initializedPaidSlot": {
        "details": "bytes32(uint256(keccak256('eip1967.Holograph.PA1D.initialized')) - 1)"
      },
      "_payoutAddressesSlot": {
        "details": "bytes32(uint256(keccak256('eip1967.Holograph.PA1D.payout.addresses')) - 1)"
      },
      "_payoutBpsSlot": {
        "details": "bytes32(uint256(keccak256('eip1967.Holograph.PA1D.payout.bps')) - 1)"
      }
    },
    "title": "PA1D (CXIP)",
    "version": 1
  },
  "userdoc": {
    "events": {
      "SecondarySaleFees(uint256,address[],uint256[])": {
        "notice": "Event emitted when setting/updating royalty info/fees. This is used by Rarible V1."
      }
    },
    "kind": "user",
    "methods": {
      "configurePayouts(address[],uint256[])": {
        "notice": "Set the wallets and percentages for royalty payouts."
      },
      "getEthPayout()": {
        "notice": "Get payout of all ETH in smart contract."
      },
      "getPayoutInfo()": {
        "notice": "Show the wallets and percentages of payout recipients."
      },
      "getTokenAddress(string)": {
        "notice": "Get the smart contract address of a token by common name."
      },
      "getTokenPayout(address)": {
        "notice": "Get payout for a specific token address. Token must have a positive balance!"
      },
      "getTokensPayout(address[])": {
        "notice": "Get payouts for tokens listed by address. Tokens must have a positive balance!"
      },
      "init(bytes)": {
        "notice": "Used internally to initialize the contract instead of through a constructor"
      },
      "setRoyalties(uint256,address,uint256)": {
        "notice": "Set the royalty information for entire contract, or a specific token."
      }
    },
    "notice": "A smart contract for providing royalty info, collecting royalties, and distributing it to configured payout wallets.",
    "version": 1
  },
  "storageLayout": {
    "storage": [],
    "types": null
  }
}