{
  "address": "0x9A13F95f7BFbd5Cf2414c817BbC44917D330C476",
  "abi": [
    {
      "inputs": [],
      "stateMutability": "nonpayable",
      "type": "constructor"
    },
    {
      "anonymous": false,
      "inputs": [
        {
          "indexed": true,
          "internalType": "address",
          "name": "_owner",
          "type": "address"
        },
        {
          "indexed": true,
          "internalType": "address",
          "name": "_spender",
          "type": "address"
        },
        {
          "indexed": false,
          "internalType": "uint256",
          "name": "_value",
          "type": "uint256"
        }
      ],
      "name": "Approval",
      "type": "event"
    },
    {
      "anonymous": false,
      "inputs": [
        {
          "indexed": true,
          "internalType": "address",
          "name": "previousOwner",
          "type": "address"
        },
        {
          "indexed": true,
          "internalType": "address",
          "name": "newOwner",
          "type": "address"
        }
      ],
      "name": "OwnershipTransferred",
      "type": "event"
    },
    {
      "anonymous": false,
      "inputs": [
        {
          "indexed": true,
          "internalType": "address",
          "name": "_from",
          "type": "address"
        },
        {
          "indexed": true,
          "internalType": "address",
          "name": "_to",
          "type": "address"
        },
        {
          "indexed": false,
          "internalType": "uint256",
          "name": "_value",
          "type": "uint256"
        }
      ],
      "name": "Transfer",
      "type": "event"
    },
    {
      "stateMutability": "payable",
      "type": "fallback"
    },
    {
      "inputs": [],
      "name": "DOMAIN_SEPARATOR",
      "outputs": [
        {
          "internalType": "bytes32",
          "name": "",
          "type": "bytes32"
        }
      ],
      "stateMutability": "view",
      "type": "function"
    },
    {
      "inputs": [],
      "name": "admin",
      "outputs": [
        {
          "internalType": "address",
          "name": "",
          "type": "address"
        }
      ],
      "stateMutability": "view",
      "type": "function"
    },
    {
      "inputs": [
        {
          "internalType": "address",
          "name": "target",
          "type": "address"
        },
        {
          "internalType": "bytes",
          "name": "data",
          "type": "bytes"
        }
      ],
      "name": "adminCall",
      "outputs": [],
      "stateMutability": "payable",
      "type": "function"
    },
    {
      "inputs": [
        {
          "internalType": "address",
          "name": "account",
          "type": "address"
        },
        {
          "internalType": "address",
          "name": "spender",
          "type": "address"
        }
      ],
      "name": "allowance",
      "outputs": [
        {
          "internalType": "uint256",
          "name": "",
          "type": "uint256"
        }
      ],
      "stateMutability": "view",
      "type": "function"
    },
    {
      "inputs": [
        {
          "internalType": "address",
          "name": "spender",
          "type": "address"
        },
        {
          "internalType": "uint256",
          "name": "amount",
          "type": "uint256"
        }
      ],
      "name": "approve",
      "outputs": [
        {
          "internalType": "bool",
          "name": "",
          "type": "bool"
        }
      ],
      "stateMutability": "nonpayable",
      "type": "function"
    },
    {
      "inputs": [
        {
          "internalType": "address",
          "name": "account",
          "type": "address"
        }
      ],
      "name": "balanceOf",
      "outputs": [
        {
          "internalType": "uint256",
          "name": "",
          "type": "uint256"
        }
      ],
      "stateMutability": "view",
      "type": "function"
    },
    {
      "inputs": [
        {
          "internalType": "uint32",
          "name": "fromChain",
          "type": "uint32"
        },
        {
          "internalType": "bytes",
          "name": "payload",
          "type": "bytes"
        }
      ],
      "name": "bridgeIn",
      "outputs": [
        {
          "internalType": "bytes4",
          "name": "",
          "type": "bytes4"
        }
      ],
      "stateMutability": "nonpayable",
      "type": "function"
    },
    {
      "inputs": [
        {
          "internalType": "uint32",
          "name": "toChain",
          "type": "uint32"
        },
        {
          "internalType": "address",
          "name": "sender",
          "type": "address"
        },
        {
          "internalType": "bytes",
          "name": "payload",
          "type": "bytes"
        }
      ],
      "name": "bridgeOut",
      "outputs": [
        {
          "internalType": "bytes4",
          "name": "selector",
          "type": "bytes4"
        },
        {
          "internalType": "bytes",
          "name": "data",
          "type": "bytes"
        }
      ],
      "stateMutability": "nonpayable",
      "type": "function"
    },
    {
      "inputs": [
        {
          "internalType": "uint256",
          "name": "amount",
          "type": "uint256"
        }
      ],
      "name": "burn",
      "outputs": [],
      "stateMutability": "nonpayable",
      "type": "function"
    },
    {
      "inputs": [
        {
          "internalType": "address",
          "name": "account",
          "type": "address"
        },
        {
          "internalType": "uint256",
          "name": "amount",
          "type": "uint256"
        }
      ],
      "name": "burnFrom",
      "outputs": [
        {
          "internalType": "bool",
          "name": "",
          "type": "bool"
        }
      ],
      "stateMutability": "nonpayable",
      "type": "function"
    },
    {
      "inputs": [],
      "name": "decimals",
      "outputs": [
        {
          "internalType": "uint8",
          "name": "",
          "type": "uint8"
        }
      ],
      "stateMutability": "view",
      "type": "function"
    },
    {
      "inputs": [
        {
          "internalType": "address",
          "name": "spender",
          "type": "address"
        },
        {
          "internalType": "uint256",
          "name": "subtractedValue",
          "type": "uint256"
        }
      ],
      "name": "decreaseAllowance",
      "outputs": [
        {
          "internalType": "bool",
          "name": "",
          "type": "bool"
        }
      ],
      "stateMutability": "nonpayable",
      "type": "function"
    },
    {
      "inputs": [],
      "name": "getAdmin",
      "outputs": [
        {
          "internalType": "address",
          "name": "adminAddress",
          "type": "address"
        }
      ],
      "stateMutability": "view",
      "type": "function"
    },
    {
      "inputs": [],
      "name": "getContractType",
      "outputs": [
        {
          "internalType": "bytes32",
          "name": "contractType",
          "type": "bytes32"
        }
      ],
      "stateMutability": "view",
      "type": "function"
    },
    {
      "inputs": [],
      "name": "getOwner",
      "outputs": [
        {
          "internalType": "address",
          "name": "ownerAddress",
          "type": "address"
        }
      ],
      "stateMutability": "view",
      "type": "function"
    },
    {
      "inputs": [
        {
          "internalType": "address",
          "name": "to",
          "type": "address"
        },
        {
          "internalType": "uint256",
          "name": "amount",
          "type": "uint256"
        }
      ],
      "name": "holographBridgeMint",
      "outputs": [
        {
          "internalType": "bytes4",
          "name": "",
          "type": "bytes4"
        }
      ],
      "stateMutability": "nonpayable",
      "type": "function"
    },
    {
      "inputs": [
        {
          "internalType": "address",
          "name": "spender",
          "type": "address"
        },
        {
          "internalType": "uint256",
          "name": "addedValue",
          "type": "uint256"
        }
      ],
      "name": "increaseAllowance",
      "outputs": [
        {
          "internalType": "bool",
          "name": "",
          "type": "bool"
        }
      ],
      "stateMutability": "nonpayable",
      "type": "function"
    },
    {
      "inputs": [
        {
          "internalType": "bytes",
          "name": "initPayload",
          "type": "bytes"
        }
      ],
      "name": "init",
      "outputs": [
        {
          "internalType": "bytes4",
          "name": "",
          "type": "bytes4"
        }
      ],
      "stateMutability": "nonpayable",
      "type": "function"
    },
    {
      "inputs": [],
      "name": "name",
      "outputs": [
        {
          "internalType": "string",
          "name": "",
          "type": "string"
        }
      ],
      "stateMutability": "view",
      "type": "function"
    },
    {
      "inputs": [
        {
          "internalType": "address",
          "name": "account",
          "type": "address"
        }
      ],
      "name": "nonces",
      "outputs": [
        {
          "internalType": "uint256",
          "name": "",
          "type": "uint256"
        }
      ],
      "stateMutability": "view",
      "type": "function"
    },
    {
      "inputs": [
        {
          "internalType": "address",
          "name": "account",
          "type": "address"
        },
        {
          "internalType": "address",
          "name": "sender",
          "type": "address"
        },
        {
          "internalType": "uint256",
          "name": "amount",
          "type": "uint256"
        },
        {
          "internalType": "bytes",
          "name": "data",
          "type": "bytes"
        }
      ],
      "name": "onERC20Received",
      "outputs": [
        {
          "internalType": "bytes4",
          "name": "",
          "type": "bytes4"
        }
      ],
      "stateMutability": "nonpayable",
      "type": "function"
    },
    {
      "inputs": [],
      "name": "owner",
      "outputs": [
        {
          "internalType": "address",
          "name": "",
          "type": "address"
        }
      ],
      "stateMutability": "view",
      "type": "function"
    },
    {
      "inputs": [
        {
          "internalType": "address",
          "name": "target",
          "type": "address"
        },
        {
          "internalType": "bytes",
          "name": "data",
          "type": "bytes"
        }
      ],
      "name": "ownerCall",
      "outputs": [],
      "stateMutability": "payable",
      "type": "function"
    },
    {
      "inputs": [
        {
          "internalType": "address",
          "name": "account",
          "type": "address"
        },
        {
          "internalType": "address",
          "name": "spender",
          "type": "address"
        },
        {
          "internalType": "uint256",
          "name": "amount",
          "type": "uint256"
        },
        {
          "internalType": "uint256",
          "name": "deadline",
          "type": "uint256"
        },
        {
          "internalType": "uint8",
          "name": "v",
          "type": "uint8"
        },
        {
          "internalType": "bytes32",
          "name": "r",
          "type": "bytes32"
        },
        {
          "internalType": "bytes32",
          "name": "s",
          "type": "bytes32"
        }
      ],
      "name": "permit",
      "outputs": [],
      "stateMutability": "nonpayable",
      "type": "function"
    },
    {
      "inputs": [
        {
          "internalType": "address",
          "name": "recipient",
          "type": "address"
        },
        {
          "internalType": "uint256",
          "name": "amount",
          "type": "uint256"
        }
      ],
      "name": "safeTransfer",
      "outputs": [
        {
          "internalType": "bool",
          "name": "",
          "type": "bool"
        }
      ],
      "stateMutability": "nonpayable",
      "type": "function"
    },
    {
      "inputs": [
        {
          "internalType": "address",
          "name": "recipient",
          "type": "address"
        },
        {
          "internalType": "uint256",
          "name": "amount",
          "type": "uint256"
        },
        {
          "internalType": "bytes",
          "name": "data",
          "type": "bytes"
        }
      ],
      "name": "safeTransfer",
      "outputs": [
        {
          "internalType": "bool",
          "name": "",
          "type": "bool"
        }
      ],
      "stateMutability": "nonpayable",
      "type": "function"
    },
    {
      "inputs": [
        {
          "internalType": "address",
          "name": "account",
          "type": "address"
        },
        {
          "internalType": "address",
          "name": "recipient",
          "type": "address"
        },
        {
          "internalType": "uint256",
          "name": "amount",
          "type": "uint256"
        }
      ],
      "name": "safeTransferFrom",
      "outputs": [
        {
          "internalType": "bool",
          "name": "",
          "type": "bool"
        }
      ],
      "stateMutability": "nonpayable",
      "type": "function"
    },
    {
      "inputs": [
        {
          "internalType": "address",
          "name": "account",
          "type": "address"
        },
        {
          "internalType": "address",
          "name": "recipient",
          "type": "address"
        },
        {
          "internalType": "uint256",
          "name": "amount",
          "type": "uint256"
        },
        {
          "internalType": "bytes",
          "name": "data",
          "type": "bytes"
        }
      ],
      "name": "safeTransferFrom",
      "outputs": [
        {
          "internalType": "bool",
          "name": "",
          "type": "bool"
        }
      ],
      "stateMutability": "nonpayable",
      "type": "function"
    },
    {
      "inputs": [
        {
          "internalType": "address",
          "name": "adminAddress",
          "type": "address"
        }
      ],
      "name": "setAdmin",
      "outputs": [],
      "stateMutability": "nonpayable",
      "type": "function"
    },
    {
      "inputs": [
        {
          "internalType": "address",
          "name": "ownerAddress",
          "type": "address"
        }
      ],
      "name": "setOwner",
      "outputs": [],
      "stateMutability": "nonpayable",
      "type": "function"
    },
    {
      "inputs": [
        {
          "internalType": "address",
          "name": "from",
          "type": "address"
        },
        {
          "internalType": "uint256",
          "name": "amount",
          "type": "uint256"
        }
      ],
      "name": "sourceBurn",
      "outputs": [],
      "stateMutability": "nonpayable",
      "type": "function"
    },
    {
      "inputs": [
        {
          "internalType": "address",
          "name": "to",
          "type": "address"
        },
        {
          "internalType": "uint256",
          "name": "amount",
          "type": "uint256"
        }
      ],
      "name": "sourceMint",
      "outputs": [],
      "stateMutability": "nonpayable",
      "type": "function"
    },
    {
      "inputs": [
        {
          "internalType": "address[]",
          "name": "wallets",
          "type": "address[]"
        },
        {
          "internalType": "uint256[]",
          "name": "amounts",
          "type": "uint256[]"
        }
      ],
      "name": "sourceMintBatch",
      "outputs": [],
      "stateMutability": "nonpayable",
      "type": "function"
    },
    {
      "inputs": [
        {
          "internalType": "address",
          "name": "from",
          "type": "address"
        },
        {
          "internalType": "address",
          "name": "to",
          "type": "address"
        },
        {
          "internalType": "uint256",
          "name": "amount",
          "type": "uint256"
        }
      ],
      "name": "sourceTransfer",
      "outputs": [],
      "stateMutability": "nonpayable",
      "type": "function"
    },
    {
      "inputs": [
        {
          "internalType": "bytes4",
          "name": "interfaceId",
          "type": "bytes4"
        }
      ],
      "name": "supportsInterface",
      "outputs": [
        {
          "internalType": "bool",
          "name": "",
          "type": "bool"
        }
      ],
      "stateMutability": "view",
      "type": "function"
    },
    {
      "inputs": [],
      "name": "symbol",
      "outputs": [
        {
          "internalType": "string",
          "name": "",
          "type": "string"
        }
      ],
      "stateMutability": "view",
      "type": "function"
    },
    {
      "inputs": [],
      "name": "totalSupply",
      "outputs": [
        {
          "internalType": "uint256",
          "name": "",
          "type": "uint256"
        }
      ],
      "stateMutability": "view",
      "type": "function"
    },
    {
      "inputs": [
        {
          "internalType": "address",
          "name": "recipient",
          "type": "address"
        },
        {
          "internalType": "uint256",
          "name": "amount",
          "type": "uint256"
        }
      ],
      "name": "transfer",
      "outputs": [
        {
          "internalType": "bool",
          "name": "",
          "type": "bool"
        }
      ],
      "stateMutability": "nonpayable",
      "type": "function"
    },
    {
      "inputs": [
        {
          "internalType": "address",
          "name": "account",
          "type": "address"
        },
        {
          "internalType": "address",
          "name": "recipient",
          "type": "address"
        },
        {
          "internalType": "uint256",
          "name": "amount",
          "type": "uint256"
        }
      ],
      "name": "transferFrom",
      "outputs": [
        {
          "internalType": "bool",
          "name": "",
          "type": "bool"
        }
      ],
      "stateMutability": "nonpayable",
      "type": "function"
    },
    {
      "inputs": [
        {
          "internalType": "address",
          "name": "newOwner",
          "type": "address"
        }
      ],
      "name": "transferOwnership",
      "outputs": [],
      "stateMutability": "nonpayable",
      "type": "function"
    },
    {
      "stateMutability": "payable",
      "type": "receive"
    }
  ],
  "transactionHash": "0xb8758b4466f9e88a94b1673d6aeb871011706084d180fecd449d5570628ec2fb",
  "args": [],
  "numDeployments": 1,
  "solcInputHash": "9360b78c07e2381459f9db79a3ffb2bd",
  "bytecode": "0x608060405234801561001057600080fd5b5061598b80620000216000396000f3fe6080604052600436106102bf5760003560e01c806370a082311161016e578063b88d4fde116100cb578063eb66dbcf1161007f578063f2fde38b11610064578063f2fde38b146108a6578063f851a440146108c6578063fad66f92146108db576102c6565b8063eb66dbcf14610873578063eb79554914610886576102c6565b8063c51a29e0116100b0578063c51a29e0146107cc578063d505accf14610800578063dd62ed3e14610820576102c6565b8063b88d4fde14610799578063bf64a82d146107b9576102c6565b806395d89b4111610122578063a8eb29c911610107578063a8eb29c91461072b578063a9059cbb1461074b578063b7e036611461076b576102c6565b806395d89b41146106f6578063a457c2d71461070b576102c6565b80637ecebe00116101535780637ecebe001461066a578063893d20e8146106ad5780638da5cb5b146106e1576102c6565b806370a082311461060757806379cc67901461064a576102c6565b80633644e5151161021c5780634ddf47d4116101d057806366bd3d45116101b557806366bd3d45146105725780636e9960c314610592578063704b6c02146105e7576102c6565b80634ddf47d4146105325780634fc3585914610552576102c6565b8063423f6cef11610201578063423f6cef146104d257806342842e0e146104f257806342966c6814610512576102c6565b80633644e5151461049d57806339509351146104b2576102c6565b80630d5e2c1d1161027357806318160ddd1161025857806318160ddd1461043c57806323b872dd1461045b578063313ce5671461047b576102c6565b80630d5e2c1d146103fc57806313af40351461041c576102c6565b806308a1eb20116102a457806308a1eb201461036b578063095ea7b3146103bc5780630d3ada54146103dc576102c6565b806301ffc9a71461031457806306fdde0314610349576102c6565b366102c657005b3660008037333652600080602036016000347f27d542086d1e831d40b749e7f5509a626c3047a36d160781c40d5acc83e5b074545af13d6000803e80801561030d573d6000f35b3d6000fd5b005b34801561032057600080fd5b5061033461032f366004614de1565b6108fb565b60405190151581526020015b60405180910390f35b34801561035557600080fd5b5061035e610a91565b6040516103409190614e74565b34801561037757600080fd5b5061038b610386366004614ee9565b610b23565b6040517fffffffff000000000000000000000000000000000000000000000000000000009091168152602001610340565b3480156103c857600080fd5b506103346103d7366004614f5e565b610dbe565b3480156103e857600080fd5b506103126103f7366004614fcf565b610f8a565b34801561040857600080fd5b50610312610417366004614f5e565b611098565b34801561042857600080fd5b5061031261043736600461503b565b611148565b34801561044857600080fd5b506009545b604051908152602001610340565b34801561046757600080fd5b50610334610476366004615058565b6112ab565b34801561048757600080fd5b50600c5460405160ff9091168152602001610340565b3480156104a957600080fd5b5061044d6116f6565b3480156104be57600080fd5b506103346104cd366004614f5e565b611705565b3480156104de57600080fd5b506103346104ed366004614f5e565b61196f565b3480156104fe57600080fd5b5061033461050d366004615058565b611992565b34801561051e57600080fd5b5061031261052d366004615099565b6119b7565b34801561053e57600080fd5b5061038b61054d3660046151cc565b611b6a565b34801561055e57600080fd5b5061038b61056d366004615201565b611e7d565b34801561057e57600080fd5b5061031261058d366004614f5e565b61220c565b34801561059e57600080fd5b507f3f106594dc74eeef980dae234cde8324dc2497b13d27a0c59e55bd2ca10a07c9545b60405173ffffffffffffffffffffffffffffffffffffffff9091168152602001610340565b3480156105f357600080fd5b5061031261060236600461503b565b6122b7565b34801561061357600080fd5b5061044d61062236600461503b565b73ffffffffffffffffffffffffffffffffffffffff1660009081526007602052604090205490565b34801561065657600080fd5b50610334610665366004614f5e565b612391565b34801561067657600080fd5b5061044d61068536600461503b565b73ffffffffffffffffffffffffffffffffffffffff166000908152600d602052604090205490565b3480156106b957600080fd5b507fb56711ba6bd3ded7639fc335ee7524fe668a79d7558c85992e3f8494cf772777546105c2565b3480156106ed57600080fd5b506105c26125e8565b34801561070257600080fd5b5061035e612684565b34801561071757600080fd5b50610334610726366004614f5e565b612693565b34801561073757600080fd5b50610312610746366004615058565b61273b565b34801561075757600080fd5b50610334610766366004614f5e565b6127ed565b34801561077757600080fd5b5061078b610786366004615274565b612968565b6040516103409291906152cb565b3480156107a557600080fd5b506103346107b4366004615306565b612d1d565b6103126107c7366004615372565b613140565b3480156107d857600080fd5b507f0b671eb65810897366dd82c4cbb7d9dff8beda8484194956e81e89b8a361d9c75461044d565b34801561080c57600080fd5b5061031261081b3660046153a1565b613216565b34801561082c57600080fd5b5061044d61083b366004615412565b73ffffffffffffffffffffffffffffffffffffffff918216600090815260086020908152604080832093909416825291909152205490565b610312610881366004615372565b61358f565b34801561089257600080fd5b506103346108a136600461544b565b613645565b3480156108b257600080fd5b506103126108c136600461503b565b6137ee565b3480156108d257600080fd5b506105c2613945565b3480156108e757600080fd5b5061038b6108f6366004614f5e565b61396f565b600080610906613acd565b7f27d542086d1e831d40b749e7f5509a626c3047a36d160781c40d5acc83e5b074546040517f9fe7303f0000000000000000000000000000000000000000000000000000000081529192509073ffffffffffffffffffffffffffffffffffffffff831690639fe7303f906109819060019088906004016154d3565b602060405180830381865afa15801561099e573d6000803e3d6000fd5b505050506040513d601f19601f820116820180604052508101906109c2919061554f565b80610a7857506040517f01ffc9a70000000000000000000000000000000000000000000000000000000081527fffffffff000000000000000000000000000000000000000000000000000000008516600482015273ffffffffffffffffffffffffffffffffffffffff8216906301ffc9a790602401602060405180830381865afa158015610a54573d6000803e3d6000fd5b505050506040513d601f19601f82011682018060405250810190610a78919061554f565b15610a87575060019392505050565b5060009392505050565b6060600a8054610aa09061556a565b80601f0160208091040260200160405190810160405280929190818152602001828054610acc9061556a565b8015610b195780601f10610aee57610100808354040283529160200191610b19565b820191906000526020600020905b815481529060010190602001808311610afc57829003601f168201915b5050505050905090565b6000610b4d7fb4107f746e9496e8452accc7de63d1c5e14c19f510932daa04077cd49e8bd77a5490565b73ffffffffffffffffffffffffffffffffffffffff16630fffbaf36040518163ffffffff1660e01b8152600401602060405180830381865afa158015610b97573d6000803e3d6000fd5b505050506040513d601f19601f82011682018060405250810190610bbb91906155bd565b73ffffffffffffffffffffffffffffffffffffffff163373ffffffffffffffffffffffffffffffffffffffff1614610c54576040517f08c379a000000000000000000000000000000000000000000000000000000000815260206004820152601760248201527f45524332303a20627269646765206f6e6c792063616c6c00000000000000000060448201526064015b60405180910390fd5b6000808080610c6586880188615306565b9350935093509350610c778383613b65565b610c816001613c85565b15610d91577f27d542086d1e831d40b749e7f5509a626c3047a36d160781c40d5acc83e5b0745473ffffffffffffffffffffffffffffffffffffffff1663f0f5407389868686866040518663ffffffff1660e01b8152600401610ce89594939291906155da565b6020604051808303816000875af1158015610d07573d6000803e3d6000fd5b505050506040513d601f19601f82011682018060405250810190610d2b919061554f565b610d91576040517f08c379a000000000000000000000000000000000000000000000000000000000815260206004820152601b60248201527f484f4c4f47524150483a2062726964676520696e206661696c656400000000006044820152606401610c4b565b507f08a1eb2000000000000000000000000000000000000000000000000000000000979650505050505050565b6000610dca6004613c85565b15610e9b577f27d542086d1e831d40b749e7f5509a626c3047a36d160781c40d5acc83e5b074546040517f47abf3be00000000000000000000000000000000000000000000000000000000815233600482015273ffffffffffffffffffffffffffffffffffffffff85811660248301526044820185905291909116906347abf3be906064016020604051808303816000875af1158015610e6e573d6000803e3d6000fd5b505050506040513d601f19601f82011682018060405250810190610e92919061554f565b610e9b57600080fd5b610ea6338484613cb8565b610eb06003613c85565b15610f81577f27d542086d1e831d40b749e7f5509a626c3047a36d160781c40d5acc83e5b074546040517f900f66ef00000000000000000000000000000000000000000000000000000000815233600482015273ffffffffffffffffffffffffffffffffffffffff8581166024830152604482018590529091169063900f66ef906064015b6020604051808303816000875af1158015610f54573d6000803e3d6000fd5b505050506040513d601f19601f82011682018060405250810190610f78919061554f565b610f8157600080fd5b50600192915050565b7f27d542086d1e831d40b749e7f5509a626c3047a36d160781c40d5acc83e5b074543373ffffffffffffffffffffffffffffffffffffffff82161461102b576040517f08c379a000000000000000000000000000000000000000000000000000000000815260206004820152601760248201527f45524332303a20736f75726365206f6e6c792063616c6c0000000000000000006044820152606401610c4b565b60005b848110156110905761107e86868381811061104b5761104b615630565b9050602002016020810190611060919061503b565b85858481811061107257611072615630565b90506020020135613b65565b806110888161568e565b91505061102e565b505050505050565b7f27d542086d1e831d40b749e7f5509a626c3047a36d160781c40d5acc83e5b074543373ffffffffffffffffffffffffffffffffffffffff821614611139576040517f08c379a000000000000000000000000000000000000000000000000000000000815260206004820152601760248201527f45524332303a20736f75726365206f6e6c792063616c6c0000000000000000006044820152606401610c4b565b6111438383613e21565b505050565b7fb56711ba6bd3ded7639fc335ee7524fe668a79d7558c85992e3f8494cf7727775473ffffffffffffffffffffffffffffffffffffffff163373ffffffffffffffffffffffffffffffffffffffff16146111fe576040517f08c379a000000000000000000000000000000000000000000000000000000000815260206004820152601e60248201527f484f4c4f47524150483a206f776e6572206f6e6c792066756e6374696f6e00006044820152606401610c4b565b60006112287fb56711ba6bd3ded7639fc335ee7524fe668a79d7558c85992e3f8494cf7727775490565b9050817fb56711ba6bd3ded7639fc335ee7524fe668a79d7558c85992e3f8494cf772777558173ffffffffffffffffffffffffffffffffffffffff168173ffffffffffffffffffffffffffffffffffffffff167f8be0079c531659141344cd1fd0a4f28419497f9722a3daafe3b4186f6b6457e060405160405180910390a35050565b600073ffffffffffffffffffffffffffffffffffffffff84163314611527577fb4107f746e9496e8452accc7de63d1c5e14c19f510932daa04077cd49e8bd77a5473ffffffffffffffffffffffffffffffffffffffff16630fffbaf36040518163ffffffff1660e01b8152600401602060405180830381865afa158015611336573d6000803e3d6000fd5b505050506040513d601f19601f8201168201806040525081019061135a91906155bd565b73ffffffffffffffffffffffffffffffffffffffff163373ffffffffffffffffffffffffffffffffffffffff161415801561145057507fb4107f746e9496e8452accc7de63d1c5e14c19f510932daa04077cd49e8bd77a5473ffffffffffffffffffffffffffffffffffffffff1663e7f43c686040518163ffffffff1660e01b8152600401602060405180830381865afa1580156113fc573d6000803e3d6000fd5b505050506040513d601f19601f8201168201806040525081019061142091906155bd565b73ffffffffffffffffffffffffffffffffffffffff163373ffffffffffffffffffffffffffffffffffffffff1614155b156115275773ffffffffffffffffffffffffffffffffffffffff84166000908152600860209081526040808320338452909152902054828110156114f0576040517f08c379a000000000000000000000000000000000000000000000000000000000815260206004820152601f60248201527f45524332303a20616d6f756e74206578636565647320616c6c6f77616e6365006044820152606401610c4b565b73ffffffffffffffffffffffffffffffffffffffff8516600090815260086020908152604080832033845290915290209083900390555b611531600e613c85565b15611604577f27d542086d1e831d40b749e7f5509a626c3047a36d160781c40d5acc83e5b074546040517f1ffb811f00000000000000000000000000000000000000000000000000000000815273ffffffffffffffffffffffffffffffffffffffff86811660048301528581166024830152604482018590529190911690631ffb811f906064016020604051808303816000875af11580156115d7573d6000803e3d6000fd5b505050506040513d601f19601f820116820180604052508101906115fb919061554f565b61160457600080fd5b61160f848484613fba565b611619600d613c85565b156116ec577f27d542086d1e831d40b749e7f5509a626c3047a36d160781c40d5acc83e5b074546040517ff49062ca00000000000000000000000000000000000000000000000000000000815273ffffffffffffffffffffffffffffffffffffffff86811660048301528581166024830152604482018590529091169063f49062ca906064015b6020604051808303816000875af11580156116bf573d6000803e3d6000fd5b505050506040513d601f19601f820116820180604052508101906116e3919061554f565b6116ec57600080fd5b5060019392505050565b60006117006141fc565b905090565b33600090815260086020908152604080832073ffffffffffffffffffffffffffffffffffffffff86168452909152812054828101818110156117a3576040517f08c379a000000000000000000000000000000000000000000000000000000000815260206004820181905260248201527f45524332303a20696e637265617365642061626f7665206d61782076616c75656044820152606401610c4b565b6117ad6004613c85565b1561187e577f27d542086d1e831d40b749e7f5509a626c3047a36d160781c40d5acc83e5b074546040517f47abf3be00000000000000000000000000000000000000000000000000000000815233600482015273ffffffffffffffffffffffffffffffffffffffff87811660248301526044820184905291909116906347abf3be906064016020604051808303816000875af1158015611851573d6000803e3d6000fd5b505050506040513d601f19601f82011682018060405250810190611875919061554f565b61187e57600080fd5b611889338683613cb8565b6118936003613c85565b15611964577f27d542086d1e831d40b749e7f5509a626c3047a36d160781c40d5acc83e5b074546040517f900f66ef00000000000000000000000000000000000000000000000000000000815233600482015273ffffffffffffffffffffffffffffffffffffffff8781166024830152604482018490529091169063900f66ef906064015b6020604051808303816000875af1158015611937573d6000803e3d6000fd5b505050506040513d601f19601f8201168201806040525081019061195b919061554f565b61196457600080fd5b506001949350505050565b600061198b838360405180602001604052806000815250613645565b9392505050565b60006119af84848460405180602001604052806000815250612d1d565b949350505050565b6119c16008613c85565b15611a8a577f27d542086d1e831d40b749e7f5509a626c3047a36d160781c40d5acc83e5b074546040517f4a1fefbd0000000000000000000000000000000000000000000000000000000081523360048201526024810183905273ffffffffffffffffffffffffffffffffffffffff9190911690634a1fefbd906044016020604051808303816000875af1158015611a5d573d6000803e3d6000fd5b505050506040513d601f19601f82011682018060405250810190611a81919061554f565b611a8a57600080fd5b611a943382613e21565b611a9e6007613c85565b15611b67577f27d542086d1e831d40b749e7f5509a626c3047a36d160781c40d5acc83e5b074546040517f971c34b40000000000000000000000000000000000000000000000000000000081523360048201526024810183905273ffffffffffffffffffffffffffffffffffffffff919091169063971c34b4906044016020604051808303816000875af1158015611b3a573d6000803e3d6000fd5b505050506040513d601f19601f82011682018060405250810190611b5e919061554f565b611b6757600080fd5b50565b6000611b947f4e5f991bca30eca2d4643aaefa807e88f96a4a97398933d572a3c0d973004a015490565b15611bfb576040517f08c379a000000000000000000000000000000000000000000000000000000000815260206004820152601a60248201527f45524332303a20616c726561647920696e697469616c697a65640000000000006044820152606401610c4b565b600060017f04b524dd539523930d3901481aa9455d7752b49add99e1647adb8b09a313727955337fb56711ba6bd3ded7639fc335ee7524fe668a79d7558c85992e3f8494cf772777557f27d542086d1e831d40b749e7f5509a626c3047a36d160781c40d5acc83e5b0745490506000806000806000806000808a806020019051810190611c889190615716565b9750975097509750975097509750975087600a9080519060200190611cae929190614d1a565b508651611cc290600b9060208a0190614d1a565b50600c80547fffffffffffffffffffffffffffffffffffffffffffffffffffffffffffffff001660ff8816179055600685905581611e1a576040517f4ddf47d4000000000000000000000000000000000000000000000000000000008082529073ffffffffffffffffffffffffffffffffffffffff8b1690634ddf47d490611d4e908590600401614e74565b6020604051808303816000875af1158015611d6d573d6000803e3d6000fd5b505050506040513d601f19601f82011682018060405250810190611d919190615813565b7fffffffff000000000000000000000000000000000000000000000000000000001614611e1a576040517f08c379a000000000000000000000000000000000000000000000000000000000815260206004820152601c60248201527f45524332303a20636f756c64206e6f7420696e697420736f75726365000000006044820152606401610c4b565b611e4360017f4e5f991bca30eca2d4643aaefa807e88f96a4a97398933d572a3c0d973004a0155565b611e4d8484614288565b507f4ddf47d4000000000000000000000000000000000000000000000000000000009a9950505050505050505050565b6000611e8886614350565b611eee576040517f08c379a000000000000000000000000000000000000000000000000000000000815260206004820152601c60248201527f45524332303a206f70657261746f72206e6f7420636f6e7472616374000000006044820152606401610c4b565b611ef86006613c85565b15611fad577f27d542086d1e831d40b749e7f5509a626c3047a36d160781c40d5acc83e5b0745473ffffffffffffffffffffffffffffffffffffffff166395aae8bd8787308888886040518763ffffffff1660e01b8152600401611f6196959493929190615830565b6020604051808303816000875af1158015611f80573d6000803e3d6000fd5b505050506040513d601f19601f82011682018060405250810190611fa4919061554f565b611fad57600080fd5b6040517f70a0823100000000000000000000000000000000000000000000000000000000815230600482015273ffffffffffffffffffffffffffffffffffffffff8716906370a0823190602401602060405180830381865afa925050508015612051575060408051601f3d9081017fffffffffffffffffffffffffffffffffffffffffffffffffffffffffffffffe016820190925261204e918101906158b8565b60015b6120b7576040517f08c379a000000000000000000000000000000000000000000000000000000000815260206004820152601d60248201527f45524332303a206661696c65642067657474696e672062616c616e63650000006044820152606401610c4b565b84811015612121576040517f08c379a000000000000000000000000000000000000000000000000000000000815260206004820152601b60248201527f45524332303a2062616c616e636520636865636b206661696c656400000000006044820152606401610c4b565b5061212c6005613c85565b156121e1577f27d542086d1e831d40b749e7f5509a626c3047a36d160781c40d5acc83e5b0745473ffffffffffffffffffffffffffffffffffffffff166345b596998787308888886040518763ffffffff1660e01b815260040161219596959493929190615830565b6020604051808303816000875af11580156121b4573d6000803e3d6000fd5b505050506040513d601f19601f820116820180604052508101906121d8919061554f565b6121e157600080fd5b507f4fc358590000000000000000000000000000000000000000000000000000000095945050505050565b7f27d542086d1e831d40b749e7f5509a626c3047a36d160781c40d5acc83e5b074543373ffffffffffffffffffffffffffffffffffffffff8216146122ad576040517f08c379a000000000000000000000000000000000000000000000000000000000815260206004820152601760248201527f45524332303a20736f75726365206f6e6c792063616c6c0000000000000000006044820152606401610c4b565b6111438383613b65565b7f3f106594dc74eeef980dae234cde8324dc2497b13d27a0c59e55bd2ca10a07c95473ffffffffffffffffffffffffffffffffffffffff163373ffffffffffffffffffffffffffffffffffffffff161461236d576040517f08c379a000000000000000000000000000000000000000000000000000000000815260206004820152601e60248201527f484f4c4f47524150483a2061646d696e206f6e6c792066756e6374696f6e00006044820152606401610c4b565b7f3f106594dc74eeef980dae234cde8324dc2497b13d27a0c59e55bd2ca10a07c955565b73ffffffffffffffffffffffffffffffffffffffff821660009081526008602090815260408083203384529091528120548281101561242c576040517f08c379a000000000000000000000000000000000000000000000000000000000815260206004820152601f60248201527f45524332303a20616d6f756e74206578636565647320616c6c6f77616e6365006044820152606401610c4b565b73ffffffffffffffffffffffffffffffffffffffff84166000908152600860208181526040808420338552909152909120848303905561246b90613c85565b15612536577f27d542086d1e831d40b749e7f5509a626c3047a36d160781c40d5acc83e5b074546040517f4a1fefbd00000000000000000000000000000000000000000000000000000000815273ffffffffffffffffffffffffffffffffffffffff8681166004830152602482018690529190911690634a1fefbd906044016020604051808303816000875af1158015612509573d6000803e3d6000fd5b505050506040513d601f19601f8201168201806040525081019061252d919061554f565b61253657600080fd5b6125408484613e21565b61254a6007613c85565b156116ec577f27d542086d1e831d40b749e7f5509a626c3047a36d160781c40d5acc83e5b074546040517f971c34b400000000000000000000000000000000000000000000000000000000815273ffffffffffffffffffffffffffffffffffffffff868116600483015260248201869052919091169063971c34b4906044016020604051808303816000875af11580156116bf573d6000803e3d6000fd5b6000807f27d542086d1e831d40b749e7f5509a626c3047a36d160781c40d5acc83e5b0745490508073ffffffffffffffffffffffffffffffffffffffff16638da5cb5b6040518163ffffffff1660e01b8152600401602060405180830381865afa15801561265a573d6000803e3d6000fd5b505050506040513d601f19601f8201168201806040525081019061267e91906155bd565b91505090565b6060600b8054610aa09061556a565b33600090815260086020908152604080832073ffffffffffffffffffffffffffffffffffffffff861684529091528120548281101561272e576040517f08c379a000000000000000000000000000000000000000000000000000000000815260206004820152601b60248201527f45524332303a206465637265617365642062656c6f77207a65726f00000000006044820152606401610c4b565b8281036117ad6004613c85565b7f27d542086d1e831d40b749e7f5509a626c3047a36d160781c40d5acc83e5b074543373ffffffffffffffffffffffffffffffffffffffff8216146127dc576040517f08c379a000000000000000000000000000000000000000000000000000000000815260206004820152601760248201527f45524332303a20736f75726365206f6e6c792063616c6c0000000000000000006044820152606401610c4b565b6127e7848484613fba565b50505050565b60006127f9600e613c85565b156128ca577f27d542086d1e831d40b749e7f5509a626c3047a36d160781c40d5acc83e5b074546040517f1ffb811f00000000000000000000000000000000000000000000000000000000815233600482015273ffffffffffffffffffffffffffffffffffffffff8581166024830152604482018590529190911690631ffb811f906064016020604051808303816000875af115801561289d573d6000803e3d6000fd5b505050506040513d601f19601f820116820180604052508101906128c1919061554f565b6128ca57600080fd5b6128d5338484613fba565b6128df600d613c85565b15610f81577f27d542086d1e831d40b749e7f5509a626c3047a36d160781c40d5acc83e5b074546040517ff49062ca00000000000000000000000000000000000000000000000000000000815233600482015273ffffffffffffffffffffffffffffffffffffffff8581166024830152604482018590529091169063f49062ca90606401610f35565b600060606129947fb4107f746e9496e8452accc7de63d1c5e14c19f510932daa04077cd49e8bd77a5490565b73ffffffffffffffffffffffffffffffffffffffff16630fffbaf36040518163ffffffff1660e01b8152600401602060405180830381865afa1580156129de573d6000803e3d6000fd5b505050506040513d601f19601f82011682018060405250810190612a0291906155bd565b73ffffffffffffffffffffffffffffffffffffffff163373ffffffffffffffffffffffffffffffffffffffff1614612a96576040517f08c379a000000000000000000000000000000000000000000000000000000000815260206004820152601760248201527f45524332303a20627269646765206f6e6c792063616c6c0000000000000000006044820152606401610c4b565b60008080612aa686880188615058565b9250925092508273ffffffffffffffffffffffffffffffffffffffff168873ffffffffffffffffffffffffffffffffffffffff1614612bb55773ffffffffffffffffffffffffffffffffffffffff8084166000908152600860209081526040808320938c168352929052205481811015612b7c576040517f08c379a000000000000000000000000000000000000000000000000000000000815260206004820152601f60248201527f45524332303a20616d6f756e74206578636565647320616c6c6f77616e6365006044820152606401610c4b565b73ffffffffffffffffffffffffffffffffffffffff8085166000908152600860209081526040808320938d168352929052209082900390555b612bbf6002613c85565b15612cba577f27d542086d1e831d40b749e7f5509a626c3047a36d160781c40d5acc83e5b074546040517f8b1465c600000000000000000000000000000000000000000000000000000000815263ffffffff8b16600482015273ffffffffffffffffffffffffffffffffffffffff85811660248301528481166044830152606482018490529190911690638b1465c6906084016000604051808303816000875af1158015612c71573d6000803e3d6000fd5b505050506040513d6000823e601f3d9081017fffffffffffffffffffffffffffffffffffffffffffffffffffffffffffffffe0168201604052612cb791908101906158d1565b93505b612cc48382613e21565b6040517fb7e036610000000000000000000000000000000000000000000000000000000090612cfd908590859085908990602001615906565b604051602081830303815290604052945094505050505b94509492505050565b600073ffffffffffffffffffffffffffffffffffffffff85163314612f99577fb4107f746e9496e8452accc7de63d1c5e14c19f510932daa04077cd49e8bd77a5473ffffffffffffffffffffffffffffffffffffffff16630fffbaf36040518163ffffffff1660e01b8152600401602060405180830381865afa158015612da8573d6000803e3d6000fd5b505050506040513d601f19601f82011682018060405250810190612dcc91906155bd565b73ffffffffffffffffffffffffffffffffffffffff163373ffffffffffffffffffffffffffffffffffffffff1614158015612ec257507fb4107f746e9496e8452accc7de63d1c5e14c19f510932daa04077cd49e8bd77a5473ffffffffffffffffffffffffffffffffffffffff1663e7f43c686040518163ffffffff1660e01b8152600401602060405180830381865afa158015612e6e573d6000803e3d6000fd5b505050506040513d601f19601f82011682018060405250810190612e9291906155bd565b73ffffffffffffffffffffffffffffffffffffffff163373ffffffffffffffffffffffffffffffffffffffff1614155b15612f995773ffffffffffffffffffffffffffffffffffffffff8516600090815260086020908152604080832033845290915290205483811015612f62576040517f08c379a000000000000000000000000000000000000000000000000000000000815260206004820152601f60248201527f45524332303a20616d6f756e74206578636565647320616c6c6f77616e6365006044820152606401610c4b565b73ffffffffffffffffffffffffffffffffffffffff8616600090815260086020908152604080832033845290915290209084900390555b612fa3600c613c85565b15613054577f27d542086d1e831d40b749e7f5509a626c3047a36d160781c40d5acc83e5b0745473ffffffffffffffffffffffffffffffffffffffff16632ca16676868686866040518563ffffffff1660e01b81526004016130089493929190615906565b6020604051808303816000875af1158015613027573d6000803e3d6000fd5b505050506040513d601f19601f8201168201806040525081019061304b919061554f565b61305457600080fd5b61305f858585613fba565b61306b85858585614387565b6130d1576040517f08c379a000000000000000000000000000000000000000000000000000000000815260206004820152601860248201527f45524332303a206e6f6e204552433230526563656976657200000000000000006044820152606401610c4b565b6130db600b613c85565b15611964577f27d542086d1e831d40b749e7f5509a626c3047a36d160781c40d5acc83e5b0745473ffffffffffffffffffffffffffffffffffffffff166336fff062868686866040518563ffffffff1660e01b81526004016119189493929190615906565b7f3f106594dc74eeef980dae234cde8324dc2497b13d27a0c59e55bd2ca10a07c95473ffffffffffffffffffffffffffffffffffffffff163373ffffffffffffffffffffffffffffffffffffffff16146131f6576040517f08c379a000000000000000000000000000000000000000000000000000000000815260206004820152601e60248201527f484f4c4f47524150483a2061646d696e206f6e6c792066756e6374696f6e00006044820152606401610c4b565b808260003760008082600034875af13d6000803e80801561030d573d6000f35b83421115613280576040517f08c379a000000000000000000000000000000000000000000000000000000000815260206004820152601760248201527f45524332303a206578706972656420646561646c696e650000000000000000006044820152606401610c4b565b60007f6e71edae12b1b97f4d1f60370fef10105fa2faae0126114a169c64845d6126c98888886132af8c6148e2565b60408051602081019690965273ffffffffffffffffffffffffffffffffffffffff94851690860152929091166060840152608083015260a082015260c0810186905260e001604051602081830303815290604052805190602001209050600061331782614920565b9050600061332782878787614989565b90508973ffffffffffffffffffffffffffffffffffffffff168173ffffffffffffffffffffffffffffffffffffffff16146133be576040517f08c379a000000000000000000000000000000000000000000000000000000000815260206004820152601860248201527f45524332303a20696e76616c6964207369676e617475726500000000000000006044820152606401610c4b565b6133c86004613c85565b1561349b577f27d542086d1e831d40b749e7f5509a626c3047a36d160781c40d5acc83e5b074546040517f47abf3be00000000000000000000000000000000000000000000000000000000815273ffffffffffffffffffffffffffffffffffffffff8c811660048301528b81166024830152604482018b905291909116906347abf3be906064016020604051808303816000875af115801561346e573d6000803e3d6000fd5b505050506040513d601f19601f82011682018060405250810190613492919061554f565b61349b57600080fd5b6134a68a8a8a613cb8565b6134b06003613c85565b15613583577f27d542086d1e831d40b749e7f5509a626c3047a36d160781c40d5acc83e5b074546040517f900f66ef00000000000000000000000000000000000000000000000000000000815273ffffffffffffffffffffffffffffffffffffffff8c811660048301528b81166024830152604482018b9052919091169063900f66ef906064016020604051808303816000875af1158015613556573d6000803e3d6000fd5b505050506040513d601f19601f8201168201806040525081019061357a919061554f565b61358357600080fd5b50505050505050505050565b7fb56711ba6bd3ded7639fc335ee7524fe668a79d7558c85992e3f8494cf7727775473ffffffffffffffffffffffffffffffffffffffff163373ffffffffffffffffffffffffffffffffffffffff16146131f6576040517f08c379a000000000000000000000000000000000000000000000000000000000815260206004820152601e60248201527f484f4c4f47524150483a206f776e6572206f6e6c792066756e6374696f6e00006044820152606401610c4b565b6000613651600c613c85565b15613702577f27d542086d1e831d40b749e7f5509a626c3047a36d160781c40d5acc83e5b0745473ffffffffffffffffffffffffffffffffffffffff16632ca16676338686866040518563ffffffff1660e01b81526004016136b69493929190615906565b6020604051808303816000875af11580156136d5573d6000803e3d6000fd5b505050506040513d601f19601f820116820180604052508101906136f9919061554f565b61370257600080fd5b61370d338585613fba565b61371933858585614387565b61377f576040517f08c379a000000000000000000000000000000000000000000000000000000000815260206004820152601860248201527f45524332303a206e6f6e204552433230526563656976657200000000000000006044820152606401610c4b565b613789600b613c85565b156116ec577f27d542086d1e831d40b749e7f5509a626c3047a36d160781c40d5acc83e5b0745473ffffffffffffffffffffffffffffffffffffffff166336fff062338686866040518563ffffffff1660e01b81526004016116a09493929190615906565b7fb56711ba6bd3ded7639fc335ee7524fe668a79d7558c85992e3f8494cf7727775473ffffffffffffffffffffffffffffffffffffffff163373ffffffffffffffffffffffffffffffffffffffff16146138a4576040517f08c379a000000000000000000000000000000000000000000000000000000000815260206004820152601e60248201527f484f4c4f47524150483a206f776e6572206f6e6c792066756e6374696f6e00006044820152606401610c4b565b73ffffffffffffffffffffffffffffffffffffffff8116613921576040517f08c379a000000000000000000000000000000000000000000000000000000000815260206004820152601760248201527f484f4c4f47524150483a207a65726f20616464726573730000000000000000006044820152606401610c4b565b7fb56711ba6bd3ded7639fc335ee7524fe668a79d7558c85992e3f8494cf77277755565b60006117007f3f106594dc74eeef980dae234cde8324dc2497b13d27a0c59e55bd2ca10a07c95490565b60006139997fb4107f746e9496e8452accc7de63d1c5e14c19f510932daa04077cd49e8bd77a5490565b73ffffffffffffffffffffffffffffffffffffffff16630fffbaf36040518163ffffffff1660e01b8152600401602060405180830381865afa1580156139e3573d6000803e3d6000fd5b505050506040513d601f19601f82011682018060405250810190613a0791906155bd565b73ffffffffffffffffffffffffffffffffffffffff163373ffffffffffffffffffffffffffffffffffffffff1614613a9b576040517f08c379a000000000000000000000000000000000000000000000000000000000815260206004820152601760248201527f45524332303a20627269646765206f6e6c792063616c6c0000000000000000006044820152606401610c4b565b613aa58383613b65565b507ffad66f920000000000000000000000000000000000000000000000000000000092915050565b6000613af77fb4107f746e9496e8452accc7de63d1c5e14c19f510932daa04077cd49e8bd77a5490565b73ffffffffffffffffffffffffffffffffffffffff1663ebac15f96040518163ffffffff1660e01b8152600401602060405180830381865afa158015613b41573d6000803e3d6000fd5b505050506040513d601f19601f8201168201806040525081019061170091906155bd565b73ffffffffffffffffffffffffffffffffffffffff8216613be2576040517f08c379a000000000000000000000000000000000000000000000000000000000815260206004820152601e60248201527f45524332303a206d696e74696e6720746f206275726e206164647265737300006044820152606401610c4b565b8060096000828254613bf4919061594f565b909155505073ffffffffffffffffffffffffffffffffffffffff821660009081526007602052604081208054839290613c2e90849061594f565b909155505060405181815273ffffffffffffffffffffffffffffffffffffffff8316906000907fddf252ad1be2c89b69c2b068fc378daa952ba7f163c4a11628f55a4df523b3ef9060200160405180910390a35050565b6000600182600e811115613c9b57613c9b6154a4565b600654901c16600114613caf576000613cb2565b60015b92915050565b73ffffffffffffffffffffffffffffffffffffffff8316613d35576040517f08c379a000000000000000000000000000000000000000000000000000000000815260206004820152601e60248201527f45524332303a206163636f756e74206973207a65726f206164647265737300006044820152606401610c4b565b73ffffffffffffffffffffffffffffffffffffffff8216613db2576040517f08c379a000000000000000000000000000000000000000000000000000000000815260206004820152601e60248201527f45524332303a207370656e646572206973207a65726f206164647265737300006044820152606401610c4b565b73ffffffffffffffffffffffffffffffffffffffff83811660008181526008602090815260408083209487168084529482529182902085905590518481527f8c5be1e5ebec7d5bd14f71427d1e84f3dd0314c0f7b2291e5b200ac8c7c3b92591015b60405180910390a3505050565b73ffffffffffffffffffffffffffffffffffffffff8216613e9e576040517f08c379a000000000000000000000000000000000000000000000000000000000815260206004820152601e60248201527f45524332303a206163636f756e74206973207a65726f206164647265737300006044820152606401610c4b565b73ffffffffffffffffffffffffffffffffffffffff821660009081526007602052604090205481811015613f2e576040517f08c379a000000000000000000000000000000000000000000000000000000000815260206004820152601d60248201527f45524332303a20616d6f756e7420657863656564732062616c616e63650000006044820152606401610c4b565b73ffffffffffffffffffffffffffffffffffffffff83166000908152600760205260408120838303905560098054849290613f6a908490615967565b909155505060405182815260009073ffffffffffffffffffffffffffffffffffffffff8516907fddf252ad1be2c89b69c2b068fc378daa952ba7f163c4a11628f55a4df523b3ef90602001613e14565b73ffffffffffffffffffffffffffffffffffffffff8316614037576040517f08c379a000000000000000000000000000000000000000000000000000000000815260206004820152601e60248201527f45524332303a206163636f756e74206973207a65726f206164647265737300006044820152606401610c4b565b73ffffffffffffffffffffffffffffffffffffffff82166140b4576040517f08c379a000000000000000000000000000000000000000000000000000000000815260206004820181905260248201527f45524332303a20726563697069656e74206973207a65726f20616464726573736044820152606401610c4b565b73ffffffffffffffffffffffffffffffffffffffff831660009081526007602052604090205481811015614144576040517f08c379a000000000000000000000000000000000000000000000000000000000815260206004820152601d60248201527f45524332303a20616d6f756e7420657863656564732062616c616e63650000006044820152606401610c4b565b73ffffffffffffffffffffffffffffffffffffffff80851660009081526007602052604080822085850390559185168152908120805484929061418890849061594f565b925050819055508273ffffffffffffffffffffffffffffffffffffffff168473ffffffffffffffffffffffffffffffffffffffff167fddf252ad1be2c89b69c2b068fc378daa952ba7f163c4a11628f55a4df523b3ef846040516141ee91815260200190565b60405180910390a350505050565b60025460009073ffffffffffffffffffffffffffffffffffffffff1630148015614227575060015446145b15614233575060005490565b6117006005546003546004546040805160208101859052908101839052606081018290524660808201523060a082015260009060c0016040516020818303038152906040528051906020012090509392505050565b815160208084019190912082519183019190912060038290556004819055466001557f8b73c3c69bb8fe3d512ecc4cf759cc79239f7b179b0ffacaa9a75d522b39400f61431a8184846040805160208101859052908101839052606081018290524660808201523060a082015260009060c0016040516020818303038152906040528051906020012090509392505050565b600055600280547fffffffffffffffffffffffff0000000000000000000000000000000000000000163017905560055550505050565b6000813f801580159061198b57507fc5d2460186f7233c927e7db2dcc703c0e500b653ca82273b7bfad8045d85a470141592915050565b60006143b17f04b524dd539523930d3901481aa9455d7752b49add99e1647adb8b09a31372795490565b60020361441a576040517f08c379a000000000000000000000000000000000000000000000000000000000815260206004820152601960248201527f484f4c4f47524150483a207265656e7472616e742063616c6c000000000000006044820152606401610c4b565b61444360027f04b524dd539523930d3901481aa9455d7752b49add99e1647adb8b09a313727955565b61444c84614350565b156148b5576040517f01ffc9a700000000000000000000000000000000000000000000000000000000808252600482015273ffffffffffffffffffffffffffffffffffffffff8516906301ffc9a790602401602060405180830381865afa9250505080156144f5575060408051601f3d9081017fffffffffffffffffffffffffffffffffffffffffffffffffffffffffffffffe01682019092526144f29181019061554f565b60015b61459c573d808015614523576040519150601f19603f3d011682016040523d82523d6000602084013e614528565b606091505b508051600003614594576040517f08c379a000000000000000000000000000000000000000000000000000000000815260206004820152601860248201527f45524332303a206e6f2045524331363520737570706f727400000000000000006044820152606401610c4b565b805181602001fd5b80614603576040517f08c379a000000000000000000000000000000000000000000000000000000000815260206004820152601860248201527f45524332303a206e6f2045524331363520737570706f727400000000000000006044820152606401610c4b565b6040517f01ffc9a70000000000000000000000000000000000000000000000000000000081527f534f587600000000000000000000000000000000000000000000000000000000600482015273ffffffffffffffffffffffffffffffffffffffff8616906301ffc9a790602401602060405180830381865afa15801561468d573d6000803e3d6000fd5b505050506040513d601f19601f820116820180604052508101906146b1919061554f565b15614853576040517f4fc3585900000000000000000000000000000000000000000000000000000000815273ffffffffffffffffffffffffffffffffffffffff861690634fc358599061470e9030908a9089908990600401615906565b6020604051808303816000875af1925050508015614767575060408051601f3d9081017fffffffffffffffffffffffffffffffffffffffffffffffffffffffffffffffe016820190925261476491810190615813565b60015b614806573d808015614795576040519150601f19603f3d011682016040523d82523d6000602084013e61479a565b606091505b508051600003614594576040517f08c379a000000000000000000000000000000000000000000000000000000000815260206004820152601860248201527f45524332303a206e6f6e204552433230526563656976657200000000000000006044820152606401610c4b565b7fffffffff00000000000000000000000000000000000000000000000000000000167f4fc35859000000000000000000000000000000000000000000000000000000001491506148b99050565b6040517f08c379a000000000000000000000000000000000000000000000000000000000815260206004820152601d60248201527f45524332303a206569702d34353234206e6f7420737570706f727465640000006044820152606401610c4b565b5060015b6119af60017f04b524dd539523930d3901481aa9455d7752b49add99e1647adb8b09a313727955565b73ffffffffffffffffffffffffffffffffffffffff81166000908152600d602052604081208054918291906149168361568e565b9190505550919050565b6000613cb261492d6141fc565b836040517f19010000000000000000000000000000000000000000000000000000000000006020820152602281018390526042810182905260009060620160405160208183030381529060405280519060200120905092915050565b600080600061499a878787876149b1565b915091506149a781614ac6565b5095945050505050565b6000807f7fffffffffffffffffffffffffffffff5d576e7357a4501ddfe92f46681b20a08311156149e85750600090506003612d14565b8460ff16601b14158015614a0057508460ff16601c14155b15614a115750600090506004612d14565b6040805160008082526020820180845289905260ff881692820192909252606081018690526080810185905260019060a0016020604051602081039080840390855afa158015614a65573d6000803e3d6000fd5b50506040517fffffffffffffffffffffffffffffffffffffffffffffffffffffffffffffffe0015191505073ffffffffffffffffffffffffffffffffffffffff8116614ab957600060019250925050612d14565b9660009650945050505050565b6000816004811115614ada57614ada6154a4565b03614ae25750565b6001816004811115614af657614af66154a4565b03614b5d576040517f08c379a000000000000000000000000000000000000000000000000000000000815260206004820152601860248201527f45434453413a20696e76616c6964207369676e617475726500000000000000006044820152606401610c4b565b6002816004811115614b7157614b716154a4565b03614bd8576040517f08c379a000000000000000000000000000000000000000000000000000000000815260206004820152601f60248201527f45434453413a20696e76616c6964207369676e6174757265206c656e677468006044820152606401610c4b565b6003816004811115614bec57614bec6154a4565b03614c79576040517f08c379a000000000000000000000000000000000000000000000000000000000815260206004820152602260248201527f45434453413a20696e76616c6964207369676e6174757265202773272076616c60448201527f75650000000000000000000000000000000000000000000000000000000000006064820152608401610c4b565b6004816004811115614c8d57614c8d6154a4565b03611b67576040517f08c379a000000000000000000000000000000000000000000000000000000000815260206004820152602260248201527f45434453413a20696e76616c6964207369676e6174757265202776272076616c60448201527f75650000000000000000000000000000000000000000000000000000000000006064820152608401610c4b565b828054614d269061556a565b90600052602060002090601f016020900481019282614d485760008555614d8e565b82601f10614d6157805160ff1916838001178555614d8e565b82800160010185558215614d8e579182015b82811115614d8e578251825591602001919060010190614d73565b50614d9a929150614d9e565b5090565b5b80821115614d9a5760008155600101614d9f565b7fffffffff0000000000000000000000000000000000000000000000000000000081168114611b6757600080fd5b600060208284031215614df357600080fd5b813561198b81614db3565b60005b83811015614e19578181015183820152602001614e01565b838111156127e75750506000910152565b60008151808452614e42816020860160208601614dfe565b601f017fffffffffffffffffffffffffffffffffffffffffffffffffffffffffffffffe0169290920160200192915050565b60208152600061198b6020830184614e2a565b803563ffffffff81168114614e9b57600080fd5b919050565b60008083601f840112614eb257600080fd5b50813567ffffffffffffffff811115614eca57600080fd5b602083019150836020828501011115614ee257600080fd5b9250929050565b600080600060408486031215614efe57600080fd5b614f0784614e87565b9250602084013567ffffffffffffffff811115614f2357600080fd5b614f2f86828701614ea0565b9497909650939450505050565b73ffffffffffffffffffffffffffffffffffffffff81168114611b6757600080fd5b60008060408385031215614f7157600080fd5b8235614f7c81614f3c565b946020939093013593505050565b60008083601f840112614f9c57600080fd5b50813567ffffffffffffffff811115614fb457600080fd5b6020830191508360208260051b8501011115614ee257600080fd5b60008060008060408587031215614fe557600080fd5b843567ffffffffffffffff80821115614ffd57600080fd5b61500988838901614f8a565b9096509450602087013591508082111561502257600080fd5b5061502f87828801614f8a565b95989497509550505050565b60006020828403121561504d57600080fd5b813561198b81614f3c565b60008060006060848603121561506d57600080fd5b833561507881614f3c565b9250602084013561508881614f3c565b929592945050506040919091013590565b6000602082840312156150ab57600080fd5b5035919050565b7f4e487b7100000000000000000000000000000000000000000000000000000000600052604160045260246000fd5b604051601f82017fffffffffffffffffffffffffffffffffffffffffffffffffffffffffffffffe016810167ffffffffffffffff81118282101715615128576151286150b2565b604052919050565b600067ffffffffffffffff82111561514a5761514a6150b2565b50601f017fffffffffffffffffffffffffffffffffffffffffffffffffffffffffffffffe01660200190565b600082601f83011261518757600080fd5b813561519a61519582615130565b6150e1565b8181528460208386010111156151af57600080fd5b816020850160208301376000918101602001919091529392505050565b6000602082840312156151de57600080fd5b813567ffffffffffffffff8111156151f557600080fd5b6119af84828501615176565b60008060008060006080868803121561521957600080fd5b853561522481614f3c565b9450602086013561523481614f3c565b935060408601359250606086013567ffffffffffffffff81111561525757600080fd5b61526388828901614ea0565b969995985093965092949392505050565b6000806000806060858703121561528a57600080fd5b61529385614e87565b935060208501356152a381614f3c565b9250604085013567ffffffffffffffff8111156152bf57600080fd5b61502f87828801614ea0565b7fffffffff00000000000000000000000000000000000000000000000000000000831681526040602082015260006119af6040830184614e2a565b6000806000806080858703121561531c57600080fd5b843561532781614f3c565b9350602085013561533781614f3c565b925060408501359150606085013567ffffffffffffffff81111561535a57600080fd5b61536687828801615176565b91505092959194509250565b60008060006040848603121561538757600080fd5b8335614f0781614f3c565b60ff81168114611b6757600080fd5b600080600080600080600060e0888a0312156153bc57600080fd5b87356153c781614f3c565b965060208801356153d781614f3c565b9550604088013594506060880135935060808801356153f581615392565b9699959850939692959460a0840135945060c09093013592915050565b6000806040838503121561542557600080fd5b823561543081614f3c565b9150602083013561544081614f3c565b809150509250929050565b60008060006060848603121561546057600080fd5b833561546b81614f3c565b925060208401359150604084013567ffffffffffffffff81111561548e57600080fd5b61549a86828701615176565b9150509250925092565b7f4e487b7100000000000000000000000000000000000000000000000000000000600052602160045260246000fd5b604081016005841061550e577f4e487b7100000000000000000000000000000000000000000000000000000000600052602160045260246000fd5b9281527fffffffff000000000000000000000000000000000000000000000000000000009190911660209091015290565b80518015158114614e9b57600080fd5b60006020828403121561556157600080fd5b61198b8261553f565b600181811c9082168061557e57607f821691505b6020821081036155b7577f4e487b7100000000000000000000000000000000000000000000000000000000600052602260045260246000fd5b50919050565b6000602082840312156155cf57600080fd5b815161198b81614f3c565b63ffffffff86168152600073ffffffffffffffffffffffffffffffffffffffff808716602084015280861660408401525083606083015260a0608083015261562560a0830184614e2a565b979650505050505050565b7f4e487b7100000000000000000000000000000000000000000000000000000000600052603260045260246000fd5b7f4e487b7100000000000000000000000000000000000000000000000000000000600052601160045260246000fd5b60007fffffffffffffffffffffffffffffffffffffffffffffffffffffffffffffffff82036156bf576156bf61565f565b5060010190565b600082601f8301126156d757600080fd5b81516156e561519582615130565b8181528460208386010111156156fa57600080fd5b6119af826020830160208701614dfe565b8051614e9b81615392565b600080600080600080600080610100898b03121561573357600080fd5b885167ffffffffffffffff8082111561574b57600080fd5b6157578c838d016156c6565b995060208b015191508082111561576d57600080fd5b6157798c838d016156c6565b985061578760408c0161570b565b975060608b0151965060808b01519150808211156157a457600080fd5b6157b08c838d016156c6565b955060a08b01519150808211156157c657600080fd5b6157d28c838d016156c6565b94506157e060c08c0161553f565b935060e08b01519150808211156157f657600080fd5b506158038b828c016156c6565b9150509295985092959890939650565b60006020828403121561582557600080fd5b815161198b81614db3565b600073ffffffffffffffffffffffffffffffffffffffff8089168352808816602084015280871660408401525084606083015260a060808301528260a0830152828460c0840137600060c0848401015260c07fffffffffffffffffffffffffffffffffffffffffffffffffffffffffffffffe0601f8501168301019050979650505050505050565b6000602082840312156158ca57600080fd5b5051919050565b6000602082840312156158e357600080fd5b815167ffffffffffffffff8111156158fa57600080fd5b6119af848285016156c6565b600073ffffffffffffffffffffffffffffffffffffffff8087168352808616602084015250836040830152608060608301526159456080830184614e2a565b9695505050505050565b600082198211156159625761596261565f565b500190565b6000828210156159795761597961565f565b50039056fea164736f6c634300080d000a",
  "devdoc": {
    "author": "CXIP-Labs",
    "details": "The entire logic and functionality of the smart contract is self-contained.",
    "kind": "dev",
    "methods": {
      "DOMAIN_SEPARATOR()": {
        "details": "Returns the domain separator used in the encoding of the signature for {permit}, as defined by {EIP712}."
      },
      "constructor": {
        "details": "Constructor is left empty and init is used instead"
      },
      "getContractType()": {
        "details": "Returns the contract type that is used for loading the Enforcer"
      },
      "holographBridgeMint(address,uint256)": {
        "details": "Allows the bridge to mint tokens (used for hTokens only)."
      },
      "init(bytes)": {
        "details": "This function is called by the deployer/factory when creating a contract",
        "params": {
          "initPayload": "abi encoded payload to use for contract initilaization"
        }
      },
      "nonces(address)": {
        "details": "Returns the current nonce for `account`. This value must be included whenever a signature is generated for {permit}. Every successful call to {permit} increases ``account``'s nonce by one. This prevents a signature from being used multiple times."
      },
      "sourceBurn(address,uint256)": {
        "details": "Allows for source smart contract to burn tokens."
      },
      "sourceMint(address,uint256)": {
        "details": "Allows for source smart contract to mint tokens."
      },
      "sourceMintBatch(address[],uint256[])": {
        "details": "Allows for source smart contract to mint a batch of token amounts."
      },
      "sourceTransfer(address,address,uint256)": {
        "details": "Allows for source smart contract to transfer tokens."
      },
      "supportsInterface(bytes4)": {
        "details": "Although EIP-165 is not required for ERC20 contracts, we still decided to implement it. This makes it easier for external smart contracts to easily identify a valid ERC20 token contract."
      }
    },
    "stateVariables": {
      "_allowances": {
        "details": "Mapping of all authorized operators, and capped amounts."
      },
      "_balances": {
        "details": "Mapping of all the addresse's balances."
      },
      "_contractTypeSlot": {
        "details": "bytes32(uint256(keccak256('eip1967.Holograph.contractType')) - 1)"
      },
      "_decimals": {
        "details": "Token number of decimal places."
      },
      "_eventConfig": {
        "details": "Configuration for events to trigger for source smart contract."
      },
      "_holographSlot": {
        "details": "bytes32(uint256(keccak256('eip1967.Holograph.holograph')) - 1)"
      },
      "_name": {
        "details": "Token name."
      },
      "_nonces": {
        "details": "List of used up nonces. Used in the ERC20Permit interface functionality."
      },
      "_sourceContractSlot": {
        "details": "bytes32(uint256(keccak256('eip1967.Holograph.sourceContract')) - 1)"
      },
      "_symbol": {
        "details": "Token ticker symbol."
      },
      "_totalSupply": {
        "details": "Total number of token in circulation."
      }
    },
    "title": "Holograph Bridgeable ERC-20 Token",
    "version": 1
  },
  "userdoc": {
    "kind": "user",
    "methods": {
      "init(bytes)": {
        "notice": "Used internally to initialize the contract instead of through a constructor"
      }
    },
    "notice": "A smart contract for minting and managing Holograph Bridgeable ERC20 Tokens.",
    "version": 1
  },
  "storageLayout": {
    "storage": [
      {
        "astId": 4609,
        "contract": "contracts/enforcer/HolographERC20.sol:HolographERC20",
        "label": "_CACHED_DOMAIN_SEPARATOR",
        "offset": 0,
        "slot": "0",
        "type": "t_bytes32"
      },
      {
        "astId": 4611,
        "contract": "contracts/enforcer/HolographERC20.sol:HolographERC20",
        "label": "_CACHED_CHAIN_ID",
        "offset": 0,
        "slot": "1",
        "type": "t_uint256"
      },
      {
        "astId": 4613,
        "contract": "contracts/enforcer/HolographERC20.sol:HolographERC20",
        "label": "_CACHED_THIS",
        "offset": 0,
        "slot": "2",
        "type": "t_address"
      },
      {
        "astId": 4615,
        "contract": "contracts/enforcer/HolographERC20.sol:HolographERC20",
        "label": "_HASHED_NAME",
        "offset": 0,
        "slot": "3",
        "type": "t_bytes32"
      },
      {
        "astId": 4617,
        "contract": "contracts/enforcer/HolographERC20.sol:HolographERC20",
        "label": "_HASHED_VERSION",
        "offset": 0,
        "slot": "4",
        "type": "t_bytes32"
      },
      {
        "astId": 4619,
        "contract": "contracts/enforcer/HolographERC20.sol:HolographERC20",
        "label": "_TYPE_HASH",
        "offset": 0,
        "slot": "5",
        "type": "t_bytes32"
      },
      {
        "astId": 6632,
        "contract": "contracts/enforcer/HolographERC20.sol:HolographERC20",
        "label": "_eventConfig",
        "offset": 0,
        "slot": "6",
        "type": "t_uint256"
      },
      {
        "astId": 6637,
        "contract": "contracts/enforcer/HolographERC20.sol:HolographERC20",
        "label": "_balances",
        "offset": 0,
        "slot": "7",
        "type": "t_mapping(t_address,t_uint256)"
      },
      {
        "astId": 6644,
        "contract": "contracts/enforcer/HolographERC20.sol:HolographERC20",
        "label": "_allowances",
        "offset": 0,
        "slot": "8",
        "type": "t_mapping(t_address,t_mapping(t_address,t_uint256))"
      },
      {
        "astId": 6647,
        "contract": "contracts/enforcer/HolographERC20.sol:HolographERC20",
        "label": "_totalSupply",
        "offset": 0,
        "slot": "9",
        "type": "t_uint256"
      },
      {
        "astId": 6650,
        "contract": "contracts/enforcer/HolographERC20.sol:HolographERC20",
        "label": "_name",
        "offset": 0,
        "slot": "10",
        "type": "t_string_storage"
      },
      {
        "astId": 6653,
        "contract": "contracts/enforcer/HolographERC20.sol:HolographERC20",
        "label": "_symbol",
        "offset": 0,
        "slot": "11",
        "type": "t_string_storage"
      },
      {
        "astId": 6656,
        "contract": "contracts/enforcer/HolographERC20.sol:HolographERC20",
        "label": "_decimals",
        "offset": 0,
        "slot": "12",
        "type": "t_uint8"
      },
      {
        "astId": 6661,
        "contract": "contracts/enforcer/HolographERC20.sol:HolographERC20",
        "label": "_nonces",
        "offset": 0,
        "slot": "13",
        "type": "t_mapping(t_address,t_uint256)"
      }
    ],
    "types": {
      "t_address": {
        "encoding": "inplace",
        "label": "address",
        "numberOfBytes": "20"
      },
      "t_bytes32": {
        "encoding": "inplace",
        "label": "bytes32",
        "numberOfBytes": "32"
      },
      "t_mapping(t_address,t_mapping(t_address,t_uint256))": {
        "encoding": "mapping",
        "key": "t_address",
        "label": "mapping(address => mapping(address => uint256))",
        "numberOfBytes": "32",
        "value": "t_mapping(t_address,t_uint256)"
      },
      "t_mapping(t_address,t_uint256)": {
        "encoding": "mapping",
        "key": "t_address",
        "label": "mapping(address => uint256)",
        "numberOfBytes": "32",
        "value": "t_uint256"
      },
      "t_string_storage": {
        "encoding": "bytes",
        "label": "string",
        "numberOfBytes": "32"
      },
      "t_uint256": {
        "encoding": "inplace",
        "label": "uint256",
        "numberOfBytes": "32"
      },
      "t_uint8": {
        "encoding": "inplace",
        "label": "uint8",
        "numberOfBytes": "1"
      }
    }
  }
}