{
  "address": "0xA3CB97945e08aEc04763134277c3FF6e71c033DB",
  "abi": [
    {
      "inputs": [],
      "stateMutability": "nonpayable",
      "type": "constructor"
    },
    {
      "anonymous": false,
      "inputs": [
        {
          "indexed": true,
          "internalType": "address",
          "name": "previousOwner",
          "type": "address"
        },
        {
          "indexed": true,
          "internalType": "address",
          "name": "newOwner",
          "type": "address"
        }
      ],
      "name": "OwnershipTransferred",
      "type": "event"
    },
    {
      "anonymous": false,
      "inputs": [
        {
          "indexed": false,
          "internalType": "uint256",
          "name": "tokenId",
          "type": "uint256"
        },
        {
          "indexed": false,
          "internalType": "address[]",
          "name": "recipients",
          "type": "address[]"
        },
        {
          "indexed": false,
          "internalType": "uint256[]",
          "name": "bps",
          "type": "uint256[]"
        }
      ],
      "name": "SecondarySaleFees",
      "type": "event"
    },
    {
      "inputs": [],
      "name": "admin",
      "outputs": [
        {
          "internalType": "address",
          "name": "",
          "type": "address"
        }
      ],
      "stateMutability": "view",
      "type": "function"
    },
    {
      "inputs": [
        {
          "internalType": "address",
          "name": "target",
          "type": "address"
        },
        {
          "internalType": "bytes",
          "name": "data",
          "type": "bytes"
        }
      ],
      "name": "adminCall",
      "outputs": [],
      "stateMutability": "payable",
      "type": "function"
    },
    {
      "inputs": [
        {
          "internalType": "uint256",
          "name": "tokenId",
          "type": "uint256"
        }
      ],
      "name": "bidSharesForToken",
      "outputs": [
        {
          "components": [
            {
              "components": [
                {
                  "internalType": "uint256",
                  "name": "value",
                  "type": "uint256"
                }
              ],
              "internalType": "struct ZoraDecimal",
              "name": "prevOwner",
              "type": "tuple"
            },
            {
              "components": [
                {
                  "internalType": "uint256",
                  "name": "value",
                  "type": "uint256"
                }
              ],
              "internalType": "struct ZoraDecimal",
              "name": "creator",
              "type": "tuple"
            },
            {
              "components": [
                {
                  "internalType": "uint256",
                  "name": "value",
                  "type": "uint256"
                }
              ],
              "internalType": "struct ZoraDecimal",
              "name": "owner",
              "type": "tuple"
            }
          ],
          "internalType": "struct ZoraBidShares",
          "name": "bidShares",
          "type": "tuple"
        }
      ],
      "stateMutability": "view",
      "type": "function"
    },
    {
      "inputs": [
        {
          "internalType": "address",
          "name": "",
          "type": "address"
        },
        {
          "internalType": "uint256",
          "name": "tokenId",
          "type": "uint256"
        },
        {
          "internalType": "uint256",
          "name": "amount",
          "type": "uint256"
        }
      ],
      "name": "calculateRoyaltyFee",
      "outputs": [
        {
          "internalType": "uint256",
          "name": "",
          "type": "uint256"
        }
      ],
      "stateMutability": "view",
      "type": "function"
    },
    {
      "inputs": [
        {
          "internalType": "address payable[]",
          "name": "addresses",
          "type": "address[]"
        },
        {
          "internalType": "uint256[]",
          "name": "bps",
          "type": "uint256[]"
        }
      ],
      "name": "configurePayouts",
      "outputs": [],
      "stateMutability": "nonpayable",
      "type": "function"
    },
    {
      "inputs": [],
      "name": "getAdmin",
      "outputs": [
        {
          "internalType": "address",
          "name": "adminAddress",
          "type": "address"
        }
      ],
      "stateMutability": "view",
      "type": "function"
    },
    {
      "inputs": [],
      "name": "getEthPayout",
      "outputs": [],
      "stateMutability": "nonpayable",
      "type": "function"
    },
    {
      "inputs": [
        {
          "internalType": "uint256",
          "name": "tokenId",
          "type": "uint256"
        }
      ],
      "name": "getFeeBps",
      "outputs": [
        {
          "internalType": "uint256[]",
          "name": "",
          "type": "uint256[]"
        }
      ],
      "stateMutability": "view",
      "type": "function"
    },
    {
      "inputs": [
        {
          "internalType": "uint256",
          "name": "tokenId",
          "type": "uint256"
        }
      ],
      "name": "getFeeRecipients",
      "outputs": [
        {
          "internalType": "address payable[]",
          "name": "",
          "type": "address[]"
        }
      ],
      "stateMutability": "view",
      "type": "function"
    },
    {
      "inputs": [
        {
          "internalType": "uint256",
          "name": "tokenId",
          "type": "uint256"
        }
      ],
      "name": "getFees",
      "outputs": [
        {
          "internalType": "address payable[]",
          "name": "",
          "type": "address[]"
        },
        {
          "internalType": "uint256[]",
          "name": "",
          "type": "uint256[]"
        }
      ],
      "stateMutability": "view",
      "type": "function"
    },
    {
      "inputs": [],
      "name": "getOwner",
      "outputs": [
        {
          "internalType": "address",
          "name": "ownerAddress",
          "type": "address"
        }
      ],
      "stateMutability": "view",
      "type": "function"
    },
    {
      "inputs": [],
      "name": "getPayoutInfo",
      "outputs": [
        {
          "internalType": "address payable[]",
          "name": "addresses",
          "type": "address[]"
        },
        {
          "internalType": "uint256[]",
          "name": "bps",
          "type": "uint256[]"
        }
      ],
      "stateMutability": "view",
      "type": "function"
    },
    {
      "inputs": [
        {
          "internalType": "uint256",
          "name": "tokenId",
          "type": "uint256"
        }
      ],
      "name": "getRoyalties",
      "outputs": [
        {
          "internalType": "address payable[]",
          "name": "",
          "type": "address[]"
        },
        {
          "internalType": "uint256[]",
          "name": "",
          "type": "uint256[]"
        }
      ],
      "stateMutability": "view",
      "type": "function"
    },
    {
      "inputs": [],
      "name": "getSourceContract",
      "outputs": [
        {
          "internalType": "address",
          "name": "sourceContract",
          "type": "address"
        }
      ],
      "stateMutability": "view",
      "type": "function"
    },
    {
      "inputs": [
        {
          "internalType": "string",
          "name": "tokenName",
          "type": "string"
        }
      ],
      "name": "getTokenAddress",
      "outputs": [
        {
          "internalType": "address",
          "name": "",
          "type": "address"
        }
      ],
      "stateMutability": "view",
      "type": "function"
    },
    {
      "inputs": [
        {
          "internalType": "address",
          "name": "tokenAddress",
          "type": "address"
        }
      ],
      "name": "getTokenPayout",
      "outputs": [],
      "stateMutability": "nonpayable",
      "type": "function"
    },
    {
      "inputs": [
        {
          "internalType": "address[]",
          "name": "tokenAddresses",
          "type": "address[]"
        }
      ],
      "name": "getTokensPayout",
      "outputs": [],
      "stateMutability": "nonpayable",
      "type": "function"
    },
    {
      "inputs": [
        {
          "internalType": "bytes",
          "name": "initPayload",
          "type": "bytes"
        }
      ],
      "name": "init",
      "outputs": [
        {
          "internalType": "bytes4",
          "name": "",
          "type": "bytes4"
        }
      ],
      "stateMutability": "nonpayable",
      "type": "function"
    },
    {
      "inputs": [
        {
          "internalType": "bytes",
          "name": "initPayload",
          "type": "bytes"
        }
      ],
      "name": "initHolographRoyalties",
      "outputs": [
        {
          "internalType": "bytes4",
          "name": "",
          "type": "bytes4"
        }
      ],
      "stateMutability": "nonpayable",
      "type": "function"
    },
    {
      "inputs": [],
      "name": "marketContract",
      "outputs": [
        {
          "internalType": "address",
          "name": "",
          "type": "address"
        }
      ],
      "stateMutability": "view",
      "type": "function"
    },
    {
      "inputs": [],
      "name": "owner",
      "outputs": [
        {
          "internalType": "address",
          "name": "",
          "type": "address"
        }
      ],
      "stateMutability": "view",
      "type": "function"
    },
    {
      "inputs": [
        {
          "internalType": "address",
          "name": "target",
          "type": "address"
        },
        {
          "internalType": "bytes",
          "name": "data",
          "type": "bytes"
        }
      ],
      "name": "ownerCall",
      "outputs": [],
      "stateMutability": "payable",
      "type": "function"
    },
    {
      "inputs": [
        {
          "internalType": "uint256",
          "name": "tokenId",
          "type": "uint256"
        },
        {
          "internalType": "uint256",
          "name": "value",
          "type": "uint256"
        }
      ],
      "name": "royaltyInfo",
      "outputs": [
        {
          "internalType": "address",
          "name": "",
          "type": "address"
        },
        {
          "internalType": "uint256",
          "name": "",
          "type": "uint256"
        }
      ],
      "stateMutability": "view",
      "type": "function"
    },
    {
      "inputs": [
        {
          "internalType": "address",
          "name": "adminAddress",
          "type": "address"
        }
      ],
      "name": "setAdmin",
      "outputs": [],
      "stateMutability": "nonpayable",
      "type": "function"
    },
    {
      "inputs": [
        {
          "internalType": "address",
          "name": "ownerAddress",
          "type": "address"
        }
      ],
      "name": "setOwner",
      "outputs": [],
      "stateMutability": "nonpayable",
      "type": "function"
    },
    {
      "inputs": [
        {
          "internalType": "uint256",
          "name": "tokenId",
          "type": "uint256"
        },
        {
          "internalType": "address payable",
          "name": "receiver",
          "type": "address"
        },
        {
          "internalType": "uint256",
          "name": "bp",
          "type": "uint256"
        }
      ],
      "name": "setRoyalties",
      "outputs": [],
      "stateMutability": "nonpayable",
      "type": "function"
    },
    {
      "inputs": [
        {
          "internalType": "address",
          "name": "",
          "type": "address"
        },
        {
          "internalType": "uint256",
          "name": "tokenId",
          "type": "uint256"
        }
      ],
      "name": "tokenCreator",
      "outputs": [
        {
          "internalType": "address",
          "name": "",
          "type": "address"
        }
      ],
      "stateMutability": "view",
      "type": "function"
    },
    {
      "inputs": [
        {
          "internalType": "uint256",
          "name": "tokenId",
          "type": "uint256"
        }
      ],
      "name": "tokenCreators",
      "outputs": [
        {
          "internalType": "address",
          "name": "",
          "type": "address"
        }
      ],
      "stateMutability": "view",
      "type": "function"
    },
    {
      "inputs": [
        {
          "internalType": "address",
          "name": "newOwner",
          "type": "address"
        }
      ],
      "name": "transferOwnership",
      "outputs": [],
      "stateMutability": "nonpayable",
      "type": "function"
    }
  ],
  "transactionHash": "0xb8a4e30e4fed7afabac82d0562603d368814194f685a56bc99cc718dfcc6129e",
  "args": [],
  "numDeployments": 1,
  "solcInputHash": "5002c0cc8fc8dc44209e42bdbf3f3b3b",
  "bytecode": "0x608060405234801561001057600080fd5b50612dc8806100206000396000f3fe6080604052600436106101c25760003560e01c80638da5cb5b116100f7578063c409123611610095578063eb66dbcf11610064578063eb66dbcf14610553578063f2fde38b14610566578063f851a44014610586578063f9ce05821461059b57600080fd5b8063c4091236146104f3578063d5a06d4c146104c0578063e0fd045f14610513578063e2c7f3381461053357600080fd5b8063b85ed7e4116100d1578063b85ed7e414610473578063b9c4d9fb14610493578063bb3bafd6146104c0578063bf64a82d146104e057600080fd5b80638da5cb5b1461043b578063990803c314610450578063a1794bcd146103a657600080fd5b80633328d219116101645780636faf275b1161013e5780636faf275b146103a6578063704b6c02146103b9578063860110f5146103d9578063893d20e81461040757600080fd5b80633328d219146103115780634ddf47d4146103315780636e9960c31461035157600080fd5b80631949ddf3116101a05780631949ddf3146102345780631aff10771461025457806320c60d2a146102a55780632a55205a146102c557600080fd5b80630ebd4c7f146101c757806312cb4738146101fd57806313af403514610214575b600080fd5b3480156101d357600080fd5b506101e76101e236600461255d565b6105e0565b6040516101f491906125b1565b60405180910390f35b34801561020957600080fd5b506102126106a1565b005b34801561022057600080fd5b5061021261022f3660046125e6565b6106b3565b34801561024057600080fd5b5061021261024f3660046125e6565b6107d3565b34801561026057600080fd5b5061027461026f3660046126f7565b6107e7565b6040517fffffffff0000000000000000000000000000000000000000000000000000000090911681526020016101f4565b3480156102b157600080fd5b506102126102c036600461276c565b6109c2565b3480156102d157600080fd5b506102e56102e036600461280b565b6109d3565b6040805173ffffffffffffffffffffffffffffffffffffffff90931683526020830191909152016101f4565b34801561031d57600080fd5b5061021261032c366004612893565b610a82565b34801561033d57600080fd5b5061027461034c3660046126f7565b610c24565b34801561035d57600080fd5b507f3f106594dc74eeef980dae234cde8324dc2497b13d27a0c59e55bd2ca10a07c9545b60405173ffffffffffffffffffffffffffffffffffffffff90911681526020016101f4565b3480156103b257600080fd5b5030610381565b3480156103c557600080fd5b506102126103d43660046125e6565b610d70565b3480156103e557600080fd5b506103f96103f4366004612955565b610e4a565b6040519081526020016101f4565b34801561041357600080fd5b507fb56711ba6bd3ded7639fc335ee7524fe668a79d7558c85992e3f8494cf77277754610381565b34801561044757600080fd5b50610381610ecc565b34801561045c57600080fd5b50610465610efb565b6040516101f49291906129d0565b34801561047f57600080fd5b5061038161048e3660046129fe565b610f16565b34801561049f57600080fd5b506104b36104ae36600461255d565b610f67565b6040516101f49190612a2a565b3480156104cc57600080fd5b506104656104db36600461255d565b611082565b6102126104ee366004612a3d565b61121a565b3480156104ff57600080fd5b5061038161050e3660046126f7565b6112fc565b34801561051f57600080fd5b5061038161052e36600461255d565b611307565b34801561053f57600080fd5b5061021261054e366004612ac2565b611356565b610212610561366004612a3d565b611516565b34801561057257600080fd5b506102126105813660046125e6565b611584565b34801561059257600080fd5b50610381611693565b3480156105a757600080fd5b506105bb6105b636600461255d565b6116bd565b60408051825151815260208084015151908201529181015151908201526060016101f4565b6040805160018082528183019092526060916000919060208083019080368337019050509050600061061184611765565b73ffffffffffffffffffffffffffffffffffffffff1603610672577fff29fcf645501423fd56e0287670f6813a1e5db5cf706428bc8516381e7ffe81548160008151811061066157610661612afa565b60200260200101818152505061069b565b61067b836117c0565b8160008151811061068e5761068e612afa565b6020026020010181815250505b92915050565b6106a961180d565b6106b1611902565b565b6106bb611a74565b610726576040517f08c379a000000000000000000000000000000000000000000000000000000000815260206004820152601e60248201527f524f59414c544945533a2063616c6c6572206e6f7420616e206f776e6572000060448201526064015b60405180910390fd5b60006107507fb56711ba6bd3ded7639fc335ee7524fe668a79d7558c85992e3f8494cf7727775490565b9050817fb56711ba6bd3ded7639fc335ee7524fe668a79d7558c85992e3f8494cf772777558173ffffffffffffffffffffffffffffffffffffffff168173ffffffffffffffffffffffffffffffffffffffff167f8be0079c531659141344cd1fd0a4f28419497f9722a3daafe3b4186f6b6457e060405160405180910390a35050565b6107db61180d565b6107e481611c39565b50565b7f91428d26cb4818e4e627ebb64c06b5a67b82f313516b5c903cf07a00681c95f6546000908015610874576040517f08c379a000000000000000000000000000000000000000000000000000000000815260206004820152601e60248201527f524f59414c544945533a20616c726561647920696e697469616c697a65640000604482015260640161071d565b60008380602001905181019061088a9190612b29565b905061089860003083611356565b604080516001808252818301909252600091602080830190803683370190505090506108e27fb56711ba6bd3ded7639fc335ee7524fe668a79d7558c85992e3f8494cf7727775490565b816000815181106108f5576108f5612afa565b73ffffffffffffffffffffffffffffffffffffffff92909216602092830291909101909101526040805160018082528183019092526000918160200160208202803683370190505090506127108160008151811061095557610955612afa565b60200260200101818152505061096a82611ecf565b61097381611f60565b505060017f91428d26cb4818e4e627ebb64c06b5a67b82f313516b5c903cf07a00681c95f655507f4ddf47d4000000000000000000000000000000000000000000000000000000009392505050565b6109ca61180d565b6107e481611ff1565b600080806109e085611765565b73ffffffffffffffffffffffffffffffffffffffff1603610a65577eb381815b89a20a37ee91e8a0119be5e16f6d1668377e7ae457213a74a415bb5461271084610a487fff29fcf645501423fd56e0287670f6813a1e5db5cf706428bc8516381e7ffe815490565b610a529190612b71565b610a5c9190612bae565b91509150610a7b565b610a6e84611765565b61271084610a48876117c0565b9250929050565b610a8a611a74565b610af0576040517f08c379a000000000000000000000000000000000000000000000000000000000815260206004820152601e60248201527f524f59414c544945533a2063616c6c6572206e6f7420616e206f776e65720000604482015260640161071d565b8051825114610b5b576040517f08c379a000000000000000000000000000000000000000000000000000000000815260206004820152601e60248201527f524f59414c544945533a206d6973736d617463686564206c656e676874730000604482015260640161071d565b6000805b8351811015610ba157828181518110610b7a57610b7a612afa565b602002602001015182610b8d9190612be9565b915080610b9981612c01565b915050610b5f565b508061271014610c0d576040517f08c379a000000000000000000000000000000000000000000000000000000000815260206004820152601f60248201527f524f59414c544945533a20627073206d75737420657175616c20313030303000604482015260640161071d565b610c1683611ecf565b610c1f82611f60565b505050565b6000610c4e7f4e5f991bca30eca2d4643aaefa807e88f96a4a97398933d572a3c0d973004a015490565b15610cb5576040517f08c379a000000000000000000000000000000000000000000000000000000000815260206004820152601e60248201527f524f59414c544945533a20616c726561647920696e697469616c697a65640000604482015260640161071d565b337f3f106594dc74eeef980dae234cde8324dc2497b13d27a0c59e55bd2ca10a07c955337fb56711ba6bd3ded7639fc335ee7524fe668a79d7558c85992e3f8494cf77277755600082806020019051810190610d119190612b29565b9050610d1f60003083611356565b610d4860017f4e5f991bca30eca2d4643aaefa807e88f96a4a97398933d572a3c0d973004a0155565b507f4ddf47d40000000000000000000000000000000000000000000000000000000092915050565b7f3f106594dc74eeef980dae234cde8324dc2497b13d27a0c59e55bd2ca10a07c95473ffffffffffffffffffffffffffffffffffffffff163373ffffffffffffffffffffffffffffffffffffffff1614610e26576040517f08c379a000000000000000000000000000000000000000000000000000000000815260206004820152601e60248201527f484f4c4f47524150483a2061646d696e206f6e6c792066756e6374696f6e0000604482015260640161071d565b7f3f106594dc74eeef980dae234cde8324dc2497b13d27a0c59e55bd2ca10a07c955565b600080610e5684611765565b73ffffffffffffffffffffffffffffffffffffffff1603610eb85761271082610e9d7fff29fcf645501423fd56e0287670f6813a1e5db5cf706428bc8516381e7ffe815490565b610ea79190612b71565b610eb19190612bae565b9050610ec5565b61271082610e9d856117c0565b9392505050565b6000610ef67fb56711ba6bd3ded7639fc335ee7524fe668a79d7558c85992e3f8494cf7727775490565b905090565b606080610f066122b6565b9150610f106123af565b90509091565b600080610f2283611765565b905073ffffffffffffffffffffffffffffffffffffffff8116610ec55750507eb381815b89a20a37ee91e8a0119be5e16f6d1668377e7ae457213a74a415bb5461069b565b60408051600180825281830190925260609160009190602080830190803683370190505090506000610f9884611765565b73ffffffffffffffffffffffffffffffffffffffff1603611026577eb381815b89a20a37ee91e8a0119be5e16f6d1668377e7ae457213a74a415bb5481600081518110610fe757610fe7612afa565b602002602001019073ffffffffffffffffffffffffffffffffffffffff16908173ffffffffffffffffffffffffffffffffffffffff168152505061069b565b61102f83611765565b8160008151811061104257611042612afa565b602002602001019073ffffffffffffffffffffffffffffffffffffffff16908173ffffffffffffffffffffffffffffffffffffffff168152505092915050565b604080516001808252818301909252606091829160009160208083019080368337505060408051600180825281830190925292935060009291506020808301908036833701905050905060006110d786611765565b73ffffffffffffffffffffffffffffffffffffffff1603611191577eb381815b89a20a37ee91e8a0119be5e16f6d1668377e7ae457213a74a415bb548260008151811061112657611126612afa565b73ffffffffffffffffffffffffffffffffffffffff909216602092830291909101909101527fff29fcf645501423fd56e0287670f6813a1e5db5cf706428bc8516381e7ffe81548160008151811061118057611180612afa565b602002602001018181525050611210565b61119a85611765565b826000815181106111ad576111ad612afa565b602002602001019073ffffffffffffffffffffffffffffffffffffffff16908173ffffffffffffffffffffffffffffffffffffffff16815250506111f0856117c0565b8160008151811061120357611203612afa565b6020026020010181815250505b9094909350915050565b7f3f106594dc74eeef980dae234cde8324dc2497b13d27a0c59e55bd2ca10a07c95473ffffffffffffffffffffffffffffffffffffffff163373ffffffffffffffffffffffffffffffffffffffff16146112d0576040517f08c379a000000000000000000000000000000000000000000000000000000000815260206004820152601e60248201527f484f4c4f47524150483a2061646d696e206f6e6c792066756e6374696f6e0000604482015260640161071d565b808260003760008082600034875af13d6000803e8080156112f0573d6000f35b3d6000fd5b5050505050565b600061069b82612487565b60008061131383611765565b905073ffffffffffffffffffffffffffffffffffffffff811661069b577eb381815b89a20a37ee91e8a0119be5e16f6d1668377e7ae457213a74a415bb54610ec5565b61135e611a74565b6113c4576040517f08c379a000000000000000000000000000000000000000000000000000000000815260206004820152601e60248201527f524f59414c544945533a2063616c6c6572206e6f7420616e206f776e65720000604482015260640161071d565b82600003611420576113f3827eb381815b89a20a37ee91e8a0119be5e16f6d1668377e7ae457213a74a415bb55565b61141b817fff29fcf645501423fd56e0287670f6813a1e5db5cf706428bc8516381e7ffe8155565b611434565b61142a83836124b7565b6114348382612511565b60408051600180825281830190925260009160208083019080368337019050509050828160008151811061146a5761146a612afa565b73ffffffffffffffffffffffffffffffffffffffff929092166020928302919091019091015260408051600180825281830190925260009181602001602082028036833701905050905082816000815181106114c8576114c8612afa565b6020026020010181815250507f99aba1d63749cfd5ad1afda7c4663840924d54eb5f005bbbeadedc6ec13674b285838360405161150793929190612c39565b60405180910390a15050505050565b61151e611a74565b6112d0576040517f08c379a000000000000000000000000000000000000000000000000000000000815260206004820152601e60248201527f524f59414c544945533a2063616c6c6572206e6f7420616e206f776e65720000604482015260640161071d565b61158c611a74565b6115f2576040517f08c379a000000000000000000000000000000000000000000000000000000000815260206004820152601e60248201527f524f59414c544945533a2063616c6c6572206e6f7420616e206f776e65720000604482015260640161071d565b73ffffffffffffffffffffffffffffffffffffffff811661166f576040517f08c379a000000000000000000000000000000000000000000000000000000000815260206004820152601760248201527f484f4c4f47524150483a207a65726f2061646472657373000000000000000000604482015260640161071d565b7fb56711ba6bd3ded7639fc335ee7524fe668a79d7558c85992e3f8494cf77277755565b6000610ef67f3f106594dc74eeef980dae234cde8324dc2497b13d27a0c59e55bd2ca10a07c95490565b6116fa6040805160808101825260006060820181815282528251602080820185528282528084019190915283519081018452908152909182015290565b8051600090819052604082015181905261171383611765565b73ffffffffffffffffffffffffffffffffffffffff160361175c577fff29fcf645501423fd56e0287670f6813a1e5db5cf706428bc8516381e7ffe81545b602082015152919050565b611751826117c0565b6000806001604051806060016040528060248152602001612d986024913984604051602001611795929190612ceb565b6040516020818303038152906040528051906020012060001c6117b89190612d04565b549392505050565b60008060016040518060400160405280601e81526020017f656970313936372e486f6c6f67726170682e524f59414c544945532e6270000081525084604051602001611795929190612ceb565b611815611a74565b6106b1576000806118246122b6565b90503360005b825181101561189a578173ffffffffffffffffffffffffffffffffffffffff1683828151811061185c5761185c612afa565b602002602001015173ffffffffffffffffffffffffffffffffffffffff1603611888576001935061189a565b8061189281612c01565b91505061182a565b5082610c1f576040517f08c379a000000000000000000000000000000000000000000000000000000000815260206004820181905260248201527f524f59414c544945533a2073656e646572206e6f7420617574686f72697a6564604482015260640161071d565b600061190c6122b6565b905060006119186123af565b825190915060008161192c81615b04612b71565b6119369190612be9565b9050476127106119468383612d04565b116119ad576040517f08c379a000000000000000000000000000000000000000000000000000000000815260206004820152601960248201527f524f59414c544945533a204e6f7420656e6f7567682045544800000000000000604482015260640161071d565b6119b78282612d04565b90506000805b84811015611a6b57612710838783815181106119db576119db612afa565b60200260200101516119ed9190612b71565b6119f79190612bae565b9150868181518110611a0b57611a0b612afa565b602002602001015173ffffffffffffffffffffffffffffffffffffffff166108fc839081150290604051600060405180830381858888f19350505050158015611a58573d6000803e3d6000fd5b5080611a6381612c01565b9150506119bd565b50505050505050565b6000611a9e7fb56711ba6bd3ded7639fc335ee7524fe668a79d7558c85992e3f8494cf7727775490565b73ffffffffffffffffffffffffffffffffffffffff163373ffffffffffffffffffffffffffffffffffffffff161480611b2357507f3f106594dc74eeef980dae234cde8324dc2497b13d27a0c59e55bd2ca10a07c95473ffffffffffffffffffffffffffffffffffffffff163373ffffffffffffffffffffffffffffffffffffffff16145b80610ef657503073ffffffffffffffffffffffffffffffffffffffff16636faf275b6040518163ffffffff1660e01b8152600401602060405180830381865afa158015611b74573d6000803e3d6000fd5b505050506040513d601f19601f82011682018060405250810190611b989190612d1b565b73ffffffffffffffffffffffffffffffffffffffff16638da5cb5b6040518163ffffffff1660e01b8152600401602060405180830381865afa158015611be2573d6000803e3d6000fd5b505050506040513d601f19601f82011682018060405250810190611c069190612d1b565b73ffffffffffffffffffffffffffffffffffffffff163373ffffffffffffffffffffffffffffffffffffffff1614905090565b6000611c436122b6565b90506000611c4f6123af565b82516040517f70a0823100000000000000000000000000000000000000000000000000000000815230600482015291925090849060009073ffffffffffffffffffffffffffffffffffffffff8316906370a0823190602401602060405180830381865afa158015611cc4573d6000803e3d6000fd5b505050506040513d601f19601f82011682018060405250810190611ce89190612b29565b90506127108111611d55576040517f08c379a000000000000000000000000000000000000000000000000000000000815260206004820152601c60248201527f524f59414c544945533a204e6f7420656e6f75676820746f6b656e7300000000604482015260640161071d565b6000805b84811015611ec55761271083878381518110611d7757611d77612afa565b6020026020010151611d899190612b71565b611d939190612bae565b91508373ffffffffffffffffffffffffffffffffffffffff1663a9059cbb888381518110611dc357611dc3612afa565b6020026020010151846040518363ffffffff1660e01b8152600401611e0a92919073ffffffffffffffffffffffffffffffffffffffff929092168252602082015260400190565b6020604051808303816000875af1158015611e29573d6000803e3d6000fd5b505050506040513d601f19601f82011682018060405250810190611e4d9190612d38565b611eb3576040517f08c379a000000000000000000000000000000000000000000000000000000000815260206004820181905260248201527f524f59414c544945533a204552433230207472616e73666572206661696c6564604482015260640161071d565b80611ebd81612c01565b915050611d59565b5050505050505050565b80517ff31f2a3a453a7aa2f3054423a8c5474ac9817ea457b458152967bbcb12ed6a43818155906000805b828110156112f5576040805160208101839052908101859052606001604051602081830303815290604052805190602001209350848181518110611f4057611f40612afa565b602002602001015191508184558080611f5890612c01565b915050611efa565b80517fa4023567d5b5f01c63e00d90785d7cd4ff057a237ad185c5ecade8f4059fb61a818155906000805b828110156112f5576040805160208101839052908101859052606001604051602081830303815290604052805190602001209350848181518110611fd157611fd1612afa565b602002602001015191508184558080611fe990612c01565b915050611f8b565b6000611ffb6122b6565b905060006120076123af565b905060008080805b8651811015611a6b5786818151811061202a5761202a612afa565b60209081029190910101516040517f70a0823100000000000000000000000000000000000000000000000000000000815230600482015290945073ffffffffffffffffffffffffffffffffffffffff8516906370a0823190602401602060405180830381865afa1580156120a2573d6000803e3d6000fd5b505050506040513d601f19601f820116820180604052508101906120c69190612b29565b92506127108311612133576040517f08c379a000000000000000000000000000000000000000000000000000000000815260206004820152601c60248201527f524f59414c544945533a204e6f7420656e6f75676820746f6b656e7300000000604482015260640161071d565b60005b86518110156122a3576127108487838151811061215557612155612afa565b60200260200101516121679190612b71565b6121719190612bae565b92508473ffffffffffffffffffffffffffffffffffffffff1663a9059cbb8883815181106121a1576121a1612afa565b6020026020010151856040518363ffffffff1660e01b81526004016121e892919073ffffffffffffffffffffffffffffffffffffffff929092168252602082015260400190565b6020604051808303816000875af1158015612207573d6000803e3d6000fd5b505050506040513d601f19601f8201168201806040525081019061222b9190612d38565b612291576040517f08c379a000000000000000000000000000000000000000000000000000000000815260206004820181905260248201527f524f59414c544945533a204552433230207472616e73666572206661696c6564604482015260640161071d565b8061229b81612c01565b915050612136565b50806122ae81612c01565b91505061200f565b7ff31f2a3a453a7aa2f3054423a8c5474ac9817ea457b458152967bbcb12ed6a438054606091908067ffffffffffffffff8111156122f6576122f6612603565b60405190808252806020026020018201604052801561231f578160200160208202803683370190505b5092506000805b828110156123a8576040805160208101839052908101859052606001604051602081830303815290604052805190602001209350835491508185828151811061237157612371612afa565b73ffffffffffffffffffffffffffffffffffffffff90921660209283029190910190910152806123a081612c01565b915050612326565b5050505090565b7fa4023567d5b5f01c63e00d90785d7cd4ff057a237ad185c5ecade8f4059fb61a8054606091908067ffffffffffffffff8111156123ef576123ef612603565b604051908082528060200260200182016040528015612418578160200160208202803683370190505b5092506000805b828110156123a8576040805160208101839052908101859052606001604051602081830303815290604052805190602001209350835491508185828151811061246a5761246a612afa565b60209081029190910101528061247f81612c01565b91505061241f565b6000806001604051806060016040528060288152602001612d706028913984604051602001611795929190612d5a565b60006001604051806060016040528060248152602001612d9860249139846040516020016124e6929190612ceb565b6040516020818303038152906040528051906020012060001c6125099190612d04565b919091555050565b600060016040518060400160405280601e81526020017f656970313936372e486f6c6f67726170682e524f59414c544945532e62700000815250846040516020016124e6929190612ceb565b60006020828403121561256f57600080fd5b5035919050565b600081518084526020808501945080840160005b838110156125a65781518752958201959082019060010161258a565b509495945050505050565b602081526000610ec56020830184612576565b73ffffffffffffffffffffffffffffffffffffffff811681146107e457600080fd5b6000602082840312156125f857600080fd5b8135610ec5816125c4565b7f4e487b7100000000000000000000000000000000000000000000000000000000600052604160045260246000fd5b604051601f82017fffffffffffffffffffffffffffffffffffffffffffffffffffffffffffffffe016810167ffffffffffffffff8111828210171561267957612679612603565b604052919050565b600067ffffffffffffffff83111561269b5761269b612603565b6126cc60207fffffffffffffffffffffffffffffffffffffffffffffffffffffffffffffffe0601f86011601612632565b90508281528383830111156126e057600080fd5b828260208301376000602084830101529392505050565b60006020828403121561270957600080fd5b813567ffffffffffffffff81111561272057600080fd5b8201601f8101841361273157600080fd5b61274084823560208401612681565b949350505050565b600067ffffffffffffffff82111561276257612762612603565b5060051b60200190565b6000602080838503121561277f57600080fd5b823567ffffffffffffffff81111561279657600080fd5b8301601f810185136127a757600080fd5b80356127ba6127b582612748565b612632565b81815260059190911b820183019083810190878311156127d957600080fd5b928401925b828410156128005783356127f1816125c4565b825292840192908401906127de565b979650505050505050565b6000806040838503121561281e57600080fd5b50508035926020909101359150565b600082601f83011261283e57600080fd5b8135602061284e6127b583612748565b82815260059290921b8401810191818101908684111561286d57600080fd5b8286015b848110156128885780358352918301918301612871565b509695505050505050565b600080604083850312156128a657600080fd5b823567ffffffffffffffff808211156128be57600080fd5b818501915085601f8301126128d257600080fd5b813560206128e26127b583612748565b82815260059290921b8401810191818101908984111561290157600080fd5b948201945b83861015612928578535612919816125c4565b82529482019490820190612906565b9650508601359250508082111561293e57600080fd5b5061294b8582860161282d565b9150509250929050565b60008060006060848603121561296a57600080fd5b8335612975816125c4565b95602085013595506040909401359392505050565b600081518084526020808501945080840160005b838110156125a657815173ffffffffffffffffffffffffffffffffffffffff168752958201959082019060010161299e565b6040815260006129e3604083018561298a565b82810360208401526129f58185612576565b95945050505050565b60008060408385031215612a1157600080fd5b8235612a1c816125c4565b946020939093013593505050565b602081526000610ec5602083018461298a565b600080600060408486031215612a5257600080fd5b8335612a5d816125c4565b9250602084013567ffffffffffffffff80821115612a7a57600080fd5b818601915086601f830112612a8e57600080fd5b813581811115612a9d57600080fd5b876020828501011115612aaf57600080fd5b6020830194508093505050509250925092565b600080600060608486031215612ad757600080fd5b833592506020840135612ae9816125c4565b929592945050506040919091013590565b7f4e487b7100000000000000000000000000000000000000000000000000000000600052603260045260246000fd5b600060208284031215612b3b57600080fd5b5051919050565b7f4e487b7100000000000000000000000000000000000000000000000000000000600052601160045260246000fd5b6000817fffffffffffffffffffffffffffffffffffffffffffffffffffffffffffffffff0483118215151615612ba957612ba9612b42565b500290565b600082612be4577f4e487b7100000000000000000000000000000000000000000000000000000000600052601260045260246000fd5b500490565b60008219821115612bfc57612bfc612b42565b500190565b60007fffffffffffffffffffffffffffffffffffffffffffffffffffffffffffffffff8203612c3257612c32612b42565b5060010190565b6000606082018583526020606081850152818651808452608086019150828801935060005b81811015612c9057845173ffffffffffffffffffffffffffffffffffffffff1683529383019391830191600101612c5e565b50508481036040860152612ca48187612576565b98975050505050505050565b6000815160005b81811015612cd15760208185018101518683015201612cb7565b81811115612ce0576000828601525b509290920192915050565b6000612cf78285612cb0565b9283525050602001919050565b600082821015612d1657612d16612b42565b500390565b600060208284031215612d2d57600080fd5b8151610ec5816125c4565b600060208284031215612d4a57600080fd5b81518015158114610ec557600080fd5b6000612740612d698386612cb0565b84612cb056fe656970313936372e486f6c6f67726170682e524f59414c544945532e746f6b656e41646472657373656970313936372e486f6c6f67726170682e524f59414c544945532e7265636569766572a164736f6c634300080d000a",
  "devdoc": {
    "author": "CXIP-Labs",
    "details": "This smart contract is not intended to be used directly. Apply it to any of your ERC721 or ERC1155 smart contracts through a delegatecall fallback.",
    "events": {
      "SecondarySaleFees(uint256,address[],uint256[])": {
        "details": "Emits event in order to comply with Rarible V1 royalty spec.",
        "params": {
          "bps": "Uint256 array of base points(percentages) that each wallet(specified in recipients) will receive from the royalty payouts. Make sure that all the base points add up to a total of 10000.",
          "recipients": "Address array of wallets that will receive tha royalties.",
          "tokenId": "Specific token id for which royalty info is being set, set as 0 for all tokens inside of the smart contract."
        }
      }
    },
    "kind": "dev",
    "methods": {
      "configurePayouts(address[],uint256[])": {
        "details": "Function can only we called by owner, admin, or identity wallet.Addresses and bps arrays must be equal length. Bps values added together must equal 10000 exactly.",
        "params": {
          "addresses": "An array of all the addresses that will be receiving royalty payouts.",
          "bps": "An array of the percentages that each address will receive from the royalty payouts."
        }
      },
      "constructor": {
        "details": "Constructor is left empty and init is used instead"
      },
      "getEthPayout()": {
        "details": "Distribute all the ETH(minus gas fees) to payout recipients."
      },
      "getPayoutInfo()": {
        "details": "These are the recipients that will be getting royalty payouts.",
        "returns": {
          "addresses": "An array of all the addresses that will be receiving royalty payouts.",
          "bps": "An array of the percentages that each address will receive from the royalty payouts."
        }
      },
      "getSourceContract()": {
        "details": "This is here in place to prevent reverts in case contract is used outside of the protocol."
      },
      "getTokenAddress(string)": {
        "details": "Used only to identify really major/common tokens. Avoid using due to gas usages.",
        "params": {
          "tokenName": "The ticker symbol of the token. For example \"USDC\" or \"DAI\"."
        },
        "returns": {
          "_0": "The smart contract address of the token ticker symbol. Or zero address if not found."
        }
      },
      "getTokenPayout(address)": {
        "details": "Contract owner, admin, identity wallet, and payout recipients can call this function.",
        "params": {
          "tokenAddress": "An address of the token for which to issue payouts for."
        }
      },
      "getTokensPayout(address[])": {
        "details": "Each token balance must be equal or greater than 10000. Otherwise calculating BP is difficult.",
        "params": {
          "tokenAddresses": "An address array of tokens to issue payouts for."
        }
      },
      "init(bytes)": {
        "details": "This function is called by the deployer/factory when creating a contract",
        "params": {
          "initPayload": "abi encoded payload to use for contract initilaization"
        }
      },
      "setRoyalties(uint256,address,uint256)": {
        "details": "Take great care to not make this function accessible by other public functions in your overlying smart contract.",
        "params": {
          "bp": "Uint256 of royalty percentage, provided in base points format.",
          "receiver": "Wallet or smart contract that will receive the royalty payouts.",
          "tokenId": "Set a specific token id, or leave at 0 to set as default parameters."
        }
      }
    },
    "stateVariables": {
      "_defaultBpSlot": {
        "details": "bytes32(uint256(keccak256('eip1967.Holograph.ROYALTIES.defaultBp')) - 1)"
      },
      "_defaultReceiverSlot": {
        "details": "bytes32(uint256(keccak256('eip1967.Holograph.ROYALTIES.defaultReceiver')) - 1)"
      },
      "_initializedPaidSlot": {
        "details": "bytes32(uint256(keccak256('eip1967.Holograph.ROYALTIES.initialized')) - 1)"
      },
      "_payoutAddressesSlot": {
        "details": "bytes32(uint256(keccak256('eip1967.Holograph.ROYALTIES.payout.addresses')) - 1)"
      },
      "_payoutBpsSlot": {
        "details": "bytes32(uint256(keccak256('eip1967.Holograph.ROYALTIES.payout.bps')) - 1)"
      }
    },
    "title": "HolographRoyalties (previously PA1D)",
    "version": 1
  },
  "userdoc": {
    "events": {
      "SecondarySaleFees(uint256,address[],uint256[])": {
        "notice": "Event emitted when setting/updating royalty info/fees. This is used by Rarible V1."
      }
    },
    "kind": "user",
    "methods": {
      "configurePayouts(address[],uint256[])": {
        "notice": "Set the wallets and percentages for royalty payouts."
      },
      "getEthPayout()": {
        "notice": "Get payout of all ETH in smart contract."
      },
      "getPayoutInfo()": {
        "notice": "Show the wallets and percentages of payout recipients."
      },
      "getTokenAddress(string)": {
        "notice": "Get the smart contract address of a token by common name."
      },
      "getTokenPayout(address)": {
        "notice": "Get payout for a specific token address. Token must have a positive balance!"
      },
      "getTokensPayout(address[])": {
        "notice": "Get payouts for tokens listed by address. Tokens must have a positive balance!"
      },
      "init(bytes)": {
        "notice": "Used internally to initialize the contract instead of through a constructor"
      },
      "setRoyalties(uint256,address,uint256)": {
        "notice": "Set the royalty information for entire contract, or a specific token."
      }
    },
    "notice": "A smart contract for providing royalty info, collecting royalties, and distributing it to configured payout wallets.",
    "version": 1
  },
  "storageLayout": {
    "storage": [],
    "types": null
  }
}