{
  "address": "0xf40C703a1a7cB3163129f71BD5C38d79D23EbBd8",
  "abi": [
    {
      "inputs": [],
      "stateMutability": "nonpayable",
      "type": "constructor"
    },
    {
      "inputs": [
        {
          "internalType": "bytes32",
          "name": "role",
          "type": "bytes32"
        }
      ],
      "name": "Access_MissingRoleOrAdmin",
      "type": "error"
    },
    {
      "inputs": [],
      "name": "Access_OnlyAdmin",
      "type": "error"
    },
    {
      "inputs": [],
      "name": "Access_WithdrawNotAllowed",
      "type": "error"
    },
    {
      "inputs": [
        {
          "internalType": "address",
          "name": "proposedAddress",
          "type": "address"
        }
      ],
      "name": "Admin_InvalidUpgradeAddress",
      "type": "error"
    },
    {
      "inputs": [],
      "name": "Admin_UnableToFinalizeNotOpenEdition",
      "type": "error"
    },
    {
      "inputs": [],
      "name": "ExternalMetadataRenderer_CallFailed",
      "type": "error"
    },
    {
      "inputs": [],
      "name": "FeePaymentFailed",
      "type": "error"
    },
    {
      "inputs": [],
      "name": "MintFee_FundsSendFailure",
      "type": "error"
    },
    {
      "inputs": [],
      "name": "Mint_SoldOut",
      "type": "error"
    },
    {
      "inputs": [],
      "name": "Presale_Inactive",
      "type": "error"
    },
    {
      "inputs": [],
      "name": "Presale_MerkleNotApproved",
      "type": "error"
    },
    {
      "inputs": [],
      "name": "Presale_TooManyForAddress",
      "type": "error"
    },
    {
      "inputs": [],
      "name": "Purchase_TooManyForAddress",
      "type": "error"
    },
    {
      "inputs": [
        {
          "internalType": "uint256",
          "name": "correctPrice",
          "type": "uint256"
        }
      ],
      "name": "Purchase_WrongPrice",
      "type": "error"
    },
    {
      "inputs": [],
      "name": "Sale_Inactive",
      "type": "error"
    },
    {
      "inputs": [
        {
          "internalType": "uint16",
          "name": "maxRoyaltyBPS",
          "type": "uint16"
        }
      ],
      "name": "Setup_RoyaltyPercentageTooHigh",
      "type": "error"
    },
    {
      "inputs": [],
      "name": "Withdraw_FundsSendFailure",
      "type": "error"
    },
    {
      "anonymous": false,
      "inputs": [
        {
          "indexed": true,
          "internalType": "address",
          "name": "source",
          "type": "address"
        },
        {
          "indexed": false,
          "internalType": "uint256",
          "name": "amount",
          "type": "uint256"
        }
      ],
      "name": "FundsReceived",
      "type": "event"
    },
    {
      "anonymous": false,
      "inputs": [
        {
          "indexed": true,
          "internalType": "address",
          "name": "newAddress",
          "type": "address"
        },
        {
          "indexed": true,
          "internalType": "address",
          "name": "changedBy",
          "type": "address"
        }
      ],
      "name": "FundsRecipientChanged",
      "type": "event"
    },
    {
      "anonymous": false,
      "inputs": [
        {
          "indexed": true,
          "internalType": "address",
          "name": "withdrawnBy",
          "type": "address"
        },
        {
          "indexed": true,
          "internalType": "address",
          "name": "withdrawnTo",
          "type": "address"
        },
        {
          "indexed": false,
          "internalType": "uint256",
          "name": "amount",
          "type": "uint256"
        }
      ],
      "name": "FundsWithdrawn",
      "type": "event"
    },
    {
      "anonymous": false,
      "inputs": [
        {
          "indexed": false,
          "internalType": "uint256",
          "name": "mintFeeAmount",
          "type": "uint256"
        },
        {
          "indexed": false,
          "internalType": "address",
          "name": "mintFeeRecipient",
          "type": "address"
        },
        {
          "indexed": false,
          "internalType": "bool",
          "name": "success",
          "type": "bool"
        }
      ],
      "name": "MintFeePayout",
      "type": "event"
    },
    {
      "anonymous": false,
      "inputs": [
        {
          "indexed": true,
          "internalType": "address",
          "name": "recipient",
          "type": "address"
        },
        {
          "indexed": true,
          "internalType": "uint256",
          "name": "tokenId",
          "type": "uint256"
        },
        {
          "indexed": false,
          "internalType": "uint256",
          "name": "id",
          "type": "uint256"
        }
      ],
      "name": "NFTMinted",
      "type": "event"
    },
    {
      "anonymous": false,
      "inputs": [
        {
          "indexed": true,
          "internalType": "address",
          "name": "sender",
          "type": "address"
        },
        {
          "indexed": false,
          "internalType": "uint256",
          "name": "numberOfMints",
          "type": "uint256"
        }
      ],
      "name": "OpenMintFinalized",
      "type": "event"
    },
    {
      "anonymous": false,
      "inputs": [
        {
          "indexed": true,
          "internalType": "address",
          "name": "to",
          "type": "address"
        },
        {
          "indexed": true,
          "internalType": "uint256",
          "name": "quantity",
          "type": "uint256"
        },
        {
          "indexed": true,
          "internalType": "uint256",
          "name": "pricePerToken",
          "type": "uint256"
        },
        {
          "indexed": false,
          "internalType": "uint256",
          "name": "firstPurchasedTokenId",
          "type": "uint256"
        }
      ],
      "name": "Sale",
      "type": "event"
    },
    {
      "anonymous": false,
      "inputs": [
        {
          "indexed": true,
          "internalType": "address",
          "name": "changedBy",
          "type": "address"
        }
      ],
      "name": "SalesConfigChanged",
      "type": "event"
    },
    {
      "anonymous": false,
      "inputs": [
        {
          "indexed": false,
          "internalType": "address",
          "name": "sender",
          "type": "address"
        },
        {
          "indexed": false,
          "internalType": "contract IMetadataRenderer",
          "name": "renderer",
          "type": "address"
        }
      ],
      "name": "UpdatedMetadataRenderer",
      "type": "event"
    },
    {
      "stateMutability": "payable",
      "type": "fallback"
    },
    {
      "inputs": [
        {
          "internalType": "address",
          "name": "recipient",
          "type": "address"
        },
        {
          "internalType": "uint256",
          "name": "quantity",
          "type": "uint256"
        }
      ],
      "name": "adminMint",
      "outputs": [
        {
          "internalType": "uint256",
          "name": "",
          "type": "uint256"
        }
      ],
      "stateMutability": "nonpayable",
      "type": "function"
    },
    {
      "inputs": [
        {
          "internalType": "address[]",
          "name": "recipients",
          "type": "address[]"
        }
      ],
      "name": "adminMintAirdrop",
      "outputs": [
        {
          "internalType": "uint256",
          "name": "",
          "type": "uint256"
        }
      ],
      "stateMutability": "nonpayable",
      "type": "function"
    },
    {
      "inputs": [],
      "name": "config",
      "outputs": [
        {
          "internalType": "contract IMetadataRenderer",
          "name": "metadataRenderer",
          "type": "address"
        },
        {
          "internalType": "uint64",
          "name": "editionSize",
          "type": "uint64"
        },
        {
          "internalType": "uint16",
          "name": "royaltyBPS",
          "type": "uint16"
        },
        {
          "internalType": "address payable",
          "name": "fundsRecipient",
          "type": "address"
        }
      ],
      "stateMutability": "view",
      "type": "function"
    },
    {
      "inputs": [],
      "name": "contractURI",
      "outputs": [
        {
          "internalType": "string",
          "name": "",
          "type": "string"
        }
      ],
      "stateMutability": "view",
      "type": "function"
    },
    {
      "inputs": [],
      "name": "dropsPriceOracle",
      "outputs": [
        {
          "internalType": "contract IDropsPriceOracle",
          "name": "",
          "type": "address"
        }
      ],
      "stateMutability": "view",
      "type": "function"
    },
    {
      "inputs": [],
      "name": "finalizeOpenEdition",
      "outputs": [],
      "stateMutability": "nonpayable",
      "type": "function"
    },
    {
      "inputs": [],
      "name": "getHolographFeeFromTreasury",
      "outputs": [
        {
          "internalType": "uint256",
          "name": "",
          "type": "uint256"
        }
      ],
      "stateMutability": "view",
      "type": "function"
    },
    {
      "inputs": [
        {
          "internalType": "uint256",
          "name": "quantity",
          "type": "uint256"
        }
      ],
      "name": "getHolographFeeUsd",
      "outputs": [
        {
          "internalType": "uint256",
          "name": "fee",
          "type": "uint256"
        }
      ],
      "stateMutability": "view",
      "type": "function"
    },
    {
      "inputs": [
        {
          "internalType": "uint256",
          "name": "quantity",
          "type": "uint256"
        }
      ],
      "name": "getHolographFeeWei",
      "outputs": [
        {
          "internalType": "uint256",
          "name": "",
          "type": "uint256"
        }
      ],
      "stateMutability": "view",
      "type": "function"
    },
    {
      "inputs": [],
      "name": "getNativePrice",
      "outputs": [
        {
          "internalType": "uint256",
          "name": "",
          "type": "uint256"
        }
      ],
      "stateMutability": "view",
      "type": "function"
    },
    {
      "inputs": [
        {
          "internalType": "bytes",
          "name": "initPayload",
          "type": "bytes"
        }
      ],
      "name": "init",
      "outputs": [
        {
          "internalType": "bytes4",
          "name": "",
          "type": "bytes4"
        }
      ],
      "stateMutability": "nonpayable",
      "type": "function"
    },
    {
      "inputs": [
        {
          "internalType": "address",
          "name": "user",
          "type": "address"
        }
      ],
      "name": "isAdmin",
      "outputs": [
        {
          "internalType": "bool",
          "name": "",
          "type": "bool"
        }
      ],
      "stateMutability": "view",
      "type": "function"
    },
    {
      "inputs": [
        {
          "internalType": "address",
          "name": "wallet",
          "type": "address"
        }
      ],
      "name": "isOwner",
      "outputs": [
        {
          "internalType": "bool",
          "name": "",
          "type": "bool"
        }
      ],
      "stateMutability": "view",
      "type": "function"
    },
    {
      "inputs": [],
      "name": "isOwner",
      "outputs": [
        {
          "internalType": "bool",
          "name": "",
          "type": "bool"
        }
      ],
      "stateMutability": "view",
      "type": "function"
    },
    {
      "inputs": [],
      "name": "metadataRenderer",
      "outputs": [
        {
          "internalType": "contract IMetadataRenderer",
          "name": "",
          "type": "address"
        }
      ],
      "stateMutability": "view",
      "type": "function"
    },
    {
      "inputs": [
        {
          "internalType": "address",
          "name": "minter",
          "type": "address"
        }
      ],
      "name": "mintedPerAddress",
      "outputs": [
        {
          "components": [
            {
              "internalType": "uint256",
              "name": "totalMints",
              "type": "uint256"
            },
            {
              "internalType": "uint256",
              "name": "presaleMints",
              "type": "uint256"
            },
            {
              "internalType": "uint256",
              "name": "publicMints",
              "type": "uint256"
            }
          ],
          "internalType": "struct AddressMintDetails",
          "name": "",
          "type": "tuple"
        }
      ],
      "stateMutability": "view",
      "type": "function"
    },
    {
      "inputs": [
        {
          "internalType": "bytes[]",
          "name": "data",
          "type": "bytes[]"
        }
      ],
      "name": "multicall",
      "outputs": [
        {
          "internalType": "bytes[]",
          "name": "results",
          "type": "bytes[]"
        }
      ],
      "stateMutability": "nonpayable",
      "type": "function"
    },
    {
      "inputs": [],
      "name": "name",
      "outputs": [
        {
          "internalType": "string",
          "name": "",
          "type": "string"
        }
      ],
      "stateMutability": "view",
      "type": "function"
    },
    {
      "inputs": [],
      "name": "owner",
      "outputs": [
        {
          "internalType": "address",
          "name": "",
          "type": "address"
        }
      ],
      "stateMutability": "view",
      "type": "function"
    },
    {
      "inputs": [
        {
          "internalType": "address",
          "name": "",
          "type": "address"
        }
      ],
      "name": "presaleMintsByAddress",
      "outputs": [
        {
          "internalType": "uint256",
          "name": "",
          "type": "uint256"
        }
      ],
      "stateMutability": "view",
      "type": "function"
    },
    {
      "inputs": [
        {
          "internalType": "uint256",
          "name": "quantity",
          "type": "uint256"
        }
      ],
      "name": "purchase",
      "outputs": [
        {
          "internalType": "uint256",
          "name": "",
          "type": "uint256"
        }
      ],
      "stateMutability": "payable",
      "type": "function"
    },
    {
      "inputs": [
        {
          "internalType": "uint256",
          "name": "quantity",
          "type": "uint256"
        },
        {
          "internalType": "uint256",
          "name": "maxQuantity",
          "type": "uint256"
        },
        {
          "internalType": "uint256",
          "name": "pricePerToken",
          "type": "uint256"
        },
        {
          "internalType": "bytes32[]",
          "name": "merkleProof",
          "type": "bytes32[]"
        }
      ],
      "name": "purchasePresale",
      "outputs": [
        {
          "internalType": "uint256",
          "name": "",
          "type": "uint256"
        }
      ],
      "stateMutability": "payable",
      "type": "function"
    },
    {
      "inputs": [],
      "name": "saleDetails",
      "outputs": [
        {
          "components": [
            {
              "internalType": "bool",
              "name": "publicSaleActive",
              "type": "bool"
            },
            {
              "internalType": "bool",
              "name": "presaleActive",
              "type": "bool"
            },
            {
              "internalType": "uint256",
              "name": "publicSalePrice",
              "type": "uint256"
            },
            {
              "internalType": "uint64",
              "name": "publicSaleStart",
              "type": "uint64"
            },
            {
              "internalType": "uint64",
              "name": "publicSaleEnd",
              "type": "uint64"
            },
            {
              "internalType": "uint64",
              "name": "presaleStart",
              "type": "uint64"
            },
            {
              "internalType": "uint64",
              "name": "presaleEnd",
              "type": "uint64"
            },
            {
              "internalType": "bytes32",
              "name": "presaleMerkleRoot",
              "type": "bytes32"
            },
            {
              "internalType": "uint256",
              "name": "maxSalePurchasePerAddress",
              "type": "uint256"
            },
            {
              "internalType": "uint256",
              "name": "totalMinted",
              "type": "uint256"
            },
            {
              "internalType": "uint256",
              "name": "maxSupply",
              "type": "uint256"
            }
          ],
          "internalType": "struct SaleDetails",
          "name": "",
          "type": "tuple"
        }
      ],
      "stateMutability": "view",
      "type": "function"
    },
    {
      "inputs": [],
      "name": "salesConfig",
      "outputs": [
        {
          "internalType": "uint104",
          "name": "publicSalePrice",
          "type": "uint104"
        },
        {
          "internalType": "uint32",
          "name": "maxSalePurchasePerAddress",
          "type": "uint32"
        },
        {
          "internalType": "uint64",
          "name": "publicSaleStart",
          "type": "uint64"
        },
        {
          "internalType": "uint64",
          "name": "publicSaleEnd",
          "type": "uint64"
        },
        {
          "internalType": "uint64",
          "name": "presaleStart",
          "type": "uint64"
        },
        {
          "internalType": "uint64",
          "name": "presaleEnd",
          "type": "uint64"
        },
        {
          "internalType": "bytes32",
          "name": "presaleMerkleRoot",
          "type": "bytes32"
        }
      ],
      "stateMutability": "view",
      "type": "function"
    },
    {
      "inputs": [
        {
          "internalType": "address payable",
          "name": "newRecipientAddress",
          "type": "address"
        }
      ],
      "name": "setFundsRecipient",
      "outputs": [],
      "stateMutability": "nonpayable",
      "type": "function"
    },
    {
      "inputs": [
        {
          "internalType": "contract IMetadataRenderer",
          "name": "newRenderer",
          "type": "address"
        },
        {
          "internalType": "bytes",
          "name": "setupRenderer",
          "type": "bytes"
        }
      ],
      "name": "setMetadataRenderer",
      "outputs": [],
      "stateMutability": "nonpayable",
      "type": "function"
    },
    {
      "inputs": [
        {
          "internalType": "uint104",
          "name": "publicSalePrice",
          "type": "uint104"
        },
        {
          "internalType": "uint32",
          "name": "maxSalePurchasePerAddress",
          "type": "uint32"
        },
        {
          "internalType": "uint64",
          "name": "publicSaleStart",
          "type": "uint64"
        },
        {
          "internalType": "uint64",
          "name": "publicSaleEnd",
          "type": "uint64"
        },
        {
          "internalType": "uint64",
          "name": "presaleStart",
          "type": "uint64"
        },
        {
          "internalType": "uint64",
          "name": "presaleEnd",
          "type": "uint64"
        },
        {
          "internalType": "bytes32",
          "name": "presaleMerkleRoot",
          "type": "bytes32"
        }
      ],
      "name": "setSaleConfiguration",
      "outputs": [],
      "stateMutability": "nonpayable",
      "type": "function"
    },
    {
      "inputs": [
        {
          "internalType": "bytes4",
          "name": "interfaceId",
          "type": "bytes4"
        }
      ],
      "name": "supportsInterface",
      "outputs": [
        {
          "internalType": "bool",
          "name": "",
          "type": "bool"
        }
      ],
      "stateMutability": "pure",
      "type": "function"
    },
    {
      "inputs": [
        {
          "internalType": "uint256",
          "name": "tokenId",
          "type": "uint256"
        }
      ],
      "name": "tokenURI",
      "outputs": [
        {
          "internalType": "string",
          "name": "",
          "type": "string"
        }
      ],
      "stateMutability": "view",
      "type": "function"
    },
    {
      "inputs": [
        {
          "internalType": "address",
          "name": "",
          "type": "address"
        }
      ],
      "name": "totalMintsByAddress",
      "outputs": [
        {
          "internalType": "uint256",
          "name": "",
          "type": "uint256"
        }
      ],
      "stateMutability": "view",
      "type": "function"
    },
    {
      "inputs": [],
      "name": "version",
      "outputs": [
        {
          "internalType": "uint32",
          "name": "",
          "type": "uint32"
        }
      ],
      "stateMutability": "pure",
      "type": "function"
    },
    {
      "inputs": [],
      "name": "withdraw",
      "outputs": [],
      "stateMutability": "nonpayable",
      "type": "function"
    },
    {
      "stateMutability": "payable",
      "type": "receive"
    }
  ],
  "transactionHash": "0x6af0e12baa1333f41577cc27bb74246099232cfbd588698e6f2cfb3187925f84",
  "args": [],
  "numDeployments": 1,
  "solcInputHash": "183ecf492ae7b558d94db9662966c4f2",
  "bytecode": "0x608060405234801561001057600080fd5b506146eb806100206000396000f3fe6080604052600436106101e75760003560e01c806379502c5511610102578063c87b56dd11610095578063efef39a111610064578063efef39a11461082b578063fac3132b1461083e578063fd82d2a814610853578063ffdb71631461087357610245565b8063c87b56dd14610794578063d445b978146107b4578063e58306f9146107f6578063e8a3d4851461081657610245565b80639123f01e116100d15780639123f01e146106fa5780639af1135f14610727578063ac9650d814610747578063b8ae5a2c1461077457610245565b806379502c55146105df5780638cb163f4146106a85780638da5cb5b146106d05780638f32d59b146106e557610245565b80633474a4a61161017a5780634ddf47d4116101495780634ddf47d4146104f957806354fd4d501461054a57806361fea76814610566578063703199701461059357610245565b80633474a4a61461048d5780633bcdcc87146104af5780633ccfd60b146104cf57806341e96eb1146104e457610245565b80631d2c0b38116101b65780631d2c0b381461034e57806324d7806c1461043a57806325024a2b1461045a5780632f54bf6e1461046d57610245565b806301ffc9a71461027057806306fdde03146102e757806310a7eb5d1461030957806317430c9e1461032b57610245565b36610245576101f4610893565b73ffffffffffffffffffffffffffffffffffffffff167f8e47b87b0ef542cdfa1659c551d88bad38aa7f452d2bbb349ab7530dfec8be8f3460405161023b91815260200190565b60405180910390a2005b6040517f46756e6374696f6e206e6f7420666f756e6400000000000000000000000000008152601481fd5b34801561027c57600080fd5b506102d261028b366004613b9a565b7fffffffff00000000000000000000000000000000000000000000000000000000167f1a95c452000000000000000000000000000000000000000000000000000000001490565b60405190151581526020015b60405180910390f35b3480156102f357600080fd5b506102fc6108f1565b6040516102de9190613c56565b34801561031557600080fd5b50610329610324366004613c8e565b6109b0565b005b34801561033757600080fd5b50610340610bb9565b6040519081526020016102de565b34801561035a57600080fd5b506003546004546005546103e1926cffffffffffffffffffffffffff8116926d0100000000000000000000000000820463ffffffff16927101000000000000000000000000000000000090920467ffffffffffffffff9081169281831692680100000000000000008104831692700100000000000000000000000000000000909104169087565b604080516cffffffffffffffffffffffffff909816885263ffffffff909616602088015267ffffffffffffffff948516958701959095529183166060860152821660808501521660a083015260c082015260e0016102de565b34801561044657600080fd5b506102d2610455366004613c8e565b610bd7565b610340610468366004613cf7565b610c35565b34801561047957600080fd5b506102d2610488366004613c8e565b611213565b34801561049957600080fd5b506104a2611272565b6040516102de9190613d58565b3480156104bb57600080fd5b506103296104ca366004613f66565b6113dd565b3480156104db57600080fd5b506103296115c2565b3480156104f057600080fd5b506103296118d3565b34801561050557600080fd5b50610519610514366004613fb6565b611abe565b6040517fffffffff0000000000000000000000000000000000000000000000000000000090911681526020016102de565b34801561055657600080fd5b50604051600281526020016102de565b34801561057257600080fd5b50610340610581366004613c8e565b60066020526000908152604090205481565b34801561059f57600080fd5b5060015473ffffffffffffffffffffffffffffffffffffffff165b60405173ffffffffffffffffffffffffffffffffffffffff90911681526020016102de565b3480156105eb57600080fd5b5060015460025461065b9173ffffffffffffffffffffffffffffffffffffffff8082169274010000000000000000000000000000000000000000830467ffffffffffffffff16927c0100000000000000000000000000000000000000000000000000000000900461ffff16911684565b6040805173ffffffffffffffffffffffffffffffffffffffff958616815267ffffffffffffffff909416602085015261ffff909216918301919091529190911660608201526080016102de565b3480156106b457600080fd5b506105ba73ea7f4c52cbd4cf1036cdca8b16aca11f5b09cf6e81565b3480156106dc57600080fd5b506105ba611ede565b3480156106f157600080fd5b506102d2611f08565b34801561070657600080fd5b50610340610715366004613c8e565b60076020526000908152604090205481565b34801561073357600080fd5b50610340610742366004613feb565b611f6c565b34801561075357600080fd5b50610767610762366004614004565b611f8f565b6040516102de91906140c7565b34801561078057600080fd5b5061034061078f366004614147565b61206e565b3480156107a057600080fd5b506102fc6107af366004613feb565b61225c565b3480156107c057600080fd5b506107d46107cf366004613c8e565b612435565b60408051825181526020808401519082015291810151908201526060016102de565b34801561080257600080fd5b50610340610811366004614189565b6124ba565b34801561082257600080fd5b506102fc61266d565b610340610839366004613feb565b6126dd565b34801561084a57600080fd5b50610340612c54565b34801561085f57600080fd5b5061034061086e366004613feb565b612dd8565b34801561087f57600080fd5b5061032961088e3660046141f8565b612ded565b60007fe9fcff60011c1a99f7b7244d1f2d9da93d79ea8ef3654ce590d775575255b2bd543314600081146108ea5750507fffffffffffffffffffffffffffffffffffffffffffffffffffffffffffffffe036013590565b3391505090565b606061091b7fe9fcff60011c1a99f7b7244d1f2d9da93d79ea8ef3654ce590d775575255b2bd5490565b73ffffffffffffffffffffffffffffffffffffffff166306fdde036040518163ffffffff1660e01b8152600401600060405180830381865afa158015610965573d6000803e3d6000fd5b505050506040513d6000823e601f3d9081017fffffffffffffffffffffffffffffffffffffffffffffffffffffffffffffffe01682016040526109ab91908101906142b5565b905090565b7fb56711ba6bd3ded7639fc335ee7524fe668a79d7558c85992e3f8494cf7727775473ffffffffffffffffffffffffffffffffffffffff166109f0610893565b73ffffffffffffffffffffffffffffffffffffffff1614610a72576040517f08c379a000000000000000000000000000000000000000000000000000000000815260206004820152601b60248201527f4552433732313a206f776e6572206f6e6c792066756e6374696f6e000000000060448201526064015b60405180910390fd5b73ffffffffffffffffffffffffffffffffffffffff8116610b15576040517f08c379a000000000000000000000000000000000000000000000000000000000815260206004820152602360248201527f46756e647320526563697069656e742063616e6e6f742062652030206164647260448201527f65737300000000000000000000000000000000000000000000000000000000006064820152608401610a69565b600280547fffffffffffffffffffffffff00000000000000000000000000000000000000001673ffffffffffffffffffffffffffffffffffffffff8316179055610b5d610893565b73ffffffffffffffffffffffffffffffffffffffff168173ffffffffffffffffffffffffffffffffffffffff167f70a7ea5c664ab9c21baf3da59bb2f1e1ca33557b08a0031fab4f17076744995160405160405180910390a350565b6003546000906109ab906cffffffffffffffffffffffffff1661301b565b60008173ffffffffffffffffffffffffffffffffffffffff16610c187fb56711ba6bd3ded7639fc335ee7524fe668a79d7558c85992e3f8494cf7727775490565b73ffffffffffffffffffffffffffffffffffffffff161492915050565b6000610c5f7f04b524dd539523930d3901481aa9455d7752b49add99e1647adb8b09a31372795490565b600203610cc8576040517f08c379a000000000000000000000000000000000000000000000000000000000815260206004820152601960248201527f484f4c4f47524150483a207265656e7472616e742063616c6c000000000000006044820152606401610a69565b610cf160027f04b524dd539523930d3901481aa9455d7752b49add99e1647adb8b09a313727955565b600154869074010000000000000000000000000000000000000000900467ffffffffffffffff1615801590610d7557506001546000547401000000000000000000000000000000000000000090910467ffffffffffffffff1690610d73907bffffffffffffffffffffffffffffffffffffffffffffffffffffffff168361432d565b115b15610dac576040517f717c513000000000000000000000000000000000000000000000000000000000815260040160405180910390fd5b610db46130ba565b610dea576040517f95ed3c1a00000000000000000000000000000000000000000000000000000000815260040160405180910390fd5b610e78848480806020026020016040519081016040528093929190818152602001838360200280828437600092019190915250506005549150610e2d9050610893565b6040805173ffffffffffffffffffffffffffffffffffffffff909216602083015281018a90526060810189905260800160405160208183030381529060405280519060200120613109565b610eae576040517f85b70e5200000000000000000000000000000000000000000000000000000000815260040160405180910390fd5b6000610eb98661301b565b9050610ec58882614345565b341015610f0b57610ed68887614345565b6040517f6a1c179e000000000000000000000000000000000000000000000000000000008152600401610a6991815260200190565b6000610f178983614345565b610f219034614382565b90508860066000610f30610893565b73ffffffffffffffffffffffffffffffffffffffff1673ffffffffffffffffffffffffffffffffffffffff1681526020019081526020016000206000828254610f79919061432d565b9091555088905060066000610f8c610893565b73ffffffffffffffffffffffffffffffffffffffff1673ffffffffffffffffffffffffffffffffffffffff168152602001908152602001600020541115610fff576040517fa7b32bb100000000000000000000000000000000000000000000000000000000815260040160405180910390fd5b61101061100a610893565b8a61311f565b61101989613593565b60006110437fe9fcff60011c1a99f7b7244d1f2d9da93d79ea8ef3654ce590d775575255b2bd5490565b905060008173ffffffffffffffffffffffffffffffffffffffff166377dbd8636040518163ffffffff1660e01b8152600401602060405180830381865afa158015611092573d6000803e3d6000fd5b505050506040513d601f19601f820116820180604052508101906110b69190614399565b60008054919250906110e7908d907bffffffffffffffffffffffffffffffffffffffffffffffffffffffff16614382565b6110f1908361432d565b6110fc90600161432d565b9050848c611108610893565b73ffffffffffffffffffffffffffffffffffffffff167f4e26b0356a15833a75d497ecc40ebbb716b99466ed0dba9454f1fff451e25a908460405161114f91815260200190565b60405180910390a483156111da57611165610893565b73ffffffffffffffffffffffffffffffffffffffff1684620334505a1161118c575a611191565b620334505b6040519091906000818181858888f193505050503d80600081146111d1576040519150601f19603f3d011682016040523d82523d6000602084013e6111d6565b606091505b5050505b9550505050505061120a60017f04b524dd539523930d3901481aa9455d7752b49add99e1647adb8b09a313727955565b95945050505050565b600061123d7fb56711ba6bd3ded7639fc335ee7524fe668a79d7558c85992e3f8494cf7727775490565b73ffffffffffffffffffffffffffffffffffffffff168273ffffffffffffffffffffffffffffffffffffffff16149050919050565b6040805161016081018252600080825260208201819052918101829052606081018290526080810182905260a0810182905260c0810182905260e08101829052610100810182905261012081018290526101408101919091526040518061016001604052806112df6137a4565b151581526020016112ee6130ba565b151581526003546cffffffffffffffffffffffffff8116602083015271010000000000000000000000000000000000810467ffffffffffffffff90811660408401526004548082166060850152680100000000000000008104821660808501527001000000000000000000000000000000009004811660a084015260055460c08401526d010000000000000000000000000090910463ffffffff1660e08301526000547bffffffffffffffffffffffffffffffffffffffffffffffffffffffff166101008301526001547401000000000000000000000000000000000000000090041661012090910152919050565b7fb56711ba6bd3ded7639fc335ee7524fe668a79d7558c85992e3f8494cf7727775473ffffffffffffffffffffffffffffffffffffffff1661141d610893565b73ffffffffffffffffffffffffffffffffffffffff161461149a576040517f08c379a000000000000000000000000000000000000000000000000000000000815260206004820152601b60248201527f4552433732313a206f776e6572206f6e6c792066756e6374696f6e00000000006044820152606401610a69565b600180547fffffffffffffffffffffffff00000000000000000000000000000000000000001673ffffffffffffffffffffffffffffffffffffffff8416179055805115611566576040517f856a7ffa00000000000000000000000000000000000000000000000000000000815273ffffffffffffffffffffffffffffffffffffffff83169063856a7ffa90611533908490600401613c56565b600060405180830381600087803b15801561154d57600080fd5b505af1158015611561573d6000803e3d6000fd5b505050505b7f046c5d913c35948c3e0e44c3599eb14bf33b73f141fa8bb282b300414998b86861158f610893565b6040805173ffffffffffffffffffffffffffffffffffffffff928316815291851660208301520160405180910390a15050565b7f04b524dd539523930d3901481aa9455d7752b49add99e1647adb8b09a31372795460020361164d576040517f08c379a000000000000000000000000000000000000000000000000000000000815260206004820152601960248201527f484f4c4f47524150483a207265656e7472616e742063616c6c000000000000006044820152606401610a69565b61167660027f04b524dd539523930d3901481aa9455d7752b49add99e1647adb8b09a313727955565b60025473ffffffffffffffffffffffffffffffffffffffff166116f5576040517f08c379a000000000000000000000000000000000000000000000000000000000815260206004820152601f60248201527f46756e647320526563697069656e742061646472657373206e6f7420736574006044820152606401610a69565b60006116ff610893565b600254909150479073ffffffffffffffffffffffffffffffffffffffff80841691161480159061177c57507fb56711ba6bd3ded7639fc335ee7524fe668a79d7558c85992e3f8494cf7727775473ffffffffffffffffffffffffffffffffffffffff168273ffffffffffffffffffffffffffffffffffffffff1614155b156117b3576040517f1dab829b00000000000000000000000000000000000000000000000000000000815260040160405180910390fd5b60025460405160009173ffffffffffffffffffffffffffffffffffffffff16906203345090849084818181858888f193505050503d8060008114611813576040519150601f19603f3d011682016040523d82523d6000602084013e611818565b606091505b5050905080611853576040517f39debd5b00000000000000000000000000000000000000000000000000000000815260040160405180910390fd5b60025460405183815273ffffffffffffffffffffffffffffffffffffffff918216918516907fa92ff919b850e4909ab2261d907ef955f11bc1716733a6cbece38d163a69af8a9060200160405180910390a35050506118d160017f04b524dd539523930d3901481aa9455d7752b49add99e1647adb8b09a313727955565b565b7fb56711ba6bd3ded7639fc335ee7524fe668a79d7558c85992e3f8494cf7727775473ffffffffffffffffffffffffffffffffffffffff16611913610893565b73ffffffffffffffffffffffffffffffffffffffff1614611990576040517f08c379a000000000000000000000000000000000000000000000000000000000815260206004820152601b60248201527f4552433732313a206f776e6572206f6e6c792066756e6374696f6e00000000006044820152606401610a69565b60015474010000000000000000000000000000000000000000900467ffffffffffffffff908116146119ee576040517fe742c08400000000000000000000000000000000000000000000000000000000815260040160405180910390fd5b6000546001805467ffffffffffffffff90921674010000000000000000000000000000000000000000027fffffffff0000000000000000ffffffffffffffffffffffffffffffffffffffff909216919091179055611a4a610893565b6001546040517401000000000000000000000000000000000000000090910467ffffffffffffffff16815273ffffffffffffffffffffffffffffffffffffffff91909116907fb6cc1e876b8d7479c8afe025a58658b0f3c3ec5bd0f28cb4261326b162069bf89060200160405180910390a2565b6000611ae87f4e5f991bca30eca2d4643aaefa807e88f96a4a97398933d572a3c0d973004a015490565b15611b4f576040517f08c379a000000000000000000000000000000000000000000000000000000000815260206004820152601e60248201527f484f4c4f47524150483a20616c726561647920696e697469616c697a656400006044820152606401610a69565b600082806020019051810190611b659190614494565b80517fb56711ba6bd3ded7639fc335ee7524fe668a79d7558c85992e3f8494cf772777559050337fe9fcff60011c1a99f7b7244d1f2d9da93d79ea8ef3654ce590d775575255b2bd55604080516080808201835260a0808501805173ffffffffffffffffffffffffffffffffffffffff9081168086528787015167ffffffffffffffff90811660208089018290526060808c015161ffff168a8c01819052828d015187169a82018b9052600180547c01000000000000000000000000000000000000000000000000000000009092027fffff0000ffffffffffffffffffffffffffffffffffffffffffffffffffffffff740100000000000000000000000000000000000000009096027fffffffff00000000000000000000000000000000000000000000000000000000909316909717919091179390931694909417909155600280547fffffffffffffffffffffffff00000000000000000000000000000000000000001690981790975588860151805160038054998301519a830151841671010000000000000000000000000000000000027fffffffffffffff0000000000000000ffffffffffffffffffffffffffffffffff63ffffffff909c166d0100000000000000000000000000027fffffffffffffffffffffffffffffff0000000000000000000000000000000000909b166cffffffffffffffffffffffffff909316929092179990991799909916989098179096558601516004805495880151948801518716700100000000000000000000000000000000027fffffffffffffffff0000000000000000ffffffffffffffffffffffffffffffff95881668010000000000000000027fffffffffffffffffffffffffffffffff00000000000000000000000000000000909716929097169190911794909417929092169390931790915560c090920151600555511615611ea55760a081015160c08201516040517f856a7ffa00000000000000000000000000000000000000000000000000000000815273ffffffffffffffffffffffffffffffffffffffff9092169163856a7ffa91611e7291600401613c56565b600060405180830381600087803b158015611e8c57600080fd5b505af1158015611ea0573d6000803e3d6000fd5b505050505b611ece60017f04b524dd539523930d3901481aa9455d7752b49add99e1647adb8b09a313727955565b611ed7836137e9565b9392505050565b60006109ab7fb56711ba6bd3ded7639fc335ee7524fe668a79d7558c85992e3f8494cf7727775490565b6000611f327fb56711ba6bd3ded7639fc335ee7524fe668a79d7558c85992e3f8494cf7727775490565b73ffffffffffffffffffffffffffffffffffffffff16611f50610893565b73ffffffffffffffffffffffffffffffffffffffff1614905090565b6000611f8982611f7a612c54565b611f849190614345565b61301b565b92915050565b6060815167ffffffffffffffff811115611fab57611fab613e23565b604051908082528060200260200182016040528015611fde57816020015b6060815260200190600190039081611fc95790505b50905060005b825181101561206857612038308483815181106120035761200361456b565b6020026020010151612013610893565b60405160200161202492919061459a565b604051602081830303815290604052613990565b82828151811061204a5761204a61456b565b60200260200101819052508080612060906145e4565b915050611fe4565b50919050565b60006120987fb56711ba6bd3ded7639fc335ee7524fe668a79d7558c85992e3f8494cf7727775490565b73ffffffffffffffffffffffffffffffffffffffff166120b6610893565b73ffffffffffffffffffffffffffffffffffffffff1614612133576040517f08c379a000000000000000000000000000000000000000000000000000000000815260206004820152601b60248201527f4552433732313a206f776e6572206f6e6c792066756e6374696f6e00000000006044820152606401610a69565b600154829074010000000000000000000000000000000000000000900467ffffffffffffffff16158015906121b757506001546000547401000000000000000000000000000000000000000090910467ffffffffffffffff16906121b5907bffffffffffffffffffffffffffffffffffffffffffffffffffffffff168361432d565b115b156121ee576040517f717c513000000000000000000000000000000000000000000000000000000000815260040160405180910390fd5b60005b838110156122325761222a85858381811061220e5761220e61456b565b90506020020160208101906122239190613c8e565b600161311f565b6001016121f1565b50506000547bffffffffffffffffffffffffffffffffffffffffffffffffffffffff169392505050565b606060006122887fe9fcff60011c1a99f7b7244d1f2d9da93d79ea8ef3654ce590d775575255b2bd5490565b6040517f4f558e790000000000000000000000000000000000000000000000000000000081526004810185905290915073ffffffffffffffffffffffffffffffffffffffff821690634f558e7990602401602060405180830381865afa1580156122f6573d6000803e3d6000fd5b505050506040513d601f19601f8201168201806040525081019061231a919061461c565b612380576040517f08c379a000000000000000000000000000000000000000000000000000000000815260206004820152601c60248201527f4552433732313a20746f6b656e20646f6573206e6f74206578697374000000006044820152606401610a69565b6001546040517fc87b56dd0000000000000000000000000000000000000000000000000000000081526004810185905273ffffffffffffffffffffffffffffffffffffffff9091169063c87b56dd90602401600060405180830381865afa1580156123ef573d6000803e3d6000fd5b505050506040513d6000823e601f3d9081017fffffffffffffffffffffffffffffffffffffffffffffffffffffffffffffffe0168201604052611ed791908101906142b5565b61245960405180606001604052806000815260200160008152602001600081525090565b6040805160608101825273ffffffffffffffffffffffffffffffffffffffff8416600081815260076020818152858320548086528484526006825286842054828701819052949093525291928301916124b29190614382565b905292915050565b60006124e47fb56711ba6bd3ded7639fc335ee7524fe668a79d7558c85992e3f8494cf7727775490565b73ffffffffffffffffffffffffffffffffffffffff16612502610893565b73ffffffffffffffffffffffffffffffffffffffff161461257f576040517f08c379a000000000000000000000000000000000000000000000000000000000815260206004820152601b60248201527f4552433732313a206f776e6572206f6e6c792066756e6374696f6e00000000006044820152606401610a69565b600154829074010000000000000000000000000000000000000000900467ffffffffffffffff161580159061260357506001546000547401000000000000000000000000000000000000000090910467ffffffffffffffff1690612601907bffffffffffffffffffffffffffffffffffffffffffffffffffffffff168361432d565b115b1561263a576040517f717c513000000000000000000000000000000000000000000000000000000000815260040160405180910390fd5b612644848461311f565b50506000547bffffffffffffffffffffffffffffffffffffffffffffffffffffffff1692915050565b600154604080517fe8a3d485000000000000000000000000000000000000000000000000000000008152905160609273ffffffffffffffffffffffffffffffffffffffff169163e8a3d4859160048083019260009291908290030181865afa158015610965573d6000803e3d6000fd5b60006127077f04b524dd539523930d3901481aa9455d7752b49add99e1647adb8b09a31372795490565b600203612770576040517f08c379a000000000000000000000000000000000000000000000000000000000815260206004820152601960248201527f484f4c4f47524150483a207265656e7472616e742063616c6c000000000000006044820152606401610a69565b61279960027f04b524dd539523930d3901481aa9455d7752b49add99e1647adb8b09a313727955565b600154829074010000000000000000000000000000000000000000900467ffffffffffffffff161580159061281d57506001546000547401000000000000000000000000000000000000000090910467ffffffffffffffff169061281b907bffffffffffffffffffffffffffffffffffffffffffffffffffffffff168361432d565b115b15612854576040517f717c513000000000000000000000000000000000000000000000000000000000815260040160405180910390fd5b61285c6137a4565b612892576040517ff12dcc7f00000000000000000000000000000000000000000000000000000000815260040160405180910390fd5b6003546000906128b0906cffffffffffffffffffffffffff1661301b565b905060006128bc612c54565b905060006128c98261301b565b9050856128d6828561432d565b6128e09190614345565b3410156129105760035486906129069084906cffffffffffffffffffffffffff1661432d565b610ed69190614345565b600061291c8785614345565b6129269034614382565b6003549091506d0100000000000000000000000000900463ffffffff1615801590612a0b57506003546d0100000000000000000000000000900463ffffffff1660066000612972610893565b73ffffffffffffffffffffffffffffffffffffffff1673ffffffffffffffffffffffffffffffffffffffff1681526020019081526020016000205488600760006129ba610893565b73ffffffffffffffffffffffffffffffffffffffff1673ffffffffffffffffffffffffffffffffffffffff168152602001908152602001600020546129ff919061432d565b612a099190614382565b115b15612a42576040517f220ae94c00000000000000000000000000000000000000000000000000000000815260040160405180910390fd5b612a53612a4d610893565b8861311f565b612a5c87613593565b6000612a867fe9fcff60011c1a99f7b7244d1f2d9da93d79ea8ef3654ce590d775575255b2bd5490565b905060008173ffffffffffffffffffffffffffffffffffffffff166377dbd8636040518163ffffffff1660e01b8152600401602060405180830381865afa158015612ad5573d6000803e3d6000fd5b505050506040513d601f19601f82011682018060405250810190612af99190614399565b6000805491925090612b2a908b907bffffffffffffffffffffffffffffffffffffffffffffffffffffffff16614382565b612b34908361432d565b612b3f90600161432d565b9050868a612b4b610893565b73ffffffffffffffffffffffffffffffffffffffff167f4e26b0356a15833a75d497ecc40ebbb716b99466ed0dba9454f1fff451e25a9084604051612b9291815260200190565b60405180910390a48315612c1d57612ba8610893565b73ffffffffffffffffffffffffffffffffffffffff1684620334505a11612bcf575a612bd4565b620334505b6040519091906000818181858888f193505050503d8060008114612c14576040519150601f19603f3d011682016040523d82523d6000602084013e612c19565b606091505b5050505b975050505050505050612c4f60017f04b524dd539523930d3901481aa9455d7752b49add99e1647adb8b09a313727955565b919050565b600080612c7f7fe9fcff60011c1a99f7b7244d1f2d9da93d79ea8ef3654ce590d775575255b2bd5490565b73ffffffffffffffffffffffffffffffffffffffff16634827ae0c6040518163ffffffff1660e01b8152600401602060405180830381865afa158015612cc9573d6000803e3d6000fd5b505050506040513d601f19601f82011682018060405250810190612ced919061463e565b73ffffffffffffffffffffffffffffffffffffffff16633b19e84a6040518163ffffffff1660e01b8152600401602060405180830381865afa158015612d37573d6000803e3d6000fd5b505050506040513d601f19601f82011682018060405250810190612d5b919061463e565b905060008190508073ffffffffffffffffffffffffffffffffffffffff16634454524e6040518163ffffffff1660e01b8152600401602060405180830381865afa158015612dad573d6000803e3d6000fd5b505050506040513d601f19601f82011682018060405250810190612dd19190614399565b9250505090565b600081612de3612c54565b611f899190614345565b7fb56711ba6bd3ded7639fc335ee7524fe668a79d7558c85992e3f8494cf7727775473ffffffffffffffffffffffffffffffffffffffff16612e2d610893565b73ffffffffffffffffffffffffffffffffffffffff1614612eaa576040517f08c379a000000000000000000000000000000000000000000000000000000000815260206004820152601b60248201527f4552433732313a206f776e6572206f6e6c792066756e6374696f6e00000000006044820152606401610a69565b600380546cffffffffffffffffffffffffff89167fffffffffffffffffffffffffffffff0000000000000000000000000000000000909116176d010000000000000000000000000063ffffffff891602177fffffffffffffff0000000000000000ffffffffffffffffffffffffffffffffff167101000000000000000000000000000000000067ffffffffffffffff8881169190910291909117909155600480548683167fffffffffffffffffffffffffffffffff00000000000000000000000000000000909116176801000000000000000086841602177fffffffffffffffff0000000000000000ffffffffffffffffffffffffffffffff16700100000000000000000000000000000000928516929092029190911790556005819055612fd0610893565b73ffffffffffffffffffffffffffffffffffffffff167fc1ff5e4744ac8dd2b8027a10e3723b165975297501c71c4e7dcb8796d96375db60405160405180910390a250505050505050565b60008160000361302d57506000919050565b6040517ff5d781610000000000000000000000000000000000000000000000000000000081526004810183905273ea7f4c52cbd4cf1036cdca8b16aca11f5b09cf6e9063f5d7816190602401602060405180830381865afa158015613096573d6000803e3d6000fd5b505050506040513d601f19601f82011682018060405250810190611f899190614399565b600454600090426801000000000000000090910467ffffffffffffffff16118015906109ab5750506004544270010000000000000000000000000000000090910467ffffffffffffffff161190565b60008261311685846139b5565b14949350505050565b60006131497fe9fcff60011c1a99f7b7244d1f2d9da93d79ea8ef3654ce590d775575255b2bd5490565b905060008173ffffffffffffffffffffffffffffffffffffffff166377dbd8636040518163ffffffff1660e01b8152600401602060405180830381865afa158015613198573d6000803e3d6000fd5b505050506040513d601f19601f820116820180604052508101906131bc9190614399565b90506000805b8481101561358b57600080546001919081906131fd9084907bffffffffffffffffffffffffffffffffffffffffffffffffffffffff1661465b565b92506101000a8154817bffffffffffffffffffffffffffffffffffffffffffffffffffffffff02191690837bffffffffffffffffffffffffffffffffffffffffffffffffffffffff1602179055505b60005473ffffffffffffffffffffffffffffffffffffffff851690634f558e7990613295907bffffffffffffffffffffffffffffffffffffffffffffffffffffffff168661432d565b6040518263ffffffff1660e01b81526004016132b391815260200190565b602060405180830381865afa1580156132d0573d6000803e3d6000fd5b505050506040513d601f19601f820116820180604052508101906132f4919061461c565b806133a2575060005473ffffffffffffffffffffffffffffffffffffffff8516906323250cae90613343907bffffffffffffffffffffffffffffffffffffffffffffffffffffffff168661432d565b6040518263ffffffff1660e01b815260040161336191815260200190565b602060405180830381865afa15801561337e573d6000803e3d6000fd5b505050506040513d601f19601f820116820180604052508101906133a2919061461c565b1561342d57600080546001919081906133da9084907bffffffffffffffffffffffffffffffffffffffffffffffffffffffff1661465b565b92506101000a8154817bffffffffffffffffffffffffffffffffffffffffffffffffffffffff02191690837bffffffffffffffffffffffffffffffffffffffffffffffffffffffff16021790555061324c565b6000546040517f3b4f1b2600000000000000000000000000000000000000000000000000000000815273ffffffffffffffffffffffffffffffffffffffff88811660048301527bffffffffffffffffffffffffffffffffffffffffffffffffffffffff90921660248201819052935090851690633b4f1b2690604401600060405180830381600087803b1580156134c357600080fd5b505af11580156134d7573d6000803e3d6000fd5b505050506000827bffffffffffffffffffffffffffffffffffffffffffffffffffffffff1684613507919061432d565b9050827bffffffffffffffffffffffffffffffffffffffffffffffffffffffff168773ffffffffffffffffffffffffffffffffffffffff167f3a8a89b59a31c39a36febecb987e0657ab7b7c73b60ebacb44dcb9886c2d5c8a8360405161357091815260200190565b60405180910390a35080613583816145e4565b9150506131c2565b505050505050565b600061359e82611f6c565b905060006135ca7fe9fcff60011c1a99f7b7244d1f2d9da93d79ea8ef3654ce590d775575255b2bd5490565b73ffffffffffffffffffffffffffffffffffffffff16634827ae0c6040518163ffffffff1660e01b8152600401602060405180830381865afa158015613614573d6000803e3d6000fd5b505050506040513d601f19601f82011682018060405250810190613638919061463e565b73ffffffffffffffffffffffffffffffffffffffff16633b19e84a6040518163ffffffff1660e01b8152600401602060405180830381865afa158015613682573d6000803e3d6000fd5b505050506040513d601f19601f820116820180604052508101906136a6919061463e565b905060008173ffffffffffffffffffffffffffffffffffffffff16836203345090604051600060405180830381858888f193505050503d8060008114613708576040519150601f19603f3d011682016040523d82523d6000602084013e61370d565b606091505b5050905080613748576040517ff0e492a300000000000000000000000000000000000000000000000000000000815260040160405180910390fd5b6040805184815273ffffffffffffffffffffffffffffffffffffffff841660208201528215158183015290517f6f8da53cfedb8cc4f7935c3629624e50b63053c93bb2cad246aa4d3a2ba7d4ce9181900360600190a150505050565b600354600090427101000000000000000000000000000000000090910467ffffffffffffffff16118015906109ab5750506004544267ffffffffffffffff9091161190565b60006138137f4e5f991bca30eca2d4643aaefa807e88f96a4a97398933d572a3c0d973004a015490565b1561387a576040517f08c379a000000000000000000000000000000000000000000000000000000000815260206004820152601b60248201527f4552433732313a20616c726561647920696e697469616c697a656400000000006044820152606401610a69565b337fe9fcff60011c1a99f7b7244d1f2d9da93d79ea8ef3654ce590d775575255b2bd8190557fb56711ba6bd3ded7639fc335ee7524fe668a79d7558c85992e3f8494cf7727775473ffffffffffffffffffffffffffffffffffffffff811661393e576040517f08c379a000000000000000000000000000000000000000000000000000000000815260206004820152601860248201527f484f4c4f47524150483a206f776e6572206e6f742073657400000000000000006044820152606401610a69565b61396760017f4e5f991bca30eca2d4643aaefa807e88f96a4a97398933d572a3c0d973004a0155565b507f4ddf47d4000000000000000000000000000000000000000000000000000000009392505050565b6060611ed783836040518060600160405280602781526020016146b860279139613a29565b600081815b8451811015613a215760008582815181106139d7576139d761456b565b602002602001015190508083116139fd5760008381526020829052604090209250613a0e565b600081815260208490526040902092505b5080613a19816145e4565b9150506139ba565b509392505050565b60606000808573ffffffffffffffffffffffffffffffffffffffff1685604051613a53919061469b565b600060405180830381855af49150503d8060008114613a8e576040519150601f19603f3d011682016040523d82523d6000602084013e613a93565b606091505b5091509150613aa486838387613aae565b9695505050505050565b60608315613b44578251600003613b3d5773ffffffffffffffffffffffffffffffffffffffff85163b613b3d576040517f08c379a000000000000000000000000000000000000000000000000000000000815260206004820152601d60248201527f416464726573733a2063616c6c20746f206e6f6e2d636f6e74726163740000006044820152606401610a69565b5081613b4e565b613b4e8383613b56565b949350505050565b815115613b665781518083602001fd5b806040517f08c379a0000000000000000000000000000000000000000000000000000000008152600401610a699190613c56565b600060208284031215613bac57600080fd5b81357fffffffff0000000000000000000000000000000000000000000000000000000081168114611ed757600080fd5b60005b83811015613bf7578181015183820152602001613bdf565b83811115613c06576000848401525b50505050565b60008151808452613c24816020860160208601613bdc565b601f017fffffffffffffffffffffffffffffffffffffffffffffffffffffffffffffffe0169290920160200192915050565b602081526000611ed76020830184613c0c565b73ffffffffffffffffffffffffffffffffffffffff81168114613c8b57600080fd5b50565b600060208284031215613ca057600080fd5b8135611ed781613c69565b60008083601f840112613cbd57600080fd5b50813567ffffffffffffffff811115613cd557600080fd5b6020830191508360208260051b8501011115613cf057600080fd5b9250929050565b600080600080600060808688031215613d0f57600080fd5b853594506020860135935060408601359250606086013567ffffffffffffffff811115613d3b57600080fd5b613d4788828901613cab565b969995985093965092949392505050565b81511515815261016081016020830151613d76602084018215159052565b50604083015160408301526060830151613d9c606084018267ffffffffffffffff169052565b506080830151613db8608084018267ffffffffffffffff169052565b5060a0830151613dd460a084018267ffffffffffffffff169052565b5060c0830151613df060c084018267ffffffffffffffff169052565b5060e083810151908301526101008084015190830152610120808401519083015261014092830151929091019190915290565b7f4e487b7100000000000000000000000000000000000000000000000000000000600052604160045260246000fd5b60405160e0810167ffffffffffffffff81118282101715613e7557613e75613e23565b60405290565b604051601f82017fffffffffffffffffffffffffffffffffffffffffffffffffffffffffffffffe016810167ffffffffffffffff81118282101715613ec257613ec2613e23565b604052919050565b600067ffffffffffffffff821115613ee457613ee4613e23565b50601f017fffffffffffffffffffffffffffffffffffffffffffffffffffffffffffffffe01660200190565b600082601f830112613f2157600080fd5b8135613f34613f2f82613eca565b613e7b565b818152846020838601011115613f4957600080fd5b816020850160208301376000918101602001919091529392505050565b60008060408385031215613f7957600080fd5b8235613f8481613c69565b9150602083013567ffffffffffffffff811115613fa057600080fd5b613fac85828601613f10565b9150509250929050565b600060208284031215613fc857600080fd5b813567ffffffffffffffff811115613fdf57600080fd5b613b4e84828501613f10565b600060208284031215613ffd57600080fd5b5035919050565b6000602080838503121561401757600080fd5b823567ffffffffffffffff8082111561402f57600080fd5b818501915085601f83011261404357600080fd5b81358181111561405557614055613e23565b8060051b614064858201613e7b565b918252838101850191858101908984111561407e57600080fd5b86860192505b838310156140ba5782358581111561409c5760008081fd5b6140aa8b89838a0101613f10565b8352509186019190860190614084565b9998505050505050505050565b6000602080830181845280855180835260408601915060408160051b870101925083870160005b8281101561413a577fffffffffffffffffffffffffffffffffffffffffffffffffffffffffffffffc0888603018452614128858351613c0c565b945092850192908501906001016140ee565b5092979650505050505050565b6000806020838503121561415a57600080fd5b823567ffffffffffffffff81111561417157600080fd5b61417d85828601613cab565b90969095509350505050565b6000806040838503121561419c57600080fd5b82356141a781613c69565b946020939093013593505050565b6cffffffffffffffffffffffffff81168114613c8b57600080fd5b63ffffffff81168114613c8b57600080fd5b67ffffffffffffffff81168114613c8b57600080fd5b600080600080600080600060e0888a03121561421357600080fd5b873561421e816141b5565b9650602088013561422e816141d0565b9550604088013561423e816141e2565b9450606088013561424e816141e2565b9350608088013561425e816141e2565b925060a088013561426e816141e2565b8092505060c0880135905092959891949750929550565b6000614293613f2f84613eca565b90508281528383830111156142a757600080fd5b611ed7836020830184613bdc565b6000602082840312156142c757600080fd5b815167ffffffffffffffff8111156142de57600080fd5b8201601f810184136142ef57600080fd5b613b4e84825160208401614285565b7f4e487b7100000000000000000000000000000000000000000000000000000000600052601160045260246000fd5b60008219821115614340576143406142fe565b500190565b6000817fffffffffffffffffffffffffffffffffffffffffffffffffffffffffffffffff048311821515161561437d5761437d6142fe565b500290565b600082821015614394576143946142fe565b500390565b6000602082840312156143ab57600080fd5b5051919050565b8051612c4f81613c69565b8051612c4f816141e2565b805161ffff81168114612c4f57600080fd5b600060e082840312156143ec57600080fd5b6143f4613e52565b90508151614401816141b5565b81526020820151614411816141d0565b60208201526040820151614424816141e2565b60408201526060820151614437816141e2565b6060820152608082015161444a816141e2565b608082015260a082015161445d816141e2565b8060a08301525060c082015160c082015292915050565b600082601f83011261448557600080fd5b611ed783835160208501614285565b6000602082840312156144a657600080fd5b815167ffffffffffffffff808211156144be57600080fd5b908301906101a082860312156144d357600080fd5b6144db613e52565b6144e4836143b2565b81526144f2602084016143b2565b6020820152614503604084016143bd565b6040820152614514606084016143c8565b606082015261452686608085016143da565b608082015261453861016084016143b2565b60a08201526101808301518281111561455057600080fd5b61455c87828601614474565b60c08301525095945050505050565b7f4e487b7100000000000000000000000000000000000000000000000000000000600052603260045260246000fd5b600083516145ac818460208801613bdc565b60609390931b7fffffffffffffffffffffffffffffffffffffffff000000000000000000000000169190920190815260140192915050565b60007fffffffffffffffffffffffffffffffffffffffffffffffffffffffffffffffff8203614615576146156142fe565b5060010190565b60006020828403121561462e57600080fd5b81518015158114611ed757600080fd5b60006020828403121561465057600080fd5b8151611ed781613c69565b60007bffffffffffffffffffffffffffffffffffffffffffffffffffffffff808316818516808303821115614692576146926142fe565b01949350505050565b600082516146ad818460208701613bdc565b919091019291505056fe416464726573733a206c6f772d6c6576656c2064656c65676174652063616c6c206661696c6564a164736f6c634300080d000a",
  "devdoc": {
    "details": "This contract subscribes to the following HolographERC721 events:       - customContractURI       Do not enable or subscribe to any other events unless you modified the source code for them.",
    "kind": "dev",
    "methods": {
      "adminMint(address,uint256)": {
        "params": {
          "quantity": "quantity to mint",
          "recipient": "recipient to mint to"
        }
      },
      "adminMintAirdrop(address[])": {
        "details": "Mints multiple editions to the given list of addresses.",
        "params": {
          "recipients": "list of addresses to send the newly minted editions to"
        }
      },
      "constructor": {
        "details": "Constructor is left empty and init is used instead"
      },
      "contractURI()": {
        "returns": {
          "_0": "Contract URI"
        }
      },
      "getHolographFeeFromTreasury()": {
        "details": "Gets the flat Holograph protocol fee for a single mint in USD"
      },
      "getHolographFeeUsd(uint256)": {
        "details": "Gets the Holograph protocol fee for amount of mints in USD"
      },
      "getHolographFeeWei(uint256)": {
        "details": "Gets the Holograph protocol fee for amount of mints in wei"
      },
      "init(bytes)": {
        "details": "This function is called by the deployer/factory when creating a contract",
        "params": {
          "initPayload": "abi encoded payload to use for contract initilaization"
        }
      },
      "isAdmin(address)": {
        "details": "Getter for admin role associated with the contract to handle metadata",
        "returns": {
          "_0": "boolean if address is admin"
        }
      },
      "mintedPerAddress(address)": {
        "details": "Number of NFTs the user has minted per address",
        "params": {
          "minter": "to get counts for"
        }
      },
      "purchase(uint256)": {
        "details": "This allows the user to purchase/mint a edition at the given price in the contract."
      },
      "purchasePresale(uint256,uint256,uint256,bytes32[])": {
        "params": {
          "maxQuantity": "max quantity that can be purchased via merkle proof #",
          "merkleProof": "proof for presale mint",
          "pricePerToken": "price that each token is purchased at",
          "quantity": "quantity to purchase"
        }
      },
      "saleDetails()": {
        "returns": {
          "_0": "SaleDetails sale information details"
        }
      },
      "setFundsRecipient(address)": {
        "params": {
          "newRecipientAddress": "new funds recipient address"
        }
      },
      "setMetadataRenderer(address,bytes)": {
        "params": {
          "newRenderer": "new renderer address to use",
          "setupRenderer": "data to setup new renderer with"
        }
      },
      "setSaleConfiguration(uint104,uint32,uint64,uint64,uint64,uint64,bytes32)": {
        "details": "This sets the sales configuration",
        "params": {
          "maxSalePurchasePerAddress": "Max # of purchases (public) per address allowed",
          "presaleEnd": "unix timestamp when the presale ends",
          "presaleMerkleRoot": "merkle root for the presale information",
          "presaleStart": "unix timestamp when the presale starts",
          "publicSaleEnd": "unix timestamp when the public sale ends (set to 0 to disable)",
          "publicSalePrice": "New public sale price",
          "publicSaleStart": "unix timestamp when the public sale starts"
        }
      },
      "tokenURI(uint256)": {
        "params": {
          "tokenId": "id of token to get URI for"
        },
        "returns": {
          "_0": "Token URI"
        }
      },
      "version()": {
        "details": "Used for contract versioning and validation",
        "returns": {
          "_0": "version of the contract"
        }
      }
    },
    "stateVariables": {
      "STATIC_GAS_LIMIT": {
        "details": "Gas limit for transferring funds"
      },
      "_currentTokenId": {
        "details": "Internal reference used for minting incremental token ids."
      },
      "dropsPriceOracle": {
        "details": "Address of the price oracle proxy"
      },
      "presaleMintsByAddress": {
        "details": "Mapping for presale mint counts by address to allow public mint limit"
      },
      "totalMintsByAddress": {
        "details": "Mapping for presale mint counts by address to allow public mint limit"
      }
    },
    "version": 1
  },
  "userdoc": {
    "errors": {
      "Access_MissingRoleOrAdmin(bytes32)": [
        {
          "notice": "Missing the given role or admin access"
        }
      ],
      "Access_OnlyAdmin()": [
        {
          "notice": "Only admin can access this function"
        }
      ],
      "Access_WithdrawNotAllowed()": [
        {
          "notice": "Withdraw is not allowed by this user"
        }
      ],
      "Admin_InvalidUpgradeAddress(address)": [
        {
          "notice": "Invalid admin upgrade address"
        }
      ],
      "Admin_UnableToFinalizeNotOpenEdition()": [
        {
          "notice": "Unable to finalize an edition not marked as open (size set to uint64_max_value)"
        }
      ],
      "ExternalMetadataRenderer_CallFailed()": [
        {
          "notice": "Call to external metadata renderer failed."
        }
      ],
      "FeePaymentFailed()": [
        {
          "notice": "Fee payout failed"
        }
      ],
      "MintFee_FundsSendFailure()": [
        {
          "notice": "Mint fee send failure"
        }
      ],
      "Mint_SoldOut()": [
        {
          "notice": "NFT sold out"
        }
      ],
      "Presale_Inactive()": [
        {
          "notice": "Presale is inactive"
        }
      ],
      "Presale_MerkleNotApproved()": [
        {
          "notice": "Presale merkle root is invalid"
        }
      ],
      "Presale_TooManyForAddress()": [
        {
          "notice": "Too many presale for address"
        }
      ],
      "Purchase_TooManyForAddress()": [
        {
          "notice": "Too many purchase for address"
        }
      ],
      "Purchase_WrongPrice(uint256)": [
        {
          "notice": "Wrong price for purchase"
        }
      ],
      "Sale_Inactive()": [
        {
          "notice": "Sale is inactive"
        }
      ],
      "Setup_RoyaltyPercentageTooHigh(uint16)": [
        {
          "notice": "Royalty percentage too high"
        }
      ],
      "Withdraw_FundsSendFailure()": [
        {
          "notice": "Cannot withdraw funds due to ETH send failure."
        }
      ]
    },
    "events": {
      "FundsRecipientChanged(address,address)": {
        "notice": "Event emitted when the funds recipient is changed"
      },
      "FundsWithdrawn(address,address,uint256)": {
        "notice": "Event emitted when the funds are withdrawn from the minting contract"
      },
      "MintFeePayout(uint256,address,bool)": {
        "notice": "Event emitted for mint fee payout"
      },
      "NFTMinted(address,uint256,uint256)": {
        "notice": "Event emitted when an nfs is minted"
      },
      "OpenMintFinalized(address,uint256)": {
        "notice": "Event emitted when an open mint is finalized and further minting is closed forever on the contract."
      },
      "Sale(address,uint256,uint256,uint256)": {
        "notice": "Event emitted for each sale"
      },
      "SalesConfigChanged(address)": {
        "notice": "Sales configuration has been changed"
      },
      "UpdatedMetadataRenderer(address,address)": {
        "notice": "Event emitted when metadata renderer is updated."
      }
    },
    "kind": "user",
    "methods": {
      "adminMint(address,uint256)": {
        "notice": "Admin mint tokens to a recipient for free"
      },
      "config()": {
        "notice": "Configuration for NFT minting contract storage"
      },
      "contractURI()": {
        "notice": "Contract URI Getter, proxies to metadataRenderer"
      },
      "finalizeOpenEdition()": {
        "notice": "Admin function to finalize and open edition sale"
      },
      "getHolographFeeFromTreasury()": {
        "notice": "The Holograph fee is a flat fee for each mint in USD and is controlled by the treasury"
      },
      "getHolographFeeUsd(uint256)": {
        "notice": "The Holograph fee is a flat fee for each mint in USD"
      },
      "getHolographFeeWei(uint256)": {
        "notice": "The Holograph fee is a flat fee for each mint in wei after conversion"
      },
      "getNativePrice()": {
        "notice": "Convert USD price to current price in native Ether units"
      },
      "init(bytes)": {
        "notice": "Used internally to initialize the contract instead of through a constructor"
      },
      "metadataRenderer()": {
        "notice": "Getter for metadataRenderer contract"
      },
      "multicall(bytes[])": {
        "notice": "PUBLIC STATE CHANGING FUNCTIONS available to all"
      },
      "name()": {
        "notice": "Returns the name of the token through the holographer entrypoint"
      },
      "owner()": {
        "notice": "PUBLIC NON STATE CHANGING FUNCTIONS dynamic"
      },
      "purchasePresale(uint256,uint256,uint256,bytes32[])": {
        "notice": "Merkle-tree based presale purchase function"
      },
      "saleDetails()": {
        "notice": "Sale details"
      },
      "salesConfig()": {
        "notice": "Sales configuration"
      },
      "setFundsRecipient(address)": {
        "notice": "Set a different funds recipient"
      },
      "setMetadataRenderer(address,bytes)": {
        "notice": "Set a new metadata renderer"
      },
      "tokenURI(uint256)": {
        "notice": "Token URI Getter, proxies to metadataRenderer"
      },
      "version()": {
        "notice": "Returns the version of the contract"
      },
      "withdraw()": {
        "notice": "This withdraws native tokens from the contract to the contract owner."
      }
    },
    "version": 1
  },
  "storageLayout": {
    "storage": [
      {
        "astId": 18605,
        "contract": "contracts/drops/token/HolographDropERC721V2.sol:HolographDropERC721V2",
        "label": "_currentTokenId",
        "offset": 0,
        "slot": "0",
        "type": "t_uint224"
      },
      {
        "astId": 18613,
        "contract": "contracts/drops/token/HolographDropERC721V2.sol:HolographDropERC721V2",
        "label": "config",
        "offset": 0,
        "slot": "1",
        "type": "t_struct(Configuration)16753_storage"
      },
      {
        "astId": 18617,
        "contract": "contracts/drops/token/HolographDropERC721V2.sol:HolographDropERC721V2",
        "label": "salesConfig",
        "offset": 0,
        "slot": "3",
        "type": "t_struct(SalesConfiguration)16848_storage"
      },
      {
        "astId": 18622,
        "contract": "contracts/drops/token/HolographDropERC721V2.sol:HolographDropERC721V2",
        "label": "presaleMintsByAddress",
        "offset": 0,
        "slot": "6",
        "type": "t_mapping(t_address,t_uint256)"
      },
      {
        "astId": 18627,
        "contract": "contracts/drops/token/HolographDropERC721V2.sol:HolographDropERC721V2",
        "label": "totalMintsByAddress",
        "offset": 0,
        "slot": "7",
        "type": "t_mapping(t_address,t_uint256)"
      }
    ],
    "types": {
      "t_address": {
        "encoding": "inplace",
        "label": "address",
        "numberOfBytes": "20"
      },
      "t_address_payable": {
        "encoding": "inplace",
        "label": "address payable",
        "numberOfBytes": "20"
      },
      "t_bytes32": {
        "encoding": "inplace",
        "label": "bytes32",
        "numberOfBytes": "32"
      },
      "t_contract(IMetadataRenderer)8561": {
        "encoding": "inplace",
        "label": "contract IMetadataRenderer",
        "numberOfBytes": "20"
      },
      "t_mapping(t_address,t_uint256)": {
        "encoding": "mapping",
        "key": "t_address",
        "label": "mapping(address => uint256)",
        "numberOfBytes": "32",
        "value": "t_uint256"
      },
      "t_struct(Configuration)16753_storage": {
        "encoding": "inplace",
        "label": "struct Configuration",
        "members": [
          {
            "astId": 16743,
            "contract": "contracts/drops/token/HolographDropERC721V2.sol:HolographDropERC721V2",
            "label": "metadataRenderer",
            "offset": 0,
            "slot": "0",
            "type": "t_contract(IMetadataRenderer)8561"
          },
          {
            "astId": 16746,
            "contract": "contracts/drops/token/HolographDropERC721V2.sol:HolographDropERC721V2",
            "label": "editionSize",
            "offset": 20,
            "slot": "0",
            "type": "t_uint64"
          },
          {
            "astId": 16749,
            "contract": "contracts/drops/token/HolographDropERC721V2.sol:HolographDropERC721V2",
            "label": "royaltyBPS",
            "offset": 28,
            "slot": "0",
            "type": "t_uint16"
          },
          {
            "astId": 16752,
            "contract": "contracts/drops/token/HolographDropERC721V2.sol:HolographDropERC721V2",
            "label": "fundsRecipient",
            "offset": 0,
            "slot": "1",
            "type": "t_address_payable"
          }
        ],
        "numberOfBytes": "64"
      },
      "t_struct(SalesConfiguration)16848_storage": {
        "encoding": "inplace",
        "label": "struct SalesConfiguration",
        "members": [
          {
            "astId": 16829,
            "contract": "contracts/drops/token/HolographDropERC721V2.sol:HolographDropERC721V2",
            "label": "publicSalePrice",
            "offset": 0,
            "slot": "0",
            "type": "t_uint104"
          },
          {
            "astId": 16832,
            "contract": "contracts/drops/token/HolographDropERC721V2.sol:HolographDropERC721V2",
            "label": "maxSalePurchasePerAddress",
            "offset": 13,
            "slot": "0",
            "type": "t_uint32"
          },
          {
            "astId": 16835,
            "contract": "contracts/drops/token/HolographDropERC721V2.sol:HolographDropERC721V2",
            "label": "publicSaleStart",
            "offset": 17,
            "slot": "0",
            "type": "t_uint64"
          },
          {
            "astId": 16838,
            "contract": "contracts/drops/token/HolographDropERC721V2.sol:HolographDropERC721V2",
            "label": "publicSaleEnd",
            "offset": 0,
            "slot": "1",
            "type": "t_uint64"
          },
          {
            "astId": 16841,
            "contract": "contracts/drops/token/HolographDropERC721V2.sol:HolographDropERC721V2",
            "label": "presaleStart",
            "offset": 8,
            "slot": "1",
            "type": "t_uint64"
          },
          {
            "astId": 16844,
            "contract": "contracts/drops/token/HolographDropERC721V2.sol:HolographDropERC721V2",
            "label": "presaleEnd",
            "offset": 16,
            "slot": "1",
            "type": "t_uint64"
          },
          {
            "astId": 16847,
            "contract": "contracts/drops/token/HolographDropERC721V2.sol:HolographDropERC721V2",
            "label": "presaleMerkleRoot",
            "offset": 0,
            "slot": "2",
            "type": "t_bytes32"
          }
        ],
        "numberOfBytes": "96"
      },
      "t_uint104": {
        "encoding": "inplace",
        "label": "uint104",
        "numberOfBytes": "13"
      },
      "t_uint16": {
        "encoding": "inplace",
        "label": "uint16",
        "numberOfBytes": "2"
      },
      "t_uint224": {
        "encoding": "inplace",
        "label": "uint224",
        "numberOfBytes": "28"
      },
      "t_uint256": {
        "encoding": "inplace",
        "label": "uint256",
        "numberOfBytes": "32"
      },
      "t_uint32": {
        "encoding": "inplace",
        "label": "uint32",
        "numberOfBytes": "4"
      },
      "t_uint64": {
        "encoding": "inplace",
        "label": "uint64",
        "numberOfBytes": "8"
      }
    }
  }
}