{
  "address": "0x7b33C1E6FB402DeF037D0A82Ee7CefF6757982e1",
  "abi": [
    {
      "inputs": [],
      "stateMutability": "nonpayable",
      "type": "constructor"
    },
    {
      "anonymous": false,
      "inputs": [
        {
          "indexed": true,
          "internalType": "address",
          "name": "_owner",
          "type": "address"
        },
        {
          "indexed": true,
          "internalType": "address",
          "name": "_spender",
          "type": "address"
        },
        {
          "indexed": false,
          "internalType": "uint256",
          "name": "_value",
          "type": "uint256"
        }
      ],
      "name": "Approval",
      "type": "event"
    },
    {
      "anonymous": false,
      "inputs": [
        {
          "indexed": true,
          "internalType": "address",
          "name": "previousOwner",
          "type": "address"
        },
        {
          "indexed": true,
          "internalType": "address",
          "name": "newOwner",
          "type": "address"
        }
      ],
      "name": "OwnershipTransferred",
      "type": "event"
    },
    {
      "anonymous": false,
      "inputs": [
        {
          "indexed": true,
          "internalType": "address",
          "name": "_from",
          "type": "address"
        },
        {
          "indexed": true,
          "internalType": "address",
          "name": "_to",
          "type": "address"
        },
        {
          "indexed": false,
          "internalType": "uint256",
          "name": "_value",
          "type": "uint256"
        }
      ],
      "name": "Transfer",
      "type": "event"
    },
    {
      "stateMutability": "payable",
      "type": "fallback"
    },
    {
      "inputs": [],
      "name": "DOMAIN_SEPARATOR",
      "outputs": [
        {
          "internalType": "bytes32",
          "name": "",
          "type": "bytes32"
        }
      ],
      "stateMutability": "view",
      "type": "function"
    },
    {
      "inputs": [],
      "name": "admin",
      "outputs": [
        {
          "internalType": "address",
          "name": "",
          "type": "address"
        }
      ],
      "stateMutability": "view",
      "type": "function"
    },
    {
      "inputs": [
        {
          "internalType": "address",
          "name": "target",
          "type": "address"
        },
        {
          "internalType": "bytes",
          "name": "data",
          "type": "bytes"
        }
      ],
      "name": "adminCall",
      "outputs": [],
      "stateMutability": "payable",
      "type": "function"
    },
    {
      "inputs": [
        {
          "internalType": "address",
          "name": "account",
          "type": "address"
        },
        {
          "internalType": "address",
          "name": "spender",
          "type": "address"
        }
      ],
      "name": "allowance",
      "outputs": [
        {
          "internalType": "uint256",
          "name": "",
          "type": "uint256"
        }
      ],
      "stateMutability": "view",
      "type": "function"
    },
    {
      "inputs": [
        {
          "internalType": "address",
          "name": "spender",
          "type": "address"
        },
        {
          "internalType": "uint256",
          "name": "amount",
          "type": "uint256"
        }
      ],
      "name": "approve",
      "outputs": [
        {
          "internalType": "bool",
          "name": "",
          "type": "bool"
        }
      ],
      "stateMutability": "nonpayable",
      "type": "function"
    },
    {
      "inputs": [
        {
          "internalType": "address",
          "name": "account",
          "type": "address"
        }
      ],
      "name": "balanceOf",
      "outputs": [
        {
          "internalType": "uint256",
          "name": "",
          "type": "uint256"
        }
      ],
      "stateMutability": "view",
      "type": "function"
    },
    {
      "inputs": [
        {
          "internalType": "uint32",
          "name": "fromChain",
          "type": "uint32"
        },
        {
          "internalType": "bytes",
          "name": "payload",
          "type": "bytes"
        }
      ],
      "name": "bridgeIn",
      "outputs": [
        {
          "internalType": "bytes4",
          "name": "",
          "type": "bytes4"
        }
      ],
      "stateMutability": "nonpayable",
      "type": "function"
    },
    {
      "inputs": [
        {
          "internalType": "uint32",
          "name": "toChain",
          "type": "uint32"
        },
        {
          "internalType": "address",
          "name": "sender",
          "type": "address"
        },
        {
          "internalType": "bytes",
          "name": "payload",
          "type": "bytes"
        }
      ],
      "name": "bridgeOut",
      "outputs": [
        {
          "internalType": "bytes4",
          "name": "selector",
          "type": "bytes4"
        },
        {
          "internalType": "bytes",
          "name": "data",
          "type": "bytes"
        }
      ],
      "stateMutability": "nonpayable",
      "type": "function"
    },
    {
      "inputs": [
        {
          "internalType": "uint256",
          "name": "amount",
          "type": "uint256"
        }
      ],
      "name": "burn",
      "outputs": [],
      "stateMutability": "nonpayable",
      "type": "function"
    },
    {
      "inputs": [
        {
          "internalType": "address",
          "name": "account",
          "type": "address"
        },
        {
          "internalType": "uint256",
          "name": "amount",
          "type": "uint256"
        }
      ],
      "name": "burnFrom",
      "outputs": [
        {
          "internalType": "bool",
          "name": "",
          "type": "bool"
        }
      ],
      "stateMutability": "nonpayable",
      "type": "function"
    },
    {
      "inputs": [],
      "name": "decimals",
      "outputs": [
        {
          "internalType": "uint8",
          "name": "",
          "type": "uint8"
        }
      ],
      "stateMutability": "view",
      "type": "function"
    },
    {
      "inputs": [
        {
          "internalType": "address",
          "name": "spender",
          "type": "address"
        },
        {
          "internalType": "uint256",
          "name": "subtractedValue",
          "type": "uint256"
        }
      ],
      "name": "decreaseAllowance",
      "outputs": [
        {
          "internalType": "bool",
          "name": "",
          "type": "bool"
        }
      ],
      "stateMutability": "nonpayable",
      "type": "function"
    },
    {
      "inputs": [],
      "name": "getAdmin",
      "outputs": [
        {
          "internalType": "address",
          "name": "adminAddress",
          "type": "address"
        }
      ],
      "stateMutability": "view",
      "type": "function"
    },
    {
      "inputs": [],
      "name": "getOwner",
      "outputs": [
        {
          "internalType": "address",
          "name": "ownerAddress",
          "type": "address"
        }
      ],
      "stateMutability": "view",
      "type": "function"
    },
    {
      "inputs": [
        {
          "internalType": "address",
          "name": "to",
          "type": "address"
        },
        {
          "internalType": "uint256",
          "name": "amount",
          "type": "uint256"
        }
      ],
      "name": "holographBridgeMint",
      "outputs": [
        {
          "internalType": "bytes4",
          "name": "",
          "type": "bytes4"
        }
      ],
      "stateMutability": "nonpayable",
      "type": "function"
    },
    {
      "inputs": [
        {
          "internalType": "address",
          "name": "spender",
          "type": "address"
        },
        {
          "internalType": "uint256",
          "name": "addedValue",
          "type": "uint256"
        }
      ],
      "name": "increaseAllowance",
      "outputs": [
        {
          "internalType": "bool",
          "name": "",
          "type": "bool"
        }
      ],
      "stateMutability": "nonpayable",
      "type": "function"
    },
    {
      "inputs": [
        {
          "internalType": "bytes",
          "name": "data",
          "type": "bytes"
        }
      ],
      "name": "init",
      "outputs": [
        {
          "internalType": "bytes4",
          "name": "",
          "type": "bytes4"
        }
      ],
      "stateMutability": "nonpayable",
      "type": "function"
    },
    {
      "inputs": [],
      "name": "name",
      "outputs": [
        {
          "internalType": "string",
          "name": "",
          "type": "string"
        }
      ],
      "stateMutability": "view",
      "type": "function"
    },
    {
      "inputs": [
        {
          "internalType": "address",
          "name": "account",
          "type": "address"
        }
      ],
      "name": "nonces",
      "outputs": [
        {
          "internalType": "uint256",
          "name": "",
          "type": "uint256"
        }
      ],
      "stateMutability": "view",
      "type": "function"
    },
    {
      "inputs": [
        {
          "internalType": "address",
          "name": "account",
          "type": "address"
        },
        {
          "internalType": "address",
          "name": "sender",
          "type": "address"
        },
        {
          "internalType": "uint256",
          "name": "amount",
          "type": "uint256"
        },
        {
          "internalType": "bytes",
          "name": "data",
          "type": "bytes"
        }
      ],
      "name": "onERC20Received",
      "outputs": [
        {
          "internalType": "bytes4",
          "name": "",
          "type": "bytes4"
        }
      ],
      "stateMutability": "nonpayable",
      "type": "function"
    },
    {
      "inputs": [],
      "name": "owner",
      "outputs": [
        {
          "internalType": "address",
          "name": "",
          "type": "address"
        }
      ],
      "stateMutability": "view",
      "type": "function"
    },
    {
      "inputs": [
        {
          "internalType": "address",
          "name": "target",
          "type": "address"
        },
        {
          "internalType": "bytes",
          "name": "data",
          "type": "bytes"
        }
      ],
      "name": "ownerCall",
      "outputs": [],
      "stateMutability": "payable",
      "type": "function"
    },
    {
      "inputs": [
        {
          "internalType": "address",
          "name": "account",
          "type": "address"
        },
        {
          "internalType": "address",
          "name": "spender",
          "type": "address"
        },
        {
          "internalType": "uint256",
          "name": "amount",
          "type": "uint256"
        },
        {
          "internalType": "uint256",
          "name": "deadline",
          "type": "uint256"
        },
        {
          "internalType": "uint8",
          "name": "v",
          "type": "uint8"
        },
        {
          "internalType": "bytes32",
          "name": "r",
          "type": "bytes32"
        },
        {
          "internalType": "bytes32",
          "name": "s",
          "type": "bytes32"
        }
      ],
      "name": "permit",
      "outputs": [],
      "stateMutability": "nonpayable",
      "type": "function"
    },
    {
      "inputs": [
        {
          "internalType": "address",
          "name": "recipient",
          "type": "address"
        },
        {
          "internalType": "uint256",
          "name": "amount",
          "type": "uint256"
        }
      ],
      "name": "safeTransfer",
      "outputs": [
        {
          "internalType": "bool",
          "name": "",
          "type": "bool"
        }
      ],
      "stateMutability": "nonpayable",
      "type": "function"
    },
    {
      "inputs": [
        {
          "internalType": "address",
          "name": "recipient",
          "type": "address"
        },
        {
          "internalType": "uint256",
          "name": "amount",
          "type": "uint256"
        },
        {
          "internalType": "bytes",
          "name": "data",
          "type": "bytes"
        }
      ],
      "name": "safeTransfer",
      "outputs": [
        {
          "internalType": "bool",
          "name": "",
          "type": "bool"
        }
      ],
      "stateMutability": "nonpayable",
      "type": "function"
    },
    {
      "inputs": [
        {
          "internalType": "address",
          "name": "account",
          "type": "address"
        },
        {
          "internalType": "address",
          "name": "recipient",
          "type": "address"
        },
        {
          "internalType": "uint256",
          "name": "amount",
          "type": "uint256"
        }
      ],
      "name": "safeTransferFrom",
      "outputs": [
        {
          "internalType": "bool",
          "name": "",
          "type": "bool"
        }
      ],
      "stateMutability": "nonpayable",
      "type": "function"
    },
    {
      "inputs": [
        {
          "internalType": "address",
          "name": "account",
          "type": "address"
        },
        {
          "internalType": "address",
          "name": "recipient",
          "type": "address"
        },
        {
          "internalType": "uint256",
          "name": "amount",
          "type": "uint256"
        },
        {
          "internalType": "bytes",
          "name": "data",
          "type": "bytes"
        }
      ],
      "name": "safeTransferFrom",
      "outputs": [
        {
          "internalType": "bool",
          "name": "",
          "type": "bool"
        }
      ],
      "stateMutability": "nonpayable",
      "type": "function"
    },
    {
      "inputs": [
        {
          "internalType": "address",
          "name": "adminAddress",
          "type": "address"
        }
      ],
      "name": "setAdmin",
      "outputs": [],
      "stateMutability": "nonpayable",
      "type": "function"
    },
    {
      "inputs": [
        {
          "internalType": "address",
          "name": "ownerAddress",
          "type": "address"
        }
      ],
      "name": "setOwner",
      "outputs": [],
      "stateMutability": "nonpayable",
      "type": "function"
    },
    {
      "inputs": [
        {
          "internalType": "address",
          "name": "from",
          "type": "address"
        },
        {
          "internalType": "uint256",
          "name": "amount",
          "type": "uint256"
        }
      ],
      "name": "sourceBurn",
      "outputs": [],
      "stateMutability": "nonpayable",
      "type": "function"
    },
    {
      "inputs": [
        {
          "internalType": "address",
          "name": "to",
          "type": "address"
        },
        {
          "internalType": "uint256",
          "name": "amount",
          "type": "uint256"
        }
      ],
      "name": "sourceMint",
      "outputs": [],
      "stateMutability": "nonpayable",
      "type": "function"
    },
    {
      "inputs": [
        {
          "internalType": "address[]",
          "name": "wallets",
          "type": "address[]"
        },
        {
          "internalType": "uint256[]",
          "name": "amounts",
          "type": "uint256[]"
        }
      ],
      "name": "sourceMintBatch",
      "outputs": [],
      "stateMutability": "nonpayable",
      "type": "function"
    },
    {
      "inputs": [
        {
          "internalType": "address",
          "name": "from",
          "type": "address"
        },
        {
          "internalType": "address",
          "name": "to",
          "type": "address"
        },
        {
          "internalType": "uint256",
          "name": "amount",
          "type": "uint256"
        }
      ],
      "name": "sourceTransfer",
      "outputs": [],
      "stateMutability": "nonpayable",
      "type": "function"
    },
    {
      "inputs": [
        {
          "internalType": "bytes4",
          "name": "interfaceId",
          "type": "bytes4"
        }
      ],
      "name": "supportsInterface",
      "outputs": [
        {
          "internalType": "bool",
          "name": "",
          "type": "bool"
        }
      ],
      "stateMutability": "view",
      "type": "function"
    },
    {
      "inputs": [],
      "name": "symbol",
      "outputs": [
        {
          "internalType": "string",
          "name": "",
          "type": "string"
        }
      ],
      "stateMutability": "view",
      "type": "function"
    },
    {
      "inputs": [],
      "name": "totalSupply",
      "outputs": [
        {
          "internalType": "uint256",
          "name": "",
          "type": "uint256"
        }
      ],
      "stateMutability": "view",
      "type": "function"
    },
    {
      "inputs": [
        {
          "internalType": "address",
          "name": "recipient",
          "type": "address"
        },
        {
          "internalType": "uint256",
          "name": "amount",
          "type": "uint256"
        }
      ],
      "name": "transfer",
      "outputs": [
        {
          "internalType": "bool",
          "name": "",
          "type": "bool"
        }
      ],
      "stateMutability": "nonpayable",
      "type": "function"
    },
    {
      "inputs": [
        {
          "internalType": "address",
          "name": "account",
          "type": "address"
        },
        {
          "internalType": "address",
          "name": "recipient",
          "type": "address"
        },
        {
          "internalType": "uint256",
          "name": "amount",
          "type": "uint256"
        }
      ],
      "name": "transferFrom",
      "outputs": [
        {
          "internalType": "bool",
          "name": "",
          "type": "bool"
        }
      ],
      "stateMutability": "nonpayable",
      "type": "function"
    },
    {
      "inputs": [
        {
          "internalType": "address",
          "name": "newOwner",
          "type": "address"
        }
      ],
      "name": "transferOwnership",
      "outputs": [],
      "stateMutability": "nonpayable",
      "type": "function"
    },
    {
      "stateMutability": "payable",
      "type": "receive"
    }
  ],
  "transactionHash": "0xda9935747793398eeea6f4fd4e865840c72e1c4ef10b57e286bc7df379596485",
  "args": [],
  "numDeployments": 1,
  "solcInputHash": "0b5e3a4fef7397ea053a407f08962d01",
  "bytecode": "0x608060405234801561001057600080fd5b5061562080620000216000396000f3fe6080604052600436106102a45760003560e01c8063704b6c021161016e578063b7e03661116100cb578063eb66dbcf1161007f578063f2fde38b11610064578063f2fde38b14610834578063f851a44014610854578063fad66f9214610869576102ab565b8063eb66dbcf14610801578063eb79554914610814576102ab565b8063bf64a82d116100b0578063bf64a82d1461077b578063d505accf1461078e578063dd62ed3e146107ae576102ab565b8063b7e036611461072d578063b88d4fde1461075b576102ab565b80638da5cb5b11610122578063a457c2d711610107578063a457c2d7146106cd578063a8eb29c9146106ed578063a9059cbb1461070d576102ab565b80638da5cb5b146106a357806395d89b41146106b8576102ab565b806379cc67901161015357806379cc67901461062f5780637ecebe001461064f578063893d20e81461066f576102ab565b8063704b6c02146105cc57806370a08231146105ec576102ab565b8063313ce5671161021c57806342966c68116101d05780634fc35859116101b55780634fc358591461053757806366bd3d45146105575780636e9960c314610577576102ab565b806342966c68146104f75780634ddf47d414610517576102ab565b806339509351116102015780633950935114610497578063423f6cef146104b757806342842e0e146104d7576102ab565b8063313ce567146104605780633644e51514610482576102ab565b80630d3ada541161027357806313af40351161025857806313af40351461040157806318160ddd1461042157806323b872dd14610440576102ab565b80630d3ada54146103c15780630d5e2c1d146103e1576102ab565b806301ffc9a7146102f957806306fdde031461032e57806308a1eb2014610350578063095ea7b3146103a1576102ab565b366102ab57005b3660008037333652600080602036016000347f27d542086d1e831d40b749e7f5509a626c3047a36d160781c40d5acc83e5b074545af13d6000803e8080156102f2573d6000f35b3d6000fd5b005b34801561030557600080fd5b50610319610314366004614a7c565b610889565b60405190151581526020015b60405180910390f35b34801561033a57600080fd5b50610343610a1f565b6040516103259190614b0f565b34801561035c57600080fd5b5061037061036b366004614b84565b610ab1565b6040517fffffffff000000000000000000000000000000000000000000000000000000009091168152602001610325565b3480156103ad57600080fd5b506103196103bc366004614bf9565b610d4c565b3480156103cd57600080fd5b506102f76103dc366004614c6a565b610f18565b3480156103ed57600080fd5b506102f76103fc366004614bf9565b611026565b34801561040d57600080fd5b506102f761041c366004614cd6565b6110d6565b34801561042d57600080fd5b506009545b604051908152602001610325565b34801561044c57600080fd5b5061031961045b366004614cf3565b611239565b34801561046c57600080fd5b50600c5460405160ff9091168152602001610325565b34801561048e57600080fd5b506104326114f9565b3480156104a357600080fd5b506103196104b2366004614bf9565b611508565b3480156104c357600080fd5b506103196104d2366004614bf9565b611772565b3480156104e357600080fd5b506103196104f2366004614cf3565b611795565b34801561050357600080fd5b506102f7610512366004614d34565b6117ba565b34801561052357600080fd5b50610370610532366004614e67565b61196d565b34801561054357600080fd5b50610370610552366004614e9c565b611c80565b34801561056357600080fd5b506102f7610572366004614bf9565b61200f565b34801561058357600080fd5b507f3f106594dc74eeef980dae234cde8324dc2497b13d27a0c59e55bd2ca10a07c9545b60405173ffffffffffffffffffffffffffffffffffffffff9091168152602001610325565b3480156105d857600080fd5b506102f76105e7366004614cd6565b6120ba565b3480156105f857600080fd5b50610432610607366004614cd6565b73ffffffffffffffffffffffffffffffffffffffff1660009081526007602052604090205490565b34801561063b57600080fd5b5061031961064a366004614bf9565b612194565b34801561065b57600080fd5b5061043261066a366004614cd6565b6123eb565b34801561067b57600080fd5b507fb56711ba6bd3ded7639fc335ee7524fe668a79d7558c85992e3f8494cf772777546105a7565b3480156106af57600080fd5b506105a7612418565b3480156106c457600080fd5b506103436124b4565b3480156106d957600080fd5b506103196106e8366004614bf9565b6124c3565b3480156106f957600080fd5b506102f7610708366004614cf3565b61256b565b34801561071957600080fd5b50610319610728366004614bf9565b61261d565b34801561073957600080fd5b5061074d610748366004614f0f565b612798565b604051610325929190614f66565b34801561076757600080fd5b50610319610776366004614fa1565b612b4d565b6102f761078936600461500d565b612de5565b34801561079a57600080fd5b506102f76107a936600461503c565b612ebb565b3480156107ba57600080fd5b506104326107c93660046150ad565b73ffffffffffffffffffffffffffffffffffffffff918216600090815260086020908152604080832093909416825291909152205490565b6102f761080f36600461500d565b613234565b34801561082057600080fd5b5061031961082f3660046150e6565b6132ea565b34801561084057600080fd5b506102f761084f366004614cd6565b613493565b34801561086057600080fd5b506105a76135ea565b34801561087557600080fd5b50610370610884366004614bf9565b613614565b600080610894613772565b7f27d542086d1e831d40b749e7f5509a626c3047a36d160781c40d5acc83e5b074546040517f9fe7303f0000000000000000000000000000000000000000000000000000000081529192509073ffffffffffffffffffffffffffffffffffffffff831690639fe7303f9061090f90600190889060040161516e565b602060405180830381865afa15801561092c573d6000803e3d6000fd5b505050506040513d601f19601f8201168201806040525081019061095091906151ea565b80610a0657506040517f01ffc9a70000000000000000000000000000000000000000000000000000000081527fffffffff000000000000000000000000000000000000000000000000000000008516600482015273ffffffffffffffffffffffffffffffffffffffff8216906301ffc9a790602401602060405180830381865afa1580156109e2573d6000803e3d6000fd5b505050506040513d601f19601f82011682018060405250810190610a0691906151ea565b15610a15575060019392505050565b5060009392505050565b6060600a8054610a2e90615205565b80601f0160208091040260200160405190810160405280929190818152602001828054610a5a90615205565b8015610aa75780601f10610a7c57610100808354040283529160200191610aa7565b820191906000526020600020905b815481529060010190602001808311610a8a57829003601f168201915b5050505050905090565b6000610adb7fb4107f746e9496e8452accc7de63d1c5e14c19f510932daa04077cd49e8bd77a5490565b73ffffffffffffffffffffffffffffffffffffffff16630fffbaf36040518163ffffffff1660e01b8152600401602060405180830381865afa158015610b25573d6000803e3d6000fd5b505050506040513d601f19601f82011682018060405250810190610b499190615252565b73ffffffffffffffffffffffffffffffffffffffff163373ffffffffffffffffffffffffffffffffffffffff1614610be2576040517f08c379a000000000000000000000000000000000000000000000000000000000815260206004820152601760248201527f45524332303a20627269646765206f6e6c792063616c6c00000000000000000060448201526064015b60405180910390fd5b6000808080610bf386880188614fa1565b9350935093509350610c05838361380a565b610c0f600161392a565b15610d1f577f27d542086d1e831d40b749e7f5509a626c3047a36d160781c40d5acc83e5b0745473ffffffffffffffffffffffffffffffffffffffff1663f0f5407389868686866040518663ffffffff1660e01b8152600401610c7695949392919061526f565b6020604051808303816000875af1158015610c95573d6000803e3d6000fd5b505050506040513d601f19601f82011682018060405250810190610cb991906151ea565b610d1f576040517f08c379a000000000000000000000000000000000000000000000000000000000815260206004820152601b60248201527f484f4c4f47524150483a2062726964676520696e206661696c656400000000006044820152606401610bd9565b507f08a1eb2000000000000000000000000000000000000000000000000000000000979650505050505050565b6000610d58600461392a565b15610e29577f27d542086d1e831d40b749e7f5509a626c3047a36d160781c40d5acc83e5b074546040517f47abf3be00000000000000000000000000000000000000000000000000000000815233600482015273ffffffffffffffffffffffffffffffffffffffff85811660248301526044820185905291909116906347abf3be906064016020604051808303816000875af1158015610dfc573d6000803e3d6000fd5b505050506040513d601f19601f82011682018060405250810190610e2091906151ea565b610e2957600080fd5b610e3433848461395c565b610e3e600361392a565b15610f0f577f27d542086d1e831d40b749e7f5509a626c3047a36d160781c40d5acc83e5b074546040517f900f66ef00000000000000000000000000000000000000000000000000000000815233600482015273ffffffffffffffffffffffffffffffffffffffff8581166024830152604482018590529091169063900f66ef906064015b6020604051808303816000875af1158015610ee2573d6000803e3d6000fd5b505050506040513d601f19601f82011682018060405250810190610f0691906151ea565b610f0f57600080fd5b50600192915050565b7f27d542086d1e831d40b749e7f5509a626c3047a36d160781c40d5acc83e5b074543373ffffffffffffffffffffffffffffffffffffffff821614610fb9576040517f08c379a000000000000000000000000000000000000000000000000000000000815260206004820152601760248201527f45524332303a20736f75726365206f6e6c792063616c6c0000000000000000006044820152606401610bd9565b60005b8481101561101e5761100c868683818110610fd957610fd96152c5565b9050602002016020810190610fee9190614cd6565b858584818110611000576110006152c5565b9050602002013561380a565b8061101681615323565b915050610fbc565b505050505050565b7f27d542086d1e831d40b749e7f5509a626c3047a36d160781c40d5acc83e5b074543373ffffffffffffffffffffffffffffffffffffffff8216146110c7576040517f08c379a000000000000000000000000000000000000000000000000000000000815260206004820152601760248201527f45524332303a20736f75726365206f6e6c792063616c6c0000000000000000006044820152606401610bd9565b6110d18383613ac5565b505050565b7fb56711ba6bd3ded7639fc335ee7524fe668a79d7558c85992e3f8494cf7727775473ffffffffffffffffffffffffffffffffffffffff163373ffffffffffffffffffffffffffffffffffffffff161461118c576040517f08c379a000000000000000000000000000000000000000000000000000000000815260206004820152601e60248201527f484f4c4f47524150483a206f776e6572206f6e6c792066756e6374696f6e00006044820152606401610bd9565b60006111b67fb56711ba6bd3ded7639fc335ee7524fe668a79d7558c85992e3f8494cf7727775490565b9050817fb56711ba6bd3ded7639fc335ee7524fe668a79d7558c85992e3f8494cf772777558173ffffffffffffffffffffffffffffffffffffffff168173ffffffffffffffffffffffffffffffffffffffff167f8be0079c531659141344cd1fd0a4f28419497f9722a3daafe3b4186f6b6457e060405160405180910390a35050565b600073ffffffffffffffffffffffffffffffffffffffff8416331461132a5773ffffffffffffffffffffffffffffffffffffffff84166000908152600860209081526040808320338452909152902054828110156112f3576040517f08c379a000000000000000000000000000000000000000000000000000000000815260206004820152601f60248201527f45524332303a20616d6f756e74206578636565647320616c6c6f77616e6365006044820152606401610bd9565b73ffffffffffffffffffffffffffffffffffffffff8516600090815260086020908152604080832033845290915290209083900390555b611334600e61392a565b15611407577f27d542086d1e831d40b749e7f5509a626c3047a36d160781c40d5acc83e5b074546040517f1ffb811f00000000000000000000000000000000000000000000000000000000815273ffffffffffffffffffffffffffffffffffffffff86811660048301528581166024830152604482018590529190911690631ffb811f906064016020604051808303816000875af11580156113da573d6000803e3d6000fd5b505050506040513d601f19601f820116820180604052508101906113fe91906151ea565b61140757600080fd5b611412848484613c5e565b61141c600d61392a565b156114ef577f27d542086d1e831d40b749e7f5509a626c3047a36d160781c40d5acc83e5b074546040517ff49062ca00000000000000000000000000000000000000000000000000000000815273ffffffffffffffffffffffffffffffffffffffff86811660048301528581166024830152604482018590529091169063f49062ca906064015b6020604051808303816000875af11580156114c2573d6000803e3d6000fd5b505050506040513d601f19601f820116820180604052508101906114e691906151ea565b6114ef57600080fd5b5060019392505050565b6000611503613ea0565b905090565b33600090815260086020908152604080832073ffffffffffffffffffffffffffffffffffffffff86168452909152812054828101818110156115a6576040517f08c379a000000000000000000000000000000000000000000000000000000000815260206004820181905260248201527f45524332303a20696e637265617365642061626f7665206d61782076616c75656044820152606401610bd9565b6115b0600461392a565b15611681577f27d542086d1e831d40b749e7f5509a626c3047a36d160781c40d5acc83e5b074546040517f47abf3be00000000000000000000000000000000000000000000000000000000815233600482015273ffffffffffffffffffffffffffffffffffffffff87811660248301526044820184905291909116906347abf3be906064016020604051808303816000875af1158015611654573d6000803e3d6000fd5b505050506040513d601f19601f8201168201806040525081019061167891906151ea565b61168157600080fd5b61168c33868361395c565b611696600361392a565b15611767577f27d542086d1e831d40b749e7f5509a626c3047a36d160781c40d5acc83e5b074546040517f900f66ef00000000000000000000000000000000000000000000000000000000815233600482015273ffffffffffffffffffffffffffffffffffffffff8781166024830152604482018490529091169063900f66ef906064015b6020604051808303816000875af115801561173a573d6000803e3d6000fd5b505050506040513d601f19601f8201168201806040525081019061175e91906151ea565b61176757600080fd5b506001949350505050565b600061178e8383604051806020016040528060008152506132ea565b9392505050565b60006117b284848460405180602001604052806000815250612b4d565b949350505050565b6117c4600861392a565b1561188d577f27d542086d1e831d40b749e7f5509a626c3047a36d160781c40d5acc83e5b074546040517f4a1fefbd0000000000000000000000000000000000000000000000000000000081523360048201526024810183905273ffffffffffffffffffffffffffffffffffffffff9190911690634a1fefbd906044016020604051808303816000875af1158015611860573d6000803e3d6000fd5b505050506040513d601f19601f8201168201806040525081019061188491906151ea565b61188d57600080fd5b6118973382613ac5565b6118a1600761392a565b1561196a577f27d542086d1e831d40b749e7f5509a626c3047a36d160781c40d5acc83e5b074546040517f971c34b40000000000000000000000000000000000000000000000000000000081523360048201526024810183905273ffffffffffffffffffffffffffffffffffffffff919091169063971c34b4906044016020604051808303816000875af115801561193d573d6000803e3d6000fd5b505050506040513d601f19601f8201168201806040525081019061196191906151ea565b61196a57600080fd5b50565b60006119977f4e5f991bca30eca2d4643aaefa807e88f96a4a97398933d572a3c0d973004a015490565b156119fe576040517f08c379a000000000000000000000000000000000000000000000000000000000815260206004820152601a60248201527f45524332303a20616c726561647920696e697469616c697a65640000000000006044820152606401610bd9565b600060017f04b524dd539523930d3901481aa9455d7752b49add99e1647adb8b09a313727955337fb56711ba6bd3ded7639fc335ee7524fe668a79d7558c85992e3f8494cf772777557f27d542086d1e831d40b749e7f5509a626c3047a36d160781c40d5acc83e5b0745490506000806000806000806000808a806020019051810190611a8b91906153ab565b9750975097509750975097509750975087600a9080519060200190611ab19291906149b5565b508651611ac590600b9060208a01906149b5565b50600c80547fffffffffffffffffffffffffffffffffffffffffffffffffffffffffffffff001660ff8816179055600685905581611c1d576040517f4ddf47d4000000000000000000000000000000000000000000000000000000008082529073ffffffffffffffffffffffffffffffffffffffff8b1690634ddf47d490611b51908590600401614b0f565b6020604051808303816000875af1158015611b70573d6000803e3d6000fd5b505050506040513d601f19601f82011682018060405250810190611b9491906154a8565b7fffffffff000000000000000000000000000000000000000000000000000000001614611c1d576040517f08c379a000000000000000000000000000000000000000000000000000000000815260206004820152601c60248201527f45524332303a20636f756c64206e6f7420696e697420736f75726365000000006044820152606401610bd9565b611c4660017f4e5f991bca30eca2d4643aaefa807e88f96a4a97398933d572a3c0d973004a0155565b611c508484613f2c565b507f4ddf47d4000000000000000000000000000000000000000000000000000000009a9950505050505050505050565b6000611c8b86613ff4565b611cf1576040517f08c379a000000000000000000000000000000000000000000000000000000000815260206004820152601c60248201527f45524332303a206f70657261746f72206e6f7420636f6e7472616374000000006044820152606401610bd9565b611cfb600661392a565b15611db0577f27d542086d1e831d40b749e7f5509a626c3047a36d160781c40d5acc83e5b0745473ffffffffffffffffffffffffffffffffffffffff166395aae8bd8787308888886040518763ffffffff1660e01b8152600401611d64969594939291906154c5565b6020604051808303816000875af1158015611d83573d6000803e3d6000fd5b505050506040513d601f19601f82011682018060405250810190611da791906151ea565b611db057600080fd5b6040517f70a0823100000000000000000000000000000000000000000000000000000000815230600482015273ffffffffffffffffffffffffffffffffffffffff8716906370a0823190602401602060405180830381865afa925050508015611e54575060408051601f3d9081017fffffffffffffffffffffffffffffffffffffffffffffffffffffffffffffffe0168201909252611e519181019061554d565b60015b611eba576040517f08c379a000000000000000000000000000000000000000000000000000000000815260206004820152601d60248201527f45524332303a206661696c65642067657474696e672062616c616e63650000006044820152606401610bd9565b84811015611f24576040517f08c379a000000000000000000000000000000000000000000000000000000000815260206004820152601b60248201527f45524332303a2062616c616e636520636865636b206661696c656400000000006044820152606401610bd9565b50611f2f600561392a565b15611fe4577f27d542086d1e831d40b749e7f5509a626c3047a36d160781c40d5acc83e5b0745473ffffffffffffffffffffffffffffffffffffffff166345b596998787308888886040518763ffffffff1660e01b8152600401611f98969594939291906154c5565b6020604051808303816000875af1158015611fb7573d6000803e3d6000fd5b505050506040513d601f19601f82011682018060405250810190611fdb91906151ea565b611fe457600080fd5b507f4fc358590000000000000000000000000000000000000000000000000000000095945050505050565b7f27d542086d1e831d40b749e7f5509a626c3047a36d160781c40d5acc83e5b074543373ffffffffffffffffffffffffffffffffffffffff8216146120b0576040517f08c379a000000000000000000000000000000000000000000000000000000000815260206004820152601760248201527f45524332303a20736f75726365206f6e6c792063616c6c0000000000000000006044820152606401610bd9565b6110d1838361380a565b7f3f106594dc74eeef980dae234cde8324dc2497b13d27a0c59e55bd2ca10a07c95473ffffffffffffffffffffffffffffffffffffffff163373ffffffffffffffffffffffffffffffffffffffff1614612170576040517f08c379a000000000000000000000000000000000000000000000000000000000815260206004820152601e60248201527f484f4c4f47524150483a2061646d696e206f6e6c792066756e6374696f6e00006044820152606401610bd9565b7f3f106594dc74eeef980dae234cde8324dc2497b13d27a0c59e55bd2ca10a07c955565b73ffffffffffffffffffffffffffffffffffffffff821660009081526008602090815260408083203384529091528120548281101561222f576040517f08c379a000000000000000000000000000000000000000000000000000000000815260206004820152601f60248201527f45524332303a20616d6f756e74206578636565647320616c6c6f77616e6365006044820152606401610bd9565b73ffffffffffffffffffffffffffffffffffffffff84166000908152600860208181526040808420338552909152909120848303905561226e9061392a565b15612339577f27d542086d1e831d40b749e7f5509a626c3047a36d160781c40d5acc83e5b074546040517f4a1fefbd00000000000000000000000000000000000000000000000000000000815273ffffffffffffffffffffffffffffffffffffffff8681166004830152602482018690529190911690634a1fefbd906044016020604051808303816000875af115801561230c573d6000803e3d6000fd5b505050506040513d601f19601f8201168201806040525081019061233091906151ea565b61233957600080fd5b6123438484613ac5565b61234d600761392a565b156114ef577f27d542086d1e831d40b749e7f5509a626c3047a36d160781c40d5acc83e5b074546040517f971c34b400000000000000000000000000000000000000000000000000000000815273ffffffffffffffffffffffffffffffffffffffff868116600483015260248201869052919091169063971c34b4906044016020604051808303816000875af11580156114c2573d6000803e3d6000fd5b73ffffffffffffffffffffffffffffffffffffffff81166000908152600d60205260408120545b92915050565b6000807f27d542086d1e831d40b749e7f5509a626c3047a36d160781c40d5acc83e5b0745490508073ffffffffffffffffffffffffffffffffffffffff16638da5cb5b6040518163ffffffff1660e01b8152600401602060405180830381865afa15801561248a573d6000803e3d6000fd5b505050506040513d601f19601f820116820180604052508101906124ae9190615252565b91505090565b6060600b8054610a2e90615205565b33600090815260086020908152604080832073ffffffffffffffffffffffffffffffffffffffff861684529091528120548281101561255e576040517f08c379a000000000000000000000000000000000000000000000000000000000815260206004820152601b60248201527f45524332303a206465637265617365642062656c6f77207a65726f00000000006044820152606401610bd9565b8281036115b0600461392a565b7f27d542086d1e831d40b749e7f5509a626c3047a36d160781c40d5acc83e5b074543373ffffffffffffffffffffffffffffffffffffffff82161461260c576040517f08c379a000000000000000000000000000000000000000000000000000000000815260206004820152601760248201527f45524332303a20736f75726365206f6e6c792063616c6c0000000000000000006044820152606401610bd9565b612617848484613c5e565b50505050565b6000612629600e61392a565b156126fa577f27d542086d1e831d40b749e7f5509a626c3047a36d160781c40d5acc83e5b074546040517f1ffb811f00000000000000000000000000000000000000000000000000000000815233600482015273ffffffffffffffffffffffffffffffffffffffff8581166024830152604482018590529190911690631ffb811f906064016020604051808303816000875af11580156126cd573d6000803e3d6000fd5b505050506040513d601f19601f820116820180604052508101906126f191906151ea565b6126fa57600080fd5b612705338484613c5e565b61270f600d61392a565b15610f0f577f27d542086d1e831d40b749e7f5509a626c3047a36d160781c40d5acc83e5b074546040517ff49062ca00000000000000000000000000000000000000000000000000000000815233600482015273ffffffffffffffffffffffffffffffffffffffff8581166024830152604482018590529091169063f49062ca90606401610ec3565b600060606127c47fb4107f746e9496e8452accc7de63d1c5e14c19f510932daa04077cd49e8bd77a5490565b73ffffffffffffffffffffffffffffffffffffffff16630fffbaf36040518163ffffffff1660e01b8152600401602060405180830381865afa15801561280e573d6000803e3d6000fd5b505050506040513d601f19601f820116820180604052508101906128329190615252565b73ffffffffffffffffffffffffffffffffffffffff163373ffffffffffffffffffffffffffffffffffffffff16146128c6576040517f08c379a000000000000000000000000000000000000000000000000000000000815260206004820152601760248201527f45524332303a20627269646765206f6e6c792063616c6c0000000000000000006044820152606401610bd9565b600080806128d686880188614cf3565b9250925092508273ffffffffffffffffffffffffffffffffffffffff168873ffffffffffffffffffffffffffffffffffffffff16146129e55773ffffffffffffffffffffffffffffffffffffffff8084166000908152600860209081526040808320938c1683529290522054818110156129ac576040517f08c379a000000000000000000000000000000000000000000000000000000000815260206004820152601f60248201527f45524332303a20616d6f756e74206578636565647320616c6c6f77616e6365006044820152606401610bd9565b73ffffffffffffffffffffffffffffffffffffffff8085166000908152600860209081526040808320938d168352929052209082900390555b6129ef600261392a565b15612aea577f27d542086d1e831d40b749e7f5509a626c3047a36d160781c40d5acc83e5b074546040517f8b1465c600000000000000000000000000000000000000000000000000000000815263ffffffff8b16600482015273ffffffffffffffffffffffffffffffffffffffff85811660248301528481166044830152606482018490529190911690638b1465c6906084016000604051808303816000875af1158015612aa1573d6000803e3d6000fd5b505050506040513d6000823e601f3d9081017fffffffffffffffffffffffffffffffffffffffffffffffffffffffffffffffe0168201604052612ae79190810190615566565b93505b612af48382613ac5565b6040517fb7e036610000000000000000000000000000000000000000000000000000000090612b2d90859085908590899060200161559b565b604051602081830303815290604052945094505050505b94509492505050565b600073ffffffffffffffffffffffffffffffffffffffff85163314612c3e5773ffffffffffffffffffffffffffffffffffffffff8516600090815260086020908152604080832033845290915290205483811015612c07576040517f08c379a000000000000000000000000000000000000000000000000000000000815260206004820152601f60248201527f45524332303a20616d6f756e74206578636565647320616c6c6f77616e6365006044820152606401610bd9565b73ffffffffffffffffffffffffffffffffffffffff8616600090815260086020908152604080832033845290915290209084900390555b612c48600c61392a565b15612cf9577f27d542086d1e831d40b749e7f5509a626c3047a36d160781c40d5acc83e5b0745473ffffffffffffffffffffffffffffffffffffffff16632ca16676868686866040518563ffffffff1660e01b8152600401612cad949392919061559b565b6020604051808303816000875af1158015612ccc573d6000803e3d6000fd5b505050506040513d601f19601f82011682018060405250810190612cf091906151ea565b612cf957600080fd5b612d04858585613c5e565b612d108585858561402b565b612d76576040517f08c379a000000000000000000000000000000000000000000000000000000000815260206004820152601860248201527f45524332303a206e6f6e204552433230526563656976657200000000000000006044820152606401610bd9565b612d80600b61392a565b15611767577f27d542086d1e831d40b749e7f5509a626c3047a36d160781c40d5acc83e5b0745473ffffffffffffffffffffffffffffffffffffffff166336fff062868686866040518563ffffffff1660e01b815260040161171b949392919061559b565b7f3f106594dc74eeef980dae234cde8324dc2497b13d27a0c59e55bd2ca10a07c95473ffffffffffffffffffffffffffffffffffffffff163373ffffffffffffffffffffffffffffffffffffffff1614612e9b576040517f08c379a000000000000000000000000000000000000000000000000000000000815260206004820152601e60248201527f484f4c4f47524150483a2061646d696e206f6e6c792066756e6374696f6e00006044820152606401610bd9565b808260003760008082600034875af13d6000803e8080156102f2573d6000f35b83421115612f25576040517f08c379a000000000000000000000000000000000000000000000000000000000815260206004820152601760248201527f45524332303a206578706972656420646561646c696e650000000000000000006044820152606401610bd9565b60007f6e71edae12b1b97f4d1f60370fef10105fa2faae0126114a169c64845d6126c9888888612f548c614586565b60408051602081019690965273ffffffffffffffffffffffffffffffffffffffff94851690860152929091166060840152608083015260a082015260c0810186905260e0016040516020818303038152906040528051906020012090506000612fbc826145bb565b90506000612fcc82878787614624565b90508973ffffffffffffffffffffffffffffffffffffffff168173ffffffffffffffffffffffffffffffffffffffff1614613063576040517f08c379a000000000000000000000000000000000000000000000000000000000815260206004820152601860248201527f45524332303a20696e76616c6964207369676e617475726500000000000000006044820152606401610bd9565b61306d600461392a565b15613140577f27d542086d1e831d40b749e7f5509a626c3047a36d160781c40d5acc83e5b074546040517f47abf3be00000000000000000000000000000000000000000000000000000000815273ffffffffffffffffffffffffffffffffffffffff8c811660048301528b81166024830152604482018b905291909116906347abf3be906064016020604051808303816000875af1158015613113573d6000803e3d6000fd5b505050506040513d601f19601f8201168201806040525081019061313791906151ea565b61314057600080fd5b61314b8a8a8a61395c565b613155600361392a565b15613228577f27d542086d1e831d40b749e7f5509a626c3047a36d160781c40d5acc83e5b074546040517f900f66ef00000000000000000000000000000000000000000000000000000000815273ffffffffffffffffffffffffffffffffffffffff8c811660048301528b81166024830152604482018b9052919091169063900f66ef906064016020604051808303816000875af11580156131fb573d6000803e3d6000fd5b505050506040513d601f19601f8201168201806040525081019061321f91906151ea565b61322857600080fd5b50505050505050505050565b7fb56711ba6bd3ded7639fc335ee7524fe668a79d7558c85992e3f8494cf7727775473ffffffffffffffffffffffffffffffffffffffff163373ffffffffffffffffffffffffffffffffffffffff1614612e9b576040517f08c379a000000000000000000000000000000000000000000000000000000000815260206004820152601e60248201527f484f4c4f47524150483a206f776e6572206f6e6c792066756e6374696f6e00006044820152606401610bd9565b60006132f6600c61392a565b156133a7577f27d542086d1e831d40b749e7f5509a626c3047a36d160781c40d5acc83e5b0745473ffffffffffffffffffffffffffffffffffffffff16632ca16676338686866040518563ffffffff1660e01b815260040161335b949392919061559b565b6020604051808303816000875af115801561337a573d6000803e3d6000fd5b505050506040513d601f19601f8201168201806040525081019061339e91906151ea565b6133a757600080fd5b6133b2338585613c5e565b6133be3385858561402b565b613424576040517f08c379a000000000000000000000000000000000000000000000000000000000815260206004820152601860248201527f45524332303a206e6f6e204552433230526563656976657200000000000000006044820152606401610bd9565b61342e600b61392a565b156114ef577f27d542086d1e831d40b749e7f5509a626c3047a36d160781c40d5acc83e5b0745473ffffffffffffffffffffffffffffffffffffffff166336fff062338686866040518563ffffffff1660e01b81526004016114a3949392919061559b565b7fb56711ba6bd3ded7639fc335ee7524fe668a79d7558c85992e3f8494cf7727775473ffffffffffffffffffffffffffffffffffffffff163373ffffffffffffffffffffffffffffffffffffffff1614613549576040517f08c379a000000000000000000000000000000000000000000000000000000000815260206004820152601e60248201527f484f4c4f47524150483a206f776e6572206f6e6c792066756e6374696f6e00006044820152606401610bd9565b73ffffffffffffffffffffffffffffffffffffffff81166135c6576040517f08c379a000000000000000000000000000000000000000000000000000000000815260206004820152601760248201527f484f4c4f47524150483a207a65726f20616464726573730000000000000000006044820152606401610bd9565b7fb56711ba6bd3ded7639fc335ee7524fe668a79d7558c85992e3f8494cf77277755565b60006115037f3f106594dc74eeef980dae234cde8324dc2497b13d27a0c59e55bd2ca10a07c95490565b600061363e7fb4107f746e9496e8452accc7de63d1c5e14c19f510932daa04077cd49e8bd77a5490565b73ffffffffffffffffffffffffffffffffffffffff16630fffbaf36040518163ffffffff1660e01b8152600401602060405180830381865afa158015613688573d6000803e3d6000fd5b505050506040513d601f19601f820116820180604052508101906136ac9190615252565b73ffffffffffffffffffffffffffffffffffffffff163373ffffffffffffffffffffffffffffffffffffffff1614613740576040517f08c379a000000000000000000000000000000000000000000000000000000000815260206004820152601760248201527f45524332303a20627269646765206f6e6c792063616c6c0000000000000000006044820152606401610bd9565b61374a838361380a565b507ffad66f920000000000000000000000000000000000000000000000000000000092915050565b600061379c7fb4107f746e9496e8452accc7de63d1c5e14c19f510932daa04077cd49e8bd77a5490565b73ffffffffffffffffffffffffffffffffffffffff1663ebac15f96040518163ffffffff1660e01b8152600401602060405180830381865afa1580156137e6573d6000803e3d6000fd5b505050506040513d601f19601f820116820180604052508101906115039190615252565b73ffffffffffffffffffffffffffffffffffffffff8216613887576040517f08c379a000000000000000000000000000000000000000000000000000000000815260206004820152601e60248201527f45524332303a206d696e74696e6720746f206275726e206164647265737300006044820152606401610bd9565b806009600082825461389991906155e4565b909155505073ffffffffffffffffffffffffffffffffffffffff8216600090815260076020526040812080548392906138d39084906155e4565b909155505060405181815273ffffffffffffffffffffffffffffffffffffffff8316906000907fddf252ad1be2c89b69c2b068fc378daa952ba7f163c4a11628f55a4df523b3ef9060200160405180910390a35050565b6000600182600e8111156139405761394061513f565b600654901c16600114613954576000612412565b600192915050565b73ffffffffffffffffffffffffffffffffffffffff83166139d9576040517f08c379a000000000000000000000000000000000000000000000000000000000815260206004820152601e60248201527f45524332303a206163636f756e74206973207a65726f206164647265737300006044820152606401610bd9565b73ffffffffffffffffffffffffffffffffffffffff8216613a56576040517f08c379a000000000000000000000000000000000000000000000000000000000815260206004820152601e60248201527f45524332303a207370656e646572206973207a65726f206164647265737300006044820152606401610bd9565b73ffffffffffffffffffffffffffffffffffffffff83811660008181526008602090815260408083209487168084529482529182902085905590518481527f8c5be1e5ebec7d5bd14f71427d1e84f3dd0314c0f7b2291e5b200ac8c7c3b92591015b60405180910390a3505050565b73ffffffffffffffffffffffffffffffffffffffff8216613b42576040517f08c379a000000000000000000000000000000000000000000000000000000000815260206004820152601e60248201527f45524332303a206163636f756e74206973207a65726f206164647265737300006044820152606401610bd9565b73ffffffffffffffffffffffffffffffffffffffff821660009081526007602052604090205481811015613bd2576040517f08c379a000000000000000000000000000000000000000000000000000000000815260206004820152601d60248201527f45524332303a20616d6f756e7420657863656564732062616c616e63650000006044820152606401610bd9565b73ffffffffffffffffffffffffffffffffffffffff83166000908152600760205260408120838303905560098054849290613c0e9084906155fc565b909155505060405182815260009073ffffffffffffffffffffffffffffffffffffffff8516907fddf252ad1be2c89b69c2b068fc378daa952ba7f163c4a11628f55a4df523b3ef90602001613ab8565b73ffffffffffffffffffffffffffffffffffffffff8316613cdb576040517f08c379a000000000000000000000000000000000000000000000000000000000815260206004820152601e60248201527f45524332303a206163636f756e74206973207a65726f206164647265737300006044820152606401610bd9565b73ffffffffffffffffffffffffffffffffffffffff8216613d58576040517f08c379a000000000000000000000000000000000000000000000000000000000815260206004820181905260248201527f45524332303a20726563697069656e74206973207a65726f20616464726573736044820152606401610bd9565b73ffffffffffffffffffffffffffffffffffffffff831660009081526007602052604090205481811015613de8576040517f08c379a000000000000000000000000000000000000000000000000000000000815260206004820152601d60248201527f45524332303a20616d6f756e7420657863656564732062616c616e63650000006044820152606401610bd9565b73ffffffffffffffffffffffffffffffffffffffff808516600090815260076020526040808220858503905591851681529081208054849290613e2c9084906155e4565b925050819055508273ffffffffffffffffffffffffffffffffffffffff168473ffffffffffffffffffffffffffffffffffffffff167fddf252ad1be2c89b69c2b068fc378daa952ba7f163c4a11628f55a4df523b3ef84604051613e9291815260200190565b60405180910390a350505050565b60025460009073ffffffffffffffffffffffffffffffffffffffff1630148015613ecb575060015446145b15613ed7575060005490565b6115036005546003546004546040805160208101859052908101839052606081018290524660808201523060a082015260009060c0016040516020818303038152906040528051906020012090509392505050565b815160208084019190912082519183019190912060038290556004819055466001557f8b73c3c69bb8fe3d512ecc4cf759cc79239f7b179b0ffacaa9a75d522b39400f613fbe8184846040805160208101859052908101839052606081018290524660808201523060a082015260009060c0016040516020818303038152906040528051906020012090509392505050565b600055600280547fffffffffffffffffffffffff0000000000000000000000000000000000000000163017905560055550505050565b6000813f801580159061178e57507fc5d2460186f7233c927e7db2dcc703c0e500b653ca82273b7bfad8045d85a470141592915050565b60006140557f04b524dd539523930d3901481aa9455d7752b49add99e1647adb8b09a31372795490565b6002036140be576040517f08c379a000000000000000000000000000000000000000000000000000000000815260206004820152601960248201527f484f4c4f47524150483a207265656e7472616e742063616c6c000000000000006044820152606401610bd9565b6140e760027f04b524dd539523930d3901481aa9455d7752b49add99e1647adb8b09a313727955565b6140f084613ff4565b15614559576040517f01ffc9a700000000000000000000000000000000000000000000000000000000808252600482015273ffffffffffffffffffffffffffffffffffffffff8516906301ffc9a790602401602060405180830381865afa925050508015614199575060408051601f3d9081017fffffffffffffffffffffffffffffffffffffffffffffffffffffffffffffffe0168201909252614196918101906151ea565b60015b614240573d8080156141c7576040519150601f19603f3d011682016040523d82523d6000602084013e6141cc565b606091505b508051600003614238576040517f08c379a000000000000000000000000000000000000000000000000000000000815260206004820152601860248201527f45524332303a206e6f2045524331363520737570706f727400000000000000006044820152606401610bd9565b805181602001fd5b806142a7576040517f08c379a000000000000000000000000000000000000000000000000000000000815260206004820152601860248201527f45524332303a206e6f2045524331363520737570706f727400000000000000006044820152606401610bd9565b6040517f01ffc9a70000000000000000000000000000000000000000000000000000000081527f534f587600000000000000000000000000000000000000000000000000000000600482015273ffffffffffffffffffffffffffffffffffffffff8616906301ffc9a790602401602060405180830381865afa158015614331573d6000803e3d6000fd5b505050506040513d601f19601f8201168201806040525081019061435591906151ea565b156144f7576040517f4fc3585900000000000000000000000000000000000000000000000000000000815273ffffffffffffffffffffffffffffffffffffffff861690634fc35859906143b29030908a908990899060040161559b565b6020604051808303816000875af192505050801561440b575060408051601f3d9081017fffffffffffffffffffffffffffffffffffffffffffffffffffffffffffffffe0168201909252614408918101906154a8565b60015b6144aa573d808015614439576040519150601f19603f3d011682016040523d82523d6000602084013e61443e565b606091505b508051600003614238576040517f08c379a000000000000000000000000000000000000000000000000000000000815260206004820152601860248201527f45524332303a206e6f6e204552433230526563656976657200000000000000006044820152606401610bd9565b7fffffffff00000000000000000000000000000000000000000000000000000000167f4fc358590000000000000000000000000000000000000000000000000000000014915061455d9050565b6040517f08c379a000000000000000000000000000000000000000000000000000000000815260206004820152601d60248201527f45524332303a206569702d34353234206e6f7420737570706f727465640000006044820152606401610bd9565b5060015b6117b260017f04b524dd539523930d3901481aa9455d7752b49add99e1647adb8b09a313727955565b73ffffffffffffffffffffffffffffffffffffffff81166000908152600d602052604090208054600181018255905b50919050565b60006124126145c8613ea0565b836040517f19010000000000000000000000000000000000000000000000000000000000006020820152602281018390526042810182905260009060620160405160208183030381529060405280519060200120905092915050565b60008060006146358787878761464c565b9150915061464281614761565b5095945050505050565b6000807f7fffffffffffffffffffffffffffffff5d576e7357a4501ddfe92f46681b20a08311156146835750600090506003612b44565b8460ff16601b1415801561469b57508460ff16601c14155b156146ac5750600090506004612b44565b6040805160008082526020820180845289905260ff881692820192909252606081018690526080810185905260019060a0016020604051602081039080840390855afa158015614700573d6000803e3d6000fd5b50506040517fffffffffffffffffffffffffffffffffffffffffffffffffffffffffffffffe0015191505073ffffffffffffffffffffffffffffffffffffffff811661475457600060019250925050612b44565b9660009650945050505050565b60008160048111156147755761477561513f565b0361477d5750565b60018160048111156147915761479161513f565b036147f8576040517f08c379a000000000000000000000000000000000000000000000000000000000815260206004820152601860248201527f45434453413a20696e76616c6964207369676e617475726500000000000000006044820152606401610bd9565b600281600481111561480c5761480c61513f565b03614873576040517f08c379a000000000000000000000000000000000000000000000000000000000815260206004820152601f60248201527f45434453413a20696e76616c6964207369676e6174757265206c656e677468006044820152606401610bd9565b60038160048111156148875761488761513f565b03614914576040517f08c379a000000000000000000000000000000000000000000000000000000000815260206004820152602260248201527f45434453413a20696e76616c6964207369676e6174757265202773272076616c60448201527f75650000000000000000000000000000000000000000000000000000000000006064820152608401610bd9565b60048160048111156149285761492861513f565b0361196a576040517f08c379a000000000000000000000000000000000000000000000000000000000815260206004820152602260248201527f45434453413a20696e76616c6964207369676e6174757265202776272076616c60448201527f75650000000000000000000000000000000000000000000000000000000000006064820152608401610bd9565b8280546149c190615205565b90600052602060002090601f0160209004810192826149e35760008555614a29565b82601f106149fc57805160ff1916838001178555614a29565b82800160010185558215614a29579182015b82811115614a29578251825591602001919060010190614a0e565b50614a35929150614a39565b5090565b5b80821115614a355760008155600101614a3a565b7fffffffff000000000000000000000000000000000000000000000000000000008116811461196a57600080fd5b600060208284031215614a8e57600080fd5b813561178e81614a4e565b60005b83811015614ab4578181015183820152602001614a9c565b838111156126175750506000910152565b60008151808452614add816020860160208601614a99565b601f017fffffffffffffffffffffffffffffffffffffffffffffffffffffffffffffffe0169290920160200192915050565b60208152600061178e6020830184614ac5565b803563ffffffff81168114614b3657600080fd5b919050565b60008083601f840112614b4d57600080fd5b50813567ffffffffffffffff811115614b6557600080fd5b602083019150836020828501011115614b7d57600080fd5b9250929050565b600080600060408486031215614b9957600080fd5b614ba284614b22565b9250602084013567ffffffffffffffff811115614bbe57600080fd5b614bca86828701614b3b565b9497909650939450505050565b73ffffffffffffffffffffffffffffffffffffffff8116811461196a57600080fd5b60008060408385031215614c0c57600080fd5b8235614c1781614bd7565b946020939093013593505050565b60008083601f840112614c3757600080fd5b50813567ffffffffffffffff811115614c4f57600080fd5b6020830191508360208260051b8501011115614b7d57600080fd5b60008060008060408587031215614c8057600080fd5b843567ffffffffffffffff80821115614c9857600080fd5b614ca488838901614c25565b90965094506020870135915080821115614cbd57600080fd5b50614cca87828801614c25565b95989497509550505050565b600060208284031215614ce857600080fd5b813561178e81614bd7565b600080600060608486031215614d0857600080fd5b8335614d1381614bd7565b92506020840135614d2381614bd7565b929592945050506040919091013590565b600060208284031215614d4657600080fd5b5035919050565b7f4e487b7100000000000000000000000000000000000000000000000000000000600052604160045260246000fd5b604051601f82017fffffffffffffffffffffffffffffffffffffffffffffffffffffffffffffffe016810167ffffffffffffffff81118282101715614dc357614dc3614d4d565b604052919050565b600067ffffffffffffffff821115614de557614de5614d4d565b50601f017fffffffffffffffffffffffffffffffffffffffffffffffffffffffffffffffe01660200190565b600082601f830112614e2257600080fd5b8135614e35614e3082614dcb565b614d7c565b818152846020838601011115614e4a57600080fd5b816020850160208301376000918101602001919091529392505050565b600060208284031215614e7957600080fd5b813567ffffffffffffffff811115614e9057600080fd5b6117b284828501614e11565b600080600080600060808688031215614eb457600080fd5b8535614ebf81614bd7565b94506020860135614ecf81614bd7565b935060408601359250606086013567ffffffffffffffff811115614ef257600080fd5b614efe88828901614b3b565b969995985093965092949392505050565b60008060008060608587031215614f2557600080fd5b614f2e85614b22565b93506020850135614f3e81614bd7565b9250604085013567ffffffffffffffff811115614f5a57600080fd5b614cca87828801614b3b565b7fffffffff00000000000000000000000000000000000000000000000000000000831681526040602082015260006117b26040830184614ac5565b60008060008060808587031215614fb757600080fd5b8435614fc281614bd7565b93506020850135614fd281614bd7565b925060408501359150606085013567ffffffffffffffff811115614ff557600080fd5b61500187828801614e11565b91505092959194509250565b60008060006040848603121561502257600080fd5b8335614ba281614bd7565b60ff8116811461196a57600080fd5b600080600080600080600060e0888a03121561505757600080fd5b873561506281614bd7565b9650602088013561507281614bd7565b9550604088013594506060880135935060808801356150908161502d565b9699959850939692959460a0840135945060c09093013592915050565b600080604083850312156150c057600080fd5b82356150cb81614bd7565b915060208301356150db81614bd7565b809150509250929050565b6000806000606084860312156150fb57600080fd5b833561510681614bd7565b925060208401359150604084013567ffffffffffffffff81111561512957600080fd5b61513586828701614e11565b9150509250925092565b7f4e487b7100000000000000000000000000000000000000000000000000000000600052602160045260246000fd5b60408101600584106151a9577f4e487b7100000000000000000000000000000000000000000000000000000000600052602160045260246000fd5b9281527fffffffff000000000000000000000000000000000000000000000000000000009190911660209091015290565b80518015158114614b3657600080fd5b6000602082840312156151fc57600080fd5b61178e826151da565b600181811c9082168061521957607f821691505b6020821081036145b5577f4e487b7100000000000000000000000000000000000000000000000000000000600052602260045260246000fd5b60006020828403121561526457600080fd5b815161178e81614bd7565b63ffffffff86168152600073ffffffffffffffffffffffffffffffffffffffff808716602084015280861660408401525083606083015260a060808301526152ba60a0830184614ac5565b979650505050505050565b7f4e487b7100000000000000000000000000000000000000000000000000000000600052603260045260246000fd5b7f4e487b7100000000000000000000000000000000000000000000000000000000600052601160045260246000fd5b60007fffffffffffffffffffffffffffffffffffffffffffffffffffffffffffffffff8203615354576153546152f4565b5060010190565b600082601f83011261536c57600080fd5b815161537a614e3082614dcb565b81815284602083860101111561538f57600080fd5b6117b2826020830160208701614a99565b8051614b368161502d565b600080600080600080600080610100898b0312156153c857600080fd5b885167ffffffffffffffff808211156153e057600080fd5b6153ec8c838d0161535b565b995060208b015191508082111561540257600080fd5b61540e8c838d0161535b565b985061541c60408c016153a0565b975060608b0151965060808b015191508082111561543957600080fd5b6154458c838d0161535b565b955060a08b015191508082111561545b57600080fd5b6154678c838d0161535b565b945061547560c08c016151da565b935060e08b015191508082111561548b57600080fd5b506154988b828c0161535b565b9150509295985092959890939650565b6000602082840312156154ba57600080fd5b815161178e81614a4e565b600073ffffffffffffffffffffffffffffffffffffffff8089168352808816602084015280871660408401525084606083015260a060808301528260a0830152828460c0840137600060c0848401015260c07fffffffffffffffffffffffffffffffffffffffffffffffffffffffffffffffe0601f8501168301019050979650505050505050565b60006020828403121561555f57600080fd5b5051919050565b60006020828403121561557857600080fd5b815167ffffffffffffffff81111561558f57600080fd5b6117b28482850161535b565b600073ffffffffffffffffffffffffffffffffffffffff8087168352808616602084015250836040830152608060608301526155da6080830184614ac5565b9695505050505050565b600082198211156155f7576155f76152f4565b500190565b60008282101561560e5761560e6152f4565b50039056fea164736f6c634300080d000a",
  "devdoc": {
    "author": "CXIP-Labs",
    "details": "The entire logic and functionality of the smart contract is self-contained.",
    "kind": "dev",
    "methods": {
      "DOMAIN_SEPARATOR()": {
        "details": "Returns the domain separator used in the encoding of the signature for {permit}, as defined by {EIP712}."
      },
      "constructor": {
        "details": "Constructor does not accept any parameters."
      },
      "holographBridgeMint(address,uint256)": {
        "details": "Allows the bridge to mint tokens (used for hTokens only)."
      },
      "init(bytes)": {
        "details": "Special function to allow a one time initialisation on deployment. Also configures and deploys royalties."
      },
      "nonces(address)": {
        "details": "Returns the current nonce for `account`. This value must be included whenever a signature is generated for {permit}. Every successful call to {permit} increases ``account``'s nonce by one. This prevents a signature from being used multiple times."
      },
      "sourceBurn(address,uint256)": {
        "details": "Allows for source smart contract to burn tokens."
      },
      "sourceMint(address,uint256)": {
        "details": "Allows for source smart contract to mint tokens."
      },
      "sourceMintBatch(address[],uint256[])": {
        "details": "Allows for source smart contract to mint a batch of token amounts."
      },
      "sourceTransfer(address,address,uint256)": {
        "details": "Allows for source smart contract to transfer tokens."
      },
      "supportsInterface(bytes4)": {
        "details": "Although EIP-165 is not required for ERC20 contracts, we still decided to implement it. This makes it easier for external smart contracts to easily identify a valid ERC20 token contract."
      }
    },
    "stateVariables": {
      "_allowances": {
        "details": "Mapping of all authorized operators, and capped amounts."
      },
      "_balances": {
        "details": "Mapping of all the addresse's balances."
      },
      "_decimals": {
        "details": "Token number of decimal places."
      },
      "_eventConfig": {
        "details": "Configuration for events to trigger for source smart contract."
      },
      "_name": {
        "details": "Token name."
      },
      "_nonces": {
        "details": "List of used up nonces. Used in the ERC20Permit interface functionality."
      },
      "_symbol": {
        "details": "Token ticker symbol."
      },
      "_totalSupply": {
        "details": "Total number of token in circulation."
      }
    },
    "title": "Holograph Bridgeable ERC-20 Token",
    "version": 1
  },
  "userdoc": {
    "kind": "user",
    "methods": {
      "init(bytes)": {
        "notice": "Initializes the collection."
      }
    },
    "notice": "A smart contract for minting and managing Holograph Bridgeable ERC20 Tokens.",
    "version": 1
  },
  "storageLayout": {
    "storage": [
      {
        "astId": 11372,
        "contract": "contracts/HolographERC20.sol:HolographERC20",
        "label": "_CACHED_DOMAIN_SEPARATOR",
        "offset": 0,
        "slot": "0",
        "type": "t_bytes32"
      },
      {
        "astId": 11374,
        "contract": "contracts/HolographERC20.sol:HolographERC20",
        "label": "_CACHED_CHAIN_ID",
        "offset": 0,
        "slot": "1",
        "type": "t_uint256"
      },
      {
        "astId": 11376,
        "contract": "contracts/HolographERC20.sol:HolographERC20",
        "label": "_CACHED_THIS",
        "offset": 0,
        "slot": "2",
        "type": "t_address"
      },
      {
        "astId": 11378,
        "contract": "contracts/HolographERC20.sol:HolographERC20",
        "label": "_HASHED_NAME",
        "offset": 0,
        "slot": "3",
        "type": "t_bytes32"
      },
      {
        "astId": 11380,
        "contract": "contracts/HolographERC20.sol:HolographERC20",
        "label": "_HASHED_VERSION",
        "offset": 0,
        "slot": "4",
        "type": "t_bytes32"
      },
      {
        "astId": 11382,
        "contract": "contracts/HolographERC20.sol:HolographERC20",
        "label": "_TYPE_HASH",
        "offset": 0,
        "slot": "5",
        "type": "t_bytes32"
      },
      {
        "astId": 838,
        "contract": "contracts/HolographERC20.sol:HolographERC20",
        "label": "_eventConfig",
        "offset": 0,
        "slot": "6",
        "type": "t_uint256"
      },
      {
        "astId": 843,
        "contract": "contracts/HolographERC20.sol:HolographERC20",
        "label": "_balances",
        "offset": 0,
        "slot": "7",
        "type": "t_mapping(t_address,t_uint256)"
      },
      {
        "astId": 850,
        "contract": "contracts/HolographERC20.sol:HolographERC20",
        "label": "_allowances",
        "offset": 0,
        "slot": "8",
        "type": "t_mapping(t_address,t_mapping(t_address,t_uint256))"
      },
      {
        "astId": 853,
        "contract": "contracts/HolographERC20.sol:HolographERC20",
        "label": "_totalSupply",
        "offset": 0,
        "slot": "9",
        "type": "t_uint256"
      },
      {
        "astId": 856,
        "contract": "contracts/HolographERC20.sol:HolographERC20",
        "label": "_name",
        "offset": 0,
        "slot": "10",
        "type": "t_string_storage"
      },
      {
        "astId": 859,
        "contract": "contracts/HolographERC20.sol:HolographERC20",
        "label": "_symbol",
        "offset": 0,
        "slot": "11",
        "type": "t_string_storage"
      },
      {
        "astId": 862,
        "contract": "contracts/HolographERC20.sol:HolographERC20",
        "label": "_decimals",
        "offset": 0,
        "slot": "12",
        "type": "t_uint8"
      },
      {
        "astId": 868,
        "contract": "contracts/HolographERC20.sol:HolographERC20",
        "label": "_nonces",
        "offset": 0,
        "slot": "13",
        "type": "t_mapping(t_address,t_struct(Counter)15866_storage)"
      }
    ],
    "types": {
      "t_address": {
        "encoding": "inplace",
        "label": "address",
        "numberOfBytes": "20"
      },
      "t_bytes32": {
        "encoding": "inplace",
        "label": "bytes32",
        "numberOfBytes": "32"
      },
      "t_mapping(t_address,t_mapping(t_address,t_uint256))": {
        "encoding": "mapping",
        "key": "t_address",
        "label": "mapping(address => mapping(address => uint256))",
        "numberOfBytes": "32",
        "value": "t_mapping(t_address,t_uint256)"
      },
      "t_mapping(t_address,t_struct(Counter)15866_storage)": {
        "encoding": "mapping",
        "key": "t_address",
        "label": "mapping(address => struct Counters.Counter)",
        "numberOfBytes": "32",
        "value": "t_struct(Counter)15866_storage"
      },
      "t_mapping(t_address,t_uint256)": {
        "encoding": "mapping",
        "key": "t_address",
        "label": "mapping(address => uint256)",
        "numberOfBytes": "32",
        "value": "t_uint256"
      },
      "t_string_storage": {
        "encoding": "bytes",
        "label": "string",
        "numberOfBytes": "32"
      },
      "t_struct(Counter)15866_storage": {
        "encoding": "inplace",
        "label": "struct Counters.Counter",
        "members": [
          {
            "astId": 15865,
            "contract": "contracts/HolographERC20.sol:HolographERC20",
            "label": "_value",
            "offset": 0,
            "slot": "0",
            "type": "t_uint256"
          }
        ],
        "numberOfBytes": "32"
      },
      "t_uint256": {
        "encoding": "inplace",
        "label": "uint256",
        "numberOfBytes": "32"
      },
      "t_uint8": {
        "encoding": "inplace",
        "label": "uint8",
        "numberOfBytes": "1"
      }
    }
  }
}