{
  "address": "0x2Ff705ca4F554Dbe36395e4f24F96B45d9E6868E",
  "abi": [
    {
      "inputs": [],
      "stateMutability": "nonpayable",
      "type": "constructor"
    },
    {
      "inputs": [],
      "name": "admin",
      "outputs": [
        {
          "internalType": "address",
          "name": "",
          "type": "address"
        }
      ],
      "stateMutability": "view",
      "type": "function"
    },
    {
      "inputs": [
        {
          "internalType": "address",
          "name": "target",
          "type": "address"
        },
        {
          "internalType": "bytes",
          "name": "data",
          "type": "bytes"
        }
      ],
      "name": "adminCall",
      "outputs": [],
      "stateMutability": "payable",
      "type": "function"
    },
    {
      "inputs": [
        {
          "internalType": "uint256",
          "name": "",
          "type": "uint256"
        },
        {
          "internalType": "uint32",
          "name": "fromChain",
          "type": "uint32"
        },
        {
          "internalType": "address",
          "name": "holographableContract",
          "type": "address"
        },
        {
          "internalType": "address",
          "name": "hToken",
          "type": "address"
        },
        {
          "internalType": "address",
          "name": "hTokenRecipient",
          "type": "address"
        },
        {
          "internalType": "uint256",
          "name": "hTokenValue",
          "type": "uint256"
        },
        {
          "internalType": "bytes",
          "name": "data",
          "type": "bytes"
        }
      ],
      "name": "bridgeInRequest",
      "outputs": [],
      "stateMutability": "nonpayable",
      "type": "function"
    },
    {
      "inputs": [
        {
          "internalType": "uint32",
          "name": "toChain",
          "type": "uint32"
        },
        {
          "internalType": "address",
          "name": "holographableContract",
          "type": "address"
        },
        {
          "internalType": "uint256",
          "name": "gasLimit",
          "type": "uint256"
        },
        {
          "internalType": "uint256",
          "name": "gasPrice",
          "type": "uint256"
        },
        {
          "internalType": "bytes",
          "name": "data",
          "type": "bytes"
        }
      ],
      "name": "bridgeOutRequest",
      "outputs": [],
      "stateMutability": "payable",
      "type": "function"
    },
    {
      "inputs": [],
      "name": "getAdmin",
      "outputs": [
        {
          "internalType": "address",
          "name": "adminAddress",
          "type": "address"
        }
      ],
      "stateMutability": "view",
      "type": "function"
    },
    {
      "inputs": [
        {
          "internalType": "uint32",
          "name": "toChain",
          "type": "uint32"
        },
        {
          "internalType": "address",
          "name": "holographableContract",
          "type": "address"
        },
        {
          "internalType": "bytes",
          "name": "data",
          "type": "bytes"
        }
      ],
      "name": "getBridgeOutRequestPayload",
      "outputs": [
        {
          "internalType": "bytes",
          "name": "samplePayload",
          "type": "bytes"
        }
      ],
      "stateMutability": "view",
      "type": "function"
    },
    {
      "inputs": [],
      "name": "getFactory",
      "outputs": [
        {
          "internalType": "address",
          "name": "factory",
          "type": "address"
        }
      ],
      "stateMutability": "view",
      "type": "function"
    },
    {
      "inputs": [],
      "name": "getHolograph",
      "outputs": [
        {
          "internalType": "address",
          "name": "holograph",
          "type": "address"
        }
      ],
      "stateMutability": "view",
      "type": "function"
    },
    {
      "inputs": [],
      "name": "getInterfaces",
      "outputs": [
        {
          "internalType": "address",
          "name": "interfaces",
          "type": "address"
        }
      ],
      "stateMutability": "view",
      "type": "function"
    },
    {
      "inputs": [],
      "name": "getJobNonce",
      "outputs": [
        {
          "internalType": "uint256",
          "name": "jobNonce",
          "type": "uint256"
        }
      ],
      "stateMutability": "view",
      "type": "function"
    },
    {
      "inputs": [],
      "name": "getOperator",
      "outputs": [
        {
          "internalType": "address",
          "name": "operator",
          "type": "address"
        }
      ],
      "stateMutability": "view",
      "type": "function"
    },
    {
      "inputs": [],
      "name": "getRegistry",
      "outputs": [
        {
          "internalType": "address",
          "name": "registry",
          "type": "address"
        }
      ],
      "stateMutability": "view",
      "type": "function"
    },
    {
      "inputs": [
        {
          "internalType": "bytes",
          "name": "data",
          "type": "bytes"
        }
      ],
      "name": "init",
      "outputs": [
        {
          "internalType": "bytes4",
          "name": "",
          "type": "bytes4"
        }
      ],
      "stateMutability": "nonpayable",
      "type": "function"
    },
    {
      "inputs": [
        {
          "internalType": "address",
          "name": "adminAddress",
          "type": "address"
        }
      ],
      "name": "setAdmin",
      "outputs": [],
      "stateMutability": "nonpayable",
      "type": "function"
    },
    {
      "inputs": [
        {
          "internalType": "address",
          "name": "factory",
          "type": "address"
        }
      ],
      "name": "setFactory",
      "outputs": [],
      "stateMutability": "nonpayable",
      "type": "function"
    },
    {
      "inputs": [
        {
          "internalType": "address",
          "name": "holograph",
          "type": "address"
        }
      ],
      "name": "setHolograph",
      "outputs": [],
      "stateMutability": "nonpayable",
      "type": "function"
    },
    {
      "inputs": [
        {
          "internalType": "address",
          "name": "interfaces",
          "type": "address"
        }
      ],
      "name": "setInterfaces",
      "outputs": [],
      "stateMutability": "nonpayable",
      "type": "function"
    },
    {
      "inputs": [
        {
          "internalType": "address",
          "name": "operator",
          "type": "address"
        }
      ],
      "name": "setOperator",
      "outputs": [],
      "stateMutability": "nonpayable",
      "type": "function"
    },
    {
      "inputs": [
        {
          "internalType": "address",
          "name": "registry",
          "type": "address"
        }
      ],
      "name": "setRegistry",
      "outputs": [],
      "stateMutability": "nonpayable",
      "type": "function"
    }
  ],
  "transactionHash": "0x8141011ffa406715c9e2a853491b2def58bec61dda3fc92adc6aaafe839759a3",
  "args": [],
  "numDeployments": 1,
  "solcInputHash": "0b5e3a4fef7397ea053a407f08962d01",
  "bytecode": "0x608060405234801561001057600080fd5b5061264d806100206000396000f3fe6080604052600436106101445760003560e01c8063a91ee0dc116100c0578063da8292d911610074578063e7f43c6811610059578063e7f43c6814610402578063ebac15f914610436578063f851a4401461046a57600080fd5b8063da8292d9146103cf578063e5585666146103ef57600080fd5b8063bf64a82d116100a5578063bf64a82d1461036f578063ceacdd8714610382578063d51a7ab5146103af57600080fd5b8063a91ee0dc1461032f578063b3ab15fb1461034f57600080fd5b80635bb47808116101175780636e9960c3116100fc5780636e9960c3146102a7578063704b6c02146102db57806388cc58e4146102fb57600080fd5b80635bb478081461024a5780636200d9fc1461026a57600080fd5b806325d5cac8146101495780634827ae0c1461016b5780634ddf47d4146101c55780635ab1bd5314610216575b600080fd5b34801561015557600080fd5b50610169610164366004611e79565b61047f565b005b34801561017757600080fd5b507fb4107f746e9496e8452accc7de63d1c5e14c19f510932daa04077cd49e8bd77a545b60405173ffffffffffffffffffffffffffffffffffffffff90911681526020015b60405180910390f35b3480156101d157600080fd5b506101e56101e0366004611f61565b61055e565b6040517fffffffff0000000000000000000000000000000000000000000000000000000090911681526020016101bc565b34801561022257600080fd5b507fce8e75d5c5227ce29a4ee170160bb296e5dea6934b80a9bd723f7ef1e7c850e75461019b565b34801561025657600080fd5b50610169610265366004611e79565b61073c565b34801561027657600080fd5b507f1cda64803f3b43503042e00863791e8d996666552d5855a78d53ee1dd4b3286d546040519081526020016101bc565b3480156102b357600080fd5b507f3f106594dc74eeef980dae234cde8324dc2497b13d27a0c59e55bd2ca10a07c95461019b565b3480156102e757600080fd5b506101696102f6366004611e79565b610816565b34801561030757600080fd5b507fa49f20855ba576e09d13c8041c8039fa655356ea27f6c40f1ec46a4301cd5b235461019b565b34801561033b57600080fd5b5061016961034a366004611e79565b6108f0565b34801561035b57600080fd5b5061016961036a366004611e79565b6109ca565b61016961037d36600461202a565b610aa4565b34801561038e57600080fd5b506103a261039d366004612091565b610b7f565b6040516101bc9190612170565b3480156103bb57600080fd5b506101696103ca366004612183565b611256565b3480156103db57600080fd5b506101696103ea366004611e79565b611703565b6101696103fd366004612224565b6117dd565b34801561040e57600080fd5b507f7caba557ad34138fa3b7e43fb574e0e6cc10481c3073e0dffbc560db81b5c60f5461019b565b34801561044257600080fd5b507fbd3084b8c09da87ad159c247a60e209784196be2530cecbbd8f337fdd18488275461019b565b34801561047657600080fd5b5061019b611e25565b7f3f106594dc74eeef980dae234cde8324dc2497b13d27a0c59e55bd2ca10a07c95473ffffffffffffffffffffffffffffffffffffffff163373ffffffffffffffffffffffffffffffffffffffff161461053a576040517f08c379a000000000000000000000000000000000000000000000000000000000815260206004820152601e60248201527f484f4c4f47524150483a2061646d696e206f6e6c792066756e6374696f6e000060448201526064015b60405180910390fd5b7fb4107f746e9496e8452accc7de63d1c5e14c19f510932daa04077cd49e8bd77a55565b60006105887f4e5f991bca30eca2d4643aaefa807e88f96a4a97398933d572a3c0d973004a015490565b156105ef576040517f08c379a000000000000000000000000000000000000000000000000000000000815260206004820152601e60248201527f484f4c4f47524150483a20616c726561647920696e697469616c697a656400006044820152606401610531565b60008060008060008680602001905181019061060b91906122a0565b94509450945094509450327f3f106594dc74eeef980dae234cde8324dc2497b13d27a0c59e55bd2ca10a07c955847fa49f20855ba576e09d13c8041c8039fa655356ea27f6c40f1ec46a4301cd5b2355837fb4107f746e9496e8452accc7de63d1c5e14c19f510932daa04077cd49e8bd77a55827fbd3084b8c09da87ad159c247a60e209784196be2530cecbbd8f337fdd184882755817f7caba557ad34138fa3b7e43fb574e0e6cc10481c3073e0dffbc560db81b5c60f55807fce8e75d5c5227ce29a4ee170160bb296e5dea6934b80a9bd723f7ef1e7c850e75561071060017f4e5f991bca30eca2d4643aaefa807e88f96a4a97398933d572a3c0d973004a0155565b507f4ddf47d4000000000000000000000000000000000000000000000000000000009695505050505050565b7f3f106594dc74eeef980dae234cde8324dc2497b13d27a0c59e55bd2ca10a07c95473ffffffffffffffffffffffffffffffffffffffff163373ffffffffffffffffffffffffffffffffffffffff16146107f2576040517f08c379a000000000000000000000000000000000000000000000000000000000815260206004820152601e60248201527f484f4c4f47524150483a2061646d696e206f6e6c792066756e6374696f6e00006044820152606401610531565b7fa49f20855ba576e09d13c8041c8039fa655356ea27f6c40f1ec46a4301cd5b2355565b7f3f106594dc74eeef980dae234cde8324dc2497b13d27a0c59e55bd2ca10a07c95473ffffffffffffffffffffffffffffffffffffffff163373ffffffffffffffffffffffffffffffffffffffff16146108cc576040517f08c379a000000000000000000000000000000000000000000000000000000000815260206004820152601e60248201527f484f4c4f47524150483a2061646d696e206f6e6c792066756e6374696f6e00006044820152606401610531565b7f3f106594dc74eeef980dae234cde8324dc2497b13d27a0c59e55bd2ca10a07c955565b7f3f106594dc74eeef980dae234cde8324dc2497b13d27a0c59e55bd2ca10a07c95473ffffffffffffffffffffffffffffffffffffffff163373ffffffffffffffffffffffffffffffffffffffff16146109a6576040517f08c379a000000000000000000000000000000000000000000000000000000000815260206004820152601e60248201527f484f4c4f47524150483a2061646d696e206f6e6c792066756e6374696f6e00006044820152606401610531565b7fce8e75d5c5227ce29a4ee170160bb296e5dea6934b80a9bd723f7ef1e7c850e755565b7f3f106594dc74eeef980dae234cde8324dc2497b13d27a0c59e55bd2ca10a07c95473ffffffffffffffffffffffffffffffffffffffff163373ffffffffffffffffffffffffffffffffffffffff1614610a80576040517f08c379a000000000000000000000000000000000000000000000000000000000815260206004820152601e60248201527f484f4c4f47524150483a2061646d696e206f6e6c792066756e6374696f6e00006044820152606401610531565b7f7caba557ad34138fa3b7e43fb574e0e6cc10481c3073e0dffbc560db81b5c60f55565b7f3f106594dc74eeef980dae234cde8324dc2497b13d27a0c59e55bd2ca10a07c95473ffffffffffffffffffffffffffffffffffffffff163373ffffffffffffffffffffffffffffffffffffffff1614610b5a576040517f08c379a000000000000000000000000000000000000000000000000000000000815260206004820152601e60248201527f484f4c4f47524150483a2061646d696e206f6e6c792066756e6374696f6e00006044820152606401610531565b808260003760008082600034875af13d6000803e808015610b7a573d6000f35b3d6000fd5b6060610ba97fce8e75d5c5227ce29a4ee170160bb296e5dea6934b80a9bd723f7ef1e7c850e75490565b6040517f44b25fff00000000000000000000000000000000000000000000000000000000815273ffffffffffffffffffffffffffffffffffffffff868116600483015291909116906344b25fff90602401602060405180830381865afa158015610c17573d6000803e3d6000fd5b505050506040513d601f19601f82011682018060405250810190610c3b9190612315565b80610c9857508373ffffffffffffffffffffffffffffffffffffffff16610c807fa49f20855ba576e09d13c8041c8039fa655356ea27f6c40f1ec46a4301cd5b235490565b73ffffffffffffffffffffffffffffffffffffffff16145b610cfe576040517f08c379a000000000000000000000000000000000000000000000000000000000815260206004820152601a60248201527f484f4c4f47524150483a206e6f7420686f6c6f677261706865640000000000006044820152606401610531565b6000808573ffffffffffffffffffffffffffffffffffffffff1663b7e0366160e01b88338888604051602401610d379493929190612380565b604080517fffffffffffffffffffffffffffffffffffffffffffffffffffffffffffffffe08184030181529181526020820180517bffffffffffffffffffffffffffffffffffffffffffffffffffffffff167fffffffff00000000000000000000000000000000000000000000000000000000909416939093179092529051610dc091906123c6565b600060405180830381855afa9150503d8060008114610dfb576040519150601f19603f3d011682016040523d82523d6000602084013e610e00565b606091505b509150915081610e6c576040517f08c379a000000000000000000000000000000000000000000000000000000000815260206004820152601c60248201527f484f4c4f47524150483a20627269646765206f7574206661696c6564000000006044820152606401610531565b60008082806020019051810190610e839190612417565b7f1cda64803f3b43503042e00863791e8d996666552d5855a78d53ee1dd4b3286d5491935091507fffffffff0000000000000000000000000000000000000000000000000000000083167fb7e036610000000000000000000000000000000000000000000000000000000014610f55576040517f08c379a000000000000000000000000000000000000000000000000000000000815260206004820152601c60248201527f484f4c4f47524150483a20627269646765206f7574206661696c6564000000006044820152606401610531565b60007f08a1eb2000000000000000000000000000000000000000000000000000000000610f838360016124a1565b7fb4107f746e9496e8452accc7de63d1c5e14c19f510932daa04077cd49e8bd77a5473ffffffffffffffffffffffffffffffffffffffff166397e67c3b6040518163ffffffff1660e01b8152600401602060405180830381865afa158015610fef573d6000803e3d6000fd5b505050506040513d601f19601f8201168201806040525081019061101391906124e0565b8c61103c7fce8e75d5c5227ce29a4ee170160bb296e5dea6934b80a9bd723f7ef1e7c850e75490565b73ffffffffffffffffffffffffffffffffffffffff1663949d53a761107f7fb4107f746e9496e8452accc7de63d1c5e14c19f510932daa04077cd49e8bd77a5490565b73ffffffffffffffffffffffffffffffffffffffff166397e67c3b6040518163ffffffff1660e01b8152600401602060405180830381865afa1580156110c9573d6000803e3d6000fd5b505050506040513d601f19601f820116820180604052508101906110ed91906124e0565b6040517fffffffff0000000000000000000000000000000000000000000000000000000060e084901b16815263ffffffff919091166004820152602401602060405180830381865afa158015611147573d6000803e3d6000fd5b505050506040513d601f19601f8201168201806040525081019061116b91906124fd565b60008089604051602401611185979695949392919061251a565b604080517fffffffffffffffffffffffffffffffffffffffffffffffffffffffffffffffe0818403018152918152602080830180517bffffffffffffffffffffffffffffffffffffffffffffffffffffffff167fffffffff0000000000000000000000000000000000000000000000000000000090951694909417909352519092506112379183917fffffffffffffffffffffffffffffffffffffffffffffffffffffffffffffffff91829101612583565b6040516020818303038152906040529650505050505050949350505050565b7f7caba557ad34138fa3b7e43fb574e0e6cc10481c3073e0dffbc560db81b5c60f5473ffffffffffffffffffffffffffffffffffffffff163373ffffffffffffffffffffffffffffffffffffffff161461130c576040517f08c379a000000000000000000000000000000000000000000000000000000000815260206004820152601d60248201527f484f4c4f47524150483a206f70657261746f72206f6e6c792063616c6c0000006044820152606401610531565b7fce8e75d5c5227ce29a4ee170160bb296e5dea6934b80a9bd723f7ef1e7c850e7546040517f44b25fff00000000000000000000000000000000000000000000000000000000815273ffffffffffffffffffffffffffffffffffffffff888116600483015291909116906344b25fff90602401602060405180830381865afa15801561139c573d6000803e3d6000fd5b505050506040513d601f19601f820116820180604052508101906113c09190612315565b8061141d57508573ffffffffffffffffffffffffffffffffffffffff166114057fa49f20855ba576e09d13c8041c8039fa655356ea27f6c40f1ec46a4301cd5b235490565b73ffffffffffffffffffffffffffffffffffffffff16145b611483576040517f08c379a000000000000000000000000000000000000000000000000000000000815260206004820152601a60248201527f484f4c4f47524150483a206e6f7420686f6c6f677261706865640000000000006044820152606401610531565b6040517f08a1eb2000000000000000000000000000000000000000000000000000000000815260009073ffffffffffffffffffffffffffffffffffffffff8816906308a1eb20906114dc908b90879087906004016125aa565b6020604051808303816000875af11580156114fb573d6000803e3d6000fd5b505050506040513d601f19601f8201168201806040525081019061151f91906125d3565b90507fffffffff0000000000000000000000000000000000000000000000000000000081167f08a1eb2000000000000000000000000000000000000000000000000000000000146115cc576040517f08c379a000000000000000000000000000000000000000000000000000000000815260206004820152601b60248201527f484f4c4f47524150483a2062726964676520696e206661696c656400000000006044820152606401610531565b83156116f8576040517ffad66f920000000000000000000000000000000000000000000000000000000080825273ffffffffffffffffffffffffffffffffffffffff87811660048401526024830187905290919088169063fad66f92906044016020604051808303816000875af115801561164b573d6000803e3d6000fd5b505050506040513d601f19601f8201168201806040525081019061166f91906125d3565b7fffffffff0000000000000000000000000000000000000000000000000000000016146116f8576040517f08c379a000000000000000000000000000000000000000000000000000000000815260206004820152601d60248201527f484f4c4f47524150483a2068546f6b656e206d696e74206661696c65640000006044820152606401610531565b505050505050505050565b7f3f106594dc74eeef980dae234cde8324dc2497b13d27a0c59e55bd2ca10a07c95473ffffffffffffffffffffffffffffffffffffffff163373ffffffffffffffffffffffffffffffffffffffff16146117b9576040517f08c379a000000000000000000000000000000000000000000000000000000000815260206004820152601e60248201527f484f4c4f47524150483a2061646d696e206f6e6c792066756e6374696f6e00006044820152606401610531565b7fbd3084b8c09da87ad159c247a60e209784196be2530cecbbd8f337fdd184882755565b7fce8e75d5c5227ce29a4ee170160bb296e5dea6934b80a9bd723f7ef1e7c850e7546040517f44b25fff00000000000000000000000000000000000000000000000000000000815273ffffffffffffffffffffffffffffffffffffffff878116600483015291909116906344b25fff90602401602060405180830381865afa15801561186d573d6000803e3d6000fd5b505050506040513d601f19601f820116820180604052508101906118919190612315565b806118ee57508473ffffffffffffffffffffffffffffffffffffffff166118d67fa49f20855ba576e09d13c8041c8039fa655356ea27f6c40f1ec46a4301cd5b235490565b73ffffffffffffffffffffffffffffffffffffffff16145b611954576040517f08c379a000000000000000000000000000000000000000000000000000000000815260206004820152601a60248201527f484f4c4f47524150483a206e6f7420686f6c6f677261706865640000000000006044820152606401610531565b6000808673ffffffffffffffffffffffffffffffffffffffff1663b7e03661893387876040518563ffffffff1660e01b81526004016119969493929190612380565b6000604051808303816000875af11580156119b5573d6000803e3d6000fd5b505050506040513d6000823e601f3d9081017fffffffffffffffffffffffffffffffffffffffffffffffffffffffffffffffe01682016040526119fb9190810190612417565b90925090507fffffffff0000000000000000000000000000000000000000000000000000000082167fb7e036610000000000000000000000000000000000000000000000000000000014611aab576040517f08c379a000000000000000000000000000000000000000000000000000000000815260206004820152601c60248201527f484f4c4f47524150483a20627269646765206f7574206661696c6564000000006044820152606401610531565b60007f08a1eb2000000000000000000000000000000000000000000000000000000000611afe7f1cda64803f3b43503042e00863791e8d996666552d5855a78d53ee1dd4b3286d80546001019081905590565b7fb4107f746e9496e8452accc7de63d1c5e14c19f510932daa04077cd49e8bd77a5473ffffffffffffffffffffffffffffffffffffffff166397e67c3b6040518163ffffffff1660e01b8152600401602060405180830381865afa158015611b6a573d6000803e3d6000fd5b505050506040513d601f19601f82011682018060405250810190611b8e91906124e0565b8a611bb77fce8e75d5c5227ce29a4ee170160bb296e5dea6934b80a9bd723f7ef1e7c850e75490565b73ffffffffffffffffffffffffffffffffffffffff1663949d53a7611bfa7fb4107f746e9496e8452accc7de63d1c5e14c19f510932daa04077cd49e8bd77a5490565b73ffffffffffffffffffffffffffffffffffffffff166397e67c3b6040518163ffffffff1660e01b8152600401602060405180830381865afa158015611c44573d6000803e3d6000fd5b505050506040513d601f19601f82011682018060405250810190611c6891906124e0565b6040517fffffffff0000000000000000000000000000000000000000000000000000000060e084901b16815263ffffffff919091166004820152602401602060405180830381865afa158015611cc2573d6000803e3d6000fd5b505050506040513d601f19601f82011682018060405250810190611ce691906124fd565b60008088604051602401611d00979695949392919061251a565b604080517fffffffffffffffffffffffffffffffffffffffffffffffffffffffffffffffe08184030181529190526020810180517bffffffffffffffffffffffffffffffffffffffffffffffffffffffff167fffffffff00000000000000000000000000000000000000000000000000000000909316929092179091529050611da77f7caba557ad34138fa3b7e43fb574e0e6cc10481c3073e0dffbc560db81b5c60f5490565b73ffffffffffffffffffffffffffffffffffffffff1663da9b26e63489898d33876040518763ffffffff1660e01b8152600401611de89594939291906125ee565b6000604051808303818588803b158015611e0157600080fd5b505af1158015611e15573d6000803e3d6000fd5b5050505050505050505050505050565b6000611e4f7f3f106594dc74eeef980dae234cde8324dc2497b13d27a0c59e55bd2ca10a07c95490565b905090565b73ffffffffffffffffffffffffffffffffffffffff81168114611e7657600080fd5b50565b600060208284031215611e8b57600080fd5b8135611e9681611e54565b9392505050565b7f4e487b7100000000000000000000000000000000000000000000000000000000600052604160045260246000fd5b604051601f82017fffffffffffffffffffffffffffffffffffffffffffffffffffffffffffffffe016810167ffffffffffffffff81118282101715611f1357611f13611e9d565b604052919050565b600067ffffffffffffffff821115611f3557611f35611e9d565b50601f017fffffffffffffffffffffffffffffffffffffffffffffffffffffffffffffffe01660200190565b600060208284031215611f7357600080fd5b813567ffffffffffffffff811115611f8a57600080fd5b8201601f81018413611f9b57600080fd5b8035611fae611fa982611f1b565b611ecc565b818152856020838501011115611fc357600080fd5b81602084016020830137600091810160200191909152949350505050565b60008083601f840112611ff357600080fd5b50813567ffffffffffffffff81111561200b57600080fd5b60208301915083602082850101111561202357600080fd5b9250929050565b60008060006040848603121561203f57600080fd5b833561204a81611e54565b9250602084013567ffffffffffffffff81111561206657600080fd5b61207286828701611fe1565b9497909650939450505050565b63ffffffff81168114611e7657600080fd5b600080600080606085870312156120a757600080fd5b84356120b28161207f565b935060208501356120c281611e54565b9250604085013567ffffffffffffffff8111156120de57600080fd5b6120ea87828801611fe1565b95989497509550505050565b60005b838110156121115781810151838201526020016120f9565b83811115612120576000848401525b50505050565b6000815180845261213e8160208601602086016120f6565b601f017fffffffffffffffffffffffffffffffffffffffffffffffffffffffffffffffe0169290920160200192915050565b602081526000611e966020830184612126565b60008060008060008060008060e0898b03121561219f57600080fd5b8835975060208901356121b18161207f565b965060408901356121c181611e54565b955060608901356121d181611e54565b945060808901356121e181611e54565b935060a0890135925060c089013567ffffffffffffffff81111561220457600080fd5b6122108b828c01611fe1565b999c989b5096995094979396929594505050565b60008060008060008060a0878903121561223d57600080fd5b86356122488161207f565b9550602087013561225881611e54565b94506040870135935060608701359250608087013567ffffffffffffffff81111561228257600080fd5b61228e89828a01611fe1565b979a9699509497509295939492505050565b600080600080600060a086880312156122b857600080fd5b85516122c381611e54565b60208701519095506122d481611e54565b60408701519094506122e581611e54565b60608701519093506122f681611e54565b608087015190925061230781611e54565b809150509295509295909350565b60006020828403121561232757600080fd5b81518015158114611e9657600080fd5b8183528181602085013750600060208284010152600060207fffffffffffffffffffffffffffffffffffffffffffffffffffffffffffffffe0601f840116840101905092915050565b63ffffffff8516815273ffffffffffffffffffffffffffffffffffffffff841660208201526060604082015260006123bc606083018486612337565b9695505050505050565b600082516123d88184602087016120f6565b9190910192915050565b80517fffffffff000000000000000000000000000000000000000000000000000000008116811461241257600080fd5b919050565b6000806040838503121561242a57600080fd5b612433836123e2565b9150602083015167ffffffffffffffff81111561244f57600080fd5b8301601f8101851361246057600080fd5b805161246e611fa982611f1b565b81815286602083850101111561248357600080fd5b6124948260208301602086016120f6565b8093505050509250929050565b600082198211156124db577f4e487b7100000000000000000000000000000000000000000000000000000000600052601160045260246000fd5b500190565b6000602082840312156124f257600080fd5b8151611e968161207f565b60006020828403121561250f57600080fd5b8151611e9681611e54565b87815263ffffffff87166020820152600073ffffffffffffffffffffffffffffffffffffffff8088166040840152808716606084015280861660808401525060ff841660a083015260e060c083015261257660e0830184612126565b9998505050505050505050565b600084516125958184602089016120f6565b91909101928352506020820152604001919050565b63ffffffff841681526040602082015260006125ca604083018486612337565b95945050505050565b6000602082840312156125e557600080fd5b611e96826123e2565b85815284602082015263ffffffff8416604082015273ffffffffffffffffffffffffffffffffffffffff8316606082015260a06080820152600061263560a0830184612126565b97965050505050505056fea164736f6c634300080d000a",
  "devdoc": {
    "details": "This smart contract contains the actual core bridging logic.",
    "kind": "dev",
    "methods": {
      "constructor": {
        "details": "Constructor is left empty and only the admin address is set."
      }
    },
    "version": 1
  },
  "userdoc": {
    "kind": "user",
    "methods": {},
    "version": 1
  },
  "storageLayout": {
    "storage": [],
    "types": null
  }
}