{
  "address": "0x5C689340871784526d41F83c39Ff9ab1571173a7",
  "abi": [
    {
      "inputs": [],
      "stateMutability": "nonpayable",
      "type": "constructor"
    },
    {
      "anonymous": false,
      "inputs": [
        {
          "indexed": false,
          "internalType": "bytes32",
          "name": "jobHash",
          "type": "bytes32"
        },
        {
          "indexed": false,
          "internalType": "bytes",
          "name": "payload",
          "type": "bytes"
        }
      ],
      "name": "AvailableOperatorJob",
      "type": "event"
    },
    {
      "inputs": [],
      "name": "admin",
      "outputs": [
        {
          "internalType": "address",
          "name": "",
          "type": "address"
        }
      ],
      "stateMutability": "view",
      "type": "function"
    },
    {
      "inputs": [
        {
          "internalType": "address",
          "name": "target",
          "type": "address"
        },
        {
          "internalType": "bytes",
          "name": "data",
          "type": "bytes"
        }
      ],
      "name": "adminCall",
      "outputs": [],
      "stateMutability": "payable",
      "type": "function"
    },
    {
      "inputs": [
        {
          "internalType": "address",
          "name": "operator",
          "type": "address"
        },
        {
          "internalType": "uint256",
          "name": "amount",
          "type": "uint256"
        },
        {
          "internalType": "uint256",
          "name": "pod",
          "type": "uint256"
        }
      ],
      "name": "bondUtilityToken",
      "outputs": [],
      "stateMutability": "nonpayable",
      "type": "function"
    },
    {
      "inputs": [
        {
          "internalType": "bytes",
          "name": "_payload",
          "type": "bytes"
        }
      ],
      "name": "executeJob",
      "outputs": [],
      "stateMutability": "payable",
      "type": "function"
    },
    {
      "inputs": [],
      "name": "getAdmin",
      "outputs": [
        {
          "internalType": "address",
          "name": "adminAddress",
          "type": "address"
        }
      ],
      "stateMutability": "view",
      "type": "function"
    },
    {
      "inputs": [
        {
          "internalType": "address",
          "name": "operator",
          "type": "address"
        }
      ],
      "name": "getBondedPod",
      "outputs": [
        {
          "internalType": "uint256",
          "name": "pod",
          "type": "uint256"
        }
      ],
      "stateMutability": "view",
      "type": "function"
    },
    {
      "inputs": [],
      "name": "getBridge",
      "outputs": [
        {
          "internalType": "address",
          "name": "bridge",
          "type": "address"
        }
      ],
      "stateMutability": "view",
      "type": "function"
    },
    {
      "inputs": [],
      "name": "getHolograph",
      "outputs": [
        {
          "internalType": "address",
          "name": "holograph",
          "type": "address"
        }
      ],
      "stateMutability": "view",
      "type": "function"
    },
    {
      "inputs": [],
      "name": "getInterfaces",
      "outputs": [
        {
          "internalType": "address",
          "name": "interfaces",
          "type": "address"
        }
      ],
      "stateMutability": "view",
      "type": "function"
    },
    {
      "inputs": [
        {
          "internalType": "bytes32",
          "name": "jobHash",
          "type": "bytes32"
        }
      ],
      "name": "getJobDetails",
      "outputs": [
        {
          "components": [
            {
              "internalType": "uint8",
              "name": "pod",
              "type": "uint8"
            },
            {
              "internalType": "uint16",
              "name": "blockTimes",
              "type": "uint16"
            },
            {
              "internalType": "address",
              "name": "operator",
              "type": "address"
            },
            {
              "internalType": "uint40",
              "name": "startBlock",
              "type": "uint40"
            },
            {
              "internalType": "uint64",
              "name": "startTimestamp",
              "type": "uint64"
            },
            {
              "internalType": "uint16[5]",
              "name": "fallbackOperators",
              "type": "uint16[5]"
            }
          ],
          "internalType": "struct OperatorJob",
          "name": "",
          "type": "tuple"
        }
      ],
      "stateMutability": "view",
      "type": "function"
    },
    {
      "inputs": [],
      "name": "getLZEndpoint",
      "outputs": [
        {
          "internalType": "address",
          "name": "lZEndpoint",
          "type": "address"
        }
      ],
      "stateMutability": "view",
      "type": "function"
    },
    {
      "inputs": [
        {
          "internalType": "uint256",
          "name": "pod",
          "type": "uint256"
        }
      ],
      "name": "getPodBondAmount",
      "outputs": [
        {
          "internalType": "uint256",
          "name": "base",
          "type": "uint256"
        },
        {
          "internalType": "uint256",
          "name": "current",
          "type": "uint256"
        }
      ],
      "stateMutability": "view",
      "type": "function"
    },
    {
      "inputs": [
        {
          "internalType": "uint256",
          "name": "pod",
          "type": "uint256"
        },
        {
          "internalType": "uint256",
          "name": "index",
          "type": "uint256"
        },
        {
          "internalType": "uint256",
          "name": "length",
          "type": "uint256"
        }
      ],
      "name": "getPodOperators",
      "outputs": [
        {
          "internalType": "address[]",
          "name": "operators",
          "type": "address[]"
        }
      ],
      "stateMutability": "view",
      "type": "function"
    },
    {
      "inputs": [
        {
          "internalType": "uint256",
          "name": "pod",
          "type": "uint256"
        }
      ],
      "name": "getPodOperators",
      "outputs": [
        {
          "internalType": "address[]",
          "name": "operators",
          "type": "address[]"
        }
      ],
      "stateMutability": "view",
      "type": "function"
    },
    {
      "inputs": [],
      "name": "getRegistry",
      "outputs": [
        {
          "internalType": "address",
          "name": "registry",
          "type": "address"
        }
      ],
      "stateMutability": "view",
      "type": "function"
    },
    {
      "inputs": [
        {
          "internalType": "bytes",
          "name": "data",
          "type": "bytes"
        }
      ],
      "name": "init",
      "outputs": [
        {
          "internalType": "bytes4",
          "name": "",
          "type": "bytes4"
        }
      ],
      "stateMutability": "nonpayable",
      "type": "function"
    },
    {
      "inputs": [
        {
          "internalType": "bytes",
          "name": "_payload",
          "type": "bytes"
        }
      ],
      "name": "jobEstimator",
      "outputs": [],
      "stateMutability": "payable",
      "type": "function"
    },
    {
      "inputs": [
        {
          "internalType": "uint16",
          "name": "",
          "type": "uint16"
        },
        {
          "internalType": "bytes",
          "name": "_srcAddress",
          "type": "bytes"
        },
        {
          "internalType": "uint64",
          "name": "",
          "type": "uint64"
        },
        {
          "internalType": "bytes",
          "name": "_payload",
          "type": "bytes"
        }
      ],
      "name": "lzReceive",
      "outputs": [],
      "stateMutability": "payable",
      "type": "function"
    },
    {
      "inputs": [
        {
          "internalType": "uint256",
          "name": "gasLimit",
          "type": "uint256"
        },
        {
          "internalType": "uint256",
          "name": "gasPrice",
          "type": "uint256"
        },
        {
          "internalType": "uint32",
          "name": "toChain",
          "type": "uint32"
        },
        {
          "internalType": "address",
          "name": "msgSender",
          "type": "address"
        },
        {
          "internalType": "bytes",
          "name": "_payload",
          "type": "bytes"
        }
      ],
      "name": "send",
      "outputs": [],
      "stateMutability": "payable",
      "type": "function"
    },
    {
      "inputs": [
        {
          "internalType": "address",
          "name": "adminAddress",
          "type": "address"
        }
      ],
      "name": "setAdmin",
      "outputs": [],
      "stateMutability": "nonpayable",
      "type": "function"
    },
    {
      "inputs": [
        {
          "internalType": "address",
          "name": "bridge",
          "type": "address"
        }
      ],
      "name": "setBridge",
      "outputs": [],
      "stateMutability": "nonpayable",
      "type": "function"
    },
    {
      "inputs": [
        {
          "internalType": "address",
          "name": "holograph",
          "type": "address"
        }
      ],
      "name": "setHolograph",
      "outputs": [],
      "stateMutability": "nonpayable",
      "type": "function"
    },
    {
      "inputs": [
        {
          "internalType": "address",
          "name": "interfaces",
          "type": "address"
        }
      ],
      "name": "setInterfaces",
      "outputs": [],
      "stateMutability": "nonpayable",
      "type": "function"
    },
    {
      "inputs": [
        {
          "internalType": "address",
          "name": "lZEndpoint",
          "type": "address"
        }
      ],
      "name": "setLZEndpoint",
      "outputs": [],
      "stateMutability": "nonpayable",
      "type": "function"
    },
    {
      "inputs": [
        {
          "internalType": "address",
          "name": "registry",
          "type": "address"
        }
      ],
      "name": "setRegistry",
      "outputs": [],
      "stateMutability": "nonpayable",
      "type": "function"
    },
    {
      "inputs": [
        {
          "internalType": "address",
          "name": "operator",
          "type": "address"
        },
        {
          "internalType": "address",
          "name": "recipient",
          "type": "address"
        }
      ],
      "name": "unbondUtilityToken",
      "outputs": [],
      "stateMutability": "nonpayable",
      "type": "function"
    }
  ],
  "transactionHash": "0xf97b624a342c4fed20f3d3c377289c70afe4f9205ef09f47b4506448807d2354",
  "args": [],
  "numDeployments": 1,
  "solcInputHash": "0b5e3a4fef7397ea053a407f08962d01",
  "bytecode": "0x608060405234801561001057600080fd5b506137fc806100206000396000f3fe6080604052600436106101a05760003560e01c8063704b6c02116100e1578063a91ee0dc1161008a578063da8292d911610064578063da8292d91461054e578063da9b26e61461056e578063ebac15f914610581578063f851a440146105b557600080fd5b8063a91ee0dc14610508578063b24b2afc14610528578063bf64a82d1461053b57600080fd5b80638b432e4e116100bb5780638b432e4e146104775780638dd148021461049757806391e0d46b146104b757600080fd5b8063704b6c0214610424578063778fd1d1146104445780637868674d1461045757600080fd5b80634827ae0c1161014e57806354d9f2fe1161012857806354d9f2fe146103675780635ab1bd531461039c578063612a3372146103d05780636e9960c3146103f057600080fd5b80634827ae0c146102c25780634b40f1bf146102f65780634ddf47d41461031657600080fd5b806325d5cac81161017f57806325d5cac81461024157806327aa01f51461026157806336c5ab401461028e57600080fd5b80621d3567146101a55780630fffbaf3146101ba57806311a33bda14610214575b600080fd5b6101b86101b3366004612dc4565b6105ca565b005b3480156101c657600080fd5b507feb87cbb21687feb327e3d58c6c16d552231d12c7a0e8115042a4165fac8a77f9545b60405173ffffffffffffffffffffffffffffffffffffffff90911681526020015b60405180910390f35b34801561022057600080fd5b5061023461022f366004612e67565b6109e7565b60405161020b9190612e80565b34801561024d57600080fd5b506101b861025c366004612f3f565b610ac0565b34801561026d57600080fd5b5061028161027c366004612f5c565b610b9f565b60405161020b9190612f88565b34801561029a57600080fd5b507f56825e447adf54cdde5f04815fcf9b1dd26ef9d5c053625147c18b7c13091686546101ea565b3480156102ce57600080fd5b507fb4107f746e9496e8452accc7de63d1c5e14c19f510932daa04077cd49e8bd77a546101ea565b34801561030257600080fd5b506101b8610311366004612f3f565b610d62565b34801561032257600080fd5b50610336610331366004613011565b610e3c565b6040517fffffffff00000000000000000000000000000000000000000000000000000000909116815260200161020b565b34801561037357600080fd5b50610387610382366004612e67565b611072565b6040805192835260208301919091520161020b565b3480156103a857600080fd5b507fce8e75d5c5227ce29a4ee170160bb296e5dea6934b80a9bd723f7ef1e7c850e7546101ea565b3480156103dc57600080fd5b506101b86103eb3660046130e0565b6110a4565b3480156103fc57600080fd5b507f3f106594dc74eeef980dae234cde8324dc2497b13d27a0c59e55bd2ca10a07c9546101ea565b34801561043057600080fd5b506101b861043f366004612f3f565b611497565b6101b8610452366004613119565b611571565b34801561046357600080fd5b50610281610472366004612e67565b611bdb565b34801561048357600080fd5b506101b861049236600461315b565b611cde565b3480156104a357600080fd5b506101b86104b2366004612f3f565b61210c565b3480156104c357600080fd5b506104fa6104d2366004612f3f565b73ffffffffffffffffffffffffffffffffffffffff166000908152600a602052604090205490565b60405190815260200161020b565b34801561051457600080fd5b506101b8610523366004612f3f565b6121e6565b6101b8610536366004613119565b6122c0565b6101b8610549366004613190565b61239d565b34801561055a57600080fd5b506101b8610569366004612f3f565b612478565b6101b861057c3660046131e5565b612552565b34801561058d57600080fd5b507fbd3084b8c09da87ad159c247a60e209784196be2530cecbbd8f337fdd1848827546101ea565b3480156105c157600080fd5b506101ea612837565b7f56825e447adf54cdde5f04815fcf9b1dd26ef9d5c053625147c18b7c130916865433148061066e573033148061066c577f08c379a0000000000000000000000000000000000000000000000000000000006080527c200000000000000000000000000000000000000000000000000000000060a0527c1b484f4c4f47524150483a204c5a206f6e6c7920656e64706f696e740060c052600060e05260c46080fd5b505b506040518486600c8301378051301480610712577f08c379a0000000000000000000000000000000000000000000000000000000006080527c200000000000000000000000000000000000000000000000000000000060a0527c1e484f4c4f47524150483a20756e617574686f72697a65642073656e6460c0527f657200000000000000000000000000000000000000000000000000000000000060e05260c46080fd5b505060008282604051610726929190613258565b6040519081900390206008805463ffffffff808216600101167fffffffffffffffffffffffffffffffffffffffffffffffffffffffff00000000909116179055905060008161079b7f1cda64803f3b43503042e00863791e8d996666552d5855a78d53ee1dd4b3286d80546001019081905590565b60408051602081019390935282015243606082015242608082015260a001604080517fffffffffffffffffffffffffffffffffffffffffffffffffffffffffffffffe08184030181529190528051602090910120600954909150600090828161080657610806613268565b06905060006009828154811061081e5761081e613297565b6000918252602082200154915081848161083a5761083a613268565b0690506009838154811061085057610850613297565b90600052602060002001818154811061086b5761086b613297565b600091825260208083209091015460085463ffffffff1683526007909152604090912080547fffffffffffffffffffffffff00000000000000000000000000000000000000001673ffffffffffffffffffffffffffffffffffffffff9092169190911790556108da8382612866565b7fffffffffffffffffffffffffffffffffffffffffffffffffffffffffffffffff909101904260101b606061091186856005612ab5565b901b607061092187866004612ab5565b901b608061093188876003612ab5565b901b609061094189886002612ab5565b901b60a06109518a896001612ab5565b901b60b043901b60d8600860009054906101000a900463ffffffff1663ffffffff16901b60f88b600101901b171717171717171760001760066000878152602001908152602001600020819055507f4422a85db963f113e500bc4ada8f9e9f1a7bcd57cbec6907fbb2bf6aaf5878ff8588886040516109d2939291906132c6565b60405180910390a15050505050505050505050565b6109ef612bf1565b50600090815260066020908152604080832054815160c08101835260f882901c8152845461ffff9081168286015263ffffffff60d884901c16865260078552948390205473ffffffffffffffffffffffffffffffffffffffff168184015264ffffffffff60b083901c1660608083019190915267ffffffffffffffff601084901c16608080840191909152845160a0818101875285811c89168252609086901c89169782019790975284821c881695810195909552607084901c87168583015292901c909416908201529082015290565b7f3f106594dc74eeef980dae234cde8324dc2497b13d27a0c59e55bd2ca10a07c95473ffffffffffffffffffffffffffffffffffffffff163373ffffffffffffffffffffffffffffffffffffffff1614610b7b576040517f08c379a000000000000000000000000000000000000000000000000000000000815260206004820152601e60248201527f484f4c4f47524150483a2061646d696e206f6e6c792066756e6374696f6e000060448201526064015b60405180910390fd5b7fb4107f746e9496e8452accc7de63d1c5e14c19f510932daa04077cd49e8bd77a55565b600954606090841115610c0e576040517f08c379a000000000000000000000000000000000000000000000000000000000815260206004820152601d60248201527f484f4c4f47524150483a20706f6420646f6573206e6f742065786973740000006044820152606401610b72565b83610c1881613349565b945050600060098581548110610c3057610c30613297565b600091825260209091200154905080610c49848661337e565b1115610c5c57610c598482613396565b92505b8267ffffffffffffffff811115610c7557610c75612fe2565b604051908082528060200260200182016040528015610c9e578160200160208202803683370190505b50915060005b83811015610d595760098681548110610cbf57610cbf613297565b906000526020600020018186610cd5919061337e565b81548110610ce557610ce5613297565b9060005260206000200160009054906101000a900473ffffffffffffffffffffffffffffffffffffffff16838281518110610d2257610d22613297565b73ffffffffffffffffffffffffffffffffffffffff9092166020928302919091019091015280610d51816133ad565b915050610ca4565b50509392505050565b7f3f106594dc74eeef980dae234cde8324dc2497b13d27a0c59e55bd2ca10a07c95473ffffffffffffffffffffffffffffffffffffffff163373ffffffffffffffffffffffffffffffffffffffff1614610e18576040517f08c379a000000000000000000000000000000000000000000000000000000000815260206004820152601e60248201527f484f4c4f47524150483a2061646d696e206f6e6c792066756e6374696f6e00006044820152606401610b72565b7f56825e447adf54cdde5f04815fcf9b1dd26ef9d5c053625147c18b7c1309168655565b6000610e667f4e5f991bca30eca2d4643aaefa807e88f96a4a97398933d572a3c0d973004a015490565b15610ecd576040517f08c379a000000000000000000000000000000000000000000000000000000000815260206004820152601e60248201527f484f4c4f47524150483a20616c726561647920696e697469616c697a656400006044820152606401610b72565b60008060008085806020019051810190610ee791906133e5565b327f3f106594dc74eeef980dae234cde8324dc2497b13d27a0c59e55bd2ca10a07c9557feb87cbb21687feb327e3d58c6c16d552231d12c7a0e8115042a4165fac8a77f98490557fb4107f746e9496e8452accc7de63d1c5e14c19f510932daa04077cd49e8bd77a8390557fbd3084b8c09da87ad159c247a60e209784196be2530cecbbd8f337fdd18488278290557fce8e75d5c5227ce29a4ee170160bb296e5dea6934b80a9bd723f7ef1e7c850e7819055600a600081815568056bc75e2d631000006001908155600280556103e8600355600492909255606460055560408051808201909152602081019182529081529498509296509094509250610ff091600991612c2d565b5060008052600a60205260017f13da86008ba1c6922daee3e07db95305ef49ebced9f5467a0b8613fcc6b343e35561104760017f4e5f991bca30eca2d4643aaefa807e88f96a4a97398933d572a3c0d973004a0155565b507f4ddf47d40000000000000000000000000000000000000000000000000000000095945050505050565b600080611088611083600185613396565b612ad5565b915061109d611098600185613396565b612af8565b9050915091565b73ffffffffffffffffffffffffffffffffffffffff82166000908152600a60205260408120549003611132576040517f08c379a000000000000000000000000000000000000000000000000000000000815260206004820152601e60248201527f484f4c4f47524150483a206f70657261746f72206e6f7420626f6e64656400006044820152606401610b72565b3373ffffffffffffffffffffffffffffffffffffffff8316146112b25761115882612bb7565b6111be576040517f08c379a000000000000000000000000000000000000000000000000000000000815260206004820181905260248201527f484f4c4f47524150483a206f70657261746f72206e6f7420636f6e74726163746044820152606401610b72565b6040517f2f54bf6e00000000000000000000000000000000000000000000000000000000815233600482015273ffffffffffffffffffffffffffffffffffffffff831690632f54bf6e90602401602060405180830381865afa158015611228573d6000803e3d6000fd5b505050506040513d601f19601f8201168201806040525081019061124c9190613444565b6112b2576040517f08c379a000000000000000000000000000000000000000000000000000000000815260206004820152601b60248201527f484f4c4f47524150483a2073656e646572206e6f74206f776e657200000000006044820152606401610b72565b60006112dc7fce8e75d5c5227ce29a4ee170160bb296e5dea6934b80a9bd723f7ef1e7c850e75490565b73ffffffffffffffffffffffffffffffffffffffff16626266796040518163ffffffff1660e01b8152600401602060405180830381865afa158015611325573d6000803e3d6000fd5b505050506040513d601f19601f820116820180604052508101906113499190613466565b73ffffffffffffffffffffffffffffffffffffffff8481166000908152600b6020526040908190205490517fa9059cbb000000000000000000000000000000000000000000000000000000008152858316600482015260248101829052929350919083169063a9059cbb906044016020604051808303816000875af11580156113d6573d6000803e3d6000fd5b505050506040513d601f19601f820116820180604052508101906113fa9190613444565b611460576040517f08c379a000000000000000000000000000000000000000000000000000000000815260206004820181905260248201527f484f4c4f47524150483a20746f6b656e207472616e73666572206661696c65646044820152606401610b72565b50505073ffffffffffffffffffffffffffffffffffffffff166000908152600a60209081526040808320839055600b909152812055565b7f3f106594dc74eeef980dae234cde8324dc2497b13d27a0c59e55bd2ca10a07c95473ffffffffffffffffffffffffffffffffffffffff163373ffffffffffffffffffffffffffffffffffffffff161461154d576040517f08c379a000000000000000000000000000000000000000000000000000000000815260206004820152601e60248201527f484f4c4f47524150483a2061646d696e206f6e6c792066756e6374696f6e00006044820152606401610b72565b7f3f106594dc74eeef980dae234cde8324dc2497b13d27a0c59e55bd2ca10a07c955565b60008282604051611583929190613258565b60405180910390209050600060066000838152602001908152602001600020541161160a576040517f08c379a000000000000000000000000000000000000000000000000000000000815260206004820152601660248201527f484f4c4f47524150483a20696e76616c6964206a6f62000000000000000000006044820152606401610b72565b8183017fffffffffffffffffffffffffffffffffffffffffffffffffffffffffffffffc0810135907fffffffffffffffffffffffffffffffffffffffffffffffffffffffffffffffe001356000611660846109e7565b604081015190915073ffffffffffffffffffffffffffffffffffffffff1615611b1657805160009061169490600190613483565b60ff1690503373ffffffffffffffffffffffffffffffffffffffff16826040015173ffffffffffffffffffffffffffffffffffffffff1614611aa3576000826080015167ffffffffffffffff16426116ec9190613396565b90506000836020015161ffff168261170491906134a6565b905060008111611770576040517f08c379a000000000000000000000000000000000000000000000000000000000815260206004820152601c60248201527f484f4c4f47524150483a206f70657261746f72206861732074696d65000000006044820152606401610b72565b3a8510156117da576040517f08c379a000000000000000000000000000000000000000000000000000000000815260206004820152601d60248201527f484f4c4f47524150483a20676173207370696b652064657465637465640000006044820152606401610b72565b60068110156119175760a08401516000906117f6600184613396565b6005811061180657611806613297565b602002015161ffff1690506009848154811061182457611824613297565b6000918252602090912001548110156119155760006009858154811061184c5761184c613297565b90600052602060002001828154811061186757611867613297565b60009182526020909120015473ffffffffffffffffffffffffffffffffffffffff169050338114806118ad575073ffffffffffffffffffffffffffffffffffffffff8116155b611913576040517f08c379a000000000000000000000000000000000000000000000000000000000815260206004820152601b60248201527f484f4c4f47524150483a20696e76616c69642066616c6c6261636b00000000006044820152606401610b72565b505b505b600061192284612ad5565b905080600b6000876040015173ffffffffffffffffffffffffffffffffffffffff1673ffffffffffffffffffffffffffffffffffffffff16815260200190815260200160002060008282546119779190613396565b9091555050336000908152600b60205260408120805483929061199b90849061337e565b90915550600090506119ac85612af8565b60408088015173ffffffffffffffffffffffffffffffffffffffff166000908152600b60205220549091508110611a6f57600985815481106119f0576119f0613297565b6000918252602080832060408a810180519490920180546001810182559086528386200180547fffffffffffffffffffffffff00000000000000000000000000000000000000001673ffffffffffffffffffffffffffffffffffffffff9586161790558a5191519093168452600a909152912060ff9091169055611a9a565b60408087015173ffffffffffffffffffffffffffffffffffffffff166000908152600b602052908120555b50505050611b14565b60098181548110611ab657611ab6613297565b6000918252602080832090910180546001810182559083528183200180547fffffffffffffffffffffffff000000000000000000000000000000000000000016339081179091558451908352600a909152604090912060ff90911690555b505b825a11611b7f576040517f08c379a000000000000000000000000000000000000000000000000000000000815260206004820152601e60248201527f484f4c4f47524150483a206e6f7420656e6f75676820676173206c65667400006044820152606401610b72565b6040850386600037600080604087036000347feb87cbb21687feb327e3d58c6c16d552231d12c7a0e8115042a4165fac8a77f95488f180611bc4573d6000803e3d6000fd5b505050600091825250600660205260408120555050565b600954606090821115611c4a576040517f08c379a000000000000000000000000000000000000000000000000000000000815260206004820152601d60248201527f484f4c4f47524150483a20706f6420646f6573206e6f742065786973740000006044820152606401610b72565b6009611c57600184613396565b81548110611c6757611c67613297565b90600052602060002001805480602002602001604051908101604052809291908181526020018280548015611cd257602002820191906000526020600020905b815473ffffffffffffffffffffffffffffffffffffffff168152600190910190602001808311611ca7575b50505050509050919050565b73ffffffffffffffffffffffffffffffffffffffff83166000908152600a602052604090205415611d6b576040517f08c379a000000000000000000000000000000000000000000000000000000000815260206004820152601d60248201527f484f4c4f47524150483a206f70657261746f7220697320626f6e6465640000006044820152606401610b72565b6000611d7682612af8565b905082811115611de2576040517f08c379a000000000000000000000000000000000000000000000000000000000815260206004820181905260248201527f484f4c4f47524150483a20626f6e6420616d6f756e7420746f6f20736d616c6c6044820152606401610b72565b600954821115611e50576009545b828111611e4e5760408051602081019091526000808252600980546001818101835591909252611e45927f6e1540171b6c0c960b71a7020d9f60077f6af931a8bbf590da0223dacf75c7af9092019190612c84565b50600101611df0565b505b61ffff801660096001840381548110611e6b57611e6b613297565b60009182526020909120015410611ede576040517f08c379a000000000000000000000000000000000000000000000000000000000815260206004820152601d60248201527f484f4c4f47524150483a20746f6f206d616e79206f70657261746f72730000006044820152606401610b72565b6000611f087fce8e75d5c5227ce29a4ee170160bb296e5dea6934b80a9bd723f7ef1e7c850e75490565b73ffffffffffffffffffffffffffffffffffffffff16626266796040518163ffffffff1660e01b8152600401602060405180830381865afa158015611f51573d6000803e3d6000fd5b505050506040513d601f19601f82011682018060405250810190611f759190613466565b6040517f23b872dd0000000000000000000000000000000000000000000000000000000081523360048201523060248201526044810186905290915073ffffffffffffffffffffffffffffffffffffffff8216906323b872dd906064016020604051808303816000875af1158015611ff1573d6000803e3d6000fd5b505050506040513d601f19601f820116820180604052508101906120159190613444565b61207b576040517f08c379a000000000000000000000000000000000000000000000000000000000815260206004820181905260248201527f484f4c4f47524150483a20746f6b656e207472616e73666572206661696c65646044820152606401610b72565b6009600184038154811061209157612091613297565b60009182526020808320909101805460018101825590835281832001805473ffffffffffffffffffffffffffffffffffffffff9098167fffffffffffffffffffffffff000000000000000000000000000000000000000090981688179055958152600a8652604080822094909455600b909552505090912055565b7f3f106594dc74eeef980dae234cde8324dc2497b13d27a0c59e55bd2ca10a07c95473ffffffffffffffffffffffffffffffffffffffff163373ffffffffffffffffffffffffffffffffffffffff16146121c2576040517f08c379a000000000000000000000000000000000000000000000000000000000815260206004820152601e60248201527f484f4c4f47524150483a2061646d696e206f6e6c792066756e6374696f6e00006044820152606401610b72565b7feb87cbb21687feb327e3d58c6c16d552231d12c7a0e8115042a4165fac8a77f955565b7f3f106594dc74eeef980dae234cde8324dc2497b13d27a0c59e55bd2ca10a07c95473ffffffffffffffffffffffffffffffffffffffff163373ffffffffffffffffffffffffffffffffffffffff161461229c576040517f08c379a000000000000000000000000000000000000000000000000000000000815260206004820152601e60248201527f484f4c4f47524150483a2061646d696e206f6e6c792066756e6374696f6e00006044820152606401610b72565b7fce8e75d5c5227ce29a4ee170160bb296e5dea6934b80a9bd723f7ef1e7c850e755565b7f0c01c0d9182738e91eab986a4ef4a5a120cc00ed5032b67c0bd8d0e70b247cf35433148061235a577f08c379a0000000000000000000000000000000000000000000000000000000006080527c200000000000000000000000000000000000000000000000000000000060a0527c484f4c4f47524150483a2074657374206f6e6c792063616c6c0000000060c052600060e05260c46080fd5b50600080604083036000347feb87cbb21687feb327e3d58c6c16d552231d12c7a0e8115042a4165fac8a77f9545af180612398573d6000803e3d6000fd5b505050565b7f3f106594dc74eeef980dae234cde8324dc2497b13d27a0c59e55bd2ca10a07c95473ffffffffffffffffffffffffffffffffffffffff163373ffffffffffffffffffffffffffffffffffffffff1614612453576040517f08c379a000000000000000000000000000000000000000000000000000000000815260206004820152601e60248201527f484f4c4f47524150483a2061646d696e206f6e6c792066756e6374696f6e00006044820152606401610b72565b808260003760008082600034875af13d6000803e808015612473573d6000f35b3d6000fd5b7f3f106594dc74eeef980dae234cde8324dc2497b13d27a0c59e55bd2ca10a07c95473ffffffffffffffffffffffffffffffffffffffff163373ffffffffffffffffffffffffffffffffffffffff161461252e576040517f08c379a000000000000000000000000000000000000000000000000000000000815260206004820152601e60248201527f484f4c4f47524150483a2061646d696e206f6e6c792066756e6374696f6e00006044820152606401610b72565b7fbd3084b8c09da87ad159c247a60e209784196be2530cecbbd8f337fdd184882755565b7feb87cbb21687feb327e3d58c6c16d552231d12c7a0e8115042a4165fac8a77f95473ffffffffffffffffffffffffffffffffffffffff163373ffffffffffffffffffffffffffffffffffffffff1614612608576040517f08c379a000000000000000000000000000000000000000000000000000000000815260206004820152601b60248201527f484f4c4f47524150483a20627269646765206f6e6c792063616c6c00000000006044820152606401610b72565b7f56825e447adf54cdde5f04815fcf9b1dd26ef9d5c053625147c18b7c130916865473ffffffffffffffffffffffffffffffffffffffff811663c58031003461266f7fbd3084b8c09da87ad159c247a60e209784196be2530cecbbd8f337fdd18488275490565b73ffffffffffffffffffffffffffffffffffffffff166320fc06ea60028a63ffffffff1660036040518463ffffffff1660e01b81526004016126b39392919061351c565b602060405180830381865afa1580156126d0573d6000803e3d6000fd5b505050506040513d601f19601f820116820180604052508101906126f49190613545565b6040517fffffffffffffffffffffffffffffffffffffffff0000000000000000000000003060601b16602082015260340160405160208183030381529060405287878d8d60405160200161274b949392919061355e565b604080517fffffffffffffffffffffffffffffffffffffffffffffffffffffffffffffffe0818403018152919052893060016127888b6019613578565b6127949061cb2061337e565b60405160f09290921b7fffff00000000000000000000000000000000000000000000000000000000000016602083015260228201526042016040516020818303038152906040526040518863ffffffff1660e01b81526004016127fc96959493929190613620565b6000604051808303818588803b15801561281557600080fd5b505af1158015612829573d6000803e3d6000fd5b505050505050505050505050565b60006128617f3f106594dc74eeef980dae234cde8324dc2497b13d27a0c59e55bd2ca10a07c95490565b905090565b8015612ab15760006009838154811061288157612881613297565b90600052602060002001828154811061289c5761289c613297565b600091825260208083209091015473ffffffffffffffffffffffffffffffffffffffff16808352600a9091526040822082905560098054919350600191869081106128e9576128e9613297565b6000918252602090912001540390508281146129ca576009848154811061291257612912613297565b90600052602060002001818154811061292d5761292d613297565b6000918252602090912001546009805473ffffffffffffffffffffffffffffffffffffffff909216918690811061296657612966613297565b90600052602060002001848154811061298157612981613297565b9060005260206000200160006101000a81548173ffffffffffffffffffffffffffffffffffffffff021916908373ffffffffffffffffffffffffffffffffffffffff1602179055505b600984815481106129dd576129dd613297565b9060005260206000200181815481106129f8576129f8613297565b600091825260209091200180547fffffffffffffffffffffffff00000000000000000000000000000000000000001690556009805485908110612a3d57612a3d613297565b90600052602060002001805480612a5657612a56613694565b60008281526020902081017fffffffffffffffffffffffffffffffffffffffffffffffffffffffffffffffff90810180547fffffffffffffffffffffffff000000000000000000000000000000000000000016905501905550505b5050565b6000824383900340850181612acc57612acc613268565b06949350505050565b600060015482600254612ae891906137e3565b612af29190613578565b92915050565b60008060015483600254612b0c91906137e3565b612b169190613578565b600954909150831115612b295792915050565b6000612b368460026137e3565b600354612b4391906134a6565b9050600060098581548110612b5a57612b5a613297565b600091825260209091200154905081811115612bae57612b7a8282613396565b905060045481612b8a91906134a6565b600554612b9790856134a6565b612ba19190613578565b612bab908461337e565b92505b50909392505050565b6000813f8015801590612bea57507fc5d2460186f7233c927e7db2dcc703c0e500b653ca82273b7bfad8045d85a4708114155b9392505050565b6040805160c08101825260008082526020820181905291810182905260608101829052608081019190915260a08101612c28612d0a565b905290565b828054828255906000526020600020908101928215612c74579160200282015b82811115612c74578251612c649083906001612c84565b5091602001919060010190612c4d565b50612c80929150612d28565b5090565b828054828255906000526020600020908101928215612cfe579160200282015b82811115612cfe57825182547fffffffffffffffffffffffff00000000000000000000000000000000000000001673ffffffffffffffffffffffffffffffffffffffff909116178255602090920191600190910190612ca4565b50612c80929150612d45565b6040518060a001604052806005906020820280368337509192915050565b80821115612c80576000612d3c8282612d5a565b50600101612d28565b5b80821115612c805760008155600101612d46565b5080546000825590600052602060002090810190612d789190612d45565b50565b60008083601f840112612d8d57600080fd5b50813567ffffffffffffffff811115612da557600080fd5b602083019150836020828501011115612dbd57600080fd5b9250929050565b60008060008060008060808789031215612ddd57600080fd5b863561ffff81168114612def57600080fd5b9550602087013567ffffffffffffffff80821115612e0c57600080fd5b612e188a838b01612d7b565b9097509550604089013591508082168214612e3257600080fd5b90935060608801359080821115612e4857600080fd5b50612e5589828a01612d7b565b979a9699509497509295939492505050565b600060208284031215612e7957600080fd5b5035919050565b60006101408201905060ff835116825260208084015161ffff8082168386015273ffffffffffffffffffffffffffffffffffffffff604087015116604086015264ffffffffff606087015116606086015267ffffffffffffffff608087015116608086015260a0860151915060a0850160005b6005811015612f12578351831682529284019290840190600101612ef3565b505050505092915050565b73ffffffffffffffffffffffffffffffffffffffff81168114612d7857600080fd5b600060208284031215612f5157600080fd5b8135612bea81612f1d565b600080600060608486031215612f7157600080fd5b505081359360208301359350604090920135919050565b6020808252825182820181905260009190848201906040850190845b81811015612fd657835173ffffffffffffffffffffffffffffffffffffffff1683529284019291840191600101612fa4565b50909695505050505050565b7f4e487b7100000000000000000000000000000000000000000000000000000000600052604160045260246000fd5b60006020828403121561302357600080fd5b813567ffffffffffffffff8082111561303b57600080fd5b818401915084601f83011261304f57600080fd5b81358181111561306157613061612fe2565b604051601f82017fffffffffffffffffffffffffffffffffffffffffffffffffffffffffffffffe0908116603f011681019083821181831017156130a7576130a7612fe2565b816040528281528760208487010111156130c057600080fd5b826020860160208301376000928101602001929092525095945050505050565b600080604083850312156130f357600080fd5b82356130fe81612f1d565b9150602083013561310e81612f1d565b809150509250929050565b6000806020838503121561312c57600080fd5b823567ffffffffffffffff81111561314357600080fd5b61314f85828601612d7b565b90969095509350505050565b60008060006060848603121561317057600080fd5b833561317b81612f1d565b95602085013595506040909401359392505050565b6000806000604084860312156131a557600080fd5b83356131b081612f1d565b9250602084013567ffffffffffffffff8111156131cc57600080fd5b6131d886828701612d7b565b9497909650939450505050565b60008060008060008060a087890312156131fe57600080fd5b8635955060208701359450604087013563ffffffff8116811461322057600080fd5b9350606087013561323081612f1d565b9250608087013567ffffffffffffffff81111561324c57600080fd5b612e5589828a01612d7b565b8183823760009101908152919050565b7f4e487b7100000000000000000000000000000000000000000000000000000000600052601260045260246000fd5b7f4e487b7100000000000000000000000000000000000000000000000000000000600052603260045260246000fd5b83815260406020820152816040820152818360608301376000818301606090810191909152601f9092017fffffffffffffffffffffffffffffffffffffffffffffffffffffffffffffffe016010192915050565b7f4e487b7100000000000000000000000000000000000000000000000000000000600052601160045260246000fd5b6000816133585761335861331a565b507fffffffffffffffffffffffffffffffffffffffffffffffffffffffffffffffff0190565b600082198211156133915761339161331a565b500190565b6000828210156133a8576133a861331a565b500390565b60007fffffffffffffffffffffffffffffffffffffffffffffffffffffffffffffffff82036133de576133de61331a565b5060010190565b600080600080608085870312156133fb57600080fd5b845161340681612f1d565b602086015190945061341781612f1d565b604086015190935061342881612f1d565b606086015190925061343981612f1d565b939692955090935050565b60006020828403121561345657600080fd5b81518015158114612bea57600080fd5b60006020828403121561347857600080fd5b8151612bea81612f1d565b600060ff821660ff84168082101561349d5761349d61331a565b90039392505050565b6000826134dc577f4e487b7100000000000000000000000000000000000000000000000000000000600052601260045260246000fd5b500490565b60058110613518577f4e487b7100000000000000000000000000000000000000000000000000000000600052602160045260246000fd5b9052565b6060810161352a82866134e1565b83602083015261353d60408301846134e1565b949350505050565b60006020828403121561355757600080fd5b5051919050565b838582379092019081526020810191909152604001919050565b6000817fffffffffffffffffffffffffffffffffffffffffffffffffffffffffffffffff04831182151516156135b0576135b061331a565b500290565b6000815180845260005b818110156135db576020818501810151868301820152016135bf565b818111156135ed576000602083870101525b50601f017fffffffffffffffffffffffffffffffffffffffffffffffffffffffffffffffe0169290920160200192915050565b61ffff8716815260c06020820152600061363d60c08301886135b5565b828103604084015261364f81886135b5565b73ffffffffffffffffffffffffffffffffffffffff87811660608601528616608085015283810360a0850152905061368781856135b5565b9998505050505050505050565b7f4e487b7100000000000000000000000000000000000000000000000000000000600052603160045260246000fd5b600181815b8085111561371c57817fffffffffffffffffffffffffffffffffffffffffffffffffffffffffffffffff048211156137025761370261331a565b8085161561370f57918102915b93841c93908002906136c8565b509250929050565b60008261373357506001612af2565b8161374057506000612af2565b816001811461375657600281146137605761377c565b6001915050612af2565b60ff8411156137715761377161331a565b50506001821b612af2565b5060208310610133831016604e8410600b841016171561379f575081810a612af2565b6137a983836136c3565b807fffffffffffffffffffffffffffffffffffffffffffffffffffffffffffffffff048211156137db576137db61331a565b029392505050565b6000612bea838361372456fea164736f6c634300080d000a",
  "devdoc": {
    "details": "This smart contract contains the actual core operator logic.",
    "events": {
      "AvailableOperatorJob(bytes32,bytes)": {
        "details": "Event is emitted for every time that a valid job is available."
      }
    },
    "kind": "dev",
    "methods": {
      "constructor": {
        "details": "Constructor is left empty and only the admin address is set."
      }
    },
    "stateVariables": {
      "_baseBondAmount": {
        "details": "Minimum amount of tokens needed for bonding."
      },
      "_blockTime": {
        "details": "Internal number (in seconds), used for defining a window for operator to execute the job."
      },
      "_bondedAmounts": {
        "details": "Internal mapping of bonded operator amounts."
      },
      "_bondedOperators": {
        "details": "Internal mapping of bonded operators, to prevent double bonding."
      },
      "_operatorJobs": {
        "details": "Internal mapping of operator job details for a specific job hash."
      },
      "_operatorPods": {
        "details": "Multi-dimensional array of available operators."
      },
      "_operatorTempStorage": {
        "details": "Internal mapping of operator addresses, used for temp storage when defining an operator job."
      },
      "_operatorTempStorageCounter": {
        "details": "Internal index used for storing/referencing operator temp storage."
      },
      "_operatorThreshold": {
        "details": "The threshold used for limiting number of operators in a pod."
      },
      "_operatorThresholdDivisor": {
        "details": "The threshold divisor used for increasing bond amount once threshold is reached."
      },
      "_operatorThresholdStep": {
        "details": "The threshold step used for increasing bond amount once threshold is reached."
      },
      "_podMultiplier": {
        "details": "The multiplier used for calculating bonding amount for pods."
      }
    },
    "version": 1
  },
  "userdoc": {
    "kind": "user",
    "methods": {},
    "version": 1
  },
  "storageLayout": {
    "storage": [
      {
        "astId": 5405,
        "contract": "contracts/HolographOperator.sol:HolographOperator",
        "label": "_blockTime",
        "offset": 0,
        "slot": "0",
        "type": "t_uint256"
      },
      {
        "astId": 5408,
        "contract": "contracts/HolographOperator.sol:HolographOperator",
        "label": "_baseBondAmount",
        "offset": 0,
        "slot": "1",
        "type": "t_uint256"
      },
      {
        "astId": 5411,
        "contract": "contracts/HolographOperator.sol:HolographOperator",
        "label": "_podMultiplier",
        "offset": 0,
        "slot": "2",
        "type": "t_uint256"
      },
      {
        "astId": 5414,
        "contract": "contracts/HolographOperator.sol:HolographOperator",
        "label": "_operatorThreshold",
        "offset": 0,
        "slot": "3",
        "type": "t_uint256"
      },
      {
        "astId": 5417,
        "contract": "contracts/HolographOperator.sol:HolographOperator",
        "label": "_operatorThresholdStep",
        "offset": 0,
        "slot": "4",
        "type": "t_uint256"
      },
      {
        "astId": 5420,
        "contract": "contracts/HolographOperator.sol:HolographOperator",
        "label": "_operatorThresholdDivisor",
        "offset": 0,
        "slot": "5",
        "type": "t_uint256"
      },
      {
        "astId": 5425,
        "contract": "contracts/HolographOperator.sol:HolographOperator",
        "label": "_operatorJobs",
        "offset": 0,
        "slot": "6",
        "type": "t_mapping(t_bytes32,t_uint256)"
      },
      {
        "astId": 5430,
        "contract": "contracts/HolographOperator.sol:HolographOperator",
        "label": "_operatorTempStorage",
        "offset": 0,
        "slot": "7",
        "type": "t_mapping(t_uint256,t_address)"
      },
      {
        "astId": 5433,
        "contract": "contracts/HolographOperator.sol:HolographOperator",
        "label": "_operatorTempStorageCounter",
        "offset": 0,
        "slot": "8",
        "type": "t_uint32"
      },
      {
        "astId": 5438,
        "contract": "contracts/HolographOperator.sol:HolographOperator",
        "label": "_operatorPods",
        "offset": 0,
        "slot": "9",
        "type": "t_array(t_array(t_address)dyn_storage)dyn_storage"
      },
      {
        "astId": 5443,
        "contract": "contracts/HolographOperator.sol:HolographOperator",
        "label": "_bondedOperators",
        "offset": 0,
        "slot": "10",
        "type": "t_mapping(t_address,t_uint256)"
      },
      {
        "astId": 5448,
        "contract": "contracts/HolographOperator.sol:HolographOperator",
        "label": "_bondedAmounts",
        "offset": 0,
        "slot": "11",
        "type": "t_mapping(t_address,t_uint256)"
      }
    ],
    "types": {
      "t_address": {
        "encoding": "inplace",
        "label": "address",
        "numberOfBytes": "20"
      },
      "t_array(t_address)dyn_storage": {
        "base": "t_address",
        "encoding": "dynamic_array",
        "label": "address[]",
        "numberOfBytes": "32"
      },
      "t_array(t_array(t_address)dyn_storage)dyn_storage": {
        "base": "t_array(t_address)dyn_storage",
        "encoding": "dynamic_array",
        "label": "address[][]",
        "numberOfBytes": "32"
      },
      "t_bytes32": {
        "encoding": "inplace",
        "label": "bytes32",
        "numberOfBytes": "32"
      },
      "t_mapping(t_address,t_uint256)": {
        "encoding": "mapping",
        "key": "t_address",
        "label": "mapping(address => uint256)",
        "numberOfBytes": "32",
        "value": "t_uint256"
      },
      "t_mapping(t_bytes32,t_uint256)": {
        "encoding": "mapping",
        "key": "t_bytes32",
        "label": "mapping(bytes32 => uint256)",
        "numberOfBytes": "32",
        "value": "t_uint256"
      },
      "t_mapping(t_uint256,t_address)": {
        "encoding": "mapping",
        "key": "t_uint256",
        "label": "mapping(uint256 => address)",
        "numberOfBytes": "32",
        "value": "t_address"
      },
      "t_uint256": {
        "encoding": "inplace",
        "label": "uint256",
        "numberOfBytes": "32"
      },
      "t_uint32": {
        "encoding": "inplace",
        "label": "uint32",
        "numberOfBytes": "4"
      }
    }
  }
}