{
  "address": "0xa76eEf54bEe91C9002A9b018aA86530e7F827eC7",
  "abi": [
    {
      "inputs": [],
      "stateMutability": "nonpayable",
      "type": "constructor"
    },
    {
      "anonymous": false,
      "inputs": [
        {
          "indexed": true,
          "internalType": "address",
          "name": "contractAddress",
          "type": "address"
        },
        {
          "indexed": true,
          "internalType": "bytes32",
          "name": "hash",
          "type": "bytes32"
        }
      ],
      "name": "BridgeableContractDeployed",
      "type": "event"
    },
    {
      "inputs": [],
      "name": "admin",
      "outputs": [
        {
          "internalType": "address",
          "name": "",
          "type": "address"
        }
      ],
      "stateMutability": "view",
      "type": "function"
    },
    {
      "inputs": [
        {
          "internalType": "address",
          "name": "target",
          "type": "address"
        },
        {
          "internalType": "bytes",
          "name": "data",
          "type": "bytes"
        }
      ],
      "name": "adminCall",
      "outputs": [],
      "stateMutability": "payable",
      "type": "function"
    },
    {
      "inputs": [
        {
          "internalType": "uint32",
          "name": "",
          "type": "uint32"
        },
        {
          "internalType": "bytes",
          "name": "payload",
          "type": "bytes"
        }
      ],
      "name": "bridgeIn",
      "outputs": [
        {
          "internalType": "bytes4",
          "name": "",
          "type": "bytes4"
        }
      ],
      "stateMutability": "nonpayable",
      "type": "function"
    },
    {
      "inputs": [
        {
          "internalType": "uint32",
          "name": "",
          "type": "uint32"
        },
        {
          "internalType": "address",
          "name": "",
          "type": "address"
        },
        {
          "internalType": "bytes",
          "name": "payload",
          "type": "bytes"
        }
      ],
      "name": "bridgeOut",
      "outputs": [
        {
          "internalType": "bytes4",
          "name": "selector",
          "type": "bytes4"
        },
        {
          "internalType": "bytes",
          "name": "data",
          "type": "bytes"
        }
      ],
      "stateMutability": "pure",
      "type": "function"
    },
    {
      "inputs": [
        {
          "components": [
            {
              "internalType": "bytes32",
              "name": "contractType",
              "type": "bytes32"
            },
            {
              "internalType": "uint32",
              "name": "chainType",
              "type": "uint32"
            },
            {
              "internalType": "bytes32",
              "name": "salt",
              "type": "bytes32"
            },
            {
              "internalType": "bytes",
              "name": "byteCode",
              "type": "bytes"
            },
            {
              "internalType": "bytes",
              "name": "initCode",
              "type": "bytes"
            }
          ],
          "internalType": "struct DeploymentConfig",
          "name": "config",
          "type": "tuple"
        },
        {
          "components": [
            {
              "internalType": "bytes32",
              "name": "r",
              "type": "bytes32"
            },
            {
              "internalType": "bytes32",
              "name": "s",
              "type": "bytes32"
            },
            {
              "internalType": "uint8",
              "name": "v",
              "type": "uint8"
            }
          ],
          "internalType": "struct Verification",
          "name": "signature",
          "type": "tuple"
        },
        {
          "internalType": "address",
          "name": "signer",
          "type": "address"
        }
      ],
      "name": "deployHolographableContract",
      "outputs": [],
      "stateMutability": "nonpayable",
      "type": "function"
    },
    {
      "inputs": [],
      "name": "getAdmin",
      "outputs": [
        {
          "internalType": "address",
          "name": "adminAddress",
          "type": "address"
        }
      ],
      "stateMutability": "view",
      "type": "function"
    },
    {
      "inputs": [],
      "name": "getHolograph",
      "outputs": [
        {
          "internalType": "address",
          "name": "holograph",
          "type": "address"
        }
      ],
      "stateMutability": "view",
      "type": "function"
    },
    {
      "inputs": [],
      "name": "getRegistry",
      "outputs": [
        {
          "internalType": "address",
          "name": "registry",
          "type": "address"
        }
      ],
      "stateMutability": "view",
      "type": "function"
    },
    {
      "inputs": [
        {
          "internalType": "bytes",
          "name": "data",
          "type": "bytes"
        }
      ],
      "name": "init",
      "outputs": [
        {
          "internalType": "bytes4",
          "name": "",
          "type": "bytes4"
        }
      ],
      "stateMutability": "nonpayable",
      "type": "function"
    },
    {
      "inputs": [
        {
          "internalType": "address",
          "name": "adminAddress",
          "type": "address"
        }
      ],
      "name": "setAdmin",
      "outputs": [],
      "stateMutability": "nonpayable",
      "type": "function"
    },
    {
      "inputs": [
        {
          "internalType": "address",
          "name": "holograph",
          "type": "address"
        }
      ],
      "name": "setHolograph",
      "outputs": [],
      "stateMutability": "nonpayable",
      "type": "function"
    },
    {
      "inputs": [
        {
          "internalType": "address",
          "name": "registry",
          "type": "address"
        }
      ],
      "name": "setRegistry",
      "outputs": [],
      "stateMutability": "nonpayable",
      "type": "function"
    }
  ],
  "transactionHash": "0xe0a04304c4b7c1537e9222df7ec66fadd02a200f8c812621632b50f04be74066",
  "args": [],
  "numDeployments": 1,
  "solcInputHash": "0b5e3a4fef7397ea053a407f08962d01",
  "bytecode": "0x608060405234801561001057600080fd5b5061238f806100206000396000f3fe6080604052600436106100c75760003560e01c8063704b6c0211610074578063bf64a82d1161004e578063bf64a82d1461028f578063df6516bd146102a2578063f851a440146102c257600080fd5b8063704b6c0214610221578063a91ee0dc14610241578063b7e036611461026157600080fd5b80634ddf47d4116100a55780634ddf47d4146101995780635ab1bd53146101b95780636e9960c3146101ed57600080fd5b806308a1eb20146100cc57806325d5cac8146101225780634827ae0c14610144575b600080fd5b3480156100d857600080fd5b506100ec6100e7366004610ffe565b6102d7565b6040517fffffffff0000000000000000000000000000000000000000000000000000000090911681526020015b60405180910390f35b34801561012e57600080fd5b5061014261013d366004611076565b610325565b005b34801561015057600080fd5b507fb4107f746e9496e8452accc7de63d1c5e14c19f510932daa04077cd49e8bd77a545b60405173ffffffffffffffffffffffffffffffffffffffff9091168152602001610119565b3480156101a557600080fd5b506100ec6101b4366004611174565b610404565b3480156101c557600080fd5b507fce8e75d5c5227ce29a4ee170160bb296e5dea6934b80a9bd723f7ef1e7c850e754610174565b3480156101f957600080fd5b507f3f106594dc74eeef980dae234cde8324dc2497b13d27a0c59e55bd2ca10a07c954610174565b34801561022d57600080fd5b5061014261023c366004611076565b61056b565b34801561024d57600080fd5b5061014261025c366004611076565b610645565b34801561026d57600080fd5b5061028161027c3660046111b1565b61071f565b60405161011992919061127f565b61014261029d3660046112ba565b610773565b3480156102ae57600080fd5b506101426102bd3660046113f5565b61084e565b3480156102ce57600080fd5b50610174610dbc565b60008080806102e8858701876113f5565b9250925092506102f983838361084e565b507f08a1eb20000000000000000000000000000000000000000000000000000000009695505050505050565b7f3f106594dc74eeef980dae234cde8324dc2497b13d27a0c59e55bd2ca10a07c95473ffffffffffffffffffffffffffffffffffffffff163373ffffffffffffffffffffffffffffffffffffffff16146103e0576040517f08c379a000000000000000000000000000000000000000000000000000000000815260206004820152601e60248201527f484f4c4f47524150483a2061646d696e206f6e6c792066756e6374696f6e000060448201526064015b60405180910390fd5b7fb4107f746e9496e8452accc7de63d1c5e14c19f510932daa04077cd49e8bd77a55565b600061042e7f4e5f991bca30eca2d4643aaefa807e88f96a4a97398933d572a3c0d973004a015490565b15610495576040517f08c379a000000000000000000000000000000000000000000000000000000000815260206004820152601e60248201527f484f4c4f47524150483a20616c726561647920696e697469616c697a6564000060448201526064016103d7565b600080838060200190518101906104ac9190611458565b91509150327f3f106594dc74eeef980dae234cde8324dc2497b13d27a0c59e55bd2ca10a07c955817fb4107f746e9496e8452accc7de63d1c5e14c19f510932daa04077cd49e8bd77a55807fce8e75d5c5227ce29a4ee170160bb296e5dea6934b80a9bd723f7ef1e7c850e75561054260017f4e5f991bca30eca2d4643aaefa807e88f96a4a97398933d572a3c0d973004a0155565b507f4ddf47d4000000000000000000000000000000000000000000000000000000009392505050565b7f3f106594dc74eeef980dae234cde8324dc2497b13d27a0c59e55bd2ca10a07c95473ffffffffffffffffffffffffffffffffffffffff163373ffffffffffffffffffffffffffffffffffffffff1614610621576040517f08c379a000000000000000000000000000000000000000000000000000000000815260206004820152601e60248201527f484f4c4f47524150483a2061646d696e206f6e6c792066756e6374696f6e000060448201526064016103d7565b7f3f106594dc74eeef980dae234cde8324dc2497b13d27a0c59e55bd2ca10a07c955565b7f3f106594dc74eeef980dae234cde8324dc2497b13d27a0c59e55bd2ca10a07c95473ffffffffffffffffffffffffffffffffffffffff163373ffffffffffffffffffffffffffffffffffffffff16146106fb576040517f08c379a000000000000000000000000000000000000000000000000000000000815260206004820152601e60248201527f484f4c4f47524150483a2061646d696e206f6e6c792066756e6374696f6e000060448201526064016103d7565b7fce8e75d5c5227ce29a4ee170160bb296e5dea6934b80a9bd723f7ef1e7c850e755565b6000606063b7e0366160e01b848481818080601f016020809104026020016040519081016040528093929190818152602001838380828437600092019190915250959c929b50919950505050505050505050565b7f3f106594dc74eeef980dae234cde8324dc2497b13d27a0c59e55bd2ca10a07c95473ffffffffffffffffffffffffffffffffffffffff163373ffffffffffffffffffffffffffffffffffffffff1614610829576040517f08c379a000000000000000000000000000000000000000000000000000000000815260206004820152601e60248201527f484f4c4f47524150483a2061646d696e206f6e6c792066756e6374696f6e000060448201526064016103d7565b808260003760008082600034875af13d6000803e808015610849573d6000f35b3d6000fd5b82516020808501516040808701516060880151805190850120608089015180519086012092516000966108f4969095949189910195865260e09490941b7fffffffff0000000000000000000000000000000000000000000000000000000016602086015260248501929092526044840152606483015260601b7fffffffffffffffffffffffffffffffffffffffff00000000000000000000000016608482015260980190565b6040516020818303038152906040528051906020012090506109258360000151846020015185604001518486610deb565b61098b576040517f08c379a000000000000000000000000000000000000000000000000000000000815260206004820152601c60248201527f484f4c4f47524150483a20696e76616c6964207369676e61747572650000000060448201526064016103d7565b7fce8e75d5c5227ce29a4ee170160bb296e5dea6934b80a9bd723f7ef1e7c850e7546040517f24299c6e0000000000000000000000000000000000000000000000000000000081526004810183905273ffffffffffffffffffffffffffffffffffffffff909116906324299c6e90602401602060405180830381865afa158015610a19573d6000803e3d6000fd5b505050506040513d601f19601f82011682018060405250810190610a3d9190611492565b15610aa4576040517f08c379a000000000000000000000000000000000000000000000000000000000815260206004820152601b60248201527f484f4c4f47524150483a20616c7265616479206465706c6f796564000000000060448201526064016103d7565b60608401518051829160009183906020830184f59150600060405180602001610acc90610f8f565b6020820181038252601f19601f8201166040525090506000848251602084016000f57fb4107f746e9496e8452accc7de63d1c5e14c19f510932daa04077cd49e8bd77a5460208b8101518c516040805163ffffffff9093169383019390935273ffffffffffffffffffffffffffffffffffffffff808516938301939093526060820152878216608082015292935090917f4ddf47d40000000000000000000000000000000000000000000000000000000091841690634ddf47d49060a001604080517fffffffffffffffffffffffffffffffffffffffffffffffffffffffffffffffe08184030181529082905260808f0151610bca926020016114b4565b6040516020818303038152906040526040518263ffffffff1660e01b8152600401610bf591906114e2565b6020604051808303816000875af1158015610c14573d6000803e3d6000fd5b505050506040513d601f19601f82011682018060405250810190610c3891906114f5565b7fffffffff000000000000000000000000000000000000000000000000000000001614610cc1576040517f08c379a000000000000000000000000000000000000000000000000000000000815260206004820152601560248201527f696e697469616c697a6174696f6e206661696c6564000000000000000000000060448201526064016103d7565b7fce8e75d5c5227ce29a4ee170160bb296e5dea6934b80a9bd723f7ef1e7c850e7546040517fd9aa2a7c0000000000000000000000000000000000000000000000000000000081526004810189905273ffffffffffffffffffffffffffffffffffffffff8481166024830152919091169063d9aa2a7c90604401600060405180830381600087803b158015610d5557600080fd5b505af1158015610d69573d6000803e3d6000fd5b505060405189925073ffffffffffffffffffffffffffffffffffffffff851691507fa802207d4c618b40db3b25b7b90e6f483e16b2c1f8d3610b15b345a718c6b41b90600090a350505050505050505050565b6000610de67f3f106594dc74eeef980dae234cde8324dc2497b13d27a0c59e55bd2ca10a07c95490565b905090565b6000601b8460ff161015610e0757610e04601b85611537565b93505b60408051600081526020810180835285905260ff861691810191909152606081018790526080810186905273ffffffffffffffffffffffffffffffffffffffff83169060019060a0016020604051602081039080840390855afa158015610e72573d6000803e3d6000fd5b5050506020604051035173ffffffffffffffffffffffffffffffffffffffff161480610f8557506040517f19457468657265756d205369676e6564204d6573736167653a0a3332000000006020820152603c810184905273ffffffffffffffffffffffffffffffffffffffff831690600190605c01604080517fffffffffffffffffffffffffffffffffffffffffffffffffffffffffffffffe08184030181528282528051602091820120600084529083018083525260ff881690820152606081018990526080810188905260a0016020604051602081039080840390855afa158015610f63573d6000803e3d6000fd5b5050506020604051035173ffffffffffffffffffffffffffffffffffffffff16145b9695505050505050565b610dff8061158483390190565b803563ffffffff81168114610fb057600080fd5b919050565b60008083601f840112610fc757600080fd5b50813567ffffffffffffffff811115610fdf57600080fd5b602083019150836020828501011115610ff757600080fd5b9250929050565b60008060006040848603121561101357600080fd5b61101c84610f9c565b9250602084013567ffffffffffffffff81111561103857600080fd5b61104486828701610fb5565b9497909650939450505050565b73ffffffffffffffffffffffffffffffffffffffff8116811461107357600080fd5b50565b60006020828403121561108857600080fd5b813561109381611051565b9392505050565b7f4e487b7100000000000000000000000000000000000000000000000000000000600052604160045260246000fd5b600082601f8301126110da57600080fd5b813567ffffffffffffffff808211156110f5576110f561109a565b604051601f83017fffffffffffffffffffffffffffffffffffffffffffffffffffffffffffffffe0908116603f0116810190828211818310171561113b5761113b61109a565b8160405283815286602085880101111561115457600080fd5b836020870160208301376000602085830101528094505050505092915050565b60006020828403121561118657600080fd5b813567ffffffffffffffff81111561119d57600080fd5b6111a9848285016110c9565b949350505050565b600080600080606085870312156111c757600080fd5b6111d085610f9c565b935060208501356111e081611051565b9250604085013567ffffffffffffffff8111156111fc57600080fd5b61120887828801610fb5565b95989497509550505050565b6000815180845260005b8181101561123a5760208185018101518683018201520161121e565b8181111561124c576000602083870101525b50601f017fffffffffffffffffffffffffffffffffffffffffffffffffffffffffffffffe0169290920160200192915050565b7fffffffff00000000000000000000000000000000000000000000000000000000831681526040602082015260006111a96040830184611214565b6000806000604084860312156112cf57600080fd5b833561101c81611051565b600060a082840312156112ec57600080fd5b60405160a0810167ffffffffffffffff82821081831117156113105761131061109a565b816040528293508435835261132760208601610f9c565b602084015260408501356040840152606085013591508082111561134a57600080fd5b611356868387016110c9565b6060840152608085013591508082111561136f57600080fd5b5061137c858286016110c9565b6080830152505092915050565b60006060828403121561139b57600080fd5b6040516060810181811067ffffffffffffffff821117156113be576113be61109a565b80604052508091508235815260208301356020820152604083013560ff811681146113e857600080fd5b6040919091015292915050565b600080600060a0848603121561140a57600080fd5b833567ffffffffffffffff81111561142157600080fd5b61142d868287016112da565b93505061143d8560208601611389565b9150608084013561144d81611051565b809150509250925092565b6000806040838503121561146b57600080fd5b825161147681611051565b602084015190925061148781611051565b809150509250929050565b6000602082840312156114a457600080fd5b8151801515811461109357600080fd5b6040815260006114c76040830185611214565b82810360208401526114d98185611214565b95945050505050565b6020815260006110936020830184611214565b60006020828403121561150757600080fd5b81517fffffffff000000000000000000000000000000000000000000000000000000008116811461109357600080fd5b600060ff821660ff84168060ff0382111561157b577f4e487b7100000000000000000000000000000000000000000000000000000000600052601160045260246000fd5b01939250505056fe608060405234801561001057600080fd5b50610ddf806100206000396000f3fe6080604052600436106100b55760003560e01c806380d1cb3511610069578063bf64a82d1161004e578063bf64a82d14610299578063c8a4c3d5146102ac578063f851a440146102c1576100bc565b806380d1cb3514610221578063913a0ef214610255576100bc565b80636e9960c31161009a5780636e9960c3146101995780636faf275b146101cd578063704b6c0214610201576100bc565b80634827ae0c146100ee5780634ddf47d414610148576100bc565b366100bc57005b60006100c66102d6565b90503660008037600080366000845af43d6000803e8080156100e7573d6000f35b3d6000fd5b005b3480156100fa57600080fd5b507fb4107f746e9496e8452accc7de63d1c5e14c19f510932daa04077cd49e8bd77a545b60405173ffffffffffffffffffffffffffffffffffffffff90911681526020015b60405180910390f35b34801561015457600080fd5b50610168610163366004610a79565b610414565b6040517fffffffff00000000000000000000000000000000000000000000000000000000909116815260200161013f565b3480156101a557600080fd5b507f3f106594dc74eeef980dae234cde8324dc2497b13d27a0c59e55bd2ca10a07c95461011e565b3480156101d957600080fd5b507f27d542086d1e831d40b749e7f5509a626c3047a36d160781c40d5acc83e5b0745461011e565b34801561020d57600080fd5b506100ec61021c366004610b1e565b6107d6565b34801561022d57600080fd5b507f9172848b0f1df776dc924b58e7fa303087ae0409bbf611608529e7f747d55de35461011e565b34801561026157600080fd5b507fd49ffd6af8249d6e6b5963d9d2b22c6db30ad594cb468453047a14e1c1bcde4d5460405163ffffffff909116815260200161013f565b6100ec6102a7366004610b42565b6108b0565b3480156102b857600080fd5b5061011e6102d6565b3480156102cd57600080fd5b5061011e610986565b60008060007fb4107f746e9496e8452accc7de63d1c5e14c19f510932daa04077cd49e8bd77a5491507f0b671eb65810897366dd82c4cbb7d9dff8beda8484194956e81e89b8a361d9c75490508173ffffffffffffffffffffffffffffffffffffffff16635ab1bd536040518163ffffffff1660e01b8152600401602060405180830381865afa15801561036e573d6000803e3d6000fd5b505050506040513d601f19601f820116820180604052508101906103929190610bc7565b73ffffffffffffffffffffffffffffffffffffffff1663cc2913f9826040518263ffffffff1660e01b81526004016103cc91815260200190565b602060405180830381865afa1580156103e9573d6000803e3d6000fd5b505050506040513d601f19601f8201168201806040525081019061040d9190610bc7565b9250505090565b600061043e7f4e5f991bca30eca2d4643aaefa807e88f96a4a97398933d572a3c0d973004a015490565b156104aa576040517f08c379a000000000000000000000000000000000000000000000000000000000815260206004820181905260248201527f484f4c4f475241504845523a20616c726561647920696e697469616c697a656460448201526064015b60405180910390fd5b600080838060200190518101906104c19190610c61565b91509150600080600080858060200190518101906104df9190610cc5565b9350935093509350337f3f106594dc74eeef980dae234cde8324dc2497b13d27a0c59e55bd2ca10a07c955837fd49ffd6af8249d6e6b5963d9d2b22c6db30ad594cb468453047a14e1c1bcde4d55827fb4107f746e9496e8452accc7de63d1c5e14c19f510932daa04077cd49e8bd77a55817f0b671eb65810897366dd82c4cbb7d9dff8beda8484194956e81e89b8a361d9c755807f27d542086d1e831d40b749e7f5509a626c3047a36d160781c40d5acc83e5b07455437f9172848b0f1df776dc924b58e7fa303087ae0409bbf611608529e7f747d55de3556000806105c46102d6565b73ffffffffffffffffffffffffffffffffffffffff16876040516024016105eb9190610d23565b604080517fffffffffffffffffffffffffffffffffffffffffffffffffffffffffffffffe08184030181529181526020820180517bffffffffffffffffffffffffffffffffffffffffffffffffffffffff167f4ddf47d4000000000000000000000000000000000000000000000000000000001790525161066c9190610d74565b600060405180830381855af49150503d80600081146106a7576040519150601f19603f3d011682016040523d82523d6000602084013e6106ac565b606091505b50915091506000818060200190518101906106c79190610d90565b905082801561071757507fffffffff0000000000000000000000000000000000000000000000000000000081167f4ddf47d400000000000000000000000000000000000000000000000000000000145b61077d576040517f08c379a000000000000000000000000000000000000000000000000000000000815260206004820152601560248201527f696e697469616c697a6174696f6e206661696c6564000000000000000000000060448201526064016104a1565b6107a660017f4e5f991bca30eca2d4643aaefa807e88f96a4a97398933d572a3c0d973004a0155565b507f4ddf47d4000000000000000000000000000000000000000000000000000000009a9950505050505050505050565b7f3f106594dc74eeef980dae234cde8324dc2497b13d27a0c59e55bd2ca10a07c95473ffffffffffffffffffffffffffffffffffffffff163373ffffffffffffffffffffffffffffffffffffffff161461088c576040517f08c379a000000000000000000000000000000000000000000000000000000000815260206004820152601e60248201527f484f4c4f47524150483a2061646d696e206f6e6c792066756e6374696f6e000060448201526064016104a1565b7f3f106594dc74eeef980dae234cde8324dc2497b13d27a0c59e55bd2ca10a07c955565b7f3f106594dc74eeef980dae234cde8324dc2497b13d27a0c59e55bd2ca10a07c95473ffffffffffffffffffffffffffffffffffffffff163373ffffffffffffffffffffffffffffffffffffffff1614610966576040517f08c379a000000000000000000000000000000000000000000000000000000000815260206004820152601e60248201527f484f4c4f47524150483a2061646d696e206f6e6c792066756e6374696f6e000060448201526064016104a1565b808260003760008082600034875af13d6000803e8080156100e7573d6000f35b60006109b07f3f106594dc74eeef980dae234cde8324dc2497b13d27a0c59e55bd2ca10a07c95490565b905090565b7f4e487b7100000000000000000000000000000000000000000000000000000000600052604160045260246000fd5b604051601f82017fffffffffffffffffffffffffffffffffffffffffffffffffffffffffffffffe016810167ffffffffffffffff81118282101715610a2b57610a2b6109b5565b604052919050565b600067ffffffffffffffff821115610a4d57610a4d6109b5565b50601f017fffffffffffffffffffffffffffffffffffffffffffffffffffffffffffffffe01660200190565b600060208284031215610a8b57600080fd5b813567ffffffffffffffff811115610aa257600080fd5b8201601f81018413610ab357600080fd5b8035610ac6610ac182610a33565b6109e4565b818152856020838501011115610adb57600080fd5b81602084016020830137600091810160200191909152949350505050565b73ffffffffffffffffffffffffffffffffffffffff81168114610b1b57600080fd5b50565b600060208284031215610b3057600080fd5b8135610b3b81610af9565b9392505050565b600080600060408486031215610b5757600080fd5b8335610b6281610af9565b9250602084013567ffffffffffffffff80821115610b7f57600080fd5b818601915086601f830112610b9357600080fd5b813581811115610ba257600080fd5b876020828501011115610bb457600080fd5b6020830194508093505050509250925092565b600060208284031215610bd957600080fd5b8151610b3b81610af9565b60005b83811015610bff578181015183820152602001610be7565b83811115610c0e576000848401525b50505050565b600082601f830112610c2557600080fd5b8151610c33610ac182610a33565b818152846020838601011115610c4857600080fd5b610c59826020830160208701610be4565b949350505050565b60008060408385031215610c7457600080fd5b825167ffffffffffffffff80821115610c8c57600080fd5b610c9886838701610c14565b93506020850151915080821115610cae57600080fd5b50610cbb85828601610c14565b9150509250929050565b60008060008060808587031215610cdb57600080fd5b845163ffffffff81168114610cef57600080fd5b6020860151909450610d0081610af9565b604086015160608701519194509250610d1881610af9565b939692955090935050565b6020815260008251806020840152610d42816040850160208701610be4565b601f017fffffffffffffffffffffffffffffffffffffffffffffffffffffffffffffffe0169190910160400192915050565b60008251610d86818460208701610be4565b9190910192915050565b600060208284031215610da257600080fd5b81517fffffffff0000000000000000000000000000000000000000000000000000000081168114610b3b57600080fdfea164736f6c634300080d000aa164736f6c634300080d000a",
  "devdoc": {
    "details": "This smart contract demonstrates a clear and concise way that we plan to deploy smart contracts.With the goal of deploying replicate-able non-fungible token smart contracts through this process.This is just the first step. But it is fundamental for achieving cross-chain non-fungible tokens.",
    "events": {
      "BridgeableContractDeployed(address,bytes32)": {
        "details": "This event is fired every time that a bridgeable contract is deployed."
      }
    },
    "kind": "dev",
    "methods": {
      "constructor": {
        "details": "Constructor is left empty and only the admin address is set."
      },
      "deployHolographableContract((bytes32,uint32,bytes32,bytes,bytes),(bytes32,bytes32,uint8),address)": {
        "details": "A sample function of the deployment of bridgeable smart contracts.The used variables and formatting is not the final or decisive version, but the general idea is directly portrayed."
      }
    },
    "version": 1
  },
  "userdoc": {
    "kind": "user",
    "methods": {
      "deployHolographableContract((bytes32,uint32,bytes32,bytes,bytes),(bytes32,bytes32,uint8),address)": {
        "notice": "In this function we have incorporated a secure storage function/extension. Keep in mind that this is not required or needed for bridgeable deployments to work. It is just a personal development choice."
      }
    },
    "version": 1
  },
  "storageLayout": {
    "storage": [],
    "types": null
  }
}