{
  "address": "0x6a08576488F3573ee6C605099F3991F75A77f46c",
  "abi": [
    {
      "inputs": [],
      "stateMutability": "nonpayable",
      "type": "constructor"
    },
    {
      "inputs": [
        {
          "internalType": "address",
          "name": "",
          "type": "address"
        },
        {
          "internalType": "address",
          "name": "",
          "type": "address"
        },
        {
          "internalType": "uint256",
          "name": "",
          "type": "uint256"
        },
        {
          "internalType": "bytes",
          "name": "",
          "type": "bytes"
        }
      ],
      "name": "onERC721Received",
      "outputs": [
        {
          "internalType": "bytes4",
          "name": "",
          "type": "bytes4"
        }
      ],
      "stateMutability": "view",
      "type": "function"
    },
    {
      "inputs": [
        {
          "internalType": "bytes4",
          "name": "interfaceID",
          "type": "bytes4"
        }
      ],
      "name": "supportsInterface",
      "outputs": [
        {
          "internalType": "bool",
          "name": "",
          "type": "bool"
        }
      ],
      "stateMutability": "pure",
      "type": "function"
    },
    {
      "inputs": [
        {
          "internalType": "bool",
          "name": "active",
          "type": "bool"
        }
      ],
      "name": "toggleWorks",
      "outputs": [],
      "stateMutability": "nonpayable",
      "type": "function"
    },
    {
      "inputs": [
        {
          "internalType": "address payable",
          "name": "token",
          "type": "address"
        },
        {
          "internalType": "uint256",
          "name": "tokenId",
          "type": "uint256"
        },
        {
          "internalType": "address",
          "name": "to",
          "type": "address"
        }
      ],
      "name": "transferNFT",
      "outputs": [],
      "stateMutability": "nonpayable",
      "type": "function"
    }
  ],
  "transactionHash": "0x54f65b33413c9561a55c7da31a8101f3d0529102091b050b2dca000b087e34ab",
  "args": [],
  "numDeployments": 1,
  "solcInputHash": "0b5e3a4fef7397ea053a407f08962d01",
  "bytecode": "0x608060405234801561001057600080fd5b506000805460ff1916600117905561040a8061002d6000396000f3fe608060405234801561001057600080fd5b506004361061004c5760003560e01c806301ffc9a714610051578063150b7a021461007957806392ed8e1c146100bd578063d2f0922a146100fe575b600080fd5b61006461005f36600461028c565b610111565b60405190151581526020015b60405180910390f35b61008c6100873660046102fa565b6101b9565b6040517fffffffff000000000000000000000000000000000000000000000000000000009091168152602001610070565b6100fc6100cb366004610399565b600080547fffffffffffffffffffffffffffffffffffffffffffffffffffffffffffffff0016911515919091179055565b005b6100fc61010c3660046103bb565b6101f9565b60007f01ffc9a7000000000000000000000000000000000000000000000000000000007fffffffff00000000000000000000000000000000000000000000000000000000831614806101a457507f150b7a02000000000000000000000000000000000000000000000000000000007fffffffff000000000000000000000000000000000000000000000000000000008316145b156101b157506001919050565b506000919050565b6000805460ff16156101ec57507f150b7a02000000000000000000000000000000000000000000000000000000006101f0565b5060005b95945050505050565b6040517f42842e0e00000000000000000000000000000000000000000000000000000000815230600482015273ffffffffffffffffffffffffffffffffffffffff8281166024830152604482018490528416906342842e0e90606401600060405180830381600087803b15801561026f57600080fd5b505af1158015610283573d6000803e3d6000fd5b50505050505050565b60006020828403121561029e57600080fd5b81357fffffffff00000000000000000000000000000000000000000000000000000000811681146102ce57600080fd5b9392505050565b73ffffffffffffffffffffffffffffffffffffffff811681146102f757600080fd5b50565b60008060008060006080868803121561031257600080fd5b853561031d816102d5565b9450602086013561032d816102d5565b935060408601359250606086013567ffffffffffffffff8082111561035157600080fd5b818801915088601f83011261036557600080fd5b81358181111561037457600080fd5b89602082850101111561038657600080fd5b9699959850939650602001949392505050565b6000602082840312156103ab57600080fd5b813580151581146102ce57600080fd5b6000806000606084860312156103d057600080fd5b83356103db816102d5565b92506020840135915060408401356103f2816102d5565b80915050925092509256fea164736f6c634300080d000a",
  "devdoc": {
    "kind": "dev",
    "methods": {
      "supportsInterface(bytes4)": {
        "details": "Interface identification is specified in ERC-165. This function  uses less than 30,000 gas.",
        "params": {
          "interfaceID": "The interface identifier, as specified in ERC-165"
        },
        "returns": {
          "_0": "`true` if the contract implements `interfaceID` and  `interfaceID` is not 0xffffffff, `false` otherwise"
        }
      }
    },
    "version": 1
  },
  "userdoc": {
    "kind": "user",
    "methods": {
      "supportsInterface(bytes4)": {
        "notice": "Query if a contract implements an interface"
      }
    },
    "version": 1
  },
  "storageLayout": {
    "storage": [
      {
        "astId": 19389,
        "contract": "contracts/mock/MockERC721Receiver.sol:MockERC721Receiver",
        "label": "_works",
        "offset": 0,
        "slot": "0",
        "type": "t_bool"
      }
    ],
    "types": {
      "t_bool": {
        "encoding": "inplace",
        "label": "bool",
        "numberOfBytes": "1"
      }
    }
  }
}