{
  "address": "0x6fE1b294D5658AB665e1Ce452dEB3BbFAE99750a",
  "abi": [
    {
      "inputs": [],
      "stateMutability": "nonpayable",
      "type": "constructor"
    },
    {
      "inputs": [],
      "name": "admin",
      "outputs": [
        {
          "internalType": "address",
          "name": "",
          "type": "address"
        }
      ],
      "stateMutability": "view",
      "type": "function"
    },
    {
      "inputs": [
        {
          "internalType": "address",
          "name": "target",
          "type": "address"
        },
        {
          "internalType": "bytes",
          "name": "data",
          "type": "bytes"
        }
      ],
      "name": "adminCall",
      "outputs": [],
      "stateMutability": "payable",
      "type": "function"
    },
    {
      "inputs": [
        {
          "internalType": "uint256",
          "name": "usdAmount",
          "type": "uint256"
        }
      ],
      "name": "convertUsdToWei",
      "outputs": [
        {
          "internalType": "uint256",
          "name": "weiAmount",
          "type": "uint256"
        }
      ],
      "stateMutability": "view",
      "type": "function"
    },
    {
      "inputs": [],
      "name": "getAdmin",
      "outputs": [
        {
          "internalType": "address",
          "name": "adminAddress",
          "type": "address"
        }
      ],
      "stateMutability": "view",
      "type": "function"
    },
    {
      "inputs": [],
      "name": "getTokenPriceRatio",
      "outputs": [
        {
          "internalType": "uint256",
          "name": "tokenPriceRatio",
          "type": "uint256"
        }
      ],
      "stateMutability": "view",
      "type": "function"
    },
    {
      "inputs": [
        {
          "internalType": "bytes",
          "name": "",
          "type": "bytes"
        }
      ],
      "name": "init",
      "outputs": [
        {
          "internalType": "bytes4",
          "name": "",
          "type": "bytes4"
        }
      ],
      "stateMutability": "nonpayable",
      "type": "function"
    },
    {
      "inputs": [
        {
          "internalType": "address",
          "name": "adminAddress",
          "type": "address"
        }
      ],
      "name": "setAdmin",
      "outputs": [],
      "stateMutability": "nonpayable",
      "type": "function"
    },
    {
      "inputs": [
        {
          "internalType": "uint256",
          "name": "tokenPriceRatio",
          "type": "uint256"
        }
      ],
      "name": "setTokenPriceRatio",
      "outputs": [],
      "stateMutability": "nonpayable",
      "type": "function"
    }
  ],
  "transactionHash": "0x31dd6b6c3c8ec4a83f84d499e2ddf1e99c54924dc7241e2292ef5e65d14b3946",
  "args": [],
  "numDeployments": 1,
  "solcInputHash": "eaccabe53e7de4a0dd89d9180b8a1c06",
  "bytecode": "0x608060405234801561001057600080fd5b50610961806100206000396000f3fe60806040526004361061007b5760003560e01c806387964d431161004e57806387964d431461016d578063bf64a82d146101ab578063f5d78161146101be578063f851a440146101de57600080fd5b806308d0a0ed146100805780634ddf47d4146100a25780636e9960c3146100f8578063704b6c021461014d575b600080fd5b34801561008c57600080fd5b506100a061009b366004610699565b6101f3565b005b3480156100ae57600080fd5b506100c26100bd3660046106e1565b6102d2565b6040517fffffffff0000000000000000000000000000000000000000000000000000000090911681526020015b60405180910390f35b34801561010457600080fd5b507f3f106594dc74eeef980dae234cde8324dc2497b13d27a0c59e55bd2ca10a07c9545b60405173ffffffffffffffffffffffffffffffffffffffff90911681526020016100ef565b34801561015957600080fd5b506100a06101683660046107d9565b610401565b34801561017957600080fd5b507f562ce994878444f1ca8bcf3afcea513b950965abed659462312e8fdd38c020a1545b6040519081526020016100ef565b6100a06101b93660046107fb565b6104db565b3480156101ca57600080fd5b5061019d6101d9366004610699565b6105b6565b3480156101ea57600080fd5b5061012861066a565b7f3f106594dc74eeef980dae234cde8324dc2497b13d27a0c59e55bd2ca10a07c95473ffffffffffffffffffffffffffffffffffffffff163373ffffffffffffffffffffffffffffffffffffffff16146102ae576040517f08c379a000000000000000000000000000000000000000000000000000000000815260206004820152601e60248201527f484f4c4f47524150483a2061646d696e206f6e6c792066756e6374696f6e000060448201526064015b60405180910390fd5b7f562ce994878444f1ca8bcf3afcea513b950965abed659462312e8fdd38c020a155565b60006102fc7f4e5f991bca30eca2d4643aaefa807e88f96a4a97398933d572a3c0d973004a015490565b15610363576040517f08c379a000000000000000000000000000000000000000000000000000000000815260206004820152601e60248201527f484f4c4f47524150483a20616c726561647920696e697469616c697a6564000060448201526064016102a5565b327f3f106594dc74eeef980dae234cde8324dc2497b13d27a0c59e55bd2ca10a07c955670de0b6b3a76400007f562ce994878444f1ca8bcf3afcea513b950965abed659462312e8fdd38c020a1556103da60017f4e5f991bca30eca2d4643aaefa807e88f96a4a97398933d572a3c0d973004a0155565b507f4ddf47d400000000000000000000000000000000000000000000000000000000919050565b7f3f106594dc74eeef980dae234cde8324dc2497b13d27a0c59e55bd2ca10a07c95473ffffffffffffffffffffffffffffffffffffffff163373ffffffffffffffffffffffffffffffffffffffff16146104b7576040517f08c379a000000000000000000000000000000000000000000000000000000000815260206004820152601e60248201527f484f4c4f47524150483a2061646d696e206f6e6c792066756e6374696f6e000060448201526064016102a5565b7f3f106594dc74eeef980dae234cde8324dc2497b13d27a0c59e55bd2ca10a07c955565b7f3f106594dc74eeef980dae234cde8324dc2497b13d27a0c59e55bd2ca10a07c95473ffffffffffffffffffffffffffffffffffffffff163373ffffffffffffffffffffffffffffffffffffffff1614610591576040517f08c379a000000000000000000000000000000000000000000000000000000000815260206004820152601e60248201527f484f4c4f47524150483a2061646d696e206f6e6c792066756e6374696f6e000060448201526064016102a5565b808260003760008082600034875af13d6000803e8080156105b1573d6000f35b3d6000fd5b60006105c78264e8d4a510006108ad565b7f562ce994878444f1ca8bcf3afcea513b950965abed659462312e8fdd38c020a1549092507002f050fe938943acc45f6556800000000090600061061482683635c9adc5dea000006108ad565b9050600061062286856108ad565b61062e906103e86108ad565b9050600061063c87846108ea565b610648906103e86108ad565b90506106548183610901565b61065f90600161093c565b979650505050505050565b60006106947f3f106594dc74eeef980dae234cde8324dc2497b13d27a0c59e55bd2ca10a07c95490565b905090565b6000602082840312156106ab57600080fd5b5035919050565b7f4e487b7100000000000000000000000000000000000000000000000000000000600052604160045260246000fd5b6000602082840312156106f357600080fd5b813567ffffffffffffffff8082111561070b57600080fd5b818401915084601f83011261071f57600080fd5b813581811115610731576107316106b2565b604051601f82017fffffffffffffffffffffffffffffffffffffffffffffffffffffffffffffffe0908116603f01168101908382118183101715610777576107776106b2565b8160405282815287602084870101111561079057600080fd5b826020860160208301376000928101602001929092525095945050505050565b803573ffffffffffffffffffffffffffffffffffffffff811681146107d457600080fd5b919050565b6000602082840312156107eb57600080fd5b6107f4826107b0565b9392505050565b60008060006040848603121561081057600080fd5b610819846107b0565b9250602084013567ffffffffffffffff8082111561083657600080fd5b818601915086601f83011261084a57600080fd5b81358181111561085957600080fd5b87602082850101111561086b57600080fd5b6020830194508093505050509250925092565b7f4e487b7100000000000000000000000000000000000000000000000000000000600052601160045260246000fd5b6000817fffffffffffffffffffffffffffffffffffffffffffffffffffffffffffffffff04831182151516156108e5576108e561087e565b500290565b6000828210156108fc576108fc61087e565b500390565b600082610937577f4e487b7100000000000000000000000000000000000000000000000000000000600052601260045260246000fd5b500490565b6000821982111561094f5761094f61087e565b50019056fea164736f6c634300080d000a",
  "devdoc": {
    "kind": "dev",
    "methods": {
      "constructor": {
        "details": "Constructor is left empty and init is used instead"
      },
      "convertUsdToWei(uint256)": {
        "params": {
          "usdAmount": "a 6 decimal places USD amount"
        }
      },
      "init(bytes)": {
        "details": "This function is called by the deployer/factory when creating a contract"
      }
    },
    "stateVariables": {
      "_tokenPriceRatioSlot": {
        "details": "bytes32(uint256(keccak256('eip1967.Holograph.tokenPriceRatio')) - 1)"
      }
    },
    "version": 1
  },
  "userdoc": {
    "kind": "user",
    "methods": {
      "convertUsdToWei(uint256)": {
        "notice": "Convert USD value to native gas token value"
      },
      "init(bytes)": {
        "notice": "Used internally to initialize the contract instead of through a constructor"
      }
    },
    "version": 1
  },
  "storageLayout": {
    "storage": [],
    "types": null
  }
}